{
  "address": "0x3BECa8cE2b6c18BB69669879865c213f13C9f902",
  "_format": "hh-sol-artifact-1",
  "contractName": "DAI",
  "sourceName": "contracts/tokens/DAI.sol",
  "abi": [
    {
      "inputs": [],
      "stateMutability": "nonpayable",
      "type": "constructor"
    },
    {
      "anonymous": false,
      "inputs": [
        {
          "indexed": true,
          "internalType": "address",
          "name": "owner",
          "type": "address"
        },
        {
          "indexed": true,
          "internalType": "address",
          "name": "spender",
          "type": "address"
        },
        {
          "indexed": false,
          "internalType": "uint256",
          "name": "value",
          "type": "uint256"
        }
      ],
      "name": "Approval",
      "type": "event"
    },
    {
      "anonymous": false,
      "inputs": [
        {
          "indexed": true,
          "internalType": "address",
          "name": "previousOwner",
          "type": "address"
        },
        {
          "indexed": true,
          "internalType": "address",
          "name": "newOwner",
          "type": "address"
        }
      ],
      "name": "OwnershipTransferred",
      "type": "event"
    },
    {
      "anonymous": false,
      "inputs": [
        {
          "indexed": true,
          "internalType": "address",
          "name": "from",
          "type": "address"
        },
        {
          "indexed": true,
          "internalType": "address",
          "name": "to",
          "type": "address"
        },
        {
          "indexed": false,
          "internalType": "uint256",
          "name": "value",
          "type": "uint256"
        }
      ],
      "name": "Transfer",
      "type": "event"
    },
    {
      "inputs": [],
      "name": "DOMAIN_SEPARATOR",
      "outputs": [
        {
          "internalType": "bytes32",
          "name": "",
          "type": "bytes32"
        }
      ],
      "stateMutability": "view",
      "type": "function"
    },
    {
      "inputs": [
        {
          "internalType": "address",
          "name": "owner",
          "type": "address"
        },
        {
          "internalType": "address",
          "name": "spender",
          "type": "address"
        }
      ],
      "name": "allowance",
      "outputs": [
        {
          "internalType": "uint256",
          "name": "",
          "type": "uint256"
        }
      ],
      "stateMutability": "view",
      "type": "function"
    },
    {
      "inputs": [
        {
          "internalType": "address",
          "name": "spender",
          "type": "address"
        },
        {
          "internalType": "uint256",
          "name": "amount",
          "type": "uint256"
        }
      ],
      "name": "approve",
      "outputs": [
        {
          "internalType": "bool",
          "name": "",
          "type": "bool"
        }
      ],
      "stateMutability": "nonpayable",
      "type": "function"
    },
    {
      "inputs": [
        {
          "internalType": "address",
          "name": "account",
          "type": "address"
        }
      ],
      "name": "balanceOf",
      "outputs": [
        {
          "internalType": "uint256",
          "name": "",
          "type": "uint256"
        }
      ],
      "stateMutability": "view",
      "type": "function"
    },
    {
      "inputs": [],
      "name": "decimals",
      "outputs": [
        {
          "internalType": "uint8",
          "name": "",
          "type": "uint8"
        }
      ],
      "stateMutability": "view",
      "type": "function"
    },
    {
      "inputs": [
        {
          "internalType": "address",
          "name": "spender",
          "type": "address"
        },
        {
          "internalType": "uint256",
          "name": "subtractedValue",
          "type": "uint256"
        }
      ],
      "name": "decreaseAllowance",
      "outputs": [
        {
          "internalType": "bool",
          "name": "",
          "type": "bool"
        }
      ],
      "stateMutability": "nonpayable",
      "type": "function"
    },
    {
      "inputs": [
        {
          "internalType": "address",
          "name": "spender",
          "type": "address"
        },
        {
          "internalType": "uint256",
          "name": "addedValue",
          "type": "uint256"
        }
      ],
      "name": "increaseAllowance",
      "outputs": [
        {
          "internalType": "bool",
          "name": "",
          "type": "bool"
        }
      ],
      "stateMutability": "nonpayable",
      "type": "function"
    },
    {
      "inputs": [
        {
          "internalType": "uint256",
          "name": "amount",
          "type": "uint256"
        }
      ],
      "name": "mint",
      "outputs": [],
      "stateMutability": "nonpayable",
      "type": "function"
    },
    {
      "inputs": [],
      "name": "name",
      "outputs": [
        {
          "internalType": "string",
          "name": "",
          "type": "string"
        }
      ],
      "stateMutability": "view",
      "type": "function"
    },
    {
      "inputs": [
        {
          "internalType": "address",
          "name": "owner",
          "type": "address"
        }
      ],
      "name": "nonces",
      "outputs": [
        {
          "internalType": "uint256",
          "name": "",
          "type": "uint256"
        }
      ],
      "stateMutability": "view",
      "type": "function"
    },
    {
      "inputs": [],
      "name": "owner",
      "outputs": [
        {
          "internalType": "address",
          "name": "",
          "type": "address"
        }
      ],
      "stateMutability": "view",
      "type": "function"
    },
    {
      "inputs": [
        {
          "internalType": "address",
          "name": "owner",
          "type": "address"
        },
        {
          "internalType": "address",
          "name": "spender",
          "type": "address"
        },
        {
          "internalType": "uint256",
          "name": "value",
          "type": "uint256"
        },
        {
          "internalType": "uint256",
          "name": "deadline",
          "type": "uint256"
        },
        {
          "internalType": "uint8",
          "name": "v",
          "type": "uint8"
        },
        {
          "internalType": "bytes32",
          "name": "r",
          "type": "bytes32"
        },
        {
          "internalType": "bytes32",
          "name": "s",
          "type": "bytes32"
        }
      ],
      "name": "permit",
      "outputs": [],
      "stateMutability": "nonpayable",
      "type": "function"
    },
    {
      "inputs": [],
      "name": "renounceOwnership",
      "outputs": [],
      "stateMutability": "nonpayable",
      "type": "function"
    },
    {
      "inputs": [],
      "name": "symbol",
      "outputs": [
        {
          "internalType": "string",
          "name": "",
          "type": "string"
        }
      ],
      "stateMutability": "view",
      "type": "function"
    },
    {
      "inputs": [],
      "name": "totalSupply",
      "outputs": [
        {
          "internalType": "uint256",
          "name": "",
          "type": "uint256"
        }
      ],
      "stateMutability": "view",
      "type": "function"
    },
    {
      "inputs": [
        {
          "internalType": "address",
          "name": "to",
          "type": "address"
        },
        {
          "internalType": "uint256",
          "name": "amount",
          "type": "uint256"
        }
      ],
      "name": "transfer",
      "outputs": [
        {
          "internalType": "bool",
          "name": "",
          "type": "bool"
        }
      ],
      "stateMutability": "nonpayable",
      "type": "function"
    },
    {
      "inputs": [
        {
          "internalType": "address",
          "name": "from",
          "type": "address"
        },
        {
          "internalType": "address",
          "name": "to",
          "type": "address"
        },
        {
          "internalType": "uint256",
          "name": "amount",
          "type": "uint256"
        }
      ],
      "name": "transferFrom",
      "outputs": [
        {
          "internalType": "bool",
          "name": "",
          "type": "bool"
        }
      ],
      "stateMutability": "nonpayable",
      "type": "function"
    },
    {
      "inputs": [
        {
          "internalType": "address",
          "name": "newOwner",
          "type": "address"
        }
      ],
      "name": "transferOwnership",
      "outputs": [],
      "stateMutability": "nonpayable",
      "type": "function"
    }
  ],
  "bytecode": "0x6101406040523480156200001257600080fd5b506040518060400160405280600381526020017f4441490000000000000000000000000000000000000000000000000000000000815250806040518060400160405280600181526020017f31000000000000000000000000000000000000000000000000000000000000008152506040518060400160405280600381526020017f44414900000000000000000000000000000000000000000000000000000000008152506040518060400160405280600381526020017f44414900000000000000000000000000000000000000000000000000000000008152508160039081620000fd91906200070f565b5080600490816200010f91906200070f565b50505062000132620001266200020960201b60201c565b6200021160201b60201c565b60008280519060200120905060008280519060200120905060007f8b73c3c69bb8fe3d512ecc4cf759cc79239f7b179b0ffacaa9a75d522b39400f90508260e081815250508161010081815250504660a081815250506200019b818484620002d760201b60201c565b608081815250503073ffffffffffffffffffffffffffffffffffffffff1660c08173ffffffffffffffffffffffffffffffffffffffff168152505080610120818152505050505050505062000203336b204fce5e3e250261100000006200031360201b60201c565b620009f0565b600033905090565b6000600560009054906101000a900473ffffffffffffffffffffffffffffffffffffffff16905081600560006101000a81548173ffffffffffffffffffffffffffffffffffffffff021916908373ffffffffffffffffffffffffffffffffffffffff1602179055508173ffffffffffffffffffffffffffffffffffffffff168173ffffffffffffffffffffffffffffffffffffffff167f8be0079c531659141344cd1fd0a4f28419497f9722a3daafe3b4186f6b6457e060405160405180910390a35050565b60008383834630604051602001620002f495949392919062000867565b6040516020818303038152906040528051906020012090509392505050565b600073ffffffffffffffffffffffffffffffffffffffff168273ffffffffffffffffffffffffffffffffffffffff160362000385576040517f08c379a00000000000000000000000000000000000000000000000000000000081526004016200037c9062000925565b60405180910390fd5b62000399600083836200048b60201b60201c565b8060026000828254620003ad919062000976565b92505081905550806000808473ffffffffffffffffffffffffffffffffffffffff1673ffffffffffffffffffffffffffffffffffffffff168152602001908152602001600020600082825462000404919062000976565b925050819055508173ffffffffffffffffffffffffffffffffffffffff16600073ffffffffffffffffffffffffffffffffffffffff167fddf252ad1be2c89b69c2b068fc378daa952ba7f163c4a11628f55a4df523b3ef836040516200046b9190620009d3565b60405180910390a362000487600083836200049060201b60201c565b5050565b505050565b505050565b600081519050919050565b7f4e487b7100000000000000000000000000000000000000000000000000000000600052604160045260246000fd5b7f4e487b7100000000000000000000000000000000000000000000000000000000600052602260045260246000fd5b600060028204905060018216806200051757607f821691505b6020821081036200052d576200052c620004cf565b5b50919050565b60008190508160005260206000209050919050565b60006020601f8301049050919050565b600082821b905092915050565b600060088302620005977fffffffffffffffffffffffffffffffffffffffffffffffffffffffffffffffff8262000558565b620005a3868362000558565b95508019841693508086168417925050509392505050565b6000819050919050565b6000819050919050565b6000620005f0620005ea620005e484620005bb565b620005c5565b620005bb565b9050919050565b6000819050919050565b6200060c83620005cf565b620006246200061b82620005f7565b84845462000565565b825550505050565b600090565b6200063b6200062c565b6200064881848462000601565b505050565b5b8181101562000670576200066460008262000631565b6001810190506200064e565b5050565b601f821115620006bf57620006898162000533565b620006948462000548565b81016020851015620006a4578190505b620006bc620006b38562000548565b8301826200064d565b50505b505050565b600082821c905092915050565b6000620006e460001984600802620006c4565b1980831691505092915050565b6000620006ff8383620006d1565b9150826002028217905092915050565b6200071a8262000495565b67ffffffffffffffff811115620007365762000735620004a0565b5b620007428254620004fe565b6200074f82828562000674565b600060209050601f83116001811462000787576000841562000772578287015190505b6200077e8582620006f1565b865550620007ee565b601f198416620007978662000533565b60005b82811015620007c1578489015182556001820191506020850194506020810190506200079a565b86831015620007e15784890151620007dd601f891682620006d1565b8355505b6001600288020188555050505b505050505050565b6000819050919050565b6200080b81620007f6565b82525050565b6200081c81620005bb565b82525050565b600073ffffffffffffffffffffffffffffffffffffffff82169050919050565b60006200084f8262000822565b9050919050565b620008618162000842565b82525050565b600060a0820190506200087e600083018862000800565b6200088d602083018762000800565b6200089c604083018662000800565b620008ab606083018562000811565b620008ba608083018462000856565b9695505050505050565b600082825260208201905092915050565b7f45524332303a206d696e7420746f20746865207a65726f206164647265737300600082015250565b60006200090d601f83620008c4565b91506200091a82620008d5565b602082019050919050565b600060208201905081810360008301526200094081620008fe565b9050919050565b7f4e487b7100000000000000000000000000000000000000000000000000000000600052601160045260246000fd5b60006200098382620005bb565b91506200099083620005bb565b9250827fffffffffffffffffffffffffffffffffffffffffffffffffffffffffffffffff03821115620009c857620009c762000947565b5b828201905092915050565b6000602082019050620009ea600083018462000811565b92915050565b60805160a05160c05160e051610100516101205161257462000a406000396000610ed701526000610f1901526000610ef801526000610e2d01526000610e8301526000610eac01526125746000f3fe608060405234801561001057600080fd5b50600436106101165760003560e01c80637ecebe00116100a2578063a457c2d711610071578063a457c2d7146102e5578063a9059cbb14610315578063d505accf14610345578063dd62ed3e14610361578063f2fde38b1461039157610116565b80637ecebe001461025d5780638da5cb5b1461028d57806395d89b41146102ab578063a0712d68146102c957610116565b8063313ce567116100e9578063313ce567146101b75780633644e515146101d557806339509351146101f357806370a0823114610223578063715018a61461025357610116565b806306fdde031461011b578063095ea7b31461013957806318160ddd1461016957806323b872dd14610187575b600080fd5b6101236103ad565b6040516101309190611695565b60405180910390f35b610153600480360381019061014e9190611750565b61043f565b60405161016091906117ab565b60405180910390f35b610171610462565b60405161017e91906117d5565b60405180910390f35b6101a1600480360381019061019c91906117f0565b61046c565b6040516101ae91906117ab565b60405180910390f35b6101bf61049b565b6040516101cc919061185f565b60405180910390f35b6101dd6104a4565b6040516101ea9190611893565b60405180910390f35b61020d60048036038101906102089190611750565b6104b3565b60405161021a91906117ab565b60405180910390f35b61023d600480360381019061023891906118ae565b6104ea565b60405161024a91906117d5565b60405180910390f35b61025b610532565b005b610277600480360381019061027291906118ae565b610546565b60405161028491906117d5565b60405180910390f35b610295610596565b6040516102a291906118ea565b60405180910390f35b6102b36105c0565b6040516102c09190611695565b60405180910390f35b6102e360048036038101906102de9190611905565b610652565b005b6102ff60048036038101906102fa9190611750565b610667565b60405161030c91906117ab565b60405180910390f35b61032f600480360381019061032a9190611750565b6106de565b60405161033c91906117ab565b60405180910390f35b61035f600480360381019061035a919061198a565b610701565b005b61037b60048036038101906103769190611a2c565b610843565b60405161038891906117d5565b60405180910390f35b6103ab60048036038101906103a691906118ae565b6108ca565b005b6060600380546103bc90611a9b565b80601f01602080910402602001604051908101604052809291908181526020018280546103e890611a9b565b80156104355780601f1061040a57610100808354040283529160200191610435565b820191906000526020600020905b81548152906001019060200180831161041857829003601f168201915b5050505050905090565b60008061044a61094d565b9050610457818585610955565b600191505092915050565b6000600254905090565b60008061047761094d565b9050610484858285610b1e565b61048f858585610baa565b60019150509392505050565b60006012905090565b60006104ae610e29565b905090565b6000806104be61094d565b90506104df8185856104d08589610843565b6104da9190611afb565b610955565b600191505092915050565b60008060008373ffffffffffffffffffffffffffffffffffffffff1673ffffffffffffffffffffffffffffffffffffffff168152602001908152602001600020549050919050565b61053a610f43565b6105446000610fc1565b565b600061058f600660008473ffffffffffffffffffffffffffffffffffffffff1673ffffffffffffffffffffffffffffffffffffffff168152602001908152602001600020611087565b9050919050565b6000600560009054906101000a900473ffffffffffffffffffffffffffffffffffffffff16905090565b6060600480546105cf90611a9b565b80601f01602080910402602001604051908101604052809291908181526020018280546105fb90611a9b565b80156106485780601f1061061d57610100808354040283529160200191610648565b820191906000526020600020905b81548152906001019060200180831161062b57829003601f168201915b5050505050905090565b61065a610f43565b6106643382611095565b50565b60008061067261094d565b905060006106808286610843565b9050838110156106c5576040517f08c379a00000000000000000000000000000000000000000000000000000000081526004016106bc90611bc3565b60405180910390fd5b6106d28286868403610955565b60019250505092915050565b6000806106e961094d565b90506106f6818585610baa565b600191505092915050565b83421115610744576040517f08c379a000000000000000000000000000000000000000000000000000000000815260040161073b90611c2f565b60405180910390fd5b60007f6e71edae12b1b97f4d1f60370fef10105fa2faae0126114a169c64845d6126c98888886107738c6111f4565b8960405160200161078996959493929190611c4f565b60405160208183030381529060405280519060200120905060006107ac82611252565b905060006107bc8287878761126c565b90508973ffffffffffffffffffffffffffffffffffffffff168173ffffffffffffffffffffffffffffffffffffffff161461082c576040517f08c379a000000000000000000000000000000000000000000000000000000000815260040161082390611cfc565b60405180910390fd5b6108378a8a8a610955565b50505050505050505050565b6000600160008473ffffffffffffffffffffffffffffffffffffffff1673ffffffffffffffffffffffffffffffffffffffff16815260200190815260200160002060008373ffffffffffffffffffffffffffffffffffffffff1673ffffffffffffffffffffffffffffffffffffffff16815260200190815260200160002054905092915050565b6108d2610f43565b600073ffffffffffffffffffffffffffffffffffffffff168173ffffffffffffffffffffffffffffffffffffffff1603610941576040517f08c379a000000000000000000000000000000000000000000000000000000000815260040161093890611d8e565b60405180910390fd5b61094a81610fc1565b50565b600033905090565b600073ffffffffffffffffffffffffffffffffffffffff168373ffffffffffffffffffffffffffffffffffffffff16036109c4576040517f08c379a00000000000000000000000000000000000000000000000000000000081526004016109bb90611e20565b60405180910390fd5b600073ffffffffffffffffffffffffffffffffffffffff168273ffffffffffffffffffffffffffffffffffffffff1603610a33576040517f08c379a0000000000000000000000000000000000000000000000000000000008152600401610a2a90611eb2565b60405180910390fd5b80600160008573ffffffffffffffffffffffffffffffffffffffff1673ffffffffffffffffffffffffffffffffffffffff16815260200190815260200160002060008473ffffffffffffffffffffffffffffffffffffffff1673ffffffffffffffffffffffffffffffffffffffff168152602001908152602001600020819055508173ffffffffffffffffffffffffffffffffffffffff168373ffffffffffffffffffffffffffffffffffffffff167f8c5be1e5ebec7d5bd14f71427d1e84f3dd0314c0f7b2291e5b200ac8c7c3b92583604051610b1191906117d5565b60405180910390a3505050565b6000610b2a8484610843565b90507fffffffffffffffffffffffffffffffffffffffffffffffffffffffffffffffff8114610ba45781811015610b96576040517f08c379a0000000000000000000000000000000000000000000000000000000008152600401610b8d90611f1e565b60405180910390fd5b610ba38484848403610955565b5b50505050565b600073ffffffffffffffffffffffffffffffffffffffff168373ffffffffffffffffffffffffffffffffffffffff1603610c19576040517f08c379a0000000000000000000000000000000000000000000000000000000008152600401610c1090611fb0565b60405180910390fd5b600073ffffffffffffffffffffffffffffffffffffffff168273ffffffffffffffffffffffffffffffffffffffff1603610c88576040517f08c379a0000000000000000000000000000000000000000000000000000000008152600401610c7f90612042565b60405180910390fd5b610c93838383611297565b60008060008573ffffffffffffffffffffffffffffffffffffffff1673ffffffffffffffffffffffffffffffffffffffff16815260200190815260200160002054905081811015610d19576040517f08c379a0000000000000000000000000000000000000000000000000000000008152600401610d10906120d4565b60405180910390fd5b8181036000808673ffffffffffffffffffffffffffffffffffffffff1673ffffffffffffffffffffffffffffffffffffffff16815260200190815260200160002081905550816000808573ffffffffffffffffffffffffffffffffffffffff1673ffffffffffffffffffffffffffffffffffffffff1681526020019081526020016000206000828254610dac9190611afb565b925050819055508273ffffffffffffffffffffffffffffffffffffffff168473ffffffffffffffffffffffffffffffffffffffff167fddf252ad1be2c89b69c2b068fc378daa952ba7f163c4a11628f55a4df523b3ef84604051610e1091906117d5565b60405180910390a3610e2384848461129c565b50505050565b60007f000000000000000000000000000000000000000000000000000000000000000073ffffffffffffffffffffffffffffffffffffffff163073ffffffffffffffffffffffffffffffffffffffff16148015610ea557507f000000000000000000000000000000000000000000000000000000000000000046145b15610ed2577f00000000000000000000000000000000000000000000000000000000000000009050610f40565b610f3d7f00000000000000000000000000000000000000000000000000000000000000007f00000000000000000000000000000000000000000000000000000000000000007f00000000000000000000000000000000000000000000000000000000000000006112a1565b90505b90565b610f4b61094d565b73ffffffffffffffffffffffffffffffffffffffff16610f69610596565b73ffffffffffffffffffffffffffffffffffffffff1614610fbf576040517f08c379a0000000000000000000000000000000000000000000000000000000008152600401610fb690612140565b60405180910390fd5b565b6000600560009054906101000a900473ffffffffffffffffffffffffffffffffffffffff16905081600560006101000a81548173ffffffffffffffffffffffffffffffffffffffff021916908373ffffffffffffffffffffffffffffffffffffffff1602179055508173ffffffffffffffffffffffffffffffffffffffff168173ffffffffffffffffffffffffffffffffffffffff167f8be0079c531659141344cd1fd0a4f28419497f9722a3daafe3b4186f6b6457e060405160405180910390a35050565b600081600001549050919050565b600073ffffffffffffffffffffffffffffffffffffffff168273ffffffffffffffffffffffffffffffffffffffff1603611104576040517f08c379a00000000000000000000000000000000000000000000000000000000081526004016110fb906121ac565b60405180910390fd5b61111060008383611297565b80600260008282546111229190611afb565b92505081905550806000808473ffffffffffffffffffffffffffffffffffffffff1673ffffffffffffffffffffffffffffffffffffffff16815260200190815260200160002060008282546111779190611afb565b925050819055508173ffffffffffffffffffffffffffffffffffffffff16600073ffffffffffffffffffffffffffffffffffffffff167fddf252ad1be2c89b69c2b068fc378daa952ba7f163c4a11628f55a4df523b3ef836040516111dc91906117d5565b60405180910390a36111f06000838361129c565b5050565b600080600660008473ffffffffffffffffffffffffffffffffffffffff1673ffffffffffffffffffffffffffffffffffffffff168152602001908152602001600020905061124181611087565b915061124c816112db565b50919050565b600061126561125f610e29565b836112f1565b9050919050565b600080600061127d87878787611324565b9150915061128a81611430565b8192505050949350505050565b505050565b505050565b600083838346306040516020016112bc9594939291906121cc565b6040516020818303038152906040528051906020012090509392505050565b6001816000016000828254019250508190555050565b60008282604051602001611306929190612297565b60405160208183030381529060405280519060200120905092915050565b6000807f7fffffffffffffffffffffffffffffff5d576e7357a4501ddfe92f46681b20a08360001c111561135f576000600391509150611427565b601b8560ff16141580156113775750601c8560ff1614155b15611389576000600491509150611427565b6000600187878787604051600081526020016040526040516113ae94939291906122ce565b6020604051602081039080840390855afa1580156113d0573d6000803e3d6000fd5b505050602060405103519050600073ffffffffffffffffffffffffffffffffffffffff168173ffffffffffffffffffffffffffffffffffffffff160361141e57600060019250925050611427565b80600092509250505b94509492505050565b6000600481111561144457611443612313565b5b81600481111561145757611456612313565b5b03156115f9576001600481111561147157611470612313565b5b81600481111561148457611483612313565b5b036114c4576040517f08c379a00000000000000000000000000000000000000000000000000000000081526004016114bb9061238e565b60405180910390fd5b600260048111156114d8576114d7612313565b5b8160048111156114eb576114ea612313565b5b0361152b576040517f08c379a0000000000000000000000000000000000000000000000000000000008152600401611522906123fa565b60405180910390fd5b6003600481111561153f5761153e612313565b5b81600481111561155257611551612313565b5b03611592576040517f08c379a00000000000000000000000000000000000000000000000000000000081526004016115899061248c565b60405180910390fd5b6004808111156115a5576115a4612313565b5b8160048111156115b8576115b7612313565b5b036115f8576040517f08c379a00000000000000000000000000000000000000000000000000000000081526004016115ef9061251e565b60405180910390fd5b5b50565b600081519050919050565b600082825260208201905092915050565b60005b8381101561163657808201518184015260208101905061161b565b83811115611645576000848401525b50505050565b6000601f19601f8301169050919050565b6000611667826115fc565b6116718185611607565b9350611681818560208601611618565b61168a8161164b565b840191505092915050565b600060208201905081810360008301526116af818461165c565b905092915050565b600080fd5b600073ffffffffffffffffffffffffffffffffffffffff82169050919050565b60006116e7826116bc565b9050919050565b6116f7816116dc565b811461170257600080fd5b50565b600081359050611714816116ee565b92915050565b6000819050919050565b61172d8161171a565b811461173857600080fd5b50565b60008135905061174a81611724565b92915050565b60008060408385031215611767576117666116b7565b5b600061177585828601611705565b92505060206117868582860161173b565b9150509250929050565b60008115159050919050565b6117a581611790565b82525050565b60006020820190506117c0600083018461179c565b92915050565b6117cf8161171a565b82525050565b60006020820190506117ea60008301846117c6565b92915050565b600080600060608486031215611809576118086116b7565b5b600061181786828701611705565b935050602061182886828701611705565b92505060406118398682870161173b565b9150509250925092565b600060ff82169050919050565b61185981611843565b82525050565b60006020820190506118746000830184611850565b92915050565b6000819050919050565b61188d8161187a565b82525050565b60006020820190506118a86000830184611884565b92915050565b6000602082840312156118c4576118c36116b7565b5b60006118d284828501611705565b91505092915050565b6118e4816116dc565b82525050565b60006020820190506118ff60008301846118db565b92915050565b60006020828403121561191b5761191a6116b7565b5b60006119298482850161173b565b91505092915050565b61193b81611843565b811461194657600080fd5b50565b60008135905061195881611932565b92915050565b6119678161187a565b811461197257600080fd5b50565b6000813590506119848161195e565b92915050565b600080600080600080600060e0888a0312156119a9576119a86116b7565b5b60006119b78a828b01611705565b97505060206119c88a828b01611705565b96505060406119d98a828b0161173b565b95505060606119ea8a828b0161173b565b94505060806119fb8a828b01611949565b93505060a0611a0c8a828b01611975565b92505060c0611a1d8a828b01611975565b91505092959891949750929550565b60008060408385031215611a4357611a426116b7565b5b6000611a5185828601611705565b9250506020611a6285828601611705565b9150509250929050565b7f4e487b7100000000000000000000000000000000000000000000000000000000600052602260045260246000fd5b60006002820490506001821680611ab357607f821691505b602082108103611ac657611ac5611a6c565b5b50919050565b7f4e487b7100000000000000000000000000000000000000000000000000000000600052601160045260246000fd5b6000611b068261171a565b9150611b118361171a565b9250827fffffffffffffffffffffffffffffffffffffffffffffffffffffffffffffffff03821115611b4657611b45611acc565b5b828201905092915050565b7f45524332303a2064656372656173656420616c6c6f77616e63652062656c6f7760008201527f207a65726f000000000000000000000000000000000000000000000000000000602082015250565b6000611bad602583611607565b9150611bb882611b51565b604082019050919050565b60006020820190508181036000830152611bdc81611ba0565b9050919050565b7f45524332305065726d69743a206578706972656420646561646c696e65000000600082015250565b6000611c19601d83611607565b9150611c2482611be3565b602082019050919050565b60006020820190508181036000830152611c4881611c0c565b9050919050565b600060c082019050611c646000830189611884565b611c7160208301886118db565b611c7e60408301876118db565b611c8b60608301866117c6565b611c9860808301856117c6565b611ca560a08301846117c6565b979650505050505050565b7f45524332305065726d69743a20696e76616c6964207369676e61747572650000600082015250565b6000611ce6601e83611607565b9150611cf182611cb0565b602082019050919050565b60006020820190508181036000830152611d1581611cd9565b9050919050565b7f4f776e61626c653a206e6577206f776e657220697320746865207a65726f206160008201527f6464726573730000000000000000000000000000000000000000000000000000602082015250565b6000611d78602683611607565b9150611d8382611d1c565b604082019050919050565b60006020820190508181036000830152611da781611d6b565b9050919050565b7f45524332303a20617070726f76652066726f6d20746865207a65726f2061646460008201527f7265737300000000000000000000000000000000000000000000000000000000602082015250565b6000611e0a602483611607565b9150611e1582611dae565b604082019050919050565b60006020820190508181036000830152611e3981611dfd565b9050919050565b7f45524332303a20617070726f766520746f20746865207a65726f20616464726560008201527f7373000000000000000000000000000000000000000000000000000000000000602082015250565b6000611e9c602283611607565b9150611ea782611e40565b604082019050919050565b60006020820190508181036000830152611ecb81611e8f565b9050919050565b7f45524332303a20696e73756666696369656e7420616c6c6f77616e6365000000600082015250565b6000611f08601d83611607565b9150611f1382611ed2565b602082019050919050565b60006020820190508181036000830152611f3781611efb565b9050919050565b7f45524332303a207472616e736665722066726f6d20746865207a65726f20616460008201527f6472657373000000000000000000000000000000000000000000000000000000602082015250565b6000611f9a602583611607565b9150611fa582611f3e565b604082019050919050565b60006020820190508181036000830152611fc981611f8d565b9050919050565b7f45524332303a207472616e7366657220746f20746865207a65726f206164647260008201527f6573730000000000000000000000000000000000000000000000000000000000602082015250565b600061202c602383611607565b915061203782611fd0565b604082019050919050565b6000602082019050818103600083015261205b8161201f565b9050919050565b7f45524332303a207472616e7366657220616d6f756e742065786365656473206260008201527f616c616e63650000000000000000000000000000000000000000000000000000602082015250565b60006120be602683611607565b91506120c982612062565b604082019050919050565b600060208201905081810360008301526120ed816120b1565b9050919050565b7f4f776e61626c653a2063616c6c6572206973206e6f7420746865206f776e6572600082015250565b600061212a602083611607565b9150612135826120f4565b602082019050919050565b600060208201905081810360008301526121598161211d565b9050919050565b7f45524332303a206d696e7420746f20746865207a65726f206164647265737300600082015250565b6000612196601f83611607565b91506121a182612160565b602082019050919050565b600060208201905081810360008301526121c581612189565b9050919050565b600060a0820190506121e16000830188611884565b6121ee6020830187611884565b6121fb6040830186611884565b61220860608301856117c6565b61221560808301846118db565b9695505050505050565b600081905092915050565b7f1901000000000000000000000000000000000000000000000000000000000000600082015250565b600061226060028361221f565b915061226b8261222a565b600282019050919050565b6000819050919050565b61229161228c8261187a565b612276565b82525050565b60006122a282612253565b91506122ae8285612280565b6020820191506122be8284612280565b6020820191508190509392505050565b60006080820190506122e36000830187611884565b6122f06020830186611850565b6122fd6040830185611884565b61230a6060830184611884565b95945050505050565b7f4e487b7100000000000000000000000000000000000000000000000000000000600052602160045260246000fd5b7f45434453413a20696e76616c6964207369676e61747572650000000000000000600082015250565b6000612378601883611607565b915061238382612342565b602082019050919050565b600060208201905081810360008301526123a78161236b565b9050919050565b7f45434453413a20696e76616c6964207369676e6174757265206c656e67746800600082015250565b60006123e4601f83611607565b91506123ef826123ae565b602082019050919050565b60006020820190508181036000830152612413816123d7565b9050919050565b7f45434453413a20696e76616c6964207369676e6174757265202773272076616c60008201527f7565000000000000000000000000000000000000000000000000000000000000602082015250565b6000612476602283611607565b91506124818261241a565b604082019050919050565b600060208201905081810360008301526124a581612469565b9050919050565b7f45434453413a20696e76616c6964207369676e6174757265202776272076616c60008201527f7565000000000000000000000000000000000000000000000000000000000000602082015250565b6000612508602283611607565b9150612513826124ac565b604082019050919050565b60006020820190508181036000830152612537816124fb565b905091905056fea2646970667358221220d272dd909c449d97b592eb17633585a307190bc6d5ddb191e69d39775206fa7c64736f6c634300080f0033",
  "linkReferences": {},
  "deployedLinkReferences": {}
}