{
  "address": "0x9479d7cf8b6ebeca30f688BC5Dd77250B49361Ed",
  "_format": "hh-sol-artifact-1",
  "contractName": "ZuniswapV2Router",
  "sourceName": "contracts/peripherals/ZuniswapV2Router.sol",
  "abi": [
    {
      "inputs": [
        {
          "internalType": "address",
          "name": "factoryAddress",
          "type": "address"
        }
      ],
      "stateMutability": "nonpayable",
      "type": "constructor"
    },
    {
      "inputs": [],
      "name": "ExcessiveInputAmount",
      "type": "error"
    },
    {
      "inputs": [],
      "name": "InsufficientAAmount",
      "type": "error"
    },
    {
      "inputs": [],
      "name": "InsufficientBAmount",
      "type": "error"
    },
    {
      "inputs": [],
      "name": "InsufficientInputAmount",
      "type": "error"
    },
    {
      "inputs": [],
      "name": "InsufficientOutputAmount",
      "type": "error"
    },
    {
      "inputs": [],
      "name": "SafeTransferFailed",
      "type": "error"
    },
    {
      "inputs": [
        {
          "internalType": "address",
          "name": "tokenA",
          "type": "address"
        },
        {
          "internalType": "address",
          "name": "tokenB",
          "type": "address"
        },
        {
          "internalType": "uint256",
          "name": "amountADesired",
          "type": "uint256"
        },
        {
          "internalType": "uint256",
          "name": "amountBDesired",
          "type": "uint256"
        },
        {
          "internalType": "uint256",
          "name": "amountAMin",
          "type": "uint256"
        },
        {
          "internalType": "uint256",
          "name": "amountBMin",
          "type": "uint256"
        },
        {
          "internalType": "address",
          "name": "to",
          "type": "address"
        }
      ],
      "name": "addLiquidity",
      "outputs": [
        {
          "internalType": "uint256",
          "name": "amountA",
          "type": "uint256"
        },
        {
          "internalType": "uint256",
          "name": "amountB",
          "type": "uint256"
        },
        {
          "internalType": "uint256",
          "name": "liquidity",
          "type": "uint256"
        }
      ],
      "stateMutability": "nonpayable",
      "type": "function"
    },
    {
      "inputs": [
        {
          "internalType": "uint256",
          "name": "amountOut",
          "type": "uint256"
        },
        {
          "internalType": "address[]",
          "name": "path",
          "type": "address[]"
        }
      ],
      "name": "getAmountsIn",
      "outputs": [
        {
          "internalType": "uint256[]",
          "name": "",
          "type": "uint256[]"
        }
      ],
      "stateMutability": "view",
      "type": "function"
    },
    {
      "inputs": [
        {
          "internalType": "uint256",
          "name": "amountIn",
          "type": "uint256"
        },
        {
          "internalType": "address[]",
          "name": "path",
          "type": "address[]"
        }
      ],
      "name": "getAmountsOut",
      "outputs": [
        {
          "internalType": "uint256[]",
          "name": "",
          "type": "uint256[]"
        }
      ],
      "stateMutability": "view",
      "type": "function"
    },
    {
      "inputs": [
        {
          "internalType": "address",
          "name": "tokenA",
          "type": "address"
        },
        {
          "internalType": "address",
          "name": "tokenB",
          "type": "address"
        },
        {
          "internalType": "uint256",
          "name": "liquidity",
          "type": "uint256"
        },
        {
          "internalType": "uint256",
          "name": "amountAMin",
          "type": "uint256"
        },
        {
          "internalType": "uint256",
          "name": "amountBMin",
          "type": "uint256"
        },
        {
          "internalType": "address",
          "name": "to",
          "type": "address"
        }
      ],
      "name": "removeLiquidity",
      "outputs": [
        {
          "internalType": "uint256",
          "name": "amountA",
          "type": "uint256"
        },
        {
          "internalType": "uint256",
          "name": "amountB",
          "type": "uint256"
        }
      ],
      "stateMutability": "nonpayable",
      "type": "function"
    },
    {
      "inputs": [
        {
          "internalType": "uint256",
          "name": "amountIn",
          "type": "uint256"
        },
        {
          "internalType": "uint256",
          "name": "amountOutMin",
          "type": "uint256"
        },
        {
          "internalType": "address[]",
          "name": "path",
          "type": "address[]"
        },
        {
          "internalType": "address",
          "name": "to",
          "type": "address"
        }
      ],
      "name": "swapExactTokensForTokens",
      "outputs": [
        {
          "internalType": "uint256[]",
          "name": "amounts",
          "type": "uint256[]"
        }
      ],
      "stateMutability": "nonpayable",
      "type": "function"
    },
    {
      "inputs": [
        {
          "internalType": "uint256",
          "name": "amountOut",
          "type": "uint256"
        },
        {
          "internalType": "uint256",
          "name": "amountInMax",
          "type": "uint256"
        },
        {
          "internalType": "address[]",
          "name": "path",
          "type": "address[]"
        },
        {
          "internalType": "address",
          "name": "to",
          "type": "address"
        }
      ],
      "name": "swapTokensForExactTokens",
      "outputs": [
        {
          "internalType": "uint256[]",
          "name": "amounts",
          "type": "uint256[]"
        }
      ],
      "stateMutability": "nonpayable",
      "type": "function"
    }
  ],
  "bytecode": "0x60806040523480156200001157600080fd5b5060405162005db738038062005db78339818101604052810190620000379190620000e8565b806000806101000a81548173ffffffffffffffffffffffffffffffffffffffff021916908373ffffffffffffffffffffffffffffffffffffffff160217905550506200011a565b600080fd5b600073ffffffffffffffffffffffffffffffffffffffff82169050919050565b6000620000b08262000083565b9050919050565b620000c281620000a3565b8114620000ce57600080fd5b50565b600081519050620000e281620000b7565b92915050565b6000602082840312156200010157620001006200007e565b5b60006200011184828501620000d1565b91505092915050565b615c8d806200012a6000396000f3fe60806040523480156200001157600080fd5b50600436106200006a5760003560e01c80631f00ca74146200006f57806342712a6714620000a5578063472b43f314620000db578063c0e3ee6b1462000111578063ca3d65391462000148578063d06ca61f1462000180575b600080fd5b6200008d600480360381019062000087919062001697565b620001b6565b6040516200009c9190620017cb565b60405180910390f35b620000c36004803603810190620000bd919062001853565b62000266565b604051620000d29190620017cb565b60405180910390f35b620000f96004803603810190620000f3919062001853565b62000508565b604051620001089190620017cb565b60405180910390f35b6200012f6004803603810190620001299190620018e9565b6200079d565b6040516200013f92919062001996565b60405180910390f35b620001666004803603810190620001609190620019c3565b6200094e565b604051620001779392919062001a76565b60405180910390f35b6200019e600480360381019062000198919062001697565b62000bc2565b604051620001ad9190620017cb565b60405180910390f35b606073__$9db2ba7b5505b60a57cc8adbe6fd822b97$__63192128b260008054906101000a900473ffffffffffffffffffffffffffffffffffffffff1685856040518463ffffffff1660e01b8152600401620002159392919062001ba3565b600060405180830381865af415801562000233573d6000803e3d6000fd5b505050506040513d6000823e3d601f19601f820116820180604052508101906200025e919062001cd4565b905092915050565b606073__$9db2ba7b5505b60a57cc8adbe6fd822b97$__63192128b260008054906101000a900473ffffffffffffffffffffffffffffffffffffffff168887876040518563ffffffff1660e01b8152600401620002c7949392919062001dbe565b600060405180830381865af4158015620002e5573d6000803e3d6000fd5b505050506040513d6000823e3d601f19601f8201168201806040525081019062000310919062001cd4565b905084816001835162000324919062001e33565b8151811062000338576200033762001e6e565b5b6020026020010151111562000379576040517fe1b0da4f00000000000000000000000000000000000000000000000000000000815260040160405180910390fd5b848160008151811062000391576200039062001e6e565b5b60200260200101511115620003d2576040517f098fb56100000000000000000000000000000000000000000000000000000000815260040160405180910390fd5b620004b184846000818110620003ed57620003ec62001e6e565b5b905060200201602081019062000404919062001e9d565b336200048c60008054906101000a900473ffffffffffffffffffffffffffffffffffffffff168888600081811062000441576200044062001e6e565b5b905060200201602081019062000458919062001e9d565b898960018181106200046f576200046e62001e6e565b5b905060200201602081019062000486919062001e9d565b62000c72565b84600081518110620004a357620004a262001e6e565b5b602002602001015162000d1e565b620004ff81858580806020026020016040519081016040528093929190818152602001838360200280828437600081840152601f19601f820116905080830192505050505050508462000e94565b95945050505050565b606073__$9db2ba7b5505b60a57cc8adbe6fd822b97$__63bb7b9c7660008054906101000a900473ffffffffffffffffffffffffffffffffffffffff168887876040518563ffffffff1660e01b815260040162000569949392919062001dbe565b600060405180830381865af415801562000587573d6000803e3d6000fd5b505050506040513d6000823e3d601f19601f82011682018060405250810190620005b2919062001cd4565b90506200060081600081518110620005cf57620005ce62001e6e565b5b602002602001015182600181518110620005ee57620005ed62001e6e565b5b602002602001015160006001620010ae565b84816001835162000612919062001e33565b8151811062000626576200062562001e6e565b5b6020026020010151101562000667576040517f42301c2300000000000000000000000000000000000000000000000000000000815260040160405180910390fd5b620007468484600081811062000682576200068162001e6e565b5b905060200201602081019062000699919062001e9d565b336200072160008054906101000a900473ffffffffffffffffffffffffffffffffffffffff1688886000818110620006d657620006d562001e6e565b5b9050602002016020810190620006ed919062001e9d565b8989600181811062000704576200070362001e6e565b5b90506020020160208101906200071b919062001e9d565b62000c72565b8460008151811062000738576200073762001e6e565b5b602002602001015162000d1e565b6200079481858580806020026020016040519081016040528093929190818152602001838360200280828437600081840152601f19601f820116905080830192505050505050508462000e94565b95945050505050565b6000806000620007cf60008054906101000a900473ffffffffffffffffffffffffffffffffffffffff168a8a62000c72565b90508073ffffffffffffffffffffffffffffffffffffffff166323b872dd33838a6040518463ffffffff1660e01b8152600401620008109392919062001ee0565b600060405180830381600087803b1580156200082b57600080fd5b505af115801562000840573d6000803e3d6000fd5b505050508073ffffffffffffffffffffffffffffffffffffffff166389afcb44856040518263ffffffff1660e01b81526004016200087f919062001f1d565b60408051808303816000875af11580156200089e573d6000803e3d6000fd5b505050506040513d601f19601f82011682018060405250810190620008c4919062001f3a565b80935081945050508583101562000907576040517f8dc525d100000000000000000000000000000000000000000000000000000000815260040160405180910390fd5b8482101562000942576040517fef71d09100000000000000000000000000000000000000000000000000000000815260040160405180910390fd5b50965096945050505050565b60008060008073ffffffffffffffffffffffffffffffffffffffff1660008054906101000a900473ffffffffffffffffffffffffffffffffffffffff1673ffffffffffffffffffffffffffffffffffffffff166369454b868c8c6040518363ffffffff1660e01b8152600401620009c792919062001f81565b602060405180830381865afa158015620009e5573d6000803e3d6000fd5b505050506040513d601f19601f8201168201806040525081019062000a0b919062001fc5565b73ffffffffffffffffffffffffffffffffffffffff160362000acc5760008054906101000a900473ffffffffffffffffffffffffffffffffffffffff1673ffffffffffffffffffffffffffffffffffffffff1663c9c653968b8b6040518363ffffffff1660e01b815260040162000a8492919062001f81565b6020604051808303816000875af115801562000aa4573d6000803e3d6000fd5b505050506040513d601f19601f8201168201806040525081019062000aca919062001fc5565b505b62000adc8a8a8a8a8a8a62001154565b8093508194505050600062000b1360008054906101000a900473ffffffffffffffffffffffffffffffffffffffff168c8c62000c72565b905062000b238b33838762000d1e565b62000b318a33838662000d1e565b8073ffffffffffffffffffffffffffffffffffffffff16636a627842866040518263ffffffff1660e01b815260040162000b6c919062001f1d565b6020604051808303816000875af115801562000b8c573d6000803e3d6000fd5b505050506040513d601f19601f8201168201806040525081019062000bb2919062001ff7565b9150509750975097945050505050565b606073__$9db2ba7b5505b60a57cc8adbe6fd822b97$__63bb7b9c7660008054906101000a900473ffffffffffffffffffffffffffffffffffffffff1685856040518463ffffffff1660e01b815260040162000c219392919062001ba3565b600060405180830381865af415801562000c3f573d6000803e3d6000fd5b505050506040513d6000823e3d601f19601f8201168201806040525081019062000c6a919062001cd4565b905092915050565b600080600062000c838585620013ea565b9150915060ff60f81b86838360405160200162000ca292919062002079565b604051602081830303815290604052805190602001206040518060200162000cca9062001460565b6020820181038252601f19601f820116604052508051906020012060405160200162000cfa949392919062002129565b6040516020818303038152906040528051906020012060001c925050509392505050565b6000808573ffffffffffffffffffffffffffffffffffffffff1685858560405160240162000d4f9392919062001ee0565b6040516020818303038152906040527f23b872dd000000000000000000000000000000000000000000000000000000007bffffffffffffffffffffffffffffffffffffffffffffffffffffffff19166020820180517bffffffffffffffffffffffffffffffffffffffffffffffffffffffff838183161783525050505060405162000ddb919062002202565b6000604051808303816000865af19150503d806000811462000e1a576040519150601f19603f3d011682016040523d82523d6000602084013e62000e1f565b606091505b509150915081158062000e545750600081511415801562000e5357508080602001905181019062000e51919062002258565b155b5b1562000e8c576040517ffb7f507900000000000000000000000000000000000000000000000000000000815260040160405180910390fd5b505050505050565b6000600190505b8251811015620010a8576000808460018462000eb8919062001e33565b8151811062000ecc5762000ecb62001e6e565b5b602002602001015185848151811062000eea5762000ee962001e6e565b5b602002602001015191509150600062000f048383620013ea565b509050600087858151811062000f1f5762000f1e62001e6e565b5b602002602001015190506000808373ffffffffffffffffffffffffffffffffffffffff168673ffffffffffffffffffffffffffffffffffffffff161462000f695782600062000f6d565b6000835b91509150600060018a5162000f83919062001e33565b881062000f91578862000fea565b62000fe960008054906101000a900473ffffffffffffffffffffffffffffffffffffffff16878c60018c62000fc791906200228a565b8151811062000fdb5762000fda62001e6e565b5b602002602001015162000c72565b5b90506200101960008054906101000a900473ffffffffffffffffffffffffffffffffffffffff16888862000c72565b73ffffffffffffffffffffffffffffffffffffffff1663022c0d9f8484846040518463ffffffff1660e01b8152600401620010579392919062002322565b600060405180830381600087803b1580156200107257600080fd5b505af115801562001087573d6000803e3d6000fd5b505050505050505050505080806200109f9062002374565b91505062000e9b565b50505050565b6200114e84848484604051602401620010cb9493929190620023c1565b6040516020818303038152906040527f193fb800000000000000000000000000000000000000000000000000000000007bffffffffffffffffffffffffffffffffffffffffffffffffffffffff19166020820180517bffffffffffffffffffffffffffffffffffffffffffffffffffffffff838183161783525050505062001437565b50505050565b60008060008073__$9db2ba7b5505b60a57cc8adbe6fd822b97$__633274946160008054906101000a900473ffffffffffffffffffffffffffffffffffffffff168c8c6040518463ffffffff1660e01b8152600401620011b7939291906200240e565b6040805180830381865af4158015620011d4573d6000803e3d6000fd5b505050506040513d601f19601f82011682018060405250810190620011fa919062001f3a565b915091506000821480156200120f5750600081145b15620012255787878094508195505050620013dd565b600073__$9db2ba7b5505b60a57cc8adbe6fd822b97$__63904917ed8a85856040518463ffffffff1660e01b815260040162001264939291906200244b565b602060405180830381865af415801562001282573d6000803e3d6000fd5b505050506040513d601f19601f82011682018060405250810190620012a8919062001ff7565b9050878111620012fc57858111620012ec576040517fef71d09100000000000000000000000000000000000000000000000000000000815260040160405180910390fd5b88818095508196505050620013db565b600073__$9db2ba7b5505b60a57cc8adbe6fd822b97$__63904917ed8a85876040518463ffffffff1660e01b81526004016200133b939291906200244b565b602060405180830381865af415801562001359573d6000803e3d6000fd5b505050506040513d601f19601f820116820180604052508101906200137f919062001ff7565b90508981111562001395576200139462002488565b5b878111620013cf576040517f8dc525d100000000000000000000000000000000000000000000000000000000815260040160405180910390fd5b80898096508197505050505b505b5050965096945050505050565b6000808273ffffffffffffffffffffffffffffffffffffffff168473ffffffffffffffffffffffffffffffffffffffff1610620014295782846200142c565b83835b915091509250929050565b60008151905060006a636f6e736f6c652e6c6f679050602083016000808483855afa5050505050565b6137a080620024b883390190565b6000604051905090565b600080fd5b600080fd5b6000819050919050565b620014978162001482565b8114620014a357600080fd5b50565b600081359050620014b7816200148c565b92915050565b600080fd5b6000601f19601f8301169050919050565b7f4e487b7100000000000000000000000000000000000000000000000000000000600052604160045260246000fd5b6200150d82620014c2565b810181811067ffffffffffffffff821117156200152f576200152e620014d3565b5b80604052505050565b6000620015446200146e565b905062001552828262001502565b919050565b600067ffffffffffffffff821115620015755762001574620014d3565b5b602082029050602081019050919050565b600080fd5b600073ffffffffffffffffffffffffffffffffffffffff82169050919050565b6000620015b8826200158b565b9050919050565b620015ca81620015ab565b8114620015d657600080fd5b50565b600081359050620015ea81620015bf565b92915050565b600062001607620016018462001557565b62001538565b905080838252602082019050602084028301858111156200162d576200162c62001586565b5b835b818110156200165a5780620016458882620015d9565b8452602084019350506020810190506200162f565b5050509392505050565b600082601f8301126200167c576200167b620014bd565b5b81356200168e848260208601620015f0565b91505092915050565b60008060408385031215620016b157620016b062001478565b5b6000620016c185828601620014a6565b925050602083013567ffffffffffffffff811115620016e557620016e46200147d565b5b620016f38582860162001664565b9150509250929050565b600081519050919050565b600082825260208201905092915050565b6000819050602082019050919050565b620017348162001482565b82525050565b600062001748838362001729565b60208301905092915050565b6000602082019050919050565b60006200176e82620016fd565b6200177a818562001708565b9350620017878362001719565b8060005b83811015620017be578151620017a288826200173a565b9750620017af8362001754565b9250506001810190506200178b565b5085935050505092915050565b60006020820190508181036000830152620017e7818462001761565b905092915050565b600080fd5b60008083601f8401126200180d576200180c620014bd565b5b8235905067ffffffffffffffff8111156200182d576200182c620017ef565b5b6020830191508360208202830111156200184c576200184b62001586565b5b9250929050565b60008060008060006080868803121562001872576200187162001478565b5b60006200188288828901620014a6565b95505060206200189588828901620014a6565b945050604086013567ffffffffffffffff811115620018b957620018b86200147d565b5b620018c788828901620017f4565b93509350506060620018dc88828901620015d9565b9150509295509295909350565b60008060008060008060c0878903121562001909576200190862001478565b5b60006200191989828a01620015d9565b96505060206200192c89828a01620015d9565b95505060406200193f89828a01620014a6565b94505060606200195289828a01620014a6565b93505060806200196589828a01620014a6565b92505060a06200197889828a01620015d9565b9150509295509295509295565b620019908162001482565b82525050565b6000604082019050620019ad600083018562001985565b620019bc602083018462001985565b9392505050565b600080600080600080600060e0888a031215620019e557620019e462001478565b5b6000620019f58a828b01620015d9565b975050602062001a088a828b01620015d9565b965050604062001a1b8a828b01620014a6565b955050606062001a2e8a828b01620014a6565b945050608062001a418a828b01620014a6565b93505060a062001a548a828b01620014a6565b92505060c062001a678a828b01620015d9565b91505092959891949750929550565b600060608201905062001a8d600083018662001985565b62001a9c602083018562001985565b62001aab604083018462001985565b949350505050565b62001abe81620015ab565b82525050565b62001acf8162001482565b82525050565b600081519050919050565b600082825260208201905092915050565b6000819050602082019050919050565b62001b0c81620015ab565b82525050565b600062001b20838362001b01565b60208301905092915050565b6000602082019050919050565b600062001b468262001ad5565b62001b52818562001ae0565b935062001b5f8362001af1565b8060005b8381101562001b9657815162001b7a888262001b12565b975062001b878362001b2c565b92505060018101905062001b63565b5085935050505092915050565b600060608201905062001bba600083018662001ab3565b62001bc9602083018562001ac4565b818103604083015262001bdd818462001b39565b9050949350505050565b600067ffffffffffffffff82111562001c055762001c04620014d3565b5b602082029050602081019050919050565b60008151905062001c27816200148c565b92915050565b600062001c4462001c3e8462001be7565b62001538565b9050808382526020820190506020840283018581111562001c6a5762001c6962001586565b5b835b8181101562001c97578062001c82888262001c16565b84526020840193505060208101905062001c6c565b5050509392505050565b600082601f83011262001cb95762001cb8620014bd565b5b815162001ccb84826020860162001c2d565b91505092915050565b60006020828403121562001ced5762001cec62001478565b5b600082015167ffffffffffffffff81111562001d0e5762001d0d6200147d565b5b62001d1c8482850162001ca1565b91505092915050565b6000819050919050565b600062001d406020840184620015d9565b905092915050565b6000602082019050919050565b600062001d63838562001ae0565b935062001d708262001d25565b8060005b8581101562001db15762001d89828462001d2f565b62001d95888262001b12565b975062001da28362001d48565b92505060018101905062001d74565b5085925050509392505050565b600060608201905062001dd5600083018762001ab3565b62001de4602083018662001ac4565b818103604083015262001df981848662001d55565b905095945050505050565b7f4e487b7100000000000000000000000000000000000000000000000000000000600052601160045260246000fd5b600062001e408262001482565b915062001e4d8362001482565b92508282101562001e635762001e6262001e04565b5b828203905092915050565b7f4e487b7100000000000000000000000000000000000000000000000000000000600052603260045260246000fd5b60006020828403121562001eb65762001eb562001478565b5b600062001ec684828501620015d9565b91505092915050565b62001eda81620015ab565b82525050565b600060608201905062001ef7600083018662001ecf565b62001f06602083018562001ecf565b62001f15604083018462001985565b949350505050565b600060208201905062001f34600083018462001ecf565b92915050565b6000806040838503121562001f545762001f5362001478565b5b600062001f648582860162001c16565b925050602062001f778582860162001c16565b9150509250929050565b600060408201905062001f98600083018562001ecf565b62001fa7602083018462001ecf565b9392505050565b60008151905062001fbf81620015bf565b92915050565b60006020828403121562001fde5762001fdd62001478565b5b600062001fee8482850162001fae565b91505092915050565b60006020828403121562002010576200200f62001478565b5b6000620020208482850162001c16565b91505092915050565b60008160601b9050919050565b6000620020438262002029565b9050919050565b6000620020578262002036565b9050919050565b620020736200206d82620015ab565b6200204a565b82525050565b60006200208782856200205e565b6014820191506200209982846200205e565b6014820191508190509392505050565b60007fff0000000000000000000000000000000000000000000000000000000000000082169050919050565b6000819050919050565b620020f4620020ee82620020a9565b620020d5565b82525050565b6000819050919050565b6000819050919050565b620021236200211d82620020fa565b62002104565b82525050565b6000620021378287620020df565b6001820191506200214982866200205e565b6014820191506200215b82856200210e565b6020820191506200216d82846200210e565b60208201915081905095945050505050565b600081519050919050565b600081905092915050565b60005b83811015620021b557808201518184015260208101905062002198565b83811115620021c5576000848401525b50505050565b6000620021d8826200217f565b620021e481856200218a565b9350620021f681856020860162002195565b80840191505092915050565b6000620022108284620021cb565b915081905092915050565b60008115159050919050565b62002232816200221b565b81146200223e57600080fd5b50565b600081519050620022528162002227565b92915050565b60006020828403121562002271576200227062001478565b5b6000620022818482850162002241565b91505092915050565b6000620022978262001482565b9150620022a48362001482565b9250827fffffffffffffffffffffffffffffffffffffffffffffffffffffffffffffffff03821115620022dc57620022db62001e04565b5b828201905092915050565b600082825260208201905092915050565b50565b60006200230a600083620022e7565b91506200231782620022f8565b600082019050919050565b600060808201905062002339600083018662001985565b62002348602083018562001985565b62002357604083018462001ecf565b81810360608301526200236a81620022fb565b9050949350505050565b6000620023818262001482565b91507fffffffffffffffffffffffffffffffffffffffffffffffffffffffffffffffff8203620023b657620023b562001e04565b5b600182019050919050565b6000608082019050620023d8600083018762001985565b620023e7602083018662001985565b620023f6604083018562001985565b62002405606083018462001985565b95945050505050565b600060608201905062002425600083018662001ab3565b62002434602083018562001ab3565b62002443604083018462001ab3565b949350505050565b600060608201905062002462600083018662001ac4565b62002471602083018562001ac4565b62002480604083018462001ac4565b949350505050565b7f4e487b7100000000000000000000000000000000000000000000000000000000600052600160045260246000fdfe60806040523480156200001157600080fd5b506040518060400160405280600f81526020017f5a756e69737761705632205061697200000000000000000000000000000000008152506040518060400160405280600681526020017f5a554e495632000000000000000000000000000000000000000000000000000081525081600390816200008f919062000324565b508060049081620000a1919062000324565b5050506200040b565b600081519050919050565b7f4e487b7100000000000000000000000000000000000000000000000000000000600052604160045260246000fd5b7f4e487b7100000000000000000000000000000000000000000000000000000000600052602260045260246000fd5b600060028204905060018216806200012c57607f821691505b602082108103620001425762000141620000e4565b5b50919050565b60008190508160005260206000209050919050565b60006020601f8301049050919050565b600082821b905092915050565b600060088302620001ac7fffffffffffffffffffffffffffffffffffffffffffffffffffffffffffffffff826200016d565b620001b886836200016d565b95508019841693508086168417925050509392505050565b6000819050919050565b6000819050919050565b600062000205620001ff620001f984620001d0565b620001da565b620001d0565b9050919050565b6000819050919050565b6200022183620001e4565b6200023962000230826200020c565b8484546200017a565b825550505050565b600090565b6200025062000241565b6200025d81848462000216565b505050565b5b8181101562000285576200027960008262000246565b60018101905062000263565b5050565b601f821115620002d4576200029e8162000148565b620002a9846200015d565b81016020851015620002b9578190505b620002d1620002c8856200015d565b83018262000262565b50505b505050565b600082821c905092915050565b6000620002f960001984600802620002d9565b1980831691505092915050565b6000620003148383620002e6565b9150826002028217905092915050565b6200032f82620000aa565b67ffffffffffffffff8111156200034b576200034a620000b5565b5b62000357825462000113565b6200036482828562000289565b600060209050601f8311600181146200039c576000841562000387578287015190505b62000393858262000306565b86555062000403565b601f198416620003ac8662000148565b60005b82811015620003d657848901518255600182019150602085019450602081019050620003af565b86831015620003f65784890151620003f2601f891682620002e6565b8355505b6001600288020188555050505b505050505050565b613385806200041b6000396000f3fe608060405234801561001057600080fd5b50600436106101375760003560e01c80635909c0d5116100b857806395d89b411161007c57806395d89b4114610369578063a457c2d714610387578063a9059cbb146103b7578063d21220a7146103e7578063dd62ed3e14610405578063fff6cae91461043557610137565b80635909c0d51461029c5780635a3d5493146102ba5780636a627842146102d857806370a082311461030857806389afcb441461033857610137565b806318160ddd116100ff57806318160ddd146101e457806323b872dd14610202578063313ce567146102325780633950935114610250578063485cc9551461028057610137565b8063022c0d9f1461013c57806306fdde03146101585780630902f1ac14610176578063095ea7b3146101965780630dfe1681146101c6575b600080fd5b610156600480360381019061015191906125b7565b61043f565b005b610160610a2b565b60405161016d91906126d8565b60405180910390f35b61017e610abd565b60405161018d93929190612742565b60405180910390f35b6101b060048036038101906101ab9190612779565b610b1a565b6040516101bd91906127d4565b60405180910390f35b6101ce610b3d565b6040516101db91906127fe565b60405180910390f35b6101ec610b63565b6040516101f99190612828565b60405180910390f35b61021c60048036038101906102179190612843565b610b6d565b60405161022991906127d4565b60405180910390f35b61023a610b9c565b60405161024791906128b2565b60405180910390f35b61026a60048036038101906102659190612779565b610ba5565b60405161027791906127d4565b60405180910390f35b61029a600480360381019061029591906128cd565b610bdc565b005b6102a4610d46565b6040516102b19190612828565b60405180910390f35b6102c2610d4c565b6040516102cf9190612828565b60405180910390f35b6102f260048036038101906102ed919061290d565b610d52565b6040516102ff9190612828565b60405180910390f35b610322600480360381019061031d919061290d565b61103b565b60405161032f9190612828565b60405180910390f35b610352600480360381019061034d919061290d565b611083565b60405161036092919061293a565b60405180910390f35b610371611471565b60405161037e91906126d8565b60405180910390f35b6103a1600480360381019061039c9190612779565b611503565b6040516103ae91906127d4565b60405180910390f35b6103d160048036038101906103cc9190612779565b61157a565b6040516103de91906127d4565b60405180910390f35b6103ef61159d565b6040516103fc91906127fe565b60405180910390f35b61041f600480360381019061041a91906128cd565b6115c3565b60405161042c9190612828565b60405180910390f35b61043d61164a565b005b600a60009054906101000a900460ff161561045957600080fd5b6001600a60006101000a81548160ff0219169083151502179055506000851480156104845750600084145b156104bb576040517f42301c2300000000000000000000000000000000000000000000000000000000815260040160405180910390fd5b6000806104c6610abd565b5091509150816dffffffffffffffffffffffffffff168711806104f85750806dffffffffffffffffffffffffffff1686115b1561052f576040517fbb55fd2700000000000000000000000000000000000000000000000000000000815260040160405180910390fd5b600087111561056657610565600560009054906101000a900473ffffffffffffffffffffffffffffffffffffffff1686896117a0565b5b600086111561059d5761059c600660009054906101000a900473ffffffffffffffffffffffffffffffffffffffff1686886117a0565b5b600084849050111561061d578473ffffffffffffffffffffffffffffffffffffffff1663c68e5d5033898988886040518663ffffffff1660e01b81526004016105ea9594939291906129b0565b600060405180830381600087803b15801561060457600080fd5b505af1158015610618573d6000803e3d6000fd5b505050505b6000600560009054906101000a900473ffffffffffffffffffffffffffffffffffffffff1673ffffffffffffffffffffffffffffffffffffffff166370a08231306040518263ffffffff1660e01b815260040161067a91906127fe565b602060405180830381865afa158015610697573d6000803e3d6000fd5b505050506040513d601f19601f820116820180604052508101906106bb9190612a13565b90506000600660009054906101000a900473ffffffffffffffffffffffffffffffffffffffff1673ffffffffffffffffffffffffffffffffffffffff166370a08231306040518263ffffffff1660e01b815260040161071a91906127fe565b602060405180830381865afa158015610737573d6000803e3d6000fd5b505050506040513d601f19601f8201168201806040525081019061075b9190612a13565b9050600089600760009054906101000a90046dffffffffffffffffffffffffffff166dffffffffffffffffffffffffffff166107979190612a6f565b83116107a45760006107e8565b89600760009054906101000a90046dffffffffffffffffffffffffffff166dffffffffffffffffffffffffffff166107dc9190612a6f565b836107e79190612a6f565b5b90506000896007600e9054906101000a90046dffffffffffffffffffffffffffff166dffffffffffffffffffffffffffff166108249190612a6f565b8311610831576000610875565b896007600e9054906101000a90046dffffffffffffffffffffffffffff166dffffffffffffffffffffffffffff166108699190612a6f565b836108749190612a6f565b5b90506000821480156108875750600081145b156108be576040517f098fb56100000000000000000000000000000000000000000000000000000000815260040160405180910390fd5b60006003836108cd9190612aa3565b6103e8866108db9190612aa3565b6108e59190612a6f565b905060006003836108f69190612aa3565b6103e8866109049190612aa3565b61090e9190612a6f565b9050620f4240876dffffffffffffffffffffffffffff16896dffffffffffffffffffffffffffff166109409190612aa3565b61094a9190612aa3565b81836109569190612aa3565b101561098e576040517fbd8bc36400000000000000000000000000000000000000000000000000000000815260040160405180910390fd5b61099a86868a8a611908565b8a73ffffffffffffffffffffffffffffffffffffffff163373ffffffffffffffffffffffffffffffffffffffff167f2a9237ff5aa599ef4c5ee4b1142b53429d5755e2685fe6288b2e3320202115f58f8f6040516109f992919061293a565b60405180910390a350505050505050506000600a60006101000a81548160ff0219169083151502179055505050505050565b606060038054610a3a90612b2c565b80601f0160208091040260200160405190810160405280929190818152602001828054610a6690612b2c565b8015610ab35780601f10610a8857610100808354040283529160200191610ab3565b820191906000526020600020905b815481529060010190602001808311610a9657829003601f168201915b5050505050905090565b6000806000600760009054906101000a90046dffffffffffffffffffffffffffff166007600e9054906101000a90046dffffffffffffffffffffffffffff166007601c9054906101000a900463ffffffff16925092509250909192565b600080610b25611bac565b9050610b32818585611bb4565b600191505092915050565b600560009054906101000a900473ffffffffffffffffffffffffffffffffffffffff1681565b6000600254905090565b600080610b78611bac565b9050610b85858285611d7d565b610b90858585611e09565b60019150509392505050565b60006012905090565b600080610bb0611bac565b9050610bd1818585610bc285896115c3565b610bcc9190612b5d565b611bb4565b600191505092915050565b600073ffffffffffffffffffffffffffffffffffffffff16600560009054906101000a900473ffffffffffffffffffffffffffffffffffffffff1673ffffffffffffffffffffffffffffffffffffffff16141580610c895750600073ffffffffffffffffffffffffffffffffffffffff16600660009054906101000a900473ffffffffffffffffffffffffffffffffffffffff1673ffffffffffffffffffffffffffffffffffffffff1614155b15610cc0576040517f0dc149f000000000000000000000000000000000000000000000000000000000815260040160405180910390fd5b81600560006101000a81548173ffffffffffffffffffffffffffffffffffffffff021916908373ffffffffffffffffffffffffffffffffffffffff16021790555080600660006101000a81548173ffffffffffffffffffffffffffffffffffffffff021916908373ffffffffffffffffffffffffffffffffffffffff1602179055505050565b60085481565b60095481565b6000806000610d5f610abd565b50915091506000600560009054906101000a900473ffffffffffffffffffffffffffffffffffffffff1673ffffffffffffffffffffffffffffffffffffffff166370a08231306040518263ffffffff1660e01b8152600401610dc191906127fe565b602060405180830381865afa158015610dde573d6000803e3d6000fd5b505050506040513d601f19601f82011682018060405250810190610e029190612a13565b90506000600660009054906101000a900473ffffffffffffffffffffffffffffffffffffffff1673ffffffffffffffffffffffffffffffffffffffff166370a08231306040518263ffffffff1660e01b8152600401610e6191906127fe565b602060405180830381865afa158015610e7e573d6000803e3d6000fd5b505050506040513d601f19601f82011682018060405250810190610ea29190612a13565b90506000846dffffffffffffffffffffffffffff1683610ec29190612a6f565b90506000846dffffffffffffffffffffffffffff1683610ee29190612a6f565b90506000610eee610b63565b03610f29576103e8610f0a8284610f059190612aa3565b612088565b610f149190612a6f565b9650610f2461dead6103e8612102565b610f90565b610f8d866dffffffffffffffffffffffffffff16610f45610b63565b84610f509190612aa3565b610f5a9190612be2565b866dffffffffffffffffffffffffffff16610f73610b63565b84610f7e9190612aa3565b610f889190612be2565b612261565b96505b60008711610fca576040517fd226f9d400000000000000000000000000000000000000000000000000000000815260040160405180910390fd5b610fd48888612102565b610fe084848888611908565b8773ffffffffffffffffffffffffffffffffffffffff167f4c209b5fc8ad50758f13e2e1088ba56a560dff690a1c6fef26394f4c03821c4f838360405161102892919061293a565b60405180910390a2505050505050919050565b60008060008373ffffffffffffffffffffffffffffffffffffffff1673ffffffffffffffffffffffffffffffffffffffff168152602001908152602001600020549050919050565b6000806000600560009054906101000a900473ffffffffffffffffffffffffffffffffffffffff1673ffffffffffffffffffffffffffffffffffffffff166370a08231306040518263ffffffff1660e01b81526004016110e391906127fe565b602060405180830381865afa158015611100573d6000803e3d6000fd5b505050506040513d601f19601f820116820180604052508101906111249190612a13565b90506000600660009054906101000a900473ffffffffffffffffffffffffffffffffffffffff1673ffffffffffffffffffffffffffffffffffffffff166370a08231306040518263ffffffff1660e01b815260040161118391906127fe565b602060405180830381865afa1580156111a0573d6000803e3d6000fd5b505050506040513d601f19601f820116820180604052508101906111c49190612a13565b905060006111d13061103b565b90506111db610b63565b83826111e79190612aa3565b6111f19190612be2565b94506111fb610b63565b82826112079190612aa3565b6112119190612be2565b935060008514806112225750600084145b15611259576040517f749383ad00000000000000000000000000000000000000000000000000000000815260040160405180910390fd5b611263308261227a565b611290600560009054906101000a900473ffffffffffffffffffffffffffffffffffffffff1687876117a0565b6112bd600660009054906101000a900473ffffffffffffffffffffffffffffffffffffffff1687866117a0565b600560009054906101000a900473ffffffffffffffffffffffffffffffffffffffff1673ffffffffffffffffffffffffffffffffffffffff166370a08231306040518263ffffffff1660e01b815260040161131891906127fe565b602060405180830381865afa158015611335573d6000803e3d6000fd5b505050506040513d601f19601f820116820180604052508101906113599190612a13565b9250600660009054906101000a900473ffffffffffffffffffffffffffffffffffffffff1673ffffffffffffffffffffffffffffffffffffffff166370a08231306040518263ffffffff1660e01b81526004016113b691906127fe565b602060405180830381865afa1580156113d3573d6000803e3d6000fd5b505050506040513d601f19601f820116820180604052508101906113f79190612a13565b9150600080611404610abd565b509150915061141585858484611908565b3373ffffffffffffffffffffffffffffffffffffffff167fdccd412f0b1252819cb1fd330b93224ca42612892bb3f4f789976e6d8193649688888b60405161145f93929190612c13565b60405180910390a25050505050915091565b60606004805461148090612b2c565b80601f01602080910402602001604051908101604052809291908181526020018280546114ac90612b2c565b80156114f95780601f106114ce576101008083540402835291602001916114f9565b820191906000526020600020905b8154815290600101906020018083116114dc57829003601f168201915b5050505050905090565b60008061150e611bac565b9050600061151c82866115c3565b905083811015611561576040517f08c379a000000000000000000000000000000000000000000000000000000000815260040161155890612cbc565b60405180910390fd5b61156e8286868403611bb4565b60019250505092915050565b600080611585611bac565b9050611592818585611e09565b600191505092915050565b600660009054906101000a900473ffffffffffffffffffffffffffffffffffffffff1681565b6000600160008473ffffffffffffffffffffffffffffffffffffffff1673ffffffffffffffffffffffffffffffffffffffff16815260200190815260200160002060008373ffffffffffffffffffffffffffffffffffffffff1673ffffffffffffffffffffffffffffffffffffffff16815260200190815260200160002054905092915050565b600080611655610abd565b509150915061179c600560009054906101000a900473ffffffffffffffffffffffffffffffffffffffff1673ffffffffffffffffffffffffffffffffffffffff166370a08231306040518263ffffffff1660e01b81526004016116b891906127fe565b602060405180830381865afa1580156116d5573d6000803e3d6000fd5b505050506040513d601f19601f820116820180604052508101906116f99190612a13565b600660009054906101000a900473ffffffffffffffffffffffffffffffffffffffff1673ffffffffffffffffffffffffffffffffffffffff166370a08231306040518263ffffffff1660e01b815260040161175491906127fe565b602060405180830381865afa158015611771573d6000803e3d6000fd5b505050506040513d601f19601f820116820180604052508101906117959190612a13565b8484611908565b5050565b6000808473ffffffffffffffffffffffffffffffffffffffff1684846040516024016117cd929190612cdc565b6040516020818303038152906040527fa9059cbb000000000000000000000000000000000000000000000000000000007bffffffffffffffffffffffffffffffffffffffffffffffffffffffff19166020820180517bffffffffffffffffffffffffffffffffffffffffffffffffffffffff83818316178352505050506040516118579190612d4c565b6000604051808303816000865af19150503d8060008114611894576040519150601f19603f3d011682016040523d82523d6000602084013e611899565b606091505b50915091508115806118ca575060008151141580156118c95750808060200190518101906118c79190612d8f565b155b5b15611901576040517f90b8ec1800000000000000000000000000000000000000000000000000000000815260040160405180910390fd5b5050505050565b6dffffffffffffffffffffffffffff801684118061193557506dffffffffffffffffffffffffffff801683115b1561196c576040517f89560ca100000000000000000000000000000000000000000000000000000000815260040160405180910390fd5b60006007601c9054906101000a900463ffffffff164203905060008163ffffffff161180156119ab57506000836dffffffffffffffffffffffffffff16115b80156119c757506000826dffffffffffffffffffffffffffff16115b15611aa9578063ffffffff16611a0c846119e085612450565b7bffffffffffffffffffffffffffffffffffffffffffffffffffffffff1661248490919063ffffffff16565b7bffffffffffffffffffffffffffffffffffffffffffffffffffffffff16026008600082825401925050819055508063ffffffff16611a7a83611a4e86612450565b7bffffffffffffffffffffffffffffffffffffffffffffffffffffffff1661248490919063ffffffff16565b7bffffffffffffffffffffffffffffffffffffffffffffffffffffffff16026009600082825401925050819055505b5083600760006101000a8154816dffffffffffffffffffffffffffff02191690836dffffffffffffffffffffffffffff160217905550826007600e6101000a8154816dffffffffffffffffffffffffffff02191690836dffffffffffffffffffffffffffff160217905550426007601c6101000a81548163ffffffff021916908363ffffffff1602179055507fcf2aa50876cdfbb541206f89af0ee78d44a2abf8d328e37fa4917f982149848a600760009054906101000a90046dffffffffffffffffffffffffffff166007600e9054906101000a90046dffffffffffffffffffffffffffff16604051611b9e929190612df7565b60405180910390a150505050565b600033905090565b600073ffffffffffffffffffffffffffffffffffffffff168373ffffffffffffffffffffffffffffffffffffffff1603611c23576040517f08c379a0000000000000000000000000000000000000000000000000000000008152600401611c1a90612e92565b60405180910390fd5b600073ffffffffffffffffffffffffffffffffffffffff168273ffffffffffffffffffffffffffffffffffffffff1603611c92576040517f08c379a0000000000000000000000000000000000000000000000000000000008152600401611c8990612f24565b60405180910390fd5b80600160008573ffffffffffffffffffffffffffffffffffffffff1673ffffffffffffffffffffffffffffffffffffffff16815260200190815260200160002060008473ffffffffffffffffffffffffffffffffffffffff1673ffffffffffffffffffffffffffffffffffffffff168152602001908152602001600020819055508173ffffffffffffffffffffffffffffffffffffffff168373ffffffffffffffffffffffffffffffffffffffff167f8c5be1e5ebec7d5bd14f71427d1e84f3dd0314c0f7b2291e5b200ac8c7c3b92583604051611d709190612828565b60405180910390a3505050565b6000611d8984846115c3565b90507fffffffffffffffffffffffffffffffffffffffffffffffffffffffffffffffff8114611e035781811015611df5576040517f08c379a0000000000000000000000000000000000000000000000000000000008152600401611dec90612f90565b60405180910390fd5b611e028484848403611bb4565b5b50505050565b600073ffffffffffffffffffffffffffffffffffffffff168373ffffffffffffffffffffffffffffffffffffffff1603611e78576040517f08c379a0000000000000000000000000000000000000000000000000000000008152600401611e6f90613022565b60405180910390fd5b600073ffffffffffffffffffffffffffffffffffffffff168273ffffffffffffffffffffffffffffffffffffffff1603611ee7576040517f08c379a0000000000000000000000000000000000000000000000000000000008152600401611ede906130b4565b60405180910390fd5b611ef28383836124aa565b60008060008573ffffffffffffffffffffffffffffffffffffffff1673ffffffffffffffffffffffffffffffffffffffff16815260200190815260200160002054905081811015611f78576040517f08c379a0000000000000000000000000000000000000000000000000000000008152600401611f6f90613146565b60405180910390fd5b8181036000808673ffffffffffffffffffffffffffffffffffffffff1673ffffffffffffffffffffffffffffffffffffffff16815260200190815260200160002081905550816000808573ffffffffffffffffffffffffffffffffffffffff1673ffffffffffffffffffffffffffffffffffffffff168152602001908152602001600020600082825461200b9190612b5d565b925050819055508273ffffffffffffffffffffffffffffffffffffffff168473ffffffffffffffffffffffffffffffffffffffff167fddf252ad1be2c89b69c2b068fc378daa952ba7f163c4a11628f55a4df523b3ef8460405161206f9190612828565b60405180910390a36120828484846124af565b50505050565b600060038211156120ef57819050600060016002846120a79190612be2565b6120b19190612b5d565b90505b818110156120e95780915060028182856120ce9190612be2565b6120d89190612b5d565b6120e29190612be2565b90506120b4565b506120fd565b600082146120fc57600190505b5b919050565b600073ffffffffffffffffffffffffffffffffffffffff168273ffffffffffffffffffffffffffffffffffffffff1603612171576040517f08c379a0000000000000000000000000000000000000000000000000000000008152600401612168906131b2565b60405180910390fd5b61217d600083836124aa565b806002600082825461218f9190612b5d565b92505081905550806000808473ffffffffffffffffffffffffffffffffffffffff1673ffffffffffffffffffffffffffffffffffffffff16815260200190815260200160002060008282546121e49190612b5d565b925050819055508173ffffffffffffffffffffffffffffffffffffffff16600073ffffffffffffffffffffffffffffffffffffffff167fddf252ad1be2c89b69c2b068fc378daa952ba7f163c4a11628f55a4df523b3ef836040516122499190612828565b60405180910390a361225d600083836124af565b5050565b60008183106122705781612272565b825b905092915050565b600073ffffffffffffffffffffffffffffffffffffffff168273ffffffffffffffffffffffffffffffffffffffff16036122e9576040517f08c379a00000000000000000000000000000000000000000000000000000000081526004016122e090613244565b60405180910390fd5b6122f5826000836124aa565b60008060008473ffffffffffffffffffffffffffffffffffffffff1673ffffffffffffffffffffffffffffffffffffffff1681526020019081526020016000205490508181101561237b576040517f08c379a0000000000000000000000000000000000000000000000000000000008152600401612372906132d6565b60405180910390fd5b8181036000808573ffffffffffffffffffffffffffffffffffffffff1673ffffffffffffffffffffffffffffffffffffffff1681526020019081526020016000208190555081600260008282546123d29190612a6f565b92505081905550600073ffffffffffffffffffffffffffffffffffffffff168373ffffffffffffffffffffffffffffffffffffffff167fddf252ad1be2c89b69c2b068fc378daa952ba7f163c4a11628f55a4df523b3ef846040516124379190612828565b60405180910390a361244b836000846124af565b505050565b60006e010000000000000000000000000000826dffffffffffffffffffffffffffff1661247d919061331e565b9050919050565b6000816dffffffffffffffffffffffffffff16836124a2919061331e565b905092915050565b505050565b505050565b600080fd5b600080fd5b6000819050919050565b6124d1816124be565b81146124dc57600080fd5b50565b6000813590506124ee816124c8565b92915050565b600073ffffffffffffffffffffffffffffffffffffffff82169050919050565b600061251f826124f4565b9050919050565b61252f81612514565b811461253a57600080fd5b50565b60008135905061254c81612526565b92915050565b600080fd5b600080fd5b600080fd5b60008083601f84011261257757612576612552565b5b8235905067ffffffffffffffff81111561259457612593612557565b5b6020830191508360018202830111156125b0576125af61255c565b5b9250929050565b6000806000806000608086880312156125d3576125d26124b4565b5b60006125e1888289016124df565b95505060206125f2888289016124df565b94505060406126038882890161253d565b935050606086013567ffffffffffffffff811115612624576126236124b9565b5b61263088828901612561565b92509250509295509295909350565b600081519050919050565b600082825260208201905092915050565b60005b8381101561267957808201518184015260208101905061265e565b83811115612688576000848401525b50505050565b6000601f19601f8301169050919050565b60006126aa8261263f565b6126b4818561264a565b93506126c481856020860161265b565b6126cd8161268e565b840191505092915050565b600060208201905081810360008301526126f2818461269f565b905092915050565b60006dffffffffffffffffffffffffffff82169050919050565b61271d816126fa565b82525050565b600063ffffffff82169050919050565b61273c81612723565b82525050565b60006060820190506127576000830186612714565b6127646020830185612714565b6127716040830184612733565b949350505050565b600080604083850312156127905761278f6124b4565b5b600061279e8582860161253d565b92505060206127af858286016124df565b9150509250929050565b60008115159050919050565b6127ce816127b9565b82525050565b60006020820190506127e960008301846127c5565b92915050565b6127f881612514565b82525050565b600060208201905061281360008301846127ef565b92915050565b612822816124be565b82525050565b600060208201905061283d6000830184612819565b92915050565b60008060006060848603121561285c5761285b6124b4565b5b600061286a8682870161253d565b935050602061287b8682870161253d565b925050604061288c868287016124df565b9150509250925092565b600060ff82169050919050565b6128ac81612896565b82525050565b60006020820190506128c760008301846128a3565b92915050565b600080604083850312156128e4576128e36124b4565b5b60006128f28582860161253d565b92505060206129038582860161253d565b9150509250929050565b600060208284031215612923576129226124b4565b5b60006129318482850161253d565b91505092915050565b600060408201905061294f6000830185612819565b61295c6020830184612819565b9392505050565b600082825260208201905092915050565b82818337600083830152505050565b600061298f8385612963565b935061299c838584612974565b6129a58361268e565b840190509392505050565b60006080820190506129c560008301886127ef565b6129d26020830187612819565b6129df6040830186612819565b81810360608301526129f2818486612983565b90509695505050505050565b600081519050612a0d816124c8565b92915050565b600060208284031215612a2957612a286124b4565b5b6000612a37848285016129fe565b91505092915050565b7f4e487b7100000000000000000000000000000000000000000000000000000000600052601160045260246000fd5b6000612a7a826124be565b9150612a85836124be565b925082821015612a9857612a97612a40565b5b828203905092915050565b6000612aae826124be565b9150612ab9836124be565b9250817fffffffffffffffffffffffffffffffffffffffffffffffffffffffffffffffff0483118215151615612af257612af1612a40565b5b828202905092915050565b7f4e487b7100000000000000000000000000000000000000000000000000000000600052602260045260246000fd5b60006002820490506001821680612b4457607f821691505b602082108103612b5757612b56612afd565b5b50919050565b6000612b68826124be565b9150612b73836124be565b9250827fffffffffffffffffffffffffffffffffffffffffffffffffffffffffffffffff03821115612ba857612ba7612a40565b5b828201905092915050565b7f4e487b7100000000000000000000000000000000000000000000000000000000600052601260045260246000fd5b6000612bed826124be565b9150612bf8836124be565b925082612c0857612c07612bb3565b5b828204905092915050565b6000606082019050612c286000830186612819565b612c356020830185612819565b612c4260408301846127ef565b949350505050565b7f45524332303a2064656372656173656420616c6c6f77616e63652062656c6f7760008201527f207a65726f000000000000000000000000000000000000000000000000000000602082015250565b6000612ca660258361264a565b9150612cb182612c4a565b604082019050919050565b60006020820190508181036000830152612cd581612c99565b9050919050565b6000604082019050612cf160008301856127ef565b612cfe6020830184612819565b9392505050565b600081519050919050565b600081905092915050565b6000612d2682612d05565b612d308185612d10565b9350612d4081856020860161265b565b80840191505092915050565b6000612d588284612d1b565b915081905092915050565b612d6c816127b9565b8114612d7757600080fd5b50565b600081519050612d8981612d63565b92915050565b600060208284031215612da557612da46124b4565b5b6000612db384828501612d7a565b91505092915050565b6000819050919050565b6000612de1612ddc612dd7846126fa565b612dbc565b6124be565b9050919050565b612df181612dc6565b82525050565b6000604082019050612e0c6000830185612de8565b612e196020830184612de8565b9392505050565b7f45524332303a20617070726f76652066726f6d20746865207a65726f2061646460008201527f7265737300000000000000000000000000000000000000000000000000000000602082015250565b6000612e7c60248361264a565b9150612e8782612e20565b604082019050919050565b60006020820190508181036000830152612eab81612e6f565b9050919050565b7f45524332303a20617070726f766520746f20746865207a65726f20616464726560008201527f7373000000000000000000000000000000000000000000000000000000000000602082015250565b6000612f0e60228361264a565b9150612f1982612eb2565b604082019050919050565b60006020820190508181036000830152612f3d81612f01565b9050919050565b7f45524332303a20696e73756666696369656e7420616c6c6f77616e6365000000600082015250565b6000612f7a601d8361264a565b9150612f8582612f44565b602082019050919050565b60006020820190508181036000830152612fa981612f6d565b9050919050565b7f45524332303a207472616e736665722066726f6d20746865207a65726f20616460008201527f6472657373000000000000000000000000000000000000000000000000000000602082015250565b600061300c60258361264a565b915061301782612fb0565b604082019050919050565b6000602082019050818103600083015261303b81612fff565b9050919050565b7f45524332303a207472616e7366657220746f20746865207a65726f206164647260008201527f6573730000000000000000000000000000000000000000000000000000000000602082015250565b600061309e60238361264a565b91506130a982613042565b604082019050919050565b600060208201905081810360008301526130cd81613091565b9050919050565b7f45524332303a207472616e7366657220616d6f756e742065786365656473206260008201527f616c616e63650000000000000000000000000000000000000000000000000000602082015250565b600061313060268361264a565b915061313b826130d4565b604082019050919050565b6000602082019050818103600083015261315f81613123565b9050919050565b7f45524332303a206d696e7420746f20746865207a65726f206164647265737300600082015250565b600061319c601f8361264a565b91506131a782613166565b602082019050919050565b600060208201905081810360008301526131cb8161318f565b9050919050565b7f45524332303a206275726e2066726f6d20746865207a65726f2061646472657360008201527f7300000000000000000000000000000000000000000000000000000000000000602082015250565b600061322e60218361264a565b9150613239826131d2565b604082019050919050565b6000602082019050818103600083015261325d81613221565b9050919050565b7f45524332303a206275726e20616d6f756e7420657863656564732062616c616e60008201527f6365000000000000000000000000000000000000000000000000000000000000602082015250565b60006132c060228361264a565b91506132cb82613264565b604082019050919050565b600060208201905081810360008301526132ef816132b3565b9050919050565b60007bffffffffffffffffffffffffffffffffffffffffffffffffffffffff82169050919050565b6000613329826132f6565b9150613334836132f6565b92508261334457613343612bb3565b5b82820490509291505056fea2646970667358221220f89269b0ff256161c955d2ccb0c1bd8f07e37103e111554c36c98eb380a591b364736f6c634300080f0033a26469706673582212203cef0cf6f736546d55b40c6fcf1ecb41f6b3949c3a1310b2fda6280c5a58cd8664736f6c634300080f0033",
  "linkReferences": {
    "contracts/libraries/ZuniswapV2Library.sol": {
      "ZuniswapV2Library": [
        {
          "length": 20,
          "start": 740
        },
        {
          "length": 20,
          "start": 916
        },
        {
          "length": 20,
          "start": 1590
        },
        {
          "length": 20,
          "start": 3312
        },
        {
          "length": 20,
          "start": 4742
        },
        {
          "length": 20,
          "start": 4947
        },
        {
          "length": 20,
          "start": 5162
        }
      ]
    }
  },
  "deployedLinkReferences": {
    "contracts/libraries/ZuniswapV2Library.sol": {
      "ZuniswapV2Library": [
        {
          "length": 20,
          "start": 442
        },
        {
          "length": 20,
          "start": 618
        },
        {
          "length": 20,
          "start": 1292
        },
        {
          "length": 20,
          "start": 3014
        },
        {
          "length": 20,
          "start": 4444
        },
        {
          "length": 20,
          "start": 4649
        },
        {
          "length": 20,
          "start": 4864
        }
      ]
    }
  }
}