{
  "address": "0xA01341CD702260E619c20aAd873290b811b7e462",
  "abi": [
    {
      "inputs": [],
      "name": "AccountAlreadyDeactivated",
      "type": "error"
    },
    {
      "inputs": [],
      "name": "AccountNotApproved",
      "type": "error"
    },
    {
      "inputs": [],
      "name": "AllMemberIsPaid",
      "type": "error"
    },
    {
      "inputs": [],
      "name": "ExecutionStopped",
      "type": "error"
    },
    {
      "inputs": [],
      "name": "IDoNotAcceptEtherIFYouForceItLost",
      "type": "error"
    },
    {
      "inputs": [],
      "name": "InSufficientValue",
      "type": "error"
    },
    {
      "inputs": [],
      "name": "InconsistentArrayValue",
      "type": "error"
    },
    {
      "inputs": [
        {
          "internalType": "uint256",
          "name": "",
          "type": "uint256"
        },
        {
          "internalType": "uint256",
          "name": "",
          "type": "uint256"
        }
      ],
      "name": "InsufficientFund",
      "type": "error"
    },
    {
      "inputs": [],
      "name": "InvalidParameter",
      "type": "error"
    },
    {
      "inputs": [],
      "name": "NoAccountDetected",
      "type": "error"
    },
    {
      "inputs": [],
      "name": "SomethingWentWrong",
      "type": "error"
    },
    {
      "inputs": [],
      "name": "StatusAlreadyUpdated",
      "type": "error"
    },
    {
      "inputs": [],
      "name": "SystemAlreadyRunning",
      "type": "error"
    },
    {
      "inputs": [],
      "name": "SystemNotRunning",
      "type": "error"
    },
    {
      "inputs": [],
      "name": "TargetHasNoAccount",
      "type": "error"
    },
    {
      "inputs": [],
      "name": "UnAuthorizedCaller",
      "type": "error"
    },
    {
      "inputs": [
        {
          "internalType": "address",
          "name": "",
          "type": "address"
        }
      ],
      "name": "UnsupportedAsset",
      "type": "error"
    },
    {
      "inputs": [],
      "name": "UnsupportedToken",
      "type": "error"
    },
    {
      "inputs": [],
      "name": "WithdrawalRestricted",
      "type": "error"
    },
    {
      "inputs": [
        {
          "internalType": "address",
          "name": "",
          "type": "address"
        }
      ],
      "name": "ZeroAddress",
      "type": "error"
    },
    {
      "anonymous": false,
      "inputs": [
        {
          "indexed": true,
          "internalType": "address",
          "name": "",
          "type": "address"
        },
        {
          "indexed": true,
          "internalType": "address",
          "name": "",
          "type": "address"
        }
      ],
      "name": "AccountLaunched",
      "type": "event"
    },
    {
      "anonymous": false,
      "inputs": [
        {
          "indexed": false,
          "internalType": "uint256",
          "name": "",
          "type": "uint256"
        },
        {
          "components": [
            {
              "components": [
                {
                  "internalType": "enum ICommon.Mode",
                  "name": "mode",
                  "type": "uint8"
                },
                {
                  "internalType": "uint256",
                  "name": "quorum",
                  "type": "uint256"
                },
                {
                  "internalType": "uint256",
                  "name": "selector",
                  "type": "uint256"
                },
                {
                  "internalType": "uint256",
                  "name": "ccr",
                  "type": "uint256"
                },
                {
                  "internalType": "uint256",
                  "name": "duration",
                  "type": "uint256"
                }
              ],
              "internalType": "struct ICommon.Uints",
              "name": "uints",
              "type": "tuple"
            },
            {
              "components": [
                {
                  "internalType": "uint256",
                  "name": "unit",
                  "type": "uint256"
                },
                {
                  "internalType": "uint256",
                  "name": "receivable",
                  "type": "uint256"
                },
                {
                  "internalType": "uint256",
                  "name": "currentPool",
                  "type": "uint256"
                }
              ],
              "internalType": "struct ICommon.Uint256s",
              "name": "uint256s",
              "type": "tuple"
            },
            {
              "components": [
                {
                  "internalType": "address",
                  "name": "asset",
                  "type": "address"
                },
                {
                  "internalType": "address",
                  "name": "lastPaid",
                  "type": "address"
                }
              ],
              "internalType": "struct ICommon.Addresses",
              "name": "addrs",
              "type": "tuple"
            },
            {
              "internalType": "address[]",
              "name": "mems",
              "type": "address[]"
            },
            {
              "internalType": "uint256",
              "name": "allGh",
              "type": "uint256"
            }
          ],
          "indexed": false,
          "internalType": "struct ICommon.Pool",
          "name": "",
          "type": "tuple"
        }
      ],
      "name": "BandCreated",
      "type": "event"
    },
    {
      "anonymous": false,
      "inputs": [
        {
          "indexed": false,
          "internalType": "uint256",
          "name": "",
          "type": "uint256"
        },
        {
          "indexed": false,
          "internalType": "uint256",
          "name": "",
          "type": "uint256"
        },
        {
          "indexed": false,
          "internalType": "address",
          "name": "",
          "type": "address"
        }
      ],
      "name": "GetFinanced",
      "type": "event"
    },
    {
      "anonymous": false,
      "inputs": [
        {
          "indexed": false,
          "internalType": "uint256",
          "name": "",
          "type": "uint256"
        },
        {
          "indexed": false,
          "internalType": "address",
          "name": "",
          "type": "address"
        },
        {
          "indexed": false,
          "internalType": "uint256",
          "name": "",
          "type": "uint256"
        }
      ],
      "name": "Joined",
      "type": "event"
    },
    {
      "anonymous": false,
      "inputs": [
        {
          "indexed": true,
          "internalType": "address",
          "name": "",
          "type": "address"
        },
        {
          "indexed": true,
          "internalType": "address",
          "name": "",
          "type": "address"
        },
        {
          "indexed": false,
          "internalType": "uint256",
          "name": "",
          "type": "uint256"
        }
      ],
      "name": "NewAccount",
      "type": "event"
    },
    {
      "anonymous": false,
      "inputs": [
        {
          "indexed": true,
          "internalType": "address",
          "name": "previousOwner",
          "type": "address"
        },
        {
          "indexed": true,
          "internalType": "address",
          "name": "newOwner",
          "type": "address"
        }
      ],
      "name": "OwnershipTransferred",
      "type": "event"
    },
    {
      "anonymous": false,
      "inputs": [
        {
          "indexed": false,
          "internalType": "uint256",
          "name": "",
          "type": "uint256"
        },
        {
          "indexed": false,
          "internalType": "uint256",
          "name": "",
          "type": "uint256"
        },
        {
          "indexed": true,
          "internalType": "address",
          "name": "",
          "type": "address"
        }
      ],
      "name": "Payback",
      "type": "event"
    },
    {
      "anonymous": false,
      "inputs": [
        {
          "indexed": true,
          "internalType": "address",
          "name": "",
          "type": "address"
        },
        {
          "indexed": true,
          "internalType": "address",
          "name": "",
          "type": "address"
        }
      ],
      "name": "Rekeyed",
      "type": "event"
    },
    {
      "anonymous": false,
      "inputs": [
        {
          "indexed": false,
          "internalType": "uint256",
          "name": "",
          "type": "uint256"
        },
        {
          "components": [
            {
              "components": [
                {
                  "internalType": "enum ICommon.Mode",
                  "name": "mode",
                  "type": "uint8"
                },
                {
                  "internalType": "uint256",
                  "name": "quorum",
                  "type": "uint256"
                },
                {
                  "internalType": "uint256",
                  "name": "selector",
                  "type": "uint256"
                },
                {
                  "internalType": "uint256",
                  "name": "ccr",
                  "type": "uint256"
                },
                {
                  "internalType": "uint256",
                  "name": "duration",
                  "type": "uint256"
                }
              ],
              "internalType": "struct ICommon.Uints",
              "name": "uints",
              "type": "tuple"
            },
            {
              "components": [
                {
                  "internalType": "uint256",
                  "name": "unit",
                  "type": "uint256"
                },
                {
                  "internalType": "uint256",
                  "name": "receivable",
                  "type": "uint256"
                },
                {
                  "internalType": "uint256",
                  "name": "currentPool",
                  "type": "uint256"
                }
              ],
              "internalType": "struct ICommon.Uint256s",
              "name": "uint256s",
              "type": "tuple"
            },
            {
              "components": [
                {
                  "internalType": "address",
                  "name": "asset",
                  "type": "address"
                },
                {
                  "internalType": "address",
                  "name": "lastPaid",
                  "type": "address"
                }
              ],
              "internalType": "struct ICommon.Addresses",
              "name": "addrs",
              "type": "tuple"
            },
            {
              "internalType": "address[]",
              "name": "mems",
              "type": "address[]"
            },
            {
              "internalType": "uint256",
              "name": "allGh",
              "type": "uint256"
            }
          ],
          "indexed": false,
          "internalType": "struct ICommon.Pool",
          "name": "",
          "type": "tuple"
        }
      ],
      "name": "RoundUp",
      "type": "event"
    },
    {
      "inputs": [],
      "name": "accountsCounter",
      "outputs": [
        {
          "internalType": "uint256",
          "name": "",
          "type": "uint256"
        }
      ],
      "stateMutability": "view",
      "type": "function"
    },
    {
      "inputs": [
        {
          "internalType": "address",
          "name": "target",
          "type": "address"
        }
      ],
      "name": "activateAccount",
      "outputs": [],
      "stateMutability": "nonpayable",
      "type": "function"
    },
    {
      "inputs": [
        {
          "internalType": "address",
          "name": "",
          "type": "address"
        }
      ],
      "name": "approvals",
      "outputs": [
        {
          "internalType": "bool",
          "name": "",
          "type": "bool"
        }
      ],
      "stateMutability": "view",
      "type": "function"
    },
    {
      "inputs": [
        {
          "internalType": "address",
          "name": "newFeeTo",
          "type": "address"
        }
      ],
      "name": "changeFeeTo",
      "outputs": [],
      "stateMutability": "nonpayable",
      "type": "function"
    },
    {
      "inputs": [
        {
          "internalType": "uint256",
          "name": "initialAccountBalance",
          "type": "uint256"
        },
        {
          "internalType": "address",
          "name": "who",
          "type": "address"
        }
      ],
      "name": "createAccount",
      "outputs": [
        {
          "internalType": "address",
          "name": "newAlc",
          "type": "address"
        }
      ],
      "stateMutability": "payable",
      "type": "function"
    },
    {
      "inputs": [
        {
          "internalType": "address",
          "name": "target",
          "type": "address"
        }
      ],
      "name": "deactivateAccount",
      "outputs": [],
      "stateMutability": "nonpayable",
      "type": "function"
    },
    {
      "inputs": [],
      "name": "factory",
      "outputs": [
        {
          "internalType": "address",
          "name": "",
          "type": "address"
        }
      ],
      "stateMutability": "view",
      "type": "function"
    },
    {
      "inputs": [
        {
          "internalType": "address",
          "name": "who",
          "type": "address"
        }
      ],
      "name": "getAccount",
      "outputs": [
        {
          "internalType": "address",
          "name": "",
          "type": "address"
        }
      ],
      "stateMutability": "view",
      "type": "function"
    },
    {
      "inputs": [
        {
          "internalType": "address",
          "name": "who",
          "type": "address"
        }
      ],
      "name": "hasAccount",
      "outputs": [
        {
          "internalType": "bool",
          "name": "",
          "type": "bool"
        }
      ],
      "stateMutability": "view",
      "type": "function"
    },
    {
      "inputs": [],
      "name": "owner",
      "outputs": [
        {
          "internalType": "address",
          "name": "",
          "type": "address"
        }
      ],
      "stateMutability": "view",
      "type": "function"
    },
    {
      "inputs": [
        {
          "internalType": "address",
          "name": "newAccount",
          "type": "address"
        }
      ],
      "name": "rekeyAccount",
      "outputs": [
        {
          "internalType": "bool",
          "name": "",
          "type": "bool"
        }
      ],
      "stateMutability": "nonpayable",
      "type": "function"
    },
    {
      "inputs": [],
      "name": "renounceOwnership",
      "outputs": [],
      "stateMutability": "nonpayable",
      "type": "function"
    },
    {
      "inputs": [
        {
          "internalType": "uint256",
          "name": "newFee",
          "type": "uint256"
        }
      ],
      "name": "setAccountCreationFee",
      "outputs": [],
      "stateMutability": "nonpayable",
      "type": "function"
    },
    {
      "inputs": [
        {
          "internalType": "address",
          "name": "newAccount",
          "type": "address"
        },
        {
          "internalType": "bool",
          "name": "_approval",
          "type": "bool"
        }
      ],
      "name": "setApproval",
      "outputs": [],
      "stateMutability": "nonpayable",
      "type": "function"
    },
    {
      "inputs": [
        {
          "internalType": "address",
          "name": "newFactory",
          "type": "address"
        }
      ],
      "name": "setFactory",
      "outputs": [],
      "stateMutability": "nonpayable",
      "type": "function"
    },
    {
      "inputs": [
        {
          "internalType": "address",
          "name": "newOwner",
          "type": "address"
        }
      ],
      "name": "transferOwnership",
      "outputs": [],
      "stateMutability": "nonpayable",
      "type": "function"
    }
  ],
  "transactionHash": "0x89f9e10beb04f3d7c8b00b48964595924b5ef2913ad3379f25e7e04ce7c3eafe",
  "args": [],
  "solcInputHash": "f01f1aa2e2627a9f136b14161ee52bf0",
  "bytecode": "0x608060405234801561001057600080fd5b50600080546001600160a01b031916339081178255604051909182917f8be0079c531659141344cd1fd0a4f28419497f9722a3daafe3b4186f6b6457e0908290a3506132fb806100616000396000f3fe608060405260043610620001065760003560e01c806382a621371162000095578063db9b71701162000060578063db9b717014620002e3578063ea0478781462000308578063f2fde38b146200032f578063fbcbc0f1146200035457600080fd5b806382a6213714620002575780638da5cb5b146200027c578063c45a0155146200029c578063c8e40fbf14620002be57600080fd5b806323b1cde411620000d657806323b1cde414620001c15780635bb4780814620001e65780635d0341ba146200020b578063715018a6146200023f57600080fd5b80627a6870146200010b5780630ab5555d1462000145578063114c63b1146200016c578063130cb5f0146200019c575b600080fd5b3480156200011857600080fd5b50620001306200012a36600462000ce9565b62000391565b60405190151581526020015b60405180910390f35b3480156200015257600080fd5b506200016a6200016436600462000d0e565b62000593565b005b620001836200017d36600462000d28565b620005c5565b6040516001600160a01b0390911681526020016200013c565b348015620001a957600080fd5b506200016a620001bb36600462000ce9565b6200073f565b348015620001ce57600080fd5b506200016a620001e036600462000ce9565b6200084b565b348015620001f357600080fd5b506200016a6200020536600462000ce9565b620008ce565b3480156200021857600080fd5b50620001306200022a36600462000ce9565b60056020526000908152604090205460ff1681565b3480156200024c57600080fd5b506200016a62000951565b3480156200026457600080fd5b506200016a6200027636600462000ce9565b620009c8565b3480156200028957600080fd5b506000546001600160a01b031662000183565b348015620002a957600080fd5b5060045462000183906001600160a01b031681565b348015620002cb57600080fd5b5062000130620002dd36600462000ce9565b62000b16565b348015620002f057600080fd5b506200016a6200030236600462000d69565b62000b36565b3480156200031557600080fd5b506200032060015481565b6040519081526020016200013c565b3480156200033c57600080fd5b506200016a6200034e36600462000ce9565b62000bcf565b3480156200036157600080fd5b50620001836200037336600462000ce9565b6001600160a01b039081166000908152600660205260409020541690565b60003360408051808201909152600e81526d155cd95c881b9bdd08195e1a5cdd60921b602082015260019081620003c88462000b16565b1515148190620003f65760405162461bcd60e51b8152600401620003ed919062000da5565b60405180910390fd5b506001600160a01b03851660009081526005602052604090205460ff1662000431576040516309e58bbb60e11b815260040160405180910390fd5b336000908152600660205260409020546004546001600160a01b039182169116158015906200047357506004546001600160a01b0316336001600160a01b0316145b620004aa5760405162461bcd60e51b815260206004820152600660248201526511195b9a595960d21b6044820152606401620003ed565b60405163210e5cc360e01b81526001600160a01b03878116600483015282169063210e5cc390602401602060405180830381600087803b158015620004ee57600080fd5b505af115801562000503573d6000803e3d6000fd5b505050506040513d601f19601f8201168201806040525081019062000529919062000dfd565b6200054757604051635c14cfc160e01b815260040160405180910390fd5b856001600160a01b0316816001600160a01b03167f0ac4cd64fc5d91a1e366e0e3cf86367beacd1f38a5e84ffb3d7f38a30cedbd1160405160405180910390a350600195945050505050565b6000546001600160a01b03163314620005c05760405162461bcd60e51b8152600401620003ed9062000e1d565b600255565b60008160006040518060400160405280600a815260200169155cd95c88195e1a5cdd60b21b815250811515620005fb8462000b16565b1515148190620006205760405162461bcd60e51b8152600401620003ed919062000da5565b5060025434101580156200063e57506003546001600160a01b031615155b620006705760405162461bcd60e51b81526020600482015260016024820152603360f81b6044820152606401620003ed565b60018054906000620006828362000e52565b9091555050600480546001600160a01b031916905585856000604051620006a99062000cbe565b6001600160a01b039283168152911660208201526040016040518091039082f0905080158015620006de573d6000803e3d6000fd5b503360008181526006602052604080822080546001600160a01b0319166001600160a01b038616908117909155905193975091927fe8bf1e0ef1ab9c3d09fb583f540d3b3cfe39aa64d6535a188279d251135440ce9190a350505092915050565b6000546001600160a01b031633146200076c5760405162461bcd60e51b8152600401620003ed9062000e1d565b80600160405180604001604052806013815260200172155cd95c881a5cc819195858dd1a5d985d1959606a1b815250811515620007a98462000b16565b1515148190620007ce5760405162461bcd60e51b8152600401620003ed919062000da5565b505050506001600160a01b0390811660008181526006602081815260408084208151808301835281548089168252600183018054808b168488019081528651808801909752518b16865292518a16858701908152989097529490935290516001600160a01b03199384169087161790559251921691909216179055565b6000546001600160a01b03163314620008785760405162461bcd60e51b8152600401620003ed9062000e1d565b6001600160a01b038116620008ac57604051633202e20d60e21b81526001600160a01b0382166004820152602401620003ed565b600380546001600160a01b0319166001600160a01b0392909216919091179055565b6000546001600160a01b03163314620008fb5760405162461bcd60e51b8152600401620003ed9062000e1d565b6001600160a01b0381166200092f57604051633202e20d60e21b81526001600160a01b0382166004820152602401620003ed565b600480546001600160a01b0319166001600160a01b0392909216919091179055565b6000546001600160a01b031633146200097e5760405162461bcd60e51b8152600401620003ed9062000e1d565b600080546040516001600160a01b03909116907f8be0079c531659141344cd1fd0a4f28419497f9722a3daafe3b4186f6b6457e0908390a3600080546001600160a01b0319169055565b6000546001600160a01b03163314620009f55760405162461bcd60e51b8152600401620003ed9062000e1d565b80600060405180604001604052806013815260200172155cd95c881a5cc819195858dd1a5d985d1959606a1b81525081151562000a328462000b16565b151514819062000a575760405162461bcd60e51b8152600401620003ed919062000da5565b506001600160a01b038085166000908152600660209081526040918290208251808401909352805484168352600101549092169181018290529062000aaf5760405163c71420dd60e01b815260040160405180910390fd5b6040805180820182526020838101516001600160a01b039081168352935184168183019081529784166000908152600690915291909120905181546001600160a01b0319908116918416919091178255955160019091018054909616911617909355505050565b6001600160a01b0390811660009081526006602052604090205416151590565b6000546001600160a01b0316331462000b635760405162461bcd60e51b8152600401620003ed9062000e1d565b6001600160a01b03821660009081526005602052604090205460ff161515811515141562000ba457604051630205ce4b60e11b815260040160405180910390fd5b6001600160a01b03919091166000908152600560205260409020805460ff1916911515919091179055565b6000546001600160a01b0316331462000bfc5760405162461bcd60e51b8152600401620003ed9062000e1d565b6001600160a01b03811662000c635760405162461bcd60e51b815260206004820152602660248201527f4f776e61626c653a206e6577206f776e657220697320746865207a65726f206160448201526564647265737360d01b6064820152608401620003ed565b600080546040516001600160a01b03808516939216917f8be0079c531659141344cd1fd0a4f28419497f9722a3daafe3b4186f6b6457e091a3600080546001600160a01b0319166001600160a01b0392909216919091179055565b6124498062000e7d83390190565b80356001600160a01b038116811462000ce457600080fd5b919050565b60006020828403121562000cfc57600080fd5b62000d078262000ccc565b9392505050565b60006020828403121562000d2157600080fd5b5035919050565b6000806040838503121562000d3c57600080fd5b8235915062000d4e6020840162000ccc565b90509250929050565b801515811462000d6657600080fd5b50565b6000806040838503121562000d7d57600080fd5b62000d888362000ccc565b9150602083013562000d9a8162000d57565b809150509250929050565b600060208083528351808285015260005b8181101562000dd45785810183015185820160400152820162000db6565b8181111562000de7576000604083870101525b50601f01601f1916929092016040019392505050565b60006020828403121562000e1057600080fd5b815162000d078162000d57565b6020808252818101527f4f776e61626c653a2063616c6c6572206973206e6f7420746865206f776e6572604082015260600190565b600060001982141562000e7557634e487b7160e01b600052601160045260246000fd5b506001019056fe608060405260405162002449380380620024498339810160408190526200002691620001e8565b600080546001600160a01b0319163390811782556040519091829160008051602062002429833981519152908290a35060018055600280546001600160a01b0319166001600160a01b0383161790556006805460ff19169055620000873390565b600380546001600160a01b0319166001600160a01b0392909216919091179055620000b282620000ba565b505062000220565b6000546001600160a01b031633146200011a5760405162461bcd60e51b815260206004820181905260248201527f4f776e61626c653a2063616c6c6572206973206e6f7420746865206f776e657260448201526064015b60405180910390fd5b6001600160a01b038116620001815760405162461bcd60e51b815260206004820152602660248201527f4f776e61626c653a206e6577206f776e657220697320746865207a65726f206160448201526564647265737360d01b606482015260840162000111565b600080546040516001600160a01b03808516939216916000805160206200242983398151915291a3600080546001600160a01b0319166001600160a01b0392909216919091179055565b80516001600160a01b0381168114620001e357600080fd5b919050565b60008060408385031215620001fc57600080fd5b6200020783620001cb565b91506200021760208401620001cb565b90509250929050565b6121f980620002306000396000f3fe60806040526004361061012e5760003560e01c80638da5cb5b116100ab578063c25003331161006f578063c250033314610431578063c61df33014610451578063c705c60e14610471578063e9f2a3fc146104a9578063f2fde38b146104c9578063fd9e2c75146104e957600080fd5b80638da5cb5b14610386578063a0092887146103a4578063a609d7ae146103c4578063a85337d9146103e4578063a8d2fb9d1461041157600080fd5b806336b0de75116100f257806336b0de7514610231578063481c6a75146102e95780634ceb685b14610321578063715018a6146103415780637f4401031461035657600080fd5b8063095ea7b3146101515780632039d9fd14610173578063210e5cc3146101a857806321ab889d146101c85780633345906f146101f657600080fd5b3661014c57604051638403121960e01b815260040160405180910390fd5b600080fd5b34801561015d57600080fd5b5061017161016c366004611b56565b610509565b005b34801561017f57600080fd5b5061019361018e366004611b56565b61076f565b60405190151581526020015b60405180910390f35b3480156101b457600080fd5b506101936101c3366004611b80565b6109e2565b3480156101d457600080fd5b506101e86101e3366004611b80565b610cdb565b60405190815260200161019f565b34801561020257600080fd5b50610216610211366004611b80565b610daf565b6040805193845260208401929092529082015260600161019f565b34801561023d57600080fd5b5061029f61024c366004611b9b565b6009602052600090815260409020805460018201546002830154600384015460048501546005860154600690960154949593949293919290919060ff808216916101008104821691620100009091041689565b60408051998a5260208a0198909852968801959095526060870193909352608086019190915260a0850152151560c0840152151560e083015215156101008201526101200161019f565b3480156102f557600080fd5b50600354610309906001600160a01b031681565b6040516001600160a01b03909116815260200161019f565b34801561032d57600080fd5b5061019361033c366004611b9b565b610e6b565b34801561034d57600080fd5b50610171610f06565b34801561036257600080fd5b50610193610371366004611b80565b60086020526000908152604090205460ff1681565b34801561039257600080fd5b506000546001600160a01b0316610309565b3480156103b057600080fd5b506101936103bf366004611bd0565b610f7a565b3480156103d057600080fd5b506101936103df366004611c81565b610fdd565b3480156103f057600080fd5b506104046103ff366004611b9b565b6110ad565b60405161019f9190611d6d565b34801561041d57600080fd5b5061019361042c366004611de0565b61118a565b34801561043d57600080fd5b5061019361044c366004611e35565b611200565b34801561045d57600080fd5b5061019361046c366004611e6c565b61125c565b34801561047d57600080fd5b506101e861048c366004611f69565b600a60209081526000928352604080842090915290825290205481565b3480156104b557600080fd5b506101716104c4366004611b56565b611338565b3480156104d557600080fd5b506101716104e4366004611b80565b611511565b3480156104f557600080fd5b50610193610504366004611b9b565b6115fb565b60065460ff161561052d57604051633aa1999960e11b815260040160405180910390fd5b6000546001600160a01b031633146105605760405162461bcd60e51b815260040161055790611fa4565b60405180910390fd5b816001600160a01b03811661059357604051633202e20d60e21b81526001600160a01b0382166004820152602401610557565b6002546001600160a01b0316604051631c58dc8760e31b81526001600160a01b038381166004830152919091169063e2c6e4389060240160206040518083038186803b1580156105e257600080fd5b505afa1580156105f6573d6000803e3d6000fd5b505050506040513d601f19601f8201168201806040525081019061061a9190611fd9565b6106425760405163ee84f40b60e01b81526001600160a01b0382166004820152602401610557565b6001600160a01b03811660009081526008602052604090205460ff166106c8576001600160a01b0381166000818152600860205260408120805460ff191660019081179091556007805491820181559091527fa66cc928b5edb82af9bd49922954155ab7b0942694bea4ce44661d9a8736c6880180546001600160a01b03191690911790555b826001600160a01b031663095ea7b36106e96002546001600160a01b031690565b6040516001600160e01b031960e084901b1681526001600160a01b03909116600482015260248101859052604401602060405180830381600087803b15801561073157600080fd5b505af1158015610745573d6000803e3d6000fd5b505050506040513d601f19601f820116820180604052508101906107699190611fd9565b50505050565b60065460009060ff161561079657604051633aa1999960e11b815260040160405180910390fd5b826001600160a01b0381166107c957604051633202e20d60e21b81526001600160a01b0382166004820152602401610557565b6002546001600160a01b0316604051631c58dc8760e31b81526001600160a01b038381166004830152919091169063e2c6e4389060240160206040518083038186803b15801561081857600080fd5b505afa15801561082c573d6000803e3d6000fd5b505050506040513d601f19601f820116820180604052508101906108509190611fd9565b6108785760405163ee84f40b60e01b81526001600160a01b0382166004820152602401610557565b6001600160a01b03811660009081526008602052604090205460ff166108fe576001600160a01b0381166000818152600860205260408120805460ff191660019081179091556007805491820181559091527fa66cc928b5edb82af9bd49922954155ab7b0942694bea4ce44661d9a8736c6880180546001600160a01b03191690911790555b6109cd6040518060400160405280600f81526020016e151c985b9cd9995c8811985a5b1959608a1b815250856001600160a01b03166323b872dd61093f3390565b6040516001600160e01b031960e084901b1681526001600160a01b03909116600482015230602482015260448101889052606401602060405180830381600087803b15801561098d57600080fd5b505af11580156109a1573d6000803e3d6000fd5b505050506040513d601f19601f820116820180604052508101906109c59190611fd9565b151590611648565b6109d8846000611667565b5060019392505050565b6003546000906001600160a01b0316336001600160a01b031614610a2d5760405162461bcd60e51b81526020600482015260026024820152614e4160f01b6044820152606401610557565b60006007805480602002602001604051908101604052809291908181526020018280548015610a8557602002820191906000526020600020905b81546001600160a01b03168152600190910190602001808311610a67575b5050505050905060005b8151811015610c0657600060078281548110610aad57610aad611ff6565b60009182526020822001546040516370a0823160e01b81523060048201526001600160a01b03909116925082906370a082319060240160206040518083038186803b158015610afb57600080fd5b505afa158015610b0f573d6000803e3d6000fd5b505050506040513d601f19601f82011682018060405250810190610b33919061200c565b90508015610bf15760405163a9059cbb60e01b81526001600160a01b0387811660048301526024820183905283169063a9059cbb90604401602060405180830381600087803b158015610b8557600080fd5b505af1158015610b99573d6000803e3d6000fd5b505050506040513d601f19601f82011682018060405250810190610bbd9190611fd9565b610bf15760405162461bcd60e51b815260206004820152600560248201526422b93937b960d91b6044820152606401610557565b50508080610bfe9061203b565b915050610a8f565b50604080518082018252601881527f61636365707428616464726573735b5d206d656d6f727929000000000000000060209091015251610caa9084907f67e0289767f288adf8004722ee10bd660cb7a1ce232b9dc197803e757b625b0490610c72908590602401612056565b60408051601f198184030181529190526020810180516001600160e01b03166001600160e01b03199093169290921790915247611792565b50600354610cc0906001600160a01b0316611511565b610cd26006805460ff19166001179055565b50600192915050565b6001600160a01b03811660009081526008602052604081205460ff16610d325760405162461bcd60e51b815260206004820152600c60248201526b139bdd14dd5c1c1bdc9d195960a21b6044820152606401610557565b6040516370a0823160e01b81523060048201526001600160a01b038316906370a082319060240160206040518083038186803b158015610d7157600080fd5b505afa158015610d85573d6000803e3d6000fd5b505050506040513d601f19601f82011682018060405250810190610da9919061200c565b92915050565b6001600160a01b0381166000818152600a60209081526040808320838052909152808220546001835290822054909290919015610dec5747610e63565b6040516370a0823160e01b81523060048201526001600160a01b038516906370a082319060240160206040518083038186803b158015610e2b57600080fd5b505afa158015610e3f573d6000803e3d6000fd5b505050506040513d601f19601f82011682018060405250810190610e63919061200c565b929491935050565b60065460009060ff1615610e9257604051633aa1999960e11b815260040160405180910390fd5b6002546001600160a01b03163314610ebc5760405162461bcd60e51b8152600401610557906120b9565b50600081815260096020526040812081815560018082018390556002820183905560038201839055600482018390556005820192909255600601805462ffffff191690555b919050565b6000546001600160a01b03163314610f305760405162461bcd60e51b815260040161055790611fa4565b600080546040516001600160a01b03909116907f8be0079c531659141344cd1fd0a4f28419497f9722a3daafe3b4186f6b6457e0908390a3600080546001600160a01b0319169055565b60065460009060ff1615610fa157604051633aa1999960e11b815260040160405180910390fd5b6002546001600160a01b03163314610fcb5760405162461bcd60e51b8152600401610557906120b9565b6109d88484846117c0565b9392505050565b60065460009060ff161561100457604051633aa1999960e11b815260040160405180910390fd5b6002546001600160a01b0316331461102e5760405162461bcd60e51b8152600401610557906120b9565b61103a87600080611825565b8160005b865181101561108b5761105185836120f0565b91506110798888838151811061106957611069611ff6565b602002602001015187600061185b565b806110838161203b565b91505061103e565b50801561109f5761109f878686600061185b565b506001979650505050505050565b6111026040518061012001604052806000815260200160008152602001600081526020016000815260200160008152602001600081526020016000151581526020016000151581526020016000151581525090565b50600090815260096020908152604091829020825161012081018452815481526001820154928101929092526002810154928201929092526003820154606082015260048201546080820152600582015460a082015260069091015460ff808216151560c08401526101008083048216151560e0850152620100009092041615159082015290565b60065460009060ff16156111b157604051633aa1999960e11b815260040160405180910390fd5b6002546001600160a01b031633146111db5760405162461bcd60e51b8152600401610557906120b9565b6111e78686858561185b565b6111f4868584600061185b565b50600195945050505050565b60065460009060ff161561122757604051633aa1999960e11b815260040160405180910390fd5b6002546001600160a01b031633146112515760405162461bcd60e51b8152600401610557906120b9565b6109d8848484611825565b60065460009060ff161561128357604051633aa1999960e11b815260040160405180910390fd5b6000858152600960209081526040918290208a518155908a01516001820155908901516002820155606089015160038201556080890151600482015560a0890151600582015560c08901516006909101805460e08b0151610100808d015161ffff1990931694151561ff001916949094179015159093029290921762ff000019166201000092151592909202919091179055861561132b576113268385886117c0565b61109f565b61109f838386600061185b565b6000546001600160a01b031633146113625760405162461bcd60e51b815260040161055790611fa4565b60065460ff161561138657604051633aa1999960e11b815260040160405180910390fd5b816001600160a01b0381166113b957604051633202e20d60e21b81526001600160a01b0382166004820152602401610557565b6002546001600160a01b0316604051631c58dc8760e31b81526001600160a01b038381166004830152919091169063e2c6e4389060240160206040518083038186803b15801561140857600080fd5b505afa15801561141c573d6000803e3d6000fd5b505050506040513d601f19601f820116820180604052508101906114409190611fd9565b6114685760405163ee84f40b60e01b81526001600160a01b0382166004820152602401610557565b6001600160a01b03811660009081526008602052604090205460ff166114ee576001600160a01b0381166000818152600860205260408120805460ff191660019081179091556007805491820181559091527fa66cc928b5edb82af9bd49922954155ab7b0942694bea4ce44661d9a8736c6880180546001600160a01b03191690911790555b61150c836115046000546001600160a01b031690565b84600061185b565b505050565b6000546001600160a01b0316331461153b5760405162461bcd60e51b815260040161055790611fa4565b6001600160a01b0381166115a05760405162461bcd60e51b815260206004820152602660248201527f4f776e61626c653a206e6577206f776e657220697320746865207a65726f206160448201526564647265737360d01b6064820152608401610557565b600080546040516001600160a01b03808516939216917f8be0079c531659141344cd1fd0a4f28419497f9722a3daafe3b4186f6b6457e091a3600080546001600160a01b0319166001600160a01b0392909216919091179055565b60065460009060ff161561162257604051633aa1999960e11b815260040160405180910390fd5b61162e42610e10612107565b600083815260096020526040902060020155506001919050565b808261150c5760405162461bcd60e51b8152600401610557919061214b565b6001600160a01b0382166000818152600a602090815260408083206001845290915290205490301461170f576040516370a0823160e01b81523060048201526001600160a01b038416906370a082319060240160206040518083038186803b1580156116d257600080fd5b505afa1580156116e6573d6000803e3d6000fd5b505050506040513d601f19601f8201168201806040525081019061170a919061200c565b611711565b475b6001600160a01b0384166000908152600a6020908152604080832083805290915290205561173f8282612107565b6001600160a01b0384166000908152600a6020526040812090805b600181111561176b5761176b6120a3565b8152602001908152602001600020600082825461178891906120f0565b9091555050505050565b60606117b884848460405180606001604052806029815260200161219b602991396119de565b949350505050565b80611804576001600160a01b0383166000908152600a6020908152604080832060018452909152812080548492906117f9908490612107565b925050819055610769565b6001600160a01b0383166000908152600a602052604081208391600161175a565b60009283526009602052604090922060060180549215156101000261ff00199215159290921661ffff1990931692909217179055565b600260015414156118ae5760405162461bcd60e51b815260206004820152601f60248201527f5265656e7472616e637947756172643a207265656e7472616e742063616c6c006044820152606401610557565b60026001558382826001600160a01b0383166118e857604051633202e20d60e21b81526001600160a01b0384166004820152602401610557565b6118f28382611667565b6001600160a01b0383166000908152600a602090815260408083208380529091529020548083111561194157604051634d8780ed60e11b81526004810182905260248101849052604401610557565b60405163a9059cbb60e01b81526001600160a01b0388811660048301526024820188905289169063a9059cbb90604401602060405180830381600087803b15801561198b57600080fd5b505af115801561199f573d6000803e3d6000fd5b505050506040513d601f19601f820116820180604052508101906119c39190611fd9565b506119d0888760016117c0565b505060018055505050505050565b606082471015611a3f5760405162461bcd60e51b815260206004820152602660248201527f416464726573733a20696e73756666696369656e742062616c616e636520666f6044820152651c8818d85b1b60d21b6064820152608401610557565b843b611a8d5760405162461bcd60e51b815260206004820152601d60248201527f416464726573733a2063616c6c20746f206e6f6e2d636f6e74726163740000006044820152606401610557565b600080866001600160a01b03168587604051611aa9919061217e565b60006040518083038185875af1925050503d8060008114611ae6576040519150601f19603f3d011682016040523d82523d6000602084013e611aeb565b606091505b5091509150611afb828286611b06565b979650505050505050565b60608315611b15575081610fd6565b825115611b255782518084602001fd5b8160405162461bcd60e51b8152600401610557919061214b565b80356001600160a01b0381168114610f0157600080fd5b60008060408385031215611b6957600080fd5b611b7283611b3f565b946020939093013593505050565b600060208284031215611b9257600080fd5b610fd682611b3f565b600060208284031215611bad57600080fd5b5035919050565b8015158114611bc257600080fd5b50565b8035610f0181611bb4565b600080600060608486031215611be557600080fd5b611bee84611b3f565b9250602084013591506040840135611c0581611bb4565b809150509250925092565b634e487b7160e01b600052604160045260246000fd5b604051610120810167ffffffffffffffff81118282101715611c4a57611c4a611c10565b60405290565b604051601f8201601f1916810167ffffffffffffffff81118282101715611c7957611c79611c10565b604052919050565b60008060008060008060c08789031215611c9a57600080fd5b863595506020611cab818901611b3f565b9550604088013567ffffffffffffffff80821115611cc857600080fd5b818a0191508a601f830112611cdc57600080fd5b813581811115611cee57611cee611c10565b8060051b9150611cff848301611c50565b818152918301840191848101908d841115611d1957600080fd5b938501935b83851015611d3e57611d2f85611b3f565b82529385019390850190611d1e565b809950505050505050611d5360608801611b3f565b92506080870135915060a087013590509295509295509295565b600061012082019050825182526020830151602083015260408301516040830152606083015160608301526080830151608083015260a083015160a083015260c0830151151560c083015260e0830151151560e083015261010080840151611dd88285018215159052565b505092915050565b600080600080600060a08688031215611df857600080fd5b611e0186611b3f565b9450611e0f60208701611b3f565b9350611e1d60408701611b3f565b94979396509394606081013594506080013592915050565b600080600060608486031215611e4a57600080fd5b833592506020840135611e5c81611bb4565b91506040840135611c0581611bb4565b60008060008060008060008789036101e0811215611e8957600080fd5b61012080821215611e9957600080fd5b611ea1611c26565b91508935825260208a0135602083015260408a0135604083015260608a0135606083015260808a0135608083015260a08a013560a0830152611ee560c08b01611bc5565b60c0830152611ef660e08b01611bc5565b60e0830152610100611f09818c01611bc5565b8184015250819850611f1c818b01611bc5565b97505050611f2d6101408901611bc5565b945061016088013593506101808801359250611f4c6101a08901611b3f565b9150611f5b6101c08901611b3f565b905092959891949750929550565b60008060408385031215611f7c57600080fd5b611f8583611b3f565b9150602083013560028110611f9957600080fd5b809150509250929050565b6020808252818101527f4f776e61626c653a2063616c6c6572206973206e6f7420746865206f776e6572604082015260600190565b600060208284031215611feb57600080fd5b8151610fd681611bb4565b634e487b7160e01b600052603260045260246000fd5b60006020828403121561201e57600080fd5b5051919050565b634e487b7160e01b600052601160045260246000fd5b600060001982141561204f5761204f612025565b5060010190565b6020808252825182820181905260009190848201906040850190845b818110156120975783516001600160a01b031683529284019291840191600101612072565b50909695505050505050565b634e487b7160e01b600052602160045260246000fd5b60208082526017908201527f4163636f756e742e736f6c3a204f6e6c79526f75746572000000000000000000604082015260600190565b60008282101561210257612102612025565b500390565b6000821982111561211a5761211a612025565b500190565b60005b8381101561213a578181015183820152602001612122565b838111156107695750506000910152565b602081526000825180602084015261216a81604085016020870161211f565b601f01601f19169190910160400192915050565b6000825161219081846020870161211f565b919091019291505056fe416464726573733a206c6f772d6c6576656c2063616c6c20776974682076616c7565206661696c6564a2646970667358221220e9b1f3cc5e89a6bc0ce818079af80896e1e0b46b75f77d2c166e6c041ed59ac564736f6c634300080900338be0079c531659141344cd1fd0a4f28419497f9722a3daafe3b4186f6b6457e0a2646970667358221220f53242281c74b344c5927dd6163b511805f5271f38e23d215644a7b751d684d864736f6c63430008090033",
  "devdoc": {
    "kind": "dev",
    "methods": {
      "activateAccount(address)": {
        "details": "Aactivate account for 'target'"
      },
      "createAccount(uint256,address)": {
        "details": "Launches new INTERACTIVE account for 'who'. If fee is applied, msg.value must meet minimum creationFee otherwise, creation fail. Owner can prefund account at construction if they wish do so. They only have to increase the msgValue above minimum accountCreationFee."
      },
      "deactivateAccount(address)": {
        "details": "Deactivate account for 'target'"
      },
      "hasAccount(address)": {
        "details": "Return true if \"who's\" account status is not empty otherwise false."
      },
      "owner()": {
        "details": "Returns the address of the current owner."
      },
      "rekeyAccount(address)": {
        "details": "Upgrade to a new account.",
        "params": {
          "newAccount": ": New account to upgrade to. Note : newAccount must be approved prior to this call"
        }
      },
      "renounceOwnership()": {
        "details": "Leaves the contract without owner. It will not be possible to call `onlyOwner` functions anymore. Can only be called by the current owner. NOTE: Renouncing ownership will leave the contract without an owner, thereby removing any functionality that is only available to the owner."
      },
      "setApproval(address,bool)": {
        "details": "Approves new account for upgrade Note : Same utility can also disapprove"
      },
      "transferOwnership(address)": {
        "details": "Transfers ownership of the contract to a new account (`newOwner`). Can only be called by the current owner."
      }
    },
    "stateVariables": {
      "accounts": {
        "details": "Users mapped to records"
      }
    },
    "title": "AccountManager: standalone contract that manages account creation,  deletion, including read and write data. Author: Bobeu Github: https://github.com/bobeu",
    "version": 1
  },
  "userdoc": {
    "kind": "user",
    "methods": {},
    "version": 1
  },
  "storageLayout": {
    "storage": [
      {
        "astId": 12785,
        "contract": "contracts/digesu/account/AccountManager.sol:AccountManager",
        "label": "_owner",
        "offset": 0,
        "slot": "0",
        "type": "t_address"
      },
      {
        "astId": 10738,
        "contract": "contracts/digesu/account/AccountManager.sol:AccountManager",
        "label": "accountsCounter",
        "offset": 0,
        "slot": "1",
        "type": "t_uint256"
      },
      {
        "astId": 10740,
        "contract": "contracts/digesu/account/AccountManager.sol:AccountManager",
        "label": "accountCreationFee",
        "offset": 0,
        "slot": "2",
        "type": "t_uint256"
      },
      {
        "astId": 10742,
        "contract": "contracts/digesu/account/AccountManager.sol:AccountManager",
        "label": "feeTo",
        "offset": 0,
        "slot": "3",
        "type": "t_address"
      },
      {
        "astId": 10744,
        "contract": "contracts/digesu/account/AccountManager.sol:AccountManager",
        "label": "factory",
        "offset": 0,
        "slot": "4",
        "type": "t_address"
      },
      {
        "astId": 10748,
        "contract": "contracts/digesu/account/AccountManager.sol:AccountManager",
        "label": "approvals",
        "offset": 0,
        "slot": "5",
        "type": "t_mapping(t_address,t_bool)"
      },
      {
        "astId": 10754,
        "contract": "contracts/digesu/account/AccountManager.sol:AccountManager",
        "label": "accounts",
        "offset": 0,
        "slot": "6",
        "type": "t_mapping(t_address,t_struct(Accounts)11618_storage)"
      }
    ],
    "types": {
      "t_address": {
        "encoding": "inplace",
        "label": "address",
        "numberOfBytes": "20"
      },
      "t_bool": {
        "encoding": "inplace",
        "label": "bool",
        "numberOfBytes": "1"
      },
      "t_mapping(t_address,t_bool)": {
        "encoding": "mapping",
        "key": "t_address",
        "label": "mapping(address => bool)",
        "numberOfBytes": "32",
        "value": "t_bool"
      },
      "t_mapping(t_address,t_struct(Accounts)11618_storage)": {
        "encoding": "mapping",
        "key": "t_address",
        "label": "mapping(address => struct ICommon.Accounts)",
        "numberOfBytes": "32",
        "value": "t_struct(Accounts)11618_storage"
      },
      "t_struct(Accounts)11618_storage": {
        "encoding": "inplace",
        "label": "struct ICommon.Accounts",
        "members": [
          {
            "astId": 11615,
            "contract": "contracts/digesu/account/AccountManager.sol:AccountManager",
            "label": "active",
            "offset": 0,
            "slot": "0",
            "type": "t_address"
          },
          {
            "astId": 11617,
            "contract": "contracts/digesu/account/AccountManager.sol:AccountManager",
            "label": "deactivated",
            "offset": 0,
            "slot": "1",
            "type": "t_address"
          }
        ],
        "numberOfBytes": "64"
      },
      "t_uint256": {
        "encoding": "inplace",
        "label": "uint256",
        "numberOfBytes": "32"
      }
    }
  }
}