{
  "contractName": "Marketplace",
  "abi": [
    {
      "inputs": [],
      "stateMutability": "nonpayable",
      "type": "constructor"
    },
    {
      "anonymous": false,
      "inputs": [
        {
          "indexed": false,
          "internalType": "address",
          "name": "nftContract",
          "type": "address"
        },
        {
          "indexed": false,
          "internalType": "uint256",
          "name": "tokenId",
          "type": "uint256"
        },
        {
          "indexed": false,
          "internalType": "address",
          "name": "seller",
          "type": "address"
        },
        {
          "indexed": false,
          "internalType": "address",
          "name": "owner",
          "type": "address"
        },
        {
          "indexed": false,
          "internalType": "uint256",
          "name": "price",
          "type": "uint256"
        },
        {
          "indexed": false,
          "internalType": "address",
          "name": "token",
          "type": "address"
        }
      ],
      "name": "NFTDelisted",
      "type": "event"
    },
    {
      "anonymous": false,
      "inputs": [
        {
          "indexed": false,
          "internalType": "address",
          "name": "nftContract",
          "type": "address"
        },
        {
          "indexed": false,
          "internalType": "uint256",
          "name": "tokenId",
          "type": "uint256"
        },
        {
          "indexed": false,
          "internalType": "address",
          "name": "seller",
          "type": "address"
        },
        {
          "indexed": false,
          "internalType": "address",
          "name": "owner",
          "type": "address"
        },
        {
          "indexed": false,
          "internalType": "uint256",
          "name": "price",
          "type": "uint256"
        },
        {
          "indexed": false,
          "internalType": "address",
          "name": "token",
          "type": "address"
        }
      ],
      "name": "NFTListed",
      "type": "event"
    },
    {
      "anonymous": false,
      "inputs": [
        {
          "indexed": false,
          "internalType": "address",
          "name": "nftContract",
          "type": "address"
        },
        {
          "indexed": false,
          "internalType": "uint256",
          "name": "tokenId",
          "type": "uint256"
        },
        {
          "indexed": false,
          "internalType": "address",
          "name": "seller",
          "type": "address"
        },
        {
          "indexed": false,
          "internalType": "address",
          "name": "owner",
          "type": "address"
        },
        {
          "indexed": false,
          "internalType": "uint256",
          "name": "price",
          "type": "uint256"
        },
        {
          "indexed": false,
          "internalType": "address",
          "name": "token",
          "type": "address"
        }
      ],
      "name": "NFTSold",
      "type": "event"
    },
    {
      "inputs": [],
      "name": "LISTING_FEE",
      "outputs": [
        {
          "internalType": "uint256",
          "name": "",
          "type": "uint256"
        }
      ],
      "stateMutability": "view",
      "type": "function"
    },
    {
      "inputs": [],
      "name": "VERSION",
      "outputs": [
        {
          "internalType": "uint256",
          "name": "",
          "type": "uint256"
        }
      ],
      "stateMutability": "view",
      "type": "function"
    },
    {
      "inputs": [
        {
          "internalType": "address",
          "name": "_nftContract",
          "type": "address"
        },
        {
          "internalType": "uint256",
          "name": "_tokenId",
          "type": "uint256"
        },
        {
          "internalType": "uint256",
          "name": "_price",
          "type": "uint256"
        },
        {
          "internalType": "address",
          "name": "_token",
          "type": "address"
        }
      ],
      "name": "listNft",
      "outputs": [],
      "stateMutability": "payable",
      "type": "function"
    },
    {
      "inputs": [
        {
          "internalType": "uint256",
          "name": "_nftIndex",
          "type": "uint256"
        }
      ],
      "name": "delistNft",
      "outputs": [],
      "stateMutability": "payable",
      "type": "function"
    },
    {
      "inputs": [
        {
          "internalType": "uint256",
          "name": "_nftIndex",
          "type": "uint256"
        }
      ],
      "name": "buyNft",
      "outputs": [],
      "stateMutability": "payable",
      "type": "function"
    },
    {
      "inputs": [
        {
          "internalType": "uint256",
          "name": "_nftIndex",
          "type": "uint256"
        },
        {
          "internalType": "uint256",
          "name": "_price",
          "type": "uint256"
        }
      ],
      "name": "resellNft",
      "outputs": [],
      "stateMutability": "payable",
      "type": "function"
    },
    {
      "inputs": [],
      "name": "getListingFee",
      "outputs": [
        {
          "internalType": "uint256",
          "name": "",
          "type": "uint256"
        }
      ],
      "stateMutability": "view",
      "type": "function"
    },
    {
      "inputs": [],
      "name": "getVersion",
      "outputs": [
        {
          "internalType": "uint256",
          "name": "",
          "type": "uint256"
        }
      ],
      "stateMutability": "pure",
      "type": "function"
    },
    {
      "inputs": [
        {
          "internalType": "address",
          "name": "_nftContract",
          "type": "address"
        },
        {
          "internalType": "uint256",
          "name": "_tokenId",
          "type": "uint256"
        }
      ],
      "name": "getNft",
      "outputs": [
        {
          "components": [
            {
              "internalType": "uint256",
              "name": "nftIndex",
              "type": "uint256"
            },
            {
              "internalType": "address",
              "name": "nftContract",
              "type": "address"
            },
            {
              "internalType": "uint256",
              "name": "tokenId",
              "type": "uint256"
            },
            {
              "internalType": "address payable",
              "name": "seller",
              "type": "address"
            },
            {
              "internalType": "address payable",
              "name": "owner",
              "type": "address"
            },
            {
              "internalType": "uint256",
              "name": "price",
              "type": "uint256"
            },
            {
              "internalType": "address",
              "name": "token",
              "type": "address"
            },
            {
              "internalType": "bool",
              "name": "listed",
              "type": "bool"
            }
          ],
          "internalType": "struct Marketplace.NFT",
          "name": "",
          "type": "tuple"
        }
      ],
      "stateMutability": "view",
      "type": "function"
    },
    {
      "inputs": [],
      "name": "getListedNfts",
      "outputs": [
        {
          "components": [
            {
              "internalType": "uint256",
              "name": "nftIndex",
              "type": "uint256"
            },
            {
              "internalType": "address",
              "name": "nftContract",
              "type": "address"
            },
            {
              "internalType": "uint256",
              "name": "tokenId",
              "type": "uint256"
            },
            {
              "internalType": "address payable",
              "name": "seller",
              "type": "address"
            },
            {
              "internalType": "address payable",
              "name": "owner",
              "type": "address"
            },
            {
              "internalType": "uint256",
              "name": "price",
              "type": "uint256"
            },
            {
              "internalType": "address",
              "name": "token",
              "type": "address"
            },
            {
              "internalType": "bool",
              "name": "listed",
              "type": "bool"
            }
          ],
          "internalType": "struct Marketplace.NFT[]",
          "name": "",
          "type": "tuple[]"
        }
      ],
      "stateMutability": "view",
      "type": "function"
    },
    {
      "inputs": [],
      "name": "getMyNfts",
      "outputs": [
        {
          "components": [
            {
              "internalType": "uint256",
              "name": "nftIndex",
              "type": "uint256"
            },
            {
              "internalType": "address",
              "name": "nftContract",
              "type": "address"
            },
            {
              "internalType": "uint256",
              "name": "tokenId",
              "type": "uint256"
            },
            {
              "internalType": "address payable",
              "name": "seller",
              "type": "address"
            },
            {
              "internalType": "address payable",
              "name": "owner",
              "type": "address"
            },
            {
              "internalType": "uint256",
              "name": "price",
              "type": "uint256"
            },
            {
              "internalType": "address",
              "name": "token",
              "type": "address"
            },
            {
              "internalType": "bool",
              "name": "listed",
              "type": "bool"
            }
          ],
          "internalType": "struct Marketplace.NFT[]",
          "name": "",
          "type": "tuple[]"
        }
      ],
      "stateMutability": "view",
      "type": "function"
    },
    {
      "inputs": [],
      "name": "getMyListedNfts",
      "outputs": [
        {
          "components": [
            {
              "internalType": "uint256",
              "name": "nftIndex",
              "type": "uint256"
            },
            {
              "internalType": "address",
              "name": "nftContract",
              "type": "address"
            },
            {
              "internalType": "uint256",
              "name": "tokenId",
              "type": "uint256"
            },
            {
              "internalType": "address payable",
              "name": "seller",
              "type": "address"
            },
            {
              "internalType": "address payable",
              "name": "owner",
              "type": "address"
            },
            {
              "internalType": "uint256",
              "name": "price",
              "type": "uint256"
            },
            {
              "internalType": "address",
              "name": "token",
              "type": "address"
            },
            {
              "internalType": "bool",
              "name": "listed",
              "type": "bool"
            }
          ],
          "internalType": "struct Marketplace.NFT[]",
          "name": "",
          "type": "tuple[]"
        }
      ],
      "stateMutability": "view",
      "type": "function"
    }
  ],
  "bytecode": "0x6080604052655af3107a400060035534801561001a57600080fd5b50600160008190555033600460006101000a81548173ffffffffffffffffffffffffffffffffffffffff021916908373ffffffffffffffffffffffffffffffffffffffff1602179055506126a9806100736000396000f3fe6080604052600436106100a75760003560e01c80632b86ae38116100645780632b86ae38146101a25780634e791483146101cd5780638d6cb3fb146101e9578063b8fe6abe14610214578063dccd72251461023f578063ffa1ad741461025b576100a7565b8063047b07bf146100ac5780630d8e6e2c146100d75780631c6932b6146101025780631f4cc4db1461013f57806320d748e71461016a578063243adbdd14610186575b600080fd5b3480156100b857600080fd5b506100c1610286565b6040516100ce9190611e3e565b60405180910390f35b3480156100e357600080fd5b506100ec61061a565b6040516100f99190611e6f565b60405180910390f35b34801561010e57600080fd5b5061012960048036038101906101249190611ee7565b610627565b6040516101369190611fc9565b60405180910390f35b34801561014b57600080fd5b506101546108a4565b6040516101619190611e3e565b60405180910390f35b610184600480360381019061017f9190611fe5565b610caa565b005b6101a0600480360381019061019b9190612025565b610f7c565b005b3480156101ae57600080fd5b506101b76112e6565b6040516101c49190611e6f565b60405180910390f35b6101e760048036038101906101e29190612025565b6112ec565b005b3480156101f557600080fd5b506101fe6114ab565b60405161020b9190611e3e565b60405180910390f35b34801561022057600080fd5b50610229611774565b6040516102369190611e6f565b60405180910390f35b61025960048036038101906102549190612052565b61177e565b005b34801561026757600080fd5b50610270611b2e565b60405161027d9190611e6f565b60405180910390f35b606060006102946002611b37565b90506000805b82811015610339573373ffffffffffffffffffffffffffffffffffffffff16600560006001846102ca91906120e8565b815260200190815260200160002060040160009054906101000a900473ffffffffffffffffffffffffffffffffffffffff1673ffffffffffffffffffffffffffffffffffffffff16036103265781806103229061213e565b9250505b80806103319061213e565b91505061029a565b5060008167ffffffffffffffff81111561035657610355612186565b5b60405190808252806020026020018201604052801561038f57816020015b61037c611bb7565b8152602001906001900390816103745790505b5090506000805b8481101561060f573373ffffffffffffffffffffffffffffffffffffffff16600560006001846103c691906120e8565b815260200190815260200160002060040160009054906101000a900473ffffffffffffffffffffffffffffffffffffffff1673ffffffffffffffffffffffffffffffffffffffff16036105fc576005600060018361042491906120e8565b815260200190815260200160002060405180610100016040529081600082015481526020016001820160009054906101000a900473ffffffffffffffffffffffffffffffffffffffff1673ffffffffffffffffffffffffffffffffffffffff1673ffffffffffffffffffffffffffffffffffffffff168152602001600282015481526020016003820160009054906101000a900473ffffffffffffffffffffffffffffffffffffffff1673ffffffffffffffffffffffffffffffffffffffff1673ffffffffffffffffffffffffffffffffffffffff1681526020016004820160009054906101000a900473ffffffffffffffffffffffffffffffffffffffff1673ffffffffffffffffffffffffffffffffffffffff1673ffffffffffffffffffffffffffffffffffffffff168152602001600582015481526020016006820160009054906101000a900473ffffffffffffffffffffffffffffffffffffffff1673ffffffffffffffffffffffffffffffffffffffff1673ffffffffffffffffffffffffffffffffffffffff1681526020016006820160149054906101000a900460ff1615151515815250508383815181106105e2576105e16121b5565b5b602002602001018190525081806105f89061213e565b9250505b80806106079061213e565b915050610396565b508194505050505090565b60006404b5445aea905090565b61062f611bb7565b600061063b6002611b37565b905060005b818110156108625760006005600083815260200190815260200160002060405180610100016040529081600082015481526020016001820160009054906101000a900473ffffffffffffffffffffffffffffffffffffffff1673ffffffffffffffffffffffffffffffffffffffff1673ffffffffffffffffffffffffffffffffffffffff168152602001600282015481526020016003820160009054906101000a900473ffffffffffffffffffffffffffffffffffffffff1673ffffffffffffffffffffffffffffffffffffffff1673ffffffffffffffffffffffffffffffffffffffff1681526020016004820160009054906101000a900473ffffffffffffffffffffffffffffffffffffffff1673ffffffffffffffffffffffffffffffffffffffff1673ffffffffffffffffffffffffffffffffffffffff168152602001600582015481526020016006820160009054906101000a900473ffffffffffffffffffffffffffffffffffffffff1673ffffffffffffffffffffffffffffffffffffffff1673ffffffffffffffffffffffffffffffffffffffff1681526020016006820160149054906101000a900460ff16151515158152505090508573ffffffffffffffffffffffffffffffffffffffff16816020015173ffffffffffffffffffffffffffffffffffffffff1614801561083e5750848160400151145b1561084e5780935050505061089e565b50808061085a9061213e565b915050610640565b506040517f08c379a000000000000000000000000000000000000000000000000000000000815260040161089590612241565b60405180910390fd5b92915050565b606060006108b26002611b37565b90506000805b82811015610990573373ffffffffffffffffffffffffffffffffffffffff16600560006001846108e891906120e8565b815260200190815260200160002060030160009054906101000a900473ffffffffffffffffffffffffffffffffffffffff1673ffffffffffffffffffffffffffffffffffffffff1614801561096957506005600060018361094991906120e8565b815260200190815260200160002060060160149054906101000a900460ff165b1561097d5781806109799061213e565b9250505b80806109889061213e565b9150506108b8565b5060008167ffffffffffffffff8111156109ad576109ac612186565b5b6040519080825280602002602001820160405280156109e657816020015b6109d3611bb7565b8152602001906001900390816109cb5790505b5090506000805b84811015610c9f573373ffffffffffffffffffffffffffffffffffffffff1660056000600184610a1d91906120e8565b815260200190815260200160002060030160009054906101000a900473ffffffffffffffffffffffffffffffffffffffff1673ffffffffffffffffffffffffffffffffffffffff16148015610a9e575060056000600183610a7e91906120e8565b815260200190815260200160002060060160149054906101000a900460ff165b15610c8c5760056000600183610ab491906120e8565b815260200190815260200160002060405180610100016040529081600082015481526020016001820160009054906101000a900473ffffffffffffffffffffffffffffffffffffffff1673ffffffffffffffffffffffffffffffffffffffff1673ffffffffffffffffffffffffffffffffffffffff168152602001600282015481526020016003820160009054906101000a900473ffffffffffffffffffffffffffffffffffffffff1673ffffffffffffffffffffffffffffffffffffffff1673ffffffffffffffffffffffffffffffffffffffff1681526020016004820160009054906101000a900473ffffffffffffffffffffffffffffffffffffffff1673ffffffffffffffffffffffffffffffffffffffff1673ffffffffffffffffffffffffffffffffffffffff168152602001600582015481526020016006820160009054906101000a900473ffffffffffffffffffffffffffffffffffffffff1673ffffffffffffffffffffffffffffffffffffffff1673ffffffffffffffffffffffffffffffffffffffff1681526020016006820160149054906101000a900460ff161515151581525050838381518110610c7257610c716121b5565b5b60200260200101819052508180610c889061213e565b9250505b8080610c979061213e565b9150506109ed565b508194505050505090565b600260005403610cef576040517f08c379a0000000000000000000000000000000000000000000000000000000008152600401610ce6906122ad565b60405180910390fd5b600260008190555060008111610d3a576040517f08c379a0000000000000000000000000000000000000000000000000000000008152600401610d3190612319565b60405180910390fd5b6003543414610d7e576040517f08c379a0000000000000000000000000000000000000000000000000000000008152600401610d7590612385565b60405180910390fd5b60006005600084815260200190815260200160002090508060010160009054906101000a900473ffffffffffffffffffffffffffffffffffffffff1673ffffffffffffffffffffffffffffffffffffffff166323b872dd333084600201546040518463ffffffff1660e01b8152600401610dfa939291906123b4565b600060405180830381600087803b158015610e1457600080fd5b505af1158015610e28573d6000803e3d6000fd5b50505050338160030160006101000a81548173ffffffffffffffffffffffffffffffffffffffff021916908373ffffffffffffffffffffffffffffffffffffffff160217905550308160040160006101000a81548173ffffffffffffffffffffffffffffffffffffffff021916908373ffffffffffffffffffffffffffffffffffffffff16021790555060018160060160146101000a81548160ff021916908315150217905550818160050181905550610ee26001611b45565b7f5b698d210110effe8ea1346fce7e2193853181666e59582f76322fcb96c7c9878160010160009054906101000a900473ffffffffffffffffffffffffffffffffffffffff1682600201543330868660060160009054906101000a900473ffffffffffffffffffffffffffffffffffffffff16604051610f67969594939291906123eb565b60405180910390a15060016000819055505050565b600260005403610fc1576040517f08c379a0000000000000000000000000000000000000000000000000000000008152600401610fb8906122ad565b60405180910390fd5b60026000819055506000600560008381526020019081526020016000209050600033905060008260060160009054906101000a900473ffffffffffffffffffffffffffffffffffffffff1690508073ffffffffffffffffffffffffffffffffffffffff166323b872dd838560030160009054906101000a900473ffffffffffffffffffffffffffffffffffffffff1686600501546040518463ffffffff1660e01b8152600401611073939291906124ab565b6020604051808303816000875af1158015611092573d6000803e3d6000fd5b505050506040513d601f19601f820116820180604052508101906110b6919061250e565b508260010160009054906101000a900473ffffffffffffffffffffffffffffffffffffffff1673ffffffffffffffffffffffffffffffffffffffff166323b872dd308486600201546040518463ffffffff1660e01b815260040161111c9392919061253b565b600060405180830381600087803b15801561113657600080fd5b505af115801561114a573d6000803e3d6000fd5b50505050600460009054906101000a900473ffffffffffffffffffffffffffffffffffffffff1673ffffffffffffffffffffffffffffffffffffffff166108fc6003549081150290604051600060405180830381858888f193505050501580156111b8573d6000803e3d6000fd5b50818360040160006101000a81548173ffffffffffffffffffffffffffffffffffffffff021916908373ffffffffffffffffffffffffffffffffffffffff16021790555060008360060160146101000a81548160ff0219169083151502179055506112236001611ba1565b7fbcb5c1b34d5f70186a88f62baa4e7c60ee064ee8499a598ce9c71bd0ad0acefc8360010160009054906101000a900473ffffffffffffffffffffffffffffffffffffffff1684600201548560030160009054906101000a900473ffffffffffffffffffffffffffffffffffffffff168587600501548860060160009054906101000a900473ffffffffffffffffffffffffffffffffffffffff166040516112d096959493929190612572565b60405180910390a1505050600160008190555050565b60035481565b600260005403611331576040517f08c379a0000000000000000000000000000000000000000000000000000000008152600401611328906122ad565b60405180910390fd5b600260008190555060006005600083815260200190815260200160002090508060010160009054906101000a900473ffffffffffffffffffffffffffffffffffffffff1673ffffffffffffffffffffffffffffffffffffffff166323b872dd303384600201546040518463ffffffff1660e01b81526004016113b5939291906123b4565b600060405180830381600087803b1580156113cf57600080fd5b505af11580156113e3573d6000803e3d6000fd5b5050505060008160060160146101000a81548160ff02191690831515021790555061140e6001611ba1565b7f6d4e15ca689ef6a5acc7957813d47c76bfa7a3b21fdcc79d2a7323c243ce3b358160010160009054906101000a900473ffffffffffffffffffffffffffffffffffffffff168260020154303385600501548660060160009054906101000a900473ffffffffffffffffffffffffffffffffffffffff16604051611497969594939291906123eb565b60405180910390a150600160008190555050565b606060006114b96002611b37565b905060006114c76001611b37565b826114d291906125d3565b905060008167ffffffffffffffff8111156114f0576114ef612186565b5b60405190808252806020026020018201604052801561152957816020015b611516611bb7565b81526020019060019003908161150e5790505b5090506000805b84811015611769576005600060018361154991906120e8565b815260200190815260200160002060060160149054906101000a900460ff1615611756576005600060018361157e91906120e8565b815260200190815260200160002060405180610100016040529081600082015481526020016001820160009054906101000a900473ffffffffffffffffffffffffffffffffffffffff1673ffffffffffffffffffffffffffffffffffffffff1673ffffffffffffffffffffffffffffffffffffffff168152602001600282015481526020016003820160009054906101000a900473ffffffffffffffffffffffffffffffffffffffff1673ffffffffffffffffffffffffffffffffffffffff1673ffffffffffffffffffffffffffffffffffffffff1681526020016004820160009054906101000a900473ffffffffffffffffffffffffffffffffffffffff1673ffffffffffffffffffffffffffffffffffffffff1673ffffffffffffffffffffffffffffffffffffffff168152602001600582015481526020016006820160009054906101000a900473ffffffffffffffffffffffffffffffffffffffff1673ffffffffffffffffffffffffffffffffffffffff1673ffffffffffffffffffffffffffffffffffffffff1681526020016006820160149054906101000a900460ff16151515158152505083838151811061173c5761173b6121b5565b5b602002602001018190525081806117529061213e565b9250505b80806117619061213e565b915050611530565b508194505050505090565b6000600354905090565b6002600054036117c3576040517f08c379a00000000000000000000000000000000000000000000000000000000081526004016117ba906122ad565b60405180910390fd5b60026000819055506000821161180e576040517f08c379a000000000000000000000000000000000000000000000000000000000815260040161180590612319565b60405180910390fd5b6003543414611852576040517f08c379a000000000000000000000000000000000000000000000000000000000815260040161184990612385565b60405180910390fd5b8373ffffffffffffffffffffffffffffffffffffffff166323b872dd3330866040518463ffffffff1660e01b815260040161188f939291906123b4565b600060405180830381600087803b1580156118a957600080fd5b505af11580156118bd573d6000803e3d6000fd5b505050506118cb6002611ba1565b60006118d76002611b37565b90506040518061010001604052808281526020018673ffffffffffffffffffffffffffffffffffffffff1681526020018581526020013373ffffffffffffffffffffffffffffffffffffffff1681526020013073ffffffffffffffffffffffffffffffffffffffff1681526020018481526020018373ffffffffffffffffffffffffffffffffffffffff16815260200160011515815250600560008381526020019081526020016000206000820151816000015560208201518160010160006101000a81548173ffffffffffffffffffffffffffffffffffffffff021916908373ffffffffffffffffffffffffffffffffffffffff1602179055506040820151816002015560608201518160030160006101000a81548173ffffffffffffffffffffffffffffffffffffffff021916908373ffffffffffffffffffffffffffffffffffffffff16021790555060808201518160040160006101000a81548173ffffffffffffffffffffffffffffffffffffffff021916908373ffffffffffffffffffffffffffffffffffffffff16021790555060a0820151816005015560c08201518160060160006101000a81548173ffffffffffffffffffffffffffffffffffffffff021916908373ffffffffffffffffffffffffffffffffffffffff16021790555060e08201518160060160146101000a81548160ff0219169083151502179055509050507f5b698d210110effe8ea1346fce7e2193853181666e59582f76322fcb96c7c987858533308787604051611b17969594939291906123eb565b60405180910390a150600160008190555050505050565b6404b5445aea81565b600081600001549050919050565b60008160000154905060008111611b91576040517f08c379a0000000000000000000000000000000000000000000000000000000008152600401611b8890612653565b60405180910390fd5b6001810382600001819055505050565b6001816000016000828254019250508190555050565b60405180610100016040528060008152602001600073ffffffffffffffffffffffffffffffffffffffff16815260200160008152602001600073ffffffffffffffffffffffffffffffffffffffff168152602001600073ffffffffffffffffffffffffffffffffffffffff16815260200160008152602001600073ffffffffffffffffffffffffffffffffffffffff1681526020016000151581525090565b600081519050919050565b600082825260208201905092915050565b6000819050602082019050919050565b6000819050919050565b611c9581611c82565b82525050565b600073ffffffffffffffffffffffffffffffffffffffff82169050919050565b6000611cc682611c9b565b9050919050565b611cd681611cbb565b82525050565b6000611ce782611c9b565b9050919050565b611cf781611cdc565b82525050565b60008115159050919050565b611d1281611cfd565b82525050565b61010082016000820151611d2f6000850182611c8c565b506020820151611d426020850182611ccd565b506040820151611d556040850182611c8c565b506060820151611d686060850182611cee565b506080820151611d7b6080850182611cee565b5060a0820151611d8e60a0850182611c8c565b5060c0820151611da160c0850182611ccd565b5060e0820151611db460e0850182611d09565b50505050565b6000611dc68383611d18565b6101008301905092915050565b6000602082019050919050565b6000611deb82611c56565b611df58185611c61565b9350611e0083611c72565b8060005b83811015611e31578151611e188882611dba565b9750611e2383611dd3565b925050600181019050611e04565b5085935050505092915050565b60006020820190508181036000830152611e588184611de0565b905092915050565b611e6981611c82565b82525050565b6000602082019050611e846000830184611e60565b92915050565b600080fd5b611e9881611cbb565b8114611ea357600080fd5b50565b600081359050611eb581611e8f565b92915050565b611ec481611c82565b8114611ecf57600080fd5b50565b600081359050611ee181611ebb565b92915050565b60008060408385031215611efe57611efd611e8a565b5b6000611f0c85828601611ea6565b9250506020611f1d85828601611ed2565b9150509250929050565b61010082016000820151611f3e6000850182611c8c565b506020820151611f516020850182611ccd565b506040820151611f646040850182611c8c565b506060820151611f776060850182611cee565b506080820151611f8a6080850182611cee565b5060a0820151611f9d60a0850182611c8c565b5060c0820151611fb060c0850182611ccd565b5060e0820151611fc360e0850182611d09565b50505050565b600061010082019050611fdf6000830184611f27565b92915050565b60008060408385031215611ffc57611ffb611e8a565b5b600061200a85828601611ed2565b925050602061201b85828601611ed2565b9150509250929050565b60006020828403121561203b5761203a611e8a565b5b600061204984828501611ed2565b91505092915050565b6000806000806080858703121561206c5761206b611e8a565b5b600061207a87828801611ea6565b945050602061208b87828801611ed2565b935050604061209c87828801611ed2565b92505060606120ad87828801611ea6565b91505092959194509250565b7f4e487b7100000000000000000000000000000000000000000000000000000000600052601160045260246000fd5b60006120f382611c82565b91506120fe83611c82565b9250827fffffffffffffffffffffffffffffffffffffffffffffffffffffffffffffffff03821115612133576121326120b9565b5b828201905092915050565b600061214982611c82565b91507fffffffffffffffffffffffffffffffffffffffffffffffffffffffffffffffff820361217b5761217a6120b9565b5b600182019050919050565b7f4e487b7100000000000000000000000000000000000000000000000000000000600052604160045260246000fd5b7f4e487b7100000000000000000000000000000000000000000000000000000000600052603260045260246000fd5b600082825260208201905092915050565b7f4e6f7420666f756e640000000000000000000000000000000000000000000000600082015250565b600061222b6009836121e4565b9150612236826121f5565b602082019050919050565b6000602082019050818103600083015261225a8161221e565b9050919050565b7f5265656e7472616e637947756172643a207265656e7472616e742063616c6c00600082015250565b6000612297601f836121e4565b91506122a282612261565b602082019050919050565b600060208201905081810360008301526122c68161228a565b9050919050565b7f5072696365206d757374206265206174206c6561737420312077656900000000600082015250565b6000612303601c836121e4565b915061230e826122cd565b602082019050919050565b60006020820190508181036000830152612332816122f6565b9050919050565b7f4e6f7420656e6f75676820657468657220666f72206c697374696e6720666565600082015250565b600061236f6020836121e4565b915061237a82612339565b602082019050919050565b6000602082019050818103600083015261239e81612362565b9050919050565b6123ae81611cbb565b82525050565b60006060820190506123c960008301866123a5565b6123d660208301856123a5565b6123e36040830184611e60565b949350505050565b600060c08201905061240060008301896123a5565b61240d6020830188611e60565b61241a60408301876123a5565b61242760608301866123a5565b6124346080830185611e60565b61244160a08301846123a5565b979650505050505050565b6000819050919050565b600061247161246c61246784611c9b565b61244c565b611c9b565b9050919050565b600061248382612456565b9050919050565b600061249582612478565b9050919050565b6124a58161248a565b82525050565b60006060820190506124c0600083018661249c565b6124cd602083018561249c565b6124da6040830184611e60565b949350505050565b6124eb81611cfd565b81146124f657600080fd5b50565b600081519050612508816124e2565b92915050565b60006020828403121561252457612523611e8a565b5b6000612532848285016124f9565b91505092915050565b600060608201905061255060008301866123a5565b61255d602083018561249c565b61256a6040830184611e60565b949350505050565b600060c08201905061258760008301896123a5565b6125946020830188611e60565b6125a1604083018761249c565b6125ae606083018661249c565b6125bb6080830185611e60565b6125c860a08301846123a5565b979650505050505050565b60006125de82611c82565b91506125e983611c82565b9250828210156125fc576125fb6120b9565b5b828203905092915050565b7f436f756e7465723a2064656372656d656e74206f766572666c6f770000000000600082015250565b600061263d601b836121e4565b915061264882612607565b602082019050919050565b6000602082019050818103600083015261266c81612630565b905091905056fea2646970667358221220c1120ea22cdad0a812db8327ea7bc471f8cad660c7fa746c94ab7d6dab11047064736f6c634300080d0033",
  "immutableReferences": {},
  "source": "// SPDX-License-Identifier: MIT\npragma solidity ^0.8.13;\n\nimport \"./utils/Counters.sol\";\nimport \"./token/ERC721/ERC721.sol\";\nimport \"./security/ReentrancyGuard.sol\";\n\n\nimport \"./token/ERC20/extensions/IERC20Metadata.sol\";\nimport \"./token/ERC20/IERC20.sol\";\n\n\ncontract Marketplace is ReentrancyGuard {\n  using Counters for Counters.Counter;\n  Counters.Counter private _nftsSold;\n  Counters.Counter private _nftCount;\n\n  uint256 public constant VERSION = 20221025002;\n  uint256 public LISTING_FEE = 0.0001 ether;\n\n  address payable private _marketOwner;\n\n  mapping(uint256 => NFT) private _idToNFT;\n  struct NFT {\n    uint256 nftIndex;\n    address nftContract;\n    uint256 tokenId;\n    address payable seller;\n    address payable owner;\n    uint256 price;\n    address token;\n    bool listed;\n  }\n\n  event NFTListed(\n    address nftContract,\n    uint256 tokenId,\n    address seller,\n    address owner,\n    uint256 price,\n    address token\n  );\n  event NFTDelisted(\n    address nftContract,\n    uint256 tokenId,\n    address seller,\n    address owner,\n    uint256 price,\n    address token\n  );\n  event NFTSold(\n    address nftContract,\n    uint256 tokenId,\n    address seller,\n    address owner,\n    uint256 price,\n    address token\n  );\n\n  constructor() {\n    _marketOwner = payable(msg.sender);\n  }\n\n  // List the NFT on the marketplace\n  function listNft(address _nftContract, uint256 _tokenId, uint256 _price, address _token) public payable nonReentrant {\n    require(_price > 0, \"Price must be at least 1 wei\");\n    require(msg.value == LISTING_FEE, \"Not enough ether for listing fee\");\n\n    IERC721(_nftContract).transferFrom(msg.sender, address(this), _tokenId);\n\n    _nftCount.increment();\n\n    uint nftIndex = _nftCount.current();\n\n    _idToNFT[nftIndex] = NFT(\n      nftIndex,\n      _nftContract,\n      _tokenId, \n      payable(msg.sender),\n      payable(address(this)),\n      _price,\n      _token,\n      true\n    );\n\n    emit NFTListed(_nftContract, _tokenId, msg.sender, address(this), _price, _token);\n  }\n\n   // de-list an NFT\n  function delistNft(uint256 _nftIndex) public payable nonReentrant {\n    NFT storage nft = _idToNFT[_nftIndex];\n\n    IERC721(nft.nftContract).transferFrom(address(this), msg.sender, nft.tokenId);\n\n    nft.listed = false;\n\n    _nftsSold.increment();\n    emit NFTDelisted(nft.nftContract, nft.tokenId, address(this), msg.sender, nft.price, nft.token);\n  }\n\n  // Buy an NFT\n  function buyNft(uint256 _nftIndex) public payable nonReentrant {\n    NFT storage nft = _idToNFT[_nftIndex];\n   // require(msg.value >= nft.price, \"Not enough ether to cover asking price\");\n\n    address payable buyer = payable(msg.sender);\n\n    //payable(nft.seller).transfer(msg.value);\n    //IERC721(_nftContract).transferFrom(address(this), buyer, nft.tokenId);\n\n    IERC20 _ccytok = IERC20(nft.token);\n    _ccytok.transferFrom(buyer, nft.seller, nft.price);\n\n    IERC721(nft.nftContract).transferFrom(address(this), buyer, nft.tokenId);\n\n    _marketOwner.transfer(LISTING_FEE);\n    nft.owner = buyer;\n    nft.listed = false;\n\n    _nftsSold.increment();\n    emit NFTSold(nft.nftContract, nft.tokenId, nft.seller, buyer, nft.price, nft.token);\n  }\n\n  // Resell an NFT purchased from the marketplace\n  function resellNft(uint256 _nftIndex, uint256 _price) public payable nonReentrant {\n    require(_price > 0, \"Price must be at least 1 wei\");\n    require(msg.value == LISTING_FEE, \"Not enough ether for listing fee\");\n\n    NFT storage nft = _idToNFT[_nftIndex];\n\n    IERC721(nft.nftContract).transferFrom(msg.sender, address(this), nft.tokenId);\n\n    nft.seller = payable(msg.sender);\n    nft.owner = payable(address(this));\n    nft.listed = true;\n    nft.price = _price;\n\n    _nftsSold.decrement();\n    emit NFTListed(nft.nftContract, nft.tokenId, msg.sender, address(this), _price, nft.token);\n  }\n\n  function getListingFee() public view returns (uint256) {\n    return LISTING_FEE;\n  }\n\n  function getVersion() public pure returns (uint256) {\n    return VERSION;\n  }\n\n  function getNft(address _nftContract, uint256 _tokenId) public view returns (NFT memory) {\n    uint256 nftCount = _nftCount.current();\n    for (uint256 i = 0; i < nftCount; i++) {\n      NFT memory nft = _idToNFT[i];\n\n      if ((nft.nftContract == _nftContract) && (nft.tokenId == _tokenId))\n        return nft;\n    }\n\n    revert('Not found');\n  }\n\n  function getListedNfts() public view returns (NFT[] memory) {\n    uint256 nftCount = _nftCount.current();\n    uint256 unsoldNftsCount = nftCount - _nftsSold.current();\n\n    NFT[] memory nfts = new NFT[](unsoldNftsCount);\n    uint nftsIndex = 0;\n    for (uint i = 0; i < nftCount; i++) {\n      if (_idToNFT[i + 1].listed) {\n        nfts[nftsIndex] = _idToNFT[i + 1];\n        nftsIndex++;\n      }\n    }\n    return nfts;\n  }\n\n  function getMyNfts() public view returns (NFT[] memory) {\n    uint nftCount = _nftCount.current();\n    uint myNftCount = 0;\n    for (uint i = 0; i < nftCount; i++) {\n      if (_idToNFT[i + 1].owner == msg.sender) {\n        myNftCount++;\n      }\n    }\n\n    NFT[] memory nfts = new NFT[](myNftCount);\n    uint nftsIndex = 0;\n    for (uint i = 0; i < nftCount; i++) {\n      if (_idToNFT[i + 1].owner == msg.sender) {\n        nfts[nftsIndex] = _idToNFT[i + 1];\n        nftsIndex++;\n      }\n    }\n    return nfts;\n  }\n\n  function getMyListedNfts() public view returns (NFT[] memory) {\n    uint nftCount = _nftCount.current();\n    uint myListedNftCount = 0;\n    for (uint i = 0; i < nftCount; i++) {\n      if (_idToNFT[i + 1].seller == msg.sender && _idToNFT[i + 1].listed) {\n        myListedNftCount++;\n      }\n    }\n\n    NFT[] memory nfts = new NFT[](myListedNftCount);\n    uint nftsIndex = 0;\n    for (uint i = 0; i < nftCount; i++) {\n      if (_idToNFT[i + 1].seller == msg.sender && _idToNFT[i + 1].listed) {\n        nfts[nftsIndex] = _idToNFT[i + 1];\n        nftsIndex++;\n      }\n    }\n    return nfts;\n  }\n}",
  "sourcePath": "/home/frederic/development/p2pmoney-dev/var/lib/git/repos/javascript/primusmoney_mytokens_webapp/react_apps/my-pwa-apps/my-deed/contracts/Markeplace.sol",
  "compiler": {
    "name": "solc",
    "version": "0.8.13+commit.abaa5c0e.Emscripten.clang"
  },
  "schemaVersion": "3.3.4",
  "updatedAt": "2022-10-25T08:14:40.326Z",
  "devdoc": {
    "kind": "dev",
    "methods": {},
    "version": 1
  },
  "userdoc": {
    "kind": "user",
    "methods": {},
    "version": 1
  }
}