{"contracts/RUN3Token.sol":{"Run3Token":{"abi":[{"inputs":[],"stateMutability":"nonpayable","type":"constructor"},{"anonymous":false,"inputs":[{"indexed":true,"internalType":"address","name":"owner","type":"address"},{"indexed":true,"internalType":"address","name":"spender","type":"address"},{"indexed":false,"internalType":"uint256","name":"value","type":"uint256"}],"name":"Approval","type":"event"},{"anonymous":false,"inputs":[{"indexed":true,"internalType":"address","name":"previousOwner","type":"address"},{"indexed":true,"internalType":"address","name":"newOwner","type":"address"}],"name":"OwnershipTransferred","type":"event"},{"anonymous":false,"inputs":[{"indexed":true,"internalType":"address","name":"from","type":"address"},{"indexed":true,"internalType":"address","name":"to","type":"address"},{"indexed":false,"internalType":"uint256","name":"value","type":"uint256"}],"name":"Transfer","type":"event"},{"inputs":[],"name":"DECIMALS","outputs":[{"internalType":"uint8","name":"","type":"uint8"}],"stateMutability":"view","type":"function"},{"inputs":[],"name":"INITIAL_SUPPLY","outputs":[{"internalType":"uint256","name":"","type":"uint256"}],"stateMutability":"view","type":"function"},{"inputs":[],"name":"MAX_SUPPLY","outputs":[{"internalType":"uint256","name":"","type":"uint256"}],"stateMutability":"view","type":"function"},{"inputs":[{"internalType":"address","name":"owner","type":"address"},{"internalType":"address","name":"spender","type":"address"}],"name":"allowance","outputs":[{"internalType":"uint256","name":"","type":"uint256"}],"stateMutability":"view","type":"function"},{"inputs":[{"internalType":"address","name":"spender","type":"address"},{"internalType":"uint256","name":"amount","type":"uint256"}],"name":"approve","outputs":[{"internalType":"bool","name":"","type":"bool"}],"stateMutability":"nonpayable","type":"function"},{"inputs":[{"internalType":"address","name":"account","type":"address"}],"name":"balanceOf","outputs":[{"internalType":"uint256","name":"","type":"uint256"}],"stateMutability":"view","type":"function"},{"inputs":[],"name":"decimals","outputs":[{"internalType":"uint8","name":"","type":"uint8"}],"stateMutability":"view","type":"function"},{"inputs":[{"internalType":"address","name":"spender","type":"address"},{"internalType":"uint256","name":"subtractedValue","type":"uint256"}],"name":"decreaseAllowance","outputs":[{"internalType":"bool","name":"","type":"bool"}],"stateMutability":"nonpayable","type":"function"},{"inputs":[{"internalType":"address","name":"spender","type":"address"},{"internalType":"uint256","name":"addedValue","type":"uint256"}],"name":"increaseAllowance","outputs":[{"internalType":"bool","name":"","type":"bool"}],"stateMutability":"nonpayable","type":"function"},{"inputs":[{"internalType":"address","name":"recipient","type":"address"},{"internalType":"uint256","name":"amount","type":"uint256"}],"name":"mintRun3T","outputs":[],"stateMutability":"nonpayable","type":"function"},{"inputs":[],"name":"name","outputs":[{"internalType":"string","name":"","type":"string"}],"stateMutability":"view","type":"function"},{"inputs":[],"name":"owner","outputs":[{"internalType":"address","name":"","type":"address"}],"stateMutability":"view","type":"function"},{"inputs":[],"name":"renounceOwnership","outputs":[],"stateMutability":"nonpayable","type":"function"},{"inputs":[],"name":"symbol","outputs":[{"internalType":"string","name":"","type":"string"}],"stateMutability":"view","type":"function"},{"inputs":[],"name":"totalSupply","outputs":[{"internalType":"uint256","name":"","type":"uint256"}],"stateMutability":"view","type":"function"},{"inputs":[{"internalType":"address","name":"to","type":"address"},{"internalType":"uint256","name":"amount","type":"uint256"}],"name":"transfer","outputs":[{"internalType":"bool","name":"","type":"bool"}],"stateMutability":"nonpayable","type":"function"},{"inputs":[{"internalType":"address","name":"from","type":"address"},{"internalType":"address","name":"to","type":"address"},{"internalType":"uint256","name":"amount","type":"uint256"}],"name":"transferFrom","outputs":[{"internalType":"bool","name":"","type":"bool"}],"stateMutability":"nonpayable","type":"function"},{"inputs":[{"internalType":"address","name":"newOwner","type":"address"}],"name":"transferOwnership","outputs":[],"stateMutability":"nonpayable","type":"function"},{"inputs":[{"internalType":"address","name":"recipient","type":"address"}],"name":"updateWatchAddress","outputs":[],"stateMutability":"nonpayable","type":"function"}],"evm":{"bytecode":{"linkReferences":{},"object":"60806040523480156200001157600080fd5b506040518060400160405280600a81526020017f52554e3320546f6b656e000000000000000000000000000000000000000000008152506040518060400160405280600581526020017f52554e335400000000000000000000000000000000000000000000000000000081525081600390816200008f919062000608565b508060049081620000a1919062000608565b505050620000c4620000b86200013e60201b60201c565b6200014660201b60201c565b33600660006101000a81548173ffffffffffffffffffffffffffffffffffffffff021916908373ffffffffffffffffffffffffffffffffffffffff1602179055506200013833601260ff16600a6200011d919062000872565b6127106200012c9190620008c3565b6200020c60201b60201c565b620009fa565b600033905090565b6000600560009054906101000a900473ffffffffffffffffffffffffffffffffffffffff16905081600560006101000a81548173ffffffffffffffffffffffffffffffffffffffff021916908373ffffffffffffffffffffffffffffffffffffffff1602179055508173ffffffffffffffffffffffffffffffffffffffff168173ffffffffffffffffffffffffffffffffffffffff167f8be0079c531659141344cd1fd0a4f28419497f9722a3daafe3b4186f6b6457e060405160405180910390a35050565b600073ffffffffffffffffffffffffffffffffffffffff168273ffffffffffffffffffffffffffffffffffffffff16036200027e576040517f08c379a000000000000000000000000000000000000000000000000000000000815260040162000275906200096f565b60405180910390fd5b62000292600083836200038460201b60201c565b8060026000828254620002a6919062000991565b92505081905550806000808473ffffffffffffffffffffffffffffffffffffffff1673ffffffffffffffffffffffffffffffffffffffff1681526020019081526020016000206000828254620002fd919062000991565b925050819055508173ffffffffffffffffffffffffffffffffffffffff16600073ffffffffffffffffffffffffffffffffffffffff167fddf252ad1be2c89b69c2b068fc378daa952ba7f163c4a11628f55a4df523b3ef83604051620003649190620009dd565b60405180910390a362000380600083836200038960201b60201c565b5050565b505050565b505050565b600081519050919050565b7f4e487b7100000000000000000000000000000000000000000000000000000000600052604160045260246000fd5b7f4e487b7100000000000000000000000000000000000000000000000000000000600052602260045260246000fd5b600060028204905060018216806200041057607f821691505b602082108103620004265762000425620003c8565b5b50919050565b60008190508160005260206000209050919050565b60006020601f8301049050919050565b600082821b905092915050565b600060088302620004907fffffffffffffffffffffffffffffffffffffffffffffffffffffffffffffffff8262000451565b6200049c868362000451565b95508019841693508086168417925050509392505050565b6000819050919050565b6000819050919050565b6000620004e9620004e3620004dd84620004b4565b620004be565b620004b4565b9050919050565b6000819050919050565b6200050583620004c8565b6200051d6200051482620004f0565b8484546200045e565b825550505050565b600090565b6200053462000525565b62000541818484620004fa565b505050565b5b8181101562000569576200055d6000826200052a565b60018101905062000547565b5050565b601f821115620005b85762000582816200042c565b6200058d8462000441565b810160208510156200059d578190505b620005b5620005ac8562000441565b83018262000546565b50505b505050565b600082821c905092915050565b6000620005dd60001984600802620005bd565b1980831691505092915050565b6000620005f88383620005ca565b9150826002028217905092915050565b62000613826200038e565b67ffffffffffffffff8111156200062f576200062e62000399565b5b6200063b8254620003f7565b620006488282856200056d565b600060209050601f8311600181146200068057600084156200066b578287015190505b620006778582620005ea565b865550620006e7565b601f19841662000690866200042c565b60005b82811015620006ba5784890151825560018201915060208501945060208101905062000693565b86831015620006da5784890151620006d6601f891682620005ca565b8355505b6001600288020188555050505b505050505050565b7f4e487b7100000000000000000000000000000000000000000000000000000000600052601160045260246000fd5b60008160011c9050919050565b6000808291508390505b60018511156200077d57808604811115620007555762000754620006ef565b5b6001851615620007655780820291505b808102905062000775856200071e565b945062000735565b94509492505050565b6000826200079857600190506200086b565b81620007a857600090506200086b565b8160018114620007c15760028114620007cc5762000802565b60019150506200086b565b60ff841115620007e157620007e0620006ef565b5b8360020a915084821115620007fb57620007fa620006ef565b5b506200086b565b5060208310610133831016604e8410600b84101617156200083c5782820a905083811115620008365762000835620006ef565b5b6200086b565b6200084b84848460016200072b565b92509050818404811115620008655762000864620006ef565b5b81810290505b9392505050565b60006200087f82620004b4565b91506200088c83620004b4565b9250620008bb7fffffffffffffffffffffffffffffffffffffffffffffffffffffffffffffffff848462000786565b905092915050565b6000620008d082620004b4565b9150620008dd83620004b4565b9250828202620008ed81620004b4565b91508282048414831517620009075762000906620006ef565b5b5092915050565b600082825260208201905092915050565b7f45524332303a206d696e7420746f20746865207a65726f206164647265737300600082015250565b600062000957601f836200090e565b915062000964826200091f565b602082019050919050565b600060208201905081810360008301526200098a8162000948565b9050919050565b60006200099e82620004b4565b9150620009ab83620004b4565b9250828201905080821115620009c657620009c5620006ef565b5b92915050565b620009d781620004b4565b82525050565b6000602082019050620009f46000830184620009cc565b92915050565b611d178062000a0a6000396000f3fe608060405234801561001057600080fd5b50600436106101215760003560e01c806370a08231116100ad578063a9059cbb11610071578063a9059cbb14610310578063c90dc12c14610340578063dd62ed3e1461035c578063f2fde38b1461038c578063f8273dcd146103a857610121565b806370a082311461026a578063715018a61461029a5780638da5cb5b146102a457806395d89b41146102c2578063a457c2d7146102e057610121565b80632e0f2625116100f45780632e0f2625146101c25780632ff2e9dc146101e0578063313ce567146101fe57806332cb6b0c1461021c578063395093511461023a57610121565b806306fdde0314610126578063095ea7b31461014457806318160ddd1461017457806323b872dd14610192575b600080fd5b61012e6103c4565b60405161013b91906111c8565b60405180910390f35b61015e60048036038101906101599190611283565b610456565b60405161016b91906112de565b60405180910390f35b61017c610479565b6040516101899190611308565b60405180910390f35b6101ac60048036038101906101a79190611323565b610483565b6040516101b991906112de565b60405180910390f35b6101ca6104b2565b6040516101d79190611392565b60405180910390f35b6101e86104b7565b6040516101f59190611308565b60405180910390f35b6102066104d8565b6040516102139190611392565b60405180910390f35b6102246104e1565b6040516102319190611308565b60405180910390f35b610254600480360381019061024f9190611283565b610504565b60405161026191906112de565b60405180910390f35b610284600480360381019061027f91906113ad565b61053b565b6040516102919190611308565b60405180910390f35b6102a2610583565b005b6102ac610597565b6040516102b991906113e9565b60405180910390f35b6102ca6105c1565b6040516102d791906111c8565b60405180910390f35b6102fa60048036038101906102f59190611283565b610653565b60405161030791906112de565b60405180910390f35b61032a60048036038101906103259190611283565b6106ca565b60405161033791906112de565b60405180910390f35b61035a600480360381019061035591906113ad565b6106ed565b005b61037660048036038101906103719190611404565b610739565b6040516103839190611308565b60405180910390f35b6103a660048036038101906103a191906113ad565b6107c0565b005b6103c260048036038101906103bd9190611283565b610843565b005b6060600380546103d390611473565b80601f01602080910402602001604051908101604052809291908181526020018280546103ff90611473565b801561044c5780601f106104215761010080835404028352916020019161044c565b820191906000526020600020905b81548152906001019060200180831161042f57829003601f168201915b5050505050905090565b6000806104616109af565b905061046e8185856109b7565b600191505092915050565b6000600254905090565b60008061048e6109af565b905061049b858285610b80565b6104a6858585610c0c565b60019150509392505050565b601281565b601260ff16600a6104c89190611606565b6127106104d59190611651565b81565b60006012905090565b601260ff16600a6104f29190611606565b63b2d05e006105019190611651565b81565b60008061050f6109af565b90506105308185856105218589610739565b61052b9190611693565b6109b7565b600191505092915050565b60008060008373ffffffffffffffffffffffffffffffffffffffff1673ffffffffffffffffffffffffffffffffffffffff168152602001908152602001600020549050919050565b61058b610e8b565b6105956000610f09565b565b6000600560009054906101000a900473ffffffffffffffffffffffffffffffffffffffff16905090565b6060600480546105d090611473565b80601f01602080910402602001604051908101604052809291908181526020018280546105fc90611473565b80156106495780601f1061061e57610100808354040283529160200191610649565b820191906000526020600020905b81548152906001019060200180831161062c57829003601f168201915b5050505050905090565b60008061065e6109af565b9050600061066c8286610739565b9050838110156106b1576040517f08c379a00000000000000000000000000000000000000000000000000000000081526004016106a890611739565b60405180910390fd5b6106be82868684036109b7565b60019250505092915050565b6000806106d56109af565b90506106e2818585610c0c565b600191505092915050565b6106f5610e8b565b80600760006101000a81548173ffffffffffffffffffffffffffffffffffffffff021916908373ffffffffffffffffffffffffffffffffffffffff16021790555050565b6000600160008473ffffffffffffffffffffffffffffffffffffffff1673ffffffffffffffffffffffffffffffffffffffff16815260200190815260200160002060008373ffffffffffffffffffffffffffffffffffffffff1673ffffffffffffffffffffffffffffffffffffffff16815260200190815260200160002054905092915050565b6107c8610e8b565b600073ffffffffffffffffffffffffffffffffffffffff168173ffffffffffffffffffffffffffffffffffffffff1603610837576040517f08c379a000000000000000000000000000000000000000000000000000000000815260040161082e906117cb565b60405180910390fd5b61084081610f09565b50565b600660009054906101000a900473ffffffffffffffffffffffffffffffffffffffff1673ffffffffffffffffffffffffffffffffffffffff163373ffffffffffffffffffffffffffffffffffffffff1614806108ec5750600760009054906101000a900473ffffffffffffffffffffffffffffffffffffffff1673ffffffffffffffffffffffffffffffffffffffff163373ffffffffffffffffffffffffffffffffffffffff16145b61092b576040517f08c379a000000000000000000000000000000000000000000000000000000000815260040161092290611837565b60405180910390fd5b80601260ff16600a61093d9190611606565b63b2d05e0061094c9190611651565b81610955610479565b61095f9190611693565b10156109a0576040517f08c379a0000000000000000000000000000000000000000000000000000000008152600401610997906118a3565b60405180910390fd5b6109aa8383610fcf565b505050565b600033905090565b600073ffffffffffffffffffffffffffffffffffffffff168373ffffffffffffffffffffffffffffffffffffffff1603610a26576040517f08c379a0000000000000000000000000000000000000000000000000000000008152600401610a1d90611935565b60405180910390fd5b600073ffffffffffffffffffffffffffffffffffffffff168273ffffffffffffffffffffffffffffffffffffffff1603610a95576040517f08c379a0000000000000000000000000000000000000000000000000000000008152600401610a8c906119c7565b60405180910390fd5b80600160008573ffffffffffffffffffffffffffffffffffffffff1673ffffffffffffffffffffffffffffffffffffffff16815260200190815260200160002060008473ffffffffffffffffffffffffffffffffffffffff1673ffffffffffffffffffffffffffffffffffffffff168152602001908152602001600020819055508173ffffffffffffffffffffffffffffffffffffffff168373ffffffffffffffffffffffffffffffffffffffff167f8c5be1e5ebec7d5bd14f71427d1e84f3dd0314c0f7b2291e5b200ac8c7c3b92583604051610b739190611308565b60405180910390a3505050565b6000610b8c8484610739565b90507fffffffffffffffffffffffffffffffffffffffffffffffffffffffffffffffff8114610c065781811015610bf8576040517f08c379a0000000000000000000000000000000000000000000000000000000008152600401610bef90611a33565b60405180910390fd5b610c0584848484036109b7565b5b50505050565b600073ffffffffffffffffffffffffffffffffffffffff168373ffffffffffffffffffffffffffffffffffffffff1603610c7b576040517f08c379a0000000000000000000000000000000000000000000000000000000008152600401610c7290611ac5565b60405180910390fd5b600073ffffffffffffffffffffffffffffffffffffffff168273ffffffffffffffffffffffffffffffffffffffff1603610cea576040517f08c379a0000000000000000000000000000000000000000000000000000000008152600401610ce190611b57565b60405180910390fd5b610cf583838361112e565b60008060008573ffffffffffffffffffffffffffffffffffffffff1673ffffffffffffffffffffffffffffffffffffffff16815260200190815260200160002054905081811015610d7b576040517f08c379a0000000000000000000000000000000000000000000000000000000008152600401610d7290611be9565b60405180910390fd5b8181036000808673ffffffffffffffffffffffffffffffffffffffff1673ffffffffffffffffffffffffffffffffffffffff16815260200190815260200160002081905550816000808573ffffffffffffffffffffffffffffffffffffffff1673ffffffffffffffffffffffffffffffffffffffff1681526020019081526020016000206000828254610e0e9190611693565b925050819055508273ffffffffffffffffffffffffffffffffffffffff168473ffffffffffffffffffffffffffffffffffffffff167fddf252ad1be2c89b69c2b068fc378daa952ba7f163c4a11628f55a4df523b3ef84604051610e729190611308565b60405180910390a3610e85848484611133565b50505050565b610e936109af565b73ffffffffffffffffffffffffffffffffffffffff16610eb1610597565b73ffffffffffffffffffffffffffffffffffffffff1614610f07576040517f08c379a0000000000000000000000000000000000000000000000000000000008152600401610efe90611c55565b60405180910390fd5b565b6000600560009054906101000a900473ffffffffffffffffffffffffffffffffffffffff16905081600560006101000a81548173ffffffffffffffffffffffffffffffffffffffff021916908373ffffffffffffffffffffffffffffffffffffffff1602179055508173ffffffffffffffffffffffffffffffffffffffff168173ffffffffffffffffffffffffffffffffffffffff167f8be0079c531659141344cd1fd0a4f28419497f9722a3daafe3b4186f6b6457e060405160405180910390a35050565b600073ffffffffffffffffffffffffffffffffffffffff168273ffffffffffffffffffffffffffffffffffffffff160361103e576040517f08c379a000000000000000000000000000000000000000000000000000000000815260040161103590611cc1565b60405180910390fd5b61104a6000838361112e565b806002600082825461105c9190611693565b92505081905550806000808473ffffffffffffffffffffffffffffffffffffffff1673ffffffffffffffffffffffffffffffffffffffff16815260200190815260200160002060008282546110b19190611693565b925050819055508173ffffffffffffffffffffffffffffffffffffffff16600073ffffffffffffffffffffffffffffffffffffffff167fddf252ad1be2c89b69c2b068fc378daa952ba7f163c4a11628f55a4df523b3ef836040516111169190611308565b60405180910390a361112a60008383611133565b5050565b505050565b505050565b600081519050919050565b600082825260208201905092915050565b60005b83811015611172578082015181840152602081019050611157565b60008484015250505050565b6000601f19601f8301169050919050565b600061119a82611138565b6111a48185611143565b93506111b4818560208601611154565b6111bd8161117e565b840191505092915050565b600060208201905081810360008301526111e2818461118f565b905092915050565b600080fd5b600073ffffffffffffffffffffffffffffffffffffffff82169050919050565b600061121a826111ef565b9050919050565b61122a8161120f565b811461123557600080fd5b50565b60008135905061124781611221565b92915050565b6000819050919050565b6112608161124d565b811461126b57600080fd5b50565b60008135905061127d81611257565b92915050565b6000806040838503121561129a576112996111ea565b5b60006112a885828601611238565b92505060206112b98582860161126e565b9150509250929050565b60008115159050919050565b6112d8816112c3565b82525050565b60006020820190506112f360008301846112cf565b92915050565b6113028161124d565b82525050565b600060208201905061131d60008301846112f9565b92915050565b60008060006060848603121561133c5761133b6111ea565b5b600061134a86828701611238565b935050602061135b86828701611238565b925050604061136c8682870161126e565b9150509250925092565b600060ff82169050919050565b61138c81611376565b82525050565b60006020820190506113a76000830184611383565b92915050565b6000602082840312156113c3576113c26111ea565b5b60006113d184828501611238565b91505092915050565b6113e38161120f565b82525050565b60006020820190506113fe60008301846113da565b92915050565b6000806040838503121561141b5761141a6111ea565b5b600061142985828601611238565b925050602061143a85828601611238565b9150509250929050565b7f4e487b7100000000000000000000000000000000000000000000000000000000600052602260045260246000fd5b6000600282049050600182168061148b57607f821691505b60208210810361149e5761149d611444565b5b50919050565b7f4e487b7100000000000000000000000000000000000000000000000000000000600052601160045260246000fd5b60008160011c9050919050565b6000808291508390505b600185111561152a57808604811115611506576115056114a4565b5b60018516156115155780820291505b8081029050611523856114d3565b94506114ea565b94509492505050565b60008261154357600190506115ff565b8161155157600090506115ff565b81600181146115675760028114611571576115a0565b60019150506115ff565b60ff841115611583576115826114a4565b5b8360020a91508482111561159a576115996114a4565b5b506115ff565b5060208310610133831016604e8410600b84101617156115d55782820a9050838111156115d0576115cf6114a4565b5b6115ff565b6115e284848460016114e0565b925090508184048111156115f9576115f86114a4565b5b81810290505b9392505050565b60006116118261124d565b915061161c8361124d565b92506116497fffffffffffffffffffffffffffffffffffffffffffffffffffffffffffffffff8484611533565b905092915050565b600061165c8261124d565b91506116678361124d565b92508282026116758161124d565b9150828204841483151761168c5761168b6114a4565b5b5092915050565b600061169e8261124d565b91506116a98361124d565b92508282019050808211156116c1576116c06114a4565b5b92915050565b7f45524332303a2064656372656173656420616c6c6f77616e63652062656c6f7760008201527f207a65726f000000000000000000000000000000000000000000000000000000602082015250565b6000611723602583611143565b915061172e826116c7565b604082019050919050565b6000602082019050818103600083015261175281611716565b9050919050565b7f4f776e61626c653a206e6577206f776e657220697320746865207a65726f206160008201527f6464726573730000000000000000000000000000000000000000000000000000602082015250565b60006117b5602683611143565b91506117c082611759565b604082019050919050565b600060208201905081810360008301526117e4816117a8565b9050919050565b7f4e6f7420616c6c6f776564000000000000000000000000000000000000000000600082015250565b6000611821600b83611143565b915061182c826117eb565b602082019050919050565b6000602082019050818103600083015261185081611814565b9050919050565b7f4d617820737570706c7920776173207265616368656400000000000000000000600082015250565b600061188d601683611143565b915061189882611857565b602082019050919050565b600060208201905081810360008301526118bc81611880565b9050919050565b7f45524332303a20617070726f76652066726f6d20746865207a65726f2061646460008201527f7265737300000000000000000000000000000000000000000000000000000000602082015250565b600061191f602483611143565b915061192a826118c3565b604082019050919050565b6000602082019050818103600083015261194e81611912565b9050919050565b7f45524332303a20617070726f766520746f20746865207a65726f20616464726560008201527f7373000000000000000000000000000000000000000000000000000000000000602082015250565b60006119b1602283611143565b91506119bc82611955565b604082019050919050565b600060208201905081810360008301526119e0816119a4565b9050919050565b7f45524332303a20696e73756666696369656e7420616c6c6f77616e6365000000600082015250565b6000611a1d601d83611143565b9150611a28826119e7565b602082019050919050565b60006020820190508181036000830152611a4c81611a10565b9050919050565b7f45524332303a207472616e736665722066726f6d20746865207a65726f20616460008201527f6472657373000000000000000000000000000000000000000000000000000000602082015250565b6000611aaf602583611143565b9150611aba82611a53565b604082019050919050565b60006020820190508181036000830152611ade81611aa2565b9050919050565b7f45524332303a207472616e7366657220746f20746865207a65726f206164647260008201527f6573730000000000000000000000000000000000000000000000000000000000602082015250565b6000611b41602383611143565b9150611b4c82611ae5565b604082019050919050565b60006020820190508181036000830152611b7081611b34565b9050919050565b7f45524332303a207472616e7366657220616d6f756e742065786365656473206260008201527f616c616e63650000000000000000000000000000000000000000000000000000602082015250565b6000611bd3602683611143565b9150611bde82611b77565b604082019050919050565b60006020820190508181036000830152611c0281611bc6565b9050919050565b7f4f776e61626c653a2063616c6c6572206973206e6f7420746865206f776e6572600082015250565b6000611c3f602083611143565b9150611c4a82611c09565b602082019050919050565b60006020820190508181036000830152611c6e81611c32565b9050919050565b7f45524332303a206d696e7420746f20746865207a65726f206164647265737300600082015250565b6000611cab601f83611143565b9150611cb682611c75565b602082019050919050565b60006020820190508181036000830152611cda81611c9e565b905091905056fea264697066735822122079ddd06dd7d8af55aae6b1fa32c8276ea73fe8ffbe0e3c9396b1079fad60bdc564736f6c63430008110033","opcodes":"PUSH1 0x80 PUSH1 0x40 MSTORE CALLVALUE DUP1 ISZERO PUSH3 0x11 JUMPI PUSH1 0x0 DUP1 REVERT JUMPDEST POP PUSH1 0x40 MLOAD DUP1 PUSH1 0x40 ADD PUSH1 0x40 MSTORE DUP1 PUSH1 0xA DUP2 MSTORE PUSH1 0x20 ADD PUSH32 0x52554E3320546F6B656E00000000000000000000000000000000000000000000 DUP2 MSTORE POP PUSH1 0x40 MLOAD DUP1 PUSH1 0x40 ADD PUSH1 0x40 MSTORE DUP1 PUSH1 0x5 DUP2 MSTORE PUSH1 0x20 ADD PUSH32 0x52554E3354000000000000000000000000000000000000000000000000000000 DUP2 MSTORE POP DUP2 PUSH1 0x3 SWAP1 DUP2 PUSH3 0x8F SWAP2 SWAP1 PUSH3 0x608 JUMP JUMPDEST POP DUP1 PUSH1 0x4 SWAP1 DUP2 PUSH3 0xA1 SWAP2 SWAP1 PUSH3 0x608 JUMP JUMPDEST POP POP POP PUSH3 0xC4 PUSH3 0xB8 PUSH3 0x13E PUSH1 0x20 SHL PUSH1 0x20 SHR JUMP JUMPDEST PUSH3 0x146 PUSH1 0x20 SHL PUSH1 0x20 SHR JUMP JUMPDEST CALLER PUSH1 0x6 PUSH1 0x0 PUSH2 0x100 EXP DUP2 SLOAD DUP2 PUSH20 0xFFFFFFFFFFFFFFFFFFFFFFFFFFFFFFFFFFFFFFFF MUL NOT AND SWAP1 DUP4 PUSH20 0xFFFFFFFFFFFFFFFFFFFFFFFFFFFFFFFFFFFFFFFF AND MUL OR SWAP1 SSTORE POP PUSH3 0x138 CALLER PUSH1 0x12 PUSH1 0xFF AND PUSH1 0xA PUSH3 0x11D SWAP2 SWAP1 PUSH3 0x872 JUMP JUMPDEST PUSH2 0x2710 PUSH3 0x12C SWAP2 SWAP1 PUSH3 0x8C3 JUMP JUMPDEST PUSH3 0x20C PUSH1 0x20 SHL PUSH1 0x20 SHR JUMP JUMPDEST PUSH3 0x9FA JUMP JUMPDEST PUSH1 0x0 CALLER SWAP1 POP SWAP1 JUMP JUMPDEST PUSH1 0x0 PUSH1 0x5 PUSH1 0x0 SWAP1 SLOAD SWAP1 PUSH2 0x100 EXP SWAP1 DIV PUSH20 0xFFFFFFFFFFFFFFFFFFFFFFFFFFFFFFFFFFFFFFFF AND SWAP1 POP DUP2 PUSH1 0x5 PUSH1 0x0 PUSH2 0x100 EXP DUP2 SLOAD DUP2 PUSH20 0xFFFFFFFFFFFFFFFFFFFFFFFFFFFFFFFFFFFFFFFF MUL NOT AND SWAP1 DUP4 PUSH20 0xFFFFFFFFFFFFFFFFFFFFFFFFFFFFFFFFFFFFFFFF AND MUL OR SWAP1 SSTORE POP DUP2 PUSH20 0xFFFFFFFFFFFFFFFFFFFFFFFFFFFFFFFFFFFFFFFF AND DUP2 PUSH20 0xFFFFFFFFFFFFFFFFFFFFFFFFFFFFFFFFFFFFFFFF AND PUSH32 0x8BE0079C531659141344CD1FD0A4F28419497F9722A3DAAFE3B4186F6B6457E0 PUSH1 0x40 MLOAD PUSH1 0x40 MLOAD DUP1 SWAP2 SUB SWAP1 LOG3 POP POP JUMP JUMPDEST PUSH1 0x0 PUSH20 0xFFFFFFFFFFFFFFFFFFFFFFFFFFFFFFFFFFFFFFFF AND DUP3 PUSH20 0xFFFFFFFFFFFFFFFFFFFFFFFFFFFFFFFFFFFFFFFF AND SUB PUSH3 0x27E JUMPI PUSH1 0x40 MLOAD PUSH32 0x8C379A000000000000000000000000000000000000000000000000000000000 DUP2 MSTORE PUSH1 0x4 ADD PUSH3 0x275 SWAP1 PUSH3 0x96F JUMP JUMPDEST PUSH1 0x40 MLOAD DUP1 SWAP2 SUB SWAP1 REVERT JUMPDEST PUSH3 0x292 PUSH1 0x0 DUP4 DUP4 PUSH3 0x384 PUSH1 0x20 SHL PUSH1 0x20 SHR JUMP JUMPDEST DUP1 PUSH1 0x2 PUSH1 0x0 DUP3 DUP3 SLOAD PUSH3 0x2A6 SWAP2 SWAP1 PUSH3 0x991 JUMP JUMPDEST SWAP3 POP POP DUP2 SWAP1 SSTORE POP DUP1 PUSH1 0x0 DUP1 DUP5 PUSH20 0xFFFFFFFFFFFFFFFFFFFFFFFFFFFFFFFFFFFFFFFF AND PUSH20 0xFFFFFFFFFFFFFFFFFFFFFFFFFFFFFFFFFFFFFFFF AND DUP2 MSTORE PUSH1 0x20 ADD SWAP1 DUP2 MSTORE PUSH1 0x20 ADD PUSH1 0x0 KECCAK256 PUSH1 0x0 DUP3 DUP3 SLOAD PUSH3 0x2FD SWAP2 SWAP1 PUSH3 0x991 JUMP JUMPDEST SWAP3 POP POP DUP2 SWAP1 SSTORE POP DUP2 PUSH20 0xFFFFFFFFFFFFFFFFFFFFFFFFFFFFFFFFFFFFFFFF AND PUSH1 0x0 PUSH20 0xFFFFFFFFFFFFFFFFFFFFFFFFFFFFFFFFFFFFFFFF AND PUSH32 0xDDF252AD1BE2C89B69C2B068FC378DAA952BA7F163C4A11628F55A4DF523B3EF DUP4 PUSH1 0x40 MLOAD PUSH3 0x364 SWAP2 SWAP1 PUSH3 0x9DD JUMP JUMPDEST PUSH1 0x40 MLOAD DUP1 SWAP2 SUB SWAP1 LOG3 PUSH3 0x380 PUSH1 0x0 DUP4 DUP4 PUSH3 0x389 PUSH1 0x20 SHL PUSH1 0x20 SHR JUMP JUMPDEST POP POP JUMP JUMPDEST POP POP POP JUMP JUMPDEST POP POP POP JUMP JUMPDEST PUSH1 0x0 DUP2 MLOAD SWAP1 POP SWAP2 SWAP1 POP JUMP JUMPDEST PUSH32 0x4E487B7100000000000000000000000000000000000000000000000000000000 PUSH1 0x0 MSTORE PUSH1 0x41 PUSH1 0x4 MSTORE PUSH1 0x24 PUSH1 0x0 REVERT JUMPDEST PUSH32 0x4E487B7100000000000000000000000000000000000000000000000000000000 PUSH1 0x0 MSTORE PUSH1 0x22 PUSH1 0x4 MSTORE PUSH1 0x24 PUSH1 0x0 REVERT JUMPDEST PUSH1 0x0 PUSH1 0x2 DUP3 DIV SWAP1 POP PUSH1 0x1 DUP3 AND DUP1 PUSH3 0x410 JUMPI PUSH1 0x7F DUP3 AND SWAP2 POP JUMPDEST PUSH1 0x20 DUP3 LT DUP2 SUB PUSH3 0x426 JUMPI PUSH3 0x425 PUSH3 0x3C8 JUMP JUMPDEST JUMPDEST POP SWAP2 SWAP1 POP JUMP JUMPDEST PUSH1 0x0 DUP2 SWAP1 POP DUP2 PUSH1 0x0 MSTORE PUSH1 0x20 PUSH1 0x0 KECCAK256 SWAP1 POP SWAP2 SWAP1 POP JUMP JUMPDEST PUSH1 0x0 PUSH1 0x20 PUSH1 0x1F DUP4 ADD DIV SWAP1 POP SWAP2 SWAP1 POP JUMP JUMPDEST PUSH1 0x0 DUP3 DUP3 SHL SWAP1 POP SWAP3 SWAP2 POP POP JUMP JUMPDEST PUSH1 0x0 PUSH1 0x8 DUP4 MUL PUSH3 0x490 PUSH32 0xFFFFFFFFFFFFFFFFFFFFFFFFFFFFFFFFFFFFFFFFFFFFFFFFFFFFFFFFFFFFFFFF DUP3 PUSH3 0x451 JUMP JUMPDEST PUSH3 0x49C DUP7 DUP4 PUSH3 0x451 JUMP JUMPDEST SWAP6 POP DUP1 NOT DUP5 AND SWAP4 POP DUP1 DUP7 AND DUP5 OR SWAP3 POP POP POP SWAP4 SWAP3 POP POP POP JUMP JUMPDEST PUSH1 0x0 DUP2 SWAP1 POP SWAP2 SWAP1 POP JUMP JUMPDEST PUSH1 0x0 DUP2 SWAP1 POP SWAP2 SWAP1 POP JUMP JUMPDEST PUSH1 0x0 PUSH3 0x4E9 PUSH3 0x4E3 PUSH3 0x4DD DUP5 PUSH3 0x4B4 JUMP JUMPDEST PUSH3 0x4BE JUMP JUMPDEST PUSH3 0x4B4 JUMP JUMPDEST SWAP1 POP SWAP2 SWAP1 POP JUMP JUMPDEST PUSH1 0x0 DUP2 SWAP1 POP SWAP2 SWAP1 POP JUMP JUMPDEST PUSH3 0x505 DUP4 PUSH3 0x4C8 JUMP JUMPDEST PUSH3 0x51D PUSH3 0x514 DUP3 PUSH3 0x4F0 JUMP JUMPDEST DUP5 DUP5 SLOAD PUSH3 0x45E JUMP JUMPDEST DUP3 SSTORE POP POP POP POP JUMP JUMPDEST PUSH1 0x0 SWAP1 JUMP JUMPDEST PUSH3 0x534 PUSH3 0x525 JUMP JUMPDEST PUSH3 0x541 DUP2 DUP5 DUP5 PUSH3 0x4FA JUMP JUMPDEST POP POP POP JUMP JUMPDEST JUMPDEST DUP2 DUP2 LT ISZERO PUSH3 0x569 JUMPI PUSH3 0x55D PUSH1 0x0 DUP3 PUSH3 0x52A JUMP JUMPDEST PUSH1 0x1 DUP2 ADD SWAP1 POP PUSH3 0x547 JUMP JUMPDEST POP POP JUMP JUMPDEST PUSH1 0x1F DUP3 GT ISZERO PUSH3 0x5B8 JUMPI PUSH3 0x582 DUP2 PUSH3 0x42C JUMP JUMPDEST PUSH3 0x58D DUP5 PUSH3 0x441 JUMP JUMPDEST DUP2 ADD PUSH1 0x20 DUP6 LT ISZERO PUSH3 0x59D JUMPI DUP2 SWAP1 POP JUMPDEST PUSH3 0x5B5 PUSH3 0x5AC DUP6 PUSH3 0x441 JUMP JUMPDEST DUP4 ADD DUP3 PUSH3 0x546 JUMP JUMPDEST POP POP JUMPDEST POP POP POP JUMP JUMPDEST PUSH1 0x0 DUP3 DUP3 SHR SWAP1 POP SWAP3 SWAP2 POP POP JUMP JUMPDEST PUSH1 0x0 PUSH3 0x5DD PUSH1 0x0 NOT DUP5 PUSH1 0x8 MUL PUSH3 0x5BD JUMP JUMPDEST NOT DUP1 DUP4 AND SWAP2 POP POP SWAP3 SWAP2 POP POP JUMP JUMPDEST PUSH1 0x0 PUSH3 0x5F8 DUP4 DUP4 PUSH3 0x5CA JUMP JUMPDEST SWAP2 POP DUP3 PUSH1 0x2 MUL DUP3 OR SWAP1 POP SWAP3 SWAP2 POP POP JUMP JUMPDEST PUSH3 0x613 DUP3 PUSH3 0x38E JUMP JUMPDEST PUSH8 0xFFFFFFFFFFFFFFFF DUP2 GT ISZERO PUSH3 0x62F JUMPI PUSH3 0x62E PUSH3 0x399 JUMP JUMPDEST JUMPDEST PUSH3 0x63B DUP3 SLOAD PUSH3 0x3F7 JUMP JUMPDEST PUSH3 0x648 DUP3 DUP3 DUP6 PUSH3 0x56D JUMP JUMPDEST PUSH1 0x0 PUSH1 0x20 SWAP1 POP PUSH1 0x1F DUP4 GT PUSH1 0x1 DUP2 EQ PUSH3 0x680 JUMPI PUSH1 0x0 DUP5 ISZERO PUSH3 0x66B JUMPI DUP3 DUP8 ADD MLOAD SWAP1 POP JUMPDEST PUSH3 0x677 DUP6 DUP3 PUSH3 0x5EA JUMP JUMPDEST DUP7 SSTORE POP PUSH3 0x6E7 JUMP JUMPDEST PUSH1 0x1F NOT DUP5 AND PUSH3 0x690 DUP7 PUSH3 0x42C JUMP JUMPDEST PUSH1 0x0 JUMPDEST DUP3 DUP2 LT ISZERO PUSH3 0x6BA JUMPI DUP5 DUP10 ADD MLOAD DUP3 SSTORE PUSH1 0x1 DUP3 ADD SWAP2 POP PUSH1 0x20 DUP6 ADD SWAP5 POP PUSH1 0x20 DUP2 ADD SWAP1 POP PUSH3 0x693 JUMP JUMPDEST DUP7 DUP4 LT ISZERO PUSH3 0x6DA JUMPI DUP5 DUP10 ADD MLOAD PUSH3 0x6D6 PUSH1 0x1F DUP10 AND DUP3 PUSH3 0x5CA JUMP JUMPDEST DUP4 SSTORE POP JUMPDEST PUSH1 0x1 PUSH1 0x2 DUP9 MUL ADD DUP9 SSTORE POP POP POP JUMPDEST POP POP POP POP POP POP JUMP JUMPDEST PUSH32 0x4E487B7100000000000000000000000000000000000000000000000000000000 PUSH1 0x0 MSTORE PUSH1 0x11 PUSH1 0x4 MSTORE PUSH1 0x24 PUSH1 0x0 REVERT JUMPDEST PUSH1 0x0 DUP2 PUSH1 0x1 SHR SWAP1 POP SWAP2 SWAP1 POP JUMP JUMPDEST PUSH1 0x0 DUP1 DUP3 SWAP2 POP DUP4 SWAP1 POP JUMPDEST PUSH1 0x1 DUP6 GT ISZERO PUSH3 0x77D JUMPI DUP1 DUP7 DIV DUP2 GT ISZERO PUSH3 0x755 JUMPI PUSH3 0x754 PUSH3 0x6EF JUMP JUMPDEST JUMPDEST PUSH1 0x1 DUP6 AND ISZERO PUSH3 0x765 JUMPI DUP1 DUP3 MUL SWAP2 POP JUMPDEST DUP1 DUP2 MUL SWAP1 POP PUSH3 0x775 DUP6 PUSH3 0x71E JUMP JUMPDEST SWAP5 POP PUSH3 0x735 JUMP JUMPDEST SWAP5 POP SWAP5 SWAP3 POP POP POP JUMP JUMPDEST PUSH1 0x0 DUP3 PUSH3 0x798 JUMPI PUSH1 0x1 SWAP1 POP PUSH3 0x86B JUMP JUMPDEST DUP2 PUSH3 0x7A8 JUMPI PUSH1 0x0 SWAP1 POP PUSH3 0x86B JUMP JUMPDEST DUP2 PUSH1 0x1 DUP2 EQ PUSH3 0x7C1 JUMPI PUSH1 0x2 DUP2 EQ PUSH3 0x7CC JUMPI PUSH3 0x802 JUMP JUMPDEST PUSH1 0x1 SWAP2 POP POP PUSH3 0x86B JUMP JUMPDEST PUSH1 0xFF DUP5 GT ISZERO PUSH3 0x7E1 JUMPI PUSH3 0x7E0 PUSH3 0x6EF JUMP JUMPDEST JUMPDEST DUP4 PUSH1 0x2 EXP SWAP2 POP DUP5 DUP3 GT ISZERO PUSH3 0x7FB JUMPI PUSH3 0x7FA PUSH3 0x6EF JUMP JUMPDEST JUMPDEST POP PUSH3 0x86B JUMP JUMPDEST POP PUSH1 0x20 DUP4 LT PUSH2 0x133 DUP4 LT AND PUSH1 0x4E DUP5 LT PUSH1 0xB DUP5 LT AND OR ISZERO PUSH3 0x83C JUMPI DUP3 DUP3 EXP SWAP1 POP DUP4 DUP2 GT ISZERO PUSH3 0x836 JUMPI PUSH3 0x835 PUSH3 0x6EF JUMP JUMPDEST JUMPDEST PUSH3 0x86B JUMP JUMPDEST PUSH3 0x84B DUP5 DUP5 DUP5 PUSH1 0x1 PUSH3 0x72B JUMP JUMPDEST SWAP3 POP SWAP1 POP DUP2 DUP5 DIV DUP2 GT ISZERO PUSH3 0x865 JUMPI PUSH3 0x864 PUSH3 0x6EF JUMP JUMPDEST JUMPDEST DUP2 DUP2 MUL SWAP1 POP JUMPDEST SWAP4 SWAP3 POP POP POP JUMP JUMPDEST PUSH1 0x0 PUSH3 0x87F DUP3 PUSH3 0x4B4 JUMP JUMPDEST SWAP2 POP PUSH3 0x88C DUP4 PUSH3 0x4B4 JUMP JUMPDEST SWAP3 POP PUSH3 0x8BB PUSH32 0xFFFFFFFFFFFFFFFFFFFFFFFFFFFFFFFFFFFFFFFFFFFFFFFFFFFFFFFFFFFFFFFF DUP5 DUP5 PUSH3 0x786 JUMP JUMPDEST SWAP1 POP SWAP3 SWAP2 POP POP JUMP JUMPDEST PUSH1 0x0 PUSH3 0x8D0 DUP3 PUSH3 0x4B4 JUMP JUMPDEST SWAP2 POP PUSH3 0x8DD DUP4 PUSH3 0x4B4 JUMP JUMPDEST SWAP3 POP DUP3 DUP3 MUL PUSH3 0x8ED DUP2 PUSH3 0x4B4 JUMP JUMPDEST SWAP2 POP DUP3 DUP3 DIV DUP5 EQ DUP4 ISZERO OR PUSH3 0x907 JUMPI PUSH3 0x906 PUSH3 0x6EF JUMP JUMPDEST JUMPDEST POP SWAP3 SWAP2 POP POP JUMP JUMPDEST PUSH1 0x0 DUP3 DUP3 MSTORE PUSH1 0x20 DUP3 ADD SWAP1 POP SWAP3 SWAP2 POP POP JUMP JUMPDEST PUSH32 0x45524332303A206D696E7420746F20746865207A65726F206164647265737300 PUSH1 0x0 DUP3 ADD MSTORE POP JUMP JUMPDEST PUSH1 0x0 PUSH3 0x957 PUSH1 0x1F DUP4 PUSH3 0x90E JUMP JUMPDEST SWAP2 POP PUSH3 0x964 DUP3 PUSH3 0x91F JUMP JUMPDEST PUSH1 0x20 DUP3 ADD SWAP1 POP SWAP2 SWAP1 POP JUMP JUMPDEST PUSH1 0x0 PUSH1 0x20 DUP3 ADD SWAP1 POP DUP2 DUP2 SUB PUSH1 0x0 DUP4 ADD MSTORE PUSH3 0x98A DUP2 PUSH3 0x948 JUMP JUMPDEST SWAP1 POP SWAP2 SWAP1 POP JUMP JUMPDEST PUSH1 0x0 PUSH3 0x99E DUP3 PUSH3 0x4B4 JUMP JUMPDEST SWAP2 POP PUSH3 0x9AB DUP4 PUSH3 0x4B4 JUMP JUMPDEST SWAP3 POP DUP3 DUP3 ADD SWAP1 POP DUP1 DUP3 GT ISZERO PUSH3 0x9C6 JUMPI PUSH3 0x9C5 PUSH3 0x6EF JUMP JUMPDEST JUMPDEST SWAP3 SWAP2 POP POP JUMP JUMPDEST PUSH3 0x9D7 DUP2 PUSH3 0x4B4 JUMP JUMPDEST DUP3 MSTORE POP POP JUMP JUMPDEST PUSH1 0x0 PUSH1 0x20 DUP3 ADD SWAP1 POP PUSH3 0x9F4 PUSH1 0x0 DUP4 ADD DUP5 PUSH3 0x9CC JUMP JUMPDEST SWAP3 SWAP2 POP POP JUMP JUMPDEST PUSH2 0x1D17 DUP1 PUSH3 0xA0A PUSH1 0x0 CODECOPY PUSH1 0x0 RETURN INVALID PUSH1 0x80 PUSH1 0x40 MSTORE CALLVALUE DUP1 ISZERO PUSH2 0x10 JUMPI PUSH1 0x0 DUP1 REVERT JUMPDEST POP PUSH1 0x4 CALLDATASIZE LT PUSH2 0x121 JUMPI PUSH1 0x0 CALLDATALOAD PUSH1 0xE0 SHR DUP1 PUSH4 0x70A08231 GT PUSH2 0xAD JUMPI DUP1 PUSH4 0xA9059CBB GT PUSH2 0x71 JUMPI DUP1 PUSH4 0xA9059CBB EQ PUSH2 0x310 JUMPI DUP1 PUSH4 0xC90DC12C EQ PUSH2 0x340 JUMPI DUP1 PUSH4 0xDD62ED3E EQ PUSH2 0x35C JUMPI DUP1 PUSH4 0xF2FDE38B EQ PUSH2 0x38C JUMPI DUP1 PUSH4 0xF8273DCD EQ PUSH2 0x3A8 JUMPI PUSH2 0x121 JUMP JUMPDEST DUP1 PUSH4 0x70A08231 EQ PUSH2 0x26A JUMPI DUP1 PUSH4 0x715018A6 EQ PUSH2 0x29A JUMPI DUP1 PUSH4 0x8DA5CB5B EQ PUSH2 0x2A4 JUMPI DUP1 PUSH4 0x95D89B41 EQ PUSH2 0x2C2 JUMPI DUP1 PUSH4 0xA457C2D7 EQ PUSH2 0x2E0 JUMPI PUSH2 0x121 JUMP JUMPDEST DUP1 PUSH4 0x2E0F2625 GT PUSH2 0xF4 JUMPI DUP1 PUSH4 0x2E0F2625 EQ PUSH2 0x1C2 JUMPI DUP1 PUSH4 0x2FF2E9DC EQ PUSH2 0x1E0 JUMPI DUP1 PUSH4 0x313CE567 EQ PUSH2 0x1FE JUMPI DUP1 PUSH4 0x32CB6B0C EQ PUSH2 0x21C JUMPI DUP1 PUSH4 0x39509351 EQ PUSH2 0x23A JUMPI PUSH2 0x121 JUMP JUMPDEST DUP1 PUSH4 0x6FDDE03 EQ PUSH2 0x126 JUMPI DUP1 PUSH4 0x95EA7B3 EQ PUSH2 0x144 JUMPI DUP1 PUSH4 0x18160DDD EQ PUSH2 0x174 JUMPI DUP1 PUSH4 0x23B872DD EQ PUSH2 0x192 JUMPI JUMPDEST PUSH1 0x0 DUP1 REVERT JUMPDEST PUSH2 0x12E PUSH2 0x3C4 JUMP JUMPDEST PUSH1 0x40 MLOAD PUSH2 0x13B SWAP2 SWAP1 PUSH2 0x11C8 JUMP JUMPDEST PUSH1 0x40 MLOAD DUP1 SWAP2 SUB SWAP1 RETURN JUMPDEST PUSH2 0x15E PUSH1 0x4 DUP1 CALLDATASIZE SUB DUP2 ADD SWAP1 PUSH2 0x159 SWAP2 SWAP1 PUSH2 0x1283 JUMP JUMPDEST PUSH2 0x456 JUMP JUMPDEST PUSH1 0x40 MLOAD PUSH2 0x16B SWAP2 SWAP1 PUSH2 0x12DE JUMP JUMPDEST PUSH1 0x40 MLOAD DUP1 SWAP2 SUB SWAP1 RETURN JUMPDEST PUSH2 0x17C PUSH2 0x479 JUMP JUMPDEST PUSH1 0x40 MLOAD PUSH2 0x189 SWAP2 SWAP1 PUSH2 0x1308 JUMP JUMPDEST PUSH1 0x40 MLOAD DUP1 SWAP2 SUB SWAP1 RETURN JUMPDEST PUSH2 0x1AC PUSH1 0x4 DUP1 CALLDATASIZE SUB DUP2 ADD SWAP1 PUSH2 0x1A7 SWAP2 SWAP1 PUSH2 0x1323 JUMP JUMPDEST PUSH2 0x483 JUMP JUMPDEST PUSH1 0x40 MLOAD PUSH2 0x1B9 SWAP2 SWAP1 PUSH2 0x12DE JUMP JUMPDEST PUSH1 0x40 MLOAD DUP1 SWAP2 SUB SWAP1 RETURN JUMPDEST PUSH2 0x1CA PUSH2 0x4B2 JUMP JUMPDEST PUSH1 0x40 MLOAD PUSH2 0x1D7 SWAP2 SWAP1 PUSH2 0x1392 JUMP JUMPDEST PUSH1 0x40 MLOAD DUP1 SWAP2 SUB SWAP1 RETURN JUMPDEST PUSH2 0x1E8 PUSH2 0x4B7 JUMP JUMPDEST PUSH1 0x40 MLOAD PUSH2 0x1F5 SWAP2 SWAP1 PUSH2 0x1308 JUMP JUMPDEST PUSH1 0x40 MLOAD DUP1 SWAP2 SUB SWAP1 RETURN JUMPDEST PUSH2 0x206 PUSH2 0x4D8 JUMP JUMPDEST PUSH1 0x40 MLOAD PUSH2 0x213 SWAP2 SWAP1 PUSH2 0x1392 JUMP JUMPDEST PUSH1 0x40 MLOAD DUP1 SWAP2 SUB SWAP1 RETURN JUMPDEST PUSH2 0x224 PUSH2 0x4E1 JUMP JUMPDEST PUSH1 0x40 MLOAD PUSH2 0x231 SWAP2 SWAP1 PUSH2 0x1308 JUMP JUMPDEST PUSH1 0x40 MLOAD DUP1 SWAP2 SUB SWAP1 RETURN JUMPDEST PUSH2 0x254 PUSH1 0x4 DUP1 CALLDATASIZE SUB DUP2 ADD SWAP1 PUSH2 0x24F SWAP2 SWAP1 PUSH2 0x1283 JUMP JUMPDEST PUSH2 0x504 JUMP JUMPDEST PUSH1 0x40 MLOAD PUSH2 0x261 SWAP2 SWAP1 PUSH2 0x12DE JUMP JUMPDEST PUSH1 0x40 MLOAD DUP1 SWAP2 SUB SWAP1 RETURN JUMPDEST PUSH2 0x284 PUSH1 0x4 DUP1 CALLDATASIZE SUB DUP2 ADD SWAP1 PUSH2 0x27F SWAP2 SWAP1 PUSH2 0x13AD JUMP JUMPDEST PUSH2 0x53B JUMP JUMPDEST PUSH1 0x40 MLOAD PUSH2 0x291 SWAP2 SWAP1 PUSH2 0x1308 JUMP JUMPDEST PUSH1 0x40 MLOAD DUP1 SWAP2 SUB SWAP1 RETURN JUMPDEST PUSH2 0x2A2 PUSH2 0x583 JUMP JUMPDEST STOP JUMPDEST PUSH2 0x2AC PUSH2 0x597 JUMP JUMPDEST PUSH1 0x40 MLOAD PUSH2 0x2B9 SWAP2 SWAP1 PUSH2 0x13E9 JUMP JUMPDEST PUSH1 0x40 MLOAD DUP1 SWAP2 SUB SWAP1 RETURN JUMPDEST PUSH2 0x2CA PUSH2 0x5C1 JUMP JUMPDEST PUSH1 0x40 MLOAD PUSH2 0x2D7 SWAP2 SWAP1 PUSH2 0x11C8 JUMP JUMPDEST PUSH1 0x40 MLOAD DUP1 SWAP2 SUB SWAP1 RETURN JUMPDEST PUSH2 0x2FA PUSH1 0x4 DUP1 CALLDATASIZE SUB DUP2 ADD SWAP1 PUSH2 0x2F5 SWAP2 SWAP1 PUSH2 0x1283 JUMP JUMPDEST PUSH2 0x653 JUMP JUMPDEST PUSH1 0x40 MLOAD PUSH2 0x307 SWAP2 SWAP1 PUSH2 0x12DE JUMP JUMPDEST PUSH1 0x40 MLOAD DUP1 SWAP2 SUB SWAP1 RETURN JUMPDEST PUSH2 0x32A PUSH1 0x4 DUP1 CALLDATASIZE SUB DUP2 ADD SWAP1 PUSH2 0x325 SWAP2 SWAP1 PUSH2 0x1283 JUMP JUMPDEST PUSH2 0x6CA JUMP JUMPDEST PUSH1 0x40 MLOAD PUSH2 0x337 SWAP2 SWAP1 PUSH2 0x12DE JUMP JUMPDEST PUSH1 0x40 MLOAD DUP1 SWAP2 SUB SWAP1 RETURN JUMPDEST PUSH2 0x35A PUSH1 0x4 DUP1 CALLDATASIZE SUB DUP2 ADD SWAP1 PUSH2 0x355 SWAP2 SWAP1 PUSH2 0x13AD JUMP JUMPDEST PUSH2 0x6ED JUMP JUMPDEST STOP JUMPDEST PUSH2 0x376 PUSH1 0x4 DUP1 CALLDATASIZE SUB DUP2 ADD SWAP1 PUSH2 0x371 SWAP2 SWAP1 PUSH2 0x1404 JUMP JUMPDEST PUSH2 0x739 JUMP JUMPDEST PUSH1 0x40 MLOAD PUSH2 0x383 SWAP2 SWAP1 PUSH2 0x1308 JUMP JUMPDEST PUSH1 0x40 MLOAD DUP1 SWAP2 SUB SWAP1 RETURN JUMPDEST PUSH2 0x3A6 PUSH1 0x4 DUP1 CALLDATASIZE SUB DUP2 ADD SWAP1 PUSH2 0x3A1 SWAP2 SWAP1 PUSH2 0x13AD JUMP JUMPDEST PUSH2 0x7C0 JUMP JUMPDEST STOP JUMPDEST PUSH2 0x3C2 PUSH1 0x4 DUP1 CALLDATASIZE SUB DUP2 ADD SWAP1 PUSH2 0x3BD SWAP2 SWAP1 PUSH2 0x1283 JUMP JUMPDEST PUSH2 0x843 JUMP JUMPDEST STOP JUMPDEST PUSH1 0x60 PUSH1 0x3 DUP1 SLOAD PUSH2 0x3D3 SWAP1 PUSH2 0x1473 JUMP JUMPDEST DUP1 PUSH1 0x1F ADD PUSH1 0x20 DUP1 SWAP2 DIV MUL PUSH1 0x20 ADD PUSH1 0x40 MLOAD SWAP1 DUP2 ADD PUSH1 0x40 MSTORE DUP1 SWAP3 SWAP2 SWAP1 DUP2 DUP2 MSTORE PUSH1 0x20 ADD DUP3 DUP1 SLOAD PUSH2 0x3FF SWAP1 PUSH2 0x1473 JUMP JUMPDEST DUP1 ISZERO PUSH2 0x44C JUMPI DUP1 PUSH1 0x1F LT PUSH2 0x421 JUMPI PUSH2 0x100 DUP1 DUP4 SLOAD DIV MUL DUP4 MSTORE SWAP2 PUSH1 0x20 ADD SWAP2 PUSH2 0x44C JUMP JUMPDEST DUP3 ADD SWAP2 SWAP1 PUSH1 0x0 MSTORE PUSH1 0x20 PUSH1 0x0 KECCAK256 SWAP1 JUMPDEST DUP2 SLOAD DUP2 MSTORE SWAP1 PUSH1 0x1 ADD SWAP1 PUSH1 0x20 ADD DUP1 DUP4 GT PUSH2 0x42F JUMPI DUP3 SWAP1 SUB PUSH1 0x1F AND DUP3 ADD SWAP2 JUMPDEST POP POP POP POP POP SWAP1 POP SWAP1 JUMP JUMPDEST PUSH1 0x0 DUP1 PUSH2 0x461 PUSH2 0x9AF JUMP JUMPDEST SWAP1 POP PUSH2 0x46E DUP2 DUP6 DUP6 PUSH2 0x9B7 JUMP JUMPDEST PUSH1 0x1 SWAP2 POP POP SWAP3 SWAP2 POP POP JUMP JUMPDEST PUSH1 0x0 PUSH1 0x2 SLOAD SWAP1 POP SWAP1 JUMP JUMPDEST PUSH1 0x0 DUP1 PUSH2 0x48E PUSH2 0x9AF JUMP JUMPDEST SWAP1 POP PUSH2 0x49B DUP6 DUP3 DUP6 PUSH2 0xB80 JUMP JUMPDEST PUSH2 0x4A6 DUP6 DUP6 DUP6 PUSH2 0xC0C JUMP JUMPDEST PUSH1 0x1 SWAP2 POP POP SWAP4 SWAP3 POP POP POP JUMP JUMPDEST PUSH1 0x12 DUP2 JUMP JUMPDEST PUSH1 0x12 PUSH1 0xFF AND PUSH1 0xA PUSH2 0x4C8 SWAP2 SWAP1 PUSH2 0x1606 JUMP JUMPDEST PUSH2 0x2710 PUSH2 0x4D5 SWAP2 SWAP1 PUSH2 0x1651 JUMP JUMPDEST DUP2 JUMP JUMPDEST PUSH1 0x0 PUSH1 0x12 SWAP1 POP SWAP1 JUMP JUMPDEST PUSH1 0x12 PUSH1 0xFF AND PUSH1 0xA PUSH2 0x4F2 SWAP2 SWAP1 PUSH2 0x1606 JUMP JUMPDEST PUSH4 0xB2D05E00 PUSH2 0x501 SWAP2 SWAP1 PUSH2 0x1651 JUMP JUMPDEST DUP2 JUMP JUMPDEST PUSH1 0x0 DUP1 PUSH2 0x50F PUSH2 0x9AF JUMP JUMPDEST SWAP1 POP PUSH2 0x530 DUP2 DUP6 DUP6 PUSH2 0x521 DUP6 DUP10 PUSH2 0x739 JUMP JUMPDEST PUSH2 0x52B SWAP2 SWAP1 PUSH2 0x1693 JUMP JUMPDEST PUSH2 0x9B7 JUMP JUMPDEST PUSH1 0x1 SWAP2 POP POP SWAP3 SWAP2 POP POP JUMP JUMPDEST PUSH1 0x0 DUP1 PUSH1 0x0 DUP4 PUSH20 0xFFFFFFFFFFFFFFFFFFFFFFFFFFFFFFFFFFFFFFFF AND PUSH20 0xFFFFFFFFFFFFFFFFFFFFFFFFFFFFFFFFFFFFFFFF AND DUP2 MSTORE PUSH1 0x20 ADD SWAP1 DUP2 MSTORE PUSH1 0x20 ADD PUSH1 0x0 KECCAK256 SLOAD SWAP1 POP SWAP2 SWAP1 POP JUMP JUMPDEST PUSH2 0x58B PUSH2 0xE8B JUMP JUMPDEST PUSH2 0x595 PUSH1 0x0 PUSH2 0xF09 JUMP JUMPDEST JUMP JUMPDEST PUSH1 0x0 PUSH1 0x5 PUSH1 0x0 SWAP1 SLOAD SWAP1 PUSH2 0x100 EXP SWAP1 DIV PUSH20 0xFFFFFFFFFFFFFFFFFFFFFFFFFFFFFFFFFFFFFFFF AND SWAP1 POP SWAP1 JUMP JUMPDEST PUSH1 0x60 PUSH1 0x4 DUP1 SLOAD PUSH2 0x5D0 SWAP1 PUSH2 0x1473 JUMP JUMPDEST DUP1 PUSH1 0x1F ADD PUSH1 0x20 DUP1 SWAP2 DIV MUL PUSH1 0x20 ADD PUSH1 0x40 MLOAD SWAP1 DUP2 ADD PUSH1 0x40 MSTORE DUP1 SWAP3 SWAP2 SWAP1 DUP2 DUP2 MSTORE PUSH1 0x20 ADD DUP3 DUP1 SLOAD PUSH2 0x5FC SWAP1 PUSH2 0x1473 JUMP JUMPDEST DUP1 ISZERO PUSH2 0x649 JUMPI DUP1 PUSH1 0x1F LT PUSH2 0x61E JUMPI PUSH2 0x100 DUP1 DUP4 SLOAD DIV MUL DUP4 MSTORE SWAP2 PUSH1 0x20 ADD SWAP2 PUSH2 0x649 JUMP JUMPDEST DUP3 ADD SWAP2 SWAP1 PUSH1 0x0 MSTORE PUSH1 0x20 PUSH1 0x0 KECCAK256 SWAP1 JUMPDEST DUP2 SLOAD DUP2 MSTORE SWAP1 PUSH1 0x1 ADD SWAP1 PUSH1 0x20 ADD DUP1 DUP4 GT PUSH2 0x62C JUMPI DUP3 SWAP1 SUB PUSH1 0x1F AND DUP3 ADD SWAP2 JUMPDEST POP POP POP POP POP SWAP1 POP SWAP1 JUMP JUMPDEST PUSH1 0x0 DUP1 PUSH2 0x65E PUSH2 0x9AF JUMP JUMPDEST SWAP1 POP PUSH1 0x0 PUSH2 0x66C DUP3 DUP7 PUSH2 0x739 JUMP JUMPDEST SWAP1 POP DUP4 DUP2 LT ISZERO PUSH2 0x6B1 JUMPI PUSH1 0x40 MLOAD PUSH32 0x8C379A000000000000000000000000000000000000000000000000000000000 DUP2 MSTORE PUSH1 0x4 ADD PUSH2 0x6A8 SWAP1 PUSH2 0x1739 JUMP JUMPDEST PUSH1 0x40 MLOAD DUP1 SWAP2 SUB SWAP1 REVERT JUMPDEST PUSH2 0x6BE DUP3 DUP7 DUP7 DUP5 SUB PUSH2 0x9B7 JUMP JUMPDEST PUSH1 0x1 SWAP3 POP POP POP SWAP3 SWAP2 POP POP JUMP JUMPDEST PUSH1 0x0 DUP1 PUSH2 0x6D5 PUSH2 0x9AF JUMP JUMPDEST SWAP1 POP PUSH2 0x6E2 DUP2 DUP6 DUP6 PUSH2 0xC0C JUMP JUMPDEST PUSH1 0x1 SWAP2 POP POP SWAP3 SWAP2 POP POP JUMP JUMPDEST PUSH2 0x6F5 PUSH2 0xE8B JUMP JUMPDEST DUP1 PUSH1 0x7 PUSH1 0x0 PUSH2 0x100 EXP DUP2 SLOAD DUP2 PUSH20 0xFFFFFFFFFFFFFFFFFFFFFFFFFFFFFFFFFFFFFFFF MUL NOT AND SWAP1 DUP4 PUSH20 0xFFFFFFFFFFFFFFFFFFFFFFFFFFFFFFFFFFFFFFFF AND MUL OR SWAP1 SSTORE POP POP JUMP JUMPDEST PUSH1 0x0 PUSH1 0x1 PUSH1 0x0 DUP5 PUSH20 0xFFFFFFFFFFFFFFFFFFFFFFFFFFFFFFFFFFFFFFFF AND PUSH20 0xFFFFFFFFFFFFFFFFFFFFFFFFFFFFFFFFFFFFFFFF AND DUP2 MSTORE PUSH1 0x20 ADD SWAP1 DUP2 MSTORE PUSH1 0x20 ADD PUSH1 0x0 KECCAK256 PUSH1 0x0 DUP4 PUSH20 0xFFFFFFFFFFFFFFFFFFFFFFFFFFFFFFFFFFFFFFFF AND PUSH20 0xFFFFFFFFFFFFFFFFFFFFFFFFFFFFFFFFFFFFFFFF AND DUP2 MSTORE PUSH1 0x20 ADD SWAP1 DUP2 MSTORE PUSH1 0x20 ADD PUSH1 0x0 KECCAK256 SLOAD SWAP1 POP SWAP3 SWAP2 POP POP JUMP JUMPDEST PUSH2 0x7C8 PUSH2 0xE8B JUMP JUMPDEST PUSH1 0x0 PUSH20 0xFFFFFFFFFFFFFFFFFFFFFFFFFFFFFFFFFFFFFFFF AND DUP2 PUSH20 0xFFFFFFFFFFFFFFFFFFFFFFFFFFFFFFFFFFFFFFFF AND SUB PUSH2 0x837 JUMPI PUSH1 0x40 MLOAD PUSH32 0x8C379A000000000000000000000000000000000000000000000000000000000 DUP2 MSTORE PUSH1 0x4 ADD PUSH2 0x82E SWAP1 PUSH2 0x17CB JUMP JUMPDEST PUSH1 0x40 MLOAD DUP1 SWAP2 SUB SWAP1 REVERT JUMPDEST PUSH2 0x840 DUP2 PUSH2 0xF09 JUMP JUMPDEST POP JUMP JUMPDEST PUSH1 0x6 PUSH1 0x0 SWAP1 SLOAD SWAP1 PUSH2 0x100 EXP SWAP1 DIV PUSH20 0xFFFFFFFFFFFFFFFFFFFFFFFFFFFFFFFFFFFFFFFF AND PUSH20 0xFFFFFFFFFFFFFFFFFFFFFFFFFFFFFFFFFFFFFFFF AND CALLER PUSH20 0xFFFFFFFFFFFFFFFFFFFFFFFFFFFFFFFFFFFFFFFF AND EQ DUP1 PUSH2 0x8EC JUMPI POP PUSH1 0x7 PUSH1 0x0 SWAP1 SLOAD SWAP1 PUSH2 0x100 EXP SWAP1 DIV PUSH20 0xFFFFFFFFFFFFFFFFFFFFFFFFFFFFFFFFFFFFFFFF AND PUSH20 0xFFFFFFFFFFFFFFFFFFFFFFFFFFFFFFFFFFFFFFFF AND CALLER PUSH20 0xFFFFFFFFFFFFFFFFFFFFFFFFFFFFFFFFFFFFFFFF AND EQ JUMPDEST PUSH2 0x92B JUMPI PUSH1 0x40 MLOAD PUSH32 0x8C379A000000000000000000000000000000000000000000000000000000000 DUP2 MSTORE PUSH1 0x4 ADD PUSH2 0x922 SWAP1 PUSH2 0x1837 JUMP JUMPDEST PUSH1 0x40 MLOAD DUP1 SWAP2 SUB SWAP1 REVERT JUMPDEST DUP1 PUSH1 0x12 PUSH1 0xFF AND PUSH1 0xA PUSH2 0x93D SWAP2 SWAP1 PUSH2 0x1606 JUMP JUMPDEST PUSH4 0xB2D05E00 PUSH2 0x94C SWAP2 SWAP1 PUSH2 0x1651 JUMP JUMPDEST DUP2 PUSH2 0x955 PUSH2 0x479 JUMP JUMPDEST PUSH2 0x95F SWAP2 SWAP1 PUSH2 0x1693 JUMP JUMPDEST LT ISZERO PUSH2 0x9A0 JUMPI PUSH1 0x40 MLOAD PUSH32 0x8C379A000000000000000000000000000000000000000000000000000000000 DUP2 MSTORE PUSH1 0x4 ADD PUSH2 0x997 SWAP1 PUSH2 0x18A3 JUMP JUMPDEST PUSH1 0x40 MLOAD DUP1 SWAP2 SUB SWAP1 REVERT JUMPDEST PUSH2 0x9AA DUP4 DUP4 PUSH2 0xFCF JUMP JUMPDEST POP POP POP JUMP JUMPDEST PUSH1 0x0 CALLER SWAP1 POP SWAP1 JUMP JUMPDEST PUSH1 0x0 PUSH20 0xFFFFFFFFFFFFFFFFFFFFFFFFFFFFFFFFFFFFFFFF AND DUP4 PUSH20 0xFFFFFFFFFFFFFFFFFFFFFFFFFFFFFFFFFFFFFFFF AND SUB PUSH2 0xA26 JUMPI PUSH1 0x40 MLOAD PUSH32 0x8C379A000000000000000000000000000000000000000000000000000000000 DUP2 MSTORE PUSH1 0x4 ADD PUSH2 0xA1D SWAP1 PUSH2 0x1935 JUMP JUMPDEST PUSH1 0x40 MLOAD DUP1 SWAP2 SUB SWAP1 REVERT JUMPDEST PUSH1 0x0 PUSH20 0xFFFFFFFFFFFFFFFFFFFFFFFFFFFFFFFFFFFFFFFF AND DUP3 PUSH20 0xFFFFFFFFFFFFFFFFFFFFFFFFFFFFFFFFFFFFFFFF AND SUB PUSH2 0xA95 JUMPI PUSH1 0x40 MLOAD PUSH32 0x8C379A000000000000000000000000000000000000000000000000000000000 DUP2 MSTORE PUSH1 0x4 ADD PUSH2 0xA8C SWAP1 PUSH2 0x19C7 JUMP JUMPDEST PUSH1 0x40 MLOAD DUP1 SWAP2 SUB SWAP1 REVERT JUMPDEST DUP1 PUSH1 0x1 PUSH1 0x0 DUP6 PUSH20 0xFFFFFFFFFFFFFFFFFFFFFFFFFFFFFFFFFFFFFFFF AND PUSH20 0xFFFFFFFFFFFFFFFFFFFFFFFFFFFFFFFFFFFFFFFF AND DUP2 MSTORE PUSH1 0x20 ADD SWAP1 DUP2 MSTORE PUSH1 0x20 ADD PUSH1 0x0 KECCAK256 PUSH1 0x0 DUP5 PUSH20 0xFFFFFFFFFFFFFFFFFFFFFFFFFFFFFFFFFFFFFFFF AND PUSH20 0xFFFFFFFFFFFFFFFFFFFFFFFFFFFFFFFFFFFFFFFF AND DUP2 MSTORE PUSH1 0x20 ADD SWAP1 DUP2 MSTORE PUSH1 0x20 ADD PUSH1 0x0 KECCAK256 DUP2 SWAP1 SSTORE POP DUP2 PUSH20 0xFFFFFFFFFFFFFFFFFFFFFFFFFFFFFFFFFFFFFFFF AND DUP4 PUSH20 0xFFFFFFFFFFFFFFFFFFFFFFFFFFFFFFFFFFFFFFFF AND PUSH32 0x8C5BE1E5EBEC7D5BD14F71427D1E84F3DD0314C0F7B2291E5B200AC8C7C3B925 DUP4 PUSH1 0x40 MLOAD PUSH2 0xB73 SWAP2 SWAP1 PUSH2 0x1308 JUMP JUMPDEST PUSH1 0x40 MLOAD DUP1 SWAP2 SUB SWAP1 LOG3 POP POP POP JUMP JUMPDEST PUSH1 0x0 PUSH2 0xB8C DUP5 DUP5 PUSH2 0x739 JUMP JUMPDEST SWAP1 POP PUSH32 0xFFFFFFFFFFFFFFFFFFFFFFFFFFFFFFFFFFFFFFFFFFFFFFFFFFFFFFFFFFFFFFFF DUP2 EQ PUSH2 0xC06 JUMPI DUP2 DUP2 LT ISZERO PUSH2 0xBF8 JUMPI PUSH1 0x40 MLOAD PUSH32 0x8C379A000000000000000000000000000000000000000000000000000000000 DUP2 MSTORE PUSH1 0x4 ADD PUSH2 0xBEF SWAP1 PUSH2 0x1A33 JUMP JUMPDEST PUSH1 0x40 MLOAD DUP1 SWAP2 SUB SWAP1 REVERT JUMPDEST PUSH2 0xC05 DUP5 DUP5 DUP5 DUP5 SUB PUSH2 0x9B7 JUMP JUMPDEST JUMPDEST POP POP POP POP JUMP JUMPDEST PUSH1 0x0 PUSH20 0xFFFFFFFFFFFFFFFFFFFFFFFFFFFFFFFFFFFFFFFF AND DUP4 PUSH20 0xFFFFFFFFFFFFFFFFFFFFFFFFFFFFFFFFFFFFFFFF AND SUB PUSH2 0xC7B JUMPI PUSH1 0x40 MLOAD PUSH32 0x8C379A000000000000000000000000000000000000000000000000000000000 DUP2 MSTORE PUSH1 0x4 ADD PUSH2 0xC72 SWAP1 PUSH2 0x1AC5 JUMP JUMPDEST PUSH1 0x40 MLOAD DUP1 SWAP2 SUB SWAP1 REVERT JUMPDEST PUSH1 0x0 PUSH20 0xFFFFFFFFFFFFFFFFFFFFFFFFFFFFFFFFFFFFFFFF AND DUP3 PUSH20 0xFFFFFFFFFFFFFFFFFFFFFFFFFFFFFFFFFFFFFFFF AND SUB PUSH2 0xCEA JUMPI PUSH1 0x40 MLOAD PUSH32 0x8C379A000000000000000000000000000000000000000000000000000000000 DUP2 MSTORE PUSH1 0x4 ADD PUSH2 0xCE1 SWAP1 PUSH2 0x1B57 JUMP JUMPDEST PUSH1 0x40 MLOAD DUP1 SWAP2 SUB SWAP1 REVERT JUMPDEST PUSH2 0xCF5 DUP4 DUP4 DUP4 PUSH2 0x112E JUMP JUMPDEST PUSH1 0x0 DUP1 PUSH1 0x0 DUP6 PUSH20 0xFFFFFFFFFFFFFFFFFFFFFFFFFFFFFFFFFFFFFFFF AND PUSH20 0xFFFFFFFFFFFFFFFFFFFFFFFFFFFFFFFFFFFFFFFF AND DUP2 MSTORE PUSH1 0x20 ADD SWAP1 DUP2 MSTORE PUSH1 0x20 ADD PUSH1 0x0 KECCAK256 SLOAD SWAP1 POP DUP2 DUP2 LT ISZERO PUSH2 0xD7B JUMPI PUSH1 0x40 MLOAD PUSH32 0x8C379A000000000000000000000000000000000000000000000000000000000 DUP2 MSTORE PUSH1 0x4 ADD PUSH2 0xD72 SWAP1 PUSH2 0x1BE9 JUMP JUMPDEST PUSH1 0x40 MLOAD DUP1 SWAP2 SUB SWAP1 REVERT JUMPDEST DUP2 DUP2 SUB PUSH1 0x0 DUP1 DUP7 PUSH20 0xFFFFFFFFFFFFFFFFFFFFFFFFFFFFFFFFFFFFFFFF AND PUSH20 0xFFFFFFFFFFFFFFFFFFFFFFFFFFFFFFFFFFFFFFFF AND DUP2 MSTORE PUSH1 0x20 ADD SWAP1 DUP2 MSTORE PUSH1 0x20 ADD PUSH1 0x0 KECCAK256 DUP2 SWAP1 SSTORE POP DUP2 PUSH1 0x0 DUP1 DUP6 PUSH20 0xFFFFFFFFFFFFFFFFFFFFFFFFFFFFFFFFFFFFFFFF AND PUSH20 0xFFFFFFFFFFFFFFFFFFFFFFFFFFFFFFFFFFFFFFFF AND DUP2 MSTORE PUSH1 0x20 ADD SWAP1 DUP2 MSTORE PUSH1 0x20 ADD PUSH1 0x0 KECCAK256 PUSH1 0x0 DUP3 DUP3 SLOAD PUSH2 0xE0E SWAP2 SWAP1 PUSH2 0x1693 JUMP JUMPDEST SWAP3 POP POP DUP2 SWAP1 SSTORE POP DUP3 PUSH20 0xFFFFFFFFFFFFFFFFFFFFFFFFFFFFFFFFFFFFFFFF AND DUP5 PUSH20 0xFFFFFFFFFFFFFFFFFFFFFFFFFFFFFFFFFFFFFFFF AND PUSH32 0xDDF252AD1BE2C89B69C2B068FC378DAA952BA7F163C4A11628F55A4DF523B3EF DUP5 PUSH1 0x40 MLOAD PUSH2 0xE72 SWAP2 SWAP1 PUSH2 0x1308 JUMP JUMPDEST PUSH1 0x40 MLOAD DUP1 SWAP2 SUB SWAP1 LOG3 PUSH2 0xE85 DUP5 DUP5 DUP5 PUSH2 0x1133 JUMP JUMPDEST POP POP POP POP JUMP JUMPDEST PUSH2 0xE93 PUSH2 0x9AF JUMP JUMPDEST PUSH20 0xFFFFFFFFFFFFFFFFFFFFFFFFFFFFFFFFFFFFFFFF AND PUSH2 0xEB1 PUSH2 0x597 JUMP JUMPDEST PUSH20 0xFFFFFFFFFFFFFFFFFFFFFFFFFFFFFFFFFFFFFFFF AND EQ PUSH2 0xF07 JUMPI PUSH1 0x40 MLOAD PUSH32 0x8C379A000000000000000000000000000000000000000000000000000000000 DUP2 MSTORE PUSH1 0x4 ADD PUSH2 0xEFE SWAP1 PUSH2 0x1C55 JUMP JUMPDEST PUSH1 0x40 MLOAD DUP1 SWAP2 SUB SWAP1 REVERT JUMPDEST JUMP JUMPDEST PUSH1 0x0 PUSH1 0x5 PUSH1 0x0 SWAP1 SLOAD SWAP1 PUSH2 0x100 EXP SWAP1 DIV PUSH20 0xFFFFFFFFFFFFFFFFFFFFFFFFFFFFFFFFFFFFFFFF AND SWAP1 POP DUP2 PUSH1 0x5 PUSH1 0x0 PUSH2 0x100 EXP DUP2 SLOAD DUP2 PUSH20 0xFFFFFFFFFFFFFFFFFFFFFFFFFFFFFFFFFFFFFFFF MUL NOT AND SWAP1 DUP4 PUSH20 0xFFFFFFFFFFFFFFFFFFFFFFFFFFFFFFFFFFFFFFFF AND MUL OR SWAP1 SSTORE POP DUP2 PUSH20 0xFFFFFFFFFFFFFFFFFFFFFFFFFFFFFFFFFFFFFFFF AND DUP2 PUSH20 0xFFFFFFFFFFFFFFFFFFFFFFFFFFFFFFFFFFFFFFFF AND PUSH32 0x8BE0079C531659141344CD1FD0A4F28419497F9722A3DAAFE3B4186F6B6457E0 PUSH1 0x40 MLOAD PUSH1 0x40 MLOAD DUP1 SWAP2 SUB SWAP1 LOG3 POP POP JUMP JUMPDEST PUSH1 0x0 PUSH20 0xFFFFFFFFFFFFFFFFFFFFFFFFFFFFFFFFFFFFFFFF AND DUP3 PUSH20 0xFFFFFFFFFFFFFFFFFFFFFFFFFFFFFFFFFFFFFFFF AND SUB PUSH2 0x103E JUMPI PUSH1 0x40 MLOAD PUSH32 0x8C379A000000000000000000000000000000000000000000000000000000000 DUP2 MSTORE PUSH1 0x4 ADD PUSH2 0x1035 SWAP1 PUSH2 0x1CC1 JUMP JUMPDEST PUSH1 0x40 MLOAD DUP1 SWAP2 SUB SWAP1 REVERT JUMPDEST PUSH2 0x104A PUSH1 0x0 DUP4 DUP4 PUSH2 0x112E JUMP JUMPDEST DUP1 PUSH1 0x2 PUSH1 0x0 DUP3 DUP3 SLOAD PUSH2 0x105C SWAP2 SWAP1 PUSH2 0x1693 JUMP JUMPDEST SWAP3 POP POP DUP2 SWAP1 SSTORE POP DUP1 PUSH1 0x0 DUP1 DUP5 PUSH20 0xFFFFFFFFFFFFFFFFFFFFFFFFFFFFFFFFFFFFFFFF AND PUSH20 0xFFFFFFFFFFFFFFFFFFFFFFFFFFFFFFFFFFFFFFFF AND DUP2 MSTORE PUSH1 0x20 ADD SWAP1 DUP2 MSTORE PUSH1 0x20 ADD PUSH1 0x0 KECCAK256 PUSH1 0x0 DUP3 DUP3 SLOAD PUSH2 0x10B1 SWAP2 SWAP1 PUSH2 0x1693 JUMP JUMPDEST SWAP3 POP POP DUP2 SWAP1 SSTORE POP DUP2 PUSH20 0xFFFFFFFFFFFFFFFFFFFFFFFFFFFFFFFFFFFFFFFF AND PUSH1 0x0 PUSH20 0xFFFFFFFFFFFFFFFFFFFFFFFFFFFFFFFFFFFFFFFF AND PUSH32 0xDDF252AD1BE2C89B69C2B068FC378DAA952BA7F163C4A11628F55A4DF523B3EF DUP4 PUSH1 0x40 MLOAD PUSH2 0x1116 SWAP2 SWAP1 PUSH2 0x1308 JUMP JUMPDEST PUSH1 0x40 MLOAD DUP1 SWAP2 SUB SWAP1 LOG3 PUSH2 0x112A PUSH1 0x0 DUP4 DUP4 PUSH2 0x1133 JUMP JUMPDEST POP POP JUMP JUMPDEST POP POP POP JUMP JUMPDEST POP POP POP JUMP JUMPDEST PUSH1 0x0 DUP2 MLOAD SWAP1 POP SWAP2 SWAP1 POP JUMP JUMPDEST PUSH1 0x0 DUP3 DUP3 MSTORE PUSH1 0x20 DUP3 ADD SWAP1 POP SWAP3 SWAP2 POP POP JUMP JUMPDEST PUSH1 0x0 JUMPDEST DUP4 DUP2 LT ISZERO PUSH2 0x1172 JUMPI DUP1 DUP3 ADD MLOAD DUP2 DUP5 ADD MSTORE PUSH1 0x20 DUP2 ADD SWAP1 POP PUSH2 0x1157 JUMP JUMPDEST PUSH1 0x0 DUP5 DUP5 ADD MSTORE POP POP POP POP JUMP JUMPDEST PUSH1 0x0 PUSH1 0x1F NOT PUSH1 0x1F DUP4 ADD AND SWAP1 POP SWAP2 SWAP1 POP JUMP JUMPDEST PUSH1 0x0 PUSH2 0x119A DUP3 PUSH2 0x1138 JUMP JUMPDEST PUSH2 0x11A4 DUP2 DUP6 PUSH2 0x1143 JUMP JUMPDEST SWAP4 POP PUSH2 0x11B4 DUP2 DUP6 PUSH1 0x20 DUP7 ADD PUSH2 0x1154 JUMP JUMPDEST PUSH2 0x11BD DUP2 PUSH2 0x117E JUMP JUMPDEST DUP5 ADD SWAP2 POP POP SWAP3 SWAP2 POP POP JUMP JUMPDEST PUSH1 0x0 PUSH1 0x20 DUP3 ADD SWAP1 POP DUP2 DUP2 SUB PUSH1 0x0 DUP4 ADD MSTORE PUSH2 0x11E2 DUP2 DUP5 PUSH2 0x118F JUMP JUMPDEST SWAP1 POP SWAP3 SWAP2 POP POP JUMP JUMPDEST PUSH1 0x0 DUP1 REVERT JUMPDEST PUSH1 0x0 PUSH20 0xFFFFFFFFFFFFFFFFFFFFFFFFFFFFFFFFFFFFFFFF DUP3 AND SWAP1 POP SWAP2 SWAP1 POP JUMP JUMPDEST PUSH1 0x0 PUSH2 0x121A DUP3 PUSH2 0x11EF JUMP JUMPDEST SWAP1 POP SWAP2 SWAP1 POP JUMP JUMPDEST PUSH2 0x122A DUP2 PUSH2 0x120F JUMP JUMPDEST DUP2 EQ PUSH2 0x1235 JUMPI PUSH1 0x0 DUP1 REVERT JUMPDEST POP JUMP JUMPDEST PUSH1 0x0 DUP2 CALLDATALOAD SWAP1 POP PUSH2 0x1247 DUP2 PUSH2 0x1221 JUMP JUMPDEST SWAP3 SWAP2 POP POP JUMP JUMPDEST PUSH1 0x0 DUP2 SWAP1 POP SWAP2 SWAP1 POP JUMP JUMPDEST PUSH2 0x1260 DUP2 PUSH2 0x124D JUMP JUMPDEST DUP2 EQ PUSH2 0x126B JUMPI PUSH1 0x0 DUP1 REVERT JUMPDEST POP JUMP JUMPDEST PUSH1 0x0 DUP2 CALLDATALOAD SWAP1 POP PUSH2 0x127D DUP2 PUSH2 0x1257 JUMP JUMPDEST SWAP3 SWAP2 POP POP JUMP JUMPDEST PUSH1 0x0 DUP1 PUSH1 0x40 DUP4 DUP6 SUB SLT ISZERO PUSH2 0x129A JUMPI PUSH2 0x1299 PUSH2 0x11EA JUMP JUMPDEST JUMPDEST PUSH1 0x0 PUSH2 0x12A8 DUP6 DUP3 DUP7 ADD PUSH2 0x1238 JUMP JUMPDEST SWAP3 POP POP PUSH1 0x20 PUSH2 0x12B9 DUP6 DUP3 DUP7 ADD PUSH2 0x126E JUMP JUMPDEST SWAP2 POP POP SWAP3 POP SWAP3 SWAP1 POP JUMP JUMPDEST PUSH1 0x0 DUP2 ISZERO ISZERO SWAP1 POP SWAP2 SWAP1 POP JUMP JUMPDEST PUSH2 0x12D8 DUP2 PUSH2 0x12C3 JUMP JUMPDEST DUP3 MSTORE POP POP JUMP JUMPDEST PUSH1 0x0 PUSH1 0x20 DUP3 ADD SWAP1 POP PUSH2 0x12F3 PUSH1 0x0 DUP4 ADD DUP5 PUSH2 0x12CF JUMP JUMPDEST SWAP3 SWAP2 POP POP JUMP JUMPDEST PUSH2 0x1302 DUP2 PUSH2 0x124D JUMP JUMPDEST DUP3 MSTORE POP POP JUMP JUMPDEST PUSH1 0x0 PUSH1 0x20 DUP3 ADD SWAP1 POP PUSH2 0x131D PUSH1 0x0 DUP4 ADD DUP5 PUSH2 0x12F9 JUMP JUMPDEST SWAP3 SWAP2 POP POP JUMP JUMPDEST PUSH1 0x0 DUP1 PUSH1 0x0 PUSH1 0x60 DUP5 DUP7 SUB SLT ISZERO PUSH2 0x133C JUMPI PUSH2 0x133B PUSH2 0x11EA JUMP JUMPDEST JUMPDEST PUSH1 0x0 PUSH2 0x134A DUP7 DUP3 DUP8 ADD PUSH2 0x1238 JUMP JUMPDEST SWAP4 POP POP PUSH1 0x20 PUSH2 0x135B DUP7 DUP3 DUP8 ADD PUSH2 0x1238 JUMP JUMPDEST SWAP3 POP POP PUSH1 0x40 PUSH2 0x136C DUP7 DUP3 DUP8 ADD PUSH2 0x126E JUMP JUMPDEST SWAP2 POP POP SWAP3 POP SWAP3 POP SWAP3 JUMP JUMPDEST PUSH1 0x0 PUSH1 0xFF DUP3 AND SWAP1 POP SWAP2 SWAP1 POP JUMP JUMPDEST PUSH2 0x138C DUP2 PUSH2 0x1376 JUMP JUMPDEST DUP3 MSTORE POP POP JUMP JUMPDEST PUSH1 0x0 PUSH1 0x20 DUP3 ADD SWAP1 POP PUSH2 0x13A7 PUSH1 0x0 DUP4 ADD DUP5 PUSH2 0x1383 JUMP JUMPDEST SWAP3 SWAP2 POP POP JUMP JUMPDEST PUSH1 0x0 PUSH1 0x20 DUP3 DUP5 SUB SLT ISZERO PUSH2 0x13C3 JUMPI PUSH2 0x13C2 PUSH2 0x11EA JUMP JUMPDEST JUMPDEST PUSH1 0x0 PUSH2 0x13D1 DUP5 DUP3 DUP6 ADD PUSH2 0x1238 JUMP JUMPDEST SWAP2 POP POP SWAP3 SWAP2 POP POP JUMP JUMPDEST PUSH2 0x13E3 DUP2 PUSH2 0x120F JUMP JUMPDEST DUP3 MSTORE POP POP JUMP JUMPDEST PUSH1 0x0 PUSH1 0x20 DUP3 ADD SWAP1 POP PUSH2 0x13FE PUSH1 0x0 DUP4 ADD DUP5 PUSH2 0x13DA JUMP JUMPDEST SWAP3 SWAP2 POP POP JUMP JUMPDEST PUSH1 0x0 DUP1 PUSH1 0x40 DUP4 DUP6 SUB SLT ISZERO PUSH2 0x141B JUMPI PUSH2 0x141A PUSH2 0x11EA JUMP JUMPDEST JUMPDEST PUSH1 0x0 PUSH2 0x1429 DUP6 DUP3 DUP7 ADD PUSH2 0x1238 JUMP JUMPDEST SWAP3 POP POP PUSH1 0x20 PUSH2 0x143A DUP6 DUP3 DUP7 ADD PUSH2 0x1238 JUMP JUMPDEST SWAP2 POP POP SWAP3 POP SWAP3 SWAP1 POP JUMP JUMPDEST PUSH32 0x4E487B7100000000000000000000000000000000000000000000000000000000 PUSH1 0x0 MSTORE PUSH1 0x22 PUSH1 0x4 MSTORE PUSH1 0x24 PUSH1 0x0 REVERT JUMPDEST PUSH1 0x0 PUSH1 0x2 DUP3 DIV SWAP1 POP PUSH1 0x1 DUP3 AND DUP1 PUSH2 0x148B JUMPI PUSH1 0x7F DUP3 AND SWAP2 POP JUMPDEST PUSH1 0x20 DUP3 LT DUP2 SUB PUSH2 0x149E JUMPI PUSH2 0x149D PUSH2 0x1444 JUMP JUMPDEST JUMPDEST POP SWAP2 SWAP1 POP JUMP JUMPDEST PUSH32 0x4E487B7100000000000000000000000000000000000000000000000000000000 PUSH1 0x0 MSTORE PUSH1 0x11 PUSH1 0x4 MSTORE PUSH1 0x24 PUSH1 0x0 REVERT JUMPDEST PUSH1 0x0 DUP2 PUSH1 0x1 SHR SWAP1 POP SWAP2 SWAP1 POP JUMP JUMPDEST PUSH1 0x0 DUP1 DUP3 SWAP2 POP DUP4 SWAP1 POP JUMPDEST PUSH1 0x1 DUP6 GT ISZERO PUSH2 0x152A JUMPI DUP1 DUP7 DIV DUP2 GT ISZERO PUSH2 0x1506 JUMPI PUSH2 0x1505 PUSH2 0x14A4 JUMP JUMPDEST JUMPDEST PUSH1 0x1 DUP6 AND ISZERO PUSH2 0x1515 JUMPI DUP1 DUP3 MUL SWAP2 POP JUMPDEST DUP1 DUP2 MUL SWAP1 POP PUSH2 0x1523 DUP6 PUSH2 0x14D3 JUMP JUMPDEST SWAP5 POP PUSH2 0x14EA JUMP JUMPDEST SWAP5 POP SWAP5 SWAP3 POP POP POP JUMP JUMPDEST PUSH1 0x0 DUP3 PUSH2 0x1543 JUMPI PUSH1 0x1 SWAP1 POP PUSH2 0x15FF JUMP JUMPDEST DUP2 PUSH2 0x1551 JUMPI PUSH1 0x0 SWAP1 POP PUSH2 0x15FF JUMP JUMPDEST DUP2 PUSH1 0x1 DUP2 EQ PUSH2 0x1567 JUMPI PUSH1 0x2 DUP2 EQ PUSH2 0x1571 JUMPI PUSH2 0x15A0 JUMP JUMPDEST PUSH1 0x1 SWAP2 POP POP PUSH2 0x15FF JUMP JUMPDEST PUSH1 0xFF DUP5 GT ISZERO PUSH2 0x1583 JUMPI PUSH2 0x1582 PUSH2 0x14A4 JUMP JUMPDEST JUMPDEST DUP4 PUSH1 0x2 EXP SWAP2 POP DUP5 DUP3 GT ISZERO PUSH2 0x159A JUMPI PUSH2 0x1599 PUSH2 0x14A4 JUMP JUMPDEST JUMPDEST POP PUSH2 0x15FF JUMP JUMPDEST POP PUSH1 0x20 DUP4 LT PUSH2 0x133 DUP4 LT AND PUSH1 0x4E DUP5 LT PUSH1 0xB DUP5 LT AND OR ISZERO PUSH2 0x15D5 JUMPI DUP3 DUP3 EXP SWAP1 POP DUP4 DUP2 GT ISZERO PUSH2 0x15D0 JUMPI PUSH2 0x15CF PUSH2 0x14A4 JUMP JUMPDEST JUMPDEST PUSH2 0x15FF JUMP JUMPDEST PUSH2 0x15E2 DUP5 DUP5 DUP5 PUSH1 0x1 PUSH2 0x14E0 JUMP JUMPDEST SWAP3 POP SWAP1 POP DUP2 DUP5 DIV DUP2 GT ISZERO PUSH2 0x15F9 JUMPI PUSH2 0x15F8 PUSH2 0x14A4 JUMP JUMPDEST JUMPDEST DUP2 DUP2 MUL SWAP1 POP JUMPDEST SWAP4 SWAP3 POP POP POP JUMP JUMPDEST PUSH1 0x0 PUSH2 0x1611 DUP3 PUSH2 0x124D JUMP JUMPDEST SWAP2 POP PUSH2 0x161C DUP4 PUSH2 0x124D JUMP JUMPDEST SWAP3 POP PUSH2 0x1649 PUSH32 0xFFFFFFFFFFFFFFFFFFFFFFFFFFFFFFFFFFFFFFFFFFFFFFFFFFFFFFFFFFFFFFFF DUP5 DUP5 PUSH2 0x1533 JUMP JUMPDEST SWAP1 POP SWAP3 SWAP2 POP POP JUMP JUMPDEST PUSH1 0x0 PUSH2 0x165C DUP3 PUSH2 0x124D JUMP JUMPDEST SWAP2 POP PUSH2 0x1667 DUP4 PUSH2 0x124D JUMP JUMPDEST SWAP3 POP DUP3 DUP3 MUL PUSH2 0x1675 DUP2 PUSH2 0x124D JUMP JUMPDEST SWAP2 POP DUP3 DUP3 DIV DUP5 EQ DUP4 ISZERO OR PUSH2 0x168C JUMPI PUSH2 0x168B PUSH2 0x14A4 JUMP JUMPDEST JUMPDEST POP SWAP3 SWAP2 POP POP JUMP JUMPDEST PUSH1 0x0 PUSH2 0x169E DUP3 PUSH2 0x124D JUMP JUMPDEST SWAP2 POP PUSH2 0x16A9 DUP4 PUSH2 0x124D JUMP JUMPDEST SWAP3 POP DUP3 DUP3 ADD SWAP1 POP DUP1 DUP3 GT ISZERO PUSH2 0x16C1 JUMPI PUSH2 0x16C0 PUSH2 0x14A4 JUMP JUMPDEST JUMPDEST SWAP3 SWAP2 POP POP JUMP JUMPDEST PUSH32 0x45524332303A2064656372656173656420616C6C6F77616E63652062656C6F77 PUSH1 0x0 DUP3 ADD MSTORE PUSH32 0x207A65726F000000000000000000000000000000000000000000000000000000 PUSH1 0x20 DUP3 ADD MSTORE POP JUMP JUMPDEST PUSH1 0x0 PUSH2 0x1723 PUSH1 0x25 DUP4 PUSH2 0x1143 JUMP JUMPDEST SWAP2 POP PUSH2 0x172E DUP3 PUSH2 0x16C7 JUMP JUMPDEST PUSH1 0x40 DUP3 ADD SWAP1 POP SWAP2 SWAP1 POP JUMP JUMPDEST PUSH1 0x0 PUSH1 0x20 DUP3 ADD SWAP1 POP DUP2 DUP2 SUB PUSH1 0x0 DUP4 ADD MSTORE PUSH2 0x1752 DUP2 PUSH2 0x1716 JUMP JUMPDEST SWAP1 POP SWAP2 SWAP1 POP JUMP JUMPDEST PUSH32 0x4F776E61626C653A206E6577206F776E657220697320746865207A65726F2061 PUSH1 0x0 DUP3 ADD MSTORE PUSH32 0x6464726573730000000000000000000000000000000000000000000000000000 PUSH1 0x20 DUP3 ADD MSTORE POP JUMP JUMPDEST PUSH1 0x0 PUSH2 0x17B5 PUSH1 0x26 DUP4 PUSH2 0x1143 JUMP JUMPDEST SWAP2 POP PUSH2 0x17C0 DUP3 PUSH2 0x1759 JUMP JUMPDEST PUSH1 0x40 DUP3 ADD SWAP1 POP SWAP2 SWAP1 POP JUMP JUMPDEST PUSH1 0x0 PUSH1 0x20 DUP3 ADD SWAP1 POP DUP2 DUP2 SUB PUSH1 0x0 DUP4 ADD MSTORE PUSH2 0x17E4 DUP2 PUSH2 0x17A8 JUMP JUMPDEST SWAP1 POP SWAP2 SWAP1 POP JUMP JUMPDEST PUSH32 0x4E6F7420616C6C6F776564000000000000000000000000000000000000000000 PUSH1 0x0 DUP3 ADD MSTORE POP JUMP JUMPDEST PUSH1 0x0 PUSH2 0x1821 PUSH1 0xB DUP4 PUSH2 0x1143 JUMP JUMPDEST SWAP2 POP PUSH2 0x182C DUP3 PUSH2 0x17EB JUMP JUMPDEST PUSH1 0x20 DUP3 ADD SWAP1 POP SWAP2 SWAP1 POP JUMP JUMPDEST PUSH1 0x0 PUSH1 0x20 DUP3 ADD SWAP1 POP DUP2 DUP2 SUB PUSH1 0x0 DUP4 ADD MSTORE PUSH2 0x1850 DUP2 PUSH2 0x1814 JUMP JUMPDEST SWAP1 POP SWAP2 SWAP1 POP JUMP JUMPDEST PUSH32 0x4D617820737570706C7920776173207265616368656400000000000000000000 PUSH1 0x0 DUP3 ADD MSTORE POP JUMP JUMPDEST PUSH1 0x0 PUSH2 0x188D PUSH1 0x16 DUP4 PUSH2 0x1143 JUMP JUMPDEST SWAP2 POP PUSH2 0x1898 DUP3 PUSH2 0x1857 JUMP JUMPDEST PUSH1 0x20 DUP3 ADD SWAP1 POP SWAP2 SWAP1 POP JUMP JUMPDEST PUSH1 0x0 PUSH1 0x20 DUP3 ADD SWAP1 POP DUP2 DUP2 SUB PUSH1 0x0 DUP4 ADD MSTORE PUSH2 0x18BC DUP2 PUSH2 0x1880 JUMP JUMPDEST SWAP1 POP SWAP2 SWAP1 POP JUMP JUMPDEST PUSH32 0x45524332303A20617070726F76652066726F6D20746865207A65726F20616464 PUSH1 0x0 DUP3 ADD MSTORE PUSH32 0x7265737300000000000000000000000000000000000000000000000000000000 PUSH1 0x20 DUP3 ADD MSTORE POP JUMP JUMPDEST PUSH1 0x0 PUSH2 0x191F PUSH1 0x24 DUP4 PUSH2 0x1143 JUMP JUMPDEST SWAP2 POP PUSH2 0x192A DUP3 PUSH2 0x18C3 JUMP JUMPDEST PUSH1 0x40 DUP3 ADD SWAP1 POP SWAP2 SWAP1 POP JUMP JUMPDEST PUSH1 0x0 PUSH1 0x20 DUP3 ADD SWAP1 POP DUP2 DUP2 SUB PUSH1 0x0 DUP4 ADD MSTORE PUSH2 0x194E DUP2 PUSH2 0x1912 JUMP JUMPDEST SWAP1 POP SWAP2 SWAP1 POP JUMP JUMPDEST PUSH32 0x45524332303A20617070726F766520746F20746865207A65726F206164647265 PUSH1 0x0 DUP3 ADD MSTORE PUSH32 0x7373000000000000000000000000000000000000000000000000000000000000 PUSH1 0x20 DUP3 ADD MSTORE POP JUMP JUMPDEST PUSH1 0x0 PUSH2 0x19B1 PUSH1 0x22 DUP4 PUSH2 0x1143 JUMP JUMPDEST SWAP2 POP PUSH2 0x19BC DUP3 PUSH2 0x1955 JUMP JUMPDEST PUSH1 0x40 DUP3 ADD SWAP1 POP SWAP2 SWAP1 POP JUMP JUMPDEST PUSH1 0x0 PUSH1 0x20 DUP3 ADD SWAP1 POP DUP2 DUP2 SUB PUSH1 0x0 DUP4 ADD MSTORE PUSH2 0x19E0 DUP2 PUSH2 0x19A4 JUMP JUMPDEST SWAP1 POP SWAP2 SWAP1 POP JUMP JUMPDEST PUSH32 0x45524332303A20696E73756666696369656E7420616C6C6F77616E6365000000 PUSH1 0x0 DUP3 ADD MSTORE POP JUMP JUMPDEST PUSH1 0x0 PUSH2 0x1A1D PUSH1 0x1D DUP4 PUSH2 0x1143 JUMP JUMPDEST SWAP2 POP PUSH2 0x1A28 DUP3 PUSH2 0x19E7 JUMP JUMPDEST PUSH1 0x20 DUP3 ADD SWAP1 POP SWAP2 SWAP1 POP JUMP JUMPDEST PUSH1 0x0 PUSH1 0x20 DUP3 ADD SWAP1 POP DUP2 DUP2 SUB PUSH1 0x0 DUP4 ADD MSTORE PUSH2 0x1A4C DUP2 PUSH2 0x1A10 JUMP JUMPDEST SWAP1 POP SWAP2 SWAP1 POP JUMP JUMPDEST PUSH32 0x45524332303A207472616E736665722066726F6D20746865207A65726F206164 PUSH1 0x0 DUP3 ADD MSTORE PUSH32 0x6472657373000000000000000000000000000000000000000000000000000000 PUSH1 0x20 DUP3 ADD MSTORE POP JUMP JUMPDEST PUSH1 0x0 PUSH2 0x1AAF PUSH1 0x25 DUP4 PUSH2 0x1143 JUMP JUMPDEST SWAP2 POP PUSH2 0x1ABA DUP3 PUSH2 0x1A53 JUMP JUMPDEST PUSH1 0x40 DUP3 ADD SWAP1 POP SWAP2 SWAP1 POP JUMP JUMPDEST PUSH1 0x0 PUSH1 0x20 DUP3 ADD SWAP1 POP DUP2 DUP2 SUB PUSH1 0x0 DUP4 ADD MSTORE PUSH2 0x1ADE DUP2 PUSH2 0x1AA2 JUMP JUMPDEST SWAP1 POP SWAP2 SWAP1 POP JUMP JUMPDEST PUSH32 0x45524332303A207472616E7366657220746F20746865207A65726F2061646472 PUSH1 0x0 DUP3 ADD MSTORE PUSH32 0x6573730000000000000000000000000000000000000000000000000000000000 PUSH1 0x20 DUP3 ADD MSTORE POP JUMP JUMPDEST PUSH1 0x0 PUSH2 0x1B41 PUSH1 0x23 DUP4 PUSH2 0x1143 JUMP JUMPDEST SWAP2 POP PUSH2 0x1B4C DUP3 PUSH2 0x1AE5 JUMP JUMPDEST PUSH1 0x40 DUP3 ADD SWAP1 POP SWAP2 SWAP1 POP JUMP JUMPDEST PUSH1 0x0 PUSH1 0x20 DUP3 ADD SWAP1 POP DUP2 DUP2 SUB PUSH1 0x0 DUP4 ADD MSTORE PUSH2 0x1B70 DUP2 PUSH2 0x1B34 JUMP JUMPDEST SWAP1 POP SWAP2 SWAP1 POP JUMP JUMPDEST PUSH32 0x45524332303A207472616E7366657220616D6F756E7420657863656564732062 PUSH1 0x0 DUP3 ADD MSTORE PUSH32 0x616C616E63650000000000000000000000000000000000000000000000000000 PUSH1 0x20 DUP3 ADD MSTORE POP JUMP JUMPDEST PUSH1 0x0 PUSH2 0x1BD3 PUSH1 0x26 DUP4 PUSH2 0x1143 JUMP JUMPDEST SWAP2 POP PUSH2 0x1BDE DUP3 PUSH2 0x1B77 JUMP JUMPDEST PUSH1 0x40 DUP3 ADD SWAP1 POP SWAP2 SWAP1 POP JUMP JUMPDEST PUSH1 0x0 PUSH1 0x20 DUP3 ADD SWAP1 POP DUP2 DUP2 SUB PUSH1 0x0 DUP4 ADD MSTORE PUSH2 0x1C02 DUP2 PUSH2 0x1BC6 JUMP JUMPDEST SWAP1 POP SWAP2 SWAP1 POP JUMP JUMPDEST PUSH32 0x4F776E61626C653A2063616C6C6572206973206E6F7420746865206F776E6572 PUSH1 0x0 DUP3 ADD MSTORE POP JUMP JUMPDEST PUSH1 0x0 PUSH2 0x1C3F PUSH1 0x20 DUP4 PUSH2 0x1143 JUMP JUMPDEST SWAP2 POP PUSH2 0x1C4A DUP3 PUSH2 0x1C09 JUMP JUMPDEST PUSH1 0x20 DUP3 ADD SWAP1 POP SWAP2 SWAP1 POP JUMP JUMPDEST PUSH1 0x0 PUSH1 0x20 DUP3 ADD SWAP1 POP DUP2 DUP2 SUB PUSH1 0x0 DUP4 ADD MSTORE PUSH2 0x1C6E DUP2 PUSH2 0x1C32 JUMP JUMPDEST SWAP1 POP SWAP2 SWAP1 POP JUMP JUMPDEST PUSH32 0x45524332303A206D696E7420746F20746865207A65726F206164647265737300 PUSH1 0x0 DUP3 ADD MSTORE POP JUMP JUMPDEST PUSH1 0x0 PUSH2 0x1CAB PUSH1 0x1F DUP4 PUSH2 0x1143 JUMP JUMPDEST SWAP2 POP PUSH2 0x1CB6 DUP3 PUSH2 0x1C75 JUMP JUMPDEST PUSH1 0x20 DUP3 ADD SWAP1 POP SWAP2 SWAP1 POP JUMP JUMPDEST PUSH1 0x0 PUSH1 0x20 DUP3 ADD SWAP1 POP DUP2 DUP2 SUB PUSH1 0x0 DUP4 ADD MSTORE PUSH2 0x1CDA DUP2 PUSH2 0x1C9E JUMP JUMPDEST SWAP1 POP SWAP2 SWAP1 POP JUMP INVALID LOG2 PUSH5 0x6970667358 0x22 SLT KECCAK256 PUSH26 0xDDD06DD7D8AF55AAE6B1FA32C8276EA73FE8FFBE0E3C9396B107 SWAP16 0xAD PUSH1 0xBD 0xC5 PUSH5 0x736F6C6343 STOP ADDMOD GT STOP CALLER "},"methodIdentifiers":{"DECIMALS()":"2e0f2625","INITIAL_SUPPLY()":"2ff2e9dc","MAX_SUPPLY()":"32cb6b0c","allowance(address,address)":"dd62ed3e","approve(address,uint256)":"095ea7b3","balanceOf(address)":"70a08231","decimals()":"313ce567","decreaseAllowance(address,uint256)":"a457c2d7","increaseAllowance(address,uint256)":"39509351","mintRun3T(address,uint256)":"f8273dcd","name()":"06fdde03","owner()":"8da5cb5b","renounceOwnership()":"715018a6","symbol()":"95d89b41","totalSupply()":"18160ddd","transfer(address,uint256)":"a9059cbb","transferFrom(address,address,uint256)":"23b872dd","transferOwnership(address)":"f2fde38b","updateWatchAddress(address)":"c90dc12c"}}}}}