{"contracts/Route.sol":{"Route":{"abi":[{"inputs":[],"stateMutability":"nonpayable","type":"constructor"},{"anonymous":false,"inputs":[{"indexed":true,"internalType":"address","name":"owner","type":"address"},{"indexed":true,"internalType":"address","name":"approved","type":"address"},{"indexed":true,"internalType":"uint256","name":"tokenId","type":"uint256"}],"name":"Approval","type":"event"},{"anonymous":false,"inputs":[{"indexed":true,"internalType":"address","name":"owner","type":"address"},{"indexed":true,"internalType":"address","name":"operator","type":"address"},{"indexed":false,"internalType":"bool","name":"approved","type":"bool"}],"name":"ApprovalForAll","type":"event"},{"anonymous":false,"inputs":[{"indexed":true,"internalType":"address","name":"previousOwner","type":"address"},{"indexed":true,"internalType":"address","name":"newOwner","type":"address"}],"name":"OwnershipTransferred","type":"event"},{"anonymous":false,"inputs":[{"indexed":true,"internalType":"address","name":"from","type":"address"},{"indexed":true,"internalType":"address","name":"to","type":"address"},{"indexed":true,"internalType":"uint256","name":"tokenId","type":"uint256"}],"name":"Transfer","type":"event"},{"inputs":[{"internalType":"address","name":"to","type":"address"},{"internalType":"uint256","name":"tokenId","type":"uint256"}],"name":"approve","outputs":[],"stateMutability":"nonpayable","type":"function"},{"inputs":[{"internalType":"address","name":"owner","type":"address"}],"name":"balanceOf","outputs":[{"internalType":"uint256","name":"","type":"uint256"}],"stateMutability":"view","type":"function"},{"inputs":[{"internalType":"uint256","name":"tokenId","type":"uint256"}],"name":"getApproved","outputs":[{"internalType":"address","name":"","type":"address"}],"stateMutability":"view","type":"function"},{"inputs":[{"internalType":"address","name":"recipient","type":"address"}],"name":"getUserRouteIds","outputs":[{"internalType":"uint256[]","name":"","type":"uint256[]"}],"stateMutability":"view","type":"function"},{"inputs":[{"internalType":"address","name":"owner","type":"address"},{"internalType":"address","name":"operator","type":"address"}],"name":"isApprovedForAll","outputs":[{"internalType":"bool","name":"","type":"bool"}],"stateMutability":"view","type":"function"},{"inputs":[{"internalType":"address","name":"recipient","type":"address"},{"internalType":"string","name":"tokenURI","type":"string"}],"name":"mintRoute","outputs":[{"internalType":"uint256","name":"","type":"uint256"}],"stateMutability":"nonpayable","type":"function"},{"inputs":[],"name":"name","outputs":[{"internalType":"string","name":"","type":"string"}],"stateMutability":"view","type":"function"},{"inputs":[],"name":"owner","outputs":[{"internalType":"address","name":"","type":"address"}],"stateMutability":"view","type":"function"},{"inputs":[{"internalType":"uint256","name":"tokenId","type":"uint256"}],"name":"ownerOf","outputs":[{"internalType":"address","name":"","type":"address"}],"stateMutability":"view","type":"function"},{"inputs":[],"name":"renounceOwnership","outputs":[],"stateMutability":"nonpayable","type":"function"},{"inputs":[{"internalType":"address","name":"from","type":"address"},{"internalType":"address","name":"to","type":"address"},{"internalType":"uint256","name":"tokenId","type":"uint256"}],"name":"safeTransferFrom","outputs":[],"stateMutability":"nonpayable","type":"function"},{"inputs":[{"internalType":"address","name":"from","type":"address"},{"internalType":"address","name":"to","type":"address"},{"internalType":"uint256","name":"tokenId","type":"uint256"},{"internalType":"bytes","name":"data","type":"bytes"}],"name":"safeTransferFrom","outputs":[],"stateMutability":"nonpayable","type":"function"},{"inputs":[{"internalType":"address","name":"operator","type":"address"},{"internalType":"bool","name":"approved","type":"bool"}],"name":"setApprovalForAll","outputs":[],"stateMutability":"nonpayable","type":"function"},{"inputs":[{"internalType":"bytes4","name":"interfaceId","type":"bytes4"}],"name":"supportsInterface","outputs":[{"internalType":"bool","name":"","type":"bool"}],"stateMutability":"view","type":"function"},{"inputs":[],"name":"symbol","outputs":[{"internalType":"string","name":"","type":"string"}],"stateMutability":"view","type":"function"},{"inputs":[{"internalType":"uint256","name":"tokenId","type":"uint256"}],"name":"tokenURI","outputs":[{"internalType":"string","name":"","type":"string"}],"stateMutability":"view","type":"function"},{"inputs":[{"internalType":"address","name":"from","type":"address"},{"internalType":"address","name":"to","type":"address"},{"internalType":"uint256","name":"tokenId","type":"uint256"}],"name":"transferFrom","outputs":[],"stateMutability":"nonpayable","type":"function"},{"inputs":[{"internalType":"address","name":"newOwner","type":"address"}],"name":"transferOwnership","outputs":[],"stateMutability":"nonpayable","type":"function"}],"evm":{"bytecode":{"linkReferences":{},"object":"60806040523480156200001157600080fd5b506040518060400160405280600881526020017f526f7574654e46540000000000000000000000000000000000000000000000008152506040518060400160405280600581526020017f524f55544500000000000000000000000000000000000000000000000000000081525081600090816200008f919062000412565b508060019081620000a1919062000412565b505050620000c4620000b8620000ca60201b60201c565b620000d260201b60201c565b620004f9565b600033905090565b6000600760009054906101000a900473ffffffffffffffffffffffffffffffffffffffff16905081600760006101000a81548173ffffffffffffffffffffffffffffffffffffffff021916908373ffffffffffffffffffffffffffffffffffffffff1602179055508173ffffffffffffffffffffffffffffffffffffffff168173ffffffffffffffffffffffffffffffffffffffff167f8be0079c531659141344cd1fd0a4f28419497f9722a3daafe3b4186f6b6457e060405160405180910390a35050565b600081519050919050565b7f4e487b7100000000000000000000000000000000000000000000000000000000600052604160045260246000fd5b7f4e487b7100000000000000000000000000000000000000000000000000000000600052602260045260246000fd5b600060028204905060018216806200021a57607f821691505b60208210810362000230576200022f620001d2565b5b50919050565b60008190508160005260206000209050919050565b60006020601f8301049050919050565b600082821b905092915050565b6000600883026200029a7fffffffffffffffffffffffffffffffffffffffffffffffffffffffffffffffff826200025b565b620002a686836200025b565b95508019841693508086168417925050509392505050565b6000819050919050565b6000819050919050565b6000620002f3620002ed620002e784620002be565b620002c8565b620002be565b9050919050565b6000819050919050565b6200030f83620002d2565b620003276200031e82620002fa565b84845462000268565b825550505050565b600090565b6200033e6200032f565b6200034b81848462000304565b505050565b5b8181101562000373576200036760008262000334565b60018101905062000351565b5050565b601f821115620003c2576200038c8162000236565b62000397846200024b565b81016020851015620003a7578190505b620003bf620003b6856200024b565b83018262000350565b50505b505050565b600082821c905092915050565b6000620003e760001984600802620003c7565b1980831691505092915050565b6000620004028383620003d4565b9150826002028217905092915050565b6200041d8262000198565b67ffffffffffffffff811115620004395762000438620001a3565b5b62000445825462000201565b6200045282828562000377565b600060209050601f8311600181146200048a576000841562000475578287015190505b620004818582620003f4565b865550620004f1565b601f1984166200049a8662000236565b60005b82811015620004c4578489015182556001820191506020850194506020810190506200049d565b86831015620004e45784890151620004e0601f891682620003d4565b8355505b6001600288020188555050505b505050505050565b612fbf80620005096000396000f3fe608060405234801561001057600080fd5b50600436106101165760003560e01c8063715018a6116100a2578063b88d4fde11610071578063b88d4fde146102df578063c86ba491146102fb578063c87b56dd1461032b578063e985e9c51461035b578063f2fde38b1461038b57610116565b8063715018a61461027d5780638da5cb5b1461028757806395d89b41146102a5578063a22cb465146102c357610116565b8063128db457116100e9578063128db457146101b557806323b872dd146101e557806342842e0e146102015780636352211e1461021d57806370a082311461024d57610116565b806301ffc9a71461011b57806306fdde031461014b578063081812fc14610169578063095ea7b314610199575b600080fd5b61013560048036038101906101309190611b60565b6103a7565b6040516101429190611ba8565b60405180910390f35b610153610489565b6040516101609190611c53565b60405180910390f35b610183600480360381019061017e9190611cab565b61051b565b6040516101909190611d19565b60405180910390f35b6101b360048036038101906101ae9190611d60565b610561565b005b6101cf60048036038101906101ca9190611ed5565b610678565b6040516101dc9190611f40565b60405180910390f35b6101ff60048036038101906101fa9190611f5b565b61071e565b005b61021b60048036038101906102169190611f5b565b61077e565b005b61023760048036038101906102329190611cab565b61079e565b6040516102449190611d19565b60405180910390f35b61026760048036038101906102629190611fae565b61084f565b6040516102749190611f40565b60405180910390f35b610285610906565b005b61028f61091a565b60405161029c9190611d19565b60405180910390f35b6102ad610944565b6040516102ba9190611c53565b60405180910390f35b6102dd60048036038101906102d89190612007565b6109d6565b005b6102f960048036038101906102f491906120e8565b6109ec565b005b61031560048036038101906103109190611fae565b610a4e565b6040516103229190612229565b60405180910390f35b61034560048036038101906103409190611cab565b610ae5565b6040516103529190611c53565b60405180910390f35b6103756004803603810190610370919061224b565b610bf7565b6040516103829190611ba8565b60405180910390f35b6103a560048036038101906103a09190611fae565b610c8b565b005b60007f80ac58cd000000000000000000000000000000000000000000000000000000007bffffffffffffffffffffffffffffffffffffffffffffffffffffffff1916827bffffffffffffffffffffffffffffffffffffffffffffffffffffffff1916148061047257507f5b5e139f000000000000000000000000000000000000000000000000000000007bffffffffffffffffffffffffffffffffffffffffffffffffffffffff1916827bffffffffffffffffffffffffffffffffffffffffffffffffffffffff1916145b80610482575061048182610d0e565b5b9050919050565b606060008054610498906122ba565b80601f01602080910402602001604051908101604052809291908181526020018280546104c4906122ba565b80156105115780601f106104e657610100808354040283529160200191610511565b820191906000526020600020905b8154815290600101906020018083116104f457829003601f168201915b5050505050905090565b600061052682610d78565b6004600083815260200190815260200160002060009054906101000a900473ffffffffffffffffffffffffffffffffffffffff169050919050565b600061056c8261079e565b90508073ffffffffffffffffffffffffffffffffffffffff168373ffffffffffffffffffffffffffffffffffffffff16036105dc576040517f08c379a00000000000000000000000000000000000000000000000000000000081526004016105d39061235d565b60405180910390fd5b8073ffffffffffffffffffffffffffffffffffffffff166105fb610dc3565b73ffffffffffffffffffffffffffffffffffffffff16148061062a575061062981610624610dc3565b610bf7565b5b610669576040517f08c379a0000000000000000000000000000000000000000000000000000000008152600401610660906123ef565b60405180910390fd5b6106738383610dcb565b505050565b6000610682610e84565b61068c6008610f02565b60006106986008610f18565b9050600960008573ffffffffffffffffffffffffffffffffffffffff1673ffffffffffffffffffffffffffffffffffffffff16815260200190815260200160002081908060018154018082558091505060019003906000526020600020016000909190919091505561070a8482610f26565b61071481846110ff565b8091505092915050565b61072f610729610dc3565b8261116c565b61076e576040517f08c379a000000000000000000000000000000000000000000000000000000000815260040161076590612481565b60405180910390fd5b610779838383611201565b505050565b610799838383604051806020016040528060008152506109ec565b505050565b6000806002600084815260200190815260200160002060009054906101000a900473ffffffffffffffffffffffffffffffffffffffff169050600073ffffffffffffffffffffffffffffffffffffffff168173ffffffffffffffffffffffffffffffffffffffff1603610846576040517f08c379a000000000000000000000000000000000000000000000000000000000815260040161083d906124ed565b60405180910390fd5b80915050919050565b60008073ffffffffffffffffffffffffffffffffffffffff168273ffffffffffffffffffffffffffffffffffffffff16036108bf576040517f08c379a00000000000000000000000000000000000000000000000000000000081526004016108b69061257f565b60405180910390fd5b600360008373ffffffffffffffffffffffffffffffffffffffff1673ffffffffffffffffffffffffffffffffffffffff168152602001908152602001600020549050919050565b61090e610e84565b6109186000611467565b565b6000600760009054906101000a900473ffffffffffffffffffffffffffffffffffffffff16905090565b606060018054610953906122ba565b80601f016020809104026020016040519081016040528092919081815260200182805461097f906122ba565b80156109cc5780601f106109a1576101008083540402835291602001916109cc565b820191906000526020600020905b8154815290600101906020018083116109af57829003601f168201915b5050505050905090565b6109e86109e1610dc3565b838361152d565b5050565b6109fd6109f7610dc3565b8361116c565b610a3c576040517f08c379a0000000000000000000000000000000000000000000000000000000008152600401610a3390612481565b60405180910390fd5b610a4884848484611699565b50505050565b6060600960008373ffffffffffffffffffffffffffffffffffffffff1673ffffffffffffffffffffffffffffffffffffffff168152602001908152602001600020805480602002602001604051908101604052809291908181526020018280548015610ad957602002820191906000526020600020905b815481526020019060010190808311610ac5575b50505050509050919050565b6060610af082610d78565b6000600660008481526020019081526020016000208054610b10906122ba565b80601f0160208091040260200160405190810160405280929190818152602001828054610b3c906122ba565b8015610b895780601f10610b5e57610100808354040283529160200191610b89565b820191906000526020600020905b815481529060010190602001808311610b6c57829003601f168201915b505050505090506000610b9a6116f5565b90506000815103610baf578192505050610bf2565b600082511115610be4578082604051602001610bcc9291906125db565b60405160208183030381529060405292505050610bf2565b610bed8461170c565b925050505b919050565b6000600560008473ffffffffffffffffffffffffffffffffffffffff1673ffffffffffffffffffffffffffffffffffffffff16815260200190815260200160002060008373ffffffffffffffffffffffffffffffffffffffff1673ffffffffffffffffffffffffffffffffffffffff16815260200190815260200160002060009054906101000a900460ff16905092915050565b610c93610e84565b600073ffffffffffffffffffffffffffffffffffffffff168173ffffffffffffffffffffffffffffffffffffffff1603610d02576040517f08c379a0000000000000000000000000000000000000000000000000000000008152600401610cf990612671565b60405180910390fd5b610d0b81611467565b50565b60007f01ffc9a7000000000000000000000000000000000000000000000000000000007bffffffffffffffffffffffffffffffffffffffffffffffffffffffff1916827bffffffffffffffffffffffffffffffffffffffffffffffffffffffff1916149050919050565b610d8181611774565b610dc0576040517f08c379a0000000000000000000000000000000000000000000000000000000008152600401610db7906124ed565b60405180910390fd5b50565b600033905090565b816004600083815260200190815260200160002060006101000a81548173ffffffffffffffffffffffffffffffffffffffff021916908373ffffffffffffffffffffffffffffffffffffffff160217905550808273ffffffffffffffffffffffffffffffffffffffff16610e3e8361079e565b73ffffffffffffffffffffffffffffffffffffffff167f8c5be1e5ebec7d5bd14f71427d1e84f3dd0314c0f7b2291e5b200ac8c7c3b92560405160405180910390a45050565b610e8c610dc3565b73ffffffffffffffffffffffffffffffffffffffff16610eaa61091a565b73ffffffffffffffffffffffffffffffffffffffff1614610f00576040517f08c379a0000000000000000000000000000000000000000000000000000000008152600401610ef7906126dd565b60405180910390fd5b565b6001816000016000828254019250508190555050565b600081600001549050919050565b600073ffffffffffffffffffffffffffffffffffffffff168273ffffffffffffffffffffffffffffffffffffffff1603610f95576040517f08c379a0000000000000000000000000000000000000000000000000000000008152600401610f8c90612749565b60405180910390fd5b610f9e81611774565b15610fde576040517f08c379a0000000000000000000000000000000000000000000000000000000008152600401610fd5906127b5565b60405180910390fd5b610fea600083836117e0565b6001600360008473ffffffffffffffffffffffffffffffffffffffff1673ffffffffffffffffffffffffffffffffffffffff168152602001908152602001600020600082825461103a9190612804565b92505081905550816002600083815260200190815260200160002060006101000a81548173ffffffffffffffffffffffffffffffffffffffff021916908373ffffffffffffffffffffffffffffffffffffffff160217905550808273ffffffffffffffffffffffffffffffffffffffff16600073ffffffffffffffffffffffffffffffffffffffff167fddf252ad1be2c89b69c2b068fc378daa952ba7f163c4a11628f55a4df523b3ef60405160405180910390a46110fb600083836117e5565b5050565b61110882611774565b611147576040517f08c379a000000000000000000000000000000000000000000000000000000000815260040161113e906128aa565b60405180910390fd5b806006600084815260200190815260200160002090816111679190612a76565b505050565b6000806111788361079e565b90508073ffffffffffffffffffffffffffffffffffffffff168473ffffffffffffffffffffffffffffffffffffffff1614806111ba57506111b98185610bf7565b5b806111f857508373ffffffffffffffffffffffffffffffffffffffff166111e08461051b565b73ffffffffffffffffffffffffffffffffffffffff16145b91505092915050565b8273ffffffffffffffffffffffffffffffffffffffff166112218261079e565b73ffffffffffffffffffffffffffffffffffffffff1614611277576040517f08c379a000000000000000000000000000000000000000000000000000000000815260040161126e90612bba565b60405180910390fd5b600073ffffffffffffffffffffffffffffffffffffffff168273ffffffffffffffffffffffffffffffffffffffff16036112e6576040517f08c379a00000000000000000000000000000000000000000000000000000000081526004016112dd90612c4c565b60405180910390fd5b6112f18383836117e0565b6112fc600082610dcb565b6001600360008573ffffffffffffffffffffffffffffffffffffffff1673ffffffffffffffffffffffffffffffffffffffff168152602001908152602001600020600082825461134c9190612c6c565b925050819055506001600360008473ffffffffffffffffffffffffffffffffffffffff1673ffffffffffffffffffffffffffffffffffffffff16815260200190815260200160002060008282546113a39190612804565b92505081905550816002600083815260200190815260200160002060006101000a81548173ffffffffffffffffffffffffffffffffffffffff021916908373ffffffffffffffffffffffffffffffffffffffff160217905550808273ffffffffffffffffffffffffffffffffffffffff168473ffffffffffffffffffffffffffffffffffffffff167fddf252ad1be2c89b69c2b068fc378daa952ba7f163c4a11628f55a4df523b3ef60405160405180910390a46114628383836117e5565b505050565b6000600760009054906101000a900473ffffffffffffffffffffffffffffffffffffffff16905081600760006101000a81548173ffffffffffffffffffffffffffffffffffffffff021916908373ffffffffffffffffffffffffffffffffffffffff1602179055508173ffffffffffffffffffffffffffffffffffffffff168173ffffffffffffffffffffffffffffffffffffffff167f8be0079c531659141344cd1fd0a4f28419497f9722a3daafe3b4186f6b6457e060405160405180910390a35050565b8173ffffffffffffffffffffffffffffffffffffffff168373ffffffffffffffffffffffffffffffffffffffff160361159b576040517f08c379a000000000000000000000000000000000000000000000000000000000815260040161159290612cec565b60405180910390fd5b80600560008573ffffffffffffffffffffffffffffffffffffffff1673ffffffffffffffffffffffffffffffffffffffff16815260200190815260200160002060008473ffffffffffffffffffffffffffffffffffffffff1673ffffffffffffffffffffffffffffffffffffffff16815260200190815260200160002060006101000a81548160ff0219169083151502179055508173ffffffffffffffffffffffffffffffffffffffff168373ffffffffffffffffffffffffffffffffffffffff167f17307eab39ab6107e8899845ad3d59bd9653f200f220920489ca2b5937696c318360405161168c9190611ba8565b60405180910390a3505050565b6116a4848484611201565b6116b0848484846117ea565b6116ef576040517f08c379a00000000000000000000000000000000000000000000000000000000081526004016116e690612d7e565b60405180910390fd5b50505050565b606060405180602001604052806000815250905090565b606061171782610d78565b60006117216116f5565b90506000815111611741576040518060200160405280600081525061176c565b8061174b84611971565b60405160200161175c9291906125db565b6040516020818303038152906040525b915050919050565b60008073ffffffffffffffffffffffffffffffffffffffff166002600084815260200190815260200160002060009054906101000a900473ffffffffffffffffffffffffffffffffffffffff1673ffffffffffffffffffffffffffffffffffffffff1614159050919050565b505050565b505050565b600061180b8473ffffffffffffffffffffffffffffffffffffffff16611ad1565b15611964578373ffffffffffffffffffffffffffffffffffffffff1663150b7a02611834610dc3565b8786866040518563ffffffff1660e01b81526004016118569493929190612df3565b6020604051808303816000875af192505050801561189257506040513d601f19601f8201168201806040525081019061188f9190612e54565b60015b611914573d80600081146118c2576040519150601f19603f3d011682016040523d82523d6000602084013e6118c7565b606091505b50600081510361190c576040517f08c379a000000000000000000000000000000000000000000000000000000000815260040161190390612d7e565b60405180910390fd5b805181602001fd5b63150b7a0260e01b7bffffffffffffffffffffffffffffffffffffffffffffffffffffffff1916817bffffffffffffffffffffffffffffffffffffffffffffffffffffffff191614915050611969565b600190505b949350505050565b6060600082036119b8576040518060400160405280600181526020017f30000000000000000000000000000000000000000000000000000000000000008152509050611acc565b600082905060005b600082146119ea5780806119d390612e81565b915050600a826119e39190612ef8565b91506119c0565b60008167ffffffffffffffff811115611a0657611a05611daa565b5b6040519080825280601f01601f191660200182016040528015611a385781602001600182028036833780820191505090505b5090505b60008514611ac557600182611a519190612c6c565b9150600a85611a609190612f29565b6030611a6c9190612804565b60f81b818381518110611a8257611a81612f5a565b5b60200101907effffffffffffffffffffffffffffffffffffffffffffffffffffffffffffff1916908160001a905350600a85611abe9190612ef8565b9450611a3c565b8093505050505b919050565b6000808273ffffffffffffffffffffffffffffffffffffffff163b119050919050565b6000604051905090565b600080fd5b600080fd5b60007fffffffff0000000000000000000000000000000000000000000000000000000082169050919050565b611b3d81611b08565b8114611b4857600080fd5b50565b600081359050611b5a81611b34565b92915050565b600060208284031215611b7657611b75611afe565b5b6000611b8484828501611b4b565b91505092915050565b60008115159050919050565b611ba281611b8d565b82525050565b6000602082019050611bbd6000830184611b99565b92915050565b600081519050919050565b600082825260208201905092915050565b60005b83811015611bfd578082015181840152602081019050611be2565b60008484015250505050565b6000601f19601f8301169050919050565b6000611c2582611bc3565b611c2f8185611bce565b9350611c3f818560208601611bdf565b611c4881611c09565b840191505092915050565b60006020820190508181036000830152611c6d8184611c1a565b905092915050565b6000819050919050565b611c8881611c75565b8114611c9357600080fd5b50565b600081359050611ca581611c7f565b92915050565b600060208284031215611cc157611cc0611afe565b5b6000611ccf84828501611c96565b91505092915050565b600073ffffffffffffffffffffffffffffffffffffffff82169050919050565b6000611d0382611cd8565b9050919050565b611d1381611cf8565b82525050565b6000602082019050611d2e6000830184611d0a565b92915050565b611d3d81611cf8565b8114611d4857600080fd5b50565b600081359050611d5a81611d34565b92915050565b60008060408385031215611d7757611d76611afe565b5b6000611d8585828601611d4b565b9250506020611d9685828601611c96565b9150509250929050565b600080fd5b600080fd5b7f4e487b7100000000000000000000000000000000000000000000000000000000600052604160045260246000fd5b611de282611c09565b810181811067ffffffffffffffff82111715611e0157611e00611daa565b5b80604052505050565b6000611e14611af4565b9050611e208282611dd9565b919050565b600067ffffffffffffffff821115611e4057611e3f611daa565b5b611e4982611c09565b9050602081019050919050565b82818337600083830152505050565b6000611e78611e7384611e25565b611e0a565b905082815260208101848484011115611e9457611e93611da5565b5b611e9f848285611e56565b509392505050565b600082601f830112611ebc57611ebb611da0565b5b8135611ecc848260208601611e65565b91505092915050565b60008060408385031215611eec57611eeb611afe565b5b6000611efa85828601611d4b565b925050602083013567ffffffffffffffff811115611f1b57611f1a611b03565b5b611f2785828601611ea7565b9150509250929050565b611f3a81611c75565b82525050565b6000602082019050611f556000830184611f31565b92915050565b600080600060608486031215611f7457611f73611afe565b5b6000611f8286828701611d4b565b9350506020611f9386828701611d4b565b9250506040611fa486828701611c96565b9150509250925092565b600060208284031215611fc457611fc3611afe565b5b6000611fd284828501611d4b565b91505092915050565b611fe481611b8d565b8114611fef57600080fd5b50565b60008135905061200181611fdb565b92915050565b6000806040838503121561201e5761201d611afe565b5b600061202c85828601611d4b565b925050602061203d85828601611ff2565b9150509250929050565b600067ffffffffffffffff82111561206257612061611daa565b5b61206b82611c09565b9050602081019050919050565b600061208b61208684612047565b611e0a565b9050828152602081018484840111156120a7576120a6611da5565b5b6120b2848285611e56565b509392505050565b600082601f8301126120cf576120ce611da0565b5b81356120df848260208601612078565b91505092915050565b6000806000806080858703121561210257612101611afe565b5b600061211087828801611d4b565b945050602061212187828801611d4b565b935050604061213287828801611c96565b925050606085013567ffffffffffffffff81111561215357612152611b03565b5b61215f878288016120ba565b91505092959194509250565b600081519050919050565b600082825260208201905092915050565b6000819050602082019050919050565b6121a081611c75565b82525050565b60006121b28383612197565b60208301905092915050565b6000602082019050919050565b60006121d68261216b565b6121e08185612176565b93506121eb83612187565b8060005b8381101561221c57815161220388826121a6565b975061220e836121be565b9250506001810190506121ef565b5085935050505092915050565b6000602082019050818103600083015261224381846121cb565b905092915050565b6000806040838503121561226257612261611afe565b5b600061227085828601611d4b565b925050602061228185828601611d4b565b9150509250929050565b7f4e487b7100000000000000000000000000000000000000000000000000000000600052602260045260246000fd5b600060028204905060018216806122d257607f821691505b6020821081036122e5576122e461228b565b5b50919050565b7f4552433732313a20617070726f76616c20746f2063757272656e74206f776e6560008201527f7200000000000000000000000000000000000000000000000000000000000000602082015250565b6000612347602183611bce565b9150612352826122eb565b604082019050919050565b600060208201905081810360008301526123768161233a565b9050919050565b7f4552433732313a20617070726f76652063616c6c6572206973206e6f7420746f60008201527f6b656e206f776e6572206e6f7220617070726f76656420666f7220616c6c0000602082015250565b60006123d9603e83611bce565b91506123e48261237d565b604082019050919050565b60006020820190508181036000830152612408816123cc565b9050919050565b7f4552433732313a2063616c6c6572206973206e6f7420746f6b656e206f776e6560008201527f72206e6f7220617070726f766564000000000000000000000000000000000000602082015250565b600061246b602e83611bce565b91506124768261240f565b604082019050919050565b6000602082019050818103600083015261249a8161245e565b9050919050565b7f4552433732313a20696e76616c696420746f6b656e2049440000000000000000600082015250565b60006124d7601883611bce565b91506124e2826124a1565b602082019050919050565b60006020820190508181036000830152612506816124ca565b9050919050565b7f4552433732313a2061646472657373207a65726f206973206e6f74206120766160008201527f6c6964206f776e65720000000000000000000000000000000000000000000000602082015250565b6000612569602983611bce565b91506125748261250d565b604082019050919050565b600060208201905081810360008301526125988161255c565b9050919050565b600081905092915050565b60006125b582611bc3565b6125bf818561259f565b93506125cf818560208601611bdf565b80840191505092915050565b60006125e782856125aa565b91506125f382846125aa565b91508190509392505050565b7f4f776e61626c653a206e6577206f776e657220697320746865207a65726f206160008201527f6464726573730000000000000000000000000000000000000000000000000000602082015250565b600061265b602683611bce565b9150612666826125ff565b604082019050919050565b6000602082019050818103600083015261268a8161264e565b9050919050565b7f4f776e61626c653a2063616c6c6572206973206e6f7420746865206f776e6572600082015250565b60006126c7602083611bce565b91506126d282612691565b602082019050919050565b600060208201905081810360008301526126f6816126ba565b9050919050565b7f4552433732313a206d696e7420746f20746865207a65726f2061646472657373600082015250565b6000612733602083611bce565b915061273e826126fd565b602082019050919050565b6000602082019050818103600083015261276281612726565b9050919050565b7f4552433732313a20746f6b656e20616c7265616479206d696e74656400000000600082015250565b600061279f601c83611bce565b91506127aa82612769565b602082019050919050565b600060208201905081810360008301526127ce81612792565b9050919050565b7f4e487b7100000000000000000000000000000000000000000000000000000000600052601160045260246000fd5b600061280f82611c75565b915061281a83611c75565b9250828201905080821115612832576128316127d5565b5b92915050565b7f45524337323155524953746f726167653a2055524920736574206f66206e6f6e60008201527f6578697374656e7420746f6b656e000000000000000000000000000000000000602082015250565b6000612894602e83611bce565b915061289f82612838565b604082019050919050565b600060208201905081810360008301526128c381612887565b9050919050565b60008190508160005260206000209050919050565b60006020601f8301049050919050565b600082821b905092915050565b60006008830261292c7fffffffffffffffffffffffffffffffffffffffffffffffffffffffffffffffff826128ef565b61293686836128ef565b95508019841693508086168417925050509392505050565b6000819050919050565b600061297361296e61296984611c75565b61294e565b611c75565b9050919050565b6000819050919050565b61298d83612958565b6129a16129998261297a565b8484546128fc565b825550505050565b600090565b6129b66129a9565b6129c1818484612984565b505050565b5b818110156129e5576129da6000826129ae565b6001810190506129c7565b5050565b601f821115612a2a576129fb816128ca565b612a04846128df565b81016020851015612a13578190505b612a27612a1f856128df565b8301826129c6565b50505b505050565b600082821c905092915050565b6000612a4d60001984600802612a2f565b1980831691505092915050565b6000612a668383612a3c565b9150826002028217905092915050565b612a7f82611bc3565b67ffffffffffffffff811115612a9857612a97611daa565b5b612aa282546122ba565b612aad8282856129e9565b600060209050601f831160018114612ae05760008415612ace578287015190505b612ad88582612a5a565b865550612b40565b601f198416612aee866128ca565b60005b82811015612b1657848901518255600182019150602085019450602081019050612af1565b86831015612b335784890151612b2f601f891682612a3c565b8355505b6001600288020188555050505b505050505050565b7f4552433732313a207472616e736665722066726f6d20696e636f72726563742060008201527f6f776e6572000000000000000000000000000000000000000000000000000000602082015250565b6000612ba4602583611bce565b9150612baf82612b48565b604082019050919050565b60006020820190508181036000830152612bd381612b97565b9050919050565b7f4552433732313a207472616e7366657220746f20746865207a65726f2061646460008201527f7265737300000000000000000000000000000000000000000000000000000000602082015250565b6000612c36602483611bce565b9150612c4182612bda565b604082019050919050565b60006020820190508181036000830152612c6581612c29565b9050919050565b6000612c7782611c75565b9150612c8283611c75565b9250828203905081811115612c9a57612c996127d5565b5b92915050565b7f4552433732313a20617070726f766520746f2063616c6c657200000000000000600082015250565b6000612cd6601983611bce565b9150612ce182612ca0565b602082019050919050565b60006020820190508181036000830152612d0581612cc9565b9050919050565b7f4552433732313a207472616e7366657220746f206e6f6e20455243373231526560008201527f63656976657220696d706c656d656e7465720000000000000000000000000000602082015250565b6000612d68603283611bce565b9150612d7382612d0c565b604082019050919050565b60006020820190508181036000830152612d9781612d5b565b9050919050565b600081519050919050565b600082825260208201905092915050565b6000612dc582612d9e565b612dcf8185612da9565b9350612ddf818560208601611bdf565b612de881611c09565b840191505092915050565b6000608082019050612e086000830187611d0a565b612e156020830186611d0a565b612e226040830185611f31565b8181036060830152612e348184612dba565b905095945050505050565b600081519050612e4e81611b34565b92915050565b600060208284031215612e6a57612e69611afe565b5b6000612e7884828501612e3f565b91505092915050565b6000612e8c82611c75565b91507fffffffffffffffffffffffffffffffffffffffffffffffffffffffffffffffff8203612ebe57612ebd6127d5565b5b600182019050919050565b7f4e487b7100000000000000000000000000000000000000000000000000000000600052601260045260246000fd5b6000612f0382611c75565b9150612f0e83611c75565b925082612f1e57612f1d612ec9565b5b828204905092915050565b6000612f3482611c75565b9150612f3f83611c75565b925082612f4f57612f4e612ec9565b5b828206905092915050565b7f4e487b7100000000000000000000000000000000000000000000000000000000600052603260045260246000fdfea2646970667358221220c2b2ab92f29e236c797ecdc87d1e3e55283a923d521d6916e90b7cb9550f754964736f6c63430008110033","opcodes":"PUSH1 0x80 PUSH1 0x40 MSTORE CALLVALUE DUP1 ISZERO PUSH3 0x11 JUMPI PUSH1 0x0 DUP1 REVERT JUMPDEST POP PUSH1 0x40 MLOAD DUP1 PUSH1 0x40 ADD PUSH1 0x40 MSTORE DUP1 PUSH1 0x8 DUP2 MSTORE PUSH1 0x20 ADD PUSH32 0x526F7574654E4654000000000000000000000000000000000000000000000000 DUP2 MSTORE POP PUSH1 0x40 MLOAD DUP1 PUSH1 0x40 ADD PUSH1 0x40 MSTORE DUP1 PUSH1 0x5 DUP2 MSTORE PUSH1 0x20 ADD PUSH32 0x524F555445000000000000000000000000000000000000000000000000000000 DUP2 MSTORE POP DUP2 PUSH1 0x0 SWAP1 DUP2 PUSH3 0x8F SWAP2 SWAP1 PUSH3 0x412 JUMP JUMPDEST POP DUP1 PUSH1 0x1 SWAP1 DUP2 PUSH3 0xA1 SWAP2 SWAP1 PUSH3 0x412 JUMP JUMPDEST POP POP POP PUSH3 0xC4 PUSH3 0xB8 PUSH3 0xCA PUSH1 0x20 SHL PUSH1 0x20 SHR JUMP JUMPDEST PUSH3 0xD2 PUSH1 0x20 SHL PUSH1 0x20 SHR JUMP JUMPDEST PUSH3 0x4F9 JUMP JUMPDEST PUSH1 0x0 CALLER SWAP1 POP SWAP1 JUMP JUMPDEST PUSH1 0x0 PUSH1 0x7 PUSH1 0x0 SWAP1 SLOAD SWAP1 PUSH2 0x100 EXP SWAP1 DIV PUSH20 0xFFFFFFFFFFFFFFFFFFFFFFFFFFFFFFFFFFFFFFFF AND SWAP1 POP DUP2 PUSH1 0x7 PUSH1 0x0 PUSH2 0x100 EXP DUP2 SLOAD DUP2 PUSH20 0xFFFFFFFFFFFFFFFFFFFFFFFFFFFFFFFFFFFFFFFF MUL NOT AND SWAP1 DUP4 PUSH20 0xFFFFFFFFFFFFFFFFFFFFFFFFFFFFFFFFFFFFFFFF AND MUL OR SWAP1 SSTORE POP DUP2 PUSH20 0xFFFFFFFFFFFFFFFFFFFFFFFFFFFFFFFFFFFFFFFF AND DUP2 PUSH20 0xFFFFFFFFFFFFFFFFFFFFFFFFFFFFFFFFFFFFFFFF AND PUSH32 0x8BE0079C531659141344CD1FD0A4F28419497F9722A3DAAFE3B4186F6B6457E0 PUSH1 0x40 MLOAD PUSH1 0x40 MLOAD DUP1 SWAP2 SUB SWAP1 LOG3 POP POP JUMP JUMPDEST PUSH1 0x0 DUP2 MLOAD SWAP1 POP SWAP2 SWAP1 POP JUMP JUMPDEST PUSH32 0x4E487B7100000000000000000000000000000000000000000000000000000000 PUSH1 0x0 MSTORE PUSH1 0x41 PUSH1 0x4 MSTORE PUSH1 0x24 PUSH1 0x0 REVERT JUMPDEST PUSH32 0x4E487B7100000000000000000000000000000000000000000000000000000000 PUSH1 0x0 MSTORE PUSH1 0x22 PUSH1 0x4 MSTORE PUSH1 0x24 PUSH1 0x0 REVERT JUMPDEST PUSH1 0x0 PUSH1 0x2 DUP3 DIV SWAP1 POP PUSH1 0x1 DUP3 AND DUP1 PUSH3 0x21A JUMPI PUSH1 0x7F DUP3 AND SWAP2 POP JUMPDEST PUSH1 0x20 DUP3 LT DUP2 SUB PUSH3 0x230 JUMPI PUSH3 0x22F PUSH3 0x1D2 JUMP JUMPDEST JUMPDEST POP SWAP2 SWAP1 POP JUMP JUMPDEST PUSH1 0x0 DUP2 SWAP1 POP DUP2 PUSH1 0x0 MSTORE PUSH1 0x20 PUSH1 0x0 KECCAK256 SWAP1 POP SWAP2 SWAP1 POP JUMP JUMPDEST PUSH1 0x0 PUSH1 0x20 PUSH1 0x1F DUP4 ADD DIV SWAP1 POP SWAP2 SWAP1 POP JUMP JUMPDEST PUSH1 0x0 DUP3 DUP3 SHL SWAP1 POP SWAP3 SWAP2 POP POP JUMP JUMPDEST PUSH1 0x0 PUSH1 0x8 DUP4 MUL PUSH3 0x29A PUSH32 0xFFFFFFFFFFFFFFFFFFFFFFFFFFFFFFFFFFFFFFFFFFFFFFFFFFFFFFFFFFFFFFFF DUP3 PUSH3 0x25B JUMP JUMPDEST PUSH3 0x2A6 DUP7 DUP4 PUSH3 0x25B JUMP JUMPDEST SWAP6 POP DUP1 NOT DUP5 AND SWAP4 POP DUP1 DUP7 AND DUP5 OR SWAP3 POP POP POP SWAP4 SWAP3 POP POP POP JUMP JUMPDEST PUSH1 0x0 DUP2 SWAP1 POP SWAP2 SWAP1 POP JUMP JUMPDEST PUSH1 0x0 DUP2 SWAP1 POP SWAP2 SWAP1 POP JUMP JUMPDEST PUSH1 0x0 PUSH3 0x2F3 PUSH3 0x2ED PUSH3 0x2E7 DUP5 PUSH3 0x2BE JUMP JUMPDEST PUSH3 0x2C8 JUMP JUMPDEST PUSH3 0x2BE JUMP JUMPDEST SWAP1 POP SWAP2 SWAP1 POP JUMP JUMPDEST PUSH1 0x0 DUP2 SWAP1 POP SWAP2 SWAP1 POP JUMP JUMPDEST PUSH3 0x30F DUP4 PUSH3 0x2D2 JUMP JUMPDEST PUSH3 0x327 PUSH3 0x31E DUP3 PUSH3 0x2FA JUMP JUMPDEST DUP5 DUP5 SLOAD PUSH3 0x268 JUMP JUMPDEST DUP3 SSTORE POP POP POP POP JUMP JUMPDEST PUSH1 0x0 SWAP1 JUMP JUMPDEST PUSH3 0x33E PUSH3 0x32F JUMP JUMPDEST PUSH3 0x34B DUP2 DUP5 DUP5 PUSH3 0x304 JUMP JUMPDEST POP POP POP JUMP JUMPDEST JUMPDEST DUP2 DUP2 LT ISZERO PUSH3 0x373 JUMPI PUSH3 0x367 PUSH1 0x0 DUP3 PUSH3 0x334 JUMP JUMPDEST PUSH1 0x1 DUP2 ADD SWAP1 POP PUSH3 0x351 JUMP JUMPDEST POP POP JUMP JUMPDEST PUSH1 0x1F DUP3 GT ISZERO PUSH3 0x3C2 JUMPI PUSH3 0x38C DUP2 PUSH3 0x236 JUMP JUMPDEST PUSH3 0x397 DUP5 PUSH3 0x24B JUMP JUMPDEST DUP2 ADD PUSH1 0x20 DUP6 LT ISZERO PUSH3 0x3A7 JUMPI DUP2 SWAP1 POP JUMPDEST PUSH3 0x3BF PUSH3 0x3B6 DUP6 PUSH3 0x24B JUMP JUMPDEST DUP4 ADD DUP3 PUSH3 0x350 JUMP JUMPDEST POP POP JUMPDEST POP POP POP JUMP JUMPDEST PUSH1 0x0 DUP3 DUP3 SHR SWAP1 POP SWAP3 SWAP2 POP POP JUMP JUMPDEST PUSH1 0x0 PUSH3 0x3E7 PUSH1 0x0 NOT DUP5 PUSH1 0x8 MUL PUSH3 0x3C7 JUMP JUMPDEST NOT DUP1 DUP4 AND SWAP2 POP POP SWAP3 SWAP2 POP POP JUMP JUMPDEST PUSH1 0x0 PUSH3 0x402 DUP4 DUP4 PUSH3 0x3D4 JUMP JUMPDEST SWAP2 POP DUP3 PUSH1 0x2 MUL DUP3 OR SWAP1 POP SWAP3 SWAP2 POP POP JUMP JUMPDEST PUSH3 0x41D DUP3 PUSH3 0x198 JUMP JUMPDEST PUSH8 0xFFFFFFFFFFFFFFFF DUP2 GT ISZERO PUSH3 0x439 JUMPI PUSH3 0x438 PUSH3 0x1A3 JUMP JUMPDEST JUMPDEST PUSH3 0x445 DUP3 SLOAD PUSH3 0x201 JUMP JUMPDEST PUSH3 0x452 DUP3 DUP3 DUP6 PUSH3 0x377 JUMP JUMPDEST PUSH1 0x0 PUSH1 0x20 SWAP1 POP PUSH1 0x1F DUP4 GT PUSH1 0x1 DUP2 EQ PUSH3 0x48A JUMPI PUSH1 0x0 DUP5 ISZERO PUSH3 0x475 JUMPI DUP3 DUP8 ADD MLOAD SWAP1 POP JUMPDEST PUSH3 0x481 DUP6 DUP3 PUSH3 0x3F4 JUMP JUMPDEST DUP7 SSTORE POP PUSH3 0x4F1 JUMP JUMPDEST PUSH1 0x1F NOT DUP5 AND PUSH3 0x49A DUP7 PUSH3 0x236 JUMP JUMPDEST PUSH1 0x0 JUMPDEST DUP3 DUP2 LT ISZERO PUSH3 0x4C4 JUMPI DUP5 DUP10 ADD MLOAD DUP3 SSTORE PUSH1 0x1 DUP3 ADD SWAP2 POP PUSH1 0x20 DUP6 ADD SWAP5 POP PUSH1 0x20 DUP2 ADD SWAP1 POP PUSH3 0x49D JUMP JUMPDEST DUP7 DUP4 LT ISZERO PUSH3 0x4E4 JUMPI DUP5 DUP10 ADD MLOAD PUSH3 0x4E0 PUSH1 0x1F DUP10 AND DUP3 PUSH3 0x3D4 JUMP JUMPDEST DUP4 SSTORE POP JUMPDEST PUSH1 0x1 PUSH1 0x2 DUP9 MUL ADD DUP9 SSTORE POP POP POP JUMPDEST POP POP POP POP POP POP JUMP JUMPDEST PUSH2 0x2FBF DUP1 PUSH3 0x509 PUSH1 0x0 CODECOPY PUSH1 0x0 RETURN INVALID PUSH1 0x80 PUSH1 0x40 MSTORE CALLVALUE DUP1 ISZERO PUSH2 0x10 JUMPI PUSH1 0x0 DUP1 REVERT JUMPDEST POP PUSH1 0x4 CALLDATASIZE LT PUSH2 0x116 JUMPI PUSH1 0x0 CALLDATALOAD PUSH1 0xE0 SHR DUP1 PUSH4 0x715018A6 GT PUSH2 0xA2 JUMPI DUP1 PUSH4 0xB88D4FDE GT PUSH2 0x71 JUMPI DUP1 PUSH4 0xB88D4FDE EQ PUSH2 0x2DF JUMPI DUP1 PUSH4 0xC86BA491 EQ PUSH2 0x2FB JUMPI DUP1 PUSH4 0xC87B56DD EQ PUSH2 0x32B JUMPI DUP1 PUSH4 0xE985E9C5 EQ PUSH2 0x35B JUMPI DUP1 PUSH4 0xF2FDE38B EQ PUSH2 0x38B JUMPI PUSH2 0x116 JUMP JUMPDEST DUP1 PUSH4 0x715018A6 EQ PUSH2 0x27D JUMPI DUP1 PUSH4 0x8DA5CB5B EQ PUSH2 0x287 JUMPI DUP1 PUSH4 0x95D89B41 EQ PUSH2 0x2A5 JUMPI DUP1 PUSH4 0xA22CB465 EQ PUSH2 0x2C3 JUMPI PUSH2 0x116 JUMP JUMPDEST DUP1 PUSH4 0x128DB457 GT PUSH2 0xE9 JUMPI DUP1 PUSH4 0x128DB457 EQ PUSH2 0x1B5 JUMPI DUP1 PUSH4 0x23B872DD EQ PUSH2 0x1E5 JUMPI DUP1 PUSH4 0x42842E0E EQ PUSH2 0x201 JUMPI DUP1 PUSH4 0x6352211E EQ PUSH2 0x21D JUMPI DUP1 PUSH4 0x70A08231 EQ PUSH2 0x24D JUMPI PUSH2 0x116 JUMP JUMPDEST DUP1 PUSH4 0x1FFC9A7 EQ PUSH2 0x11B JUMPI DUP1 PUSH4 0x6FDDE03 EQ PUSH2 0x14B JUMPI DUP1 PUSH4 0x81812FC EQ PUSH2 0x169 JUMPI DUP1 PUSH4 0x95EA7B3 EQ PUSH2 0x199 JUMPI JUMPDEST PUSH1 0x0 DUP1 REVERT JUMPDEST PUSH2 0x135 PUSH1 0x4 DUP1 CALLDATASIZE SUB DUP2 ADD SWAP1 PUSH2 0x130 SWAP2 SWAP1 PUSH2 0x1B60 JUMP JUMPDEST PUSH2 0x3A7 JUMP JUMPDEST PUSH1 0x40 MLOAD PUSH2 0x142 SWAP2 SWAP1 PUSH2 0x1BA8 JUMP JUMPDEST PUSH1 0x40 MLOAD DUP1 SWAP2 SUB SWAP1 RETURN JUMPDEST PUSH2 0x153 PUSH2 0x489 JUMP JUMPDEST PUSH1 0x40 MLOAD PUSH2 0x160 SWAP2 SWAP1 PUSH2 0x1C53 JUMP JUMPDEST PUSH1 0x40 MLOAD DUP1 SWAP2 SUB SWAP1 RETURN JUMPDEST PUSH2 0x183 PUSH1 0x4 DUP1 CALLDATASIZE SUB DUP2 ADD SWAP1 PUSH2 0x17E SWAP2 SWAP1 PUSH2 0x1CAB JUMP JUMPDEST PUSH2 0x51B JUMP JUMPDEST PUSH1 0x40 MLOAD PUSH2 0x190 SWAP2 SWAP1 PUSH2 0x1D19 JUMP JUMPDEST PUSH1 0x40 MLOAD DUP1 SWAP2 SUB SWAP1 RETURN JUMPDEST PUSH2 0x1B3 PUSH1 0x4 DUP1 CALLDATASIZE SUB DUP2 ADD SWAP1 PUSH2 0x1AE SWAP2 SWAP1 PUSH2 0x1D60 JUMP JUMPDEST PUSH2 0x561 JUMP JUMPDEST STOP JUMPDEST PUSH2 0x1CF PUSH1 0x4 DUP1 CALLDATASIZE SUB DUP2 ADD SWAP1 PUSH2 0x1CA SWAP2 SWAP1 PUSH2 0x1ED5 JUMP JUMPDEST PUSH2 0x678 JUMP JUMPDEST PUSH1 0x40 MLOAD PUSH2 0x1DC SWAP2 SWAP1 PUSH2 0x1F40 JUMP JUMPDEST PUSH1 0x40 MLOAD DUP1 SWAP2 SUB SWAP1 RETURN JUMPDEST PUSH2 0x1FF PUSH1 0x4 DUP1 CALLDATASIZE SUB DUP2 ADD SWAP1 PUSH2 0x1FA SWAP2 SWAP1 PUSH2 0x1F5B JUMP JUMPDEST PUSH2 0x71E JUMP JUMPDEST STOP JUMPDEST PUSH2 0x21B PUSH1 0x4 DUP1 CALLDATASIZE SUB DUP2 ADD SWAP1 PUSH2 0x216 SWAP2 SWAP1 PUSH2 0x1F5B JUMP JUMPDEST PUSH2 0x77E JUMP JUMPDEST STOP JUMPDEST PUSH2 0x237 PUSH1 0x4 DUP1 CALLDATASIZE SUB DUP2 ADD SWAP1 PUSH2 0x232 SWAP2 SWAP1 PUSH2 0x1CAB JUMP JUMPDEST PUSH2 0x79E JUMP JUMPDEST PUSH1 0x40 MLOAD PUSH2 0x244 SWAP2 SWAP1 PUSH2 0x1D19 JUMP JUMPDEST PUSH1 0x40 MLOAD DUP1 SWAP2 SUB SWAP1 RETURN JUMPDEST PUSH2 0x267 PUSH1 0x4 DUP1 CALLDATASIZE SUB DUP2 ADD SWAP1 PUSH2 0x262 SWAP2 SWAP1 PUSH2 0x1FAE JUMP JUMPDEST PUSH2 0x84F JUMP JUMPDEST PUSH1 0x40 MLOAD PUSH2 0x274 SWAP2 SWAP1 PUSH2 0x1F40 JUMP JUMPDEST PUSH1 0x40 MLOAD DUP1 SWAP2 SUB SWAP1 RETURN JUMPDEST PUSH2 0x285 PUSH2 0x906 JUMP JUMPDEST STOP JUMPDEST PUSH2 0x28F PUSH2 0x91A JUMP JUMPDEST PUSH1 0x40 MLOAD PUSH2 0x29C SWAP2 SWAP1 PUSH2 0x1D19 JUMP JUMPDEST PUSH1 0x40 MLOAD DUP1 SWAP2 SUB SWAP1 RETURN JUMPDEST PUSH2 0x2AD PUSH2 0x944 JUMP JUMPDEST PUSH1 0x40 MLOAD PUSH2 0x2BA SWAP2 SWAP1 PUSH2 0x1C53 JUMP JUMPDEST PUSH1 0x40 MLOAD DUP1 SWAP2 SUB SWAP1 RETURN JUMPDEST PUSH2 0x2DD PUSH1 0x4 DUP1 CALLDATASIZE SUB DUP2 ADD SWAP1 PUSH2 0x2D8 SWAP2 SWAP1 PUSH2 0x2007 JUMP JUMPDEST PUSH2 0x9D6 JUMP JUMPDEST STOP JUMPDEST PUSH2 0x2F9 PUSH1 0x4 DUP1 CALLDATASIZE SUB DUP2 ADD SWAP1 PUSH2 0x2F4 SWAP2 SWAP1 PUSH2 0x20E8 JUMP JUMPDEST PUSH2 0x9EC JUMP JUMPDEST STOP JUMPDEST PUSH2 0x315 PUSH1 0x4 DUP1 CALLDATASIZE SUB DUP2 ADD SWAP1 PUSH2 0x310 SWAP2 SWAP1 PUSH2 0x1FAE JUMP JUMPDEST PUSH2 0xA4E JUMP JUMPDEST PUSH1 0x40 MLOAD PUSH2 0x322 SWAP2 SWAP1 PUSH2 0x2229 JUMP JUMPDEST PUSH1 0x40 MLOAD DUP1 SWAP2 SUB SWAP1 RETURN JUMPDEST PUSH2 0x345 PUSH1 0x4 DUP1 CALLDATASIZE SUB DUP2 ADD SWAP1 PUSH2 0x340 SWAP2 SWAP1 PUSH2 0x1CAB JUMP JUMPDEST PUSH2 0xAE5 JUMP JUMPDEST PUSH1 0x40 MLOAD PUSH2 0x352 SWAP2 SWAP1 PUSH2 0x1C53 JUMP JUMPDEST PUSH1 0x40 MLOAD DUP1 SWAP2 SUB SWAP1 RETURN JUMPDEST PUSH2 0x375 PUSH1 0x4 DUP1 CALLDATASIZE SUB DUP2 ADD SWAP1 PUSH2 0x370 SWAP2 SWAP1 PUSH2 0x224B JUMP JUMPDEST PUSH2 0xBF7 JUMP JUMPDEST PUSH1 0x40 MLOAD PUSH2 0x382 SWAP2 SWAP1 PUSH2 0x1BA8 JUMP JUMPDEST PUSH1 0x40 MLOAD DUP1 SWAP2 SUB SWAP1 RETURN JUMPDEST PUSH2 0x3A5 PUSH1 0x4 DUP1 CALLDATASIZE SUB DUP2 ADD SWAP1 PUSH2 0x3A0 SWAP2 SWAP1 PUSH2 0x1FAE JUMP JUMPDEST PUSH2 0xC8B JUMP JUMPDEST STOP JUMPDEST PUSH1 0x0 PUSH32 0x80AC58CD00000000000000000000000000000000000000000000000000000000 PUSH28 0xFFFFFFFFFFFFFFFFFFFFFFFFFFFFFFFFFFFFFFFFFFFFFFFFFFFFFFFF NOT AND DUP3 PUSH28 0xFFFFFFFFFFFFFFFFFFFFFFFFFFFFFFFFFFFFFFFFFFFFFFFFFFFFFFFF NOT AND EQ DUP1 PUSH2 0x472 JUMPI POP PUSH32 0x5B5E139F00000000000000000000000000000000000000000000000000000000 PUSH28 0xFFFFFFFFFFFFFFFFFFFFFFFFFFFFFFFFFFFFFFFFFFFFFFFFFFFFFFFF NOT AND DUP3 PUSH28 0xFFFFFFFFFFFFFFFFFFFFFFFFFFFFFFFFFFFFFFFFFFFFFFFFFFFFFFFF NOT AND EQ JUMPDEST DUP1 PUSH2 0x482 JUMPI POP PUSH2 0x481 DUP3 PUSH2 0xD0E JUMP JUMPDEST JUMPDEST SWAP1 POP SWAP2 SWAP1 POP JUMP JUMPDEST PUSH1 0x60 PUSH1 0x0 DUP1 SLOAD PUSH2 0x498 SWAP1 PUSH2 0x22BA JUMP JUMPDEST DUP1 PUSH1 0x1F ADD PUSH1 0x20 DUP1 SWAP2 DIV MUL PUSH1 0x20 ADD PUSH1 0x40 MLOAD SWAP1 DUP2 ADD PUSH1 0x40 MSTORE DUP1 SWAP3 SWAP2 SWAP1 DUP2 DUP2 MSTORE PUSH1 0x20 ADD DUP3 DUP1 SLOAD PUSH2 0x4C4 SWAP1 PUSH2 0x22BA JUMP JUMPDEST DUP1 ISZERO PUSH2 0x511 JUMPI DUP1 PUSH1 0x1F LT PUSH2 0x4E6 JUMPI PUSH2 0x100 DUP1 DUP4 SLOAD DIV MUL DUP4 MSTORE SWAP2 PUSH1 0x20 ADD SWAP2 PUSH2 0x511 JUMP JUMPDEST DUP3 ADD SWAP2 SWAP1 PUSH1 0x0 MSTORE PUSH1 0x20 PUSH1 0x0 KECCAK256 SWAP1 JUMPDEST DUP2 SLOAD DUP2 MSTORE SWAP1 PUSH1 0x1 ADD SWAP1 PUSH1 0x20 ADD DUP1 DUP4 GT PUSH2 0x4F4 JUMPI DUP3 SWAP1 SUB PUSH1 0x1F AND DUP3 ADD SWAP2 JUMPDEST POP POP POP POP POP SWAP1 POP SWAP1 JUMP JUMPDEST PUSH1 0x0 PUSH2 0x526 DUP3 PUSH2 0xD78 JUMP JUMPDEST PUSH1 0x4 PUSH1 0x0 DUP4 DUP2 MSTORE PUSH1 0x20 ADD SWAP1 DUP2 MSTORE PUSH1 0x20 ADD PUSH1 0x0 KECCAK256 PUSH1 0x0 SWAP1 SLOAD SWAP1 PUSH2 0x100 EXP SWAP1 DIV PUSH20 0xFFFFFFFFFFFFFFFFFFFFFFFFFFFFFFFFFFFFFFFF AND SWAP1 POP SWAP2 SWAP1 POP JUMP JUMPDEST PUSH1 0x0 PUSH2 0x56C DUP3 PUSH2 0x79E JUMP JUMPDEST SWAP1 POP DUP1 PUSH20 0xFFFFFFFFFFFFFFFFFFFFFFFFFFFFFFFFFFFFFFFF AND DUP4 PUSH20 0xFFFFFFFFFFFFFFFFFFFFFFFFFFFFFFFFFFFFFFFF AND SUB PUSH2 0x5DC JUMPI PUSH1 0x40 MLOAD PUSH32 0x8C379A000000000000000000000000000000000000000000000000000000000 DUP2 MSTORE PUSH1 0x4 ADD PUSH2 0x5D3 SWAP1 PUSH2 0x235D JUMP JUMPDEST PUSH1 0x40 MLOAD DUP1 SWAP2 SUB SWAP1 REVERT JUMPDEST DUP1 PUSH20 0xFFFFFFFFFFFFFFFFFFFFFFFFFFFFFFFFFFFFFFFF AND PUSH2 0x5FB PUSH2 0xDC3 JUMP JUMPDEST PUSH20 0xFFFFFFFFFFFFFFFFFFFFFFFFFFFFFFFFFFFFFFFF AND EQ DUP1 PUSH2 0x62A JUMPI POP PUSH2 0x629 DUP2 PUSH2 0x624 PUSH2 0xDC3 JUMP JUMPDEST PUSH2 0xBF7 JUMP JUMPDEST JUMPDEST PUSH2 0x669 JUMPI PUSH1 0x40 MLOAD PUSH32 0x8C379A000000000000000000000000000000000000000000000000000000000 DUP2 MSTORE PUSH1 0x4 ADD PUSH2 0x660 SWAP1 PUSH2 0x23EF JUMP JUMPDEST PUSH1 0x40 MLOAD DUP1 SWAP2 SUB SWAP1 REVERT JUMPDEST PUSH2 0x673 DUP4 DUP4 PUSH2 0xDCB JUMP JUMPDEST POP POP POP JUMP JUMPDEST PUSH1 0x0 PUSH2 0x682 PUSH2 0xE84 JUMP JUMPDEST PUSH2 0x68C PUSH1 0x8 PUSH2 0xF02 JUMP JUMPDEST PUSH1 0x0 PUSH2 0x698 PUSH1 0x8 PUSH2 0xF18 JUMP JUMPDEST SWAP1 POP PUSH1 0x9 PUSH1 0x0 DUP6 PUSH20 0xFFFFFFFFFFFFFFFFFFFFFFFFFFFFFFFFFFFFFFFF AND PUSH20 0xFFFFFFFFFFFFFFFFFFFFFFFFFFFFFFFFFFFFFFFF AND DUP2 MSTORE PUSH1 0x20 ADD SWAP1 DUP2 MSTORE PUSH1 0x20 ADD PUSH1 0x0 KECCAK256 DUP2 SWAP1 DUP1 PUSH1 0x1 DUP2 SLOAD ADD DUP1 DUP3 SSTORE DUP1 SWAP2 POP POP PUSH1 0x1 SWAP1 SUB SWAP1 PUSH1 0x0 MSTORE PUSH1 0x20 PUSH1 0x0 KECCAK256 ADD PUSH1 0x0 SWAP1 SWAP2 SWAP1 SWAP2 SWAP1 SWAP2 POP SSTORE PUSH2 0x70A DUP5 DUP3 PUSH2 0xF26 JUMP JUMPDEST PUSH2 0x714 DUP2 DUP5 PUSH2 0x10FF JUMP JUMPDEST DUP1 SWAP2 POP POP SWAP3 SWAP2 POP POP JUMP JUMPDEST PUSH2 0x72F PUSH2 0x729 PUSH2 0xDC3 JUMP JUMPDEST DUP3 PUSH2 0x116C JUMP JUMPDEST PUSH2 0x76E JUMPI PUSH1 0x40 MLOAD PUSH32 0x8C379A000000000000000000000000000000000000000000000000000000000 DUP2 MSTORE PUSH1 0x4 ADD PUSH2 0x765 SWAP1 PUSH2 0x2481 JUMP JUMPDEST PUSH1 0x40 MLOAD DUP1 SWAP2 SUB SWAP1 REVERT JUMPDEST PUSH2 0x779 DUP4 DUP4 DUP4 PUSH2 0x1201 JUMP JUMPDEST POP POP POP JUMP JUMPDEST PUSH2 0x799 DUP4 DUP4 DUP4 PUSH1 0x40 MLOAD DUP1 PUSH1 0x20 ADD PUSH1 0x40 MSTORE DUP1 PUSH1 0x0 DUP2 MSTORE POP PUSH2 0x9EC JUMP JUMPDEST POP POP POP JUMP JUMPDEST PUSH1 0x0 DUP1 PUSH1 0x2 PUSH1 0x0 DUP5 DUP2 MSTORE PUSH1 0x20 ADD SWAP1 DUP2 MSTORE PUSH1 0x20 ADD PUSH1 0x0 KECCAK256 PUSH1 0x0 SWAP1 SLOAD SWAP1 PUSH2 0x100 EXP SWAP1 DIV PUSH20 0xFFFFFFFFFFFFFFFFFFFFFFFFFFFFFFFFFFFFFFFF AND SWAP1 POP PUSH1 0x0 PUSH20 0xFFFFFFFFFFFFFFFFFFFFFFFFFFFFFFFFFFFFFFFF AND DUP2 PUSH20 0xFFFFFFFFFFFFFFFFFFFFFFFFFFFFFFFFFFFFFFFF AND SUB PUSH2 0x846 JUMPI PUSH1 0x40 MLOAD PUSH32 0x8C379A000000000000000000000000000000000000000000000000000000000 DUP2 MSTORE PUSH1 0x4 ADD PUSH2 0x83D SWAP1 PUSH2 0x24ED JUMP JUMPDEST PUSH1 0x40 MLOAD DUP1 SWAP2 SUB SWAP1 REVERT JUMPDEST DUP1 SWAP2 POP POP SWAP2 SWAP1 POP JUMP JUMPDEST PUSH1 0x0 DUP1 PUSH20 0xFFFFFFFFFFFFFFFFFFFFFFFFFFFFFFFFFFFFFFFF AND DUP3 PUSH20 0xFFFFFFFFFFFFFFFFFFFFFFFFFFFFFFFFFFFFFFFF AND SUB PUSH2 0x8BF JUMPI PUSH1 0x40 MLOAD PUSH32 0x8C379A000000000000000000000000000000000000000000000000000000000 DUP2 MSTORE PUSH1 0x4 ADD PUSH2 0x8B6 SWAP1 PUSH2 0x257F JUMP JUMPDEST PUSH1 0x40 MLOAD DUP1 SWAP2 SUB SWAP1 REVERT JUMPDEST PUSH1 0x3 PUSH1 0x0 DUP4 PUSH20 0xFFFFFFFFFFFFFFFFFFFFFFFFFFFFFFFFFFFFFFFF AND PUSH20 0xFFFFFFFFFFFFFFFFFFFFFFFFFFFFFFFFFFFFFFFF AND DUP2 MSTORE PUSH1 0x20 ADD SWAP1 DUP2 MSTORE PUSH1 0x20 ADD PUSH1 0x0 KECCAK256 SLOAD SWAP1 POP SWAP2 SWAP1 POP JUMP JUMPDEST PUSH2 0x90E PUSH2 0xE84 JUMP JUMPDEST PUSH2 0x918 PUSH1 0x0 PUSH2 0x1467 JUMP JUMPDEST JUMP JUMPDEST PUSH1 0x0 PUSH1 0x7 PUSH1 0x0 SWAP1 SLOAD SWAP1 PUSH2 0x100 EXP SWAP1 DIV PUSH20 0xFFFFFFFFFFFFFFFFFFFFFFFFFFFFFFFFFFFFFFFF AND SWAP1 POP SWAP1 JUMP JUMPDEST PUSH1 0x60 PUSH1 0x1 DUP1 SLOAD PUSH2 0x953 SWAP1 PUSH2 0x22BA JUMP JUMPDEST DUP1 PUSH1 0x1F ADD PUSH1 0x20 DUP1 SWAP2 DIV MUL PUSH1 0x20 ADD PUSH1 0x40 MLOAD SWAP1 DUP2 ADD PUSH1 0x40 MSTORE DUP1 SWAP3 SWAP2 SWAP1 DUP2 DUP2 MSTORE PUSH1 0x20 ADD DUP3 DUP1 SLOAD PUSH2 0x97F SWAP1 PUSH2 0x22BA JUMP JUMPDEST DUP1 ISZERO PUSH2 0x9CC JUMPI DUP1 PUSH1 0x1F LT PUSH2 0x9A1 JUMPI PUSH2 0x100 DUP1 DUP4 SLOAD DIV MUL DUP4 MSTORE SWAP2 PUSH1 0x20 ADD SWAP2 PUSH2 0x9CC JUMP JUMPDEST DUP3 ADD SWAP2 SWAP1 PUSH1 0x0 MSTORE PUSH1 0x20 PUSH1 0x0 KECCAK256 SWAP1 JUMPDEST DUP2 SLOAD DUP2 MSTORE SWAP1 PUSH1 0x1 ADD SWAP1 PUSH1 0x20 ADD DUP1 DUP4 GT PUSH2 0x9AF JUMPI DUP3 SWAP1 SUB PUSH1 0x1F AND DUP3 ADD SWAP2 JUMPDEST POP POP POP POP POP SWAP1 POP SWAP1 JUMP JUMPDEST PUSH2 0x9E8 PUSH2 0x9E1 PUSH2 0xDC3 JUMP JUMPDEST DUP4 DUP4 PUSH2 0x152D JUMP JUMPDEST POP POP JUMP JUMPDEST PUSH2 0x9FD PUSH2 0x9F7 PUSH2 0xDC3 JUMP JUMPDEST DUP4 PUSH2 0x116C JUMP JUMPDEST PUSH2 0xA3C JUMPI PUSH1 0x40 MLOAD PUSH32 0x8C379A000000000000000000000000000000000000000000000000000000000 DUP2 MSTORE PUSH1 0x4 ADD PUSH2 0xA33 SWAP1 PUSH2 0x2481 JUMP JUMPDEST PUSH1 0x40 MLOAD DUP1 SWAP2 SUB SWAP1 REVERT JUMPDEST PUSH2 0xA48 DUP5 DUP5 DUP5 DUP5 PUSH2 0x1699 JUMP JUMPDEST POP POP POP POP JUMP JUMPDEST PUSH1 0x60 PUSH1 0x9 PUSH1 0x0 DUP4 PUSH20 0xFFFFFFFFFFFFFFFFFFFFFFFFFFFFFFFFFFFFFFFF AND PUSH20 0xFFFFFFFFFFFFFFFFFFFFFFFFFFFFFFFFFFFFFFFF AND DUP2 MSTORE PUSH1 0x20 ADD SWAP1 DUP2 MSTORE PUSH1 0x20 ADD PUSH1 0x0 KECCAK256 DUP1 SLOAD DUP1 PUSH1 0x20 MUL PUSH1 0x20 ADD PUSH1 0x40 MLOAD SWAP1 DUP2 ADD PUSH1 0x40 MSTORE DUP1 SWAP3 SWAP2 SWAP1 DUP2 DUP2 MSTORE PUSH1 0x20 ADD DUP3 DUP1 SLOAD DUP1 ISZERO PUSH2 0xAD9 JUMPI PUSH1 0x20 MUL DUP3 ADD SWAP2 SWAP1 PUSH1 0x0 MSTORE PUSH1 0x20 PUSH1 0x0 KECCAK256 SWAP1 JUMPDEST DUP2 SLOAD DUP2 MSTORE PUSH1 0x20 ADD SWAP1 PUSH1 0x1 ADD SWAP1 DUP1 DUP4 GT PUSH2 0xAC5 JUMPI JUMPDEST POP POP POP POP POP SWAP1 POP SWAP2 SWAP1 POP JUMP JUMPDEST PUSH1 0x60 PUSH2 0xAF0 DUP3 PUSH2 0xD78 JUMP JUMPDEST PUSH1 0x0 PUSH1 0x6 PUSH1 0x0 DUP5 DUP2 MSTORE PUSH1 0x20 ADD SWAP1 DUP2 MSTORE PUSH1 0x20 ADD PUSH1 0x0 KECCAK256 DUP1 SLOAD PUSH2 0xB10 SWAP1 PUSH2 0x22BA JUMP JUMPDEST DUP1 PUSH1 0x1F ADD PUSH1 0x20 DUP1 SWAP2 DIV MUL PUSH1 0x20 ADD PUSH1 0x40 MLOAD SWAP1 DUP2 ADD PUSH1 0x40 MSTORE DUP1 SWAP3 SWAP2 SWAP1 DUP2 DUP2 MSTORE PUSH1 0x20 ADD DUP3 DUP1 SLOAD PUSH2 0xB3C SWAP1 PUSH2 0x22BA JUMP JUMPDEST DUP1 ISZERO PUSH2 0xB89 JUMPI DUP1 PUSH1 0x1F LT PUSH2 0xB5E JUMPI PUSH2 0x100 DUP1 DUP4 SLOAD DIV MUL DUP4 MSTORE SWAP2 PUSH1 0x20 ADD SWAP2 PUSH2 0xB89 JUMP JUMPDEST DUP3 ADD SWAP2 SWAP1 PUSH1 0x0 MSTORE PUSH1 0x20 PUSH1 0x0 KECCAK256 SWAP1 JUMPDEST DUP2 SLOAD DUP2 MSTORE SWAP1 PUSH1 0x1 ADD SWAP1 PUSH1 0x20 ADD DUP1 DUP4 GT PUSH2 0xB6C JUMPI DUP3 SWAP1 SUB PUSH1 0x1F AND DUP3 ADD SWAP2 JUMPDEST POP POP POP POP POP SWAP1 POP PUSH1 0x0 PUSH2 0xB9A PUSH2 0x16F5 JUMP JUMPDEST SWAP1 POP PUSH1 0x0 DUP2 MLOAD SUB PUSH2 0xBAF JUMPI DUP2 SWAP3 POP POP POP PUSH2 0xBF2 JUMP JUMPDEST PUSH1 0x0 DUP3 MLOAD GT ISZERO PUSH2 0xBE4 JUMPI DUP1 DUP3 PUSH1 0x40 MLOAD PUSH1 0x20 ADD PUSH2 0xBCC SWAP3 SWAP2 SWAP1 PUSH2 0x25DB JUMP JUMPDEST PUSH1 0x40 MLOAD PUSH1 0x20 DUP2 DUP4 SUB SUB DUP2 MSTORE SWAP1 PUSH1 0x40 MSTORE SWAP3 POP POP POP PUSH2 0xBF2 JUMP JUMPDEST PUSH2 0xBED DUP5 PUSH2 0x170C JUMP JUMPDEST SWAP3 POP POP POP JUMPDEST SWAP2 SWAP1 POP JUMP JUMPDEST PUSH1 0x0 PUSH1 0x5 PUSH1 0x0 DUP5 PUSH20 0xFFFFFFFFFFFFFFFFFFFFFFFFFFFFFFFFFFFFFFFF AND PUSH20 0xFFFFFFFFFFFFFFFFFFFFFFFFFFFFFFFFFFFFFFFF AND DUP2 MSTORE PUSH1 0x20 ADD SWAP1 DUP2 MSTORE PUSH1 0x20 ADD PUSH1 0x0 KECCAK256 PUSH1 0x0 DUP4 PUSH20 0xFFFFFFFFFFFFFFFFFFFFFFFFFFFFFFFFFFFFFFFF AND PUSH20 0xFFFFFFFFFFFFFFFFFFFFFFFFFFFFFFFFFFFFFFFF AND DUP2 MSTORE PUSH1 0x20 ADD SWAP1 DUP2 MSTORE PUSH1 0x20 ADD PUSH1 0x0 KECCAK256 PUSH1 0x0 SWAP1 SLOAD SWAP1 PUSH2 0x100 EXP SWAP1 DIV PUSH1 0xFF AND SWAP1 POP SWAP3 SWAP2 POP POP JUMP JUMPDEST PUSH2 0xC93 PUSH2 0xE84 JUMP JUMPDEST PUSH1 0x0 PUSH20 0xFFFFFFFFFFFFFFFFFFFFFFFFFFFFFFFFFFFFFFFF AND DUP2 PUSH20 0xFFFFFFFFFFFFFFFFFFFFFFFFFFFFFFFFFFFFFFFF AND SUB PUSH2 0xD02 JUMPI PUSH1 0x40 MLOAD PUSH32 0x8C379A000000000000000000000000000000000000000000000000000000000 DUP2 MSTORE PUSH1 0x4 ADD PUSH2 0xCF9 SWAP1 PUSH2 0x2671 JUMP JUMPDEST PUSH1 0x40 MLOAD DUP1 SWAP2 SUB SWAP1 REVERT JUMPDEST PUSH2 0xD0B DUP2 PUSH2 0x1467 JUMP JUMPDEST POP JUMP JUMPDEST PUSH1 0x0 PUSH32 0x1FFC9A700000000000000000000000000000000000000000000000000000000 PUSH28 0xFFFFFFFFFFFFFFFFFFFFFFFFFFFFFFFFFFFFFFFFFFFFFFFFFFFFFFFF NOT AND DUP3 PUSH28 0xFFFFFFFFFFFFFFFFFFFFFFFFFFFFFFFFFFFFFFFFFFFFFFFFFFFFFFFF NOT AND EQ SWAP1 POP SWAP2 SWAP1 POP JUMP JUMPDEST PUSH2 0xD81 DUP2 PUSH2 0x1774 JUMP JUMPDEST PUSH2 0xDC0 JUMPI PUSH1 0x40 MLOAD PUSH32 0x8C379A000000000000000000000000000000000000000000000000000000000 DUP2 MSTORE PUSH1 0x4 ADD PUSH2 0xDB7 SWAP1 PUSH2 0x24ED JUMP JUMPDEST PUSH1 0x40 MLOAD DUP1 SWAP2 SUB SWAP1 REVERT JUMPDEST POP JUMP JUMPDEST PUSH1 0x0 CALLER SWAP1 POP SWAP1 JUMP JUMPDEST DUP2 PUSH1 0x4 PUSH1 0x0 DUP4 DUP2 MSTORE PUSH1 0x20 ADD SWAP1 DUP2 MSTORE PUSH1 0x20 ADD PUSH1 0x0 KECCAK256 PUSH1 0x0 PUSH2 0x100 EXP DUP2 SLOAD DUP2 PUSH20 0xFFFFFFFFFFFFFFFFFFFFFFFFFFFFFFFFFFFFFFFF MUL NOT AND SWAP1 DUP4 PUSH20 0xFFFFFFFFFFFFFFFFFFFFFFFFFFFFFFFFFFFFFFFF AND MUL OR SWAP1 SSTORE POP DUP1 DUP3 PUSH20 0xFFFFFFFFFFFFFFFFFFFFFFFFFFFFFFFFFFFFFFFF AND PUSH2 0xE3E DUP4 PUSH2 0x79E JUMP JUMPDEST PUSH20 0xFFFFFFFFFFFFFFFFFFFFFFFFFFFFFFFFFFFFFFFF AND PUSH32 0x8C5BE1E5EBEC7D5BD14F71427D1E84F3DD0314C0F7B2291E5B200AC8C7C3B925 PUSH1 0x40 MLOAD PUSH1 0x40 MLOAD DUP1 SWAP2 SUB SWAP1 LOG4 POP POP JUMP JUMPDEST PUSH2 0xE8C PUSH2 0xDC3 JUMP JUMPDEST PUSH20 0xFFFFFFFFFFFFFFFFFFFFFFFFFFFFFFFFFFFFFFFF AND PUSH2 0xEAA PUSH2 0x91A JUMP JUMPDEST PUSH20 0xFFFFFFFFFFFFFFFFFFFFFFFFFFFFFFFFFFFFFFFF AND EQ PUSH2 0xF00 JUMPI PUSH1 0x40 MLOAD PUSH32 0x8C379A000000000000000000000000000000000000000000000000000000000 DUP2 MSTORE PUSH1 0x4 ADD PUSH2 0xEF7 SWAP1 PUSH2 0x26DD JUMP JUMPDEST PUSH1 0x40 MLOAD DUP1 SWAP2 SUB SWAP1 REVERT JUMPDEST JUMP JUMPDEST PUSH1 0x1 DUP2 PUSH1 0x0 ADD PUSH1 0x0 DUP3 DUP3 SLOAD ADD SWAP3 POP POP DUP2 SWAP1 SSTORE POP POP JUMP JUMPDEST PUSH1 0x0 DUP2 PUSH1 0x0 ADD SLOAD SWAP1 POP SWAP2 SWAP1 POP JUMP JUMPDEST PUSH1 0x0 PUSH20 0xFFFFFFFFFFFFFFFFFFFFFFFFFFFFFFFFFFFFFFFF AND DUP3 PUSH20 0xFFFFFFFFFFFFFFFFFFFFFFFFFFFFFFFFFFFFFFFF AND SUB PUSH2 0xF95 JUMPI PUSH1 0x40 MLOAD PUSH32 0x8C379A000000000000000000000000000000000000000000000000000000000 DUP2 MSTORE PUSH1 0x4 ADD PUSH2 0xF8C SWAP1 PUSH2 0x2749 JUMP JUMPDEST PUSH1 0x40 MLOAD DUP1 SWAP2 SUB SWAP1 REVERT JUMPDEST PUSH2 0xF9E DUP2 PUSH2 0x1774 JUMP JUMPDEST ISZERO PUSH2 0xFDE JUMPI PUSH1 0x40 MLOAD PUSH32 0x8C379A000000000000000000000000000000000000000000000000000000000 DUP2 MSTORE PUSH1 0x4 ADD PUSH2 0xFD5 SWAP1 PUSH2 0x27B5 JUMP JUMPDEST PUSH1 0x40 MLOAD DUP1 SWAP2 SUB SWAP1 REVERT JUMPDEST PUSH2 0xFEA PUSH1 0x0 DUP4 DUP4 PUSH2 0x17E0 JUMP JUMPDEST PUSH1 0x1 PUSH1 0x3 PUSH1 0x0 DUP5 PUSH20 0xFFFFFFFFFFFFFFFFFFFFFFFFFFFFFFFFFFFFFFFF AND PUSH20 0xFFFFFFFFFFFFFFFFFFFFFFFFFFFFFFFFFFFFFFFF AND DUP2 MSTORE PUSH1 0x20 ADD SWAP1 DUP2 MSTORE PUSH1 0x20 ADD PUSH1 0x0 KECCAK256 PUSH1 0x0 DUP3 DUP3 SLOAD PUSH2 0x103A SWAP2 SWAP1 PUSH2 0x2804 JUMP JUMPDEST SWAP3 POP POP DUP2 SWAP1 SSTORE POP DUP2 PUSH1 0x2 PUSH1 0x0 DUP4 DUP2 MSTORE PUSH1 0x20 ADD SWAP1 DUP2 MSTORE PUSH1 0x20 ADD PUSH1 0x0 KECCAK256 PUSH1 0x0 PUSH2 0x100 EXP DUP2 SLOAD DUP2 PUSH20 0xFFFFFFFFFFFFFFFFFFFFFFFFFFFFFFFFFFFFFFFF MUL NOT AND SWAP1 DUP4 PUSH20 0xFFFFFFFFFFFFFFFFFFFFFFFFFFFFFFFFFFFFFFFF AND MUL OR SWAP1 SSTORE POP DUP1 DUP3 PUSH20 0xFFFFFFFFFFFFFFFFFFFFFFFFFFFFFFFFFFFFFFFF AND PUSH1 0x0 PUSH20 0xFFFFFFFFFFFFFFFFFFFFFFFFFFFFFFFFFFFFFFFF AND PUSH32 0xDDF252AD1BE2C89B69C2B068FC378DAA952BA7F163C4A11628F55A4DF523B3EF PUSH1 0x40 MLOAD PUSH1 0x40 MLOAD DUP1 SWAP2 SUB SWAP1 LOG4 PUSH2 0x10FB PUSH1 0x0 DUP4 DUP4 PUSH2 0x17E5 JUMP JUMPDEST POP POP JUMP JUMPDEST PUSH2 0x1108 DUP3 PUSH2 0x1774 JUMP JUMPDEST PUSH2 0x1147 JUMPI PUSH1 0x40 MLOAD PUSH32 0x8C379A000000000000000000000000000000000000000000000000000000000 DUP2 MSTORE PUSH1 0x4 ADD PUSH2 0x113E SWAP1 PUSH2 0x28AA JUMP JUMPDEST PUSH1 0x40 MLOAD DUP1 SWAP2 SUB SWAP1 REVERT JUMPDEST DUP1 PUSH1 0x6 PUSH1 0x0 DUP5 DUP2 MSTORE PUSH1 0x20 ADD SWAP1 DUP2 MSTORE PUSH1 0x20 ADD PUSH1 0x0 KECCAK256 SWAP1 DUP2 PUSH2 0x1167 SWAP2 SWAP1 PUSH2 0x2A76 JUMP JUMPDEST POP POP POP JUMP JUMPDEST PUSH1 0x0 DUP1 PUSH2 0x1178 DUP4 PUSH2 0x79E JUMP JUMPDEST SWAP1 POP DUP1 PUSH20 0xFFFFFFFFFFFFFFFFFFFFFFFFFFFFFFFFFFFFFFFF AND DUP5 PUSH20 0xFFFFFFFFFFFFFFFFFFFFFFFFFFFFFFFFFFFFFFFF AND EQ DUP1 PUSH2 0x11BA JUMPI POP PUSH2 0x11B9 DUP2 DUP6 PUSH2 0xBF7 JUMP JUMPDEST JUMPDEST DUP1 PUSH2 0x11F8 JUMPI POP DUP4 PUSH20 0xFFFFFFFFFFFFFFFFFFFFFFFFFFFFFFFFFFFFFFFF AND PUSH2 0x11E0 DUP5 PUSH2 0x51B JUMP JUMPDEST PUSH20 0xFFFFFFFFFFFFFFFFFFFFFFFFFFFFFFFFFFFFFFFF AND EQ JUMPDEST SWAP2 POP POP SWAP3 SWAP2 POP POP JUMP JUMPDEST DUP3 PUSH20 0xFFFFFFFFFFFFFFFFFFFFFFFFFFFFFFFFFFFFFFFF AND PUSH2 0x1221 DUP3 PUSH2 0x79E JUMP JUMPDEST PUSH20 0xFFFFFFFFFFFFFFFFFFFFFFFFFFFFFFFFFFFFFFFF AND EQ PUSH2 0x1277 JUMPI PUSH1 0x40 MLOAD PUSH32 0x8C379A000000000000000000000000000000000000000000000000000000000 DUP2 MSTORE PUSH1 0x4 ADD PUSH2 0x126E SWAP1 PUSH2 0x2BBA JUMP JUMPDEST PUSH1 0x40 MLOAD DUP1 SWAP2 SUB SWAP1 REVERT JUMPDEST PUSH1 0x0 PUSH20 0xFFFFFFFFFFFFFFFFFFFFFFFFFFFFFFFFFFFFFFFF AND DUP3 PUSH20 0xFFFFFFFFFFFFFFFFFFFFFFFFFFFFFFFFFFFFFFFF AND SUB PUSH2 0x12E6 JUMPI PUSH1 0x40 MLOAD PUSH32 0x8C379A000000000000000000000000000000000000000000000000000000000 DUP2 MSTORE PUSH1 0x4 ADD PUSH2 0x12DD SWAP1 PUSH2 0x2C4C JUMP JUMPDEST PUSH1 0x40 MLOAD DUP1 SWAP2 SUB SWAP1 REVERT JUMPDEST PUSH2 0x12F1 DUP4 DUP4 DUP4 PUSH2 0x17E0 JUMP JUMPDEST PUSH2 0x12FC PUSH1 0x0 DUP3 PUSH2 0xDCB JUMP JUMPDEST PUSH1 0x1 PUSH1 0x3 PUSH1 0x0 DUP6 PUSH20 0xFFFFFFFFFFFFFFFFFFFFFFFFFFFFFFFFFFFFFFFF AND PUSH20 0xFFFFFFFFFFFFFFFFFFFFFFFFFFFFFFFFFFFFFFFF AND DUP2 MSTORE PUSH1 0x20 ADD SWAP1 DUP2 MSTORE PUSH1 0x20 ADD PUSH1 0x0 KECCAK256 PUSH1 0x0 DUP3 DUP3 SLOAD PUSH2 0x134C SWAP2 SWAP1 PUSH2 0x2C6C JUMP JUMPDEST SWAP3 POP POP DUP2 SWAP1 SSTORE POP PUSH1 0x1 PUSH1 0x3 PUSH1 0x0 DUP5 PUSH20 0xFFFFFFFFFFFFFFFFFFFFFFFFFFFFFFFFFFFFFFFF AND PUSH20 0xFFFFFFFFFFFFFFFFFFFFFFFFFFFFFFFFFFFFFFFF AND DUP2 MSTORE PUSH1 0x20 ADD SWAP1 DUP2 MSTORE PUSH1 0x20 ADD PUSH1 0x0 KECCAK256 PUSH1 0x0 DUP3 DUP3 SLOAD PUSH2 0x13A3 SWAP2 SWAP1 PUSH2 0x2804 JUMP JUMPDEST SWAP3 POP POP DUP2 SWAP1 SSTORE POP DUP2 PUSH1 0x2 PUSH1 0x0 DUP4 DUP2 MSTORE PUSH1 0x20 ADD SWAP1 DUP2 MSTORE PUSH1 0x20 ADD PUSH1 0x0 KECCAK256 PUSH1 0x0 PUSH2 0x100 EXP DUP2 SLOAD DUP2 PUSH20 0xFFFFFFFFFFFFFFFFFFFFFFFFFFFFFFFFFFFFFFFF MUL NOT AND SWAP1 DUP4 PUSH20 0xFFFFFFFFFFFFFFFFFFFFFFFFFFFFFFFFFFFFFFFF AND MUL OR SWAP1 SSTORE POP DUP1 DUP3 PUSH20 0xFFFFFFFFFFFFFFFFFFFFFFFFFFFFFFFFFFFFFFFF AND DUP5 PUSH20 0xFFFFFFFFFFFFFFFFFFFFFFFFFFFFFFFFFFFFFFFF AND PUSH32 0xDDF252AD1BE2C89B69C2B068FC378DAA952BA7F163C4A11628F55A4DF523B3EF PUSH1 0x40 MLOAD PUSH1 0x40 MLOAD DUP1 SWAP2 SUB SWAP1 LOG4 PUSH2 0x1462 DUP4 DUP4 DUP4 PUSH2 0x17E5 JUMP JUMPDEST POP POP POP JUMP JUMPDEST PUSH1 0x0 PUSH1 0x7 PUSH1 0x0 SWAP1 SLOAD SWAP1 PUSH2 0x100 EXP SWAP1 DIV PUSH20 0xFFFFFFFFFFFFFFFFFFFFFFFFFFFFFFFFFFFFFFFF AND SWAP1 POP DUP2 PUSH1 0x7 PUSH1 0x0 PUSH2 0x100 EXP DUP2 SLOAD DUP2 PUSH20 0xFFFFFFFFFFFFFFFFFFFFFFFFFFFFFFFFFFFFFFFF MUL NOT AND SWAP1 DUP4 PUSH20 0xFFFFFFFFFFFFFFFFFFFFFFFFFFFFFFFFFFFFFFFF AND MUL OR SWAP1 SSTORE POP DUP2 PUSH20 0xFFFFFFFFFFFFFFFFFFFFFFFFFFFFFFFFFFFFFFFF AND DUP2 PUSH20 0xFFFFFFFFFFFFFFFFFFFFFFFFFFFFFFFFFFFFFFFF AND PUSH32 0x8BE0079C531659141344CD1FD0A4F28419497F9722A3DAAFE3B4186F6B6457E0 PUSH1 0x40 MLOAD PUSH1 0x40 MLOAD DUP1 SWAP2 SUB SWAP1 LOG3 POP POP JUMP JUMPDEST DUP2 PUSH20 0xFFFFFFFFFFFFFFFFFFFFFFFFFFFFFFFFFFFFFFFF AND DUP4 PUSH20 0xFFFFFFFFFFFFFFFFFFFFFFFFFFFFFFFFFFFFFFFF AND SUB PUSH2 0x159B JUMPI PUSH1 0x40 MLOAD PUSH32 0x8C379A000000000000000000000000000000000000000000000000000000000 DUP2 MSTORE PUSH1 0x4 ADD PUSH2 0x1592 SWAP1 PUSH2 0x2CEC JUMP JUMPDEST PUSH1 0x40 MLOAD DUP1 SWAP2 SUB SWAP1 REVERT JUMPDEST DUP1 PUSH1 0x5 PUSH1 0x0 DUP6 PUSH20 0xFFFFFFFFFFFFFFFFFFFFFFFFFFFFFFFFFFFFFFFF AND PUSH20 0xFFFFFFFFFFFFFFFFFFFFFFFFFFFFFFFFFFFFFFFF AND DUP2 MSTORE PUSH1 0x20 ADD SWAP1 DUP2 MSTORE PUSH1 0x20 ADD PUSH1 0x0 KECCAK256 PUSH1 0x0 DUP5 PUSH20 0xFFFFFFFFFFFFFFFFFFFFFFFFFFFFFFFFFFFFFFFF AND PUSH20 0xFFFFFFFFFFFFFFFFFFFFFFFFFFFFFFFFFFFFFFFF AND DUP2 MSTORE PUSH1 0x20 ADD SWAP1 DUP2 MSTORE PUSH1 0x20 ADD PUSH1 0x0 KECCAK256 PUSH1 0x0 PUSH2 0x100 EXP DUP2 SLOAD DUP2 PUSH1 0xFF MUL NOT AND SWAP1 DUP4 ISZERO ISZERO MUL OR SWAP1 SSTORE POP DUP2 PUSH20 0xFFFFFFFFFFFFFFFFFFFFFFFFFFFFFFFFFFFFFFFF AND DUP4 PUSH20 0xFFFFFFFFFFFFFFFFFFFFFFFFFFFFFFFFFFFFFFFF AND PUSH32 0x17307EAB39AB6107E8899845AD3D59BD9653F200F220920489CA2B5937696C31 DUP4 PUSH1 0x40 MLOAD PUSH2 0x168C SWAP2 SWAP1 PUSH2 0x1BA8 JUMP JUMPDEST PUSH1 0x40 MLOAD DUP1 SWAP2 SUB SWAP1 LOG3 POP POP POP JUMP JUMPDEST PUSH2 0x16A4 DUP5 DUP5 DUP5 PUSH2 0x1201 JUMP JUMPDEST PUSH2 0x16B0 DUP5 DUP5 DUP5 DUP5 PUSH2 0x17EA JUMP JUMPDEST PUSH2 0x16EF JUMPI PUSH1 0x40 MLOAD PUSH32 0x8C379A000000000000000000000000000000000000000000000000000000000 DUP2 MSTORE PUSH1 0x4 ADD PUSH2 0x16E6 SWAP1 PUSH2 0x2D7E JUMP JUMPDEST PUSH1 0x40 MLOAD DUP1 SWAP2 SUB SWAP1 REVERT JUMPDEST POP POP POP POP JUMP JUMPDEST PUSH1 0x60 PUSH1 0x40 MLOAD DUP1 PUSH1 0x20 ADD PUSH1 0x40 MSTORE DUP1 PUSH1 0x0 DUP2 MSTORE POP SWAP1 POP SWAP1 JUMP JUMPDEST PUSH1 0x60 PUSH2 0x1717 DUP3 PUSH2 0xD78 JUMP JUMPDEST PUSH1 0x0 PUSH2 0x1721 PUSH2 0x16F5 JUMP JUMPDEST SWAP1 POP PUSH1 0x0 DUP2 MLOAD GT PUSH2 0x1741 JUMPI PUSH1 0x40 MLOAD DUP1 PUSH1 0x20 ADD PUSH1 0x40 MSTORE DUP1 PUSH1 0x0 DUP2 MSTORE POP PUSH2 0x176C JUMP JUMPDEST DUP1 PUSH2 0x174B DUP5 PUSH2 0x1971 JUMP JUMPDEST PUSH1 0x40 MLOAD PUSH1 0x20 ADD PUSH2 0x175C SWAP3 SWAP2 SWAP1 PUSH2 0x25DB JUMP JUMPDEST PUSH1 0x40 MLOAD PUSH1 0x20 DUP2 DUP4 SUB SUB DUP2 MSTORE SWAP1 PUSH1 0x40 MSTORE JUMPDEST SWAP2 POP POP SWAP2 SWAP1 POP JUMP JUMPDEST PUSH1 0x0 DUP1 PUSH20 0xFFFFFFFFFFFFFFFFFFFFFFFFFFFFFFFFFFFFFFFF AND PUSH1 0x2 PUSH1 0x0 DUP5 DUP2 MSTORE PUSH1 0x20 ADD SWAP1 DUP2 MSTORE PUSH1 0x20 ADD PUSH1 0x0 KECCAK256 PUSH1 0x0 SWAP1 SLOAD SWAP1 PUSH2 0x100 EXP SWAP1 DIV PUSH20 0xFFFFFFFFFFFFFFFFFFFFFFFFFFFFFFFFFFFFFFFF AND PUSH20 0xFFFFFFFFFFFFFFFFFFFFFFFFFFFFFFFFFFFFFFFF AND EQ ISZERO SWAP1 POP SWAP2 SWAP1 POP JUMP JUMPDEST POP POP POP JUMP JUMPDEST POP POP POP JUMP JUMPDEST PUSH1 0x0 PUSH2 0x180B DUP5 PUSH20 0xFFFFFFFFFFFFFFFFFFFFFFFFFFFFFFFFFFFFFFFF AND PUSH2 0x1AD1 JUMP JUMPDEST ISZERO PUSH2 0x1964 JUMPI DUP4 PUSH20 0xFFFFFFFFFFFFFFFFFFFFFFFFFFFFFFFFFFFFFFFF AND PUSH4 0x150B7A02 PUSH2 0x1834 PUSH2 0xDC3 JUMP JUMPDEST DUP8 DUP7 DUP7 PUSH1 0x40 MLOAD DUP6 PUSH4 0xFFFFFFFF AND PUSH1 0xE0 SHL DUP2 MSTORE PUSH1 0x4 ADD PUSH2 0x1856 SWAP5 SWAP4 SWAP3 SWAP2 SWAP1 PUSH2 0x2DF3 JUMP JUMPDEST PUSH1 0x20 PUSH1 0x40 MLOAD DUP1 DUP4 SUB DUP2 PUSH1 0x0 DUP8 GAS CALL SWAP3 POP POP POP DUP1 ISZERO PUSH2 0x1892 JUMPI POP PUSH1 0x40 MLOAD RETURNDATASIZE PUSH1 0x1F NOT PUSH1 0x1F DUP3 ADD AND DUP3 ADD DUP1 PUSH1 0x40 MSTORE POP DUP2 ADD SWAP1 PUSH2 0x188F SWAP2 SWAP1 PUSH2 0x2E54 JUMP JUMPDEST PUSH1 0x1 JUMPDEST PUSH2 0x1914 JUMPI RETURNDATASIZE DUP1 PUSH1 0x0 DUP2 EQ PUSH2 0x18C2 JUMPI PUSH1 0x40 MLOAD SWAP2 POP PUSH1 0x1F NOT PUSH1 0x3F RETURNDATASIZE ADD AND DUP3 ADD PUSH1 0x40 MSTORE RETURNDATASIZE DUP3 MSTORE RETURNDATASIZE PUSH1 0x0 PUSH1 0x20 DUP5 ADD RETURNDATACOPY PUSH2 0x18C7 JUMP JUMPDEST PUSH1 0x60 SWAP2 POP JUMPDEST POP PUSH1 0x0 DUP2 MLOAD SUB PUSH2 0x190C JUMPI PUSH1 0x40 MLOAD PUSH32 0x8C379A000000000000000000000000000000000000000000000000000000000 DUP2 MSTORE PUSH1 0x4 ADD PUSH2 0x1903 SWAP1 PUSH2 0x2D7E JUMP JUMPDEST PUSH1 0x40 MLOAD DUP1 SWAP2 SUB SWAP1 REVERT JUMPDEST DUP1 MLOAD DUP2 PUSH1 0x20 ADD REVERT JUMPDEST PUSH4 0x150B7A02 PUSH1 0xE0 SHL PUSH28 0xFFFFFFFFFFFFFFFFFFFFFFFFFFFFFFFFFFFFFFFFFFFFFFFFFFFFFFFF NOT AND DUP2 PUSH28 0xFFFFFFFFFFFFFFFFFFFFFFFFFFFFFFFFFFFFFFFFFFFFFFFFFFFFFFFF NOT AND EQ SWAP2 POP POP PUSH2 0x1969 JUMP JUMPDEST PUSH1 0x1 SWAP1 POP JUMPDEST SWAP5 SWAP4 POP POP POP POP JUMP JUMPDEST PUSH1 0x60 PUSH1 0x0 DUP3 SUB PUSH2 0x19B8 JUMPI PUSH1 0x40 MLOAD DUP1 PUSH1 0x40 ADD PUSH1 0x40 MSTORE DUP1 PUSH1 0x1 DUP2 MSTORE PUSH1 0x20 ADD PUSH32 0x3000000000000000000000000000000000000000000000000000000000000000 DUP2 MSTORE POP SWAP1 POP PUSH2 0x1ACC JUMP JUMPDEST PUSH1 0x0 DUP3 SWAP1 POP PUSH1 0x0 JUMPDEST PUSH1 0x0 DUP3 EQ PUSH2 0x19EA JUMPI DUP1 DUP1 PUSH2 0x19D3 SWAP1 PUSH2 0x2E81 JUMP JUMPDEST SWAP2 POP POP PUSH1 0xA DUP3 PUSH2 0x19E3 SWAP2 SWAP1 PUSH2 0x2EF8 JUMP JUMPDEST SWAP2 POP PUSH2 0x19C0 JUMP JUMPDEST PUSH1 0x0 DUP2 PUSH8 0xFFFFFFFFFFFFFFFF DUP2 GT ISZERO PUSH2 0x1A06 JUMPI PUSH2 0x1A05 PUSH2 0x1DAA JUMP JUMPDEST JUMPDEST PUSH1 0x40 MLOAD SWAP1 DUP1 DUP3 MSTORE DUP1 PUSH1 0x1F ADD PUSH1 0x1F NOT AND PUSH1 0x20 ADD DUP3 ADD PUSH1 0x40 MSTORE DUP1 ISZERO PUSH2 0x1A38 JUMPI DUP2 PUSH1 0x20 ADD PUSH1 0x1 DUP3 MUL DUP1 CALLDATASIZE DUP4 CALLDATACOPY DUP1 DUP3 ADD SWAP2 POP POP SWAP1 POP JUMPDEST POP SWAP1 POP JUMPDEST PUSH1 0x0 DUP6 EQ PUSH2 0x1AC5 JUMPI PUSH1 0x1 DUP3 PUSH2 0x1A51 SWAP2 SWAP1 PUSH2 0x2C6C JUMP JUMPDEST SWAP2 POP PUSH1 0xA DUP6 PUSH2 0x1A60 SWAP2 SWAP1 PUSH2 0x2F29 JUMP JUMPDEST PUSH1 0x30 PUSH2 0x1A6C SWAP2 SWAP1 PUSH2 0x2804 JUMP JUMPDEST PUSH1 0xF8 SHL DUP2 DUP4 DUP2 MLOAD DUP2 LT PUSH2 0x1A82 JUMPI PUSH2 0x1A81 PUSH2 0x2F5A JUMP JUMPDEST JUMPDEST PUSH1 0x20 ADD ADD SWAP1 PUSH31 0xFFFFFFFFFFFFFFFFFFFFFFFFFFFFFFFFFFFFFFFFFFFFFFFFFFFFFFFFFFFFFF NOT AND SWAP1 DUP2 PUSH1 0x0 BYTE SWAP1 MSTORE8 POP PUSH1 0xA DUP6 PUSH2 0x1ABE SWAP2 SWAP1 PUSH2 0x2EF8 JUMP JUMPDEST SWAP5 POP PUSH2 0x1A3C JUMP JUMPDEST DUP1 SWAP4 POP POP POP POP JUMPDEST SWAP2 SWAP1 POP JUMP JUMPDEST PUSH1 0x0 DUP1 DUP3 PUSH20 0xFFFFFFFFFFFFFFFFFFFFFFFFFFFFFFFFFFFFFFFF AND EXTCODESIZE GT SWAP1 POP SWAP2 SWAP1 POP JUMP JUMPDEST PUSH1 0x0 PUSH1 0x40 MLOAD SWAP1 POP SWAP1 JUMP JUMPDEST PUSH1 0x0 DUP1 REVERT JUMPDEST PUSH1 0x0 DUP1 REVERT JUMPDEST PUSH1 0x0 PUSH32 0xFFFFFFFF00000000000000000000000000000000000000000000000000000000 DUP3 AND SWAP1 POP SWAP2 SWAP1 POP JUMP JUMPDEST PUSH2 0x1B3D DUP2 PUSH2 0x1B08 JUMP JUMPDEST DUP2 EQ PUSH2 0x1B48 JUMPI PUSH1 0x0 DUP1 REVERT JUMPDEST POP JUMP JUMPDEST PUSH1 0x0 DUP2 CALLDATALOAD SWAP1 POP PUSH2 0x1B5A DUP2 PUSH2 0x1B34 JUMP JUMPDEST SWAP3 SWAP2 POP POP JUMP JUMPDEST PUSH1 0x0 PUSH1 0x20 DUP3 DUP5 SUB SLT ISZERO PUSH2 0x1B76 JUMPI PUSH2 0x1B75 PUSH2 0x1AFE JUMP JUMPDEST JUMPDEST PUSH1 0x0 PUSH2 0x1B84 DUP5 DUP3 DUP6 ADD PUSH2 0x1B4B JUMP JUMPDEST SWAP2 POP POP SWAP3 SWAP2 POP POP JUMP JUMPDEST PUSH1 0x0 DUP2 ISZERO ISZERO SWAP1 POP SWAP2 SWAP1 POP JUMP JUMPDEST PUSH2 0x1BA2 DUP2 PUSH2 0x1B8D JUMP JUMPDEST DUP3 MSTORE POP POP JUMP JUMPDEST PUSH1 0x0 PUSH1 0x20 DUP3 ADD SWAP1 POP PUSH2 0x1BBD PUSH1 0x0 DUP4 ADD DUP5 PUSH2 0x1B99 JUMP JUMPDEST SWAP3 SWAP2 POP POP JUMP JUMPDEST PUSH1 0x0 DUP2 MLOAD SWAP1 POP SWAP2 SWAP1 POP JUMP JUMPDEST PUSH1 0x0 DUP3 DUP3 MSTORE PUSH1 0x20 DUP3 ADD SWAP1 POP SWAP3 SWAP2 POP POP JUMP JUMPDEST PUSH1 0x0 JUMPDEST DUP4 DUP2 LT ISZERO PUSH2 0x1BFD JUMPI DUP1 DUP3 ADD MLOAD DUP2 DUP5 ADD MSTORE PUSH1 0x20 DUP2 ADD SWAP1 POP PUSH2 0x1BE2 JUMP JUMPDEST PUSH1 0x0 DUP5 DUP5 ADD MSTORE POP POP POP POP JUMP JUMPDEST PUSH1 0x0 PUSH1 0x1F NOT PUSH1 0x1F DUP4 ADD AND SWAP1 POP SWAP2 SWAP1 POP JUMP JUMPDEST PUSH1 0x0 PUSH2 0x1C25 DUP3 PUSH2 0x1BC3 JUMP JUMPDEST PUSH2 0x1C2F DUP2 DUP6 PUSH2 0x1BCE JUMP JUMPDEST SWAP4 POP PUSH2 0x1C3F DUP2 DUP6 PUSH1 0x20 DUP7 ADD PUSH2 0x1BDF JUMP JUMPDEST PUSH2 0x1C48 DUP2 PUSH2 0x1C09 JUMP JUMPDEST DUP5 ADD SWAP2 POP POP SWAP3 SWAP2 POP POP JUMP JUMPDEST PUSH1 0x0 PUSH1 0x20 DUP3 ADD SWAP1 POP DUP2 DUP2 SUB PUSH1 0x0 DUP4 ADD MSTORE PUSH2 0x1C6D DUP2 DUP5 PUSH2 0x1C1A JUMP JUMPDEST SWAP1 POP SWAP3 SWAP2 POP POP JUMP JUMPDEST PUSH1 0x0 DUP2 SWAP1 POP SWAP2 SWAP1 POP JUMP JUMPDEST PUSH2 0x1C88 DUP2 PUSH2 0x1C75 JUMP JUMPDEST DUP2 EQ PUSH2 0x1C93 JUMPI PUSH1 0x0 DUP1 REVERT JUMPDEST POP JUMP JUMPDEST PUSH1 0x0 DUP2 CALLDATALOAD SWAP1 POP PUSH2 0x1CA5 DUP2 PUSH2 0x1C7F JUMP JUMPDEST SWAP3 SWAP2 POP POP JUMP JUMPDEST PUSH1 0x0 PUSH1 0x20 DUP3 DUP5 SUB SLT ISZERO PUSH2 0x1CC1 JUMPI PUSH2 0x1CC0 PUSH2 0x1AFE JUMP JUMPDEST JUMPDEST PUSH1 0x0 PUSH2 0x1CCF DUP5 DUP3 DUP6 ADD PUSH2 0x1C96 JUMP JUMPDEST SWAP2 POP POP SWAP3 SWAP2 POP POP JUMP JUMPDEST PUSH1 0x0 PUSH20 0xFFFFFFFFFFFFFFFFFFFFFFFFFFFFFFFFFFFFFFFF DUP3 AND SWAP1 POP SWAP2 SWAP1 POP JUMP JUMPDEST PUSH1 0x0 PUSH2 0x1D03 DUP3 PUSH2 0x1CD8 JUMP JUMPDEST SWAP1 POP SWAP2 SWAP1 POP JUMP JUMPDEST PUSH2 0x1D13 DUP2 PUSH2 0x1CF8 JUMP JUMPDEST DUP3 MSTORE POP POP JUMP JUMPDEST PUSH1 0x0 PUSH1 0x20 DUP3 ADD SWAP1 POP PUSH2 0x1D2E PUSH1 0x0 DUP4 ADD DUP5 PUSH2 0x1D0A JUMP JUMPDEST SWAP3 SWAP2 POP POP JUMP JUMPDEST PUSH2 0x1D3D DUP2 PUSH2 0x1CF8 JUMP JUMPDEST DUP2 EQ PUSH2 0x1D48 JUMPI PUSH1 0x0 DUP1 REVERT JUMPDEST POP JUMP JUMPDEST PUSH1 0x0 DUP2 CALLDATALOAD SWAP1 POP PUSH2 0x1D5A DUP2 PUSH2 0x1D34 JUMP JUMPDEST SWAP3 SWAP2 POP POP JUMP JUMPDEST PUSH1 0x0 DUP1 PUSH1 0x40 DUP4 DUP6 SUB SLT ISZERO PUSH2 0x1D77 JUMPI PUSH2 0x1D76 PUSH2 0x1AFE JUMP JUMPDEST JUMPDEST PUSH1 0x0 PUSH2 0x1D85 DUP6 DUP3 DUP7 ADD PUSH2 0x1D4B JUMP JUMPDEST SWAP3 POP POP PUSH1 0x20 PUSH2 0x1D96 DUP6 DUP3 DUP7 ADD PUSH2 0x1C96 JUMP JUMPDEST SWAP2 POP POP SWAP3 POP SWAP3 SWAP1 POP JUMP JUMPDEST PUSH1 0x0 DUP1 REVERT JUMPDEST PUSH1 0x0 DUP1 REVERT JUMPDEST PUSH32 0x4E487B7100000000000000000000000000000000000000000000000000000000 PUSH1 0x0 MSTORE PUSH1 0x41 PUSH1 0x4 MSTORE PUSH1 0x24 PUSH1 0x0 REVERT JUMPDEST PUSH2 0x1DE2 DUP3 PUSH2 0x1C09 JUMP JUMPDEST DUP2 ADD DUP2 DUP2 LT PUSH8 0xFFFFFFFFFFFFFFFF DUP3 GT OR ISZERO PUSH2 0x1E01 JUMPI PUSH2 0x1E00 PUSH2 0x1DAA JUMP JUMPDEST JUMPDEST DUP1 PUSH1 0x40 MSTORE POP POP POP JUMP JUMPDEST PUSH1 0x0 PUSH2 0x1E14 PUSH2 0x1AF4 JUMP JUMPDEST SWAP1 POP PUSH2 0x1E20 DUP3 DUP3 PUSH2 0x1DD9 JUMP JUMPDEST SWAP2 SWAP1 POP JUMP JUMPDEST PUSH1 0x0 PUSH8 0xFFFFFFFFFFFFFFFF DUP3 GT ISZERO PUSH2 0x1E40 JUMPI PUSH2 0x1E3F PUSH2 0x1DAA JUMP JUMPDEST JUMPDEST PUSH2 0x1E49 DUP3 PUSH2 0x1C09 JUMP JUMPDEST SWAP1 POP PUSH1 0x20 DUP2 ADD SWAP1 POP SWAP2 SWAP1 POP JUMP JUMPDEST DUP3 DUP2 DUP4 CALLDATACOPY PUSH1 0x0 DUP4 DUP4 ADD MSTORE POP POP POP JUMP JUMPDEST PUSH1 0x0 PUSH2 0x1E78 PUSH2 0x1E73 DUP5 PUSH2 0x1E25 JUMP JUMPDEST PUSH2 0x1E0A JUMP JUMPDEST SWAP1 POP DUP3 DUP2 MSTORE PUSH1 0x20 DUP2 ADD DUP5 DUP5 DUP5 ADD GT ISZERO PUSH2 0x1E94 JUMPI PUSH2 0x1E93 PUSH2 0x1DA5 JUMP JUMPDEST JUMPDEST PUSH2 0x1E9F DUP5 DUP3 DUP6 PUSH2 0x1E56 JUMP JUMPDEST POP SWAP4 SWAP3 POP POP POP JUMP JUMPDEST PUSH1 0x0 DUP3 PUSH1 0x1F DUP4 ADD SLT PUSH2 0x1EBC JUMPI PUSH2 0x1EBB PUSH2 0x1DA0 JUMP JUMPDEST JUMPDEST DUP2 CALLDATALOAD PUSH2 0x1ECC DUP5 DUP3 PUSH1 0x20 DUP7 ADD PUSH2 0x1E65 JUMP JUMPDEST SWAP2 POP POP SWAP3 SWAP2 POP POP JUMP JUMPDEST PUSH1 0x0 DUP1 PUSH1 0x40 DUP4 DUP6 SUB SLT ISZERO PUSH2 0x1EEC JUMPI PUSH2 0x1EEB PUSH2 0x1AFE JUMP JUMPDEST JUMPDEST PUSH1 0x0 PUSH2 0x1EFA DUP6 DUP3 DUP7 ADD PUSH2 0x1D4B JUMP JUMPDEST SWAP3 POP POP PUSH1 0x20 DUP4 ADD CALLDATALOAD PUSH8 0xFFFFFFFFFFFFFFFF DUP2 GT ISZERO PUSH2 0x1F1B JUMPI PUSH2 0x1F1A PUSH2 0x1B03 JUMP JUMPDEST JUMPDEST PUSH2 0x1F27 DUP6 DUP3 DUP7 ADD PUSH2 0x1EA7 JUMP JUMPDEST SWAP2 POP POP SWAP3 POP SWAP3 SWAP1 POP JUMP JUMPDEST PUSH2 0x1F3A DUP2 PUSH2 0x1C75 JUMP JUMPDEST DUP3 MSTORE POP POP JUMP JUMPDEST PUSH1 0x0 PUSH1 0x20 DUP3 ADD SWAP1 POP PUSH2 0x1F55 PUSH1 0x0 DUP4 ADD DUP5 PUSH2 0x1F31 JUMP JUMPDEST SWAP3 SWAP2 POP POP JUMP JUMPDEST PUSH1 0x0 DUP1 PUSH1 0x0 PUSH1 0x60 DUP5 DUP7 SUB SLT ISZERO PUSH2 0x1F74 JUMPI PUSH2 0x1F73 PUSH2 0x1AFE JUMP JUMPDEST JUMPDEST PUSH1 0x0 PUSH2 0x1F82 DUP7 DUP3 DUP8 ADD PUSH2 0x1D4B JUMP JUMPDEST SWAP4 POP POP PUSH1 0x20 PUSH2 0x1F93 DUP7 DUP3 DUP8 ADD PUSH2 0x1D4B JUMP JUMPDEST SWAP3 POP POP PUSH1 0x40 PUSH2 0x1FA4 DUP7 DUP3 DUP8 ADD PUSH2 0x1C96 JUMP JUMPDEST SWAP2 POP POP SWAP3 POP SWAP3 POP SWAP3 JUMP JUMPDEST PUSH1 0x0 PUSH1 0x20 DUP3 DUP5 SUB SLT ISZERO PUSH2 0x1FC4 JUMPI PUSH2 0x1FC3 PUSH2 0x1AFE JUMP JUMPDEST JUMPDEST PUSH1 0x0 PUSH2 0x1FD2 DUP5 DUP3 DUP6 ADD PUSH2 0x1D4B JUMP JUMPDEST SWAP2 POP POP SWAP3 SWAP2 POP POP JUMP JUMPDEST PUSH2 0x1FE4 DUP2 PUSH2 0x1B8D JUMP JUMPDEST DUP2 EQ PUSH2 0x1FEF JUMPI PUSH1 0x0 DUP1 REVERT JUMPDEST POP JUMP JUMPDEST PUSH1 0x0 DUP2 CALLDATALOAD SWAP1 POP PUSH2 0x2001 DUP2 PUSH2 0x1FDB JUMP JUMPDEST SWAP3 SWAP2 POP POP JUMP JUMPDEST PUSH1 0x0 DUP1 PUSH1 0x40 DUP4 DUP6 SUB SLT ISZERO PUSH2 0x201E JUMPI PUSH2 0x201D PUSH2 0x1AFE JUMP JUMPDEST JUMPDEST PUSH1 0x0 PUSH2 0x202C DUP6 DUP3 DUP7 ADD PUSH2 0x1D4B JUMP JUMPDEST SWAP3 POP POP PUSH1 0x20 PUSH2 0x203D DUP6 DUP3 DUP7 ADD PUSH2 0x1FF2 JUMP JUMPDEST SWAP2 POP POP SWAP3 POP SWAP3 SWAP1 POP JUMP JUMPDEST PUSH1 0x0 PUSH8 0xFFFFFFFFFFFFFFFF DUP3 GT ISZERO PUSH2 0x2062 JUMPI PUSH2 0x2061 PUSH2 0x1DAA JUMP JUMPDEST JUMPDEST PUSH2 0x206B DUP3 PUSH2 0x1C09 JUMP JUMPDEST SWAP1 POP PUSH1 0x20 DUP2 ADD SWAP1 POP SWAP2 SWAP1 POP JUMP JUMPDEST PUSH1 0x0 PUSH2 0x208B PUSH2 0x2086 DUP5 PUSH2 0x2047 JUMP JUMPDEST PUSH2 0x1E0A JUMP JUMPDEST SWAP1 POP DUP3 DUP2 MSTORE PUSH1 0x20 DUP2 ADD DUP5 DUP5 DUP5 ADD GT ISZERO PUSH2 0x20A7 JUMPI PUSH2 0x20A6 PUSH2 0x1DA5 JUMP JUMPDEST JUMPDEST PUSH2 0x20B2 DUP5 DUP3 DUP6 PUSH2 0x1E56 JUMP JUMPDEST POP SWAP4 SWAP3 POP POP POP JUMP JUMPDEST PUSH1 0x0 DUP3 PUSH1 0x1F DUP4 ADD SLT PUSH2 0x20CF JUMPI PUSH2 0x20CE PUSH2 0x1DA0 JUMP JUMPDEST JUMPDEST DUP2 CALLDATALOAD PUSH2 0x20DF DUP5 DUP3 PUSH1 0x20 DUP7 ADD PUSH2 0x2078 JUMP JUMPDEST SWAP2 POP POP SWAP3 SWAP2 POP POP JUMP JUMPDEST PUSH1 0x0 DUP1 PUSH1 0x0 DUP1 PUSH1 0x80 DUP6 DUP8 SUB SLT ISZERO PUSH2 0x2102 JUMPI PUSH2 0x2101 PUSH2 0x1AFE JUMP JUMPDEST JUMPDEST PUSH1 0x0 PUSH2 0x2110 DUP8 DUP3 DUP9 ADD PUSH2 0x1D4B JUMP JUMPDEST SWAP5 POP POP PUSH1 0x20 PUSH2 0x2121 DUP8 DUP3 DUP9 ADD PUSH2 0x1D4B JUMP JUMPDEST SWAP4 POP POP PUSH1 0x40 PUSH2 0x2132 DUP8 DUP3 DUP9 ADD PUSH2 0x1C96 JUMP JUMPDEST SWAP3 POP POP PUSH1 0x60 DUP6 ADD CALLDATALOAD PUSH8 0xFFFFFFFFFFFFFFFF DUP2 GT ISZERO PUSH2 0x2153 JUMPI PUSH2 0x2152 PUSH2 0x1B03 JUMP JUMPDEST JUMPDEST PUSH2 0x215F DUP8 DUP3 DUP9 ADD PUSH2 0x20BA JUMP JUMPDEST SWAP2 POP POP SWAP3 SWAP6 SWAP2 SWAP5 POP SWAP3 POP JUMP JUMPDEST PUSH1 0x0 DUP2 MLOAD SWAP1 POP SWAP2 SWAP1 POP JUMP JUMPDEST PUSH1 0x0 DUP3 DUP3 MSTORE PUSH1 0x20 DUP3 ADD SWAP1 POP SWAP3 SWAP2 POP POP JUMP JUMPDEST PUSH1 0x0 DUP2 SWAP1 POP PUSH1 0x20 DUP3 ADD SWAP1 POP SWAP2 SWAP1 POP JUMP JUMPDEST PUSH2 0x21A0 DUP2 PUSH2 0x1C75 JUMP JUMPDEST DUP3 MSTORE POP POP JUMP JUMPDEST PUSH1 0x0 PUSH2 0x21B2 DUP4 DUP4 PUSH2 0x2197 JUMP JUMPDEST PUSH1 0x20 DUP4 ADD SWAP1 POP SWAP3 SWAP2 POP POP JUMP JUMPDEST PUSH1 0x0 PUSH1 0x20 DUP3 ADD SWAP1 POP SWAP2 SWAP1 POP JUMP JUMPDEST PUSH1 0x0 PUSH2 0x21D6 DUP3 PUSH2 0x216B JUMP JUMPDEST PUSH2 0x21E0 DUP2 DUP6 PUSH2 0x2176 JUMP JUMPDEST SWAP4 POP PUSH2 0x21EB DUP4 PUSH2 0x2187 JUMP JUMPDEST DUP1 PUSH1 0x0 JUMPDEST DUP4 DUP2 LT ISZERO PUSH2 0x221C JUMPI DUP2 MLOAD PUSH2 0x2203 DUP9 DUP3 PUSH2 0x21A6 JUMP JUMPDEST SWAP8 POP PUSH2 0x220E DUP4 PUSH2 0x21BE JUMP JUMPDEST SWAP3 POP POP PUSH1 0x1 DUP2 ADD SWAP1 POP PUSH2 0x21EF JUMP JUMPDEST POP DUP6 SWAP4 POP POP POP POP SWAP3 SWAP2 POP POP JUMP JUMPDEST PUSH1 0x0 PUSH1 0x20 DUP3 ADD SWAP1 POP DUP2 DUP2 SUB PUSH1 0x0 DUP4 ADD MSTORE PUSH2 0x2243 DUP2 DUP5 PUSH2 0x21CB JUMP JUMPDEST SWAP1 POP SWAP3 SWAP2 POP POP JUMP JUMPDEST PUSH1 0x0 DUP1 PUSH1 0x40 DUP4 DUP6 SUB SLT ISZERO PUSH2 0x2262 JUMPI PUSH2 0x2261 PUSH2 0x1AFE JUMP JUMPDEST JUMPDEST PUSH1 0x0 PUSH2 0x2270 DUP6 DUP3 DUP7 ADD PUSH2 0x1D4B JUMP JUMPDEST SWAP3 POP POP PUSH1 0x20 PUSH2 0x2281 DUP6 DUP3 DUP7 ADD PUSH2 0x1D4B JUMP JUMPDEST SWAP2 POP POP SWAP3 POP SWAP3 SWAP1 POP JUMP JUMPDEST PUSH32 0x4E487B7100000000000000000000000000000000000000000000000000000000 PUSH1 0x0 MSTORE PUSH1 0x22 PUSH1 0x4 MSTORE PUSH1 0x24 PUSH1 0x0 REVERT JUMPDEST PUSH1 0x0 PUSH1 0x2 DUP3 DIV SWAP1 POP PUSH1 0x1 DUP3 AND DUP1 PUSH2 0x22D2 JUMPI PUSH1 0x7F DUP3 AND SWAP2 POP JUMPDEST PUSH1 0x20 DUP3 LT DUP2 SUB PUSH2 0x22E5 JUMPI PUSH2 0x22E4 PUSH2 0x228B JUMP JUMPDEST JUMPDEST POP SWAP2 SWAP1 POP JUMP JUMPDEST PUSH32 0x4552433732313A20617070726F76616C20746F2063757272656E74206F776E65 PUSH1 0x0 DUP3 ADD MSTORE PUSH32 0x7200000000000000000000000000000000000000000000000000000000000000 PUSH1 0x20 DUP3 ADD MSTORE POP JUMP JUMPDEST PUSH1 0x0 PUSH2 0x2347 PUSH1 0x21 DUP4 PUSH2 0x1BCE JUMP JUMPDEST SWAP2 POP PUSH2 0x2352 DUP3 PUSH2 0x22EB JUMP JUMPDEST PUSH1 0x40 DUP3 ADD SWAP1 POP SWAP2 SWAP1 POP JUMP JUMPDEST PUSH1 0x0 PUSH1 0x20 DUP3 ADD SWAP1 POP DUP2 DUP2 SUB PUSH1 0x0 DUP4 ADD MSTORE PUSH2 0x2376 DUP2 PUSH2 0x233A JUMP JUMPDEST SWAP1 POP SWAP2 SWAP1 POP JUMP JUMPDEST PUSH32 0x4552433732313A20617070726F76652063616C6C6572206973206E6F7420746F PUSH1 0x0 DUP3 ADD MSTORE PUSH32 0x6B656E206F776E6572206E6F7220617070726F76656420666F7220616C6C0000 PUSH1 0x20 DUP3 ADD MSTORE POP JUMP JUMPDEST PUSH1 0x0 PUSH2 0x23D9 PUSH1 0x3E DUP4 PUSH2 0x1BCE JUMP JUMPDEST SWAP2 POP PUSH2 0x23E4 DUP3 PUSH2 0x237D JUMP JUMPDEST PUSH1 0x40 DUP3 ADD SWAP1 POP SWAP2 SWAP1 POP JUMP JUMPDEST PUSH1 0x0 PUSH1 0x20 DUP3 ADD SWAP1 POP DUP2 DUP2 SUB PUSH1 0x0 DUP4 ADD MSTORE PUSH2 0x2408 DUP2 PUSH2 0x23CC JUMP JUMPDEST SWAP1 POP SWAP2 SWAP1 POP JUMP JUMPDEST PUSH32 0x4552433732313A2063616C6C6572206973206E6F7420746F6B656E206F776E65 PUSH1 0x0 DUP3 ADD MSTORE PUSH32 0x72206E6F7220617070726F766564000000000000000000000000000000000000 PUSH1 0x20 DUP3 ADD MSTORE POP JUMP JUMPDEST PUSH1 0x0 PUSH2 0x246B PUSH1 0x2E DUP4 PUSH2 0x1BCE JUMP JUMPDEST SWAP2 POP PUSH2 0x2476 DUP3 PUSH2 0x240F JUMP JUMPDEST PUSH1 0x40 DUP3 ADD SWAP1 POP SWAP2 SWAP1 POP JUMP JUMPDEST PUSH1 0x0 PUSH1 0x20 DUP3 ADD SWAP1 POP DUP2 DUP2 SUB PUSH1 0x0 DUP4 ADD MSTORE PUSH2 0x249A DUP2 PUSH2 0x245E JUMP JUMPDEST SWAP1 POP SWAP2 SWAP1 POP JUMP JUMPDEST PUSH32 0x4552433732313A20696E76616C696420746F6B656E2049440000000000000000 PUSH1 0x0 DUP3 ADD MSTORE POP JUMP JUMPDEST PUSH1 0x0 PUSH2 0x24D7 PUSH1 0x18 DUP4 PUSH2 0x1BCE JUMP JUMPDEST SWAP2 POP PUSH2 0x24E2 DUP3 PUSH2 0x24A1 JUMP JUMPDEST PUSH1 0x20 DUP3 ADD SWAP1 POP SWAP2 SWAP1 POP JUMP JUMPDEST PUSH1 0x0 PUSH1 0x20 DUP3 ADD SWAP1 POP DUP2 DUP2 SUB PUSH1 0x0 DUP4 ADD MSTORE PUSH2 0x2506 DUP2 PUSH2 0x24CA JUMP JUMPDEST SWAP1 POP SWAP2 SWAP1 POP JUMP JUMPDEST PUSH32 0x4552433732313A2061646472657373207A65726F206973206E6F742061207661 PUSH1 0x0 DUP3 ADD MSTORE PUSH32 0x6C6964206F776E65720000000000000000000000000000000000000000000000 PUSH1 0x20 DUP3 ADD MSTORE POP JUMP JUMPDEST PUSH1 0x0 PUSH2 0x2569 PUSH1 0x29 DUP4 PUSH2 0x1BCE JUMP JUMPDEST SWAP2 POP PUSH2 0x2574 DUP3 PUSH2 0x250D JUMP JUMPDEST PUSH1 0x40 DUP3 ADD SWAP1 POP SWAP2 SWAP1 POP JUMP JUMPDEST PUSH1 0x0 PUSH1 0x20 DUP3 ADD SWAP1 POP DUP2 DUP2 SUB PUSH1 0x0 DUP4 ADD MSTORE PUSH2 0x2598 DUP2 PUSH2 0x255C JUMP JUMPDEST SWAP1 POP SWAP2 SWAP1 POP JUMP JUMPDEST PUSH1 0x0 DUP2 SWAP1 POP SWAP3 SWAP2 POP POP JUMP JUMPDEST PUSH1 0x0 PUSH2 0x25B5 DUP3 PUSH2 0x1BC3 JUMP JUMPDEST PUSH2 0x25BF DUP2 DUP6 PUSH2 0x259F JUMP JUMPDEST SWAP4 POP PUSH2 0x25CF DUP2 DUP6 PUSH1 0x20 DUP7 ADD PUSH2 0x1BDF JUMP JUMPDEST DUP1 DUP5 ADD SWAP2 POP POP SWAP3 SWAP2 POP POP JUMP JUMPDEST PUSH1 0x0 PUSH2 0x25E7 DUP3 DUP6 PUSH2 0x25AA JUMP JUMPDEST SWAP2 POP PUSH2 0x25F3 DUP3 DUP5 PUSH2 0x25AA JUMP JUMPDEST SWAP2 POP DUP2 SWAP1 POP SWAP4 SWAP3 POP POP POP JUMP JUMPDEST PUSH32 0x4F776E61626C653A206E6577206F776E657220697320746865207A65726F2061 PUSH1 0x0 DUP3 ADD MSTORE PUSH32 0x6464726573730000000000000000000000000000000000000000000000000000 PUSH1 0x20 DUP3 ADD MSTORE POP JUMP JUMPDEST PUSH1 0x0 PUSH2 0x265B PUSH1 0x26 DUP4 PUSH2 0x1BCE JUMP JUMPDEST SWAP2 POP PUSH2 0x2666 DUP3 PUSH2 0x25FF JUMP JUMPDEST PUSH1 0x40 DUP3 ADD SWAP1 POP SWAP2 SWAP1 POP JUMP JUMPDEST PUSH1 0x0 PUSH1 0x20 DUP3 ADD SWAP1 POP DUP2 DUP2 SUB PUSH1 0x0 DUP4 ADD MSTORE PUSH2 0x268A DUP2 PUSH2 0x264E JUMP JUMPDEST SWAP1 POP SWAP2 SWAP1 POP JUMP JUMPDEST PUSH32 0x4F776E61626C653A2063616C6C6572206973206E6F7420746865206F776E6572 PUSH1 0x0 DUP3 ADD MSTORE POP JUMP JUMPDEST PUSH1 0x0 PUSH2 0x26C7 PUSH1 0x20 DUP4 PUSH2 0x1BCE JUMP JUMPDEST SWAP2 POP PUSH2 0x26D2 DUP3 PUSH2 0x2691 JUMP JUMPDEST PUSH1 0x20 DUP3 ADD SWAP1 POP SWAP2 SWAP1 POP JUMP JUMPDEST PUSH1 0x0 PUSH1 0x20 DUP3 ADD SWAP1 POP DUP2 DUP2 SUB PUSH1 0x0 DUP4 ADD MSTORE PUSH2 0x26F6 DUP2 PUSH2 0x26BA JUMP JUMPDEST SWAP1 POP SWAP2 SWAP1 POP JUMP JUMPDEST PUSH32 0x4552433732313A206D696E7420746F20746865207A65726F2061646472657373 PUSH1 0x0 DUP3 ADD MSTORE POP JUMP JUMPDEST PUSH1 0x0 PUSH2 0x2733 PUSH1 0x20 DUP4 PUSH2 0x1BCE JUMP JUMPDEST SWAP2 POP PUSH2 0x273E DUP3 PUSH2 0x26FD JUMP JUMPDEST PUSH1 0x20 DUP3 ADD SWAP1 POP SWAP2 SWAP1 POP JUMP JUMPDEST PUSH1 0x0 PUSH1 0x20 DUP3 ADD SWAP1 POP DUP2 DUP2 SUB PUSH1 0x0 DUP4 ADD MSTORE PUSH2 0x2762 DUP2 PUSH2 0x2726 JUMP JUMPDEST SWAP1 POP SWAP2 SWAP1 POP JUMP JUMPDEST PUSH32 0x4552433732313A20746F6B656E20616C7265616479206D696E74656400000000 PUSH1 0x0 DUP3 ADD MSTORE POP JUMP JUMPDEST PUSH1 0x0 PUSH2 0x279F PUSH1 0x1C DUP4 PUSH2 0x1BCE JUMP JUMPDEST SWAP2 POP PUSH2 0x27AA DUP3 PUSH2 0x2769 JUMP JUMPDEST PUSH1 0x20 DUP3 ADD SWAP1 POP SWAP2 SWAP1 POP JUMP JUMPDEST PUSH1 0x0 PUSH1 0x20 DUP3 ADD SWAP1 POP DUP2 DUP2 SUB PUSH1 0x0 DUP4 ADD MSTORE PUSH2 0x27CE DUP2 PUSH2 0x2792 JUMP JUMPDEST SWAP1 POP SWAP2 SWAP1 POP JUMP JUMPDEST PUSH32 0x4E487B7100000000000000000000000000000000000000000000000000000000 PUSH1 0x0 MSTORE PUSH1 0x11 PUSH1 0x4 MSTORE PUSH1 0x24 PUSH1 0x0 REVERT JUMPDEST PUSH1 0x0 PUSH2 0x280F DUP3 PUSH2 0x1C75 JUMP JUMPDEST SWAP2 POP PUSH2 0x281A DUP4 PUSH2 0x1C75 JUMP JUMPDEST SWAP3 POP DUP3 DUP3 ADD SWAP1 POP DUP1 DUP3 GT ISZERO PUSH2 0x2832 JUMPI PUSH2 0x2831 PUSH2 0x27D5 JUMP JUMPDEST JUMPDEST SWAP3 SWAP2 POP POP JUMP JUMPDEST PUSH32 0x45524337323155524953746F726167653A2055524920736574206F66206E6F6E PUSH1 0x0 DUP3 ADD MSTORE PUSH32 0x6578697374656E7420746F6B656E000000000000000000000000000000000000 PUSH1 0x20 DUP3 ADD MSTORE POP JUMP JUMPDEST PUSH1 0x0 PUSH2 0x2894 PUSH1 0x2E DUP4 PUSH2 0x1BCE JUMP JUMPDEST SWAP2 POP PUSH2 0x289F DUP3 PUSH2 0x2838 JUMP JUMPDEST PUSH1 0x40 DUP3 ADD SWAP1 POP SWAP2 SWAP1 POP JUMP JUMPDEST PUSH1 0x0 PUSH1 0x20 DUP3 ADD SWAP1 POP DUP2 DUP2 SUB PUSH1 0x0 DUP4 ADD MSTORE PUSH2 0x28C3 DUP2 PUSH2 0x2887 JUMP JUMPDEST SWAP1 POP SWAP2 SWAP1 POP JUMP JUMPDEST PUSH1 0x0 DUP2 SWAP1 POP DUP2 PUSH1 0x0 MSTORE PUSH1 0x20 PUSH1 0x0 KECCAK256 SWAP1 POP SWAP2 SWAP1 POP JUMP JUMPDEST PUSH1 0x0 PUSH1 0x20 PUSH1 0x1F DUP4 ADD DIV SWAP1 POP SWAP2 SWAP1 POP JUMP JUMPDEST PUSH1 0x0 DUP3 DUP3 SHL SWAP1 POP SWAP3 SWAP2 POP POP JUMP JUMPDEST PUSH1 0x0 PUSH1 0x8 DUP4 MUL PUSH2 0x292C PUSH32 0xFFFFFFFFFFFFFFFFFFFFFFFFFFFFFFFFFFFFFFFFFFFFFFFFFFFFFFFFFFFFFFFF DUP3 PUSH2 0x28EF JUMP JUMPDEST PUSH2 0x2936 DUP7 DUP4 PUSH2 0x28EF JUMP JUMPDEST SWAP6 POP DUP1 NOT DUP5 AND SWAP4 POP DUP1 DUP7 AND DUP5 OR SWAP3 POP POP POP SWAP4 SWAP3 POP POP POP JUMP JUMPDEST PUSH1 0x0 DUP2 SWAP1 POP SWAP2 SWAP1 POP JUMP JUMPDEST PUSH1 0x0 PUSH2 0x2973 PUSH2 0x296E PUSH2 0x2969 DUP5 PUSH2 0x1C75 JUMP JUMPDEST PUSH2 0x294E JUMP JUMPDEST PUSH2 0x1C75 JUMP JUMPDEST SWAP1 POP SWAP2 SWAP1 POP JUMP JUMPDEST PUSH1 0x0 DUP2 SWAP1 POP SWAP2 SWAP1 POP JUMP JUMPDEST PUSH2 0x298D DUP4 PUSH2 0x2958 JUMP JUMPDEST PUSH2 0x29A1 PUSH2 0x2999 DUP3 PUSH2 0x297A JUMP JUMPDEST DUP5 DUP5 SLOAD PUSH2 0x28FC JUMP JUMPDEST DUP3 SSTORE POP POP POP POP JUMP JUMPDEST PUSH1 0x0 SWAP1 JUMP JUMPDEST PUSH2 0x29B6 PUSH2 0x29A9 JUMP JUMPDEST PUSH2 0x29C1 DUP2 DUP5 DUP5 PUSH2 0x2984 JUMP JUMPDEST POP POP POP JUMP JUMPDEST JUMPDEST DUP2 DUP2 LT ISZERO PUSH2 0x29E5 JUMPI PUSH2 0x29DA PUSH1 0x0 DUP3 PUSH2 0x29AE JUMP JUMPDEST PUSH1 0x1 DUP2 ADD SWAP1 POP PUSH2 0x29C7 JUMP JUMPDEST POP POP JUMP JUMPDEST PUSH1 0x1F DUP3 GT ISZERO PUSH2 0x2A2A JUMPI PUSH2 0x29FB DUP2 PUSH2 0x28CA JUMP JUMPDEST PUSH2 0x2A04 DUP5 PUSH2 0x28DF JUMP JUMPDEST DUP2 ADD PUSH1 0x20 DUP6 LT ISZERO PUSH2 0x2A13 JUMPI DUP2 SWAP1 POP JUMPDEST PUSH2 0x2A27 PUSH2 0x2A1F DUP6 PUSH2 0x28DF JUMP JUMPDEST DUP4 ADD DUP3 PUSH2 0x29C6 JUMP JUMPDEST POP POP JUMPDEST POP POP POP JUMP JUMPDEST PUSH1 0x0 DUP3 DUP3 SHR SWAP1 POP SWAP3 SWAP2 POP POP JUMP JUMPDEST PUSH1 0x0 PUSH2 0x2A4D PUSH1 0x0 NOT DUP5 PUSH1 0x8 MUL PUSH2 0x2A2F JUMP JUMPDEST NOT DUP1 DUP4 AND SWAP2 POP POP SWAP3 SWAP2 POP POP JUMP JUMPDEST PUSH1 0x0 PUSH2 0x2A66 DUP4 DUP4 PUSH2 0x2A3C JUMP JUMPDEST SWAP2 POP DUP3 PUSH1 0x2 MUL DUP3 OR SWAP1 POP SWAP3 SWAP2 POP POP JUMP JUMPDEST PUSH2 0x2A7F DUP3 PUSH2 0x1BC3 JUMP JUMPDEST PUSH8 0xFFFFFFFFFFFFFFFF DUP2 GT ISZERO PUSH2 0x2A98 JUMPI PUSH2 0x2A97 PUSH2 0x1DAA JUMP JUMPDEST JUMPDEST PUSH2 0x2AA2 DUP3 SLOAD PUSH2 0x22BA JUMP JUMPDEST PUSH2 0x2AAD DUP3 DUP3 DUP6 PUSH2 0x29E9 JUMP JUMPDEST PUSH1 0x0 PUSH1 0x20 SWAP1 POP PUSH1 0x1F DUP4 GT PUSH1 0x1 DUP2 EQ PUSH2 0x2AE0 JUMPI PUSH1 0x0 DUP5 ISZERO PUSH2 0x2ACE JUMPI DUP3 DUP8 ADD MLOAD SWAP1 POP JUMPDEST PUSH2 0x2AD8 DUP6 DUP3 PUSH2 0x2A5A JUMP JUMPDEST DUP7 SSTORE POP PUSH2 0x2B40 JUMP JUMPDEST PUSH1 0x1F NOT DUP5 AND PUSH2 0x2AEE DUP7 PUSH2 0x28CA JUMP JUMPDEST PUSH1 0x0 JUMPDEST DUP3 DUP2 LT ISZERO PUSH2 0x2B16 JUMPI DUP5 DUP10 ADD MLOAD DUP3 SSTORE PUSH1 0x1 DUP3 ADD SWAP2 POP PUSH1 0x20 DUP6 ADD SWAP5 POP PUSH1 0x20 DUP2 ADD SWAP1 POP PUSH2 0x2AF1 JUMP JUMPDEST DUP7 DUP4 LT ISZERO PUSH2 0x2B33 JUMPI DUP5 DUP10 ADD MLOAD PUSH2 0x2B2F PUSH1 0x1F DUP10 AND DUP3 PUSH2 0x2A3C JUMP JUMPDEST DUP4 SSTORE POP JUMPDEST PUSH1 0x1 PUSH1 0x2 DUP9 MUL ADD DUP9 SSTORE POP POP POP JUMPDEST POP POP POP POP POP POP JUMP JUMPDEST PUSH32 0x4552433732313A207472616E736665722066726F6D20696E636F727265637420 PUSH1 0x0 DUP3 ADD MSTORE PUSH32 0x6F776E6572000000000000000000000000000000000000000000000000000000 PUSH1 0x20 DUP3 ADD MSTORE POP JUMP JUMPDEST PUSH1 0x0 PUSH2 0x2BA4 PUSH1 0x25 DUP4 PUSH2 0x1BCE JUMP JUMPDEST SWAP2 POP PUSH2 0x2BAF DUP3 PUSH2 0x2B48 JUMP JUMPDEST PUSH1 0x40 DUP3 ADD SWAP1 POP SWAP2 SWAP1 POP JUMP JUMPDEST PUSH1 0x0 PUSH1 0x20 DUP3 ADD SWAP1 POP DUP2 DUP2 SUB PUSH1 0x0 DUP4 ADD MSTORE PUSH2 0x2BD3 DUP2 PUSH2 0x2B97 JUMP JUMPDEST SWAP1 POP SWAP2 SWAP1 POP JUMP JUMPDEST PUSH32 0x4552433732313A207472616E7366657220746F20746865207A65726F20616464 PUSH1 0x0 DUP3 ADD MSTORE PUSH32 0x7265737300000000000000000000000000000000000000000000000000000000 PUSH1 0x20 DUP3 ADD MSTORE POP JUMP JUMPDEST PUSH1 0x0 PUSH2 0x2C36 PUSH1 0x24 DUP4 PUSH2 0x1BCE JUMP JUMPDEST SWAP2 POP PUSH2 0x2C41 DUP3 PUSH2 0x2BDA JUMP JUMPDEST PUSH1 0x40 DUP3 ADD SWAP1 POP SWAP2 SWAP1 POP JUMP JUMPDEST PUSH1 0x0 PUSH1 0x20 DUP3 ADD SWAP1 POP DUP2 DUP2 SUB PUSH1 0x0 DUP4 ADD MSTORE PUSH2 0x2C65 DUP2 PUSH2 0x2C29 JUMP JUMPDEST SWAP1 POP SWAP2 SWAP1 POP JUMP JUMPDEST PUSH1 0x0 PUSH2 0x2C77 DUP3 PUSH2 0x1C75 JUMP JUMPDEST SWAP2 POP PUSH2 0x2C82 DUP4 PUSH2 0x1C75 JUMP JUMPDEST SWAP3 POP DUP3 DUP3 SUB SWAP1 POP DUP2 DUP2 GT ISZERO PUSH2 0x2C9A JUMPI PUSH2 0x2C99 PUSH2 0x27D5 JUMP JUMPDEST JUMPDEST SWAP3 SWAP2 POP POP JUMP JUMPDEST PUSH32 0x4552433732313A20617070726F766520746F2063616C6C657200000000000000 PUSH1 0x0 DUP3 ADD MSTORE POP JUMP JUMPDEST PUSH1 0x0 PUSH2 0x2CD6 PUSH1 0x19 DUP4 PUSH2 0x1BCE JUMP JUMPDEST SWAP2 POP PUSH2 0x2CE1 DUP3 PUSH2 0x2CA0 JUMP JUMPDEST PUSH1 0x20 DUP3 ADD SWAP1 POP SWAP2 SWAP1 POP JUMP JUMPDEST PUSH1 0x0 PUSH1 0x20 DUP3 ADD SWAP1 POP DUP2 DUP2 SUB PUSH1 0x0 DUP4 ADD MSTORE PUSH2 0x2D05 DUP2 PUSH2 0x2CC9 JUMP JUMPDEST SWAP1 POP SWAP2 SWAP1 POP JUMP JUMPDEST PUSH32 0x4552433732313A207472616E7366657220746F206E6F6E204552433732315265 PUSH1 0x0 DUP3 ADD MSTORE PUSH32 0x63656976657220696D706C656D656E7465720000000000000000000000000000 PUSH1 0x20 DUP3 ADD MSTORE POP JUMP JUMPDEST PUSH1 0x0 PUSH2 0x2D68 PUSH1 0x32 DUP4 PUSH2 0x1BCE JUMP JUMPDEST SWAP2 POP PUSH2 0x2D73 DUP3 PUSH2 0x2D0C JUMP JUMPDEST PUSH1 0x40 DUP3 ADD SWAP1 POP SWAP2 SWAP1 POP JUMP JUMPDEST PUSH1 0x0 PUSH1 0x20 DUP3 ADD SWAP1 POP DUP2 DUP2 SUB PUSH1 0x0 DUP4 ADD MSTORE PUSH2 0x2D97 DUP2 PUSH2 0x2D5B JUMP JUMPDEST SWAP1 POP SWAP2 SWAP1 POP JUMP JUMPDEST PUSH1 0x0 DUP2 MLOAD SWAP1 POP SWAP2 SWAP1 POP JUMP JUMPDEST PUSH1 0x0 DUP3 DUP3 MSTORE PUSH1 0x20 DUP3 ADD SWAP1 POP SWAP3 SWAP2 POP POP JUMP JUMPDEST PUSH1 0x0 PUSH2 0x2DC5 DUP3 PUSH2 0x2D9E JUMP JUMPDEST PUSH2 0x2DCF DUP2 DUP6 PUSH2 0x2DA9 JUMP JUMPDEST SWAP4 POP PUSH2 0x2DDF DUP2 DUP6 PUSH1 0x20 DUP7 ADD PUSH2 0x1BDF JUMP JUMPDEST PUSH2 0x2DE8 DUP2 PUSH2 0x1C09 JUMP JUMPDEST DUP5 ADD SWAP2 POP POP SWAP3 SWAP2 POP POP JUMP JUMPDEST PUSH1 0x0 PUSH1 0x80 DUP3 ADD SWAP1 POP PUSH2 0x2E08 PUSH1 0x0 DUP4 ADD DUP8 PUSH2 0x1D0A JUMP JUMPDEST PUSH2 0x2E15 PUSH1 0x20 DUP4 ADD DUP7 PUSH2 0x1D0A JUMP JUMPDEST PUSH2 0x2E22 PUSH1 0x40 DUP4 ADD DUP6 PUSH2 0x1F31 JUMP JUMPDEST DUP2 DUP2 SUB PUSH1 0x60 DUP4 ADD MSTORE PUSH2 0x2E34 DUP2 DUP5 PUSH2 0x2DBA JUMP JUMPDEST SWAP1 POP SWAP6 SWAP5 POP POP POP POP POP JUMP JUMPDEST PUSH1 0x0 DUP2 MLOAD SWAP1 POP PUSH2 0x2E4E DUP2 PUSH2 0x1B34 JUMP JUMPDEST SWAP3 SWAP2 POP POP JUMP JUMPDEST PUSH1 0x0 PUSH1 0x20 DUP3 DUP5 SUB SLT ISZERO PUSH2 0x2E6A JUMPI PUSH2 0x2E69 PUSH2 0x1AFE JUMP JUMPDEST JUMPDEST PUSH1 0x0 PUSH2 0x2E78 DUP5 DUP3 DUP6 ADD PUSH2 0x2E3F JUMP JUMPDEST SWAP2 POP POP SWAP3 SWAP2 POP POP JUMP JUMPDEST PUSH1 0x0 PUSH2 0x2E8C DUP3 PUSH2 0x1C75 JUMP JUMPDEST SWAP2 POP PUSH32 0xFFFFFFFFFFFFFFFFFFFFFFFFFFFFFFFFFFFFFFFFFFFFFFFFFFFFFFFFFFFFFFFF DUP3 SUB PUSH2 0x2EBE JUMPI PUSH2 0x2EBD PUSH2 0x27D5 JUMP JUMPDEST JUMPDEST PUSH1 0x1 DUP3 ADD SWAP1 POP SWAP2 SWAP1 POP JUMP JUMPDEST PUSH32 0x4E487B7100000000000000000000000000000000000000000000000000000000 PUSH1 0x0 MSTORE PUSH1 0x12 PUSH1 0x4 MSTORE PUSH1 0x24 PUSH1 0x0 REVERT JUMPDEST PUSH1 0x0 PUSH2 0x2F03 DUP3 PUSH2 0x1C75 JUMP JUMPDEST SWAP2 POP PUSH2 0x2F0E DUP4 PUSH2 0x1C75 JUMP JUMPDEST SWAP3 POP DUP3 PUSH2 0x2F1E JUMPI PUSH2 0x2F1D PUSH2 0x2EC9 JUMP JUMPDEST JUMPDEST DUP3 DUP3 DIV SWAP1 POP SWAP3 SWAP2 POP POP JUMP JUMPDEST PUSH1 0x0 PUSH2 0x2F34 DUP3 PUSH2 0x1C75 JUMP JUMPDEST SWAP2 POP PUSH2 0x2F3F DUP4 PUSH2 0x1C75 JUMP JUMPDEST SWAP3 POP DUP3 PUSH2 0x2F4F JUMPI PUSH2 0x2F4E PUSH2 0x2EC9 JUMP JUMPDEST JUMPDEST DUP3 DUP3 MOD SWAP1 POP SWAP3 SWAP2 POP POP JUMP JUMPDEST PUSH32 0x4E487B7100000000000000000000000000000000000000000000000000000000 PUSH1 0x0 MSTORE PUSH1 0x32 PUSH1 0x4 MSTORE PUSH1 0x24 PUSH1 0x0 REVERT INVALID LOG2 PUSH5 0x6970667358 0x22 SLT KECCAK256 0xC2 0xB2 0xAB SWAP3 CALLCODE SWAP15 0x23 PUSH13 0x797ECDC87D1E3E55283A923D52 SAR PUSH10 0x16E90B7CB9550F754964 PUSH20 0x6F6C634300081100330000000000000000000000 "},"methodIdentifiers":{"approve(address,uint256)":"095ea7b3","balanceOf(address)":"70a08231","getApproved(uint256)":"081812fc","getUserRouteIds(address)":"c86ba491","isApprovedForAll(address,address)":"e985e9c5","mintRoute(address,string)":"128db457","name()":"06fdde03","owner()":"8da5cb5b","ownerOf(uint256)":"6352211e","renounceOwnership()":"715018a6","safeTransferFrom(address,address,uint256)":"42842e0e","safeTransferFrom(address,address,uint256,bytes)":"b88d4fde","setApprovalForAll(address,bool)":"a22cb465","supportsInterface(bytes4)":"01ffc9a7","symbol()":"95d89b41","tokenURI(uint256)":"c87b56dd","transferFrom(address,address,uint256)":"23b872dd","transferOwnership(address)":"f2fde38b"}}}}}