{
  "_format": "hh-sol-artifact-1",
  "contractName": "Growachild",
  "sourceName": "contracts/Growachild.sol",
  "abi": [
    {
      "anonymous": false,
      "inputs": [
        {
          "indexed": true,
          "internalType": "address",
          "name": "owner",
          "type": "address"
        },
        {
          "indexed": true,
          "internalType": "address",
          "name": "spender",
          "type": "address"
        },
        {
          "indexed": false,
          "internalType": "uint256",
          "name": "value",
          "type": "uint256"
        }
      ],
      "name": "Approval",
      "type": "event"
    },
    {
      "anonymous": false,
      "inputs": [
        {
          "indexed": false,
          "internalType": "uint8",
          "name": "version",
          "type": "uint8"
        }
      ],
      "name": "Initialized",
      "type": "event"
    },
    {
      "anonymous": false,
      "inputs": [
        {
          "indexed": true,
          "internalType": "address",
          "name": "previousOwner",
          "type": "address"
        },
        {
          "indexed": true,
          "internalType": "address",
          "name": "newOwner",
          "type": "address"
        }
      ],
      "name": "OwnershipTransferred",
      "type": "event"
    },
    {
      "anonymous": false,
      "inputs": [
        {
          "indexed": true,
          "internalType": "address",
          "name": "from",
          "type": "address"
        },
        {
          "indexed": true,
          "internalType": "address",
          "name": "to",
          "type": "address"
        },
        {
          "indexed": false,
          "internalType": "uint256",
          "name": "value",
          "type": "uint256"
        }
      ],
      "name": "Transfer",
      "type": "event"
    },
    {
      "inputs": [
        {
          "internalType": "address",
          "name": "owner",
          "type": "address"
        },
        {
          "internalType": "address",
          "name": "spender",
          "type": "address"
        }
      ],
      "name": "allowance",
      "outputs": [
        {
          "internalType": "uint256",
          "name": "",
          "type": "uint256"
        }
      ],
      "stateMutability": "view",
      "type": "function"
    },
    {
      "inputs": [
        {
          "internalType": "address",
          "name": "spender",
          "type": "address"
        },
        {
          "internalType": "uint256",
          "name": "amount",
          "type": "uint256"
        }
      ],
      "name": "approve",
      "outputs": [
        {
          "internalType": "bool",
          "name": "",
          "type": "bool"
        }
      ],
      "stateMutability": "nonpayable",
      "type": "function"
    },
    {
      "inputs": [
        {
          "internalType": "address",
          "name": "account",
          "type": "address"
        }
      ],
      "name": "balanceOf",
      "outputs": [
        {
          "internalType": "uint256",
          "name": "",
          "type": "uint256"
        }
      ],
      "stateMutability": "view",
      "type": "function"
    },
    {
      "inputs": [
        {
          "internalType": "address",
          "name": "",
          "type": "address"
        },
        {
          "internalType": "uint256",
          "name": "",
          "type": "uint256"
        }
      ],
      "name": "campaignDetails",
      "outputs": [
        {
          "internalType": "address",
          "name": "ngo",
          "type": "address"
        },
        {
          "internalType": "string",
          "name": "name",
          "type": "string"
        },
        {
          "internalType": "string",
          "name": "description",
          "type": "string"
        },
        {
          "internalType": "uint256",
          "name": "noOfBeneficiaries",
          "type": "uint256"
        },
        {
          "internalType": "uint256",
          "name": "dailyFundNeed",
          "type": "uint256"
        }
      ],
      "stateMutability": "view",
      "type": "function"
    },
    {
      "inputs": [],
      "name": "checkRegistration",
      "outputs": [
        {
          "internalType": "bool",
          "name": "",
          "type": "bool"
        }
      ],
      "stateMutability": "view",
      "type": "function"
    },
    {
      "inputs": [],
      "name": "decimals",
      "outputs": [
        {
          "internalType": "uint8",
          "name": "",
          "type": "uint8"
        }
      ],
      "stateMutability": "view",
      "type": "function"
    },
    {
      "inputs": [
        {
          "internalType": "address",
          "name": "spender",
          "type": "address"
        },
        {
          "internalType": "uint256",
          "name": "subtractedValue",
          "type": "uint256"
        }
      ],
      "name": "decreaseAllowance",
      "outputs": [
        {
          "internalType": "bool",
          "name": "",
          "type": "bool"
        }
      ],
      "stateMutability": "nonpayable",
      "type": "function"
    },
    {
      "inputs": [],
      "name": "getAllCampains",
      "outputs": [
        {
          "components": [
            {
              "internalType": "address",
              "name": "ngo",
              "type": "address"
            },
            {
              "internalType": "string",
              "name": "name",
              "type": "string"
            },
            {
              "internalType": "string",
              "name": "description",
              "type": "string"
            },
            {
              "internalType": "uint256",
              "name": "noOfBeneficiaries",
              "type": "uint256"
            },
            {
              "internalType": "uint256",
              "name": "dailyFundNeed",
              "type": "uint256"
            }
          ],
          "internalType": "struct Growachild.Campaign[]",
          "name": "",
          "type": "tuple[]"
        }
      ],
      "stateMutability": "view",
      "type": "function"
    },
    {
      "inputs": [
        {
          "internalType": "address",
          "name": "spender",
          "type": "address"
        },
        {
          "internalType": "uint256",
          "name": "addedValue",
          "type": "uint256"
        }
      ],
      "name": "increaseAllowance",
      "outputs": [
        {
          "internalType": "bool",
          "name": "",
          "type": "bool"
        }
      ],
      "stateMutability": "nonpayable",
      "type": "function"
    },
    {
      "inputs": [],
      "name": "initialize",
      "outputs": [],
      "stateMutability": "nonpayable",
      "type": "function"
    },
    {
      "inputs": [],
      "name": "name",
      "outputs": [
        {
          "internalType": "string",
          "name": "",
          "type": "string"
        }
      ],
      "stateMutability": "view",
      "type": "function"
    },
    {
      "inputs": [
        {
          "internalType": "address",
          "name": "",
          "type": "address"
        }
      ],
      "name": "ngoDetails",
      "outputs": [
        {
          "internalType": "string",
          "name": "name",
          "type": "string"
        },
        {
          "internalType": "string",
          "name": "description",
          "type": "string"
        },
        {
          "internalType": "string",
          "name": "registrationNo",
          "type": "string"
        },
        {
          "internalType": "string",
          "name": "registeredByGovt",
          "type": "string"
        },
        {
          "internalType": "uint256",
          "name": "serviceSince",
          "type": "uint256"
        },
        {
          "internalType": "string",
          "name": "ngoAddress",
          "type": "string"
        },
        {
          "internalType": "string",
          "name": "country",
          "type": "string"
        },
        {
          "internalType": "uint256",
          "name": "campaignCount",
          "type": "uint256"
        }
      ],
      "stateMutability": "view",
      "type": "function"
    },
    {
      "inputs": [],
      "name": "owner",
      "outputs": [
        {
          "internalType": "address",
          "name": "",
          "type": "address"
        }
      ],
      "stateMutability": "view",
      "type": "function"
    },
    {
      "inputs": [
        {
          "internalType": "string",
          "name": "_name",
          "type": "string"
        },
        {
          "internalType": "string",
          "name": "_description",
          "type": "string"
        },
        {
          "internalType": "uint256",
          "name": "_noOfBeneficiaries",
          "type": "uint256"
        },
        {
          "internalType": "uint256",
          "name": "_dailyFundNeed",
          "type": "uint256"
        }
      ],
      "name": "registerCampign",
      "outputs": [],
      "stateMutability": "nonpayable",
      "type": "function"
    },
    {
      "inputs": [
        {
          "internalType": "string",
          "name": "_name",
          "type": "string"
        },
        {
          "internalType": "string",
          "name": "_description",
          "type": "string"
        },
        {
          "internalType": "string",
          "name": "_registrationNo",
          "type": "string"
        },
        {
          "internalType": "string",
          "name": "_registeredByGovt",
          "type": "string"
        },
        {
          "internalType": "uint256",
          "name": "_serviceSince",
          "type": "uint256"
        },
        {
          "internalType": "string",
          "name": "ngoAddress",
          "type": "string"
        },
        {
          "internalType": "string",
          "name": "_country",
          "type": "string"
        }
      ],
      "name": "registerNGO",
      "outputs": [],
      "stateMutability": "nonpayable",
      "type": "function"
    },
    {
      "inputs": [],
      "name": "renounceOwnership",
      "outputs": [],
      "stateMutability": "nonpayable",
      "type": "function"
    },
    {
      "inputs": [],
      "name": "symbol",
      "outputs": [
        {
          "internalType": "string",
          "name": "",
          "type": "string"
        }
      ],
      "stateMutability": "view",
      "type": "function"
    },
    {
      "inputs": [],
      "name": "totalSupply",
      "outputs": [
        {
          "internalType": "uint256",
          "name": "",
          "type": "uint256"
        }
      ],
      "stateMutability": "view",
      "type": "function"
    },
    {
      "inputs": [
        {
          "internalType": "address",
          "name": "to",
          "type": "address"
        },
        {
          "internalType": "uint256",
          "name": "amount",
          "type": "uint256"
        }
      ],
      "name": "transfer",
      "outputs": [
        {
          "internalType": "bool",
          "name": "",
          "type": "bool"
        }
      ],
      "stateMutability": "nonpayable",
      "type": "function"
    },
    {
      "inputs": [
        {
          "internalType": "address",
          "name": "from",
          "type": "address"
        },
        {
          "internalType": "address",
          "name": "to",
          "type": "address"
        },
        {
          "internalType": "uint256",
          "name": "amount",
          "type": "uint256"
        }
      ],
      "name": "transferFrom",
      "outputs": [
        {
          "internalType": "bool",
          "name": "",
          "type": "bool"
        }
      ],
      "stateMutability": "nonpayable",
      "type": "function"
    },
    {
      "inputs": [
        {
          "internalType": "address",
          "name": "newOwner",
          "type": "address"
        }
      ],
      "name": "transferOwnership",
      "outputs": [],
      "stateMutability": "nonpayable",
      "type": "function"
    }
  ],
  "bytecode": "0x608060405234801561001057600080fd5b50613313806100206000396000f3fe608060405234801561001057600080fd5b50600436106101375760003560e01c80633b3c48bb116100b857806395d89b411161007c57806395d89b4114610349578063a457c2d714610367578063a9059cbb14610397578063dd62ed3e146103c7578063f2fde38b146103f7578063fd1b21001461041357610137565b80633b3c48bb146102b357806370a08231146102e7578063715018a6146103175780638129fc1c146103215780638da5cb5b1461032b57610137565b806323b872dd116100ff57806323b872dd146101fb57806326509bb11461022b578063313ce5671461024757806336e5b80714610265578063395093511461028357610137565b806306fdde031461013c578063095ea7b31461015a578063113d01621461018a57806314140cdf146101a657806318160ddd146101dd575b600080fd5b610144610431565b604051610151919061299f565b60405180910390f35b610174600480360381019061016f9190612326565b6104c3565b6040516101819190612969565b60405180910390f35b6101a4600480360381019061019f9190612490565b6104e6565b005b6101c060048036038101906101bb9190612272565b61072e565b6040516101d49897969594939291906129c1565b60405180910390f35b6101e5610aa6565b6040516101f29190612c09565b60405180910390f35b610215600480360381019061021091906122d7565b610ab0565b6040516102229190612969565b60405180910390f35b61024560048036038101906102409190612362565b610adf565b005b61024f610d28565b60405161025c9190612c24565b60405180910390f35b61026d610d31565b60405161027a9190612947565b60405180910390f35b61029d60048036038101906102989190612326565b611227565b6040516102aa9190612969565b60405180910390f35b6102cd60048036038101906102c89190612326565b61125e565b6040516102de9594939291906128e6565b60405180910390f35b61030160048036038101906102fc9190612272565b6113d1565b60405161030e9190612c09565b60405180910390f35b61031f61141a565b005b61032961142e565b005b61033361159c565b60405161034091906128cb565b60405180910390f35b6103516115c6565b60405161035e919061299f565b60405180910390f35b610381600480360381019061037c9190612326565b611658565b60405161038e9190612969565b60405180910390f35b6103b160048036038101906103ac9190612326565b6116cf565b6040516103be9190612969565b60405180910390f35b6103e160048036038101906103dc919061229b565b6116f2565b6040516103ee9190612c09565b60405180910390f35b610411600480360381019061040c9190612272565b611779565b005b61041b6117fd565b6040516104289190612969565b60405180910390f35b60606036805461044090612dfa565b80601f016020809104026020016040519081016040528092919081815260200182805461046c90612dfa565b80156104b95780601f1061048e576101008083540402835291602001916104b9565b820191906000526020600020905b81548152906001019060200180831161049c57829003601f168201915b5050505050905090565b6000806104ce61185a565b90506104db818585611862565b600191505092915050565b6002606554141561052c576040517f08c379a000000000000000000000000000000000000000000000000000000000815260040161052390612bc9565b60405180910390fd5b60026065819055506000600160ca60003373ffffffffffffffffffffffffffffffffffffffff1673ffffffffffffffffffffffffffffffffffffffff168152602001908152602001600020600701546105859190612cfb565b90506040518060a001604052803373ffffffffffffffffffffffffffffffffffffffff1681526020018681526020018581526020018481526020018381525060cc60003373ffffffffffffffffffffffffffffffffffffffff1673ffffffffffffffffffffffffffffffffffffffff168152602001908152602001600020600083815260200190815260200160002060008201518160000160006101000a81548173ffffffffffffffffffffffffffffffffffffffff021916908373ffffffffffffffffffffffffffffffffffffffff16021790555060208201518160010190805190602001906106779291906120f8565b5060408201518160020190805190602001906106949291906120f8565b506060820151816003015560808201518160040155905050600160ca60003373ffffffffffffffffffffffffffffffffffffffff1673ffffffffffffffffffffffffffffffffffffffff16815260200190815260200160002060070160008282546106ff9190612cfb565b925050819055508260c960008282546107189190612cfb565b9250508190555050600160658190555050505050565b60ca60205280600052604060002060009150905080600001805461075190612dfa565b80601f016020809104026020016040519081016040528092919081815260200182805461077d90612dfa565b80156107ca5780601f1061079f576101008083540402835291602001916107ca565b820191906000526020600020905b8154815290600101906020018083116107ad57829003601f168201915b5050505050908060010180546107df90612dfa565b80601f016020809104026020016040519081016040528092919081815260200182805461080b90612dfa565b80156108585780601f1061082d57610100808354040283529160200191610858565b820191906000526020600020905b81548152906001019060200180831161083b57829003601f168201915b50505050509080600201805461086d90612dfa565b80601f016020809104026020016040519081016040528092919081815260200182805461089990612dfa565b80156108e65780601f106108bb576101008083540402835291602001916108e6565b820191906000526020600020905b8154815290600101906020018083116108c957829003601f168201915b5050505050908060030180546108fb90612dfa565b80601f016020809104026020016040519081016040528092919081815260200182805461092790612dfa565b80156109745780601f1061094957610100808354040283529160200191610974565b820191906000526020600020905b81548152906001019060200180831161095757829003601f168201915b50505050509080600401549080600501805461098f90612dfa565b80601f01602080910402602001604051908101604052809291908181526020018280546109bb90612dfa565b8015610a085780601f106109dd57610100808354040283529160200191610a08565b820191906000526020600020905b8154815290600101906020018083116109eb57829003601f168201915b505050505090806006018054610a1d90612dfa565b80601f0160208091040260200160405190810160405280929190818152602001828054610a4990612dfa565b8015610a965780601f10610a6b57610100808354040283529160200191610a96565b820191906000526020600020905b815481529060010190602001808311610a7957829003601f168201915b5050505050908060070154905088565b6000603554905090565b600080610abb61185a565b9050610ac8858285611a2d565b610ad3858585611ab9565b60019150509392505050565b60026065541415610b25576040517f08c379a0000000000000000000000000000000000000000000000000000000008152600401610b1c90612bc9565b60405180910390fd5b6002606581905550610b356117fd565b15610b75576040517f08c379a0000000000000000000000000000000000000000000000000000000008152600401610b6c90612a89565b60405180910390fd5b604051806101000160405280888152602001878152602001868152602001858152602001848152602001838152602001828152602001600081525060ca60003373ffffffffffffffffffffffffffffffffffffffff1673ffffffffffffffffffffffffffffffffffffffff1681526020019081526020016000206000820151816000019080519060200190610c0b9291906120f8565b506020820151816001019080519060200190610c289291906120f8565b506040820151816002019080519060200190610c459291906120f8565b506060820151816003019080519060200190610c629291906120f8565b506080820151816004015560a0820151816005019080519060200190610c899291906120f8565b5060c0820151816006019080519060200190610ca69291906120f8565b5060e0820151816007015590505060cb339080600181540180825580915050600190039060005260206000200160009091909190916101000a81548173ffffffffffffffffffffffffffffffffffffffff021916908373ffffffffffffffffffffffffffffffffffffffff160217905550600160658190555050505050505050565b60006012905090565b606060008060005b60cb80549050811015610e0d5760ca600060cb8381548110610d84577f4e487b7100000000000000000000000000000000000000000000000000000000600052603260045260246000fd5b9060005260206000200160009054906101000a900473ffffffffffffffffffffffffffffffffffffffff1673ffffffffffffffffffffffffffffffffffffffff1673ffffffffffffffffffffffffffffffffffffffff1681526020019081526020016000206007015483610df89190612cfb565b92508080610e0590612e5d565b915050610d39565b5060008267ffffffffffffffff811115610e50577f4e487b7100000000000000000000000000000000000000000000000000000000600052604160045260246000fd5b604051908082528060200260200182016040528015610e8957816020015b610e7661217e565b815260200190600190039081610e6e5790505b50905060005b60cb8054905081101561121d576000600190505b60ca600060cb8481548110610ee1577f4e487b7100000000000000000000000000000000000000000000000000000000600052603260045260246000fd5b9060005260206000200160009054906101000a900473ffffffffffffffffffffffffffffffffffffffff1673ffffffffffffffffffffffffffffffffffffffff1673ffffffffffffffffffffffffffffffffffffffff16815260200190815260200160002060070154811161120957600060cc600060cb8581548110610f90577f4e487b7100000000000000000000000000000000000000000000000000000000600052603260045260246000fd5b9060005260206000200160009054906101000a900473ffffffffffffffffffffffffffffffffffffffff1673ffffffffffffffffffffffffffffffffffffffff1673ffffffffffffffffffffffffffffffffffffffff16815260200190815260200160002060008381526020019081526020016000209050806040518060a00160405290816000820160009054906101000a900473ffffffffffffffffffffffffffffffffffffffff1673ffffffffffffffffffffffffffffffffffffffff1673ffffffffffffffffffffffffffffffffffffffff16815260200160018201805461107a90612dfa565b80601f01602080910402602001604051908101604052809291908181526020018280546110a690612dfa565b80156110f35780601f106110c8576101008083540402835291602001916110f3565b820191906000526020600020905b8154815290600101906020018083116110d657829003601f168201915b5050505050815260200160028201805461110c90612dfa565b80601f016020809104026020016040519081016040528092919081815260200182805461113890612dfa565b80156111855780601f1061115a57610100808354040283529160200191611185565b820191906000526020600020905b81548152906001019060200180831161116857829003601f168201915b50505050508152602001600382015481526020016004820154815250508486815181106111db577f4e487b7100000000000000000000000000000000000000000000000000000000600052603260045260246000fd5b60200260200101819052506001856111f39190612cfb565b945050808061120190612e5d565b915050610ea3565b50808061121590612e5d565b915050610e8f565b5080935050505090565b60008061123261185a565b905061125381858561124485896116f2565b61124e9190612cfb565b611862565b600191505092915050565b60cc602052816000526040600020602052806000526040600020600091509150508060000160009054906101000a900473ffffffffffffffffffffffffffffffffffffffff16908060010180546112b490612dfa565b80601f01602080910402602001604051908101604052809291908181526020018280546112e090612dfa565b801561132d5780601f106113025761010080835404028352916020019161132d565b820191906000526020600020905b81548152906001019060200180831161131057829003601f168201915b50505050509080600201805461134290612dfa565b80601f016020809104026020016040519081016040528092919081815260200182805461136e90612dfa565b80156113bb5780601f10611390576101008083540402835291602001916113bb565b820191906000526020600020905b81548152906001019060200180831161139e57829003601f168201915b5050505050908060030154908060040154905085565b6000603360008373ffffffffffffffffffffffffffffffffffffffff1673ffffffffffffffffffffffffffffffffffffffff168152602001908152602001600020549050919050565b611422611d3d565b61142c6000611dbb565b565b60008060019054906101000a900460ff1615905080801561145f5750600160008054906101000a900460ff1660ff16105b8061148c575061146e30611e81565b15801561148b5750600160008054906101000a900460ff1660ff16145b5b6114cb576040517f08c379a00000000000000000000000000000000000000000000000000000000081526004016114c290612b29565b60405180910390fd5b60016000806101000a81548160ff021916908360ff1602179055508015611508576001600060016101000a81548160ff0219169083151502179055505b6115306040518060200160405280600081525060405180602001604052806000815250611ea4565b611538611f01565b611540611f5a565b80156115995760008060016101000a81548160ff0219169083151502179055507f7f26b83ff96e1f2b6a682f133852f6798a09c465da95921460cefb384740249860016040516115909190612984565b60405180910390a15b50565b6000609760009054906101000a900473ffffffffffffffffffffffffffffffffffffffff16905090565b6060603780546115d590612dfa565b80601f016020809104026020016040519081016040528092919081815260200182805461160190612dfa565b801561164e5780601f106116235761010080835404028352916020019161164e565b820191906000526020600020905b81548152906001019060200180831161163157829003601f168201915b5050505050905090565b60008061166361185a565b9050600061167182866116f2565b9050838110156116b6576040517f08c379a00000000000000000000000000000000000000000000000000000000081526004016116ad90612be9565b60405180910390fd5b6116c38286868403611862565b60019250505092915050565b6000806116da61185a565b90506116e7818585611ab9565b600191505092915050565b6000603460008473ffffffffffffffffffffffffffffffffffffffff1673ffffffffffffffffffffffffffffffffffffffff16815260200190815260200160002060008373ffffffffffffffffffffffffffffffffffffffff1673ffffffffffffffffffffffffffffffffffffffff16815260200190815260200160002054905092915050565b611781611d3d565b600073ffffffffffffffffffffffffffffffffffffffff168173ffffffffffffffffffffffffffffffffffffffff1614156117f1576040517f08c379a00000000000000000000000000000000000000000000000000000000081526004016117e890612aa9565b60405180910390fd5b6117fa81611dbb565b50565b60008060ca60003373ffffffffffffffffffffffffffffffffffffffff1673ffffffffffffffffffffffffffffffffffffffff1681526020019081526020016000206004015414156118525760009050611857565b600190505b90565b600033905090565b600073ffffffffffffffffffffffffffffffffffffffff168373ffffffffffffffffffffffffffffffffffffffff1614156118d2576040517f08c379a00000000000000000000000000000000000000000000000000000000081526004016118c990612b89565b60405180910390fd5b600073ffffffffffffffffffffffffffffffffffffffff168273ffffffffffffffffffffffffffffffffffffffff161415611942576040517f08c379a000000000000000000000000000000000000000000000000000000000815260040161193990612ac9565b60405180910390fd5b80603460008573ffffffffffffffffffffffffffffffffffffffff1673ffffffffffffffffffffffffffffffffffffffff16815260200190815260200160002060008473ffffffffffffffffffffffffffffffffffffffff1673ffffffffffffffffffffffffffffffffffffffff168152602001908152602001600020819055508173ffffffffffffffffffffffffffffffffffffffff168373ffffffffffffffffffffffffffffffffffffffff167f8c5be1e5ebec7d5bd14f71427d1e84f3dd0314c0f7b2291e5b200ac8c7c3b92583604051611a209190612c09565b60405180910390a3505050565b6000611a3984846116f2565b90507fffffffffffffffffffffffffffffffffffffffffffffffffffffffffffffffff8114611ab35781811015611aa5576040517f08c379a0000000000000000000000000000000000000000000000000000000008152600401611a9c90612ae9565b60405180910390fd5b611ab28484848403611862565b5b50505050565b600073ffffffffffffffffffffffffffffffffffffffff168373ffffffffffffffffffffffffffffffffffffffff161415611b29576040517f08c379a0000000000000000000000000000000000000000000000000000000008152600401611b2090612b69565b60405180910390fd5b600073ffffffffffffffffffffffffffffffffffffffff168273ffffffffffffffffffffffffffffffffffffffff161415611b99576040517f08c379a0000000000000000000000000000000000000000000000000000000008152600401611b9090612a69565b60405180910390fd5b611ba4838383611fb3565b6000603360008573ffffffffffffffffffffffffffffffffffffffff1673ffffffffffffffffffffffffffffffffffffffff16815260200190815260200160002054905081811015611c2b576040517f08c379a0000000000000000000000000000000000000000000000000000000008152600401611c2290612b09565b60405180910390fd5b818103603360008673ffffffffffffffffffffffffffffffffffffffff1673ffffffffffffffffffffffffffffffffffffffff1681526020019081526020016000208190555081603360008573ffffffffffffffffffffffffffffffffffffffff1673ffffffffffffffffffffffffffffffffffffffff1681526020019081526020016000206000828254611cc09190612cfb565b925050819055508273ffffffffffffffffffffffffffffffffffffffff168473ffffffffffffffffffffffffffffffffffffffff167fddf252ad1be2c89b69c2b068fc378daa952ba7f163c4a11628f55a4df523b3ef84604051611d249190612c09565b60405180910390a3611d37848484611fb8565b50505050565b611d4561185a565b73ffffffffffffffffffffffffffffffffffffffff16611d6361159c565b73ffffffffffffffffffffffffffffffffffffffff1614611db9576040517f08c379a0000000000000000000000000000000000000000000000000000000008152600401611db090612b49565b60405180910390fd5b565b6000609760009054906101000a900473ffffffffffffffffffffffffffffffffffffffff16905081609760006101000a81548173ffffffffffffffffffffffffffffffffffffffff021916908373ffffffffffffffffffffffffffffffffffffffff1602179055508173ffffffffffffffffffffffffffffffffffffffff168173ffffffffffffffffffffffffffffffffffffffff167f8be0079c531659141344cd1fd0a4f28419497f9722a3daafe3b4186f6b6457e060405160405180910390a35050565b6000808273ffffffffffffffffffffffffffffffffffffffff163b119050919050565b600060019054906101000a900460ff16611ef3576040517f08c379a0000000000000000000000000000000000000000000000000000000008152600401611eea90612ba9565b60405180910390fd5b611efd8282611fbd565b5050565b600060019054906101000a900460ff16611f50576040517f08c379a0000000000000000000000000000000000000000000000000000000008152600401611f4790612ba9565b60405180910390fd5b611f5861203e565b565b600060019054906101000a900460ff16611fa9576040517f08c379a0000000000000000000000000000000000000000000000000000000008152600401611fa090612ba9565b60405180910390fd5b611fb1612097565b565b505050565b505050565b600060019054906101000a900460ff1661200c576040517f08c379a000000000000000000000000000000000000000000000000000000000815260040161200390612ba9565b60405180910390fd5b81603690805190602001906120229291906120f8565b5080603790805190602001906120399291906120f8565b505050565b600060019054906101000a900460ff1661208d576040517f08c379a000000000000000000000000000000000000000000000000000000000815260040161208490612ba9565b60405180910390fd5b6001606581905550565b600060019054906101000a900460ff166120e6576040517f08c379a00000000000000000000000000000000000000000000000000000000081526004016120dd90612ba9565b60405180910390fd5b6120f66120f161185a565b611dbb565b565b82805461210490612dfa565b90600052602060002090601f016020900481019282612126576000855561216d565b82601f1061213f57805160ff191683800117855561216d565b8280016001018555821561216d579182015b8281111561216c578251825591602001919060010190612151565b5b50905061217a91906121c3565b5090565b6040518060a00160405280600073ffffffffffffffffffffffffffffffffffffffff168152602001606081526020016060815260200160008152602001600081525090565b5b808211156121dc5760008160009055506001016121c4565b5090565b60006121f36121ee84612c64565b612c3f565b90508281526020810184848401111561220b57600080fd5b612216848285612db8565b509392505050565b60008135905061222d816132af565b92915050565b600082601f83011261224457600080fd5b81356122548482602086016121e0565b91505092915050565b60008135905061226c816132c6565b92915050565b60006020828403121561228457600080fd5b60006122928482850161221e565b91505092915050565b600080604083850312156122ae57600080fd5b60006122bc8582860161221e565b92505060206122cd8582860161221e565b9150509250929050565b6000806000606084860312156122ec57600080fd5b60006122fa8682870161221e565b935050602061230b8682870161221e565b925050604061231c8682870161225d565b9150509250925092565b6000806040838503121561233957600080fd5b60006123478582860161221e565b92505060206123588582860161225d565b9150509250929050565b600080600080600080600060e0888a03121561237d57600080fd5b600088013567ffffffffffffffff81111561239757600080fd5b6123a38a828b01612233565b975050602088013567ffffffffffffffff8111156123c057600080fd5b6123cc8a828b01612233565b965050604088013567ffffffffffffffff8111156123e957600080fd5b6123f58a828b01612233565b955050606088013567ffffffffffffffff81111561241257600080fd5b61241e8a828b01612233565b945050608061242f8a828b0161225d565b93505060a088013567ffffffffffffffff81111561244c57600080fd5b6124588a828b01612233565b92505060c088013567ffffffffffffffff81111561247557600080fd5b6124818a828b01612233565b91505092959891949750929550565b600080600080608085870312156124a657600080fd5b600085013567ffffffffffffffff8111156124c057600080fd5b6124cc87828801612233565b945050602085013567ffffffffffffffff8111156124e957600080fd5b6124f587828801612233565b93505060406125068782880161225d565b92505060606125178782880161225d565b91505092959194509250565b600061252f8383612821565b905092915050565b61254081612d51565b82525050565b61254f81612d51565b82525050565b600061256082612ca5565b61256a8185612cc8565b93508360208202850161257c85612c95565b8060005b858110156125b857848403895281516125998582612523565b94506125a483612cbb565b925060208a01995050600181019050612580565b50829750879550505050505092915050565b6125d381612d63565b82525050565b6125e281612da6565b82525050565b60006125f382612cb0565b6125fd8185612cd9565b935061260d818560208601612dc7565b61261681612f33565b840191505092915050565b600061262c82612cb0565b6126368185612cea565b9350612646818560208601612dc7565b61264f81612f33565b840191505092915050565b6000612667602383612cea565b915061267282612f44565b604082019050919050565b600061268a601b83612cea565b915061269582612f93565b602082019050919050565b60006126ad602683612cea565b91506126b882612fbc565b604082019050919050565b60006126d0602283612cea565b91506126db8261300b565b604082019050919050565b60006126f3601d83612cea565b91506126fe8261305a565b602082019050919050565b6000612716602683612cea565b915061272182613083565b604082019050919050565b6000612739602e83612cea565b9150612744826130d2565b604082019050919050565b600061275c602083612cea565b915061276782613121565b602082019050919050565b600061277f602583612cea565b915061278a8261314a565b604082019050919050565b60006127a2602483612cea565b91506127ad82613199565b604082019050919050565b60006127c5602b83612cea565b91506127d0826131e8565b604082019050919050565b60006127e8601f83612cea565b91506127f382613237565b602082019050919050565b600061280b602583612cea565b915061281682613260565b604082019050919050565b600060a0830160008301516128396000860182612537565b506020830151848203602086015261285182826125e8565b9150506040830151848203604086015261286b82826125e8565b9150506060830151612880606086018261289e565b506080830151612893608086018261289e565b508091505092915050565b6128a781612d8f565b82525050565b6128b681612d8f565b82525050565b6128c581612d99565b82525050565b60006020820190506128e06000830184612546565b92915050565b600060a0820190506128fb6000830188612546565b818103602083015261290d8187612621565b905081810360408301526129218186612621565b905061293060608301856128ad565b61293d60808301846128ad565b9695505050505050565b600060208201905081810360008301526129618184612555565b905092915050565b600060208201905061297e60008301846125ca565b92915050565b600060208201905061299960008301846125d9565b92915050565b600060208201905081810360008301526129b98184612621565b905092915050565b60006101008201905081810360008301526129dc818b612621565b905081810360208301526129f0818a612621565b90508181036040830152612a048189612621565b90508181036060830152612a188188612621565b9050612a2760808301876128ad565b81810360a0830152612a398186612621565b905081810360c0830152612a4d8185612621565b9050612a5c60e08301846128ad565b9998505050505050505050565b60006020820190508181036000830152612a828161265a565b9050919050565b60006020820190508181036000830152612aa28161267d565b9050919050565b60006020820190508181036000830152612ac2816126a0565b9050919050565b60006020820190508181036000830152612ae2816126c3565b9050919050565b60006020820190508181036000830152612b02816126e6565b9050919050565b60006020820190508181036000830152612b2281612709565b9050919050565b60006020820190508181036000830152612b428161272c565b9050919050565b60006020820190508181036000830152612b628161274f565b9050919050565b60006020820190508181036000830152612b8281612772565b9050919050565b60006020820190508181036000830152612ba281612795565b9050919050565b60006020820190508181036000830152612bc2816127b8565b9050919050565b60006020820190508181036000830152612be2816127db565b9050919050565b60006020820190508181036000830152612c02816127fe565b9050919050565b6000602082019050612c1e60008301846128ad565b92915050565b6000602082019050612c3960008301846128bc565b92915050565b6000612c49612c5a565b9050612c558282612e2c565b919050565b6000604051905090565b600067ffffffffffffffff821115612c7f57612c7e612f04565b5b612c8882612f33565b9050602081019050919050565b6000819050602082019050919050565b600081519050919050565b600081519050919050565b6000602082019050919050565b600082825260208201905092915050565b600082825260208201905092915050565b600082825260208201905092915050565b6000612d0682612d8f565b9150612d1183612d8f565b9250827fffffffffffffffffffffffffffffffffffffffffffffffffffffffffffffffff03821115612d4657612d45612ea6565b5b828201905092915050565b6000612d5c82612d6f565b9050919050565b60008115159050919050565b600073ffffffffffffffffffffffffffffffffffffffff82169050919050565b6000819050919050565b600060ff82169050919050565b6000612db182612d99565b9050919050565b82818337600083830152505050565b60005b83811015612de5578082015181840152602081019050612dca565b83811115612df4576000848401525b50505050565b60006002820490506001821680612e1257607f821691505b60208210811415612e2657612e25612ed5565b5b50919050565b612e3582612f33565b810181811067ffffffffffffffff82111715612e5457612e53612f04565b5b80604052505050565b6000612e6882612d8f565b91507fffffffffffffffffffffffffffffffffffffffffffffffffffffffffffffffff821415612e9b57612e9a612ea6565b5b600182019050919050565b7f4e487b7100000000000000000000000000000000000000000000000000000000600052601160045260246000fd5b7f4e487b7100000000000000000000000000000000000000000000000000000000600052602260045260246000fd5b7f4e487b7100000000000000000000000000000000000000000000000000000000600052604160045260246000fd5b6000601f19601f8301169050919050565b7f45524332303a207472616e7366657220746f20746865207a65726f206164647260008201527f6573730000000000000000000000000000000000000000000000000000000000602082015250565b7f596f752061726520616c726561647920726567697374657265642e0000000000600082015250565b7f4f776e61626c653a206e6577206f776e657220697320746865207a65726f206160008201527f6464726573730000000000000000000000000000000000000000000000000000602082015250565b7f45524332303a20617070726f766520746f20746865207a65726f20616464726560008201527f7373000000000000000000000000000000000000000000000000000000000000602082015250565b7f45524332303a20696e73756666696369656e7420616c6c6f77616e6365000000600082015250565b7f45524332303a207472616e7366657220616d6f756e742065786365656473206260008201527f616c616e63650000000000000000000000000000000000000000000000000000602082015250565b7f496e697469616c697a61626c653a20636f6e747261637420697320616c72656160008201527f647920696e697469616c697a6564000000000000000000000000000000000000602082015250565b7f4f776e61626c653a2063616c6c6572206973206e6f7420746865206f776e6572600082015250565b7f45524332303a207472616e736665722066726f6d20746865207a65726f20616460008201527f6472657373000000000000000000000000000000000000000000000000000000602082015250565b7f45524332303a20617070726f76652066726f6d20746865207a65726f2061646460008201527f7265737300000000000000000000000000000000000000000000000000000000602082015250565b7f496e697469616c697a61626c653a20636f6e7472616374206973206e6f74206960008201527f6e697469616c697a696e67000000000000000000000000000000000000000000602082015250565b7f5265656e7472616e637947756172643a207265656e7472616e742063616c6c00600082015250565b7f45524332303a2064656372656173656420616c6c6f77616e63652062656c6f7760008201527f207a65726f000000000000000000000000000000000000000000000000000000602082015250565b6132b881612d51565b81146132c357600080fd5b50565b6132cf81612d8f565b81146132da57600080fd5b5056fea2646970667358221220d9022d116bac26c2ec986992a860af788722f7e0c97660755c9ce3bec65f11ab64736f6c63430008020033",
  "linkReferences": {},
  "deployedLinkReferences": {}
}