{
  "_format": "hh-sol-artifact-1",
  "contractName": "EventHub",
  "sourceName": "contracts/EventHub.sol",
  "abi": [
    {
      "anonymous": false,
      "inputs": [
        {
          "indexed": false,
          "internalType": "string",
          "name": "eventID",
          "type": "string"
        },
        {
          "indexed": false,
          "internalType": "address",
          "name": "attendeeAddress",
          "type": "address"
        }
      ],
      "name": "ConfirmedAttendee",
      "type": "event"
    },
    {
      "anonymous": false,
      "inputs": [
        {
          "indexed": false,
          "internalType": "string",
          "name": "eventID",
          "type": "string"
        }
      ],
      "name": "DepositsPaidOut",
      "type": "event"
    },
    {
      "anonymous": false,
      "inputs": [
        {
          "indexed": false,
          "internalType": "string",
          "name": "eventID",
          "type": "string"
        },
        {
          "indexed": false,
          "internalType": "address",
          "name": "creatorAddress",
          "type": "address"
        },
        {
          "indexed": false,
          "internalType": "uint256",
          "name": "eventTimestamp",
          "type": "uint256"
        },
        {
          "indexed": false,
          "internalType": "uint256",
          "name": "maxCapacity",
          "type": "uint256"
        },
        {
          "indexed": false,
          "internalType": "uint256",
          "name": "deposit",
          "type": "uint256"
        },
        {
          "indexed": false,
          "internalType": "string",
          "name": "eventDataCID",
          "type": "string"
        }
      ],
      "name": "NewEventCreated",
      "type": "event"
    },
    {
      "anonymous": false,
      "inputs": [
        {
          "indexed": false,
          "internalType": "string",
          "name": "eventID",
          "type": "string"
        },
        {
          "indexed": false,
          "internalType": "address",
          "name": "attendeeAddress",
          "type": "address"
        }
      ],
      "name": "NewRSVP",
      "type": "event"
    },
    {
      "anonymous": false,
      "inputs": [
        {
          "indexed": false,
          "internalType": "string",
          "name": "Message",
          "type": "string"
        }
      ],
      "name": "Payout",
      "type": "event"
    },
    {
      "inputs": [
        {
          "internalType": "string",
          "name": "eventId",
          "type": "string"
        }
      ],
      "name": "confirmAllAttendees",
      "outputs": [],
      "stateMutability": "nonpayable",
      "type": "function"
    },
    {
      "inputs": [
        {
          "internalType": "string",
          "name": "eventId",
          "type": "string"
        },
        {
          "internalType": "address",
          "name": "attendee",
          "type": "address"
        }
      ],
      "name": "confirmAttendee",
      "outputs": [],
      "stateMutability": "nonpayable",
      "type": "function"
    },
    {
      "inputs": [
        {
          "internalType": "uint256",
          "name": "eventTimestamp",
          "type": "uint256"
        },
        {
          "internalType": "uint256",
          "name": "deposit",
          "type": "uint256"
        },
        {
          "internalType": "uint256",
          "name": "maxCapacity",
          "type": "uint256"
        },
        {
          "internalType": "string",
          "name": "eventDataCID",
          "type": "string"
        },
        {
          "internalType": "string",
          "name": "eventId",
          "type": "string"
        }
      ],
      "name": "createNewEvent",
      "outputs": [],
      "stateMutability": "nonpayable",
      "type": "function"
    },
    {
      "inputs": [
        {
          "internalType": "string",
          "name": "eventId",
          "type": "string"
        }
      ],
      "name": "createNewRSVP",
      "outputs": [],
      "stateMutability": "payable",
      "type": "function"
    },
    {
      "inputs": [],
      "name": "getBalance",
      "outputs": [
        {
          "internalType": "uint256",
          "name": "",
          "type": "uint256"
        }
      ],
      "stateMutability": "view",
      "type": "function"
    },
    {
      "inputs": [
        {
          "internalType": "string",
          "name": "eventId",
          "type": "string"
        }
      ],
      "name": "getConfirmedRSVPs",
      "outputs": [
        {
          "internalType": "address payable[]",
          "name": "",
          "type": "address[]"
        }
      ],
      "stateMutability": "view",
      "type": "function"
    },
    {
      "inputs": [
        {
          "internalType": "string",
          "name": "eventID",
          "type": "string"
        }
      ],
      "name": "getEvent",
      "outputs": [
        {
          "internalType": "string",
          "name": "eventDataCID",
          "type": "string"
        },
        {
          "internalType": "address",
          "name": "eventOwner",
          "type": "address"
        },
        {
          "internalType": "uint256",
          "name": "eventTimestamp",
          "type": "uint256"
        },
        {
          "internalType": "uint256",
          "name": "maxCapacity",
          "type": "uint256"
        },
        {
          "internalType": "uint256",
          "name": "deposit",
          "type": "uint256"
        },
        {
          "internalType": "string",
          "name": "eventId",
          "type": "string"
        }
      ],
      "stateMutability": "view",
      "type": "function"
    },
    {
      "inputs": [
        {
          "internalType": "uint256",
          "name": "i",
          "type": "uint256"
        }
      ],
      "name": "getEventId",
      "outputs": [
        {
          "internalType": "string",
          "name": "",
          "type": "string"
        }
      ],
      "stateMutability": "view",
      "type": "function"
    },
    {
      "inputs": [],
      "name": "getEventLength",
      "outputs": [
        {
          "internalType": "uint256",
          "name": "",
          "type": "uint256"
        }
      ],
      "stateMutability": "view",
      "type": "function"
    },
    {
      "inputs": [
        {
          "internalType": "string",
          "name": "",
          "type": "string"
        }
      ],
      "name": "idToEvent",
      "outputs": [
        {
          "internalType": "string",
          "name": "eventId",
          "type": "string"
        },
        {
          "internalType": "string",
          "name": "eventDataCID",
          "type": "string"
        },
        {
          "internalType": "address",
          "name": "eventOwner",
          "type": "address"
        },
        {
          "internalType": "uint256",
          "name": "eventTimestamp",
          "type": "uint256"
        },
        {
          "internalType": "uint256",
          "name": "deposit",
          "type": "uint256"
        },
        {
          "internalType": "uint256",
          "name": "maxCapacity",
          "type": "uint256"
        },
        {
          "internalType": "bool",
          "name": "paidOut",
          "type": "bool"
        }
      ],
      "stateMutability": "view",
      "type": "function"
    },
    {
      "inputs": [
        {
          "internalType": "string",
          "name": "eventId",
          "type": "string"
        }
      ],
      "name": "payOut",
      "outputs": [
        {
          "internalType": "address",
          "name": "",
          "type": "address"
        }
      ],
      "stateMutability": "nonpayable",
      "type": "function"
    },
    {
      "inputs": [
        {
          "internalType": "string",
          "name": "eventId",
          "type": "string"
        }
      ],
      "name": "withdrawUnclaimedDeposits",
      "outputs": [],
      "stateMutability": "nonpayable",
      "type": "function"
    }
  ],
  "bytecode": "0x608060405234801561001057600080fd5b506130e3806100206000396000f3fe6080604052600436106100a75760003560e01c8063b07e369711610064578063b07e3697146101ba578063c3be559b146101e3578063e190206314610220578063e495106b14610262578063ebf232571461027e578063ff910c9b146102c1576100a7565b806312065fe0146100ac578063133280b0146100d75780635c98dfa1146101145780637130026e1461013f5780639635069214610168578063aad4ba3914610191575b600080fd5b3480156100b857600080fd5b506100c16102fe565b6040516100ce9190611e0b565b60405180910390f35b3480156100e357600080fd5b506100fe60048036038101906100f99190611f80565b610306565b60405161010b919061200a565b60405180910390f35b34801561012057600080fd5b5061012961055a565b6040516101369190611e0b565b60405180910390f35b34801561014b57600080fd5b5061016660048036038101906101619190612051565b610566565b005b34801561017457600080fd5b5061018f600480360381019061018a919061210d565b610910565b005b34801561019d57600080fd5b506101b860048036038101906101b3919061210d565b610e61565b005b3480156101c657600080fd5b506101e160048036038101906101dc9190612186565b6112fb565b005b3480156101ef57600080fd5b5061020a60048036038101906102059190612242565b6115a3565b60405161021791906122ee565b60405180910390f35b34801561022c57600080fd5b506102476004803603810190610242919061210d565b611653565b60405161025996959493929190612310565b60405180910390f35b61027c6004803603810190610277919061210d565b611881565b005b34801561028a57600080fd5b506102a560048036038101906102a09190611f80565b611afe565b6040516102b8979695949392919061239a565b60405180910390f35b3480156102cd57600080fd5b506102e860048036038101906102e3919061210d565b611c93565b6040516102f591906124e7565b60405180910390f35b600047905090565b6000806001836040516103199190612545565b90815260200160405180910390209050600081600701805490508260060180549050610345919061258b565b9050600082600401548261035991906125bf565b905060008360070180549050826103709190612630565b9050600080600090505b85600701805490508160ff16101561054c57856007018160ff16815481106103a5576103a4612661565b5b9060005260206000200160009054906101000a900473ffffffffffffffffffffffffffffffffffffffff16915085600801866007018260ff16815481106103ef576103ee612661565b5b9060005260206000200160009054906101000a900473ffffffffffffffffffffffffffffffffffffffff169080600181540180825580915050600190039060005260206000200160009091909190916101000a81548173ffffffffffffffffffffffffffffffffffffffff021916908373ffffffffffffffffffffffffffffffffffffffff1602179055506000866007018260ff168154811061049557610494612661565b5b9060005260206000200160009054906101000a900473ffffffffffffffffffffffffffffffffffffffff1673ffffffffffffffffffffffffffffffffffffffff168760040154856104e69190612690565b6040516104f2906126f5565b60006040518083038185875af1925050503d806000811461052f576040519150601f19603f3d011682016040523d82523d6000602084013e610534565b606091505b5050905050808061054490612717565b91505061037a565b508095505050505050919050565b60008080549050905090565b60006001836040516105789190612545565b908152602001604051809103902090508060020160009054906101000a900473ffffffffffffffffffffffffffffffffffffffff1673ffffffffffffffffffffffffffffffffffffffff163373ffffffffffffffffffffffffffffffffffffffff161461061a576040517f08c379a00000000000000000000000000000000000000000000000000000000081526004016106119061278c565b60405180910390fd5b600080600090505b82600601805490508160ff161015610704578373ffffffffffffffffffffffffffffffffffffffff16836006018260ff168154811061066457610663612661565b5b9060005260206000200160009054906101000a900473ffffffffffffffffffffffffffffffffffffffff1673ffffffffffffffffffffffffffffffffffffffff16036106f157826006018160ff16815481106106c3576106c2612661565b5b9060005260206000200160009054906101000a900473ffffffffffffffffffffffffffffffffffffffff1691505b80806106fc90612717565b915050610622565b508273ffffffffffffffffffffffffffffffffffffffff168173ffffffffffffffffffffffffffffffffffffffff1614610773576040517f08c379a000000000000000000000000000000000000000000000000000000000815260040161076a906127f8565b60405180910390fd5b60005b82600701805490508160ff16101561084c578373ffffffffffffffffffffffffffffffffffffffff16836007018260ff16815481106107b8576107b7612661565b5b9060005260206000200160009054906101000a900473ffffffffffffffffffffffffffffffffffffffff1673ffffffffffffffffffffffffffffffffffffffff1603610839576040517f08c379a000000000000000000000000000000000000000000000000000000000815260040161083090612864565b60405180910390fd5b808061084490612717565b915050610776565b50600015158260090160009054906101000a900460ff161515146108a5576040517f08c379a000000000000000000000000000000000000000000000000000000000815260040161089c906128d0565b60405180910390fd5b81600701839080600181540180825580915050600190039060005260206000200160009091909190916101000a81548173ffffffffffffffffffffffffffffffffffffffff021916908373ffffffffffffffffffffffffffffffffffffffff16021790555050505050565b600060018383604051610924929190612915565b90815260200160405180910390206040518061014001604052908160008201805461094e9061295d565b80601f016020809104026020016040519081016040528092919081815260200182805461097a9061295d565b80156109c75780601f1061099c576101008083540402835291602001916109c7565b820191906000526020600020905b8154815290600101906020018083116109aa57829003601f168201915b505050505081526020016001820180546109e09061295d565b80601f0160208091040260200160405190810160405280929190818152602001828054610a0c9061295d565b8015610a595780601f10610a2e57610100808354040283529160200191610a59565b820191906000526020600020905b815481529060010190602001808311610a3c57829003601f168201915b505050505081526020016002820160009054906101000a900473ffffffffffffffffffffffffffffffffffffffff1673ffffffffffffffffffffffffffffffffffffffff1673ffffffffffffffffffffffffffffffffffffffff16815260200160038201548152602001600482015481526020016005820154815260200160068201805480602002602001604051908101604052809291908181526020018280548015610b5b57602002820191906000526020600020905b8160009054906101000a900473ffffffffffffffffffffffffffffffffffffffff1673ffffffffffffffffffffffffffffffffffffffff1681526020019060010190808311610b11575b5050505050815260200160078201805480602002602001604051908101604052809291908181526020018280548015610be957602002820191906000526020600020905b8160009054906101000a900473ffffffffffffffffffffffffffffffffffffffff1673ffffffffffffffffffffffffffffffffffffffff1681526020019060010190808311610b9f575b5050505050815260200160088201805480602002602001604051908101604052809291908181526020018280548015610c7757602002820191906000526020600020905b8160009054906101000a900473ffffffffffffffffffffffffffffffffffffffff1673ffffffffffffffffffffffffffffffffffffffff1681526020019060010190808311610c2d575b505050505081526020016009820160009054906101000a900460ff161515151581525050905080610120015115610ce3576040517f08c379a0000000000000000000000000000000000000000000000000000000008152600401610cda906129da565b60405180910390fd5b806040015173ffffffffffffffffffffffffffffffffffffffff163373ffffffffffffffffffffffffffffffffffffffff1614610d55576040517f08c379a0000000000000000000000000000000000000000000000000000000008152600401610d4c90612a46565b60405180910390fd5b60008160e00151518260c0015151610d6d919061258b565b90506000826080015182610d8191906125bf565b905060018361012001901515908115158152505060003373ffffffffffffffffffffffffffffffffffffffff1682604051610dbb906126f5565b60006040518083038185875af1925050503d8060008114610df8576040519150601f19603f3d011682016040523d82523d6000602084013e610dfd565b606091505b5050905080610e19576000846101200190151590811515815250505b80610e59576040517f08c379a0000000000000000000000000000000000000000000000000000000008152600401610e5090612ab2565b60405180910390fd5b505050505050565b600060018383604051610e75929190612915565b908152602001604051809103902060405180610140016040529081600082018054610e9f9061295d565b80601f0160208091040260200160405190810160405280929190818152602001828054610ecb9061295d565b8015610f185780601f10610eed57610100808354040283529160200191610f18565b820191906000526020600020905b815481529060010190602001808311610efb57829003601f168201915b50505050508152602001600182018054610f319061295d565b80601f0160208091040260200160405190810160405280929190818152602001828054610f5d9061295d565b8015610faa5780601f10610f7f57610100808354040283529160200191610faa565b820191906000526020600020905b815481529060010190602001808311610f8d57829003601f168201915b505050505081526020016002820160009054906101000a900473ffffffffffffffffffffffffffffffffffffffff1673ffffffffffffffffffffffffffffffffffffffff1673ffffffffffffffffffffffffffffffffffffffff168152602001600382015481526020016004820154815260200160058201548152602001600682018054806020026020016040519081016040528092919081815260200182805480156110ac57602002820191906000526020600020905b8160009054906101000a900473ffffffffffffffffffffffffffffffffffffffff1673ffffffffffffffffffffffffffffffffffffffff1681526020019060010190808311611062575b505050505081526020016007820180548060200260200160405190810160405280929190818152602001828054801561113a57602002820191906000526020600020905b8160009054906101000a900473ffffffffffffffffffffffffffffffffffffffff1673ffffffffffffffffffffffffffffffffffffffff16815260200190600101908083116110f0575b50505050508152602001600882018054806020026020016040519081016040528092919081815260200182805480156111c857602002820191906000526020600020905b8160009054906101000a900473ffffffffffffffffffffffffffffffffffffffff1673ffffffffffffffffffffffffffffffffffffffff168152602001906001019080831161117e575b505050505081526020016009820160009054906101000a900460ff1615151515815250509050806040015173ffffffffffffffffffffffffffffffffffffffff163373ffffffffffffffffffffffffffffffffffffffff1614611260576040517f08c379a00000000000000000000000000000000000000000000000000000000081526004016112579061278c565b60405180910390fd5b60005b8160c00151518160ff1610156112f5576112e284848080601f016020809104026020016040519081016040528093929190818152602001838380828437600081840152601f19601f820116905080830192505050505050508360c001518360ff16815181106112d5576112d4612661565b5b6020026020010151610566565b80806112ed90612717565b915050611263565b50505050565b606080606060405180610140016040528086868080601f016020809104026020016040519081016040528093929190818152602001838380828437600081840152601f19601f82011690508083019250505050505050815260200188888080601f016020809104026020016040519081016040528093929190818152602001838380828437600081840152601f19601f8201169050808301925050505050505081526020013373ffffffffffffffffffffffffffffffffffffffff1681526020018b81526020018a815260200189815260200184815260200183815260200182815260200160001515815250600186866040516113f9929190612915565b9081526020016040518091039020600082015181600001908161141c9190612c7e565b5060208201518160010190816114329190612c7e565b5060408201518160020160006101000a81548173ffffffffffffffffffffffffffffffffffffffff021916908373ffffffffffffffffffffffffffffffffffffffff160217905550606082015181600301556080820151816004015560a0820151816005015560c08201518160060190805190602001906114b4929190611d4b565b5060e08201518160070190805190602001906114d1929190611d4b565b506101008201518160080190805190602001906114ef929190611d4b565b506101208201518160090160006101000a81548160ff0219169083151502179055509050507f9f204c215b1f4f43a33a1b7272e476938a219d677894d59937dfb6e1554a2ab28585338d8c8e8d8d604051611551989796959493929190612d7d565b60405180910390a16000858590918060018154018082558091505060019003906000526020600020016000909192909192909192909192509182611596929190612dfb565b5050505050505050505050565b6060600082815481106115b9576115b8612661565b5b9060005260206000200180546115ce9061295d565b80601f01602080910402602001604051908101604052809291908181526020018280546115fa9061295d565b80156116475780601f1061161c57610100808354040283529160200191611647565b820191906000526020600020905b81548152906001019060200180831161162a57829003601f168201915b50505050509050919050565b606060008060008060606001888860405161166f929190612915565b908152602001604051809103902060010160018989604051611692929190612915565b908152602001604051809103902060020160009054906101000a900473ffffffffffffffffffffffffffffffffffffffff1660018a8a6040516116d6929190612915565b90815260200160405180910390206003015460018b8b6040516116fa929190612915565b90815260200160405180910390206005015460018c8c60405161171e929190612915565b90815260200160405180910390206004015460018d8d604051611742929190612915565b908152602001604051809103902060000185805461175f9061295d565b80601f016020809104026020016040519081016040528092919081815260200182805461178b9061295d565b80156117d85780601f106117ad576101008083540402835291602001916117d8565b820191906000526020600020905b8154815290600101906020018083116117bb57829003601f168201915b505050505095508080546117eb9061295d565b80601f01602080910402602001604051908101604052809291908181526020018280546118179061295d565b80156118645780601f1061183957610100808354040283529160200191611864565b820191906000526020600020905b81548152906001019060200180831161184757829003601f168201915b505050505090509550955095509550955095509295509295509295565b600060018383604051611895929190612915565b90815260200160405180910390209050806004015434146118eb576040517f08c379a00000000000000000000000000000000000000000000000000000000081526004016118e290612f17565b60405180910390fd5b8060030154421115611932576040517f08c379a000000000000000000000000000000000000000000000000000000000815260040161192990612f83565b60405180910390fd5b806005015481600601805490501061197f576040517f08c379a000000000000000000000000000000000000000000000000000000000815260040161197690612fef565b60405180910390fd5b60005b81600601805490508160ff161015611a58573373ffffffffffffffffffffffffffffffffffffffff16826006018260ff16815481106119c4576119c3612661565b5b9060005260206000200160009054906101000a900473ffffffffffffffffffffffffffffffffffffffff1673ffffffffffffffffffffffffffffffffffffffff1603611a45576040517f08c379a0000000000000000000000000000000000000000000000000000000008152600401611a3c9061305b565b60405180910390fd5b8080611a5090612717565b915050611982565b5080600601339080600181540180825580915050600190039060005260206000200160009091909190916101000a81548173ffffffffffffffffffffffffffffffffffffffff021916908373ffffffffffffffffffffffffffffffffffffffff1602179055507fabcce16e56e262edb0b0f42f67799f9af66be1921b5e65285ea5c687d9b1e618838333604051611af19392919061307b565b60405180910390a1505050565b600181805160208101820180518482526020830160208501208183528095505050505050600091509050806000018054611b379061295d565b80601f0160208091040260200160405190810160405280929190818152602001828054611b639061295d565b8015611bb05780601f10611b8557610100808354040283529160200191611bb0565b820191906000526020600020905b815481529060010190602001808311611b9357829003601f168201915b505050505090806001018054611bc59061295d565b80601f0160208091040260200160405190810160405280929190818152602001828054611bf19061295d565b8015611c3e5780601f10611c1357610100808354040283529160200191611c3e565b820191906000526020600020905b815481529060010190602001808311611c2157829003601f168201915b5050505050908060020160009054906101000a900473ffffffffffffffffffffffffffffffffffffffff16908060030154908060040154908060050154908060090160009054906101000a900460ff16905087565b6060600060018484604051611ca9929190612915565b9081526020016040518091039020905080600601805480602002602001604051908101604052809291908181526020018280548015611d3d57602002820191906000526020600020905b8160009054906101000a900473ffffffffffffffffffffffffffffffffffffffff1673ffffffffffffffffffffffffffffffffffffffff1681526020019060010190808311611cf3575b505050505091505092915050565b828054828255906000526020600020908101928215611dc4579160200282015b82811115611dc35782518260006101000a81548173ffffffffffffffffffffffffffffffffffffffff021916908373ffffffffffffffffffffffffffffffffffffffff16021790555091602001919060010190611d6b565b5b509050611dd19190611dd5565b5090565b5b80821115611dee576000816000905550600101611dd6565b5090565b6000819050919050565b611e0581611df2565b82525050565b6000602082019050611e206000830184611dfc565b92915050565b6000604051905090565b600080fd5b600080fd5b600080fd5b600080fd5b6000601f19601f8301169050919050565b7f4e487b7100000000000000000000000000000000000000000000000000000000600052604160045260246000fd5b611e8d82611e44565b810181811067ffffffffffffffff82111715611eac57611eab611e55565b5b80604052505050565b6000611ebf611e26565b9050611ecb8282611e84565b919050565b600067ffffffffffffffff821115611eeb57611eea611e55565b5b611ef482611e44565b9050602081019050919050565b82818337600083830152505050565b6000611f23611f1e84611ed0565b611eb5565b905082815260208101848484011115611f3f57611f3e611e3f565b5b611f4a848285611f01565b509392505050565b600082601f830112611f6757611f66611e3a565b5b8135611f77848260208601611f10565b91505092915050565b600060208284031215611f9657611f95611e30565b5b600082013567ffffffffffffffff811115611fb457611fb3611e35565b5b611fc084828501611f52565b91505092915050565b600073ffffffffffffffffffffffffffffffffffffffff82169050919050565b6000611ff482611fc9565b9050919050565b61200481611fe9565b82525050565b600060208201905061201f6000830184611ffb565b92915050565b61202e81611fe9565b811461203957600080fd5b50565b60008135905061204b81612025565b92915050565b6000806040838503121561206857612067611e30565b5b600083013567ffffffffffffffff81111561208657612085611e35565b5b61209285828601611f52565b92505060206120a38582860161203c565b9150509250929050565b600080fd5b600080fd5b60008083601f8401126120cd576120cc611e3a565b5b8235905067ffffffffffffffff8111156120ea576120e96120ad565b5b602083019150836001820283011115612106576121056120b2565b5b9250929050565b6000806020838503121561212457612123611e30565b5b600083013567ffffffffffffffff81111561214257612141611e35565b5b61214e858286016120b7565b92509250509250929050565b61216381611df2565b811461216e57600080fd5b50565b6000813590506121808161215a565b92915050565b600080600080600080600060a0888a0312156121a5576121a4611e30565b5b60006121b38a828b01612171565b97505060206121c48a828b01612171565b96505060406121d58a828b01612171565b955050606088013567ffffffffffffffff8111156121f6576121f5611e35565b5b6122028a828b016120b7565b9450945050608088013567ffffffffffffffff81111561222557612224611e35565b5b6122318a828b016120b7565b925092505092959891949750929550565b60006020828403121561225857612257611e30565b5b600061226684828501612171565b91505092915050565b600081519050919050565b600082825260208201905092915050565b60005b838110156122a957808201518184015260208101905061228e565b60008484015250505050565b60006122c08261226f565b6122ca818561227a565b93506122da81856020860161228b565b6122e381611e44565b840191505092915050565b6000602082019050818103600083015261230881846122b5565b905092915050565b600060c082019050818103600083015261232a81896122b5565b90506123396020830188611ffb565b6123466040830187611dfc565b6123536060830186611dfc565b6123606080830185611dfc565b81810360a083015261237281846122b5565b9050979650505050505050565b60008115159050919050565b6123948161237f565b82525050565b600060e08201905081810360008301526123b4818a6122b5565b905081810360208301526123c881896122b5565b90506123d76040830188611ffb565b6123e46060830187611dfc565b6123f16080830186611dfc565b6123fe60a0830185611dfc565b61240b60c083018461238b565b98975050505050505050565b600081519050919050565b600082825260208201905092915050565b6000819050602082019050919050565b600061244e82611fc9565b9050919050565b61245e81612443565b82525050565b60006124708383612455565b60208301905092915050565b6000602082019050919050565b600061249482612417565b61249e8185612422565b93506124a983612433565b8060005b838110156124da5781516124c18882612464565b97506124cc8361247c565b9250506001810190506124ad565b5085935050505092915050565b600060208201905081810360008301526125018184612489565b905092915050565b600081905092915050565b600061251f8261226f565b6125298185612509565b935061253981856020860161228b565b80840191505092915050565b60006125518284612514565b915081905092915050565b7f4e487b7100000000000000000000000000000000000000000000000000000000600052601160045260246000fd5b600061259682611df2565b91506125a183611df2565b92508282039050818111156125b9576125b861255c565b5b92915050565b60006125ca82611df2565b91506125d583611df2565b92508282026125e381611df2565b915082820484148315176125fa576125f961255c565b5b5092915050565b7f4e487b7100000000000000000000000000000000000000000000000000000000600052601260045260246000fd5b600061263b82611df2565b915061264683611df2565b92508261265657612655612601565b5b828204905092915050565b7f4e487b7100000000000000000000000000000000000000000000000000000000600052603260045260246000fd5b600061269b82611df2565b91506126a683611df2565b92508282019050808211156126be576126bd61255c565b5b92915050565b600081905092915050565b50565b60006126df6000836126c4565b91506126ea826126cf565b600082019050919050565b6000612700826126d2565b9150819050919050565b600060ff82169050919050565b60006127228261270a565b915060ff82036127355761273461255c565b5b600182019050919050565b7f4e4f5420415554484f52495a4544000000000000000000000000000000000000600082015250565b6000612776600e8361227a565b915061278182612740565b602082019050919050565b600060208201905081810360008301526127a581612769565b9050919050565b7f4e4f205253565020544f20434f4e4649524d0000000000000000000000000000600082015250565b60006127e260128361227a565b91506127ed826127ac565b602082019050919050565b60006020820190508181036000830152612811816127d5565b9050919050565b7f414c524541445920434c41494d45440000000000000000000000000000000000600082015250565b600061284e600f8361227a565b915061285982612818565b602082019050919050565b6000602082019050818103600083015261287d81612841565b9050919050565b7f414c52454144592050414944204f555400000000000000000000000000000000600082015250565b60006128ba60108361227a565b91506128c582612884565b602082019050919050565b600060208201905081810360008301526128e9816128ad565b9050919050565b60006128fc8385612509565b9350612909838584611f01565b82840190509392505050565b60006129228284866128f0565b91508190509392505050565b7f4e487b7100000000000000000000000000000000000000000000000000000000600052602260045260246000fd5b6000600282049050600182168061297557607f821691505b6020821081036129885761298761292e565b5b50919050565b7f414c524541445920504149440000000000000000000000000000000000000000600082015250565b60006129c4600c8361227a565b91506129cf8261298e565b602082019050919050565b600060208201905081810360008301526129f3816129b7565b9050919050565b7f4d555354204245204556454e54204f574e455200000000000000000000000000600082015250565b6000612a3060138361227a565b9150612a3b826129fa565b602082019050919050565b60006020820190508181036000830152612a5f81612a23565b9050919050565b7f4661696c656420746f2073656e64204574686572000000000000000000000000600082015250565b6000612a9c60148361227a565b9150612aa782612a66565b602082019050919050565b60006020820190508181036000830152612acb81612a8f565b9050919050565b60008190508160005260206000209050919050565b60006020601f8301049050919050565b600082821b905092915050565b600060088302612b347fffffffffffffffffffffffffffffffffffffffffffffffffffffffffffffffff82612af7565b612b3e8683612af7565b95508019841693508086168417925050509392505050565b6000819050919050565b6000612b7b612b76612b7184611df2565b612b56565b611df2565b9050919050565b6000819050919050565b612b9583612b60565b612ba9612ba182612b82565b848454612b04565b825550505050565b600090565b612bbe612bb1565b612bc9818484612b8c565b505050565b5b81811015612bed57612be2600082612bb6565b600181019050612bcf565b5050565b601f821115612c3257612c0381612ad2565b612c0c84612ae7565b81016020851015612c1b578190505b612c2f612c2785612ae7565b830182612bce565b50505b505050565b600082821c905092915050565b6000612c5560001984600802612c37565b1980831691505092915050565b6000612c6e8383612c44565b9150826002028217905092915050565b612c878261226f565b67ffffffffffffffff811115612ca057612c9f611e55565b5b612caa825461295d565b612cb5828285612bf1565b600060209050601f831160018114612ce85760008415612cd6578287015190505b612ce08582612c62565b865550612d48565b601f198416612cf686612ad2565b60005b82811015612d1e57848901518255600182019150602085019450602081019050612cf9565b86831015612d3b5784890151612d37601f891682612c44565b8355505b6001600288020188555050505b505050505050565b6000612d5c838561227a565b9350612d69838584611f01565b612d7283611e44565b840190509392505050565b600060c0820190508181036000830152612d98818a8c612d50565b9050612da76020830189611ffb565b612db46040830188611dfc565b612dc16060830187611dfc565b612dce6080830186611dfc565b81810360a0830152612de1818486612d50565b90509998505050505050505050565b600082905092915050565b612e058383612df0565b67ffffffffffffffff811115612e1e57612e1d611e55565b5b612e28825461295d565b612e33828285612bf1565b6000601f831160018114612e625760008415612e50578287013590505b612e5a8582612c62565b865550612ec2565b601f198416612e7086612ad2565b60005b82811015612e9857848901358255600182019150602085019450602081019050612e73565b86831015612eb55784890135612eb1601f891682612c44565b8355505b6001600288020188555050505b50505050505050565b7f4e4f5420454e4f55474800000000000000000000000000000000000000000000600082015250565b6000612f01600a8361227a565b9150612f0c82612ecb565b602082019050919050565b60006020820190508181036000830152612f3081612ef4565b9050919050565b7f414c52454144592048415050454e454400000000000000000000000000000000600082015250565b6000612f6d60108361227a565b9150612f7882612f37565b602082019050919050565b60006020820190508181036000830152612f9c81612f60565b9050919050565b7f54686973206576656e7420686173207265616368656420636170616369747900600082015250565b6000612fd9601f8361227a565b9150612fe482612fa3565b602082019050919050565b6000602082019050818103600083015261300881612fcc565b9050919050565b7f414c524541445920434f4e4649524d4544000000000000000000000000000000600082015250565b600061304560118361227a565b91506130508261300f565b602082019050919050565b6000602082019050818103600083015261307481613038565b9050919050565b60006040820190508181036000830152613096818587612d50565b90506130a56020830184611ffb565b94935050505056fea26469706673582212200d57f2107f8753075b722918f97f154a774ca3a9622f9028debc27b07178767564736f6c63430008110033",
  "linkReferences": {},
  "deployedLinkReferences": {}
}