{
  "_format": "hh-sol-artifact-1",
  "contractName": "EventHub",
  "sourceName": "contracts/EventHub.sol",
  "abi": [
    {
      "anonymous": false,
      "inputs": [
        {
          "indexed": false,
          "internalType": "string",
          "name": "eventID",
          "type": "string"
        },
        {
          "indexed": false,
          "internalType": "address",
          "name": "attendeeAddress",
          "type": "address"
        }
      ],
      "name": "ConfirmedAttendee",
      "type": "event"
    },
    {
      "anonymous": false,
      "inputs": [
        {
          "indexed": false,
          "internalType": "string",
          "name": "eventID",
          "type": "string"
        }
      ],
      "name": "DepositsPaidOut",
      "type": "event"
    },
    {
      "anonymous": false,
      "inputs": [
        {
          "indexed": false,
          "internalType": "string",
          "name": "eventID",
          "type": "string"
        },
        {
          "indexed": false,
          "internalType": "address",
          "name": "creatorAddress",
          "type": "address"
        },
        {
          "indexed": false,
          "internalType": "uint256",
          "name": "eventTimestamp",
          "type": "uint256"
        },
        {
          "indexed": false,
          "internalType": "uint256",
          "name": "maxCapacity",
          "type": "uint256"
        },
        {
          "indexed": false,
          "internalType": "uint256",
          "name": "deposit",
          "type": "uint256"
        },
        {
          "indexed": false,
          "internalType": "string",
          "name": "eventDataCID",
          "type": "string"
        }
      ],
      "name": "NewEventCreated",
      "type": "event"
    },
    {
      "anonymous": false,
      "inputs": [
        {
          "indexed": false,
          "internalType": "string",
          "name": "eventID",
          "type": "string"
        },
        {
          "indexed": false,
          "internalType": "address",
          "name": "attendeeAddress",
          "type": "address"
        }
      ],
      "name": "NewRSVP",
      "type": "event"
    },
    {
      "anonymous": false,
      "inputs": [
        {
          "indexed": false,
          "internalType": "string",
          "name": "Message",
          "type": "string"
        }
      ],
      "name": "Payout",
      "type": "event"
    },
    {
      "inputs": [
        {
          "internalType": "string",
          "name": "eventId",
          "type": "string"
        }
      ],
      "name": "confirmAllAttendees",
      "outputs": [],
      "stateMutability": "nonpayable",
      "type": "function"
    },
    {
      "inputs": [
        {
          "internalType": "string",
          "name": "eventId",
          "type": "string"
        },
        {
          "internalType": "address",
          "name": "attendee",
          "type": "address"
        }
      ],
      "name": "confirmAttendee",
      "outputs": [],
      "stateMutability": "nonpayable",
      "type": "function"
    },
    {
      "inputs": [
        {
          "internalType": "uint256",
          "name": "eventTimestamp",
          "type": "uint256"
        },
        {
          "internalType": "uint256",
          "name": "deposit",
          "type": "uint256"
        },
        {
          "internalType": "uint256",
          "name": "maxCapacity",
          "type": "uint256"
        },
        {
          "internalType": "string",
          "name": "eventDataCID",
          "type": "string"
        },
        {
          "internalType": "string",
          "name": "eventId",
          "type": "string"
        }
      ],
      "name": "createNewEvent",
      "outputs": [],
      "stateMutability": "nonpayable",
      "type": "function"
    },
    {
      "inputs": [
        {
          "internalType": "string",
          "name": "eventId",
          "type": "string"
        }
      ],
      "name": "createNewRSVP",
      "outputs": [],
      "stateMutability": "payable",
      "type": "function"
    },
    {
      "inputs": [
        {
          "internalType": "string",
          "name": "eventId",
          "type": "string"
        }
      ],
      "name": "getConfirmedRSVPs",
      "outputs": [
        {
          "internalType": "address payable[]",
          "name": "",
          "type": "address[]"
        }
      ],
      "stateMutability": "view",
      "type": "function"
    },
    {
      "inputs": [
        {
          "internalType": "string",
          "name": "eventID",
          "type": "string"
        }
      ],
      "name": "getEvent",
      "outputs": [
        {
          "internalType": "string",
          "name": "eventDataCID",
          "type": "string"
        },
        {
          "internalType": "address",
          "name": "eventOwner",
          "type": "address"
        },
        {
          "internalType": "uint256",
          "name": "eventTimestamp",
          "type": "uint256"
        },
        {
          "internalType": "uint256",
          "name": "maxCapacity",
          "type": "uint256"
        },
        {
          "internalType": "uint256",
          "name": "deposit",
          "type": "uint256"
        },
        {
          "internalType": "string",
          "name": "eventId",
          "type": "string"
        }
      ],
      "stateMutability": "view",
      "type": "function"
    },
    {
      "inputs": [
        {
          "internalType": "uint256",
          "name": "i",
          "type": "uint256"
        }
      ],
      "name": "getEventId",
      "outputs": [
        {
          "internalType": "string",
          "name": "",
          "type": "string"
        }
      ],
      "stateMutability": "view",
      "type": "function"
    },
    {
      "inputs": [],
      "name": "getEventLength",
      "outputs": [
        {
          "internalType": "uint256",
          "name": "",
          "type": "uint256"
        }
      ],
      "stateMutability": "view",
      "type": "function"
    },
    {
      "inputs": [],
      "name": "getTime",
      "outputs": [
        {
          "internalType": "uint256",
          "name": "",
          "type": "uint256"
        }
      ],
      "stateMutability": "view",
      "type": "function"
    },
    {
      "inputs": [
        {
          "internalType": "string",
          "name": "",
          "type": "string"
        }
      ],
      "name": "idToEvent",
      "outputs": [
        {
          "internalType": "string",
          "name": "eventId",
          "type": "string"
        },
        {
          "internalType": "string",
          "name": "eventDataCID",
          "type": "string"
        },
        {
          "internalType": "address",
          "name": "eventOwner",
          "type": "address"
        },
        {
          "internalType": "uint256",
          "name": "eventTimestamp",
          "type": "uint256"
        },
        {
          "internalType": "uint256",
          "name": "deposit",
          "type": "uint256"
        },
        {
          "internalType": "uint256",
          "name": "maxCapacity",
          "type": "uint256"
        },
        {
          "internalType": "bool",
          "name": "paidOut",
          "type": "bool"
        }
      ],
      "stateMutability": "view",
      "type": "function"
    },
    {
      "inputs": [
        {
          "internalType": "string",
          "name": "eventId",
          "type": "string"
        }
      ],
      "name": "payOut",
      "outputs": [],
      "stateMutability": "nonpayable",
      "type": "function"
    }
  ],
  "bytecode": "0x608060405234801561001057600080fd5b50612a7c806100206000396000f3fe60806040526004361061009c5760003560e01c8063b07e369711610064578063b07e369714610172578063c3be559b1461019b578063e1902063146101d8578063e495106b1461021a578063ebf2325714610236578063ff910c9b146102795761009c565b8063133280b0146100a1578063557ed1ba146100ca5780635c98dfa1146100f55780637130026e14610120578063aad4ba3914610149575b600080fd5b3480156100ad57600080fd5b506100c860048036038101906100c391906119d8565b6102b6565b005b3480156100d657600080fd5b506100df61052f565b6040516100ec9190611a3a565b60405180910390f35b34801561010157600080fd5b5061010a610537565b6040516101179190611a3a565b60405180910390f35b34801561012c57600080fd5b5061014760048036038101906101429190611ab3565b610543565b005b34801561015557600080fd5b50610170600480360381019061016b9190611b6f565b6108ed565b005b34801561017e57600080fd5b5061019960048036038101906101949190611be8565b610d87565b005b3480156101a757600080fd5b506101c260048036038101906101bd9190611ca4565b61102f565b6040516101cf9190611d50565b60405180910390f35b3480156101e457600080fd5b506101ff60048036038101906101fa9190611b6f565b6110df565b60405161021196959493929190611d81565b60405180910390f35b610234600480360381019061022f9190611b6f565b61130d565b005b34801561024257600080fd5b5061025d600480360381019061025891906119d8565b61158a565b6040516102709796959493929190611e0b565b60405180910390f35b34801561028557600080fd5b506102a0600480360381019061029b9190611b6f565b61171f565b6040516102ad9190611f58565b60405180910390f35b60006001826040516102c89190611fb6565b908152602001604051809103902090506000816007018054905082600601805490506102f49190611ffc565b905060008260040154826103089190612030565b9050600083600701805490508261031f91906120a1565b905060005b84600701805490508160ff1610156104f05784600801856007018260ff1681548110610353576103526120d2565b5b9060005260206000200160009054906101000a900473ffffffffffffffffffffffffffffffffffffffff169080600181540180825580915050600190039060005260206000200160009091909190916101000a81548173ffffffffffffffffffffffffffffffffffffffff021916908373ffffffffffffffffffffffffffffffffffffffff1602179055506000856007018260ff16815481106103f9576103f86120d2565b5b9060005260206000200160009054906101000a900473ffffffffffffffffffffffffffffffffffffffff1673ffffffffffffffffffffffffffffffffffffffff1686600401548461044a9190612101565b60405161045690612166565b60006040518083038185875af1925050503d8060008114610493576040519150601f19603f3d011682016040523d82523d6000602084013e610498565b606091505b50509050806104dc576040517f08c379a00000000000000000000000000000000000000000000000000000000081526004016104d3906121c7565b60405180910390fd5b5080806104e8906121f4565b915050610324565b507f951481b5ab03382781591c75ab7640501967f2896d66ab36a6576a1d2c9de594856040516105209190611d50565b60405180910390a15050505050565b600042905090565b60008080549050905090565b60006001836040516105559190611fb6565b908152602001604051809103902090508060020160009054906101000a900473ffffffffffffffffffffffffffffffffffffffff1673ffffffffffffffffffffffffffffffffffffffff163373ffffffffffffffffffffffffffffffffffffffff16146105f7576040517f08c379a00000000000000000000000000000000000000000000000000000000081526004016105ee90612269565b60405180910390fd5b600080600090505b82600601805490508160ff1610156106e1578373ffffffffffffffffffffffffffffffffffffffff16836006018260ff1681548110610641576106406120d2565b5b9060005260206000200160009054906101000a900473ffffffffffffffffffffffffffffffffffffffff1673ffffffffffffffffffffffffffffffffffffffff16036106ce57826006018160ff16815481106106a05761069f6120d2565b5b9060005260206000200160009054906101000a900473ffffffffffffffffffffffffffffffffffffffff1691505b80806106d9906121f4565b9150506105ff565b508273ffffffffffffffffffffffffffffffffffffffff168173ffffffffffffffffffffffffffffffffffffffff1614610750576040517f08c379a0000000000000000000000000000000000000000000000000000000008152600401610747906122d5565b60405180910390fd5b60005b82600701805490508160ff161015610829578373ffffffffffffffffffffffffffffffffffffffff16836007018260ff1681548110610795576107946120d2565b5b9060005260206000200160009054906101000a900473ffffffffffffffffffffffffffffffffffffffff1673ffffffffffffffffffffffffffffffffffffffff1603610816576040517f08c379a000000000000000000000000000000000000000000000000000000000815260040161080d90612341565b60405180910390fd5b8080610821906121f4565b915050610753565b50600015158260090160009054906101000a900460ff16151514610882576040517f08c379a0000000000000000000000000000000000000000000000000000000008152600401610879906123ad565b60405180910390fd5b81600701839080600181540180825580915050600190039060005260206000200160009091909190916101000a81548173ffffffffffffffffffffffffffffffffffffffff021916908373ffffffffffffffffffffffffffffffffffffffff16021790555050505050565b6000600183836040516109019291906123f2565b90815260200160405180910390206040518061014001604052908160008201805461092b9061243a565b80601f01602080910402602001604051908101604052809291908181526020018280546109579061243a565b80156109a45780601f10610979576101008083540402835291602001916109a4565b820191906000526020600020905b81548152906001019060200180831161098757829003601f168201915b505050505081526020016001820180546109bd9061243a565b80601f01602080910402602001604051908101604052809291908181526020018280546109e99061243a565b8015610a365780601f10610a0b57610100808354040283529160200191610a36565b820191906000526020600020905b815481529060010190602001808311610a1957829003601f168201915b505050505081526020016002820160009054906101000a900473ffffffffffffffffffffffffffffffffffffffff1673ffffffffffffffffffffffffffffffffffffffff1673ffffffffffffffffffffffffffffffffffffffff16815260200160038201548152602001600482015481526020016005820154815260200160068201805480602002602001604051908101604052809291908181526020018280548015610b3857602002820191906000526020600020905b8160009054906101000a900473ffffffffffffffffffffffffffffffffffffffff1673ffffffffffffffffffffffffffffffffffffffff1681526020019060010190808311610aee575b5050505050815260200160078201805480602002602001604051908101604052809291908181526020018280548015610bc657602002820191906000526020600020905b8160009054906101000a900473ffffffffffffffffffffffffffffffffffffffff1673ffffffffffffffffffffffffffffffffffffffff1681526020019060010190808311610b7c575b5050505050815260200160088201805480602002602001604051908101604052809291908181526020018280548015610c5457602002820191906000526020600020905b8160009054906101000a900473ffffffffffffffffffffffffffffffffffffffff1673ffffffffffffffffffffffffffffffffffffffff1681526020019060010190808311610c0a575b505050505081526020016009820160009054906101000a900460ff1615151515815250509050806040015173ffffffffffffffffffffffffffffffffffffffff163373ffffffffffffffffffffffffffffffffffffffff1614610cec576040517f08c379a0000000000000000000000000000000000000000000000000000000008152600401610ce390612269565b60405180910390fd5b60005b8160c00151518160ff161015610d8157610d6e84848080601f016020809104026020016040519081016040528093929190818152602001838380828437600081840152601f19601f820116905080830192505050505050508360c001518360ff1681518110610d6157610d606120d2565b5b6020026020010151610543565b8080610d79906121f4565b915050610cef565b50505050565b606080606060405180610140016040528086868080601f016020809104026020016040519081016040528093929190818152602001838380828437600081840152601f19601f82011690508083019250505050505050815260200188888080601f016020809104026020016040519081016040528093929190818152602001838380828437600081840152601f19601f8201169050808301925050505050505081526020013373ffffffffffffffffffffffffffffffffffffffff1681526020018b81526020018a81526020018981526020018481526020018381526020018281526020016000151581525060018686604051610e859291906123f2565b90815260200160405180910390206000820151816000019081610ea89190612617565b506020820151816001019081610ebe9190612617565b5060408201518160020160006101000a81548173ffffffffffffffffffffffffffffffffffffffff021916908373ffffffffffffffffffffffffffffffffffffffff160217905550606082015181600301556080820151816004015560a0820151816005015560c0820151816006019080519060200190610f409291906117d7565b5060e0820151816007019080519060200190610f5d9291906117d7565b50610100820151816008019080519060200190610f7b9291906117d7565b506101208201518160090160006101000a81548160ff0219169083151502179055509050507f9f204c215b1f4f43a33a1b7272e476938a219d677894d59937dfb6e1554a2ab28585338d8c8e8d8d604051610fdd989796959493929190612716565b60405180910390a16000858590918060018154018082558091505060019003906000526020600020016000909192909192909192909192509182611022929190612794565b5050505050505050505050565b606060008281548110611045576110446120d2565b5b90600052602060002001805461105a9061243a565b80601f01602080910402602001604051908101604052809291908181526020018280546110869061243a565b80156110d35780601f106110a8576101008083540402835291602001916110d3565b820191906000526020600020905b8154815290600101906020018083116110b657829003601f168201915b50505050509050919050565b60606000806000806060600188886040516110fb9291906123f2565b90815260200160405180910390206001016001898960405161111e9291906123f2565b908152602001604051809103902060020160009054906101000a900473ffffffffffffffffffffffffffffffffffffffff1660018a8a6040516111629291906123f2565b90815260200160405180910390206003015460018b8b6040516111869291906123f2565b90815260200160405180910390206005015460018c8c6040516111aa9291906123f2565b90815260200160405180910390206004015460018d8d6040516111ce9291906123f2565b90815260200160405180910390206000018580546111eb9061243a565b80601f01602080910402602001604051908101604052809291908181526020018280546112179061243a565b80156112645780601f1061123957610100808354040283529160200191611264565b820191906000526020600020905b81548152906001019060200180831161124757829003601f168201915b505050505095508080546112779061243a565b80601f01602080910402602001604051908101604052809291908181526020018280546112a39061243a565b80156112f05780601f106112c5576101008083540402835291602001916112f0565b820191906000526020600020905b8154815290600101906020018083116112d357829003601f168201915b505050505090509550955095509550955095509295509295509295565b6000600183836040516113219291906123f2565b9081526020016040518091039020905080600401543414611377576040517f08c379a000000000000000000000000000000000000000000000000000000000815260040161136e906128b0565b60405180910390fd5b80600301544211156113be576040517f08c379a00000000000000000000000000000000000000000000000000000000081526004016113b59061291c565b60405180910390fd5b806005015481600601805490501061140b576040517f08c379a000000000000000000000000000000000000000000000000000000000815260040161140290612988565b60405180910390fd5b60005b81600601805490508160ff1610156114e4573373ffffffffffffffffffffffffffffffffffffffff16826006018260ff16815481106114505761144f6120d2565b5b9060005260206000200160009054906101000a900473ffffffffffffffffffffffffffffffffffffffff1673ffffffffffffffffffffffffffffffffffffffff16036114d1576040517f08c379a00000000000000000000000000000000000000000000000000000000081526004016114c8906129f4565b60405180910390fd5b80806114dc906121f4565b91505061140e565b5080600601339080600181540180825580915050600190039060005260206000200160009091909190916101000a81548173ffffffffffffffffffffffffffffffffffffffff021916908373ffffffffffffffffffffffffffffffffffffffff1602179055507fabcce16e56e262edb0b0f42f67799f9af66be1921b5e65285ea5c687d9b1e61883833360405161157d93929190612a14565b60405180910390a1505050565b6001818051602081018201805184825260208301602085012081835280955050505050506000915090508060000180546115c39061243a565b80601f01602080910402602001604051908101604052809291908181526020018280546115ef9061243a565b801561163c5780601f106116115761010080835404028352916020019161163c565b820191906000526020600020905b81548152906001019060200180831161161f57829003601f168201915b5050505050908060010180546116519061243a565b80601f016020809104026020016040519081016040528092919081815260200182805461167d9061243a565b80156116ca5780601f1061169f576101008083540402835291602001916116ca565b820191906000526020600020905b8154815290600101906020018083116116ad57829003601f168201915b5050505050908060020160009054906101000a900473ffffffffffffffffffffffffffffffffffffffff16908060030154908060040154908060050154908060090160009054906101000a900460ff16905087565b60606000600184846040516117359291906123f2565b90815260200160405180910390209050806006018054806020026020016040519081016040528092919081815260200182805480156117c957602002820191906000526020600020905b8160009054906101000a900473ffffffffffffffffffffffffffffffffffffffff1673ffffffffffffffffffffffffffffffffffffffff168152602001906001019080831161177f575b505050505091505092915050565b828054828255906000526020600020908101928215611850579160200282015b8281111561184f5782518260006101000a81548173ffffffffffffffffffffffffffffffffffffffff021916908373ffffffffffffffffffffffffffffffffffffffff160217905550916020019190600101906117f7565b5b50905061185d9190611861565b5090565b5b8082111561187a576000816000905550600101611862565b5090565b6000604051905090565b600080fd5b600080fd5b600080fd5b600080fd5b6000601f19601f8301169050919050565b7f4e487b7100000000000000000000000000000000000000000000000000000000600052604160045260246000fd5b6118e58261189c565b810181811067ffffffffffffffff82111715611904576119036118ad565b5b80604052505050565b600061191761187e565b905061192382826118dc565b919050565b600067ffffffffffffffff821115611943576119426118ad565b5b61194c8261189c565b9050602081019050919050565b82818337600083830152505050565b600061197b61197684611928565b61190d565b90508281526020810184848401111561199757611996611897565b5b6119a2848285611959565b509392505050565b600082601f8301126119bf576119be611892565b5b81356119cf848260208601611968565b91505092915050565b6000602082840312156119ee576119ed611888565b5b600082013567ffffffffffffffff811115611a0c57611a0b61188d565b5b611a18848285016119aa565b91505092915050565b6000819050919050565b611a3481611a21565b82525050565b6000602082019050611a4f6000830184611a2b565b92915050565b600073ffffffffffffffffffffffffffffffffffffffff82169050919050565b6000611a8082611a55565b9050919050565b611a9081611a75565b8114611a9b57600080fd5b50565b600081359050611aad81611a87565b92915050565b60008060408385031215611aca57611ac9611888565b5b600083013567ffffffffffffffff811115611ae857611ae761188d565b5b611af4858286016119aa565b9250506020611b0585828601611a9e565b9150509250929050565b600080fd5b600080fd5b60008083601f840112611b2f57611b2e611892565b5b8235905067ffffffffffffffff811115611b4c57611b4b611b0f565b5b602083019150836001820283011115611b6857611b67611b14565b5b9250929050565b60008060208385031215611b8657611b85611888565b5b600083013567ffffffffffffffff811115611ba457611ba361188d565b5b611bb085828601611b19565b92509250509250929050565b611bc581611a21565b8114611bd057600080fd5b50565b600081359050611be281611bbc565b92915050565b600080600080600080600060a0888a031215611c0757611c06611888565b5b6000611c158a828b01611bd3565b9750506020611c268a828b01611bd3565b9650506040611c378a828b01611bd3565b955050606088013567ffffffffffffffff811115611c5857611c5761188d565b5b611c648a828b01611b19565b9450945050608088013567ffffffffffffffff811115611c8757611c8661188d565b5b611c938a828b01611b19565b925092505092959891949750929550565b600060208284031215611cba57611cb9611888565b5b6000611cc884828501611bd3565b91505092915050565b600081519050919050565b600082825260208201905092915050565b60005b83811015611d0b578082015181840152602081019050611cf0565b60008484015250505050565b6000611d2282611cd1565b611d2c8185611cdc565b9350611d3c818560208601611ced565b611d458161189c565b840191505092915050565b60006020820190508181036000830152611d6a8184611d17565b905092915050565b611d7b81611a75565b82525050565b600060c0820190508181036000830152611d9b8189611d17565b9050611daa6020830188611d72565b611db76040830187611a2b565b611dc46060830186611a2b565b611dd16080830185611a2b565b81810360a0830152611de38184611d17565b9050979650505050505050565b60008115159050919050565b611e0581611df0565b82525050565b600060e0820190508181036000830152611e25818a611d17565b90508181036020830152611e398189611d17565b9050611e486040830188611d72565b611e556060830187611a2b565b611e626080830186611a2b565b611e6f60a0830185611a2b565b611e7c60c0830184611dfc565b98975050505050505050565b600081519050919050565b600082825260208201905092915050565b6000819050602082019050919050565b6000611ebf82611a55565b9050919050565b611ecf81611eb4565b82525050565b6000611ee18383611ec6565b60208301905092915050565b6000602082019050919050565b6000611f0582611e88565b611f0f8185611e93565b9350611f1a83611ea4565b8060005b83811015611f4b578151611f328882611ed5565b9750611f3d83611eed565b925050600181019050611f1e565b5085935050505092915050565b60006020820190508181036000830152611f728184611efa565b905092915050565b600081905092915050565b6000611f9082611cd1565b611f9a8185611f7a565b9350611faa818560208601611ced565b80840191505092915050565b6000611fc28284611f85565b915081905092915050565b7f4e487b7100000000000000000000000000000000000000000000000000000000600052601160045260246000fd5b600061200782611a21565b915061201283611a21565b925082820390508181111561202a57612029611fcd565b5b92915050565b600061203b82611a21565b915061204683611a21565b925082820261205481611a21565b9150828204841483151761206b5761206a611fcd565b5b5092915050565b7f4e487b7100000000000000000000000000000000000000000000000000000000600052601260045260246000fd5b60006120ac82611a21565b91506120b783611a21565b9250826120c7576120c6612072565b5b828204905092915050565b7f4e487b7100000000000000000000000000000000000000000000000000000000600052603260045260246000fd5b600061210c82611a21565b915061211783611a21565b925082820190508082111561212f5761212e611fcd565b5b92915050565b600081905092915050565b50565b6000612150600083612135565b915061215b82612140565b600082019050919050565b600061217182612143565b9150819050919050565b7f4661696c656420746f2073656e64204574686572000000000000000000000000600082015250565b60006121b1601483611cdc565b91506121bc8261217b565b602082019050919050565b600060208201905081810360008301526121e0816121a4565b9050919050565b600060ff82169050919050565b60006121ff826121e7565b915060ff820361221257612211611fcd565b5b600182019050919050565b7f4e4f5420415554484f52495a4544000000000000000000000000000000000000600082015250565b6000612253600e83611cdc565b915061225e8261221d565b602082019050919050565b6000602082019050818103600083015261228281612246565b9050919050565b7f4e4f205253565020544f20434f4e4649524d0000000000000000000000000000600082015250565b60006122bf601283611cdc565b91506122ca82612289565b602082019050919050565b600060208201905081810360008301526122ee816122b2565b9050919050565b7f414c524541445920434c41494d45440000000000000000000000000000000000600082015250565b600061232b600f83611cdc565b9150612336826122f5565b602082019050919050565b6000602082019050818103600083015261235a8161231e565b9050919050565b7f414c52454144592050414944204f555400000000000000000000000000000000600082015250565b6000612397601083611cdc565b91506123a282612361565b602082019050919050565b600060208201905081810360008301526123c68161238a565b9050919050565b60006123d98385611f7a565b93506123e6838584611959565b82840190509392505050565b60006123ff8284866123cd565b91508190509392505050565b7f4e487b7100000000000000000000000000000000000000000000000000000000600052602260045260246000fd5b6000600282049050600182168061245257607f821691505b6020821081036124655761246461240b565b5b50919050565b60008190508160005260206000209050919050565b60006020601f8301049050919050565b600082821b905092915050565b6000600883026124cd7fffffffffffffffffffffffffffffffffffffffffffffffffffffffffffffffff82612490565b6124d78683612490565b95508019841693508086168417925050509392505050565b6000819050919050565b600061251461250f61250a84611a21565b6124ef565b611a21565b9050919050565b6000819050919050565b61252e836124f9565b61254261253a8261251b565b84845461249d565b825550505050565b600090565b61255761254a565b612562818484612525565b505050565b5b818110156125865761257b60008261254f565b600181019050612568565b5050565b601f8211156125cb5761259c8161246b565b6125a584612480565b810160208510156125b4578190505b6125c86125c085612480565b830182612567565b50505b505050565b600082821c905092915050565b60006125ee600019846008026125d0565b1980831691505092915050565b600061260783836125dd565b9150826002028217905092915050565b61262082611cd1565b67ffffffffffffffff811115612639576126386118ad565b5b612643825461243a565b61264e82828561258a565b600060209050601f831160018114612681576000841561266f578287015190505b61267985826125fb565b8655506126e1565b601f19841661268f8661246b565b60005b828110156126b757848901518255600182019150602085019450602081019050612692565b868310156126d457848901516126d0601f8916826125dd565b8355505b6001600288020188555050505b505050505050565b60006126f58385611cdc565b9350612702838584611959565b61270b8361189c565b840190509392505050565b600060c0820190508181036000830152612731818a8c6126e9565b90506127406020830189611d72565b61274d6040830188611a2b565b61275a6060830187611a2b565b6127676080830186611a2b565b81810360a083015261277a8184866126e9565b90509998505050505050505050565b600082905092915050565b61279e8383612789565b67ffffffffffffffff8111156127b7576127b66118ad565b5b6127c1825461243a565b6127cc82828561258a565b6000601f8311600181146127fb57600084156127e9578287013590505b6127f385826125fb565b86555061285b565b601f1984166128098661246b565b60005b828110156128315784890135825560018201915060208501945060208101905061280c565b8683101561284e578489013561284a601f8916826125dd565b8355505b6001600288020188555050505b50505050505050565b7f4e4f5420454e4f55474800000000000000000000000000000000000000000000600082015250565b600061289a600a83611cdc565b91506128a582612864565b602082019050919050565b600060208201905081810360008301526128c98161288d565b9050919050565b7f414c52454144592048415050454e454400000000000000000000000000000000600082015250565b6000612906601083611cdc565b9150612911826128d0565b602082019050919050565b60006020820190508181036000830152612935816128f9565b9050919050565b7f54686973206576656e7420686173207265616368656420636170616369747900600082015250565b6000612972601f83611cdc565b915061297d8261293c565b602082019050919050565b600060208201905081810360008301526129a181612965565b9050919050565b7f414c524541445920434f4e4649524d4544000000000000000000000000000000600082015250565b60006129de601183611cdc565b91506129e9826129a8565b602082019050919050565b60006020820190508181036000830152612a0d816129d1565b9050919050565b60006040820190508181036000830152612a2f8185876126e9565b9050612a3e6020830184611d72565b94935050505056fea2646970667358221220db506b306adf77b53eb88079d4dbaf738e87f692034df2c83107ef5d3871239b64736f6c63430008110033",
  "linkReferences": {},
  "deployedLinkReferences": {}
}