{
  "_format": "hh-sol-artifact-1",
  "contractName": "EventHub",
  "sourceName": "contracts/EventHub.sol",
  "abi": [
    {
      "anonymous": false,
      "inputs": [
        {
          "indexed": false,
          "internalType": "string",
          "name": "eventID",
          "type": "string"
        },
        {
          "indexed": false,
          "internalType": "address",
          "name": "attendeeAddress",
          "type": "address"
        }
      ],
      "name": "ConfirmedAttendee",
      "type": "event"
    },
    {
      "anonymous": false,
      "inputs": [
        {
          "indexed": false,
          "internalType": "string",
          "name": "eventID",
          "type": "string"
        }
      ],
      "name": "DepositsPaidOut",
      "type": "event"
    },
    {
      "anonymous": false,
      "inputs": [
        {
          "indexed": false,
          "internalType": "string",
          "name": "eventID",
          "type": "string"
        },
        {
          "indexed": false,
          "internalType": "address",
          "name": "creatorAddress",
          "type": "address"
        },
        {
          "indexed": false,
          "internalType": "uint256",
          "name": "eventTimestamp",
          "type": "uint256"
        },
        {
          "indexed": false,
          "internalType": "uint256",
          "name": "maxCapacity",
          "type": "uint256"
        },
        {
          "indexed": false,
          "internalType": "uint256",
          "name": "deposit",
          "type": "uint256"
        },
        {
          "indexed": false,
          "internalType": "string",
          "name": "eventDataCID",
          "type": "string"
        }
      ],
      "name": "NewEventCreated",
      "type": "event"
    },
    {
      "anonymous": false,
      "inputs": [
        {
          "indexed": false,
          "internalType": "string",
          "name": "eventID",
          "type": "string"
        },
        {
          "indexed": false,
          "internalType": "address",
          "name": "attendeeAddress",
          "type": "address"
        }
      ],
      "name": "NewRSVP",
      "type": "event"
    },
    {
      "anonymous": false,
      "inputs": [
        {
          "indexed": false,
          "internalType": "string",
          "name": "Message",
          "type": "string"
        }
      ],
      "name": "Payout",
      "type": "event"
    },
    {
      "inputs": [
        {
          "internalType": "string",
          "name": "eventId",
          "type": "string"
        }
      ],
      "name": "confirmAllAttendees",
      "outputs": [],
      "stateMutability": "nonpayable",
      "type": "function"
    },
    {
      "inputs": [
        {
          "internalType": "string",
          "name": "eventId",
          "type": "string"
        },
        {
          "internalType": "address",
          "name": "attendee",
          "type": "address"
        }
      ],
      "name": "confirmAttendee",
      "outputs": [],
      "stateMutability": "nonpayable",
      "type": "function"
    },
    {
      "inputs": [
        {
          "internalType": "uint256",
          "name": "eventTimestamp",
          "type": "uint256"
        },
        {
          "internalType": "uint256",
          "name": "deposit",
          "type": "uint256"
        },
        {
          "internalType": "uint256",
          "name": "maxCapacity",
          "type": "uint256"
        },
        {
          "internalType": "string",
          "name": "eventDataCID",
          "type": "string"
        },
        {
          "internalType": "string",
          "name": "eventId",
          "type": "string"
        }
      ],
      "name": "createNewEvent",
      "outputs": [],
      "stateMutability": "nonpayable",
      "type": "function"
    },
    {
      "inputs": [
        {
          "internalType": "string",
          "name": "eventId",
          "type": "string"
        }
      ],
      "name": "createNewRSVP",
      "outputs": [],
      "stateMutability": "payable",
      "type": "function"
    },
    {
      "inputs": [],
      "name": "getBalance",
      "outputs": [
        {
          "internalType": "uint256",
          "name": "",
          "type": "uint256"
        }
      ],
      "stateMutability": "view",
      "type": "function"
    },
    {
      "inputs": [
        {
          "internalType": "string",
          "name": "eventId",
          "type": "string"
        }
      ],
      "name": "getConfirmedRSVPs",
      "outputs": [
        {
          "internalType": "address payable[]",
          "name": "",
          "type": "address[]"
        }
      ],
      "stateMutability": "view",
      "type": "function"
    },
    {
      "inputs": [
        {
          "internalType": "string",
          "name": "eventID",
          "type": "string"
        }
      ],
      "name": "getEvent",
      "outputs": [
        {
          "internalType": "string",
          "name": "eventDataCID",
          "type": "string"
        },
        {
          "internalType": "address",
          "name": "eventOwner",
          "type": "address"
        },
        {
          "internalType": "uint256",
          "name": "eventTimestamp",
          "type": "uint256"
        },
        {
          "internalType": "uint256",
          "name": "maxCapacity",
          "type": "uint256"
        },
        {
          "internalType": "uint256",
          "name": "deposit",
          "type": "uint256"
        },
        {
          "internalType": "string",
          "name": "eventId",
          "type": "string"
        }
      ],
      "stateMutability": "view",
      "type": "function"
    },
    {
      "inputs": [
        {
          "internalType": "uint256",
          "name": "i",
          "type": "uint256"
        }
      ],
      "name": "getEventId",
      "outputs": [
        {
          "internalType": "string",
          "name": "",
          "type": "string"
        }
      ],
      "stateMutability": "view",
      "type": "function"
    },
    {
      "inputs": [],
      "name": "getEventLength",
      "outputs": [
        {
          "internalType": "uint256",
          "name": "",
          "type": "uint256"
        }
      ],
      "stateMutability": "view",
      "type": "function"
    },
    {
      "inputs": [
        {
          "internalType": "string",
          "name": "",
          "type": "string"
        }
      ],
      "name": "idToEvent",
      "outputs": [
        {
          "internalType": "string",
          "name": "eventId",
          "type": "string"
        },
        {
          "internalType": "string",
          "name": "eventDataCID",
          "type": "string"
        },
        {
          "internalType": "address",
          "name": "eventOwner",
          "type": "address"
        },
        {
          "internalType": "uint256",
          "name": "eventTimestamp",
          "type": "uint256"
        },
        {
          "internalType": "uint256",
          "name": "deposit",
          "type": "uint256"
        },
        {
          "internalType": "uint256",
          "name": "maxCapacity",
          "type": "uint256"
        },
        {
          "internalType": "bool",
          "name": "paidOut",
          "type": "bool"
        }
      ],
      "stateMutability": "view",
      "type": "function"
    },
    {
      "inputs": [
        {
          "internalType": "string",
          "name": "eventId",
          "type": "string"
        }
      ],
      "name": "payOut",
      "outputs": [],
      "stateMutability": "nonpayable",
      "type": "function"
    }
  ],
  "bytecode": "0x608060405234801561001057600080fd5b50612b3d806100206000396000f3fe60806040526004361061009c5760003560e01c8063b07e369711610064578063b07e369714610172578063c3be559b1461019b578063e1902063146101d8578063e495106b1461021a578063ebf2325714610236578063ff910c9b146102795761009c565b806312065fe0146100a1578063133280b0146100cc5780635c98dfa1146100f55780637130026e14610120578063aad4ba3914610149575b600080fd5b3480156100ad57600080fd5b506100b66102b6565b6040516100c391906118ec565b60405180910390f35b3480156100d857600080fd5b506100f360048036038101906100ee9190611a61565b6102be565b005b34801561010157600080fd5b5061010a61058c565b60405161011791906118ec565b60405180910390f35b34801561012c57600080fd5b5061014760048036038101906101429190611b08565b610598565b005b34801561015557600080fd5b50610170600480360381019061016b9190611bc4565b610942565b005b34801561017e57600080fd5b5061019960048036038101906101949190611c3d565b610ddc565b005b3480156101a757600080fd5b506101c260048036038101906101bd9190611cf9565b611084565b6040516101cf9190611da5565b60405180910390f35b3480156101e457600080fd5b506101ff60048036038101906101fa9190611bc4565b611134565b60405161021196959493929190611dd6565b60405180910390f35b610234600480360381019061022f9190611bc4565b611362565b005b34801561024257600080fd5b5061025d60048036038101906102589190611a61565b6115df565b6040516102709796959493929190611e60565b60405180910390f35b34801561028557600080fd5b506102a0600480360381019061029b9190611bc4565b611774565b6040516102ad9190611fad565b60405180910390f35b600047905090565b60006001826040516102d0919061200b565b908152602001604051809103902090506202a30081600301546102f39190612051565b421015610335576040517f08c379a000000000000000000000000000000000000000000000000000000000815260040161032c906120d1565b60405180910390fd5b60008160070180549050826006018054905061035191906120f1565b905060008260040154826103659190612125565b9050600083600701805490508261037c9190612196565b905060005b84600701805490508160ff16101561054d5784600801856007018260ff16815481106103b0576103af6121c7565b5b9060005260206000200160009054906101000a900473ffffffffffffffffffffffffffffffffffffffff169080600181540180825580915050600190039060005260206000200160009091909190916101000a81548173ffffffffffffffffffffffffffffffffffffffff021916908373ffffffffffffffffffffffffffffffffffffffff1602179055506000856007018260ff1681548110610456576104556121c7565b5b9060005260206000200160009054906101000a900473ffffffffffffffffffffffffffffffffffffffff1673ffffffffffffffffffffffffffffffffffffffff168660040154846104a79190612051565b6040516104b390612227565b60006040518083038185875af1925050503d80600081146104f0576040519150601f19603f3d011682016040523d82523d6000602084013e6104f5565b606091505b5050905080610539576040517f08c379a000000000000000000000000000000000000000000000000000000000815260040161053090612288565b60405180910390fd5b508080610545906122b5565b915050610381565b507f951481b5ab03382781591c75ab7640501967f2896d66ab36a6576a1d2c9de5948560405161057d9190611da5565b60405180910390a15050505050565b60008080549050905090565b60006001836040516105aa919061200b565b908152602001604051809103902090508060020160009054906101000a900473ffffffffffffffffffffffffffffffffffffffff1673ffffffffffffffffffffffffffffffffffffffff163373ffffffffffffffffffffffffffffffffffffffff161461064c576040517f08c379a00000000000000000000000000000000000000000000000000000000081526004016106439061232a565b60405180910390fd5b600080600090505b82600601805490508160ff161015610736578373ffffffffffffffffffffffffffffffffffffffff16836006018260ff1681548110610696576106956121c7565b5b9060005260206000200160009054906101000a900473ffffffffffffffffffffffffffffffffffffffff1673ffffffffffffffffffffffffffffffffffffffff160361072357826006018160ff16815481106106f5576106f46121c7565b5b9060005260206000200160009054906101000a900473ffffffffffffffffffffffffffffffffffffffff1691505b808061072e906122b5565b915050610654565b508273ffffffffffffffffffffffffffffffffffffffff168173ffffffffffffffffffffffffffffffffffffffff16146107a5576040517f08c379a000000000000000000000000000000000000000000000000000000000815260040161079c90612396565b60405180910390fd5b60005b82600701805490508160ff16101561087e578373ffffffffffffffffffffffffffffffffffffffff16836007018260ff16815481106107ea576107e96121c7565b5b9060005260206000200160009054906101000a900473ffffffffffffffffffffffffffffffffffffffff1673ffffffffffffffffffffffffffffffffffffffff160361086b576040517f08c379a000000000000000000000000000000000000000000000000000000000815260040161086290612402565b60405180910390fd5b8080610876906122b5565b9150506107a8565b50600015158260090160009054906101000a900460ff161515146108d7576040517f08c379a00000000000000000000000000000000000000000000000000000000081526004016108ce9061246e565b60405180910390fd5b81600701839080600181540180825580915050600190039060005260206000200160009091909190916101000a81548173ffffffffffffffffffffffffffffffffffffffff021916908373ffffffffffffffffffffffffffffffffffffffff16021790555050505050565b6000600183836040516109569291906124b3565b908152602001604051809103902060405180610140016040529081600082018054610980906124fb565b80601f01602080910402602001604051908101604052809291908181526020018280546109ac906124fb565b80156109f95780601f106109ce576101008083540402835291602001916109f9565b820191906000526020600020905b8154815290600101906020018083116109dc57829003601f168201915b50505050508152602001600182018054610a12906124fb565b80601f0160208091040260200160405190810160405280929190818152602001828054610a3e906124fb565b8015610a8b5780601f10610a6057610100808354040283529160200191610a8b565b820191906000526020600020905b815481529060010190602001808311610a6e57829003601f168201915b505050505081526020016002820160009054906101000a900473ffffffffffffffffffffffffffffffffffffffff1673ffffffffffffffffffffffffffffffffffffffff1673ffffffffffffffffffffffffffffffffffffffff16815260200160038201548152602001600482015481526020016005820154815260200160068201805480602002602001604051908101604052809291908181526020018280548015610b8d57602002820191906000526020600020905b8160009054906101000a900473ffffffffffffffffffffffffffffffffffffffff1673ffffffffffffffffffffffffffffffffffffffff1681526020019060010190808311610b43575b5050505050815260200160078201805480602002602001604051908101604052809291908181526020018280548015610c1b57602002820191906000526020600020905b8160009054906101000a900473ffffffffffffffffffffffffffffffffffffffff1673ffffffffffffffffffffffffffffffffffffffff1681526020019060010190808311610bd1575b5050505050815260200160088201805480602002602001604051908101604052809291908181526020018280548015610ca957602002820191906000526020600020905b8160009054906101000a900473ffffffffffffffffffffffffffffffffffffffff1673ffffffffffffffffffffffffffffffffffffffff1681526020019060010190808311610c5f575b505050505081526020016009820160009054906101000a900460ff1615151515815250509050806040015173ffffffffffffffffffffffffffffffffffffffff163373ffffffffffffffffffffffffffffffffffffffff1614610d41576040517f08c379a0000000000000000000000000000000000000000000000000000000008152600401610d389061232a565b60405180910390fd5b60005b8160c00151518160ff161015610dd657610dc384848080601f016020809104026020016040519081016040528093929190818152602001838380828437600081840152601f19601f820116905080830192505050505050508360c001518360ff1681518110610db657610db56121c7565b5b6020026020010151610598565b8080610dce906122b5565b915050610d44565b50505050565b606080606060405180610140016040528086868080601f016020809104026020016040519081016040528093929190818152602001838380828437600081840152601f19601f82011690508083019250505050505050815260200188888080601f016020809104026020016040519081016040528093929190818152602001838380828437600081840152601f19601f8201169050808301925050505050505081526020013373ffffffffffffffffffffffffffffffffffffffff1681526020018b81526020018a81526020018981526020018481526020018381526020018281526020016000151581525060018686604051610eda9291906124b3565b90815260200160405180910390206000820151816000019081610efd91906126d8565b506020820151816001019081610f1391906126d8565b5060408201518160020160006101000a81548173ffffffffffffffffffffffffffffffffffffffff021916908373ffffffffffffffffffffffffffffffffffffffff160217905550606082015181600301556080820151816004015560a0820151816005015560c0820151816006019080519060200190610f9592919061182c565b5060e0820151816007019080519060200190610fb292919061182c565b50610100820151816008019080519060200190610fd092919061182c565b506101208201518160090160006101000a81548160ff0219169083151502179055509050507f9f204c215b1f4f43a33a1b7272e476938a219d677894d59937dfb6e1554a2ab28585338d8c8e8d8d6040516110329897969594939291906127d7565b60405180910390a16000858590918060018154018082558091505060019003906000526020600020016000909192909192909192909192509182611077929190612855565b5050505050505050505050565b60606000828154811061109a576110996121c7565b5b9060005260206000200180546110af906124fb565b80601f01602080910402602001604051908101604052809291908181526020018280546110db906124fb565b80156111285780601f106110fd57610100808354040283529160200191611128565b820191906000526020600020905b81548152906001019060200180831161110b57829003601f168201915b50505050509050919050565b60606000806000806060600188886040516111509291906124b3565b9081526020016040518091039020600101600189896040516111739291906124b3565b908152602001604051809103902060020160009054906101000a900473ffffffffffffffffffffffffffffffffffffffff1660018a8a6040516111b79291906124b3565b90815260200160405180910390206003015460018b8b6040516111db9291906124b3565b90815260200160405180910390206005015460018c8c6040516111ff9291906124b3565b90815260200160405180910390206004015460018d8d6040516112239291906124b3565b9081526020016040518091039020600001858054611240906124fb565b80601f016020809104026020016040519081016040528092919081815260200182805461126c906124fb565b80156112b95780601f1061128e576101008083540402835291602001916112b9565b820191906000526020600020905b81548152906001019060200180831161129c57829003601f168201915b505050505095508080546112cc906124fb565b80601f01602080910402602001604051908101604052809291908181526020018280546112f8906124fb565b80156113455780601f1061131a57610100808354040283529160200191611345565b820191906000526020600020905b81548152906001019060200180831161132857829003601f168201915b505050505090509550955095509550955095509295509295509295565b6000600183836040516113769291906124b3565b90815260200160405180910390209050806004015434146113cc576040517f08c379a00000000000000000000000000000000000000000000000000000000081526004016113c390612971565b60405180910390fd5b8060030154421115611413576040517f08c379a000000000000000000000000000000000000000000000000000000000815260040161140a906129dd565b60405180910390fd5b8060050154816006018054905010611460576040517f08c379a000000000000000000000000000000000000000000000000000000000815260040161145790612a49565b60405180910390fd5b60005b81600601805490508160ff161015611539573373ffffffffffffffffffffffffffffffffffffffff16826006018260ff16815481106114a5576114a46121c7565b5b9060005260206000200160009054906101000a900473ffffffffffffffffffffffffffffffffffffffff1673ffffffffffffffffffffffffffffffffffffffff1603611526576040517f08c379a000000000000000000000000000000000000000000000000000000000815260040161151d90612ab5565b60405180910390fd5b8080611531906122b5565b915050611463565b5080600601339080600181540180825580915050600190039060005260206000200160009091909190916101000a81548173ffffffffffffffffffffffffffffffffffffffff021916908373ffffffffffffffffffffffffffffffffffffffff1602179055507fabcce16e56e262edb0b0f42f67799f9af66be1921b5e65285ea5c687d9b1e6188383336040516115d293929190612ad5565b60405180910390a1505050565b600181805160208101820180518482526020830160208501208183528095505050505050600091509050806000018054611618906124fb565b80601f0160208091040260200160405190810160405280929190818152602001828054611644906124fb565b80156116915780601f1061166657610100808354040283529160200191611691565b820191906000526020600020905b81548152906001019060200180831161167457829003601f168201915b5050505050908060010180546116a6906124fb565b80601f01602080910402602001604051908101604052809291908181526020018280546116d2906124fb565b801561171f5780601f106116f45761010080835404028352916020019161171f565b820191906000526020600020905b81548152906001019060200180831161170257829003601f168201915b5050505050908060020160009054906101000a900473ffffffffffffffffffffffffffffffffffffffff16908060030154908060040154908060050154908060090160009054906101000a900460ff16905087565b606060006001848460405161178a9291906124b3565b908152602001604051809103902090508060060180548060200260200160405190810160405280929190818152602001828054801561181e57602002820191906000526020600020905b8160009054906101000a900473ffffffffffffffffffffffffffffffffffffffff1673ffffffffffffffffffffffffffffffffffffffff16815260200190600101908083116117d4575b505050505091505092915050565b8280548282559060005260206000209081019282156118a5579160200282015b828111156118a45782518260006101000a81548173ffffffffffffffffffffffffffffffffffffffff021916908373ffffffffffffffffffffffffffffffffffffffff1602179055509160200191906001019061184c565b5b5090506118b291906118b6565b5090565b5b808211156118cf5760008160009055506001016118b7565b5090565b6000819050919050565b6118e6816118d3565b82525050565b600060208201905061190160008301846118dd565b92915050565b6000604051905090565b600080fd5b600080fd5b600080fd5b600080fd5b6000601f19601f8301169050919050565b7f4e487b7100000000000000000000000000000000000000000000000000000000600052604160045260246000fd5b61196e82611925565b810181811067ffffffffffffffff8211171561198d5761198c611936565b5b80604052505050565b60006119a0611907565b90506119ac8282611965565b919050565b600067ffffffffffffffff8211156119cc576119cb611936565b5b6119d582611925565b9050602081019050919050565b82818337600083830152505050565b6000611a046119ff846119b1565b611996565b905082815260208101848484011115611a2057611a1f611920565b5b611a2b8482856119e2565b509392505050565b600082601f830112611a4857611a4761191b565b5b8135611a588482602086016119f1565b91505092915050565b600060208284031215611a7757611a76611911565b5b600082013567ffffffffffffffff811115611a9557611a94611916565b5b611aa184828501611a33565b91505092915050565b600073ffffffffffffffffffffffffffffffffffffffff82169050919050565b6000611ad582611aaa565b9050919050565b611ae581611aca565b8114611af057600080fd5b50565b600081359050611b0281611adc565b92915050565b60008060408385031215611b1f57611b1e611911565b5b600083013567ffffffffffffffff811115611b3d57611b3c611916565b5b611b4985828601611a33565b9250506020611b5a85828601611af3565b9150509250929050565b600080fd5b600080fd5b60008083601f840112611b8457611b8361191b565b5b8235905067ffffffffffffffff811115611ba157611ba0611b64565b5b602083019150836001820283011115611bbd57611bbc611b69565b5b9250929050565b60008060208385031215611bdb57611bda611911565b5b600083013567ffffffffffffffff811115611bf957611bf8611916565b5b611c0585828601611b6e565b92509250509250929050565b611c1a816118d3565b8114611c2557600080fd5b50565b600081359050611c3781611c11565b92915050565b600080600080600080600060a0888a031215611c5c57611c5b611911565b5b6000611c6a8a828b01611c28565b9750506020611c7b8a828b01611c28565b9650506040611c8c8a828b01611c28565b955050606088013567ffffffffffffffff811115611cad57611cac611916565b5b611cb98a828b01611b6e565b9450945050608088013567ffffffffffffffff811115611cdc57611cdb611916565b5b611ce88a828b01611b6e565b925092505092959891949750929550565b600060208284031215611d0f57611d0e611911565b5b6000611d1d84828501611c28565b91505092915050565b600081519050919050565b600082825260208201905092915050565b60005b83811015611d60578082015181840152602081019050611d45565b60008484015250505050565b6000611d7782611d26565b611d818185611d31565b9350611d91818560208601611d42565b611d9a81611925565b840191505092915050565b60006020820190508181036000830152611dbf8184611d6c565b905092915050565b611dd081611aca565b82525050565b600060c0820190508181036000830152611df08189611d6c565b9050611dff6020830188611dc7565b611e0c60408301876118dd565b611e1960608301866118dd565b611e2660808301856118dd565b81810360a0830152611e388184611d6c565b9050979650505050505050565b60008115159050919050565b611e5a81611e45565b82525050565b600060e0820190508181036000830152611e7a818a611d6c565b90508181036020830152611e8e8189611d6c565b9050611e9d6040830188611dc7565b611eaa60608301876118dd565b611eb760808301866118dd565b611ec460a08301856118dd565b611ed160c0830184611e51565b98975050505050505050565b600081519050919050565b600082825260208201905092915050565b6000819050602082019050919050565b6000611f1482611aaa565b9050919050565b611f2481611f09565b82525050565b6000611f368383611f1b565b60208301905092915050565b6000602082019050919050565b6000611f5a82611edd565b611f648185611ee8565b9350611f6f83611ef9565b8060005b83811015611fa0578151611f878882611f2a565b9750611f9283611f42565b925050600181019050611f73565b5085935050505092915050565b60006020820190508181036000830152611fc78184611f4f565b905092915050565b600081905092915050565b6000611fe582611d26565b611fef8185611fcf565b9350611fff818560208601611d42565b80840191505092915050565b60006120178284611fda565b915081905092915050565b7f4e487b7100000000000000000000000000000000000000000000000000000000600052601160045260246000fd5b600061205c826118d3565b9150612067836118d3565b925082820190508082111561207f5761207e612022565b5b92915050565b7f544f4f204541524c590000000000000000000000000000000000000000000000600082015250565b60006120bb600983611d31565b91506120c682612085565b602082019050919050565b600060208201905081810360008301526120ea816120ae565b9050919050565b60006120fc826118d3565b9150612107836118d3565b925082820390508181111561211f5761211e612022565b5b92915050565b6000612130826118d3565b915061213b836118d3565b9250828202612149816118d3565b915082820484148315176121605761215f612022565b5b5092915050565b7f4e487b7100000000000000000000000000000000000000000000000000000000600052601260045260246000fd5b60006121a1826118d3565b91506121ac836118d3565b9250826121bc576121bb612167565b5b828204905092915050565b7f4e487b7100000000000000000000000000000000000000000000000000000000600052603260045260246000fd5b600081905092915050565b50565b60006122116000836121f6565b915061221c82612201565b600082019050919050565b600061223282612204565b9150819050919050565b7f4661696c656420746f2073656e64204574686572000000000000000000000000600082015250565b6000612272601483611d31565b915061227d8261223c565b602082019050919050565b600060208201905081810360008301526122a181612265565b9050919050565b600060ff82169050919050565b60006122c0826122a8565b915060ff82036122d3576122d2612022565b5b600182019050919050565b7f4e4f5420415554484f52495a4544000000000000000000000000000000000000600082015250565b6000612314600e83611d31565b915061231f826122de565b602082019050919050565b6000602082019050818103600083015261234381612307565b9050919050565b7f4e4f205253565020544f20434f4e4649524d0000000000000000000000000000600082015250565b6000612380601283611d31565b915061238b8261234a565b602082019050919050565b600060208201905081810360008301526123af81612373565b9050919050565b7f414c524541445920434c41494d45440000000000000000000000000000000000600082015250565b60006123ec600f83611d31565b91506123f7826123b6565b602082019050919050565b6000602082019050818103600083015261241b816123df565b9050919050565b7f414c52454144592050414944204f555400000000000000000000000000000000600082015250565b6000612458601083611d31565b915061246382612422565b602082019050919050565b600060208201905081810360008301526124878161244b565b9050919050565b600061249a8385611fcf565b93506124a78385846119e2565b82840190509392505050565b60006124c082848661248e565b91508190509392505050565b7f4e487b7100000000000000000000000000000000000000000000000000000000600052602260045260246000fd5b6000600282049050600182168061251357607f821691505b602082108103612526576125256124cc565b5b50919050565b60008190508160005260206000209050919050565b60006020601f8301049050919050565b600082821b905092915050565b60006008830261258e7fffffffffffffffffffffffffffffffffffffffffffffffffffffffffffffffff82612551565b6125988683612551565b95508019841693508086168417925050509392505050565b6000819050919050565b60006125d56125d06125cb846118d3565b6125b0565b6118d3565b9050919050565b6000819050919050565b6125ef836125ba565b6126036125fb826125dc565b84845461255e565b825550505050565b600090565b61261861260b565b6126238184846125e6565b505050565b5b818110156126475761263c600082612610565b600181019050612629565b5050565b601f82111561268c5761265d8161252c565b61266684612541565b81016020851015612675578190505b61268961268185612541565b830182612628565b50505b505050565b600082821c905092915050565b60006126af60001984600802612691565b1980831691505092915050565b60006126c8838361269e565b9150826002028217905092915050565b6126e182611d26565b67ffffffffffffffff8111156126fa576126f9611936565b5b61270482546124fb565b61270f82828561264b565b600060209050601f8311600181146127425760008415612730578287015190505b61273a85826126bc565b8655506127a2565b601f1984166127508661252c565b60005b8281101561277857848901518255600182019150602085019450602081019050612753565b868310156127955784890151612791601f89168261269e565b8355505b6001600288020188555050505b505050505050565b60006127b68385611d31565b93506127c38385846119e2565b6127cc83611925565b840190509392505050565b600060c08201905081810360008301526127f2818a8c6127aa565b90506128016020830189611dc7565b61280e60408301886118dd565b61281b60608301876118dd565b61282860808301866118dd565b81810360a083015261283b8184866127aa565b90509998505050505050505050565b600082905092915050565b61285f838361284a565b67ffffffffffffffff81111561287857612877611936565b5b61288282546124fb565b61288d82828561264b565b6000601f8311600181146128bc57600084156128aa578287013590505b6128b485826126bc565b86555061291c565b601f1984166128ca8661252c565b60005b828110156128f2578489013582556001820191506020850194506020810190506128cd565b8683101561290f578489013561290b601f89168261269e565b8355505b6001600288020188555050505b50505050505050565b7f4e4f5420454e4f55474800000000000000000000000000000000000000000000600082015250565b600061295b600a83611d31565b915061296682612925565b602082019050919050565b6000602082019050818103600083015261298a8161294e565b9050919050565b7f414c52454144592048415050454e454400000000000000000000000000000000600082015250565b60006129c7601083611d31565b91506129d282612991565b602082019050919050565b600060208201905081810360008301526129f6816129ba565b9050919050565b7f54686973206576656e7420686173207265616368656420636170616369747900600082015250565b6000612a33601f83611d31565b9150612a3e826129fd565b602082019050919050565b60006020820190508181036000830152612a6281612a26565b9050919050565b7f414c524541445920434f4e4649524d4544000000000000000000000000000000600082015250565b6000612a9f601183611d31565b9150612aaa82612a69565b602082019050919050565b60006020820190508181036000830152612ace81612a92565b9050919050565b60006040820190508181036000830152612af08185876127aa565b9050612aff6020830184611dc7565b94935050505056fea2646970667358221220bc097538a16d8cb4771492c54972b20680c46bbeafe8fa156119b6617c01116664736f6c63430008110033",
  "linkReferences": {},
  "deployedLinkReferences": {}
}