{
  "_format": "hh-sol-artifact-1",
  "contractName": "EventHub",
  "sourceName": "contracts/EventHub.sol",
  "abi": [
    {
      "anonymous": false,
      "inputs": [
        {
          "indexed": false,
          "internalType": "string",
          "name": "eventID",
          "type": "string"
        },
        {
          "indexed": false,
          "internalType": "address",
          "name": "attendeeAddress",
          "type": "address"
        }
      ],
      "name": "ConfirmedAttendee",
      "type": "event"
    },
    {
      "anonymous": false,
      "inputs": [
        {
          "indexed": false,
          "internalType": "string",
          "name": "eventID",
          "type": "string"
        }
      ],
      "name": "DepositsPaidOut",
      "type": "event"
    },
    {
      "anonymous": false,
      "inputs": [
        {
          "indexed": false,
          "internalType": "string",
          "name": "eventID",
          "type": "string"
        },
        {
          "indexed": false,
          "internalType": "address",
          "name": "creatorAddress",
          "type": "address"
        },
        {
          "indexed": false,
          "internalType": "uint256",
          "name": "eventTimestamp",
          "type": "uint256"
        },
        {
          "indexed": false,
          "internalType": "uint256",
          "name": "maxCapacity",
          "type": "uint256"
        },
        {
          "indexed": false,
          "internalType": "uint256",
          "name": "deposit",
          "type": "uint256"
        },
        {
          "indexed": false,
          "internalType": "string",
          "name": "eventDataCID",
          "type": "string"
        }
      ],
      "name": "NewEventCreated",
      "type": "event"
    },
    {
      "anonymous": false,
      "inputs": [
        {
          "indexed": false,
          "internalType": "string",
          "name": "eventID",
          "type": "string"
        },
        {
          "indexed": false,
          "internalType": "address",
          "name": "attendeeAddress",
          "type": "address"
        }
      ],
      "name": "NewRSVP",
      "type": "event"
    },
    {
      "anonymous": false,
      "inputs": [
        {
          "indexed": false,
          "internalType": "string",
          "name": "Message",
          "type": "string"
        }
      ],
      "name": "Payout",
      "type": "event"
    },
    {
      "inputs": [
        {
          "internalType": "string",
          "name": "eventId",
          "type": "string"
        }
      ],
      "name": "confirmAllAttendees",
      "outputs": [],
      "stateMutability": "nonpayable",
      "type": "function"
    },
    {
      "inputs": [
        {
          "internalType": "string",
          "name": "eventId",
          "type": "string"
        },
        {
          "internalType": "address",
          "name": "attendee",
          "type": "address"
        }
      ],
      "name": "confirmAttendee",
      "outputs": [],
      "stateMutability": "nonpayable",
      "type": "function"
    },
    {
      "inputs": [
        {
          "internalType": "uint256",
          "name": "eventTimestamp",
          "type": "uint256"
        },
        {
          "internalType": "uint256",
          "name": "deposit",
          "type": "uint256"
        },
        {
          "internalType": "uint256",
          "name": "maxCapacity",
          "type": "uint256"
        },
        {
          "internalType": "string",
          "name": "eventDataCID",
          "type": "string"
        },
        {
          "internalType": "string",
          "name": "eventId",
          "type": "string"
        }
      ],
      "name": "createNewEvent",
      "outputs": [],
      "stateMutability": "nonpayable",
      "type": "function"
    },
    {
      "inputs": [
        {
          "internalType": "string",
          "name": "eventId",
          "type": "string"
        }
      ],
      "name": "createNewRSVP",
      "outputs": [],
      "stateMutability": "payable",
      "type": "function"
    },
    {
      "inputs": [],
      "name": "getBalance",
      "outputs": [
        {
          "internalType": "uint256",
          "name": "",
          "type": "uint256"
        }
      ],
      "stateMutability": "view",
      "type": "function"
    },
    {
      "inputs": [
        {
          "internalType": "string",
          "name": "eventId",
          "type": "string"
        }
      ],
      "name": "getConfirmedRSVPs",
      "outputs": [
        {
          "internalType": "address payable[]",
          "name": "",
          "type": "address[]"
        }
      ],
      "stateMutability": "view",
      "type": "function"
    },
    {
      "inputs": [
        {
          "internalType": "string",
          "name": "eventID",
          "type": "string"
        }
      ],
      "name": "getEvent",
      "outputs": [
        {
          "internalType": "string",
          "name": "eventDataCID",
          "type": "string"
        },
        {
          "internalType": "address",
          "name": "eventOwner",
          "type": "address"
        },
        {
          "internalType": "uint256",
          "name": "eventTimestamp",
          "type": "uint256"
        },
        {
          "internalType": "uint256",
          "name": "maxCapacity",
          "type": "uint256"
        },
        {
          "internalType": "uint256",
          "name": "deposit",
          "type": "uint256"
        },
        {
          "internalType": "string",
          "name": "eventId",
          "type": "string"
        }
      ],
      "stateMutability": "view",
      "type": "function"
    },
    {
      "inputs": [
        {
          "internalType": "uint256",
          "name": "i",
          "type": "uint256"
        }
      ],
      "name": "getEventId",
      "outputs": [
        {
          "internalType": "string",
          "name": "",
          "type": "string"
        }
      ],
      "stateMutability": "view",
      "type": "function"
    },
    {
      "inputs": [],
      "name": "getEventLength",
      "outputs": [
        {
          "internalType": "uint256",
          "name": "",
          "type": "uint256"
        }
      ],
      "stateMutability": "view",
      "type": "function"
    },
    {
      "inputs": [
        {
          "internalType": "string",
          "name": "",
          "type": "string"
        }
      ],
      "name": "idToEvent",
      "outputs": [
        {
          "internalType": "string",
          "name": "eventId",
          "type": "string"
        },
        {
          "internalType": "string",
          "name": "eventDataCID",
          "type": "string"
        },
        {
          "internalType": "address",
          "name": "eventOwner",
          "type": "address"
        },
        {
          "internalType": "uint256",
          "name": "eventTimestamp",
          "type": "uint256"
        },
        {
          "internalType": "uint256",
          "name": "deposit",
          "type": "uint256"
        },
        {
          "internalType": "uint256",
          "name": "maxCapacity",
          "type": "uint256"
        },
        {
          "internalType": "bool",
          "name": "paidOut",
          "type": "bool"
        }
      ],
      "stateMutability": "view",
      "type": "function"
    },
    {
      "inputs": [
        {
          "internalType": "string",
          "name": "eventId",
          "type": "string"
        }
      ],
      "name": "payOut",
      "outputs": [],
      "stateMutability": "nonpayable",
      "type": "function"
    },
    {
      "inputs": [
        {
          "internalType": "string",
          "name": "eventId",
          "type": "string"
        }
      ],
      "name": "withdrawUnclaimedDeposits",
      "outputs": [],
      "stateMutability": "nonpayable",
      "type": "function"
    }
  ],
  "bytecode": "0x608060405234801561001057600080fd5b5061319a806100206000396000f3fe6080604052600436106100a75760003560e01c8063b07e369711610064578063b07e3697146101a6578063c3be559b146101cf578063e19020631461020c578063e495106b1461024e578063ebf232571461026a578063ff910c9b146102ad576100a7565b806312065fe0146100ac578063133280b0146100d75780635c98dfa1146101005780637130026e1461012b5780639635069214610154578063aad4ba391461017d575b600080fd5b3480156100b857600080fd5b506100c16102ea565b6040516100ce9190611e71565b60405180910390f35b3480156100e357600080fd5b506100fe60048036038101906100f99190611fe6565b6102f2565b005b34801561010c57600080fd5b5061011561056b565b6040516101229190611e71565b60405180910390f35b34801561013757600080fd5b50610152600480360381019061014d919061208d565b610577565b005b34801561016057600080fd5b5061017b60048036038101906101769190612149565b610921565b005b34801561018957600080fd5b506101a4600480360381019061019f9190612149565b610ec7565b005b3480156101b257600080fd5b506101cd60048036038101906101c891906121c2565b611361565b005b3480156101db57600080fd5b506101f660048036038101906101f1919061227e565b611609565b604051610203919061232a565b60405180910390f35b34801561021857600080fd5b50610233600480360381019061022e9190612149565b6116b9565b6040516102459695949392919061235b565b60405180910390f35b61026860048036038101906102639190612149565b6118e7565b005b34801561027657600080fd5b50610291600480360381019061028c9190611fe6565b611b64565b6040516102a497969594939291906123e5565b60405180910390f35b3480156102b957600080fd5b506102d460048036038101906102cf9190612149565b611cf9565b6040516102e19190612532565b60405180910390f35b600047905090565b60006001826040516103049190612590565b9081526020016040518091039020905060008160070180549050826006018054905061033091906125d6565b90506000826004015482610344919061260a565b9050600083600701805490508261035b919061267b565b905060005b84600701805490508160ff16101561052c5784600801856007018260ff168154811061038f5761038e6126ac565b5b9060005260206000200160009054906101000a900473ffffffffffffffffffffffffffffffffffffffff169080600181540180825580915050600190039060005260206000200160009091909190916101000a81548173ffffffffffffffffffffffffffffffffffffffff021916908373ffffffffffffffffffffffffffffffffffffffff1602179055506000856007018260ff1681548110610435576104346126ac565b5b9060005260206000200160009054906101000a900473ffffffffffffffffffffffffffffffffffffffff1673ffffffffffffffffffffffffffffffffffffffff1686600401548461048691906126db565b60405161049290612740565b60006040518083038185875af1925050503d80600081146104cf576040519150601f19603f3d011682016040523d82523d6000602084013e6104d4565b606091505b5050905080610518576040517f08c379a000000000000000000000000000000000000000000000000000000000815260040161050f906127a1565b60405180910390fd5b508080610524906127ce565b915050610360565b507f951481b5ab03382781591c75ab7640501967f2896d66ab36a6576a1d2c9de5948560405161055c919061232a565b60405180910390a15050505050565b60008080549050905090565b60006001836040516105899190612590565b908152602001604051809103902090508060020160009054906101000a900473ffffffffffffffffffffffffffffffffffffffff1673ffffffffffffffffffffffffffffffffffffffff163373ffffffffffffffffffffffffffffffffffffffff161461062b576040517f08c379a000000000000000000000000000000000000000000000000000000000815260040161062290612843565b60405180910390fd5b600080600090505b82600601805490508160ff161015610715578373ffffffffffffffffffffffffffffffffffffffff16836006018260ff1681548110610675576106746126ac565b5b9060005260206000200160009054906101000a900473ffffffffffffffffffffffffffffffffffffffff1673ffffffffffffffffffffffffffffffffffffffff160361070257826006018160ff16815481106106d4576106d36126ac565b5b9060005260206000200160009054906101000a900473ffffffffffffffffffffffffffffffffffffffff1691505b808061070d906127ce565b915050610633565b508273ffffffffffffffffffffffffffffffffffffffff168173ffffffffffffffffffffffffffffffffffffffff1614610784576040517f08c379a000000000000000000000000000000000000000000000000000000000815260040161077b906128af565b60405180910390fd5b60005b82600701805490508160ff16101561085d578373ffffffffffffffffffffffffffffffffffffffff16836007018260ff16815481106107c9576107c86126ac565b5b9060005260206000200160009054906101000a900473ffffffffffffffffffffffffffffffffffffffff1673ffffffffffffffffffffffffffffffffffffffff160361084a576040517f08c379a00000000000000000000000000000000000000000000000000000000081526004016108419061291b565b60405180910390fd5b8080610855906127ce565b915050610787565b50600015158260090160009054906101000a900460ff161515146108b6576040517f08c379a00000000000000000000000000000000000000000000000000000000081526004016108ad90612987565b60405180910390fd5b81600701839080600181540180825580915050600190039060005260206000200160009091909190916101000a81548173ffffffffffffffffffffffffffffffffffffffff021916908373ffffffffffffffffffffffffffffffffffffffff16021790555050505050565b6000600183836040516109359291906129cc565b90815260200160405180910390206040518061014001604052908160008201805461095f90612a14565b80601f016020809104026020016040519081016040528092919081815260200182805461098b90612a14565b80156109d85780601f106109ad576101008083540402835291602001916109d8565b820191906000526020600020905b8154815290600101906020018083116109bb57829003601f168201915b505050505081526020016001820180546109f190612a14565b80601f0160208091040260200160405190810160405280929190818152602001828054610a1d90612a14565b8015610a6a5780601f10610a3f57610100808354040283529160200191610a6a565b820191906000526020600020905b815481529060010190602001808311610a4d57829003601f168201915b505050505081526020016002820160009054906101000a900473ffffffffffffffffffffffffffffffffffffffff1673ffffffffffffffffffffffffffffffffffffffff1673ffffffffffffffffffffffffffffffffffffffff16815260200160038201548152602001600482015481526020016005820154815260200160068201805480602002602001604051908101604052809291908181526020018280548015610b6c57602002820191906000526020600020905b8160009054906101000a900473ffffffffffffffffffffffffffffffffffffffff1673ffffffffffffffffffffffffffffffffffffffff1681526020019060010190808311610b22575b5050505050815260200160078201805480602002602001604051908101604052809291908181526020018280548015610bfa57602002820191906000526020600020905b8160009054906101000a900473ffffffffffffffffffffffffffffffffffffffff1673ffffffffffffffffffffffffffffffffffffffff1681526020019060010190808311610bb0575b5050505050815260200160088201805480602002602001604051908101604052809291908181526020018280548015610c8857602002820191906000526020600020905b8160009054906101000a900473ffffffffffffffffffffffffffffffffffffffff1673ffffffffffffffffffffffffffffffffffffffff1681526020019060010190808311610c3e575b505050505081526020016009820160009054906101000a900460ff161515151581525050905080610120015115610cf4576040517f08c379a0000000000000000000000000000000000000000000000000000000008152600401610ceb90612a91565b60405180910390fd5b6202a3008160600151610d0791906126db565b421015610d49576040517f08c379a0000000000000000000000000000000000000000000000000000000008152600401610d4090612afd565b60405180910390fd5b806040015173ffffffffffffffffffffffffffffffffffffffff163373ffffffffffffffffffffffffffffffffffffffff1614610dbb576040517f08c379a0000000000000000000000000000000000000000000000000000000008152600401610db290612b69565b60405180910390fd5b60008160e00151518260c0015151610dd391906125d6565b90506000826080015182610de7919061260a565b905060018361012001901515908115158152505060003373ffffffffffffffffffffffffffffffffffffffff1682604051610e2190612740565b60006040518083038185875af1925050503d8060008114610e5e576040519150601f19603f3d011682016040523d82523d6000602084013e610e63565b606091505b5050905080610e7f576000846101200190151590811515815250505b80610ebf576040517f08c379a0000000000000000000000000000000000000000000000000000000008152600401610eb6906127a1565b60405180910390fd5b505050505050565b600060018383604051610edb9291906129cc565b908152602001604051809103902060405180610140016040529081600082018054610f0590612a14565b80601f0160208091040260200160405190810160405280929190818152602001828054610f3190612a14565b8015610f7e5780601f10610f5357610100808354040283529160200191610f7e565b820191906000526020600020905b815481529060010190602001808311610f6157829003601f168201915b50505050508152602001600182018054610f9790612a14565b80601f0160208091040260200160405190810160405280929190818152602001828054610fc390612a14565b80156110105780601f10610fe557610100808354040283529160200191611010565b820191906000526020600020905b815481529060010190602001808311610ff357829003601f168201915b505050505081526020016002820160009054906101000a900473ffffffffffffffffffffffffffffffffffffffff1673ffffffffffffffffffffffffffffffffffffffff1673ffffffffffffffffffffffffffffffffffffffff1681526020016003820154815260200160048201548152602001600582015481526020016006820180548060200260200160405190810160405280929190818152602001828054801561111257602002820191906000526020600020905b8160009054906101000a900473ffffffffffffffffffffffffffffffffffffffff1673ffffffffffffffffffffffffffffffffffffffff16815260200190600101908083116110c8575b50505050508152602001600782018054806020026020016040519081016040528092919081815260200182805480156111a057602002820191906000526020600020905b8160009054906101000a900473ffffffffffffffffffffffffffffffffffffffff1673ffffffffffffffffffffffffffffffffffffffff1681526020019060010190808311611156575b505050505081526020016008820180548060200260200160405190810160405280929190818152602001828054801561122e57602002820191906000526020600020905b8160009054906101000a900473ffffffffffffffffffffffffffffffffffffffff1673ffffffffffffffffffffffffffffffffffffffff16815260200190600101908083116111e4575b505050505081526020016009820160009054906101000a900460ff1615151515815250509050806040015173ffffffffffffffffffffffffffffffffffffffff163373ffffffffffffffffffffffffffffffffffffffff16146112c6576040517f08c379a00000000000000000000000000000000000000000000000000000000081526004016112bd90612843565b60405180910390fd5b60005b8160c00151518160ff16101561135b5761134884848080601f016020809104026020016040519081016040528093929190818152602001838380828437600081840152601f19601f820116905080830192505050505050508360c001518360ff168151811061133b5761133a6126ac565b5b6020026020010151610577565b8080611353906127ce565b9150506112c9565b50505050565b606080606060405180610140016040528086868080601f016020809104026020016040519081016040528093929190818152602001838380828437600081840152601f19601f82011690508083019250505050505050815260200188888080601f016020809104026020016040519081016040528093929190818152602001838380828437600081840152601f19601f8201169050808301925050505050505081526020013373ffffffffffffffffffffffffffffffffffffffff1681526020018b81526020018a8152602001898152602001848152602001838152602001828152602001600015158152506001868660405161145f9291906129cc565b908152602001604051809103902060008201518160000190816114829190612d35565b5060208201518160010190816114989190612d35565b5060408201518160020160006101000a81548173ffffffffffffffffffffffffffffffffffffffff021916908373ffffffffffffffffffffffffffffffffffffffff160217905550606082015181600301556080820151816004015560a0820151816005015560c082015181600601908051906020019061151a929190611db1565b5060e0820151816007019080519060200190611537929190611db1565b50610100820151816008019080519060200190611555929190611db1565b506101208201518160090160006101000a81548160ff0219169083151502179055509050507f9f204c215b1f4f43a33a1b7272e476938a219d677894d59937dfb6e1554a2ab28585338d8c8e8d8d6040516115b7989796959493929190612e34565b60405180910390a160008585909180600181540180825580915050600190039060005260206000200160009091929091929091929091925091826115fc929190612eb2565b5050505050505050505050565b60606000828154811061161f5761161e6126ac565b5b90600052602060002001805461163490612a14565b80601f016020809104026020016040519081016040528092919081815260200182805461166090612a14565b80156116ad5780601f10611682576101008083540402835291602001916116ad565b820191906000526020600020905b81548152906001019060200180831161169057829003601f168201915b50505050509050919050565b60606000806000806060600188886040516116d59291906129cc565b9081526020016040518091039020600101600189896040516116f89291906129cc565b908152602001604051809103902060020160009054906101000a900473ffffffffffffffffffffffffffffffffffffffff1660018a8a60405161173c9291906129cc565b90815260200160405180910390206003015460018b8b6040516117609291906129cc565b90815260200160405180910390206005015460018c8c6040516117849291906129cc565b90815260200160405180910390206004015460018d8d6040516117a89291906129cc565b90815260200160405180910390206000018580546117c590612a14565b80601f01602080910402602001604051908101604052809291908181526020018280546117f190612a14565b801561183e5780601f106118135761010080835404028352916020019161183e565b820191906000526020600020905b81548152906001019060200180831161182157829003601f168201915b5050505050955080805461185190612a14565b80601f016020809104026020016040519081016040528092919081815260200182805461187d90612a14565b80156118ca5780601f1061189f576101008083540402835291602001916118ca565b820191906000526020600020905b8154815290600101906020018083116118ad57829003601f168201915b505050505090509550955095509550955095509295509295509295565b6000600183836040516118fb9291906129cc565b9081526020016040518091039020905080600401543414611951576040517f08c379a000000000000000000000000000000000000000000000000000000000815260040161194890612fce565b60405180910390fd5b8060030154421115611998576040517f08c379a000000000000000000000000000000000000000000000000000000000815260040161198f9061303a565b60405180910390fd5b80600501548160060180549050106119e5576040517f08c379a00000000000000000000000000000000000000000000000000000000081526004016119dc906130a6565b60405180910390fd5b60005b81600601805490508160ff161015611abe573373ffffffffffffffffffffffffffffffffffffffff16826006018260ff1681548110611a2a57611a296126ac565b5b9060005260206000200160009054906101000a900473ffffffffffffffffffffffffffffffffffffffff1673ffffffffffffffffffffffffffffffffffffffff1603611aab576040517f08c379a0000000000000000000000000000000000000000000000000000000008152600401611aa290613112565b60405180910390fd5b8080611ab6906127ce565b9150506119e8565b5080600601339080600181540180825580915050600190039060005260206000200160009091909190916101000a81548173ffffffffffffffffffffffffffffffffffffffff021916908373ffffffffffffffffffffffffffffffffffffffff1602179055507fabcce16e56e262edb0b0f42f67799f9af66be1921b5e65285ea5c687d9b1e618838333604051611b5793929190613132565b60405180910390a1505050565b600181805160208101820180518482526020830160208501208183528095505050505050600091509050806000018054611b9d90612a14565b80601f0160208091040260200160405190810160405280929190818152602001828054611bc990612a14565b8015611c165780601f10611beb57610100808354040283529160200191611c16565b820191906000526020600020905b815481529060010190602001808311611bf957829003601f168201915b505050505090806001018054611c2b90612a14565b80601f0160208091040260200160405190810160405280929190818152602001828054611c5790612a14565b8015611ca45780601f10611c7957610100808354040283529160200191611ca4565b820191906000526020600020905b815481529060010190602001808311611c8757829003601f168201915b5050505050908060020160009054906101000a900473ffffffffffffffffffffffffffffffffffffffff16908060030154908060040154908060050154908060090160009054906101000a900460ff16905087565b6060600060018484604051611d0f9291906129cc565b9081526020016040518091039020905080600601805480602002602001604051908101604052809291908181526020018280548015611da357602002820191906000526020600020905b8160009054906101000a900473ffffffffffffffffffffffffffffffffffffffff1673ffffffffffffffffffffffffffffffffffffffff1681526020019060010190808311611d59575b505050505091505092915050565b828054828255906000526020600020908101928215611e2a579160200282015b82811115611e295782518260006101000a81548173ffffffffffffffffffffffffffffffffffffffff021916908373ffffffffffffffffffffffffffffffffffffffff16021790555091602001919060010190611dd1565b5b509050611e379190611e3b565b5090565b5b80821115611e54576000816000905550600101611e3c565b5090565b6000819050919050565b611e6b81611e58565b82525050565b6000602082019050611e866000830184611e62565b92915050565b6000604051905090565b600080fd5b600080fd5b600080fd5b600080fd5b6000601f19601f8301169050919050565b7f4e487b7100000000000000000000000000000000000000000000000000000000600052604160045260246000fd5b611ef382611eaa565b810181811067ffffffffffffffff82111715611f1257611f11611ebb565b5b80604052505050565b6000611f25611e8c565b9050611f318282611eea565b919050565b600067ffffffffffffffff821115611f5157611f50611ebb565b5b611f5a82611eaa565b9050602081019050919050565b82818337600083830152505050565b6000611f89611f8484611f36565b611f1b565b905082815260208101848484011115611fa557611fa4611ea5565b5b611fb0848285611f67565b509392505050565b600082601f830112611fcd57611fcc611ea0565b5b8135611fdd848260208601611f76565b91505092915050565b600060208284031215611ffc57611ffb611e96565b5b600082013567ffffffffffffffff81111561201a57612019611e9b565b5b61202684828501611fb8565b91505092915050565b600073ffffffffffffffffffffffffffffffffffffffff82169050919050565b600061205a8261202f565b9050919050565b61206a8161204f565b811461207557600080fd5b50565b60008135905061208781612061565b92915050565b600080604083850312156120a4576120a3611e96565b5b600083013567ffffffffffffffff8111156120c2576120c1611e9b565b5b6120ce85828601611fb8565b92505060206120df85828601612078565b9150509250929050565b600080fd5b600080fd5b60008083601f84011261210957612108611ea0565b5b8235905067ffffffffffffffff811115612126576121256120e9565b5b602083019150836001820283011115612142576121416120ee565b5b9250929050565b600080602083850312156121605761215f611e96565b5b600083013567ffffffffffffffff81111561217e5761217d611e9b565b5b61218a858286016120f3565b92509250509250929050565b61219f81611e58565b81146121aa57600080fd5b50565b6000813590506121bc81612196565b92915050565b600080600080600080600060a0888a0312156121e1576121e0611e96565b5b60006121ef8a828b016121ad565b97505060206122008a828b016121ad565b96505060406122118a828b016121ad565b955050606088013567ffffffffffffffff81111561223257612231611e9b565b5b61223e8a828b016120f3565b9450945050608088013567ffffffffffffffff81111561226157612260611e9b565b5b61226d8a828b016120f3565b925092505092959891949750929550565b60006020828403121561229457612293611e96565b5b60006122a2848285016121ad565b91505092915050565b600081519050919050565b600082825260208201905092915050565b60005b838110156122e55780820151818401526020810190506122ca565b60008484015250505050565b60006122fc826122ab565b61230681856122b6565b93506123168185602086016122c7565b61231f81611eaa565b840191505092915050565b6000602082019050818103600083015261234481846122f1565b905092915050565b6123558161204f565b82525050565b600060c082019050818103600083015261237581896122f1565b9050612384602083018861234c565b6123916040830187611e62565b61239e6060830186611e62565b6123ab6080830185611e62565b81810360a08301526123bd81846122f1565b9050979650505050505050565b60008115159050919050565b6123df816123ca565b82525050565b600060e08201905081810360008301526123ff818a6122f1565b9050818103602083015261241381896122f1565b9050612422604083018861234c565b61242f6060830187611e62565b61243c6080830186611e62565b61244960a0830185611e62565b61245660c08301846123d6565b98975050505050505050565b600081519050919050565b600082825260208201905092915050565b6000819050602082019050919050565b60006124998261202f565b9050919050565b6124a98161248e565b82525050565b60006124bb83836124a0565b60208301905092915050565b6000602082019050919050565b60006124df82612462565b6124e9818561246d565b93506124f48361247e565b8060005b8381101561252557815161250c88826124af565b9750612517836124c7565b9250506001810190506124f8565b5085935050505092915050565b6000602082019050818103600083015261254c81846124d4565b905092915050565b600081905092915050565b600061256a826122ab565b6125748185612554565b93506125848185602086016122c7565b80840191505092915050565b600061259c828461255f565b915081905092915050565b7f4e487b7100000000000000000000000000000000000000000000000000000000600052601160045260246000fd5b60006125e182611e58565b91506125ec83611e58565b9250828203905081811115612604576126036125a7565b5b92915050565b600061261582611e58565b915061262083611e58565b925082820261262e81611e58565b91508282048414831517612645576126446125a7565b5b5092915050565b7f4e487b7100000000000000000000000000000000000000000000000000000000600052601260045260246000fd5b600061268682611e58565b915061269183611e58565b9250826126a1576126a061264c565b5b828204905092915050565b7f4e487b7100000000000000000000000000000000000000000000000000000000600052603260045260246000fd5b60006126e682611e58565b91506126f183611e58565b9250828201905080821115612709576127086125a7565b5b92915050565b600081905092915050565b50565b600061272a60008361270f565b91506127358261271a565b600082019050919050565b600061274b8261271d565b9150819050919050565b7f4661696c656420746f2073656e64204574686572000000000000000000000000600082015250565b600061278b6014836122b6565b915061279682612755565b602082019050919050565b600060208201905081810360008301526127ba8161277e565b9050919050565b600060ff82169050919050565b60006127d9826127c1565b915060ff82036127ec576127eb6125a7565b5b600182019050919050565b7f4e4f5420415554484f52495a4544000000000000000000000000000000000000600082015250565b600061282d600e836122b6565b9150612838826127f7565b602082019050919050565b6000602082019050818103600083015261285c81612820565b9050919050565b7f4e4f205253565020544f20434f4e4649524d0000000000000000000000000000600082015250565b60006128996012836122b6565b91506128a482612863565b602082019050919050565b600060208201905081810360008301526128c88161288c565b9050919050565b7f414c524541445920434c41494d45440000000000000000000000000000000000600082015250565b6000612905600f836122b6565b9150612910826128cf565b602082019050919050565b60006020820190508181036000830152612934816128f8565b9050919050565b7f414c52454144592050414944204f555400000000000000000000000000000000600082015250565b60006129716010836122b6565b915061297c8261293b565b602082019050919050565b600060208201905081810360008301526129a081612964565b9050919050565b60006129b38385612554565b93506129c0838584611f67565b82840190509392505050565b60006129d98284866129a7565b91508190509392505050565b7f4e487b7100000000000000000000000000000000000000000000000000000000600052602260045260246000fd5b60006002820490506001821680612a2c57607f821691505b602082108103612a3f57612a3e6129e5565b5b50919050565b7f414c524541445920504149440000000000000000000000000000000000000000600082015250565b6000612a7b600c836122b6565b9150612a8682612a45565b602082019050919050565b60006020820190508181036000830152612aaa81612a6e565b9050919050565b7f544f4f204541524c590000000000000000000000000000000000000000000000600082015250565b6000612ae76009836122b6565b9150612af282612ab1565b602082019050919050565b60006020820190508181036000830152612b1681612ada565b9050919050565b7f4d555354204245204556454e54204f574e455200000000000000000000000000600082015250565b6000612b536013836122b6565b9150612b5e82612b1d565b602082019050919050565b60006020820190508181036000830152612b8281612b46565b9050919050565b60008190508160005260206000209050919050565b60006020601f8301049050919050565b600082821b905092915050565b600060088302612beb7fffffffffffffffffffffffffffffffffffffffffffffffffffffffffffffffff82612bae565b612bf58683612bae565b95508019841693508086168417925050509392505050565b6000819050919050565b6000612c32612c2d612c2884611e58565b612c0d565b611e58565b9050919050565b6000819050919050565b612c4c83612c17565b612c60612c5882612c39565b848454612bbb565b825550505050565b600090565b612c75612c68565b612c80818484612c43565b505050565b5b81811015612ca457612c99600082612c6d565b600181019050612c86565b5050565b601f821115612ce957612cba81612b89565b612cc384612b9e565b81016020851015612cd2578190505b612ce6612cde85612b9e565b830182612c85565b50505b505050565b600082821c905092915050565b6000612d0c60001984600802612cee565b1980831691505092915050565b6000612d258383612cfb565b9150826002028217905092915050565b612d3e826122ab565b67ffffffffffffffff811115612d5757612d56611ebb565b5b612d618254612a14565b612d6c828285612ca8565b600060209050601f831160018114612d9f5760008415612d8d578287015190505b612d978582612d19565b865550612dff565b601f198416612dad86612b89565b60005b82811015612dd557848901518255600182019150602085019450602081019050612db0565b86831015612df25784890151612dee601f891682612cfb565b8355505b6001600288020188555050505b505050505050565b6000612e1383856122b6565b9350612e20838584611f67565b612e2983611eaa565b840190509392505050565b600060c0820190508181036000830152612e4f818a8c612e07565b9050612e5e602083018961234c565b612e6b6040830188611e62565b612e786060830187611e62565b612e856080830186611e62565b81810360a0830152612e98818486612e07565b90509998505050505050505050565b600082905092915050565b612ebc8383612ea7565b67ffffffffffffffff811115612ed557612ed4611ebb565b5b612edf8254612a14565b612eea828285612ca8565b6000601f831160018114612f195760008415612f07578287013590505b612f118582612d19565b865550612f79565b601f198416612f2786612b89565b60005b82811015612f4f57848901358255600182019150602085019450602081019050612f2a565b86831015612f6c5784890135612f68601f891682612cfb565b8355505b6001600288020188555050505b50505050505050565b7f4e4f5420454e4f55474800000000000000000000000000000000000000000000600082015250565b6000612fb8600a836122b6565b9150612fc382612f82565b602082019050919050565b60006020820190508181036000830152612fe781612fab565b9050919050565b7f414c52454144592048415050454e454400000000000000000000000000000000600082015250565b60006130246010836122b6565b915061302f82612fee565b602082019050919050565b6000602082019050818103600083015261305381613017565b9050919050565b7f54686973206576656e7420686173207265616368656420636170616369747900600082015250565b6000613090601f836122b6565b915061309b8261305a565b602082019050919050565b600060208201905081810360008301526130bf81613083565b9050919050565b7f414c524541445920434f4e4649524d4544000000000000000000000000000000600082015250565b60006130fc6011836122b6565b9150613107826130c6565b602082019050919050565b6000602082019050818103600083015261312b816130ef565b9050919050565b6000604082019050818103600083015261314d818587612e07565b905061315c602083018461234c565b94935050505056fea26469706673582212205ed7ab22b7135ae75df37d3d463b6294fb2939b9155042d22d6846046ba590a164736f6c63430008110033",
  "linkReferences": {},
  "deployedLinkReferences": {}
}