{
  "_format": "hh-sol-artifact-1",
  "contractName": "EventHub",
  "sourceName": "contracts/EventHub.sol",
  "abi": [
    {
      "anonymous": false,
      "inputs": [
        {
          "indexed": false,
          "internalType": "string",
          "name": "eventID",
          "type": "string"
        },
        {
          "indexed": false,
          "internalType": "address",
          "name": "attendeeAddress",
          "type": "address"
        }
      ],
      "name": "ConfirmedAttendee",
      "type": "event"
    },
    {
      "anonymous": false,
      "inputs": [
        {
          "indexed": false,
          "internalType": "string",
          "name": "eventID",
          "type": "string"
        }
      ],
      "name": "DepositsPaidOut",
      "type": "event"
    },
    {
      "anonymous": false,
      "inputs": [
        {
          "indexed": false,
          "internalType": "string",
          "name": "eventID",
          "type": "string"
        },
        {
          "indexed": false,
          "internalType": "address",
          "name": "creatorAddress",
          "type": "address"
        },
        {
          "indexed": false,
          "internalType": "uint256",
          "name": "eventTimestamp",
          "type": "uint256"
        },
        {
          "indexed": false,
          "internalType": "uint256",
          "name": "maxCapacity",
          "type": "uint256"
        },
        {
          "indexed": false,
          "internalType": "uint256",
          "name": "deposit",
          "type": "uint256"
        },
        {
          "indexed": false,
          "internalType": "string",
          "name": "eventDataCID",
          "type": "string"
        }
      ],
      "name": "NewEventCreated",
      "type": "event"
    },
    {
      "anonymous": false,
      "inputs": [
        {
          "indexed": false,
          "internalType": "string",
          "name": "eventID",
          "type": "string"
        },
        {
          "indexed": false,
          "internalType": "address",
          "name": "attendeeAddress",
          "type": "address"
        }
      ],
      "name": "NewRSVP",
      "type": "event"
    },
    {
      "anonymous": false,
      "inputs": [
        {
          "indexed": false,
          "internalType": "string",
          "name": "Message",
          "type": "string"
        }
      ],
      "name": "Payout",
      "type": "event"
    },
    {
      "inputs": [
        {
          "internalType": "string",
          "name": "eventId",
          "type": "string"
        }
      ],
      "name": "confirmAllAttendees",
      "outputs": [],
      "stateMutability": "nonpayable",
      "type": "function"
    },
    {
      "inputs": [
        {
          "internalType": "string",
          "name": "eventId",
          "type": "string"
        },
        {
          "internalType": "address",
          "name": "attendee",
          "type": "address"
        }
      ],
      "name": "confirmAttendee",
      "outputs": [],
      "stateMutability": "nonpayable",
      "type": "function"
    },
    {
      "inputs": [
        {
          "internalType": "uint256",
          "name": "eventTimestamp",
          "type": "uint256"
        },
        {
          "internalType": "uint256",
          "name": "deposit",
          "type": "uint256"
        },
        {
          "internalType": "uint256",
          "name": "maxCapacity",
          "type": "uint256"
        },
        {
          "internalType": "string",
          "name": "eventDataCID",
          "type": "string"
        },
        {
          "internalType": "string",
          "name": "eventId",
          "type": "string"
        }
      ],
      "name": "createNewEvent",
      "outputs": [],
      "stateMutability": "nonpayable",
      "type": "function"
    },
    {
      "inputs": [
        {
          "internalType": "string",
          "name": "eventId",
          "type": "string"
        }
      ],
      "name": "createNewRSVP",
      "outputs": [],
      "stateMutability": "payable",
      "type": "function"
    },
    {
      "inputs": [],
      "name": "getBalance",
      "outputs": [
        {
          "internalType": "uint256",
          "name": "",
          "type": "uint256"
        }
      ],
      "stateMutability": "view",
      "type": "function"
    },
    {
      "inputs": [
        {
          "internalType": "string",
          "name": "eventId",
          "type": "string"
        }
      ],
      "name": "getConfirmedRSVPs",
      "outputs": [
        {
          "internalType": "address payable[]",
          "name": "",
          "type": "address[]"
        }
      ],
      "stateMutability": "view",
      "type": "function"
    },
    {
      "inputs": [
        {
          "internalType": "string",
          "name": "eventID",
          "type": "string"
        }
      ],
      "name": "getEvent",
      "outputs": [
        {
          "internalType": "string",
          "name": "eventDataCID",
          "type": "string"
        },
        {
          "internalType": "address",
          "name": "eventOwner",
          "type": "address"
        },
        {
          "internalType": "uint256",
          "name": "eventTimestamp",
          "type": "uint256"
        },
        {
          "internalType": "uint256",
          "name": "maxCapacity",
          "type": "uint256"
        },
        {
          "internalType": "uint256",
          "name": "deposit",
          "type": "uint256"
        },
        {
          "internalType": "string",
          "name": "eventId",
          "type": "string"
        }
      ],
      "stateMutability": "view",
      "type": "function"
    },
    {
      "inputs": [
        {
          "internalType": "uint256",
          "name": "i",
          "type": "uint256"
        }
      ],
      "name": "getEventId",
      "outputs": [
        {
          "internalType": "string",
          "name": "",
          "type": "string"
        }
      ],
      "stateMutability": "view",
      "type": "function"
    },
    {
      "inputs": [],
      "name": "getEventLength",
      "outputs": [
        {
          "internalType": "uint256",
          "name": "",
          "type": "uint256"
        }
      ],
      "stateMutability": "view",
      "type": "function"
    },
    {
      "inputs": [
        {
          "internalType": "string",
          "name": "",
          "type": "string"
        }
      ],
      "name": "idToEvent",
      "outputs": [
        {
          "internalType": "string",
          "name": "eventId",
          "type": "string"
        },
        {
          "internalType": "string",
          "name": "eventDataCID",
          "type": "string"
        },
        {
          "internalType": "address",
          "name": "eventOwner",
          "type": "address"
        },
        {
          "internalType": "uint256",
          "name": "eventTimestamp",
          "type": "uint256"
        },
        {
          "internalType": "uint256",
          "name": "deposit",
          "type": "uint256"
        },
        {
          "internalType": "uint256",
          "name": "maxCapacity",
          "type": "uint256"
        },
        {
          "internalType": "bool",
          "name": "paidOut",
          "type": "bool"
        }
      ],
      "stateMutability": "view",
      "type": "function"
    },
    {
      "inputs": [
        {
          "internalType": "string",
          "name": "eventId",
          "type": "string"
        }
      ],
      "name": "payOut",
      "outputs": [],
      "stateMutability": "nonpayable",
      "type": "function"
    }
  ],
  "bytecode": "0x608060405234801561001057600080fd5b50612b3e806100206000396000f3fe60806040526004361061009c5760003560e01c8063b07e369711610064578063b07e369714610172578063c3be559b1461019b578063e1902063146101d8578063e495106b1461021a578063ebf2325714610236578063ff910c9b146102795761009c565b806312065fe0146100a1578063133280b0146100cc5780635c98dfa1146100f55780637130026e14610120578063aad4ba3914610149575b600080fd5b3480156100ad57600080fd5b506100b66102b6565b6040516100c391906118ed565b60405180910390f35b3480156100d857600080fd5b506100f360048036038101906100ee9190611a62565b6102be565b005b34801561010157600080fd5b5061010a61058d565b60405161011791906118ed565b60405180910390f35b34801561012c57600080fd5b5061014760048036038101906101429190611b09565b610599565b005b34801561015557600080fd5b50610170600480360381019061016b9190611bc5565b610943565b005b34801561017e57600080fd5b5061019960048036038101906101949190611c3e565b610ddd565b005b3480156101a757600080fd5b506101c260048036038101906101bd9190611cfa565b611085565b6040516101cf9190611da6565b60405180910390f35b3480156101e457600080fd5b506101ff60048036038101906101fa9190611bc5565b611135565b60405161021196959493929190611dd7565b60405180910390f35b610234600480360381019061022f9190611bc5565b611363565b005b34801561024257600080fd5b5061025d60048036038101906102589190611a62565b6115e0565b6040516102709796959493929190611e61565b60405180910390f35b34801561028557600080fd5b506102a0600480360381019061029b9190611bc5565b611775565b6040516102ad9190611fae565b60405180910390f35b600047905090565b60006001826040516102d0919061200c565b9081526020016040518091039020905063018b820081600301546102f49190612052565b421015610336576040517f08c379a000000000000000000000000000000000000000000000000000000000815260040161032d906120d2565b60405180910390fd5b60008160070180549050826006018054905061035291906120f2565b905060008260040154826103669190612126565b9050600083600701805490508261037d9190612197565b905060005b84600701805490508160ff16101561054e5784600801856007018260ff16815481106103b1576103b06121c8565b5b9060005260206000200160009054906101000a900473ffffffffffffffffffffffffffffffffffffffff169080600181540180825580915050600190039060005260206000200160009091909190916101000a81548173ffffffffffffffffffffffffffffffffffffffff021916908373ffffffffffffffffffffffffffffffffffffffff1602179055506000856007018260ff1681548110610457576104566121c8565b5b9060005260206000200160009054906101000a900473ffffffffffffffffffffffffffffffffffffffff1673ffffffffffffffffffffffffffffffffffffffff168660040154846104a89190612052565b6040516104b490612228565b60006040518083038185875af1925050503d80600081146104f1576040519150601f19603f3d011682016040523d82523d6000602084013e6104f6565b606091505b505090508061053a576040517f08c379a000000000000000000000000000000000000000000000000000000000815260040161053190612289565b60405180910390fd5b508080610546906122b6565b915050610382565b507f951481b5ab03382781591c75ab7640501967f2896d66ab36a6576a1d2c9de5948560405161057e9190611da6565b60405180910390a15050505050565b60008080549050905090565b60006001836040516105ab919061200c565b908152602001604051809103902090508060020160009054906101000a900473ffffffffffffffffffffffffffffffffffffffff1673ffffffffffffffffffffffffffffffffffffffff163373ffffffffffffffffffffffffffffffffffffffff161461064d576040517f08c379a00000000000000000000000000000000000000000000000000000000081526004016106449061232b565b60405180910390fd5b600080600090505b82600601805490508160ff161015610737578373ffffffffffffffffffffffffffffffffffffffff16836006018260ff1681548110610697576106966121c8565b5b9060005260206000200160009054906101000a900473ffffffffffffffffffffffffffffffffffffffff1673ffffffffffffffffffffffffffffffffffffffff160361072457826006018160ff16815481106106f6576106f56121c8565b5b9060005260206000200160009054906101000a900473ffffffffffffffffffffffffffffffffffffffff1691505b808061072f906122b6565b915050610655565b508273ffffffffffffffffffffffffffffffffffffffff168173ffffffffffffffffffffffffffffffffffffffff16146107a6576040517f08c379a000000000000000000000000000000000000000000000000000000000815260040161079d90612397565b60405180910390fd5b60005b82600701805490508160ff16101561087f578373ffffffffffffffffffffffffffffffffffffffff16836007018260ff16815481106107eb576107ea6121c8565b5b9060005260206000200160009054906101000a900473ffffffffffffffffffffffffffffffffffffffff1673ffffffffffffffffffffffffffffffffffffffff160361086c576040517f08c379a000000000000000000000000000000000000000000000000000000000815260040161086390612403565b60405180910390fd5b8080610877906122b6565b9150506107a9565b50600015158260090160009054906101000a900460ff161515146108d8576040517f08c379a00000000000000000000000000000000000000000000000000000000081526004016108cf9061246f565b60405180910390fd5b81600701839080600181540180825580915050600190039060005260206000200160009091909190916101000a81548173ffffffffffffffffffffffffffffffffffffffff021916908373ffffffffffffffffffffffffffffffffffffffff16021790555050505050565b6000600183836040516109579291906124b4565b908152602001604051809103902060405180610140016040529081600082018054610981906124fc565b80601f01602080910402602001604051908101604052809291908181526020018280546109ad906124fc565b80156109fa5780601f106109cf576101008083540402835291602001916109fa565b820191906000526020600020905b8154815290600101906020018083116109dd57829003601f168201915b50505050508152602001600182018054610a13906124fc565b80601f0160208091040260200160405190810160405280929190818152602001828054610a3f906124fc565b8015610a8c5780601f10610a6157610100808354040283529160200191610a8c565b820191906000526020600020905b815481529060010190602001808311610a6f57829003601f168201915b505050505081526020016002820160009054906101000a900473ffffffffffffffffffffffffffffffffffffffff1673ffffffffffffffffffffffffffffffffffffffff1673ffffffffffffffffffffffffffffffffffffffff16815260200160038201548152602001600482015481526020016005820154815260200160068201805480602002602001604051908101604052809291908181526020018280548015610b8e57602002820191906000526020600020905b8160009054906101000a900473ffffffffffffffffffffffffffffffffffffffff1673ffffffffffffffffffffffffffffffffffffffff1681526020019060010190808311610b44575b5050505050815260200160078201805480602002602001604051908101604052809291908181526020018280548015610c1c57602002820191906000526020600020905b8160009054906101000a900473ffffffffffffffffffffffffffffffffffffffff1673ffffffffffffffffffffffffffffffffffffffff1681526020019060010190808311610bd2575b5050505050815260200160088201805480602002602001604051908101604052809291908181526020018280548015610caa57602002820191906000526020600020905b8160009054906101000a900473ffffffffffffffffffffffffffffffffffffffff1673ffffffffffffffffffffffffffffffffffffffff1681526020019060010190808311610c60575b505050505081526020016009820160009054906101000a900460ff1615151515815250509050806040015173ffffffffffffffffffffffffffffffffffffffff163373ffffffffffffffffffffffffffffffffffffffff1614610d42576040517f08c379a0000000000000000000000000000000000000000000000000000000008152600401610d399061232b565b60405180910390fd5b60005b8160c00151518160ff161015610dd757610dc484848080601f016020809104026020016040519081016040528093929190818152602001838380828437600081840152601f19601f820116905080830192505050505050508360c001518360ff1681518110610db757610db66121c8565b5b6020026020010151610599565b8080610dcf906122b6565b915050610d45565b50505050565b606080606060405180610140016040528086868080601f016020809104026020016040519081016040528093929190818152602001838380828437600081840152601f19601f82011690508083019250505050505050815260200188888080601f016020809104026020016040519081016040528093929190818152602001838380828437600081840152601f19601f8201169050808301925050505050505081526020013373ffffffffffffffffffffffffffffffffffffffff1681526020018b81526020018a81526020018981526020018481526020018381526020018281526020016000151581525060018686604051610edb9291906124b4565b90815260200160405180910390206000820151816000019081610efe91906126d9565b506020820151816001019081610f1491906126d9565b5060408201518160020160006101000a81548173ffffffffffffffffffffffffffffffffffffffff021916908373ffffffffffffffffffffffffffffffffffffffff160217905550606082015181600301556080820151816004015560a0820151816005015560c0820151816006019080519060200190610f9692919061182d565b5060e0820151816007019080519060200190610fb392919061182d565b50610100820151816008019080519060200190610fd192919061182d565b506101208201518160090160006101000a81548160ff0219169083151502179055509050507f9f204c215b1f4f43a33a1b7272e476938a219d677894d59937dfb6e1554a2ab28585338d8c8e8d8d6040516110339897969594939291906127d8565b60405180910390a16000858590918060018154018082558091505060019003906000526020600020016000909192909192909192909192509182611078929190612856565b5050505050505050505050565b60606000828154811061109b5761109a6121c8565b5b9060005260206000200180546110b0906124fc565b80601f01602080910402602001604051908101604052809291908181526020018280546110dc906124fc565b80156111295780601f106110fe57610100808354040283529160200191611129565b820191906000526020600020905b81548152906001019060200180831161110c57829003601f168201915b50505050509050919050565b60606000806000806060600188886040516111519291906124b4565b9081526020016040518091039020600101600189896040516111749291906124b4565b908152602001604051809103902060020160009054906101000a900473ffffffffffffffffffffffffffffffffffffffff1660018a8a6040516111b89291906124b4565b90815260200160405180910390206003015460018b8b6040516111dc9291906124b4565b90815260200160405180910390206005015460018c8c6040516112009291906124b4565b90815260200160405180910390206004015460018d8d6040516112249291906124b4565b9081526020016040518091039020600001858054611241906124fc565b80601f016020809104026020016040519081016040528092919081815260200182805461126d906124fc565b80156112ba5780601f1061128f576101008083540402835291602001916112ba565b820191906000526020600020905b81548152906001019060200180831161129d57829003601f168201915b505050505095508080546112cd906124fc565b80601f01602080910402602001604051908101604052809291908181526020018280546112f9906124fc565b80156113465780601f1061131b57610100808354040283529160200191611346565b820191906000526020600020905b81548152906001019060200180831161132957829003601f168201915b505050505090509550955095509550955095509295509295509295565b6000600183836040516113779291906124b4565b90815260200160405180910390209050806004015434146113cd576040517f08c379a00000000000000000000000000000000000000000000000000000000081526004016113c490612972565b60405180910390fd5b8060030154421115611414576040517f08c379a000000000000000000000000000000000000000000000000000000000815260040161140b906129de565b60405180910390fd5b8060050154816006018054905010611461576040517f08c379a000000000000000000000000000000000000000000000000000000000815260040161145890612a4a565b60405180910390fd5b60005b81600601805490508160ff16101561153a573373ffffffffffffffffffffffffffffffffffffffff16826006018260ff16815481106114a6576114a56121c8565b5b9060005260206000200160009054906101000a900473ffffffffffffffffffffffffffffffffffffffff1673ffffffffffffffffffffffffffffffffffffffff1603611527576040517f08c379a000000000000000000000000000000000000000000000000000000000815260040161151e90612ab6565b60405180910390fd5b8080611532906122b6565b915050611464565b5080600601339080600181540180825580915050600190039060005260206000200160009091909190916101000a81548173ffffffffffffffffffffffffffffffffffffffff021916908373ffffffffffffffffffffffffffffffffffffffff1602179055507fabcce16e56e262edb0b0f42f67799f9af66be1921b5e65285ea5c687d9b1e6188383336040516115d393929190612ad6565b60405180910390a1505050565b600181805160208101820180518482526020830160208501208183528095505050505050600091509050806000018054611619906124fc565b80601f0160208091040260200160405190810160405280929190818152602001828054611645906124fc565b80156116925780601f1061166757610100808354040283529160200191611692565b820191906000526020600020905b81548152906001019060200180831161167557829003601f168201915b5050505050908060010180546116a7906124fc565b80601f01602080910402602001604051908101604052809291908181526020018280546116d3906124fc565b80156117205780601f106116f557610100808354040283529160200191611720565b820191906000526020600020905b81548152906001019060200180831161170357829003601f168201915b5050505050908060020160009054906101000a900473ffffffffffffffffffffffffffffffffffffffff16908060030154908060040154908060050154908060090160009054906101000a900460ff16905087565b606060006001848460405161178b9291906124b4565b908152602001604051809103902090508060060180548060200260200160405190810160405280929190818152602001828054801561181f57602002820191906000526020600020905b8160009054906101000a900473ffffffffffffffffffffffffffffffffffffffff1673ffffffffffffffffffffffffffffffffffffffff16815260200190600101908083116117d5575b505050505091505092915050565b8280548282559060005260206000209081019282156118a6579160200282015b828111156118a55782518260006101000a81548173ffffffffffffffffffffffffffffffffffffffff021916908373ffffffffffffffffffffffffffffffffffffffff1602179055509160200191906001019061184d565b5b5090506118b391906118b7565b5090565b5b808211156118d05760008160009055506001016118b8565b5090565b6000819050919050565b6118e7816118d4565b82525050565b600060208201905061190260008301846118de565b92915050565b6000604051905090565b600080fd5b600080fd5b600080fd5b600080fd5b6000601f19601f8301169050919050565b7f4e487b7100000000000000000000000000000000000000000000000000000000600052604160045260246000fd5b61196f82611926565b810181811067ffffffffffffffff8211171561198e5761198d611937565b5b80604052505050565b60006119a1611908565b90506119ad8282611966565b919050565b600067ffffffffffffffff8211156119cd576119cc611937565b5b6119d682611926565b9050602081019050919050565b82818337600083830152505050565b6000611a05611a00846119b2565b611997565b905082815260208101848484011115611a2157611a20611921565b5b611a2c8482856119e3565b509392505050565b600082601f830112611a4957611a4861191c565b5b8135611a598482602086016119f2565b91505092915050565b600060208284031215611a7857611a77611912565b5b600082013567ffffffffffffffff811115611a9657611a95611917565b5b611aa284828501611a34565b91505092915050565b600073ffffffffffffffffffffffffffffffffffffffff82169050919050565b6000611ad682611aab565b9050919050565b611ae681611acb565b8114611af157600080fd5b50565b600081359050611b0381611add565b92915050565b60008060408385031215611b2057611b1f611912565b5b600083013567ffffffffffffffff811115611b3e57611b3d611917565b5b611b4a85828601611a34565b9250506020611b5b85828601611af4565b9150509250929050565b600080fd5b600080fd5b60008083601f840112611b8557611b8461191c565b5b8235905067ffffffffffffffff811115611ba257611ba1611b65565b5b602083019150836001820283011115611bbe57611bbd611b6a565b5b9250929050565b60008060208385031215611bdc57611bdb611912565b5b600083013567ffffffffffffffff811115611bfa57611bf9611917565b5b611c0685828601611b6f565b92509250509250929050565b611c1b816118d4565b8114611c2657600080fd5b50565b600081359050611c3881611c12565b92915050565b600080600080600080600060a0888a031215611c5d57611c5c611912565b5b6000611c6b8a828b01611c29565b9750506020611c7c8a828b01611c29565b9650506040611c8d8a828b01611c29565b955050606088013567ffffffffffffffff811115611cae57611cad611917565b5b611cba8a828b01611b6f565b9450945050608088013567ffffffffffffffff811115611cdd57611cdc611917565b5b611ce98a828b01611b6f565b925092505092959891949750929550565b600060208284031215611d1057611d0f611912565b5b6000611d1e84828501611c29565b91505092915050565b600081519050919050565b600082825260208201905092915050565b60005b83811015611d61578082015181840152602081019050611d46565b60008484015250505050565b6000611d7882611d27565b611d828185611d32565b9350611d92818560208601611d43565b611d9b81611926565b840191505092915050565b60006020820190508181036000830152611dc08184611d6d565b905092915050565b611dd181611acb565b82525050565b600060c0820190508181036000830152611df18189611d6d565b9050611e006020830188611dc8565b611e0d60408301876118de565b611e1a60608301866118de565b611e2760808301856118de565b81810360a0830152611e398184611d6d565b9050979650505050505050565b60008115159050919050565b611e5b81611e46565b82525050565b600060e0820190508181036000830152611e7b818a611d6d565b90508181036020830152611e8f8189611d6d565b9050611e9e6040830188611dc8565b611eab60608301876118de565b611eb860808301866118de565b611ec560a08301856118de565b611ed260c0830184611e52565b98975050505050505050565b600081519050919050565b600082825260208201905092915050565b6000819050602082019050919050565b6000611f1582611aab565b9050919050565b611f2581611f0a565b82525050565b6000611f378383611f1c565b60208301905092915050565b6000602082019050919050565b6000611f5b82611ede565b611f658185611ee9565b9350611f7083611efa565b8060005b83811015611fa1578151611f888882611f2b565b9750611f9383611f43565b925050600181019050611f74565b5085935050505092915050565b60006020820190508181036000830152611fc88184611f50565b905092915050565b600081905092915050565b6000611fe682611d27565b611ff08185611fd0565b9350612000818560208601611d43565b80840191505092915050565b60006120188284611fdb565b915081905092915050565b7f4e487b7100000000000000000000000000000000000000000000000000000000600052601160045260246000fd5b600061205d826118d4565b9150612068836118d4565b92508282019050808211156120805761207f612023565b5b92915050565b7f544f4f204541524c590000000000000000000000000000000000000000000000600082015250565b60006120bc600983611d32565b91506120c782612086565b602082019050919050565b600060208201905081810360008301526120eb816120af565b9050919050565b60006120fd826118d4565b9150612108836118d4565b92508282039050818111156121205761211f612023565b5b92915050565b6000612131826118d4565b915061213c836118d4565b925082820261214a816118d4565b9150828204841483151761216157612160612023565b5b5092915050565b7f4e487b7100000000000000000000000000000000000000000000000000000000600052601260045260246000fd5b60006121a2826118d4565b91506121ad836118d4565b9250826121bd576121bc612168565b5b828204905092915050565b7f4e487b7100000000000000000000000000000000000000000000000000000000600052603260045260246000fd5b600081905092915050565b50565b60006122126000836121f7565b915061221d82612202565b600082019050919050565b600061223382612205565b9150819050919050565b7f4661696c656420746f2073656e64204574686572000000000000000000000000600082015250565b6000612273601483611d32565b915061227e8261223d565b602082019050919050565b600060208201905081810360008301526122a281612266565b9050919050565b600060ff82169050919050565b60006122c1826122a9565b915060ff82036122d4576122d3612023565b5b600182019050919050565b7f4e4f5420415554484f52495a4544000000000000000000000000000000000000600082015250565b6000612315600e83611d32565b9150612320826122df565b602082019050919050565b6000602082019050818103600083015261234481612308565b9050919050565b7f4e4f205253565020544f20434f4e4649524d0000000000000000000000000000600082015250565b6000612381601283611d32565b915061238c8261234b565b602082019050919050565b600060208201905081810360008301526123b081612374565b9050919050565b7f414c524541445920434c41494d45440000000000000000000000000000000000600082015250565b60006123ed600f83611d32565b91506123f8826123b7565b602082019050919050565b6000602082019050818103600083015261241c816123e0565b9050919050565b7f414c52454144592050414944204f555400000000000000000000000000000000600082015250565b6000612459601083611d32565b915061246482612423565b602082019050919050565b600060208201905081810360008301526124888161244c565b9050919050565b600061249b8385611fd0565b93506124a88385846119e3565b82840190509392505050565b60006124c182848661248f565b91508190509392505050565b7f4e487b7100000000000000000000000000000000000000000000000000000000600052602260045260246000fd5b6000600282049050600182168061251457607f821691505b602082108103612527576125266124cd565b5b50919050565b60008190508160005260206000209050919050565b60006020601f8301049050919050565b600082821b905092915050565b60006008830261258f7fffffffffffffffffffffffffffffffffffffffffffffffffffffffffffffffff82612552565b6125998683612552565b95508019841693508086168417925050509392505050565b6000819050919050565b60006125d66125d16125cc846118d4565b6125b1565b6118d4565b9050919050565b6000819050919050565b6125f0836125bb565b6126046125fc826125dd565b84845461255f565b825550505050565b600090565b61261961260c565b6126248184846125e7565b505050565b5b818110156126485761263d600082612611565b60018101905061262a565b5050565b601f82111561268d5761265e8161252d565b61266784612542565b81016020851015612676578190505b61268a61268285612542565b830182612629565b50505b505050565b600082821c905092915050565b60006126b060001984600802612692565b1980831691505092915050565b60006126c9838361269f565b9150826002028217905092915050565b6126e282611d27565b67ffffffffffffffff8111156126fb576126fa611937565b5b61270582546124fc565b61271082828561264c565b600060209050601f8311600181146127435760008415612731578287015190505b61273b85826126bd565b8655506127a3565b601f1984166127518661252d565b60005b8281101561277957848901518255600182019150602085019450602081019050612754565b868310156127965784890151612792601f89168261269f565b8355505b6001600288020188555050505b505050505050565b60006127b78385611d32565b93506127c48385846119e3565b6127cd83611926565b840190509392505050565b600060c08201905081810360008301526127f3818a8c6127ab565b90506128026020830189611dc8565b61280f60408301886118de565b61281c60608301876118de565b61282960808301866118de565b81810360a083015261283c8184866127ab565b90509998505050505050505050565b600082905092915050565b612860838361284b565b67ffffffffffffffff81111561287957612878611937565b5b61288382546124fc565b61288e82828561264c565b6000601f8311600181146128bd57600084156128ab578287013590505b6128b585826126bd565b86555061291d565b601f1984166128cb8661252d565b60005b828110156128f3578489013582556001820191506020850194506020810190506128ce565b86831015612910578489013561290c601f89168261269f565b8355505b6001600288020188555050505b50505050505050565b7f4e4f5420454e4f55474800000000000000000000000000000000000000000000600082015250565b600061295c600a83611d32565b915061296782612926565b602082019050919050565b6000602082019050818103600083015261298b8161294f565b9050919050565b7f414c52454144592048415050454e454400000000000000000000000000000000600082015250565b60006129c8601083611d32565b91506129d382612992565b602082019050919050565b600060208201905081810360008301526129f7816129bb565b9050919050565b7f54686973206576656e7420686173207265616368656420636170616369747900600082015250565b6000612a34601f83611d32565b9150612a3f826129fe565b602082019050919050565b60006020820190508181036000830152612a6381612a27565b9050919050565b7f414c524541445920434f4e4649524d4544000000000000000000000000000000600082015250565b6000612aa0601183611d32565b9150612aab82612a6a565b602082019050919050565b60006020820190508181036000830152612acf81612a93565b9050919050565b60006040820190508181036000830152612af18185876127ab565b9050612b006020830184611dc8565b94935050505056fea2646970667358221220820106b813ee15909570c73d2924259d0e8ab2c72fed7c6e30eb381800adf10064736f6c63430008110033",
  "linkReferences": {},
  "deployedLinkReferences": {}
}