{
  "_format": "hh-sol-artifact-1",
  "contractName": "Trigonometry",
  "sourceName": "contracts/Trigonometry.sol",
  "abi": [
    {
      "inputs": [
        {
          "internalType": "uint256",
          "name": "_angle",
          "type": "uint256"
        }
      ],
      "name": "cos",
      "outputs": [
        {
          "internalType": "int256",
          "name": "",
          "type": "int256"
        }
      ],
      "stateMutability": "pure",
      "type": "function"
    },
    {
      "inputs": [
        {
          "internalType": "uint256",
          "name": "_angle",
          "type": "uint256"
        }
      ],
      "name": "sin",
      "outputs": [
        {
          "internalType": "int256",
          "name": "",
          "type": "int256"
        }
      ],
      "stateMutability": "pure",
      "type": "function"
    }
  ],
  "bytecode": "0x610951610053600b82828239805160001a607314610046577f4e487b7100000000000000000000000000000000000000000000000000000000600052600060045260246000fd5b30600052607381538281f3fe73000000000000000000000000000000000000000030146080604052600436106100405760003560e01c8063a58b00ba14610045578063cb5cc10914610075575b600080fd5b61005f600480360381019061005a9190610309565b6100a5565b60405161006c9190610341565b60405180910390f35b61008f600480360381019061008a9190610309565b610111565b60405161009c9190610341565b60405180910390f35b60006110006140006100b791906107ed565b61ffff168211156100ec5761400061ffff1661100061ffff16836100db91906103f0565b6100e59190610821565b9150610101565b61100061ffff16826100fe91906103f0565b91505b61010a82610111565b9050919050565b600080610138836008806004600c6101299190610821565b6101339190610821565b610266565b9050600061015484600480600c61014f9190610821565b610266565b905060008061100061ffff16861614905060008061200061ffff16871614159050816101965782600160106101899190610821565b6101939190610821565b92505b60006101a1846102a3565b61ffff16905060006101be6001866101b991906103f0565b6102a3565b61ffff1690506000600860026101d491906104ca565b8784846101e19190610821565b6101eb91906106ff565b6101f59190610446565b90506000851561021257818461020b919061035c565b9050610221565b818361021e9190610759565b90505b8415610256577fffffffffffffffffffffffffffffffffffffffffffffffffffffffffffffffff8161025391906105e8565b90505b8098505050505050505050919050565b6000600183600261027791906104ca565b6102819190610821565b82600261028e91906104ca565b856102999190610446565b1690509392505050565b6000806040518060600160405280602281526020016108fa6022913990506000600260ff166001856102d591906103f0565b6102df91906106ff565b90506000818301519050809350505050919050565b600081359050610303816108e2565b92915050565b60006020828403121561031b57600080fd5b6000610329848285016102f4565b91505092915050565b61033b81610855565b82525050565b60006020820190506103566000830184610332565b92915050565b600061036782610855565b915061037283610855565b9250817f7fffffffffffffffffffffffffffffffffffffffffffffffffffffffffffffff038313600083121516156103ad576103ac610877565b5b817f80000000000000000000000000000000000000000000000000000000000000000383126000831216156103e5576103e4610877565b5b828201905092915050565b60006103fb8261086d565b91506104068361086d565b9250827fffffffffffffffffffffffffffffffffffffffffffffffffffffffffffffffff0382111561043b5761043a610877565b5b828201905092915050565b60006104518261086d565b915061045c8361086d565b92508261046c5761046b6108a6565b5b828204905092915050565b6000808291508390505b60018511156104c15780860481111561049d5761049c610877565b5b60018516156104ac5780820291505b80810290506104ba856108d5565b9450610481565b94509492505050565b60006104d58261086d565b91506104e08361086d565b925061050d7fffffffffffffffffffffffffffffffffffffffffffffffffffffffffffffffff8484610515565b905092915050565b60008261052557600190506105e1565b8161053357600090506105e1565b8160018114610549576002811461055357610582565b60019150506105e1565b60ff84111561056557610564610877565b5b8360020a91508482111561057c5761057b610877565b5b506105e1565b5060208310610133831016604e8410600b84101617156105b75782820a9050838111156105b2576105b1610877565b5b6105e1565b6105c48484846001610477565b925090508184048111156105db576105da610877565b5b81810290505b9392505050565b60006105f382610855565b91506105fe83610855565b9250827f7fffffffffffffffffffffffffffffffffffffffffffffffffffffffffffffff048211600084136000841316161561063d5761063c610877565b5b817f8000000000000000000000000000000000000000000000000000000000000000058312600084126000841316161561067a57610679610877565b5b827f800000000000000000000000000000000000000000000000000000000000000005821260008413600084121616156106b7576106b6610877565b5b827f7fffffffffffffffffffffffffffffffffffffffffffffffffffffffffffffff05821260008412600084121616156106f4576106f3610877565b5b828202905092915050565b600061070a8261086d565b91506107158361086d565b9250817fffffffffffffffffffffffffffffffffffffffffffffffffffffffffffffffff048311821515161561074e5761074d610877565b5b828202905092915050565b600061076482610855565b915061076f83610855565b9250827f8000000000000000000000000000000000000000000000000000000000000000018212600084121516156107aa576107a9610877565b5b827f7fffffffffffffffffffffffffffffffffffffffffffffffffffffffffffffff0182136000841216156107e2576107e1610877565b5b828203905092915050565b60006107f88261085f565b91506108038361085f565b92508282101561081657610815610877565b5b828203905092915050565b600061082c8261086d565b91506108378361086d565b92508282101561084a57610849610877565b5b828203905092915050565b6000819050919050565b600061ffff82169050919050565b6000819050919050565b7f4e487b7100000000000000000000000000000000000000000000000000000000600052601160045260246000fd5b7f4e487b7100000000000000000000000000000000000000000000000000000000600052601260045260246000fd5b60008160011c9050919050565b6108eb8161086d565b81146108f657600080fd5b5056fe00000c8c18f9252830fb3c56471c51335a8262f16a6d70e276417a7c7d897f617fffa2646970667358221220c46530b41318fbc44575f1a86642ba2780149131328ee0b3d7ce1bdc29c5b6a864736f6c63430008010033",
  "linkReferences": {},
  "deployedLinkReferences": {}
}