{
	"CONTRACT/v2-core-master/contracts/UniswapV2Factory.sol": {
		"UniswapV2Factory": {
			"abi": [
				{
					"inputs": [
						{
							"internalType": "address",
							"name": "_feeToSetter",
							"type": "address"
						}
					],
					"payable": false,
					"stateMutability": "nonpayable",
					"type": "constructor"
				},
				{
					"anonymous": false,
					"inputs": [
						{
							"indexed": true,
							"internalType": "address",
							"name": "token0",
							"type": "address"
						},
						{
							"indexed": true,
							"internalType": "address",
							"name": "token1",
							"type": "address"
						},
						{
							"indexed": false,
							"internalType": "address",
							"name": "pair",
							"type": "address"
						},
						{
							"indexed": false,
							"internalType": "uint256",
							"name": "",
							"type": "uint256"
						}
					],
					"name": "PairCreated",
					"type": "event"
				},
				{
					"constant": true,
					"inputs": [],
					"name": "INIT_CODE_HASH",
					"outputs": [
						{
							"internalType": "bytes32",
							"name": "",
							"type": "bytes32"
						}
					],
					"payable": false,
					"stateMutability": "view",
					"type": "function"
				},
				{
					"constant": true,
					"inputs": [
						{
							"internalType": "uint256",
							"name": "",
							"type": "uint256"
						}
					],
					"name": "allPairs",
					"outputs": [
						{
							"internalType": "address",
							"name": "",
							"type": "address"
						}
					],
					"payable": false,
					"stateMutability": "view",
					"type": "function"
				},
				{
					"constant": true,
					"inputs": [],
					"name": "allPairsLength",
					"outputs": [
						{
							"internalType": "uint256",
							"name": "",
							"type": "uint256"
						}
					],
					"payable": false,
					"stateMutability": "view",
					"type": "function"
				},
				{
					"constant": false,
					"inputs": [
						{
							"internalType": "address",
							"name": "tokenA",
							"type": "address"
						},
						{
							"internalType": "address",
							"name": "tokenB",
							"type": "address"
						}
					],
					"name": "createPair",
					"outputs": [
						{
							"internalType": "address",
							"name": "pair",
							"type": "address"
						}
					],
					"payable": false,
					"stateMutability": "nonpayable",
					"type": "function"
				},
				{
					"constant": true,
					"inputs": [],
					"name": "feeTo",
					"outputs": [
						{
							"internalType": "address",
							"name": "",
							"type": "address"
						}
					],
					"payable": false,
					"stateMutability": "view",
					"type": "function"
				},
				{
					"constant": true,
					"inputs": [],
					"name": "feeToCharity",
					"outputs": [
						{
							"internalType": "address",
							"name": "",
							"type": "address"
						}
					],
					"payable": false,
					"stateMutability": "view",
					"type": "function"
				},
				{
					"constant": true,
					"inputs": [],
					"name": "feeToSetter",
					"outputs": [
						{
							"internalType": "address",
							"name": "",
							"type": "address"
						}
					],
					"payable": false,
					"stateMutability": "view",
					"type": "function"
				},
				{
					"constant": true,
					"inputs": [
						{
							"internalType": "address",
							"name": "",
							"type": "address"
						},
						{
							"internalType": "address",
							"name": "",
							"type": "address"
						}
					],
					"name": "getPair",
					"outputs": [
						{
							"internalType": "address",
							"name": "",
							"type": "address"
						}
					],
					"payable": false,
					"stateMutability": "view",
					"type": "function"
				},
				{
					"constant": false,
					"inputs": [
						{
							"internalType": "address",
							"name": "_feeTo",
							"type": "address"
						}
					],
					"name": "setFeeTo",
					"outputs": [],
					"payable": false,
					"stateMutability": "nonpayable",
					"type": "function"
				},
				{
					"constant": false,
					"inputs": [
						{
							"internalType": "address",
							"name": "_feeToCharity",
							"type": "address"
						}
					],
					"name": "setFeeToCharity",
					"outputs": [],
					"payable": false,
					"stateMutability": "nonpayable",
					"type": "function"
				},
				{
					"constant": false,
					"inputs": [
						{
							"internalType": "address",
							"name": "_feeToSetter",
							"type": "address"
						}
					],
					"name": "setFeeToSetter",
					"outputs": [],
					"payable": false,
					"stateMutability": "nonpayable",
					"type": "function"
				}
			],
			"devdoc": {
				"methods": {}
			},
			"evm": {
				"assembly": "    /* \"CONTRACT/v2-core-master/contracts/UniswapV2Factory.sol\":108:2241  contract UniswapV2Factory is IUniswapV2Factory {\r... */\n  mstore(0x40, 0x80)\n    /* \"CONTRACT/v2-core-master/contracts/UniswapV2Factory.sol\":566:652  constructor(address _feeToSetter) public {\r... */\n  callvalue\n    /* \"--CODEGEN--\":8:17   */\n  dup1\n    /* \"--CODEGEN--\":5:7   */\n  iszero\n  tag_1\n  jumpi\n    /* \"--CODEGEN--\":30:31   */\n  0x00\n    /* \"--CODEGEN--\":27:28   */\n  dup1\n    /* \"--CODEGEN--\":20:32   */\n  revert\n    /* \"--CODEGEN--\":5:7   */\ntag_1:\n    /* \"CONTRACT/v2-core-master/contracts/UniswapV2Factory.sol\":566:652  constructor(address _feeToSetter) public {\r... */\n  pop\n  mload(0x40)\n  sub(codesize, bytecodeSize)\n  dup1\n  bytecodeSize\n  dup4\n  codecopy\n  dup2\n  dup2\n  add\n  0x40\n  mstore\n    /* \"--CODEGEN--\":13:15   */\n  0x20\n    /* \"--CODEGEN--\":8:11   */\n  dup2\n    /* \"--CODEGEN--\":5:16   */\n  lt\n    /* \"--CODEGEN--\":2:4   */\n  iszero\n  tag_2\n  jumpi\n    /* \"--CODEGEN--\":29:30   */\n  0x00\n    /* \"--CODEGEN--\":26:27   */\n  dup1\n    /* \"--CODEGEN--\":19:31   */\n  revert\n    /* \"--CODEGEN--\":2:4   */\ntag_2:\n  pop\n    /* \"CONTRACT/v2-core-master/contracts/UniswapV2Factory.sol\":566:652  constructor(address _feeToSetter) public {\r... */\n  mload\n    /* \"CONTRACT/v2-core-master/contracts/UniswapV2Factory.sol\":618:629  feeToSetter */\n  0x02\n    /* \"CONTRACT/v2-core-master/contracts/UniswapV2Factory.sol\":618:644  feeToSetter = _feeToSetter */\n  dup1\n  sload\n  not(sub(shl(0xa0, 0x01), 0x01))\n  and\n  sub(shl(0xa0, 0x01), 0x01)\n  swap1\n  swap3\n  and\n  swap2\n  swap1\n  swap2\n  or\n  swap1\n  sstore\n    /* \"CONTRACT/v2-core-master/contracts/UniswapV2Factory.sol\":108:2241  contract UniswapV2Factory is IUniswapV2Factory {\r... */\n  dataSize(sub_0)\n  dup1\n  dataOffset(sub_0)\n  0x00\n  codecopy\n  0x00\n  return\nstop\n\nsub_0: assembly {\n        /* \"CONTRACT/v2-core-master/contracts/UniswapV2Factory.sol\":108:2241  contract UniswapV2Factory is IUniswapV2Factory {\r... */\n      mstore(0x40, 0x80)\n      callvalue\n        /* \"--CODEGEN--\":8:17   */\n      dup1\n        /* \"--CODEGEN--\":5:7   */\n      iszero\n      tag_1\n      jumpi\n        /* \"--CODEGEN--\":30:31   */\n      0x00\n        /* \"--CODEGEN--\":27:28   */\n      dup1\n        /* \"--CODEGEN--\":20:32   */\n      revert\n        /* \"--CODEGEN--\":5:7   */\n    tag_1:\n        /* \"CONTRACT/v2-core-master/contracts/UniswapV2Factory.sol\":108:2241  contract UniswapV2Factory is IUniswapV2Factory {\r... */\n      pop\n      jumpi(tag_2, lt(calldatasize, 0x04))\n      shr(0xe0, calldataload(0x00))\n      dup1\n      0x574f2ba3\n      gt\n      tag_14\n      jumpi\n      dup1\n      0x574f2ba3\n      eq\n      tag_8\n      jumpi\n      dup1\n      0x9ebaeb4c\n      eq\n      tag_9\n      jumpi\n      dup1\n      0xa2e74af6\n      eq\n      tag_10\n      jumpi\n      dup1\n      0xc9c65396\n      eq\n      tag_11\n      jumpi\n      dup1\n      0xe6a43905\n      eq\n      tag_12\n      jumpi\n      dup1\n      0xf46901ed\n      eq\n      tag_13\n      jumpi\n      jump(tag_2)\n    tag_14:\n      dup1\n      0x017e7e58\n      eq\n      tag_3\n      jumpi\n      dup1\n      0x063058b3\n      eq\n      tag_4\n      jumpi\n      dup1\n      0x094b7415\n      eq\n      tag_5\n      jumpi\n      dup1\n      0x1e3dd18b\n      eq\n      tag_6\n      jumpi\n      dup1\n      0x257671f5\n      eq\n      tag_7\n      jumpi\n    tag_2:\n      0x00\n      dup1\n      revert\n        /* \"CONTRACT/v2-core-master/contracts/UniswapV2Factory.sol\":162:182  address public feeTo */\n    tag_3:\n      tag_15\n      tag_16\n      jump\t// in\n    tag_15:\n      0x40\n      dup1\n      mload\n      sub(shl(0xa0, 0x01), 0x01)\n      swap1\n      swap3\n      and\n      dup3\n      mstore\n      mload\n      swap1\n      dup2\n      swap1\n      sub\n      0x20\n      add\n      swap1\n      return\n        /* \"CONTRACT/v2-core-master/contracts/UniswapV2Factory.sol\":1888:2061  function setFeeToCharity(address _feeToCharity) external {\r... */\n    tag_4:\n      tag_17\n      0x04\n      dup1\n      calldatasize\n      sub\n        /* \"--CODEGEN--\":13:15   */\n      0x20\n        /* \"--CODEGEN--\":8:11   */\n      dup2\n        /* \"--CODEGEN--\":5:16   */\n      lt\n        /* \"--CODEGEN--\":2:4   */\n      iszero\n      tag_18\n      jumpi\n        /* \"--CODEGEN--\":29:30   */\n      0x00\n        /* \"--CODEGEN--\":26:27   */\n      dup1\n        /* \"--CODEGEN--\":19:31   */\n      revert\n        /* \"--CODEGEN--\":2:4   */\n    tag_18:\n      pop\n        /* \"CONTRACT/v2-core-master/contracts/UniswapV2Factory.sol\":1888:2061  function setFeeToCharity(address _feeToCharity) external {\r... */\n      calldataload\n      sub(shl(0xa0, 0x01), 0x01)\n      and\n      tag_19\n      jump\t// in\n    tag_17:\n      stop\n        /* \"CONTRACT/v2-core-master/contracts/UniswapV2Factory.sol\":223:249  address public feeToSetter */\n    tag_5:\n      tag_15\n      tag_21\n      jump\t// in\n        /* \"CONTRACT/v2-core-master/contracts/UniswapV2Factory.sol\":438:463  address[] public allPairs */\n    tag_6:\n      tag_15\n      0x04\n      dup1\n      calldatasize\n      sub\n        /* \"--CODEGEN--\":13:15   */\n      0x20\n        /* \"--CODEGEN--\":8:11   */\n      dup2\n        /* \"--CODEGEN--\":5:16   */\n      lt\n        /* \"--CODEGEN--\":2:4   */\n      iszero\n      tag_23\n      jumpi\n        /* \"--CODEGEN--\":29:30   */\n      0x00\n        /* \"--CODEGEN--\":26:27   */\n      dup1\n        /* \"--CODEGEN--\":19:31   */\n      revert\n        /* \"--CODEGEN--\":2:4   */\n    tag_23:\n      pop\n        /* \"CONTRACT/v2-core-master/contracts/UniswapV2Factory.sol\":438:463  address[] public allPairs */\n      calldataload\n      tag_24\n      jump\t// in\n        /* \"CONTRACT/v2-core-master/contracts/UniswapV2Factory.sol\":258:360  bytes32 public constant INIT_CODE_HASH = keccak256(abi.encodePacked(type(UniswapV2Pair).creationCode)) */\n    tag_7:\n      tag_25\n      tag_26\n      jump\t// in\n    tag_25:\n      0x40\n      dup1\n      mload\n      swap2\n      dup3\n      mstore\n      mload\n      swap1\n      dup2\n      swap1\n      sub\n      0x20\n      add\n      swap1\n      return\n        /* \"CONTRACT/v2-core-master/contracts/UniswapV2Factory.sol\":660:756  function allPairsLength() external view returns (uint) {\r... */\n    tag_8:\n      tag_25\n      tag_28\n      jump\t// in\n        /* \"CONTRACT/v2-core-master/contracts/UniswapV2Factory.sol\":189:216  address public feeToCharity */\n    tag_9:\n      tag_15\n      tag_30\n      jump\t// in\n        /* \"CONTRACT/v2-core-master/contracts/UniswapV2Factory.sol\":2069:2238  function setFeeToSetter(address _feeToSetter) external {\r... */\n    tag_10:\n      tag_17\n      0x04\n      dup1\n      calldatasize\n      sub\n        /* \"--CODEGEN--\":13:15   */\n      0x20\n        /* \"--CODEGEN--\":8:11   */\n      dup2\n        /* \"--CODEGEN--\":5:16   */\n      lt\n        /* \"--CODEGEN--\":2:4   */\n      iszero\n      tag_32\n      jumpi\n        /* \"--CODEGEN--\":29:30   */\n      0x00\n        /* \"--CODEGEN--\":26:27   */\n      dup1\n        /* \"--CODEGEN--\":19:31   */\n      revert\n        /* \"--CODEGEN--\":2:4   */\n    tag_32:\n      pop\n        /* \"CONTRACT/v2-core-master/contracts/UniswapV2Factory.sol\":2069:2238  function setFeeToSetter(address _feeToSetter) external {\r... */\n      calldataload\n      sub(shl(0xa0, 0x01), 0x01)\n      and\n      tag_33\n      jump\t// in\n        /* \"CONTRACT/v2-core-master/contracts/UniswapV2Factory.sol\":764:1727  function createPair(address tokenA, address tokenB) external returns (address pair) {\r... */\n    tag_11:\n      tag_15\n      0x04\n      dup1\n      calldatasize\n      sub\n        /* \"--CODEGEN--\":13:15   */\n      0x40\n        /* \"--CODEGEN--\":8:11   */\n      dup2\n        /* \"--CODEGEN--\":5:16   */\n      lt\n        /* \"--CODEGEN--\":2:4   */\n      iszero\n      tag_35\n      jumpi\n        /* \"--CODEGEN--\":29:30   */\n      0x00\n        /* \"--CODEGEN--\":26:27   */\n      dup1\n        /* \"--CODEGEN--\":19:31   */\n      revert\n        /* \"--CODEGEN--\":2:4   */\n    tag_35:\n      pop\n      sub(shl(0xa0, 0x01), 0x01)\n        /* \"CONTRACT/v2-core-master/contracts/UniswapV2Factory.sol\":764:1727  function createPair(address tokenA, address tokenB) external returns (address pair) {\r... */\n      dup2\n      calldataload\n      dup2\n      and\n      swap2\n      0x20\n      add\n      calldataload\n      and\n      tag_36\n      jump\t// in\n        /* \"CONTRACT/v2-core-master/contracts/UniswapV2Factory.sol\":369:431  mapping(address => mapping(address => address)) public getPair */\n    tag_12:\n      tag_15\n      0x04\n      dup1\n      calldatasize\n      sub\n        /* \"--CODEGEN--\":13:15   */\n      0x40\n        /* \"--CODEGEN--\":8:11   */\n      dup2\n        /* \"--CODEGEN--\":5:16   */\n      lt\n        /* \"--CODEGEN--\":2:4   */\n      iszero\n      tag_38\n      jumpi\n        /* \"--CODEGEN--\":29:30   */\n      0x00\n        /* \"--CODEGEN--\":26:27   */\n      dup1\n        /* \"--CODEGEN--\":19:31   */\n      revert\n        /* \"--CODEGEN--\":2:4   */\n    tag_38:\n      pop\n      sub(shl(0xa0, 0x01), 0x01)\n        /* \"CONTRACT/v2-core-master/contracts/UniswapV2Factory.sol\":369:431  mapping(address => mapping(address => address)) public getPair */\n      dup2\n      calldataload\n      dup2\n      and\n      swap2\n      0x20\n      add\n      calldataload\n      and\n      tag_39\n      jump\t// in\n        /* \"CONTRACT/v2-core-master/contracts/UniswapV2Factory.sol\":1735:1880  function setFeeTo(address _feeTo) external {\r... */\n    tag_13:\n      tag_17\n      0x04\n      dup1\n      calldatasize\n      sub\n        /* \"--CODEGEN--\":13:15   */\n      0x20\n        /* \"--CODEGEN--\":8:11   */\n      dup2\n        /* \"--CODEGEN--\":5:16   */\n      lt\n        /* \"--CODEGEN--\":2:4   */\n      iszero\n      tag_41\n      jumpi\n        /* \"--CODEGEN--\":29:30   */\n      0x00\n        /* \"--CODEGEN--\":26:27   */\n      dup1\n        /* \"--CODEGEN--\":19:31   */\n      revert\n        /* \"--CODEGEN--\":2:4   */\n    tag_41:\n      pop\n        /* \"CONTRACT/v2-core-master/contracts/UniswapV2Factory.sol\":1735:1880  function setFeeTo(address _feeTo) external {\r... */\n      calldataload\n      sub(shl(0xa0, 0x01), 0x01)\n      and\n      tag_42\n      jump\t// in\n        /* \"CONTRACT/v2-core-master/contracts/UniswapV2Factory.sol\":162:182  address public feeTo */\n    tag_16:\n      and(sub(shl(0xa0, 0x01), 0x01), sload(0x00))\n      dup2\n      jump\t// out\n        /* \"CONTRACT/v2-core-master/contracts/UniswapV2Factory.sol\":1888:2061  function setFeeToCharity(address _feeToCharity) external {\r... */\n    tag_19:\n        /* \"CONTRACT/v2-core-master/contracts/UniswapV2Factory.sol\":1978:1989  feeToSetter */\n      and(sub(shl(0xa0, 0x01), 0x01), sload(0x02))\n        /* \"CONTRACT/v2-core-master/contracts/UniswapV2Factory.sol\":1964:1974  msg.sender */\n      caller\n        /* \"CONTRACT/v2-core-master/contracts/UniswapV2Factory.sol\":1964:1989  msg.sender == feeToSetter */\n      eq\n        /* \"CONTRACT/v2-core-master/contracts/UniswapV2Factory.sol\":1956:2014  require(msg.sender == feeToSetter, 'UniswapV2: FORBIDDEN') */\n      tag_44\n      jumpi\n      0x40\n      dup1\n      mload\n      shl(0xe5, 0x461bcd)\n      dup2\n      mstore\n      0x20\n      0x04\n      dup3\n      add\n      mstore\n      0x14\n      0x24\n      dup3\n      add\n      mstore\n      shl(0x61, 0x2ab734b9bbb0b82b191d102327a92124a22222a7)\n      0x44\n      dup3\n      add\n      mstore\n      swap1\n      mload\n      swap1\n      dup2\n      swap1\n      sub\n      0x64\n      add\n      swap1\n      revert\n    tag_44:\n        /* \"CONTRACT/v2-core-master/contracts/UniswapV2Factory.sol\":2025:2037  feeToCharity */\n      0x01\n        /* \"CONTRACT/v2-core-master/contracts/UniswapV2Factory.sol\":2025:2053  feeToCharity = _feeToCharity */\n      dup1\n      sload\n      not(sub(shl(0xa0, 0x01), 0x01))\n      and\n      sub(shl(0xa0, 0x01), 0x01)\n      swap3\n      swap1\n      swap3\n      and\n      swap2\n      swap1\n      swap2\n      or\n      swap1\n      sstore\n        /* \"CONTRACT/v2-core-master/contracts/UniswapV2Factory.sol\":1888:2061  function setFeeToCharity(address _feeToCharity) external {\r... */\n      jump\t// out\n        /* \"CONTRACT/v2-core-master/contracts/UniswapV2Factory.sol\":223:249  address public feeToSetter */\n    tag_21:\n      and(sub(shl(0xa0, 0x01), 0x01), sload(0x02))\n      dup2\n      jump\t// out\n        /* \"CONTRACT/v2-core-master/contracts/UniswapV2Factory.sol\":438:463  address[] public allPairs */\n    tag_24:\n      0x04\n      dup2\n      dup2\n      sload\n      dup2\n      lt\n      tag_45\n      jumpi\n      invalid\n    tag_45:\n      0x00\n      swap2\n      dup3\n      mstore\n      0x20\n      swap1\n      swap2\n      keccak256\n      add\n      sload\n      sub(shl(0xa0, 0x01), 0x01)\n      and\n      swap1\n      pop\n      dup2\n      jump\t// out\n        /* \"CONTRACT/v2-core-master/contracts/UniswapV2Factory.sol\":258:360  bytes32 public constant INIT_CODE_HASH = keccak256(abi.encodePacked(type(UniswapV2Pair).creationCode)) */\n    tag_26:\n        /* \"CONTRACT/v2-core-master/contracts/UniswapV2Factory.sol\":326:358  type(UniswapV2Pair).creationCode */\n      mload(0x40)\n      tag_47\n      0x20\n      dup3\n      add\n      tag_48\n      jump\t// in\n    tag_47:\n        /* \"--CODEGEN--\":41:45   */\n      0x20\n        /* \"--CODEGEN--\":34:39   */\n      dup3\n        /* \"--CODEGEN--\":30:46   */\n      add\n        /* \"--CODEGEN--\":25:28   */\n      dup2\n        /* \"--CODEGEN--\":21:47   */\n      sub\n        /* \"--CODEGEN--\":14:19   */\n      dup3\n        /* \"--CODEGEN--\":7:48   */\n      mstore\n        /* \"--CODEGEN--\":87:89   */\n      0x1f\n        /* \"--CODEGEN--\":83:90   */\n      not\n        /* \"--CODEGEN--\":78:80   */\n      0x1f\n        /* \"--CODEGEN--\":73:76   */\n      dup3\n        /* \"--CODEGEN--\":69:81   */\n      add\n        /* \"--CODEGEN--\":65:91   */\n      and\n        /* \"--CODEGEN--\":61:63   */\n      0x40\n        /* \"--CODEGEN--\":54:92   */\n      mstore\n        /* \"CONTRACT/v2-core-master/contracts/UniswapV2Factory.sol\":326:358  type(UniswapV2Pair).creationCode */\n      pop\n        /* \"CONTRACT/v2-core-master/contracts/UniswapV2Factory.sol\":309:359  abi.encodePacked(type(UniswapV2Pair).creationCode) */\n      add(0x20, mload(0x40))\n      dup1\n      dup3\n      dup1\n      mload\n      swap1\n      0x20\n      add\n      swap1\n      dup1\n      dup4\n      dup4\n        /* \"--CODEGEN--\":36:189   */\n    tag_49:\n        /* \"--CODEGEN--\":66:68   */\n      0x20\n        /* \"--CODEGEN--\":61:64   */\n      dup4\n        /* \"--CODEGEN--\":58:69   */\n      lt\n        /* \"--CODEGEN--\":36:189   */\n      tag_51\n      jumpi\n        /* \"--CODEGEN--\":176:186   */\n      dup1\n      mload\n        /* \"--CODEGEN--\":164:187   */\n      dup3\n      mstore\n      not(0x1f)\n        /* \"--CODEGEN--\":139:151   */\n      swap1\n      swap3\n      add\n      swap2\n        /* \"--CODEGEN--\":98:100   */\n      0x20\n        /* \"--CODEGEN--\":89:101   */\n      swap2\n      dup3\n      add\n      swap2\n        /* \"--CODEGEN--\":114:126   */\n      add\n        /* \"--CODEGEN--\":36:189   */\n      jump(tag_49)\n    tag_51:\n        /* \"--CODEGEN--\":274:275   */\n      0x01\n        /* \"--CODEGEN--\":267:270   */\n      dup4\n        /* \"--CODEGEN--\":263:265   */\n      0x20\n        /* \"--CODEGEN--\":259:271   */\n      sub\n        /* \"--CODEGEN--\":254:257   */\n      0x0100\n        /* \"--CODEGEN--\":250:272   */\n      exp\n        /* \"--CODEGEN--\":246:276   */\n      sub\n        /* \"--CODEGEN--\":315:319   */\n      dup1\n        /* \"--CODEGEN--\":311:320   */\n      not\n        /* \"--CODEGEN--\":305:308   */\n      dup3\n        /* \"--CODEGEN--\":299:309   */\n      mload\n        /* \"--CODEGEN--\":295:321   */\n      and\n        /* \"--CODEGEN--\":356:360   */\n      dup2\n        /* \"--CODEGEN--\":350:353   */\n      dup5\n        /* \"--CODEGEN--\":344:354   */\n      mload\n        /* \"--CODEGEN--\":340:361   */\n      and\n        /* \"--CODEGEN--\":389:396   */\n      dup1\n        /* \"--CODEGEN--\":380:387   */\n      dup3\n        /* \"--CODEGEN--\":377:397   */\n      or\n        /* \"--CODEGEN--\":372:375   */\n      dup6\n        /* \"--CODEGEN--\":365:398   */\n      mstore\n        /* \"--CODEGEN--\":3:402   */\n      pop\n      pop\n      pop\n        /* \"CONTRACT/v2-core-master/contracts/UniswapV2Factory.sol\":309:359  abi.encodePacked(type(UniswapV2Pair).creationCode) */\n      pop\n      pop\n      pop\n      swap1\n      pop\n      add\n      swap2\n      pop\n      pop\n      mload(0x40)\n        /* \"--CODEGEN--\":49:53   */\n      0x20\n        /* \"--CODEGEN--\":39:46   */\n      dup2\n        /* \"--CODEGEN--\":30:37   */\n      dup4\n        /* \"--CODEGEN--\":26:47   */\n      sub\n        /* \"--CODEGEN--\":22:54   */\n      sub\n        /* \"--CODEGEN--\":13:20   */\n      dup2\n        /* \"--CODEGEN--\":6:55   */\n      mstore\n        /* \"CONTRACT/v2-core-master/contracts/UniswapV2Factory.sol\":309:359  abi.encodePacked(type(UniswapV2Pair).creationCode) */\n      swap1\n      0x40\n      mstore\n        /* \"CONTRACT/v2-core-master/contracts/UniswapV2Factory.sol\":299:360  keccak256(abi.encodePacked(type(UniswapV2Pair).creationCode)) */\n      dup1\n      mload\n      swap1\n      0x20\n      add\n      keccak256\n        /* \"CONTRACT/v2-core-master/contracts/UniswapV2Factory.sol\":258:360  bytes32 public constant INIT_CODE_HASH = keccak256(abi.encodePacked(type(UniswapV2Pair).creationCode)) */\n      dup2\n      jump\t// out\n        /* \"CONTRACT/v2-core-master/contracts/UniswapV2Factory.sol\":660:756  function allPairsLength() external view returns (uint) {\r... */\n    tag_28:\n        /* \"CONTRACT/v2-core-master/contracts/UniswapV2Factory.sol\":733:741  allPairs */\n      0x04\n        /* \"CONTRACT/v2-core-master/contracts/UniswapV2Factory.sol\":733:748  allPairs.length */\n      sload\n        /* \"CONTRACT/v2-core-master/contracts/UniswapV2Factory.sol\":660:756  function allPairsLength() external view returns (uint) {\r... */\n      swap1\n      jump\t// out\n        /* \"CONTRACT/v2-core-master/contracts/UniswapV2Factory.sol\":189:216  address public feeToCharity */\n    tag_30:\n      and(sub(shl(0xa0, 0x01), 0x01), sload(0x01))\n      dup2\n      jump\t// out\n        /* \"CONTRACT/v2-core-master/contracts/UniswapV2Factory.sol\":2069:2238  function setFeeToSetter(address _feeToSetter) external {\r... */\n    tag_33:\n        /* \"CONTRACT/v2-core-master/contracts/UniswapV2Factory.sol\":2157:2168  feeToSetter */\n      and(sub(shl(0xa0, 0x01), 0x01), sload(0x02))\n        /* \"CONTRACT/v2-core-master/contracts/UniswapV2Factory.sol\":2143:2153  msg.sender */\n      caller\n        /* \"CONTRACT/v2-core-master/contracts/UniswapV2Factory.sol\":2143:2168  msg.sender == feeToSetter */\n      eq\n        /* \"CONTRACT/v2-core-master/contracts/UniswapV2Factory.sol\":2135:2193  require(msg.sender == feeToSetter, 'UniswapV2: FORBIDDEN') */\n      tag_54\n      jumpi\n      0x40\n      dup1\n      mload\n      shl(0xe5, 0x461bcd)\n      dup2\n      mstore\n      0x20\n      0x04\n      dup3\n      add\n      mstore\n      0x14\n      0x24\n      dup3\n      add\n      mstore\n      shl(0x61, 0x2ab734b9bbb0b82b191d102327a92124a22222a7)\n      0x44\n      dup3\n      add\n      mstore\n      swap1\n      mload\n      swap1\n      dup2\n      swap1\n      sub\n      0x64\n      add\n      swap1\n      revert\n    tag_54:\n        /* \"CONTRACT/v2-core-master/contracts/UniswapV2Factory.sol\":2204:2215  feeToSetter */\n      0x02\n        /* \"CONTRACT/v2-core-master/contracts/UniswapV2Factory.sol\":2204:2230  feeToSetter = _feeToSetter */\n      dup1\n      sload\n      not(sub(shl(0xa0, 0x01), 0x01))\n      and\n      sub(shl(0xa0, 0x01), 0x01)\n      swap3\n      swap1\n      swap3\n      and\n      swap2\n      swap1\n      swap2\n      or\n      swap1\n      sstore\n        /* \"CONTRACT/v2-core-master/contracts/UniswapV2Factory.sol\":2069:2238  function setFeeToSetter(address _feeToSetter) external {\r... */\n      jump\t// out\n        /* \"CONTRACT/v2-core-master/contracts/UniswapV2Factory.sol\":764:1727  function createPair(address tokenA, address tokenB) external returns (address pair) {\r... */\n    tag_36:\n        /* \"CONTRACT/v2-core-master/contracts/UniswapV2Factory.sol\":834:846  address pair */\n      0x00\n        /* \"CONTRACT/v2-core-master/contracts/UniswapV2Factory.sol\":877:883  tokenB */\n      dup2\n      sub(shl(0xa0, 0x01), 0x01)\n        /* \"CONTRACT/v2-core-master/contracts/UniswapV2Factory.sol\":867:883  tokenA != tokenB */\n      and\n        /* \"CONTRACT/v2-core-master/contracts/UniswapV2Factory.sol\":867:873  tokenA */\n      dup4\n      sub(shl(0xa0, 0x01), 0x01)\n        /* \"CONTRACT/v2-core-master/contracts/UniswapV2Factory.sol\":867:883  tokenA != tokenB */\n      and\n      eq\n      iszero\n        /* \"CONTRACT/v2-core-master/contracts/UniswapV2Factory.sol\":859:918  require(tokenA != tokenB, 'UniswapV2: IDENTICAL_ADDRESSES') */\n      tag_56\n      jumpi\n      0x40\n      dup1\n      mload\n      shl(0xe5, 0x461bcd)\n      dup2\n      mstore\n      0x20\n      0x04\n      dup3\n      add\n      mstore\n      0x1e\n      0x24\n      dup3\n      add\n      mstore\n      0x556e697377617056323a204944454e544943414c5f4144445245535345530000\n      0x44\n      dup3\n      add\n      mstore\n      swap1\n      mload\n      swap1\n      dup2\n      swap1\n      sub\n      0x64\n      add\n      swap1\n      revert\n    tag_56:\n        /* \"CONTRACT/v2-core-master/contracts/UniswapV2Factory.sol\":930:944  address token0 */\n      0x00\n        /* \"CONTRACT/v2-core-master/contracts/UniswapV2Factory.sol\":946:960  address token1 */\n      dup1\n        /* \"CONTRACT/v2-core-master/contracts/UniswapV2Factory.sol\":973:979  tokenB */\n      dup4\n      sub(shl(0xa0, 0x01), 0x01)\n        /* \"CONTRACT/v2-core-master/contracts/UniswapV2Factory.sol\":964:979  tokenA < tokenB */\n      and\n        /* \"CONTRACT/v2-core-master/contracts/UniswapV2Factory.sol\":964:970  tokenA */\n      dup6\n      sub(shl(0xa0, 0x01), 0x01)\n        /* \"CONTRACT/v2-core-master/contracts/UniswapV2Factory.sol\":964:979  tokenA < tokenB */\n      and\n      lt\n        /* \"CONTRACT/v2-core-master/contracts/UniswapV2Factory.sol\":964:1017  tokenA < tokenB ? (tokenA, tokenB) : (tokenB, tokenA) */\n      tag_57\n      jumpi\n        /* \"CONTRACT/v2-core-master/contracts/UniswapV2Factory.sol\":1002:1008  tokenB */\n      dup4\n        /* \"CONTRACT/v2-core-master/contracts/UniswapV2Factory.sol\":1010:1016  tokenA */\n      dup6\n        /* \"CONTRACT/v2-core-master/contracts/UniswapV2Factory.sol\":964:1017  tokenA < tokenB ? (tokenA, tokenB) : (tokenB, tokenA) */\n      jump(tag_58)\n    tag_57:\n        /* \"CONTRACT/v2-core-master/contracts/UniswapV2Factory.sol\":983:989  tokenA */\n      dup5\n        /* \"CONTRACT/v2-core-master/contracts/UniswapV2Factory.sol\":991:997  tokenB */\n      dup5\n        /* \"CONTRACT/v2-core-master/contracts/UniswapV2Factory.sol\":964:1017  tokenA < tokenB ? (tokenA, tokenB) : (tokenB, tokenA) */\n    tag_58:\n        /* \"CONTRACT/v2-core-master/contracts/UniswapV2Factory.sol\":929:1017  (address token0, address token1) = tokenA < tokenB ? (tokenA, tokenB) : (tokenB, tokenA) */\n      swap1\n      swap3\n      pop\n      swap1\n      pop\n      sub(shl(0xa0, 0x01), 0x01)\n        /* \"CONTRACT/v2-core-master/contracts/UniswapV2Factory.sol\":1036:1056  token0 != address(0) */\n      dup3\n      and\n        /* \"CONTRACT/v2-core-master/contracts/UniswapV2Factory.sol\":1028:1084  require(token0 != address(0), 'UniswapV2: ZERO_ADDRESS') */\n      tag_59\n      jumpi\n      0x40\n      dup1\n      mload\n      shl(0xe5, 0x461bcd)\n      dup2\n      mstore\n      0x20\n      0x04\n      dup3\n      add\n      mstore\n      0x17\n      0x24\n      dup3\n      add\n      mstore\n      0x556e697377617056323a205a45524f5f41444452455353000000000000000000\n      0x44\n      dup3\n      add\n      mstore\n      swap1\n      mload\n      swap1\n      dup2\n      swap1\n      sub\n      0x64\n      add\n      swap1\n      revert\n    tag_59:\n      sub(shl(0xa0, 0x01), 0x01)\n        /* \"CONTRACT/v2-core-master/contracts/UniswapV2Factory.sol\":1103:1118  getPair[token0] */\n      dup3\n      dup2\n      and\n        /* \"CONTRACT/v2-core-master/contracts/UniswapV2Factory.sol\":1138:1139  0 */\n      0x00\n        /* \"CONTRACT/v2-core-master/contracts/UniswapV2Factory.sol\":1103:1118  getPair[token0] */\n      swap1\n      dup2\n      mstore\n        /* \"CONTRACT/v2-core-master/contracts/UniswapV2Factory.sol\":1103:1110  getPair */\n      0x03\n        /* \"CONTRACT/v2-core-master/contracts/UniswapV2Factory.sol\":1103:1118  getPair[token0] */\n      0x20\n      swap1\n      dup2\n      mstore\n      0x40\n      dup1\n      dup4\n      keccak256\n        /* \"CONTRACT/v2-core-master/contracts/UniswapV2Factory.sol\":1103:1126  getPair[token0][token1] */\n      dup6\n      dup6\n      and\n      dup5\n      mstore\n      swap1\n      swap2\n      mstore\n      swap1\n      keccak256\n      sload\n      and\n        /* \"CONTRACT/v2-core-master/contracts/UniswapV2Factory.sol\":1103:1140  getPair[token0][token1] == address(0) */\n      iszero\n        /* \"CONTRACT/v2-core-master/contracts/UniswapV2Factory.sol\":1095:1167  require(getPair[token0][token1] == address(0), 'UniswapV2: PAIR_EXISTS') */\n      tag_60\n      jumpi\n      0x40\n      dup1\n      mload\n      shl(0xe5, 0x461bcd)\n      dup2\n      mstore\n      0x20\n      0x04\n      dup3\n      add\n      mstore\n      0x16\n      0x24\n      dup3\n      add\n      mstore\n      shl(0x50, 0x556e697377617056323a20504149525f455849535453)\n      0x44\n      dup3\n      add\n      mstore\n      swap1\n      mload\n      swap1\n      dup2\n      swap1\n      sub\n      0x64\n      add\n      swap1\n      revert\n    tag_60:\n        /* \"CONTRACT/v2-core-master/contracts/UniswapV2Factory.sol\":1208:1229  bytes memory bytecode */\n      0x60\n        /* \"CONTRACT/v2-core-master/contracts/UniswapV2Factory.sol\":1232:1264  type(UniswapV2Pair).creationCode */\n      mload(0x40)\n      dup1\n      0x20\n      add\n      tag_61\n      swap1\n      tag_48\n      jump\t// in\n    tag_61:\n        /* \"--CODEGEN--\":41:45   */\n      0x20\n        /* \"--CODEGEN--\":34:39   */\n      dup3\n        /* \"--CODEGEN--\":30:46   */\n      add\n        /* \"--CODEGEN--\":25:28   */\n      dup2\n        /* \"--CODEGEN--\":21:47   */\n      sub\n        /* \"--CODEGEN--\":14:19   */\n      dup3\n        /* \"--CODEGEN--\":7:48   */\n      mstore\n        /* \"--CODEGEN--\":87:89   */\n      0x1f\n        /* \"--CODEGEN--\":83:90   */\n      not\n        /* \"--CODEGEN--\":78:80   */\n      0x1f\n        /* \"--CODEGEN--\":73:76   */\n      dup3\n        /* \"--CODEGEN--\":69:81   */\n      add\n        /* \"--CODEGEN--\":65:91   */\n      and\n        /* \"--CODEGEN--\":61:63   */\n      0x40\n        /* \"--CODEGEN--\":54:92   */\n      mstore\n        /* \"CONTRACT/v2-core-master/contracts/UniswapV2Factory.sol\":1232:1264  type(UniswapV2Pair).creationCode */\n      pop\n        /* \"CONTRACT/v2-core-master/contracts/UniswapV2Factory.sol\":1208:1264  bytes memory bytecode = type(UniswapV2Pair).creationCode */\n      swap1\n      pop\n        /* \"CONTRACT/v2-core-master/contracts/UniswapV2Factory.sol\":1275:1287  bytes32 salt */\n      0x00\n        /* \"CONTRACT/v2-core-master/contracts/UniswapV2Factory.sol\":1317:1323  token0 */\n      dup4\n        /* \"CONTRACT/v2-core-master/contracts/UniswapV2Factory.sol\":1325:1331  token1 */\n      dup4\n        /* \"CONTRACT/v2-core-master/contracts/UniswapV2Factory.sol\":1300:1332  abi.encodePacked(token0, token1) */\n      add(0x20, mload(0x40))\n      dup1\n      dup4\n      sub(shl(0xa0, 0x01), 0x01)\n      and\n      sub(shl(0xa0, 0x01), 0x01)\n      and\n      0x60\n      shl\n      dup2\n      mstore\n      0x14\n      add\n      dup3\n      sub(shl(0xa0, 0x01), 0x01)\n      and\n      sub(shl(0xa0, 0x01), 0x01)\n      and\n      0x60\n      shl\n      dup2\n      mstore\n      0x14\n      add\n      swap3\n      pop\n      pop\n      pop\n      mload(0x40)\n        /* \"--CODEGEN--\":49:53   */\n      0x20\n        /* \"--CODEGEN--\":39:46   */\n      dup2\n        /* \"--CODEGEN--\":30:37   */\n      dup4\n        /* \"--CODEGEN--\":26:47   */\n      sub\n        /* \"--CODEGEN--\":22:54   */\n      sub\n        /* \"--CODEGEN--\":13:20   */\n      dup2\n        /* \"--CODEGEN--\":6:55   */\n      mstore\n        /* \"CONTRACT/v2-core-master/contracts/UniswapV2Factory.sol\":1300:1332  abi.encodePacked(token0, token1) */\n      swap1\n      0x40\n      mstore\n        /* \"CONTRACT/v2-core-master/contracts/UniswapV2Factory.sol\":1290:1333  keccak256(abi.encodePacked(token0, token1)) */\n      dup1\n      mload\n      swap1\n      0x20\n      add\n      keccak256\n        /* \"CONTRACT/v2-core-master/contracts/UniswapV2Factory.sol\":1275:1333  bytes32 salt = keccak256(abi.encodePacked(token0, token1)) */\n      swap1\n      pop\n        /* \"CONTRACT/v2-core-master/contracts/UniswapV2Factory.sol\":1423:1427  salt */\n      dup1\n        /* \"CONTRACT/v2-core-master/contracts/UniswapV2Factory.sol\":1412:1420  bytecode */\n      dup3\n        /* \"CONTRACT/v2-core-master/contracts/UniswapV2Factory.sol\":1406:1421  mload(bytecode) */\n      mload\n        /* \"CONTRACT/v2-core-master/contracts/UniswapV2Factory.sol\":1401:1403  32 */\n      0x20\n        /* \"CONTRACT/v2-core-master/contracts/UniswapV2Factory.sol\":1391:1399  bytecode */\n      dup5\n        /* \"CONTRACT/v2-core-master/contracts/UniswapV2Factory.sol\":1387:1404  add(bytecode, 32) */\n      add\n        /* \"CONTRACT/v2-core-master/contracts/UniswapV2Factory.sol\":1384:1385  0 */\n      0x00\n        /* \"CONTRACT/v2-core-master/contracts/UniswapV2Factory.sol\":1376:1428  create2(0, add(bytecode, 32), mload(bytecode), salt) */\n      create2\n        /* \"CONTRACT/v2-core-master/contracts/UniswapV2Factory.sol\":1449:1496  IUniswapV2Pair(pair).initialize(token0, token1) */\n      0x40\n      dup1\n      mload\n      shl(0xe0, 0x485cc955)\n      dup2\n      mstore\n      sub(shl(0xa0, 0x01), 0x01)\n      dup8\n      dup2\n      and\n      0x04\n      dup4\n      add\n      mstore\n      dup7\n      dup2\n      and\n      0x24\n      dup4\n      add\n      mstore\n      swap2\n      mload\n        /* \"CONTRACT/v2-core-master/contracts/UniswapV2Factory.sol\":1368:1428  pair := create2(0, add(bytecode, 32), mload(bytecode), salt) */\n      swap3\n      swap8\n      pop\n        /* \"CONTRACT/v2-core-master/contracts/UniswapV2Factory.sol\":1449:1480  IUniswapV2Pair(pair).initialize */\n      swap1\n      dup8\n      and\n      swap2\n      0x485cc955\n      swap2\n        /* \"CONTRACT/v2-core-master/contracts/UniswapV2Factory.sol\":1449:1496  IUniswapV2Pair(pair).initialize(token0, token1) */\n      0x44\n      dup1\n      dup3\n      add\n      swap3\n      0x00\n      swap3\n      swap1\n      swap2\n      swap1\n      dup3\n      swap1\n      sub\n      add\n      dup2\n      dup4\n        /* \"CONTRACT/v2-core-master/contracts/UniswapV2Factory.sol\":1449:1480  IUniswapV2Pair(pair).initialize */\n      dup8\n        /* \"CONTRACT/v2-core-master/contracts/UniswapV2Factory.sol\":1449:1496  IUniswapV2Pair(pair).initialize(token0, token1) */\n      dup1\n      extcodesize\n      iszero\n        /* \"--CODEGEN--\":5:7   */\n      dup1\n      iszero\n      tag_62\n      jumpi\n        /* \"--CODEGEN--\":30:31   */\n      0x00\n        /* \"--CODEGEN--\":27:28   */\n      dup1\n        /* \"--CODEGEN--\":20:32   */\n      revert\n        /* \"--CODEGEN--\":5:7   */\n    tag_62:\n        /* \"CONTRACT/v2-core-master/contracts/UniswapV2Factory.sol\":1449:1496  IUniswapV2Pair(pair).initialize(token0, token1) */\n      pop\n      gas\n      call\n      iszero\n        /* \"--CODEGEN--\":8:17   */\n      dup1\n        /* \"--CODEGEN--\":5:7   */\n      iszero\n      tag_63\n      jumpi\n        /* \"--CODEGEN--\":45:61   */\n      returndatasize\n        /* \"--CODEGEN--\":42:43   */\n      0x00\n        /* \"--CODEGEN--\":39:40   */\n      dup1\n        /* \"--CODEGEN--\":24:62   */\n      returndatacopy\n        /* \"--CODEGEN--\":77:93   */\n      returndatasize\n        /* \"--CODEGEN--\":74:75   */\n      0x00\n        /* \"--CODEGEN--\":67:94   */\n      revert\n        /* \"--CODEGEN--\":5:7   */\n    tag_63:\n      pop\n      pop\n      pop\n      pop\n      sub(shl(0xa0, 0x01), 0x01)\n        /* \"CONTRACT/v2-core-master/contracts/UniswapV2Factory.sol\":1507:1522  getPair[token0] */\n      dup5\n      dup2\n      and\n      0x00\n      dup2\n      dup2\n      mstore\n        /* \"CONTRACT/v2-core-master/contracts/UniswapV2Factory.sol\":1507:1514  getPair */\n      0x03\n        /* \"CONTRACT/v2-core-master/contracts/UniswapV2Factory.sol\":1507:1522  getPair[token0] */\n      0x20\n      dup2\n      dup2\n      mstore\n      0x40\n      dup1\n      dup5\n      keccak256\n        /* \"CONTRACT/v2-core-master/contracts/UniswapV2Factory.sol\":1507:1530  getPair[token0][token1] */\n      dup10\n      dup8\n      and\n      dup1\n      dup7\n      mstore\n      swap1\n      dup4\n      mstore\n      dup2\n      dup6\n      keccak256\n        /* \"CONTRACT/v2-core-master/contracts/UniswapV2Factory.sol\":1507:1537  getPair[token0][token1] = pair */\n      dup1\n      sload\n      swap8\n      dup14\n      and\n      not(sub(shl(0xa0, 0x01), 0x01))\n      swap9\n      dup10\n      and\n      dup2\n      or\n      swap1\n      swap2\n      sstore\n        /* \"CONTRACT/v2-core-master/contracts/UniswapV2Factory.sol\":1548:1563  getPair[token1] */\n      swap4\n      dup4\n      mstore\n      dup2\n      dup6\n      keccak256\n        /* \"CONTRACT/v2-core-master/contracts/UniswapV2Factory.sol\":1548:1571  getPair[token1][token0] */\n      dup7\n      dup7\n      mstore\n      dup4\n      mstore\n      dup2\n      dup6\n      keccak256\n        /* \"CONTRACT/v2-core-master/contracts/UniswapV2Factory.sol\":1548:1578  getPair[token1][token0] = pair */\n      dup1\n      sload\n      dup9\n      and\n      dup6\n      or\n      swap1\n      sstore\n        /* \"CONTRACT/v2-core-master/contracts/UniswapV2Factory.sol\":1634:1642  allPairs */\n      0x04\n        /* \"--CODEGEN--\":27:37   */\n      dup1\n      sload\n      0x01\n        /* \"--CODEGEN--\":23:41   */\n      dup2\n      add\n        /* \"--CODEGEN--\":45:68   */\n      dup3\n      sstore\n        /* \"CONTRACT/v2-core-master/contracts/UniswapV2Factory.sol\":1634:1653  allPairs.push(pair) */\n      swap6\n      dup2\n      swap1\n      mstore\n      0x8a35acfbc15ff81a39ae7d344fd709f28e8600b4aa8c65c6b64bfe7fe36bd19b\n      swap1\n      swap6\n      add\n      dup1\n      sload\n      swap1\n      swap8\n      and\n      dup5\n      or\n      swap1\n      swap7\n      sstore\n        /* \"CONTRACT/v2-core-master/contracts/UniswapV2Factory.sol\":1703:1718  allPairs.length */\n      swap3\n      sload\n        /* \"CONTRACT/v2-core-master/contracts/UniswapV2Factory.sol\":1669:1719  PairCreated(token0, token1, pair, allPairs.length) */\n      dup4\n      mload\n      swap3\n      dup4\n      mstore\n      swap1\n      dup3\n      add\n      mstore\n      dup2\n      mload\n      0x0d3648bd0f6ba80134a33ba9275ac585d9d315f0ad8355cddefde31afa28d0e9\n      swap3\n      swap2\n      dup2\n      swap1\n      sub\n      swap1\n      swap2\n      add\n      swap1\n      log3\n        /* \"CONTRACT/v2-core-master/contracts/UniswapV2Factory.sol\":764:1727  function createPair(address tokenA, address tokenB) external returns (address pair) {\r... */\n      pop\n      pop\n      pop\n      pop\n      swap3\n      swap2\n      pop\n      pop\n      jump\t// out\n        /* \"CONTRACT/v2-core-master/contracts/UniswapV2Factory.sol\":369:431  mapping(address => mapping(address => address)) public getPair */\n    tag_39:\n      0x03\n      0x20\n      swap1\n      dup2\n      mstore\n      0x00\n      swap3\n      dup4\n      mstore\n      0x40\n      dup1\n      dup5\n      keccak256\n      swap1\n      swap2\n      mstore\n      swap1\n      dup3\n      mstore\n      swap1\n      keccak256\n      sload\n      sub(shl(0xa0, 0x01), 0x01)\n      and\n      dup2\n      jump\t// out\n        /* \"CONTRACT/v2-core-master/contracts/UniswapV2Factory.sol\":1735:1880  function setFeeTo(address _feeTo) external {\r... */\n    tag_42:\n        /* \"CONTRACT/v2-core-master/contracts/UniswapV2Factory.sol\":1811:1822  feeToSetter */\n      and(sub(shl(0xa0, 0x01), 0x01), sload(0x02))\n        /* \"CONTRACT/v2-core-master/contracts/UniswapV2Factory.sol\":1797:1807  msg.sender */\n      caller\n        /* \"CONTRACT/v2-core-master/contracts/UniswapV2Factory.sol\":1797:1822  msg.sender == feeToSetter */\n      eq\n        /* \"CONTRACT/v2-core-master/contracts/UniswapV2Factory.sol\":1789:1847  require(msg.sender == feeToSetter, 'UniswapV2: FORBIDDEN') */\n      tag_66\n      jumpi\n      0x40\n      dup1\n      mload\n      shl(0xe5, 0x461bcd)\n      dup2\n      mstore\n      0x20\n      0x04\n      dup3\n      add\n      mstore\n      0x14\n      0x24\n      dup3\n      add\n      mstore\n      shl(0x61, 0x2ab734b9bbb0b82b191d102327a92124a22222a7)\n      0x44\n      dup3\n      add\n      mstore\n      swap1\n      mload\n      swap1\n      dup2\n      swap1\n      sub\n      0x64\n      add\n      swap1\n      revert\n    tag_66:\n        /* \"CONTRACT/v2-core-master/contracts/UniswapV2Factory.sol\":1858:1863  feeTo */\n      0x00\n        /* \"CONTRACT/v2-core-master/contracts/UniswapV2Factory.sol\":1858:1872  feeTo = _feeTo */\n      dup1\n      sload\n      not(sub(shl(0xa0, 0x01), 0x01))\n      and\n      sub(shl(0xa0, 0x01), 0x01)\n      swap3\n      swap1\n      swap3\n      and\n      swap2\n      swap1\n      swap2\n      or\n      swap1\n      sstore\n        /* \"CONTRACT/v2-core-master/contracts/UniswapV2Factory.sol\":1735:1880  function setFeeTo(address _feeTo) external {\r... */\n      jump\t// out\n        /* \"CONTRACT/v2-core-master/contracts/UniswapV2Factory.sol\":108:2241  contract UniswapV2Factory is IUniswapV2Factory {\r... */\n    tag_48:\n      dataSize(sub_0)\n      dup1\n      dataOffset(sub_0)\n      dup4\n      codecopy\n      add\n      swap1\n      jump\t// out\n    stop\n\n    sub_0: assembly {\n            /* \"CONTRACT/v2-core-master/contracts/UniswapV2Pair.sol\":301:10385  contract UniswapV2Pair is IUniswapV2Pair, UniswapV2ERC20 {\r... */\n          mstore(0x40, 0x80)\n            /* \"CONTRACT/v2-core-master/contracts/UniswapV2Pair.sol\":1170:1171  1 */\n          0x01\n            /* \"CONTRACT/v2-core-master/contracts/UniswapV2Pair.sol\":1146:1171  uint private unlocked = 1 */\n          0x0c\n          sstore\n            /* \"CONTRACT/v2-core-master/contracts/UniswapV2Pair.sol\":2257:2317  constructor() public {\r... */\n          callvalue\n            /* \"--CODEGEN--\":8:17   */\n          dup1\n            /* \"--CODEGEN--\":5:7   */\n          iszero\n          tag_1\n          jumpi\n            /* \"--CODEGEN--\":30:31   */\n          0x00\n            /* \"--CODEGEN--\":27:28   */\n          dup1\n            /* \"--CODEGEN--\":20:32   */\n          revert\n            /* \"--CODEGEN--\":5:7   */\n        tag_1:\n          pop\n            /* \"CONTRACT/v2-core-master/contracts/UniswapV2ERC20.sol\":1135:1230  keccak256('EIP712Domain(string name,string version,uint256 chainId,address verifyingContract)') */\n          mload(0x40)\n            /* \"CONTRACT/v2-core-master/contracts/UniswapV2ERC20.sol\":1035:1042  chainid */\n          chainid\n          swap1\n            /* \"CONTRACT/v2-core-master/contracts/UniswapV2ERC20.sol\":1135:1230  keccak256('EIP712Domain(string name,string version,uint256 chainId,address verifyingContract)') */\n          dup1\n          0x52\n          data_8b73c3c69bb8fe3d512ecc4cf759cc79239f7b179b0ffacaa9a75d522b39400f\n          dup3\n          codecopy\n          0x40\n          dup1\n          mload\n          swap2\n          dup3\n          swap1\n          sub\n          0x52\n          add\n          dup3\n          keccak256\n            /* \"CONTRACT/v2-core-master/contracts/UniswapV2ERC20.sol\":1265:1269  name */\n          dup3\n          dup3\n          add\n          dup3\n          mstore\n          0x0c\n          dup4\n          mstore\n          shl(0xa1, 0x21b0b934ba37902a37b5b2b7)\n          0x20\n          swap4\n          dup5\n          add\n          mstore\n            /* \"CONTRACT/v2-core-master/contracts/UniswapV2ERC20.sol\":1300:1310  bytes('1') */\n          dup2\n          mload\n          dup1\n          dup4\n          add\n          dup4\n          mstore\n          0x01\n          dup2\n          mstore\n          shl(0xf8, 0x31)\n          swap1\n          dup5\n          add\n          mstore\n            /* \"CONTRACT/v2-core-master/contracts/UniswapV2ERC20.sol\":1106:1384  abi.encode(\r... */\n          dup2\n          mload\n          dup1\n          dup5\n          add\n          swap2\n          swap1\n          swap2\n          mstore\n            /* \"CONTRACT/v2-core-master/contracts/UniswapV2ERC20.sol\":1249:1271  keccak256(bytes(name)) */\n          0x357203f76b0dc025f1d46df98cb82c095adab3c756a9ca87ce6defd809207e04\n            /* \"CONTRACT/v2-core-master/contracts/UniswapV2ERC20.sol\":1106:1384  abi.encode(\r... */\n          dup2\n          dup4\n          add\n          mstore\n            /* \"CONTRACT/v2-core-master/contracts/UniswapV2ERC20.sol\":1290:1311  keccak256(bytes('1')) */\n          0xc89efdaa54c0f20c7adf612882df0950f5a951637e0307cdcb4c672f298b8bc6\n            /* \"CONTRACT/v2-core-master/contracts/UniswapV2ERC20.sol\":1106:1384  abi.encode(\r... */\n          0x60\n          dup3\n          add\n          mstore\n          0x80\n          dup2\n          add\n          swap5\n          swap1\n          swap5\n          mstore\n            /* \"CONTRACT/v2-core-master/contracts/UniswapV2ERC20.sol\":1364:1368  this */\n          address\n            /* \"CONTRACT/v2-core-master/contracts/UniswapV2ERC20.sol\":1106:1384  abi.encode(\r... */\n          0xa0\n          dup1\n          dup7\n          add\n          swap2\n          swap1\n          swap2\n          mstore\n          dup2\n          mload\n            /* \"--CODEGEN--\":26:47   */\n          dup1\n          dup7\n          sub\n            /* \"--CODEGEN--\":22:54   */\n          swap1\n          swap2\n          add\n            /* \"--CODEGEN--\":6:55   */\n          dup2\n          mstore\n            /* \"CONTRACT/v2-core-master/contracts/UniswapV2ERC20.sol\":1106:1384  abi.encode(\r... */\n          0xc0\n          swap1\n          swap5\n          add\n          swap1\n          mstore\n            /* \"CONTRACT/v2-core-master/contracts/UniswapV2ERC20.sol\":1082:1395  keccak256(\r... */\n          dup3\n          mload\n          swap3\n          add\n          swap2\n          swap1\n          swap2\n          keccak256\n            /* \"CONTRACT/v2-core-master/contracts/UniswapV2ERC20.sol\":1063:1079  DOMAIN_SEPARATOR */\n          0x03\n            /* \"CONTRACT/v2-core-master/contracts/UniswapV2ERC20.sol\":1063:1395  DOMAIN_SEPARATOR = keccak256(\r... */\n          sstore\n          pop\n            /* \"CONTRACT/v2-core-master/contracts/UniswapV2Pair.sol\":2289:2296  factory */\n          0x05\n            /* \"CONTRACT/v2-core-master/contracts/UniswapV2Pair.sol\":2289:2309  factory = msg.sender */\n          dup1\n          sload\n          not(sub(shl(0xa0, 0x01), 0x01))\n          and\n            /* \"CONTRACT/v2-core-master/contracts/UniswapV2Pair.sol\":2299:2309  msg.sender */\n          caller\n            /* \"CONTRACT/v2-core-master/contracts/UniswapV2Pair.sol\":2289:2309  factory = msg.sender */\n          or\n          swap1\n          sstore\n          0x2328\n          dup1\n            /* \"CONTRACT/v2-core-master/contracts/UniswapV2Pair.sol\":301:10385  contract UniswapV2Pair is IUniswapV2Pair, UniswapV2ERC20 {\r... */\n          dataOffset(sub_0)\n          0x00\n          codecopy\n          0x00\n          return\n        stop\n        data_8b73c3c69bb8fe3d512ecc4cf759cc79239f7b179b0ffacaa9a75d522b39400f 454950373132446f6d61696e28737472696e67206e616d652c737472696e672076657273696f6e2c75696e7432353620636861696e49642c6164647265737320766572696679696e67436f6e747261637429\n\n        sub_0: assembly {\n                /* \"CONTRACT/v2-core-master/contracts/UniswapV2Pair.sol\":301:10385  contract UniswapV2Pair is IUniswapV2Pair, UniswapV2ERC20 {\r... */\n              mstore(0x40, 0x80)\n              callvalue\n                /* \"--CODEGEN--\":8:17   */\n              dup1\n                /* \"--CODEGEN--\":5:7   */\n              iszero\n              tag_1\n              jumpi\n                /* \"--CODEGEN--\":30:31   */\n              0x00\n                /* \"--CODEGEN--\":27:28   */\n              dup1\n                /* \"--CODEGEN--\":20:32   */\n              revert\n                /* \"--CODEGEN--\":5:7   */\n            tag_1:\n                /* \"CONTRACT/v2-core-master/contracts/UniswapV2Pair.sol\":301:10385  contract UniswapV2Pair is IUniswapV2Pair, UniswapV2ERC20 {\r... */\n              pop\n              jumpi(tag_2, lt(calldatasize, 0x04))\n              shr(0xe0, calldataload(0x00))\n              dup1\n              0x6a627842\n              gt\n              tag_30\n              jumpi\n              dup1\n              0xba9a7a56\n              gt\n              tag_31\n              jumpi\n              dup1\n              0xd21220a7\n              gt\n              tag_32\n              jumpi\n              dup1\n              0xd21220a7\n              eq\n              tag_26\n              jumpi\n              dup1\n              0xd505accf\n              eq\n              tag_27\n              jumpi\n              dup1\n              0xdd62ed3e\n              eq\n              tag_28\n              jumpi\n              dup1\n              0xfff6cae9\n              eq\n              tag_29\n              jumpi\n              jump(tag_2)\n            tag_32:\n              dup1\n              0xba9a7a56\n              eq\n              tag_23\n              jumpi\n              dup1\n              0xbc25cf77\n              eq\n              tag_24\n              jumpi\n              dup1\n              0xc45a0155\n              eq\n              tag_25\n              jumpi\n              jump(tag_2)\n            tag_31:\n              dup1\n              0x7ecebe00\n              gt\n              tag_33\n              jumpi\n              dup1\n              0x7ecebe00\n              eq\n              tag_19\n              jumpi\n              dup1\n              0x89afcb44\n              eq\n              tag_20\n              jumpi\n              dup1\n              0x95d89b41\n              eq\n              tag_21\n              jumpi\n              dup1\n              0xa9059cbb\n              eq\n              tag_22\n              jumpi\n              jump(tag_2)\n            tag_33:\n              dup1\n              0x6a627842\n              eq\n              tag_16\n              jumpi\n              dup1\n              0x70a08231\n              eq\n              tag_17\n              jumpi\n              dup1\n              0x7464fc3d\n              eq\n              tag_18\n              jumpi\n              jump(tag_2)\n            tag_30:\n              dup1\n              0x23b872dd\n              gt\n              tag_34\n              jumpi\n              dup1\n              0x3644e515\n              gt\n              tag_35\n              jumpi\n              dup1\n              0x3644e515\n              eq\n              tag_12\n              jumpi\n              dup1\n              0x485cc955\n              eq\n              tag_13\n              jumpi\n              dup1\n              0x5909c0d5\n              eq\n              tag_14\n              jumpi\n              dup1\n              0x5a3d5493\n              eq\n              tag_15\n              jumpi\n              jump(tag_2)\n            tag_35:\n              dup1\n              0x23b872dd\n              eq\n              tag_9\n              jumpi\n              dup1\n              0x30adf81f\n              eq\n              tag_10\n              jumpi\n              dup1\n              0x313ce567\n              eq\n              tag_11\n              jumpi\n              jump(tag_2)\n            tag_34:\n              dup1\n              0x022c0d9f\n              eq\n              tag_3\n              jumpi\n              dup1\n              0x06fdde03\n              eq\n              tag_4\n              jumpi\n              dup1\n              0x0902f1ac\n              eq\n              tag_5\n              jumpi\n              dup1\n              0x095ea7b3\n              eq\n              tag_6\n              jumpi\n              dup1\n              0x0dfe1681\n              eq\n              tag_7\n              jumpi\n              dup1\n              0x18160ddd\n              eq\n              tag_8\n              jumpi\n            tag_2:\n              0x00\n              dup1\n              revert\n                /* \"CONTRACT/v2-core-master/contracts/UniswapV2Pair.sol\":7903:9792  function swap(uint amount0Out, uint amount1Out, address to, bytes calldata data) external lock {\r... */\n            tag_3:\n              tag_36\n              0x04\n              dup1\n              calldatasize\n              sub\n                /* \"--CODEGEN--\":13:16   */\n              0x80\n                /* \"--CODEGEN--\":8:11   */\n              dup2\n                /* \"--CODEGEN--\":5:17   */\n              lt\n                /* \"--CODEGEN--\":2:4   */\n              iszero\n              tag_37\n              jumpi\n                /* \"--CODEGEN--\":30:31   */\n              0x00\n                /* \"--CODEGEN--\":27:28   */\n              dup1\n                /* \"--CODEGEN--\":20:32   */\n              revert\n                /* \"--CODEGEN--\":2:4   */\n            tag_37:\n                /* \"CONTRACT/v2-core-master/contracts/UniswapV2Pair.sol\":7903:9792  function swap(uint amount0Out, uint amount1Out, address to, bytes calldata data) external lock {\r... */\n              dup2\n              calldataload\n              swap2\n              0x20\n              dup2\n              add\n              calldataload\n              swap2\n              0x40\n              dup3\n              add\n              calldataload\n              sub(shl(0xa0, 0x01), 0x01)\n              and\n              swap2\n              swap1\n              dup2\n              add\n              swap1\n              0x80\n              dup2\n              add\n              0x60\n              dup3\n              add\n              calldataload\n                /* \"--CODEGEN--\":21:32   */\n              0x0100000000\n                /* \"--CODEGEN--\":5:33   */\n              dup2\n              gt\n                /* \"--CODEGEN--\":2:4   */\n              iszero\n              tag_38\n              jumpi\n                /* \"--CODEGEN--\":46:47   */\n              0x00\n                /* \"--CODEGEN--\":43:44   */\n              dup1\n                /* \"--CODEGEN--\":36:48   */\n              revert\n                /* \"--CODEGEN--\":2:4   */\n            tag_38:\n                /* \"CONTRACT/v2-core-master/contracts/UniswapV2Pair.sol\":7903:9792  function swap(uint amount0Out, uint amount1Out, address to, bytes calldata data) external lock {\r... */\n              dup3\n              add\n                /* \"--CODEGEN--\":35:44   */\n              dup4\n                /* \"--CODEGEN--\":28:32   */\n              0x20\n                /* \"--CODEGEN--\":12:26   */\n              dup3\n                /* \"--CODEGEN--\":8:33   */\n              add\n                /* \"--CODEGEN--\":5:45   */\n              gt\n                /* \"--CODEGEN--\":2:4   */\n              iszero\n              tag_39\n              jumpi\n                /* \"--CODEGEN--\":58:59   */\n              0x00\n                /* \"--CODEGEN--\":55:56   */\n              dup1\n                /* \"--CODEGEN--\":48:60   */\n              revert\n                /* \"--CODEGEN--\":2:4   */\n            tag_39:\n                /* \"CONTRACT/v2-core-master/contracts/UniswapV2Pair.sol\":7903:9792  function swap(uint amount0Out, uint amount1Out, address to, bytes calldata data) external lock {\r... */\n              dup1\n              calldataload\n              swap1\n              0x20\n              add\n              swap2\n                /* \"--CODEGEN--\":100:109   */\n              dup5\n                /* \"--CODEGEN--\":95:96   */\n              0x01\n                /* \"--CODEGEN--\":81:93   */\n              dup4\n                /* \"--CODEGEN--\":77:97   */\n              mul\n                /* \"--CODEGEN--\":67:75   */\n              dup5\n                /* \"--CODEGEN--\":63:98   */\n              add\n                /* \"--CODEGEN--\":60:110   */\n              gt\n                /* \"--CODEGEN--\":39:50   */\n              0x0100000000\n                /* \"--CODEGEN--\":25:37   */\n              dup4\n                /* \"--CODEGEN--\":22:51   */\n              gt\n                /* \"--CODEGEN--\":11:118   */\n              or\n                /* \"--CODEGEN--\":8:10   */\n              iszero\n              tag_40\n              jumpi\n                /* \"--CODEGEN--\":131:132   */\n              0x00\n                /* \"--CODEGEN--\":128:129   */\n              dup1\n                /* \"--CODEGEN--\":121:133   */\n              revert\n                /* \"--CODEGEN--\":8:10   */\n            tag_40:\n              pop\n                /* \"CONTRACT/v2-core-master/contracts/UniswapV2Pair.sol\":7903:9792  function swap(uint amount0Out, uint amount1Out, address to, bytes calldata data) external lock {\r... */\n              swap1\n              swap3\n              pop\n              swap1\n              pop\n              tag_41\n              jump\t// in\n            tag_36:\n              stop\n                /* \"CONTRACT/v2-core-master/contracts/UniswapV2ERC20.sol\":193:237  string public constant name = 'Carito Token' */\n            tag_4:\n              tag_42\n              tag_43\n              jump\t// in\n            tag_42:\n              0x40\n              dup1\n              mload\n              0x20\n              dup1\n              dup3\n              mstore\n              dup4\n              mload\n              dup2\n              dup4\n              add\n              mstore\n              dup4\n              mload\n              swap2\n              swap3\n              dup4\n              swap3\n              swap1\n              dup4\n              add\n              swap2\n              dup6\n              add\n              swap1\n              dup1\n              dup4\n              dup4\n              0x00\n                /* \"--CODEGEN--\":8:108   */\n            tag_44:\n                /* \"--CODEGEN--\":33:36   */\n              dup4\n                /* \"--CODEGEN--\":30:31   */\n              dup2\n                /* \"--CODEGEN--\":27:37   */\n              lt\n                /* \"--CODEGEN--\":8:108   */\n              iszero\n              tag_46\n              jumpi\n                /* \"--CODEGEN--\":90:101   */\n              dup2\n              dup2\n              add\n                /* \"--CODEGEN--\":84:102   */\n              mload\n                /* \"--CODEGEN--\":71:82   */\n              dup4\n              dup3\n              add\n                /* \"--CODEGEN--\":64:103   */\n              mstore\n                /* \"--CODEGEN--\":52:54   */\n              0x20\n                /* \"--CODEGEN--\":45:55   */\n              add\n                /* \"--CODEGEN--\":8:108   */\n              jump(tag_44)\n            tag_46:\n                /* \"--CODEGEN--\":12:26   */\n              pop\n                /* \"CONTRACT/v2-core-master/contracts/UniswapV2ERC20.sol\":193:237  string public constant name = 'Carito Token' */\n              pop\n              pop\n              pop\n              swap1\n              pop\n              swap1\n              dup2\n              add\n              swap1\n              0x1f\n              and\n              dup1\n              iszero\n              tag_47\n              jumpi\n              dup1\n              dup3\n              sub\n              dup1\n              mload\n              0x01\n              dup4\n              0x20\n              sub\n              0x0100\n              exp\n              sub\n              not\n              and\n              dup2\n              mstore\n              0x20\n              add\n              swap2\n              pop\n            tag_47:\n              pop\n              swap3\n              pop\n              pop\n              pop\n              mload(0x40)\n              dup1\n              swap2\n              sub\n              swap1\n              return\n                /* \"CONTRACT/v2-core-master/contracts/UniswapV2Pair.sol\":1322:1553  function getReserves() public view returns (uint112 _reserve0, uint112 _reserve1, uint32 _blockTimestampLast) {\r... */\n            tag_5:\n              tag_48\n              tag_49\n              jump\t// in\n            tag_48:\n              0x40\n              dup1\n              mload\n              sub(shl(0x70, 0x01), 0x01)\n              swap5\n              dup6\n              and\n              dup2\n              mstore\n              swap3\n              swap1\n              swap4\n              and\n              0x20\n              dup4\n              add\n              mstore\n              0xffffffff\n              and\n              dup2\n              dup4\n              add\n              mstore\n              swap1\n              mload\n              swap1\n              dup2\n              swap1\n              sub\n              0x60\n              add\n              swap1\n              return\n                /* \"CONTRACT/v2-core-master/contracts/UniswapV2ERC20.sol\":2242:2389  function approve(address spender, uint value) external returns (bool) {\r... */\n            tag_6:\n              tag_50\n              0x04\n              dup1\n              calldatasize\n              sub\n                /* \"--CODEGEN--\":13:15   */\n              0x40\n                /* \"--CODEGEN--\":8:11   */\n              dup2\n                /* \"--CODEGEN--\":5:16   */\n              lt\n                /* \"--CODEGEN--\":2:4   */\n              iszero\n              tag_51\n              jumpi\n                /* \"--CODEGEN--\":29:30   */\n              0x00\n                /* \"--CODEGEN--\":26:27   */\n              dup1\n                /* \"--CODEGEN--\":19:31   */\n              revert\n                /* \"--CODEGEN--\":2:4   */\n            tag_51:\n              pop\n                /* \"CONTRACT/v2-core-master/contracts/UniswapV2ERC20.sol\":2242:2389  function approve(address spender, uint value) external returns (bool) {\r... */\n              dup1\n              calldataload\n              sub(shl(0xa0, 0x01), 0x01)\n              and\n              swap1\n              0x20\n              add\n              calldataload\n              tag_52\n              jump\t// in\n            tag_50:\n              0x40\n              dup1\n              mload\n              swap2\n              iszero\n              iszero\n              dup3\n              mstore\n              mload\n              swap1\n              dup2\n              swap1\n              sub\n              0x20\n              add\n              swap1\n              return\n                /* \"CONTRACT/v2-core-master/contracts/UniswapV2Pair.sol\":611:632  address public token0 */\n            tag_7:\n              tag_53\n              tag_54\n              jump\t// in\n            tag_53:\n              0x40\n              dup1\n              mload\n              0x01\n              dup1\n              0xa0\n              shl\n              sub\n              swap1\n              swap3\n              and\n              dup3\n              mstore\n              mload\n              swap1\n              dup2\n              swap1\n              sub\n              0x20\n              add\n              swap1\n              return\n                /* \"CONTRACT/v2-core-master/contracts/UniswapV2ERC20.sol\":333:357  uint  public totalSupply */\n            tag_8:\n              tag_55\n              tag_56\n              jump\t// in\n            tag_55:\n              0x40\n              dup1\n              mload\n              swap2\n              dup3\n              mstore\n              mload\n              swap1\n              dup2\n              swap1\n              sub\n              0x20\n              add\n              swap1\n              return\n                /* \"CONTRACT/v2-core-master/contracts/UniswapV2ERC20.sol\":2544:2845  function transferFrom(address from, address to, uint value) external returns (bool) {\r... */\n            tag_9:\n              tag_50\n              0x04\n              dup1\n              calldatasize\n              sub\n                /* \"--CODEGEN--\":13:15   */\n              0x60\n                /* \"--CODEGEN--\":8:11   */\n              dup2\n                /* \"--CODEGEN--\":5:16   */\n              lt\n                /* \"--CODEGEN--\":2:4   */\n              iszero\n              tag_58\n              jumpi\n                /* \"--CODEGEN--\":29:30   */\n              0x00\n                /* \"--CODEGEN--\":26:27   */\n              dup1\n                /* \"--CODEGEN--\":19:31   */\n              revert\n                /* \"--CODEGEN--\":2:4   */\n            tag_58:\n              pop\n              sub(shl(0xa0, 0x01), 0x01)\n                /* \"CONTRACT/v2-core-master/contracts/UniswapV2ERC20.sol\":2544:2845  function transferFrom(address from, address to, uint value) external returns (bool) {\r... */\n              dup2\n              calldataload\n              dup2\n              and\n              swap2\n              0x20\n              dup2\n              add\n              calldataload\n              swap1\n              swap2\n              and\n              swap1\n              0x40\n              add\n              calldataload\n              tag_59\n              jump\t// in\n                /* \"CONTRACT/v2-core-master/contracts/UniswapV2ERC20.sol\":625:733  bytes32 public constant PERMIT_TYPEHASH = 0x6e71edae12b1b97f4d1f60370fef10105fa2faae0126114a169c64845d6126c9 */\n            tag_10:\n              tag_55\n              tag_61\n              jump\t// in\n                /* \"CONTRACT/v2-core-master/contracts/UniswapV2ERC20.sol\":291:326  uint8 public constant decimals = 18 */\n            tag_11:\n              tag_62\n              tag_63\n              jump\t// in\n            tag_62:\n              0x40\n              dup1\n              mload\n              0xff\n              swap1\n              swap3\n              and\n              dup3\n              mstore\n              mload\n              swap1\n              dup2\n              swap1\n              sub\n              0x20\n              add\n              swap1\n              return\n                /* \"CONTRACT/v2-core-master/contracts/UniswapV2ERC20.sol\":482:513  bytes32 public DOMAIN_SEPARATOR */\n            tag_12:\n              tag_55\n              tag_65\n              jump\t// in\n                /* \"CONTRACT/v2-core-master/contracts/UniswapV2Pair.sol\":2382:2592  function initialize(address _token0, address _token1) external {\r... */\n            tag_13:\n              tag_36\n              0x04\n              dup1\n              calldatasize\n              sub\n                /* \"--CODEGEN--\":13:15   */\n              0x40\n                /* \"--CODEGEN--\":8:11   */\n              dup2\n                /* \"--CODEGEN--\":5:16   */\n              lt\n                /* \"--CODEGEN--\":2:4   */\n              iszero\n              tag_67\n              jumpi\n                /* \"--CODEGEN--\":29:30   */\n              0x00\n                /* \"--CODEGEN--\":26:27   */\n              dup1\n                /* \"--CODEGEN--\":19:31   */\n              revert\n                /* \"--CODEGEN--\":2:4   */\n            tag_67:\n              pop\n              sub(shl(0xa0, 0x01), 0x01)\n                /* \"CONTRACT/v2-core-master/contracts/UniswapV2Pair.sol\":2382:2592  function initialize(address _token0, address _token1) external {\r... */\n              dup2\n              calldataload\n              dup2\n              and\n              swap2\n              0x20\n              add\n              calldataload\n              and\n              tag_68\n              jump\t// in\n                /* \"CONTRACT/v2-core-master/contracts/UniswapV2Pair.sol\":962:994  uint public price0CumulativeLast */\n            tag_14:\n              tag_55\n              tag_70\n              jump\t// in\n                /* \"CONTRACT/v2-core-master/contracts/UniswapV2Pair.sol\":1001:1033  uint public price1CumulativeLast */\n            tag_15:\n              tag_55\n              tag_72\n              jump\t// in\n                /* \"CONTRACT/v2-core-master/contracts/UniswapV2Pair.sol\":4973:6213  function mint(address to) external lock returns (uint liquidity) {\r... */\n            tag_16:\n              tag_55\n              0x04\n              dup1\n              calldatasize\n              sub\n                /* \"--CODEGEN--\":13:15   */\n              0x20\n                /* \"--CODEGEN--\":8:11   */\n              dup2\n                /* \"--CODEGEN--\":5:16   */\n              lt\n                /* \"--CODEGEN--\":2:4   */\n              iszero\n              tag_74\n              jumpi\n                /* \"--CODEGEN--\":29:30   */\n              0x00\n                /* \"--CODEGEN--\":26:27   */\n              dup1\n                /* \"--CODEGEN--\":19:31   */\n              revert\n                /* \"--CODEGEN--\":2:4   */\n            tag_74:\n              pop\n                /* \"CONTRACT/v2-core-master/contracts/UniswapV2Pair.sol\":4973:6213  function mint(address to) external lock returns (uint liquidity) {\r... */\n              calldataload\n              sub(shl(0xa0, 0x01), 0x01)\n              and\n              tag_75\n              jump\t// in\n                /* \"CONTRACT/v2-core-master/contracts/UniswapV2ERC20.sol\":364:405  mapping(address => uint) public balanceOf */\n            tag_17:\n              tag_55\n              0x04\n              dup1\n              calldatasize\n              sub\n                /* \"--CODEGEN--\":13:15   */\n              0x20\n                /* \"--CODEGEN--\":8:11   */\n              dup2\n                /* \"--CODEGEN--\":5:16   */\n              lt\n                /* \"--CODEGEN--\":2:4   */\n              iszero\n              tag_77\n              jumpi\n                /* \"--CODEGEN--\":29:30   */\n              0x00\n                /* \"--CODEGEN--\":26:27   */\n              dup1\n                /* \"--CODEGEN--\":19:31   */\n              revert\n                /* \"--CODEGEN--\":2:4   */\n            tag_77:\n              pop\n                /* \"CONTRACT/v2-core-master/contracts/UniswapV2ERC20.sol\":364:405  mapping(address => uint) public balanceOf */\n              calldataload\n              sub(shl(0xa0, 0x01), 0x01)\n              and\n              tag_78\n              jump\t// in\n                /* \"CONTRACT/v2-core-master/contracts/UniswapV2Pair.sol\":1040:1057  uint public kLast */\n            tag_18:\n              tag_55\n              tag_80\n              jump\t// in\n                /* \"CONTRACT/v2-core-master/contracts/UniswapV2ERC20.sol\":740:778  mapping(address => uint) public nonces */\n            tag_19:\n              tag_55\n              0x04\n              dup1\n              calldatasize\n              sub\n                /* \"--CODEGEN--\":13:15   */\n              0x20\n                /* \"--CODEGEN--\":8:11   */\n              dup2\n                /* \"--CODEGEN--\":5:16   */\n              lt\n                /* \"--CODEGEN--\":2:4   */\n              iszero\n              tag_82\n              jumpi\n                /* \"--CODEGEN--\":29:30   */\n              0x00\n                /* \"--CODEGEN--\":26:27   */\n              dup1\n                /* \"--CODEGEN--\":19:31   */\n              revert\n                /* \"--CODEGEN--\":2:4   */\n            tag_82:\n              pop\n                /* \"CONTRACT/v2-core-master/contracts/UniswapV2ERC20.sol\":740:778  mapping(address => uint) public nonces */\n              calldataload\n              sub(shl(0xa0, 0x01), 0x01)\n              and\n              tag_83\n              jump\t// in\n                /* \"CONTRACT/v2-core-master/contracts/UniswapV2Pair.sol\":6325:7791  function burn(address to) external lock returns (uint amount0, uint amount1) {\r... */\n            tag_20:\n              tag_84\n              0x04\n              dup1\n              calldatasize\n              sub\n                /* \"--CODEGEN--\":13:15   */\n              0x20\n                /* \"--CODEGEN--\":8:11   */\n              dup2\n                /* \"--CODEGEN--\":5:16   */\n              lt\n                /* \"--CODEGEN--\":2:4   */\n              iszero\n              tag_85\n              jumpi\n                /* \"--CODEGEN--\":29:30   */\n              0x00\n                /* \"--CODEGEN--\":26:27   */\n              dup1\n                /* \"--CODEGEN--\":19:31   */\n              revert\n                /* \"--CODEGEN--\":2:4   */\n            tag_85:\n              pop\n                /* \"CONTRACT/v2-core-master/contracts/UniswapV2Pair.sol\":6325:7791  function burn(address to) external lock returns (uint amount0, uint amount1) {\r... */\n              calldataload\n              sub(shl(0xa0, 0x01), 0x01)\n              and\n              tag_86\n              jump\t// in\n            tag_84:\n              0x40\n              dup1\n              mload\n              swap3\n              dup4\n              mstore\n              0x20\n              dup4\n              add\n              swap2\n              swap1\n              swap2\n              mstore\n              dup1\n              mload\n              swap2\n              dup3\n              swap1\n              sub\n              add\n              swap1\n              return\n                /* \"CONTRACT/v2-core-master/contracts/UniswapV2ERC20.sol\":244:284  string public constant symbol = 'CARITO' */\n            tag_21:\n              tag_42\n              tag_88\n              jump\t// in\n                /* \"CONTRACT/v2-core-master/contracts/UniswapV2ERC20.sol\":2397:2536  function transfer(address to, uint value) external returns (bool) {\r... */\n            tag_22:\n              tag_50\n              0x04\n              dup1\n              calldatasize\n              sub\n                /* \"--CODEGEN--\":13:15   */\n              0x40\n                /* \"--CODEGEN--\":8:11   */\n              dup2\n                /* \"--CODEGEN--\":5:16   */\n              lt\n                /* \"--CODEGEN--\":2:4   */\n              iszero\n              tag_94\n              jumpi\n                /* \"--CODEGEN--\":29:30   */\n              0x00\n                /* \"--CODEGEN--\":26:27   */\n              dup1\n                /* \"--CODEGEN--\":19:31   */\n              revert\n                /* \"--CODEGEN--\":2:4   */\n            tag_94:\n              pop\n                /* \"CONTRACT/v2-core-master/contracts/UniswapV2ERC20.sol\":2397:2536  function transfer(address to, uint value) external returns (bool) {\r... */\n              dup1\n              calldataload\n              sub(shl(0xa0, 0x01), 0x01)\n              and\n              swap1\n              0x20\n              add\n              calldataload\n              tag_95\n              jump\t// in\n                /* \"CONTRACT/v2-core-master/contracts/UniswapV2Pair.sol\":432:478  uint public constant MINIMUM_LIQUIDITY = 10**3 */\n            tag_23:\n              tag_55\n              tag_97\n              jump\t// in\n                /* \"CONTRACT/v2-core-master/contracts/UniswapV2Pair.sol\":9841:10175  function skim(address to) external lock {\r... */\n            tag_24:\n              tag_36\n              0x04\n              dup1\n              calldatasize\n              sub\n                /* \"--CODEGEN--\":13:15   */\n              0x20\n                /* \"--CODEGEN--\":8:11   */\n              dup2\n                /* \"--CODEGEN--\":5:16   */\n              lt\n                /* \"--CODEGEN--\":2:4   */\n              iszero\n              tag_99\n              jumpi\n                /* \"--CODEGEN--\":29:30   */\n              0x00\n                /* \"--CODEGEN--\":26:27   */\n              dup1\n                /* \"--CODEGEN--\":19:31   */\n              revert\n                /* \"--CODEGEN--\":2:4   */\n            tag_99:\n              pop\n                /* \"CONTRACT/v2-core-master/contracts/UniswapV2Pair.sol\":9841:10175  function skim(address to) external lock {\r... */\n              calldataload\n              sub(shl(0xa0, 0x01), 0x01)\n              and\n              tag_100\n              jump\t// in\n                /* \"CONTRACT/v2-core-master/contracts/UniswapV2Pair.sol\":582:604  address public factory */\n            tag_25:\n              tag_53\n              tag_102\n              jump\t// in\n                /* \"CONTRACT/v2-core-master/contracts/UniswapV2Pair.sol\":639:660  address public token1 */\n            tag_26:\n              tag_53\n              tag_104\n              jump\t// in\n                /* \"CONTRACT/v2-core-master/contracts/UniswapV2ERC20.sol\":2853:3527  function permit(address owner, address spender, uint value, uint deadline, uint8 v, bytes32 r, bytes32 s) external {\r... */\n            tag_27:\n              tag_36\n              0x04\n              dup1\n              calldatasize\n              sub\n                /* \"--CODEGEN--\":13:16   */\n              0xe0\n                /* \"--CODEGEN--\":8:11   */\n              dup2\n                /* \"--CODEGEN--\":5:17   */\n              lt\n                /* \"--CODEGEN--\":2:4   */\n              iszero\n              tag_106\n              jumpi\n                /* \"--CODEGEN--\":30:31   */\n              0x00\n                /* \"--CODEGEN--\":27:28   */\n              dup1\n                /* \"--CODEGEN--\":20:32   */\n              revert\n                /* \"--CODEGEN--\":2:4   */\n            tag_106:\n              pop\n              sub(shl(0xa0, 0x01), 0x01)\n                /* \"CONTRACT/v2-core-master/contracts/UniswapV2ERC20.sol\":2853:3527  function permit(address owner, address spender, uint value, uint deadline, uint8 v, bytes32 r, bytes32 s) external {\r... */\n              dup2\n              calldataload\n              dup2\n              and\n              swap2\n              0x20\n              dup2\n              add\n              calldataload\n              swap1\n              swap2\n              and\n              swap1\n              0x40\n              dup2\n              add\n              calldataload\n              swap1\n              0x60\n              dup2\n              add\n              calldataload\n              swap1\n              0xff\n              0x80\n              dup3\n              add\n              calldataload\n              and\n              swap1\n              0xa0\n              dup2\n              add\n              calldataload\n              swap1\n              0xc0\n              add\n              calldataload\n              tag_107\n              jump\t// in\n                /* \"CONTRACT/v2-core-master/contracts/UniswapV2ERC20.sol\":412:473  mapping(address => mapping(address => uint)) public allowance */\n            tag_28:\n              tag_55\n              0x04\n              dup1\n              calldatasize\n              sub\n                /* \"--CODEGEN--\":13:15   */\n              0x40\n                /* \"--CODEGEN--\":8:11   */\n              dup2\n                /* \"--CODEGEN--\":5:16   */\n              lt\n                /* \"--CODEGEN--\":2:4   */\n              iszero\n              tag_109\n              jumpi\n                /* \"--CODEGEN--\":29:30   */\n              0x00\n                /* \"--CODEGEN--\":26:27   */\n              dup1\n                /* \"--CODEGEN--\":19:31   */\n              revert\n                /* \"--CODEGEN--\":2:4   */\n            tag_109:\n              pop\n              sub(shl(0xa0, 0x01), 0x01)\n                /* \"CONTRACT/v2-core-master/contracts/UniswapV2ERC20.sol\":412:473  mapping(address => mapping(address => uint)) public allowance */\n              dup2\n              calldataload\n              dup2\n              and\n              swap2\n              0x20\n              add\n              calldataload\n              and\n              tag_110\n              jump\t// in\n                /* \"CONTRACT/v2-core-master/contracts/UniswapV2Pair.sol\":10224:10382  function sync() external lock {\r... */\n            tag_29:\n              tag_36\n              tag_112\n              jump\t// in\n                /* \"CONTRACT/v2-core-master/contracts/UniswapV2Pair.sol\":7903:9792  function swap(uint amount0Out, uint amount1Out, address to, bytes calldata data) external lock {\r... */\n            tag_41:\n                /* \"CONTRACT/v2-core-master/contracts/UniswapV2Pair.sol\":1213:1221  unlocked */\n              sload(0x0c)\n                /* \"CONTRACT/v2-core-master/contracts/UniswapV2Pair.sol\":1225:1226  1 */\n              0x01\n                /* \"CONTRACT/v2-core-master/contracts/UniswapV2Pair.sol\":1213:1226  unlocked == 1 */\n              eq\n                /* \"CONTRACT/v2-core-master/contracts/UniswapV2Pair.sol\":1205:1248  require(unlocked == 1, 'UniswapV2: LOCKED') */\n              tag_114\n              jumpi\n              0x40\n              dup1\n              mload\n              shl(0xe5, 0x461bcd)\n              dup2\n              mstore\n              0x20\n              0x04\n              dup3\n              add\n              mstore\n              0x11\n              0x24\n              dup3\n              add\n              mstore\n              shl(0x7a, 0x155b9a5cddd85c158c8e881313d0d2d151)\n              0x44\n              dup3\n              add\n              mstore\n              swap1\n              mload\n              swap1\n              dup2\n              swap1\n              sub\n              0x64\n              add\n              swap1\n              revert\n            tag_114:\n                /* \"CONTRACT/v2-core-master/contracts/UniswapV2Pair.sol\":1270:1271  0 */\n              0x00\n                /* \"CONTRACT/v2-core-master/contracts/UniswapV2Pair.sol\":1259:1267  unlocked */\n              0x0c\n                /* \"CONTRACT/v2-core-master/contracts/UniswapV2Pair.sol\":1259:1271  unlocked = 0 */\n              sstore\n                /* \"CONTRACT/v2-core-master/contracts/UniswapV2Pair.sol\":8017:8031  amount0Out > 0 */\n              dup5\n              iszero\n              iszero\n              dup1\n                /* \"CONTRACT/v2-core-master/contracts/UniswapV2Pair.sol\":8017:8049  amount0Out > 0 || amount1Out > 0 */\n              tag_116\n              jumpi\n              pop\n                /* \"CONTRACT/v2-core-master/contracts/UniswapV2Pair.sol\":8048:8049  0 */\n              0x00\n                /* \"CONTRACT/v2-core-master/contracts/UniswapV2Pair.sol\":8035:8045  amount1Out */\n              dup5\n                /* \"CONTRACT/v2-core-master/contracts/UniswapV2Pair.sol\":8035:8049  amount1Out > 0 */\n              gt\n                /* \"CONTRACT/v2-core-master/contracts/UniswapV2Pair.sol\":8017:8049  amount0Out > 0 || amount1Out > 0 */\n            tag_116:\n                /* \"CONTRACT/v2-core-master/contracts/UniswapV2Pair.sol\":8009:8091  require(amount0Out > 0 || amount1Out > 0, 'UniswapV2: INSUFFICIENT_OUTPUT_AMOUNT') */\n              tag_117\n              jumpi\n              mload(0x40)\n              shl(0xe5, 0x461bcd)\n              dup2\n              mstore\n              0x04\n              add\n              dup1\n              dup1\n              0x20\n              add\n              dup3\n              dup2\n              sub\n              dup3\n              mstore\n              0x25\n              dup2\n              mstore\n              0x20\n              add\n              dup1\n              data_05339493da7e2cbe77e17beadf6b91132eb307939495f5f1797bf88d95539e83\n              0x25\n              swap2\n              codecopy\n              0x40\n              add\n              swap2\n              pop\n              pop\n              mload(0x40)\n              dup1\n              swap2\n              sub\n              swap1\n              revert\n            tag_117:\n                /* \"CONTRACT/v2-core-master/contracts/UniswapV2Pair.sol\":8103:8120  uint112 _reserve0 */\n              0x00\n                /* \"CONTRACT/v2-core-master/contracts/UniswapV2Pair.sol\":8122:8139  uint112 _reserve1 */\n              dup1\n                /* \"CONTRACT/v2-core-master/contracts/UniswapV2Pair.sol\":8144:8157  getReserves() */\n              tag_118\n                /* \"CONTRACT/v2-core-master/contracts/UniswapV2Pair.sol\":8144:8155  getReserves */\n              tag_49\n                /* \"CONTRACT/v2-core-master/contracts/UniswapV2Pair.sol\":8144:8157  getReserves() */\n              jump\t// in\n            tag_118:\n              pop\n                /* \"CONTRACT/v2-core-master/contracts/UniswapV2Pair.sol\":8102:8157  (uint112 _reserve0, uint112 _reserve1,) = getReserves() */\n              swap1\n              swap3\n              pop\n              swap1\n              pop\n              sub(shl(0x70, 0x01), 0x01)\n                /* \"CONTRACT/v2-core-master/contracts/UniswapV2Pair.sol\":8191:8213  amount0Out < _reserve0 */\n              dup3\n              and\n              dup8\n              lt\n                /* \"CONTRACT/v2-core-master/contracts/UniswapV2Pair.sol\":8191:8239  amount0Out < _reserve0 && amount1Out < _reserve1 */\n              dup1\n              iszero\n              tag_119\n              jumpi\n              pop\n              sub(shl(0x70, 0x01), 0x01)\n                /* \"CONTRACT/v2-core-master/contracts/UniswapV2Pair.sol\":8217:8239  amount1Out < _reserve1 */\n              dup2\n              and\n              dup7\n              lt\n                /* \"CONTRACT/v2-core-master/contracts/UniswapV2Pair.sol\":8191:8239  amount0Out < _reserve0 && amount1Out < _reserve1 */\n            tag_119:\n                /* \"CONTRACT/v2-core-master/contracts/UniswapV2Pair.sol\":8183:8277  require(amount0Out < _reserve0 && amount1Out < _reserve1, 'UniswapV2: INSUFFICIENT_LIQUIDITY') */\n              tag_120\n              jumpi\n              mload(0x40)\n              shl(0xe5, 0x461bcd)\n              dup2\n              mstore\n              0x04\n              add\n              dup1\n              dup1\n              0x20\n              add\n              dup3\n              dup2\n              sub\n              dup3\n              mstore\n              0x21\n              dup2\n              mstore\n              0x20\n              add\n              dup1\n              data_3f354ef449b2a9b081220ce21f57691008110b653edc191d8288e60cef58bb5f\n              0x21\n              swap2\n              codecopy\n              0x40\n              add\n              swap2\n              pop\n              pop\n              mload(0x40)\n              dup1\n              swap2\n              sub\n              swap1\n              revert\n            tag_120:\n                /* \"CONTRACT/v2-core-master/contracts/UniswapV2Pair.sol\":8422:8428  token0 */\n              sload(0x06)\n                /* \"CONTRACT/v2-core-master/contracts/UniswapV2Pair.sol\":8457:8463  token1 */\n              sload(0x07)\n                /* \"CONTRACT/v2-core-master/contracts/UniswapV2Pair.sol\":8290:8303  uint balance0 */\n              0x00\n              swap2\n              dup3\n              swap2\n              sub(shl(0xa0, 0x01), 0x01)\n                /* \"CONTRACT/v2-core-master/contracts/UniswapV2Pair.sol\":8422:8428  token0 */\n              swap2\n              dup3\n              and\n              swap2\n                /* \"CONTRACT/v2-core-master/contracts/UniswapV2Pair.sol\":8457:8463  token1 */\n              swap1\n              dup2\n              and\n              swap1\n                /* \"CONTRACT/v2-core-master/contracts/UniswapV2Pair.sol\":8482:8495  to != _token0 */\n              dup10\n              and\n              dup3\n              eq\n              dup1\n              iszero\n              swap1\n                /* \"CONTRACT/v2-core-master/contracts/UniswapV2Pair.sol\":8482:8512  to != _token0 && to != _token1 */\n              tag_121\n              jumpi\n              pop\n              sub(shl(0xa0, 0x01), 0x01)\n                /* \"CONTRACT/v2-core-master/contracts/UniswapV2Pair.sol\":8499:8512  to != _token1 */\n              dup10\n              dup2\n              and\n              swap1\n              dup3\n              and\n              eq\n              iszero\n                /* \"CONTRACT/v2-core-master/contracts/UniswapV2Pair.sol\":8482:8512  to != _token0 && to != _token1 */\n            tag_121:\n                /* \"CONTRACT/v2-core-master/contracts/UniswapV2Pair.sol\":8474:8538  require(to != _token0 && to != _token1, 'UniswapV2: INVALID_TO') */\n              tag_122\n              jumpi\n              0x40\n              dup1\n              mload\n              shl(0xe5, 0x461bcd)\n              dup2\n              mstore\n              0x20\n              0x04\n              dup3\n              add\n              mstore\n              0x15\n              0x24\n              dup3\n              add\n              mstore\n              shl(0x58, 0x556e697377617056323a20494e56414c49445f544f)\n              0x44\n              dup3\n              add\n              mstore\n              swap1\n              mload\n              swap1\n              dup2\n              swap1\n              sub\n              0x64\n              add\n              swap1\n              revert\n            tag_122:\n                /* \"CONTRACT/v2-core-master/contracts/UniswapV2Pair.sol\":8553:8567  amount0Out > 0 */\n              dup11\n              iszero\n                /* \"CONTRACT/v2-core-master/contracts/UniswapV2Pair.sol\":8549:8607  if (amount0Out > 0) _safeTransfer(_token0, to, amount0Out) */\n              tag_124\n              jumpi\n                /* \"CONTRACT/v2-core-master/contracts/UniswapV2Pair.sol\":8569:8607  _safeTransfer(_token0, to, amount0Out) */\n              tag_124\n                /* \"CONTRACT/v2-core-master/contracts/UniswapV2Pair.sol\":8583:8590  _token0 */\n              dup3\n                /* \"CONTRACT/v2-core-master/contracts/UniswapV2Pair.sol\":8592:8594  to */\n              dup11\n                /* \"CONTRACT/v2-core-master/contracts/UniswapV2Pair.sol\":8596:8606  amount0Out */\n              dup14\n                /* \"CONTRACT/v2-core-master/contracts/UniswapV2Pair.sol\":8569:8582  _safeTransfer */\n              tag_125\n                /* \"CONTRACT/v2-core-master/contracts/UniswapV2Pair.sol\":8569:8607  _safeTransfer(_token0, to, amount0Out) */\n              jump\t// in\n            tag_124:\n                /* \"CONTRACT/v2-core-master/contracts/UniswapV2Pair.sol\":8656:8670  amount1Out > 0 */\n              dup10\n              iszero\n                /* \"CONTRACT/v2-core-master/contracts/UniswapV2Pair.sol\":8652:8710  if (amount1Out > 0) _safeTransfer(_token1, to, amount1Out) */\n              tag_127\n              jumpi\n                /* \"CONTRACT/v2-core-master/contracts/UniswapV2Pair.sol\":8672:8710  _safeTransfer(_token1, to, amount1Out) */\n              tag_127\n                /* \"CONTRACT/v2-core-master/contracts/UniswapV2Pair.sol\":8686:8693  _token1 */\n              dup2\n                /* \"CONTRACT/v2-core-master/contracts/UniswapV2Pair.sol\":8695:8697  to */\n              dup11\n                /* \"CONTRACT/v2-core-master/contracts/UniswapV2Pair.sol\":8699:8709  amount1Out */\n              dup13\n                /* \"CONTRACT/v2-core-master/contracts/UniswapV2Pair.sol\":8672:8685  _safeTransfer */\n              tag_125\n                /* \"CONTRACT/v2-core-master/contracts/UniswapV2Pair.sol\":8672:8710  _safeTransfer(_token1, to, amount1Out) */\n              jump\t// in\n            tag_127:\n                /* \"CONTRACT/v2-core-master/contracts/UniswapV2Pair.sol\":8759:8774  data.length > 0 */\n              dup7\n              iszero\n                /* \"CONTRACT/v2-core-master/contracts/UniswapV2Pair.sol\":8755:8852  if (data.length > 0) IUniswapV2Callee(to).uniswapV2Call(msg.sender, amount0Out, amount1Out, data) */\n              tag_128\n              jumpi\n                /* \"CONTRACT/v2-core-master/contracts/UniswapV2Pair.sol\":8793:8795  to */\n              dup9\n              0x01\n              dup1\n              0xa0\n              shl\n              sub\n                /* \"CONTRACT/v2-core-master/contracts/UniswapV2Pair.sol\":8776:8810  IUniswapV2Callee(to).uniswapV2Call */\n              and\n              0x10d1e85c\n                /* \"CONTRACT/v2-core-master/contracts/UniswapV2Pair.sol\":8811:8821  msg.sender */\n              caller\n                /* \"CONTRACT/v2-core-master/contracts/UniswapV2Pair.sol\":8823:8833  amount0Out */\n              dup14\n                /* \"CONTRACT/v2-core-master/contracts/UniswapV2Pair.sol\":8835:8845  amount1Out */\n              dup14\n                /* \"CONTRACT/v2-core-master/contracts/UniswapV2Pair.sol\":8847:8851  data */\n              dup13\n              dup13\n                /* \"CONTRACT/v2-core-master/contracts/UniswapV2Pair.sol\":8776:8852  IUniswapV2Callee(to).uniswapV2Call(msg.sender, amount0Out, amount1Out, data) */\n              mload(0x40)\n              dup7\n              0xffffffff\n              and\n              0xe0\n              shl\n              dup2\n              mstore\n              0x04\n              add\n              dup1\n              dup7\n              0x01\n              dup1\n              0xa0\n              shl\n              sub\n              and\n              0x01\n              dup1\n              0xa0\n              shl\n              sub\n              and\n              dup2\n              mstore\n              0x20\n              add\n              dup6\n              dup2\n              mstore\n              0x20\n              add\n              dup5\n              dup2\n              mstore\n              0x20\n              add\n              dup1\n              0x20\n              add\n              dup3\n              dup2\n              sub\n              dup3\n              mstore\n              dup5\n              dup5\n              dup3\n              dup2\n              dup2\n              mstore\n              0x20\n              add\n              swap3\n              pop\n                /* \"--CODEGEN--\":30:33   */\n              dup1\n                /* \"--CODEGEN--\":22:28   */\n              dup3\n                /* \"--CODEGEN--\":14:20   */\n              dup5\n                /* \"--CODEGEN--\":1:34   */\n              calldatacopy\n                /* \"--CODEGEN--\":99:100   */\n              0x00\n                /* \"--CODEGEN--\":93:96   */\n              dup2\n                /* \"--CODEGEN--\":85:91   */\n              dup5\n                /* \"--CODEGEN--\":81:97   */\n              add\n                /* \"--CODEGEN--\":74:101   */\n              mstore\n                /* \"--CODEGEN--\":137:141   */\n              0x1f\n                /* \"--CODEGEN--\":133:142   */\n              not\n                /* \"--CODEGEN--\":126:130   */\n              0x1f\n                /* \"--CODEGEN--\":121:124   */\n              dup3\n                /* \"--CODEGEN--\":117:131   */\n              add\n                /* \"--CODEGEN--\":113:143   */\n              and\n                /* \"--CODEGEN--\":106:143   */\n              swap1\n              pop\n                /* \"--CODEGEN--\":169:172   */\n              dup1\n                /* \"--CODEGEN--\":161:167   */\n              dup4\n                /* \"--CODEGEN--\":157:173   */\n              add\n                /* \"--CODEGEN--\":147:173   */\n              swap3\n              pop\n                /* \"CONTRACT/v2-core-master/contracts/UniswapV2Pair.sol\":8776:8852  IUniswapV2Callee(to).uniswapV2Call(msg.sender, amount0Out, amount1Out, data) */\n              pop\n              pop\n              swap7\n              pop\n              pop\n              pop\n              pop\n              pop\n              pop\n              pop\n              0x00\n              mload(0x40)\n              dup1\n              dup4\n              sub\n              dup2\n              0x00\n              dup8\n              dup1\n              extcodesize\n              iszero\n                /* \"--CODEGEN--\":8:17   */\n              dup1\n                /* \"--CODEGEN--\":5:7   */\n              iszero\n              tag_129\n              jumpi\n                /* \"--CODEGEN--\":30:31   */\n              0x00\n                /* \"--CODEGEN--\":27:28   */\n              dup1\n                /* \"--CODEGEN--\":20:32   */\n              revert\n                /* \"--CODEGEN--\":5:7   */\n            tag_129:\n                /* \"CONTRACT/v2-core-master/contracts/UniswapV2Pair.sol\":8776:8852  IUniswapV2Callee(to).uniswapV2Call(msg.sender, amount0Out, amount1Out, data) */\n              pop\n              gas\n              call\n              iszero\n                /* \"--CODEGEN--\":8:17   */\n              dup1\n                /* \"--CODEGEN--\":5:7   */\n              iszero\n              tag_130\n              jumpi\n                /* \"--CODEGEN--\":45:61   */\n              returndatasize\n                /* \"--CODEGEN--\":42:43   */\n              0x00\n                /* \"--CODEGEN--\":39:40   */\n              dup1\n                /* \"--CODEGEN--\":24:62   */\n              returndatacopy\n                /* \"--CODEGEN--\":77:93   */\n              returndatasize\n                /* \"--CODEGEN--\":74:75   */\n              0x00\n                /* \"--CODEGEN--\":67:94   */\n              revert\n                /* \"--CODEGEN--\":5:7   */\n            tag_130:\n                /* \"CONTRACT/v2-core-master/contracts/UniswapV2Pair.sol\":8776:8852  IUniswapV2Callee(to).uniswapV2Call(msg.sender, amount0Out, amount1Out, data) */\n              pop\n              pop\n              pop\n              pop\n                /* \"CONTRACT/v2-core-master/contracts/UniswapV2Pair.sol\":8755:8852  if (data.length > 0) IUniswapV2Callee(to).uniswapV2Call(msg.sender, amount0Out, amount1Out, data) */\n            tag_128:\n                /* \"CONTRACT/v2-core-master/contracts/UniswapV2Pair.sol\":8874:8914  IERC20(_token0).balanceOf(address(this)) */\n              0x40\n              dup1\n              mload\n              shl(0xe0, 0x70a08231)\n              dup2\n              mstore\n                /* \"CONTRACT/v2-core-master/contracts/UniswapV2Pair.sol\":8908:8912  this */\n              address\n                /* \"CONTRACT/v2-core-master/contracts/UniswapV2Pair.sol\":8874:8914  IERC20(_token0).balanceOf(address(this)) */\n              0x04\n              dup3\n              add\n              mstore\n              swap1\n              mload\n              sub(shl(0xa0, 0x01), 0x01)\n                /* \"CONTRACT/v2-core-master/contracts/UniswapV2Pair.sol\":8874:8899  IERC20(_token0).balanceOf */\n              dup5\n              and\n              swap2\n              0x70a08231\n              swap2\n                /* \"CONTRACT/v2-core-master/contracts/UniswapV2Pair.sol\":8874:8914  IERC20(_token0).balanceOf(address(this)) */\n              0x24\n              dup1\n              dup4\n              add\n              swap3\n              0x20\n              swap3\n              swap2\n              swap1\n              dup3\n              swap1\n              sub\n              add\n              dup2\n                /* \"CONTRACT/v2-core-master/contracts/UniswapV2Pair.sol\":8874:8899  IERC20(_token0).balanceOf */\n              dup7\n                /* \"CONTRACT/v2-core-master/contracts/UniswapV2Pair.sol\":8874:8914  IERC20(_token0).balanceOf(address(this)) */\n              dup1\n              extcodesize\n              iszero\n                /* \"--CODEGEN--\":5:7   */\n              dup1\n              iszero\n              tag_131\n              jumpi\n                /* \"--CODEGEN--\":30:31   */\n              0x00\n                /* \"--CODEGEN--\":27:28   */\n              dup1\n                /* \"--CODEGEN--\":20:32   */\n              revert\n                /* \"--CODEGEN--\":5:7   */\n            tag_131:\n                /* \"CONTRACT/v2-core-master/contracts/UniswapV2Pair.sol\":8874:8914  IERC20(_token0).balanceOf(address(this)) */\n              pop\n              gas\n              staticcall\n              iszero\n                /* \"--CODEGEN--\":8:17   */\n              dup1\n                /* \"--CODEGEN--\":5:7   */\n              iszero\n              tag_132\n              jumpi\n                /* \"--CODEGEN--\":45:61   */\n              returndatasize\n                /* \"--CODEGEN--\":42:43   */\n              0x00\n                /* \"--CODEGEN--\":39:40   */\n              dup1\n                /* \"--CODEGEN--\":24:62   */\n              returndatacopy\n                /* \"--CODEGEN--\":77:93   */\n              returndatasize\n                /* \"--CODEGEN--\":74:75   */\n              0x00\n                /* \"--CODEGEN--\":67:94   */\n              revert\n                /* \"--CODEGEN--\":5:7   */\n            tag_132:\n                /* \"CONTRACT/v2-core-master/contracts/UniswapV2Pair.sol\":8874:8914  IERC20(_token0).balanceOf(address(this)) */\n              pop\n              pop\n              pop\n              pop\n              mload(0x40)\n              returndatasize\n                /* \"--CODEGEN--\":13:15   */\n              0x20\n                /* \"--CODEGEN--\":8:11   */\n              dup2\n                /* \"--CODEGEN--\":5:16   */\n              lt\n                /* \"--CODEGEN--\":2:4   */\n              iszero\n              tag_133\n              jumpi\n                /* \"--CODEGEN--\":29:30   */\n              0x00\n                /* \"--CODEGEN--\":26:27   */\n              dup1\n                /* \"--CODEGEN--\":19:31   */\n              revert\n                /* \"--CODEGEN--\":2:4   */\n            tag_133:\n              pop\n                /* \"CONTRACT/v2-core-master/contracts/UniswapV2Pair.sol\":8874:8914  IERC20(_token0).balanceOf(address(this)) */\n              mload\n                /* \"CONTRACT/v2-core-master/contracts/UniswapV2Pair.sol\":8936:8976  IERC20(_token1).balanceOf(address(this)) */\n              0x40\n              dup1\n              mload\n              shl(0xe0, 0x70a08231)\n              dup2\n              mstore\n                /* \"CONTRACT/v2-core-master/contracts/UniswapV2Pair.sol\":8970:8974  this */\n              address\n                /* \"CONTRACT/v2-core-master/contracts/UniswapV2Pair.sol\":8936:8976  IERC20(_token1).balanceOf(address(this)) */\n              0x04\n              dup3\n              add\n              mstore\n              swap1\n              mload\n                /* \"CONTRACT/v2-core-master/contracts/UniswapV2Pair.sol\":8874:8914  IERC20(_token0).balanceOf(address(this)) */\n              swap2\n              swap6\n              pop\n              sub(shl(0xa0, 0x01), 0x01)\n                /* \"CONTRACT/v2-core-master/contracts/UniswapV2Pair.sol\":8936:8961  IERC20(_token1).balanceOf */\n              dup4\n              and\n              swap2\n              0x70a08231\n              swap2\n                /* \"CONTRACT/v2-core-master/contracts/UniswapV2Pair.sol\":8936:8976  IERC20(_token1).balanceOf(address(this)) */\n              0x24\n              dup1\n              dup3\n              add\n              swap3\n                /* \"CONTRACT/v2-core-master/contracts/UniswapV2Pair.sol\":8874:8914  IERC20(_token0).balanceOf(address(this)) */\n              0x20\n              swap3\n                /* \"CONTRACT/v2-core-master/contracts/UniswapV2Pair.sol\":8936:8976  IERC20(_token1).balanceOf(address(this)) */\n              swap1\n              swap2\n              swap1\n              dup3\n              swap1\n              sub\n              add\n              dup2\n                /* \"CONTRACT/v2-core-master/contracts/UniswapV2Pair.sol\":8936:8961  IERC20(_token1).balanceOf */\n              dup7\n                /* \"CONTRACT/v2-core-master/contracts/UniswapV2Pair.sol\":8936:8976  IERC20(_token1).balanceOf(address(this)) */\n              dup1\n              extcodesize\n              iszero\n                /* \"--CODEGEN--\":5:7   */\n              dup1\n              iszero\n              tag_134\n              jumpi\n                /* \"--CODEGEN--\":30:31   */\n              0x00\n                /* \"--CODEGEN--\":27:28   */\n              dup1\n                /* \"--CODEGEN--\":20:32   */\n              revert\n                /* \"--CODEGEN--\":5:7   */\n            tag_134:\n                /* \"CONTRACT/v2-core-master/contracts/UniswapV2Pair.sol\":8936:8976  IERC20(_token1).balanceOf(address(this)) */\n              pop\n              gas\n              staticcall\n              iszero\n                /* \"--CODEGEN--\":8:17   */\n              dup1\n                /* \"--CODEGEN--\":5:7   */\n              iszero\n              tag_135\n              jumpi\n                /* \"--CODEGEN--\":45:61   */\n              returndatasize\n                /* \"--CODEGEN--\":42:43   */\n              0x00\n                /* \"--CODEGEN--\":39:40   */\n              dup1\n                /* \"--CODEGEN--\":24:62   */\n              returndatacopy\n                /* \"--CODEGEN--\":77:93   */\n              returndatasize\n                /* \"--CODEGEN--\":74:75   */\n              0x00\n                /* \"--CODEGEN--\":67:94   */\n              revert\n                /* \"--CODEGEN--\":5:7   */\n            tag_135:\n                /* \"CONTRACT/v2-core-master/contracts/UniswapV2Pair.sol\":8936:8976  IERC20(_token1).balanceOf(address(this)) */\n              pop\n              pop\n              pop\n              pop\n              mload(0x40)\n              returndatasize\n                /* \"--CODEGEN--\":13:15   */\n              0x20\n                /* \"--CODEGEN--\":8:11   */\n              dup2\n                /* \"--CODEGEN--\":5:16   */\n              lt\n                /* \"--CODEGEN--\":2:4   */\n              iszero\n              tag_136\n              jumpi\n                /* \"--CODEGEN--\":29:30   */\n              0x00\n                /* \"--CODEGEN--\":26:27   */\n              dup1\n                /* \"--CODEGEN--\":19:31   */\n              revert\n                /* \"--CODEGEN--\":2:4   */\n            tag_136:\n              pop\n                /* \"CONTRACT/v2-core-master/contracts/UniswapV2Pair.sol\":8936:8976  IERC20(_token1).balanceOf(address(this)) */\n              mload\n              swap3\n              pop\n                /* \"CONTRACT/v2-core-master/contracts/UniswapV2Pair.sol\":8998:9012  uint amount0In */\n              0x00\n              swap2\n              pop\n              pop\n              sub(shl(0x70, 0x01), 0x01)\n                /* \"CONTRACT/v2-core-master/contracts/UniswapV2Pair.sol\":9026:9048  _reserve0 - amount0Out */\n              dup6\n              and\n              dup11\n              swap1\n              sub\n                /* \"CONTRACT/v2-core-master/contracts/UniswapV2Pair.sol\":9015:9048  balance0 > _reserve0 - amount0Out */\n              dup4\n              gt\n                /* \"CONTRACT/v2-core-master/contracts/UniswapV2Pair.sol\":9015:9090  balance0 > _reserve0 - amount0Out ? balance0 - (_reserve0 - amount0Out) : 0 */\n              tag_137\n              jumpi\n                /* \"CONTRACT/v2-core-master/contracts/UniswapV2Pair.sol\":9089:9090  0 */\n              0x00\n                /* \"CONTRACT/v2-core-master/contracts/UniswapV2Pair.sol\":9015:9090  balance0 > _reserve0 - amount0Out ? balance0 - (_reserve0 - amount0Out) : 0 */\n              jump(tag_138)\n            tag_137:\n              sub(shl(0x70, 0x01), 0x01)\n                /* \"CONTRACT/v2-core-master/contracts/UniswapV2Pair.sol\":9063:9085  _reserve0 - amount0Out */\n              dup6\n              and\n              dup11\n              swap1\n              sub\n                /* \"CONTRACT/v2-core-master/contracts/UniswapV2Pair.sol\":9051:9086  balance0 - (_reserve0 - amount0Out) */\n              dup4\n              sub\n                /* \"CONTRACT/v2-core-master/contracts/UniswapV2Pair.sol\":9015:9090  balance0 > _reserve0 - amount0Out ? balance0 - (_reserve0 - amount0Out) : 0 */\n            tag_138:\n                /* \"CONTRACT/v2-core-master/contracts/UniswapV2Pair.sol\":8998:9090  uint amount0In = balance0 > _reserve0 - amount0Out ? balance0 - (_reserve0 - amount0Out) : 0 */\n              swap1\n              pop\n                /* \"CONTRACT/v2-core-master/contracts/UniswapV2Pair.sol\":9101:9115  uint amount1In */\n              0x00\n              sub(shl(0x70, 0x01), 0x01)\n                /* \"CONTRACT/v2-core-master/contracts/UniswapV2Pair.sol\":9129:9151  _reserve1 - amount1Out */\n              dup6\n              and\n              dup11\n              swap1\n              sub\n                /* \"CONTRACT/v2-core-master/contracts/UniswapV2Pair.sol\":9118:9151  balance1 > _reserve1 - amount1Out */\n              dup4\n              gt\n                /* \"CONTRACT/v2-core-master/contracts/UniswapV2Pair.sol\":9118:9193  balance1 > _reserve1 - amount1Out ? balance1 - (_reserve1 - amount1Out) : 0 */\n              tag_139\n              jumpi\n                /* \"CONTRACT/v2-core-master/contracts/UniswapV2Pair.sol\":9192:9193  0 */\n              0x00\n                /* \"CONTRACT/v2-core-master/contracts/UniswapV2Pair.sol\":9118:9193  balance1 > _reserve1 - amount1Out ? balance1 - (_reserve1 - amount1Out) : 0 */\n              jump(tag_140)\n            tag_139:\n              sub(shl(0x70, 0x01), 0x01)\n                /* \"CONTRACT/v2-core-master/contracts/UniswapV2Pair.sol\":9166:9188  _reserve1 - amount1Out */\n              dup6\n              and\n              dup11\n              swap1\n              sub\n                /* \"CONTRACT/v2-core-master/contracts/UniswapV2Pair.sol\":9154:9189  balance1 - (_reserve1 - amount1Out) */\n              dup4\n              sub\n                /* \"CONTRACT/v2-core-master/contracts/UniswapV2Pair.sol\":9118:9193  balance1 > _reserve1 - amount1Out ? balance1 - (_reserve1 - amount1Out) : 0 */\n            tag_140:\n                /* \"CONTRACT/v2-core-master/contracts/UniswapV2Pair.sol\":9101:9193  uint amount1In = balance1 > _reserve1 - amount1Out ? balance1 - (_reserve1 - amount1Out) : 0 */\n              swap1\n              pop\n                /* \"CONTRACT/v2-core-master/contracts/UniswapV2Pair.sol\":9224:9225  0 */\n              0x00\n                /* \"CONTRACT/v2-core-master/contracts/UniswapV2Pair.sol\":9212:9221  amount0In */\n              dup3\n                /* \"CONTRACT/v2-core-master/contracts/UniswapV2Pair.sol\":9212:9225  amount0In > 0 */\n              gt\n                /* \"CONTRACT/v2-core-master/contracts/UniswapV2Pair.sol\":9212:9242  amount0In > 0 || amount1In > 0 */\n              dup1\n              tag_141\n              jumpi\n              pop\n                /* \"CONTRACT/v2-core-master/contracts/UniswapV2Pair.sol\":9241:9242  0 */\n              0x00\n                /* \"CONTRACT/v2-core-master/contracts/UniswapV2Pair.sol\":9229:9238  amount1In */\n              dup2\n                /* \"CONTRACT/v2-core-master/contracts/UniswapV2Pair.sol\":9229:9242  amount1In > 0 */\n              gt\n                /* \"CONTRACT/v2-core-master/contracts/UniswapV2Pair.sol\":9212:9242  amount0In > 0 || amount1In > 0 */\n            tag_141:\n                /* \"CONTRACT/v2-core-master/contracts/UniswapV2Pair.sol\":9204:9283  require(amount0In > 0 || amount1In > 0, 'UniswapV2: INSUFFICIENT_INPUT_AMOUNT') */\n              tag_142\n              jumpi\n              mload(0x40)\n              shl(0xe5, 0x461bcd)\n              dup2\n              mstore\n              0x04\n              add\n              dup1\n              dup1\n              0x20\n              add\n              dup3\n              dup2\n              sub\n              dup3\n              mstore\n              0x24\n              dup2\n              mstore\n              0x20\n              add\n              dup1\n              data_10e2efc32d8a31d3b2c11a545b3ed09c2dbabc58ef6de4033929d0002e425b67\n              0x24\n              swap2\n              codecopy\n              0x40\n              add\n              swap2\n              pop\n              pop\n              mload(0x40)\n              dup1\n              swap2\n              sub\n              swap1\n              revert\n            tag_142:\n                /* \"CONTRACT/v2-core-master/contracts/UniswapV2Pair.sol\":9369:9390  uint balance0Adjusted */\n              0x00\n                /* \"CONTRACT/v2-core-master/contracts/UniswapV2Pair.sol\":9393:9433  balance0.mul(1000).sub(amount0In.mul(3)) */\n              tag_143\n                /* \"CONTRACT/v2-core-master/contracts/UniswapV2Pair.sol\":9416:9432  amount0In.mul(3) */\n              tag_144\n                /* \"CONTRACT/v2-core-master/contracts/UniswapV2Pair.sol\":9416:9425  amount0In */\n              dup5\n                /* \"CONTRACT/v2-core-master/contracts/UniswapV2Pair.sol\":9430:9431  3 */\n              0x03\n                /* \"CONTRACT/v2-core-master/contracts/UniswapV2Pair.sol\":9416:9432  amount0In.mul(3) */\n              0xffffffff\n                /* \"CONTRACT/v2-core-master/contracts/UniswapV2Pair.sol\":9416:9429  amount0In.mul */\n              tag_145\n                /* \"CONTRACT/v2-core-master/contracts/UniswapV2Pair.sol\":9416:9432  amount0In.mul(3) */\n              and\n              jump\t// in\n            tag_144:\n                /* \"CONTRACT/v2-core-master/contracts/UniswapV2Pair.sol\":9393:9411  balance0.mul(1000) */\n              tag_146\n                /* \"CONTRACT/v2-core-master/contracts/UniswapV2Pair.sol\":9393:9401  balance0 */\n              dup8\n                /* \"CONTRACT/v2-core-master/contracts/UniswapV2Pair.sol\":9406:9410  1000 */\n              0x03e8\n                /* \"CONTRACT/v2-core-master/contracts/UniswapV2Pair.sol\":9393:9411  balance0.mul(1000) */\n              0xffffffff\n                /* \"CONTRACT/v2-core-master/contracts/UniswapV2Pair.sol\":9393:9405  balance0.mul */\n              tag_145\n                /* \"CONTRACT/v2-core-master/contracts/UniswapV2Pair.sol\":9393:9411  balance0.mul(1000) */\n              and\n              jump\t// in\n            tag_146:\n                /* \"CONTRACT/v2-core-master/contracts/UniswapV2Pair.sol\":9393:9415  balance0.mul(1000).sub */\n              swap1\n                /* \"CONTRACT/v2-core-master/contracts/UniswapV2Pair.sol\":9393:9433  balance0.mul(1000).sub(amount0In.mul(3)) */\n              0xffffffff\n                /* \"CONTRACT/v2-core-master/contracts/UniswapV2Pair.sol\":9393:9415  balance0.mul(1000).sub */\n              tag_147\n                /* \"CONTRACT/v2-core-master/contracts/UniswapV2Pair.sol\":9393:9433  balance0.mul(1000).sub(amount0In.mul(3)) */\n              and\n              jump\t// in\n            tag_143:\n                /* \"CONTRACT/v2-core-master/contracts/UniswapV2Pair.sol\":9369:9433  uint balance0Adjusted = balance0.mul(1000).sub(amount0In.mul(3)) */\n              swap1\n              pop\n                /* \"CONTRACT/v2-core-master/contracts/UniswapV2Pair.sol\":9444:9465  uint balance1Adjusted */\n              0x00\n                /* \"CONTRACT/v2-core-master/contracts/UniswapV2Pair.sol\":9468:9508  balance1.mul(1000).sub(amount1In.mul(3)) */\n              tag_148\n                /* \"CONTRACT/v2-core-master/contracts/UniswapV2Pair.sol\":9491:9507  amount1In.mul(3) */\n              tag_144\n                /* \"CONTRACT/v2-core-master/contracts/UniswapV2Pair.sol\":9491:9500  amount1In */\n              dup5\n                /* \"CONTRACT/v2-core-master/contracts/UniswapV2Pair.sol\":9505:9506  3 */\n              0x03\n                /* \"CONTRACT/v2-core-master/contracts/UniswapV2Pair.sol\":9491:9507  amount1In.mul(3) */\n              0xffffffff\n                /* \"CONTRACT/v2-core-master/contracts/UniswapV2Pair.sol\":9491:9504  amount1In.mul */\n              tag_145\n                /* \"CONTRACT/v2-core-master/contracts/UniswapV2Pair.sol\":9491:9507  amount1In.mul(3) */\n              and\n              jump\t// in\n                /* \"CONTRACT/v2-core-master/contracts/UniswapV2Pair.sol\":9468:9508  balance1.mul(1000).sub(amount1In.mul(3)) */\n            tag_148:\n                /* \"CONTRACT/v2-core-master/contracts/UniswapV2Pair.sol\":9444:9508  uint balance1Adjusted = balance1.mul(1000).sub(amount1In.mul(3)) */\n              swap1\n              pop\n                /* \"CONTRACT/v2-core-master/contracts/UniswapV2Pair.sol\":9569:9612  uint(_reserve0).mul(_reserve1).mul(1000**2) */\n              tag_151\n                /* \"CONTRACT/v2-core-master/contracts/UniswapV2Pair.sol\":9604:9611  1000**2 */\n              0x0f4240\n                /* \"CONTRACT/v2-core-master/contracts/UniswapV2Pair.sol\":9569:9599  uint(_reserve0).mul(_reserve1) */\n              tag_152\n              sub(shl(0x70, 0x01), 0x01)\n                /* \"CONTRACT/v2-core-master/contracts/UniswapV2Pair.sol\":9569:9584  uint(_reserve0) */\n              dup12\n              dup2\n              and\n              swap1\n                /* \"CONTRACT/v2-core-master/contracts/UniswapV2Pair.sol\":9569:9599  uint(_reserve0).mul(_reserve1) */\n              dup12\n              and\n                /* \"CONTRACT/v2-core-master/contracts/UniswapV2Pair.sol\":9569:9588  uint(_reserve0).mul */\n              tag_145\n                /* \"CONTRACT/v2-core-master/contracts/UniswapV2Pair.sol\":9569:9599  uint(_reserve0).mul(_reserve1) */\n              jump\t// in\n            tag_152:\n                /* \"CONTRACT/v2-core-master/contracts/UniswapV2Pair.sol\":9569:9603  uint(_reserve0).mul(_reserve1).mul */\n              swap1\n                /* \"CONTRACT/v2-core-master/contracts/UniswapV2Pair.sol\":9569:9612  uint(_reserve0).mul(_reserve1).mul(1000**2) */\n              0xffffffff\n                /* \"CONTRACT/v2-core-master/contracts/UniswapV2Pair.sol\":9569:9603  uint(_reserve0).mul(_reserve1).mul */\n              tag_145\n                /* \"CONTRACT/v2-core-master/contracts/UniswapV2Pair.sol\":9569:9612  uint(_reserve0).mul(_reserve1).mul(1000**2) */\n              and\n              jump\t// in\n            tag_151:\n                /* \"CONTRACT/v2-core-master/contracts/UniswapV2Pair.sol\":9527:9565  balance0Adjusted.mul(balance1Adjusted) */\n              tag_153\n                /* \"CONTRACT/v2-core-master/contracts/UniswapV2Pair.sol\":9527:9543  balance0Adjusted */\n              dup4\n                /* \"CONTRACT/v2-core-master/contracts/UniswapV2Pair.sol\":9548:9564  balance1Adjusted */\n              dup4\n                /* \"CONTRACT/v2-core-master/contracts/UniswapV2Pair.sol\":9527:9565  balance0Adjusted.mul(balance1Adjusted) */\n              0xffffffff\n                /* \"CONTRACT/v2-core-master/contracts/UniswapV2Pair.sol\":9527:9547  balance0Adjusted.mul */\n              tag_145\n                /* \"CONTRACT/v2-core-master/contracts/UniswapV2Pair.sol\":9527:9565  balance0Adjusted.mul(balance1Adjusted) */\n              and\n              jump\t// in\n            tag_153:\n                /* \"CONTRACT/v2-core-master/contracts/UniswapV2Pair.sol\":9527:9612  balance0Adjusted.mul(balance1Adjusted) >= uint(_reserve0).mul(_reserve1).mul(1000**2) */\n              lt\n              iszero\n                /* \"CONTRACT/v2-core-master/contracts/UniswapV2Pair.sol\":9519:9629  require(balance0Adjusted.mul(balance1Adjusted) >= uint(_reserve0).mul(_reserve1).mul(1000**2), 'UniswapV2: K') */\n              tag_154\n              jumpi\n              0x40\n              dup1\n              mload\n              shl(0xe5, 0x461bcd)\n              dup2\n              mstore\n              0x20\n              0x04\n              dup3\n              add\n              mstore\n              0x0c\n              0x24\n              dup3\n              add\n              mstore\n              shl(0xa0, 0x556e697377617056323a204b)\n              0x44\n              dup3\n              add\n              mstore\n              swap1\n              mload\n              swap1\n              dup2\n              swap1\n              sub\n              0x64\n              add\n              swap1\n              revert\n            tag_154:\n                /* \"CONTRACT/v2-core-master/contracts/UniswapV2Pair.sol\":1282:1283  _ */\n              pop\n              pop\n                /* \"CONTRACT/v2-core-master/contracts/UniswapV2Pair.sol\":9653:9702  _update(balance0, balance1, _reserve0, _reserve1) */\n              tag_155\n                /* \"CONTRACT/v2-core-master/contracts/UniswapV2Pair.sol\":9661:9669  balance0 */\n              dup5\n                /* \"CONTRACT/v2-core-master/contracts/UniswapV2Pair.sol\":9671:9679  balance1 */\n              dup5\n                /* \"CONTRACT/v2-core-master/contracts/UniswapV2Pair.sol\":9681:9690  _reserve0 */\n              dup9\n                /* \"CONTRACT/v2-core-master/contracts/UniswapV2Pair.sol\":9692:9701  _reserve1 */\n              dup9\n                /* \"CONTRACT/v2-core-master/contracts/UniswapV2Pair.sol\":9653:9660  _update */\n              tag_156\n                /* \"CONTRACT/v2-core-master/contracts/UniswapV2Pair.sol\":9653:9702  _update(balance0, balance1, _reserve0, _reserve1) */\n              jump\t// in\n            tag_155:\n                /* \"CONTRACT/v2-core-master/contracts/UniswapV2Pair.sol\":9718:9784  Swap(msg.sender, amount0In, amount1In, amount0Out, amount1Out, to) */\n              0x40\n              dup1\n              mload\n              dup4\n              dup2\n              mstore\n              0x20\n              dup2\n              add\n              dup4\n              swap1\n              mstore\n              dup1\n              dup3\n              add\n              dup14\n              swap1\n              mstore\n              0x60\n              dup2\n              add\n              dup13\n              swap1\n              mstore\n              swap1\n              mload\n              sub(shl(0xa0, 0x01), 0x01)\n              dup12\n              and\n              swap2\n                /* \"CONTRACT/v2-core-master/contracts/UniswapV2Pair.sol\":9723:9733  msg.sender */\n              caller\n              swap2\n                /* \"CONTRACT/v2-core-master/contracts/UniswapV2Pair.sol\":9718:9784  Swap(msg.sender, amount0In, amount1In, amount0Out, amount1Out, to) */\n              0xd78ad95fa46c994b6551d0da85fc275fe613ce37657fb8d5e3d130840159d822\n              swap2\n              dup2\n              swap1\n              sub\n              0x80\n              add\n              swap1\n              log3\n              pop\n              pop\n                /* \"CONTRACT/v2-core-master/contracts/UniswapV2Pair.sol\":1305:1306  1 */\n              0x01\n                /* \"CONTRACT/v2-core-master/contracts/UniswapV2Pair.sol\":1294:1302  unlocked */\n              0x0c\n                /* \"CONTRACT/v2-core-master/contracts/UniswapV2Pair.sol\":1294:1306  unlocked = 1 */\n              sstore\n              pop\n              pop\n              pop\n              pop\n              pop\n              pop\n              pop\n              pop\n              pop\n                /* \"CONTRACT/v2-core-master/contracts/UniswapV2Pair.sol\":7903:9792  function swap(uint amount0Out, uint amount1Out, address to, bytes calldata data) external lock {\r... */\n              jump\t// out\n                /* \"CONTRACT/v2-core-master/contracts/UniswapV2ERC20.sol\":193:237  string public constant name = 'Carito Token' */\n            tag_43:\n              0x40\n              dup1\n              mload\n              dup1\n              dup3\n              add\n              swap1\n              swap2\n              mstore\n              0x0c\n              dup2\n              mstore\n              shl(0xa1, 0x21b0b934ba37902a37b5b2b7)\n              0x20\n              dup3\n              add\n              mstore\n              dup2\n              jump\t// out\n                /* \"CONTRACT/v2-core-master/contracts/UniswapV2Pair.sol\":1322:1553  function getReserves() public view returns (uint112 _reserve0, uint112 _reserve1, uint32 _blockTimestampLast) {\r... */\n            tag_49:\n                /* \"CONTRACT/v2-core-master/contracts/UniswapV2Pair.sol\":1455:1463  reserve0 */\n              sload(0x08)\n              sub(shl(0x70, 0x01), 0x01)\n              dup1\n              dup3\n              and\n              swap3\n              shl(0x70, 0x01)\n                /* \"CONTRACT/v2-core-master/contracts/UniswapV2Pair.sol\":1486:1494  reserve1 */\n              dup4\n              div\n              swap1\n              swap2\n              and\n              swap2\n              shl(0xe0, 0x01)\n                /* \"CONTRACT/v2-core-master/contracts/UniswapV2Pair.sol\":1527:1545  blockTimestampLast */\n              swap1\n              div\n              0xffffffff\n              and\n              swap1\n                /* \"CONTRACT/v2-core-master/contracts/UniswapV2Pair.sol\":1322:1553  function getReserves() public view returns (uint112 _reserve0, uint112 _reserve1, uint32 _blockTimestampLast) {\r... */\n              jump\t// out\n                /* \"CONTRACT/v2-core-master/contracts/UniswapV2ERC20.sol\":2242:2389  function approve(address spender, uint value) external returns (bool) {\r... */\n            tag_52:\n                /* \"CONTRACT/v2-core-master/contracts/UniswapV2ERC20.sol\":2306:2310  bool */\n              0x00\n                /* \"CONTRACT/v2-core-master/contracts/UniswapV2ERC20.sol\":2323:2359  _approve(msg.sender, spender, value) */\n              tag_159\n                /* \"CONTRACT/v2-core-master/contracts/UniswapV2ERC20.sol\":2332:2342  msg.sender */\n              caller\n                /* \"CONTRACT/v2-core-master/contracts/UniswapV2ERC20.sol\":2344:2351  spender */\n              dup5\n                /* \"CONTRACT/v2-core-master/contracts/UniswapV2ERC20.sol\":2353:2358  value */\n              dup5\n                /* \"CONTRACT/v2-core-master/contracts/UniswapV2ERC20.sol\":2323:2331  _approve */\n              tag_160\n                /* \"CONTRACT/v2-core-master/contracts/UniswapV2ERC20.sol\":2323:2359  _approve(msg.sender, spender, value) */\n              jump\t// in\n            tag_159:\n              pop\n                /* \"CONTRACT/v2-core-master/contracts/UniswapV2ERC20.sol\":2377:2381  true */\n              0x01\n                /* \"CONTRACT/v2-core-master/contracts/UniswapV2ERC20.sol\":2242:2389  function approve(address spender, uint value) external returns (bool) {\r... */\n            tag_158:\n              swap3\n              swap2\n              pop\n              pop\n              jump\t// out\n                /* \"CONTRACT/v2-core-master/contracts/UniswapV2Pair.sol\":611:632  address public token0 */\n            tag_54:\n              and(sub(shl(0xa0, 0x01), 0x01), sload(0x06))\n              dup2\n              jump\t// out\n                /* \"CONTRACT/v2-core-master/contracts/UniswapV2ERC20.sol\":333:357  uint  public totalSupply */\n            tag_56:\n              sload(0x00)\n              dup2\n              jump\t// out\n                /* \"CONTRACT/v2-core-master/contracts/UniswapV2ERC20.sol\":2544:2845  function transferFrom(address from, address to, uint value) external returns (bool) {\r... */\n            tag_59:\n              sub(shl(0xa0, 0x01), 0x01)\n                /* \"CONTRACT/v2-core-master/contracts/UniswapV2ERC20.sol\":2643:2658  allowance[from] */\n              dup4\n              and\n                /* \"CONTRACT/v2-core-master/contracts/UniswapV2ERC20.sol\":2622:2626  bool */\n              0x00\n                /* \"CONTRACT/v2-core-master/contracts/UniswapV2ERC20.sol\":2643:2658  allowance[from] */\n              swap1\n              dup2\n              mstore\n                /* \"CONTRACT/v2-core-master/contracts/UniswapV2ERC20.sol\":2643:2652  allowance */\n              0x02\n                /* \"CONTRACT/v2-core-master/contracts/UniswapV2ERC20.sol\":2643:2658  allowance[from] */\n              0x20\n              swap1\n              dup2\n              mstore\n              0x40\n              dup1\n              dup4\n              keccak256\n                /* \"CONTRACT/v2-core-master/contracts/UniswapV2ERC20.sol\":2659:2669  msg.sender */\n              caller\n                /* \"CONTRACT/v2-core-master/contracts/UniswapV2ERC20.sol\":2643:2670  allowance[from][msg.sender] */\n              dup5\n              mstore\n              swap1\n              swap2\n              mstore\n              dup2\n              keccak256\n              sload\n              not(0x00)\n                /* \"CONTRACT/v2-core-master/contracts/UniswapV2ERC20.sol\":2643:2682  allowance[from][msg.sender] != uint(-1) */\n              eq\n                /* \"CONTRACT/v2-core-master/contracts/UniswapV2ERC20.sol\":2639:2779  if (allowance[from][msg.sender] != uint(-1)) {\r... */\n              tag_162\n              jumpi\n              sub(shl(0xa0, 0x01), 0x01)\n                /* \"CONTRACT/v2-core-master/contracts/UniswapV2ERC20.sol\":2729:2744  allowance[from] */\n              dup5\n              and\n              0x00\n              swap1\n              dup2\n              mstore\n                /* \"CONTRACT/v2-core-master/contracts/UniswapV2ERC20.sol\":2729:2738  allowance */\n              0x02\n                /* \"CONTRACT/v2-core-master/contracts/UniswapV2ERC20.sol\":2729:2744  allowance[from] */\n              0x20\n              swap1\n              dup2\n              mstore\n              0x40\n              dup1\n              dup4\n              keccak256\n                /* \"CONTRACT/v2-core-master/contracts/UniswapV2ERC20.sol\":2745:2755  msg.sender */\n              caller\n                /* \"CONTRACT/v2-core-master/contracts/UniswapV2ERC20.sol\":2729:2756  allowance[from][msg.sender] */\n              dup5\n              mstore\n              swap1\n              swap2\n              mstore\n              swap1\n              keccak256\n              sload\n                /* \"CONTRACT/v2-core-master/contracts/UniswapV2ERC20.sol\":2729:2767  allowance[from][msg.sender].sub(value) */\n              tag_163\n              swap1\n                /* \"CONTRACT/v2-core-master/contracts/UniswapV2ERC20.sol\":2761:2766  value */\n              dup4\n                /* \"CONTRACT/v2-core-master/contracts/UniswapV2ERC20.sol\":2729:2760  allowance[from][msg.sender].sub */\n              tag_147\n                /* \"CONTRACT/v2-core-master/contracts/UniswapV2ERC20.sol\":2729:2767  allowance[from][msg.sender].sub(value) */\n              jump\t// in\n            tag_163:\n              sub(shl(0xa0, 0x01), 0x01)\n                /* \"CONTRACT/v2-core-master/contracts/UniswapV2ERC20.sol\":2699:2714  allowance[from] */\n              dup6\n              and\n              0x00\n              swap1\n              dup2\n              mstore\n                /* \"CONTRACT/v2-core-master/contracts/UniswapV2ERC20.sol\":2699:2708  allowance */\n              0x02\n                /* \"CONTRACT/v2-core-master/contracts/UniswapV2ERC20.sol\":2699:2714  allowance[from] */\n              0x20\n              swap1\n              dup2\n              mstore\n              0x40\n              dup1\n              dup4\n              keccak256\n                /* \"CONTRACT/v2-core-master/contracts/UniswapV2ERC20.sol\":2715:2725  msg.sender */\n              caller\n                /* \"CONTRACT/v2-core-master/contracts/UniswapV2ERC20.sol\":2699:2726  allowance[from][msg.sender] */\n              dup5\n              mstore\n              swap1\n              swap2\n              mstore\n              swap1\n              keccak256\n                /* \"CONTRACT/v2-core-master/contracts/UniswapV2ERC20.sol\":2699:2767  allowance[from][msg.sender] = allowance[from][msg.sender].sub(value) */\n              sstore\n                /* \"CONTRACT/v2-core-master/contracts/UniswapV2ERC20.sol\":2639:2779  if (allowance[from][msg.sender] != uint(-1)) {\r... */\n            tag_162:\n                /* \"CONTRACT/v2-core-master/contracts/UniswapV2ERC20.sol\":2789:2815  _transfer(from, to, value) */\n              tag_164\n                /* \"CONTRACT/v2-core-master/contracts/UniswapV2ERC20.sol\":2799:2803  from */\n              dup5\n                /* \"CONTRACT/v2-core-master/contracts/UniswapV2ERC20.sol\":2805:2807  to */\n              dup5\n                /* \"CONTRACT/v2-core-master/contracts/UniswapV2ERC20.sol\":2809:2814  value */\n              dup5\n                /* \"CONTRACT/v2-core-master/contracts/UniswapV2ERC20.sol\":2789:2798  _transfer */\n              tag_165\n                /* \"CONTRACT/v2-core-master/contracts/UniswapV2ERC20.sol\":2789:2815  _transfer(from, to, value) */\n              jump\t// in\n            tag_164:\n              pop\n                /* \"CONTRACT/v2-core-master/contracts/UniswapV2ERC20.sol\":2833:2837  true */\n              0x01\n                /* \"CONTRACT/v2-core-master/contracts/UniswapV2ERC20.sol\":2544:2845  function transferFrom(address from, address to, uint value) external returns (bool) {\r... */\n              swap4\n              swap3\n              pop\n              pop\n              pop\n              jump\t// out\n                /* \"CONTRACT/v2-core-master/contracts/UniswapV2ERC20.sol\":625:733  bytes32 public constant PERMIT_TYPEHASH = 0x6e71edae12b1b97f4d1f60370fef10105fa2faae0126114a169c64845d6126c9 */\n            tag_61:\n                /* \"CONTRACT/v2-core-master/contracts/UniswapV2ERC20.sol\":667:733  0x6e71edae12b1b97f4d1f60370fef10105fa2faae0126114a169c64845d6126c9 */\n              0x6e71edae12b1b97f4d1f60370fef10105fa2faae0126114a169c64845d6126c9\n                /* \"CONTRACT/v2-core-master/contracts/UniswapV2ERC20.sol\":625:733  bytes32 public constant PERMIT_TYPEHASH = 0x6e71edae12b1b97f4d1f60370fef10105fa2faae0126114a169c64845d6126c9 */\n              dup2\n              jump\t// out\n                /* \"CONTRACT/v2-core-master/contracts/UniswapV2ERC20.sol\":291:326  uint8 public constant decimals = 18 */\n            tag_63:\n                /* \"CONTRACT/v2-core-master/contracts/UniswapV2ERC20.sol\":324:326  18 */\n              0x12\n                /* \"CONTRACT/v2-core-master/contracts/UniswapV2ERC20.sol\":291:326  uint8 public constant decimals = 18 */\n              dup2\n              jump\t// out\n                /* \"CONTRACT/v2-core-master/contracts/UniswapV2ERC20.sol\":482:513  bytes32 public DOMAIN_SEPARATOR */\n            tag_65:\n              sload(0x03)\n              dup2\n              jump\t// out\n                /* \"CONTRACT/v2-core-master/contracts/UniswapV2Pair.sol\":2382:2592  function initialize(address _token0, address _token1) external {\r... */\n            tag_68:\n                /* \"CONTRACT/v2-core-master/contracts/UniswapV2Pair.sol\":2478:2485  factory */\n              and(sub(shl(0xa0, 0x01), 0x01), sload(0x05))\n                /* \"CONTRACT/v2-core-master/contracts/UniswapV2Pair.sol\":2464:2474  msg.sender */\n              caller\n                /* \"CONTRACT/v2-core-master/contracts/UniswapV2Pair.sol\":2464:2485  msg.sender == factory */\n              eq\n                /* \"CONTRACT/v2-core-master/contracts/UniswapV2Pair.sol\":2456:2510  require(msg.sender == factory, 'UniswapV2: FORBIDDEN') */\n              tag_167\n              jumpi\n              0x40\n              dup1\n              mload\n              shl(0xe5, 0x461bcd)\n              dup2\n              mstore\n              0x20\n              0x04\n              dup3\n              add\n              mstore\n              0x14\n              0x24\n              dup3\n              add\n              mstore\n              shl(0x61, 0x2ab734b9bbb0b82b191d102327a92124a22222a7)\n              0x44\n              dup3\n              add\n              mstore\n              swap1\n              mload\n              swap1\n              dup2\n              swap1\n              sub\n              0x64\n              add\n              swap1\n              revert\n            tag_167:\n                /* \"CONTRACT/v2-core-master/contracts/UniswapV2Pair.sol\":2541:2547  token0 */\n              0x06\n                /* \"CONTRACT/v2-core-master/contracts/UniswapV2Pair.sol\":2541:2557  token0 = _token0 */\n              dup1\n              sload\n              sub(shl(0xa0, 0x01), 0x01)\n              swap4\n              dup5\n              and\n              not(sub(shl(0xa0, 0x01), 0x01))\n              swap2\n              dup3\n              and\n              or\n              swap1\n              swap2\n              sstore\n                /* \"CONTRACT/v2-core-master/contracts/UniswapV2Pair.sol\":2568:2574  token1 */\n              0x07\n                /* \"CONTRACT/v2-core-master/contracts/UniswapV2Pair.sol\":2568:2584  token1 = _token1 */\n              dup1\n              sload\n              swap3\n              swap1\n              swap4\n              and\n              swap2\n              and\n              or\n              swap1\n              sstore\n                /* \"CONTRACT/v2-core-master/contracts/UniswapV2Pair.sol\":2382:2592  function initialize(address _token0, address _token1) external {\r... */\n              jump\t// out\n                /* \"CONTRACT/v2-core-master/contracts/UniswapV2Pair.sol\":962:994  uint public price0CumulativeLast */\n            tag_70:\n              sload(0x09)\n              dup2\n              jump\t// out\n                /* \"CONTRACT/v2-core-master/contracts/UniswapV2Pair.sol\":1001:1033  uint public price1CumulativeLast */\n            tag_72:\n              sload(0x0a)\n              dup2\n              jump\t// out\n                /* \"CONTRACT/v2-core-master/contracts/UniswapV2Pair.sol\":4973:6213  function mint(address to) external lock returns (uint liquidity) {\r... */\n            tag_75:\n                /* \"CONTRACT/v2-core-master/contracts/UniswapV2Pair.sol\":5022:5036  uint liquidity */\n              0x00\n                /* \"CONTRACT/v2-core-master/contracts/UniswapV2Pair.sol\":1213:1221  unlocked */\n              sload(0x0c)\n                /* \"CONTRACT/v2-core-master/contracts/UniswapV2Pair.sol\":1225:1226  1 */\n              0x01\n                /* \"CONTRACT/v2-core-master/contracts/UniswapV2Pair.sol\":1213:1226  unlocked == 1 */\n              eq\n                /* \"CONTRACT/v2-core-master/contracts/UniswapV2Pair.sol\":1205:1248  require(unlocked == 1, 'UniswapV2: LOCKED') */\n              tag_169\n              jumpi\n              0x40\n              dup1\n              mload\n              shl(0xe5, 0x461bcd)\n              dup2\n              mstore\n              0x20\n              0x04\n              dup3\n              add\n              mstore\n              0x11\n              0x24\n              dup3\n              add\n              mstore\n              shl(0x7a, 0x155b9a5cddd85c158c8e881313d0d2d151)\n              0x44\n              dup3\n              add\n              mstore\n              swap1\n              mload\n              swap1\n              dup2\n              swap1\n              sub\n              0x64\n              add\n              swap1\n              revert\n            tag_169:\n                /* \"CONTRACT/v2-core-master/contracts/UniswapV2Pair.sol\":1270:1271  0 */\n              0x00\n                /* \"CONTRACT/v2-core-master/contracts/UniswapV2Pair.sol\":1259:1267  unlocked */\n              0x0c\n                /* \"CONTRACT/v2-core-master/contracts/UniswapV2Pair.sol\":1259:1271  unlocked = 0 */\n              dup2\n              swap1\n              sstore\n                /* \"CONTRACT/v2-core-master/contracts/UniswapV2Pair.sol\":1270:1271  0 */\n              dup1\n                /* \"CONTRACT/v2-core-master/contracts/UniswapV2Pair.sol\":5091:5104  getReserves() */\n              tag_171\n                /* \"CONTRACT/v2-core-master/contracts/UniswapV2Pair.sol\":5091:5102  getReserves */\n              tag_49\n                /* \"CONTRACT/v2-core-master/contracts/UniswapV2Pair.sol\":5091:5104  getReserves() */\n              jump\t// in\n            tag_171:\n              pop\n                /* \"CONTRACT/v2-core-master/contracts/UniswapV2Pair.sol\":5153:5159  token0 */\n              sload(0x06)\n                /* \"CONTRACT/v2-core-master/contracts/UniswapV2Pair.sol\":5146:5185  IERC20(token0).balanceOf(address(this)) */\n              0x40\n              dup1\n              mload\n              shl(0xe0, 0x70a08231)\n              dup2\n              mstore\n                /* \"CONTRACT/v2-core-master/contracts/UniswapV2Pair.sol\":5179:5183  this */\n              address\n                /* \"CONTRACT/v2-core-master/contracts/UniswapV2Pair.sol\":5146:5185  IERC20(token0).balanceOf(address(this)) */\n              0x04\n              dup3\n              add\n              mstore\n              swap1\n              mload\n                /* \"CONTRACT/v2-core-master/contracts/UniswapV2Pair.sol\":5049:5104  (uint112 _reserve0, uint112 _reserve1,) = getReserves() */\n              swap4\n              swap6\n              pop\n              swap2\n              swap4\n              pop\n              0x00\n              swap3\n              sub(shl(0xa0, 0x01), 0x01)\n                /* \"CONTRACT/v2-core-master/contracts/UniswapV2Pair.sol\":5153:5159  token0 */\n              swap1\n              swap2\n              and\n              swap2\n              0x70a08231\n              swap2\n                /* \"CONTRACT/v2-core-master/contracts/UniswapV2Pair.sol\":5146:5185  IERC20(token0).balanceOf(address(this)) */\n              0x24\n              dup1\n              dup4\n              add\n              swap3\n              0x20\n              swap3\n              swap2\n              swap1\n              dup3\n              swap1\n              sub\n              add\n              dup2\n                /* \"CONTRACT/v2-core-master/contracts/UniswapV2Pair.sol\":5153:5159  token0 */\n              dup7\n                /* \"CONTRACT/v2-core-master/contracts/UniswapV2Pair.sol\":5146:5185  IERC20(token0).balanceOf(address(this)) */\n              dup1\n              extcodesize\n              iszero\n                /* \"--CODEGEN--\":5:7   */\n              dup1\n              iszero\n              tag_172\n              jumpi\n                /* \"--CODEGEN--\":30:31   */\n              0x00\n                /* \"--CODEGEN--\":27:28   */\n              dup1\n                /* \"--CODEGEN--\":20:32   */\n              revert\n                /* \"--CODEGEN--\":5:7   */\n            tag_172:\n                /* \"CONTRACT/v2-core-master/contracts/UniswapV2Pair.sol\":5146:5185  IERC20(token0).balanceOf(address(this)) */\n              pop\n              gas\n              staticcall\n              iszero\n                /* \"--CODEGEN--\":8:17   */\n              dup1\n                /* \"--CODEGEN--\":5:7   */\n              iszero\n              tag_173\n              jumpi\n                /* \"--CODEGEN--\":45:61   */\n              returndatasize\n                /* \"--CODEGEN--\":42:43   */\n              0x00\n                /* \"--CODEGEN--\":39:40   */\n              dup1\n                /* \"--CODEGEN--\":24:62   */\n              returndatacopy\n                /* \"--CODEGEN--\":77:93   */\n              returndatasize\n                /* \"--CODEGEN--\":74:75   */\n              0x00\n                /* \"--CODEGEN--\":67:94   */\n              revert\n                /* \"--CODEGEN--\":5:7   */\n            tag_173:\n                /* \"CONTRACT/v2-core-master/contracts/UniswapV2Pair.sol\":5146:5185  IERC20(token0).balanceOf(address(this)) */\n              pop\n              pop\n              pop\n              pop\n              mload(0x40)\n              returndatasize\n                /* \"--CODEGEN--\":13:15   */\n              0x20\n                /* \"--CODEGEN--\":8:11   */\n              dup2\n                /* \"--CODEGEN--\":5:16   */\n              lt\n                /* \"--CODEGEN--\":2:4   */\n              iszero\n              tag_174\n              jumpi\n                /* \"--CODEGEN--\":29:30   */\n              0x00\n                /* \"--CODEGEN--\":26:27   */\n              dup1\n                /* \"--CODEGEN--\":19:31   */\n              revert\n                /* \"--CODEGEN--\":2:4   */\n            tag_174:\n              pop\n                /* \"CONTRACT/v2-core-master/contracts/UniswapV2Pair.sol\":5146:5185  IERC20(token0).balanceOf(address(this)) */\n              mload\n                /* \"CONTRACT/v2-core-master/contracts/UniswapV2Pair.sol\":5219:5225  token1 */\n              sload(0x07)\n                /* \"CONTRACT/v2-core-master/contracts/UniswapV2Pair.sol\":5212:5251  IERC20(token1).balanceOf(address(this)) */\n              0x40\n              dup1\n              mload\n              shl(0xe0, 0x70a08231)\n              dup2\n              mstore\n                /* \"CONTRACT/v2-core-master/contracts/UniswapV2Pair.sol\":5245:5249  this */\n              address\n                /* \"CONTRACT/v2-core-master/contracts/UniswapV2Pair.sol\":5212:5251  IERC20(token1).balanceOf(address(this)) */\n              0x04\n              dup3\n              add\n              mstore\n              swap1\n              mload\n                /* \"CONTRACT/v2-core-master/contracts/UniswapV2Pair.sol\":5146:5185  IERC20(token0).balanceOf(address(this)) */\n              swap3\n              swap4\n              pop\n              0x00\n              swap3\n              sub(shl(0xa0, 0x01), 0x01)\n                /* \"CONTRACT/v2-core-master/contracts/UniswapV2Pair.sol\":5219:5225  token1 */\n              swap1\n              swap3\n              and\n              swap2\n              0x70a08231\n              swap2\n                /* \"CONTRACT/v2-core-master/contracts/UniswapV2Pair.sol\":5212:5251  IERC20(token1).balanceOf(address(this)) */\n              0x24\n              dup1\n              dup3\n              add\n              swap3\n                /* \"CONTRACT/v2-core-master/contracts/UniswapV2Pair.sol\":5146:5185  IERC20(token0).balanceOf(address(this)) */\n              0x20\n              swap3\n                /* \"CONTRACT/v2-core-master/contracts/UniswapV2Pair.sol\":5212:5251  IERC20(token1).balanceOf(address(this)) */\n              swap1\n              swap2\n              swap1\n              dup3\n              swap1\n              sub\n              add\n              dup2\n                /* \"CONTRACT/v2-core-master/contracts/UniswapV2Pair.sol\":5219:5225  token1 */\n              dup7\n                /* \"CONTRACT/v2-core-master/contracts/UniswapV2Pair.sol\":5212:5251  IERC20(token1).balanceOf(address(this)) */\n              dup1\n              extcodesize\n              iszero\n                /* \"--CODEGEN--\":5:7   */\n              dup1\n              iszero\n              tag_175\n              jumpi\n                /* \"--CODEGEN--\":30:31   */\n              0x00\n                /* \"--CODEGEN--\":27:28   */\n              dup1\n                /* \"--CODEGEN--\":20:32   */\n              revert\n                /* \"--CODEGEN--\":5:7   */\n            tag_175:\n                /* \"CONTRACT/v2-core-master/contracts/UniswapV2Pair.sol\":5212:5251  IERC20(token1).balanceOf(address(this)) */\n              pop\n              gas\n              staticcall\n              iszero\n                /* \"--CODEGEN--\":8:17   */\n              dup1\n                /* \"--CODEGEN--\":5:7   */\n              iszero\n              tag_176\n              jumpi\n                /* \"--CODEGEN--\":45:61   */\n              returndatasize\n                /* \"--CODEGEN--\":42:43   */\n              0x00\n                /* \"--CODEGEN--\":39:40   */\n              dup1\n                /* \"--CODEGEN--\":24:62   */\n              returndatacopy\n                /* \"--CODEGEN--\":77:93   */\n              returndatasize\n                /* \"--CODEGEN--\":74:75   */\n              0x00\n                /* \"--CODEGEN--\":67:94   */\n              revert\n                /* \"--CODEGEN--\":5:7   */\n            tag_176:\n                /* \"CONTRACT/v2-core-master/contracts/UniswapV2Pair.sol\":5212:5251  IERC20(token1).balanceOf(address(this)) */\n              pop\n              pop\n              pop\n              pop\n              mload(0x40)\n              returndatasize\n                /* \"--CODEGEN--\":13:15   */\n              0x20\n                /* \"--CODEGEN--\":8:11   */\n              dup2\n                /* \"--CODEGEN--\":5:16   */\n              lt\n                /* \"--CODEGEN--\":2:4   */\n              iszero\n              tag_177\n              jumpi\n                /* \"--CODEGEN--\":29:30   */\n              0x00\n                /* \"--CODEGEN--\":26:27   */\n              dup1\n                /* \"--CODEGEN--\":19:31   */\n              revert\n                /* \"--CODEGEN--\":2:4   */\n            tag_177:\n              pop\n                /* \"CONTRACT/v2-core-master/contracts/UniswapV2Pair.sol\":5212:5251  IERC20(token1).balanceOf(address(this)) */\n              mload\n              swap1\n              pop\n                /* \"CONTRACT/v2-core-master/contracts/UniswapV2Pair.sol\":5262:5274  uint amount0 */\n              0x00\n                /* \"CONTRACT/v2-core-master/contracts/UniswapV2Pair.sol\":5277:5300  balance0.sub(_reserve0) */\n              tag_178\n                /* \"CONTRACT/v2-core-master/contracts/UniswapV2Pair.sol\":5277:5285  balance0 */\n              dup4\n              sub(shl(0x70, 0x01), 0x01)\n                /* \"CONTRACT/v2-core-master/contracts/UniswapV2Pair.sol\":5277:5300  balance0.sub(_reserve0) */\n              dup8\n              and\n                /* \"CONTRACT/v2-core-master/contracts/UniswapV2Pair.sol\":5277:5289  balance0.sub */\n              tag_147\n                /* \"CONTRACT/v2-core-master/contracts/UniswapV2Pair.sol\":5277:5300  balance0.sub(_reserve0) */\n              jump\t// in\n            tag_178:\n                /* \"CONTRACT/v2-core-master/contracts/UniswapV2Pair.sol\":5262:5300  uint amount0 = balance0.sub(_reserve0) */\n              swap1\n              pop\n                /* \"CONTRACT/v2-core-master/contracts/UniswapV2Pair.sol\":5311:5323  uint amount1 */\n              0x00\n                /* \"CONTRACT/v2-core-master/contracts/UniswapV2Pair.sol\":5326:5349  balance1.sub(_reserve1) */\n              tag_179\n                /* \"CONTRACT/v2-core-master/contracts/UniswapV2Pair.sol\":5326:5334  balance1 */\n              dup4\n              sub(shl(0x70, 0x01), 0x01)\n                /* \"CONTRACT/v2-core-master/contracts/UniswapV2Pair.sol\":5326:5349  balance1.sub(_reserve1) */\n              dup8\n              and\n                /* \"CONTRACT/v2-core-master/contracts/UniswapV2Pair.sol\":5326:5338  balance1.sub */\n              tag_147\n                /* \"CONTRACT/v2-core-master/contracts/UniswapV2Pair.sol\":5326:5349  balance1.sub(_reserve1) */\n              jump\t// in\n            tag_179:\n                /* \"CONTRACT/v2-core-master/contracts/UniswapV2Pair.sol\":5311:5349  uint amount1 = balance1.sub(_reserve1) */\n              swap1\n              pop\n                /* \"CONTRACT/v2-core-master/contracts/UniswapV2Pair.sol\":5362:5372  bool feeOn */\n              0x00\n                /* \"CONTRACT/v2-core-master/contracts/UniswapV2Pair.sol\":5375:5405  _mintFee(_reserve0, _reserve1) */\n              tag_180\n                /* \"CONTRACT/v2-core-master/contracts/UniswapV2Pair.sol\":5384:5393  _reserve0 */\n              dup8\n                /* \"CONTRACT/v2-core-master/contracts/UniswapV2Pair.sol\":5395:5404  _reserve1 */\n              dup8\n                /* \"CONTRACT/v2-core-master/contracts/UniswapV2Pair.sol\":5375:5383  _mintFee */\n              tag_181\n                /* \"CONTRACT/v2-core-master/contracts/UniswapV2Pair.sol\":5375:5405  _mintFee(_reserve0, _reserve1) */\n              jump\t// in\n            tag_180:\n                /* \"CONTRACT/v2-core-master/contracts/UniswapV2Pair.sol\":5416:5433  uint _totalSupply */\n              0x00\n                /* \"CONTRACT/v2-core-master/contracts/UniswapV2Pair.sol\":5436:5447  totalSupply */\n              sload\n                /* \"CONTRACT/v2-core-master/contracts/UniswapV2Pair.sol\":5362:5405  bool feeOn = _mintFee(_reserve0, _reserve1) */\n              swap1\n              swap2\n              pop\n                /* \"CONTRACT/v2-core-master/contracts/UniswapV2Pair.sol\":5540:5557  _totalSupply == 0 */\n              dup1\n                /* \"CONTRACT/v2-core-master/contracts/UniswapV2Pair.sol\":5536:5888  if (_totalSupply == 0) {\r... */\n              tag_182\n              jumpi\n                /* \"CONTRACT/v2-core-master/contracts/UniswapV2Pair.sol\":5586:5640  Math.sqrt(amount0.mul(amount1)).sub(MINIMUM_LIQUIDITY) */\n              tag_183\n                /* \"CONTRACT/v2-core-master/contracts/UniswapV2Pair.sol\":473:478  10**3 */\n              0x03e8\n                /* \"CONTRACT/v2-core-master/contracts/UniswapV2Pair.sol\":5586:5617  Math.sqrt(amount0.mul(amount1)) */\n              tag_146\n                /* \"CONTRACT/v2-core-master/contracts/UniswapV2Pair.sol\":5596:5616  amount0.mul(amount1) */\n              tag_185\n                /* \"CONTRACT/v2-core-master/contracts/UniswapV2Pair.sol\":5596:5603  amount0 */\n              dup8\n                /* \"CONTRACT/v2-core-master/contracts/UniswapV2Pair.sol\":5608:5615  amount1 */\n              dup8\n                /* \"CONTRACT/v2-core-master/contracts/UniswapV2Pair.sol\":5596:5616  amount0.mul(amount1) */\n              0xffffffff\n                /* \"CONTRACT/v2-core-master/contracts/UniswapV2Pair.sol\":5596:5607  amount0.mul */\n              tag_145\n                /* \"CONTRACT/v2-core-master/contracts/UniswapV2Pair.sol\":5596:5616  amount0.mul(amount1) */\n              and\n              jump\t// in\n            tag_185:\n                /* \"CONTRACT/v2-core-master/contracts/UniswapV2Pair.sol\":5586:5595  Math.sqrt */\n              tag_186\n                /* \"CONTRACT/v2-core-master/contracts/UniswapV2Pair.sol\":5586:5617  Math.sqrt(amount0.mul(amount1)) */\n              jump\t// in\n                /* \"CONTRACT/v2-core-master/contracts/UniswapV2Pair.sol\":5586:5640  Math.sqrt(amount0.mul(amount1)).sub(MINIMUM_LIQUIDITY) */\n            tag_183:\n                /* \"CONTRACT/v2-core-master/contracts/UniswapV2Pair.sol\":5574:5640  liquidity = Math.sqrt(amount0.mul(amount1)).sub(MINIMUM_LIQUIDITY) */\n              swap9\n              pop\n                /* \"CONTRACT/v2-core-master/contracts/UniswapV2Pair.sol\":5654:5690  _mint(address(0), MINIMUM_LIQUIDITY) */\n              tag_187\n                /* \"CONTRACT/v2-core-master/contracts/UniswapV2Pair.sol\":5668:5669  0 */\n              0x00\n                /* \"CONTRACT/v2-core-master/contracts/UniswapV2Pair.sol\":473:478  10**3 */\n              0x03e8\n                /* \"CONTRACT/v2-core-master/contracts/UniswapV2Pair.sol\":5654:5659  _mint */\n              tag_188\n                /* \"CONTRACT/v2-core-master/contracts/UniswapV2Pair.sol\":5654:5690  _mint(address(0), MINIMUM_LIQUIDITY) */\n              jump\t// in\n            tag_187:\n                /* \"CONTRACT/v2-core-master/contracts/UniswapV2Pair.sol\":5536:5888  if (_totalSupply == 0) {\r... */\n              jump(tag_189)\n            tag_182:\n                /* \"CONTRACT/v2-core-master/contracts/UniswapV2Pair.sol\":5790:5876  Math.min(amount0.mul(_totalSupply) / _reserve0, amount1.mul(_totalSupply) / _reserve1) */\n              tag_190\n              sub(shl(0x70, 0x01), 0x01)\n                /* \"CONTRACT/v2-core-master/contracts/UniswapV2Pair.sol\":5799:5836  amount0.mul(_totalSupply) / _reserve0 */\n              dup10\n              and\n                /* \"CONTRACT/v2-core-master/contracts/UniswapV2Pair.sol\":5799:5824  amount0.mul(_totalSupply) */\n              tag_191\n                /* \"CONTRACT/v2-core-master/contracts/UniswapV2Pair.sol\":5799:5806  amount0 */\n              dup7\n                /* \"CONTRACT/v2-core-master/contracts/UniswapV2Pair.sol\":5811:5823  _totalSupply */\n              dup5\n                /* \"CONTRACT/v2-core-master/contracts/UniswapV2Pair.sol\":5799:5810  amount0.mul */\n              tag_145\n                /* \"CONTRACT/v2-core-master/contracts/UniswapV2Pair.sol\":5799:5824  amount0.mul(_totalSupply) */\n              jump\t// in\n            tag_191:\n                /* \"CONTRACT/v2-core-master/contracts/UniswapV2Pair.sol\":5799:5836  amount0.mul(_totalSupply) / _reserve0 */\n              dup2\n              tag_192\n              jumpi\n              invalid\n            tag_192:\n              div\n              sub(shl(0x70, 0x01), 0x01)\n                /* \"CONTRACT/v2-core-master/contracts/UniswapV2Pair.sol\":5838:5875  amount1.mul(_totalSupply) / _reserve1 */\n              dup10\n              and\n                /* \"CONTRACT/v2-core-master/contracts/UniswapV2Pair.sol\":5838:5863  amount1.mul(_totalSupply) */\n              tag_193\n                /* \"CONTRACT/v2-core-master/contracts/UniswapV2Pair.sol\":5838:5845  amount1 */\n              dup7\n                /* \"CONTRACT/v2-core-master/contracts/UniswapV2Pair.sol\":5850:5862  _totalSupply */\n              dup6\n                /* \"CONTRACT/v2-core-master/contracts/UniswapV2Pair.sol\":5838:5849  amount1.mul */\n              tag_145\n                /* \"CONTRACT/v2-core-master/contracts/UniswapV2Pair.sol\":5838:5863  amount1.mul(_totalSupply) */\n              jump\t// in\n            tag_193:\n                /* \"CONTRACT/v2-core-master/contracts/UniswapV2Pair.sol\":5838:5875  amount1.mul(_totalSupply) / _reserve1 */\n              dup2\n              tag_194\n              jumpi\n              invalid\n            tag_194:\n              div\n                /* \"CONTRACT/v2-core-master/contracts/UniswapV2Pair.sol\":5790:5798  Math.min */\n              tag_195\n                /* \"CONTRACT/v2-core-master/contracts/UniswapV2Pair.sol\":5790:5876  Math.min(amount0.mul(_totalSupply) / _reserve0, amount1.mul(_totalSupply) / _reserve1) */\n              jump\t// in\n            tag_190:\n                /* \"CONTRACT/v2-core-master/contracts/UniswapV2Pair.sol\":5778:5876  liquidity = Math.min(amount0.mul(_totalSupply) / _reserve0, amount1.mul(_totalSupply) / _reserve1) */\n              swap9\n              pop\n                /* \"CONTRACT/v2-core-master/contracts/UniswapV2Pair.sol\":5536:5888  if (_totalSupply == 0) {\r... */\n            tag_189:\n                /* \"CONTRACT/v2-core-master/contracts/UniswapV2Pair.sol\":5918:5919  0 */\n              0x00\n                /* \"CONTRACT/v2-core-master/contracts/UniswapV2Pair.sol\":5906:5915  liquidity */\n              dup10\n                /* \"CONTRACT/v2-core-master/contracts/UniswapV2Pair.sol\":5906:5919  liquidity > 0 */\n              gt\n                /* \"CONTRACT/v2-core-master/contracts/UniswapV2Pair.sol\":5898:5964  require(liquidity > 0, 'UniswapV2: INSUFFICIENT_LIQUIDITY_MINTED') */\n              tag_196\n              jumpi\n              mload(0x40)\n              shl(0xe5, 0x461bcd)\n              dup2\n              mstore\n              0x04\n              add\n              dup1\n              dup1\n              0x20\n              add\n              dup3\n              dup2\n              sub\n              dup3\n              mstore\n              0x28\n              dup2\n              mstore\n              0x20\n              add\n              dup1\n              data_6591c9f5bf1fefaad109b76a20e25c857b696080c952191f86220f001a83663e\n              0x28\n              swap2\n              codecopy\n              0x40\n              add\n              swap2\n              pop\n              pop\n              mload(0x40)\n              dup1\n              swap2\n              sub\n              swap1\n              revert\n            tag_196:\n                /* \"CONTRACT/v2-core-master/contracts/UniswapV2Pair.sol\":5975:5995  _mint(to, liquidity) */\n              tag_197\n                /* \"CONTRACT/v2-core-master/contracts/UniswapV2Pair.sol\":5981:5983  to */\n              dup11\n                /* \"CONTRACT/v2-core-master/contracts/UniswapV2Pair.sol\":5985:5994  liquidity */\n              dup11\n                /* \"CONTRACT/v2-core-master/contracts/UniswapV2Pair.sol\":5975:5980  _mint */\n              tag_188\n                /* \"CONTRACT/v2-core-master/contracts/UniswapV2Pair.sol\":5975:5995  _mint(to, liquidity) */\n              jump\t// in\n            tag_197:\n                /* \"CONTRACT/v2-core-master/contracts/UniswapV2Pair.sol\":6008:6057  _update(balance0, balance1, _reserve0, _reserve1) */\n              tag_198\n                /* \"CONTRACT/v2-core-master/contracts/UniswapV2Pair.sol\":6016:6024  balance0 */\n              dup7\n                /* \"CONTRACT/v2-core-master/contracts/UniswapV2Pair.sol\":6026:6034  balance1 */\n              dup7\n                /* \"CONTRACT/v2-core-master/contracts/UniswapV2Pair.sol\":6036:6045  _reserve0 */\n              dup11\n                /* \"CONTRACT/v2-core-master/contracts/UniswapV2Pair.sol\":6047:6056  _reserve1 */\n              dup11\n                /* \"CONTRACT/v2-core-master/contracts/UniswapV2Pair.sol\":6008:6015  _update */\n              tag_156\n                /* \"CONTRACT/v2-core-master/contracts/UniswapV2Pair.sol\":6008:6057  _update(balance0, balance1, _reserve0, _reserve1) */\n              jump\t// in\n            tag_198:\n                /* \"CONTRACT/v2-core-master/contracts/UniswapV2Pair.sol\":6072:6077  feeOn */\n              dup2\n                /* \"CONTRACT/v2-core-master/contracts/UniswapV2Pair.sol\":6068:6115  if (feeOn) kLast = uint(reserve0).mul(reserve1) */\n              iszero\n              tag_199\n              jumpi\n                /* \"CONTRACT/v2-core-master/contracts/UniswapV2Pair.sol\":6106:6114  reserve1 */\n              sload(0x08)\n                /* \"CONTRACT/v2-core-master/contracts/UniswapV2Pair.sol\":6087:6115  uint(reserve0).mul(reserve1) */\n              tag_200\n              swap1\n              sub(shl(0x70, 0x01), 0x01)\n                /* \"CONTRACT/v2-core-master/contracts/UniswapV2Pair.sol\":6092:6100  reserve0 */\n              dup1\n              dup3\n              and\n              swap2\n              shl(0x70, 0x01)\n                /* \"CONTRACT/v2-core-master/contracts/UniswapV2Pair.sol\":6106:6114  reserve1 */\n              swap1\n              div\n              and\n                /* \"CONTRACT/v2-core-master/contracts/UniswapV2Pair.sol\":6087:6105  uint(reserve0).mul */\n              tag_145\n                /* \"CONTRACT/v2-core-master/contracts/UniswapV2Pair.sol\":6087:6115  uint(reserve0).mul(reserve1) */\n              jump\t// in\n            tag_200:\n                /* \"CONTRACT/v2-core-master/contracts/UniswapV2Pair.sol\":6079:6084  kLast */\n              0x0b\n                /* \"CONTRACT/v2-core-master/contracts/UniswapV2Pair.sol\":6079:6115  kLast = uint(reserve0).mul(reserve1) */\n              sstore\n                /* \"CONTRACT/v2-core-master/contracts/UniswapV2Pair.sol\":6068:6115  if (feeOn) kLast = uint(reserve0).mul(reserve1) */\n            tag_199:\n                /* \"CONTRACT/v2-core-master/contracts/UniswapV2Pair.sol\":6171:6205  Mint(msg.sender, amount0, amount1) */\n              0x40\n              dup1\n              mload\n              dup6\n              dup2\n              mstore\n              0x20\n              dup2\n              add\n              dup6\n              swap1\n              mstore\n              dup2\n              mload\n                /* \"CONTRACT/v2-core-master/contracts/UniswapV2Pair.sol\":6176:6186  msg.sender */\n              caller\n              swap3\n                /* \"CONTRACT/v2-core-master/contracts/UniswapV2Pair.sol\":6171:6205  Mint(msg.sender, amount0, amount1) */\n              0x4c209b5fc8ad50758f13e2e1088ba56a560dff690a1c6fef26394f4c03821c4f\n              swap3\n              dup3\n              swap1\n              sub\n              add\n              swap1\n              log2\n              pop\n              pop\n                /* \"CONTRACT/v2-core-master/contracts/UniswapV2Pair.sol\":1305:1306  1 */\n              0x01\n                /* \"CONTRACT/v2-core-master/contracts/UniswapV2Pair.sol\":1294:1302  unlocked */\n              0x0c\n                /* \"CONTRACT/v2-core-master/contracts/UniswapV2Pair.sol\":1294:1306  unlocked = 1 */\n              sstore\n              pop\n                /* \"CONTRACT/v2-core-master/contracts/UniswapV2Pair.sol\":4973:6213  function mint(address to) external lock returns (uint liquidity) {\r... */\n              swap5\n              swap7\n              swap6\n              pop\n              pop\n              pop\n              pop\n              pop\n              pop\n              jump\t// out\n                /* \"CONTRACT/v2-core-master/contracts/UniswapV2ERC20.sol\":364:405  mapping(address => uint) public balanceOf */\n            tag_78:\n              mstore(0x20, 0x01)\n              0x00\n              swap1\n              dup2\n              mstore\n              0x40\n              swap1\n              keccak256\n              sload\n              dup2\n              jump\t// out\n                /* \"CONTRACT/v2-core-master/contracts/UniswapV2Pair.sol\":1040:1057  uint public kLast */\n            tag_80:\n              sload(0x0b)\n              dup2\n              jump\t// out\n                /* \"CONTRACT/v2-core-master/contracts/UniswapV2ERC20.sol\":740:778  mapping(address => uint) public nonces */\n            tag_83:\n              mstore(0x20, 0x04)\n              0x00\n              swap1\n              dup2\n              mstore\n              0x40\n              swap1\n              keccak256\n              sload\n              dup2\n              jump\t// out\n                /* \"CONTRACT/v2-core-master/contracts/UniswapV2Pair.sol\":6325:7791  function burn(address to) external lock returns (uint amount0, uint amount1) {\r... */\n            tag_86:\n                /* \"CONTRACT/v2-core-master/contracts/UniswapV2Pair.sol\":6374:6386  uint amount0 */\n              0x00\n                /* \"CONTRACT/v2-core-master/contracts/UniswapV2Pair.sol\":6388:6400  uint amount1 */\n              dup1\n                /* \"CONTRACT/v2-core-master/contracts/UniswapV2Pair.sol\":1213:1221  unlocked */\n              sload(0x0c)\n                /* \"CONTRACT/v2-core-master/contracts/UniswapV2Pair.sol\":1225:1226  1 */\n              0x01\n                /* \"CONTRACT/v2-core-master/contracts/UniswapV2Pair.sol\":1213:1226  unlocked == 1 */\n              eq\n                /* \"CONTRACT/v2-core-master/contracts/UniswapV2Pair.sol\":1205:1248  require(unlocked == 1, 'UniswapV2: LOCKED') */\n              tag_202\n              jumpi\n              0x40\n              dup1\n              mload\n              shl(0xe5, 0x461bcd)\n              dup2\n              mstore\n              0x20\n              0x04\n              dup3\n              add\n              mstore\n              0x11\n              0x24\n              dup3\n              add\n              mstore\n              shl(0x7a, 0x155b9a5cddd85c158c8e881313d0d2d151)\n              0x44\n              dup3\n              add\n              mstore\n              swap1\n              mload\n              swap1\n              dup2\n              swap1\n              sub\n              0x64\n              add\n              swap1\n              revert\n            tag_202:\n                /* \"CONTRACT/v2-core-master/contracts/UniswapV2Pair.sol\":1270:1271  0 */\n              0x00\n                /* \"CONTRACT/v2-core-master/contracts/UniswapV2Pair.sol\":1259:1267  unlocked */\n              0x0c\n                /* \"CONTRACT/v2-core-master/contracts/UniswapV2Pair.sol\":1259:1271  unlocked = 0 */\n              dup2\n              swap1\n              sstore\n                /* \"CONTRACT/v2-core-master/contracts/UniswapV2Pair.sol\":1270:1271  0 */\n              dup1\n                /* \"CONTRACT/v2-core-master/contracts/UniswapV2Pair.sol\":6455:6468  getReserves() */\n              tag_204\n                /* \"CONTRACT/v2-core-master/contracts/UniswapV2Pair.sol\":6455:6466  getReserves */\n              tag_49\n                /* \"CONTRACT/v2-core-master/contracts/UniswapV2Pair.sol\":6455:6468  getReserves() */\n              jump\t// in\n            tag_204:\n              pop\n                /* \"CONTRACT/v2-core-master/contracts/UniswapV2Pair.sol\":6512:6518  token0 */\n              sload(0x06)\n                /* \"CONTRACT/v2-core-master/contracts/UniswapV2Pair.sol\":6593:6599  token1 */\n              sload(0x07)\n                /* \"CONTRACT/v2-core-master/contracts/UniswapV2Pair.sol\":6672:6712  IERC20(_token0).balanceOf(address(this)) */\n              0x40\n              dup1\n              mload\n              shl(0xe0, 0x70a08231)\n              dup2\n              mstore\n                /* \"CONTRACT/v2-core-master/contracts/UniswapV2Pair.sol\":6706:6710  this */\n              address\n                /* \"CONTRACT/v2-core-master/contracts/UniswapV2Pair.sol\":6672:6712  IERC20(_token0).balanceOf(address(this)) */\n              0x04\n              dup3\n              add\n              mstore\n              swap1\n              mload\n                /* \"CONTRACT/v2-core-master/contracts/UniswapV2Pair.sol\":6413:6468  (uint112 _reserve0, uint112 _reserve1,) = getReserves() */\n              swap5\n              swap7\n              pop\n              swap3\n              swap5\n              pop\n              sub(shl(0xa0, 0x01), 0x01)\n                /* \"CONTRACT/v2-core-master/contracts/UniswapV2Pair.sol\":6512:6518  token0 */\n              swap2\n              dup3\n              and\n              swap4\n                /* \"CONTRACT/v2-core-master/contracts/UniswapV2Pair.sol\":6593:6599  token1 */\n              swap2\n              and\n              swap2\n              0x00\n              swap2\n                /* \"CONTRACT/v2-core-master/contracts/UniswapV2Pair.sol\":6512:6518  token0 */\n              dup5\n              swap2\n              0x70a08231\n              swap2\n                /* \"CONTRACT/v2-core-master/contracts/UniswapV2Pair.sol\":6672:6712  IERC20(_token0).balanceOf(address(this)) */\n              0x24\n              dup1\n              dup4\n              add\n              swap3\n              0x20\n              swap3\n              swap2\n              swap1\n              dup3\n              swap1\n              sub\n              add\n              dup2\n                /* \"CONTRACT/v2-core-master/contracts/UniswapV2Pair.sol\":6512:6518  token0 */\n              dup7\n                /* \"CONTRACT/v2-core-master/contracts/UniswapV2Pair.sol\":6672:6712  IERC20(_token0).balanceOf(address(this)) */\n              dup1\n              extcodesize\n              iszero\n                /* \"--CODEGEN--\":5:7   */\n              dup1\n              iszero\n              tag_205\n              jumpi\n                /* \"--CODEGEN--\":30:31   */\n              0x00\n                /* \"--CODEGEN--\":27:28   */\n              dup1\n                /* \"--CODEGEN--\":20:32   */\n              revert\n                /* \"--CODEGEN--\":5:7   */\n            tag_205:\n                /* \"CONTRACT/v2-core-master/contracts/UniswapV2Pair.sol\":6672:6712  IERC20(_token0).balanceOf(address(this)) */\n              pop\n              gas\n              staticcall\n              iszero\n                /* \"--CODEGEN--\":8:17   */\n              dup1\n                /* \"--CODEGEN--\":5:7   */\n              iszero\n              tag_206\n              jumpi\n                /* \"--CODEGEN--\":45:61   */\n              returndatasize\n                /* \"--CODEGEN--\":42:43   */\n              0x00\n                /* \"--CODEGEN--\":39:40   */\n              dup1\n                /* \"--CODEGEN--\":24:62   */\n              returndatacopy\n                /* \"--CODEGEN--\":77:93   */\n              returndatasize\n                /* \"--CODEGEN--\":74:75   */\n              0x00\n                /* \"--CODEGEN--\":67:94   */\n              revert\n                /* \"--CODEGEN--\":5:7   */\n            tag_206:\n                /* \"CONTRACT/v2-core-master/contracts/UniswapV2Pair.sol\":6672:6712  IERC20(_token0).balanceOf(address(this)) */\n              pop\n              pop\n              pop\n              pop\n              mload(0x40)\n              returndatasize\n                /* \"--CODEGEN--\":13:15   */\n              0x20\n                /* \"--CODEGEN--\":8:11   */\n              dup2\n                /* \"--CODEGEN--\":5:16   */\n              lt\n                /* \"--CODEGEN--\":2:4   */\n              iszero\n              tag_207\n              jumpi\n                /* \"--CODEGEN--\":29:30   */\n              0x00\n                /* \"--CODEGEN--\":26:27   */\n              dup1\n                /* \"--CODEGEN--\":19:31   */\n              revert\n                /* \"--CODEGEN--\":2:4   */\n            tag_207:\n              pop\n                /* \"CONTRACT/v2-core-master/contracts/UniswapV2Pair.sol\":6672:6712  IERC20(_token0).balanceOf(address(this)) */\n              mload\n                /* \"CONTRACT/v2-core-master/contracts/UniswapV2Pair.sol\":6739:6779  IERC20(_token1).balanceOf(address(this)) */\n              0x40\n              dup1\n              mload\n              shl(0xe0, 0x70a08231)\n              dup2\n              mstore\n                /* \"CONTRACT/v2-core-master/contracts/UniswapV2Pair.sol\":6773:6777  this */\n              address\n                /* \"CONTRACT/v2-core-master/contracts/UniswapV2Pair.sol\":6739:6779  IERC20(_token1).balanceOf(address(this)) */\n              0x04\n              dup3\n              add\n              mstore\n              swap1\n              mload\n                /* \"CONTRACT/v2-core-master/contracts/UniswapV2Pair.sol\":6672:6712  IERC20(_token0).balanceOf(address(this)) */\n              swap2\n              swap3\n              pop\n              0x00\n              swap2\n              sub(shl(0xa0, 0x01), 0x01)\n                /* \"CONTRACT/v2-core-master/contracts/UniswapV2Pair.sol\":6739:6764  IERC20(_token1).balanceOf */\n              dup6\n              and\n              swap2\n              0x70a08231\n              swap2\n                /* \"CONTRACT/v2-core-master/contracts/UniswapV2Pair.sol\":6739:6779  IERC20(_token1).balanceOf(address(this)) */\n              0x24\n              dup1\n              dup4\n              add\n              swap3\n                /* \"CONTRACT/v2-core-master/contracts/UniswapV2Pair.sol\":6672:6712  IERC20(_token0).balanceOf(address(this)) */\n              0x20\n              swap3\n                /* \"CONTRACT/v2-core-master/contracts/UniswapV2Pair.sol\":6739:6779  IERC20(_token1).balanceOf(address(this)) */\n              swap2\n              swap1\n              dup3\n              swap1\n              sub\n              add\n              dup2\n                /* \"CONTRACT/v2-core-master/contracts/UniswapV2Pair.sol\":6739:6764  IERC20(_token1).balanceOf */\n              dup7\n                /* \"CONTRACT/v2-core-master/contracts/UniswapV2Pair.sol\":6739:6779  IERC20(_token1).balanceOf(address(this)) */\n              dup1\n              extcodesize\n              iszero\n                /* \"--CODEGEN--\":5:7   */\n              dup1\n              iszero\n              tag_208\n              jumpi\n                /* \"--CODEGEN--\":30:31   */\n              0x00\n                /* \"--CODEGEN--\":27:28   */\n              dup1\n                /* \"--CODEGEN--\":20:32   */\n              revert\n                /* \"--CODEGEN--\":5:7   */\n            tag_208:\n                /* \"CONTRACT/v2-core-master/contracts/UniswapV2Pair.sol\":6739:6779  IERC20(_token1).balanceOf(address(this)) */\n              pop\n              gas\n              staticcall\n              iszero\n                /* \"--CODEGEN--\":8:17   */\n              dup1\n                /* \"--CODEGEN--\":5:7   */\n              iszero\n              tag_209\n              jumpi\n                /* \"--CODEGEN--\":45:61   */\n              returndatasize\n                /* \"--CODEGEN--\":42:43   */\n              0x00\n                /* \"--CODEGEN--\":39:40   */\n              dup1\n                /* \"--CODEGEN--\":24:62   */\n              returndatacopy\n                /* \"--CODEGEN--\":77:93   */\n              returndatasize\n                /* \"--CODEGEN--\":74:75   */\n              0x00\n                /* \"--CODEGEN--\":67:94   */\n              revert\n                /* \"--CODEGEN--\":5:7   */\n            tag_209:\n                /* \"CONTRACT/v2-core-master/contracts/UniswapV2Pair.sol\":6739:6779  IERC20(_token1).balanceOf(address(this)) */\n              pop\n              pop\n              pop\n              pop\n              mload(0x40)\n              returndatasize\n                /* \"--CODEGEN--\":13:15   */\n              0x20\n                /* \"--CODEGEN--\":8:11   */\n              dup2\n                /* \"--CODEGEN--\":5:16   */\n              lt\n                /* \"--CODEGEN--\":2:4   */\n              iszero\n              tag_210\n              jumpi\n                /* \"--CODEGEN--\":29:30   */\n              0x00\n                /* \"--CODEGEN--\":26:27   */\n              dup1\n                /* \"--CODEGEN--\":19:31   */\n              revert\n                /* \"--CODEGEN--\":2:4   */\n            tag_210:\n              pop\n                /* \"CONTRACT/v2-core-master/contracts/UniswapV2Pair.sol\":6739:6779  IERC20(_token1).balanceOf(address(this)) */\n              mload\n                /* \"CONTRACT/v2-core-master/contracts/UniswapV2Pair.sol\":6825:6829  this */\n              address\n                /* \"CONTRACT/v2-core-master/contracts/UniswapV2Pair.sol\":6790:6804  uint liquidity */\n              0x00\n                /* \"CONTRACT/v2-core-master/contracts/UniswapV2Pair.sol\":6807:6831  balanceOf[address(this)] */\n              swap1\n              dup2\n              mstore\n                /* \"CONTRACT/v2-core-master/contracts/UniswapV2Pair.sol\":6807:6816  balanceOf */\n              0x01\n                /* \"CONTRACT/v2-core-master/contracts/UniswapV2Pair.sol\":6739:6779  IERC20(_token1).balanceOf(address(this)) */\n              0x20\n                /* \"CONTRACT/v2-core-master/contracts/UniswapV2Pair.sol\":6807:6831  balanceOf[address(this)] */\n              mstore\n              0x40\n              dup2\n              keccak256\n              sload\n                /* \"CONTRACT/v2-core-master/contracts/UniswapV2Pair.sol\":6739:6779  IERC20(_token1).balanceOf(address(this)) */\n              swap2\n              swap3\n              pop\n                /* \"CONTRACT/v2-core-master/contracts/UniswapV2Pair.sol\":6857:6887  _mintFee(_reserve0, _reserve1) */\n              tag_211\n                /* \"CONTRACT/v2-core-master/contracts/UniswapV2Pair.sol\":6866:6875  _reserve0 */\n              dup9\n                /* \"CONTRACT/v2-core-master/contracts/UniswapV2Pair.sol\":6877:6886  _reserve1 */\n              dup9\n                /* \"CONTRACT/v2-core-master/contracts/UniswapV2Pair.sol\":6857:6865  _mintFee */\n              tag_181\n                /* \"CONTRACT/v2-core-master/contracts/UniswapV2Pair.sol\":6857:6887  _mintFee(_reserve0, _reserve1) */\n              jump\t// in\n            tag_211:\n                /* \"CONTRACT/v2-core-master/contracts/UniswapV2Pair.sol\":6898:6915  uint _totalSupply */\n              0x00\n                /* \"CONTRACT/v2-core-master/contracts/UniswapV2Pair.sol\":6918:6929  totalSupply */\n              sload\n                /* \"CONTRACT/v2-core-master/contracts/UniswapV2Pair.sol\":6844:6887  bool feeOn = _mintFee(_reserve0, _reserve1) */\n              swap1\n              swap2\n              pop\n                /* \"CONTRACT/v2-core-master/contracts/UniswapV2Pair.sol\":6918:6929  totalSupply */\n              dup1\n                /* \"CONTRACT/v2-core-master/contracts/UniswapV2Pair.sol\":7028:7051  liquidity.mul(balance0) */\n              tag_212\n                /* \"CONTRACT/v2-core-master/contracts/UniswapV2Pair.sol\":7028:7037  liquidity */\n              dup5\n                /* \"CONTRACT/v2-core-master/contracts/UniswapV2Pair.sol\":7042:7050  balance0 */\n              dup8\n                /* \"CONTRACT/v2-core-master/contracts/UniswapV2Pair.sol\":7028:7051  liquidity.mul(balance0) */\n              0xffffffff\n                /* \"CONTRACT/v2-core-master/contracts/UniswapV2Pair.sol\":7028:7041  liquidity.mul */\n              tag_145\n                /* \"CONTRACT/v2-core-master/contracts/UniswapV2Pair.sol\":7028:7051  liquidity.mul(balance0) */\n              and\n              jump\t// in\n            tag_212:\n                /* \"CONTRACT/v2-core-master/contracts/UniswapV2Pair.sol\":7028:7066  liquidity.mul(balance0) / _totalSupply */\n              dup2\n              tag_213\n              jumpi\n              invalid\n            tag_213:\n              div\n              swap11\n              pop\n                /* \"CONTRACT/v2-core-master/contracts/UniswapV2Pair.sol\":7161:7173  _totalSupply */\n              dup1\n                /* \"CONTRACT/v2-core-master/contracts/UniswapV2Pair.sol\":7135:7158  liquidity.mul(balance1) */\n              tag_214\n                /* \"CONTRACT/v2-core-master/contracts/UniswapV2Pair.sol\":7135:7144  liquidity */\n              dup5\n                /* \"CONTRACT/v2-core-master/contracts/UniswapV2Pair.sol\":7149:7157  balance1 */\n              dup7\n                /* \"CONTRACT/v2-core-master/contracts/UniswapV2Pair.sol\":7135:7158  liquidity.mul(balance1) */\n              0xffffffff\n                /* \"CONTRACT/v2-core-master/contracts/UniswapV2Pair.sol\":7135:7148  liquidity.mul */\n              tag_145\n                /* \"CONTRACT/v2-core-master/contracts/UniswapV2Pair.sol\":7135:7158  liquidity.mul(balance1) */\n              and\n              jump\t// in\n            tag_214:\n                /* \"CONTRACT/v2-core-master/contracts/UniswapV2Pair.sol\":7135:7173  liquidity.mul(balance1) / _totalSupply */\n              dup2\n              tag_215\n              jumpi\n              invalid\n            tag_215:\n              div\n                /* \"CONTRACT/v2-core-master/contracts/UniswapV2Pair.sol\":7125:7173  amount1 = liquidity.mul(balance1) / _totalSupply */\n              swap10\n              pop\n                /* \"CONTRACT/v2-core-master/contracts/UniswapV2Pair.sol\":7250:7251  0 */\n              0x00\n                /* \"CONTRACT/v2-core-master/contracts/UniswapV2Pair.sol\":7240:7247  amount0 */\n              dup12\n                /* \"CONTRACT/v2-core-master/contracts/UniswapV2Pair.sol\":7240:7251  amount0 > 0 */\n              gt\n                /* \"CONTRACT/v2-core-master/contracts/UniswapV2Pair.sol\":7240:7266  amount0 > 0 && amount1 > 0 */\n              dup1\n              iszero\n              tag_216\n              jumpi\n              pop\n                /* \"CONTRACT/v2-core-master/contracts/UniswapV2Pair.sol\":7265:7266  0 */\n              0x00\n                /* \"CONTRACT/v2-core-master/contracts/UniswapV2Pair.sol\":7255:7262  amount1 */\n              dup11\n                /* \"CONTRACT/v2-core-master/contracts/UniswapV2Pair.sol\":7255:7266  amount1 > 0 */\n              gt\n                /* \"CONTRACT/v2-core-master/contracts/UniswapV2Pair.sol\":7240:7266  amount0 > 0 && amount1 > 0 */\n            tag_216:\n                /* \"CONTRACT/v2-core-master/contracts/UniswapV2Pair.sol\":7232:7311  require(amount0 > 0 && amount1 > 0, 'UniswapV2: INSUFFICIENT_LIQUIDITY_BURNED') */\n              tag_217\n              jumpi\n              mload(0x40)\n              shl(0xe5, 0x461bcd)\n              dup2\n              mstore\n              0x04\n              add\n              dup1\n              dup1\n              0x20\n              add\n              dup3\n              dup2\n              sub\n              dup3\n              mstore\n              0x28\n              dup2\n              mstore\n              0x20\n              add\n              dup1\n              data_57ebfb4dd8b5082cdba0f23c17077e3b0ecb9782a51e0e9a15e9bc8c4b30c562\n              0x28\n              swap2\n              codecopy\n              0x40\n              add\n              swap2\n              pop\n              pop\n              mload(0x40)\n              dup1\n              swap2\n              sub\n              swap1\n              revert\n            tag_217:\n                /* \"CONTRACT/v2-core-master/contracts/UniswapV2Pair.sol\":7322:7353  _burn(address(this), liquidity) */\n              tag_218\n                /* \"CONTRACT/v2-core-master/contracts/UniswapV2Pair.sol\":7336:7340  this */\n              address\n                /* \"CONTRACT/v2-core-master/contracts/UniswapV2Pair.sol\":7343:7352  liquidity */\n              dup5\n                /* \"CONTRACT/v2-core-master/contracts/UniswapV2Pair.sol\":7322:7327  _burn */\n              tag_219\n                /* \"CONTRACT/v2-core-master/contracts/UniswapV2Pair.sol\":7322:7353  _burn(address(this), liquidity) */\n              jump\t// in\n            tag_218:\n                /* \"CONTRACT/v2-core-master/contracts/UniswapV2Pair.sol\":7364:7399  _safeTransfer(_token0, to, amount0) */\n              tag_220\n                /* \"CONTRACT/v2-core-master/contracts/UniswapV2Pair.sol\":7378:7385  _token0 */\n              dup8\n                /* \"CONTRACT/v2-core-master/contracts/UniswapV2Pair.sol\":7387:7389  to */\n              dup14\n                /* \"CONTRACT/v2-core-master/contracts/UniswapV2Pair.sol\":7391:7398  amount0 */\n              dup14\n                /* \"CONTRACT/v2-core-master/contracts/UniswapV2Pair.sol\":7364:7377  _safeTransfer */\n              tag_125\n                /* \"CONTRACT/v2-core-master/contracts/UniswapV2Pair.sol\":7364:7399  _safeTransfer(_token0, to, amount0) */\n              jump\t// in\n            tag_220:\n                /* \"CONTRACT/v2-core-master/contracts/UniswapV2Pair.sol\":7410:7445  _safeTransfer(_token1, to, amount1) */\n              tag_221\n                /* \"CONTRACT/v2-core-master/contracts/UniswapV2Pair.sol\":7424:7431  _token1 */\n              dup7\n                /* \"CONTRACT/v2-core-master/contracts/UniswapV2Pair.sol\":7433:7435  to */\n              dup14\n                /* \"CONTRACT/v2-core-master/contracts/UniswapV2Pair.sol\":7437:7444  amount1 */\n              dup13\n                /* \"CONTRACT/v2-core-master/contracts/UniswapV2Pair.sol\":7410:7423  _safeTransfer */\n              tag_125\n                /* \"CONTRACT/v2-core-master/contracts/UniswapV2Pair.sol\":7410:7445  _safeTransfer(_token1, to, amount1) */\n              jump\t// in\n            tag_221:\n                /* \"CONTRACT/v2-core-master/contracts/UniswapV2Pair.sol\":7467:7507  IERC20(_token0).balanceOf(address(this)) */\n              0x40\n              dup1\n              mload\n              shl(0xe0, 0x70a08231)\n              dup2\n              mstore\n                /* \"CONTRACT/v2-core-master/contracts/UniswapV2Pair.sol\":7501:7505  this */\n              address\n                /* \"CONTRACT/v2-core-master/contracts/UniswapV2Pair.sol\":7467:7507  IERC20(_token0).balanceOf(address(this)) */\n              0x04\n              dup3\n              add\n              mstore\n              swap1\n              mload\n              sub(shl(0xa0, 0x01), 0x01)\n                /* \"CONTRACT/v2-core-master/contracts/UniswapV2Pair.sol\":7467:7492  IERC20(_token0).balanceOf */\n              dup10\n              and\n              swap2\n              0x70a08231\n              swap2\n                /* \"CONTRACT/v2-core-master/contracts/UniswapV2Pair.sol\":7467:7507  IERC20(_token0).balanceOf(address(this)) */\n              0x24\n              dup1\n              dup4\n              add\n              swap3\n              0x20\n              swap3\n              swap2\n              swap1\n              dup3\n              swap1\n              sub\n              add\n              dup2\n                /* \"CONTRACT/v2-core-master/contracts/UniswapV2Pair.sol\":7467:7492  IERC20(_token0).balanceOf */\n              dup7\n                /* \"CONTRACT/v2-core-master/contracts/UniswapV2Pair.sol\":7467:7507  IERC20(_token0).balanceOf(address(this)) */\n              dup1\n              extcodesize\n              iszero\n                /* \"--CODEGEN--\":5:7   */\n              dup1\n              iszero\n              tag_222\n              jumpi\n                /* \"--CODEGEN--\":30:31   */\n              0x00\n                /* \"--CODEGEN--\":27:28   */\n              dup1\n                /* \"--CODEGEN--\":20:32   */\n              revert\n                /* \"--CODEGEN--\":5:7   */\n            tag_222:\n                /* \"CONTRACT/v2-core-master/contracts/UniswapV2Pair.sol\":7467:7507  IERC20(_token0).balanceOf(address(this)) */\n              pop\n              gas\n              staticcall\n              iszero\n                /* \"--CODEGEN--\":8:17   */\n              dup1\n                /* \"--CODEGEN--\":5:7   */\n              iszero\n              tag_223\n              jumpi\n                /* \"--CODEGEN--\":45:61   */\n              returndatasize\n                /* \"--CODEGEN--\":42:43   */\n              0x00\n                /* \"--CODEGEN--\":39:40   */\n              dup1\n                /* \"--CODEGEN--\":24:62   */\n              returndatacopy\n                /* \"--CODEGEN--\":77:93   */\n              returndatasize\n                /* \"--CODEGEN--\":74:75   */\n              0x00\n                /* \"--CODEGEN--\":67:94   */\n              revert\n                /* \"--CODEGEN--\":5:7   */\n            tag_223:\n                /* \"CONTRACT/v2-core-master/contracts/UniswapV2Pair.sol\":7467:7507  IERC20(_token0).balanceOf(address(this)) */\n              pop\n              pop\n              pop\n              pop\n              mload(0x40)\n              returndatasize\n                /* \"--CODEGEN--\":13:15   */\n              0x20\n                /* \"--CODEGEN--\":8:11   */\n              dup2\n                /* \"--CODEGEN--\":5:16   */\n              lt\n                /* \"--CODEGEN--\":2:4   */\n              iszero\n              tag_224\n              jumpi\n                /* \"--CODEGEN--\":29:30   */\n              0x00\n                /* \"--CODEGEN--\":26:27   */\n              dup1\n                /* \"--CODEGEN--\":19:31   */\n              revert\n                /* \"--CODEGEN--\":2:4   */\n            tag_224:\n              pop\n                /* \"CONTRACT/v2-core-master/contracts/UniswapV2Pair.sol\":7467:7507  IERC20(_token0).balanceOf(address(this)) */\n              mload\n                /* \"CONTRACT/v2-core-master/contracts/UniswapV2Pair.sol\":7529:7569  IERC20(_token1).balanceOf(address(this)) */\n              0x40\n              dup1\n              mload\n              shl(0xe0, 0x70a08231)\n              dup2\n              mstore\n                /* \"CONTRACT/v2-core-master/contracts/UniswapV2Pair.sol\":7563:7567  this */\n              address\n                /* \"CONTRACT/v2-core-master/contracts/UniswapV2Pair.sol\":7529:7569  IERC20(_token1).balanceOf(address(this)) */\n              0x04\n              dup3\n              add\n              mstore\n              swap1\n              mload\n                /* \"CONTRACT/v2-core-master/contracts/UniswapV2Pair.sol\":7467:7507  IERC20(_token0).balanceOf(address(this)) */\n              swap2\n              swap7\n              pop\n              sub(shl(0xa0, 0x01), 0x01)\n                /* \"CONTRACT/v2-core-master/contracts/UniswapV2Pair.sol\":7529:7554  IERC20(_token1).balanceOf */\n              dup9\n              and\n              swap2\n              0x70a08231\n              swap2\n                /* \"CONTRACT/v2-core-master/contracts/UniswapV2Pair.sol\":7529:7569  IERC20(_token1).balanceOf(address(this)) */\n              0x24\n              dup1\n              dup3\n              add\n              swap3\n                /* \"CONTRACT/v2-core-master/contracts/UniswapV2Pair.sol\":7467:7507  IERC20(_token0).balanceOf(address(this)) */\n              0x20\n              swap3\n                /* \"CONTRACT/v2-core-master/contracts/UniswapV2Pair.sol\":7529:7569  IERC20(_token1).balanceOf(address(this)) */\n              swap1\n              swap2\n              swap1\n              dup3\n              swap1\n              sub\n              add\n              dup2\n                /* \"CONTRACT/v2-core-master/contracts/UniswapV2Pair.sol\":7529:7554  IERC20(_token1).balanceOf */\n              dup7\n                /* \"CONTRACT/v2-core-master/contracts/UniswapV2Pair.sol\":7529:7569  IERC20(_token1).balanceOf(address(this)) */\n              dup1\n              extcodesize\n              iszero\n                /* \"--CODEGEN--\":5:7   */\n              dup1\n              iszero\n              tag_225\n              jumpi\n                /* \"--CODEGEN--\":30:31   */\n              0x00\n                /* \"--CODEGEN--\":27:28   */\n              dup1\n                /* \"--CODEGEN--\":20:32   */\n              revert\n                /* \"--CODEGEN--\":5:7   */\n            tag_225:\n                /* \"CONTRACT/v2-core-master/contracts/UniswapV2Pair.sol\":7529:7569  IERC20(_token1).balanceOf(address(this)) */\n              pop\n              gas\n              staticcall\n              iszero\n                /* \"--CODEGEN--\":8:17   */\n              dup1\n                /* \"--CODEGEN--\":5:7   */\n              iszero\n              tag_226\n              jumpi\n                /* \"--CODEGEN--\":45:61   */\n              returndatasize\n                /* \"--CODEGEN--\":42:43   */\n              0x00\n                /* \"--CODEGEN--\":39:40   */\n              dup1\n                /* \"--CODEGEN--\":24:62   */\n              returndatacopy\n                /* \"--CODEGEN--\":77:93   */\n              returndatasize\n                /* \"--CODEGEN--\":74:75   */\n              0x00\n                /* \"--CODEGEN--\":67:94   */\n              revert\n                /* \"--CODEGEN--\":5:7   */\n            tag_226:\n                /* \"CONTRACT/v2-core-master/contracts/UniswapV2Pair.sol\":7529:7569  IERC20(_token1).balanceOf(address(this)) */\n              pop\n              pop\n              pop\n              pop\n              mload(0x40)\n              returndatasize\n                /* \"--CODEGEN--\":13:15   */\n              0x20\n                /* \"--CODEGEN--\":8:11   */\n              dup2\n                /* \"--CODEGEN--\":5:16   */\n              lt\n                /* \"--CODEGEN--\":2:4   */\n              iszero\n              tag_227\n              jumpi\n                /* \"--CODEGEN--\":29:30   */\n              0x00\n                /* \"--CODEGEN--\":26:27   */\n              dup1\n                /* \"--CODEGEN--\":19:31   */\n              revert\n                /* \"--CODEGEN--\":2:4   */\n            tag_227:\n              pop\n                /* \"CONTRACT/v2-core-master/contracts/UniswapV2Pair.sol\":7529:7569  IERC20(_token1).balanceOf(address(this)) */\n              mload\n              swap4\n              pop\n                /* \"CONTRACT/v2-core-master/contracts/UniswapV2Pair.sol\":7582:7631  _update(balance0, balance1, _reserve0, _reserve1) */\n              tag_228\n                /* \"CONTRACT/v2-core-master/contracts/UniswapV2Pair.sol\":7590:7598  balance0 */\n              dup6\n                /* \"CONTRACT/v2-core-master/contracts/UniswapV2Pair.sol\":7529:7569  IERC20(_token1).balanceOf(address(this)) */\n              dup6\n                /* \"CONTRACT/v2-core-master/contracts/UniswapV2Pair.sol\":7610:7619  _reserve0 */\n              dup12\n                /* \"CONTRACT/v2-core-master/contracts/UniswapV2Pair.sol\":7621:7630  _reserve1 */\n              dup12\n                /* \"CONTRACT/v2-core-master/contracts/UniswapV2Pair.sol\":7582:7589  _update */\n              tag_156\n                /* \"CONTRACT/v2-core-master/contracts/UniswapV2Pair.sol\":7582:7631  _update(balance0, balance1, _reserve0, _reserve1) */\n              jump\t// in\n            tag_228:\n                /* \"CONTRACT/v2-core-master/contracts/UniswapV2Pair.sol\":7646:7651  feeOn */\n              dup2\n                /* \"CONTRACT/v2-core-master/contracts/UniswapV2Pair.sol\":7642:7689  if (feeOn) kLast = uint(reserve0).mul(reserve1) */\n              iszero\n              tag_229\n              jumpi\n                /* \"CONTRACT/v2-core-master/contracts/UniswapV2Pair.sol\":7680:7688  reserve1 */\n              sload(0x08)\n                /* \"CONTRACT/v2-core-master/contracts/UniswapV2Pair.sol\":7661:7689  uint(reserve0).mul(reserve1) */\n              tag_230\n              swap1\n              sub(shl(0x70, 0x01), 0x01)\n                /* \"CONTRACT/v2-core-master/contracts/UniswapV2Pair.sol\":7666:7674  reserve0 */\n              dup1\n              dup3\n              and\n              swap2\n              shl(0x70, 0x01)\n                /* \"CONTRACT/v2-core-master/contracts/UniswapV2Pair.sol\":7680:7688  reserve1 */\n              swap1\n              div\n              and\n                /* \"CONTRACT/v2-core-master/contracts/UniswapV2Pair.sol\":7661:7679  uint(reserve0).mul */\n              tag_145\n                /* \"CONTRACT/v2-core-master/contracts/UniswapV2Pair.sol\":7661:7689  uint(reserve0).mul(reserve1) */\n              jump\t// in\n            tag_230:\n                /* \"CONTRACT/v2-core-master/contracts/UniswapV2Pair.sol\":7653:7658  kLast */\n              0x0b\n                /* \"CONTRACT/v2-core-master/contracts/UniswapV2Pair.sol\":7653:7689  kLast = uint(reserve0).mul(reserve1) */\n              sstore\n                /* \"CONTRACT/v2-core-master/contracts/UniswapV2Pair.sol\":7642:7689  if (feeOn) kLast = uint(reserve0).mul(reserve1) */\n            tag_229:\n                /* \"CONTRACT/v2-core-master/contracts/UniswapV2Pair.sol\":7745:7783  Burn(msg.sender, amount0, amount1, to) */\n              0x40\n              dup1\n              mload\n              dup13\n              dup2\n              mstore\n              0x20\n              dup2\n              add\n              dup13\n              swap1\n              mstore\n              dup2\n              mload\n              sub(shl(0xa0, 0x01), 0x01)\n              dup16\n              and\n              swap3\n                /* \"CONTRACT/v2-core-master/contracts/UniswapV2Pair.sol\":7750:7760  msg.sender */\n              caller\n              swap3\n                /* \"CONTRACT/v2-core-master/contracts/UniswapV2Pair.sol\":7745:7783  Burn(msg.sender, amount0, amount1, to) */\n              0xdccd412f0b1252819cb1fd330b93224ca42612892bb3f4f789976e6d81936496\n              swap3\n              swap1\n              dup2\n              swap1\n              sub\n              swap1\n              swap2\n              add\n              swap1\n              log3\n                /* \"CONTRACT/v2-core-master/contracts/UniswapV2Pair.sol\":1282:1283  _ */\n              pop\n              pop\n              pop\n              pop\n              pop\n              pop\n              pop\n              pop\n              pop\n                /* \"CONTRACT/v2-core-master/contracts/UniswapV2Pair.sol\":1305:1306  1 */\n              0x01\n                /* \"CONTRACT/v2-core-master/contracts/UniswapV2Pair.sol\":1294:1302  unlocked */\n              0x0c\n                /* \"CONTRACT/v2-core-master/contracts/UniswapV2Pair.sol\":1294:1306  unlocked = 1 */\n              dup2\n              swap1\n              sstore\n              pop\n                /* \"CONTRACT/v2-core-master/contracts/UniswapV2Pair.sol\":6325:7791  function burn(address to) external lock returns (uint amount0, uint amount1) {\r... */\n              swap2\n              pop\n              swap2\n              jump\t// out\n                /* \"CONTRACT/v2-core-master/contracts/UniswapV2ERC20.sol\":244:284  string public constant symbol = 'CARITO' */\n            tag_88:\n              0x40\n              dup1\n              mload\n              dup1\n              dup3\n              add\n              swap1\n              swap2\n              mstore\n              0x06\n              dup2\n              mstore\n              shl(0xd0, 0x43415249544f)\n              0x20\n              dup3\n              add\n              mstore\n              dup2\n              jump\t// out\n                /* \"CONTRACT/v2-core-master/contracts/UniswapV2ERC20.sol\":2397:2536  function transfer(address to, uint value) external returns (bool) {\r... */\n            tag_95:\n                /* \"CONTRACT/v2-core-master/contracts/UniswapV2ERC20.sol\":2457:2461  bool */\n              0x00\n                /* \"CONTRACT/v2-core-master/contracts/UniswapV2ERC20.sol\":2474:2506  _transfer(msg.sender, to, value) */\n              tag_159\n                /* \"CONTRACT/v2-core-master/contracts/UniswapV2ERC20.sol\":2484:2494  msg.sender */\n              caller\n                /* \"CONTRACT/v2-core-master/contracts/UniswapV2ERC20.sol\":2496:2498  to */\n              dup5\n                /* \"CONTRACT/v2-core-master/contracts/UniswapV2ERC20.sol\":2500:2505  value */\n              dup5\n                /* \"CONTRACT/v2-core-master/contracts/UniswapV2ERC20.sol\":2474:2483  _transfer */\n              tag_165\n                /* \"CONTRACT/v2-core-master/contracts/UniswapV2ERC20.sol\":2474:2506  _transfer(msg.sender, to, value) */\n              jump\t// in\n                /* \"CONTRACT/v2-core-master/contracts/UniswapV2Pair.sol\":432:478  uint public constant MINIMUM_LIQUIDITY = 10**3 */\n            tag_97:\n                /* \"CONTRACT/v2-core-master/contracts/UniswapV2Pair.sol\":473:478  10**3 */\n              0x03e8\n                /* \"CONTRACT/v2-core-master/contracts/UniswapV2Pair.sol\":432:478  uint public constant MINIMUM_LIQUIDITY = 10**3 */\n              dup2\n              jump\t// out\n                /* \"CONTRACT/v2-core-master/contracts/UniswapV2Pair.sol\":9841:10175  function skim(address to) external lock {\r... */\n            tag_100:\n                /* \"CONTRACT/v2-core-master/contracts/UniswapV2Pair.sol\":1213:1221  unlocked */\n              sload(0x0c)\n                /* \"CONTRACT/v2-core-master/contracts/UniswapV2Pair.sol\":1225:1226  1 */\n              0x01\n                /* \"CONTRACT/v2-core-master/contracts/UniswapV2Pair.sol\":1213:1226  unlocked == 1 */\n              eq\n                /* \"CONTRACT/v2-core-master/contracts/UniswapV2Pair.sol\":1205:1248  require(unlocked == 1, 'UniswapV2: LOCKED') */\n              tag_234\n              jumpi\n              0x40\n              dup1\n              mload\n              shl(0xe5, 0x461bcd)\n              dup2\n              mstore\n              0x20\n              0x04\n              dup3\n              add\n              mstore\n              0x11\n              0x24\n              dup3\n              add\n              mstore\n              shl(0x7a, 0x155b9a5cddd85c158c8e881313d0d2d151)\n              0x44\n              dup3\n              add\n              mstore\n              swap1\n              mload\n              swap1\n              dup2\n              swap1\n              sub\n              0x64\n              add\n              swap1\n              revert\n            tag_234:\n                /* \"CONTRACT/v2-core-master/contracts/UniswapV2Pair.sol\":1270:1271  0 */\n              0x00\n                /* \"CONTRACT/v2-core-master/contracts/UniswapV2Pair.sol\":1259:1267  unlocked */\n              0x0c\n                /* \"CONTRACT/v2-core-master/contracts/UniswapV2Pair.sol\":1259:1271  unlocked = 0 */\n              sstore\n                /* \"CONTRACT/v2-core-master/contracts/UniswapV2Pair.sol\":9910:9916  token0 */\n              sload(0x06)\n                /* \"CONTRACT/v2-core-master/contracts/UniswapV2Pair.sol\":9960:9966  token1 */\n              sload(0x07)\n                /* \"CONTRACT/v2-core-master/contracts/UniswapV2Pair.sol\":10064:10072  reserve0 */\n              sload(0x08)\n                /* \"CONTRACT/v2-core-master/contracts/UniswapV2Pair.sol\":10019:10059  IERC20(_token0).balanceOf(address(this)) */\n              0x40\n              dup1\n              mload\n              shl(0xe0, 0x70a08231)\n              dup2\n              mstore\n                /* \"CONTRACT/v2-core-master/contracts/UniswapV2Pair.sol\":10053:10057  this */\n              address\n                /* \"CONTRACT/v2-core-master/contracts/UniswapV2Pair.sol\":10019:10059  IERC20(_token0).balanceOf(address(this)) */\n              0x04\n              dup3\n              add\n              mstore\n              swap1\n              mload\n              sub(shl(0xa0, 0x01), 0x01)\n                /* \"CONTRACT/v2-core-master/contracts/UniswapV2Pair.sol\":9910:9916  token0 */\n              swap5\n              dup6\n              and\n              swap5\n                /* \"CONTRACT/v2-core-master/contracts/UniswapV2Pair.sol\":9960:9966  token1 */\n              swap1\n              swap4\n              and\n              swap3\n                /* \"CONTRACT/v2-core-master/contracts/UniswapV2Pair.sol\":9992:10074  _safeTransfer(_token0, to, IERC20(_token0).balanceOf(address(this)).sub(reserve0)) */\n              tag_236\n              swap3\n                /* \"CONTRACT/v2-core-master/contracts/UniswapV2Pair.sol\":9910:9916  token0 */\n              dup6\n              swap3\n                /* \"CONTRACT/v2-core-master/contracts/UniswapV2Pair.sol\":10015:10017  to */\n              dup8\n              swap3\n                /* \"CONTRACT/v2-core-master/contracts/UniswapV2Pair.sol\":10019:10073  IERC20(_token0).balanceOf(address(this)).sub(reserve0) */\n              tag_237\n              swap3\n              sub(shl(0x70, 0x01), 0x01)\n                /* \"CONTRACT/v2-core-master/contracts/UniswapV2Pair.sol\":10064:10072  reserve0 */\n              and\n              swap2\n                /* \"CONTRACT/v2-core-master/contracts/UniswapV2Pair.sol\":9910:9916  token0 */\n              dup6\n              swap2\n              0x70a08231\n              swap2\n                /* \"CONTRACT/v2-core-master/contracts/UniswapV2Pair.sol\":10019:10059  IERC20(_token0).balanceOf(address(this)) */\n              0x24\n              dup1\n              dup3\n              add\n              swap3\n              0x20\n              swap3\n              swap1\n              swap2\n              swap1\n              dup3\n              swap1\n              sub\n              add\n              dup2\n                /* \"CONTRACT/v2-core-master/contracts/UniswapV2Pair.sol\":9910:9916  token0 */\n              dup7\n                /* \"CONTRACT/v2-core-master/contracts/UniswapV2Pair.sol\":10019:10059  IERC20(_token0).balanceOf(address(this)) */\n              dup1\n              extcodesize\n              iszero\n                /* \"--CODEGEN--\":5:7   */\n              dup1\n              iszero\n              tag_238\n              jumpi\n                /* \"--CODEGEN--\":30:31   */\n              0x00\n                /* \"--CODEGEN--\":27:28   */\n              dup1\n                /* \"--CODEGEN--\":20:32   */\n              revert\n                /* \"--CODEGEN--\":5:7   */\n            tag_238:\n                /* \"CONTRACT/v2-core-master/contracts/UniswapV2Pair.sol\":10019:10059  IERC20(_token0).balanceOf(address(this)) */\n              pop\n              gas\n              staticcall\n              iszero\n                /* \"--CODEGEN--\":8:17   */\n              dup1\n                /* \"--CODEGEN--\":5:7   */\n              iszero\n              tag_239\n              jumpi\n                /* \"--CODEGEN--\":45:61   */\n              returndatasize\n                /* \"--CODEGEN--\":42:43   */\n              0x00\n                /* \"--CODEGEN--\":39:40   */\n              dup1\n                /* \"--CODEGEN--\":24:62   */\n              returndatacopy\n                /* \"--CODEGEN--\":77:93   */\n              returndatasize\n                /* \"--CODEGEN--\":74:75   */\n              0x00\n                /* \"--CODEGEN--\":67:94   */\n              revert\n                /* \"--CODEGEN--\":5:7   */\n            tag_239:\n                /* \"CONTRACT/v2-core-master/contracts/UniswapV2Pair.sol\":10019:10059  IERC20(_token0).balanceOf(address(this)) */\n              pop\n              pop\n              pop\n              pop\n              mload(0x40)\n              returndatasize\n                /* \"--CODEGEN--\":13:15   */\n              0x20\n                /* \"--CODEGEN--\":8:11   */\n              dup2\n                /* \"--CODEGEN--\":5:16   */\n              lt\n                /* \"--CODEGEN--\":2:4   */\n              iszero\n              tag_240\n              jumpi\n                /* \"--CODEGEN--\":29:30   */\n              0x00\n                /* \"--CODEGEN--\":26:27   */\n              dup1\n                /* \"--CODEGEN--\":19:31   */\n              revert\n                /* \"--CODEGEN--\":2:4   */\n            tag_240:\n              pop\n                /* \"CONTRACT/v2-core-master/contracts/UniswapV2Pair.sol\":10019:10059  IERC20(_token0).balanceOf(address(this)) */\n              mload\n              swap1\n                /* \"CONTRACT/v2-core-master/contracts/UniswapV2Pair.sol\":10019:10073  IERC20(_token0).balanceOf(address(this)).sub(reserve0) */\n              0xffffffff\n                /* \"CONTRACT/v2-core-master/contracts/UniswapV2Pair.sol\":10019:10063  IERC20(_token0).balanceOf(address(this)).sub */\n              tag_147\n                /* \"CONTRACT/v2-core-master/contracts/UniswapV2Pair.sol\":10019:10073  IERC20(_token0).balanceOf(address(this)).sub(reserve0) */\n              and\n              jump\t// in\n            tag_237:\n                /* \"CONTRACT/v2-core-master/contracts/UniswapV2Pair.sol\":9992:10005  _safeTransfer */\n              tag_125\n                /* \"CONTRACT/v2-core-master/contracts/UniswapV2Pair.sol\":9992:10074  _safeTransfer(_token0, to, IERC20(_token0).balanceOf(address(this)).sub(reserve0)) */\n              jump\t// in\n            tag_236:\n                /* \"CONTRACT/v2-core-master/contracts/UniswapV2Pair.sol\":10157:10165  reserve1 */\n              sload(0x08)\n                /* \"CONTRACT/v2-core-master/contracts/UniswapV2Pair.sol\":10112:10152  IERC20(_token1).balanceOf(address(this)) */\n              0x40\n              dup1\n              mload\n              shl(0xe0, 0x70a08231)\n              dup2\n              mstore\n                /* \"CONTRACT/v2-core-master/contracts/UniswapV2Pair.sol\":10146:10150  this */\n              address\n                /* \"CONTRACT/v2-core-master/contracts/UniswapV2Pair.sol\":10112:10152  IERC20(_token1).balanceOf(address(this)) */\n              0x04\n              dup3\n              add\n              mstore\n              swap1\n              mload\n                /* \"CONTRACT/v2-core-master/contracts/UniswapV2Pair.sol\":10085:10167  _safeTransfer(_token1, to, IERC20(_token1).balanceOf(address(this)).sub(reserve1)) */\n              tag_241\n              swap3\n                /* \"CONTRACT/v2-core-master/contracts/UniswapV2Pair.sol\":10099:10106  _token1 */\n              dup5\n              swap3\n                /* \"CONTRACT/v2-core-master/contracts/UniswapV2Pair.sol\":10108:10110  to */\n              dup8\n              swap3\n                /* \"CONTRACT/v2-core-master/contracts/UniswapV2Pair.sol\":10112:10166  IERC20(_token1).balanceOf(address(this)).sub(reserve1) */\n              tag_237\n              swap3\n              shl(0x70, 0x01)\n                /* \"CONTRACT/v2-core-master/contracts/UniswapV2Pair.sol\":10157:10165  reserve1 */\n              swap1\n              div\n              sub(shl(0x70, 0x01), 0x01)\n              and\n              swap2\n              sub(shl(0xa0, 0x01), 0x01)\n                /* \"CONTRACT/v2-core-master/contracts/UniswapV2Pair.sol\":10112:10137  IERC20(_token1).balanceOf */\n              dup7\n              and\n              swap2\n              0x70a08231\n              swap2\n                /* \"CONTRACT/v2-core-master/contracts/UniswapV2Pair.sol\":10112:10152  IERC20(_token1).balanceOf(address(this)) */\n              0x24\n              dup1\n              dup3\n              add\n              swap3\n              0x20\n              swap3\n              swap1\n              swap2\n              swap1\n              dup3\n              swap1\n              sub\n              add\n              dup2\n                /* \"CONTRACT/v2-core-master/contracts/UniswapV2Pair.sol\":10112:10137  IERC20(_token1).balanceOf */\n              dup7\n                /* \"CONTRACT/v2-core-master/contracts/UniswapV2Pair.sol\":10112:10152  IERC20(_token1).balanceOf(address(this)) */\n              dup1\n              extcodesize\n              iszero\n                /* \"--CODEGEN--\":5:7   */\n              dup1\n              iszero\n              tag_238\n              jumpi\n                /* \"--CODEGEN--\":30:31   */\n              0x00\n                /* \"--CODEGEN--\":27:28   */\n              dup1\n                /* \"--CODEGEN--\":20:32   */\n              revert\n                /* \"CONTRACT/v2-core-master/contracts/UniswapV2Pair.sol\":10085:10167  _safeTransfer(_token1, to, IERC20(_token1).balanceOf(address(this)).sub(reserve1)) */\n            tag_241:\n              pop\n              pop\n                /* \"CONTRACT/v2-core-master/contracts/UniswapV2Pair.sol\":1305:1306  1 */\n              0x01\n                /* \"CONTRACT/v2-core-master/contracts/UniswapV2Pair.sol\":1294:1302  unlocked */\n              0x0c\n                /* \"CONTRACT/v2-core-master/contracts/UniswapV2Pair.sol\":1294:1306  unlocked = 1 */\n              sstore\n              pop\n                /* \"CONTRACT/v2-core-master/contracts/UniswapV2Pair.sol\":9841:10175  function skim(address to) external lock {\r... */\n              jump\t// out\n                /* \"CONTRACT/v2-core-master/contracts/UniswapV2Pair.sol\":582:604  address public factory */\n            tag_102:\n              and(sub(shl(0xa0, 0x01), 0x01), sload(0x05))\n              dup2\n              jump\t// out\n                /* \"CONTRACT/v2-core-master/contracts/UniswapV2Pair.sol\":639:660  address public token1 */\n            tag_104:\n              and(sub(shl(0xa0, 0x01), 0x01), sload(0x07))\n              dup2\n              jump\t// out\n                /* \"CONTRACT/v2-core-master/contracts/UniswapV2ERC20.sol\":2853:3527  function permit(address owner, address spender, uint value, uint deadline, uint8 v, bytes32 r, bytes32 s) external {\r... */\n            tag_107:\n                /* \"CONTRACT/v2-core-master/contracts/UniswapV2ERC20.sol\":2999:3014  block.timestamp */\n              timestamp\n                /* \"CONTRACT/v2-core-master/contracts/UniswapV2ERC20.sol\":2987:2995  deadline */\n              dup5\n                /* \"CONTRACT/v2-core-master/contracts/UniswapV2ERC20.sol\":2987:3014  deadline >= block.timestamp */\n              lt\n              iszero\n                /* \"CONTRACT/v2-core-master/contracts/UniswapV2ERC20.sol\":2979:3037  require(deadline >= block.timestamp, 'UniswapV2: EXPIRED') */\n              tag_247\n              jumpi\n              0x40\n              dup1\n              mload\n              shl(0xe5, 0x461bcd)\n              dup2\n              mstore\n              0x20\n              0x04\n              dup3\n              add\n              mstore\n              0x12\n              0x24\n              dup3\n              add\n              mstore\n              shl(0x72, 0x155b9a5cddd85c158c8e8811561412549151)\n              0x44\n              dup3\n              add\n              mstore\n              swap1\n              mload\n              swap1\n              dup2\n              swap1\n              sub\n              0x64\n              add\n              swap1\n              revert\n            tag_247:\n                /* \"CONTRACT/v2-core-master/contracts/UniswapV2ERC20.sol\":3153:3169  DOMAIN_SEPARATOR */\n              sload(0x03)\n              sub(shl(0xa0, 0x01), 0x01)\n                /* \"CONTRACT/v2-core-master/contracts/UniswapV2ERC20.sol\":3249:3262  nonces[owner] */\n              dup9\n              dup2\n              and\n                /* \"CONTRACT/v2-core-master/contracts/UniswapV2ERC20.sol\":3048:3062  bytes32 digest */\n              0x00\n                /* \"CONTRACT/v2-core-master/contracts/UniswapV2ERC20.sol\":3249:3262  nonces[owner] */\n              dup2\n              dup2\n              mstore\n                /* \"CONTRACT/v2-core-master/contracts/UniswapV2ERC20.sol\":3249:3255  nonces */\n              0x04\n                /* \"CONTRACT/v2-core-master/contracts/UniswapV2ERC20.sol\":3249:3262  nonces[owner] */\n              0x20\n              swap1\n              dup2\n              mstore\n              0x40\n              dup1\n              dup4\n              keccak256\n                /* \"CONTRACT/v2-core-master/contracts/UniswapV2ERC20.sol\":3249:3264  nonces[owner]++ */\n              dup1\n              sload\n              0x01\n              dup2\n              dup2\n              add\n              swap1\n              swap3\n              sstore\n                /* \"CONTRACT/v2-core-master/contracts/UniswapV2ERC20.sol\":3198:3275  abi.encode(PERMIT_TYPEHASH, owner, spender, value, nonces[owner]++, deadline) */\n              dup3\n              mload\n                /* \"CONTRACT/v2-core-master/contracts/UniswapV2ERC20.sol\":667:733  0x6e71edae12b1b97f4d1f60370fef10105fa2faae0126114a169c64845d6126c9 */\n              0x6e71edae12b1b97f4d1f60370fef10105fa2faae0126114a169c64845d6126c9\n                /* \"CONTRACT/v2-core-master/contracts/UniswapV2ERC20.sol\":3198:3275  abi.encode(PERMIT_TYPEHASH, owner, spender, value, nonces[owner]++, deadline) */\n              dup2\n              dup7\n              add\n              mstore\n              dup1\n              dup5\n              add\n              swap7\n              swap1\n              swap7\n              mstore\n              swap6\n              dup14\n              and\n              0x60\n              dup7\n              add\n              mstore\n              0x80\n              dup6\n              add\n              dup13\n              swap1\n              mstore\n              0xa0\n              dup6\n              add\n              swap6\n              swap1\n              swap6\n              mstore\n              0xc0\n              dup1\n              dup6\n              add\n              dup12\n              swap1\n              mstore\n              dup2\n              mload\n                /* \"--CODEGEN--\":26:47   */\n              dup1\n              dup7\n              sub\n                /* \"--CODEGEN--\":22:54   */\n              swap1\n              swap2\n              add\n                /* \"--CODEGEN--\":6:55   */\n              dup2\n              mstore\n                /* \"CONTRACT/v2-core-master/contracts/UniswapV2ERC20.sol\":3198:3275  abi.encode(PERMIT_TYPEHASH, owner, spender, value, nonces[owner]++, deadline) */\n              0xe0\n              dup6\n              add\n              dup3\n              mstore\n                /* \"CONTRACT/v2-core-master/contracts/UniswapV2ERC20.sol\":3188:3276  keccak256(abi.encode(PERMIT_TYPEHASH, owner, spender, value, nonces[owner]++, deadline)) */\n              dup1\n              mload\n              swap1\n              dup4\n              add\n              keccak256\n              shl(0xf0, 0x1901)\n                /* \"CONTRACT/v2-core-master/contracts/UniswapV2ERC20.sol\":3089:3291  abi.encodePacked(\r... */\n              0x0100\n              dup7\n              add\n              mstore\n              0x0102\n              dup6\n              add\n              swap7\n              swap1\n              swap7\n              mstore\n              0x0122\n              dup1\n              dup6\n              add\n              swap7\n              swap1\n              swap7\n              mstore\n              dup1\n              mload\n                /* \"--CODEGEN--\":26:47   */\n              dup1\n              dup6\n              sub\n                /* \"--CODEGEN--\":22:54   */\n              swap1\n              swap7\n              add\n                /* \"--CODEGEN--\":6:55   */\n              dup7\n              mstore\n                /* \"CONTRACT/v2-core-master/contracts/UniswapV2ERC20.sol\":3089:3291  abi.encodePacked(\r... */\n              0x0142\n              dup5\n              add\n              dup1\n              dup3\n              mstore\n                /* \"CONTRACT/v2-core-master/contracts/UniswapV2ERC20.sol\":3065:3302  keccak256(\r... */\n              dup7\n              mload\n              swap7\n              dup4\n              add\n              swap7\n              swap1\n              swap7\n              keccak256\n                /* \"CONTRACT/v2-core-master/contracts/UniswapV2ERC20.sol\":3340:3366  ecrecover(digest, v, r, s) */\n              swap6\n              dup4\n              swap1\n              mstore\n              0x0162\n              dup5\n              add\n              dup1\n              dup3\n              mstore\n              dup7\n              swap1\n              mstore\n              0xff\n              dup10\n              and\n              0x0182\n              dup6\n              add\n              mstore\n              0x01a2\n              dup5\n              add\n              dup9\n              swap1\n              mstore\n              0x01c2\n              dup5\n              add\n              dup8\n              swap1\n              mstore\n              mload\n                /* \"CONTRACT/v2-core-master/contracts/UniswapV2ERC20.sol\":3048:3062  bytes32 digest */\n              swap2\n              swap4\n              swap3\n                /* \"CONTRACT/v2-core-master/contracts/UniswapV2ERC20.sol\":3340:3366  ecrecover(digest, v, r, s) */\n              0x01e2\n              dup1\n              dup3\n              add\n              swap4\n              not(0x1f)\n              dup2\n              add\n              swap3\n              dup2\n              swap1\n              sub\n              swap1\n              swap2\n              add\n              swap1\n              dup6\n              gas\n              staticcall\n              iszero\n                /* \"--CODEGEN--\":8:17   */\n              dup1\n                /* \"--CODEGEN--\":5:7   */\n              iszero\n              tag_248\n              jumpi\n                /* \"--CODEGEN--\":45:61   */\n              returndatasize\n                /* \"--CODEGEN--\":42:43   */\n              0x00\n                /* \"--CODEGEN--\":39:40   */\n              dup1\n                /* \"--CODEGEN--\":24:62   */\n              returndatacopy\n                /* \"--CODEGEN--\":77:93   */\n              returndatasize\n                /* \"--CODEGEN--\":74:75   */\n              0x00\n                /* \"--CODEGEN--\":67:94   */\n              revert\n                /* \"--CODEGEN--\":5:7   */\n            tag_248:\n              pop\n              pop\n                /* \"CONTRACT/v2-core-master/contracts/UniswapV2ERC20.sol\":3340:3366  ecrecover(digest, v, r, s) */\n              mload(add(not(0x1f), mload(0x40)))\n              swap2\n              pop\n              pop\n              sub(shl(0xa0, 0x01), 0x01)\n                /* \"CONTRACT/v2-core-master/contracts/UniswapV2ERC20.sol\":3385:3415  recoveredAddress != address(0) */\n              dup2\n              and\n              iszero\n              dup1\n              iszero\n              swap1\n                /* \"CONTRACT/v2-core-master/contracts/UniswapV2ERC20.sol\":3385:3444  recoveredAddress != address(0) && recoveredAddress == owner */\n              tag_249\n              jumpi\n              pop\n              sub(shl(0xa0, 0x01), 0x01)\n                /* \"CONTRACT/v2-core-master/contracts/UniswapV2ERC20.sol\":3419:3444  recoveredAddress == owner */\n              dup2\n              dup2\n              and\n              swap1\n              dup11\n              and\n              eq\n                /* \"CONTRACT/v2-core-master/contracts/UniswapV2ERC20.sol\":3385:3444  recoveredAddress != address(0) && recoveredAddress == owner */\n            tag_249:\n                /* \"CONTRACT/v2-core-master/contracts/UniswapV2ERC20.sol\":3377:3477  require(recoveredAddress != address(0) && recoveredAddress == owner, 'UniswapV2: INVALID_SIGNATURE') */\n              tag_250\n              jumpi\n              0x40\n              dup1\n              mload\n              shl(0xe5, 0x461bcd)\n              dup2\n              mstore\n              0x20\n              0x04\n              dup3\n              add\n              mstore\n              0x1c\n              0x24\n              dup3\n              add\n              mstore\n              0x556e697377617056323a20494e56414c49445f5349474e415455524500000000\n              0x44\n              dup3\n              add\n              mstore\n              swap1\n              mload\n              swap1\n              dup2\n              swap1\n              sub\n              0x64\n              add\n              swap1\n              revert\n            tag_250:\n                /* \"CONTRACT/v2-core-master/contracts/UniswapV2ERC20.sol\":3488:3519  _approve(owner, spender, value) */\n              tag_251\n                /* \"CONTRACT/v2-core-master/contracts/UniswapV2ERC20.sol\":3497:3502  owner */\n              dup10\n                /* \"CONTRACT/v2-core-master/contracts/UniswapV2ERC20.sol\":3504:3511  spender */\n              dup10\n                /* \"CONTRACT/v2-core-master/contracts/UniswapV2ERC20.sol\":3513:3518  value */\n              dup10\n                /* \"CONTRACT/v2-core-master/contracts/UniswapV2ERC20.sol\":3488:3496  _approve */\n              tag_160\n                /* \"CONTRACT/v2-core-master/contracts/UniswapV2ERC20.sol\":3488:3519  _approve(owner, spender, value) */\n              jump\t// in\n            tag_251:\n                /* \"CONTRACT/v2-core-master/contracts/UniswapV2ERC20.sol\":2853:3527  function permit(address owner, address spender, uint value, uint deadline, uint8 v, bytes32 r, bytes32 s) external {\r... */\n              pop\n              pop\n              pop\n              pop\n              pop\n              pop\n              pop\n              pop\n              pop\n              jump\t// out\n                /* \"CONTRACT/v2-core-master/contracts/UniswapV2ERC20.sol\":412:473  mapping(address => mapping(address => uint)) public allowance */\n            tag_110:\n              0x02\n              0x20\n              swap1\n              dup2\n              mstore\n              0x00\n              swap3\n              dup4\n              mstore\n              0x40\n              dup1\n              dup5\n              keccak256\n              swap1\n              swap2\n              mstore\n              swap1\n              dup3\n              mstore\n              swap1\n              keccak256\n              sload\n              dup2\n              jump\t// out\n                /* \"CONTRACT/v2-core-master/contracts/UniswapV2Pair.sol\":10224:10382  function sync() external lock {\r... */\n            tag_112:\n                /* \"CONTRACT/v2-core-master/contracts/UniswapV2Pair.sol\":1213:1221  unlocked */\n              sload(0x0c)\n                /* \"CONTRACT/v2-core-master/contracts/UniswapV2Pair.sol\":1225:1226  1 */\n              0x01\n                /* \"CONTRACT/v2-core-master/contracts/UniswapV2Pair.sol\":1213:1226  unlocked == 1 */\n              eq\n                /* \"CONTRACT/v2-core-master/contracts/UniswapV2Pair.sol\":1205:1248  require(unlocked == 1, 'UniswapV2: LOCKED') */\n              tag_253\n              jumpi\n              0x40\n              dup1\n              mload\n              shl(0xe5, 0x461bcd)\n              dup2\n              mstore\n              0x20\n              0x04\n              dup3\n              add\n              mstore\n              0x11\n              0x24\n              dup3\n              add\n              mstore\n              shl(0x7a, 0x155b9a5cddd85c158c8e881313d0d2d151)\n              0x44\n              dup3\n              add\n              mstore\n              swap1\n              mload\n              swap1\n              dup2\n              swap1\n              sub\n              0x64\n              add\n              swap1\n              revert\n            tag_253:\n                /* \"CONTRACT/v2-core-master/contracts/UniswapV2Pair.sol\":1270:1271  0 */\n              0x00\n                /* \"CONTRACT/v2-core-master/contracts/UniswapV2Pair.sol\":1259:1267  unlocked */\n              0x0c\n                /* \"CONTRACT/v2-core-master/contracts/UniswapV2Pair.sol\":1259:1271  unlocked = 0 */\n              sstore\n                /* \"CONTRACT/v2-core-master/contracts/UniswapV2Pair.sol\":10280:10286  token0 */\n              sload(0x06)\n                /* \"CONTRACT/v2-core-master/contracts/UniswapV2Pair.sol\":10273:10312  IERC20(token0).balanceOf(address(this)) */\n              0x40\n              dup1\n              mload\n              shl(0xe0, 0x70a08231)\n              dup2\n              mstore\n                /* \"CONTRACT/v2-core-master/contracts/UniswapV2Pair.sol\":10306:10310  this */\n              address\n                /* \"CONTRACT/v2-core-master/contracts/UniswapV2Pair.sol\":10273:10312  IERC20(token0).balanceOf(address(this)) */\n              0x04\n              dup3\n              add\n              mstore\n              swap1\n              mload\n                /* \"CONTRACT/v2-core-master/contracts/UniswapV2Pair.sol\":10265:10374  _update(IERC20(token0).balanceOf(address(this)), IERC20(token1).balanceOf(address(this)), reserve0, reserve1) */\n              tag_255\n              swap3\n              sub(shl(0xa0, 0x01), 0x01)\n                /* \"CONTRACT/v2-core-master/contracts/UniswapV2Pair.sol\":10280:10286  token0 */\n              and\n              swap2\n              0x70a08231\n              swap2\n                /* \"CONTRACT/v2-core-master/contracts/UniswapV2Pair.sol\":10273:10312  IERC20(token0).balanceOf(address(this)) */\n              0x24\n              dup1\n              dup4\n              add\n              swap3\n              0x20\n              swap3\n              swap2\n              swap1\n              dup3\n              swap1\n              sub\n              add\n              dup2\n                /* \"CONTRACT/v2-core-master/contracts/UniswapV2Pair.sol\":10280:10286  token0 */\n              dup7\n                /* \"CONTRACT/v2-core-master/contracts/UniswapV2Pair.sol\":10273:10312  IERC20(token0).balanceOf(address(this)) */\n              dup1\n              extcodesize\n              iszero\n                /* \"--CODEGEN--\":5:7   */\n              dup1\n              iszero\n              tag_256\n              jumpi\n                /* \"--CODEGEN--\":30:31   */\n              0x00\n                /* \"--CODEGEN--\":27:28   */\n              dup1\n                /* \"--CODEGEN--\":20:32   */\n              revert\n                /* \"--CODEGEN--\":5:7   */\n            tag_256:\n                /* \"CONTRACT/v2-core-master/contracts/UniswapV2Pair.sol\":10273:10312  IERC20(token0).balanceOf(address(this)) */\n              pop\n              gas\n              staticcall\n              iszero\n                /* \"--CODEGEN--\":8:17   */\n              dup1\n                /* \"--CODEGEN--\":5:7   */\n              iszero\n              tag_257\n              jumpi\n                /* \"--CODEGEN--\":45:61   */\n              returndatasize\n                /* \"--CODEGEN--\":42:43   */\n              0x00\n                /* \"--CODEGEN--\":39:40   */\n              dup1\n                /* \"--CODEGEN--\":24:62   */\n              returndatacopy\n                /* \"--CODEGEN--\":77:93   */\n              returndatasize\n                /* \"--CODEGEN--\":74:75   */\n              0x00\n                /* \"--CODEGEN--\":67:94   */\n              revert\n                /* \"--CODEGEN--\":5:7   */\n            tag_257:\n                /* \"CONTRACT/v2-core-master/contracts/UniswapV2Pair.sol\":10273:10312  IERC20(token0).balanceOf(address(this)) */\n              pop\n              pop\n              pop\n              pop\n              mload(0x40)\n              returndatasize\n                /* \"--CODEGEN--\":13:15   */\n              0x20\n                /* \"--CODEGEN--\":8:11   */\n              dup2\n                /* \"--CODEGEN--\":5:16   */\n              lt\n                /* \"--CODEGEN--\":2:4   */\n              iszero\n              tag_258\n              jumpi\n                /* \"--CODEGEN--\":29:30   */\n              0x00\n                /* \"--CODEGEN--\":26:27   */\n              dup1\n                /* \"--CODEGEN--\":19:31   */\n              revert\n                /* \"--CODEGEN--\":2:4   */\n            tag_258:\n              pop\n                /* \"CONTRACT/v2-core-master/contracts/UniswapV2Pair.sol\":10273:10312  IERC20(token0).balanceOf(address(this)) */\n              mload\n                /* \"CONTRACT/v2-core-master/contracts/UniswapV2Pair.sol\":10321:10327  token1 */\n              sload(0x07)\n                /* \"CONTRACT/v2-core-master/contracts/UniswapV2Pair.sol\":10314:10353  IERC20(token1).balanceOf(address(this)) */\n              0x40\n              dup1\n              mload\n              shl(0xe0, 0x70a08231)\n              dup2\n              mstore\n                /* \"CONTRACT/v2-core-master/contracts/UniswapV2Pair.sol\":10347:10351  this */\n              address\n                /* \"CONTRACT/v2-core-master/contracts/UniswapV2Pair.sol\":10314:10353  IERC20(token1).balanceOf(address(this)) */\n              0x04\n              dup3\n              add\n              mstore\n              swap1\n              mload\n              sub(shl(0xa0, 0x01), 0x01)\n                /* \"CONTRACT/v2-core-master/contracts/UniswapV2Pair.sol\":10321:10327  token1 */\n              swap1\n              swap3\n              and\n              swap2\n              0x70a08231\n              swap2\n                /* \"CONTRACT/v2-core-master/contracts/UniswapV2Pair.sol\":10314:10353  IERC20(token1).balanceOf(address(this)) */\n              0x24\n              dup1\n              dup3\n              add\n              swap3\n                /* \"CONTRACT/v2-core-master/contracts/UniswapV2Pair.sol\":10273:10312  IERC20(token0).balanceOf(address(this)) */\n              0x20\n              swap3\n                /* \"CONTRACT/v2-core-master/contracts/UniswapV2Pair.sol\":10314:10353  IERC20(token1).balanceOf(address(this)) */\n              swap1\n              swap2\n              swap1\n              dup3\n              swap1\n              sub\n              add\n              dup2\n                /* \"CONTRACT/v2-core-master/contracts/UniswapV2Pair.sol\":10321:10327  token1 */\n              dup7\n                /* \"CONTRACT/v2-core-master/contracts/UniswapV2Pair.sol\":10314:10353  IERC20(token1).balanceOf(address(this)) */\n              dup1\n              extcodesize\n              iszero\n                /* \"--CODEGEN--\":5:7   */\n              dup1\n              iszero\n              tag_259\n              jumpi\n                /* \"--CODEGEN--\":30:31   */\n              0x00\n                /* \"--CODEGEN--\":27:28   */\n              dup1\n                /* \"--CODEGEN--\":20:32   */\n              revert\n                /* \"--CODEGEN--\":5:7   */\n            tag_259:\n                /* \"CONTRACT/v2-core-master/contracts/UniswapV2Pair.sol\":10314:10353  IERC20(token1).balanceOf(address(this)) */\n              pop\n              gas\n              staticcall\n              iszero\n                /* \"--CODEGEN--\":8:17   */\n              dup1\n                /* \"--CODEGEN--\":5:7   */\n              iszero\n              tag_260\n              jumpi\n                /* \"--CODEGEN--\":45:61   */\n              returndatasize\n                /* \"--CODEGEN--\":42:43   */\n              0x00\n                /* \"--CODEGEN--\":39:40   */\n              dup1\n                /* \"--CODEGEN--\":24:62   */\n              returndatacopy\n                /* \"--CODEGEN--\":77:93   */\n              returndatasize\n                /* \"--CODEGEN--\":74:75   */\n              0x00\n                /* \"--CODEGEN--\":67:94   */\n              revert\n                /* \"--CODEGEN--\":5:7   */\n            tag_260:\n                /* \"CONTRACT/v2-core-master/contracts/UniswapV2Pair.sol\":10314:10353  IERC20(token1).balanceOf(address(this)) */\n              pop\n              pop\n              pop\n              pop\n              mload(0x40)\n              returndatasize\n                /* \"--CODEGEN--\":13:15   */\n              0x20\n                /* \"--CODEGEN--\":8:11   */\n              dup2\n                /* \"--CODEGEN--\":5:16   */\n              lt\n                /* \"--CODEGEN--\":2:4   */\n              iszero\n              tag_261\n              jumpi\n                /* \"--CODEGEN--\":29:30   */\n              0x00\n                /* \"--CODEGEN--\":26:27   */\n              dup1\n                /* \"--CODEGEN--\":19:31   */\n              revert\n                /* \"--CODEGEN--\":2:4   */\n            tag_261:\n              pop\n                /* \"CONTRACT/v2-core-master/contracts/UniswapV2Pair.sol\":10314:10353  IERC20(token1).balanceOf(address(this)) */\n              mload\n                /* \"CONTRACT/v2-core-master/contracts/UniswapV2Pair.sol\":10355:10363  reserve0 */\n              sload(0x08)\n              sub(shl(0x70, 0x01), 0x01)\n              dup1\n              dup3\n              and\n              swap2\n              shl(0x70, 0x01)\n                /* \"CONTRACT/v2-core-master/contracts/UniswapV2Pair.sol\":10365:10373  reserve1 */\n              swap1\n              div\n              and\n                /* \"CONTRACT/v2-core-master/contracts/UniswapV2Pair.sol\":10265:10272  _update */\n              tag_156\n                /* \"CONTRACT/v2-core-master/contracts/UniswapV2Pair.sol\":10265:10374  _update(IERC20(token0).balanceOf(address(this)), IERC20(token1).balanceOf(address(this)), reserve0, reserve1) */\n              jump\t// in\n            tag_255:\n                /* \"CONTRACT/v2-core-master/contracts/UniswapV2Pair.sol\":1305:1306  1 */\n              0x01\n                /* \"CONTRACT/v2-core-master/contracts/UniswapV2Pair.sol\":1294:1302  unlocked */\n              0x0c\n                /* \"CONTRACT/v2-core-master/contracts/UniswapV2Pair.sol\":1294:1306  unlocked = 1 */\n              sstore\n                /* \"CONTRACT/v2-core-master/contracts/UniswapV2Pair.sol\":10224:10382  function sync() external lock {\r... */\n              jump\t// out\n                /* \"CONTRACT/v2-core-master/contracts/UniswapV2Pair.sol\":1561:1848  function _safeTransfer(address token, address to, uint value) private {\r... */\n            tag_125:\n                /* \"CONTRACT/v2-core-master/contracts/UniswapV2Pair.sol\":537:571  bytes('transfer(address,uint256)') */\n              0x40\n              dup1\n              mload\n              dup1\n              dup3\n              add\n              dup3\n              mstore\n              0x19\n              dup2\n              mstore\n              0x7472616e7366657228616464726573732c75696e743235362900000000000000\n              0x20\n              swap2\n              dup3\n              add\n              mstore\n                /* \"CONTRACT/v2-core-master/contracts/UniswapV2Pair.sol\":1689:1732  abi.encodeWithSelector(SELECTOR, to, value) */\n              dup2\n              mload\n              sub(shl(0xa0, 0x01), 0x01)\n              dup6\n              dup2\n              and\n              0x24\n              dup4\n              add\n              mstore\n              0x44\n              dup1\n              dup4\n              add\n              dup7\n              swap1\n              mstore\n              dup5\n              mload\n                /* \"--CODEGEN--\":26:47   */\n              dup1\n              dup5\n              sub\n                /* \"--CODEGEN--\":22:54   */\n              swap1\n              swap2\n              add\n                /* \"--CODEGEN--\":6:55   */\n              dup2\n              mstore\n                /* \"CONTRACT/v2-core-master/contracts/UniswapV2Pair.sol\":1689:1732  abi.encodeWithSelector(SELECTOR, to, value) */\n              0x64\n              swap1\n              swap3\n              add\n              dup5\n              mstore\n                /* \"--CODEGEN--\":25:43   */\n              swap2\n              dup2\n              add\n                /* \"--CODEGEN--\":61:78   */\n              dup1\n              mload\n              sub(shl(0xe0, 0x01), 0x01)\n                /* \"--CODEGEN--\":182:197   */\n              and\n              shl(0xe0, 0xa9059cbb)\n                /* \"--CODEGEN--\":179:208   */\n              or\n                /* \"--CODEGEN--\":160:209   */\n              dup2\n              mstore\n                /* \"CONTRACT/v2-core-master/contracts/UniswapV2Pair.sol\":1678:1733  token.call(abi.encodeWithSelector(SELECTOR, to, value)) */\n              swap3\n              mload\n              dup2\n              mload\n              0x00\n              swap5\n                /* \"CONTRACT/v2-core-master/contracts/UniswapV2Pair.sol\":1657:1674  bytes memory data */\n              0x60\n              swap5\n                /* \"CONTRACT/v2-core-master/contracts/UniswapV2Pair.sol\":1678:1688  token.call */\n              dup10\n              and\n              swap4\n                /* \"CONTRACT/v2-core-master/contracts/UniswapV2Pair.sol\":1689:1732  abi.encodeWithSelector(SELECTOR, to, value) */\n              swap3\n                /* \"CONTRACT/v2-core-master/contracts/UniswapV2Pair.sol\":1678:1733  token.call(abi.encodeWithSelector(SELECTOR, to, value)) */\n              swap2\n              dup3\n              swap2\n                /* \"--CODEGEN--\":25:43   */\n              swap1\n                /* \"CONTRACT/v2-core-master/contracts/UniswapV2Pair.sol\":1678:1733  token.call(abi.encodeWithSelector(SELECTOR, to, value)) */\n              dup1\n              dup4\n                /* \"--CODEGEN--\":25:43   */\n              dup4\n                /* \"--CODEGEN--\":36:189   */\n            tag_263:\n                /* \"--CODEGEN--\":66:68   */\n              0x20\n                /* \"--CODEGEN--\":61:64   */\n              dup4\n                /* \"--CODEGEN--\":58:69   */\n              lt\n                /* \"--CODEGEN--\":36:189   */\n              tag_265\n              jumpi\n                /* \"--CODEGEN--\":176:186   */\n              dup1\n              mload\n                /* \"--CODEGEN--\":164:187   */\n              dup3\n              mstore\n              not(0x1f)\n                /* \"--CODEGEN--\":139:151   */\n              swap1\n              swap3\n              add\n              swap2\n                /* \"--CODEGEN--\":98:100   */\n              0x20\n                /* \"--CODEGEN--\":89:101   */\n              swap2\n              dup3\n              add\n              swap2\n                /* \"--CODEGEN--\":114:126   */\n              add\n                /* \"--CODEGEN--\":36:189   */\n              jump(tag_263)\n            tag_265:\n                /* \"--CODEGEN--\":274:275   */\n              0x01\n                /* \"--CODEGEN--\":267:270   */\n              dup4\n                /* \"--CODEGEN--\":263:265   */\n              0x20\n                /* \"--CODEGEN--\":259:271   */\n              sub\n                /* \"--CODEGEN--\":254:257   */\n              0x0100\n                /* \"--CODEGEN--\":250:272   */\n              exp\n                /* \"--CODEGEN--\":246:276   */\n              sub\n                /* \"--CODEGEN--\":315:319   */\n              dup1\n                /* \"--CODEGEN--\":311:320   */\n              not\n                /* \"--CODEGEN--\":305:308   */\n              dup3\n                /* \"--CODEGEN--\":299:309   */\n              mload\n                /* \"--CODEGEN--\":295:321   */\n              and\n                /* \"--CODEGEN--\":356:360   */\n              dup2\n                /* \"--CODEGEN--\":350:353   */\n              dup5\n                /* \"--CODEGEN--\":344:354   */\n              mload\n                /* \"--CODEGEN--\":340:361   */\n              and\n                /* \"--CODEGEN--\":389:396   */\n              dup1\n                /* \"--CODEGEN--\":380:387   */\n              dup3\n                /* \"--CODEGEN--\":377:397   */\n              or\n                /* \"--CODEGEN--\":372:375   */\n              dup6\n                /* \"--CODEGEN--\":365:398   */\n              mstore\n                /* \"--CODEGEN--\":3:402   */\n              pop\n              pop\n              pop\n                /* \"CONTRACT/v2-core-master/contracts/UniswapV2Pair.sol\":1678:1733  token.call(abi.encodeWithSelector(SELECTOR, to, value)) */\n              pop\n              pop\n              pop\n              swap1\n              pop\n              add\n              swap2\n              pop\n              pop\n              0x00\n              mload(0x40)\n              dup1\n              dup4\n              sub\n              dup2\n              0x00\n              dup7\n              gas\n              call\n              swap2\n              pop\n              pop\n              returndatasize\n                /* \"--CODEGEN--\":14:15   */\n              dup1\n                /* \"--CODEGEN--\":21:22   */\n              0x00\n                /* \"--CODEGEN--\":16:47   */\n              dup2\n              eq\n              tag_267\n              jumpi\n                /* \"--CODEGEN--\":75:79   */\n              0x40\n                /* \"--CODEGEN--\":69:80   */\n              mload\n                /* \"--CODEGEN--\":64:80   */\n              swap2\n              pop\n                /* \"--CODEGEN--\":144:148   */\n              0x1f\n                /* \"--CODEGEN--\":140:149   */\n              not\n                /* \"--CODEGEN--\":133:137   */\n              0x3f\n                /* \"--CODEGEN--\":115:131   */\n              returndatasize\n                /* \"--CODEGEN--\":111:138   */\n              add\n                /* \"--CODEGEN--\":107:150   */\n              and\n                /* \"--CODEGEN--\":104:105   */\n              dup3\n                /* \"--CODEGEN--\":100:151   */\n              add\n                /* \"--CODEGEN--\":94:98   */\n              0x40\n                /* \"--CODEGEN--\":87:152   */\n              mstore\n                /* \"--CODEGEN--\":169:185   */\n              returndatasize\n                /* \"--CODEGEN--\":166:167   */\n              dup3\n                /* \"--CODEGEN--\":159:186   */\n              mstore\n                /* \"--CODEGEN--\":225:241   */\n              returndatasize\n                /* \"--CODEGEN--\":222:223   */\n              0x00\n                /* \"--CODEGEN--\":215:219   */\n              0x20\n                /* \"--CODEGEN--\":212:213   */\n              dup5\n                /* \"--CODEGEN--\":208:220   */\n              add\n                /* \"--CODEGEN--\":193:242   */\n              returndatacopy\n                /* \"--CODEGEN--\":7:249   */\n              jump(tag_266)\n                /* \"--CODEGEN--\":16:47   */\n            tag_267:\n                /* \"--CODEGEN--\":36:40   */\n              0x60\n                /* \"--CODEGEN--\":31:40   */\n              swap2\n              pop\n                /* \"--CODEGEN--\":7:249   */\n            tag_266:\n              pop\n                /* \"CONTRACT/v2-core-master/contracts/UniswapV2Pair.sol\":1642:1733  (bool success, bytes memory data) = token.call(abi.encodeWithSelector(SELECTOR, to, value)) */\n              swap2\n              pop\n              swap2\n              pop\n                /* \"CONTRACT/v2-core-master/contracts/UniswapV2Pair.sol\":1752:1759  success */\n              dup2\n                /* \"CONTRACT/v2-core-master/contracts/UniswapV2Pair.sol\":1752:1809  success && (data.length == 0 || abi.decode(data, (bool))) */\n              dup1\n              iszero\n              tag_269\n              jumpi\n              pop\n                /* \"CONTRACT/v2-core-master/contracts/UniswapV2Pair.sol\":1764:1775  data.length */\n              dup1\n              mload\n                /* \"CONTRACT/v2-core-master/contracts/UniswapV2Pair.sol\":1764:1780  data.length == 0 */\n              iszero\n              dup1\n                /* \"CONTRACT/v2-core-master/contracts/UniswapV2Pair.sol\":1764:1808  data.length == 0 || abi.decode(data, (bool)) */\n              tag_269\n              jumpi\n              pop\n                /* \"CONTRACT/v2-core-master/contracts/UniswapV2Pair.sol\":1795:1799  data */\n              dup1\n                /* \"CONTRACT/v2-core-master/contracts/UniswapV2Pair.sol\":1784:1808  abi.decode(data, (bool)) */\n              dup1\n              0x20\n              add\n              swap1\n              mload\n                /* \"--CODEGEN--\":13:15   */\n              0x20\n                /* \"--CODEGEN--\":8:11   */\n              dup2\n                /* \"--CODEGEN--\":5:16   */\n              lt\n                /* \"--CODEGEN--\":2:4   */\n              iszero\n              tag_270\n              jumpi\n                /* \"--CODEGEN--\":29:30   */\n              0x00\n                /* \"--CODEGEN--\":26:27   */\n              dup1\n                /* \"--CODEGEN--\":19:31   */\n              revert\n                /* \"--CODEGEN--\":2:4   */\n            tag_270:\n              pop\n                /* \"CONTRACT/v2-core-master/contracts/UniswapV2Pair.sol\":1784:1808  abi.decode(data, (bool)) */\n              mload\n                /* \"CONTRACT/v2-core-master/contracts/UniswapV2Pair.sol\":1764:1808  data.length == 0 || abi.decode(data, (bool)) */\n            tag_269:\n                /* \"CONTRACT/v2-core-master/contracts/UniswapV2Pair.sol\":1744:1840  require(success && (data.length == 0 || abi.decode(data, (bool))), 'UniswapV2: TRANSFER_FAILED') */\n              tag_271\n              jumpi\n              0x40\n              dup1\n              mload\n              shl(0xe5, 0x461bcd)\n              dup2\n              mstore\n              0x20\n              0x04\n              dup3\n              add\n              mstore\n              0x1a\n              0x24\n              dup3\n              add\n              mstore\n              0x556e697377617056323a205452414e534645525f4641494c4544000000000000\n              0x44\n              dup3\n              add\n              mstore\n              swap1\n              mload\n              swap1\n              dup2\n              swap1\n              sub\n              0x64\n              add\n              swap1\n              revert\n            tag_271:\n                /* \"CONTRACT/v2-core-master/contracts/UniswapV2Pair.sol\":1561:1848  function _safeTransfer(address token, address to, uint value) private {\r... */\n              pop\n              pop\n              pop\n              pop\n              pop\n              jump\t// out\n                /* \"CONTRACT/v2-core-master/contracts/libraries/SafeMath.sol\":434:576  function mul(uint x, uint y) internal pure returns (uint z) {\r... */\n            tag_145:\n                /* \"CONTRACT/v2-core-master/contracts/libraries/SafeMath.sol\":486:492  uint z */\n              0x00\n                /* \"CONTRACT/v2-core-master/contracts/libraries/SafeMath.sol\":513:519  y == 0 */\n              dup2\n              iszero\n              dup1\n                /* \"CONTRACT/v2-core-master/contracts/libraries/SafeMath.sol\":513:543  y == 0 || (z = x * y) / y == x */\n              tag_273\n              jumpi\n              pop\n              pop\n                /* \"CONTRACT/v2-core-master/contracts/libraries/SafeMath.sol\":528:533  x * y */\n              dup1\n              dup3\n              mul\n                /* \"CONTRACT/v2-core-master/contracts/libraries/SafeMath.sol\":542:543  x */\n              dup3\n                /* \"CONTRACT/v2-core-master/contracts/libraries/SafeMath.sol\":537:538  y */\n              dup3\n                /* \"CONTRACT/v2-core-master/contracts/libraries/SafeMath.sol\":528:533  x * y */\n              dup3\n                /* \"CONTRACT/v2-core-master/contracts/libraries/SafeMath.sol\":537:538  y */\n              dup2\n                /* \"CONTRACT/v2-core-master/contracts/libraries/SafeMath.sol\":523:538  (z = x * y) / y */\n              tag_274\n              jumpi\n              invalid\n            tag_274:\n              div\n                /* \"CONTRACT/v2-core-master/contracts/libraries/SafeMath.sol\":523:543  (z = x * y) / y == x */\n              eq\n                /* \"CONTRACT/v2-core-master/contracts/libraries/SafeMath.sol\":513:543  y == 0 || (z = x * y) / y == x */\n            tag_273:\n                /* \"CONTRACT/v2-core-master/contracts/libraries/SafeMath.sol\":505:568  require(y == 0 || (z = x * y) / y == x, 'ds-math-mul-overflow') */\n              tag_158\n              jumpi\n              0x40\n              dup1\n              mload\n              shl(0xe5, 0x461bcd)\n              dup2\n              mstore\n              0x20\n              0x04\n              dup3\n              add\n              mstore\n              0x14\n              0x24\n              dup3\n              add\n              mstore\n              shl(0x60, 0x64732d6d6174682d6d756c2d6f766572666c6f77)\n              0x44\n              dup3\n              add\n              mstore\n              swap1\n              mload\n              swap1\n              dup2\n              swap1\n              sub\n              0x64\n              add\n              swap1\n              revert\n                /* \"CONTRACT/v2-core-master/contracts/libraries/SafeMath.sol\":297:426  function sub(uint x, uint y) internal pure returns (uint z) {\r... */\n            tag_147:\n                /* \"CONTRACT/v2-core-master/contracts/libraries/SafeMath.sol\":381:386  x - y */\n              dup1\n              dup3\n              sub\n                /* \"CONTRACT/v2-core-master/contracts/libraries/SafeMath.sol\":376:392  (z = x - y) <= x */\n              dup3\n              dup2\n              gt\n              iszero\n                /* \"CONTRACT/v2-core-master/contracts/libraries/SafeMath.sol\":368:418  require((z = x - y) <= x, 'ds-math-sub-underflow') */\n              tag_158\n              jumpi\n              0x40\n              dup1\n              mload\n              shl(0xe5, 0x461bcd)\n              dup2\n              mstore\n              0x20\n              0x04\n              dup3\n              add\n              mstore\n              0x15\n              0x24\n              dup3\n              add\n              mstore\n              shl(0x58, 0x64732d6d6174682d7375622d756e646572666c6f77)\n              0x44\n              dup3\n              add\n              mstore\n              swap1\n              mload\n              swap1\n              dup2\n              swap1\n              sub\n              0x64\n              add\n              swap1\n              revert\n                /* \"CONTRACT/v2-core-master/contracts/UniswapV2Pair.sol\":2677:3537  function _update(uint balance0, uint balance1, uint112 _reserve0, uint112 _reserve1) private {\r... */\n            tag_156:\n              sub(shl(0x70, 0x01), 0x01)\n                /* \"CONTRACT/v2-core-master/contracts/UniswapV2Pair.sol\":2789:2812  balance0 <= uint112(-1) */\n              dup5\n              gt\n              dup1\n              iszero\n              swap1\n                /* \"CONTRACT/v2-core-master/contracts/UniswapV2Pair.sol\":2789:2839  balance0 <= uint112(-1) && balance1 <= uint112(-1) */\n              tag_279\n              jumpi\n              pop\n              sub(shl(0x70, 0x01), 0x01)\n                /* \"CONTRACT/v2-core-master/contracts/UniswapV2Pair.sol\":2816:2839  balance1 <= uint112(-1) */\n              dup4\n              gt\n              iszero\n                /* \"CONTRACT/v2-core-master/contracts/UniswapV2Pair.sol\":2789:2839  balance0 <= uint112(-1) && balance1 <= uint112(-1) */\n            tag_279:\n                /* \"CONTRACT/v2-core-master/contracts/UniswapV2Pair.sol\":2781:2863  require(balance0 <= uint112(-1) && balance1 <= uint112(-1), 'UniswapV2: OVERFLOW') */\n              tag_280\n              jumpi\n              0x40\n              dup1\n              mload\n              shl(0xe5, 0x461bcd)\n              dup2\n              mstore\n              0x20\n              0x04\n              dup3\n              add\n              mstore\n              0x13\n              0x24\n              dup3\n              add\n              mstore\n              shl(0x68, 0x556e697377617056323a204f564552464c4f57)\n              0x44\n              dup3\n              add\n              mstore\n              swap1\n              mload\n              swap1\n              dup2\n              swap1\n              sub\n              0x64\n              add\n              swap1\n              revert\n            tag_280:\n                /* \"CONTRACT/v2-core-master/contracts/UniswapV2Pair.sol\":2978:2996  blockTimestampLast */\n              sload(0x08)\n                /* \"CONTRACT/v2-core-master/contracts/UniswapV2Pair.sol\":2905:2928  block.timestamp % 2**32 */\n              0xffffffff\n                /* \"CONTRACT/v2-core-master/contracts/UniswapV2Pair.sol\":2905:2920  block.timestamp */\n              timestamp\n                /* \"CONTRACT/v2-core-master/contracts/UniswapV2Pair.sol\":2905:2928  block.timestamp % 2**32 */\n              dup2\n              and\n              swap2\n              shl(0xe0, 0x01)\n                /* \"CONTRACT/v2-core-master/contracts/UniswapV2Pair.sol\":2978:2996  blockTimestampLast */\n              swap1\n              div\n              dup2\n              and\n                /* \"CONTRACT/v2-core-master/contracts/UniswapV2Pair.sol\":2961:2996  blockTimestamp - blockTimestampLast */\n              dup3\n              sub\n              swap1\n                /* \"CONTRACT/v2-core-master/contracts/UniswapV2Pair.sol\":3034:3049  timeElapsed > 0 */\n              dup2\n              and\n              iszero\n              dup1\n              iszero\n              swap1\n                /* \"CONTRACT/v2-core-master/contracts/UniswapV2Pair.sol\":3034:3067  timeElapsed > 0 && _reserve0 != 0 */\n              tag_282\n              jumpi\n              pop\n              sub(shl(0x70, 0x01), 0x01)\n                /* \"CONTRACT/v2-core-master/contracts/UniswapV2Pair.sol\":3053:3067  _reserve0 != 0 */\n              dup5\n              and\n              iszero\n              iszero\n                /* \"CONTRACT/v2-core-master/contracts/UniswapV2Pair.sol\":3034:3067  timeElapsed > 0 && _reserve0 != 0 */\n            tag_282:\n                /* \"CONTRACT/v2-core-master/contracts/UniswapV2Pair.sol\":3034:3085  timeElapsed > 0 && _reserve0 != 0 && _reserve1 != 0 */\n              dup1\n              iszero\n              tag_283\n              jumpi\n              pop\n              sub(shl(0x70, 0x01), 0x01)\n                /* \"CONTRACT/v2-core-master/contracts/UniswapV2Pair.sol\":3071:3085  _reserve1 != 0 */\n              dup4\n              and\n              iszero\n              iszero\n                /* \"CONTRACT/v2-core-master/contracts/UniswapV2Pair.sol\":3034:3085  timeElapsed > 0 && _reserve0 != 0 && _reserve1 != 0 */\n            tag_283:\n                /* \"CONTRACT/v2-core-master/contracts/UniswapV2Pair.sol\":3030:3366  if (timeElapsed > 0 && _reserve0 != 0 && _reserve1 != 0) {\r... */\n              iszero\n              tag_284\n              jumpi\n                /* \"CONTRACT/v2-core-master/contracts/UniswapV2Pair.sol\":3240:3251  timeElapsed */\n              dup1\n                /* \"CONTRACT/v2-core-master/contracts/UniswapV2Pair.sol\":3187:3251  uint(UQ112x112.encode(_reserve1).uqdiv(_reserve0)) * timeElapsed */\n              0xffffffff\n              and\n                /* \"CONTRACT/v2-core-master/contracts/UniswapV2Pair.sol\":3192:3236  UQ112x112.encode(_reserve1).uqdiv(_reserve0) */\n              tag_285\n                /* \"CONTRACT/v2-core-master/contracts/UniswapV2Pair.sol\":3226:3235  _reserve0 */\n              dup6\n                /* \"CONTRACT/v2-core-master/contracts/UniswapV2Pair.sol\":3192:3219  UQ112x112.encode(_reserve1) */\n              tag_286\n                /* \"CONTRACT/v2-core-master/contracts/UniswapV2Pair.sol\":3209:3218  _reserve1 */\n              dup7\n                /* \"CONTRACT/v2-core-master/contracts/UniswapV2Pair.sol\":3192:3208  UQ112x112.encode */\n              tag_287\n                /* \"CONTRACT/v2-core-master/contracts/UniswapV2Pair.sol\":3192:3219  UQ112x112.encode(_reserve1) */\n              jump\t// in\n            tag_286:\n              sub(shl(0xe0, 0x01), 0x01)\n                /* \"CONTRACT/v2-core-master/contracts/UniswapV2Pair.sol\":3192:3225  UQ112x112.encode(_reserve1).uqdiv */\n              and\n              swap1\n              tag_288\n                /* \"CONTRACT/v2-core-master/contracts/UniswapV2Pair.sol\":3192:3236  UQ112x112.encode(_reserve1).uqdiv(_reserve0) */\n              jump\t// in\n            tag_285:\n                /* \"CONTRACT/v2-core-master/contracts/UniswapV2Pair.sol\":3163:3183  price0CumulativeLast */\n              0x09\n                /* \"CONTRACT/v2-core-master/contracts/UniswapV2Pair.sol\":3163:3251  price0CumulativeLast += uint(UQ112x112.encode(_reserve1).uqdiv(_reserve0)) * timeElapsed */\n              dup1\n              sload\n              sub(shl(0xe0, 0x01), 0x01)\n                /* \"CONTRACT/v2-core-master/contracts/UniswapV2Pair.sol\":3187:3237  uint(UQ112x112.encode(_reserve1).uqdiv(_reserve0)) */\n              swap3\n              swap1\n              swap3\n              and\n                /* \"CONTRACT/v2-core-master/contracts/UniswapV2Pair.sol\":3187:3251  uint(UQ112x112.encode(_reserve1).uqdiv(_reserve0)) * timeElapsed */\n              swap3\n              swap1\n              swap3\n              mul\n                /* \"CONTRACT/v2-core-master/contracts/UniswapV2Pair.sol\":3163:3251  price0CumulativeLast += uint(UQ112x112.encode(_reserve1).uqdiv(_reserve0)) * timeElapsed */\n              add\n              swap1\n              sstore\n                /* \"CONTRACT/v2-core-master/contracts/UniswapV2Pair.sol\":3290:3354  uint(UQ112x112.encode(_reserve0).uqdiv(_reserve1)) * timeElapsed */\n              0xffffffff\n              dup2\n              and\n                /* \"CONTRACT/v2-core-master/contracts/UniswapV2Pair.sol\":3295:3339  UQ112x112.encode(_reserve0).uqdiv(_reserve1) */\n              tag_289\n                /* \"CONTRACT/v2-core-master/contracts/UniswapV2Pair.sol\":3329:3338  _reserve1 */\n              dup5\n                /* \"CONTRACT/v2-core-master/contracts/UniswapV2Pair.sol\":3295:3322  UQ112x112.encode(_reserve0) */\n              tag_286\n                /* \"CONTRACT/v2-core-master/contracts/UniswapV2Pair.sol\":3312:3321  _reserve0 */\n              dup8\n                /* \"CONTRACT/v2-core-master/contracts/UniswapV2Pair.sol\":3295:3311  UQ112x112.encode */\n              tag_287\n                /* \"CONTRACT/v2-core-master/contracts/UniswapV2Pair.sol\":3295:3322  UQ112x112.encode(_reserve0) */\n              jump\t// in\n                /* \"CONTRACT/v2-core-master/contracts/UniswapV2Pair.sol\":3295:3339  UQ112x112.encode(_reserve0).uqdiv(_reserve1) */\n            tag_289:\n                /* \"CONTRACT/v2-core-master/contracts/UniswapV2Pair.sol\":3266:3286  price1CumulativeLast */\n              0x0a\n                /* \"CONTRACT/v2-core-master/contracts/UniswapV2Pair.sol\":3266:3354  price1CumulativeLast += uint(UQ112x112.encode(_reserve0).uqdiv(_reserve1)) * timeElapsed */\n              dup1\n              sload\n              sub(shl(0xe0, 0x01), 0x01)\n                /* \"CONTRACT/v2-core-master/contracts/UniswapV2Pair.sol\":3290:3340  uint(UQ112x112.encode(_reserve0).uqdiv(_reserve1)) */\n              swap3\n              swap1\n              swap3\n              and\n                /* \"CONTRACT/v2-core-master/contracts/UniswapV2Pair.sol\":3290:3354  uint(UQ112x112.encode(_reserve0).uqdiv(_reserve1)) * timeElapsed */\n              swap3\n              swap1\n              swap3\n              mul\n                /* \"CONTRACT/v2-core-master/contracts/UniswapV2Pair.sol\":3266:3354  price1CumulativeLast += uint(UQ112x112.encode(_reserve0).uqdiv(_reserve1)) * timeElapsed */\n              add\n              swap1\n              sstore\n                /* \"CONTRACT/v2-core-master/contracts/UniswapV2Pair.sol\":3030:3366  if (timeElapsed > 0 && _reserve0 != 0 && _reserve1 != 0) {\r... */\n            tag_284:\n                /* \"CONTRACT/v2-core-master/contracts/UniswapV2Pair.sol\":3376:3384  reserve0 */\n              0x08\n                /* \"CONTRACT/v2-core-master/contracts/UniswapV2Pair.sol\":3376:3404  reserve0 = uint112(balance0) */\n              dup1\n              sload\n              not(0xffffffffffffffffffffffffffff)\n              and\n              sub(shl(0x70, 0x01), 0x01)\n              dup9\n              dup2\n              and\n              swap2\n              swap1\n              swap2\n              or\n              not(shl(0x70, 0xffffffffffffffffffffffffffff))\n                /* \"CONTRACT/v2-core-master/contracts/UniswapV2Pair.sol\":3415:3443  reserve1 = uint112(balance1) */\n              and\n              shl(0x70, 0x01)\n              dup9\n              dup4\n              and\n              dup2\n              mul\n              swap2\n              swap1\n              swap2\n              or\n              sub(shl(0xe0, 0x01), 0x01)\n                /* \"CONTRACT/v2-core-master/contracts/UniswapV2Pair.sol\":3454:3489  blockTimestampLast = blockTimestamp */\n              and\n              shl(0xe0, 0x01)\n              0xffffffff\n              dup8\n              and\n              mul\n              or\n              swap3\n              dup4\n              swap1\n              sstore\n                /* \"CONTRACT/v2-core-master/contracts/UniswapV2Pair.sol\":3505:3529  Sync(reserve0, reserve1) */\n              0x40\n              dup1\n              mload\n                /* \"CONTRACT/v2-core-master/contracts/UniswapV2Pair.sol\":3510:3518  reserve0 */\n              dup5\n              dup5\n              and\n                /* \"CONTRACT/v2-core-master/contracts/UniswapV2Pair.sol\":3505:3529  Sync(reserve0, reserve1) */\n              dup2\n              mstore\n                /* \"CONTRACT/v2-core-master/contracts/UniswapV2Pair.sol\":3520:3528  reserve1 */\n              swap2\n              swap1\n              swap4\n              div\n              swap1\n              swap2\n              and\n                /* \"CONTRACT/v2-core-master/contracts/UniswapV2Pair.sol\":3505:3529  Sync(reserve0, reserve1) */\n              0x20\n              dup3\n              add\n              mstore\n              dup2\n              mload\n              0x1c411e9a96e071241c2f21f7726b17ae89e3cab4c78be50e062b03a9fffbbad1\n              swap3\n              swap2\n              dup2\n              swap1\n              sub\n              swap1\n              swap2\n              add\n              swap1\n              log1\n                /* \"CONTRACT/v2-core-master/contracts/UniswapV2Pair.sol\":2677:3537  function _update(uint balance0, uint balance1, uint112 _reserve0, uint112 _reserve1) private {\r... */\n              pop\n              pop\n              pop\n              pop\n              pop\n              pop\n              jump\t// out\n                /* \"CONTRACT/v2-core-master/contracts/UniswapV2ERC20.sol\":1837:2006  function _approve(address owner, address spender, uint value) private {\r... */\n            tag_160:\n              sub(shl(0xa0, 0x01), 0x01)\n                /* \"CONTRACT/v2-core-master/contracts/UniswapV2ERC20.sol\":1918:1934  allowance[owner] */\n              dup4\n              dup2\n              and\n              0x00\n              dup2\n              dup2\n              mstore\n                /* \"CONTRACT/v2-core-master/contracts/UniswapV2ERC20.sol\":1918:1927  allowance */\n              0x02\n                /* \"CONTRACT/v2-core-master/contracts/UniswapV2ERC20.sol\":1918:1934  allowance[owner] */\n              0x20\n              swap1\n              dup2\n              mstore\n              0x40\n              dup1\n              dup4\n              keccak256\n                /* \"CONTRACT/v2-core-master/contracts/UniswapV2ERC20.sol\":1918:1943  allowance[owner][spender] */\n              swap5\n              dup8\n              and\n              dup1\n              dup5\n              mstore\n              swap5\n              dup3\n              mstore\n              swap2\n              dup3\n              swap1\n              keccak256\n                /* \"CONTRACT/v2-core-master/contracts/UniswapV2ERC20.sol\":1918:1951  allowance[owner][spender] = value */\n              dup6\n              swap1\n              sstore\n                /* \"CONTRACT/v2-core-master/contracts/UniswapV2ERC20.sol\":1967:1998  Approval(owner, spender, value) */\n              dup2\n              mload\n              dup6\n              dup2\n              mstore\n              swap2\n              mload\n              0x8c5be1e5ebec7d5bd14f71427d1e84f3dd0314c0f7b2291e5b200ac8c7c3b925\n              swap3\n              dup2\n              swap1\n              sub\n              swap1\n              swap2\n              add\n              swap1\n              log3\n                /* \"CONTRACT/v2-core-master/contracts/UniswapV2ERC20.sol\":1837:2006  function _approve(address owner, address spender, uint value) private {\r... */\n              pop\n              pop\n              pop\n              jump\t// out\n                /* \"CONTRACT/v2-core-master/contracts/UniswapV2ERC20.sol\":2014:2234  function _transfer(address from, address to, uint value) private {\r... */\n            tag_165:\n              sub(shl(0xa0, 0x01), 0x01)\n                /* \"CONTRACT/v2-core-master/contracts/UniswapV2ERC20.sol\":2108:2123  balanceOf[from] */\n              dup4\n              and\n              0x00\n              swap1\n              dup2\n              mstore\n              mstore(0x20, 0x01)\n              0x40\n              swap1\n              keccak256\n              sload\n                /* \"CONTRACT/v2-core-master/contracts/UniswapV2ERC20.sol\":2108:2134  balanceOf[from].sub(value) */\n              tag_293\n              swap1\n                /* \"CONTRACT/v2-core-master/contracts/UniswapV2ERC20.sol\":2128:2133  value */\n              dup3\n                /* \"CONTRACT/v2-core-master/contracts/UniswapV2ERC20.sol\":2108:2127  balanceOf[from].sub */\n              tag_147\n                /* \"CONTRACT/v2-core-master/contracts/UniswapV2ERC20.sol\":2108:2134  balanceOf[from].sub(value) */\n              jump\t// in\n            tag_293:\n              sub(shl(0xa0, 0x01), 0x01)\n                /* \"CONTRACT/v2-core-master/contracts/UniswapV2ERC20.sol\":2090:2105  balanceOf[from] */\n              dup5\n              dup2\n              and\n              0x00\n              swap1\n              dup2\n              mstore\n              mstore(0x20, 0x01)\n              0x40\n              dup1\n              dup3\n              keccak256\n                /* \"CONTRACT/v2-core-master/contracts/UniswapV2ERC20.sol\":2090:2134  balanceOf[from] = balanceOf[from].sub(value) */\n              swap4\n              swap1\n              swap4\n              sstore\n                /* \"CONTRACT/v2-core-master/contracts/UniswapV2ERC20.sol\":2161:2174  balanceOf[to] */\n              swap1\n              dup5\n              and\n              dup2\n              mstore\n              keccak256\n              sload\n                /* \"CONTRACT/v2-core-master/contracts/UniswapV2ERC20.sol\":2161:2185  balanceOf[to].add(value) */\n              tag_294\n              swap1\n                /* \"CONTRACT/v2-core-master/contracts/UniswapV2ERC20.sol\":2179:2184  value */\n              dup3\n                /* \"CONTRACT/v2-core-master/contracts/UniswapV2ERC20.sol\":2161:2178  balanceOf[to].add */\n              tag_295\n                /* \"CONTRACT/v2-core-master/contracts/UniswapV2ERC20.sol\":2161:2185  balanceOf[to].add(value) */\n              jump\t// in\n            tag_294:\n              sub(shl(0xa0, 0x01), 0x01)\n                /* \"CONTRACT/v2-core-master/contracts/UniswapV2ERC20.sol\":2145:2158  balanceOf[to] */\n              dup4\n              dup2\n              and\n              0x00\n              dup2\n              dup2\n              mstore\n              0x01\n              0x20\n              swap1\n              dup2\n              mstore\n              0x40\n              swap2\n              dup3\n              swap1\n              keccak256\n                /* \"CONTRACT/v2-core-master/contracts/UniswapV2ERC20.sol\":2145:2185  balanceOf[to] = balanceOf[to].add(value) */\n              swap5\n              swap1\n              swap5\n              sstore\n                /* \"CONTRACT/v2-core-master/contracts/UniswapV2ERC20.sol\":2201:2226  Transfer(from, to, value) */\n              dup1\n              mload\n              dup6\n              dup2\n              mstore\n              swap1\n              mload\n                /* \"CONTRACT/v2-core-master/contracts/UniswapV2ERC20.sol\":2145:2158  balanceOf[to] */\n              swap2\n              swap4\n                /* \"CONTRACT/v2-core-master/contracts/UniswapV2ERC20.sol\":2201:2226  Transfer(from, to, value) */\n              swap3\n              dup8\n              and\n              swap3\n              0xddf252ad1be2c89b69c2b068fc378daa952ba7f163c4a11628f55a4df523b3ef\n              swap3\n              swap2\n              dup3\n              swap1\n              sub\n              add\n              swap1\n              log3\n                /* \"CONTRACT/v2-core-master/contracts/UniswapV2ERC20.sol\":2014:2234  function _transfer(address from, address to, uint value) private {\r... */\n              pop\n              pop\n              pop\n              jump\t// out\n                /* \"CONTRACT/v2-core-master/contracts/UniswapV2Pair.sol\":3627:4861  function _mintFee(uint112 _reserve0, uint112 _reserve1) private returns (bool feeOn) {\r... */\n            tag_181:\n                /* \"CONTRACT/v2-core-master/contracts/UniswapV2Pair.sol\":3757:3764  factory */\n              sload(0x05)\n                /* \"CONTRACT/v2-core-master/contracts/UniswapV2Pair.sol\":3739:3773  IUniswapV2Factory(factory).feeTo() */\n              0x40\n              dup1\n              mload\n              shl(0xe3, 0x2fcfcb)\n              dup2\n              mstore\n              swap1\n              mload\n                /* \"CONTRACT/v2-core-master/contracts/UniswapV2Pair.sol\":3700:3710  bool feeOn */\n              0x00\n              swap3\n              dup4\n              swap3\n              sub(shl(0xa0, 0x01), 0x01)\n                /* \"CONTRACT/v2-core-master/contracts/UniswapV2Pair.sol\":3757:3764  factory */\n              swap1\n              swap2\n              and\n              swap2\n                /* \"CONTRACT/v2-core-master/contracts/UniswapV2Pair.sol\":3739:3771  IUniswapV2Factory(factory).feeTo */\n              0x017e7e58\n              swap2\n                /* \"CONTRACT/v2-core-master/contracts/UniswapV2Pair.sol\":3739:3773  IUniswapV2Factory(factory).feeTo() */\n              0x04\n              dup1\n              dup3\n              add\n              swap3\n              0x20\n              swap3\n              swap1\n              swap2\n              swap1\n              dup3\n              swap1\n              sub\n              add\n              dup2\n                /* \"CONTRACT/v2-core-master/contracts/UniswapV2Pair.sol\":3757:3764  factory */\n              dup7\n                /* \"CONTRACT/v2-core-master/contracts/UniswapV2Pair.sol\":3739:3773  IUniswapV2Factory(factory).feeTo() */\n              dup1\n              extcodesize\n              iszero\n                /* \"--CODEGEN--\":5:7   */\n              dup1\n              iszero\n              tag_297\n              jumpi\n                /* \"--CODEGEN--\":30:31   */\n              0x00\n                /* \"--CODEGEN--\":27:28   */\n              dup1\n                /* \"--CODEGEN--\":20:32   */\n              revert\n                /* \"--CODEGEN--\":5:7   */\n            tag_297:\n                /* \"CONTRACT/v2-core-master/contracts/UniswapV2Pair.sol\":3739:3773  IUniswapV2Factory(factory).feeTo() */\n              pop\n              gas\n              staticcall\n              iszero\n                /* \"--CODEGEN--\":8:17   */\n              dup1\n                /* \"--CODEGEN--\":5:7   */\n              iszero\n              tag_298\n              jumpi\n                /* \"--CODEGEN--\":45:61   */\n              returndatasize\n                /* \"--CODEGEN--\":42:43   */\n              0x00\n                /* \"--CODEGEN--\":39:40   */\n              dup1\n                /* \"--CODEGEN--\":24:62   */\n              returndatacopy\n                /* \"--CODEGEN--\":77:93   */\n              returndatasize\n                /* \"--CODEGEN--\":74:75   */\n              0x00\n                /* \"--CODEGEN--\":67:94   */\n              revert\n                /* \"--CODEGEN--\":5:7   */\n            tag_298:\n                /* \"CONTRACT/v2-core-master/contracts/UniswapV2Pair.sol\":3739:3773  IUniswapV2Factory(factory).feeTo() */\n              pop\n              pop\n              pop\n              pop\n              mload(0x40)\n              returndatasize\n                /* \"--CODEGEN--\":13:15   */\n              0x20\n                /* \"--CODEGEN--\":8:11   */\n              dup2\n                /* \"--CODEGEN--\":5:16   */\n              lt\n                /* \"--CODEGEN--\":2:4   */\n              iszero\n              tag_299\n              jumpi\n                /* \"--CODEGEN--\":29:30   */\n              0x00\n                /* \"--CODEGEN--\":26:27   */\n              dup1\n                /* \"--CODEGEN--\":19:31   */\n              revert\n                /* \"--CODEGEN--\":2:4   */\n            tag_299:\n              pop\n                /* \"CONTRACT/v2-core-master/contracts/UniswapV2Pair.sol\":3739:3773  IUniswapV2Factory(factory).feeTo() */\n              mload\n                /* \"CONTRACT/v2-core-master/contracts/UniswapV2Pair.sol\":3825:3832  factory */\n              sload(0x05)\n                /* \"CONTRACT/v2-core-master/contracts/UniswapV2Pair.sol\":3807:3848  IUniswapV2Factory(factory).feeToCharity() */\n              0x40\n              dup1\n              mload\n              shl(0xe2, 0x27aebad3)\n              dup2\n              mstore\n              swap1\n              mload\n                /* \"CONTRACT/v2-core-master/contracts/UniswapV2Pair.sol\":3739:3773  IUniswapV2Factory(factory).feeTo() */\n              swap3\n              swap4\n              pop\n                /* \"CONTRACT/v2-core-master/contracts/UniswapV2Pair.sol\":3784:3804  address feeToCharity */\n              0x00\n              swap3\n              sub(shl(0xa0, 0x01), 0x01)\n                /* \"CONTRACT/v2-core-master/contracts/UniswapV2Pair.sol\":3825:3832  factory */\n              swap1\n              swap3\n              and\n              swap2\n                /* \"CONTRACT/v2-core-master/contracts/UniswapV2Pair.sol\":3807:3846  IUniswapV2Factory(factory).feeToCharity */\n              0x9ebaeb4c\n              swap2\n                /* \"CONTRACT/v2-core-master/contracts/UniswapV2Pair.sol\":3807:3848  IUniswapV2Factory(factory).feeToCharity() */\n              0x04\n              dup1\n              dup3\n              add\n              swap3\n                /* \"CONTRACT/v2-core-master/contracts/UniswapV2Pair.sol\":3739:3773  IUniswapV2Factory(factory).feeTo() */\n              0x20\n              swap3\n                /* \"CONTRACT/v2-core-master/contracts/UniswapV2Pair.sol\":3807:3848  IUniswapV2Factory(factory).feeToCharity() */\n              swap1\n              swap2\n              swap1\n              dup3\n              swap1\n              sub\n              add\n              dup2\n                /* \"CONTRACT/v2-core-master/contracts/UniswapV2Pair.sol\":3825:3832  factory */\n              dup7\n                /* \"CONTRACT/v2-core-master/contracts/UniswapV2Pair.sol\":3807:3848  IUniswapV2Factory(factory).feeToCharity() */\n              dup1\n              extcodesize\n              iszero\n                /* \"--CODEGEN--\":5:7   */\n              dup1\n              iszero\n              tag_300\n              jumpi\n                /* \"--CODEGEN--\":30:31   */\n              0x00\n                /* \"--CODEGEN--\":27:28   */\n              dup1\n                /* \"--CODEGEN--\":20:32   */\n              revert\n                /* \"--CODEGEN--\":5:7   */\n            tag_300:\n                /* \"CONTRACT/v2-core-master/contracts/UniswapV2Pair.sol\":3807:3848  IUniswapV2Factory(factory).feeToCharity() */\n              pop\n              gas\n              staticcall\n              iszero\n                /* \"--CODEGEN--\":8:17   */\n              dup1\n                /* \"--CODEGEN--\":5:7   */\n              iszero\n              tag_301\n              jumpi\n                /* \"--CODEGEN--\":45:61   */\n              returndatasize\n                /* \"--CODEGEN--\":42:43   */\n              0x00\n                /* \"--CODEGEN--\":39:40   */\n              dup1\n                /* \"--CODEGEN--\":24:62   */\n              returndatacopy\n                /* \"--CODEGEN--\":77:93   */\n              returndatasize\n                /* \"--CODEGEN--\":74:75   */\n              0x00\n                /* \"--CODEGEN--\":67:94   */\n              revert\n                /* \"--CODEGEN--\":5:7   */\n            tag_301:\n                /* \"CONTRACT/v2-core-master/contracts/UniswapV2Pair.sol\":3807:3848  IUniswapV2Factory(factory).feeToCharity() */\n              pop\n              pop\n              pop\n              pop\n              mload(0x40)\n              returndatasize\n                /* \"--CODEGEN--\":13:15   */\n              0x20\n                /* \"--CODEGEN--\":8:11   */\n              dup2\n                /* \"--CODEGEN--\":5:16   */\n              lt\n                /* \"--CODEGEN--\":2:4   */\n              iszero\n              tag_302\n              jumpi\n                /* \"--CODEGEN--\":29:30   */\n              0x00\n                /* \"--CODEGEN--\":26:27   */\n              dup1\n                /* \"--CODEGEN--\":19:31   */\n              revert\n                /* \"--CODEGEN--\":2:4   */\n            tag_302:\n              pop\n                /* \"CONTRACT/v2-core-master/contracts/UniswapV2Pair.sol\":3807:3848  IUniswapV2Factory(factory).feeToCharity() */\n              mload\n                /* \"CONTRACT/v2-core-master/contracts/UniswapV2Pair.sol\":3911:3916  kLast */\n              sload(0x0b)\n              sub(shl(0xa0, 0x01), 0x01)\n                /* \"CONTRACT/v2-core-master/contracts/UniswapV2Pair.sol\":3867:3886  feeTo != address(0) */\n              dup5\n              and\n              iszero\n              dup1\n              iszero\n              swap6\n              pop\n                /* \"CONTRACT/v2-core-master/contracts/UniswapV2Pair.sol\":3807:3848  IUniswapV2Factory(factory).feeToCharity() */\n              swap2\n              swap3\n              pop\n                /* \"CONTRACT/v2-core-master/contracts/UniswapV2Pair.sol\":3911:3916  kLast */\n              swap1\n                /* \"CONTRACT/v2-core-master/contracts/UniswapV2Pair.sol\":3942:4854  if (feeOn) {\r... */\n              tag_303\n              jumpi\n                /* \"CONTRACT/v2-core-master/contracts/UniswapV2Pair.sol\":3972:3983  _kLast != 0 */\n              dup1\n              iszero\n                /* \"CONTRACT/v2-core-master/contracts/UniswapV2Pair.sol\":3968:4784  if (_kLast != 0) {\r... */\n              tag_304\n              jumpi\n                /* \"CONTRACT/v2-core-master/contracts/UniswapV2Pair.sol\":4004:4014  uint rootK */\n              0x00\n                /* \"CONTRACT/v2-core-master/contracts/UniswapV2Pair.sol\":4017:4058  Math.sqrt(uint(_reserve0).mul(_reserve1)) */\n              tag_305\n                /* \"CONTRACT/v2-core-master/contracts/UniswapV2Pair.sol\":4027:4057  uint(_reserve0).mul(_reserve1) */\n              tag_185\n              sub(shl(0x70, 0x01), 0x01)\n                /* \"CONTRACT/v2-core-master/contracts/UniswapV2Pair.sol\":4027:4042  uint(_reserve0) */\n              dup10\n              dup2\n              and\n              swap1\n                /* \"CONTRACT/v2-core-master/contracts/UniswapV2Pair.sol\":4027:4057  uint(_reserve0).mul(_reserve1) */\n              dup10\n              and\n                /* \"CONTRACT/v2-core-master/contracts/UniswapV2Pair.sol\":4027:4046  uint(_reserve0).mul */\n              tag_145\n                /* \"CONTRACT/v2-core-master/contracts/UniswapV2Pair.sol\":4027:4057  uint(_reserve0).mul(_reserve1) */\n              jump\t// in\n                /* \"CONTRACT/v2-core-master/contracts/UniswapV2Pair.sol\":4017:4058  Math.sqrt(uint(_reserve0).mul(_reserve1)) */\n            tag_305:\n                /* \"CONTRACT/v2-core-master/contracts/UniswapV2Pair.sol\":4004:4058  uint rootK = Math.sqrt(uint(_reserve0).mul(_reserve1)) */\n              swap1\n              pop\n                /* \"CONTRACT/v2-core-master/contracts/UniswapV2Pair.sol\":4077:4091  uint rootKLast */\n              0x00\n                /* \"CONTRACT/v2-core-master/contracts/UniswapV2Pair.sol\":4094:4111  Math.sqrt(_kLast) */\n              tag_307\n                /* \"CONTRACT/v2-core-master/contracts/UniswapV2Pair.sol\":4104:4110  _kLast */\n              dup4\n                /* \"CONTRACT/v2-core-master/contracts/UniswapV2Pair.sol\":4094:4103  Math.sqrt */\n              tag_186\n                /* \"CONTRACT/v2-core-master/contracts/UniswapV2Pair.sol\":4094:4111  Math.sqrt(_kLast) */\n              jump\t// in\n            tag_307:\n                /* \"CONTRACT/v2-core-master/contracts/UniswapV2Pair.sol\":4077:4111  uint rootKLast = Math.sqrt(_kLast) */\n              swap1\n              pop\n                /* \"CONTRACT/v2-core-master/contracts/UniswapV2Pair.sol\":4142:4151  rootKLast */\n              dup1\n                /* \"CONTRACT/v2-core-master/contracts/UniswapV2Pair.sol\":4134:4139  rootK */\n              dup3\n                /* \"CONTRACT/v2-core-master/contracts/UniswapV2Pair.sol\":4134:4151  rootK > rootKLast */\n              gt\n                /* \"CONTRACT/v2-core-master/contracts/UniswapV2Pair.sol\":4130:4769  if (rootK > rootKLast) {\r... */\n              iszero\n              tag_308\n              jumpi\n                /* \"CONTRACT/v2-core-master/contracts/UniswapV2Pair.sol\":4176:4190  uint numerator */\n              0x00\n                /* \"CONTRACT/v2-core-master/contracts/UniswapV2Pair.sol\":4193:4230  totalSupply.mul(rootK.sub(rootKLast)) */\n              tag_309\n                /* \"CONTRACT/v2-core-master/contracts/UniswapV2Pair.sol\":4209:4229  rootK.sub(rootKLast) */\n              tag_310\n                /* \"CONTRACT/v2-core-master/contracts/UniswapV2Pair.sol\":4209:4214  rootK */\n              dup5\n                /* \"CONTRACT/v2-core-master/contracts/UniswapV2Pair.sol\":4219:4228  rootKLast */\n              dup5\n                /* \"CONTRACT/v2-core-master/contracts/UniswapV2Pair.sol\":4209:4229  rootK.sub(rootKLast) */\n              0xffffffff\n                /* \"CONTRACT/v2-core-master/contracts/UniswapV2Pair.sol\":4209:4218  rootK.sub */\n              tag_147\n                /* \"CONTRACT/v2-core-master/contracts/UniswapV2Pair.sol\":4209:4229  rootK.sub(rootKLast) */\n              and\n              jump\t// in\n            tag_310:\n                /* \"CONTRACT/v2-core-master/contracts/UniswapV2Pair.sol\":4193:4204  totalSupply */\n              sload(0x00)\n              swap1\n                /* \"CONTRACT/v2-core-master/contracts/UniswapV2Pair.sol\":4193:4230  totalSupply.mul(rootK.sub(rootKLast)) */\n              0xffffffff\n                /* \"CONTRACT/v2-core-master/contracts/UniswapV2Pair.sol\":4193:4208  totalSupply.mul */\n              tag_145\n                /* \"CONTRACT/v2-core-master/contracts/UniswapV2Pair.sol\":4193:4230  totalSupply.mul(rootK.sub(rootKLast)) */\n              and\n              jump\t// in\n            tag_309:\n                /* \"CONTRACT/v2-core-master/contracts/UniswapV2Pair.sol\":4176:4230  uint numerator = totalSupply.mul(rootK.sub(rootKLast)) */\n              swap1\n              pop\n                /* \"CONTRACT/v2-core-master/contracts/UniswapV2Pair.sol\":4253:4269  uint denominator */\n              0x00\n                /* \"CONTRACT/v2-core-master/contracts/UniswapV2Pair.sol\":4272:4299  rootK.mul(5).add(rootKLast) */\n              tag_311\n                /* \"CONTRACT/v2-core-master/contracts/UniswapV2Pair.sol\":4289:4298  rootKLast */\n              dup4\n                /* \"CONTRACT/v2-core-master/contracts/UniswapV2Pair.sol\":4272:4284  rootK.mul(5) */\n              tag_312\n                /* \"CONTRACT/v2-core-master/contracts/UniswapV2Pair.sol\":4272:4277  rootK */\n              dup7\n                /* \"CONTRACT/v2-core-master/contracts/UniswapV2Pair.sol\":4282:4283  5 */\n              0x05\n                /* \"CONTRACT/v2-core-master/contracts/UniswapV2Pair.sol\":4272:4284  rootK.mul(5) */\n              0xffffffff\n                /* \"CONTRACT/v2-core-master/contracts/UniswapV2Pair.sol\":4272:4281  rootK.mul */\n              tag_145\n                /* \"CONTRACT/v2-core-master/contracts/UniswapV2Pair.sol\":4272:4284  rootK.mul(5) */\n              and\n              jump\t// in\n            tag_312:\n                /* \"CONTRACT/v2-core-master/contracts/UniswapV2Pair.sol\":4272:4288  rootK.mul(5).add */\n              swap1\n                /* \"CONTRACT/v2-core-master/contracts/UniswapV2Pair.sol\":4272:4299  rootK.mul(5).add(rootKLast) */\n              0xffffffff\n                /* \"CONTRACT/v2-core-master/contracts/UniswapV2Pair.sol\":4272:4288  rootK.mul(5).add */\n              tag_295\n                /* \"CONTRACT/v2-core-master/contracts/UniswapV2Pair.sol\":4272:4299  rootK.mul(5).add(rootKLast) */\n              and\n              jump\t// in\n            tag_311:\n                /* \"CONTRACT/v2-core-master/contracts/UniswapV2Pair.sol\":4253:4299  uint denominator = rootK.mul(5).add(rootKLast) */\n              swap1\n              pop\n                /* \"CONTRACT/v2-core-master/contracts/UniswapV2Pair.sol\":4322:4336  uint liquidity */\n              0x00\n                /* \"CONTRACT/v2-core-master/contracts/UniswapV2Pair.sol\":4351:4362  denominator */\n              dup2\n                /* \"CONTRACT/v2-core-master/contracts/UniswapV2Pair.sol\":4339:4348  numerator */\n              dup4\n                /* \"CONTRACT/v2-core-master/contracts/UniswapV2Pair.sol\":4339:4362  numerator / denominator */\n              dup2\n              tag_313\n              jumpi\n              invalid\n            tag_313:\n              div\n              swap1\n              pop\n                /* \"CONTRACT/v2-core-master/contracts/UniswapV2Pair.sol\":4389:4402  liquidity > 0 */\n              dup1\n              iszero\n                /* \"CONTRACT/v2-core-master/contracts/UniswapV2Pair.sol\":4385:4750  if (liquidity > 0) {\r... */\n              tag_320\n              jumpi\n              sub(shl(0xa0, 0x01), 0x01)\n                /* \"CONTRACT/v2-core-master/contracts/UniswapV2Pair.sol\":4435:4461  feeToCharity == address(0) */\n              dup8\n              and\n                /* \"CONTRACT/v2-core-master/contracts/UniswapV2Pair.sol\":4431:4727  if (feeToCharity == address(0)) {\r... */\n              tag_315\n              jumpi\n                /* \"CONTRACT/v2-core-master/contracts/UniswapV2Pair.sol\":4494:4517  _mint(feeTo, liquidity) */\n              tag_316\n                /* \"CONTRACT/v2-core-master/contracts/UniswapV2Pair.sol\":4500:4505  feeTo */\n              dup9\n                /* \"CONTRACT/v2-core-master/contracts/UniswapV2Pair.sol\":4507:4516  liquidity */\n              dup3\n                /* \"CONTRACT/v2-core-master/contracts/UniswapV2Pair.sol\":4494:4499  _mint */\n              tag_188\n                /* \"CONTRACT/v2-core-master/contracts/UniswapV2Pair.sol\":4494:4517  _mint(feeTo, liquidity) */\n              jump\t// in\n            tag_316:\n                /* \"CONTRACT/v2-core-master/contracts/UniswapV2Pair.sol\":4431:4727  if (feeToCharity == address(0)) {\r... */\n              jump(tag_320)\n            tag_315:\n                /* \"CONTRACT/v2-core-master/contracts/UniswapV2Pair.sol\":4607:4634  _mint(feeTo, (liquidity/2)) */\n              tag_318\n                /* \"CONTRACT/v2-core-master/contracts/UniswapV2Pair.sol\":4613:4618  feeTo */\n              dup9\n                /* \"CONTRACT/v2-core-master/contracts/UniswapV2Pair.sol\":4631:4632  2 */\n              0x02\n                /* \"CONTRACT/v2-core-master/contracts/UniswapV2Pair.sol\":4621:4630  liquidity */\n              dup4\n                /* \"CONTRACT/v2-core-master/contracts/UniswapV2Pair.sol\":4621:4632  liquidity/2 */\n            tag_319:\n              div\n                /* \"CONTRACT/v2-core-master/contracts/UniswapV2Pair.sol\":4607:4612  _mint */\n              tag_188\n                /* \"CONTRACT/v2-core-master/contracts/UniswapV2Pair.sol\":4607:4634  _mint(feeTo, (liquidity/2)) */\n              jump\t// in\n            tag_318:\n                /* \"CONTRACT/v2-core-master/contracts/UniswapV2Pair.sol\":4665:4699  _mint(feeToCharity, (liquidity/2)) */\n              tag_320\n                /* \"CONTRACT/v2-core-master/contracts/UniswapV2Pair.sol\":4671:4683  feeToCharity */\n              dup8\n                /* \"CONTRACT/v2-core-master/contracts/UniswapV2Pair.sol\":4696:4697  2 */\n              0x02\n                /* \"CONTRACT/v2-core-master/contracts/UniswapV2Pair.sol\":4686:4695  liquidity */\n              dup4\n                /* \"CONTRACT/v2-core-master/contracts/UniswapV2Pair.sol\":4686:4697  liquidity/2 */\n              jump(tag_319)\n                /* \"CONTRACT/v2-core-master/contracts/UniswapV2Pair.sol\":4665:4699  _mint(feeToCharity, (liquidity/2)) */\n            tag_320:\n                /* \"CONTRACT/v2-core-master/contracts/UniswapV2Pair.sol\":4130:4769  if (rootK > rootKLast) {\r... */\n              pop\n              pop\n              pop\n            tag_308:\n                /* \"CONTRACT/v2-core-master/contracts/UniswapV2Pair.sol\":3968:4784  if (_kLast != 0) {\r... */\n              pop\n              pop\n            tag_304:\n                /* \"CONTRACT/v2-core-master/contracts/UniswapV2Pair.sol\":3942:4854  if (feeOn) {\r... */\n              jump(tag_323)\n            tag_303:\n                /* \"CONTRACT/v2-core-master/contracts/UniswapV2Pair.sol\":4805:4816  _kLast != 0 */\n              dup1\n              iszero\n                /* \"CONTRACT/v2-core-master/contracts/UniswapV2Pair.sol\":4801:4854  if (_kLast != 0) {\r... */\n              tag_323\n              jumpi\n                /* \"CONTRACT/v2-core-master/contracts/UniswapV2Pair.sol\":4841:4842  0 */\n              0x00\n                /* \"CONTRACT/v2-core-master/contracts/UniswapV2Pair.sol\":4833:4838  kLast */\n              0x0b\n                /* \"CONTRACT/v2-core-master/contracts/UniswapV2Pair.sol\":4833:4842  kLast = 0 */\n              sstore\n                /* \"CONTRACT/v2-core-master/contracts/UniswapV2Pair.sol\":4801:4854  if (_kLast != 0) {\r... */\n            tag_323:\n                /* \"CONTRACT/v2-core-master/contracts/UniswapV2Pair.sol\":3627:4861  function _mintFee(uint112 _reserve0, uint112 _reserve1) private returns (bool feeOn) {\r... */\n              pop\n              pop\n              pop\n              swap3\n              swap2\n              pop\n              pop\n              jump\t// out\n                /* \"CONTRACT/v2-core-master/contracts/libraries/Math.sol\":317:620  function sqrt(uint y) internal pure returns (uint z) {\r... */\n            tag_186:\n                /* \"CONTRACT/v2-core-master/contracts/libraries/Math.sol\":362:368  uint z */\n              0x00\n                /* \"CONTRACT/v2-core-master/contracts/libraries/Math.sol\":389:390  3 */\n              0x03\n                /* \"CONTRACT/v2-core-master/contracts/libraries/Math.sol\":385:386  y */\n              dup3\n                /* \"CONTRACT/v2-core-master/contracts/libraries/Math.sol\":385:390  y > 3 */\n              gt\n                /* \"CONTRACT/v2-core-master/contracts/libraries/Math.sol\":381:613  if (y > 3) {\r... */\n              iszero\n              tag_325\n              jumpi\n              pop\n                /* \"CONTRACT/v2-core-master/contracts/libraries/Math.sol\":411:412  y */\n              dup1\n                /* \"CONTRACT/v2-core-master/contracts/libraries/Math.sol\":444:445  1 */\n              0x01\n                /* \"CONTRACT/v2-core-master/contracts/libraries/Math.sol\":440:441  2 */\n              0x02\n                /* \"CONTRACT/v2-core-master/contracts/libraries/Math.sol\":436:441  y / 2 */\n              dup3\n              div\n                /* \"CONTRACT/v2-core-master/contracts/libraries/Math.sol\":436:445  y / 2 + 1 */\n              add\n                /* \"CONTRACT/v2-core-master/contracts/libraries/Math.sol\":460:552  while (x < z) {\r... */\n            tag_327:\n                /* \"CONTRACT/v2-core-master/contracts/libraries/Math.sol\":471:472  z */\n              dup2\n                /* \"CONTRACT/v2-core-master/contracts/libraries/Math.sol\":467:468  x */\n              dup2\n                /* \"CONTRACT/v2-core-master/contracts/libraries/Math.sol\":467:472  x < z */\n              lt\n                /* \"CONTRACT/v2-core-master/contracts/libraries/Math.sol\":460:552  while (x < z) {\r... */\n              iszero\n              tag_328\n              jumpi\n                /* \"CONTRACT/v2-core-master/contracts/libraries/Math.sol\":497:498  x */\n              dup1\n                /* \"CONTRACT/v2-core-master/contracts/libraries/Math.sol\":493:498  z = x */\n              swap2\n              pop\n                /* \"CONTRACT/v2-core-master/contracts/libraries/Math.sol\":535:536  2 */\n              0x02\n                /* \"CONTRACT/v2-core-master/contracts/libraries/Math.sol\":530:531  x */\n              dup2\n                /* \"CONTRACT/v2-core-master/contracts/libraries/Math.sol\":526:527  x */\n              dup3\n                /* \"CONTRACT/v2-core-master/contracts/libraries/Math.sol\":522:523  y */\n              dup6\n                /* \"CONTRACT/v2-core-master/contracts/libraries/Math.sol\":522:527  y / x */\n              dup2\n              tag_329\n              jumpi\n              invalid\n            tag_329:\n              div\n                /* \"CONTRACT/v2-core-master/contracts/libraries/Math.sol\":522:531  y / x + x */\n              add\n                /* \"CONTRACT/v2-core-master/contracts/libraries/Math.sol\":521:536  (y / x + x) / 2 */\n              dup2\n              tag_330\n              jumpi\n              invalid\n            tag_330:\n              div\n                /* \"CONTRACT/v2-core-master/contracts/libraries/Math.sol\":517:536  x = (y / x + x) / 2 */\n              swap1\n              pop\n                /* \"CONTRACT/v2-core-master/contracts/libraries/Math.sol\":460:552  while (x < z) {\r... */\n              jump(tag_327)\n            tag_328:\n                /* \"CONTRACT/v2-core-master/contracts/libraries/Math.sol\":381:613  if (y > 3) {\r... */\n              pop\n              jump(tag_332)\n            tag_325:\n                /* \"CONTRACT/v2-core-master/contracts/libraries/Math.sol\":573:579  y != 0 */\n              dup2\n              iszero\n                /* \"CONTRACT/v2-core-master/contracts/libraries/Math.sol\":569:613  if (y != 0) {\r... */\n              tag_332\n              jumpi\n              pop\n                /* \"CONTRACT/v2-core-master/contracts/libraries/Math.sol\":600:601  1 */\n              0x01\n                /* \"CONTRACT/v2-core-master/contracts/libraries/Math.sol\":569:613  if (y != 0) {\r... */\n            tag_332:\n                /* \"CONTRACT/v2-core-master/contracts/libraries/Math.sol\":317:620  function sqrt(uint y) internal pure returns (uint z) {\r... */\n              swap2\n              swap1\n              pop\n              jump\t// out\n                /* \"CONTRACT/v2-core-master/contracts/UniswapV2ERC20.sol\":1411:1612  function _mint(address to, uint value) internal {\r... */\n            tag_188:\n                /* \"CONTRACT/v2-core-master/contracts/UniswapV2ERC20.sol\":1484:1495  totalSupply */\n              sload(0x00)\n                /* \"CONTRACT/v2-core-master/contracts/UniswapV2ERC20.sol\":1484:1506  totalSupply.add(value) */\n              tag_334\n              swap1\n                /* \"CONTRACT/v2-core-master/contracts/UniswapV2ERC20.sol\":1500:1505  value */\n              dup3\n                /* \"CONTRACT/v2-core-master/contracts/UniswapV2ERC20.sol\":1484:1506  totalSupply.add(value) */\n              0xffffffff\n                /* \"CONTRACT/v2-core-master/contracts/UniswapV2ERC20.sol\":1484:1499  totalSupply.add */\n              tag_295\n                /* \"CONTRACT/v2-core-master/contracts/UniswapV2ERC20.sol\":1484:1506  totalSupply.add(value) */\n              and\n              jump\t// in\n            tag_334:\n                /* \"CONTRACT/v2-core-master/contracts/UniswapV2ERC20.sol\":1470:1481  totalSupply */\n              0x00\n                /* \"CONTRACT/v2-core-master/contracts/UniswapV2ERC20.sol\":1470:1506  totalSupply = totalSupply.add(value) */\n              swap1\n              dup2\n              sstore\n              sub(shl(0xa0, 0x01), 0x01)\n                /* \"CONTRACT/v2-core-master/contracts/UniswapV2ERC20.sol\":1533:1546  balanceOf[to] */\n              dup4\n              and\n              dup2\n              mstore\n              mstore(0x20, 0x01)\n              0x40\n              swap1\n              keccak256\n              sload\n                /* \"CONTRACT/v2-core-master/contracts/UniswapV2ERC20.sol\":1533:1557  balanceOf[to].add(value) */\n              tag_335\n              swap1\n                /* \"CONTRACT/v2-core-master/contracts/UniswapV2ERC20.sol\":1551:1556  value */\n              dup3\n                /* \"CONTRACT/v2-core-master/contracts/UniswapV2ERC20.sol\":1533:1550  balanceOf[to].add */\n              tag_295\n                /* \"CONTRACT/v2-core-master/contracts/UniswapV2ERC20.sol\":1533:1557  balanceOf[to].add(value) */\n              jump\t// in\n            tag_335:\n              sub(shl(0xa0, 0x01), 0x01)\n                /* \"CONTRACT/v2-core-master/contracts/UniswapV2ERC20.sol\":1517:1530  balanceOf[to] */\n              dup4\n              and\n              0x00\n              dup2\n              dup2\n              mstore\n              0x01\n              0x20\n              swap1\n              dup2\n              mstore\n              0x40\n              dup1\n              dup4\n              keccak256\n                /* \"CONTRACT/v2-core-master/contracts/UniswapV2ERC20.sol\":1517:1557  balanceOf[to] = balanceOf[to].add(value) */\n              swap5\n              swap1\n              swap5\n              sstore\n                /* \"CONTRACT/v2-core-master/contracts/UniswapV2ERC20.sol\":1573:1604  Transfer(address(0), to, value) */\n              dup4\n              mload\n              dup6\n              dup2\n              mstore\n              swap4\n              mload\n                /* \"CONTRACT/v2-core-master/contracts/UniswapV2ERC20.sol\":1517:1530  balanceOf[to] */\n              swap3\n              swap4\n              swap2\n              swap3\n                /* \"CONTRACT/v2-core-master/contracts/UniswapV2ERC20.sol\":1573:1604  Transfer(address(0), to, value) */\n              0xddf252ad1be2c89b69c2b068fc378daa952ba7f163c4a11628f55a4df523b3ef\n              swap3\n              dup2\n              swap1\n              sub\n              swap1\n              swap2\n              add\n              swap1\n              log3\n                /* \"CONTRACT/v2-core-master/contracts/UniswapV2ERC20.sol\":1411:1612  function _mint(address to, uint value) internal {\r... */\n              pop\n              pop\n              jump\t// out\n                /* \"CONTRACT/v2-core-master/contracts/libraries/Math.sol\":103:199  function min(uint x, uint y) internal pure returns (uint z) {\r... */\n            tag_195:\n                /* \"CONTRACT/v2-core-master/contracts/libraries/Math.sol\":155:161  uint z */\n              0x00\n                /* \"CONTRACT/v2-core-master/contracts/libraries/Math.sol\":182:183  y */\n              dup2\n                /* \"CONTRACT/v2-core-master/contracts/libraries/Math.sol\":178:179  x */\n              dup4\n                /* \"CONTRACT/v2-core-master/contracts/libraries/Math.sol\":178:183  x < y */\n              lt\n                /* \"CONTRACT/v2-core-master/contracts/libraries/Math.sol\":178:191  x < y ? x : y */\n              tag_337\n              jumpi\n                /* \"CONTRACT/v2-core-master/contracts/libraries/Math.sol\":190:191  y */\n              dup2\n                /* \"CONTRACT/v2-core-master/contracts/libraries/Math.sol\":178:191  x < y ? x : y */\n              jump(tag_338)\n            tag_337:\n                /* \"CONTRACT/v2-core-master/contracts/libraries/Math.sol\":186:187  x */\n              dup3\n                /* \"CONTRACT/v2-core-master/contracts/libraries/Math.sol\":178:191  x < y ? x : y */\n            tag_338:\n                /* \"CONTRACT/v2-core-master/contracts/libraries/Math.sol\":174:191  z = x < y ? x : y */\n              swap4\n                /* \"CONTRACT/v2-core-master/contracts/libraries/Math.sol\":103:199  function min(uint x, uint y) internal pure returns (uint z) {\r... */\n              swap3\n              pop\n              pop\n              pop\n              jump\t// out\n                /* \"CONTRACT/v2-core-master/contracts/UniswapV2ERC20.sol\":1620:1829  function _burn(address from, uint value) internal {\r... */\n            tag_219:\n              sub(shl(0xa0, 0x01), 0x01)\n                /* \"CONTRACT/v2-core-master/contracts/UniswapV2ERC20.sol\":1699:1714  balanceOf[from] */\n              dup3\n              and\n              0x00\n              swap1\n              dup2\n              mstore\n              mstore(0x20, 0x01)\n              0x40\n              swap1\n              keccak256\n              sload\n                /* \"CONTRACT/v2-core-master/contracts/UniswapV2ERC20.sol\":1699:1725  balanceOf[from].sub(value) */\n              tag_340\n              swap1\n                /* \"CONTRACT/v2-core-master/contracts/UniswapV2ERC20.sol\":1719:1724  value */\n              dup3\n                /* \"CONTRACT/v2-core-master/contracts/UniswapV2ERC20.sol\":1699:1718  balanceOf[from].sub */\n              tag_147\n                /* \"CONTRACT/v2-core-master/contracts/UniswapV2ERC20.sol\":1699:1725  balanceOf[from].sub(value) */\n              jump\t// in\n            tag_340:\n              sub(shl(0xa0, 0x01), 0x01)\n                /* \"CONTRACT/v2-core-master/contracts/UniswapV2ERC20.sol\":1681:1696  balanceOf[from] */\n              dup4\n              and\n              0x00\n              swap1\n              dup2\n              mstore\n              mstore(0x20, 0x01)\n              0x40\n              dup2\n              keccak256\n                /* \"CONTRACT/v2-core-master/contracts/UniswapV2ERC20.sol\":1681:1725  balanceOf[from] = balanceOf[from].sub(value) */\n              swap2\n              swap1\n              swap2\n              sstore\n                /* \"CONTRACT/v2-core-master/contracts/UniswapV2ERC20.sol\":1750:1761  totalSupply */\n              sload\n                /* \"CONTRACT/v2-core-master/contracts/UniswapV2ERC20.sol\":1750:1772  totalSupply.sub(value) */\n              tag_341\n              swap1\n                /* \"CONTRACT/v2-core-master/contracts/UniswapV2ERC20.sol\":1766:1771  value */\n              dup3\n                /* \"CONTRACT/v2-core-master/contracts/UniswapV2ERC20.sol\":1750:1765  totalSupply.sub */\n              tag_147\n                /* \"CONTRACT/v2-core-master/contracts/UniswapV2ERC20.sol\":1750:1772  totalSupply.sub(value) */\n              jump\t// in\n            tag_341:\n                /* \"CONTRACT/v2-core-master/contracts/UniswapV2ERC20.sol\":1736:1747  totalSupply */\n              0x00\n                /* \"CONTRACT/v2-core-master/contracts/UniswapV2ERC20.sol\":1736:1772  totalSupply = totalSupply.sub(value) */\n              swap1\n              dup2\n              sstore\n                /* \"CONTRACT/v2-core-master/contracts/UniswapV2ERC20.sol\":1788:1821  Transfer(from, address(0), value) */\n              0x40\n              dup1\n              mload\n              dup4\n              dup2\n              mstore\n              swap1\n              mload\n              sub(shl(0xa0, 0x01), 0x01)\n              dup6\n              and\n              swap2\n              0xddf252ad1be2c89b69c2b068fc378daa952ba7f163c4a11628f55a4df523b3ef\n              swap2\n              swap1\n              dup2\n              swap1\n              sub\n              0x20\n              add\n              swap1\n              log3\n                /* \"CONTRACT/v2-core-master/contracts/UniswapV2ERC20.sol\":1620:1829  function _burn(address from, uint value) internal {\r... */\n              pop\n              pop\n              jump\t// out\n                /* \"CONTRACT/v2-core-master/contracts/libraries/UQ112x112.sol\":294:414  function encode(uint112 y) internal pure returns (uint224 z) {\r... */\n            tag_287:\n              sub(shl(0x70, 0x01), 0x01)\n                /* \"CONTRACT/v2-core-master/contracts/libraries/UQ112x112.sol\":370:380  uint224(y) */\n              and\n              shl(0x70, 0x01)\n                /* \"CONTRACT/v2-core-master/contracts/libraries/UQ112x112.sol\":370:387  uint224(y) * Q112 */\n              mul\n              swap1\n                /* \"CONTRACT/v2-core-master/contracts/libraries/UQ112x112.sol\":294:414  function encode(uint112 y) internal pure returns (uint224 z) {\r... */\n              jump\t// out\n                /* \"CONTRACT/v2-core-master/contracts/libraries/UQ112x112.sol\":485:593  function uqdiv(uint224 x, uint112 y) internal pure returns (uint224 z) {\r... */\n            tag_288:\n                /* \"CONTRACT/v2-core-master/contracts/libraries/UQ112x112.sol\":545:554  uint224 z */\n              0x00\n              sub(shl(0x70, 0x01), 0x01)\n                /* \"CONTRACT/v2-core-master/contracts/libraries/UQ112x112.sol\":575:585  uint224(y) */\n              dup3\n              and\n              sub(shl(0xe0, 0x01), 0x01)\n                /* \"CONTRACT/v2-core-master/contracts/libraries/UQ112x112.sol\":571:585  x / uint224(y) */\n              dup5\n              and\n                /* \"CONTRACT/v2-core-master/contracts/libraries/UQ112x112.sol\":575:585  uint224(y) */\n              dup2\n                /* \"CONTRACT/v2-core-master/contracts/libraries/UQ112x112.sol\":571:585  x / uint224(y) */\n              tag_344\n              jumpi\n              invalid\n            tag_344:\n              div\n              swap4\n                /* \"CONTRACT/v2-core-master/contracts/libraries/UQ112x112.sol\":485:593  function uqdiv(uint224 x, uint112 y) internal pure returns (uint224 z) {\r... */\n              swap3\n              pop\n              pop\n              pop\n              jump\t// out\n                /* \"CONTRACT/v2-core-master/contracts/libraries/SafeMath.sol\":161:289  function add(uint x, uint y) internal pure returns (uint z) {\r... */\n            tag_295:\n                /* \"CONTRACT/v2-core-master/contracts/libraries/SafeMath.sol\":245:250  x + y */\n              dup1\n              dup3\n              add\n                /* \"CONTRACT/v2-core-master/contracts/libraries/SafeMath.sol\":240:256  (z = x + y) >= x */\n              dup3\n              dup2\n              lt\n              iszero\n                /* \"CONTRACT/v2-core-master/contracts/libraries/SafeMath.sol\":232:281  require((z = x + y) >= x, 'ds-math-add-overflow') */\n              tag_158\n              jumpi\n              0x40\n              dup1\n              mload\n              shl(0xe5, 0x461bcd)\n              dup2\n              mstore\n              0x20\n              0x04\n              dup3\n              add\n              mstore\n              0x14\n              0x24\n              dup3\n              add\n              mstore\n              shl(0x60, 0x64732d6d6174682d6164642d6f766572666c6f77)\n              0x44\n              dup3\n              add\n              mstore\n              swap1\n              mload\n              swap1\n              dup2\n              swap1\n              sub\n              0x64\n              add\n              swap1\n              revert\n            stop\n            data_05339493da7e2cbe77e17beadf6b91132eb307939495f5f1797bf88d95539e83 556e697377617056323a20494e53554646494349454e545f4f55545055545f414d4f554e54\n            data_10e2efc32d8a31d3b2c11a545b3ed09c2dbabc58ef6de4033929d0002e425b67 556e697377617056323a20494e53554646494349454e545f494e5055545f414d4f554e54\n            data_3f354ef449b2a9b081220ce21f57691008110b653edc191d8288e60cef58bb5f 556e697377617056323a20494e53554646494349454e545f4c4951554944495459\n            data_57ebfb4dd8b5082cdba0f23c17077e3b0ecb9782a51e0e9a15e9bc8c4b30c562 556e697377617056323a20494e53554646494349454e545f4c49515549444954595f4255524e4544\n            data_6591c9f5bf1fefaad109b76a20e25c857b696080c952191f86220f001a83663e 556e697377617056323a20494e53554646494349454e545f4c49515549444954595f4d494e544544\n\n            auxdata: 0xa265627a7a72315820094baad5305f2978e520362be9abbe94aef3fe1483d413dcd86d08124f60687264736f6c63430005100032\n        }\n    }\n\n    auxdata: 0xa265627a7a72315820b9158d81420418e880925812b2b4232a58bf6e22a945dee7c4d02680220302e164736f6c63430005100032\n}\n",
				"bytecode": {
					"linkReferences": {},
					"object": "608060405234801561001057600080fd5b50604051612cc3380380612cc38339818101604052602081101561003357600080fd5b5051600280546001600160a01b0319166001600160a01b03909216919091179055612c60806100636000396000f3fe608060405234801561001057600080fd5b50600436106100a95760003560e01c8063574f2ba311610071578063574f2ba3146101395780639ebaeb4c14610141578063a2e74af614610149578063c9c653961461016f578063e6a439051461019d578063f46901ed146101cb576100a9565b8063017e7e58146100ae578063063058b3146100d2578063094b7415146100fa5780631e3dd18b14610102578063257671f51461011f575b600080fd5b6100b66101f1565b604080516001600160a01b039092168252519081900360200190f35b6100f8600480360360208110156100e857600080fd5b50356001600160a01b0316610200565b005b6100b6610278565b6100b66004803603602081101561011857600080fd5b5035610287565b6101276102ae565b60408051918252519081900360200190f35b610127610341565b6100b6610347565b6100f86004803603602081101561015f57600080fd5b50356001600160a01b0316610356565b6100b66004803603604081101561018557600080fd5b506001600160a01b03813581169160200135166103ce565b6100b6600480360360408110156101b357600080fd5b506001600160a01b03813581169160200135166106ff565b6100f8600480360360208110156101e157600080fd5b50356001600160a01b0316610725565b6000546001600160a01b031681565b6002546001600160a01b03163314610256576040805162461bcd60e51b81526020600482015260146024820152732ab734b9bbb0b82b191d102327a92124a22222a760611b604482015290519081900360640190fd5b600180546001600160a01b0319166001600160a01b0392909216919091179055565b6002546001600160a01b031681565b6004818154811061029457fe5b6000918252602090912001546001600160a01b0316905081565b6040516102bd6020820161079d565b6020820181038252601f19601f820116604052506040516020018082805190602001908083835b602083106103035780518252601f1990920191602091820191016102e4565b6001836020036101000a0380198251168184511680821785525050505050509050019150506040516020818303038152906040528051906020012081565b60045490565b6001546001600160a01b031681565b6002546001600160a01b031633146103ac576040805162461bcd60e51b81526020600482015260146024820152732ab734b9bbb0b82b191d102327a92124a22222a760611b604482015290519081900360640190fd5b600280546001600160a01b0319166001600160a01b0392909216919091179055565b6000816001600160a01b0316836001600160a01b03161415610437576040805162461bcd60e51b815260206004820152601e60248201527f556e697377617056323a204944454e544943414c5f4144445245535345530000604482015290519081900360640190fd5b600080836001600160a01b0316856001600160a01b03161061045a57838561045d565b84845b90925090506001600160a01b0382166104bd576040805162461bcd60e51b815260206004820152601760248201527f556e697377617056323a205a45524f5f41444452455353000000000000000000604482015290519081900360640190fd5b6001600160a01b03828116600090815260036020908152604080832085851684529091529020541615610530576040805162461bcd60e51b8152602060048201526016602482015275556e697377617056323a20504149525f45584953545360501b604482015290519081900360640190fd5b6060604051806020016105429061079d565b6020820181038252601f19601f8201166040525090506000838360405160200180836001600160a01b03166001600160a01b031660601b8152601401826001600160a01b03166001600160a01b031660601b815260140192505050604051602081830303815290604052805190602001209050808251602084016000f56040805163485cc95560e01b81526001600160a01b038781166004830152868116602483015291519297509087169163485cc9559160448082019260009290919082900301818387803b15801561061557600080fd5b505af1158015610629573d6000803e3d6000fd5b505050506001600160a01b0384811660008181526003602081815260408084208987168086529083528185208054978d166001600160a01b031998891681179091559383528185208686528352818520805488168517905560048054600181018255958190527f8a35acfbc15ff81a39ae7d344fd709f28e8600b4aa8c65c6b64bfe7fe36bd19b90950180549097168417909655925483519283529082015281517f0d3648bd0f6ba80134a33ba9275ac585d9d315f0ad8355cddefde31afa28d0e9929181900390910190a35050505092915050565b60036020908152600092835260408084209091529082529020546001600160a01b031681565b6002546001600160a01b0316331461077b576040805162461bcd60e51b81526020600482015260146024820152732ab734b9bbb0b82b191d102327a92124a22222a760611b604482015290519081900360640190fd5b600080546001600160a01b0319166001600160a01b0392909216919091179055565b612481806107ab8339019056fe60806040526001600c5534801561001557600080fd5b50604051469080605261242f8239604080519182900360520182208282018252600c83526b21b0b934ba37902a37b5b2b760a11b6020938401528151808301835260018152603160f81b908401528151808401919091527f357203f76b0dc025f1d46df98cb82c095adab3c756a9ca87ce6defd809207e04818301527fc89efdaa54c0f20c7adf612882df0950f5a951637e0307cdcb4c672f298b8bc6606082015260808101949094523060a0808601919091528151808603909101815260c09094019052825192019190912060035550600580546001600160a01b03191633179055612328806101076000396000f3fe608060405234801561001057600080fd5b50600436106101a95760003560e01c80636a627842116100f9578063ba9a7a5611610097578063d21220a711610071578063d21220a714610534578063d505accf1461053c578063dd62ed3e1461058d578063fff6cae9146105bb576101a9565b8063ba9a7a56146104fe578063bc25cf7714610506578063c45a01551461052c576101a9565b80637ecebe00116100d35780637ecebe001461046557806389afcb441461048b57806395d89b41146104ca578063a9059cbb146104d2576101a9565b80636a6278421461041157806370a08231146104375780637464fc3d1461045d576101a9565b806323b872dd116101665780633644e515116101405780633644e515146103cb578063485cc955146103d35780635909c0d5146104015780635a3d549314610409576101a9565b806323b872dd1461036f57806330adf81f146103a5578063313ce567146103ad576101a9565b8063022c0d9f146101ae57806306fdde031461023c5780630902f1ac146102b9578063095ea7b3146102f15780630dfe16811461033157806318160ddd14610355575b600080fd5b61023a600480360360808110156101c457600080fd5b8135916020810135916001600160a01b0360408301351691908101906080810160608201356401000000008111156101fb57600080fd5b82018360208201111561020d57600080fd5b8035906020019184600183028401116401000000008311171561022f57600080fd5b5090925090506105c3565b005b610244610afe565b6040805160208082528351818301528351919283929083019185019080838360005b8381101561027e578181015183820152602001610266565b50505050905090810190601f1680156102ab5780820380516001836020036101000a031916815260200191505b509250505060405180910390f35b6102c1610b26565b604080516001600160701b03948516815292909316602083015263ffffffff168183015290519081900360600190f35b61031d6004803603604081101561030757600080fd5b506001600160a01b038135169060200135610b50565b604080519115158252519081900360200190f35b610339610b67565b604080516001600160a01b039092168252519081900360200190f35b61035d610b76565b60408051918252519081900360200190f35b61031d6004803603606081101561038557600080fd5b506001600160a01b03813581169160208101359091169060400135610b7c565b61035d610c16565b6103b5610c3a565b6040805160ff9092168252519081900360200190f35b61035d610c3f565b61023a600480360360408110156103e957600080fd5b506001600160a01b0381358116916020013516610c45565b61035d610cc9565b61035d610ccf565b61035d6004803603602081101561042757600080fd5b50356001600160a01b0316610cd5565b61035d6004803603602081101561044d57600080fd5b50356001600160a01b0316610fd5565b61035d610fe7565b61035d6004803603602081101561047b57600080fd5b50356001600160a01b0316610fed565b6104b1600480360360208110156104a157600080fd5b50356001600160a01b0316610fff565b6040805192835260208301919091528051918290030190f35b6102446113a5565b61031d600480360360408110156104e857600080fd5b506001600160a01b0381351690602001356113c7565b61035d6113d4565b61023a6004803603602081101561051c57600080fd5b50356001600160a01b03166113da565b610339611545565b610339611554565b61023a600480360360e081101561055257600080fd5b506001600160a01b03813581169160208101359091169060408101359060608101359060ff6080820135169060a08101359060c00135611563565b61035d600480360360408110156105a357600080fd5b506001600160a01b0381358116916020013516611765565b61023a611782565b600c5460011461060e576040805162461bcd60e51b8152602060048201526011602482015270155b9a5cddd85c158c8e881313d0d2d151607a1b604482015290519081900360640190fd5b6000600c55841515806106215750600084115b61065c5760405162461bcd60e51b815260040180806020018281038252602581526020018061223a6025913960400191505060405180910390fd5b600080610667610b26565b5091509150816001600160701b03168710801561068c5750806001600160701b031686105b6106c75760405162461bcd60e51b81526004018080602001828103825260218152602001806122836021913960400191505060405180910390fd5b60065460075460009182916001600160a01b039182169190811690891682148015906107055750806001600160a01b0316896001600160a01b031614155b61074e576040805162461bcd60e51b8152602060048201526015602482015274556e697377617056323a20494e56414c49445f544f60581b604482015290519081900360640190fd5b8a1561075f5761075f828a8d6118e4565b891561077057610770818a8c6118e4565b861561082b57886001600160a01b03166310d1e85c338d8d8c8c6040518663ffffffff1660e01b815260040180866001600160a01b03166001600160a01b03168152602001858152602001848152602001806020018281038252848482818152602001925080828437600081840152601f19601f8201169050808301925050509650505050505050600060405180830381600087803b15801561081257600080fd5b505af1158015610826573d6000803e3d6000fd5b505050505b604080516370a0823160e01b815230600482015290516001600160a01b038416916370a08231916024808301926020929190829003018186803b15801561087157600080fd5b505afa158015610885573d6000803e3d6000fd5b505050506040513d602081101561089b57600080fd5b5051604080516370a0823160e01b815230600482015290519195506001600160a01b038316916370a0823191602480820192602092909190829003018186803b1580156108e757600080fd5b505afa1580156108fb573d6000803e3d6000fd5b505050506040513d602081101561091157600080fd5b5051925060009150506001600160701b0385168a90038311610934576000610943565b89856001600160701b03160383035b9050600089856001600160701b031603831161096057600061096f565b89856001600160701b03160383035b905060008211806109805750600081115b6109bb5760405162461bcd60e51b815260040180806020018281038252602481526020018061225f6024913960400191505060405180910390fd5b60006109ef6109d184600363ffffffff611a7e16565b6109e3876103e863ffffffff611a7e16565b9063ffffffff611ae116565b90506000610a076109d184600363ffffffff611a7e16565b9050610a38620f4240610a2c6001600160701b038b8116908b1663ffffffff611a7e16565b9063ffffffff611a7e16565b610a48838363ffffffff611a7e16565b1015610a8a576040805162461bcd60e51b815260206004820152600c60248201526b556e697377617056323a204b60a01b604482015290519081900360640190fd5b5050610a9884848888611b31565b60408051838152602081018390528082018d9052606081018c905290516001600160a01b038b169133917fd78ad95fa46c994b6551d0da85fc275fe613ce37657fb8d5e3d130840159d8229181900360800190a350506001600c55505050505050505050565b6040518060400160405280600c81526020016b21b0b934ba37902a37b5b2b760a11b81525081565b6008546001600160701b0380821692600160701b830490911691600160e01b900463ffffffff1690565b6000610b5d338484611cf6565b5060015b92915050565b6006546001600160a01b031681565b60005481565b6001600160a01b038316600090815260026020908152604080832033845290915281205460001914610c01576001600160a01b0384166000908152600260209081526040808320338452909152902054610bdc908363ffffffff611ae116565b6001600160a01b03851660009081526002602090815260408083203384529091529020555b610c0c848484611d58565b5060019392505050565b7f6e71edae12b1b97f4d1f60370fef10105fa2faae0126114a169c64845d6126c981565b601281565b60035481565b6005546001600160a01b03163314610c9b576040805162461bcd60e51b81526020600482015260146024820152732ab734b9bbb0b82b191d102327a92124a22222a760611b604482015290519081900360640190fd5b600680546001600160a01b039384166001600160a01b03199182161790915560078054929093169116179055565b60095481565b600a5481565b6000600c54600114610d22576040805162461bcd60e51b8152602060048201526011602482015270155b9a5cddd85c158c8e881313d0d2d151607a1b604482015290519081900360640190fd5b6000600c81905580610d32610b26565b50600654604080516370a0823160e01b815230600482015290519395509193506000926001600160a01b03909116916370a08231916024808301926020929190829003018186803b158015610d8657600080fd5b505afa158015610d9a573d6000803e3d6000fd5b505050506040513d6020811015610db057600080fd5b5051600754604080516370a0823160e01b815230600482015290519293506000926001600160a01b03909216916370a0823191602480820192602092909190829003018186803b158015610e0357600080fd5b505afa158015610e17573d6000803e3d6000fd5b505050506040513d6020811015610e2d57600080fd5b505190506000610e4c836001600160701b03871663ffffffff611ae116565b90506000610e69836001600160701b03871663ffffffff611ae116565b90506000610e778787611e12565b60005490915080610eb457610ea06103e86109e3610e9b878763ffffffff611a7e16565b612015565b9850610eaf60006103e8612067565b610f03565b610f006001600160701b038916610ed1868463ffffffff611a7e16565b81610ed857fe5b046001600160701b038916610ef3868563ffffffff611a7e16565b81610efa57fe5b046120fd565b98505b60008911610f425760405162461bcd60e51b81526004018080602001828103825260288152602001806122cc6028913960400191505060405180910390fd5b610f4c8a8a612067565b610f5886868a8a611b31565b8115610f8857600854610f84906001600160701b0380821691600160701b90041663ffffffff611a7e16565b600b555b6040805185815260208101859052815133927f4c209b5fc8ad50758f13e2e1088ba56a560dff690a1c6fef26394f4c03821c4f928290030190a250506001600c5550949695505050505050565b60016020526000908152604090205481565b600b5481565b60046020526000908152604090205481565b600080600c5460011461104d576040805162461bcd60e51b8152602060048201526011602482015270155b9a5cddd85c158c8e881313d0d2d151607a1b604482015290519081900360640190fd5b6000600c8190558061105d610b26565b50600654600754604080516370a0823160e01b815230600482015290519496509294506001600160a01b039182169391169160009184916370a08231916024808301926020929190829003018186803b1580156110b957600080fd5b505afa1580156110cd573d6000803e3d6000fd5b505050506040513d60208110156110e357600080fd5b5051604080516370a0823160e01b815230600482015290519192506000916001600160a01b038516916370a08231916024808301926020929190829003018186803b15801561113157600080fd5b505afa158015611145573d6000803e3d6000fd5b505050506040513d602081101561115b57600080fd5b50513060009081526001602052604081205491925061117a8888611e12565b60005490915080611191848763ffffffff611a7e16565b8161119857fe5b049a50806111ac848663ffffffff611a7e16565b816111b357fe5b04995060008b1180156111c6575060008a115b6112015760405162461bcd60e51b81526004018080602001828103825260288152602001806122a46028913960400191505060405180910390fd5b61120b3084612115565b611216878d8d6118e4565b611221868d8c6118e4565b604080516370a0823160e01b815230600482015290516001600160a01b038916916370a08231916024808301926020929190829003018186803b15801561126757600080fd5b505afa15801561127b573d6000803e3d6000fd5b505050506040513d602081101561129157600080fd5b5051604080516370a0823160e01b815230600482015290519196506001600160a01b038816916370a0823191602480820192602092909190829003018186803b1580156112dd57600080fd5b505afa1580156112f1573d6000803e3d6000fd5b505050506040513d602081101561130757600080fd5b5051935061131785858b8b611b31565b811561134757600854611343906001600160701b0380821691600160701b90041663ffffffff611a7e16565b600b555b604080518c8152602081018c905281516001600160a01b038f169233927fdccd412f0b1252819cb1fd330b93224ca42612892bb3f4f789976e6d81936496929081900390910190a35050505050505050506001600c81905550915091565b6040518060400160405280600681526020016543415249544f60d01b81525081565b6000610b5d338484611d58565b6103e881565b600c54600114611425576040805162461bcd60e51b8152602060048201526011602482015270155b9a5cddd85c158c8e881313d0d2d151607a1b604482015290519081900360640190fd5b6000600c55600654600754600854604080516370a0823160e01b815230600482015290516001600160a01b0394851694909316926114d492859287926114cf926001600160701b03169185916370a0823191602480820192602092909190829003018186803b15801561149757600080fd5b505afa1580156114ab573d6000803e3d6000fd5b505050506040513d60208110156114c157600080fd5b50519063ffffffff611ae116565b6118e4565b600854604080516370a0823160e01b8152306004820152905161153b92849287926114cf92600160701b90046001600160701b0316916001600160a01b038616916370a0823191602480820192602092909190829003018186803b15801561149757600080fd5b50506001600c5550565b6005546001600160a01b031681565b6007546001600160a01b031681565b428410156115ad576040805162461bcd60e51b8152602060048201526012602482015271155b9a5cddd85c158c8e881156141254915160721b604482015290519081900360640190fd5b6003546001600160a01b0380891660008181526004602090815260408083208054600180820190925582517f6e71edae12b1b97f4d1f60370fef10105fa2faae0126114a169c64845d6126c98186015280840196909652958d166060860152608085018c905260a085019590955260c08085018b90528151808603909101815260e08501825280519083012061190160f01b6101008601526101028501969096526101228085019690965280518085039096018652610142840180825286519683019690962095839052610162840180825286905260ff89166101828501526101a284018890526101c28401879052519193926101e280820193601f1981019281900390910190855afa1580156116c8573d6000803e3d6000fd5b5050604051601f1901519150506001600160a01b038116158015906116fe5750886001600160a01b0316816001600160a01b0316145b61174f576040805162461bcd60e51b815260206004820152601c60248201527f556e697377617056323a20494e56414c49445f5349474e415455524500000000604482015290519081900360640190fd5b61175a898989611cf6565b505050505050505050565b600260209081526000928352604080842090915290825290205481565b600c546001146117cd576040805162461bcd60e51b8152602060048201526011602482015270155b9a5cddd85c158c8e881313d0d2d151607a1b604482015290519081900360640190fd5b6000600c55600654604080516370a0823160e01b815230600482015290516118dd926001600160a01b0316916370a08231916024808301926020929190829003018186803b15801561181e57600080fd5b505afa158015611832573d6000803e3d6000fd5b505050506040513d602081101561184857600080fd5b5051600754604080516370a0823160e01b815230600482015290516001600160a01b03909216916370a0823191602480820192602092909190829003018186803b15801561189557600080fd5b505afa1580156118a9573d6000803e3d6000fd5b505050506040513d60208110156118bf57600080fd5b50516008546001600160701b0380821691600160701b900416611b31565b6001600c55565b604080518082018252601981527f7472616e7366657228616464726573732c75696e74323536290000000000000060209182015281516001600160a01b0385811660248301526044808301869052845180840390910181526064909201845291810180516001600160e01b031663a9059cbb60e01b1781529251815160009460609489169392918291908083835b602083106119915780518252601f199092019160209182019101611972565b6001836020036101000a0380198251168184511680821785525050505050509050019150506000604051808303816000865af19150503d80600081146119f3576040519150601f19603f3d011682016040523d82523d6000602084013e6119f8565b606091505b5091509150818015611a26575080511580611a265750808060200190516020811015611a2357600080fd5b50515b611a77576040805162461bcd60e51b815260206004820152601a60248201527f556e697377617056323a205452414e534645525f4641494c4544000000000000604482015290519081900360640190fd5b5050505050565b6000811580611a9957505080820282828281611a9657fe5b04145b610b61576040805162461bcd60e51b815260206004820152601460248201527364732d6d6174682d6d756c2d6f766572666c6f7760601b604482015290519081900360640190fd5b80820382811115610b61576040805162461bcd60e51b815260206004820152601560248201527464732d6d6174682d7375622d756e646572666c6f7760581b604482015290519081900360640190fd5b6001600160701b038411801590611b4f57506001600160701b038311155b611b96576040805162461bcd60e51b8152602060048201526013602482015272556e697377617056323a204f564552464c4f5760681b604482015290519081900360640190fd5b60085463ffffffff42811691600160e01b90048116820390811615801590611bc657506001600160701b03841615155b8015611bda57506001600160701b03831615155b15611c4b578063ffffffff16611c0885611bf3866121b3565b6001600160e01b03169063ffffffff6121c516565b600980546001600160e01b03929092169290920201905563ffffffff8116611c3384611bf3876121b3565b600a80546001600160e01b0392909216929092020190555b600880546dffffffffffffffffffffffffffff19166001600160701b03888116919091176dffffffffffffffffffffffffffff60701b1916600160701b8883168102919091176001600160e01b0316600160e01b63ffffffff871602179283905560408051848416815291909304909116602082015281517f1c411e9a96e071241c2f21f7726b17ae89e3cab4c78be50e062b03a9fffbbad1929181900390910190a1505050505050565b6001600160a01b03808416600081815260026020908152604080832094871680845294825291829020859055815185815291517f8c5be1e5ebec7d5bd14f71427d1e84f3dd0314c0f7b2291e5b200ac8c7c3b9259281900390910190a3505050565b6001600160a01b038316600090815260016020526040902054611d81908263ffffffff611ae116565b6001600160a01b038085166000908152600160205260408082209390935590841681522054611db6908263ffffffff6121ea16565b6001600160a01b0380841660008181526001602090815260409182902094909455805185815290519193928716927fddf252ad1be2c89b69c2b068fc378daa952ba7f163c4a11628f55a4df523b3ef92918290030190a3505050565b600080600560009054906101000a90046001600160a01b03166001600160a01b031663017e7e586040518163ffffffff1660e01b815260040160206040518083038186803b158015611e6357600080fd5b505afa158015611e77573d6000803e3d6000fd5b505050506040513d6020811015611e8d57600080fd5b5051600554604080516327aebad360e21b815290519293506000926001600160a01b0390921691639ebaeb4c91600480820192602092909190829003018186803b158015611eda57600080fd5b505afa158015611eee573d6000803e3d6000fd5b505050506040513d6020811015611f0457600080fd5b5051600b546001600160a01b038416158015955091925090612000578015611ffb576000611f47610e9b6001600160701b0389811690891663ffffffff611a7e16565b90506000611f5483612015565b905080821115611ff8576000611f82611f73848463ffffffff611ae116565b6000549063ffffffff611a7e16565b90506000611fa783611f9b86600563ffffffff611a7e16565b9063ffffffff6121ea16565b90506000818381611fb457fe5b0490508015611ff4576001600160a01b038716611fda57611fd58882612067565b611ff4565b611fe8886002835b04612067565b611ff487600283611fe2565b5050505b50505b61200c565b801561200c576000600b555b50505092915050565b60006003821115612058575080600160028204015b818110156120525780915060028182858161204157fe5b04018161204a57fe5b04905061202a565b50612062565b8115612062575060015b919050565b60005461207a908263ffffffff6121ea16565b60009081556001600160a01b0383168152600160205260409020546120a5908263ffffffff6121ea16565b6001600160a01b03831660008181526001602090815260408083209490945583518581529351929391927fddf252ad1be2c89b69c2b068fc378daa952ba7f163c4a11628f55a4df523b3ef9281900390910190a35050565b600081831061210c578161210e565b825b9392505050565b6001600160a01b03821660009081526001602052604090205461213e908263ffffffff611ae116565b6001600160a01b0383166000908152600160205260408120919091555461216b908263ffffffff611ae116565b60009081556040805183815290516001600160a01b038516917fddf252ad1be2c89b69c2b068fc378daa952ba7f163c4a11628f55a4df523b3ef919081900360200190a35050565b6001600160701b0316600160701b0290565b60006001600160701b0382166001600160e01b038416816121e257fe5b049392505050565b80820182811015610b61576040805162461bcd60e51b815260206004820152601460248201527364732d6d6174682d6164642d6f766572666c6f7760601b604482015290519081900360640190fdfe556e697377617056323a20494e53554646494349454e545f4f55545055545f414d4f554e54556e697377617056323a20494e53554646494349454e545f494e5055545f414d4f554e54556e697377617056323a20494e53554646494349454e545f4c4951554944495459556e697377617056323a20494e53554646494349454e545f4c49515549444954595f4255524e4544556e697377617056323a20494e53554646494349454e545f4c49515549444954595f4d494e544544a265627a7a72315820094baad5305f2978e520362be9abbe94aef3fe1483d413dcd86d08124f60687264736f6c63430005100032454950373132446f6d61696e28737472696e67206e616d652c737472696e672076657273696f6e2c75696e7432353620636861696e49642c6164647265737320766572696679696e67436f6e747261637429a265627a7a72315820b9158d81420418e880925812b2b4232a58bf6e22a945dee7c4d02680220302e164736f6c63430005100032",
					"opcodes": "PUSH1 0x80 PUSH1 0x40 MSTORE CALLVALUE DUP1 ISZERO PUSH2 0x10 JUMPI PUSH1 0x0 DUP1 REVERT JUMPDEST POP PUSH1 0x40 MLOAD PUSH2 0x2CC3 CODESIZE SUB DUP1 PUSH2 0x2CC3 DUP4 CODECOPY DUP2 DUP2 ADD PUSH1 0x40 MSTORE PUSH1 0x20 DUP2 LT ISZERO PUSH2 0x33 JUMPI PUSH1 0x0 DUP1 REVERT JUMPDEST POP MLOAD PUSH1 0x2 DUP1 SLOAD PUSH1 0x1 PUSH1 0x1 PUSH1 0xA0 SHL SUB NOT AND PUSH1 0x1 PUSH1 0x1 PUSH1 0xA0 SHL SUB SWAP1 SWAP3 AND SWAP2 SWAP1 SWAP2 OR SWAP1 SSTORE PUSH2 0x2C60 DUP1 PUSH2 0x63 PUSH1 0x0 CODECOPY PUSH1 0x0 RETURN INVALID PUSH1 0x80 PUSH1 0x40 MSTORE CALLVALUE DUP1 ISZERO PUSH2 0x10 JUMPI PUSH1 0x0 DUP1 REVERT JUMPDEST POP PUSH1 0x4 CALLDATASIZE LT PUSH2 0xA9 JUMPI PUSH1 0x0 CALLDATALOAD PUSH1 0xE0 SHR DUP1 PUSH4 0x574F2BA3 GT PUSH2 0x71 JUMPI DUP1 PUSH4 0x574F2BA3 EQ PUSH2 0x139 JUMPI DUP1 PUSH4 0x9EBAEB4C EQ PUSH2 0x141 JUMPI DUP1 PUSH4 0xA2E74AF6 EQ PUSH2 0x149 JUMPI DUP1 PUSH4 0xC9C65396 EQ PUSH2 0x16F JUMPI DUP1 PUSH4 0xE6A43905 EQ PUSH2 0x19D JUMPI DUP1 PUSH4 0xF46901ED EQ PUSH2 0x1CB JUMPI PUSH2 0xA9 JUMP JUMPDEST DUP1 PUSH4 0x17E7E58 EQ PUSH2 0xAE JUMPI DUP1 PUSH4 0x63058B3 EQ PUSH2 0xD2 JUMPI DUP1 PUSH4 0x94B7415 EQ PUSH2 0xFA JUMPI DUP1 PUSH4 0x1E3DD18B EQ PUSH2 0x102 JUMPI DUP1 PUSH4 0x257671F5 EQ PUSH2 0x11F JUMPI JUMPDEST PUSH1 0x0 DUP1 REVERT JUMPDEST PUSH2 0xB6 PUSH2 0x1F1 JUMP JUMPDEST PUSH1 0x40 DUP1 MLOAD PUSH1 0x1 PUSH1 0x1 PUSH1 0xA0 SHL SUB SWAP1 SWAP3 AND DUP3 MSTORE MLOAD SWAP1 DUP2 SWAP1 SUB PUSH1 0x20 ADD SWAP1 RETURN JUMPDEST PUSH2 0xF8 PUSH1 0x4 DUP1 CALLDATASIZE SUB PUSH1 0x20 DUP2 LT ISZERO PUSH2 0xE8 JUMPI PUSH1 0x0 DUP1 REVERT JUMPDEST POP CALLDATALOAD PUSH1 0x1 PUSH1 0x1 PUSH1 0xA0 SHL SUB AND PUSH2 0x200 JUMP JUMPDEST STOP JUMPDEST PUSH2 0xB6 PUSH2 0x278 JUMP JUMPDEST PUSH2 0xB6 PUSH1 0x4 DUP1 CALLDATASIZE SUB PUSH1 0x20 DUP2 LT ISZERO PUSH2 0x118 JUMPI PUSH1 0x0 DUP1 REVERT JUMPDEST POP CALLDATALOAD PUSH2 0x287 JUMP JUMPDEST PUSH2 0x127 PUSH2 0x2AE JUMP JUMPDEST PUSH1 0x40 DUP1 MLOAD SWAP2 DUP3 MSTORE MLOAD SWAP1 DUP2 SWAP1 SUB PUSH1 0x20 ADD SWAP1 RETURN JUMPDEST PUSH2 0x127 PUSH2 0x341 JUMP JUMPDEST PUSH2 0xB6 PUSH2 0x347 JUMP JUMPDEST PUSH2 0xF8 PUSH1 0x4 DUP1 CALLDATASIZE SUB PUSH1 0x20 DUP2 LT ISZERO PUSH2 0x15F JUMPI PUSH1 0x0 DUP1 REVERT JUMPDEST POP CALLDATALOAD PUSH1 0x1 PUSH1 0x1 PUSH1 0xA0 SHL SUB AND PUSH2 0x356 JUMP JUMPDEST PUSH2 0xB6 PUSH1 0x4 DUP1 CALLDATASIZE SUB PUSH1 0x40 DUP2 LT ISZERO PUSH2 0x185 JUMPI PUSH1 0x0 DUP1 REVERT JUMPDEST POP PUSH1 0x1 PUSH1 0x1 PUSH1 0xA0 SHL SUB DUP2 CALLDATALOAD DUP2 AND SWAP2 PUSH1 0x20 ADD CALLDATALOAD AND PUSH2 0x3CE JUMP JUMPDEST PUSH2 0xB6 PUSH1 0x4 DUP1 CALLDATASIZE SUB PUSH1 0x40 DUP2 LT ISZERO PUSH2 0x1B3 JUMPI PUSH1 0x0 DUP1 REVERT JUMPDEST POP PUSH1 0x1 PUSH1 0x1 PUSH1 0xA0 SHL SUB DUP2 CALLDATALOAD DUP2 AND SWAP2 PUSH1 0x20 ADD CALLDATALOAD AND PUSH2 0x6FF JUMP JUMPDEST PUSH2 0xF8 PUSH1 0x4 DUP1 CALLDATASIZE SUB PUSH1 0x20 DUP2 LT ISZERO PUSH2 0x1E1 JUMPI PUSH1 0x0 DUP1 REVERT JUMPDEST POP CALLDATALOAD PUSH1 0x1 PUSH1 0x1 PUSH1 0xA0 SHL SUB AND PUSH2 0x725 JUMP JUMPDEST PUSH1 0x0 SLOAD PUSH1 0x1 PUSH1 0x1 PUSH1 0xA0 SHL SUB AND DUP2 JUMP JUMPDEST PUSH1 0x2 SLOAD PUSH1 0x1 PUSH1 0x1 PUSH1 0xA0 SHL SUB AND CALLER EQ PUSH2 0x256 JUMPI PUSH1 0x40 DUP1 MLOAD PUSH3 0x461BCD PUSH1 0xE5 SHL DUP2 MSTORE PUSH1 0x20 PUSH1 0x4 DUP3 ADD MSTORE PUSH1 0x14 PUSH1 0x24 DUP3 ADD MSTORE PUSH20 0x2AB734B9BBB0B82B191D102327A92124A22222A7 PUSH1 0x61 SHL PUSH1 0x44 DUP3 ADD MSTORE SWAP1 MLOAD SWAP1 DUP2 SWAP1 SUB PUSH1 0x64 ADD SWAP1 REVERT JUMPDEST PUSH1 0x1 DUP1 SLOAD PUSH1 0x1 PUSH1 0x1 PUSH1 0xA0 SHL SUB NOT AND PUSH1 0x1 PUSH1 0x1 PUSH1 0xA0 SHL SUB SWAP3 SWAP1 SWAP3 AND SWAP2 SWAP1 SWAP2 OR SWAP1 SSTORE JUMP JUMPDEST PUSH1 0x2 SLOAD PUSH1 0x1 PUSH1 0x1 PUSH1 0xA0 SHL SUB AND DUP2 JUMP JUMPDEST PUSH1 0x4 DUP2 DUP2 SLOAD DUP2 LT PUSH2 0x294 JUMPI INVALID JUMPDEST PUSH1 0x0 SWAP2 DUP3 MSTORE PUSH1 0x20 SWAP1 SWAP2 KECCAK256 ADD SLOAD PUSH1 0x1 PUSH1 0x1 PUSH1 0xA0 SHL SUB AND SWAP1 POP DUP2 JUMP JUMPDEST PUSH1 0x40 MLOAD PUSH2 0x2BD PUSH1 0x20 DUP3 ADD PUSH2 0x79D JUMP JUMPDEST PUSH1 0x20 DUP3 ADD DUP2 SUB DUP3 MSTORE PUSH1 0x1F NOT PUSH1 0x1F DUP3 ADD AND PUSH1 0x40 MSTORE POP PUSH1 0x40 MLOAD PUSH1 0x20 ADD DUP1 DUP3 DUP1 MLOAD SWAP1 PUSH1 0x20 ADD SWAP1 DUP1 DUP4 DUP4 JUMPDEST PUSH1 0x20 DUP4 LT PUSH2 0x303 JUMPI DUP1 MLOAD DUP3 MSTORE PUSH1 0x1F NOT SWAP1 SWAP3 ADD SWAP2 PUSH1 0x20 SWAP2 DUP3 ADD SWAP2 ADD PUSH2 0x2E4 JUMP JUMPDEST PUSH1 0x1 DUP4 PUSH1 0x20 SUB PUSH2 0x100 EXP SUB DUP1 NOT DUP3 MLOAD AND DUP2 DUP5 MLOAD AND DUP1 DUP3 OR DUP6 MSTORE POP POP POP POP POP POP SWAP1 POP ADD SWAP2 POP POP PUSH1 0x40 MLOAD PUSH1 0x20 DUP2 DUP4 SUB SUB DUP2 MSTORE SWAP1 PUSH1 0x40 MSTORE DUP1 MLOAD SWAP1 PUSH1 0x20 ADD KECCAK256 DUP2 JUMP JUMPDEST PUSH1 0x4 SLOAD SWAP1 JUMP JUMPDEST PUSH1 0x1 SLOAD PUSH1 0x1 PUSH1 0x1 PUSH1 0xA0 SHL SUB AND DUP2 JUMP JUMPDEST PUSH1 0x2 SLOAD PUSH1 0x1 PUSH1 0x1 PUSH1 0xA0 SHL SUB AND CALLER EQ PUSH2 0x3AC JUMPI PUSH1 0x40 DUP1 MLOAD PUSH3 0x461BCD PUSH1 0xE5 SHL DUP2 MSTORE PUSH1 0x20 PUSH1 0x4 DUP3 ADD MSTORE PUSH1 0x14 PUSH1 0x24 DUP3 ADD MSTORE PUSH20 0x2AB734B9BBB0B82B191D102327A92124A22222A7 PUSH1 0x61 SHL PUSH1 0x44 DUP3 ADD MSTORE SWAP1 MLOAD SWAP1 DUP2 SWAP1 SUB PUSH1 0x64 ADD SWAP1 REVERT JUMPDEST PUSH1 0x2 DUP1 SLOAD PUSH1 0x1 PUSH1 0x1 PUSH1 0xA0 SHL SUB NOT AND PUSH1 0x1 PUSH1 0x1 PUSH1 0xA0 SHL SUB SWAP3 SWAP1 SWAP3 AND SWAP2 SWAP1 SWAP2 OR SWAP1 SSTORE JUMP JUMPDEST PUSH1 0x0 DUP2 PUSH1 0x1 PUSH1 0x1 PUSH1 0xA0 SHL SUB AND DUP4 PUSH1 0x1 PUSH1 0x1 PUSH1 0xA0 SHL SUB AND EQ ISZERO PUSH2 0x437 JUMPI PUSH1 0x40 DUP1 MLOAD PUSH3 0x461BCD PUSH1 0xE5 SHL DUP2 MSTORE PUSH1 0x20 PUSH1 0x4 DUP3 ADD MSTORE PUSH1 0x1E PUSH1 0x24 DUP3 ADD MSTORE PUSH32 0x556E697377617056323A204944454E544943414C5F4144445245535345530000 PUSH1 0x44 DUP3 ADD MSTORE SWAP1 MLOAD SWAP1 DUP2 SWAP1 SUB PUSH1 0x64 ADD SWAP1 REVERT JUMPDEST PUSH1 0x0 DUP1 DUP4 PUSH1 0x1 PUSH1 0x1 PUSH1 0xA0 SHL SUB AND DUP6 PUSH1 0x1 PUSH1 0x1 PUSH1 0xA0 SHL SUB AND LT PUSH2 0x45A JUMPI DUP4 DUP6 PUSH2 0x45D JUMP JUMPDEST DUP5 DUP5 JUMPDEST SWAP1 SWAP3 POP SWAP1 POP PUSH1 0x1 PUSH1 0x1 PUSH1 0xA0 SHL SUB DUP3 AND PUSH2 0x4BD JUMPI PUSH1 0x40 DUP1 MLOAD PUSH3 0x461BCD PUSH1 0xE5 SHL DUP2 MSTORE PUSH1 0x20 PUSH1 0x4 DUP3 ADD MSTORE PUSH1 0x17 PUSH1 0x24 DUP3 ADD MSTORE PUSH32 0x556E697377617056323A205A45524F5F41444452455353000000000000000000 PUSH1 0x44 DUP3 ADD MSTORE SWAP1 MLOAD SWAP1 DUP2 SWAP1 SUB PUSH1 0x64 ADD SWAP1 REVERT JUMPDEST PUSH1 0x1 PUSH1 0x1 PUSH1 0xA0 SHL SUB DUP3 DUP2 AND PUSH1 0x0 SWAP1 DUP2 MSTORE PUSH1 0x3 PUSH1 0x20 SWAP1 DUP2 MSTORE PUSH1 0x40 DUP1 DUP4 KECCAK256 DUP6 DUP6 AND DUP5 MSTORE SWAP1 SWAP2 MSTORE SWAP1 KECCAK256 SLOAD AND ISZERO PUSH2 0x530 JUMPI PUSH1 0x40 DUP1 MLOAD PUSH3 0x461BCD PUSH1 0xE5 SHL DUP2 MSTORE PUSH1 0x20 PUSH1 0x4 DUP3 ADD MSTORE PUSH1 0x16 PUSH1 0x24 DUP3 ADD MSTORE PUSH22 0x556E697377617056323A20504149525F455849535453 PUSH1 0x50 SHL PUSH1 0x44 DUP3 ADD MSTORE SWAP1 MLOAD SWAP1 DUP2 SWAP1 SUB PUSH1 0x64 ADD SWAP1 REVERT JUMPDEST PUSH1 0x60 PUSH1 0x40 MLOAD DUP1 PUSH1 0x20 ADD PUSH2 0x542 SWAP1 PUSH2 0x79D JUMP JUMPDEST PUSH1 0x20 DUP3 ADD DUP2 SUB DUP3 MSTORE PUSH1 0x1F NOT PUSH1 0x1F DUP3 ADD AND PUSH1 0x40 MSTORE POP SWAP1 POP PUSH1 0x0 DUP4 DUP4 PUSH1 0x40 MLOAD PUSH1 0x20 ADD DUP1 DUP4 PUSH1 0x1 PUSH1 0x1 PUSH1 0xA0 SHL SUB AND PUSH1 0x1 PUSH1 0x1 PUSH1 0xA0 SHL SUB AND PUSH1 0x60 SHL DUP2 MSTORE PUSH1 0x14 ADD DUP3 PUSH1 0x1 PUSH1 0x1 PUSH1 0xA0 SHL SUB AND PUSH1 0x1 PUSH1 0x1 PUSH1 0xA0 SHL SUB AND PUSH1 0x60 SHL DUP2 MSTORE PUSH1 0x14 ADD SWAP3 POP POP POP PUSH1 0x40 MLOAD PUSH1 0x20 DUP2 DUP4 SUB SUB DUP2 MSTORE SWAP1 PUSH1 0x40 MSTORE DUP1 MLOAD SWAP1 PUSH1 0x20 ADD KECCAK256 SWAP1 POP DUP1 DUP3 MLOAD PUSH1 0x20 DUP5 ADD PUSH1 0x0 CREATE2 PUSH1 0x40 DUP1 MLOAD PUSH4 0x485CC955 PUSH1 0xE0 SHL DUP2 MSTORE PUSH1 0x1 PUSH1 0x1 PUSH1 0xA0 SHL SUB DUP8 DUP2 AND PUSH1 0x4 DUP4 ADD MSTORE DUP7 DUP2 AND PUSH1 0x24 DUP4 ADD MSTORE SWAP2 MLOAD SWAP3 SWAP8 POP SWAP1 DUP8 AND SWAP2 PUSH4 0x485CC955 SWAP2 PUSH1 0x44 DUP1 DUP3 ADD SWAP3 PUSH1 0x0 SWAP3 SWAP1 SWAP2 SWAP1 DUP3 SWAP1 SUB ADD DUP2 DUP4 DUP8 DUP1 EXTCODESIZE ISZERO DUP1 ISZERO PUSH2 0x615 JUMPI PUSH1 0x0 DUP1 REVERT JUMPDEST POP GAS CALL ISZERO DUP1 ISZERO PUSH2 0x629 JUMPI RETURNDATASIZE PUSH1 0x0 DUP1 RETURNDATACOPY RETURNDATASIZE PUSH1 0x0 REVERT JUMPDEST POP POP POP POP PUSH1 0x1 PUSH1 0x1 PUSH1 0xA0 SHL SUB DUP5 DUP2 AND PUSH1 0x0 DUP2 DUP2 MSTORE PUSH1 0x3 PUSH1 0x20 DUP2 DUP2 MSTORE PUSH1 0x40 DUP1 DUP5 KECCAK256 DUP10 DUP8 AND DUP1 DUP7 MSTORE SWAP1 DUP4 MSTORE DUP2 DUP6 KECCAK256 DUP1 SLOAD SWAP8 DUP14 AND PUSH1 0x1 PUSH1 0x1 PUSH1 0xA0 SHL SUB NOT SWAP9 DUP10 AND DUP2 OR SWAP1 SWAP2 SSTORE SWAP4 DUP4 MSTORE DUP2 DUP6 KECCAK256 DUP7 DUP7 MSTORE DUP4 MSTORE DUP2 DUP6 KECCAK256 DUP1 SLOAD DUP9 AND DUP6 OR SWAP1 SSTORE PUSH1 0x4 DUP1 SLOAD PUSH1 0x1 DUP2 ADD DUP3 SSTORE SWAP6 DUP2 SWAP1 MSTORE PUSH32 0x8A35ACFBC15FF81A39AE7D344FD709F28E8600B4AA8C65C6B64BFE7FE36BD19B SWAP1 SWAP6 ADD DUP1 SLOAD SWAP1 SWAP8 AND DUP5 OR SWAP1 SWAP7 SSTORE SWAP3 SLOAD DUP4 MLOAD SWAP3 DUP4 MSTORE SWAP1 DUP3 ADD MSTORE DUP2 MLOAD PUSH32 0xD3648BD0F6BA80134A33BA9275AC585D9D315F0AD8355CDDEFDE31AFA28D0E9 SWAP3 SWAP2 DUP2 SWAP1 SUB SWAP1 SWAP2 ADD SWAP1 LOG3 POP POP POP POP SWAP3 SWAP2 POP POP JUMP JUMPDEST PUSH1 0x3 PUSH1 0x20 SWAP1 DUP2 MSTORE PUSH1 0x0 SWAP3 DUP4 MSTORE PUSH1 0x40 DUP1 DUP5 KECCAK256 SWAP1 SWAP2 MSTORE SWAP1 DUP3 MSTORE SWAP1 KECCAK256 SLOAD PUSH1 0x1 PUSH1 0x1 PUSH1 0xA0 SHL SUB AND DUP2 JUMP JUMPDEST PUSH1 0x2 SLOAD PUSH1 0x1 PUSH1 0x1 PUSH1 0xA0 SHL SUB AND CALLER EQ PUSH2 0x77B JUMPI PUSH1 0x40 DUP1 MLOAD PUSH3 0x461BCD PUSH1 0xE5 SHL DUP2 MSTORE PUSH1 0x20 PUSH1 0x4 DUP3 ADD MSTORE PUSH1 0x14 PUSH1 0x24 DUP3 ADD MSTORE PUSH20 0x2AB734B9BBB0B82B191D102327A92124A22222A7 PUSH1 0x61 SHL PUSH1 0x44 DUP3 ADD MSTORE SWAP1 MLOAD SWAP1 DUP2 SWAP1 SUB PUSH1 0x64 ADD SWAP1 REVERT JUMPDEST PUSH1 0x0 DUP1 SLOAD PUSH1 0x1 PUSH1 0x1 PUSH1 0xA0 SHL SUB NOT AND PUSH1 0x1 PUSH1 0x1 PUSH1 0xA0 SHL SUB SWAP3 SWAP1 SWAP3 AND SWAP2 SWAP1 SWAP2 OR SWAP1 SSTORE JUMP JUMPDEST PUSH2 0x2481 DUP1 PUSH2 0x7AB DUP4 CODECOPY ADD SWAP1 JUMP INVALID PUSH1 0x80 PUSH1 0x40 MSTORE PUSH1 0x1 PUSH1 0xC SSTORE CALLVALUE DUP1 ISZERO PUSH2 0x15 JUMPI PUSH1 0x0 DUP1 REVERT JUMPDEST POP PUSH1 0x40 MLOAD CHAINID SWAP1 DUP1 PUSH1 0x52 PUSH2 0x242F DUP3 CODECOPY PUSH1 0x40 DUP1 MLOAD SWAP2 DUP3 SWAP1 SUB PUSH1 0x52 ADD DUP3 KECCAK256 DUP3 DUP3 ADD DUP3 MSTORE PUSH1 0xC DUP4 MSTORE PUSH12 0x21B0B934BA37902A37B5B2B7 PUSH1 0xA1 SHL PUSH1 0x20 SWAP4 DUP5 ADD MSTORE DUP2 MLOAD DUP1 DUP4 ADD DUP4 MSTORE PUSH1 0x1 DUP2 MSTORE PUSH1 0x31 PUSH1 0xF8 SHL SWAP1 DUP5 ADD MSTORE DUP2 MLOAD DUP1 DUP5 ADD SWAP2 SWAP1 SWAP2 MSTORE PUSH32 0x357203F76B0DC025F1D46DF98CB82C095ADAB3C756A9CA87CE6DEFD809207E04 DUP2 DUP4 ADD MSTORE PUSH32 0xC89EFDAA54C0F20C7ADF612882DF0950F5A951637E0307CDCB4C672F298B8BC6 PUSH1 0x60 DUP3 ADD MSTORE PUSH1 0x80 DUP2 ADD SWAP5 SWAP1 SWAP5 MSTORE ADDRESS PUSH1 0xA0 DUP1 DUP7 ADD SWAP2 SWAP1 SWAP2 MSTORE DUP2 MLOAD DUP1 DUP7 SUB SWAP1 SWAP2 ADD DUP2 MSTORE PUSH1 0xC0 SWAP1 SWAP5 ADD SWAP1 MSTORE DUP3 MLOAD SWAP3 ADD SWAP2 SWAP1 SWAP2 KECCAK256 PUSH1 0x3 SSTORE POP PUSH1 0x5 DUP1 SLOAD PUSH1 0x1 PUSH1 0x1 PUSH1 0xA0 SHL SUB NOT AND CALLER OR SWAP1 SSTORE PUSH2 0x2328 DUP1 PUSH2 0x107 PUSH1 0x0 CODECOPY PUSH1 0x0 RETURN INVALID PUSH1 0x80 PUSH1 0x40 MSTORE CALLVALUE DUP1 ISZERO PUSH2 0x10 JUMPI PUSH1 0x0 DUP1 REVERT JUMPDEST POP PUSH1 0x4 CALLDATASIZE LT PUSH2 0x1A9 JUMPI PUSH1 0x0 CALLDATALOAD PUSH1 0xE0 SHR DUP1 PUSH4 0x6A627842 GT PUSH2 0xF9 JUMPI DUP1 PUSH4 0xBA9A7A56 GT PUSH2 0x97 JUMPI DUP1 PUSH4 0xD21220A7 GT PUSH2 0x71 JUMPI DUP1 PUSH4 0xD21220A7 EQ PUSH2 0x534 JUMPI DUP1 PUSH4 0xD505ACCF EQ PUSH2 0x53C JUMPI DUP1 PUSH4 0xDD62ED3E EQ PUSH2 0x58D JUMPI DUP1 PUSH4 0xFFF6CAE9 EQ PUSH2 0x5BB JUMPI PUSH2 0x1A9 JUMP JUMPDEST DUP1 PUSH4 0xBA9A7A56 EQ PUSH2 0x4FE JUMPI DUP1 PUSH4 0xBC25CF77 EQ PUSH2 0x506 JUMPI DUP1 PUSH4 0xC45A0155 EQ PUSH2 0x52C JUMPI PUSH2 0x1A9 JUMP JUMPDEST DUP1 PUSH4 0x7ECEBE00 GT PUSH2 0xD3 JUMPI DUP1 PUSH4 0x7ECEBE00 EQ PUSH2 0x465 JUMPI DUP1 PUSH4 0x89AFCB44 EQ PUSH2 0x48B JUMPI DUP1 PUSH4 0x95D89B41 EQ PUSH2 0x4CA JUMPI DUP1 PUSH4 0xA9059CBB EQ PUSH2 0x4D2 JUMPI PUSH2 0x1A9 JUMP JUMPDEST DUP1 PUSH4 0x6A627842 EQ PUSH2 0x411 JUMPI DUP1 PUSH4 0x70A08231 EQ PUSH2 0x437 JUMPI DUP1 PUSH4 0x7464FC3D EQ PUSH2 0x45D JUMPI PUSH2 0x1A9 JUMP JUMPDEST DUP1 PUSH4 0x23B872DD GT PUSH2 0x166 JUMPI DUP1 PUSH4 0x3644E515 GT PUSH2 0x140 JUMPI DUP1 PUSH4 0x3644E515 EQ PUSH2 0x3CB JUMPI DUP1 PUSH4 0x485CC955 EQ PUSH2 0x3D3 JUMPI DUP1 PUSH4 0x5909C0D5 EQ PUSH2 0x401 JUMPI DUP1 PUSH4 0x5A3D5493 EQ PUSH2 0x409 JUMPI PUSH2 0x1A9 JUMP JUMPDEST DUP1 PUSH4 0x23B872DD EQ PUSH2 0x36F JUMPI DUP1 PUSH4 0x30ADF81F EQ PUSH2 0x3A5 JUMPI DUP1 PUSH4 0x313CE567 EQ PUSH2 0x3AD JUMPI PUSH2 0x1A9 JUMP JUMPDEST DUP1 PUSH4 0x22C0D9F EQ PUSH2 0x1AE JUMPI DUP1 PUSH4 0x6FDDE03 EQ PUSH2 0x23C JUMPI DUP1 PUSH4 0x902F1AC EQ PUSH2 0x2B9 JUMPI DUP1 PUSH4 0x95EA7B3 EQ PUSH2 0x2F1 JUMPI DUP1 PUSH4 0xDFE1681 EQ PUSH2 0x331 JUMPI DUP1 PUSH4 0x18160DDD EQ PUSH2 0x355 JUMPI JUMPDEST PUSH1 0x0 DUP1 REVERT JUMPDEST PUSH2 0x23A PUSH1 0x4 DUP1 CALLDATASIZE SUB PUSH1 0x80 DUP2 LT ISZERO PUSH2 0x1C4 JUMPI PUSH1 0x0 DUP1 REVERT JUMPDEST DUP2 CALLDATALOAD SWAP2 PUSH1 0x20 DUP2 ADD CALLDATALOAD SWAP2 PUSH1 0x1 PUSH1 0x1 PUSH1 0xA0 SHL SUB PUSH1 0x40 DUP4 ADD CALLDATALOAD AND SWAP2 SWAP1 DUP2 ADD SWAP1 PUSH1 0x80 DUP2 ADD PUSH1 0x60 DUP3 ADD CALLDATALOAD PUSH5 0x100000000 DUP2 GT ISZERO PUSH2 0x1FB JUMPI PUSH1 0x0 DUP1 REVERT JUMPDEST DUP3 ADD DUP4 PUSH1 0x20 DUP3 ADD GT ISZERO PUSH2 0x20D JUMPI PUSH1 0x0 DUP1 REVERT JUMPDEST DUP1 CALLDATALOAD SWAP1 PUSH1 0x20 ADD SWAP2 DUP5 PUSH1 0x1 DUP4 MUL DUP5 ADD GT PUSH5 0x100000000 DUP4 GT OR ISZERO PUSH2 0x22F JUMPI PUSH1 0x0 DUP1 REVERT JUMPDEST POP SWAP1 SWAP3 POP SWAP1 POP PUSH2 0x5C3 JUMP JUMPDEST STOP JUMPDEST PUSH2 0x244 PUSH2 0xAFE JUMP JUMPDEST PUSH1 0x40 DUP1 MLOAD PUSH1 0x20 DUP1 DUP3 MSTORE DUP4 MLOAD DUP2 DUP4 ADD MSTORE DUP4 MLOAD SWAP2 SWAP3 DUP4 SWAP3 SWAP1 DUP4 ADD SWAP2 DUP6 ADD SWAP1 DUP1 DUP4 DUP4 PUSH1 0x0 JUMPDEST DUP4 DUP2 LT ISZERO PUSH2 0x27E JUMPI DUP2 DUP2 ADD MLOAD DUP4 DUP3 ADD MSTORE PUSH1 0x20 ADD PUSH2 0x266 JUMP JUMPDEST POP POP POP POP SWAP1 POP SWAP1 DUP2 ADD SWAP1 PUSH1 0x1F AND DUP1 ISZERO PUSH2 0x2AB JUMPI DUP1 DUP3 SUB DUP1 MLOAD PUSH1 0x1 DUP4 PUSH1 0x20 SUB PUSH2 0x100 EXP SUB NOT AND DUP2 MSTORE PUSH1 0x20 ADD SWAP2 POP JUMPDEST POP SWAP3 POP POP POP PUSH1 0x40 MLOAD DUP1 SWAP2 SUB SWAP1 RETURN JUMPDEST PUSH2 0x2C1 PUSH2 0xB26 JUMP JUMPDEST PUSH1 0x40 DUP1 MLOAD PUSH1 0x1 PUSH1 0x1 PUSH1 0x70 SHL SUB SWAP5 DUP6 AND DUP2 MSTORE SWAP3 SWAP1 SWAP4 AND PUSH1 0x20 DUP4 ADD MSTORE PUSH4 0xFFFFFFFF AND DUP2 DUP4 ADD MSTORE SWAP1 MLOAD SWAP1 DUP2 SWAP1 SUB PUSH1 0x60 ADD SWAP1 RETURN JUMPDEST PUSH2 0x31D PUSH1 0x4 DUP1 CALLDATASIZE SUB PUSH1 0x40 DUP2 LT ISZERO PUSH2 0x307 JUMPI PUSH1 0x0 DUP1 REVERT JUMPDEST POP PUSH1 0x1 PUSH1 0x1 PUSH1 0xA0 SHL SUB DUP2 CALLDATALOAD AND SWAP1 PUSH1 0x20 ADD CALLDATALOAD PUSH2 0xB50 JUMP JUMPDEST PUSH1 0x40 DUP1 MLOAD SWAP2 ISZERO ISZERO DUP3 MSTORE MLOAD SWAP1 DUP2 SWAP1 SUB PUSH1 0x20 ADD SWAP1 RETURN JUMPDEST PUSH2 0x339 PUSH2 0xB67 JUMP JUMPDEST PUSH1 0x40 DUP1 MLOAD PUSH1 0x1 PUSH1 0x1 PUSH1 0xA0 SHL SUB SWAP1 SWAP3 AND DUP3 MSTORE MLOAD SWAP1 DUP2 SWAP1 SUB PUSH1 0x20 ADD SWAP1 RETURN JUMPDEST PUSH2 0x35D PUSH2 0xB76 JUMP JUMPDEST PUSH1 0x40 DUP1 MLOAD SWAP2 DUP3 MSTORE MLOAD SWAP1 DUP2 SWAP1 SUB PUSH1 0x20 ADD SWAP1 RETURN JUMPDEST PUSH2 0x31D PUSH1 0x4 DUP1 CALLDATASIZE SUB PUSH1 0x60 DUP2 LT ISZERO PUSH2 0x385 JUMPI PUSH1 0x0 DUP1 REVERT JUMPDEST POP PUSH1 0x1 PUSH1 0x1 PUSH1 0xA0 SHL SUB DUP2 CALLDATALOAD DUP2 AND SWAP2 PUSH1 0x20 DUP2 ADD CALLDATALOAD SWAP1 SWAP2 AND SWAP1 PUSH1 0x40 ADD CALLDATALOAD PUSH2 0xB7C JUMP JUMPDEST PUSH2 0x35D PUSH2 0xC16 JUMP JUMPDEST PUSH2 0x3B5 PUSH2 0xC3A JUMP JUMPDEST PUSH1 0x40 DUP1 MLOAD PUSH1 0xFF SWAP1 SWAP3 AND DUP3 MSTORE MLOAD SWAP1 DUP2 SWAP1 SUB PUSH1 0x20 ADD SWAP1 RETURN JUMPDEST PUSH2 0x35D PUSH2 0xC3F JUMP JUMPDEST PUSH2 0x23A PUSH1 0x4 DUP1 CALLDATASIZE SUB PUSH1 0x40 DUP2 LT ISZERO PUSH2 0x3E9 JUMPI PUSH1 0x0 DUP1 REVERT JUMPDEST POP PUSH1 0x1 PUSH1 0x1 PUSH1 0xA0 SHL SUB DUP2 CALLDATALOAD DUP2 AND SWAP2 PUSH1 0x20 ADD CALLDATALOAD AND PUSH2 0xC45 JUMP JUMPDEST PUSH2 0x35D PUSH2 0xCC9 JUMP JUMPDEST PUSH2 0x35D PUSH2 0xCCF JUMP JUMPDEST PUSH2 0x35D PUSH1 0x4 DUP1 CALLDATASIZE SUB PUSH1 0x20 DUP2 LT ISZERO PUSH2 0x427 JUMPI PUSH1 0x0 DUP1 REVERT JUMPDEST POP CALLDATALOAD PUSH1 0x1 PUSH1 0x1 PUSH1 0xA0 SHL SUB AND PUSH2 0xCD5 JUMP JUMPDEST PUSH2 0x35D PUSH1 0x4 DUP1 CALLDATASIZE SUB PUSH1 0x20 DUP2 LT ISZERO PUSH2 0x44D JUMPI PUSH1 0x0 DUP1 REVERT JUMPDEST POP CALLDATALOAD PUSH1 0x1 PUSH1 0x1 PUSH1 0xA0 SHL SUB AND PUSH2 0xFD5 JUMP JUMPDEST PUSH2 0x35D PUSH2 0xFE7 JUMP JUMPDEST PUSH2 0x35D PUSH1 0x4 DUP1 CALLDATASIZE SUB PUSH1 0x20 DUP2 LT ISZERO PUSH2 0x47B JUMPI PUSH1 0x0 DUP1 REVERT JUMPDEST POP CALLDATALOAD PUSH1 0x1 PUSH1 0x1 PUSH1 0xA0 SHL SUB AND PUSH2 0xFED JUMP JUMPDEST PUSH2 0x4B1 PUSH1 0x4 DUP1 CALLDATASIZE SUB PUSH1 0x20 DUP2 LT ISZERO PUSH2 0x4A1 JUMPI PUSH1 0x0 DUP1 REVERT JUMPDEST POP CALLDATALOAD PUSH1 0x1 PUSH1 0x1 PUSH1 0xA0 SHL SUB AND PUSH2 0xFFF JUMP JUMPDEST PUSH1 0x40 DUP1 MLOAD SWAP3 DUP4 MSTORE PUSH1 0x20 DUP4 ADD SWAP2 SWAP1 SWAP2 MSTORE DUP1 MLOAD SWAP2 DUP3 SWAP1 SUB ADD SWAP1 RETURN JUMPDEST PUSH2 0x244 PUSH2 0x13A5 JUMP JUMPDEST PUSH2 0x31D PUSH1 0x4 DUP1 CALLDATASIZE SUB PUSH1 0x40 DUP2 LT ISZERO PUSH2 0x4E8 JUMPI PUSH1 0x0 DUP1 REVERT JUMPDEST POP PUSH1 0x1 PUSH1 0x1 PUSH1 0xA0 SHL SUB DUP2 CALLDATALOAD AND SWAP1 PUSH1 0x20 ADD CALLDATALOAD PUSH2 0x13C7 JUMP JUMPDEST PUSH2 0x35D PUSH2 0x13D4 JUMP JUMPDEST PUSH2 0x23A PUSH1 0x4 DUP1 CALLDATASIZE SUB PUSH1 0x20 DUP2 LT ISZERO PUSH2 0x51C JUMPI PUSH1 0x0 DUP1 REVERT JUMPDEST POP CALLDATALOAD PUSH1 0x1 PUSH1 0x1 PUSH1 0xA0 SHL SUB AND PUSH2 0x13DA JUMP JUMPDEST PUSH2 0x339 PUSH2 0x1545 JUMP JUMPDEST PUSH2 0x339 PUSH2 0x1554 JUMP JUMPDEST PUSH2 0x23A PUSH1 0x4 DUP1 CALLDATASIZE SUB PUSH1 0xE0 DUP2 LT ISZERO PUSH2 0x552 JUMPI PUSH1 0x0 DUP1 REVERT JUMPDEST POP PUSH1 0x1 PUSH1 0x1 PUSH1 0xA0 SHL SUB DUP2 CALLDATALOAD DUP2 AND SWAP2 PUSH1 0x20 DUP2 ADD CALLDATALOAD SWAP1 SWAP2 AND SWAP1 PUSH1 0x40 DUP2 ADD CALLDATALOAD SWAP1 PUSH1 0x60 DUP2 ADD CALLDATALOAD SWAP1 PUSH1 0xFF PUSH1 0x80 DUP3 ADD CALLDATALOAD AND SWAP1 PUSH1 0xA0 DUP2 ADD CALLDATALOAD SWAP1 PUSH1 0xC0 ADD CALLDATALOAD PUSH2 0x1563 JUMP JUMPDEST PUSH2 0x35D PUSH1 0x4 DUP1 CALLDATASIZE SUB PUSH1 0x40 DUP2 LT ISZERO PUSH2 0x5A3 JUMPI PUSH1 0x0 DUP1 REVERT JUMPDEST POP PUSH1 0x1 PUSH1 0x1 PUSH1 0xA0 SHL SUB DUP2 CALLDATALOAD DUP2 AND SWAP2 PUSH1 0x20 ADD CALLDATALOAD AND PUSH2 0x1765 JUMP JUMPDEST PUSH2 0x23A PUSH2 0x1782 JUMP JUMPDEST PUSH1 0xC SLOAD PUSH1 0x1 EQ PUSH2 0x60E JUMPI PUSH1 0x40 DUP1 MLOAD PUSH3 0x461BCD PUSH1 0xE5 SHL DUP2 MSTORE PUSH1 0x20 PUSH1 0x4 DUP3 ADD MSTORE PUSH1 0x11 PUSH1 0x24 DUP3 ADD MSTORE PUSH17 0x155B9A5CDDD85C158C8E881313D0D2D151 PUSH1 0x7A SHL PUSH1 0x44 DUP3 ADD MSTORE SWAP1 MLOAD SWAP1 DUP2 SWAP1 SUB PUSH1 0x64 ADD SWAP1 REVERT JUMPDEST PUSH1 0x0 PUSH1 0xC SSTORE DUP5 ISZERO ISZERO DUP1 PUSH2 0x621 JUMPI POP PUSH1 0x0 DUP5 GT JUMPDEST PUSH2 0x65C JUMPI PUSH1 0x40 MLOAD PUSH3 0x461BCD PUSH1 0xE5 SHL DUP2 MSTORE PUSH1 0x4 ADD DUP1 DUP1 PUSH1 0x20 ADD DUP3 DUP2 SUB DUP3 MSTORE PUSH1 0x25 DUP2 MSTORE PUSH1 0x20 ADD DUP1 PUSH2 0x223A PUSH1 0x25 SWAP2 CODECOPY PUSH1 0x40 ADD SWAP2 POP POP PUSH1 0x40 MLOAD DUP1 SWAP2 SUB SWAP1 REVERT JUMPDEST PUSH1 0x0 DUP1 PUSH2 0x667 PUSH2 0xB26 JUMP JUMPDEST POP SWAP2 POP SWAP2 POP DUP2 PUSH1 0x1 PUSH1 0x1 PUSH1 0x70 SHL SUB AND DUP8 LT DUP1 ISZERO PUSH2 0x68C JUMPI POP DUP1 PUSH1 0x1 PUSH1 0x1 PUSH1 0x70 SHL SUB AND DUP7 LT JUMPDEST PUSH2 0x6C7 JUMPI PUSH1 0x40 MLOAD PUSH3 0x461BCD PUSH1 0xE5 SHL DUP2 MSTORE PUSH1 0x4 ADD DUP1 DUP1 PUSH1 0x20 ADD DUP3 DUP2 SUB DUP3 MSTORE PUSH1 0x21 DUP2 MSTORE PUSH1 0x20 ADD DUP1 PUSH2 0x2283 PUSH1 0x21 SWAP2 CODECOPY PUSH1 0x40 ADD SWAP2 POP POP PUSH1 0x40 MLOAD DUP1 SWAP2 SUB SWAP1 REVERT JUMPDEST PUSH1 0x6 SLOAD PUSH1 0x7 SLOAD PUSH1 0x0 SWAP2 DUP3 SWAP2 PUSH1 0x1 PUSH1 0x1 PUSH1 0xA0 SHL SUB SWAP2 DUP3 AND SWAP2 SWAP1 DUP2 AND SWAP1 DUP10 AND DUP3 EQ DUP1 ISZERO SWAP1 PUSH2 0x705 JUMPI POP DUP1 PUSH1 0x1 PUSH1 0x1 PUSH1 0xA0 SHL SUB AND DUP10 PUSH1 0x1 PUSH1 0x1 PUSH1 0xA0 SHL SUB AND EQ ISZERO JUMPDEST PUSH2 0x74E JUMPI PUSH1 0x40 DUP1 MLOAD PUSH3 0x461BCD PUSH1 0xE5 SHL DUP2 MSTORE PUSH1 0x20 PUSH1 0x4 DUP3 ADD MSTORE PUSH1 0x15 PUSH1 0x24 DUP3 ADD MSTORE PUSH21 0x556E697377617056323A20494E56414C49445F544F PUSH1 0x58 SHL PUSH1 0x44 DUP3 ADD MSTORE SWAP1 MLOAD SWAP1 DUP2 SWAP1 SUB PUSH1 0x64 ADD SWAP1 REVERT JUMPDEST DUP11 ISZERO PUSH2 0x75F JUMPI PUSH2 0x75F DUP3 DUP11 DUP14 PUSH2 0x18E4 JUMP JUMPDEST DUP10 ISZERO PUSH2 0x770 JUMPI PUSH2 0x770 DUP2 DUP11 DUP13 PUSH2 0x18E4 JUMP JUMPDEST DUP7 ISZERO PUSH2 0x82B JUMPI DUP9 PUSH1 0x1 PUSH1 0x1 PUSH1 0xA0 SHL SUB AND PUSH4 0x10D1E85C CALLER DUP14 DUP14 DUP13 DUP13 PUSH1 0x40 MLOAD DUP7 PUSH4 0xFFFFFFFF AND PUSH1 0xE0 SHL DUP2 MSTORE PUSH1 0x4 ADD DUP1 DUP7 PUSH1 0x1 PUSH1 0x1 PUSH1 0xA0 SHL SUB AND PUSH1 0x1 PUSH1 0x1 PUSH1 0xA0 SHL SUB AND DUP2 MSTORE PUSH1 0x20 ADD DUP6 DUP2 MSTORE PUSH1 0x20 ADD DUP5 DUP2 MSTORE PUSH1 0x20 ADD DUP1 PUSH1 0x20 ADD DUP3 DUP2 SUB DUP3 MSTORE DUP5 DUP5 DUP3 DUP2 DUP2 MSTORE PUSH1 0x20 ADD SWAP3 POP DUP1 DUP3 DUP5 CALLDATACOPY PUSH1 0x0 DUP2 DUP5 ADD MSTORE PUSH1 0x1F NOT PUSH1 0x1F DUP3 ADD AND SWAP1 POP DUP1 DUP4 ADD SWAP3 POP POP POP SWAP7 POP POP POP POP POP POP POP PUSH1 0x0 PUSH1 0x40 MLOAD DUP1 DUP4 SUB DUP2 PUSH1 0x0 DUP8 DUP1 EXTCODESIZE ISZERO DUP1 ISZERO PUSH2 0x812 JUMPI PUSH1 0x0 DUP1 REVERT JUMPDEST POP GAS CALL ISZERO DUP1 ISZERO PUSH2 0x826 JUMPI RETURNDATASIZE PUSH1 0x0 DUP1 RETURNDATACOPY RETURNDATASIZE PUSH1 0x0 REVERT JUMPDEST POP POP POP POP JUMPDEST PUSH1 0x40 DUP1 MLOAD PUSH4 0x70A08231 PUSH1 0xE0 SHL DUP2 MSTORE ADDRESS PUSH1 0x4 DUP3 ADD MSTORE SWAP1 MLOAD PUSH1 0x1 PUSH1 0x1 PUSH1 0xA0 SHL SUB DUP5 AND SWAP2 PUSH4 0x70A08231 SWAP2 PUSH1 0x24 DUP1 DUP4 ADD SWAP3 PUSH1 0x20 SWAP3 SWAP2 SWAP1 DUP3 SWAP1 SUB ADD DUP2 DUP7 DUP1 EXTCODESIZE ISZERO DUP1 ISZERO PUSH2 0x871 JUMPI PUSH1 0x0 DUP1 REVERT JUMPDEST POP GAS STATICCALL ISZERO DUP1 ISZERO PUSH2 0x885 JUMPI RETURNDATASIZE PUSH1 0x0 DUP1 RETURNDATACOPY RETURNDATASIZE PUSH1 0x0 REVERT JUMPDEST POP POP POP POP PUSH1 0x40 MLOAD RETURNDATASIZE PUSH1 0x20 DUP2 LT ISZERO PUSH2 0x89B JUMPI PUSH1 0x0 DUP1 REVERT JUMPDEST POP MLOAD PUSH1 0x40 DUP1 MLOAD PUSH4 0x70A08231 PUSH1 0xE0 SHL DUP2 MSTORE ADDRESS PUSH1 0x4 DUP3 ADD MSTORE SWAP1 MLOAD SWAP2 SWAP6 POP PUSH1 0x1 PUSH1 0x1 PUSH1 0xA0 SHL SUB DUP4 AND SWAP2 PUSH4 0x70A08231 SWAP2 PUSH1 0x24 DUP1 DUP3 ADD SWAP3 PUSH1 0x20 SWAP3 SWAP1 SWAP2 SWAP1 DUP3 SWAP1 SUB ADD DUP2 DUP7 DUP1 EXTCODESIZE ISZERO DUP1 ISZERO PUSH2 0x8E7 JUMPI PUSH1 0x0 DUP1 REVERT JUMPDEST POP GAS STATICCALL ISZERO DUP1 ISZERO PUSH2 0x8FB JUMPI RETURNDATASIZE PUSH1 0x0 DUP1 RETURNDATACOPY RETURNDATASIZE PUSH1 0x0 REVERT JUMPDEST POP POP POP POP PUSH1 0x40 MLOAD RETURNDATASIZE PUSH1 0x20 DUP2 LT ISZERO PUSH2 0x911 JUMPI PUSH1 0x0 DUP1 REVERT JUMPDEST POP MLOAD SWAP3 POP PUSH1 0x0 SWAP2 POP POP PUSH1 0x1 PUSH1 0x1 PUSH1 0x70 SHL SUB DUP6 AND DUP11 SWAP1 SUB DUP4 GT PUSH2 0x934 JUMPI PUSH1 0x0 PUSH2 0x943 JUMP JUMPDEST DUP10 DUP6 PUSH1 0x1 PUSH1 0x1 PUSH1 0x70 SHL SUB AND SUB DUP4 SUB JUMPDEST SWAP1 POP PUSH1 0x0 DUP10 DUP6 PUSH1 0x1 PUSH1 0x1 PUSH1 0x70 SHL SUB AND SUB DUP4 GT PUSH2 0x960 JUMPI PUSH1 0x0 PUSH2 0x96F JUMP JUMPDEST DUP10 DUP6 PUSH1 0x1 PUSH1 0x1 PUSH1 0x70 SHL SUB AND SUB DUP4 SUB JUMPDEST SWAP1 POP PUSH1 0x0 DUP3 GT DUP1 PUSH2 0x980 JUMPI POP PUSH1 0x0 DUP2 GT JUMPDEST PUSH2 0x9BB JUMPI PUSH1 0x40 MLOAD PUSH3 0x461BCD PUSH1 0xE5 SHL DUP2 MSTORE PUSH1 0x4 ADD DUP1 DUP1 PUSH1 0x20 ADD DUP3 DUP2 SUB DUP3 MSTORE PUSH1 0x24 DUP2 MSTORE PUSH1 0x20 ADD DUP1 PUSH2 0x225F PUSH1 0x24 SWAP2 CODECOPY PUSH1 0x40 ADD SWAP2 POP POP PUSH1 0x40 MLOAD DUP1 SWAP2 SUB SWAP1 REVERT JUMPDEST PUSH1 0x0 PUSH2 0x9EF PUSH2 0x9D1 DUP5 PUSH1 0x3 PUSH4 0xFFFFFFFF PUSH2 0x1A7E AND JUMP JUMPDEST PUSH2 0x9E3 DUP8 PUSH2 0x3E8 PUSH4 0xFFFFFFFF PUSH2 0x1A7E AND JUMP JUMPDEST SWAP1 PUSH4 0xFFFFFFFF PUSH2 0x1AE1 AND JUMP JUMPDEST SWAP1 POP PUSH1 0x0 PUSH2 0xA07 PUSH2 0x9D1 DUP5 PUSH1 0x3 PUSH4 0xFFFFFFFF PUSH2 0x1A7E AND JUMP JUMPDEST SWAP1 POP PUSH2 0xA38 PUSH3 0xF4240 PUSH2 0xA2C PUSH1 0x1 PUSH1 0x1 PUSH1 0x70 SHL SUB DUP12 DUP2 AND SWAP1 DUP12 AND PUSH4 0xFFFFFFFF PUSH2 0x1A7E AND JUMP JUMPDEST SWAP1 PUSH4 0xFFFFFFFF PUSH2 0x1A7E AND JUMP JUMPDEST PUSH2 0xA48 DUP4 DUP4 PUSH4 0xFFFFFFFF PUSH2 0x1A7E AND JUMP JUMPDEST LT ISZERO PUSH2 0xA8A JUMPI PUSH1 0x40 DUP1 MLOAD PUSH3 0x461BCD PUSH1 0xE5 SHL DUP2 MSTORE PUSH1 0x20 PUSH1 0x4 DUP3 ADD MSTORE PUSH1 0xC PUSH1 0x24 DUP3 ADD MSTORE PUSH12 0x556E697377617056323A204B PUSH1 0xA0 SHL PUSH1 0x44 DUP3 ADD MSTORE SWAP1 MLOAD SWAP1 DUP2 SWAP1 SUB PUSH1 0x64 ADD SWAP1 REVERT JUMPDEST POP POP PUSH2 0xA98 DUP5 DUP5 DUP9 DUP9 PUSH2 0x1B31 JUMP JUMPDEST PUSH1 0x40 DUP1 MLOAD DUP4 DUP2 MSTORE PUSH1 0x20 DUP2 ADD DUP4 SWAP1 MSTORE DUP1 DUP3 ADD DUP14 SWAP1 MSTORE PUSH1 0x60 DUP2 ADD DUP13 SWAP1 MSTORE SWAP1 MLOAD PUSH1 0x1 PUSH1 0x1 PUSH1 0xA0 SHL SUB DUP12 AND SWAP2 CALLER SWAP2 PUSH32 0xD78AD95FA46C994B6551D0DA85FC275FE613CE37657FB8D5E3D130840159D822 SWAP2 DUP2 SWAP1 SUB PUSH1 0x80 ADD SWAP1 LOG3 POP POP PUSH1 0x1 PUSH1 0xC SSTORE POP POP POP POP POP POP POP POP POP JUMP JUMPDEST PUSH1 0x40 MLOAD DUP1 PUSH1 0x40 ADD PUSH1 0x40 MSTORE DUP1 PUSH1 0xC DUP2 MSTORE PUSH1 0x20 ADD PUSH12 0x21B0B934BA37902A37B5B2B7 PUSH1 0xA1 SHL DUP2 MSTORE POP DUP2 JUMP JUMPDEST PUSH1 0x8 SLOAD PUSH1 0x1 PUSH1 0x1 PUSH1 0x70 SHL SUB DUP1 DUP3 AND SWAP3 PUSH1 0x1 PUSH1 0x70 SHL DUP4 DIV SWAP1 SWAP2 AND SWAP2 PUSH1 0x1 PUSH1 0xE0 SHL SWAP1 DIV PUSH4 0xFFFFFFFF AND SWAP1 JUMP JUMPDEST PUSH1 0x0 PUSH2 0xB5D CALLER DUP5 DUP5 PUSH2 0x1CF6 JUMP JUMPDEST POP PUSH1 0x1 JUMPDEST SWAP3 SWAP2 POP POP JUMP JUMPDEST PUSH1 0x6 SLOAD PUSH1 0x1 PUSH1 0x1 PUSH1 0xA0 SHL SUB AND DUP2 JUMP JUMPDEST PUSH1 0x0 SLOAD DUP2 JUMP JUMPDEST PUSH1 0x1 PUSH1 0x1 PUSH1 0xA0 SHL SUB DUP4 AND PUSH1 0x0 SWAP1 DUP2 MSTORE PUSH1 0x2 PUSH1 0x20 SWAP1 DUP2 MSTORE PUSH1 0x40 DUP1 DUP4 KECCAK256 CALLER DUP5 MSTORE SWAP1 SWAP2 MSTORE DUP2 KECCAK256 SLOAD PUSH1 0x0 NOT EQ PUSH2 0xC01 JUMPI PUSH1 0x1 PUSH1 0x1 PUSH1 0xA0 SHL SUB DUP5 AND PUSH1 0x0 SWAP1 DUP2 MSTORE PUSH1 0x2 PUSH1 0x20 SWAP1 DUP2 MSTORE PUSH1 0x40 DUP1 DUP4 KECCAK256 CALLER DUP5 MSTORE SWAP1 SWAP2 MSTORE SWAP1 KECCAK256 SLOAD PUSH2 0xBDC SWAP1 DUP4 PUSH4 0xFFFFFFFF PUSH2 0x1AE1 AND JUMP JUMPDEST PUSH1 0x1 PUSH1 0x1 PUSH1 0xA0 SHL SUB DUP6 AND PUSH1 0x0 SWAP1 DUP2 MSTORE PUSH1 0x2 PUSH1 0x20 SWAP1 DUP2 MSTORE PUSH1 0x40 DUP1 DUP4 KECCAK256 CALLER DUP5 MSTORE SWAP1 SWAP2 MSTORE SWAP1 KECCAK256 SSTORE JUMPDEST PUSH2 0xC0C DUP5 DUP5 DUP5 PUSH2 0x1D58 JUMP JUMPDEST POP PUSH1 0x1 SWAP4 SWAP3 POP POP POP JUMP JUMPDEST PUSH32 0x6E71EDAE12B1B97F4D1F60370FEF10105FA2FAAE0126114A169C64845D6126C9 DUP2 JUMP JUMPDEST PUSH1 0x12 DUP2 JUMP JUMPDEST PUSH1 0x3 SLOAD DUP2 JUMP JUMPDEST PUSH1 0x5 SLOAD PUSH1 0x1 PUSH1 0x1 PUSH1 0xA0 SHL SUB AND CALLER EQ PUSH2 0xC9B JUMPI PUSH1 0x40 DUP1 MLOAD PUSH3 0x461BCD PUSH1 0xE5 SHL DUP2 MSTORE PUSH1 0x20 PUSH1 0x4 DUP3 ADD MSTORE PUSH1 0x14 PUSH1 0x24 DUP3 ADD MSTORE PUSH20 0x2AB734B9BBB0B82B191D102327A92124A22222A7 PUSH1 0x61 SHL PUSH1 0x44 DUP3 ADD MSTORE SWAP1 MLOAD SWAP1 DUP2 SWAP1 SUB PUSH1 0x64 ADD SWAP1 REVERT JUMPDEST PUSH1 0x6 DUP1 SLOAD PUSH1 0x1 PUSH1 0x1 PUSH1 0xA0 SHL SUB SWAP4 DUP5 AND PUSH1 0x1 PUSH1 0x1 PUSH1 0xA0 SHL SUB NOT SWAP2 DUP3 AND OR SWAP1 SWAP2 SSTORE PUSH1 0x7 DUP1 SLOAD SWAP3 SWAP1 SWAP4 AND SWAP2 AND OR SWAP1 SSTORE JUMP JUMPDEST PUSH1 0x9 SLOAD DUP2 JUMP JUMPDEST PUSH1 0xA SLOAD DUP2 JUMP JUMPDEST PUSH1 0x0 PUSH1 0xC SLOAD PUSH1 0x1 EQ PUSH2 0xD22 JUMPI PUSH1 0x40 DUP1 MLOAD PUSH3 0x461BCD PUSH1 0xE5 SHL DUP2 MSTORE PUSH1 0x20 PUSH1 0x4 DUP3 ADD MSTORE PUSH1 0x11 PUSH1 0x24 DUP3 ADD MSTORE PUSH17 0x155B9A5CDDD85C158C8E881313D0D2D151 PUSH1 0x7A SHL PUSH1 0x44 DUP3 ADD MSTORE SWAP1 MLOAD SWAP1 DUP2 SWAP1 SUB PUSH1 0x64 ADD SWAP1 REVERT JUMPDEST PUSH1 0x0 PUSH1 0xC DUP2 SWAP1 SSTORE DUP1 PUSH2 0xD32 PUSH2 0xB26 JUMP JUMPDEST POP PUSH1 0x6 SLOAD PUSH1 0x40 DUP1 MLOAD PUSH4 0x70A08231 PUSH1 0xE0 SHL DUP2 MSTORE ADDRESS PUSH1 0x4 DUP3 ADD MSTORE SWAP1 MLOAD SWAP4 SWAP6 POP SWAP2 SWAP4 POP PUSH1 0x0 SWAP3 PUSH1 0x1 PUSH1 0x1 PUSH1 0xA0 SHL SUB SWAP1 SWAP2 AND SWAP2 PUSH4 0x70A08231 SWAP2 PUSH1 0x24 DUP1 DUP4 ADD SWAP3 PUSH1 0x20 SWAP3 SWAP2 SWAP1 DUP3 SWAP1 SUB ADD DUP2 DUP7 DUP1 EXTCODESIZE ISZERO DUP1 ISZERO PUSH2 0xD86 JUMPI PUSH1 0x0 DUP1 REVERT JUMPDEST POP GAS STATICCALL ISZERO DUP1 ISZERO PUSH2 0xD9A JUMPI RETURNDATASIZE PUSH1 0x0 DUP1 RETURNDATACOPY RETURNDATASIZE PUSH1 0x0 REVERT JUMPDEST POP POP POP POP PUSH1 0x40 MLOAD RETURNDATASIZE PUSH1 0x20 DUP2 LT ISZERO PUSH2 0xDB0 JUMPI PUSH1 0x0 DUP1 REVERT JUMPDEST POP MLOAD PUSH1 0x7 SLOAD PUSH1 0x40 DUP1 MLOAD PUSH4 0x70A08231 PUSH1 0xE0 SHL DUP2 MSTORE ADDRESS PUSH1 0x4 DUP3 ADD MSTORE SWAP1 MLOAD SWAP3 SWAP4 POP PUSH1 0x0 SWAP3 PUSH1 0x1 PUSH1 0x1 PUSH1 0xA0 SHL SUB SWAP1 SWAP3 AND SWAP2 PUSH4 0x70A08231 SWAP2 PUSH1 0x24 DUP1 DUP3 ADD SWAP3 PUSH1 0x20 SWAP3 SWAP1 SWAP2 SWAP1 DUP3 SWAP1 SUB ADD DUP2 DUP7 DUP1 EXTCODESIZE ISZERO DUP1 ISZERO PUSH2 0xE03 JUMPI PUSH1 0x0 DUP1 REVERT JUMPDEST POP GAS STATICCALL ISZERO DUP1 ISZERO PUSH2 0xE17 JUMPI RETURNDATASIZE PUSH1 0x0 DUP1 RETURNDATACOPY RETURNDATASIZE PUSH1 0x0 REVERT JUMPDEST POP POP POP POP PUSH1 0x40 MLOAD RETURNDATASIZE PUSH1 0x20 DUP2 LT ISZERO PUSH2 0xE2D JUMPI PUSH1 0x0 DUP1 REVERT JUMPDEST POP MLOAD SWAP1 POP PUSH1 0x0 PUSH2 0xE4C DUP4 PUSH1 0x1 PUSH1 0x1 PUSH1 0x70 SHL SUB DUP8 AND PUSH4 0xFFFFFFFF PUSH2 0x1AE1 AND JUMP JUMPDEST SWAP1 POP PUSH1 0x0 PUSH2 0xE69 DUP4 PUSH1 0x1 PUSH1 0x1 PUSH1 0x70 SHL SUB DUP8 AND PUSH4 0xFFFFFFFF PUSH2 0x1AE1 AND JUMP JUMPDEST SWAP1 POP PUSH1 0x0 PUSH2 0xE77 DUP8 DUP8 PUSH2 0x1E12 JUMP JUMPDEST PUSH1 0x0 SLOAD SWAP1 SWAP2 POP DUP1 PUSH2 0xEB4 JUMPI PUSH2 0xEA0 PUSH2 0x3E8 PUSH2 0x9E3 PUSH2 0xE9B DUP8 DUP8 PUSH4 0xFFFFFFFF PUSH2 0x1A7E AND JUMP JUMPDEST PUSH2 0x2015 JUMP JUMPDEST SWAP9 POP PUSH2 0xEAF PUSH1 0x0 PUSH2 0x3E8 PUSH2 0x2067 JUMP JUMPDEST PUSH2 0xF03 JUMP JUMPDEST PUSH2 0xF00 PUSH1 0x1 PUSH1 0x1 PUSH1 0x70 SHL SUB DUP10 AND PUSH2 0xED1 DUP7 DUP5 PUSH4 0xFFFFFFFF PUSH2 0x1A7E AND JUMP JUMPDEST DUP2 PUSH2 0xED8 JUMPI INVALID JUMPDEST DIV PUSH1 0x1 PUSH1 0x1 PUSH1 0x70 SHL SUB DUP10 AND PUSH2 0xEF3 DUP7 DUP6 PUSH4 0xFFFFFFFF PUSH2 0x1A7E AND JUMP JUMPDEST DUP2 PUSH2 0xEFA JUMPI INVALID JUMPDEST DIV PUSH2 0x20FD JUMP JUMPDEST SWAP9 POP JUMPDEST PUSH1 0x0 DUP10 GT PUSH2 0xF42 JUMPI PUSH1 0x40 MLOAD PUSH3 0x461BCD PUSH1 0xE5 SHL DUP2 MSTORE PUSH1 0x4 ADD DUP1 DUP1 PUSH1 0x20 ADD DUP3 DUP2 SUB DUP3 MSTORE PUSH1 0x28 DUP2 MSTORE PUSH1 0x20 ADD DUP1 PUSH2 0x22CC PUSH1 0x28 SWAP2 CODECOPY PUSH1 0x40 ADD SWAP2 POP POP PUSH1 0x40 MLOAD DUP1 SWAP2 SUB SWAP1 REVERT JUMPDEST PUSH2 0xF4C DUP11 DUP11 PUSH2 0x2067 JUMP JUMPDEST PUSH2 0xF58 DUP7 DUP7 DUP11 DUP11 PUSH2 0x1B31 JUMP JUMPDEST DUP2 ISZERO PUSH2 0xF88 JUMPI PUSH1 0x8 SLOAD PUSH2 0xF84 SWAP1 PUSH1 0x1 PUSH1 0x1 PUSH1 0x70 SHL SUB DUP1 DUP3 AND SWAP2 PUSH1 0x1 PUSH1 0x70 SHL SWAP1 DIV AND PUSH4 0xFFFFFFFF PUSH2 0x1A7E AND JUMP JUMPDEST PUSH1 0xB SSTORE JUMPDEST PUSH1 0x40 DUP1 MLOAD DUP6 DUP2 MSTORE PUSH1 0x20 DUP2 ADD DUP6 SWAP1 MSTORE DUP2 MLOAD CALLER SWAP3 PUSH32 0x4C209B5FC8AD50758F13E2E1088BA56A560DFF690A1C6FEF26394F4C03821C4F SWAP3 DUP3 SWAP1 SUB ADD SWAP1 LOG2 POP POP PUSH1 0x1 PUSH1 0xC SSTORE POP SWAP5 SWAP7 SWAP6 POP POP POP POP POP POP JUMP JUMPDEST PUSH1 0x1 PUSH1 0x20 MSTORE PUSH1 0x0 SWAP1 DUP2 MSTORE PUSH1 0x40 SWAP1 KECCAK256 SLOAD DUP2 JUMP JUMPDEST PUSH1 0xB SLOAD DUP2 JUMP JUMPDEST PUSH1 0x4 PUSH1 0x20 MSTORE PUSH1 0x0 SWAP1 DUP2 MSTORE PUSH1 0x40 SWAP1 KECCAK256 SLOAD DUP2 JUMP JUMPDEST PUSH1 0x0 DUP1 PUSH1 0xC SLOAD PUSH1 0x1 EQ PUSH2 0x104D JUMPI PUSH1 0x40 DUP1 MLOAD PUSH3 0x461BCD PUSH1 0xE5 SHL DUP2 MSTORE PUSH1 0x20 PUSH1 0x4 DUP3 ADD MSTORE PUSH1 0x11 PUSH1 0x24 DUP3 ADD MSTORE PUSH17 0x155B9A5CDDD85C158C8E881313D0D2D151 PUSH1 0x7A SHL PUSH1 0x44 DUP3 ADD MSTORE SWAP1 MLOAD SWAP1 DUP2 SWAP1 SUB PUSH1 0x64 ADD SWAP1 REVERT JUMPDEST PUSH1 0x0 PUSH1 0xC DUP2 SWAP1 SSTORE DUP1 PUSH2 0x105D PUSH2 0xB26 JUMP JUMPDEST POP PUSH1 0x6 SLOAD PUSH1 0x7 SLOAD PUSH1 0x40 DUP1 MLOAD PUSH4 0x70A08231 PUSH1 0xE0 SHL DUP2 MSTORE ADDRESS PUSH1 0x4 DUP3 ADD MSTORE SWAP1 MLOAD SWAP5 SWAP7 POP SWAP3 SWAP5 POP PUSH1 0x1 PUSH1 0x1 PUSH1 0xA0 SHL SUB SWAP2 DUP3 AND SWAP4 SWAP2 AND SWAP2 PUSH1 0x0 SWAP2 DUP5 SWAP2 PUSH4 0x70A08231 SWAP2 PUSH1 0x24 DUP1 DUP4 ADD SWAP3 PUSH1 0x20 SWAP3 SWAP2 SWAP1 DUP3 SWAP1 SUB ADD DUP2 DUP7 DUP1 EXTCODESIZE ISZERO DUP1 ISZERO PUSH2 0x10B9 JUMPI PUSH1 0x0 DUP1 REVERT JUMPDEST POP GAS STATICCALL ISZERO DUP1 ISZERO PUSH2 0x10CD JUMPI RETURNDATASIZE PUSH1 0x0 DUP1 RETURNDATACOPY RETURNDATASIZE PUSH1 0x0 REVERT JUMPDEST POP POP POP POP PUSH1 0x40 MLOAD RETURNDATASIZE PUSH1 0x20 DUP2 LT ISZERO PUSH2 0x10E3 JUMPI PUSH1 0x0 DUP1 REVERT JUMPDEST POP MLOAD PUSH1 0x40 DUP1 MLOAD PUSH4 0x70A08231 PUSH1 0xE0 SHL DUP2 MSTORE ADDRESS PUSH1 0x4 DUP3 ADD MSTORE SWAP1 MLOAD SWAP2 SWAP3 POP PUSH1 0x0 SWAP2 PUSH1 0x1 PUSH1 0x1 PUSH1 0xA0 SHL SUB DUP6 AND SWAP2 PUSH4 0x70A08231 SWAP2 PUSH1 0x24 DUP1 DUP4 ADD SWAP3 PUSH1 0x20 SWAP3 SWAP2 SWAP1 DUP3 SWAP1 SUB ADD DUP2 DUP7 DUP1 EXTCODESIZE ISZERO DUP1 ISZERO PUSH2 0x1131 JUMPI PUSH1 0x0 DUP1 REVERT JUMPDEST POP GAS STATICCALL ISZERO DUP1 ISZERO PUSH2 0x1145 JUMPI RETURNDATASIZE PUSH1 0x0 DUP1 RETURNDATACOPY RETURNDATASIZE PUSH1 0x0 REVERT JUMPDEST POP POP POP POP PUSH1 0x40 MLOAD RETURNDATASIZE PUSH1 0x20 DUP2 LT ISZERO PUSH2 0x115B JUMPI PUSH1 0x0 DUP1 REVERT JUMPDEST POP MLOAD ADDRESS PUSH1 0x0 SWAP1 DUP2 MSTORE PUSH1 0x1 PUSH1 0x20 MSTORE PUSH1 0x40 DUP2 KECCAK256 SLOAD SWAP2 SWAP3 POP PUSH2 0x117A DUP9 DUP9 PUSH2 0x1E12 JUMP JUMPDEST PUSH1 0x0 SLOAD SWAP1 SWAP2 POP DUP1 PUSH2 0x1191 DUP5 DUP8 PUSH4 0xFFFFFFFF PUSH2 0x1A7E AND JUMP JUMPDEST DUP2 PUSH2 0x1198 JUMPI INVALID JUMPDEST DIV SWAP11 POP DUP1 PUSH2 0x11AC DUP5 DUP7 PUSH4 0xFFFFFFFF PUSH2 0x1A7E AND JUMP JUMPDEST DUP2 PUSH2 0x11B3 JUMPI INVALID JUMPDEST DIV SWAP10 POP PUSH1 0x0 DUP12 GT DUP1 ISZERO PUSH2 0x11C6 JUMPI POP PUSH1 0x0 DUP11 GT JUMPDEST PUSH2 0x1201 JUMPI PUSH1 0x40 MLOAD PUSH3 0x461BCD PUSH1 0xE5 SHL DUP2 MSTORE PUSH1 0x4 ADD DUP1 DUP1 PUSH1 0x20 ADD DUP3 DUP2 SUB DUP3 MSTORE PUSH1 0x28 DUP2 MSTORE PUSH1 0x20 ADD DUP1 PUSH2 0x22A4 PUSH1 0x28 SWAP2 CODECOPY PUSH1 0x40 ADD SWAP2 POP POP PUSH1 0x40 MLOAD DUP1 SWAP2 SUB SWAP1 REVERT JUMPDEST PUSH2 0x120B ADDRESS DUP5 PUSH2 0x2115 JUMP JUMPDEST PUSH2 0x1216 DUP8 DUP14 DUP14 PUSH2 0x18E4 JUMP JUMPDEST PUSH2 0x1221 DUP7 DUP14 DUP13 PUSH2 0x18E4 JUMP JUMPDEST PUSH1 0x40 DUP1 MLOAD PUSH4 0x70A08231 PUSH1 0xE0 SHL DUP2 MSTORE ADDRESS PUSH1 0x4 DUP3 ADD MSTORE SWAP1 MLOAD PUSH1 0x1 PUSH1 0x1 PUSH1 0xA0 SHL SUB DUP10 AND SWAP2 PUSH4 0x70A08231 SWAP2 PUSH1 0x24 DUP1 DUP4 ADD SWAP3 PUSH1 0x20 SWAP3 SWAP2 SWAP1 DUP3 SWAP1 SUB ADD DUP2 DUP7 DUP1 EXTCODESIZE ISZERO DUP1 ISZERO PUSH2 0x1267 JUMPI PUSH1 0x0 DUP1 REVERT JUMPDEST POP GAS STATICCALL ISZERO DUP1 ISZERO PUSH2 0x127B JUMPI RETURNDATASIZE PUSH1 0x0 DUP1 RETURNDATACOPY RETURNDATASIZE PUSH1 0x0 REVERT JUMPDEST POP POP POP POP PUSH1 0x40 MLOAD RETURNDATASIZE PUSH1 0x20 DUP2 LT ISZERO PUSH2 0x1291 JUMPI PUSH1 0x0 DUP1 REVERT JUMPDEST POP MLOAD PUSH1 0x40 DUP1 MLOAD PUSH4 0x70A08231 PUSH1 0xE0 SHL DUP2 MSTORE ADDRESS PUSH1 0x4 DUP3 ADD MSTORE SWAP1 MLOAD SWAP2 SWAP7 POP PUSH1 0x1 PUSH1 0x1 PUSH1 0xA0 SHL SUB DUP9 AND SWAP2 PUSH4 0x70A08231 SWAP2 PUSH1 0x24 DUP1 DUP3 ADD SWAP3 PUSH1 0x20 SWAP3 SWAP1 SWAP2 SWAP1 DUP3 SWAP1 SUB ADD DUP2 DUP7 DUP1 EXTCODESIZE ISZERO DUP1 ISZERO PUSH2 0x12DD JUMPI PUSH1 0x0 DUP1 REVERT JUMPDEST POP GAS STATICCALL ISZERO DUP1 ISZERO PUSH2 0x12F1 JUMPI RETURNDATASIZE PUSH1 0x0 DUP1 RETURNDATACOPY RETURNDATASIZE PUSH1 0x0 REVERT JUMPDEST POP POP POP POP PUSH1 0x40 MLOAD RETURNDATASIZE PUSH1 0x20 DUP2 LT ISZERO PUSH2 0x1307 JUMPI PUSH1 0x0 DUP1 REVERT JUMPDEST POP MLOAD SWAP4 POP PUSH2 0x1317 DUP6 DUP6 DUP12 DUP12 PUSH2 0x1B31 JUMP JUMPDEST DUP2 ISZERO PUSH2 0x1347 JUMPI PUSH1 0x8 SLOAD PUSH2 0x1343 SWAP1 PUSH1 0x1 PUSH1 0x1 PUSH1 0x70 SHL SUB DUP1 DUP3 AND SWAP2 PUSH1 0x1 PUSH1 0x70 SHL SWAP1 DIV AND PUSH4 0xFFFFFFFF PUSH2 0x1A7E AND JUMP JUMPDEST PUSH1 0xB SSTORE JUMPDEST PUSH1 0x40 DUP1 MLOAD DUP13 DUP2 MSTORE PUSH1 0x20 DUP2 ADD DUP13 SWAP1 MSTORE DUP2 MLOAD PUSH1 0x1 PUSH1 0x1 PUSH1 0xA0 SHL SUB DUP16 AND SWAP3 CALLER SWAP3 PUSH32 0xDCCD412F0B1252819CB1FD330B93224CA42612892BB3F4F789976E6D81936496 SWAP3 SWAP1 DUP2 SWAP1 SUB SWAP1 SWAP2 ADD SWAP1 LOG3 POP POP POP POP POP POP POP POP POP PUSH1 0x1 PUSH1 0xC DUP2 SWAP1 SSTORE POP SWAP2 POP SWAP2 JUMP JUMPDEST PUSH1 0x40 MLOAD DUP1 PUSH1 0x40 ADD PUSH1 0x40 MSTORE DUP1 PUSH1 0x6 DUP2 MSTORE PUSH1 0x20 ADD PUSH6 0x43415249544F PUSH1 0xD0 SHL DUP2 MSTORE POP DUP2 JUMP JUMPDEST PUSH1 0x0 PUSH2 0xB5D CALLER DUP5 DUP5 PUSH2 0x1D58 JUMP JUMPDEST PUSH2 0x3E8 DUP2 JUMP JUMPDEST PUSH1 0xC SLOAD PUSH1 0x1 EQ PUSH2 0x1425 JUMPI PUSH1 0x40 DUP1 MLOAD PUSH3 0x461BCD PUSH1 0xE5 SHL DUP2 MSTORE PUSH1 0x20 PUSH1 0x4 DUP3 ADD MSTORE PUSH1 0x11 PUSH1 0x24 DUP3 ADD MSTORE PUSH17 0x155B9A5CDDD85C158C8E881313D0D2D151 PUSH1 0x7A SHL PUSH1 0x44 DUP3 ADD MSTORE SWAP1 MLOAD SWAP1 DUP2 SWAP1 SUB PUSH1 0x64 ADD SWAP1 REVERT JUMPDEST PUSH1 0x0 PUSH1 0xC SSTORE PUSH1 0x6 SLOAD PUSH1 0x7 SLOAD PUSH1 0x8 SLOAD PUSH1 0x40 DUP1 MLOAD PUSH4 0x70A08231 PUSH1 0xE0 SHL DUP2 MSTORE ADDRESS PUSH1 0x4 DUP3 ADD MSTORE SWAP1 MLOAD PUSH1 0x1 PUSH1 0x1 PUSH1 0xA0 SHL SUB SWAP5 DUP6 AND SWAP5 SWAP1 SWAP4 AND SWAP3 PUSH2 0x14D4 SWAP3 DUP6 SWAP3 DUP8 SWAP3 PUSH2 0x14CF SWAP3 PUSH1 0x1 PUSH1 0x1 PUSH1 0x70 SHL SUB AND SWAP2 DUP6 SWAP2 PUSH4 0x70A08231 SWAP2 PUSH1 0x24 DUP1 DUP3 ADD SWAP3 PUSH1 0x20 SWAP3 SWAP1 SWAP2 SWAP1 DUP3 SWAP1 SUB ADD DUP2 DUP7 DUP1 EXTCODESIZE ISZERO DUP1 ISZERO PUSH2 0x1497 JUMPI PUSH1 0x0 DUP1 REVERT JUMPDEST POP GAS STATICCALL ISZERO DUP1 ISZERO PUSH2 0x14AB JUMPI RETURNDATASIZE PUSH1 0x0 DUP1 RETURNDATACOPY RETURNDATASIZE PUSH1 0x0 REVERT JUMPDEST POP POP POP POP PUSH1 0x40 MLOAD RETURNDATASIZE PUSH1 0x20 DUP2 LT ISZERO PUSH2 0x14C1 JUMPI PUSH1 0x0 DUP1 REVERT JUMPDEST POP MLOAD SWAP1 PUSH4 0xFFFFFFFF PUSH2 0x1AE1 AND JUMP JUMPDEST PUSH2 0x18E4 JUMP JUMPDEST PUSH1 0x8 SLOAD PUSH1 0x40 DUP1 MLOAD PUSH4 0x70A08231 PUSH1 0xE0 SHL DUP2 MSTORE ADDRESS PUSH1 0x4 DUP3 ADD MSTORE SWAP1 MLOAD PUSH2 0x153B SWAP3 DUP5 SWAP3 DUP8 SWAP3 PUSH2 0x14CF SWAP3 PUSH1 0x1 PUSH1 0x70 SHL SWAP1 DIV PUSH1 0x1 PUSH1 0x1 PUSH1 0x70 SHL SUB AND SWAP2 PUSH1 0x1 PUSH1 0x1 PUSH1 0xA0 SHL SUB DUP7 AND SWAP2 PUSH4 0x70A08231 SWAP2 PUSH1 0x24 DUP1 DUP3 ADD SWAP3 PUSH1 0x20 SWAP3 SWAP1 SWAP2 SWAP1 DUP3 SWAP1 SUB ADD DUP2 DUP7 DUP1 EXTCODESIZE ISZERO DUP1 ISZERO PUSH2 0x1497 JUMPI PUSH1 0x0 DUP1 REVERT JUMPDEST POP POP PUSH1 0x1 PUSH1 0xC SSTORE POP JUMP JUMPDEST PUSH1 0x5 SLOAD PUSH1 0x1 PUSH1 0x1 PUSH1 0xA0 SHL SUB AND DUP2 JUMP JUMPDEST PUSH1 0x7 SLOAD PUSH1 0x1 PUSH1 0x1 PUSH1 0xA0 SHL SUB AND DUP2 JUMP JUMPDEST TIMESTAMP DUP5 LT ISZERO PUSH2 0x15AD JUMPI PUSH1 0x40 DUP1 MLOAD PUSH3 0x461BCD PUSH1 0xE5 SHL DUP2 MSTORE PUSH1 0x20 PUSH1 0x4 DUP3 ADD MSTORE PUSH1 0x12 PUSH1 0x24 DUP3 ADD MSTORE PUSH18 0x155B9A5CDDD85C158C8E8811561412549151 PUSH1 0x72 SHL PUSH1 0x44 DUP3 ADD MSTORE SWAP1 MLOAD SWAP1 DUP2 SWAP1 SUB PUSH1 0x64 ADD SWAP1 REVERT JUMPDEST PUSH1 0x3 SLOAD PUSH1 0x1 PUSH1 0x1 PUSH1 0xA0 SHL SUB DUP1 DUP10 AND PUSH1 0x0 DUP2 DUP2 MSTORE PUSH1 0x4 PUSH1 0x20 SWAP1 DUP2 MSTORE PUSH1 0x40 DUP1 DUP4 KECCAK256 DUP1 SLOAD PUSH1 0x1 DUP1 DUP3 ADD SWAP1 SWAP3 SSTORE DUP3 MLOAD PUSH32 0x6E71EDAE12B1B97F4D1F60370FEF10105FA2FAAE0126114A169C64845D6126C9 DUP2 DUP7 ADD MSTORE DUP1 DUP5 ADD SWAP7 SWAP1 SWAP7 MSTORE SWAP6 DUP14 AND PUSH1 0x60 DUP7 ADD MSTORE PUSH1 0x80 DUP6 ADD DUP13 SWAP1 MSTORE PUSH1 0xA0 DUP6 ADD SWAP6 SWAP1 SWAP6 MSTORE PUSH1 0xC0 DUP1 DUP6 ADD DUP12 SWAP1 MSTORE DUP2 MLOAD DUP1 DUP7 SUB SWAP1 SWAP2 ADD DUP2 MSTORE PUSH1 0xE0 DUP6 ADD DUP3 MSTORE DUP1 MLOAD SWAP1 DUP4 ADD KECCAK256 PUSH2 0x1901 PUSH1 0xF0 SHL PUSH2 0x100 DUP7 ADD MSTORE PUSH2 0x102 DUP6 ADD SWAP7 SWAP1 SWAP7 MSTORE PUSH2 0x122 DUP1 DUP6 ADD SWAP7 SWAP1 SWAP7 MSTORE DUP1 MLOAD DUP1 DUP6 SUB SWAP1 SWAP7 ADD DUP7 MSTORE PUSH2 0x142 DUP5 ADD DUP1 DUP3 MSTORE DUP7 MLOAD SWAP7 DUP4 ADD SWAP7 SWAP1 SWAP7 KECCAK256 SWAP6 DUP4 SWAP1 MSTORE PUSH2 0x162 DUP5 ADD DUP1 DUP3 MSTORE DUP7 SWAP1 MSTORE PUSH1 0xFF DUP10 AND PUSH2 0x182 DUP6 ADD MSTORE PUSH2 0x1A2 DUP5 ADD DUP9 SWAP1 MSTORE PUSH2 0x1C2 DUP5 ADD DUP8 SWAP1 MSTORE MLOAD SWAP2 SWAP4 SWAP3 PUSH2 0x1E2 DUP1 DUP3 ADD SWAP4 PUSH1 0x1F NOT DUP2 ADD SWAP3 DUP2 SWAP1 SUB SWAP1 SWAP2 ADD SWAP1 DUP6 GAS STATICCALL ISZERO DUP1 ISZERO PUSH2 0x16C8 JUMPI RETURNDATASIZE PUSH1 0x0 DUP1 RETURNDATACOPY RETURNDATASIZE PUSH1 0x0 REVERT JUMPDEST POP POP PUSH1 0x40 MLOAD PUSH1 0x1F NOT ADD MLOAD SWAP2 POP POP PUSH1 0x1 PUSH1 0x1 PUSH1 0xA0 SHL SUB DUP2 AND ISZERO DUP1 ISZERO SWAP1 PUSH2 0x16FE JUMPI POP DUP9 PUSH1 0x1 PUSH1 0x1 PUSH1 0xA0 SHL SUB AND DUP2 PUSH1 0x1 PUSH1 0x1 PUSH1 0xA0 SHL SUB AND EQ JUMPDEST PUSH2 0x174F JUMPI PUSH1 0x40 DUP1 MLOAD PUSH3 0x461BCD PUSH1 0xE5 SHL DUP2 MSTORE PUSH1 0x20 PUSH1 0x4 DUP3 ADD MSTORE PUSH1 0x1C PUSH1 0x24 DUP3 ADD MSTORE PUSH32 0x556E697377617056323A20494E56414C49445F5349474E415455524500000000 PUSH1 0x44 DUP3 ADD MSTORE SWAP1 MLOAD SWAP1 DUP2 SWAP1 SUB PUSH1 0x64 ADD SWAP1 REVERT JUMPDEST PUSH2 0x175A DUP10 DUP10 DUP10 PUSH2 0x1CF6 JUMP JUMPDEST POP POP POP POP POP POP POP POP POP JUMP JUMPDEST PUSH1 0x2 PUSH1 0x20 SWAP1 DUP2 MSTORE PUSH1 0x0 SWAP3 DUP4 MSTORE PUSH1 0x40 DUP1 DUP5 KECCAK256 SWAP1 SWAP2 MSTORE SWAP1 DUP3 MSTORE SWAP1 KECCAK256 SLOAD DUP2 JUMP JUMPDEST PUSH1 0xC SLOAD PUSH1 0x1 EQ PUSH2 0x17CD JUMPI PUSH1 0x40 DUP1 MLOAD PUSH3 0x461BCD PUSH1 0xE5 SHL DUP2 MSTORE PUSH1 0x20 PUSH1 0x4 DUP3 ADD MSTORE PUSH1 0x11 PUSH1 0x24 DUP3 ADD MSTORE PUSH17 0x155B9A5CDDD85C158C8E881313D0D2D151 PUSH1 0x7A SHL PUSH1 0x44 DUP3 ADD MSTORE SWAP1 MLOAD SWAP1 DUP2 SWAP1 SUB PUSH1 0x64 ADD SWAP1 REVERT JUMPDEST PUSH1 0x0 PUSH1 0xC SSTORE PUSH1 0x6 SLOAD PUSH1 0x40 DUP1 MLOAD PUSH4 0x70A08231 PUSH1 0xE0 SHL DUP2 MSTORE ADDRESS PUSH1 0x4 DUP3 ADD MSTORE SWAP1 MLOAD PUSH2 0x18DD SWAP3 PUSH1 0x1 PUSH1 0x1 PUSH1 0xA0 SHL SUB AND SWAP2 PUSH4 0x70A08231 SWAP2 PUSH1 0x24 DUP1 DUP4 ADD SWAP3 PUSH1 0x20 SWAP3 SWAP2 SWAP1 DUP3 SWAP1 SUB ADD DUP2 DUP7 DUP1 EXTCODESIZE ISZERO DUP1 ISZERO PUSH2 0x181E JUMPI PUSH1 0x0 DUP1 REVERT JUMPDEST POP GAS STATICCALL ISZERO DUP1 ISZERO PUSH2 0x1832 JUMPI RETURNDATASIZE PUSH1 0x0 DUP1 RETURNDATACOPY RETURNDATASIZE PUSH1 0x0 REVERT JUMPDEST POP POP POP POP PUSH1 0x40 MLOAD RETURNDATASIZE PUSH1 0x20 DUP2 LT ISZERO PUSH2 0x1848 JUMPI PUSH1 0x0 DUP1 REVERT JUMPDEST POP MLOAD PUSH1 0x7 SLOAD PUSH1 0x40 DUP1 MLOAD PUSH4 0x70A08231 PUSH1 0xE0 SHL DUP2 MSTORE ADDRESS PUSH1 0x4 DUP3 ADD MSTORE SWAP1 MLOAD PUSH1 0x1 PUSH1 0x1 PUSH1 0xA0 SHL SUB SWAP1 SWAP3 AND SWAP2 PUSH4 0x70A08231 SWAP2 PUSH1 0x24 DUP1 DUP3 ADD SWAP3 PUSH1 0x20 SWAP3 SWAP1 SWAP2 SWAP1 DUP3 SWAP1 SUB ADD DUP2 DUP7 DUP1 EXTCODESIZE ISZERO DUP1 ISZERO PUSH2 0x1895 JUMPI PUSH1 0x0 DUP1 REVERT JUMPDEST POP GAS STATICCALL ISZERO DUP1 ISZERO PUSH2 0x18A9 JUMPI RETURNDATASIZE PUSH1 0x0 DUP1 RETURNDATACOPY RETURNDATASIZE PUSH1 0x0 REVERT JUMPDEST POP POP POP POP PUSH1 0x40 MLOAD RETURNDATASIZE PUSH1 0x20 DUP2 LT ISZERO PUSH2 0x18BF JUMPI PUSH1 0x0 DUP1 REVERT JUMPDEST POP MLOAD PUSH1 0x8 SLOAD PUSH1 0x1 PUSH1 0x1 PUSH1 0x70 SHL SUB DUP1 DUP3 AND SWAP2 PUSH1 0x1 PUSH1 0x70 SHL SWAP1 DIV AND PUSH2 0x1B31 JUMP JUMPDEST PUSH1 0x1 PUSH1 0xC SSTORE JUMP JUMPDEST PUSH1 0x40 DUP1 MLOAD DUP1 DUP3 ADD DUP3 MSTORE PUSH1 0x19 DUP2 MSTORE PUSH32 0x7472616E7366657228616464726573732C75696E743235362900000000000000 PUSH1 0x20 SWAP2 DUP3 ADD MSTORE DUP2 MLOAD PUSH1 0x1 PUSH1 0x1 PUSH1 0xA0 SHL SUB DUP6 DUP2 AND PUSH1 0x24 DUP4 ADD MSTORE PUSH1 0x44 DUP1 DUP4 ADD DUP7 SWAP1 MSTORE DUP5 MLOAD DUP1 DUP5 SUB SWAP1 SWAP2 ADD DUP2 MSTORE PUSH1 0x64 SWAP1 SWAP3 ADD DUP5 MSTORE SWAP2 DUP2 ADD DUP1 MLOAD PUSH1 0x1 PUSH1 0x1 PUSH1 0xE0 SHL SUB AND PUSH4 0xA9059CBB PUSH1 0xE0 SHL OR DUP2 MSTORE SWAP3 MLOAD DUP2 MLOAD PUSH1 0x0 SWAP5 PUSH1 0x60 SWAP5 DUP10 AND SWAP4 SWAP3 SWAP2 DUP3 SWAP2 SWAP1 DUP1 DUP4 DUP4 JUMPDEST PUSH1 0x20 DUP4 LT PUSH2 0x1991 JUMPI DUP1 MLOAD DUP3 MSTORE PUSH1 0x1F NOT SWAP1 SWAP3 ADD SWAP2 PUSH1 0x20 SWAP2 DUP3 ADD SWAP2 ADD PUSH2 0x1972 JUMP JUMPDEST PUSH1 0x1 DUP4 PUSH1 0x20 SUB PUSH2 0x100 EXP SUB DUP1 NOT DUP3 MLOAD AND DUP2 DUP5 MLOAD AND DUP1 DUP3 OR DUP6 MSTORE POP POP POP POP POP POP SWAP1 POP ADD SWAP2 POP POP PUSH1 0x0 PUSH1 0x40 MLOAD DUP1 DUP4 SUB DUP2 PUSH1 0x0 DUP7 GAS CALL SWAP2 POP POP RETURNDATASIZE DUP1 PUSH1 0x0 DUP2 EQ PUSH2 0x19F3 JUMPI PUSH1 0x40 MLOAD SWAP2 POP PUSH1 0x1F NOT PUSH1 0x3F RETURNDATASIZE ADD AND DUP3 ADD PUSH1 0x40 MSTORE RETURNDATASIZE DUP3 MSTORE RETURNDATASIZE PUSH1 0x0 PUSH1 0x20 DUP5 ADD RETURNDATACOPY PUSH2 0x19F8 JUMP JUMPDEST PUSH1 0x60 SWAP2 POP JUMPDEST POP SWAP2 POP SWAP2 POP DUP2 DUP1 ISZERO PUSH2 0x1A26 JUMPI POP DUP1 MLOAD ISZERO DUP1 PUSH2 0x1A26 JUMPI POP DUP1 DUP1 PUSH1 0x20 ADD SWAP1 MLOAD PUSH1 0x20 DUP2 LT ISZERO PUSH2 0x1A23 JUMPI PUSH1 0x0 DUP1 REVERT JUMPDEST POP MLOAD JUMPDEST PUSH2 0x1A77 JUMPI PUSH1 0x40 DUP1 MLOAD PUSH3 0x461BCD PUSH1 0xE5 SHL DUP2 MSTORE PUSH1 0x20 PUSH1 0x4 DUP3 ADD MSTORE PUSH1 0x1A PUSH1 0x24 DUP3 ADD MSTORE PUSH32 0x556E697377617056323A205452414E534645525F4641494C4544000000000000 PUSH1 0x44 DUP3 ADD MSTORE SWAP1 MLOAD SWAP1 DUP2 SWAP1 SUB PUSH1 0x64 ADD SWAP1 REVERT JUMPDEST POP POP POP POP POP JUMP JUMPDEST PUSH1 0x0 DUP2 ISZERO DUP1 PUSH2 0x1A99 JUMPI POP POP DUP1 DUP3 MUL DUP3 DUP3 DUP3 DUP2 PUSH2 0x1A96 JUMPI INVALID JUMPDEST DIV EQ JUMPDEST PUSH2 0xB61 JUMPI PUSH1 0x40 DUP1 MLOAD PUSH3 0x461BCD PUSH1 0xE5 SHL DUP2 MSTORE PUSH1 0x20 PUSH1 0x4 DUP3 ADD MSTORE PUSH1 0x14 PUSH1 0x24 DUP3 ADD MSTORE PUSH20 0x64732D6D6174682D6D756C2D6F766572666C6F77 PUSH1 0x60 SHL PUSH1 0x44 DUP3 ADD MSTORE SWAP1 MLOAD SWAP1 DUP2 SWAP1 SUB PUSH1 0x64 ADD SWAP1 REVERT JUMPDEST DUP1 DUP3 SUB DUP3 DUP2 GT ISZERO PUSH2 0xB61 JUMPI PUSH1 0x40 DUP1 MLOAD PUSH3 0x461BCD PUSH1 0xE5 SHL DUP2 MSTORE PUSH1 0x20 PUSH1 0x4 DUP3 ADD MSTORE PUSH1 0x15 PUSH1 0x24 DUP3 ADD MSTORE PUSH21 0x64732D6D6174682D7375622D756E646572666C6F77 PUSH1 0x58 SHL PUSH1 0x44 DUP3 ADD MSTORE SWAP1 MLOAD SWAP1 DUP2 SWAP1 SUB PUSH1 0x64 ADD SWAP1 REVERT JUMPDEST PUSH1 0x1 PUSH1 0x1 PUSH1 0x70 SHL SUB DUP5 GT DUP1 ISZERO SWAP1 PUSH2 0x1B4F JUMPI POP PUSH1 0x1 PUSH1 0x1 PUSH1 0x70 SHL SUB DUP4 GT ISZERO JUMPDEST PUSH2 0x1B96 JUMPI PUSH1 0x40 DUP1 MLOAD PUSH3 0x461BCD PUSH1 0xE5 SHL DUP2 MSTORE PUSH1 0x20 PUSH1 0x4 DUP3 ADD MSTORE PUSH1 0x13 PUSH1 0x24 DUP3 ADD MSTORE PUSH19 0x556E697377617056323A204F564552464C4F57 PUSH1 0x68 SHL PUSH1 0x44 DUP3 ADD MSTORE SWAP1 MLOAD SWAP1 DUP2 SWAP1 SUB PUSH1 0x64 ADD SWAP1 REVERT JUMPDEST PUSH1 0x8 SLOAD PUSH4 0xFFFFFFFF TIMESTAMP DUP2 AND SWAP2 PUSH1 0x1 PUSH1 0xE0 SHL SWAP1 DIV DUP2 AND DUP3 SUB SWAP1 DUP2 AND ISZERO DUP1 ISZERO SWAP1 PUSH2 0x1BC6 JUMPI POP PUSH1 0x1 PUSH1 0x1 PUSH1 0x70 SHL SUB DUP5 AND ISZERO ISZERO JUMPDEST DUP1 ISZERO PUSH2 0x1BDA JUMPI POP PUSH1 0x1 PUSH1 0x1 PUSH1 0x70 SHL SUB DUP4 AND ISZERO ISZERO JUMPDEST ISZERO PUSH2 0x1C4B JUMPI DUP1 PUSH4 0xFFFFFFFF AND PUSH2 0x1C08 DUP6 PUSH2 0x1BF3 DUP7 PUSH2 0x21B3 JUMP JUMPDEST PUSH1 0x1 PUSH1 0x1 PUSH1 0xE0 SHL SUB AND SWAP1 PUSH4 0xFFFFFFFF PUSH2 0x21C5 AND JUMP JUMPDEST PUSH1 0x9 DUP1 SLOAD PUSH1 0x1 PUSH1 0x1 PUSH1 0xE0 SHL SUB SWAP3 SWAP1 SWAP3 AND SWAP3 SWAP1 SWAP3 MUL ADD SWAP1 SSTORE PUSH4 0xFFFFFFFF DUP2 AND PUSH2 0x1C33 DUP5 PUSH2 0x1BF3 DUP8 PUSH2 0x21B3 JUMP JUMPDEST PUSH1 0xA DUP1 SLOAD PUSH1 0x1 PUSH1 0x1 PUSH1 0xE0 SHL SUB SWAP3 SWAP1 SWAP3 AND SWAP3 SWAP1 SWAP3 MUL ADD SWAP1 SSTORE JUMPDEST PUSH1 0x8 DUP1 SLOAD PUSH14 0xFFFFFFFFFFFFFFFFFFFFFFFFFFFF NOT AND PUSH1 0x1 PUSH1 0x1 PUSH1 0x70 SHL SUB DUP9 DUP2 AND SWAP2 SWAP1 SWAP2 OR PUSH14 0xFFFFFFFFFFFFFFFFFFFFFFFFFFFF PUSH1 0x70 SHL NOT AND PUSH1 0x1 PUSH1 0x70 SHL DUP9 DUP4 AND DUP2 MUL SWAP2 SWAP1 SWAP2 OR PUSH1 0x1 PUSH1 0x1 PUSH1 0xE0 SHL SUB AND PUSH1 0x1 PUSH1 0xE0 SHL PUSH4 0xFFFFFFFF DUP8 AND MUL OR SWAP3 DUP4 SWAP1 SSTORE PUSH1 0x40 DUP1 MLOAD DUP5 DUP5 AND DUP2 MSTORE SWAP2 SWAP1 SWAP4 DIV SWAP1 SWAP2 AND PUSH1 0x20 DUP3 ADD MSTORE DUP2 MLOAD PUSH32 0x1C411E9A96E071241C2F21F7726B17AE89E3CAB4C78BE50E062B03A9FFFBBAD1 SWAP3 SWAP2 DUP2 SWAP1 SUB SWAP1 SWAP2 ADD SWAP1 LOG1 POP POP POP POP POP POP JUMP JUMPDEST PUSH1 0x1 PUSH1 0x1 PUSH1 0xA0 SHL SUB DUP1 DUP5 AND PUSH1 0x0 DUP2 DUP2 MSTORE PUSH1 0x2 PUSH1 0x20 SWAP1 DUP2 MSTORE PUSH1 0x40 DUP1 DUP4 KECCAK256 SWAP5 DUP8 AND DUP1 DUP5 MSTORE SWAP5 DUP3 MSTORE SWAP2 DUP3 SWAP1 KECCAK256 DUP6 SWAP1 SSTORE DUP2 MLOAD DUP6 DUP2 MSTORE SWAP2 MLOAD PUSH32 0x8C5BE1E5EBEC7D5BD14F71427D1E84F3DD0314C0F7B2291E5B200AC8C7C3B925 SWAP3 DUP2 SWAP1 SUB SWAP1 SWAP2 ADD SWAP1 LOG3 POP POP POP JUMP JUMPDEST PUSH1 0x1 PUSH1 0x1 PUSH1 0xA0 SHL SUB DUP4 AND PUSH1 0x0 SWAP1 DUP2 MSTORE PUSH1 0x1 PUSH1 0x20 MSTORE PUSH1 0x40 SWAP1 KECCAK256 SLOAD PUSH2 0x1D81 SWAP1 DUP3 PUSH4 0xFFFFFFFF PUSH2 0x1AE1 AND JUMP JUMPDEST PUSH1 0x1 PUSH1 0x1 PUSH1 0xA0 SHL SUB DUP1 DUP6 AND PUSH1 0x0 SWAP1 DUP2 MSTORE PUSH1 0x1 PUSH1 0x20 MSTORE PUSH1 0x40 DUP1 DUP3 KECCAK256 SWAP4 SWAP1 SWAP4 SSTORE SWAP1 DUP5 AND DUP2 MSTORE KECCAK256 SLOAD PUSH2 0x1DB6 SWAP1 DUP3 PUSH4 0xFFFFFFFF PUSH2 0x21EA AND JUMP JUMPDEST PUSH1 0x1 PUSH1 0x1 PUSH1 0xA0 SHL SUB DUP1 DUP5 AND PUSH1 0x0 DUP2 DUP2 MSTORE PUSH1 0x1 PUSH1 0x20 SWAP1 DUP2 MSTORE PUSH1 0x40 SWAP2 DUP3 SWAP1 KECCAK256 SWAP5 SWAP1 SWAP5 SSTORE DUP1 MLOAD DUP6 DUP2 MSTORE SWAP1 MLOAD SWAP2 SWAP4 SWAP3 DUP8 AND SWAP3 PUSH32 0xDDF252AD1BE2C89B69C2B068FC378DAA952BA7F163C4A11628F55A4DF523B3EF SWAP3 SWAP2 DUP3 SWAP1 SUB ADD SWAP1 LOG3 POP POP POP JUMP JUMPDEST PUSH1 0x0 DUP1 PUSH1 0x5 PUSH1 0x0 SWAP1 SLOAD SWAP1 PUSH2 0x100 EXP SWAP1 DIV PUSH1 0x1 PUSH1 0x1 PUSH1 0xA0 SHL SUB AND PUSH1 0x1 PUSH1 0x1 PUSH1 0xA0 SHL SUB AND PUSH4 0x17E7E58 PUSH1 0x40 MLOAD DUP2 PUSH4 0xFFFFFFFF AND PUSH1 0xE0 SHL DUP2 MSTORE PUSH1 0x4 ADD PUSH1 0x20 PUSH1 0x40 MLOAD DUP1 DUP4 SUB DUP2 DUP7 DUP1 EXTCODESIZE ISZERO DUP1 ISZERO PUSH2 0x1E63 JUMPI PUSH1 0x0 DUP1 REVERT JUMPDEST POP GAS STATICCALL ISZERO DUP1 ISZERO PUSH2 0x1E77 JUMPI RETURNDATASIZE PUSH1 0x0 DUP1 RETURNDATACOPY RETURNDATASIZE PUSH1 0x0 REVERT JUMPDEST POP POP POP POP PUSH1 0x40 MLOAD RETURNDATASIZE PUSH1 0x20 DUP2 LT ISZERO PUSH2 0x1E8D JUMPI PUSH1 0x0 DUP1 REVERT JUMPDEST POP MLOAD PUSH1 0x5 SLOAD PUSH1 0x40 DUP1 MLOAD PUSH4 0x27AEBAD3 PUSH1 0xE2 SHL DUP2 MSTORE SWAP1 MLOAD SWAP3 SWAP4 POP PUSH1 0x0 SWAP3 PUSH1 0x1 PUSH1 0x1 PUSH1 0xA0 SHL SUB SWAP1 SWAP3 AND SWAP2 PUSH4 0x9EBAEB4C SWAP2 PUSH1 0x4 DUP1 DUP3 ADD SWAP3 PUSH1 0x20 SWAP3 SWAP1 SWAP2 SWAP1 DUP3 SWAP1 SUB ADD DUP2 DUP7 DUP1 EXTCODESIZE ISZERO DUP1 ISZERO PUSH2 0x1EDA JUMPI PUSH1 0x0 DUP1 REVERT JUMPDEST POP GAS STATICCALL ISZERO DUP1 ISZERO PUSH2 0x1EEE JUMPI RETURNDATASIZE PUSH1 0x0 DUP1 RETURNDATACOPY RETURNDATASIZE PUSH1 0x0 REVERT JUMPDEST POP POP POP POP PUSH1 0x40 MLOAD RETURNDATASIZE PUSH1 0x20 DUP2 LT ISZERO PUSH2 0x1F04 JUMPI PUSH1 0x0 DUP1 REVERT JUMPDEST POP MLOAD PUSH1 0xB SLOAD PUSH1 0x1 PUSH1 0x1 PUSH1 0xA0 SHL SUB DUP5 AND ISZERO DUP1 ISZERO SWAP6 POP SWAP2 SWAP3 POP SWAP1 PUSH2 0x2000 JUMPI DUP1 ISZERO PUSH2 0x1FFB JUMPI PUSH1 0x0 PUSH2 0x1F47 PUSH2 0xE9B PUSH1 0x1 PUSH1 0x1 PUSH1 0x70 SHL SUB DUP10 DUP2 AND SWAP1 DUP10 AND PUSH4 0xFFFFFFFF PUSH2 0x1A7E AND JUMP JUMPDEST SWAP1 POP PUSH1 0x0 PUSH2 0x1F54 DUP4 PUSH2 0x2015 JUMP JUMPDEST SWAP1 POP DUP1 DUP3 GT ISZERO PUSH2 0x1FF8 JUMPI PUSH1 0x0 PUSH2 0x1F82 PUSH2 0x1F73 DUP5 DUP5 PUSH4 0xFFFFFFFF PUSH2 0x1AE1 AND JUMP JUMPDEST PUSH1 0x0 SLOAD SWAP1 PUSH4 0xFFFFFFFF PUSH2 0x1A7E AND JUMP JUMPDEST SWAP1 POP PUSH1 0x0 PUSH2 0x1FA7 DUP4 PUSH2 0x1F9B DUP7 PUSH1 0x5 PUSH4 0xFFFFFFFF PUSH2 0x1A7E AND JUMP JUMPDEST SWAP1 PUSH4 0xFFFFFFFF PUSH2 0x21EA AND JUMP JUMPDEST SWAP1 POP PUSH1 0x0 DUP2 DUP4 DUP2 PUSH2 0x1FB4 JUMPI INVALID JUMPDEST DIV SWAP1 POP DUP1 ISZERO PUSH2 0x1FF4 JUMPI PUSH1 0x1 PUSH1 0x1 PUSH1 0xA0 SHL SUB DUP8 AND PUSH2 0x1FDA JUMPI PUSH2 0x1FD5 DUP9 DUP3 PUSH2 0x2067 JUMP JUMPDEST PUSH2 0x1FF4 JUMP JUMPDEST PUSH2 0x1FE8 DUP9 PUSH1 0x2 DUP4 JUMPDEST DIV PUSH2 0x2067 JUMP JUMPDEST PUSH2 0x1FF4 DUP8 PUSH1 0x2 DUP4 PUSH2 0x1FE2 JUMP JUMPDEST POP POP POP JUMPDEST POP POP JUMPDEST PUSH2 0x200C JUMP JUMPDEST DUP1 ISZERO PUSH2 0x200C JUMPI PUSH1 0x0 PUSH1 0xB SSTORE JUMPDEST POP POP POP SWAP3 SWAP2 POP POP JUMP JUMPDEST PUSH1 0x0 PUSH1 0x3 DUP3 GT ISZERO PUSH2 0x2058 JUMPI POP DUP1 PUSH1 0x1 PUSH1 0x2 DUP3 DIV ADD JUMPDEST DUP2 DUP2 LT ISZERO PUSH2 0x2052 JUMPI DUP1 SWAP2 POP PUSH1 0x2 DUP2 DUP3 DUP6 DUP2 PUSH2 0x2041 JUMPI INVALID JUMPDEST DIV ADD DUP2 PUSH2 0x204A JUMPI INVALID JUMPDEST DIV SWAP1 POP PUSH2 0x202A JUMP JUMPDEST POP PUSH2 0x2062 JUMP JUMPDEST DUP2 ISZERO PUSH2 0x2062 JUMPI POP PUSH1 0x1 JUMPDEST SWAP2 SWAP1 POP JUMP JUMPDEST PUSH1 0x0 SLOAD PUSH2 0x207A SWAP1 DUP3 PUSH4 0xFFFFFFFF PUSH2 0x21EA AND JUMP JUMPDEST PUSH1 0x0 SWAP1 DUP2 SSTORE PUSH1 0x1 PUSH1 0x1 PUSH1 0xA0 SHL SUB DUP4 AND DUP2 MSTORE PUSH1 0x1 PUSH1 0x20 MSTORE PUSH1 0x40 SWAP1 KECCAK256 SLOAD PUSH2 0x20A5 SWAP1 DUP3 PUSH4 0xFFFFFFFF PUSH2 0x21EA AND JUMP JUMPDEST PUSH1 0x1 PUSH1 0x1 PUSH1 0xA0 SHL SUB DUP4 AND PUSH1 0x0 DUP2 DUP2 MSTORE PUSH1 0x1 PUSH1 0x20 SWAP1 DUP2 MSTORE PUSH1 0x40 DUP1 DUP4 KECCAK256 SWAP5 SWAP1 SWAP5 SSTORE DUP4 MLOAD DUP6 DUP2 MSTORE SWAP4 MLOAD SWAP3 SWAP4 SWAP2 SWAP3 PUSH32 0xDDF252AD1BE2C89B69C2B068FC378DAA952BA7F163C4A11628F55A4DF523B3EF SWAP3 DUP2 SWAP1 SUB SWAP1 SWAP2 ADD SWAP1 LOG3 POP POP JUMP JUMPDEST PUSH1 0x0 DUP2 DUP4 LT PUSH2 0x210C JUMPI DUP2 PUSH2 0x210E JUMP JUMPDEST DUP3 JUMPDEST SWAP4 SWAP3 POP POP POP JUMP JUMPDEST PUSH1 0x1 PUSH1 0x1 PUSH1 0xA0 SHL SUB DUP3 AND PUSH1 0x0 SWAP1 DUP2 MSTORE PUSH1 0x1 PUSH1 0x20 MSTORE PUSH1 0x40 SWAP1 KECCAK256 SLOAD PUSH2 0x213E SWAP1 DUP3 PUSH4 0xFFFFFFFF PUSH2 0x1AE1 AND JUMP JUMPDEST PUSH1 0x1 PUSH1 0x1 PUSH1 0xA0 SHL SUB DUP4 AND PUSH1 0x0 SWAP1 DUP2 MSTORE PUSH1 0x1 PUSH1 0x20 MSTORE PUSH1 0x40 DUP2 KECCAK256 SWAP2 SWAP1 SWAP2 SSTORE SLOAD PUSH2 0x216B SWAP1 DUP3 PUSH4 0xFFFFFFFF PUSH2 0x1AE1 AND JUMP JUMPDEST PUSH1 0x0 SWAP1 DUP2 SSTORE PUSH1 0x40 DUP1 MLOAD DUP4 DUP2 MSTORE SWAP1 MLOAD PUSH1 0x1 PUSH1 0x1 PUSH1 0xA0 SHL SUB DUP6 AND SWAP2 PUSH32 0xDDF252AD1BE2C89B69C2B068FC378DAA952BA7F163C4A11628F55A4DF523B3EF SWAP2 SWAP1 DUP2 SWAP1 SUB PUSH1 0x20 ADD SWAP1 LOG3 POP POP JUMP JUMPDEST PUSH1 0x1 PUSH1 0x1 PUSH1 0x70 SHL SUB AND PUSH1 0x1 PUSH1 0x70 SHL MUL SWAP1 JUMP JUMPDEST PUSH1 0x0 PUSH1 0x1 PUSH1 0x1 PUSH1 0x70 SHL SUB DUP3 AND PUSH1 0x1 PUSH1 0x1 PUSH1 0xE0 SHL SUB DUP5 AND DUP2 PUSH2 0x21E2 JUMPI INVALID JUMPDEST DIV SWAP4 SWAP3 POP POP POP JUMP JUMPDEST DUP1 DUP3 ADD DUP3 DUP2 LT ISZERO PUSH2 0xB61 JUMPI PUSH1 0x40 DUP1 MLOAD PUSH3 0x461BCD PUSH1 0xE5 SHL DUP2 MSTORE PUSH1 0x20 PUSH1 0x4 DUP3 ADD MSTORE PUSH1 0x14 PUSH1 0x24 DUP3 ADD MSTORE PUSH20 0x64732D6D6174682D6164642D6F766572666C6F77 PUSH1 0x60 SHL PUSH1 0x44 DUP3 ADD MSTORE SWAP1 MLOAD SWAP1 DUP2 SWAP1 SUB PUSH1 0x64 ADD SWAP1 REVERT INVALID SSTORE PUSH15 0x697377617056323A20494E53554646 0x49 NUMBER 0x49 GASLIMIT 0x4E SLOAD 0x5F 0x4F SSTORE SLOAD POP SSTORE SLOAD 0x5F COINBASE 0x4D 0x4F SSTORE 0x4E SLOAD SSTORE PUSH15 0x697377617056323A20494E53554646 0x49 NUMBER 0x49 GASLIMIT 0x4E SLOAD 0x5F 0x49 0x4E POP SSTORE SLOAD 0x5F COINBASE 0x4D 0x4F SSTORE 0x4E SLOAD SSTORE PUSH15 0x697377617056323A20494E53554646 0x49 NUMBER 0x49 GASLIMIT 0x4E SLOAD 0x5F 0x4C 0x49 MLOAD SSTORE 0x49 DIFFICULTY 0x49 SLOAD MSIZE SSTORE PUSH15 0x697377617056323A20494E53554646 0x49 NUMBER 0x49 GASLIMIT 0x4E SLOAD 0x5F 0x4C 0x49 MLOAD SSTORE 0x49 DIFFICULTY 0x49 SLOAD MSIZE 0x5F TIMESTAMP SSTORE MSTORE 0x4E GASLIMIT DIFFICULTY SSTORE PUSH15 0x697377617056323A20494E53554646 0x49 NUMBER 0x49 GASLIMIT 0x4E SLOAD 0x5F 0x4C 0x49 MLOAD SSTORE 0x49 DIFFICULTY 0x49 SLOAD MSIZE 0x5F 0x4D 0x49 0x4E SLOAD GASLIMIT DIFFICULTY LOG2 PUSH6 0x627A7A723158 KECCAK256 MULMOD 0x4B 0xAA 0xD5 ADDRESS 0x5F 0x29 PUSH25 0xE520362BE9ABBE94AEF3FE1483D413DCD86D08124F60687264 PUSH20 0x6F6C63430005100032454950373132446F6D6169 PUSH15 0x28737472696E67206E616D652C7374 PUSH19 0x696E672076657273696F6E2C75696E74323536 KECCAK256 PUSH4 0x6861696E 0x49 PUSH5 0x2C61646472 PUSH6 0x737320766572 PUSH10 0x6679696E67436F6E7472 PUSH2 0x6374 0x29 LOG2 PUSH6 0x627A7A723158 KECCAK256 0xB9 ISZERO DUP14 DUP2 TIMESTAMP DIV XOR 0xE8 DUP1 SWAP3 PC SLT 0xB2 0xB4 0x23 0x2A PC 0xBF PUSH15 0x22A945DEE7C4D02680220302E16473 PUSH16 0x6C634300051000320000000000000000 "
				},
				"gasEstimates": {
					"creation": {
						"codeDepositCost": "2272000",
						"executionCost": "infinite",
						"totalCost": "infinite"
					},
					"external": {
						"INIT_CODE_HASH()": "infinite",
						"allPairs(uint256)": "2037",
						"allPairsLength()": "998",
						"createPair(address,address)": "infinite",
						"feeTo()": "1038",
						"feeToCharity()": "1059",
						"feeToSetter()": "1082",
						"getPair(address,address)": "1344",
						"setFeeTo(address)": "22023",
						"setFeeToCharity(address)": "21936",
						"setFeeToSetter(address)": "21957"
					}
				},
				"methodIdentifiers": {
					"INIT_CODE_HASH()": "257671f5",
					"allPairs(uint256)": "1e3dd18b",
					"allPairsLength()": "574f2ba3",
					"createPair(address,address)": "c9c65396",
					"feeTo()": "017e7e58",
					"feeToCharity()": "9ebaeb4c",
					"feeToSetter()": "094b7415",
					"getPair(address,address)": "e6a43905",
					"setFeeTo(address)": "f46901ed",
					"setFeeToCharity(address)": "063058b3",
					"setFeeToSetter(address)": "a2e74af6"
				}
			},
			"storageLayout": {
				"storage": [
					{
						"astId": 392,
						"contract": "CONTRACT/v2-core-master/contracts/UniswapV2Factory.sol:UniswapV2Factory",
						"label": "feeTo",
						"offset": 0,
						"slot": "0",
						"type": "t_address"
					},
					{
						"astId": 394,
						"contract": "CONTRACT/v2-core-master/contracts/UniswapV2Factory.sol:UniswapV2Factory",
						"label": "feeToCharity",
						"offset": 0,
						"slot": "1",
						"type": "t_address"
					},
					{
						"astId": 396,
						"contract": "CONTRACT/v2-core-master/contracts/UniswapV2Factory.sol:UniswapV2Factory",
						"label": "feeToSetter",
						"offset": 0,
						"slot": "2",
						"type": "t_address"
					},
					{
						"astId": 413,
						"contract": "CONTRACT/v2-core-master/contracts/UniswapV2Factory.sol:UniswapV2Factory",
						"label": "getPair",
						"offset": 0,
						"slot": "3",
						"type": "t_mapping(t_address,t_mapping(t_address,t_address))"
					},
					{
						"astId": 416,
						"contract": "CONTRACT/v2-core-master/contracts/UniswapV2Factory.sol:UniswapV2Factory",
						"label": "allPairs",
						"offset": 0,
						"slot": "4",
						"type": "t_array(t_address)dyn_storage"
					}
				],
				"types": {
					"t_address": {
						"encoding": "inplace",
						"label": "address",
						"numberOfBytes": "20"
					},
					"t_array(t_address)dyn_storage": {
						"base": "t_address",
						"encoding": "dynamic_array",
						"label": "address[]",
						"numberOfBytes": "32"
					},
					"t_mapping(t_address,t_address)": {
						"encoding": "mapping",
						"key": "t_address",
						"label": "mapping(address => address)",
						"numberOfBytes": "32",
						"value": "t_address"
					},
					"t_mapping(t_address,t_mapping(t_address,t_address))": {
						"encoding": "mapping",
						"key": "t_address",
						"label": "mapping(address => mapping(address => address))",
						"numberOfBytes": "32",
						"value": "t_mapping(t_address,t_address)"
					}
				}
			},
			"userdoc": {
				"methods": {}
			}
		}
	}
}