{
  "_format": "hh-sol-artifact-1",
  "contractName": "MintExample",
  "sourceName": "contracts/MintExample.sol",
  "abi": [
    {
      "inputs": [
        {
          "internalType": "string",
          "name": "name",
          "type": "string"
        },
        {
          "internalType": "string",
          "name": "symbol",
          "type": "string"
        }
      ],
      "stateMutability": "nonpayable",
      "type": "constructor"
    },
    {
      "anonymous": false,
      "inputs": [
        {
          "indexed": true,
          "internalType": "address",
          "name": "owner",
          "type": "address"
        },
        {
          "indexed": true,
          "internalType": "address",
          "name": "approved",
          "type": "address"
        },
        {
          "indexed": true,
          "internalType": "uint256",
          "name": "tokenId",
          "type": "uint256"
        }
      ],
      "name": "Approval",
      "type": "event"
    },
    {
      "anonymous": false,
      "inputs": [
        {
          "indexed": true,
          "internalType": "address",
          "name": "owner",
          "type": "address"
        },
        {
          "indexed": true,
          "internalType": "address",
          "name": "operator",
          "type": "address"
        },
        {
          "indexed": false,
          "internalType": "bool",
          "name": "approved",
          "type": "bool"
        }
      ],
      "name": "ApprovalForAll",
      "type": "event"
    },
    {
      "anonymous": false,
      "inputs": [
        {
          "indexed": true,
          "internalType": "address",
          "name": "previousOwner",
          "type": "address"
        },
        {
          "indexed": true,
          "internalType": "address",
          "name": "newOwner",
          "type": "address"
        }
      ],
      "name": "OwnershipTransferred",
      "type": "event"
    },
    {
      "anonymous": false,
      "inputs": [
        {
          "indexed": true,
          "internalType": "address",
          "name": "from",
          "type": "address"
        },
        {
          "indexed": true,
          "internalType": "address",
          "name": "to",
          "type": "address"
        },
        {
          "indexed": true,
          "internalType": "uint256",
          "name": "tokenId",
          "type": "uint256"
        }
      ],
      "name": "Transfer",
      "type": "event"
    },
    {
      "inputs": [
        {
          "internalType": "address",
          "name": "to",
          "type": "address"
        },
        {
          "internalType": "uint256",
          "name": "tokenId",
          "type": "uint256"
        }
      ],
      "name": "approve",
      "outputs": [],
      "stateMutability": "nonpayable",
      "type": "function"
    },
    {
      "inputs": [
        {
          "internalType": "address",
          "name": "owner",
          "type": "address"
        }
      ],
      "name": "balanceOf",
      "outputs": [
        {
          "internalType": "uint256",
          "name": "",
          "type": "uint256"
        }
      ],
      "stateMutability": "view",
      "type": "function"
    },
    {
      "inputs": [
        {
          "internalType": "address",
          "name": "",
          "type": "address"
        }
      ],
      "name": "balances",
      "outputs": [
        {
          "internalType": "uint256",
          "name": "",
          "type": "uint256"
        }
      ],
      "stateMutability": "view",
      "type": "function"
    },
    {
      "inputs": [
        {
          "internalType": "uint256",
          "name": "tokenId",
          "type": "uint256"
        }
      ],
      "name": "getApproved",
      "outputs": [
        {
          "internalType": "address",
          "name": "",
          "type": "address"
        }
      ],
      "stateMutability": "view",
      "type": "function"
    },
    {
      "inputs": [
        {
          "internalType": "address",
          "name": "owner",
          "type": "address"
        },
        {
          "internalType": "address",
          "name": "operator",
          "type": "address"
        }
      ],
      "name": "isApprovedForAll",
      "outputs": [
        {
          "internalType": "bool",
          "name": "",
          "type": "bool"
        }
      ],
      "stateMutability": "view",
      "type": "function"
    },
    {
      "inputs": [
        {
          "internalType": "uint256",
          "name": "numberOfMints",
          "type": "uint256"
        }
      ],
      "name": "mint",
      "outputs": [],
      "stateMutability": "payable",
      "type": "function"
    },
    {
      "inputs": [],
      "name": "name",
      "outputs": [
        {
          "internalType": "string",
          "name": "",
          "type": "string"
        }
      ],
      "stateMutability": "view",
      "type": "function"
    },
    {
      "inputs": [],
      "name": "owner",
      "outputs": [
        {
          "internalType": "address",
          "name": "",
          "type": "address"
        }
      ],
      "stateMutability": "view",
      "type": "function"
    },
    {
      "inputs": [
        {
          "internalType": "uint256",
          "name": "tokenId",
          "type": "uint256"
        }
      ],
      "name": "ownerOf",
      "outputs": [
        {
          "internalType": "address",
          "name": "",
          "type": "address"
        }
      ],
      "stateMutability": "view",
      "type": "function"
    },
    {
      "inputs": [],
      "name": "renounceOwnership",
      "outputs": [],
      "stateMutability": "nonpayable",
      "type": "function"
    },
    {
      "inputs": [
        {
          "internalType": "address",
          "name": "from",
          "type": "address"
        },
        {
          "internalType": "address",
          "name": "to",
          "type": "address"
        },
        {
          "internalType": "uint256",
          "name": "tokenId",
          "type": "uint256"
        }
      ],
      "name": "safeTransferFrom",
      "outputs": [],
      "stateMutability": "nonpayable",
      "type": "function"
    },
    {
      "inputs": [
        {
          "internalType": "address",
          "name": "from",
          "type": "address"
        },
        {
          "internalType": "address",
          "name": "to",
          "type": "address"
        },
        {
          "internalType": "uint256",
          "name": "tokenId",
          "type": "uint256"
        },
        {
          "internalType": "bytes",
          "name": "data",
          "type": "bytes"
        }
      ],
      "name": "safeTransferFrom",
      "outputs": [],
      "stateMutability": "nonpayable",
      "type": "function"
    },
    {
      "inputs": [
        {
          "internalType": "address",
          "name": "operator",
          "type": "address"
        },
        {
          "internalType": "bool",
          "name": "approved",
          "type": "bool"
        }
      ],
      "name": "setApprovalForAll",
      "outputs": [],
      "stateMutability": "nonpayable",
      "type": "function"
    },
    {
      "inputs": [
        {
          "internalType": "bytes4",
          "name": "interfaceId",
          "type": "bytes4"
        }
      ],
      "name": "supportsInterface",
      "outputs": [
        {
          "internalType": "bool",
          "name": "",
          "type": "bool"
        }
      ],
      "stateMutability": "view",
      "type": "function"
    },
    {
      "inputs": [],
      "name": "symbol",
      "outputs": [
        {
          "internalType": "string",
          "name": "",
          "type": "string"
        }
      ],
      "stateMutability": "view",
      "type": "function"
    },
    {
      "inputs": [
        {
          "internalType": "uint256",
          "name": "index",
          "type": "uint256"
        }
      ],
      "name": "tokenByIndex",
      "outputs": [
        {
          "internalType": "uint256",
          "name": "",
          "type": "uint256"
        }
      ],
      "stateMutability": "view",
      "type": "function"
    },
    {
      "inputs": [
        {
          "internalType": "address",
          "name": "owner",
          "type": "address"
        },
        {
          "internalType": "uint256",
          "name": "index",
          "type": "uint256"
        }
      ],
      "name": "tokenOfOwnerByIndex",
      "outputs": [
        {
          "internalType": "uint256",
          "name": "",
          "type": "uint256"
        }
      ],
      "stateMutability": "view",
      "type": "function"
    },
    {
      "inputs": [
        {
          "internalType": "uint256",
          "name": "tokenId",
          "type": "uint256"
        }
      ],
      "name": "tokenURI",
      "outputs": [
        {
          "internalType": "string",
          "name": "",
          "type": "string"
        }
      ],
      "stateMutability": "view",
      "type": "function"
    },
    {
      "inputs": [],
      "name": "totalSupply",
      "outputs": [
        {
          "internalType": "uint256",
          "name": "",
          "type": "uint256"
        }
      ],
      "stateMutability": "view",
      "type": "function"
    },
    {
      "inputs": [
        {
          "internalType": "address",
          "name": "from",
          "type": "address"
        },
        {
          "internalType": "address",
          "name": "to",
          "type": "address"
        },
        {
          "internalType": "uint256",
          "name": "tokenId",
          "type": "uint256"
        }
      ],
      "name": "transferFrom",
      "outputs": [],
      "stateMutability": "nonpayable",
      "type": "function"
    },
    {
      "inputs": [
        {
          "internalType": "address",
          "name": "newOwner",
          "type": "address"
        }
      ],
      "name": "transferOwnership",
      "outputs": [],
      "stateMutability": "nonpayable",
      "type": "function"
    }
  ],
  "bytecode": "0x60806040523480156200001157600080fd5b5060405162003697380380620036978339818101604052810190620000379190620003b0565b818181600090805190602001906200005192919062000163565b5080600190805190602001906200006a92919062000163565b5050506200008d620000816200009560201b60201c565b6200009d60201b60201c565b50506200049a565b600033905090565b6000600a60009054906101000a900473ffffffffffffffffffffffffffffffffffffffff16905081600a60006101000a81548173ffffffffffffffffffffffffffffffffffffffff021916908373ffffffffffffffffffffffffffffffffffffffff1602179055508173ffffffffffffffffffffffffffffffffffffffff168173ffffffffffffffffffffffffffffffffffffffff167f8be0079c531659141344cd1fd0a4f28419497f9722a3daafe3b4186f6b6457e060405160405180910390a35050565b828054620001719062000464565b90600052602060002090601f016020900481019282620001955760008555620001e1565b82601f10620001b057805160ff1916838001178555620001e1565b82800160010185558215620001e1579182015b82811115620001e0578251825591602001919060010190620001c3565b5b509050620001f09190620001f4565b5090565b5b808211156200020f576000816000905550600101620001f5565b5090565b6000604051905090565b600080fd5b600080fd5b600080fd5b600080fd5b6000601f19601f8301169050919050565b7f4e487b7100000000000000000000000000000000000000000000000000000000600052604160045260246000fd5b6200027c8262000231565b810181811067ffffffffffffffff821117156200029e576200029d62000242565b5b80604052505050565b6000620002b362000213565b9050620002c1828262000271565b919050565b600067ffffffffffffffff821115620002e457620002e362000242565b5b620002ef8262000231565b9050602081019050919050565b60005b838110156200031c578082015181840152602081019050620002ff565b838111156200032c576000848401525b50505050565b6000620003496200034384620002c6565b620002a7565b9050828152602081018484840111156200036857620003676200022c565b5b62000375848285620002fc565b509392505050565b600082601f83011262000395576200039462000227565b5b8151620003a784826020860162000332565b91505092915050565b60008060408385031215620003ca57620003c96200021d565b5b600083015167ffffffffffffffff811115620003eb57620003ea62000222565b5b620003f9858286016200037d565b925050602083015167ffffffffffffffff8111156200041d576200041c62000222565b5b6200042b858286016200037d565b9150509250929050565b7f4e487b7100000000000000000000000000000000000000000000000000000000600052602260045260246000fd5b600060028204905060018216806200047d57607f821691505b6020821081141562000494576200049362000435565b5b50919050565b6131ed80620004aa6000396000f3fe60806040526004361061012a5760003560e01c80636352211e116100ab578063a0712d681161006f578063a0712d6814610418578063a22cb46514610434578063b88d4fde1461045d578063c87b56dd14610486578063e985e9c5146104c3578063f2fde38b146105005761012a565b80636352211e1461033157806370a082311461036e578063715018a6146103ab5780638da5cb5b146103c257806395d89b41146103ed5761012a565b806323b872dd116100f257806323b872dd1461022857806327e235e3146102515780632f745c591461028e57806342842e0e146102cb5780634f6ccce7146102f45761012a565b806301ffc9a71461012f57806306fdde031461016c578063081812fc14610197578063095ea7b3146101d457806318160ddd146101fd575b600080fd5b34801561013b57600080fd5b50610156600480360381019061015191906120fb565b610529565b6040516101639190612143565b60405180910390f35b34801561017857600080fd5b506101816105a3565b60405161018e91906121f7565b60405180910390f35b3480156101a357600080fd5b506101be60048036038101906101b9919061224f565b610635565b6040516101cb91906122bd565b60405180910390f35b3480156101e057600080fd5b506101fb60048036038101906101f69190612304565b61067b565b005b34801561020957600080fd5b50610212610793565b60405161021f9190612353565b60405180910390f35b34801561023457600080fd5b5061024f600480360381019061024a919061236e565b6107a0565b005b34801561025d57600080fd5b50610278600480360381019061027391906123c1565b610800565b6040516102859190612353565b60405180910390f35b34801561029a57600080fd5b506102b560048036038101906102b09190612304565b610818565b6040516102c29190612353565b60405180910390f35b3480156102d757600080fd5b506102f260048036038101906102ed919061236e565b6108bd565b005b34801561030057600080fd5b5061031b6004803603810190610316919061224f565b6108dd565b6040516103289190612353565b60405180910390f35b34801561033d57600080fd5b506103586004803603810190610353919061224f565b61094e565b60405161036591906122bd565b60405180910390f35b34801561037a57600080fd5b50610395600480360381019061039091906123c1565b610a00565b6040516103a29190612353565b60405180910390f35b3480156103b757600080fd5b506103c0610ab8565b005b3480156103ce57600080fd5b506103d7610acc565b6040516103e491906122bd565b60405180910390f35b3480156103f957600080fd5b50610402610af6565b60405161040f91906121f7565b60405180910390f35b610432600480360381019061042d919061224f565b610b88565b005b34801561044057600080fd5b5061045b6004803603810190610456919061241a565b610c21565b005b34801561046957600080fd5b50610484600480360381019061047f919061258f565b610c37565b005b34801561049257600080fd5b506104ad60048036038101906104a8919061224f565b610c99565b6040516104ba91906121f7565b60405180910390f35b3480156104cf57600080fd5b506104ea60048036038101906104e59190612612565b610d01565b6040516104f79190612143565b60405180910390f35b34801561050c57600080fd5b50610527600480360381019061052291906123c1565b610d95565b005b60007f780e9d63000000000000000000000000000000000000000000000000000000007bffffffffffffffffffffffffffffffffffffffffffffffffffffffff1916827bffffffffffffffffffffffffffffffffffffffffffffffffffffffff1916148061059c575061059b82610e19565b5b9050919050565b6060600080546105b290612681565b80601f01602080910402602001604051908101604052809291908181526020018280546105de90612681565b801561062b5780601f106106005761010080835404028352916020019161062b565b820191906000526020600020905b81548152906001019060200180831161060e57829003601f168201915b5050505050905090565b600061064082610efb565b6004600083815260200190815260200160002060009054906101000a900473ffffffffffffffffffffffffffffffffffffffff169050919050565b60006106868261094e565b90508073ffffffffffffffffffffffffffffffffffffffff168373ffffffffffffffffffffffffffffffffffffffff1614156106f7576040517f08c379a00000000000000000000000000000000000000000000000000000000081526004016106ee90612725565b60405180910390fd5b8073ffffffffffffffffffffffffffffffffffffffff16610716610f46565b73ffffffffffffffffffffffffffffffffffffffff16148061074557506107448161073f610f46565b610d01565b5b610784576040517f08c379a000000000000000000000000000000000000000000000000000000000815260040161077b906127b7565b60405180910390fd5b61078e8383610f4e565b505050565b6000600880549050905090565b6107b16107ab610f46565b82611007565b6107f0576040517f08c379a00000000000000000000000000000000000000000000000000000000081526004016107e790612849565b60405180910390fd5b6107fb83838361109c565b505050565b600b6020528060005260406000206000915090505481565b600061082383610a00565b8210610864576040517f08c379a000000000000000000000000000000000000000000000000000000000815260040161085b906128db565b60405180910390fd5b600660008473ffffffffffffffffffffffffffffffffffffffff1673ffffffffffffffffffffffffffffffffffffffff168152602001908152602001600020600083815260200190815260200160002054905092915050565b6108d883838360405180602001604052806000815250610c37565b505050565b60006108e7610793565b8210610928576040517f08c379a000000000000000000000000000000000000000000000000000000000815260040161091f9061296d565b60405180910390fd5b6008828154811061093c5761093b61298d565b5b90600052602060002001549050919050565b6000806002600084815260200190815260200160002060009054906101000a900473ffffffffffffffffffffffffffffffffffffffff169050600073ffffffffffffffffffffffffffffffffffffffff168173ffffffffffffffffffffffffffffffffffffffff1614156109f7576040517f08c379a00000000000000000000000000000000000000000000000000000000081526004016109ee90612a08565b60405180910390fd5b80915050919050565b60008073ffffffffffffffffffffffffffffffffffffffff168273ffffffffffffffffffffffffffffffffffffffff161415610a71576040517f08c379a0000000000000000000000000000000000000000000000000000000008152600401610a6890612a9a565b60405180910390fd5b600360008373ffffffffffffffffffffffffffffffffffffffff1673ffffffffffffffffffffffffffffffffffffffff168152602001908152602001600020549050919050565b610ac0611303565b610aca6000611381565b565b6000600a60009054906101000a900473ffffffffffffffffffffffffffffffffffffffff16905090565b606060018054610b0590612681565b80601f0160208091040260200160405190810160405280929190818152602001828054610b3190612681565b8015610b7e5780601f10610b5357610100808354040283529160200191610b7e565b820191906000526020600020905b815481529060010190602001808311610b6157829003601f168201915b5050505050905090565b6000610b92610793565b905060005b82811015610c1c57610bb4338284610baf9190612ae9565b611447565b600b60003373ffffffffffffffffffffffffffffffffffffffff1673ffffffffffffffffffffffffffffffffffffffff1681526020019081526020016000206000815480929190610c0490612b3f565b91905055508080610c1490612b3f565b915050610b97565b505050565b610c33610c2c610f46565b8383611465565b5050565b610c48610c42610f46565b83611007565b610c87576040517f08c379a0000000000000000000000000000000000000000000000000000000008152600401610c7e90612849565b60405180910390fd5b610c93848484846115d2565b50505050565b6060610ca482610efb565b6000610cae61162e565b90506000815111610cce5760405180602001604052806000815250610cf9565b80610cd884611645565b604051602001610ce9929190612bc4565b6040516020818303038152906040525b915050919050565b6000600560008473ffffffffffffffffffffffffffffffffffffffff1673ffffffffffffffffffffffffffffffffffffffff16815260200190815260200160002060008373ffffffffffffffffffffffffffffffffffffffff1673ffffffffffffffffffffffffffffffffffffffff16815260200190815260200160002060009054906101000a900460ff16905092915050565b610d9d611303565b600073ffffffffffffffffffffffffffffffffffffffff168173ffffffffffffffffffffffffffffffffffffffff161415610e0d576040517f08c379a0000000000000000000000000000000000000000000000000000000008152600401610e0490612c5a565b60405180910390fd5b610e1681611381565b50565b60007f80ac58cd000000000000000000000000000000000000000000000000000000007bffffffffffffffffffffffffffffffffffffffffffffffffffffffff1916827bffffffffffffffffffffffffffffffffffffffffffffffffffffffff19161480610ee457507f5b5e139f000000000000000000000000000000000000000000000000000000007bffffffffffffffffffffffffffffffffffffffffffffffffffffffff1916827bffffffffffffffffffffffffffffffffffffffffffffffffffffffff1916145b80610ef45750610ef3826117a6565b5b9050919050565b610f0481611810565b610f43576040517f08c379a0000000000000000000000000000000000000000000000000000000008152600401610f3a90612a08565b60405180910390fd5b50565b600033905090565b816004600083815260200190815260200160002060006101000a81548173ffffffffffffffffffffffffffffffffffffffff021916908373ffffffffffffffffffffffffffffffffffffffff160217905550808273ffffffffffffffffffffffffffffffffffffffff16610fc18361094e565b73ffffffffffffffffffffffffffffffffffffffff167f8c5be1e5ebec7d5bd14f71427d1e84f3dd0314c0f7b2291e5b200ac8c7c3b92560405160405180910390a45050565b6000806110138361094e565b90508073ffffffffffffffffffffffffffffffffffffffff168473ffffffffffffffffffffffffffffffffffffffff16148061105557506110548185610d01565b5b8061109357508373ffffffffffffffffffffffffffffffffffffffff1661107b84610635565b73ffffffffffffffffffffffffffffffffffffffff16145b91505092915050565b8273ffffffffffffffffffffffffffffffffffffffff166110bc8261094e565b73ffffffffffffffffffffffffffffffffffffffff1614611112576040517f08c379a000000000000000000000000000000000000000000000000000000000815260040161110990612cec565b60405180910390fd5b600073ffffffffffffffffffffffffffffffffffffffff168273ffffffffffffffffffffffffffffffffffffffff161415611182576040517f08c379a000000000000000000000000000000000000000000000000000000000815260040161117990612d7e565b60405180910390fd5b61118d83838361187c565b611198600082610f4e565b6001600360008573ffffffffffffffffffffffffffffffffffffffff1673ffffffffffffffffffffffffffffffffffffffff16815260200190815260200160002060008282546111e89190612d9e565b925050819055506001600360008473ffffffffffffffffffffffffffffffffffffffff1673ffffffffffffffffffffffffffffffffffffffff168152602001908152602001600020600082825461123f9190612ae9565b92505081905550816002600083815260200190815260200160002060006101000a81548173ffffffffffffffffffffffffffffffffffffffff021916908373ffffffffffffffffffffffffffffffffffffffff160217905550808273ffffffffffffffffffffffffffffffffffffffff168473ffffffffffffffffffffffffffffffffffffffff167fddf252ad1be2c89b69c2b068fc378daa952ba7f163c4a11628f55a4df523b3ef60405160405180910390a46112fe838383611990565b505050565b61130b610f46565b73ffffffffffffffffffffffffffffffffffffffff16611329610acc565b73ffffffffffffffffffffffffffffffffffffffff161461137f576040517f08c379a000000000000000000000000000000000000000000000000000000000815260040161137690612e1e565b60405180910390fd5b565b6000600a60009054906101000a900473ffffffffffffffffffffffffffffffffffffffff16905081600a60006101000a81548173ffffffffffffffffffffffffffffffffffffffff021916908373ffffffffffffffffffffffffffffffffffffffff1602179055508173ffffffffffffffffffffffffffffffffffffffff168173ffffffffffffffffffffffffffffffffffffffff167f8be0079c531659141344cd1fd0a4f28419497f9722a3daafe3b4186f6b6457e060405160405180910390a35050565b611461828260405180602001604052806000815250611995565b5050565b8173ffffffffffffffffffffffffffffffffffffffff168373ffffffffffffffffffffffffffffffffffffffff1614156114d4576040517f08c379a00000000000000000000000000000000000000000000000000000000081526004016114cb90612e8a565b60405180910390fd5b80600560008573ffffffffffffffffffffffffffffffffffffffff1673ffffffffffffffffffffffffffffffffffffffff16815260200190815260200160002060008473ffffffffffffffffffffffffffffffffffffffff1673ffffffffffffffffffffffffffffffffffffffff16815260200190815260200160002060006101000a81548160ff0219169083151502179055508173ffffffffffffffffffffffffffffffffffffffff168373ffffffffffffffffffffffffffffffffffffffff167f17307eab39ab6107e8899845ad3d59bd9653f200f220920489ca2b5937696c31836040516115c59190612143565b60405180910390a3505050565b6115dd84848461109c565b6115e9848484846119f0565b611628576040517f08c379a000000000000000000000000000000000000000000000000000000000815260040161161f90612f1c565b60405180910390fd5b50505050565b606060405180602001604052806000815250905090565b6060600082141561168d576040518060400160405280600181526020017f300000000000000000000000000000000000000000000000000000000000000081525090506117a1565b600082905060005b600082146116bf5780806116a890612b3f565b915050600a826116b89190612f6b565b9150611695565b60008167ffffffffffffffff8111156116db576116da612464565b5b6040519080825280601f01601f19166020018201604052801561170d5781602001600182028036833780820191505090505b5090505b6000851461179a576001826117269190612d9e565b9150600a856117359190612f9c565b60306117419190612ae9565b60f81b8183815181106117575761175661298d565b5b60200101907effffffffffffffffffffffffffffffffffffffffffffffffffffffffffffff1916908160001a905350600a856117939190612f6b565b9450611711565b8093505050505b919050565b60007f01ffc9a7000000000000000000000000000000000000000000000000000000007bffffffffffffffffffffffffffffffffffffffffffffffffffffffff1916827bffffffffffffffffffffffffffffffffffffffffffffffffffffffff1916149050919050565b60008073ffffffffffffffffffffffffffffffffffffffff166002600084815260200190815260200160002060009054906101000a900473ffffffffffffffffffffffffffffffffffffffff1673ffffffffffffffffffffffffffffffffffffffff1614159050919050565b611887838383611b87565b600073ffffffffffffffffffffffffffffffffffffffff168373ffffffffffffffffffffffffffffffffffffffff1614156118ca576118c581611b8c565b611909565b8173ffffffffffffffffffffffffffffffffffffffff168373ffffffffffffffffffffffffffffffffffffffff1614611908576119078382611bd5565b5b5b600073ffffffffffffffffffffffffffffffffffffffff168273ffffffffffffffffffffffffffffffffffffffff16141561194c5761194781611d42565b61198b565b8273ffffffffffffffffffffffffffffffffffffffff168273ffffffffffffffffffffffffffffffffffffffff161461198a576119898282611e13565b5b5b505050565b505050565b61199f8383611e92565b6119ac60008484846119f0565b6119eb576040517f08c379a00000000000000000000000000000000000000000000000000000000081526004016119e290612f1c565b60405180910390fd5b505050565b6000611a118473ffffffffffffffffffffffffffffffffffffffff1661206c565b15611b7a578373ffffffffffffffffffffffffffffffffffffffff1663150b7a02611a3a610f46565b8786866040518563ffffffff1660e01b8152600401611a5c9493929190613022565b602060405180830381600087803b158015611a7657600080fd5b505af1925050508015611aa757506040513d601f19601f82011682018060405250810190611aa49190613083565b60015b611b2a573d8060008114611ad7576040519150601f19603f3d011682016040523d82523d6000602084013e611adc565b606091505b50600081511415611b22576040517f08c379a0000000000000000000000000000000000000000000000000000000008152600401611b1990612f1c565b60405180910390fd5b805181602001fd5b63150b7a0260e01b7bffffffffffffffffffffffffffffffffffffffffffffffffffffffff1916817bffffffffffffffffffffffffffffffffffffffffffffffffffffffff191614915050611b7f565b600190505b949350505050565b505050565b6008805490506009600083815260200190815260200160002081905550600881908060018154018082558091505060019003906000526020600020016000909190919091505550565b60006001611be284610a00565b611bec9190612d9e565b9050600060076000848152602001908152602001600020549050818114611cd1576000600660008673ffffffffffffffffffffffffffffffffffffffff1673ffffffffffffffffffffffffffffffffffffffff168152602001908152602001600020600084815260200190815260200160002054905080600660008773ffffffffffffffffffffffffffffffffffffffff1673ffffffffffffffffffffffffffffffffffffffff168152602001908152602001600020600084815260200190815260200160002081905550816007600083815260200190815260200160002081905550505b6007600084815260200190815260200160002060009055600660008573ffffffffffffffffffffffffffffffffffffffff1673ffffffffffffffffffffffffffffffffffffffff16815260200190815260200160002060008381526020019081526020016000206000905550505050565b60006001600880549050611d569190612d9e565b9050600060096000848152602001908152602001600020549050600060088381548110611d8657611d8561298d565b5b906000526020600020015490508060088381548110611da857611da761298d565b5b906000526020600020018190555081600960008381526020019081526020016000208190555060096000858152602001908152602001600020600090556008805480611df757611df66130b0565b5b6001900381819060005260206000200160009055905550505050565b6000611e1e83610a00565b905081600660008573ffffffffffffffffffffffffffffffffffffffff1673ffffffffffffffffffffffffffffffffffffffff168152602001908152602001600020600083815260200190815260200160002081905550806007600084815260200190815260200160002081905550505050565b600073ffffffffffffffffffffffffffffffffffffffff168273ffffffffffffffffffffffffffffffffffffffff161415611f02576040517f08c379a0000000000000000000000000000000000000000000000000000000008152600401611ef99061312b565b60405180910390fd5b611f0b81611810565b15611f4b576040517f08c379a0000000000000000000000000000000000000000000000000000000008152600401611f4290613197565b60405180910390fd5b611f576000838361187c565b6001600360008473ffffffffffffffffffffffffffffffffffffffff1673ffffffffffffffffffffffffffffffffffffffff1681526020019081526020016000206000828254611fa79190612ae9565b92505081905550816002600083815260200190815260200160002060006101000a81548173ffffffffffffffffffffffffffffffffffffffff021916908373ffffffffffffffffffffffffffffffffffffffff160217905550808273ffffffffffffffffffffffffffffffffffffffff16600073ffffffffffffffffffffffffffffffffffffffff167fddf252ad1be2c89b69c2b068fc378daa952ba7f163c4a11628f55a4df523b3ef60405160405180910390a461206860008383611990565b5050565b6000808273ffffffffffffffffffffffffffffffffffffffff163b119050919050565b6000604051905090565b600080fd5b600080fd5b60007fffffffff0000000000000000000000000000000000000000000000000000000082169050919050565b6120d8816120a3565b81146120e357600080fd5b50565b6000813590506120f5816120cf565b92915050565b60006020828403121561211157612110612099565b5b600061211f848285016120e6565b91505092915050565b60008115159050919050565b61213d81612128565b82525050565b60006020820190506121586000830184612134565b92915050565b600081519050919050565b600082825260208201905092915050565b60005b8381101561219857808201518184015260208101905061217d565b838111156121a7576000848401525b50505050565b6000601f19601f8301169050919050565b60006121c98261215e565b6121d38185612169565b93506121e381856020860161217a565b6121ec816121ad565b840191505092915050565b6000602082019050818103600083015261221181846121be565b905092915050565b6000819050919050565b61222c81612219565b811461223757600080fd5b50565b60008135905061224981612223565b92915050565b60006020828403121561226557612264612099565b5b60006122738482850161223a565b91505092915050565b600073ffffffffffffffffffffffffffffffffffffffff82169050919050565b60006122a78261227c565b9050919050565b6122b78161229c565b82525050565b60006020820190506122d260008301846122ae565b92915050565b6122e18161229c565b81146122ec57600080fd5b50565b6000813590506122fe816122d8565b92915050565b6000806040838503121561231b5761231a612099565b5b6000612329858286016122ef565b925050602061233a8582860161223a565b9150509250929050565b61234d81612219565b82525050565b60006020820190506123686000830184612344565b92915050565b60008060006060848603121561238757612386612099565b5b6000612395868287016122ef565b93505060206123a6868287016122ef565b92505060406123b78682870161223a565b9150509250925092565b6000602082840312156123d7576123d6612099565b5b60006123e5848285016122ef565b91505092915050565b6123f781612128565b811461240257600080fd5b50565b600081359050612414816123ee565b92915050565b6000806040838503121561243157612430612099565b5b600061243f858286016122ef565b925050602061245085828601612405565b9150509250929050565b600080fd5b600080fd5b7f4e487b7100000000000000000000000000000000000000000000000000000000600052604160045260246000fd5b61249c826121ad565b810181811067ffffffffffffffff821117156124bb576124ba612464565b5b80604052505050565b60006124ce61208f565b90506124da8282612493565b919050565b600067ffffffffffffffff8211156124fa576124f9612464565b5b612503826121ad565b9050602081019050919050565b82818337600083830152505050565b600061253261252d846124df565b6124c4565b90508281526020810184848401111561254e5761254d61245f565b5b612559848285612510565b509392505050565b600082601f8301126125765761257561245a565b5b813561258684826020860161251f565b91505092915050565b600080600080608085870312156125a9576125a8612099565b5b60006125b7878288016122ef565b94505060206125c8878288016122ef565b93505060406125d98782880161223a565b925050606085013567ffffffffffffffff8111156125fa576125f961209e565b5b61260687828801612561565b91505092959194509250565b6000806040838503121561262957612628612099565b5b6000612637858286016122ef565b9250506020612648858286016122ef565b9150509250929050565b7f4e487b7100000000000000000000000000000000000000000000000000000000600052602260045260246000fd5b6000600282049050600182168061269957607f821691505b602082108114156126ad576126ac612652565b5b50919050565b7f4552433732313a20617070726f76616c20746f2063757272656e74206f776e6560008201527f7200000000000000000000000000000000000000000000000000000000000000602082015250565b600061270f602183612169565b915061271a826126b3565b604082019050919050565b6000602082019050818103600083015261273e81612702565b9050919050565b7f4552433732313a20617070726f76652063616c6c6572206973206e6f7420746f60008201527f6b656e206f776e6572206e6f7220617070726f76656420666f7220616c6c0000602082015250565b60006127a1603e83612169565b91506127ac82612745565b604082019050919050565b600060208201905081810360008301526127d081612794565b9050919050565b7f4552433732313a2063616c6c6572206973206e6f7420746f6b656e206f776e6560008201527f72206e6f7220617070726f766564000000000000000000000000000000000000602082015250565b6000612833602e83612169565b915061283e826127d7565b604082019050919050565b6000602082019050818103600083015261286281612826565b9050919050565b7f455243373231456e756d657261626c653a206f776e657220696e646578206f7560008201527f74206f6620626f756e6473000000000000000000000000000000000000000000602082015250565b60006128c5602b83612169565b91506128d082612869565b604082019050919050565b600060208201905081810360008301526128f4816128b8565b9050919050565b7f455243373231456e756d657261626c653a20676c6f62616c20696e646578206f60008201527f7574206f6620626f756e64730000000000000000000000000000000000000000602082015250565b6000612957602c83612169565b9150612962826128fb565b604082019050919050565b600060208201905081810360008301526129868161294a565b9050919050565b7f4e487b7100000000000000000000000000000000000000000000000000000000600052603260045260246000fd5b7f4552433732313a20696e76616c696420746f6b656e2049440000000000000000600082015250565b60006129f2601883612169565b91506129fd826129bc565b602082019050919050565b60006020820190508181036000830152612a21816129e5565b9050919050565b7f4552433732313a2061646472657373207a65726f206973206e6f74206120766160008201527f6c6964206f776e65720000000000000000000000000000000000000000000000602082015250565b6000612a84602983612169565b9150612a8f82612a28565b604082019050919050565b60006020820190508181036000830152612ab381612a77565b9050919050565b7f4e487b7100000000000000000000000000000000000000000000000000000000600052601160045260246000fd5b6000612af482612219565b9150612aff83612219565b9250827fffffffffffffffffffffffffffffffffffffffffffffffffffffffffffffffff03821115612b3457612b33612aba565b5b828201905092915050565b6000612b4a82612219565b91507fffffffffffffffffffffffffffffffffffffffffffffffffffffffffffffffff821415612b7d57612b7c612aba565b5b600182019050919050565b600081905092915050565b6000612b9e8261215e565b612ba88185612b88565b9350612bb881856020860161217a565b80840191505092915050565b6000612bd08285612b93565b9150612bdc8284612b93565b91508190509392505050565b7f4f776e61626c653a206e6577206f776e657220697320746865207a65726f206160008201527f6464726573730000000000000000000000000000000000000000000000000000602082015250565b6000612c44602683612169565b9150612c4f82612be8565b604082019050919050565b60006020820190508181036000830152612c7381612c37565b9050919050565b7f4552433732313a207472616e736665722066726f6d20696e636f72726563742060008201527f6f776e6572000000000000000000000000000000000000000000000000000000602082015250565b6000612cd6602583612169565b9150612ce182612c7a565b604082019050919050565b60006020820190508181036000830152612d0581612cc9565b9050919050565b7f4552433732313a207472616e7366657220746f20746865207a65726f2061646460008201527f7265737300000000000000000000000000000000000000000000000000000000602082015250565b6000612d68602483612169565b9150612d7382612d0c565b604082019050919050565b60006020820190508181036000830152612d9781612d5b565b9050919050565b6000612da982612219565b9150612db483612219565b925082821015612dc757612dc6612aba565b5b828203905092915050565b7f4f776e61626c653a2063616c6c6572206973206e6f7420746865206f776e6572600082015250565b6000612e08602083612169565b9150612e1382612dd2565b602082019050919050565b60006020820190508181036000830152612e3781612dfb565b9050919050565b7f4552433732313a20617070726f766520746f2063616c6c657200000000000000600082015250565b6000612e74601983612169565b9150612e7f82612e3e565b602082019050919050565b60006020820190508181036000830152612ea381612e67565b9050919050565b7f4552433732313a207472616e7366657220746f206e6f6e20455243373231526560008201527f63656976657220696d706c656d656e7465720000000000000000000000000000602082015250565b6000612f06603283612169565b9150612f1182612eaa565b604082019050919050565b60006020820190508181036000830152612f3581612ef9565b9050919050565b7f4e487b7100000000000000000000000000000000000000000000000000000000600052601260045260246000fd5b6000612f7682612219565b9150612f8183612219565b925082612f9157612f90612f3c565b5b828204905092915050565b6000612fa782612219565b9150612fb283612219565b925082612fc257612fc1612f3c565b5b828206905092915050565b600081519050919050565b600082825260208201905092915050565b6000612ff482612fcd565b612ffe8185612fd8565b935061300e81856020860161217a565b613017816121ad565b840191505092915050565b600060808201905061303760008301876122ae565b61304460208301866122ae565b6130516040830185612344565b81810360608301526130638184612fe9565b905095945050505050565b60008151905061307d816120cf565b92915050565b60006020828403121561309957613098612099565b5b60006130a78482850161306e565b91505092915050565b7f4e487b7100000000000000000000000000000000000000000000000000000000600052603160045260246000fd5b7f4552433732313a206d696e7420746f20746865207a65726f2061646472657373600082015250565b6000613115602083612169565b9150613120826130df565b602082019050919050565b6000602082019050818103600083015261314481613108565b9050919050565b7f4552433732313a20746f6b656e20616c7265616479206d696e74656400000000600082015250565b6000613181601c83612169565b915061318c8261314b565b602082019050919050565b600060208201905081810360008301526131b081613174565b905091905056fea264697066735822122004ca43161d755e2045efdd5f1b75aaaa014b2b1ec5ca2c828450d64cedf4cf4d64736f6c63430008090033",
  "linkReferences": {},
  "deployedLinkReferences": {}
}