{
  "address": "0x21dF544947ba3E8b3c32561399E88B52Dc8b2823",
  "_format": "hh-sol-artifact-1",
  "contractName": "Payslice",
  "sourceName": "contracts/Payslice.sol",
  "abi": [
    {
      "anonymous": false,
      "inputs": [
        {
          "indexed": false,
          "internalType": "address",
          "name": "proxy",
          "type": "address"
        },
        {
          "indexed": true,
          "internalType": "address",
          "name": "owner",
          "type": "address"
        }
      ],
      "name": "ProxyCreated",
      "type": "event"
    },
    {
      "inputs": [
        {
          "internalType": "address",
          "name": "_token",
          "type": "address"
        },
        {
          "internalType": "address",
          "name": "_recipientAddress",
          "type": "address"
        },
        {
          "internalType": "uint256",
          "name": "_recipientAddresschainId",
          "type": "uint256"
        },
        {
          "internalType": "uint256",
          "name": "_totalReceivable",
          "type": "uint256"
        },
        {
          "internalType": "string",
          "name": "_title",
          "type": "string"
        },
        {
          "internalType": "string",
          "name": "_description",
          "type": "string"
        },
        {
          "components": [
            {
              "internalType": "bytes",
              "name": "payeruid",
              "type": "bytes"
            },
            {
              "internalType": "uint256",
              "name": "amountDue",
              "type": "uint256"
            }
          ],
          "internalType": "struct SPayer[]",
          "name": "_payers",
          "type": "tuple[]"
        }
      ],
      "name": "createNewSlice",
      "outputs": [
        {
          "internalType": "address",
          "name": "",
          "type": "address"
        }
      ],
      "stateMutability": "nonpayable",
      "type": "function"
    },
    {
      "inputs": [],
      "name": "exchangeAddress",
      "outputs": [
        {
          "internalType": "address",
          "name": "",
          "type": "address"
        }
      ],
      "stateMutability": "view",
      "type": "function"
    },
    {
      "inputs": [
        {
          "internalType": "address",
          "name": "_mastercopy",
          "type": "address"
        },
        {
          "internalType": "address",
          "name": "_exchangeAddress",
          "type": "address"
        },
        {
          "internalType": "address",
          "name": "_loggerAddress",
          "type": "address"
        }
      ],
      "name": "initialize",
      "outputs": [],
      "stateMutability": "nonpayable",
      "type": "function"
    },
    {
      "inputs": [],
      "name": "loggerAddress",
      "outputs": [
        {
          "internalType": "address",
          "name": "",
          "type": "address"
        }
      ],
      "stateMutability": "view",
      "type": "function"
    },
    {
      "inputs": [],
      "name": "mastercopy",
      "outputs": [
        {
          "internalType": "address",
          "name": "",
          "type": "address"
        }
      ],
      "stateMutability": "view",
      "type": "function"
    }
  ],
  "bytecode": "0x608060405234801561001057600080fd5b50611095806100206000396000f3fe60806040523480156200001157600080fd5b50600436106200005e5760003560e01c8063614595d014620000635780637cd79cc114620000855780639cd0160514620000bb578063c0c53b8b14620000dd578063c5ed9d2714620000fd575b600080fd5b6200006d6200011f565b6040516200007c919062000483565b60405180910390f35b620000a360048036038101906200009d9190620008b4565b62000145565b604051620000b2919062000483565b60405180910390f35b620000c56200031f565b604051620000d4919062000483565b60405180910390f35b620000fb6004803603810190620000f59190620009c4565b62000343565b005b620001076200040a565b60405162000116919062000483565b60405180910390f35b600160009054906101000a900473ffffffffffffffffffffffffffffffffffffffff1681565b600080600260009054906101000a900473ffffffffffffffffffffffffffffffffffffffff16604051620001799062000430565b62000185919062000483565b604051809103906000f080158015620001a2573d6000803e3d6000fd5b50905060008173ffffffffffffffffffffffffffffffffffffffff1663c609f3ef8b8b8b60008054906101000a900473ffffffffffffffffffffffffffffffffffffffff16600160009054906101000a900473ffffffffffffffffffffffffffffffffffffffff168d8d8d8d6040518a63ffffffff1660e01b8152600401620002349998979695949392919062000c43565b6020604051808303816000875af115801562000254573d6000803e3d6000fd5b505050506040513d601f19601f820116820180604052508101906200027a919062000d34565b905080620002bf576040517f08c379a0000000000000000000000000000000000000000000000000000000008152600401620002b69062000db6565b60405180910390fd5b3373ffffffffffffffffffffffffffffffffffffffff167f9678a1e87ca9f1a37dc659a97b39d812d98cd236947e1b53b3d0d6fd346acb6e8360405162000307919062000483565b60405180910390a28192505050979650505050505050565b60008054906101000a900473ffffffffffffffffffffffffffffffffffffffff1681565b82600260006101000a81548173ffffffffffffffffffffffffffffffffffffffff021916908373ffffffffffffffffffffffffffffffffffffffff160217905550816000806101000a81548173ffffffffffffffffffffffffffffffffffffffff021916908373ffffffffffffffffffffffffffffffffffffffff16021790555080600160006101000a81548173ffffffffffffffffffffffffffffffffffffffff021916908373ffffffffffffffffffffffffffffffffffffffff160217905550505050565b600260009054906101000a900473ffffffffffffffffffffffffffffffffffffffff1681565b6102878062000dd983390190565b600073ffffffffffffffffffffffffffffffffffffffff82169050919050565b60006200046b826200043e565b9050919050565b6200047d816200045e565b82525050565b60006020820190506200049a600083018462000472565b92915050565b6000604051905090565b600080fd5b600080fd5b620004bf816200045e565b8114620004cb57600080fd5b50565b600081359050620004df81620004b4565b92915050565b6000819050919050565b620004fa81620004e5565b81146200050657600080fd5b50565b6000813590506200051a81620004ef565b92915050565b600080fd5b600080fd5b6000601f19601f8301169050919050565b7f4e487b7100000000000000000000000000000000000000000000000000000000600052604160045260246000fd5b62000575826200052a565b810181811067ffffffffffffffff821117156200059757620005966200053b565b5b80604052505050565b6000620005ac620004a0565b9050620005ba82826200056a565b919050565b600067ffffffffffffffff821115620005dd57620005dc6200053b565b5b620005e8826200052a565b9050602081019050919050565b82818337600083830152505050565b60006200061b6200061584620005bf565b620005a0565b9050828152602081018484840111156200063a576200063962000525565b5b62000647848285620005f5565b509392505050565b600082601f83011262000667576200066662000520565b5b81356200067984826020860162000604565b91505092915050565b600067ffffffffffffffff821115620006a0576200069f6200053b565b5b602082029050602081019050919050565b600080fd5b600080fd5b600080fd5b600067ffffffffffffffff821115620006de57620006dd6200053b565b5b620006e9826200052a565b9050602081019050919050565b60006200070d6200070784620006c0565b620005a0565b9050828152602081018484840111156200072c576200072b62000525565b5b62000739848285620005f5565b509392505050565b600082601f83011262000759576200075862000520565b5b81356200076b848260208601620006f6565b91505092915050565b6000604082840312156200078d576200078c620006b6565b5b620007996040620005a0565b9050600082013567ffffffffffffffff811115620007bc57620007bb620006bb565b5b620007ca8482850162000741565b6000830152506020620007e08482850162000509565b60208301525092915050565b600062000803620007fd8462000682565b620005a0565b90508083825260208201905060208402830185811115620008295762000828620006b1565b5b835b818110156200087757803567ffffffffffffffff81111562000852576200085162000520565b5b80860162000861898262000774565b855260208501945050506020810190506200082b565b5050509392505050565b600082601f83011262000899576200089862000520565b5b8135620008ab848260208601620007ec565b91505092915050565b600080600080600080600060e0888a031215620008d657620008d5620004aa565b5b6000620008e68a828b01620004ce565b9750506020620008f98a828b01620004ce565b96505060406200090c8a828b0162000509565b95505060606200091f8a828b0162000509565b945050608088013567ffffffffffffffff811115620009435762000942620004af565b5b620009518a828b016200064f565b93505060a088013567ffffffffffffffff811115620009755762000974620004af565b5b620009838a828b016200064f565b92505060c088013567ffffffffffffffff811115620009a757620009a6620004af565b5b620009b58a828b0162000881565b91505092959891949750929550565b600080600060608486031215620009e057620009df620004aa565b5b6000620009f086828701620004ce565b935050602062000a0386828701620004ce565b925050604062000a1686828701620004ce565b9150509250925092565b62000a2b81620004e5565b82525050565b600081519050919050565b600082825260208201905092915050565b60005b8381101562000a6d57808201518184015260208101905062000a50565b8381111562000a7d576000848401525b50505050565b600062000a908262000a31565b62000a9c818562000a3c565b935062000aae81856020860162000a4d565b62000ab9816200052a565b840191505092915050565b600081519050919050565b600082825260208201905092915050565b6000819050602082019050919050565b600081519050919050565b600082825260208201905092915050565b600062000b198262000af0565b62000b25818562000afb565b935062000b3781856020860162000a4d565b62000b42816200052a565b840191505092915050565b62000b5881620004e5565b82525050565b6000604083016000830151848203600086015262000b7d828262000b0c565b915050602083015162000b94602086018262000b4d565b508091505092915050565b600062000bad838362000b5e565b905092915050565b6000602082019050919050565b600062000bcf8262000ac4565b62000bdb818562000acf565b93508360208202850162000bef8562000ae0565b8060005b8581101562000c31578484038952815162000c0f858262000b9f565b945062000c1c8362000bb5565b925060208a0199505060018101905062000bf3565b50829750879550505050505092915050565b60006101208201905062000c5b600083018c62000472565b62000c6a602083018b62000472565b62000c79604083018a62000a20565b62000c88606083018962000472565b62000c97608083018862000472565b62000ca660a083018762000a20565b81810360c083015262000cba818662000a83565b905081810360e083015262000cd0818562000a83565b905081810361010083015262000ce7818462000bc2565b90509a9950505050505050505050565b60008115159050919050565b62000d0e8162000cf7565b811462000d1a57600080fd5b50565b60008151905062000d2e8162000d03565b92915050565b60006020828403121562000d4d5762000d4c620004aa565b5b600062000d5d8482850162000d1d565b91505092915050565b7f4661696c656420746f20736574757020736c6963650000000000000000000000600082015250565b600062000d9e60158362000a3c565b915062000dab8262000d66565b602082019050919050565b6000602082019050818103600083015262000dd18162000d8f565b905091905056fe608060405234801561001057600080fd5b506040516102873803806102878339818101604052810190610032919061012d565b600073ffffffffffffffffffffffffffffffffffffffff168173ffffffffffffffffffffffffffffffffffffffff16036100a1576040517f08c379a0000000000000000000000000000000000000000000000000000000008152600401610098906101b7565b60405180910390fd5b807f542716ccde0a3fd74601ae4bfa898139e782bb572a8d2efa9b3bd9b79d5a240c55506101d7565b600080fd5b600073ffffffffffffffffffffffffffffffffffffffff82169050919050565b60006100fa826100cf565b9050919050565b61010a816100ef565b811461011557600080fd5b50565b60008151905061012781610101565b92915050565b600060208284031215610143576101426100ca565b5b600061015184828501610118565b91505092915050565b600082825260208201905092915050565b7f496e76616c6964206d6173746572636f70792061646472657373000000000000600082015250565b60006101a1601a8361015a565b91506101ac8261016b565b602082019050919050565b600060208201905081810360008301526101d081610194565b9050919050565b60a2806101e56000396000f3fe60806040527fffffffffffffffffffffffffffffffffffffffffffffffffffffffffffffffff7f542716ccde0a3fd74601ae4bfa898139e782bb572a8d2efa9b3bd9b79d5a240c54163660008037600080366000845af43d6000803e600081036067573d6000fd5b3d6000f3fea264697066735822122041ee1462b37253954a821a50e503509470c5e8d8beb96143047cf9dd631be27c64736f6c634300080f0033a26469706673582212201b344d5c085af15dd2330ecf45f156dcac6ff50348b73bd45fe3e1752b38a88764736f6c634300080f0033",
  "linkReferences": {},
  "deployedLinkReferences": {}
}