{
  "address": "0xead9e2B7d3DbAaB8d7fE3483a6af01C3A3f4Ba42",
  "_format": "hh-sol-artifact-1",
  "contractName": "Payslice",
  "sourceName": "contracts/Payslice.sol",
  "abi": [
    {
      "anonymous": false,
      "inputs": [
        {
          "indexed": false,
          "internalType": "address",
          "name": "proxy",
          "type": "address"
        },
        {
          "indexed": true,
          "internalType": "address",
          "name": "owner",
          "type": "address"
        }
      ],
      "name": "ProxyCreated",
      "type": "event"
    },
    {
      "inputs": [
        {
          "internalType": "address",
          "name": "_token",
          "type": "address"
        },
        {
          "internalType": "address",
          "name": "_recipientAddress",
          "type": "address"
        },
        {
          "internalType": "uint256",
          "name": "_recipientAddresschainId",
          "type": "uint256"
        },
        {
          "internalType": "uint256",
          "name": "_totalReceivable",
          "type": "uint256"
        },
        {
          "components": [
            {
              "internalType": "bytes",
              "name": "payeruid",
              "type": "bytes"
            },
            {
              "internalType": "uint256",
              "name": "amountDue",
              "type": "uint256"
            }
          ],
          "internalType": "struct SPayer[]",
          "name": "_payers",
          "type": "tuple[]"
        },
        {
          "internalType": "bytes",
          "name": "_userdata",
          "type": "bytes"
        }
      ],
      "name": "createNewSlice",
      "outputs": [
        {
          "internalType": "address",
          "name": "",
          "type": "address"
        }
      ],
      "stateMutability": "nonpayable",
      "type": "function"
    },
    {
      "inputs": [],
      "name": "exchangeAddress",
      "outputs": [
        {
          "internalType": "address",
          "name": "",
          "type": "address"
        }
      ],
      "stateMutability": "view",
      "type": "function"
    },
    {
      "inputs": [
        {
          "internalType": "address",
          "name": "_mastercopy",
          "type": "address"
        },
        {
          "internalType": "address",
          "name": "_exchangeAddress",
          "type": "address"
        },
        {
          "internalType": "address",
          "name": "_loggerAddress",
          "type": "address"
        }
      ],
      "name": "initialize",
      "outputs": [],
      "stateMutability": "nonpayable",
      "type": "function"
    },
    {
      "inputs": [],
      "name": "loggerAddress",
      "outputs": [
        {
          "internalType": "address",
          "name": "",
          "type": "address"
        }
      ],
      "stateMutability": "view",
      "type": "function"
    },
    {
      "inputs": [],
      "name": "mastercopy",
      "outputs": [
        {
          "internalType": "address",
          "name": "",
          "type": "address"
        }
      ],
      "stateMutability": "view",
      "type": "function"
    }
  ],
  "bytecode": "0x608060405234801561001057600080fd5b50610ff7806100206000396000f3fe60806040523480156200001157600080fd5b50600436106200005e5760003560e01c8063614595d014620000635780637a31185714620000855780639cd0160514620000bb578063c0c53b8b14620000dd578063c5ed9d2714620000fd575b600080fd5b6200006d6200011f565b6040516200007c919062000483565b60405180910390f35b620000a360048036038101906200009d919062000864565b62000145565b604051620000b2919062000483565b60405180910390f35b620000c56200031f565b604051620000d4919062000483565b60405180910390f35b620000fb6004803603810190620000f5919062000944565b62000343565b005b620001076200040a565b60405162000116919062000483565b60405180910390f35b600160009054906101000a900473ffffffffffffffffffffffffffffffffffffffff1681565b600080600260009054906101000a900473ffffffffffffffffffffffffffffffffffffffff16604051620001799062000430565b62000185919062000483565b604051809103906000f080158015620001a2573d6000803e3d6000fd5b50905060008173ffffffffffffffffffffffffffffffffffffffff1663bb6f623e8b8b8b60008054906101000a900473ffffffffffffffffffffffffffffffffffffffff16600160009054906101000a900473ffffffffffffffffffffffffffffffffffffffff168d8d8d8d6040518a63ffffffff1660e01b8152600401620002349998979695949392919062000baa565b6020604051808303816000875af115801562000254573d6000803e3d6000fd5b505050506040513d601f19601f820116820180604052508101906200027a919062000c85565b905080620002bf576040517f08c379a0000000000000000000000000000000000000000000000000000000008152600401620002b69062000d18565b60405180910390fd5b3373ffffffffffffffffffffffffffffffffffffffff167f9678a1e87ca9f1a37dc659a97b39d812d98cd236947e1b53b3d0d6fd346acb6e8360405162000307919062000483565b60405180910390a28192505050979650505050505050565b60008054906101000a900473ffffffffffffffffffffffffffffffffffffffff1681565b82600260006101000a81548173ffffffffffffffffffffffffffffffffffffffff021916908373ffffffffffffffffffffffffffffffffffffffff160217905550816000806101000a81548173ffffffffffffffffffffffffffffffffffffffff021916908373ffffffffffffffffffffffffffffffffffffffff16021790555080600160006101000a81548173ffffffffffffffffffffffffffffffffffffffff021916908373ffffffffffffffffffffffffffffffffffffffff160217905550505050565b600260009054906101000a900473ffffffffffffffffffffffffffffffffffffffff1681565b6102878062000d3b83390190565b600073ffffffffffffffffffffffffffffffffffffffff82169050919050565b60006200046b826200043e565b9050919050565b6200047d816200045e565b82525050565b60006020820190506200049a600083018462000472565b92915050565b6000604051905090565b600080fd5b600080fd5b620004bf816200045e565b8114620004cb57600080fd5b50565b600081359050620004df81620004b4565b92915050565b6000819050919050565b620004fa81620004e5565b81146200050657600080fd5b50565b6000813590506200051a81620004ef565b92915050565b600080fd5b6000601f19601f8301169050919050565b7f4e487b7100000000000000000000000000000000000000000000000000000000600052604160045260246000fd5b620005708262000525565b810181811067ffffffffffffffff8211171562000592576200059162000536565b5b80604052505050565b6000620005a7620004a0565b9050620005b5828262000565565b919050565b600067ffffffffffffffff821115620005d857620005d762000536565b5b602082029050602081019050919050565b600080fd5b600080fd5b600080fd5b600080fd5b600067ffffffffffffffff8211156200061b576200061a62000536565b5b620006268262000525565b9050602081019050919050565b82818337600083830152505050565b6000620006596200065384620005fd565b6200059b565b905082815260208101848484011115620006785762000677620005f8565b5b6200068584828562000633565b509392505050565b600082601f830112620006a557620006a462000520565b5b8135620006b784826020860162000642565b91505092915050565b600060408284031215620006d957620006d8620005ee565b5b620006e560406200059b565b9050600082013567ffffffffffffffff811115620007085762000707620005f3565b5b62000716848285016200068d565b60008301525060206200072c8482850162000509565b60208301525092915050565b60006200074f6200074984620005ba565b6200059b565b90508083825260208201905060208402830185811115620007755762000774620005e9565b5b835b81811015620007c357803567ffffffffffffffff8111156200079e576200079d62000520565b5b808601620007ad8982620006c0565b8552602085019450505060208101905062000777565b5050509392505050565b600082601f830112620007e557620007e462000520565b5b8135620007f784826020860162000738565b91505092915050565b600080fd5b60008083601f8401126200081e576200081d62000520565b5b8235905067ffffffffffffffff8111156200083e576200083d62000800565b5b6020830191508360018202830111156200085d576200085c620005e9565b5b9250929050565b600080600080600080600060c0888a031215620008865762000885620004aa565b5b6000620008968a828b01620004ce565b9750506020620008a98a828b01620004ce565b9650506040620008bc8a828b0162000509565b9550506060620008cf8a828b0162000509565b945050608088013567ffffffffffffffff811115620008f357620008f2620004af565b5b620009018a828b01620007cd565b93505060a088013567ffffffffffffffff811115620009255762000924620004af565b5b620009338a828b0162000805565b925092505092959891949750929550565b60008060006060848603121562000960576200095f620004aa565b5b60006200097086828701620004ce565b93505060206200098386828701620004ce565b92505060406200099686828701620004ce565b9150509250925092565b620009ab81620004e5565b82525050565b600081519050919050565b600082825260208201905092915050565b6000819050602082019050919050565b600081519050919050565b600082825260208201905092915050565b60005b8381101562000a19578082015181840152602081019050620009fc565b8381111562000a29576000848401525b50505050565b600062000a3c82620009dd565b62000a488185620009e8565b935062000a5a818560208601620009f9565b62000a658162000525565b840191505092915050565b62000a7b81620004e5565b82525050565b6000604083016000830151848203600086015262000aa0828262000a2f565b915050602083015162000ab7602086018262000a70565b508091505092915050565b600062000ad0838362000a81565b905092915050565b6000602082019050919050565b600062000af282620009b1565b62000afe8185620009bc565b93508360208202850162000b1285620009cd565b8060005b8581101562000b54578484038952815162000b32858262000ac2565b945062000b3f8362000ad8565b925060208a0199505060018101905062000b16565b50829750879550505050505092915050565b600082825260208201905092915050565b600062000b85838562000b66565b935062000b9483858462000633565b62000b9f8362000525565b840190509392505050565b60006101008201905062000bc2600083018c62000472565b62000bd1602083018b62000472565b62000be0604083018a620009a0565b62000bef606083018962000472565b62000bfe608083018862000472565b62000c0d60a0830187620009a0565b81810360c083015262000c21818662000ae5565b905081810360e083015262000c3881848662000b77565b90509a9950505050505050505050565b60008115159050919050565b62000c5f8162000c48565b811462000c6b57600080fd5b50565b60008151905062000c7f8162000c54565b92915050565b60006020828403121562000c9e5762000c9d620004aa565b5b600062000cae8482850162000c6e565b91505092915050565b600082825260208201905092915050565b7f4661696c656420746f20736574757020736c6963650000000000000000000000600082015250565b600062000d0060158362000cb7565b915062000d0d8262000cc8565b602082019050919050565b6000602082019050818103600083015262000d338162000cf1565b905091905056fe608060405234801561001057600080fd5b506040516102873803806102878339818101604052810190610032919061012d565b600073ffffffffffffffffffffffffffffffffffffffff168173ffffffffffffffffffffffffffffffffffffffff16036100a1576040517f08c379a0000000000000000000000000000000000000000000000000000000008152600401610098906101b7565b60405180910390fd5b807f542716ccde0a3fd74601ae4bfa898139e782bb572a8d2efa9b3bd9b79d5a240c55506101d7565b600080fd5b600073ffffffffffffffffffffffffffffffffffffffff82169050919050565b60006100fa826100cf565b9050919050565b61010a816100ef565b811461011557600080fd5b50565b60008151905061012781610101565b92915050565b600060208284031215610143576101426100ca565b5b600061015184828501610118565b91505092915050565b600082825260208201905092915050565b7f496e76616c6964206d6173746572636f70792061646472657373000000000000600082015250565b60006101a1601a8361015a565b91506101ac8261016b565b602082019050919050565b600060208201905081810360008301526101d081610194565b9050919050565b60a2806101e56000396000f3fe60806040527fffffffffffffffffffffffffffffffffffffffffffffffffffffffffffffffff7f542716ccde0a3fd74601ae4bfa898139e782bb572a8d2efa9b3bd9b79d5a240c54163660008037600080366000845af43d6000803e600081036067573d6000fd5b3d6000f3fea264697066735822122041ee1462b37253954a821a50e503509470c5e8d8beb96143047cf9dd631be27c64736f6c634300080f0033a2646970667358221220aa204a8440633ec065ed596c28d03bb90ef7ee21ff4b5929bc688f595f52437a64736f6c634300080f0033",
  "linkReferences": {},
  "deployedLinkReferences": {}
}