{
  "address": "0x09d0cAfEB3fc21063c841287C9d0543a5F29c932",
  "_format": "hh-sol-artifact-1",
  "contractName": "Slice",
  "sourceName": "contracts/base/Slice.sol",
  "abi": [
    {
      "inputs": [],
      "name": "BridgingNotSupportedYet",
      "type": "error"
    },
    {
      "inputs": [],
      "name": "SafeTransferFailed",
      "type": "error"
    },
    {
      "inputs": [],
      "name": "SafeTransferFromeFailed",
      "type": "error"
    },
    {
      "anonymous": false,
      "inputs": [
        {
          "indexed": true,
          "internalType": "address",
          "name": "previousOwner",
          "type": "address"
        },
        {
          "indexed": true,
          "internalType": "address",
          "name": "newOwner",
          "type": "address"
        }
      ],
      "name": "OwnershipTransferred",
      "type": "event"
    },
    {
      "inputs": [
        {
          "internalType": "uint256",
          "name": "_index",
          "type": "uint256"
        }
      ],
      "name": "getPayer",
      "outputs": [
        {
          "internalType": "bytes",
          "name": "",
          "type": "bytes"
        },
        {
          "internalType": "uint256",
          "name": "",
          "type": "uint256"
        },
        {
          "internalType": "uint256",
          "name": "",
          "type": "uint256"
        }
      ],
      "stateMutability": "view",
      "type": "function"
    },
    {
      "inputs": [],
      "name": "getSliceInfo",
      "outputs": [
        {
          "internalType": "address",
          "name": "",
          "type": "address"
        },
        {
          "internalType": "address",
          "name": "",
          "type": "address"
        },
        {
          "internalType": "address",
          "name": "",
          "type": "address"
        },
        {
          "internalType": "uint256",
          "name": "",
          "type": "uint256"
        },
        {
          "internalType": "uint256",
          "name": "",
          "type": "uint256"
        }
      ],
      "stateMutability": "view",
      "type": "function"
    },
    {
      "inputs": [],
      "name": "getTotalPaid",
      "outputs": [
        {
          "internalType": "uint256",
          "name": "",
          "type": "uint256"
        }
      ],
      "stateMutability": "view",
      "type": "function"
    },
    {
      "inputs": [],
      "name": "logger",
      "outputs": [
        {
          "internalType": "contract Logger",
          "name": "",
          "type": "address"
        }
      ],
      "stateMutability": "view",
      "type": "function"
    },
    {
      "inputs": [
        {
          "internalType": "address",
          "name": "_inputToken",
          "type": "address"
        },
        {
          "internalType": "address",
          "name": "_sender",
          "type": "address"
        },
        {
          "internalType": "uint256",
          "name": "_outputAmount",
          "type": "uint256"
        },
        {
          "internalType": "uint256",
          "name": "_amountInputMaximum",
          "type": "uint256"
        },
        {
          "internalType": "bytes",
          "name": "_payeruid",
          "type": "bytes"
        },
        {
          "internalType": "address[]",
          "name": "path",
          "type": "address[]"
        }
      ],
      "name": "makePayment",
      "outputs": [],
      "stateMutability": "nonpayable",
      "type": "function"
    },
    {
      "inputs": [],
      "name": "owner",
      "outputs": [
        {
          "internalType": "address",
          "name": "",
          "type": "address"
        }
      ],
      "stateMutability": "view",
      "type": "function"
    },
    {
      "inputs": [],
      "name": "paused",
      "outputs": [
        {
          "internalType": "bool",
          "name": "",
          "type": "bool"
        }
      ],
      "stateMutability": "view",
      "type": "function"
    },
    {
      "inputs": [
        {
          "internalType": "bytes",
          "name": "",
          "type": "bytes"
        }
      ],
      "name": "payerOf",
      "outputs": [
        {
          "internalType": "bytes",
          "name": "payeruid",
          "type": "bytes"
        },
        {
          "internalType": "uint256",
          "name": "amountDue",
          "type": "uint256"
        },
        {
          "internalType": "uint256",
          "name": "amountPaid",
          "type": "uint256"
        }
      ],
      "stateMutability": "view",
      "type": "function"
    },
    {
      "inputs": [],
      "name": "payersCount",
      "outputs": [
        {
          "internalType": "uint256",
          "name": "_value",
          "type": "uint256"
        }
      ],
      "stateMutability": "view",
      "type": "function"
    },
    {
      "inputs": [],
      "name": "refund",
      "outputs": [
        {
          "internalType": "bool",
          "name": "",
          "type": "bool"
        }
      ],
      "stateMutability": "view",
      "type": "function"
    },
    {
      "inputs": [],
      "name": "renounceOwnership",
      "outputs": [],
      "stateMutability": "nonpayable",
      "type": "function"
    },
    {
      "inputs": [
        {
          "internalType": "address",
          "name": "_token",
          "type": "address"
        },
        {
          "internalType": "address",
          "name": "_recipientAddress",
          "type": "address"
        },
        {
          "internalType": "uint256",
          "name": "_recipientAddresschainId",
          "type": "uint256"
        },
        {
          "internalType": "address",
          "name": "_exchangeAddress",
          "type": "address"
        },
        {
          "internalType": "address",
          "name": "_loggerAddress",
          "type": "address"
        },
        {
          "internalType": "uint256",
          "name": "_totalReceivable",
          "type": "uint256"
        },
        {
          "components": [
            {
              "internalType": "bytes",
              "name": "payeruid",
              "type": "bytes"
            },
            {
              "internalType": "uint256",
              "name": "amountDue",
              "type": "uint256"
            }
          ],
          "internalType": "struct SPayer[]",
          "name": "_payers",
          "type": "tuple[]"
        },
        {
          "internalType": "bytes",
          "name": "_userdata",
          "type": "bytes"
        }
      ],
      "name": "setupSlice",
      "outputs": [
        {
          "internalType": "bool",
          "name": "",
          "type": "bool"
        }
      ],
      "stateMutability": "nonpayable",
      "type": "function"
    },
    {
      "inputs": [],
      "name": "transactionsCount",
      "outputs": [
        {
          "internalType": "uint256",
          "name": "_value",
          "type": "uint256"
        }
      ],
      "stateMutability": "view",
      "type": "function"
    },
    {
      "inputs": [
        {
          "internalType": "address",
          "name": "newOwner",
          "type": "address"
        }
      ],
      "name": "transferOwnership",
      "outputs": [],
      "stateMutability": "nonpayable",
      "type": "function"
    },
    {
      "inputs": [
        {
          "internalType": "bool",
          "name": "_paused",
          "type": "bool"
        }
      ],
      "name": "updatePause",
      "outputs": [],
      "stateMutability": "nonpayable",
      "type": "function"
    },
    {
      "inputs": [
        {
          "internalType": "bool",
          "name": "_refund",
          "type": "bool"
        }
      ],
      "name": "updateRefund",
      "outputs": [],
      "stateMutability": "nonpayable",
      "type": "function"
    }
  ],
  "bytecode": "0x608060405260008060146101000a81548160ff02191690831515021790555060008060156101000a81548160ff02191690831515021790555034801561004457600080fd5b50612fcc806100546000396000f3fe608060405234801561001057600080fd5b50600436106101005760003560e01c8063975c62a311610097578063f2fde38b11610066578063f2fde38b1461027f578063f8974de01461029b578063fb722d56146102b7578063fd99a746146102e957610100565b8063975c62a3146101f3578063bb6f623e14610215578063ebd0b60114610245578063f24ccbfe1461026157610100565b80636793141f116100d35780636793141f146101915780636d552c8e146101af578063715018a6146101cb5780638da5cb5b146101d557610100565b8063275039801461010557806356863e4514610137578063590e1ae3146101555780635c975abb14610173575b600080fd5b61011f600480360381019061011a919061185b565b610307565b60405161012e93929190611945565b60405180910390f35b61013f6103cf565b60405161014c9190611983565b60405180910390f35b61015d6103db565b60405161016a91906119b9565b60405180910390f35b61017b6103ee565b60405161018891906119b9565b60405180910390f35b610199610401565b6040516101a69190611983565b60405180910390f35b6101c960048036038101906101c49190611a00565b61040b565b005b6101d3610480565b005b6101dd610494565b6040516101ea9190611a6e565b60405180910390f35b6101fb6104bd565b60405161020c959493929190611a89565b60405180910390f35b61022f600480360381019061022a9190611ceb565b610545565b60405161023c91906119b9565b60405180910390f35b61025f600480360381019061025a9190611ea0565b61095d565b005b610269610f5f565b6040516102769190611fca565b60405180910390f35b61029960048036038101906102949190611fe5565b610f85565b005b6102b560048036038101906102b09190611a00565b611008565b005b6102d160048036038101906102cc9190612012565b61102d565b6040516102e093929190611945565b60405180910390f35b6102f1611162565b6040516102fe9190611983565b60405180910390f35b600b818051602081018201805184825260208301602085012081835280955050505050506000915090508060000180546103409061206e565b80601f016020809104026020016040519081016040528092919081815260200182805461036c9061206e565b80156103b95780601f1061038e576101008083540402835291602001916103b9565b820191906000526020600020905b81548152906001019060200180831161039c57829003601f168201915b5050505050908060010154908060020154905083565b60078060000154905081565b600060159054906101000a900460ff1681565b600060149054906101000a900460ff1681565b6000600654905090565b61041361116e565b600060149054906101000a900460ff1615610463576040517f08c379a000000000000000000000000000000000000000000000000000000000815260040161045a906120fc565b60405180910390fd5b80600060156101000a81548160ff02191690831515021790555050565b61048861116e565b61049260006111ec565b565b60008060009054906101000a900473ffffffffffffffffffffffffffffffffffffffff16905090565b6000806000806000600160009054906101000a900473ffffffffffffffffffffffffffffffffffffffff16600260009054906101000a900473ffffffffffffffffffffffffffffffffffffffff16600360009054906101000a900473ffffffffffffffffffffffffffffffffffffffff16600554600654945094509450945094509091929394565b60008073ffffffffffffffffffffffffffffffffffffffff16610566610494565b73ffffffffffffffffffffffffffffffffffffffff16146105bc576040517f08c379a00000000000000000000000000000000000000000000000000000000081526004016105b390612168565b60405180910390fd5b600073ffffffffffffffffffffffffffffffffffffffff168773ffffffffffffffffffffffffffffffffffffffff160361062b576040517f08c379a0000000000000000000000000000000000000000000000000000000008152600401610622906121d4565b60405180910390fd5b600073ffffffffffffffffffffffffffffffffffffffff168973ffffffffffffffffffffffffffffffffffffffff160361069a576040517f08c379a000000000000000000000000000000000000000000000000000000000815260040161069190612240565b60405180910390fd5b600088036106dd576040517f08c379a00000000000000000000000000000000000000000000000000000000081526004016106d4906122ac565b60405180910390fd5b6000845111610721576040517f08c379a00000000000000000000000000000000000000000000000000000000081526004016107189061233e565b60405180910390fd5b89600260006101000a81548173ffffffffffffffffffffffffffffffffffffffff021916908373ffffffffffffffffffffffffffffffffffffffff16021790555088600360006101000a81548173ffffffffffffffffffffffffffffffffffffffff021916908373ffffffffffffffffffffffffffffffffffffffff1602179055508460058190555086600160006101000a81548173ffffffffffffffffffffffffffffffffffffffff021916908373ffffffffffffffffffffffffffffffffffffffff16021790555085600960006101000a81548173ffffffffffffffffffffffffffffffffffffffff021916908373ffffffffffffffffffffffffffffffffffffffff1602179055508760048190555060005b8451811015610898576108858582815181106108555761085461235e565b5b6020026020010151600001518683815181106108745761087361235e565b5b6020026020010151602001516112b0565b8080610890906123bc565b915050610836565b506108a16113f0565b600960009054906101000a900473ffffffffffffffffffffffffffffffffffffffff1673ffffffffffffffffffffffffffffffffffffffff166378c6e93b30338c898f89896040518863ffffffff1660e01b81526004016109089796959493929190612431565b6020604051808303816000875af1158015610927573d6000803e3d6000fd5b505050506040513d601f19601f8201168201806040525081019061094b91906124b0565b50600190509998505050505050505050565b600060149054906101000a900460ff16156109ad576040517f08c379a00000000000000000000000000000000000000000000000000000000081526004016109a4906120fc565b60405180910390fd5b6000600b84846040516109c192919061250d565b90815260200160405180910390209050806001015481600201541115610a1c576040517f08c379a0000000000000000000000000000000000000000000000000000000008152600401610a1390612572565b60405180910390fd5b600080610a2b8a8a308a611402565b6004544614610a66576040517f797341e800000000000000000000000000000000000000000000000000000000815260040160405180910390fd5b600260009054906101000a900473ffffffffffffffffffffffffffffffffffffffff1673ffffffffffffffffffffffffffffffffffffffff168a73ffffffffffffffffffffffffffffffffffffffff1603610ad1578791508787610aca9190612592565b9050610cf5565b6000600160009054906101000a900473ffffffffffffffffffffffffffffffffffffffff1690508a73ffffffffffffffffffffffffffffffffffffffff1663095ea7b3600160009054906101000a900473ffffffffffffffffffffffffffffffffffffffff168a6040518363ffffffff1660e01b8152600401610b559291906125c6565b6020604051808303816000875af1158015610b74573d6000803e3d6000fd5b505050506040513d601f19601f82011682018060405250810190610b9891906124b0565b5060008173ffffffffffffffffffffffffffffffffffffffff166342712a678b8b89306040518563ffffffff1660e01b8152600401610bda94939291906126ad565b6000604051808303816000875af1158015610bf9573d6000803e3d6000fd5b505050506040513d6000823e3d601f19601f82011682018060405250810190610c2291906127d1565b90508b73ffffffffffffffffffffffffffffffffffffffff1663095ea7b3600160009054906101000a900473ffffffffffffffffffffffffffffffffffffffff1660006040518363ffffffff1660e01b8152600401610c82929190612855565b6020604051808303816000875af1158015610ca1573d6000803e3d6000fd5b505050506040513d601f19601f82011682018060405250810190610cc591906124b0565b5089935080600081518110610cdd57610cdc61235e565b5b602002602001015189610cf09190612592565b925050505b81836002016000828254610d09919061287e565b925050819055508160066000828254610d22919061287e565b925050819055506000600c6000610d39600861156d565b815260200190815260200160002090504281600601819055508281600501819055508881600401819055508a8160000160006101000a81548173ffffffffffffffffffffffffffffffffffffffff021916908373ffffffffffffffffffffffffffffffffffffffff160217905550600260009054906101000a900473ffffffffffffffffffffffffffffffffffffffff168160020160006101000a81548173ffffffffffffffffffffffffffffffffffffffff021916908373ffffffffffffffffffffffffffffffffffffffff1602179055508686826003019182610e1f929190612a81565b5060055460065410610e7d57610e7c600260009054906101000a900473ffffffffffffffffffffffffffffffffffffffff16600360009054906101000a900473ffffffffffffffffffffffffffffffffffffffff1660065461157b565b5b6000821115610e9257610e918b8b8461157b565b5b600960009054906101000a900473ffffffffffffffffffffffffffffffffffffffff1673ffffffffffffffffffffffffffffffffffffffff1663fba8ca913089898d8960020154610ee3600861156d565b6040518763ffffffff1660e01b8152600401610f0496959493929190612b51565b6020604051808303816000875af1158015610f23573d6000803e3d6000fd5b505050506040513d601f19601f82011682018060405250810190610f4791906124b0565b50610f5260086116e3565b5050505050505050505050565b600960009054906101000a900473ffffffffffffffffffffffffffffffffffffffff1681565b610f8d61116e565b600073ffffffffffffffffffffffffffffffffffffffff168173ffffffffffffffffffffffffffffffffffffffff1603610ffc576040517f08c379a0000000000000000000000000000000000000000000000000000000008152600401610ff390612c1f565b60405180910390fd5b611005816111ec565b50565b61101061116e565b80600060146101000a81548160ff02191690831515021790555050565b606060008061103c600761156d565b841061107d576040517f08c379a000000000000000000000000000000000000000000000000000000000815260040161107490612c8b565b60405180910390fd5b6000600a60008681526020019081526020016000206040518060600160405290816000820180546110ad9061206e565b80601f01602080910402602001604051908101604052809291908181526020018280546110d99061206e565b80156111265780601f106110fb57610100808354040283529160200191611126565b820191906000526020600020905b81548152906001019060200180831161110957829003601f168201915b50505050508152602001600182015481526020016002820154815250509050806000015181602001518260400151935093509350509193909250565b60088060000154905081565b6111766116f9565b73ffffffffffffffffffffffffffffffffffffffff16611194610494565b73ffffffffffffffffffffffffffffffffffffffff16146111ea576040517f08c379a00000000000000000000000000000000000000000000000000000000081526004016111e190612cf7565b60405180910390fd5b565b60008060009054906101000a900473ffffffffffffffffffffffffffffffffffffffff169050816000806101000a81548173ffffffffffffffffffffffffffffffffffffffff021916908373ffffffffffffffffffffffffffffffffffffffff1602179055508173ffffffffffffffffffffffffffffffffffffffff168173ffffffffffffffffffffffffffffffffffffffff167f8be0079c531659141344cd1fd0a4f28419497f9722a3daafe3b4186f6b6457e060405160405180910390a35050565b6000600a60006112c0600761156d565b81526020019081526020016000209050828160000190816112e19190612d17565b50818160010181905550600081600201819055506112ff60076116e3565b80600b846040516113109190612e1a565b9081526020016040518091039020600082018160000190816113329190612e47565b506001820154816001015560028201548160020155905050600960009054906101000a900473ffffffffffffffffffffffffffffffffffffffff1673ffffffffffffffffffffffffffffffffffffffff16630c31c0e730856040518363ffffffff1660e01b81526004016113a7929190612f2f565b6020604051808303816000875af11580156113c6573d6000803e3d6000fd5b505050506040513d601f19601f820116820180604052508101906113ea91906124b0565b50505050565b6114006113fb6116f9565b6111ec565b565b6000808573ffffffffffffffffffffffffffffffffffffffff1685858560405160240161143193929190612f5f565b6040516020818303038152906040527f23b872dd000000000000000000000000000000000000000000000000000000007bffffffffffffffffffffffffffffffffffffffffffffffffffffffff19166020820180517bffffffffffffffffffffffffffffffffffffffffffffffffffffffff83818316178352505050506040516114bb9190612e1a565b6000604051808303816000865af19150503d80600081146114f8576040519150601f19603f3d011682016040523d82523d6000602084013e6114fd565b606091505b509150915081158061152e5750600081511415801561152d57508080602001905181019061152b91906124b0565b155b5b15611565576040517f5c9777b600000000000000000000000000000000000000000000000000000000815260040160405180910390fd5b505050505050565b600081600001549050919050565b6000808473ffffffffffffffffffffffffffffffffffffffff1684846040516024016115a89291906125c6565b6040516020818303038152906040527fa9059cbb000000000000000000000000000000000000000000000000000000007bffffffffffffffffffffffffffffffffffffffffffffffffffffffff19166020820180517bffffffffffffffffffffffffffffffffffffffffffffffffffffffff83818316178352505050506040516116329190612e1a565b6000604051808303816000865af19150503d806000811461166f576040519150601f19603f3d011682016040523d82523d6000602084013e611674565b606091505b50915091508115806116a5575060008151141580156116a45750808060200190518101906116a291906124b0565b155b5b156116dc576040517ffb7f507900000000000000000000000000000000000000000000000000000000815260040160405180910390fd5b5050505050565b6001816000016000828254019250508190555050565b600033905090565b6000604051905090565b600080fd5b600080fd5b600080fd5b600080fd5b6000601f19601f8301169050919050565b7f4e487b7100000000000000000000000000000000000000000000000000000000600052604160045260246000fd5b6117688261171f565b810181811067ffffffffffffffff8211171561178757611786611730565b5b80604052505050565b600061179a611701565b90506117a6828261175f565b919050565b600067ffffffffffffffff8211156117c6576117c5611730565b5b6117cf8261171f565b9050602081019050919050565b82818337600083830152505050565b60006117fe6117f9846117ab565b611790565b90508281526020810184848401111561181a5761181961171a565b5b6118258482856117dc565b509392505050565b600082601f83011261184257611841611715565b5b81356118528482602086016117eb565b91505092915050565b6000602082840312156118715761187061170b565b5b600082013567ffffffffffffffff81111561188f5761188e611710565b5b61189b8482850161182d565b91505092915050565b600081519050919050565b600082825260208201905092915050565b60005b838110156118de5780820151818401526020810190506118c3565b838111156118ed576000848401525b50505050565b60006118fe826118a4565b61190881856118af565b93506119188185602086016118c0565b6119218161171f565b840191505092915050565b6000819050919050565b61193f8161192c565b82525050565b6000606082019050818103600083015261195f81866118f3565b905061196e6020830185611936565b61197b6040830184611936565b949350505050565b60006020820190506119986000830184611936565b92915050565b60008115159050919050565b6119b38161199e565b82525050565b60006020820190506119ce60008301846119aa565b92915050565b6119dd8161199e565b81146119e857600080fd5b50565b6000813590506119fa816119d4565b92915050565b600060208284031215611a1657611a1561170b565b5b6000611a24848285016119eb565b91505092915050565b600073ffffffffffffffffffffffffffffffffffffffff82169050919050565b6000611a5882611a2d565b9050919050565b611a6881611a4d565b82525050565b6000602082019050611a836000830184611a5f565b92915050565b600060a082019050611a9e6000830188611a5f565b611aab6020830187611a5f565b611ab86040830186611a5f565b611ac56060830185611936565b611ad26080830184611936565b9695505050505050565b611ae581611a4d565b8114611af057600080fd5b50565b600081359050611b0281611adc565b92915050565b611b118161192c565b8114611b1c57600080fd5b50565b600081359050611b2e81611b08565b92915050565b600067ffffffffffffffff821115611b4f57611b4e611730565b5b602082029050602081019050919050565b600080fd5b600080fd5b600080fd5b600060408284031215611b8557611b84611b65565b5b611b8f6040611790565b9050600082013567ffffffffffffffff811115611baf57611bae611b6a565b5b611bbb8482850161182d565b6000830152506020611bcf84828501611b1f565b60208301525092915050565b6000611bee611be984611b34565b611790565b90508083825260208201905060208402830185811115611c1157611c10611b60565b5b835b81811015611c5857803567ffffffffffffffff811115611c3657611c35611715565b5b808601611c438982611b6f565b85526020850194505050602081019050611c13565b5050509392505050565b600082601f830112611c7757611c76611715565b5b8135611c87848260208601611bdb565b91505092915050565b600080fd5b60008083601f840112611cab57611caa611715565b5b8235905067ffffffffffffffff811115611cc857611cc7611c90565b5b602083019150836001820283011115611ce457611ce3611b60565b5b9250929050565b60008060008060008060008060006101008a8c031215611d0e57611d0d61170b565b5b6000611d1c8c828d01611af3565b9950506020611d2d8c828d01611af3565b9850506040611d3e8c828d01611b1f565b9750506060611d4f8c828d01611af3565b9650506080611d608c828d01611af3565b95505060a0611d718c828d01611b1f565b94505060c08a013567ffffffffffffffff811115611d9257611d91611710565b5b611d9e8c828d01611c62565b93505060e08a013567ffffffffffffffff811115611dbf57611dbe611710565b5b611dcb8c828d01611c95565b92509250509295985092959850929598565b600067ffffffffffffffff821115611df857611df7611730565b5b602082029050602081019050919050565b6000611e1c611e1784611ddd565b611790565b90508083825260208201905060208402830185811115611e3f57611e3e611b60565b5b835b81811015611e685780611e548882611af3565b845260208401935050602081019050611e41565b5050509392505050565b600082601f830112611e8757611e86611715565b5b8135611e97848260208601611e09565b91505092915050565b600080600080600080600060c0888a031215611ebf57611ebe61170b565b5b6000611ecd8a828b01611af3565b9750506020611ede8a828b01611af3565b9650506040611eef8a828b01611b1f565b9550506060611f008a828b01611b1f565b945050608088013567ffffffffffffffff811115611f2157611f20611710565b5b611f2d8a828b01611c95565b935093505060a088013567ffffffffffffffff811115611f5057611f4f611710565b5b611f5c8a828b01611e72565b91505092959891949750929550565b6000819050919050565b6000611f90611f8b611f8684611a2d565b611f6b565b611a2d565b9050919050565b6000611fa282611f75565b9050919050565b6000611fb482611f97565b9050919050565b611fc481611fa9565b82525050565b6000602082019050611fdf6000830184611fbb565b92915050565b600060208284031215611ffb57611ffa61170b565b5b600061200984828501611af3565b91505092915050565b6000602082840312156120285761202761170b565b5b600061203684828501611b1f565b91505092915050565b7f4e487b7100000000000000000000000000000000000000000000000000000000600052602260045260246000fd5b6000600282049050600182168061208657607f821691505b6020821081036120995761209861203f565b5b50919050565b600082825260208201905092915050565b7f43616e6e6f7420626520757365642061742074686973206d6f6d656e74000000600082015250565b60006120e6601d8361209f565b91506120f1826120b0565b602082019050919050565b60006020820190508181036000830152612115816120d9565b9050919050565b7f43616e6e6f7420496e697469616c697a65000000000000000000000000000000600082015250565b600061215260118361209f565b915061215d8261211c565b602082019050919050565b6000602082019050818103600083015261218181612145565b9050919050565b7f45786368616e6765206164647265737320726571756972656400000000000000600082015250565b60006121be60198361209f565b91506121c982612188565b602082019050919050565b600060208201905081810360008301526121ed816121b1565b9050919050565b7f526563697069656e742061646472657373207265717569726564000000000000600082015250565b600061222a601a8361209f565b9150612235826121f4565b602082019050919050565b600060208201905081810360008301526122598161221d565b9050919050565b7f526563697069656e74206164647265737320636861696e207265717569726564600082015250565b600061229660208361209f565b91506122a182612260565b602082019050919050565b600060208201905081810360008301526122c581612289565b9050919050565b7f566f75636865722073686f756c642068617665206174206c65617374206f6e6560008201527f2070617965720000000000000000000000000000000000000000000000000000602082015250565b600061232860268361209f565b9150612333826122cc565b604082019050919050565b600060208201905081810360008301526123578161231b565b9050919050565b7f4e487b7100000000000000000000000000000000000000000000000000000000600052603260045260246000fd5b7f4e487b7100000000000000000000000000000000000000000000000000000000600052601160045260246000fd5b60006123c78261192c565b91507fffffffffffffffffffffffffffffffffffffffffffffffffffffffffffffffff82036123f9576123f861238d565b5b600182019050919050565b600061241083856118af565b935061241d8385846117dc565b6124268361171f565b840190509392505050565b600060c082019050612446600083018a611a5f565b6124536020830189611a5f565b6124606040830188611a5f565b61246d6060830187611936565b61247a6080830186611a5f565b81810360a083015261248d818486612404565b905098975050505050505050565b6000815190506124aa816119d4565b92915050565b6000602082840312156124c6576124c561170b565b5b60006124d48482850161249b565b91505092915050565b600081905092915050565b60006124f483856124dd565b93506125018385846117dc565b82840190509392505050565b600061251a8284866124e8565b91508190509392505050565b7f5061796d656e74206d61646520696e2066756c6c000000000000000000000000600082015250565b600061255c60148361209f565b915061256782612526565b602082019050919050565b6000602082019050818103600083015261258b8161254f565b9050919050565b600061259d8261192c565b91506125a88361192c565b9250828210156125bb576125ba61238d565b5b828203905092915050565b60006040820190506125db6000830185611a5f565b6125e86020830184611936565b9392505050565b600081519050919050565b600082825260208201905092915050565b6000819050602082019050919050565b61262481611a4d565b82525050565b6000612636838361261b565b60208301905092915050565b6000602082019050919050565b600061265a826125ef565b61266481856125fa565b935061266f8361260b565b8060005b838110156126a0578151612687888261262a565b975061269283612642565b925050600181019050612673565b5085935050505092915050565b60006080820190506126c26000830187611936565b6126cf6020830186611936565b81810360408301526126e1818561264f565b90506126f06060830184611a5f565b95945050505050565b600067ffffffffffffffff82111561271457612713611730565b5b602082029050602081019050919050565b60008151905061273481611b08565b92915050565b600061274d612748846126f9565b611790565b905080838252602082019050602084028301858111156127705761276f611b60565b5b835b8181101561279957806127858882612725565b845260208401935050602081019050612772565b5050509392505050565b600082601f8301126127b8576127b7611715565b5b81516127c884826020860161273a565b91505092915050565b6000602082840312156127e7576127e661170b565b5b600082015167ffffffffffffffff81111561280557612804611710565b5b612811848285016127a3565b91505092915050565b6000819050919050565b600061283f61283a6128358461281a565b611f6b565b61192c565b9050919050565b61284f81612824565b82525050565b600060408201905061286a6000830185611a5f565b6128776020830184612846565b9392505050565b60006128898261192c565b91506128948361192c565b9250827fffffffffffffffffffffffffffffffffffffffffffffffffffffffffffffffff038211156128c9576128c861238d565b5b828201905092915050565b600082905092915050565b60008190508160005260206000209050919050565b60006020601f8301049050919050565b600082821b905092915050565b6000600883026129417fffffffffffffffffffffffffffffffffffffffffffffffffffffffffffffffff82612904565b61294b8683612904565b95508019841693508086168417925050509392505050565b600061297e6129796129748461192c565b611f6b565b61192c565b9050919050565b6000819050919050565b61299883612963565b6129ac6129a482612985565b848454612911565b825550505050565b600090565b6129c16129b4565b6129cc81848461298f565b505050565b5b818110156129f0576129e56000826129b9565b6001810190506129d2565b5050565b601f821115612a3557612a06816128df565b612a0f846128f4565b81016020851015612a1e578190505b612a32612a2a856128f4565b8301826129d1565b50505b505050565b600082821c905092915050565b6000612a5860001984600802612a3a565b1980831691505092915050565b6000612a718383612a47565b9150826002028217905092915050565b612a8b83836128d4565b67ffffffffffffffff811115612aa457612aa3611730565b5b612aae825461206e565b612ab98282856129f4565b6000601f831160018114612ae85760008415612ad6578287013590505b612ae08582612a65565b865550612b48565b601f198416612af6866128df565b60005b82811015612b1e57848901358255600182019150602085019450602081019050612af9565b86831015612b3b5784890135612b37601f891682612a47565b8355505b6001600288020188555050505b50505050505050565b600060a082019050612b666000830189611a5f565b8181036020830152612b79818789612404565b9050612b886040830186611936565b612b956060830185611936565b612ba26080830184611936565b979650505050505050565b7f4f776e61626c653a206e6577206f776e657220697320746865207a65726f206160008201527f6464726573730000000000000000000000000000000000000000000000000000602082015250565b6000612c0960268361209f565b9150612c1482612bad565b604082019050919050565b60006020820190508181036000830152612c3881612bfc565b9050919050565b7f5061796572206e6f7420666f756e640000000000000000000000000000000000600082015250565b6000612c75600f8361209f565b9150612c8082612c3f565b602082019050919050565b60006020820190508181036000830152612ca481612c68565b9050919050565b7f4f776e61626c653a2063616c6c6572206973206e6f7420746865206f776e6572600082015250565b6000612ce160208361209f565b9150612cec82612cab565b602082019050919050565b60006020820190508181036000830152612d1081612cd4565b9050919050565b612d20826118a4565b67ffffffffffffffff811115612d3957612d38611730565b5b612d43825461206e565b612d4e8282856129f4565b600060209050601f831160018114612d815760008415612d6f578287015190505b612d798582612a65565b865550612de1565b601f198416612d8f866128df565b60005b82811015612db757848901518255600182019150602085019450602081019050612d92565b86831015612dd45784890151612dd0601f891682612a47565b8355505b6001600288020188555050505b505050505050565b6000612df4826118a4565b612dfe81856124dd565b9350612e0e8185602086016118c0565b80840191505092915050565b6000612e268284612de9565b915081905092915050565b600081549050612e408161206e565b9050919050565b818103612e55575050612f2d565b612e5e82612e31565b67ffffffffffffffff811115612e7757612e76611730565b5b612e81825461206e565b612e8c8282856129f4565b6000601f831160018114612ebb5760008415612ea9578287015490505b612eb38582612a65565b865550612f26565b601f198416612ec9876128df565b9650612ed4866128df565b60005b82811015612efc57848901548255600182019150600185019450602081019050612ed7565b86831015612f195784890154612f15601f891682612a47565b8355505b6001600288020188555050505b5050505050505b565b6000604082019050612f446000830185611a5f565b8181036020830152612f5681846118f3565b90509392505050565b6000606082019050612f746000830186611a5f565b612f816020830185611a5f565b612f8e6040830184611936565b94935050505056fea264697066735822122073cb8999a00359125a9509278f969c41caca81e95dd62ff8603e87ba5f86f6be64736f6c634300080f0033",
  "linkReferences": {},
  "deployedLinkReferences": {}
}