{
    "_format": "hh-sol-artifact-1",
    "contractName": "Slice",
    "sourceName": "contracts/base/Slice.sol",
    "abi": [
        {
            "inputs": [],
            "name": "BridgingNotSupportedYet",
            "type": "error"
        },
        {
            "inputs": [],
            "name": "SafeTransferFailed",
            "type": "error"
        },
        {
            "inputs": [],
            "name": "SafeTransferFromeFailed",
            "type": "error"
        },
        {
            "anonymous": false,
            "inputs": [
                {
                    "indexed": true,
                    "internalType": "address",
                    "name": "previousOwner",
                    "type": "address"
                },
                {
                    "indexed": true,
                    "internalType": "address",
                    "name": "newOwner",
                    "type": "address"
                }
            ],
            "name": "OwnershipTransferred",
            "type": "event"
        },
        {
            "inputs": [
                {
                    "internalType": "uint256",
                    "name": "_index",
                    "type": "uint256"
                }
            ],
            "name": "getPayer",
            "outputs": [
                {
                    "internalType": "bytes",
                    "name": "",
                    "type": "bytes"
                },
                {
                    "internalType": "uint256",
                    "name": "",
                    "type": "uint256"
                },
                {
                    "internalType": "uint256",
                    "name": "",
                    "type": "uint256"
                }
            ],
            "stateMutability": "view",
            "type": "function"
        },
        {
            "inputs": [],
            "name": "getSliceInfo",
            "outputs": [
                {
                    "internalType": "address",
                    "name": "",
                    "type": "address"
                },
                {
                    "internalType": "address",
                    "name": "",
                    "type": "address"
                },
                {
                    "internalType": "address",
                    "name": "",
                    "type": "address"
                },
                {
                    "internalType": "uint256",
                    "name": "",
                    "type": "uint256"
                },
                {
                    "internalType": "uint256",
                    "name": "",
                    "type": "uint256"
                }
            ],
            "stateMutability": "view",
            "type": "function"
        },
        {
            "inputs": [],
            "name": "getTotalPaid",
            "outputs": [
                {
                    "internalType": "uint256",
                    "name": "",
                    "type": "uint256"
                }
            ],
            "stateMutability": "view",
            "type": "function"
        },
        {
            "inputs": [],
            "name": "logger",
            "outputs": [
                {
                    "internalType": "contract Logger",
                    "name": "",
                    "type": "address"
                }
            ],
            "stateMutability": "view",
            "type": "function"
        },
        {
            "inputs": [
                {
                    "internalType": "address",
                    "name": "_inputToken",
                    "type": "address"
                },
                {
                    "internalType": "address",
                    "name": "_sender",
                    "type": "address"
                },
                {
                    "internalType": "uint256",
                    "name": "_outputAmount",
                    "type": "uint256"
                },
                {
                    "internalType": "uint256",
                    "name": "_amountInputMaximum",
                    "type": "uint256"
                },
                {
                    "internalType": "bytes",
                    "name": "_payeruid",
                    "type": "bytes"
                },
                {
                    "internalType": "address[]",
                    "name": "path",
                    "type": "address[]"
                }
            ],
            "name": "makePayment",
            "outputs": [],
            "stateMutability": "nonpayable",
            "type": "function"
        },
        {
            "inputs": [],
            "name": "owner",
            "outputs": [
                {
                    "internalType": "address",
                    "name": "",
                    "type": "address"
                }
            ],
            "stateMutability": "view",
            "type": "function"
        },
        {
            "inputs": [],
            "name": "paused",
            "outputs": [
                {
                    "internalType": "bool",
                    "name": "",
                    "type": "bool"
                }
            ],
            "stateMutability": "view",
            "type": "function"
        },
        {
            "inputs": [
                {
                    "internalType": "bytes",
                    "name": "",
                    "type": "bytes"
                }
            ],
            "name": "payerOf",
            "outputs": [
                {
                    "internalType": "bytes",
                    "name": "payeruid",
                    "type": "bytes"
                },
                {
                    "internalType": "uint256",
                    "name": "amountDue",
                    "type": "uint256"
                },
                {
                    "internalType": "uint256",
                    "name": "amountPaid",
                    "type": "uint256"
                }
            ],
            "stateMutability": "view",
            "type": "function"
        },
        {
            "inputs": [],
            "name": "payersCount",
            "outputs": [
                {
                    "internalType": "uint256",
                    "name": "_value",
                    "type": "uint256"
                }
            ],
            "stateMutability": "view",
            "type": "function"
        },
        {
            "inputs": [],
            "name": "refund",
            "outputs": [
                {
                    "internalType": "bool",
                    "name": "",
                    "type": "bool"
                }
            ],
            "stateMutability": "view",
            "type": "function"
        },
        {
            "inputs": [],
            "name": "renounceOwnership",
            "outputs": [],
            "stateMutability": "nonpayable",
            "type": "function"
        },
        {
            "inputs": [
                {
                    "internalType": "address",
                    "name": "_token",
                    "type": "address"
                },
                {
                    "internalType": "address",
                    "name": "_recipientAddress",
                    "type": "address"
                },
                {
                    "internalType": "uint256",
                    "name": "_recipientAddresschainId",
                    "type": "uint256"
                },
                {
                    "internalType": "address",
                    "name": "_exchangeAddress",
                    "type": "address"
                },
                {
                    "internalType": "address",
                    "name": "_loggerAddress",
                    "type": "address"
                },
                {
                    "internalType": "uint256",
                    "name": "_totalReceivable",
                    "type": "uint256"
                },
                {
                    "components": [
                        {
                            "internalType": "bytes",
                            "name": "payeruid",
                            "type": "bytes"
                        },
                        {
                            "internalType": "uint256",
                            "name": "amountDue",
                            "type": "uint256"
                        }
                    ],
                    "internalType": "struct SPayer[]",
                    "name": "_payers",
                    "type": "tuple[]"
                },
                {
                    "internalType": "bytes",
                    "name": "_userdata",
                    "type": "bytes"
                }
            ],
            "name": "setupSlice",
            "outputs": [
                {
                    "internalType": "bool",
                    "name": "",
                    "type": "bool"
                }
            ],
            "stateMutability": "nonpayable",
            "type": "function"
        },
        {
            "inputs": [],
            "name": "transactionsCount",
            "outputs": [
                {
                    "internalType": "uint256",
                    "name": "_value",
                    "type": "uint256"
                }
            ],
            "stateMutability": "view",
            "type": "function"
        },
        {
            "inputs": [
                {
                    "internalType": "address",
                    "name": "newOwner",
                    "type": "address"
                }
            ],
            "name": "transferOwnership",
            "outputs": [],
            "stateMutability": "nonpayable",
            "type": "function"
        },
        {
            "inputs": [
                {
                    "internalType": "bool",
                    "name": "_paused",
                    "type": "bool"
                }
            ],
            "name": "updatePause",
            "outputs": [],
            "stateMutability": "nonpayable",
            "type": "function"
        },
        {
            "inputs": [
                {
                    "internalType": "bool",
                    "name": "_refund",
                    "type": "bool"
                }
            ],
            "name": "updateRefund",
            "outputs": [],
            "stateMutability": "nonpayable",
            "type": "function"
        }
    ],
    "bytecode": "0x608060405260008060146101000a81548160ff02191690831515021790555060008060156101000a81548160ff02191690831515021790555034801561004457600080fd5b50612faa806100546000396000f3fe608060405234801561001057600080fd5b50600436106101005760003560e01c8063975c62a311610097578063f2fde38b11610066578063f2fde38b1461027f578063f8974de01461029b578063fb722d56146102b7578063fd99a746146102e957610100565b8063975c62a3146101f3578063bb6f623e14610215578063ebd0b60114610245578063f24ccbfe1461026157610100565b80636793141f116100d35780636793141f146101915780636d552c8e146101af578063715018a6146101cb5780638da5cb5b146101d557610100565b8063275039801461010557806356863e4514610137578063590e1ae3146101555780635c975abb14610173575b600080fd5b61011f600480360381019061011a9190611847565b610307565b60405161012e93929190611931565b60405180910390f35b61013f6103cf565b60405161014c919061196f565b60405180910390f35b61015d6103db565b60405161016a91906119a5565b60405180910390f35b61017b6103ee565b60405161018891906119a5565b60405180910390f35b610199610401565b6040516101a6919061196f565b60405180910390f35b6101c960048036038101906101c491906119ec565b61040b565b005b6101d3610480565b005b6101dd610494565b6040516101ea9190611a5a565b60405180910390f35b6101fb6104bd565b60405161020c959493929190611a75565b60405180910390f35b61022f600480360381019061022a9190611cd7565b610545565b60405161023c91906119a5565b60405180910390f35b61025f600480360381019061025a9190611e8c565b61095d565b005b610269610f4b565b6040516102769190611fb6565b60405180910390f35b61029960048036038101906102949190611fd1565b610f71565b005b6102b560048036038101906102b091906119ec565b610ff4565b005b6102d160048036038101906102cc9190611ffe565b611019565b6040516102e093929190611931565b60405180910390f35b6102f161114e565b6040516102fe919061196f565b60405180910390f35b600b818051602081018201805184825260208301602085012081835280955050505050506000915090508060000180546103409061205a565b80601f016020809104026020016040519081016040528092919081815260200182805461036c9061205a565b80156103b95780601f1061038e576101008083540402835291602001916103b9565b820191906000526020600020905b81548152906001019060200180831161039c57829003601f168201915b5050505050908060010154908060020154905083565b60078060000154905081565b600060159054906101000a900460ff1681565b600060149054906101000a900460ff1681565b6000600654905090565b61041361115a565b600060149054906101000a900460ff1615610463576040517f08c379a000000000000000000000000000000000000000000000000000000000815260040161045a906120e8565b60405180910390fd5b80600060156101000a81548160ff02191690831515021790555050565b61048861115a565b61049260006111d8565b565b60008060009054906101000a900473ffffffffffffffffffffffffffffffffffffffff16905090565b6000806000806000600160009054906101000a900473ffffffffffffffffffffffffffffffffffffffff16600260009054906101000a900473ffffffffffffffffffffffffffffffffffffffff16600360009054906101000a900473ffffffffffffffffffffffffffffffffffffffff16600554600654945094509450945094509091929394565b60008073ffffffffffffffffffffffffffffffffffffffff16610566610494565b73ffffffffffffffffffffffffffffffffffffffff16146105bc576040517f08c379a00000000000000000000000000000000000000000000000000000000081526004016105b390612154565b60405180910390fd5b600073ffffffffffffffffffffffffffffffffffffffff168773ffffffffffffffffffffffffffffffffffffffff160361062b576040517f08c379a0000000000000000000000000000000000000000000000000000000008152600401610622906121c0565b60405180910390fd5b600073ffffffffffffffffffffffffffffffffffffffff168973ffffffffffffffffffffffffffffffffffffffff160361069a576040517f08c379a00000000000000000000000000000000000000000000000000000000081526004016106919061222c565b60405180910390fd5b600088036106dd576040517f08c379a00000000000000000000000000000000000000000000000000000000081526004016106d490612298565b60405180910390fd5b6000845111610721576040517f08c379a00000000000000000000000000000000000000000000000000000000081526004016107189061232a565b60405180910390fd5b89600260006101000a81548173ffffffffffffffffffffffffffffffffffffffff021916908373ffffffffffffffffffffffffffffffffffffffff16021790555088600360006101000a81548173ffffffffffffffffffffffffffffffffffffffff021916908373ffffffffffffffffffffffffffffffffffffffff1602179055508460058190555086600160006101000a81548173ffffffffffffffffffffffffffffffffffffffff021916908373ffffffffffffffffffffffffffffffffffffffff16021790555085600960006101000a81548173ffffffffffffffffffffffffffffffffffffffff021916908373ffffffffffffffffffffffffffffffffffffffff1602179055508760048190555060005b8451811015610898576108858582815181106108555761085461234a565b5b6020026020010151600001518683815181106108745761087361234a565b5b60200260200101516020015161129c565b8080610890906123a8565b915050610836565b506108a16113dc565b600960009054906101000a900473ffffffffffffffffffffffffffffffffffffffff1673ffffffffffffffffffffffffffffffffffffffff166378c6e93b30338c898f89896040518863ffffffff1660e01b8152600401610908979695949392919061241d565b6020604051808303816000875af1158015610927573d6000803e3d6000fd5b505050506040513d601f19601f8201168201806040525081019061094b919061249c565b50600190509998505050505050505050565b600060149054906101000a900460ff16156109ad576040517f08c379a00000000000000000000000000000000000000000000000000000000081526004016109a4906120e8565b60405180910390fd5b6000600b84846040516109c19291906124f9565b90815260200160405180910390209050806001015481600201541115610a1c576040517f08c379a0000000000000000000000000000000000000000000000000000000008152600401610a139061255e565b60405180910390fd5b600080610a2b8a8a308a6113ee565b6004544614610a66576040517f797341e800000000000000000000000000000000000000000000000000000000815260040160405180910390fd5b600260009054906101000a900473ffffffffffffffffffffffffffffffffffffffff1673ffffffffffffffffffffffffffffffffffffffff168a73ffffffffffffffffffffffffffffffffffffffff1603610ac357879150610ce7565b6000600160009054906101000a900473ffffffffffffffffffffffffffffffffffffffff1690508a73ffffffffffffffffffffffffffffffffffffffff1663095ea7b3600160009054906101000a900473ffffffffffffffffffffffffffffffffffffffff168a6040518363ffffffff1660e01b8152600401610b4792919061257e565b6020604051808303816000875af1158015610b66573d6000803e3d6000fd5b505050506040513d601f19601f82011682018060405250810190610b8a919061249c565b5060008173ffffffffffffffffffffffffffffffffffffffff166342712a678b8b89306040518563ffffffff1660e01b8152600401610bcc9493929190612665565b6000604051808303816000875af1158015610beb573d6000803e3d6000fd5b505050506040513d6000823e3d601f19601f82011682018060405250810190610c149190612789565b90508b73ffffffffffffffffffffffffffffffffffffffff1663095ea7b3600160009054906101000a900473ffffffffffffffffffffffffffffffffffffffff1660006040518363ffffffff1660e01b8152600401610c7492919061280d565b6020604051808303816000875af1158015610c93573d6000803e3d6000fd5b505050506040513d601f19601f82011682018060405250810190610cb7919061249c565b5089935080600081518110610ccf57610cce61234a565b5b602002602001015189610ce29190612836565b925050505b81836002016000828254610cfb919061286a565b925050819055508160066000828254610d14919061286a565b925050819055506000600c6000610d2b6008611559565b815260200190815260200160002090504281600601819055508281600501819055508881600401819055508a8160000160006101000a81548173ffffffffffffffffffffffffffffffffffffffff021916908373ffffffffffffffffffffffffffffffffffffffff160217905550600260009054906101000a900473ffffffffffffffffffffffffffffffffffffffff168160020160006101000a81548173ffffffffffffffffffffffffffffffffffffffff021916908373ffffffffffffffffffffffffffffffffffffffff1602179055508686826003019182610e11929190612a6d565b5060055460065410610e6f57610e6e600260009054906101000a900473ffffffffffffffffffffffffffffffffffffffff16600360009054906101000a900473ffffffffffffffffffffffffffffffffffffffff16600654611567565b5b6000821115610e8457610e838b8b84611567565b5b600960009054906101000a900473ffffffffffffffffffffffffffffffffffffffff1673ffffffffffffffffffffffffffffffffffffffff1663597e63ee3089898d610ed06008611559565b6040518663ffffffff1660e01b8152600401610ef0959493929190612b3d565b6020604051808303816000875af1158015610f0f573d6000803e3d6000fd5b505050506040513d601f19601f82011682018060405250810190610f33919061249c565b50610f3e60086116cf565b5050505050505050505050565b600960009054906101000a900473ffffffffffffffffffffffffffffffffffffffff1681565b610f7961115a565b600073ffffffffffffffffffffffffffffffffffffffff168173ffffffffffffffffffffffffffffffffffffffff1603610fe8576040517f08c379a0000000000000000000000000000000000000000000000000000000008152600401610fdf90612bfd565b60405180910390fd5b610ff1816111d8565b50565b610ffc61115a565b80600060146101000a81548160ff02191690831515021790555050565b60606000806110286007611559565b8410611069576040517f08c379a000000000000000000000000000000000000000000000000000000000815260040161106090612c69565b60405180910390fd5b6000600a60008681526020019081526020016000206040518060600160405290816000820180546110999061205a565b80601f01602080910402602001604051908101604052809291908181526020018280546110c59061205a565b80156111125780601f106110e757610100808354040283529160200191611112565b820191906000526020600020905b8154815290600101906020018083116110f557829003601f168201915b50505050508152602001600182015481526020016002820154815250509050806000015181602001518260400151935093509350509193909250565b60088060000154905081565b6111626116e5565b73ffffffffffffffffffffffffffffffffffffffff16611180610494565b73ffffffffffffffffffffffffffffffffffffffff16146111d6576040517f08c379a00000000000000000000000000000000000000000000000000000000081526004016111cd90612cd5565b60405180910390fd5b565b60008060009054906101000a900473ffffffffffffffffffffffffffffffffffffffff169050816000806101000a81548173ffffffffffffffffffffffffffffffffffffffff021916908373ffffffffffffffffffffffffffffffffffffffff1602179055508173ffffffffffffffffffffffffffffffffffffffff168173ffffffffffffffffffffffffffffffffffffffff167f8be0079c531659141344cd1fd0a4f28419497f9722a3daafe3b4186f6b6457e060405160405180910390a35050565b6000600a60006112ac6007611559565b81526020019081526020016000209050828160000190816112cd9190612cf5565b50818160010181905550600081600201819055506112eb60076116cf565b80600b846040516112fc9190612df8565b90815260200160405180910390206000820181600001908161131e9190612e25565b506001820154816001015560028201548160020155905050600960009054906101000a900473ffffffffffffffffffffffffffffffffffffffff1673ffffffffffffffffffffffffffffffffffffffff16630c31c0e730856040518363ffffffff1660e01b8152600401611393929190612f0d565b6020604051808303816000875af11580156113b2573d6000803e3d6000fd5b505050506040513d601f19601f820116820180604052508101906113d6919061249c565b50505050565b6113ec6113e76116e5565b6111d8565b565b6000808573ffffffffffffffffffffffffffffffffffffffff1685858560405160240161141d93929190612f3d565b6040516020818303038152906040527f23b872dd000000000000000000000000000000000000000000000000000000007bffffffffffffffffffffffffffffffffffffffffffffffffffffffff19166020820180517bffffffffffffffffffffffffffffffffffffffffffffffffffffffff83818316178352505050506040516114a79190612df8565b6000604051808303816000865af19150503d80600081146114e4576040519150601f19603f3d011682016040523d82523d6000602084013e6114e9565b606091505b509150915081158061151a57506000815114158015611519575080806020019051810190611517919061249c565b155b5b15611551576040517f5c9777b600000000000000000000000000000000000000000000000000000000815260040160405180910390fd5b505050505050565b600081600001549050919050565b6000808473ffffffffffffffffffffffffffffffffffffffff16848460405160240161159492919061257e565b6040516020818303038152906040527fa9059cbb000000000000000000000000000000000000000000000000000000007bffffffffffffffffffffffffffffffffffffffffffffffffffffffff19166020820180517bffffffffffffffffffffffffffffffffffffffffffffffffffffffff838183161783525050505060405161161e9190612df8565b6000604051808303816000865af19150503d806000811461165b576040519150601f19603f3d011682016040523d82523d6000602084013e611660565b606091505b50915091508115806116915750600081511415801561169057508080602001905181019061168e919061249c565b155b5b156116c8576040517ffb7f507900000000000000000000000000000000000000000000000000000000815260040160405180910390fd5b5050505050565b6001816000016000828254019250508190555050565b600033905090565b6000604051905090565b600080fd5b600080fd5b600080fd5b600080fd5b6000601f19601f8301169050919050565b7f4e487b7100000000000000000000000000000000000000000000000000000000600052604160045260246000fd5b6117548261170b565b810181811067ffffffffffffffff821117156117735761177261171c565b5b80604052505050565b60006117866116ed565b9050611792828261174b565b919050565b600067ffffffffffffffff8211156117b2576117b161171c565b5b6117bb8261170b565b9050602081019050919050565b82818337600083830152505050565b60006117ea6117e584611797565b61177c565b90508281526020810184848401111561180657611805611706565b5b6118118482856117c8565b509392505050565b600082601f83011261182e5761182d611701565b5b813561183e8482602086016117d7565b91505092915050565b60006020828403121561185d5761185c6116f7565b5b600082013567ffffffffffffffff81111561187b5761187a6116fc565b5b61188784828501611819565b91505092915050565b600081519050919050565b600082825260208201905092915050565b60005b838110156118ca5780820151818401526020810190506118af565b838111156118d9576000848401525b50505050565b60006118ea82611890565b6118f4818561189b565b93506119048185602086016118ac565b61190d8161170b565b840191505092915050565b6000819050919050565b61192b81611918565b82525050565b6000606082019050818103600083015261194b81866118df565b905061195a6020830185611922565b6119676040830184611922565b949350505050565b60006020820190506119846000830184611922565b92915050565b60008115159050919050565b61199f8161198a565b82525050565b60006020820190506119ba6000830184611996565b92915050565b6119c98161198a565b81146119d457600080fd5b50565b6000813590506119e6816119c0565b92915050565b600060208284031215611a0257611a016116f7565b5b6000611a10848285016119d7565b91505092915050565b600073ffffffffffffffffffffffffffffffffffffffff82169050919050565b6000611a4482611a19565b9050919050565b611a5481611a39565b82525050565b6000602082019050611a6f6000830184611a4b565b92915050565b600060a082019050611a8a6000830188611a4b565b611a976020830187611a4b565b611aa46040830186611a4b565b611ab16060830185611922565b611abe6080830184611922565b9695505050505050565b611ad181611a39565b8114611adc57600080fd5b50565b600081359050611aee81611ac8565b92915050565b611afd81611918565b8114611b0857600080fd5b50565b600081359050611b1a81611af4565b92915050565b600067ffffffffffffffff821115611b3b57611b3a61171c565b5b602082029050602081019050919050565b600080fd5b600080fd5b600080fd5b600060408284031215611b7157611b70611b51565b5b611b7b604061177c565b9050600082013567ffffffffffffffff811115611b9b57611b9a611b56565b5b611ba784828501611819565b6000830152506020611bbb84828501611b0b565b60208301525092915050565b6000611bda611bd584611b20565b61177c565b90508083825260208201905060208402830185811115611bfd57611bfc611b4c565b5b835b81811015611c4457803567ffffffffffffffff811115611c2257611c21611701565b5b808601611c2f8982611b5b565b85526020850194505050602081019050611bff565b5050509392505050565b600082601f830112611c6357611c62611701565b5b8135611c73848260208601611bc7565b91505092915050565b600080fd5b60008083601f840112611c9757611c96611701565b5b8235905067ffffffffffffffff811115611cb457611cb3611c7c565b5b602083019150836001820283011115611cd057611ccf611b4c565b5b9250929050565b60008060008060008060008060006101008a8c031215611cfa57611cf96116f7565b5b6000611d088c828d01611adf565b9950506020611d198c828d01611adf565b9850506040611d2a8c828d01611b0b565b9750506060611d3b8c828d01611adf565b9650506080611d4c8c828d01611adf565b95505060a0611d5d8c828d01611b0b565b94505060c08a013567ffffffffffffffff811115611d7e57611d7d6116fc565b5b611d8a8c828d01611c4e565b93505060e08a013567ffffffffffffffff811115611dab57611daa6116fc565b5b611db78c828d01611c81565b92509250509295985092959850929598565b600067ffffffffffffffff821115611de457611de361171c565b5b602082029050602081019050919050565b6000611e08611e0384611dc9565b61177c565b90508083825260208201905060208402830185811115611e2b57611e2a611b4c565b5b835b81811015611e545780611e408882611adf565b845260208401935050602081019050611e2d565b5050509392505050565b600082601f830112611e7357611e72611701565b5b8135611e83848260208601611df5565b91505092915050565b600080600080600080600060c0888a031215611eab57611eaa6116f7565b5b6000611eb98a828b01611adf565b9750506020611eca8a828b01611adf565b9650506040611edb8a828b01611b0b565b9550506060611eec8a828b01611b0b565b945050608088013567ffffffffffffffff811115611f0d57611f0c6116fc565b5b611f198a828b01611c81565b935093505060a088013567ffffffffffffffff811115611f3c57611f3b6116fc565b5b611f488a828b01611e5e565b91505092959891949750929550565b6000819050919050565b6000611f7c611f77611f7284611a19565b611f57565b611a19565b9050919050565b6000611f8e82611f61565b9050919050565b6000611fa082611f83565b9050919050565b611fb081611f95565b82525050565b6000602082019050611fcb6000830184611fa7565b92915050565b600060208284031215611fe757611fe66116f7565b5b6000611ff584828501611adf565b91505092915050565b600060208284031215612014576120136116f7565b5b600061202284828501611b0b565b91505092915050565b7f4e487b7100000000000000000000000000000000000000000000000000000000600052602260045260246000fd5b6000600282049050600182168061207257607f821691505b6020821081036120855761208461202b565b5b50919050565b600082825260208201905092915050565b7f43616e6e6f7420626520757365642061742074686973206d6f6d656e74000000600082015250565b60006120d2601d8361208b565b91506120dd8261209c565b602082019050919050565b60006020820190508181036000830152612101816120c5565b9050919050565b7f43616e6e6f7420496e697469616c697a65000000000000000000000000000000600082015250565b600061213e60118361208b565b915061214982612108565b602082019050919050565b6000602082019050818103600083015261216d81612131565b9050919050565b7f45786368616e6765206164647265737320726571756972656400000000000000600082015250565b60006121aa60198361208b565b91506121b582612174565b602082019050919050565b600060208201905081810360008301526121d98161219d565b9050919050565b7f526563697069656e742061646472657373207265717569726564000000000000600082015250565b6000612216601a8361208b565b9150612221826121e0565b602082019050919050565b6000602082019050818103600083015261224581612209565b9050919050565b7f526563697069656e74206164647265737320636861696e207265717569726564600082015250565b600061228260208361208b565b915061228d8261224c565b602082019050919050565b600060208201905081810360008301526122b181612275565b9050919050565b7f566f75636865722073686f756c642068617665206174206c65617374206f6e6560008201527f2070617965720000000000000000000000000000000000000000000000000000602082015250565b600061231460268361208b565b915061231f826122b8565b604082019050919050565b6000602082019050818103600083015261234381612307565b9050919050565b7f4e487b7100000000000000000000000000000000000000000000000000000000600052603260045260246000fd5b7f4e487b7100000000000000000000000000000000000000000000000000000000600052601160045260246000fd5b60006123b382611918565b91507fffffffffffffffffffffffffffffffffffffffffffffffffffffffffffffffff82036123e5576123e4612379565b5b600182019050919050565b60006123fc838561189b565b93506124098385846117c8565b6124128361170b565b840190509392505050565b600060c082019050612432600083018a611a4b565b61243f6020830189611a4b565b61244c6040830188611a4b565b6124596060830187611922565b6124666080830186611a4b565b81810360a08301526124798184866123f0565b905098975050505050505050565b600081519050612496816119c0565b92915050565b6000602082840312156124b2576124b16116f7565b5b60006124c084828501612487565b91505092915050565b600081905092915050565b60006124e083856124c9565b93506124ed8385846117c8565b82840190509392505050565b60006125068284866124d4565b91508190509392505050565b7f5061796d656e74206d61646520696e2066756c6c000000000000000000000000600082015250565b600061254860148361208b565b915061255382612512565b602082019050919050565b600060208201905081810360008301526125778161253b565b9050919050565b60006040820190506125936000830185611a4b565b6125a06020830184611922565b9392505050565b600081519050919050565b600082825260208201905092915050565b6000819050602082019050919050565b6125dc81611a39565b82525050565b60006125ee83836125d3565b60208301905092915050565b6000602082019050919050565b6000612612826125a7565b61261c81856125b2565b9350612627836125c3565b8060005b8381101561265857815161263f88826125e2565b975061264a836125fa565b92505060018101905061262b565b5085935050505092915050565b600060808201905061267a6000830187611922565b6126876020830186611922565b81810360408301526126998185612607565b90506126a86060830184611a4b565b95945050505050565b600067ffffffffffffffff8211156126cc576126cb61171c565b5b602082029050602081019050919050565b6000815190506126ec81611af4565b92915050565b6000612705612700846126b1565b61177c565b9050808382526020820190506020840283018581111561272857612727611b4c565b5b835b81811015612751578061273d88826126dd565b84526020840193505060208101905061272a565b5050509392505050565b600082601f8301126127705761276f611701565b5b81516127808482602086016126f2565b91505092915050565b60006020828403121561279f5761279e6116f7565b5b600082015167ffffffffffffffff8111156127bd576127bc6116fc565b5b6127c98482850161275b565b91505092915050565b6000819050919050565b60006127f76127f26127ed846127d2565b611f57565b611918565b9050919050565b612807816127dc565b82525050565b60006040820190506128226000830185611a4b565b61282f60208301846127fe565b9392505050565b600061284182611918565b915061284c83611918565b92508282101561285f5761285e612379565b5b828203905092915050565b600061287582611918565b915061288083611918565b9250827fffffffffffffffffffffffffffffffffffffffffffffffffffffffffffffffff038211156128b5576128b4612379565b5b828201905092915050565b600082905092915050565b60008190508160005260206000209050919050565b60006020601f8301049050919050565b600082821b905092915050565b60006008830261292d7fffffffffffffffffffffffffffffffffffffffffffffffffffffffffffffffff826128f0565b61293786836128f0565b95508019841693508086168417925050509392505050565b600061296a61296561296084611918565b611f57565b611918565b9050919050565b6000819050919050565b6129848361294f565b61299861299082612971565b8484546128fd565b825550505050565b600090565b6129ad6129a0565b6129b881848461297b565b505050565b5b818110156129dc576129d16000826129a5565b6001810190506129be565b5050565b601f821115612a21576129f2816128cb565b6129fb846128e0565b81016020851015612a0a578190505b612a1e612a16856128e0565b8301826129bd565b50505b505050565b600082821c905092915050565b6000612a4460001984600802612a26565b1980831691505092915050565b6000612a5d8383612a33565b9150826002028217905092915050565b612a7783836128c0565b67ffffffffffffffff811115612a9057612a8f61171c565b5b612a9a825461205a565b612aa58282856129e0565b6000601f831160018114612ad45760008415612ac2578287013590505b612acc8582612a51565b865550612b34565b601f198416612ae2866128cb565b60005b82811015612b0a57848901358255600182019150602085019450602081019050612ae5565b86831015612b275784890135612b23601f891682612a33565b8355505b6001600288020188555050505b50505050505050565b6000608082019050612b526000830188611a4b565b8181036020830152612b658186886123f0565b9050612b746040830185611922565b612b816060830184611922565b9695505050505050565b7f4f776e61626c653a206e6577206f776e657220697320746865207a65726f206160008201527f6464726573730000000000000000000000000000000000000000000000000000602082015250565b6000612be760268361208b565b9150612bf282612b8b565b604082019050919050565b60006020820190508181036000830152612c1681612bda565b9050919050565b7f5061796572206e6f7420666f756e640000000000000000000000000000000000600082015250565b6000612c53600f8361208b565b9150612c5e82612c1d565b602082019050919050565b60006020820190508181036000830152612c8281612c46565b9050919050565b7f4f776e61626c653a2063616c6c6572206973206e6f7420746865206f776e6572600082015250565b6000612cbf60208361208b565b9150612cca82612c89565b602082019050919050565b60006020820190508181036000830152612cee81612cb2565b9050919050565b612cfe82611890565b67ffffffffffffffff811115612d1757612d1661171c565b5b612d21825461205a565b612d2c8282856129e0565b600060209050601f831160018114612d5f5760008415612d4d578287015190505b612d578582612a51565b865550612dbf565b601f198416612d6d866128cb565b60005b82811015612d9557848901518255600182019150602085019450602081019050612d70565b86831015612db25784890151612dae601f891682612a33565b8355505b6001600288020188555050505b505050505050565b6000612dd282611890565b612ddc81856124c9565b9350612dec8185602086016118ac565b80840191505092915050565b6000612e048284612dc7565b915081905092915050565b600081549050612e1e8161205a565b9050919050565b818103612e33575050612f0b565b612e3c82612e0f565b67ffffffffffffffff811115612e5557612e5461171c565b5b612e5f825461205a565b612e6a8282856129e0565b6000601f831160018114612e995760008415612e87578287015490505b612e918582612a51565b865550612f04565b601f198416612ea7876128cb565b9650612eb2866128cb565b60005b82811015612eda57848901548255600182019150600185019450602081019050612eb5565b86831015612ef75784890154612ef3601f891682612a33565b8355505b6001600288020188555050505b5050505050505b565b6000604082019050612f226000830185611a4b565b8181036020830152612f3481846118df565b90509392505050565b6000606082019050612f526000830186611a4b565b612f5f6020830185611a4b565b612f6c6040830184611922565b94935050505056fea26469706673582212206fe8b5e4b2065161b4a34385308c0f809899030c18c29b225f71a4e7a4818b3a64736f6c634300080f0033",
    "linkReferences": {},
    "deployedLinkReferences": {}
}