{
  "contractName": "Locker",
  "abi": [
    {
      "inputs": [
        {
          "internalType": "string",
          "name": "value",
          "type": "string"
        }
      ],
      "name": "store",
      "outputs": [],
      "stateMutability": "payable",
      "type": "function"
    },
    {
      "inputs": [
        {
          "internalType": "address",
          "name": "client",
          "type": "address"
        }
      ],
      "name": "retrieve",
      "outputs": [
        {
          "internalType": "string",
          "name": "",
          "type": "string"
        }
      ],
      "stateMutability": "view",
      "type": "function"
    },
    {
      "inputs": [
        {
          "internalType": "string",
          "name": "value",
          "type": "string"
        }
      ],
      "name": "register",
      "outputs": [],
      "stateMutability": "payable",
      "type": "function"
    },
    {
      "inputs": [
        {
          "internalType": "address",
          "name": "client",
          "type": "address"
        }
      ],
      "name": "fetch",
      "outputs": [
        {
          "internalType": "string[]",
          "name": "",
          "type": "string[]"
        }
      ],
      "stateMutability": "view",
      "type": "function"
    }
  ],
  "bytecode": "0x608060405234801561001057600080fd5b506108ae806100206000396000f3fe60806040526004361061003f5760003560e01c80630a79309b14610044578063131a068014610081578063f109a0be1461009d578063f2c298be146100da575b600080fd5b34801561005057600080fd5b5061006b600480360381019061006691906104dc565b6100f6565b6040516100789190610663565b60405180910390f35b61009b60048036038101906100969190610505565b6101c6565b005b3480156100a957600080fd5b506100c460048036038101906100bf91906104dc565b610222565b6040516100d19190610641565b60405180910390f35b6100f460048036038101906100ef9190610505565b61033a565b005b60606000808373ffffffffffffffffffffffffffffffffffffffff1673ffffffffffffffffffffffffffffffffffffffff1681526020019081526020016000208054610141906107c0565b80601f016020809104026020016040519081016040528092919081815260200182805461016d906107c0565b80156101ba5780601f1061018f576101008083540402835291602001916101ba565b820191906000526020600020905b81548152906001019060200180831161019d57829003601f168201915b50505050509050919050565b6000339050816000808373ffffffffffffffffffffffffffffffffffffffff1673ffffffffffffffffffffffffffffffffffffffff168152602001908152602001600020908051906020019061021d9291906103bc565b505050565b6060600160008373ffffffffffffffffffffffffffffffffffffffff1673ffffffffffffffffffffffffffffffffffffffff168152602001908152602001600020805480602002602001604051908101604052809291908181526020016000905b8282101561032f5783829060005260206000200180546102a2906107c0565b80601f01602080910402602001604051908101604052809291908181526020018280546102ce906107c0565b801561031b5780601f106102f05761010080835404028352916020019161031b565b820191906000526020600020905b8154815290600101906020018083116102fe57829003601f168201915b505050505081526020019060010190610283565b505050509050919050565b6000339050600160008273ffffffffffffffffffffffffffffffffffffffff1673ffffffffffffffffffffffffffffffffffffffff168152602001908152602001600020829080600181540180825580915050600190039060005260206000200160009091909190915090805190602001906103b79291906103bc565b505050565b8280546103c8906107c0565b90600052602060002090601f0160209004810192826103ea5760008555610431565b82601f1061040357805160ff1916838001178555610431565b82800160010185558215610431579182015b82811115610430578251825591602001919060010190610415565b5b50905061043e9190610442565b5090565b5b8082111561045b576000816000905550600101610443565b5090565b600061047261046d846106b6565b610685565b90508281526020810184848401111561048a57600080fd5b61049584828561077e565b509392505050565b6000813590506104ac81610861565b92915050565b600082601f8301126104c357600080fd5b81356104d384826020860161045f565b91505092915050565b6000602082840312156104ee57600080fd5b60006104fc8482850161049d565b91505092915050565b60006020828403121561051757600080fd5b600082013567ffffffffffffffff81111561053157600080fd5b61053d848285016104b2565b91505092915050565b600061055283836105cf565b905092915050565b6000610565826106f6565b61056f8185610719565b935083602082028501610581856106e6565b8060005b858110156105bd578484038952815161059e8582610546565b94506105a98361070c565b925060208a01995050600181019050610585565b50829750879550505050505092915050565b60006105da82610701565b6105e4818561072a565b93506105f481856020860161078d565b6105fd81610850565b840191505092915050565b600061061382610701565b61061d818561073b565b935061062d81856020860161078d565b61063681610850565b840191505092915050565b6000602082019050818103600083015261065b818461055a565b905092915050565b6000602082019050818103600083015261067d8184610608565b905092915050565b6000604051905081810181811067ffffffffffffffff821117156106ac576106ab610821565b5b8060405250919050565b600067ffffffffffffffff8211156106d1576106d0610821565b5b601f19601f8301169050602081019050919050565b6000819050602082019050919050565b600081519050919050565b600081519050919050565b6000602082019050919050565b600082825260208201905092915050565b600082825260208201905092915050565b600082825260208201905092915050565b60006107578261075e565b9050919050565b600073ffffffffffffffffffffffffffffffffffffffff82169050919050565b82818337600083830152505050565b60005b838110156107ab578082015181840152602081019050610790565b838111156107ba576000848401525b50505050565b600060028204905060018216806107d857607f821691505b602082108114156107ec576107eb6107f2565b5b50919050565b7f4e487b7100000000000000000000000000000000000000000000000000000000600052602260045260246000fd5b7f4e487b7100000000000000000000000000000000000000000000000000000000600052604160045260246000fd5b6000601f19601f8301169050919050565b61086a8161074c565b811461087557600080fd5b5056fea26469706673582212208851dc08c4fa4c5ad494ffb48209ccd987bc010cae6fb7d47116eaa29935caf264736f6c63430008000033",
  "immutableReferences": {},
  "source": "// SPDX-License-Identifier: MIT\n\npragma solidity ^0.8.0;\n\ncontract Locker {\n\tmapping (address => string) private _values;\n\n\tmapping(address => string[]) private _records;\n\n\t// string value\n\tfunction store(string memory value) public payable {\n\t\taddress client = msg.sender;\n\t\t_values[client] = value;\n\t}\n\n\tfunction retrieve(address client) public view returns (string memory) {\n\t\treturn _values[client];\n\t}\n\n\t// array of strings\n\tfunction register(string memory value) public payable {\n\t    address client = msg.sender;\n\n    \t_records[client].push(value);\n\t}\n\n\tfunction fetch(address client) public view returns (string[] memory) {\n\t\treturn _records[client];\n\t}\n\n}",
  "sourcePath": "/home/frederic/development/p2pmoney-dev/var/lib/git/repos/solidity/ethereum_erc721_dapp/contracts/deed/Locker.sol",
  "compiler": {
    "name": "solc",
    "version": "0.8.0+commit.c7dfd78e.Emscripten.clang"
  },
  "schemaVersion": "3.3.4",
  "updatedAt": "2021-04-01T16:49:06.914Z",
  "devdoc": {
    "kind": "dev",
    "methods": {},
    "version": 1
  },
  "userdoc": {
    "kind": "user",
    "methods": {},
    "version": 1
  }
}