{
  "_format": "hh-sol-artifact-1",
  "contractName": "Watch",
  "sourceName": "contracts/Watch.sol",
  "abi": [
    {
      "inputs": [],
      "stateMutability": "nonpayable",
      "type": "constructor"
    },
    {
      "anonymous": false,
      "inputs": [
        {
          "indexed": true,
          "internalType": "address",
          "name": "owner",
          "type": "address"
        },
        {
          "indexed": true,
          "internalType": "address",
          "name": "approved",
          "type": "address"
        },
        {
          "indexed": true,
          "internalType": "uint256",
          "name": "tokenId",
          "type": "uint256"
        }
      ],
      "name": "Approval",
      "type": "event"
    },
    {
      "anonymous": false,
      "inputs": [
        {
          "indexed": true,
          "internalType": "address",
          "name": "owner",
          "type": "address"
        },
        {
          "indexed": true,
          "internalType": "address",
          "name": "operator",
          "type": "address"
        },
        {
          "indexed": false,
          "internalType": "bool",
          "name": "approved",
          "type": "bool"
        }
      ],
      "name": "ApprovalForAll",
      "type": "event"
    },
    {
      "anonymous": false,
      "inputs": [
        {
          "indexed": true,
          "internalType": "address",
          "name": "previousOwner",
          "type": "address"
        },
        {
          "indexed": true,
          "internalType": "address",
          "name": "newOwner",
          "type": "address"
        }
      ],
      "name": "OwnershipTransferred",
      "type": "event"
    },
    {
      "anonymous": false,
      "inputs": [
        {
          "indexed": true,
          "internalType": "address",
          "name": "from",
          "type": "address"
        },
        {
          "indexed": true,
          "internalType": "address",
          "name": "to",
          "type": "address"
        },
        {
          "indexed": true,
          "internalType": "uint256",
          "name": "tokenId",
          "type": "uint256"
        }
      ],
      "name": "Transfer",
      "type": "event"
    },
    {
      "inputs": [
        {
          "internalType": "address",
          "name": "to",
          "type": "address"
        },
        {
          "internalType": "uint256",
          "name": "tokenId",
          "type": "uint256"
        }
      ],
      "name": "approve",
      "outputs": [],
      "stateMutability": "nonpayable",
      "type": "function"
    },
    {
      "inputs": [
        {
          "internalType": "address",
          "name": "owner",
          "type": "address"
        }
      ],
      "name": "balanceOf",
      "outputs": [
        {
          "internalType": "uint256",
          "name": "",
          "type": "uint256"
        }
      ],
      "stateMutability": "view",
      "type": "function"
    },
    {
      "inputs": [
        {
          "internalType": "address",
          "name": "recipient",
          "type": "address"
        }
      ],
      "name": "collectReward",
      "outputs": [],
      "stateMutability": "nonpayable",
      "type": "function"
    },
    {
      "inputs": [],
      "name": "decimals",
      "outputs": [
        {
          "internalType": "uint8",
          "name": "",
          "type": "uint8"
        }
      ],
      "stateMutability": "view",
      "type": "function"
    },
    {
      "inputs": [
        {
          "internalType": "uint256",
          "name": "tokenId",
          "type": "uint256"
        }
      ],
      "name": "getApproved",
      "outputs": [
        {
          "internalType": "address",
          "name": "",
          "type": "address"
        }
      ],
      "stateMutability": "view",
      "type": "function"
    },
    {
      "inputs": [
        {
          "internalType": "address",
          "name": "recipient",
          "type": "address"
        }
      ],
      "name": "getWatchData",
      "outputs": [
        {
          "components": [
            {
              "internalType": "uint256",
              "name": "tokenId",
              "type": "uint256"
            },
            {
              "internalType": "string",
              "name": "name",
              "type": "string"
            },
            {
              "internalType": "string",
              "name": "image",
              "type": "string"
            }
          ],
          "internalType": "struct Watch.TokenMetaData",
          "name": "",
          "type": "tuple"
        }
      ],
      "stateMutability": "view",
      "type": "function"
    },
    {
      "inputs": [
        {
          "internalType": "address",
          "name": "owner",
          "type": "address"
        },
        {
          "internalType": "address",
          "name": "operator",
          "type": "address"
        }
      ],
      "name": "isApprovedForAll",
      "outputs": [
        {
          "internalType": "bool",
          "name": "",
          "type": "bool"
        }
      ],
      "stateMutability": "view",
      "type": "function"
    },
    {
      "inputs": [
        {
          "internalType": "address",
          "name": "recipient",
          "type": "address"
        }
      ],
      "name": "mintWatch",
      "outputs": [],
      "stateMutability": "nonpayable",
      "type": "function"
    },
    {
      "inputs": [],
      "name": "name",
      "outputs": [
        {
          "internalType": "string",
          "name": "",
          "type": "string"
        }
      ],
      "stateMutability": "view",
      "type": "function"
    },
    {
      "inputs": [],
      "name": "owner",
      "outputs": [
        {
          "internalType": "address",
          "name": "",
          "type": "address"
        }
      ],
      "stateMutability": "view",
      "type": "function"
    },
    {
      "inputs": [
        {
          "internalType": "uint256",
          "name": "tokenId",
          "type": "uint256"
        }
      ],
      "name": "ownerOf",
      "outputs": [
        {
          "internalType": "address",
          "name": "",
          "type": "address"
        }
      ],
      "stateMutability": "view",
      "type": "function"
    },
    {
      "inputs": [
        {
          "internalType": "address",
          "name": "",
          "type": "address"
        }
      ],
      "name": "ownershipRecord",
      "outputs": [
        {
          "internalType": "uint256",
          "name": "tokenId",
          "type": "uint256"
        },
        {
          "internalType": "string",
          "name": "name",
          "type": "string"
        },
        {
          "internalType": "string",
          "name": "image",
          "type": "string"
        }
      ],
      "stateMutability": "view",
      "type": "function"
    },
    {
      "inputs": [],
      "name": "renounceOwnership",
      "outputs": [],
      "stateMutability": "nonpayable",
      "type": "function"
    },
    {
      "inputs": [],
      "name": "reward",
      "outputs": [
        {
          "internalType": "uint256",
          "name": "",
          "type": "uint256"
        }
      ],
      "stateMutability": "view",
      "type": "function"
    },
    {
      "inputs": [],
      "name": "run3TAddress",
      "outputs": [
        {
          "internalType": "address",
          "name": "",
          "type": "address"
        }
      ],
      "stateMutability": "view",
      "type": "function"
    },
    {
      "inputs": [
        {
          "internalType": "address",
          "name": "from",
          "type": "address"
        },
        {
          "internalType": "address",
          "name": "to",
          "type": "address"
        },
        {
          "internalType": "uint256",
          "name": "tokenId",
          "type": "uint256"
        }
      ],
      "name": "safeTransferFrom",
      "outputs": [],
      "stateMutability": "nonpayable",
      "type": "function"
    },
    {
      "inputs": [
        {
          "internalType": "address",
          "name": "from",
          "type": "address"
        },
        {
          "internalType": "address",
          "name": "to",
          "type": "address"
        },
        {
          "internalType": "uint256",
          "name": "tokenId",
          "type": "uint256"
        },
        {
          "internalType": "bytes",
          "name": "data",
          "type": "bytes"
        }
      ],
      "name": "safeTransferFrom",
      "outputs": [],
      "stateMutability": "nonpayable",
      "type": "function"
    },
    {
      "inputs": [
        {
          "internalType": "address",
          "name": "operator",
          "type": "address"
        },
        {
          "internalType": "bool",
          "name": "approved",
          "type": "bool"
        }
      ],
      "name": "setApprovalForAll",
      "outputs": [],
      "stateMutability": "nonpayable",
      "type": "function"
    },
    {
      "inputs": [
        {
          "internalType": "bytes4",
          "name": "interfaceId",
          "type": "bytes4"
        }
      ],
      "name": "supportsInterface",
      "outputs": [
        {
          "internalType": "bool",
          "name": "",
          "type": "bool"
        }
      ],
      "stateMutability": "view",
      "type": "function"
    },
    {
      "inputs": [],
      "name": "symbol",
      "outputs": [
        {
          "internalType": "string",
          "name": "",
          "type": "string"
        }
      ],
      "stateMutability": "view",
      "type": "function"
    },
    {
      "inputs": [
        {
          "internalType": "uint256",
          "name": "tokenId",
          "type": "uint256"
        }
      ],
      "name": "tokenURI",
      "outputs": [
        {
          "internalType": "string",
          "name": "",
          "type": "string"
        }
      ],
      "stateMutability": "view",
      "type": "function"
    },
    {
      "inputs": [
        {
          "internalType": "address",
          "name": "from",
          "type": "address"
        },
        {
          "internalType": "address",
          "name": "to",
          "type": "address"
        },
        {
          "internalType": "uint256",
          "name": "tokenId",
          "type": "uint256"
        }
      ],
      "name": "transferFrom",
      "outputs": [],
      "stateMutability": "nonpayable",
      "type": "function"
    },
    {
      "inputs": [
        {
          "internalType": "address",
          "name": "newOwner",
          "type": "address"
        }
      ],
      "name": "transferOwnership",
      "outputs": [],
      "stateMutability": "nonpayable",
      "type": "function"
    }
  ],
  "bytecode": "0x608060405260016007553480156200001657600080fd5b506040518060400160405280600b81526020017f57617463682052554e33540000000000000000000000000000000000000000008152506040518060400160405280600481526020017f5752335400000000000000000000000000000000000000000000000000000000815250816000908162000094919062000b2e565b508060019081620000a6919062000b2e565b505050620000c9620000bd620000e060201b60201c565b620000e860201b60201c565b620000da33620001ae60201b60201c565b620010a3565b600033905090565b6000600660009054906101000a900473ffffffffffffffffffffffffffffffffffffffff16905081600660006101000a81548173ffffffffffffffffffffffffffffffffffffffff021916908373ffffffffffffffffffffffffffffffffffffffff1602179055508173ffffffffffffffffffffffffffffffffffffffff168173ffffffffffffffffffffffffffffffffffffffff167f8be0079c531659141344cd1fd0a4f28419497f9722a3daafe3b4186f6b6457e060405160405180910390a35050565b620001be6200032a60201b60201c565b620001d281600754620003bb60201b60201c565b600754600860008373ffffffffffffffffffffffffffffffffffffffff1673ffffffffffffffffffffffffffffffffffffffff168152602001908152602001600020600001819055506040518060400160405280600f81526020017f4e465420416c7068612057617463680000000000000000000000000000000000815250600860008373ffffffffffffffffffffffffffffffffffffffff1673ffffffffffffffffffffffffffffffffffffffff1681526020019081526020016000206001019081620002a1919062000b2e565b506040518060800160405280605081526020016200479460509139600860008373ffffffffffffffffffffffffffffffffffffffff1673ffffffffffffffffffffffffffffffffffffffff16815260200190815260200160002060020190816200030c919062000b2e565b5060076000815480929190620003229062000c44565b919050555050565b6200033a620000e060201b60201c565b73ffffffffffffffffffffffffffffffffffffffff1662000360620003e160201b60201c565b73ffffffffffffffffffffffffffffffffffffffff1614620003b9576040517f08c379a0000000000000000000000000000000000000000000000000000000008152600401620003b09062000cf2565b60405180910390fd5b565b620003dd8282604051806020016040528060008152506200040b60201b60201c565b5050565b6000600660009054906101000a900473ffffffffffffffffffffffffffffffffffffffff16905090565b6200041d83836200047960201b60201c565b6200043260008484846200067260201b60201c565b62000474576040517f08c379a00000000000000000000000000000000000000000000000000000000081526004016200046b9062000d8a565b60405180910390fd5b505050565b600073ffffffffffffffffffffffffffffffffffffffff168273ffffffffffffffffffffffffffffffffffffffff1603620004eb576040517f08c379a0000000000000000000000000000000000000000000000000000000008152600401620004e29062000dfc565b60405180910390fd5b620004fc816200081b60201b60201c565b156200053f576040517f08c379a0000000000000000000000000000000000000000000000000000000008152600401620005369062000e6e565b60405180910390fd5b62000553600083836200088760201b60201c565b6001600360008473ffffffffffffffffffffffffffffffffffffffff1673ffffffffffffffffffffffffffffffffffffffff1681526020019081526020016000206000828254620005a5919062000e90565b92505081905550816002600083815260200190815260200160002060006101000a81548173ffffffffffffffffffffffffffffffffffffffff021916908373ffffffffffffffffffffffffffffffffffffffff160217905550808273ffffffffffffffffffffffffffffffffffffffff16600073ffffffffffffffffffffffffffffffffffffffff167fddf252ad1be2c89b69c2b068fc378daa952ba7f163c4a11628f55a4df523b3ef60405160405180910390a46200066e600083836200088c60201b60201c565b5050565b6000620006a08473ffffffffffffffffffffffffffffffffffffffff166200089160201b6200124c1760201c565b156200080e578373ffffffffffffffffffffffffffffffffffffffff1663150b7a02620006d2620000e060201b60201c565b8786866040518563ffffffff1660e01b8152600401620006f6949392919062000fbb565b6020604051808303816000875af19250505080156200073557506040513d601f19601f8201168201806040525081019062000732919062001071565b60015b620007bd573d806000811462000768576040519150601f19603f3d011682016040523d82523d6000602084013e6200076d565b606091505b506000815103620007b5576040517f08c379a0000000000000000000000000000000000000000000000000000000008152600401620007ac9062000d8a565b60405180910390fd5b805181602001fd5b63150b7a0260e01b7bffffffffffffffffffffffffffffffffffffffffffffffffffffffff1916817bffffffffffffffffffffffffffffffffffffffffffffffffffffffff19161491505062000813565b600190505b949350505050565b60008073ffffffffffffffffffffffffffffffffffffffff166002600084815260200190815260200160002060009054906101000a900473ffffffffffffffffffffffffffffffffffffffff1673ffffffffffffffffffffffffffffffffffffffff1614159050919050565b505050565b505050565b6000808273ffffffffffffffffffffffffffffffffffffffff163b119050919050565b600081519050919050565b7f4e487b7100000000000000000000000000000000000000000000000000000000600052604160045260246000fd5b7f4e487b7100000000000000000000000000000000000000000000000000000000600052602260045260246000fd5b600060028204905060018216806200093657607f821691505b6020821081036200094c576200094b620008ee565b5b50919050565b60008190508160005260206000209050919050565b60006020601f8301049050919050565b600082821b905092915050565b600060088302620009b67fffffffffffffffffffffffffffffffffffffffffffffffffffffffffffffffff8262000977565b620009c2868362000977565b95508019841693508086168417925050509392505050565b6000819050919050565b6000819050919050565b600062000a0f62000a0962000a0384620009da565b620009e4565b620009da565b9050919050565b6000819050919050565b62000a2b83620009ee565b62000a4362000a3a8262000a16565b84845462000984565b825550505050565b600090565b62000a5a62000a4b565b62000a6781848462000a20565b505050565b5b8181101562000a8f5762000a8360008262000a50565b60018101905062000a6d565b5050565b601f82111562000ade5762000aa88162000952565b62000ab38462000967565b8101602085101562000ac3578190505b62000adb62000ad28562000967565b83018262000a6c565b50505b505050565b600082821c905092915050565b600062000b036000198460080262000ae3565b1980831691505092915050565b600062000b1e838362000af0565b9150826002028217905092915050565b62000b3982620008b4565b67ffffffffffffffff81111562000b555762000b54620008bf565b5b62000b6182546200091d565b62000b6e82828562000a93565b600060209050601f83116001811462000ba6576000841562000b91578287015190505b62000b9d858262000b10565b86555062000c0d565b601f19841662000bb68662000952565b60005b8281101562000be05784890151825560018201915060208501945060208101905062000bb9565b8683101562000c00578489015162000bfc601f89168262000af0565b8355505b6001600288020188555050505b505050505050565b7f4e487b7100000000000000000000000000000000000000000000000000000000600052601160045260246000fd5b600062000c5182620009da565b91507fffffffffffffffffffffffffffffffffffffffffffffffffffffffffffffffff820362000c865762000c8562000c15565b5b600182019050919050565b600082825260208201905092915050565b7f4f776e61626c653a2063616c6c6572206973206e6f7420746865206f776e6572600082015250565b600062000cda60208362000c91565b915062000ce78262000ca2565b602082019050919050565b6000602082019050818103600083015262000d0d8162000ccb565b9050919050565b7f4552433732313a207472616e7366657220746f206e6f6e20455243373231526560008201527f63656976657220696d706c656d656e7465720000000000000000000000000000602082015250565b600062000d7260328362000c91565b915062000d7f8262000d14565b604082019050919050565b6000602082019050818103600083015262000da58162000d63565b9050919050565b7f4552433732313a206d696e7420746f20746865207a65726f2061646472657373600082015250565b600062000de460208362000c91565b915062000df18262000dac565b602082019050919050565b6000602082019050818103600083015262000e178162000dd5565b9050919050565b7f4552433732313a20746f6b656e20616c7265616479206d696e74656400000000600082015250565b600062000e56601c8362000c91565b915062000e638262000e1e565b602082019050919050565b6000602082019050818103600083015262000e898162000e47565b9050919050565b600062000e9d82620009da565b915062000eaa83620009da565b925082820190508082111562000ec55762000ec462000c15565b5b92915050565b600073ffffffffffffffffffffffffffffffffffffffff82169050919050565b600062000ef88262000ecb565b9050919050565b62000f0a8162000eeb565b82525050565b62000f1b81620009da565b82525050565b600081519050919050565b600082825260208201905092915050565b60005b8381101562000f5d57808201518184015260208101905062000f40565b60008484015250505050565b6000601f19601f8301169050919050565b600062000f878262000f21565b62000f93818562000f2c565b935062000fa581856020860162000f3d565b62000fb08162000f69565b840191505092915050565b600060808201905062000fd2600083018762000eff565b62000fe1602083018662000eff565b62000ff0604083018562000f10565b818103606083015262001004818462000f7a565b905095945050505050565b600080fd5b60007fffffffff0000000000000000000000000000000000000000000000000000000082169050919050565b6200104b8162001014565b81146200105757600080fd5b50565b6000815190506200106b8162001040565b92915050565b6000602082840312156200108a57620010896200100f565b5b60006200109a848285016200105a565b91505092915050565b6136e180620010b36000396000f3fe608060405234801561001057600080fd5b506004361061014d5760003560e01c806370a08231116100c3578063978136291161007c57806397813629146103a0578063a22cb465146103be578063b88d4fde146103da578063c87b56dd146103f6578063e985e9c514610426578063f2fde38b146104565761014d565b806370a08231146102dc578063715018a61461030c57806382c97b8d1461031657806384667d17146103325780638da5cb5b1461036457806395d89b41146103825761014d565b8063228cb73311610115578063228cb7331461021c57806323b872dd1461023a578063313ce5671461025657806342842e0e146102745780634a3e1279146102905780636352211e146102ac5761014d565b806301ffc9a71461015257806306fdde0314610182578063081812fc146101a0578063095ea7b3146101d057806316bf3cdd146101ec575b600080fd5b61016c6004803603810190610167919061203f565b610472565b6040516101799190612087565b60405180910390f35b61018a610554565b6040516101979190612132565b60405180910390f35b6101ba60048036038101906101b5919061218a565b6105e6565b6040516101c791906121f8565b60405180910390f35b6101ea60048036038101906101e5919061223f565b61062c565b005b6102066004803603810190610201919061227f565b610743565b604051610213919061235c565b60405180910390f35b6102246108ca565b604051610231919061238d565b60405180910390f35b610254600480360381019061024f91906123a8565b6108ea565b005b61025e61094a565b60405161026b9190612417565b60405180910390f35b61028e600480360381019061028991906123a8565b61094f565b005b6102aa60048036038101906102a5919061227f565b61096f565b005b6102c660048036038101906102c1919061218a565b610ad4565b6040516102d391906121f8565b60405180910390f35b6102f660048036038101906102f1919061227f565b610b85565b604051610303919061238d565b60405180910390f35b610314610c3c565b005b610330600480360381019061032b919061227f565b610c50565b005b61034c6004803603810190610347919061227f565b610e47565b60405161035b93929190612432565b60405180910390f35b61036c610f81565b60405161037991906121f8565b60405180910390f35b61038a610fab565b6040516103979190612132565b60405180910390f35b6103a861103d565b6040516103b591906121f8565b60405180910390f35b6103d860048036038101906103d391906124a3565b611055565b005b6103f460048036038101906103ef9190612618565b61106b565b005b610410600480360381019061040b919061218a565b6110cd565b60405161041d9190612132565b60405180910390f35b610440600480360381019061043b919061269b565b611135565b60405161044d9190612087565b60405180910390f35b610470600480360381019061046b919061227f565b6111c9565b005b60007f80ac58cd000000000000000000000000000000000000000000000000000000007bffffffffffffffffffffffffffffffffffffffffffffffffffffffff1916827bffffffffffffffffffffffffffffffffffffffffffffffffffffffff1916148061053d57507f5b5e139f000000000000000000000000000000000000000000000000000000007bffffffffffffffffffffffffffffffffffffffffffffffffffffffff1916827bffffffffffffffffffffffffffffffffffffffffffffffffffffffff1916145b8061054d575061054c8261126f565b5b9050919050565b6060600080546105639061270a565b80601f016020809104026020016040519081016040528092919081815260200182805461058f9061270a565b80156105dc5780601f106105b1576101008083540402835291602001916105dc565b820191906000526020600020905b8154815290600101906020018083116105bf57829003601f168201915b5050505050905090565b60006105f1826112d9565b6004600083815260200190815260200160002060009054906101000a900473ffffffffffffffffffffffffffffffffffffffff169050919050565b600061063782610ad4565b90508073ffffffffffffffffffffffffffffffffffffffff168373ffffffffffffffffffffffffffffffffffffffff16036106a7576040517f08c379a000000000000000000000000000000000000000000000000000000000815260040161069e906127ad565b60405180910390fd5b8073ffffffffffffffffffffffffffffffffffffffff166106c6611324565b73ffffffffffffffffffffffffffffffffffffffff1614806106f557506106f4816106ef611324565b611135565b5b610734576040517f08c379a000000000000000000000000000000000000000000000000000000000815260040161072b9061283f565b60405180910390fd5b61073e838361132c565b505050565b61074b611fb2565b600860008373ffffffffffffffffffffffffffffffffffffffff1673ffffffffffffffffffffffffffffffffffffffff168152602001908152602001600020604051806060016040529081600082015481526020016001820180546107af9061270a565b80601f01602080910402602001604051908101604052809291908181526020018280546107db9061270a565b80156108285780601f106107fd57610100808354040283529160200191610828565b820191906000526020600020905b81548152906001019060200180831161080b57829003601f168201915b505050505081526020016002820180546108419061270a565b80601f016020809104026020016040519081016040528092919081815260200182805461086d9061270a565b80156108ba5780601f1061088f576101008083540402835291602001916108ba565b820191906000526020600020905b81548152906001019060200180831161089d57829003601f168201915b5050505050815250509050919050565b601260ff16600a6108db91906129c1565b600a6108e79190612a0c565b81565b6108fb6108f5611324565b826113e5565b61093a576040517f08c379a000000000000000000000000000000000000000000000000000000000815260040161093190612ac0565b60405180910390fd5b61094583838361147a565b505050565b601281565b61096a8383836040518060200160405280600081525061106b565b505050565b6109776116e0565b6109838160075461175e565b600754600860008373ffffffffffffffffffffffffffffffffffffffff1673ffffffffffffffffffffffffffffffffffffffff168152602001908152602001600020600001819055506040518060400160405280600f81526020017f4e465420416c7068612057617463680000000000000000000000000000000000815250600860008373ffffffffffffffffffffffffffffffffffffffff1673ffffffffffffffffffffffffffffffffffffffff1681526020019081526020016000206001019081610a509190612c8c565b5060405180608001604052806050815260200161365c60509139600860008373ffffffffffffffffffffffffffffffffffffffff1673ffffffffffffffffffffffffffffffffffffffff1681526020019081526020016000206002019081610ab89190612c8c565b5060076000815480929190610acc90612d5e565b919050555050565b6000806002600084815260200190815260200160002060009054906101000a900473ffffffffffffffffffffffffffffffffffffffff169050600073ffffffffffffffffffffffffffffffffffffffff168173ffffffffffffffffffffffffffffffffffffffff1603610b7c576040517f08c379a0000000000000000000000000000000000000000000000000000000008152600401610b7390612df2565b60405180910390fd5b80915050919050565b60008073ffffffffffffffffffffffffffffffffffffffff168273ffffffffffffffffffffffffffffffffffffffff1603610bf5576040517f08c379a0000000000000000000000000000000000000000000000000000000008152600401610bec90612e84565b60405180910390fd5b600360008373ffffffffffffffffffffffffffffffffffffffff1673ffffffffffffffffffffffffffffffffffffffff168152602001908152602001600020549050919050565b610c446116e0565b610c4e600061177c565b565b806000600860008373ffffffffffffffffffffffffffffffffffffffff1673ffffffffffffffffffffffffffffffffffffffff1681526020019081526020016000206000015403610cd6576040517f08c379a0000000000000000000000000000000000000000000000000000000008152600401610ccd90612ef0565b60405180910390fd5b600073570b9f03d8bfb024f0998eb9e8e1b42a97ca312873ffffffffffffffffffffffffffffffffffffffff1683601260ff16600a610d1591906129c1565b600a610d219190612a0c565b604051602401610d32929190612f10565b6040516020818303038152906040527ff8273dcd000000000000000000000000000000000000000000000000000000007bffffffffffffffffffffffffffffffffffffffffffffffffffffffff19166020820180517bffffffffffffffffffffffffffffffffffffffffffffffffffffffff8381831617835250505050604051610dbc9190612f80565b6000604051808303816000865af19150503d8060008114610df9576040519150601f19603f3d011682016040523d82523d6000602084013e610dfe565b606091505b5050905080610e42576040517f08c379a0000000000000000000000000000000000000000000000000000000008152600401610e3990612fe3565b60405180910390fd5b505050565b6008602052806000526040600020600091509050806000015490806001018054610e709061270a565b80601f0160208091040260200160405190810160405280929190818152602001828054610e9c9061270a565b8015610ee95780601f10610ebe57610100808354040283529160200191610ee9565b820191906000526020600020905b815481529060010190602001808311610ecc57829003601f168201915b505050505090806002018054610efe9061270a565b80601f0160208091040260200160405190810160405280929190818152602001828054610f2a9061270a565b8015610f775780601f10610f4c57610100808354040283529160200191610f77565b820191906000526020600020905b815481529060010190602001808311610f5a57829003601f168201915b5050505050905083565b6000600660009054906101000a900473ffffffffffffffffffffffffffffffffffffffff16905090565b606060018054610fba9061270a565b80601f0160208091040260200160405190810160405280929190818152602001828054610fe69061270a565b80156110335780601f1061100857610100808354040283529160200191611033565b820191906000526020600020905b81548152906001019060200180831161101657829003601f168201915b5050505050905090565b73570b9f03d8bfb024f0998eb9e8e1b42a97ca312881565b611067611060611324565b8383611842565b5050565b61107c611076611324565b836113e5565b6110bb576040517f08c379a00000000000000000000000000000000000000000000000000000000081526004016110b290612ac0565b60405180910390fd5b6110c7848484846119ae565b50505050565b60606110d8826112d9565b60006110e2611a0a565b90506000815111611102576040518060200160405280600081525061112d565b8061110c84611a21565b60405160200161111d92919061303f565b6040516020818303038152906040525b915050919050565b6000600560008473ffffffffffffffffffffffffffffffffffffffff1673ffffffffffffffffffffffffffffffffffffffff16815260200190815260200160002060008373ffffffffffffffffffffffffffffffffffffffff1673ffffffffffffffffffffffffffffffffffffffff16815260200190815260200160002060009054906101000a900460ff16905092915050565b6111d16116e0565b600073ffffffffffffffffffffffffffffffffffffffff168173ffffffffffffffffffffffffffffffffffffffff1603611240576040517f08c379a0000000000000000000000000000000000000000000000000000000008152600401611237906130d5565b60405180910390fd5b6112498161177c565b50565b6000808273ffffffffffffffffffffffffffffffffffffffff163b119050919050565b60007f01ffc9a7000000000000000000000000000000000000000000000000000000007bffffffffffffffffffffffffffffffffffffffffffffffffffffffff1916827bffffffffffffffffffffffffffffffffffffffffffffffffffffffff1916149050919050565b6112e281611b81565b611321576040517f08c379a000000000000000000000000000000000000000000000000000000000815260040161131890612df2565b60405180910390fd5b50565b600033905090565b816004600083815260200190815260200160002060006101000a81548173ffffffffffffffffffffffffffffffffffffffff021916908373ffffffffffffffffffffffffffffffffffffffff160217905550808273ffffffffffffffffffffffffffffffffffffffff1661139f83610ad4565b73ffffffffffffffffffffffffffffffffffffffff167f8c5be1e5ebec7d5bd14f71427d1e84f3dd0314c0f7b2291e5b200ac8c7c3b92560405160405180910390a45050565b6000806113f183610ad4565b90508073ffffffffffffffffffffffffffffffffffffffff168473ffffffffffffffffffffffffffffffffffffffff16148061143357506114328185611135565b5b8061147157508373ffffffffffffffffffffffffffffffffffffffff16611459846105e6565b73ffffffffffffffffffffffffffffffffffffffff16145b91505092915050565b8273ffffffffffffffffffffffffffffffffffffffff1661149a82610ad4565b73ffffffffffffffffffffffffffffffffffffffff16146114f0576040517f08c379a00000000000000000000000000000000000000000000000000000000081526004016114e790613167565b60405180910390fd5b600073ffffffffffffffffffffffffffffffffffffffff168273ffffffffffffffffffffffffffffffffffffffff160361155f576040517f08c379a0000000000000000000000000000000000000000000000000000000008152600401611556906131f9565b60405180910390fd5b61156a838383611bed565b61157560008261132c565b6001600360008573ffffffffffffffffffffffffffffffffffffffff1673ffffffffffffffffffffffffffffffffffffffff16815260200190815260200160002060008282546115c59190613219565b925050819055506001600360008473ffffffffffffffffffffffffffffffffffffffff1673ffffffffffffffffffffffffffffffffffffffff168152602001908152602001600020600082825461161c919061324d565b92505081905550816002600083815260200190815260200160002060006101000a81548173ffffffffffffffffffffffffffffffffffffffff021916908373ffffffffffffffffffffffffffffffffffffffff160217905550808273ffffffffffffffffffffffffffffffffffffffff168473ffffffffffffffffffffffffffffffffffffffff167fddf252ad1be2c89b69c2b068fc378daa952ba7f163c4a11628f55a4df523b3ef60405160405180910390a46116db838383611bf2565b505050565b6116e8611324565b73ffffffffffffffffffffffffffffffffffffffff16611706610f81565b73ffffffffffffffffffffffffffffffffffffffff161461175c576040517f08c379a0000000000000000000000000000000000000000000000000000000008152600401611753906132cd565b60405180910390fd5b565b611778828260405180602001604052806000815250611bf7565b5050565b6000600660009054906101000a900473ffffffffffffffffffffffffffffffffffffffff16905081600660006101000a81548173ffffffffffffffffffffffffffffffffffffffff021916908373ffffffffffffffffffffffffffffffffffffffff1602179055508173ffffffffffffffffffffffffffffffffffffffff168173ffffffffffffffffffffffffffffffffffffffff167f8be0079c531659141344cd1fd0a4f28419497f9722a3daafe3b4186f6b6457e060405160405180910390a35050565b8173ffffffffffffffffffffffffffffffffffffffff168373ffffffffffffffffffffffffffffffffffffffff16036118b0576040517f08c379a00000000000000000000000000000000000000000000000000000000081526004016118a790613339565b60405180910390fd5b80600560008573ffffffffffffffffffffffffffffffffffffffff1673ffffffffffffffffffffffffffffffffffffffff16815260200190815260200160002060008473ffffffffffffffffffffffffffffffffffffffff1673ffffffffffffffffffffffffffffffffffffffff16815260200190815260200160002060006101000a81548160ff0219169083151502179055508173ffffffffffffffffffffffffffffffffffffffff168373ffffffffffffffffffffffffffffffffffffffff167f17307eab39ab6107e8899845ad3d59bd9653f200f220920489ca2b5937696c31836040516119a19190612087565b60405180910390a3505050565b6119b984848461147a565b6119c584848484611c52565b611a04576040517f08c379a00000000000000000000000000000000000000000000000000000000081526004016119fb906133cb565b60405180910390fd5b50505050565b606060405180602001604052806000815250905090565b606060008203611a68576040518060400160405280600181526020017f30000000000000000000000000000000000000000000000000000000000000008152509050611b7c565b600082905060005b60008214611a9a578080611a8390612d5e565b915050600a82611a93919061341a565b9150611a70565b60008167ffffffffffffffff811115611ab657611ab56124ed565b5b6040519080825280601f01601f191660200182016040528015611ae85781602001600182028036833780820191505090505b5090505b60008514611b7557600182611b019190613219565b9150600a85611b10919061344b565b6030611b1c919061324d565b60f81b818381518110611b3257611b3161347c565b5b60200101907effffffffffffffffffffffffffffffffffffffffffffffffffffffffffffff1916908160001a905350600a85611b6e919061341a565b9450611aec565b8093505050505b919050565b60008073ffffffffffffffffffffffffffffffffffffffff166002600084815260200190815260200160002060009054906101000a900473ffffffffffffffffffffffffffffffffffffffff1673ffffffffffffffffffffffffffffffffffffffff1614159050919050565b505050565b505050565b611c018383611dd9565b611c0e6000848484611c52565b611c4d576040517f08c379a0000000000000000000000000000000000000000000000000000000008152600401611c44906133cb565b60405180910390fd5b505050565b6000611c738473ffffffffffffffffffffffffffffffffffffffff1661124c565b15611dcc578373ffffffffffffffffffffffffffffffffffffffff1663150b7a02611c9c611324565b8786866040518563ffffffff1660e01b8152600401611cbe94939291906134f5565b6020604051808303816000875af1925050508015611cfa57506040513d601f19601f82011682018060405250810190611cf79190613556565b60015b611d7c573d8060008114611d2a576040519150601f19603f3d011682016040523d82523d6000602084013e611d2f565b606091505b506000815103611d74576040517f08c379a0000000000000000000000000000000000000000000000000000000008152600401611d6b906133cb565b60405180910390fd5b805181602001fd5b63150b7a0260e01b7bffffffffffffffffffffffffffffffffffffffffffffffffffffffff1916817bffffffffffffffffffffffffffffffffffffffffffffffffffffffff191614915050611dd1565b600190505b949350505050565b600073ffffffffffffffffffffffffffffffffffffffff168273ffffffffffffffffffffffffffffffffffffffff1603611e48576040517f08c379a0000000000000000000000000000000000000000000000000000000008152600401611e3f906135cf565b60405180910390fd5b611e5181611b81565b15611e91576040517f08c379a0000000000000000000000000000000000000000000000000000000008152600401611e889061363b565b60405180910390fd5b611e9d60008383611bed565b6001600360008473ffffffffffffffffffffffffffffffffffffffff1673ffffffffffffffffffffffffffffffffffffffff1681526020019081526020016000206000828254611eed919061324d565b92505081905550816002600083815260200190815260200160002060006101000a81548173ffffffffffffffffffffffffffffffffffffffff021916908373ffffffffffffffffffffffffffffffffffffffff160217905550808273ffffffffffffffffffffffffffffffffffffffff16600073ffffffffffffffffffffffffffffffffffffffff167fddf252ad1be2c89b69c2b068fc378daa952ba7f163c4a11628f55a4df523b3ef60405160405180910390a4611fae60008383611bf2565b5050565b60405180606001604052806000815260200160608152602001606081525090565b6000604051905090565b600080fd5b600080fd5b60007fffffffff0000000000000000000000000000000000000000000000000000000082169050919050565b61201c81611fe7565b811461202757600080fd5b50565b60008135905061203981612013565b92915050565b60006020828403121561205557612054611fdd565b5b60006120638482850161202a565b91505092915050565b60008115159050919050565b6120818161206c565b82525050565b600060208201905061209c6000830184612078565b92915050565b600081519050919050565b600082825260208201905092915050565b60005b838110156120dc5780820151818401526020810190506120c1565b60008484015250505050565b6000601f19601f8301169050919050565b6000612104826120a2565b61210e81856120ad565b935061211e8185602086016120be565b612127816120e8565b840191505092915050565b6000602082019050818103600083015261214c81846120f9565b905092915050565b6000819050919050565b61216781612154565b811461217257600080fd5b50565b6000813590506121848161215e565b92915050565b6000602082840312156121a05761219f611fdd565b5b60006121ae84828501612175565b91505092915050565b600073ffffffffffffffffffffffffffffffffffffffff82169050919050565b60006121e2826121b7565b9050919050565b6121f2816121d7565b82525050565b600060208201905061220d60008301846121e9565b92915050565b61221c816121d7565b811461222757600080fd5b50565b60008135905061223981612213565b92915050565b6000806040838503121561225657612255611fdd565b5b60006122648582860161222a565b925050602061227585828601612175565b9150509250929050565b60006020828403121561229557612294611fdd565b5b60006122a38482850161222a565b91505092915050565b6122b581612154565b82525050565b600082825260208201905092915050565b60006122d7826120a2565b6122e181856122bb565b93506122f18185602086016120be565b6122fa816120e8565b840191505092915050565b600060608301600083015161231d60008601826122ac565b506020830151848203602086015261233582826122cc565b9150506040830151848203604086015261234f82826122cc565b9150508091505092915050565b600060208201905081810360008301526123768184612305565b905092915050565b61238781612154565b82525050565b60006020820190506123a2600083018461237e565b92915050565b6000806000606084860312156123c1576123c0611fdd565b5b60006123cf8682870161222a565b93505060206123e08682870161222a565b92505060406123f186828701612175565b9150509250925092565b600060ff82169050919050565b612411816123fb565b82525050565b600060208201905061242c6000830184612408565b92915050565b6000606082019050612447600083018661237e565b818103602083015261245981856120f9565b9050818103604083015261246d81846120f9565b9050949350505050565b6124808161206c565b811461248b57600080fd5b50565b60008135905061249d81612477565b92915050565b600080604083850312156124ba576124b9611fdd565b5b60006124c88582860161222a565b92505060206124d98582860161248e565b9150509250929050565b600080fd5b600080fd5b7f4e487b7100000000000000000000000000000000000000000000000000000000600052604160045260246000fd5b612525826120e8565b810181811067ffffffffffffffff82111715612544576125436124ed565b5b80604052505050565b6000612557611fd3565b9050612563828261251c565b919050565b600067ffffffffffffffff821115612583576125826124ed565b5b61258c826120e8565b9050602081019050919050565b82818337600083830152505050565b60006125bb6125b684612568565b61254d565b9050828152602081018484840111156125d7576125d66124e8565b5b6125e2848285612599565b509392505050565b600082601f8301126125ff576125fe6124e3565b5b813561260f8482602086016125a8565b91505092915050565b6000806000806080858703121561263257612631611fdd565b5b60006126408782880161222a565b94505060206126518782880161222a565b935050604061266287828801612175565b925050606085013567ffffffffffffffff81111561268357612682611fe2565b5b61268f878288016125ea565b91505092959194509250565b600080604083850312156126b2576126b1611fdd565b5b60006126c08582860161222a565b92505060206126d18582860161222a565b9150509250929050565b7f4e487b7100000000000000000000000000000000000000000000000000000000600052602260045260246000fd5b6000600282049050600182168061272257607f821691505b602082108103612735576127346126db565b5b50919050565b7f4552433732313a20617070726f76616c20746f2063757272656e74206f776e6560008201527f7200000000000000000000000000000000000000000000000000000000000000602082015250565b60006127976021836120ad565b91506127a28261273b565b604082019050919050565b600060208201905081810360008301526127c68161278a565b9050919050565b7f4552433732313a20617070726f76652063616c6c6572206973206e6f7420746f60008201527f6b656e206f776e6572206e6f7220617070726f76656420666f7220616c6c0000602082015250565b6000612829603e836120ad565b9150612834826127cd565b604082019050919050565b600060208201905081810360008301526128588161281c565b9050919050565b7f4e487b7100000000000000000000000000000000000000000000000000000000600052601160045260246000fd5b60008160011c9050919050565b6000808291508390505b60018511156128e5578086048111156128c1576128c061285f565b5b60018516156128d05780820291505b80810290506128de8561288e565b94506128a5565b94509492505050565b6000826128fe57600190506129ba565b8161290c57600090506129ba565b8160018114612922576002811461292c5761295b565b60019150506129ba565b60ff84111561293e5761293d61285f565b5b8360020a9150848211156129555761295461285f565b5b506129ba565b5060208310610133831016604e8410600b84101617156129905782820a90508381111561298b5761298a61285f565b5b6129ba565b61299d848484600161289b565b925090508184048111156129b4576129b361285f565b5b81810290505b9392505050565b60006129cc82612154565b91506129d783612154565b9250612a047fffffffffffffffffffffffffffffffffffffffffffffffffffffffffffffffff84846128ee565b905092915050565b6000612a1782612154565b9150612a2283612154565b9250828202612a3081612154565b91508282048414831517612a4757612a4661285f565b5b5092915050565b7f4552433732313a2063616c6c6572206973206e6f7420746f6b656e206f776e6560008201527f72206e6f7220617070726f766564000000000000000000000000000000000000602082015250565b6000612aaa602e836120ad565b9150612ab582612a4e565b604082019050919050565b60006020820190508181036000830152612ad981612a9d565b9050919050565b60008190508160005260206000209050919050565b60006020601f8301049050919050565b600082821b905092915050565b600060088302612b427fffffffffffffffffffffffffffffffffffffffffffffffffffffffffffffffff82612b05565b612b4c8683612b05565b95508019841693508086168417925050509392505050565b6000819050919050565b6000612b89612b84612b7f84612154565b612b64565b612154565b9050919050565b6000819050919050565b612ba383612b6e565b612bb7612baf82612b90565b848454612b12565b825550505050565b600090565b612bcc612bbf565b612bd7818484612b9a565b505050565b5b81811015612bfb57612bf0600082612bc4565b600181019050612bdd565b5050565b601f821115612c4057612c1181612ae0565b612c1a84612af5565b81016020851015612c29578190505b612c3d612c3585612af5565b830182612bdc565b50505b505050565b600082821c905092915050565b6000612c6360001984600802612c45565b1980831691505092915050565b6000612c7c8383612c52565b9150826002028217905092915050565b612c95826120a2565b67ffffffffffffffff811115612cae57612cad6124ed565b5b612cb8825461270a565b612cc3828285612bff565b600060209050601f831160018114612cf65760008415612ce4578287015190505b612cee8582612c70565b865550612d56565b601f198416612d0486612ae0565b60005b82811015612d2c57848901518255600182019150602085019450602081019050612d07565b86831015612d495784890151612d45601f891682612c52565b8355505b6001600288020188555050505b505050505050565b6000612d6982612154565b91507fffffffffffffffffffffffffffffffffffffffffffffffffffffffffffffffff8203612d9b57612d9a61285f565b5b600182019050919050565b7f4552433732313a20696e76616c696420746f6b656e2049440000000000000000600082015250565b6000612ddc6018836120ad565b9150612de782612da6565b602082019050919050565b60006020820190508181036000830152612e0b81612dcf565b9050919050565b7f4552433732313a2061646472657373207a65726f206973206e6f74206120766160008201527f6c6964206f776e65720000000000000000000000000000000000000000000000602082015250565b6000612e6e6029836120ad565b9150612e7982612e12565b604082019050919050565b60006020820190508181036000830152612e9d81612e61565b9050919050565b7f5573657220646f6573206e6f7420686176652061207761746368000000000000600082015250565b6000612eda601a836120ad565b9150612ee582612ea4565b602082019050919050565b60006020820190508181036000830152612f0981612ecd565b9050919050565b6000604082019050612f2560008301856121e9565b612f32602083018461237e565b9392505050565b600081519050919050565b600081905092915050565b6000612f5a82612f39565b612f648185612f44565b9350612f748185602086016120be565b80840191505092915050565b6000612f8c8284612f4f565b915081905092915050565b7f63616c6c206661696c6564000000000000000000000000000000000000000000600082015250565b6000612fcd600b836120ad565b9150612fd882612f97565b602082019050919050565b60006020820190508181036000830152612ffc81612fc0565b9050919050565b600081905092915050565b6000613019826120a2565b6130238185613003565b93506130338185602086016120be565b80840191505092915050565b600061304b828561300e565b9150613057828461300e565b91508190509392505050565b7f4f776e61626c653a206e6577206f776e657220697320746865207a65726f206160008201527f6464726573730000000000000000000000000000000000000000000000000000602082015250565b60006130bf6026836120ad565b91506130ca82613063565b604082019050919050565b600060208201905081810360008301526130ee816130b2565b9050919050565b7f4552433732313a207472616e736665722066726f6d20696e636f72726563742060008201527f6f776e6572000000000000000000000000000000000000000000000000000000602082015250565b60006131516025836120ad565b915061315c826130f5565b604082019050919050565b6000602082019050818103600083015261318081613144565b9050919050565b7f4552433732313a207472616e7366657220746f20746865207a65726f2061646460008201527f7265737300000000000000000000000000000000000000000000000000000000602082015250565b60006131e36024836120ad565b91506131ee82613187565b604082019050919050565b60006020820190508181036000830152613212816131d6565b9050919050565b600061322482612154565b915061322f83612154565b92508282039050818111156132475761324661285f565b5b92915050565b600061325882612154565b915061326383612154565b925082820190508082111561327b5761327a61285f565b5b92915050565b7f4f776e61626c653a2063616c6c6572206973206e6f7420746865206f776e6572600082015250565b60006132b76020836120ad565b91506132c282613281565b602082019050919050565b600060208201905081810360008301526132e6816132aa565b9050919050565b7f4552433732313a20617070726f766520746f2063616c6c657200000000000000600082015250565b60006133236019836120ad565b915061332e826132ed565b602082019050919050565b6000602082019050818103600083015261335281613316565b9050919050565b7f4552433732313a207472616e7366657220746f206e6f6e20455243373231526560008201527f63656976657220696d706c656d656e7465720000000000000000000000000000602082015250565b60006133b56032836120ad565b91506133c082613359565b604082019050919050565b600060208201905081810360008301526133e4816133a8565b9050919050565b7f4e487b7100000000000000000000000000000000000000000000000000000000600052601260045260246000fd5b600061342582612154565b915061343083612154565b9250826134405761343f6133eb565b5b828204905092915050565b600061345682612154565b915061346183612154565b925082613471576134706133eb565b5b828206905092915050565b7f4e487b7100000000000000000000000000000000000000000000000000000000600052603260045260246000fd5b600082825260208201905092915050565b60006134c782612f39565b6134d181856134ab565b93506134e18185602086016120be565b6134ea816120e8565b840191505092915050565b600060808201905061350a60008301876121e9565b61351760208301866121e9565b613524604083018561237e565b818103606083015261353681846134bc565b905095945050505050565b60008151905061355081612013565b92915050565b60006020828403121561356c5761356b611fdd565b5b600061357a84828501613541565b91505092915050565b7f4552433732313a206d696e7420746f20746865207a65726f2061646472657373600082015250565b60006135b96020836120ad565b91506135c482613583565b602082019050919050565b600060208201905081810360008301526135e8816135ac565b9050919050565b7f4552433732313a20746f6b656e20616c7265616479206d696e74656400000000600082015250565b6000613625601c836120ad565b9150613630826135ef565b602082019050919050565b6000602082019050818103600083015261365481613618565b905091905056fe68747470733a2f2f676174657761792e70696e6174612e636c6f75642f697066732f516d646f6d366d393357703473705a684d56346632343269674363726e66674d6e765844775a7246343539455279a26469706673582212209485288c0443f3399eca53e028a177f2dea247c1a129d53e5781b045b8090e0564736f6c6343000811003368747470733a2f2f676174657761792e70696e6174612e636c6f75642f697066732f516d646f6d366d393357703473705a684d56346632343269674363726e66674d6e765844775a7246343539455279",
  "linkReferences": {},
  "deployedLinkReferences": {}
}