{
  "address": "0xCf7Ed3AccA5a467e9e704C703E8D87F634fB0Fc9",
  "abi": [
    {
      "inputs": [],
      "name": "AccountAlreadyDeactivated",
      "type": "error"
    },
    {
      "inputs": [],
      "name": "AccountNotApproved",
      "type": "error"
    },
    {
      "inputs": [],
      "name": "AllMemberIsPaid",
      "type": "error"
    },
    {
      "inputs": [],
      "name": "ExecutionStopped",
      "type": "error"
    },
    {
      "inputs": [],
      "name": "Failed",
      "type": "error"
    },
    {
      "inputs": [],
      "name": "IDoNotAcceptEtherIFYouForceItLost",
      "type": "error"
    },
    {
      "inputs": [],
      "name": "InSufficientValue",
      "type": "error"
    },
    {
      "inputs": [],
      "name": "InconsistentArrayValue",
      "type": "error"
    },
    {
      "inputs": [
        {
          "internalType": "uint256",
          "name": "",
          "type": "uint256"
        },
        {
          "internalType": "uint256",
          "name": "",
          "type": "uint256"
        }
      ],
      "name": "InsufficientFund",
      "type": "error"
    },
    {
      "inputs": [],
      "name": "InsufficientQuorum",
      "type": "error"
    },
    {
      "inputs": [],
      "name": "InvalidInput",
      "type": "error"
    },
    {
      "inputs": [],
      "name": "InvalidParameter",
      "type": "error"
    },
    {
      "inputs": [],
      "name": "NoAccountDetected",
      "type": "error"
    },
    {
      "inputs": [],
      "name": "SomethingWentWrong",
      "type": "error"
    },
    {
      "inputs": [],
      "name": "StatusAlreadyUpdated",
      "type": "error"
    },
    {
      "inputs": [],
      "name": "SystemAlreadyRunning",
      "type": "error"
    },
    {
      "inputs": [],
      "name": "SystemNotRunning",
      "type": "error"
    },
    {
      "inputs": [],
      "name": "TargetHasNoAccount",
      "type": "error"
    },
    {
      "inputs": [],
      "name": "UnAuthorizedCaller",
      "type": "error"
    },
    {
      "inputs": [
        {
          "internalType": "address",
          "name": "",
          "type": "address"
        }
      ],
      "name": "UnsupportedAsset",
      "type": "error"
    },
    {
      "inputs": [],
      "name": "UnsupportedToken",
      "type": "error"
    },
    {
      "inputs": [],
      "name": "WithdrawalRestricted",
      "type": "error"
    },
    {
      "inputs": [
        {
          "internalType": "address",
          "name": "",
          "type": "address"
        }
      ],
      "name": "ZeroAddress",
      "type": "error"
    },
    {
      "anonymous": false,
      "inputs": [
        {
          "indexed": true,
          "internalType": "address",
          "name": "",
          "type": "address"
        },
        {
          "indexed": true,
          "internalType": "address",
          "name": "",
          "type": "address"
        }
      ],
      "name": "AccountLaunched",
      "type": "event"
    },
    {
      "anonymous": false,
      "inputs": [
        {
          "indexed": false,
          "internalType": "uint256",
          "name": "",
          "type": "uint256"
        },
        {
          "components": [
            {
              "components": [
                {
                  "internalType": "enum ICommon.Mode",
                  "name": "mode",
                  "type": "uint8"
                },
                {
                  "internalType": "uint256",
                  "name": "quorum",
                  "type": "uint256"
                },
                {
                  "internalType": "uint256",
                  "name": "selector",
                  "type": "uint256"
                },
                {
                  "internalType": "uint256",
                  "name": "ccr",
                  "type": "uint256"
                },
                {
                  "internalType": "uint256",
                  "name": "duration",
                  "type": "uint256"
                }
              ],
              "internalType": "struct ICommon.Uints",
              "name": "uints",
              "type": "tuple"
            },
            {
              "components": [
                {
                  "internalType": "uint256",
                  "name": "unit",
                  "type": "uint256"
                },
                {
                  "internalType": "uint256",
                  "name": "receivable",
                  "type": "uint256"
                },
                {
                  "internalType": "uint256",
                  "name": "currentPool",
                  "type": "uint256"
                }
              ],
              "internalType": "struct ICommon.Uint256s",
              "name": "uint256s",
              "type": "tuple"
            },
            {
              "components": [
                {
                  "internalType": "address",
                  "name": "asset",
                  "type": "address"
                },
                {
                  "internalType": "address",
                  "name": "lastPaid",
                  "type": "address"
                }
              ],
              "internalType": "struct ICommon.Addresses",
              "name": "addrs",
              "type": "tuple"
            },
            {
              "internalType": "address[]",
              "name": "mems",
              "type": "address[]"
            },
            {
              "internalType": "uint256",
              "name": "allGh",
              "type": "uint256"
            }
          ],
          "indexed": false,
          "internalType": "struct ICommon.Pool",
          "name": "",
          "type": "tuple"
        }
      ],
      "name": "BandCreated",
      "type": "event"
    },
    {
      "anonymous": false,
      "inputs": [
        {
          "indexed": false,
          "internalType": "uint256",
          "name": "poolId",
          "type": "uint256"
        },
        {
          "indexed": false,
          "internalType": "uint256",
          "name": "unit",
          "type": "uint256"
        },
        {
          "indexed": false,
          "internalType": "address",
          "name": "alc",
          "type": "address"
        }
      ],
      "name": "Cancellation",
      "type": "event"
    },
    {
      "anonymous": false,
      "inputs": [
        {
          "indexed": false,
          "internalType": "uint256",
          "name": "",
          "type": "uint256"
        },
        {
          "indexed": false,
          "internalType": "uint256",
          "name": "",
          "type": "uint256"
        },
        {
          "indexed": false,
          "internalType": "address",
          "name": "",
          "type": "address"
        }
      ],
      "name": "GetFinanced",
      "type": "event"
    },
    {
      "anonymous": false,
      "inputs": [
        {
          "indexed": false,
          "internalType": "uint256",
          "name": "",
          "type": "uint256"
        },
        {
          "indexed": false,
          "internalType": "address",
          "name": "",
          "type": "address"
        },
        {
          "indexed": false,
          "internalType": "uint256",
          "name": "",
          "type": "uint256"
        }
      ],
      "name": "Joined",
      "type": "event"
    },
    {
      "anonymous": false,
      "inputs": [
        {
          "indexed": true,
          "internalType": "address",
          "name": "",
          "type": "address"
        },
        {
          "indexed": true,
          "internalType": "address",
          "name": "",
          "type": "address"
        },
        {
          "indexed": false,
          "internalType": "uint256",
          "name": "",
          "type": "uint256"
        }
      ],
      "name": "NewAccount",
      "type": "event"
    },
    {
      "anonymous": false,
      "inputs": [
        {
          "indexed": true,
          "internalType": "address",
          "name": "previousOwner",
          "type": "address"
        },
        {
          "indexed": true,
          "internalType": "address",
          "name": "newOwner",
          "type": "address"
        }
      ],
      "name": "OwnershipTransferred",
      "type": "event"
    },
    {
      "anonymous": false,
      "inputs": [
        {
          "indexed": false,
          "internalType": "address",
          "name": "account",
          "type": "address"
        }
      ],
      "name": "Paused",
      "type": "event"
    },
    {
      "anonymous": false,
      "inputs": [
        {
          "indexed": false,
          "internalType": "uint256",
          "name": "",
          "type": "uint256"
        },
        {
          "indexed": false,
          "internalType": "uint256",
          "name": "",
          "type": "uint256"
        },
        {
          "indexed": true,
          "internalType": "address",
          "name": "",
          "type": "address"
        }
      ],
      "name": "Payback",
      "type": "event"
    },
    {
      "anonymous": false,
      "inputs": [
        {
          "indexed": true,
          "internalType": "address",
          "name": "",
          "type": "address"
        },
        {
          "indexed": true,
          "internalType": "address",
          "name": "",
          "type": "address"
        }
      ],
      "name": "Rekeyed",
      "type": "event"
    },
    {
      "anonymous": false,
      "inputs": [
        {
          "indexed": false,
          "internalType": "uint256",
          "name": "",
          "type": "uint256"
        },
        {
          "components": [
            {
              "components": [
                {
                  "internalType": "enum ICommon.Mode",
                  "name": "mode",
                  "type": "uint8"
                },
                {
                  "internalType": "uint256",
                  "name": "quorum",
                  "type": "uint256"
                },
                {
                  "internalType": "uint256",
                  "name": "selector",
                  "type": "uint256"
                },
                {
                  "internalType": "uint256",
                  "name": "ccr",
                  "type": "uint256"
                },
                {
                  "internalType": "uint256",
                  "name": "duration",
                  "type": "uint256"
                }
              ],
              "internalType": "struct ICommon.Uints",
              "name": "uints",
              "type": "tuple"
            },
            {
              "components": [
                {
                  "internalType": "uint256",
                  "name": "unit",
                  "type": "uint256"
                },
                {
                  "internalType": "uint256",
                  "name": "receivable",
                  "type": "uint256"
                },
                {
                  "internalType": "uint256",
                  "name": "currentPool",
                  "type": "uint256"
                }
              ],
              "internalType": "struct ICommon.Uint256s",
              "name": "uint256s",
              "type": "tuple"
            },
            {
              "components": [
                {
                  "internalType": "address",
                  "name": "asset",
                  "type": "address"
                },
                {
                  "internalType": "address",
                  "name": "lastPaid",
                  "type": "address"
                }
              ],
              "internalType": "struct ICommon.Addresses",
              "name": "addrs",
              "type": "tuple"
            },
            {
              "internalType": "address[]",
              "name": "mems",
              "type": "address[]"
            },
            {
              "internalType": "uint256",
              "name": "allGh",
              "type": "uint256"
            }
          ],
          "indexed": false,
          "internalType": "struct ICommon.Pool",
          "name": "",
          "type": "tuple"
        }
      ],
      "name": "RoundUp",
      "type": "event"
    },
    {
      "anonymous": false,
      "inputs": [
        {
          "indexed": false,
          "internalType": "address",
          "name": "account",
          "type": "address"
        }
      ],
      "name": "Unpaused",
      "type": "event"
    },
    {
      "inputs": [],
      "name": "allPools",
      "outputs": [
        {
          "components": [
            {
              "components": [
                {
                  "internalType": "enum ICommon.Mode",
                  "name": "mode",
                  "type": "uint8"
                },
                {
                  "internalType": "uint256",
                  "name": "quorum",
                  "type": "uint256"
                },
                {
                  "internalType": "uint256",
                  "name": "selector",
                  "type": "uint256"
                },
                {
                  "internalType": "uint256",
                  "name": "ccr",
                  "type": "uint256"
                },
                {
                  "internalType": "uint256",
                  "name": "duration",
                  "type": "uint256"
                }
              ],
              "internalType": "struct ICommon.Uints",
              "name": "uints",
              "type": "tuple"
            },
            {
              "components": [
                {
                  "internalType": "uint256",
                  "name": "unit",
                  "type": "uint256"
                },
                {
                  "internalType": "uint256",
                  "name": "receivable",
                  "type": "uint256"
                },
                {
                  "internalType": "uint256",
                  "name": "currentPool",
                  "type": "uint256"
                }
              ],
              "internalType": "struct ICommon.Uint256s",
              "name": "uint256s",
              "type": "tuple"
            },
            {
              "components": [
                {
                  "internalType": "address",
                  "name": "asset",
                  "type": "address"
                },
                {
                  "internalType": "address",
                  "name": "lastPaid",
                  "type": "address"
                }
              ],
              "internalType": "struct ICommon.Addresses",
              "name": "addrs",
              "type": "tuple"
            },
            {
              "internalType": "address[]",
              "name": "mems",
              "type": "address[]"
            },
            {
              "internalType": "uint256",
              "name": "allGh",
              "type": "uint256"
            }
          ],
          "internalType": "struct ICommon.Pool[]",
          "name": "",
          "type": "tuple[]"
        }
      ],
      "stateMutability": "view",
      "type": "function"
    },
    {
      "inputs": [
        {
          "internalType": "uint256",
          "name": "poolId",
          "type": "uint256"
        }
      ],
      "name": "cancelBand",
      "outputs": [
        {
          "internalType": "bool",
          "name": "",
          "type": "bool"
        }
      ],
      "stateMutability": "nonpayable",
      "type": "function"
    },
    {
      "inputs": [],
      "name": "cr",
      "outputs": [
        {
          "internalType": "uint256",
          "name": "totalValueContributed",
          "type": "uint256"
        },
        {
          "internalType": "uint256",
          "name": "subscribers",
          "type": "uint256"
        }
      ],
      "stateMutability": "view",
      "type": "function"
    },
    {
      "inputs": [
        {
          "internalType": "uint8",
          "name": "durationIndays",
          "type": "uint8"
        },
        {
          "internalType": "uint16",
          "name": "colCoverateRatio",
          "type": "uint16"
        },
        {
          "internalType": "address[]",
          "name": "members",
          "type": "address[]"
        },
        {
          "internalType": "address",
          "name": "asset",
          "type": "address"
        },
        {
          "internalType": "uint256",
          "name": "amount",
          "type": "uint256"
        }
      ],
      "name": "createPrivatePool",
      "outputs": [
        {
          "internalType": "bool",
          "name": "",
          "type": "bool"
        }
      ],
      "stateMutability": "nonpayable",
      "type": "function"
    },
    {
      "inputs": [
        {
          "internalType": "uint8",
          "name": "quorum",
          "type": "uint8"
        },
        {
          "internalType": "uint8",
          "name": "durationInDays",
          "type": "uint8"
        },
        {
          "internalType": "uint16",
          "name": "colCoverageRatio",
          "type": "uint16"
        },
        {
          "internalType": "uint256",
          "name": "amount",
          "type": "uint256"
        },
        {
          "internalType": "address",
          "name": "asset",
          "type": "address"
        }
      ],
      "name": "createPublicPool",
      "outputs": [
        {
          "internalType": "bool",
          "name": "",
          "type": "bool"
        }
      ],
      "stateMutability": "nonpayable",
      "type": "function"
    },
    {
      "inputs": [],
      "name": "creationFee",
      "outputs": [
        {
          "internalType": "uint256",
          "name": "",
          "type": "uint256"
        }
      ],
      "stateMutability": "view",
      "type": "function"
    },
    {
      "inputs": [
        {
          "internalType": "uint256",
          "name": "poolId",
          "type": "uint256"
        }
      ],
      "name": "enquireLiquidation",
      "outputs": [
        {
          "components": [
            {
              "internalType": "uint256",
              "name": "index",
              "type": "uint256"
            },
            {
              "internalType": "address",
              "name": "who",
              "type": "address"
            },
            {
              "internalType": "uint256",
              "name": "expectedRepaymentTime",
              "type": "uint256"
            },
            {
              "internalType": "uint256",
              "name": "debt",
              "type": "uint256"
            },
            {
              "internalType": "uint256",
              "name": "colBalInToken",
              "type": "uint256"
            }
          ],
          "internalType": "struct ICommon.Liquidation",
          "name": "",
          "type": "tuple"
        }
      ],
      "stateMutability": "view",
      "type": "function"
    },
    {
      "inputs": [
        {
          "internalType": "uint256",
          "name": "poolId",
          "type": "uint256"
        }
      ],
      "name": "getFinance",
      "outputs": [
        {
          "internalType": "bool",
          "name": "",
          "type": "bool"
        }
      ],
      "stateMutability": "nonpayable",
      "type": "function"
    },
    {
      "inputs": [
        {
          "internalType": "uint256",
          "name": "poolId",
          "type": "uint256"
        }
      ],
      "name": "joinABand",
      "outputs": [
        {
          "internalType": "bool",
          "name": "",
          "type": "bool"
        }
      ],
      "stateMutability": "nonpayable",
      "type": "function"
    },
    {
      "inputs": [
        {
          "internalType": "uint256",
          "name": "poolId",
          "type": "uint256"
        }
      ],
      "name": "liquidate",
      "outputs": [
        {
          "internalType": "bool",
          "name": "",
          "type": "bool"
        }
      ],
      "stateMutability": "nonpayable",
      "type": "function"
    },
    {
      "inputs": [],
      "name": "manager",
      "outputs": [
        {
          "internalType": "contract IAccountManager",
          "name": "",
          "type": "address"
        }
      ],
      "stateMutability": "view",
      "type": "function"
    },
    {
      "inputs": [],
      "name": "minimumPoolAmount",
      "outputs": [
        {
          "internalType": "uint256",
          "name": "",
          "type": "uint256"
        }
      ],
      "stateMutability": "view",
      "type": "function"
    },
    {
      "inputs": [],
      "name": "owner",
      "outputs": [
        {
          "internalType": "address",
          "name": "",
          "type": "address"
        }
      ],
      "stateMutability": "view",
      "type": "function"
    },
    {
      "inputs": [],
      "name": "pause",
      "outputs": [],
      "stateMutability": "nonpayable",
      "type": "function"
    },
    {
      "inputs": [],
      "name": "paused",
      "outputs": [
        {
          "internalType": "bool",
          "name": "",
          "type": "bool"
        }
      ],
      "stateMutability": "view",
      "type": "function"
    },
    {
      "inputs": [
        {
          "internalType": "uint256",
          "name": "poolId",
          "type": "uint256"
        }
      ],
      "name": "payback",
      "outputs": [
        {
          "internalType": "bool",
          "name": "",
          "type": "bool"
        }
      ],
      "stateMutability": "nonpayable",
      "type": "function"
    },
    {
      "inputs": [],
      "name": "renounceOwnership",
      "outputs": [],
      "stateMutability": "nonpayable",
      "type": "function"
    },
    {
      "inputs": [
        {
          "internalType": "uint256",
          "name": "poolId",
          "type": "uint256"
        }
      ],
      "name": "roundUp",
      "outputs": [
        {
          "internalType": "bool",
          "name": "",
          "type": "bool"
        }
      ],
      "stateMutability": "nonpayable",
      "type": "function"
    },
    {
      "inputs": [
        {
          "internalType": "address",
          "name": "_token",
          "type": "address"
        },
        {
          "internalType": "uint256",
          "name": "_minimumPoolAmount",
          "type": "uint256"
        },
        {
          "internalType": "address",
          "name": "feeTo",
          "type": "address"
        },
        {
          "internalType": "address",
          "name": "_manager",
          "type": "address"
        }
      ],
      "name": "setParams",
      "outputs": [],
      "stateMutability": "nonpayable",
      "type": "function"
    },
    {
      "inputs": [
        {
          "internalType": "address",
          "name": "newToken",
          "type": "address"
        }
      ],
      "name": "setSupportedTokens",
      "outputs": [],
      "stateMutability": "nonpayable",
      "type": "function"
    },
    {
      "inputs": [
        {
          "internalType": "address",
          "name": "_token",
          "type": "address"
        }
      ],
      "name": "supportedToken",
      "outputs": [
        {
          "internalType": "bool",
          "name": "",
          "type": "bool"
        }
      ],
      "stateMutability": "view",
      "type": "function"
    },
    {
      "inputs": [
        {
          "internalType": "address",
          "name": "newOwner",
          "type": "address"
        }
      ],
      "name": "transferOwnership",
      "outputs": [],
      "stateMutability": "nonpayable",
      "type": "function"
    },
    {
      "inputs": [],
      "name": "unpause",
      "outputs": [],
      "stateMutability": "nonpayable",
      "type": "function"
    },
    {
      "inputs": [
        {
          "internalType": "uint256",
          "name": "newAmount",
          "type": "uint256"
        }
      ],
      "name": "updateMinPoolAmount",
      "outputs": [],
      "stateMutability": "nonpayable",
      "type": "function"
    },
    {
      "inputs": [
        {
          "internalType": "address",
          "name": "feeTo",
          "type": "address"
        },
        {
          "internalType": "address",
          "name": "token",
          "type": "address"
        },
        {
          "internalType": "uint8",
          "name": "penFee",
          "type": "uint8"
        },
        {
          "internalType": "uint8",
          "name": "makerFee",
          "type": "uint8"
        }
      ],
      "name": "updatePublicData",
      "outputs": [],
      "stateMutability": "nonpayable",
      "type": "function"
    },
    {
      "stateMutability": "payable",
      "type": "receive"
    }
  ],
  "transactionHash": "0xc81c86b8b7a1ba423df309e35de4463aa82f72cebe00a70b74f56b0a6fb59471",
  "args": [],
  "solcInputHash": "f01f1aa2e2627a9f136b14161ee52bf0",
  "bytecode": "0x608060405234801561001057600080fd5b50600280546001600160a81b0319163361010081029190911790915560405181906000907f8be0079c531659141344cd1fd0a4f28419497f9722a3daafe3b4186f6b6457e0908290a350614960806100696000396000f3fe60806040526004361061016a5760003560e01c80638352248a116100d1578063a846c2fd1161008a578063dce0b4e411610064578063dce0b4e41461048f578063dd636dcb146104a5578063e2c6e438146104c5578063f2fde38b146104e557600080fd5b8063a846c2fd1461042d578063afa273921461044d578063c5c63e651461046d57600080fd5b80638352248a146103715780638456cb59146103955780638da5cb5b146103aa578063975ab8b5146103cd578063a41c74a2146103ed578063a67f11501461040d57600080fd5b80635c975abb116101235780635c975abb146102b457806362eb33e3146102cc5780636c92fdff146102fc5780636d0406fd1461031c578063715018a61461033c5780637b6a6f4a1461035157600080fd5b8063119493521461018c5780631824cdab146101c15780631a055c1a146101e15780633f4ba83a14610247578063415f12401461025c578063481c6a751461027c57600080fd5b3661018757600354610185906001600160a01b031634610505565b005b600080fd5b34801561019857600080fd5b506101ac6101a7366004613d2a565b610628565b60405190151581526020015b60405180910390f35b3480156101cd57600080fd5b506101856101dc366004613d2a565b610848565b3480156101ed57600080fd5b506102016101fc366004613d2a565b61087d565b6040516101b89190815181526020808301516001600160a01b03169082015260408083015190820152606080830151908201526080918201519181019190915260a00190565b34801561025357600080fd5b50610185610896565b34801561026857600080fd5b506101ac610277366004613d2a565b6108d0565b34801561028857600080fd5b5060095461029c906001600160a01b031681565b6040516001600160a01b0390911681526020016101b8565b3480156102c057600080fd5b5060025460ff166101ac565b3480156102d857600080fd5b50600a54600b546102e7919082565b604080519283526020830191909152016101b8565b34801561030857600080fd5b50610185610317366004613d79565b610976565b34801561032857600080fd5b506101ac610337366004613d2a565b6109ba565b34801561034857600080fd5b50610185610aec565b34801561035d57600080fd5b506101ac61036c366004613d2a565b610b6c565b34801561037d57600080fd5b5061038760085481565b6040519081526020016101b8565b3480156103a157600080fd5b50610185610c6b565b3480156103b657600080fd5b5060025461010090046001600160a01b031661029c565b3480156103d957600080fd5b506101ac6103e8366004613e9b565b610ca3565b3480156103f957600080fd5b506101ac610408366004613f76565b610e9f565b34801561041957600080fd5b50610185610428366004613fd8565b6110e2565b34801561043957600080fd5b506101ac610448366004613d2a565b611142565b34801561045957600080fd5b506101ac610468366004613d2a565b611253565b34801561047957600080fd5b5061048261132c565b6040516101b8919061411f565b34801561049b57600080fd5b5061038760075481565b3480156104b157600080fd5b506101856104c0366004614181565b6113bb565b3480156104d157600080fd5b506101ac6104e0366004613fd8565b6114aa565b3480156104f157600080fd5b50610185610500366004613fd8565b6114cb565b8047101561055a5760405162461bcd60e51b815260206004820152601d60248201527f416464726573733a20696e73756666696369656e742062616c616e636500000060448201526064015b60405180910390fd5b6000826001600160a01b03168260405160006040518083038185875af1925050503d80600081146105a7576040519150601f19603f3d011682016040523d82523d6000602084013e6105ac565b606091505b50509050806106235760405162461bcd60e51b815260206004820152603a60248201527f416464726573733a20756e61626c6520746f2073656e642076616c75652c207260448201527f6563697069656e74206d617920686176652072657665727465640000000000006064820152608401610551565b505050565b600061063660025460ff1690565b156106535760405162461bcd60e51b8152600401610551906141d4565b8161065f6005826115c7565b33600061066c81836115f2565b8461067633611682565b6000610683600589611700565b6106906005858585611715565b886000600161069f83836117b0565b60018111156106b0576106b0613ff5565b146106cd5760405162461bcd60e51b8152600401610551906141fe565b6000806106de60058e6116826117fd565b91509150816020015160000151600a60000160008282546106ff9190614234565b9091555050600b80549060006107148361424c565b909155505081516020015160608301515114156107d8576107368d6000611a89565b6107418d6001611aed565b60405163fd9e2c7560e01b8152600481018e90526001600160a01b0382169063fd9e2c7590602401602060405180830381600087803b15801561078357600080fd5b505af1158015610797573d6000803e3d6000fd5b505050506040513d601f19601f820116820180604052508101906107bb9190614277565b6107d85760405163312d207360e11b815260040160405180910390fd5b7fd5b030fc17ee555aeea484ceb134047c9d82176003282c85150c3b2552c6ef668d8284602001516000015160405161082d939291909283526001600160a01b03919091166020830152604082015260600190565b60405180910390a15060019c9b505050505050505050505050565b6002546001600160a01b036101009091041633146108785760405162461bcd60e51b815260040161055190614292565b600855565b610885613c43565b610890600583611b11565b92915050565b6002546001600160a01b036101009091041633146108c65760405162461bcd60e51b815260040161055190614292565b6108ce611c4f565b565b60006108de60025460ff1690565b156108fb5760405162461bcd60e51b8152600401610551906141d4565b33600061090881836115f2565b60008061091a60038733611682611ce2565b91509150816001600160a01b03167f3405603dcaff85cd7eb7be9617f5882858840df7163cb04ba8226794579c65dc8783604051610962929190918252602082015260400190565b60405180910390a250600195945050505050565b6002546001600160a01b036101009091041633146109a65760405162461bcd60e51b815260040161055190614292565b6109b4600385858585611f39565b50505050565b60006109c860025460ff1690565b156109e55760405162461bcd60e51b8152600401610551906141d4565b816109f16005826115c7565b3360006109fe81836115f2565b84610a0833611682565b6001610a15600589611700565b610a226005858585611715565b88600180610a3083836117b0565b6001811115610a4157610a41613ff5565b14610a5e5760405162461bcd60e51b8152600401610551906141fe565b600080610a9b60405180608001604052808f8152602001611a898152602001611682815260200161204e815250600361205990919063ffffffff16565b915091507f7513297b7cd4a3240c276ac0cf06d892fdeab44c9db7e7f75d84b53bbb3952978d828460405161082d9392919092835260208301919091526001600160a01b0316604082015260600190565b6002546001600160a01b03610100909104163314610b1c5760405162461bcd60e51b815260040161055190614292565b60025460405160009161010090046001600160a01b0316907f8be0079c531659141344cd1fd0a4f28419497f9722a3daafe3b4186f6b6457e0908390a360028054610100600160a81b0319169055565b6000610b7a60025460ff1690565b15610b975760405162461bcd60e51b8152600401610551906141d4565b8160036001610ba683836117b0565b6001811115610bb757610bb7613ff5565b14610bd45760405162461bcd60e51b8152600401610551906141fe565b83610be06005826115c7565b336000610bed81836115f2565b86610bf733611682565b6001610c0460058b611700565b610c116005858585611715565b6000610c1e60038d61227e565b90507f7bf5ec087e59d009c52568ffb8ba5b5aff0e6dcf4fc450fefb7f76a35f355fc68c82604051610c519291906142c7565b60405180910390a15060019b9a5050505050505050505050565b6002546001600160a01b03610100909104163314610c9b5760405162461bcd60e51b815260040161055190614292565b6108ce6123c1565b6000610cb160025460ff1690565b15610cce5760405162461bcd60e51b8152600401610551906141d4565b835160ff8116610cf15760405163b4fa3fb360e01b815260040160405180910390fd5b60ff8181161115610d155760405163b4fa3fb360e01b815260040160405180910390fd5b336000610d2281836115f2565b6001600160a01b038616600090815260208190526040902054869060ff16610d7c5760405162461bcd60e51b815260206004820152600d60248201526c139bdd081cdd5c1c1bdc9d1959609a1b6044820152606401610551565b87600180825111610da05760405163284422c160e11b815260040160405180910390fd5b336001600160a01b031682600081518110610dbd57610dbd6142e0565b60200260200101516001600160a01b031614610e005760405162461bcd60e51b8152602060048201526002602482015261313960f01b6044820152606401610551565b6000610e626040518060c001604052808d5160ff1681526020018f60ff1681526020018e61ffff1681526020018b81526020018d81526020018c6001600160a01b03168152506116826115f2611aed600361241990949392919063ffffffff16565b90507f5ea8463ece75b8f78435f79664ded6cfa9c137aae4d757d6ae49b825d13b8f4681610e91600582612570565b60405161082d9291906142c7565b6000610ead60025460ff1690565b15610eca5760405162461bcd60e51b8152600401610551906141d4565b8560ff8116610eec5760405163b4fa3fb360e01b815260040160405180910390fd5b60ff8181161115610f105760405163b4fa3fb360e01b815260040160405180910390fd5b336000610f1d81836115f2565b6001600160a01b038516600090815260208190526040902054859060ff16610f775760405162461bcd60e51b815260206004820152600d60248201526c139bdd081cdd5c1c1bdc9d1959609a1b6044820152606401610551565b604080516001808252818301909252600091602080830190803683370190505090503381600081518110610fad57610fad6142e0565b60200260200101906001600160a01b031690816001600160a01b031681525050600061102a6040518060c001604052808e60ff1681526020018d60ff1681526020018c61ffff1681526020018b81526020018481526020018a6001600160a01b0316815250611682611aed60036126d1909392919063ffffffff16565b6004549091506001600160a01b03161580159061105157506003546001600160a01b031615155b801561106757506009546001600160a01b031615155b6110a75760405162461bcd60e51b81526020600482015260116024820152701059191c995cdcd95cc81b9bdd081cd95d607a1b6044820152606401610551565b7f5ea8463ece75b8f78435f79664ded6cfa9c137aae4d757d6ae49b825d13b8f46816110d4600582612570565b604051610c519291906142c7565b6002546001600160a01b036101009091041633146111125760405162461bcd60e51b815260040161055190614292565b61113f816001600160a01b03166000908152602081905260409020805460ff19811660ff90911615179055565b50565b600061115060025460ff1690565b1561116d5760405162461bcd60e51b8152600401610551906141d4565b33600061117a81836115f2565b836111866005826115c7565b8461119033611682565b600161119d600589611700565b6111aa6005858585611715565b6000806111c160038c611682611a89611aed6127d3565b60408051808201909152600a548152600b54602082015260a0830181905291935091506111ed83612ab6565b816001600160a01b03167f3405603dcaff85cd7eb7be9617f5882858840df7163cb04ba8226794579c65dc8d8560c0015160200151604051611239929190918252602082015260400190565b60405180910390a25060019b9a5050505050505050505050565b600061126160025460ff1690565b1561127e5760405162461bcd60e51b8152600401610551906141d4565b8161128a6005826115c7565b33600061129781836115f2565b846112a133611682565b60016112ae600589611700565b6112bb6005858585611715565b6000806112cc60038c611682612b6d565b604080518e8152602081018490526001600160a01b0383168183015290519294509092507f57abe708ed2b51bf4f5fd0a2957491b08282e0e509ec1bdda72cd5b2573fb39d919081900360600190a15060019a9950505050505050505050565b60405163649c7e5b60e01b81526003600482015260609073e7f1725E7734CE288F8367e1Bb143E90bb3F05129063649c7e5b9060240160006040518083038186803b15801561137a57600080fd5b505af415801561138e573d6000803e3d6000fd5b505050506040513d6000823e601f3d908101601f191682016040526113b69190810190614426565b905090565b6002546001600160a01b036101009091041633146113eb5760405162461bcd60e51b815260040161055190614292565b8382826001600160a01b0383161580159061140e57506001600160a01b03821615155b801561142257506001600160a01b03811615155b6114625760405162461bcd60e51b81526020600482015260116024820152701059191c995cdcd95cc81b9bdd081cd95d607a1b6044820152606401610551565b5050600480546001600160a01b039687166001600160a01b03199182161790915560038054948716948216949094179093555060089290925560098054929093169116179055565b6001600160a01b03811660009081526020819052604081205460ff16610890565b6002546001600160a01b036101009091041633146114fb5760405162461bcd60e51b815260040161055190614292565b6001600160a01b0381166115605760405162461bcd60e51b815260206004820152602660248201527f4f776e61626c653a206e6577206f776e657220697320746865207a65726f206160448201526564647265737360d01b6064820152608401610551565b6002546040516001600160a01b0380841692610100900416907f8be0079c531659141344cd1fd0a4f28419497f9722a3daafe3b4186f6b6457e090600090a3600280546001600160a01b0390921661010002610100600160a81b0319909216919091179055565b6040805180820190915260018152603960f81b602082015282546115ee9190831090612c75565b5050565b8161163d57600061160282611682565b6001600160a01b031614156115ee5760405162461bcd60e51b81526020600482015260016024820152601960f91b6044820152606401610551565b600061164882611682565b6001600160a01b0316146115ee5760405162461bcd60e51b81526020600482015260016024820152603160f81b6044820152606401610551565b60095460405163fbcbc0f160e01b81526001600160a01b038381166004830152600092169063fbcbc0f19060240160206040518083038186803b1580156116c857600080fd5b505afa1580156116dc573d6000803e3d6000fd5b505050506040513d601f19601f820116820180604052508101906108909190614595565b600061170c8383612570565b51519392505050565b60006117218484612c94565b90506000836001600160a01b0316868681548110611741576117416142e0565b90600052602060002090600c0201600a018381548110611763576117636142e0565b600091825260209182902001546040805180820190915260018152603760f81b928101929092526001600160a01b03169190911491506117a890841515831490612c75565b505050505050565b6000828152600160205260408120818360038111156117d1576117d1613ff5565b60038111156117e2576117e2613ff5565b815260208101919091526040016000205460ff169392505050565b611805613c7b565b6000806118128686612570565b9050611822335b8563ffffffff16565b60408201515160208301515191935061183c918490612d18565b611879604051806040016040528060018152602001603560f81b815250826000015160200151836060015151101515612c7590919063ffffffff16565b6001815151600181111561188f5761188f613ff5565b14156118fd576118fd604051806040016040528060018152602001603760f81b815250836001600160a01b031683606001516118cb8987612c94565b815181106118db576118db6142e0565b60200260200101516001600160a01b0316141515612c7590919063ffffffff16565b61193e86838360400151600001518460600151600081518110611922576119226142e0565b602002602001015160008a600080896020015160000151612dea565b8060600151600081518110611955576119556142e0565b602090810291909101810151604080840151519284015151905163a009288760e01b81526001600160a01b03938416600482015260248101919091526001604482015291169063a009288790606401602060405180830381600087803b1580156119be57600080fd5b505af11580156119d2573d6000803e3d6000fd5b505050506040513d601f19601f820116820180604052508101906119f69190614277565b611a305760405162461bcd60e51b815260206004820152600b60248201526a14dd588e8811985a5b195960aa1b6044820152606401610551565b806020015160000151868681548110611a4b57611a4b6142e0565b90600052602060002090600c02016005016002016000828254611a6e9190614234565b90915550611a7e90508686612570565b925050935093915050565b600082815260016020526040812081836003811115611aaa57611aaa613ff5565b6003811115611abb57611abb613ff5565b81526020810191909152604001600020805460ff191660018381811115611ae457611ae4613ff5565b02179055505050565b600082815260016020819052604082209091836003811115611aaa57611aaa613ff5565b611b19613c43565b6000611b258484612570565b905060008160400151602001516001600160a01b031663a85337d9856040518263ffffffff1660e01b8152600401611b5f91815260200190565b6101206040518083038186803b158015611b7857600080fd5b505afa158015611b8c573d6000803e3d6000fd5b505050506040513d601f19601f82011682018060405250810190611bb091906145b2565b90508060200151611bbe4290565b11611bfd576040518060a001604052806000815260200160006001600160a01b0316815260200160008152602001600081526020016000815250611c46565b6040518060a00160405280826000015181526020018360400151602001516001600160a01b0316815260200182602001518152602001826060015181526020018260a001518152505b95945050505050565b60025460ff16611c985760405162461bcd60e51b815260206004820152601460248201527314185d5cd8589b194e881b9bdd081c185d5cd95960621b6044820152606401610551565b6002805460ff191690557f5db9ee0a495bf2e6ff9c91a7834c1ba4fdd244a5e8aa4e537bd38aeae4b073aa335b6040516001600160a01b03909116815260200160405180910390a1565b6000806000611cf48760020187611b11565b90506000611d05868663ffffffff16565b9050816020015193506000846001600160a01b031663a85337d9896040518263ffffffff1660e01b8152600401611d3e91815260200190565b6101206040518083038186803b158015611d5757600080fd5b505afa158015611d6b573d6000803e3d6000fd5b505050506040513d601f19601f82011682018060405250810190611d8f91906145b2565b90506001600160a01b038516611dcc5760405162461bcd60e51b8152602060048201526002602482015261313160f01b6044820152606401610551565b6000611ddb8a6002018a612570565b60400151600001519050611df481848660600151612d18565b60006060830152604051634ceb685b60e01b8152600481018a90528995506001600160a01b03871690634ceb685b90602401602060405180830381600087803b158015611e4057600080fd5b505af1158015611e54573d6000803e3d6000fd5b505050506040513d601f19601f82011682018060405250810190611e789190614277565b611ea95760405162461bcd60e51b8152602060048201526002602482015261032360f41b6044820152606401610551565b6060840151611ec5908690849060019081908890876000612e59565b828a6002018a81548110611edb57611edb6142e0565b60009182526020909120600c9091020160090180546001600160a01b0319166001600160a01b03928316179055606083015160a084015160018d0154919750611f2c92919091169085908990612ec3565b5050505094509492505050565b6001600160a01b038416611f6b57604051633202e20d60e21b81526001600160a01b0385166004820152602401610551565b6001600160a01b038316611f9d57604051633202e20d60e21b81526001600160a01b0384166004820152602401610551565b604080518082019091526002815261313960f01b6020820152611fcf9060ff8481168111918482169190911090612f11565b604080516080810182526001600160a01b03958616808252949095166020860181905260ff93841691860182905291909216606090940184905284546001600160a01b0319169092178455600190930180546001600160a81b031916909117600160a01b9093029290921760ff60a81b1916600160a81b909102179055565b66038d7ea4c6800090565b60008061207383600001516001856020015163ffffffff16565b6000612086856002018560000151612570565b805160200151608082015191925014156120b35760405163d77e83a360e01b815260040160405180910390fd5b6120fd604051806040016040528060018152602001600d60fa1b8152508260000151602001518360200151600001516120ec919061463e565b602084015160400151101590612c75565b6040805180820182526020838101519092015181526001870154600160a81b900460ff1691810191909152600090819061213690612f3a565b91509150612233876040518060c00160405280866060015187600001516040015181518110612167576121676142e0565b60200260200101516001600160a01b03168152602001896000015181526020018481526020018581526020016122216040518060a001604052808d60000160010160009054906101000a90046001600160a01b03166001600160a01b031681526020016121e16121d43390565b8e6040015163ffffffff16565b6001600160a01b03168152602001896000015160600151815260200161220d8d6060015163ffffffff16565b815260208a81015160400151910152612f9f565b81526020018690526040890151613096565b875160028a01805493985091965090918110612251576122516142e0565b600091825260208220600b600c909202010180549161226f8361424c565b91905055505050509250929050565b612286613c7b565b6122938360020183612570565b604080518082019091526002815261189b60f11b6020808301919091528251015160808301519293506122c7921490612c75565b604081015160200151600082515160018111156122e6576122e6613ff5565b141561230c576020808301515160009081526003860190915260409020805460ff191690555b6040828101515160608401518654602086015151935163a85337d960e01b81526004810188905287946123b9948794909390926001600160a01b03918216929186169063a85337d9906024016101206040518083038186803b15801561237157600080fd5b505afa158015612385573d6000803e3d6000fd5b505050506040513d601f19601f820116820180604052508101906123a991906145b2565b6060015187959493929190613385565b505092915050565b60025460ff16156123e45760405162461bcd60e51b8152600401610551906141d4565b6002805460ff191660011790557f62e78cea01bee320cd4e420270b5ea74000d11b0c9f74754ebdbfc544b05a258611cc53390565b60006124408560a0015161243661242d3390565b8763ffffffff16565b8760600151612d18565b5060028501546124548686600184866133b5565b60005b856080015151811015612566576000600190506000808860600151905060006124a08a60800151868151811061248f5761248f6142e0565b60200260200101518a63ffffffff16565b604080518082019091526002815261313760f01b60208201529091506124d2906001600160a01b038316151590612c75565b841561253557600093506124eb6000828a63ffffffff16565b6000915061253560405180604001604052806002815260200161313760f01b8152506125206125173390565b8c63ffffffff16565b6001600160a01b038481169116141590612c75565b61254f8b600201828c60a00151600060018b8a8a8a612dea565b50505050808061255e9061424c565b915050612457565b5095945050505050565b612578613c7b565b82828154811061258a5761258a6142e0565b60009182526020909120604080516101408101909152600c909202018054829060a08201908390829060ff1660018111156125c7576125c7613ff5565b60018111156125d8576125d8613ff5565b81526001820154602080830191909152600283015460408084019190915260038401546060808501919091526004909401546080909301929092529284528051808301825260058601548152600686015481850152600786015481830152848401528051808201825260088601546001600160a01b0390811682526009870154168185015284820152600a85018054825181860281018601909352808352949092019390928301828280156126b657602002820191906000526020600020905b81546001600160a01b03168152600190910190602001808311612698575b50505050508152602001600b82015481525050905092915050565b6000806126ff85608001516000815181106126ee576126ee6142e0565b60200260200101518563ffffffff16565b60408051808201825260018152603160f81b6020808301919091526060890151600090815260038b0190915291909120549192506127429160ff161515906135e0565b6127558560a00151828760600151612d18565b6002860154915061279d61ffff8016866020015110604051806040016040528060018152602001600d60fa1b81525060008860200151111515612f119092919063ffffffff16565b6127ab8686600085876133b5565b6127ca86600201828760a0015160006001876001808d60600151612dea565b50949350505050565b61282d6040805160e0810182526000808252602080830182905282840182905260608301829052608083018290528351808501855282815280820183905260a084015283518085019094528184528301529060c082015290565b60008061283d8860020188612570565b9050600061284f335b8863ffffffff16565b6001600160a01b031663a85337d9896040518263ffffffff1660e01b815260040161287c91815260200190565b6101206040518083038186803b15801561289557600080fd5b505afa1580156128a9573d6000803e3d6000fd5b505050506040513d601f19601f820116820180604052508101906128cd91906145b2565b90506000806128df338a63ffffffff16565b604085810151519051633345906f60e01b81526001600160a01b039182166004820152911690633345906f9060240160606040518083038186803b15801561292657600080fd5b505afa15801561293a573d6000803e3d6000fd5b505050506040513d601f19601f8201168201806040525081019061295e919061465d565b92509250506129a183606001518383612977919061468b565b6040805180820190915260018152603560f81b602082015260608701511515929091101590612f11565b6040805160e08101825290850151516001600160a01b03168152602081016129c833612517565b6001600160a01b031681526000602080830182905260a080880151604080860191909152606080860185905281518083018352858152808501869052608080880191909152825180840184528b8601805182528d8701515182880152949097019690965290890184905288018390529190915286510151908601519197501415612a6a57612a5b8a60028a63ffffffff16565b612a6a8a60038963ffffffff16565b89612a78338b63ffffffff16565b9550612aa784600180612a8e338f63ffffffff16565b606089015160408b015151879594939291906000612e59565b50505050509550959350505050565b6115ee8160000151604051806060016040528060298152602001614902602991398051906020012083602001518460400151612afa8660a001518760c00151613600565b606087015160808801516040516001600160a01b0395861660248201529490931660448501526064840191909152608483015260a482015260c4015b60408051601f198184030181529190526020810180516001600160e01b03166001600160e01b031990931692909217909152613657565b6000806000612b7f8660020186612570565b9050612b8a33611819565b915060008151516001811115612ba257612ba2613ff5565b1415612bf657604080518082019091526002815261313560f01b6020820152606082015151612bd691600190911490612c75565b6020808201515160009081526003880190915260409020805460ff191690555b60018151516001811115612c0c57612c0c613ff5565b1415612c41576040805180820182526002815261313560f01b6020808301919091528301518051920151612c41921490612c75565b602081015151604082015151612c66916001600160a01b0390911690849060016136a0565b60200151519590945092505050565b80826106235760405162461bcd60e51b815260040161055191906146ce565b60405163a85337d960e01b8152600481018390526000906001600160a01b0383169063a85337d9906024016101206040518083038186803b158015612cd857600080fd5b505afa158015612cec573d6000803e3d6000fd5b505050506040513d601f19601f82011682018060405250810190612d1091906145b2565b519392505050565b604051633345906f60e01b81526001600160a01b0384811660048301526000918291851690633345906f9060240160606040518083038186803b158015612d5e57600080fd5b505afa158015612d72573d6000803e3d6000fd5b505050506040513d601f19601f82011682018060405250810190612d96919061465d565b92509250508181118015612db3575082612db0838361468b565b10155b612de35760405162461bcd60e51b81526020600482015260016024820152603360f81b6044820152606401610551565b5050505050565b612e4e604051806101200160405280612e048c888d6136d8565b815260006020820181905260408201819052606082018190526080820181905260a0820181905286151560c0830152600160e083015261010090910152859087858c868d8d612e59565b505050505050505050565b612eb98463c61df33060e01b8989898d898989604051602401612e829796959493929190614763565b60408051601f198184030181529190526020810180516001600160e01b03166001600160e01b03199093169290921790915261375e565b5050505050505050565b612de3846040518060600160405280602781526020016148db6027913980516020909101206040516001600160a01b0380871660248301528716604482015260648101859052608401612b36565b828015612f1b5750815b81906109b45760405162461bcd60e51b815260040161055191906146ce565b6000806402540be40083600001516103e8856020015161ffff166402540be400612f6491906147b4565b612f6e91906147f7565b64ffffffffff16612f7f919061463e565b612f89919061481b565b8351909250612f989083614234565b9050915091565b6000806000612fb684600001518560200151613831565b9050836060015181612fc8919061463e565b915061301084608001518310156040518060400160405280601781526020017f496e73756666696369656e7420436f6c6c61746572616c000000000000000000815250612c75565b83606001518460800151613024919061481b565b90506000846080015183606461303a919061463e565b613044919061481b565b905061307b85604001518210156040518060400160405280600c81526020016b526174696f206973206c6f7760a01b815250612c75565b61308e85600001518660200151846138b8565b509392505050565b6000806000856002018560200151815481106130b4576130b46142e0565b90600052602060002090600c020160050160020181905550836000015191506000826001600160a01b031663a85337d986602001516040518263ffffffff1660e01b815260040161310791815260200190565b6101206040518083038186803b15801561312057600080fd5b505afa158015613134573d6000803e3d6000fd5b505050506040513d601f19601f8201168201806040525081019061315891906145b2565b805186519093509091506001600160a01b0316613178338663ffffffff16565b6001600160a01b0316146131ea57604081015161319790610e10614234565b4211156131ea576131bb8660020186602001516131b46128463390565b6001611715565b6131c433611819565b92506131e3838660a00151604001516000015187602001518487613916565b8051925090505b6000808660a00151602001516040015190508660a0015160600151600081518110613217576132176142e0565b60200260200101516001600160a01b0316856001600160a01b031614156132415760019150613297565b866060015187604001516132559190614234565b60a08801516040808201516020808201518d5491909401519092015160608c01519151949550613297946001600160a01b0390811694938b9391169190613abf565b61333e604051806101200160405280856000015181526020018960a0015160000151608001516132c44290565b6132ce9190614234565b8152602001600081526020018960400151815260200160008152602001896080015181526020018560c00151151581526020016001151581526020016001151581525060018488858c60a00151604001516000015160008e60200151612e5990979695949392919063ffffffff16565b87600201876020015181548110613357576133576142e0565b6000918252602082206002600c90920201018054916133758361424c565b9190505550505050935093915050565b6133ac8663a609d7ae60e01b898888888888604051602401612e829695949392919061482f565b50505050505050565b6133ff60008560800151511160ff8016866020015110604051806040016040528060018152602001600d60fa1b81525060008860200151111515613b06909392919063ffffffff16565b600285018054600190810182556000919091526040805160a08101909152908190859081111561343157613431613ff5565b8152602001856000015181526020016000815260200185604001518152602001856020015162015180613464919061463e565b81525085600201838154811061347c5761347c6142e0565b600091825260209091208251600c909202018054909190829060ff1916600183818111156134ac576134ac613ff5565b021790555060208201518160010155604082015181600201556060820151816003015560808201518160040155905050604051806060016040528085606001518152602001600081526020018560600151815250856002018381548110613515576135156142e0565b90600052602060002090600c020160050160008201518160000155602082015181600101556040820151816002015590505060405180604001604052808560a001516001600160a01b0316815260200160006001600160a01b0316815250856002018381548110613588576135886142e0565b600091825260208083208451600c93909302016008810180546001600160a01b03199081166001600160a01b0395861617909155949091015160099091018054909416911617909155612de390839063ffffffff8416565b8082156106235760405162461bcd60e51b815260040161055191906146ce565b80516020808401518451918401516000936402540be400938493919261362790859061463e565b613631919061481b565b61363b919061463e565b613645919061463e565b61364f919061481b565b949350505050565b606061369983836040518060400160405280601e81526020017f416464726573733a206c6f772d6c6576656c2063616c6c206661696c65640000815250613b38565b9392505050565b6040516001600160a01b03851660248201526044810183905281151560648201526109b490849063a009288760e01b90608401612e82565b60008383815481106136ec576136ec6142e0565b90600052602060002090600c0201600a01805490509050838381548110613715576137156142e0565b60009182526020808320600c92909202909101600a01805460018101825590835291200180546001600160a01b0319166001600160a01b03939093169290921790915592915050565b60006137b3826040518060400160405280601f81526020017f5361666543616c6c3a206c6f772d6c6576656c2063616c6c206661696c656400815250856001600160a01b0316613b389092919063ffffffff16565b80519091501561062357808060200190518101906137d19190614277565b6106235760405162461bcd60e51b815260206004820152602b60248201527f5361666543616c6c3a204163636f756e74206f7065726174696f6e206469642060448201526a1b9bdd081cdd58d8d9595960aa1b6064820152608401610551565b604051636ff96d1760e01b81526001600160a01b0382811660048301526000918291851690636ff96d179060240160606040518083038186803b15801561387757600080fd5b505afa15801561388b573d6000803e3d6000fd5b505050506040513d601f19601f820116820180604052508101906138af91906148a2565b51949350505050565b604051631ecb713b60e11b81526001600160a01b03838116600483015260248201839052841690633d96e27690604401600060405180830381600087803b15801561390257600080fd5b505af11580156133ac573d6000803e3d6000fd5b61396b6040518061012001604052806000815260200160008152602001600081526020016000815260200160008152602001600081526020016000151581526020016000151581526020016000151581525090565b60405163a85337d960e01b8152600481018590526000906001600160a01b0388169063a85337d9906024016101206040518083038186803b1580156139af57600080fd5b505afa1580156139c3573d6000803e3d6000fd5b505050506040513d601f19601f820116820180604052508101906139e791906145b2565b805185518252808652604051630c61df3360e41b8152919350839250906001600160a01b0385169063c61df33090613a319088906001906000908c9082908f908290600401614763565b602060405180830381600087803b158015613a4b57600080fd5b505af1158015613a5f573d6000803e3d6000fd5b505050506040513d601f19601f82011682018060405250810190613a839190614277565b613ab45760405162461bcd60e51b8152602060048201526002602482015261032360f41b6044820152606401610551565b505095945050505050565b6040516001600160a01b0380881660248301528086166044830152841660648201526084810183905260a481018290526117a890869063a8d2fb9d60e01b9060c401612e82565b838015613b105750825b8015613b195750815b8190612de35760405162461bcd60e51b815260040161055191906146ce565b606061364f848460008585843b613b915760405162461bcd60e51b815260206004820152601d60248201527f416464726573733a2063616c6c20746f206e6f6e2d636f6e74726163740000006044820152606401610551565b600080866001600160a01b03168587604051613bad91906148be565b60006040518083038185875af1925050503d8060008114613bea576040519150601f19603f3d011682016040523d82523d6000602084013e613bef565b606091505b5091509150613bff828286613c0a565b979650505050505050565b60608315613c19575081613699565b825115613c295782518084602001fd5b8160405162461bcd60e51b815260040161055191906146ce565b6040518060a001604052806000815260200160006001600160a01b031681526020016000815260200160008152602001600081525090565b6040518060a00160405280613cb96040805160a081019091528060008152602001600081526020016000815260200160008152602001600081525090565b8152602001613ce260405180606001604052806000815260200160008152602001600081525090565b8152602001613d16604051806040016040528060006001600160a01b0316815260200160006001600160a01b031681525090565b815260200160608152602001600081525090565b600060208284031215613d3c57600080fd5b5035919050565b6001600160a01b038116811461113f57600080fd5b8035613d6381613d43565b919050565b803560ff81168114613d6357600080fd5b60008060008060808587031215613d8f57600080fd5b8435613d9a81613d43565b93506020850135613daa81613d43565b9250613db860408601613d68565b9150613dc660608601613d68565b905092959194509250565b803561ffff81168114613d6357600080fd5b634e487b7160e01b600052604160045260246000fd5b60405160a0810167ffffffffffffffff81118282101715613e1c57613e1c613de3565b60405290565b604051610120810167ffffffffffffffff81118282101715613e1c57613e1c613de3565b604051601f8201601f1916810167ffffffffffffffff81118282101715613e6f57613e6f613de3565b604052919050565b600067ffffffffffffffff821115613e9157613e91613de3565b5060051b60200190565b600080600080600060a08688031215613eb357600080fd5b613ebc86613d68565b94506020613ecb818801613dd1565b9450604087013567ffffffffffffffff811115613ee757600080fd5b8701601f81018913613ef857600080fd5b8035613f0b613f0682613e77565b613e46565b81815260059190911b8201830190838101908b831115613f2a57600080fd5b928401925b82841015613f51578335613f4281613d43565b82529284019290840190613f2f565b8097505050505050613f6560608701613d58565b949793965091946080013592915050565b600080600080600060a08688031215613f8e57600080fd5b613f9786613d68565b9450613fa560208701613d68565b9350613fb360408701613dd1565b9250606086013591506080860135613fca81613d43565b809150509295509295909350565b600060208284031215613fea57600080fd5b813561369981613d43565b634e487b7160e01b600052602160045260246000fd5b600081518084526020808501945080840160005b838110156140445781516001600160a01b03168752958201959082019060010161401f565b509495945050505050565b6000610180825180516002811061407657634e487b7160e01b600052602160045260246000fd5b80865250602081015160208601526040810151604086015260608101516060860152608081015160808601525060208301516140c960a08601828051825260208082015190830152604090810151910152565b50604083015180516001600160a01b03908116610100870152602082015116610120860152506060830151816101408601526141078286018261400b565b91505060808301516101608501528091505092915050565b6000602080830181845280855180835260408601915060408160051b870101925083870160005b8281101561417457603f1988860301845261416285835161404f565b94509285019290850190600101614146565b5092979650505050505050565b6000806000806080858703121561419757600080fd5b84356141a281613d43565b93506020850135925060408501356141b981613d43565b915060608501356141c981613d43565b939692955090935050565b60208082526010908201526f14185d5cd8589b194e881c185d5cd95960821b604082015260600190565b602080825260069082015265131bd8dad95960d21b604082015260600190565b634e487b7160e01b600052601160045260246000fd5b600082198211156142475761424761421e565b500190565b60006000198214156142605761426061421e565b5060010190565b80518015158114613d6357600080fd5b60006020828403121561428957600080fd5b61369982614267565b6020808252818101527f4f776e61626c653a2063616c6c6572206973206e6f7420746865206f776e6572604082015260600190565b82815260406020820152600061364f604083018461404f565b634e487b7160e01b600052603260045260246000fd5b60006060828403121561430857600080fd5b6040516060810181811067ffffffffffffffff8211171561432b5761432b613de3565b80604052508091508251815260208301516020820152604083015160408201525092915050565b60006040828403121561436457600080fd5b6040516040810181811067ffffffffffffffff8211171561438757614387613de3565b8060405250809150825161439a81613d43565b815260208301516143aa81613d43565b6020919091015292915050565b600082601f8301126143c857600080fd5b815160206143d8613f0683613e77565b82815260059290921b840181019181810190868411156143f757600080fd5b8286015b8481101561441b57805161440e81613d43565b83529183019183016143fb565b509695505050505050565b6000602080838503121561443957600080fd5b825167ffffffffffffffff8082111561445157600080fd5b818501915085601f83011261446557600080fd5b8151614473613f0682613e77565b81815260059190911b8301840190848101908883111561449257600080fd5b8585015b83811015614588578051858111156144ad57600080fd5b8601808b03601f1901610180808212156144c657600080fd5b6144ce613df9565b60a08312156144dc57600080fd5b6144e4613df9565b92508a840151600281106144f757600080fd5b8084525060408401518b84015260608401516040840152608080850151606085015260a0850151818501528382526145328f60c087016142f6565b8c8301526145448f6101208701614352565b604083015261016085015193508984111561455e57600080fd5b61456c8f8d868801016143b7565b6060830152919093015190830152508352918601918601614496565b5098975050505050505050565b6000602082840312156145a757600080fd5b815161369981613d43565b600061012082840312156145c557600080fd5b6145cd613e22565b825181526020830151602082015260408301516040820152606083015160608201526080830151608082015260a083015160a082015261460f60c08401614267565b60c082015261462060e08401614267565b60e0820152610100614633818501614267565b908201529392505050565b60008160001904831182151516156146585761465861421e565b500290565b60008060006060848603121561467257600080fd5b8351925060208401519150604084015190509250925092565b60008282101561469d5761469d61421e565b500390565b60005b838110156146bd5781810151838201526020016146a5565b838111156109b45750506000910152565b60208152600082518060208401526146ed8160408501602087016146a2565b601f01601f19169190910160400192915050565b805182526020810151602083015260408101516040830152606081015160608301526080810151608083015260a081015160a083015260c0810151151560c083015260e0810151151560e0830152610100808201516109b48285018215159052565b6101e08101614772828a614701565b9615156101208201529415156101408601526101608501939093526101808401919091526001600160a01b039081166101a0840152166101c090910152919050565b600064ffffffffff808316818516818304811182151516156147d8576147d861421e565b02949350505050565b634e487b7160e01b600052601260045260246000fd5b600064ffffffffff8084168061480f5761480f6147e1565b92169190910492915050565b60008261482a5761482a6147e1565b500490565b600060c08201888352602060018060a01b03808a168286015260c0604086015282895180855260e087019150838b01945060005b81811015614881578551841683529484019491840191600101614863565b505097166060850152505050608081019290925260a0909101529392505050565b6000606082840312156148b457600080fd5b61369983836142f6565b600082516148d08184602087016146a2565b919091019291505056fe756e6c6f636b416e645472616e7366657228616464726573732c616464726573732c75696e7429756e6c6f636b466f7228616464726573732c616464726573732c75696e742c75696e742c75696e7429a2646970667358221220cd62ac80aca88172c6459cc364a58a2aa7f1a23981325a8c35b842e3a0b4c0a664736f6c63430008090033",
  "deployedBytecode": "0x60806040526004361061016a5760003560e01c80638352248a116100d1578063a846c2fd1161008a578063dce0b4e411610064578063dce0b4e41461048f578063dd636dcb146104a5578063e2c6e438146104c5578063f2fde38b146104e557600080fd5b8063a846c2fd1461042d578063afa273921461044d578063c5c63e651461046d57600080fd5b80638352248a146103715780638456cb59146103955780638da5cb5b146103aa578063975ab8b5146103cd578063a41c74a2146103ed578063a67f11501461040d57600080fd5b80635c975abb116101235780635c975abb146102b457806362eb33e3146102cc5780636c92fdff146102fc5780636d0406fd1461031c578063715018a61461033c5780637b6a6f4a1461035157600080fd5b8063119493521461018c5780631824cdab146101c15780631a055c1a146101e15780633f4ba83a14610247578063415f12401461025c578063481c6a751461027c57600080fd5b3661018757600354610185906001600160a01b031634610505565b005b600080fd5b34801561019857600080fd5b506101ac6101a7366004613d2a565b610628565b60405190151581526020015b60405180910390f35b3480156101cd57600080fd5b506101856101dc366004613d2a565b610848565b3480156101ed57600080fd5b506102016101fc366004613d2a565b61087d565b6040516101b89190815181526020808301516001600160a01b03169082015260408083015190820152606080830151908201526080918201519181019190915260a00190565b34801561025357600080fd5b50610185610896565b34801561026857600080fd5b506101ac610277366004613d2a565b6108d0565b34801561028857600080fd5b5060095461029c906001600160a01b031681565b6040516001600160a01b0390911681526020016101b8565b3480156102c057600080fd5b5060025460ff166101ac565b3480156102d857600080fd5b50600a54600b546102e7919082565b604080519283526020830191909152016101b8565b34801561030857600080fd5b50610185610317366004613d79565b610976565b34801561032857600080fd5b506101ac610337366004613d2a565b6109ba565b34801561034857600080fd5b50610185610aec565b34801561035d57600080fd5b506101ac61036c366004613d2a565b610b6c565b34801561037d57600080fd5b5061038760085481565b6040519081526020016101b8565b3480156103a157600080fd5b50610185610c6b565b3480156103b657600080fd5b5060025461010090046001600160a01b031661029c565b3480156103d957600080fd5b506101ac6103e8366004613e9b565b610ca3565b3480156103f957600080fd5b506101ac610408366004613f76565b610e9f565b34801561041957600080fd5b50610185610428366004613fd8565b6110e2565b34801561043957600080fd5b506101ac610448366004613d2a565b611142565b34801561045957600080fd5b506101ac610468366004613d2a565b611253565b34801561047957600080fd5b5061048261132c565b6040516101b8919061411f565b34801561049b57600080fd5b5061038760075481565b3480156104b157600080fd5b506101856104c0366004614181565b6113bb565b3480156104d157600080fd5b506101ac6104e0366004613fd8565b6114aa565b3480156104f157600080fd5b50610185610500366004613fd8565b6114cb565b8047101561055a5760405162461bcd60e51b815260206004820152601d60248201527f416464726573733a20696e73756666696369656e742062616c616e636500000060448201526064015b60405180910390fd5b6000826001600160a01b03168260405160006040518083038185875af1925050503d80600081146105a7576040519150601f19603f3d011682016040523d82523d6000602084013e6105ac565b606091505b50509050806106235760405162461bcd60e51b815260206004820152603a60248201527f416464726573733a20756e61626c6520746f2073656e642076616c75652c207260448201527f6563697069656e74206d617920686176652072657665727465640000000000006064820152608401610551565b505050565b600061063660025460ff1690565b156106535760405162461bcd60e51b8152600401610551906141d4565b8161065f6005826115c7565b33600061066c81836115f2565b8461067633611682565b6000610683600589611700565b6106906005858585611715565b886000600161069f83836117b0565b60018111156106b0576106b0613ff5565b146106cd5760405162461bcd60e51b8152600401610551906141fe565b6000806106de60058e6116826117fd565b91509150816020015160000151600a60000160008282546106ff9190614234565b9091555050600b80549060006107148361424c565b909155505081516020015160608301515114156107d8576107368d6000611a89565b6107418d6001611aed565b60405163fd9e2c7560e01b8152600481018e90526001600160a01b0382169063fd9e2c7590602401602060405180830381600087803b15801561078357600080fd5b505af1158015610797573d6000803e3d6000fd5b505050506040513d601f19601f820116820180604052508101906107bb9190614277565b6107d85760405163312d207360e11b815260040160405180910390fd5b7fd5b030fc17ee555aeea484ceb134047c9d82176003282c85150c3b2552c6ef668d8284602001516000015160405161082d939291909283526001600160a01b03919091166020830152604082015260600190565b60405180910390a15060019c9b505050505050505050505050565b6002546001600160a01b036101009091041633146108785760405162461bcd60e51b815260040161055190614292565b600855565b610885613c43565b610890600583611b11565b92915050565b6002546001600160a01b036101009091041633146108c65760405162461bcd60e51b815260040161055190614292565b6108ce611c4f565b565b60006108de60025460ff1690565b156108fb5760405162461bcd60e51b8152600401610551906141d4565b33600061090881836115f2565b60008061091a60038733611682611ce2565b91509150816001600160a01b03167f3405603dcaff85cd7eb7be9617f5882858840df7163cb04ba8226794579c65dc8783604051610962929190918252602082015260400190565b60405180910390a250600195945050505050565b6002546001600160a01b036101009091041633146109a65760405162461bcd60e51b815260040161055190614292565b6109b4600385858585611f39565b50505050565b60006109c860025460ff1690565b156109e55760405162461bcd60e51b8152600401610551906141d4565b816109f16005826115c7565b3360006109fe81836115f2565b84610a0833611682565b6001610a15600589611700565b610a226005858585611715565b88600180610a3083836117b0565b6001811115610a4157610a41613ff5565b14610a5e5760405162461bcd60e51b8152600401610551906141fe565b600080610a9b60405180608001604052808f8152602001611a898152602001611682815260200161204e815250600361205990919063ffffffff16565b915091507f7513297b7cd4a3240c276ac0cf06d892fdeab44c9db7e7f75d84b53bbb3952978d828460405161082d9392919092835260208301919091526001600160a01b0316604082015260600190565b6002546001600160a01b03610100909104163314610b1c5760405162461bcd60e51b815260040161055190614292565b60025460405160009161010090046001600160a01b0316907f8be0079c531659141344cd1fd0a4f28419497f9722a3daafe3b4186f6b6457e0908390a360028054610100600160a81b0319169055565b6000610b7a60025460ff1690565b15610b975760405162461bcd60e51b8152600401610551906141d4565b8160036001610ba683836117b0565b6001811115610bb757610bb7613ff5565b14610bd45760405162461bcd60e51b8152600401610551906141fe565b83610be06005826115c7565b336000610bed81836115f2565b86610bf733611682565b6001610c0460058b611700565b610c116005858585611715565b6000610c1e60038d61227e565b90507f7bf5ec087e59d009c52568ffb8ba5b5aff0e6dcf4fc450fefb7f76a35f355fc68c82604051610c519291906142c7565b60405180910390a15060019b9a5050505050505050505050565b6002546001600160a01b03610100909104163314610c9b5760405162461bcd60e51b815260040161055190614292565b6108ce6123c1565b6000610cb160025460ff1690565b15610cce5760405162461bcd60e51b8152600401610551906141d4565b835160ff8116610cf15760405163b4fa3fb360e01b815260040160405180910390fd5b60ff8181161115610d155760405163b4fa3fb360e01b815260040160405180910390fd5b336000610d2281836115f2565b6001600160a01b038616600090815260208190526040902054869060ff16610d7c5760405162461bcd60e51b815260206004820152600d60248201526c139bdd081cdd5c1c1bdc9d1959609a1b6044820152606401610551565b87600180825111610da05760405163284422c160e11b815260040160405180910390fd5b336001600160a01b031682600081518110610dbd57610dbd6142e0565b60200260200101516001600160a01b031614610e005760405162461bcd60e51b8152602060048201526002602482015261313960f01b6044820152606401610551565b6000610e626040518060c001604052808d5160ff1681526020018f60ff1681526020018e61ffff1681526020018b81526020018d81526020018c6001600160a01b03168152506116826115f2611aed600361241990949392919063ffffffff16565b90507f5ea8463ece75b8f78435f79664ded6cfa9c137aae4d757d6ae49b825d13b8f4681610e91600582612570565b60405161082d9291906142c7565b6000610ead60025460ff1690565b15610eca5760405162461bcd60e51b8152600401610551906141d4565b8560ff8116610eec5760405163b4fa3fb360e01b815260040160405180910390fd5b60ff8181161115610f105760405163b4fa3fb360e01b815260040160405180910390fd5b336000610f1d81836115f2565b6001600160a01b038516600090815260208190526040902054859060ff16610f775760405162461bcd60e51b815260206004820152600d60248201526c139bdd081cdd5c1c1bdc9d1959609a1b6044820152606401610551565b604080516001808252818301909252600091602080830190803683370190505090503381600081518110610fad57610fad6142e0565b60200260200101906001600160a01b031690816001600160a01b031681525050600061102a6040518060c001604052808e60ff1681526020018d60ff1681526020018c61ffff1681526020018b81526020018481526020018a6001600160a01b0316815250611682611aed60036126d1909392919063ffffffff16565b6004549091506001600160a01b03161580159061105157506003546001600160a01b031615155b801561106757506009546001600160a01b031615155b6110a75760405162461bcd60e51b81526020600482015260116024820152701059191c995cdcd95cc81b9bdd081cd95d607a1b6044820152606401610551565b7f5ea8463ece75b8f78435f79664ded6cfa9c137aae4d757d6ae49b825d13b8f46816110d4600582612570565b604051610c519291906142c7565b6002546001600160a01b036101009091041633146111125760405162461bcd60e51b815260040161055190614292565b61113f816001600160a01b03166000908152602081905260409020805460ff19811660ff90911615179055565b50565b600061115060025460ff1690565b1561116d5760405162461bcd60e51b8152600401610551906141d4565b33600061117a81836115f2565b836111866005826115c7565b8461119033611682565b600161119d600589611700565b6111aa6005858585611715565b6000806111c160038c611682611a89611aed6127d3565b60408051808201909152600a548152600b54602082015260a0830181905291935091506111ed83612ab6565b816001600160a01b03167f3405603dcaff85cd7eb7be9617f5882858840df7163cb04ba8226794579c65dc8d8560c0015160200151604051611239929190918252602082015260400190565b60405180910390a25060019b9a5050505050505050505050565b600061126160025460ff1690565b1561127e5760405162461bcd60e51b8152600401610551906141d4565b8161128a6005826115c7565b33600061129781836115f2565b846112a133611682565b60016112ae600589611700565b6112bb6005858585611715565b6000806112cc60038c611682612b6d565b604080518e8152602081018490526001600160a01b0383168183015290519294509092507f57abe708ed2b51bf4f5fd0a2957491b08282e0e509ec1bdda72cd5b2573fb39d919081900360600190a15060019a9950505050505050505050565b60405163649c7e5b60e01b81526003600482015260609073__$2c022547ef4f001d9ea8218c177314c832$__9063649c7e5b9060240160006040518083038186803b15801561137a57600080fd5b505af415801561138e573d6000803e3d6000fd5b505050506040513d6000823e601f3d908101601f191682016040526113b69190810190614426565b905090565b6002546001600160a01b036101009091041633146113eb5760405162461bcd60e51b815260040161055190614292565b8382826001600160a01b0383161580159061140e57506001600160a01b03821615155b801561142257506001600160a01b03811615155b6114625760405162461bcd60e51b81526020600482015260116024820152701059191c995cdcd95cc81b9bdd081cd95d607a1b6044820152606401610551565b5050600480546001600160a01b039687166001600160a01b03199182161790915560038054948716948216949094179093555060089290925560098054929093169116179055565b6001600160a01b03811660009081526020819052604081205460ff16610890565b6002546001600160a01b036101009091041633146114fb5760405162461bcd60e51b815260040161055190614292565b6001600160a01b0381166115605760405162461bcd60e51b815260206004820152602660248201527f4f776e61626c653a206e6577206f776e657220697320746865207a65726f206160448201526564647265737360d01b6064820152608401610551565b6002546040516001600160a01b0380841692610100900416907f8be0079c531659141344cd1fd0a4f28419497f9722a3daafe3b4186f6b6457e090600090a3600280546001600160a01b0390921661010002610100600160a81b0319909216919091179055565b6040805180820190915260018152603960f81b602082015282546115ee9190831090612c75565b5050565b8161163d57600061160282611682565b6001600160a01b031614156115ee5760405162461bcd60e51b81526020600482015260016024820152601960f91b6044820152606401610551565b600061164882611682565b6001600160a01b0316146115ee5760405162461bcd60e51b81526020600482015260016024820152603160f81b6044820152606401610551565b60095460405163fbcbc0f160e01b81526001600160a01b038381166004830152600092169063fbcbc0f19060240160206040518083038186803b1580156116c857600080fd5b505afa1580156116dc573d6000803e3d6000fd5b505050506040513d601f19601f820116820180604052508101906108909190614595565b600061170c8383612570565b51519392505050565b60006117218484612c94565b90506000836001600160a01b0316868681548110611741576117416142e0565b90600052602060002090600c0201600a018381548110611763576117636142e0565b600091825260209182902001546040805180820190915260018152603760f81b928101929092526001600160a01b03169190911491506117a890841515831490612c75565b505050505050565b6000828152600160205260408120818360038111156117d1576117d1613ff5565b60038111156117e2576117e2613ff5565b815260208101919091526040016000205460ff169392505050565b611805613c7b565b6000806118128686612570565b9050611822335b8563ffffffff16565b60408201515160208301515191935061183c918490612d18565b611879604051806040016040528060018152602001603560f81b815250826000015160200151836060015151101515612c7590919063ffffffff16565b6001815151600181111561188f5761188f613ff5565b14156118fd576118fd604051806040016040528060018152602001603760f81b815250836001600160a01b031683606001516118cb8987612c94565b815181106118db576118db6142e0565b60200260200101516001600160a01b0316141515612c7590919063ffffffff16565b61193e86838360400151600001518460600151600081518110611922576119226142e0565b602002602001015160008a600080896020015160000151612dea565b8060600151600081518110611955576119556142e0565b602090810291909101810151604080840151519284015151905163a009288760e01b81526001600160a01b03938416600482015260248101919091526001604482015291169063a009288790606401602060405180830381600087803b1580156119be57600080fd5b505af11580156119d2573d6000803e3d6000fd5b505050506040513d601f19601f820116820180604052508101906119f69190614277565b611a305760405162461bcd60e51b815260206004820152600b60248201526a14dd588e8811985a5b195960aa1b6044820152606401610551565b806020015160000151868681548110611a4b57611a4b6142e0565b90600052602060002090600c02016005016002016000828254611a6e9190614234565b90915550611a7e90508686612570565b925050935093915050565b600082815260016020526040812081836003811115611aaa57611aaa613ff5565b6003811115611abb57611abb613ff5565b81526020810191909152604001600020805460ff191660018381811115611ae457611ae4613ff5565b02179055505050565b600082815260016020819052604082209091836003811115611aaa57611aaa613ff5565b611b19613c43565b6000611b258484612570565b905060008160400151602001516001600160a01b031663a85337d9856040518263ffffffff1660e01b8152600401611b5f91815260200190565b6101206040518083038186803b158015611b7857600080fd5b505afa158015611b8c573d6000803e3d6000fd5b505050506040513d601f19601f82011682018060405250810190611bb091906145b2565b90508060200151611bbe4290565b11611bfd576040518060a001604052806000815260200160006001600160a01b0316815260200160008152602001600081526020016000815250611c46565b6040518060a00160405280826000015181526020018360400151602001516001600160a01b0316815260200182602001518152602001826060015181526020018260a001518152505b95945050505050565b60025460ff16611c985760405162461bcd60e51b815260206004820152601460248201527314185d5cd8589b194e881b9bdd081c185d5cd95960621b6044820152606401610551565b6002805460ff191690557f5db9ee0a495bf2e6ff9c91a7834c1ba4fdd244a5e8aa4e537bd38aeae4b073aa335b6040516001600160a01b03909116815260200160405180910390a1565b6000806000611cf48760020187611b11565b90506000611d05868663ffffffff16565b9050816020015193506000846001600160a01b031663a85337d9896040518263ffffffff1660e01b8152600401611d3e91815260200190565b6101206040518083038186803b158015611d5757600080fd5b505afa158015611d6b573d6000803e3d6000fd5b505050506040513d601f19601f82011682018060405250810190611d8f91906145b2565b90506001600160a01b038516611dcc5760405162461bcd60e51b8152602060048201526002602482015261313160f01b6044820152606401610551565b6000611ddb8a6002018a612570565b60400151600001519050611df481848660600151612d18565b60006060830152604051634ceb685b60e01b8152600481018a90528995506001600160a01b03871690634ceb685b90602401602060405180830381600087803b158015611e4057600080fd5b505af1158015611e54573d6000803e3d6000fd5b505050506040513d601f19601f82011682018060405250810190611e789190614277565b611ea95760405162461bcd60e51b8152602060048201526002602482015261032360f41b6044820152606401610551565b6060840151611ec5908690849060019081908890876000612e59565b828a6002018a81548110611edb57611edb6142e0565b60009182526020909120600c9091020160090180546001600160a01b0319166001600160a01b03928316179055606083015160a084015160018d0154919750611f2c92919091169085908990612ec3565b5050505094509492505050565b6001600160a01b038416611f6b57604051633202e20d60e21b81526001600160a01b0385166004820152602401610551565b6001600160a01b038316611f9d57604051633202e20d60e21b81526001600160a01b0384166004820152602401610551565b604080518082019091526002815261313960f01b6020820152611fcf9060ff8481168111918482169190911090612f11565b604080516080810182526001600160a01b03958616808252949095166020860181905260ff93841691860182905291909216606090940184905284546001600160a01b0319169092178455600190930180546001600160a81b031916909117600160a01b9093029290921760ff60a81b1916600160a81b909102179055565b66038d7ea4c6800090565b60008061207383600001516001856020015163ffffffff16565b6000612086856002018560000151612570565b805160200151608082015191925014156120b35760405163d77e83a360e01b815260040160405180910390fd5b6120fd604051806040016040528060018152602001600d60fa1b8152508260000151602001518360200151600001516120ec919061463e565b602084015160400151101590612c75565b6040805180820182526020838101519092015181526001870154600160a81b900460ff1691810191909152600090819061213690612f3a565b91509150612233876040518060c00160405280866060015187600001516040015181518110612167576121676142e0565b60200260200101516001600160a01b03168152602001896000015181526020018481526020018581526020016122216040518060a001604052808d60000160010160009054906101000a90046001600160a01b03166001600160a01b031681526020016121e16121d43390565b8e6040015163ffffffff16565b6001600160a01b03168152602001896000015160600151815260200161220d8d6060015163ffffffff16565b815260208a81015160400151910152612f9f565b81526020018690526040890151613096565b875160028a01805493985091965090918110612251576122516142e0565b600091825260208220600b600c909202010180549161226f8361424c565b91905055505050509250929050565b612286613c7b565b6122938360020183612570565b604080518082019091526002815261189b60f11b6020808301919091528251015160808301519293506122c7921490612c75565b604081015160200151600082515160018111156122e6576122e6613ff5565b141561230c576020808301515160009081526003860190915260409020805460ff191690555b6040828101515160608401518654602086015151935163a85337d960e01b81526004810188905287946123b9948794909390926001600160a01b03918216929186169063a85337d9906024016101206040518083038186803b15801561237157600080fd5b505afa158015612385573d6000803e3d6000fd5b505050506040513d601f19601f820116820180604052508101906123a991906145b2565b6060015187959493929190613385565b505092915050565b60025460ff16156123e45760405162461bcd60e51b8152600401610551906141d4565b6002805460ff191660011790557f62e78cea01bee320cd4e420270b5ea74000d11b0c9f74754ebdbfc544b05a258611cc53390565b60006124408560a0015161243661242d3390565b8763ffffffff16565b8760600151612d18565b5060028501546124548686600184866133b5565b60005b856080015151811015612566576000600190506000808860600151905060006124a08a60800151868151811061248f5761248f6142e0565b60200260200101518a63ffffffff16565b604080518082019091526002815261313760f01b60208201529091506124d2906001600160a01b038316151590612c75565b841561253557600093506124eb6000828a63ffffffff16565b6000915061253560405180604001604052806002815260200161313760f01b8152506125206125173390565b8c63ffffffff16565b6001600160a01b038481169116141590612c75565b61254f8b600201828c60a00151600060018b8a8a8a612dea565b50505050808061255e9061424c565b915050612457565b5095945050505050565b612578613c7b565b82828154811061258a5761258a6142e0565b60009182526020909120604080516101408101909152600c909202018054829060a08201908390829060ff1660018111156125c7576125c7613ff5565b60018111156125d8576125d8613ff5565b81526001820154602080830191909152600283015460408084019190915260038401546060808501919091526004909401546080909301929092529284528051808301825260058601548152600686015481850152600786015481830152848401528051808201825260088601546001600160a01b0390811682526009870154168185015284820152600a85018054825181860281018601909352808352949092019390928301828280156126b657602002820191906000526020600020905b81546001600160a01b03168152600190910190602001808311612698575b50505050508152602001600b82015481525050905092915050565b6000806126ff85608001516000815181106126ee576126ee6142e0565b60200260200101518563ffffffff16565b60408051808201825260018152603160f81b6020808301919091526060890151600090815260038b0190915291909120549192506127429160ff161515906135e0565b6127558560a00151828760600151612d18565b6002860154915061279d61ffff8016866020015110604051806040016040528060018152602001600d60fa1b81525060008860200151111515612f119092919063ffffffff16565b6127ab8686600085876133b5565b6127ca86600201828760a0015160006001876001808d60600151612dea565b50949350505050565b61282d6040805160e0810182526000808252602080830182905282840182905260608301829052608083018290528351808501855282815280820183905260a084015283518085019094528184528301529060c082015290565b60008061283d8860020188612570565b9050600061284f335b8863ffffffff16565b6001600160a01b031663a85337d9896040518263ffffffff1660e01b815260040161287c91815260200190565b6101206040518083038186803b15801561289557600080fd5b505afa1580156128a9573d6000803e3d6000fd5b505050506040513d601f19601f820116820180604052508101906128cd91906145b2565b90506000806128df338a63ffffffff16565b604085810151519051633345906f60e01b81526001600160a01b039182166004820152911690633345906f9060240160606040518083038186803b15801561292657600080fd5b505afa15801561293a573d6000803e3d6000fd5b505050506040513d601f19601f8201168201806040525081019061295e919061465d565b92509250506129a183606001518383612977919061468b565b6040805180820190915260018152603560f81b602082015260608701511515929091101590612f11565b6040805160e08101825290850151516001600160a01b03168152602081016129c833612517565b6001600160a01b031681526000602080830182905260a080880151604080860191909152606080860185905281518083018352858152808501869052608080880191909152825180840184528b8601805182528d8701515182880152949097019690965290890184905288018390529190915286510151908601519197501415612a6a57612a5b8a60028a63ffffffff16565b612a6a8a60038963ffffffff16565b89612a78338b63ffffffff16565b9550612aa784600180612a8e338f63ffffffff16565b606089015160408b015151879594939291906000612e59565b50505050509550959350505050565b6115ee8160000151604051806060016040528060298152602001614902602991398051906020012083602001518460400151612afa8660a001518760c00151613600565b606087015160808801516040516001600160a01b0395861660248201529490931660448501526064840191909152608483015260a482015260c4015b60408051601f198184030181529190526020810180516001600160e01b03166001600160e01b031990931692909217909152613657565b6000806000612b7f8660020186612570565b9050612b8a33611819565b915060008151516001811115612ba257612ba2613ff5565b1415612bf657604080518082019091526002815261313560f01b6020820152606082015151612bd691600190911490612c75565b6020808201515160009081526003880190915260409020805460ff191690555b60018151516001811115612c0c57612c0c613ff5565b1415612c41576040805180820182526002815261313560f01b6020808301919091528301518051920151612c41921490612c75565b602081015151604082015151612c66916001600160a01b0390911690849060016136a0565b60200151519590945092505050565b80826106235760405162461bcd60e51b815260040161055191906146ce565b60405163a85337d960e01b8152600481018390526000906001600160a01b0383169063a85337d9906024016101206040518083038186803b158015612cd857600080fd5b505afa158015612cec573d6000803e3d6000fd5b505050506040513d601f19601f82011682018060405250810190612d1091906145b2565b519392505050565b604051633345906f60e01b81526001600160a01b0384811660048301526000918291851690633345906f9060240160606040518083038186803b158015612d5e57600080fd5b505afa158015612d72573d6000803e3d6000fd5b505050506040513d601f19601f82011682018060405250810190612d96919061465d565b92509250508181118015612db3575082612db0838361468b565b10155b612de35760405162461bcd60e51b81526020600482015260016024820152603360f81b6044820152606401610551565b5050505050565b612e4e604051806101200160405280612e048c888d6136d8565b815260006020820181905260408201819052606082018190526080820181905260a0820181905286151560c0830152600160e083015261010090910152859087858c868d8d612e59565b505050505050505050565b612eb98463c61df33060e01b8989898d898989604051602401612e829796959493929190614763565b60408051601f198184030181529190526020810180516001600160e01b03166001600160e01b03199093169290921790915261375e565b5050505050505050565b612de3846040518060600160405280602781526020016148db6027913980516020909101206040516001600160a01b0380871660248301528716604482015260648101859052608401612b36565b828015612f1b5750815b81906109b45760405162461bcd60e51b815260040161055191906146ce565b6000806402540be40083600001516103e8856020015161ffff166402540be400612f6491906147b4565b612f6e91906147f7565b64ffffffffff16612f7f919061463e565b612f89919061481b565b8351909250612f989083614234565b9050915091565b6000806000612fb684600001518560200151613831565b9050836060015181612fc8919061463e565b915061301084608001518310156040518060400160405280601781526020017f496e73756666696369656e7420436f6c6c61746572616c000000000000000000815250612c75565b83606001518460800151613024919061481b565b90506000846080015183606461303a919061463e565b613044919061481b565b905061307b85604001518210156040518060400160405280600c81526020016b526174696f206973206c6f7760a01b815250612c75565b61308e85600001518660200151846138b8565b509392505050565b6000806000856002018560200151815481106130b4576130b46142e0565b90600052602060002090600c020160050160020181905550836000015191506000826001600160a01b031663a85337d986602001516040518263ffffffff1660e01b815260040161310791815260200190565b6101206040518083038186803b15801561312057600080fd5b505afa158015613134573d6000803e3d6000fd5b505050506040513d601f19601f8201168201806040525081019061315891906145b2565b805186519093509091506001600160a01b0316613178338663ffffffff16565b6001600160a01b0316146131ea57604081015161319790610e10614234565b4211156131ea576131bb8660020186602001516131b46128463390565b6001611715565b6131c433611819565b92506131e3838660a00151604001516000015187602001518487613916565b8051925090505b6000808660a00151602001516040015190508660a0015160600151600081518110613217576132176142e0565b60200260200101516001600160a01b0316856001600160a01b031614156132415760019150613297565b866060015187604001516132559190614234565b60a08801516040808201516020808201518d5491909401519092015160608c01519151949550613297946001600160a01b0390811694938b9391169190613abf565b61333e604051806101200160405280856000015181526020018960a0015160000151608001516132c44290565b6132ce9190614234565b8152602001600081526020018960400151815260200160008152602001896080015181526020018560c00151151581526020016001151581526020016001151581525060018488858c60a00151604001516000015160008e60200151612e5990979695949392919063ffffffff16565b87600201876020015181548110613357576133576142e0565b6000918252602082206002600c90920201018054916133758361424c565b9190505550505050935093915050565b6133ac8663a609d7ae60e01b898888888888604051602401612e829695949392919061482f565b50505050505050565b6133ff60008560800151511160ff8016866020015110604051806040016040528060018152602001600d60fa1b81525060008860200151111515613b06909392919063ffffffff16565b600285018054600190810182556000919091526040805160a08101909152908190859081111561343157613431613ff5565b8152602001856000015181526020016000815260200185604001518152602001856020015162015180613464919061463e565b81525085600201838154811061347c5761347c6142e0565b600091825260209091208251600c909202018054909190829060ff1916600183818111156134ac576134ac613ff5565b021790555060208201518160010155604082015181600201556060820151816003015560808201518160040155905050604051806060016040528085606001518152602001600081526020018560600151815250856002018381548110613515576135156142e0565b90600052602060002090600c020160050160008201518160000155602082015181600101556040820151816002015590505060405180604001604052808560a001516001600160a01b0316815260200160006001600160a01b0316815250856002018381548110613588576135886142e0565b600091825260208083208451600c93909302016008810180546001600160a01b03199081166001600160a01b0395861617909155949091015160099091018054909416911617909155612de390839063ffffffff8416565b8082156106235760405162461bcd60e51b815260040161055191906146ce565b80516020808401518451918401516000936402540be400938493919261362790859061463e565b613631919061481b565b61363b919061463e565b613645919061463e565b61364f919061481b565b949350505050565b606061369983836040518060400160405280601e81526020017f416464726573733a206c6f772d6c6576656c2063616c6c206661696c65640000815250613b38565b9392505050565b6040516001600160a01b03851660248201526044810183905281151560648201526109b490849063a009288760e01b90608401612e82565b60008383815481106136ec576136ec6142e0565b90600052602060002090600c0201600a01805490509050838381548110613715576137156142e0565b60009182526020808320600c92909202909101600a01805460018101825590835291200180546001600160a01b0319166001600160a01b03939093169290921790915592915050565b60006137b3826040518060400160405280601f81526020017f5361666543616c6c3a206c6f772d6c6576656c2063616c6c206661696c656400815250856001600160a01b0316613b389092919063ffffffff16565b80519091501561062357808060200190518101906137d19190614277565b6106235760405162461bcd60e51b815260206004820152602b60248201527f5361666543616c6c3a204163636f756e74206f7065726174696f6e206469642060448201526a1b9bdd081cdd58d8d9595960aa1b6064820152608401610551565b604051636ff96d1760e01b81526001600160a01b0382811660048301526000918291851690636ff96d179060240160606040518083038186803b15801561387757600080fd5b505afa15801561388b573d6000803e3d6000fd5b505050506040513d601f19601f820116820180604052508101906138af91906148a2565b51949350505050565b604051631ecb713b60e11b81526001600160a01b03838116600483015260248201839052841690633d96e27690604401600060405180830381600087803b15801561390257600080fd5b505af11580156133ac573d6000803e3d6000fd5b61396b6040518061012001604052806000815260200160008152602001600081526020016000815260200160008152602001600081526020016000151581526020016000151581526020016000151581525090565b60405163a85337d960e01b8152600481018590526000906001600160a01b0388169063a85337d9906024016101206040518083038186803b1580156139af57600080fd5b505afa1580156139c3573d6000803e3d6000fd5b505050506040513d601f19601f820116820180604052508101906139e791906145b2565b805185518252808652604051630c61df3360e41b8152919350839250906001600160a01b0385169063c61df33090613a319088906001906000908c9082908f908290600401614763565b602060405180830381600087803b158015613a4b57600080fd5b505af1158015613a5f573d6000803e3d6000fd5b505050506040513d601f19601f82011682018060405250810190613a839190614277565b613ab45760405162461bcd60e51b8152602060048201526002602482015261032360f41b6044820152606401610551565b505095945050505050565b6040516001600160a01b0380881660248301528086166044830152841660648201526084810183905260a481018290526117a890869063a8d2fb9d60e01b9060c401612e82565b838015613b105750825b8015613b195750815b8190612de35760405162461bcd60e51b815260040161055191906146ce565b606061364f848460008585843b613b915760405162461bcd60e51b815260206004820152601d60248201527f416464726573733a2063616c6c20746f206e6f6e2d636f6e74726163740000006044820152606401610551565b600080866001600160a01b03168587604051613bad91906148be565b60006040518083038185875af1925050503d8060008114613bea576040519150601f19603f3d011682016040523d82523d6000602084013e613bef565b606091505b5091509150613bff828286613c0a565b979650505050505050565b60608315613c19575081613699565b825115613c295782518084602001fd5b8160405162461bcd60e51b815260040161055191906146ce565b6040518060a001604052806000815260200160006001600160a01b031681526020016000815260200160008152602001600081525090565b6040518060a00160405280613cb96040805160a081019091528060008152602001600081526020016000815260200160008152602001600081525090565b8152602001613ce260405180606001604052806000815260200160008152602001600081525090565b8152602001613d16604051806040016040528060006001600160a01b0316815260200160006001600160a01b031681525090565b815260200160608152602001600081525090565b600060208284031215613d3c57600080fd5b5035919050565b6001600160a01b038116811461113f57600080fd5b8035613d6381613d43565b919050565b803560ff81168114613d6357600080fd5b60008060008060808587031215613d8f57600080fd5b8435613d9a81613d43565b93506020850135613daa81613d43565b9250613db860408601613d68565b9150613dc660608601613d68565b905092959194509250565b803561ffff81168114613d6357600080fd5b634e487b7160e01b600052604160045260246000fd5b60405160a0810167ffffffffffffffff81118282101715613e1c57613e1c613de3565b60405290565b604051610120810167ffffffffffffffff81118282101715613e1c57613e1c613de3565b604051601f8201601f1916810167ffffffffffffffff81118282101715613e6f57613e6f613de3565b604052919050565b600067ffffffffffffffff821115613e9157613e91613de3565b5060051b60200190565b600080600080600060a08688031215613eb357600080fd5b613ebc86613d68565b94506020613ecb818801613dd1565b9450604087013567ffffffffffffffff811115613ee757600080fd5b8701601f81018913613ef857600080fd5b8035613f0b613f0682613e77565b613e46565b81815260059190911b8201830190838101908b831115613f2a57600080fd5b928401925b82841015613f51578335613f4281613d43565b82529284019290840190613f2f565b8097505050505050613f6560608701613d58565b949793965091946080013592915050565b600080600080600060a08688031215613f8e57600080fd5b613f9786613d68565b9450613fa560208701613d68565b9350613fb360408701613dd1565b9250606086013591506080860135613fca81613d43565b809150509295509295909350565b600060208284031215613fea57600080fd5b813561369981613d43565b634e487b7160e01b600052602160045260246000fd5b600081518084526020808501945080840160005b838110156140445781516001600160a01b03168752958201959082019060010161401f565b509495945050505050565b6000610180825180516002811061407657634e487b7160e01b600052602160045260246000fd5b80865250602081015160208601526040810151604086015260608101516060860152608081015160808601525060208301516140c960a08601828051825260208082015190830152604090810151910152565b50604083015180516001600160a01b03908116610100870152602082015116610120860152506060830151816101408601526141078286018261400b565b91505060808301516101608501528091505092915050565b6000602080830181845280855180835260408601915060408160051b870101925083870160005b8281101561417457603f1988860301845261416285835161404f565b94509285019290850190600101614146565b5092979650505050505050565b6000806000806080858703121561419757600080fd5b84356141a281613d43565b93506020850135925060408501356141b981613d43565b915060608501356141c981613d43565b939692955090935050565b60208082526010908201526f14185d5cd8589b194e881c185d5cd95960821b604082015260600190565b602080825260069082015265131bd8dad95960d21b604082015260600190565b634e487b7160e01b600052601160045260246000fd5b600082198211156142475761424761421e565b500190565b60006000198214156142605761426061421e565b5060010190565b80518015158114613d6357600080fd5b60006020828403121561428957600080fd5b61369982614267565b6020808252818101527f4f776e61626c653a2063616c6c6572206973206e6f7420746865206f776e6572604082015260600190565b82815260406020820152600061364f604083018461404f565b634e487b7160e01b600052603260045260246000fd5b60006060828403121561430857600080fd5b6040516060810181811067ffffffffffffffff8211171561432b5761432b613de3565b80604052508091508251815260208301516020820152604083015160408201525092915050565b60006040828403121561436457600080fd5b6040516040810181811067ffffffffffffffff8211171561438757614387613de3565b8060405250809150825161439a81613d43565b815260208301516143aa81613d43565b6020919091015292915050565b600082601f8301126143c857600080fd5b815160206143d8613f0683613e77565b82815260059290921b840181019181810190868411156143f757600080fd5b8286015b8481101561441b57805161440e81613d43565b83529183019183016143fb565b509695505050505050565b6000602080838503121561443957600080fd5b825167ffffffffffffffff8082111561445157600080fd5b818501915085601f83011261446557600080fd5b8151614473613f0682613e77565b81815260059190911b8301840190848101908883111561449257600080fd5b8585015b83811015614588578051858111156144ad57600080fd5b8601808b03601f1901610180808212156144c657600080fd5b6144ce613df9565b60a08312156144dc57600080fd5b6144e4613df9565b92508a840151600281106144f757600080fd5b8084525060408401518b84015260608401516040840152608080850151606085015260a0850151818501528382526145328f60c087016142f6565b8c8301526145448f6101208701614352565b604083015261016085015193508984111561455e57600080fd5b61456c8f8d868801016143b7565b6060830152919093015190830152508352918601918601614496565b5098975050505050505050565b6000602082840312156145a757600080fd5b815161369981613d43565b600061012082840312156145c557600080fd5b6145cd613e22565b825181526020830151602082015260408301516040820152606083015160608201526080830151608082015260a083015160a082015261460f60c08401614267565b60c082015261462060e08401614267565b60e0820152610100614633818501614267565b908201529392505050565b60008160001904831182151516156146585761465861421e565b500290565b60008060006060848603121561467257600080fd5b8351925060208401519150604084015190509250925092565b60008282101561469d5761469d61421e565b500390565b60005b838110156146bd5781810151838201526020016146a5565b838111156109b45750506000910152565b60208152600082518060208401526146ed8160408501602087016146a2565b601f01601f19169190910160400192915050565b805182526020810151602083015260408101516040830152606081015160608301526080810151608083015260a081015160a083015260c0810151151560c083015260e0810151151560e0830152610100808201516109b48285018215159052565b6101e08101614772828a614701565b9615156101208201529415156101408601526101608501939093526101808401919091526001600160a01b039081166101a0840152166101c090910152919050565b600064ffffffffff808316818516818304811182151516156147d8576147d861421e565b02949350505050565b634e487b7160e01b600052601260045260246000fd5b600064ffffffffff8084168061480f5761480f6147e1565b92169190910492915050565b60008261482a5761482a6147e1565b500490565b600060c08201888352602060018060a01b03808a168286015260c0604086015282895180855260e087019150838b01945060005b81811015614881578551841683529484019491840191600101614863565b505097166060850152505050608081019290925260a0909101529392505050565b6000606082840312156148b457600080fd5b61369983836142f6565b600082516148d08184602087016146a2565b919091019291505056fe756e6c6f636b416e645472616e7366657228616464726573732c616464726573732c75696e7429756e6c6f636b466f7228616464726573732c616464726573732c75696e742c75696e742c75696e7429a2646970667358221220cd62ac80aca88172c6459cc364a58a2aa7f1a23981325a8c35b842e3a0b4c0a664736f6c63430008090033",
  "libraries": {
    "DigesuLib": "0xe7f1725E7734CE288F8367e1Bb143E90bb3F0512"
  },
  "devdoc": {
    "kind": "dev",
    "methods": {
      "createPrivatePool(uint8,uint16,address[],address,uint256)": {
        "details": "Launches a public band - Native currency i.e ETH or Platform currency.",
        "params": {
          "amount": "- Contribution amount.",
          "asset": "- Asset's contract address.",
          "colCoverateRatio": "- Collateral factor - determinant of the amount of collateral to require of gFer. This is expressed as a multiple index of total loanable amount.",
          "durationIndays": "- The maximum time limit (from when the turn time begins) with which a participant will take custody of the loan before repayment.",
          "members": "- List of expected members."
        }
      },
      "createPublicPool(uint8,uint8,uint16,uint256,address)": {
        "details": "Launches a public band - Native currency i.e ETH or Platform currency.",
        "params": {
          "amount": "- Unit contribution.",
          "asset": "- address of the ERC20 standard asset to use. Note: asset must be supported by digesu.",
          "colCoverageRatio": "- Collateral factor - determinant of the amount of collateral to require of gFer. This is expressed as a multiple index of total loanable amount.",
          "durationInDays": "- The maximum time limit (from when the turn time begins) with which a participant will take custody of the loan before repayment.",
          "quorum": "- Required number of participants to form a band. "
        }
      },
      "getFinance(uint256)": {
        "details": "Members of a pool can pick up the contributed fund when certain coditions are met.",
        "params": {
          "poolId": ": Band's Id which caller belong to. Note:"
        }
      },
      "joinABand(uint256)": {
        "details": "Add new member.",
        "params": {
          "poolId": ": Band index. Note: We set up a trustee to hold all funds in the pool at poolId in trust  for all members."
        }
      },
      "liquidate(uint256)": {
        "details": "Liquidates defaulter. Note: The expected repayment time for last paid must have passed."
      },
      "owner()": {
        "details": "Returns the address of the current owner."
      },
      "pause()": {
        "details": "Pauses contract"
      },
      "paused()": {
        "details": "Returns true if the contract is paused, and false otherwise."
      },
      "payback(uint256)": {
        "details": "Utility to payback borrowed fund.",
        "params": {
          "poolId": ": Pool number. Note: We are only concerned about who is to pay back and not  who is paying back meaning any of the members can pay  on behalf of another."
        }
      },
      "renounceOwnership()": {
        "details": "Leaves the contract without owner. It will not be possible to call `onlyOwner` functions anymore. Can only be called by the current owner. NOTE: Renouncing ownership will leave the contract without an owner, thereby removing any functionality that is only available to the owner."
      },
      "setSupportedTokens(address)": {
        "details": "Updates the storage for supportedTokens Note Dual function: Can also remove support for `newToken`;",
        "params": {
          "newToken": ": newSupported token or to be removed."
        }
      },
      "transferOwnership(address)": {
        "details": "Transfers ownership of the contract to a new account (`newOwner`). Can only be called by the current owner."
      },
      "unpause()": {
        "details": "Unpauses contract"
      },
      "updateMinPoolAmount(uint256)": {
        "details": "Updates minimum amount contribution amount Note: Only Owner have the privilege to call this function."
      },
      "updatePublicData(address,address,uint8,uint8)": {
        "details": "Updates penalty fee."
      }
    },
    "version": 1
  },
  "userdoc": {
    "kind": "user",
    "methods": {
      "cr()": {
        "notice": "Other statistical data - Read-only o Total Values contributed todate; o Total subscribers;"
      }
    },
    "notice": "Digesu ====== A multi-peer finance structure that allows many parties come together, contribute money in equal amount for the purpose of financing themselves in a rotational manner. All the  participant is lender and borrower same time. Each beneficiary pays back with very minimal maker rate that's almost insignificant ranging between as little as 0.1 to 5%. The maker  rate being an amount charged in favor of the platform. For every successful circle, all the participant is entitled to farming reward in QFT, with  which they can make more profit. We also bountily reward best performing band every 3 months.  Example: A 3-man band (A, B, C) created with unit amount 1 ETH. - 'A' launches the band with a commitment of 1 ETH, becomes the admin - 'A' is added to slot 1, and a trustee is created for the band. - 1 ETH is forwarded to trustee. - 'B' joins with commitment of 1 ETH, added to slot 2. - 'C' joins with commitment of 1 ETH, added to slot 3. - There is 3 ETH locked with Trustee, and \"A's\" time to withdraw is now. - Join function is disabled, and 'GetFinance' is unlocked. - 3 ETH is available to 'B' to withdraw. - 'B's wallet is screened for enough collateral (QFT). o If true, 3 ETH is sent to 'B' otherwise operation failed. o If time for 'B' to withdraw has passed, any member of the band who is the current caller will replace \"B's\" position, and claim the fund. o Assume 'C' calls, \"C's\" position is swapped with \"B's\". CIRCUIT BREAK ------------- o There is a circuit break when any member of such band explicitly call the roundUp(). o This can only be done when all the participants has successfully 'GETFINANCED'. PAYBACK:  ====== o Any member that 'GETFINANCE' has a payback period which was initially specified  by the admin. o If the payback period elapsed, nothing is done, until someone calls to liquidate the defaulter. o If after time elapsed, the beneficiary calls, they're surcharge with 5% of the  collateral balance (in token value). The penalty is charged in favor of the next on the queue to 'GETFINANCE', and his/her account is credited. The balance being the amount left after 5% deduction is released to the owner. o If the beneficiary stays within expected repayment time (ERP), the above shall not apply. Their collateral balance is unlocked immediately. LIQUIDATION ========== o Anyone (either a member or outsider) can liquidate the defaulter. When this happens, the liquidator absorbs the current debt (exact amount or greater must be sent along with the call). They absorbs fully the profile of the defaulter including the collateral balances. The circle then continues. ERROR CODE ========== 1. Function not available. 2. Value is below minimum. 3. Not a member. 4. Pool not ready. 5. No debt found. 6. User is yet to default payment. 7. Address is empty. 8. Price is empty. 9. Members exceed limit. 10. Already a member of this band. 11. Value out of bound. 1. Amount exists 2. Not an Owner 3. Insufficient balance 4. Out of bound. 5. Pool is filled. 6. Function locked. 7. User not a member in this band. 8. Value less than expected. 9. Invalid pool id. 10. User already getFinance. 11. User is yet to default payment. 12. Address is empty. 13. Invalid positioning. 14. Anomally detected: User not paid; 15. Cannot cancel at this time. Pool already more than 1. 16. All members yet to GetFinance. 17. Cannot have admin in multiple places. 18. User cannot replicate in a band. 19. Invalid input. 20. Operation failed.",
    "version": 1
  },
  "storageLayout": {
    "storage": [
      {
        "astId": 14786,
        "contract": "contracts/digesu/Digesu.sol:Digesu",
        "label": "supportedTokens",
        "offset": 0,
        "slot": "0",
        "type": "t_mapping(t_address,t_bool)"
      },
      {
        "astId": 14848,
        "contract": "contracts/digesu/Digesu.sol:Digesu",
        "label": "fLock",
        "offset": 0,
        "slot": "1",
        "type": "t_mapping(t_uint256,t_mapping(t_enum(FuncTag)11378,t_enum(Access)11381))"
      },
      {
        "astId": 12924,
        "contract": "contracts/digesu/Digesu.sol:Digesu",
        "label": "_paused",
        "offset": 0,
        "slot": "2",
        "type": "t_bool"
      },
      {
        "astId": 12785,
        "contract": "contracts/digesu/Digesu.sol:Digesu",
        "label": "_owner",
        "offset": 1,
        "slot": "2",
        "type": "t_address"
      },
      {
        "astId": 6792,
        "contract": "contracts/digesu/Digesu.sol:Digesu",
        "label": "data",
        "offset": 0,
        "slot": "3",
        "type": "t_struct(Data)7759_storage"
      },
      {
        "astId": 6794,
        "contract": "contracts/digesu/Digesu.sol:Digesu",
        "label": "creationFee",
        "offset": 0,
        "slot": "7",
        "type": "t_uint256"
      },
      {
        "astId": 6796,
        "contract": "contracts/digesu/Digesu.sol:Digesu",
        "label": "minimumPoolAmount",
        "offset": 0,
        "slot": "8",
        "type": "t_uint256"
      },
      {
        "astId": 6799,
        "contract": "contracts/digesu/Digesu.sol:Digesu",
        "label": "manager",
        "offset": 0,
        "slot": "9",
        "type": "t_contract(IAccountManager)11259"
      },
      {
        "astId": 6803,
        "contract": "contracts/digesu/Digesu.sol:Digesu",
        "label": "cr",
        "offset": 0,
        "slot": "10",
        "type": "t_struct(CR)11465_storage"
      }
    ],
    "types": {
      "t_address": {
        "encoding": "inplace",
        "label": "address",
        "numberOfBytes": "20"
      },
      "t_array(t_address)dyn_storage": {
        "base": "t_address",
        "encoding": "dynamic_array",
        "label": "address[]",
        "numberOfBytes": "32"
      },
      "t_array(t_struct(Pool)11396_storage)dyn_storage": {
        "base": "t_struct(Pool)11396_storage",
        "encoding": "dynamic_array",
        "label": "struct ICommon.Pool[]",
        "numberOfBytes": "32"
      },
      "t_bool": {
        "encoding": "inplace",
        "label": "bool",
        "numberOfBytes": "1"
      },
      "t_contract(IAccountManager)11259": {
        "encoding": "inplace",
        "label": "contract IAccountManager",
        "numberOfBytes": "20"
      },
      "t_enum(Access)11381": {
        "encoding": "inplace",
        "label": "enum ICommon.Access",
        "numberOfBytes": "1"
      },
      "t_enum(FuncTag)11378": {
        "encoding": "inplace",
        "label": "enum ICommon.FuncTag",
        "numberOfBytes": "1"
      },
      "t_enum(Mode)11370": {
        "encoding": "inplace",
        "label": "enum ICommon.Mode",
        "numberOfBytes": "1"
      },
      "t_mapping(t_address,t_bool)": {
        "encoding": "mapping",
        "key": "t_address",
        "label": "mapping(address => bool)",
        "numberOfBytes": "32",
        "value": "t_bool"
      },
      "t_mapping(t_enum(FuncTag)11378,t_enum(Access)11381)": {
        "encoding": "mapping",
        "key": "t_enum(FuncTag)11378",
        "label": "mapping(enum ICommon.FuncTag => enum ICommon.Access)",
        "numberOfBytes": "32",
        "value": "t_enum(Access)11381"
      },
      "t_mapping(t_uint256,t_bool)": {
        "encoding": "mapping",
        "key": "t_uint256",
        "label": "mapping(uint256 => bool)",
        "numberOfBytes": "32",
        "value": "t_bool"
      },
      "t_mapping(t_uint256,t_mapping(t_enum(FuncTag)11378,t_enum(Access)11381))": {
        "encoding": "mapping",
        "key": "t_uint256",
        "label": "mapping(uint256 => mapping(enum ICommon.FuncTag => enum ICommon.Access))",
        "numberOfBytes": "32",
        "value": "t_mapping(t_enum(FuncTag)11378,t_enum(Access)11381)"
      },
      "t_struct(Addresses)11460_storage": {
        "encoding": "inplace",
        "label": "struct ICommon.Addresses",
        "members": [
          {
            "astId": 11457,
            "contract": "contracts/digesu/Digesu.sol:Digesu",
            "label": "asset",
            "offset": 0,
            "slot": "0",
            "type": "t_address"
          },
          {
            "astId": 11459,
            "contract": "contracts/digesu/Digesu.sol:Digesu",
            "label": "lastPaid",
            "offset": 0,
            "slot": "1",
            "type": "t_address"
          }
        ],
        "numberOfBytes": "64"
      },
      "t_struct(CR)11465_storage": {
        "encoding": "inplace",
        "label": "struct ICommon.CR",
        "members": [
          {
            "astId": 11462,
            "contract": "contracts/digesu/Digesu.sol:Digesu",
            "label": "totalValueContributed",
            "offset": 0,
            "slot": "0",
            "type": "t_uint256"
          },
          {
            "astId": 11464,
            "contract": "contracts/digesu/Digesu.sol:Digesu",
            "label": "subscribers",
            "offset": 0,
            "slot": "1",
            "type": "t_uint256"
          }
        ],
        "numberOfBytes": "64"
      },
      "t_struct(Data)7759_storage": {
        "encoding": "inplace",
        "label": "struct Data",
        "members": [
          {
            "astId": 7749,
            "contract": "contracts/digesu/Digesu.sol:Digesu",
            "label": "pcd",
            "offset": 0,
            "slot": "0",
            "type": "t_struct(PublicData)11738_storage"
          },
          {
            "astId": 7753,
            "contract": "contracts/digesu/Digesu.sol:Digesu",
            "label": "pools",
            "offset": 0,
            "slot": "2",
            "type": "t_array(t_struct(Pool)11396_storage)dyn_storage"
          },
          {
            "astId": 7758,
            "contract": "contracts/digesu/Digesu.sol:Digesu",
            "label": "amountExist",
            "offset": 0,
            "slot": "3",
            "type": "t_mapping(t_uint256,t_bool)"
          }
        ],
        "numberOfBytes": "128"
      },
      "t_struct(Pool)11396_storage": {
        "encoding": "inplace",
        "label": "struct ICommon.Pool",
        "members": [
          {
            "astId": 11384,
            "contract": "contracts/digesu/Digesu.sol:Digesu",
            "label": "uints",
            "offset": 0,
            "slot": "0",
            "type": "t_struct(Uints)11455_storage"
          },
          {
            "astId": 11387,
            "contract": "contracts/digesu/Digesu.sol:Digesu",
            "label": "uint256s",
            "offset": 0,
            "slot": "5",
            "type": "t_struct(Uint256s)11443_storage"
          },
          {
            "astId": 11390,
            "contract": "contracts/digesu/Digesu.sol:Digesu",
            "label": "addrs",
            "offset": 0,
            "slot": "8",
            "type": "t_struct(Addresses)11460_storage"
          },
          {
            "astId": 11393,
            "contract": "contracts/digesu/Digesu.sol:Digesu",
            "label": "mems",
            "offset": 0,
            "slot": "10",
            "type": "t_array(t_address)dyn_storage"
          },
          {
            "astId": 11395,
            "contract": "contracts/digesu/Digesu.sol:Digesu",
            "label": "allGh",
            "offset": 0,
            "slot": "11",
            "type": "t_uint256"
          }
        ],
        "numberOfBytes": "384"
      },
      "t_struct(PublicData)11738_storage": {
        "encoding": "inplace",
        "label": "struct IDigesu.PublicData",
        "members": [
          {
            "astId": 11731,
            "contract": "contracts/digesu/Digesu.sol:Digesu",
            "label": "feeTo",
            "offset": 0,
            "slot": "0",
            "type": "t_address"
          },
          {
            "astId": 11733,
            "contract": "contracts/digesu/Digesu.sol:Digesu",
            "label": "token",
            "offset": 0,
            "slot": "1",
            "type": "t_address"
          },
          {
            "astId": 11735,
            "contract": "contracts/digesu/Digesu.sol:Digesu",
            "label": "penFee",
            "offset": 20,
            "slot": "1",
            "type": "t_uint8"
          },
          {
            "astId": 11737,
            "contract": "contracts/digesu/Digesu.sol:Digesu",
            "label": "makerFee",
            "offset": 21,
            "slot": "1",
            "type": "t_uint8"
          }
        ],
        "numberOfBytes": "64"
      },
      "t_struct(Uint256s)11443_storage": {
        "encoding": "inplace",
        "label": "struct ICommon.Uint256s",
        "members": [
          {
            "astId": 11438,
            "contract": "contracts/digesu/Digesu.sol:Digesu",
            "label": "unit",
            "offset": 0,
            "slot": "0",
            "type": "t_uint256"
          },
          {
            "astId": 11440,
            "contract": "contracts/digesu/Digesu.sol:Digesu",
            "label": "receivable",
            "offset": 0,
            "slot": "1",
            "type": "t_uint256"
          },
          {
            "astId": 11442,
            "contract": "contracts/digesu/Digesu.sol:Digesu",
            "label": "currentPool",
            "offset": 0,
            "slot": "2",
            "type": "t_uint256"
          }
        ],
        "numberOfBytes": "96"
      },
      "t_struct(Uints)11455_storage": {
        "encoding": "inplace",
        "label": "struct ICommon.Uints",
        "members": [
          {
            "astId": 11446,
            "contract": "contracts/digesu/Digesu.sol:Digesu",
            "label": "mode",
            "offset": 0,
            "slot": "0",
            "type": "t_enum(Mode)11370"
          },
          {
            "astId": 11448,
            "contract": "contracts/digesu/Digesu.sol:Digesu",
            "label": "quorum",
            "offset": 0,
            "slot": "1",
            "type": "t_uint256"
          },
          {
            "astId": 11450,
            "contract": "contracts/digesu/Digesu.sol:Digesu",
            "label": "selector",
            "offset": 0,
            "slot": "2",
            "type": "t_uint256"
          },
          {
            "astId": 11452,
            "contract": "contracts/digesu/Digesu.sol:Digesu",
            "label": "ccr",
            "offset": 0,
            "slot": "3",
            "type": "t_uint256"
          },
          {
            "astId": 11454,
            "contract": "contracts/digesu/Digesu.sol:Digesu",
            "label": "duration",
            "offset": 0,
            "slot": "4",
            "type": "t_uint256"
          }
        ],
        "numberOfBytes": "160"
      },
      "t_uint256": {
        "encoding": "inplace",
        "label": "uint256",
        "numberOfBytes": "32"
      },
      "t_uint8": {
        "encoding": "inplace",
        "label": "uint8",
        "numberOfBytes": "1"
      }
    }
  }
}