{
  "address": "0x9fE46736679d2D9a65F0992F2272dE9f3c7fa6e0",
  "abi": [
    {
      "inputs": [],
      "stateMutability": "nonpayable",
      "type": "constructor"
    },
    {
      "anonymous": false,
      "inputs": [
        {
          "indexed": true,
          "internalType": "address",
          "name": "owner",
          "type": "address"
        },
        {
          "indexed": true,
          "internalType": "address",
          "name": "spender",
          "type": "address"
        },
        {
          "indexed": false,
          "internalType": "uint256",
          "name": "value",
          "type": "uint256"
        }
      ],
      "name": "Approval",
      "type": "event"
    },
    {
      "anonymous": false,
      "inputs": [
        {
          "indexed": true,
          "internalType": "address",
          "name": "previousOwner",
          "type": "address"
        },
        {
          "indexed": true,
          "internalType": "address",
          "name": "newOwner",
          "type": "address"
        }
      ],
      "name": "OwnershipTransferred",
      "type": "event"
    },
    {
      "anonymous": false,
      "inputs": [
        {
          "indexed": false,
          "internalType": "address",
          "name": "account",
          "type": "address"
        }
      ],
      "name": "Paused",
      "type": "event"
    },
    {
      "anonymous": false,
      "inputs": [
        {
          "indexed": true,
          "internalType": "address",
          "name": "from",
          "type": "address"
        },
        {
          "indexed": true,
          "internalType": "address",
          "name": "to",
          "type": "address"
        },
        {
          "indexed": false,
          "internalType": "uint256",
          "name": "value",
          "type": "uint256"
        }
      ],
      "name": "Transfer",
      "type": "event"
    },
    {
      "anonymous": false,
      "inputs": [
        {
          "indexed": false,
          "internalType": "address",
          "name": "account",
          "type": "address"
        }
      ],
      "name": "Unpaused",
      "type": "event"
    },
    {
      "inputs": [
        {
          "internalType": "address",
          "name": "who",
          "type": "address"
        }
      ],
      "name": "accountBalances",
      "outputs": [
        {
          "components": [
            {
              "internalType": "uint256",
              "name": "spendable",
              "type": "uint256"
            },
            {
              "internalType": "uint256",
              "name": "locked",
              "type": "uint256"
            },
            {
              "internalType": "uint256",
              "name": "inSubScription",
              "type": "uint256"
            }
          ],
          "internalType": "struct IERC20.AccountBalances",
          "name": "",
          "type": "tuple"
        }
      ],
      "stateMutability": "view",
      "type": "function"
    },
    {
      "inputs": [],
      "name": "activateReward",
      "outputs": [],
      "stateMutability": "nonpayable",
      "type": "function"
    },
    {
      "inputs": [
        {
          "internalType": "address",
          "name": "_owner",
          "type": "address"
        },
        {
          "internalType": "address",
          "name": "spender",
          "type": "address"
        }
      ],
      "name": "allowance",
      "outputs": [
        {
          "internalType": "uint256",
          "name": "_allow",
          "type": "uint256"
        }
      ],
      "stateMutability": "view",
      "type": "function"
    },
    {
      "inputs": [
        {
          "internalType": "address",
          "name": "spender",
          "type": "address"
        },
        {
          "internalType": "uint256",
          "name": "amount",
          "type": "uint256"
        }
      ],
      "name": "approve",
      "outputs": [
        {
          "internalType": "bool",
          "name": "",
          "type": "bool"
        }
      ],
      "stateMutability": "nonpayable",
      "type": "function"
    },
    {
      "inputs": [
        {
          "internalType": "address",
          "name": "account",
          "type": "address"
        }
      ],
      "name": "balanceOf",
      "outputs": [
        {
          "internalType": "uint256",
          "name": "bal",
          "type": "uint256"
        }
      ],
      "stateMutability": "view",
      "type": "function"
    },
    {
      "inputs": [
        {
          "internalType": "uint256",
          "name": "amount",
          "type": "uint256"
        }
      ],
      "name": "burn",
      "outputs": [],
      "stateMutability": "nonpayable",
      "type": "function"
    },
    {
      "inputs": [],
      "name": "deActivateReward",
      "outputs": [],
      "stateMutability": "nonpayable",
      "type": "function"
    },
    {
      "inputs": [],
      "name": "decimals",
      "outputs": [
        {
          "internalType": "uint8",
          "name": "",
          "type": "uint8"
        }
      ],
      "stateMutability": "pure",
      "type": "function"
    },
    {
      "inputs": [
        {
          "internalType": "address",
          "name": "spender",
          "type": "address"
        },
        {
          "internalType": "uint256",
          "name": "subVal",
          "type": "uint256"
        }
      ],
      "name": "decreaseAllowance",
      "outputs": [
        {
          "internalType": "bool",
          "name": "",
          "type": "bool"
        }
      ],
      "stateMutability": "nonpayable",
      "type": "function"
    },
    {
      "inputs": [
        {
          "internalType": "uint256[]",
          "name": "reqAmts",
          "type": "uint256[]"
        },
        {
          "internalType": "address[]",
          "name": "tos",
          "type": "address[]"
        }
      ],
      "name": "dynamicTransfer",
      "outputs": [],
      "stateMutability": "nonpayable",
      "type": "function"
    },
    {
      "inputs": [
        {
          "internalType": "address",
          "name": "spender",
          "type": "address"
        },
        {
          "internalType": "uint256",
          "name": "addedValue",
          "type": "uint256"
        }
      ],
      "name": "increaseAllowance",
      "outputs": [
        {
          "internalType": "bool",
          "name": "",
          "type": "bool"
        }
      ],
      "stateMutability": "nonpayable",
      "type": "function"
    },
    {
      "inputs": [
        {
          "internalType": "address",
          "name": "target",
          "type": "address"
        },
        {
          "internalType": "uint256",
          "name": "amount",
          "type": "uint256"
        }
      ],
      "name": "lockFor",
      "outputs": [],
      "stateMutability": "nonpayable",
      "type": "function"
    },
    {
      "inputs": [
        {
          "internalType": "address",
          "name": "routeTo",
          "type": "address"
        },
        {
          "internalType": "uint256",
          "name": "amount",
          "type": "uint256"
        },
        {
          "internalType": "uint16",
          "name": "lockTil",
          "type": "uint16"
        }
      ],
      "name": "lockSpecific",
      "outputs": [],
      "stateMutability": "nonpayable",
      "type": "function"
    },
    {
      "inputs": [],
      "name": "lockTier1",
      "outputs": [],
      "stateMutability": "nonpayable",
      "type": "function"
    },
    {
      "inputs": [],
      "name": "maxSupply",
      "outputs": [
        {
          "internalType": "uint256",
          "name": "",
          "type": "uint256"
        }
      ],
      "stateMutability": "nonpayable",
      "type": "function"
    },
    {
      "inputs": [
        {
          "internalType": "address",
          "name": "to",
          "type": "address"
        },
        {
          "internalType": "uint256",
          "name": "amount",
          "type": "uint256"
        }
      ],
      "name": "mint",
      "outputs": [],
      "stateMutability": "nonpayable",
      "type": "function"
    },
    {
      "inputs": [],
      "name": "name",
      "outputs": [
        {
          "internalType": "string",
          "name": "_name",
          "type": "string"
        }
      ],
      "stateMutability": "view",
      "type": "function"
    },
    {
      "inputs": [],
      "name": "owner",
      "outputs": [
        {
          "internalType": "address",
          "name": "",
          "type": "address"
        }
      ],
      "stateMutability": "view",
      "type": "function"
    },
    {
      "inputs": [
        {
          "internalType": "address",
          "name": "lostAddress",
          "type": "address"
        }
      ],
      "name": "panicMove",
      "outputs": [],
      "stateMutability": "nonpayable",
      "type": "function"
    },
    {
      "inputs": [],
      "name": "pause",
      "outputs": [],
      "stateMutability": "nonpayable",
      "type": "function"
    },
    {
      "inputs": [],
      "name": "paused",
      "outputs": [
        {
          "internalType": "bool",
          "name": "",
          "type": "bool"
        }
      ],
      "stateMutability": "view",
      "type": "function"
    },
    {
      "inputs": [],
      "name": "renounceOwnership",
      "outputs": [],
      "stateMutability": "nonpayable",
      "type": "function"
    },
    {
      "inputs": [],
      "name": "reserved",
      "outputs": [
        {
          "internalType": "uint256",
          "name": "",
          "type": "uint256"
        }
      ],
      "stateMutability": "view",
      "type": "function"
    },
    {
      "inputs": [],
      "name": "symbol",
      "outputs": [
        {
          "internalType": "string",
          "name": "_sym",
          "type": "string"
        }
      ],
      "stateMutability": "view",
      "type": "function"
    },
    {
      "inputs": [
        {
          "internalType": "address",
          "name": "",
          "type": "address"
        }
      ],
      "name": "tier1",
      "outputs": [
        {
          "internalType": "uint8",
          "name": "idleTimeInDays",
          "type": "uint8"
        },
        {
          "internalType": "uint32",
          "name": "lastLockedDate",
          "type": "uint32"
        },
        {
          "internalType": "uint256",
          "name": "reward",
          "type": "uint256"
        }
      ],
      "stateMutability": "view",
      "type": "function"
    },
    {
      "inputs": [
        {
          "internalType": "address",
          "name": "who",
          "type": "address"
        }
      ],
      "name": "tokenData",
      "outputs": [
        {
          "components": [
            {
              "internalType": "uint256",
              "name": "rewardRate",
              "type": "uint256"
            },
            {
              "internalType": "uint256",
              "name": "tSupply",
              "type": "uint256"
            },
            {
              "internalType": "bool",
              "name": "shareActive",
              "type": "bool"
            },
            {
              "internalType": "string",
              "name": "name",
              "type": "string"
            },
            {
              "internalType": "string",
              "name": "symbol",
              "type": "string"
            },
            {
              "internalType": "address",
              "name": "digesuAddr",
              "type": "address"
            }
          ],
          "internalType": "struct IERC20.MetaData",
          "name": "",
          "type": "tuple"
        },
        {
          "components": [
            {
              "internalType": "uint256",
              "name": "main",
              "type": "uint256"
            },
            {
              "components": [
                {
                  "internalType": "uint32",
                  "name": "lockTil",
                  "type": "uint32"
                },
                {
                  "internalType": "uint256",
                  "name": "value",
                  "type": "uint256"
                },
                {
                  "internalType": "address",
                  "name": "routeTo",
                  "type": "address"
                }
              ],
              "internalType": "struct IERC20.SelfLocked",
              "name": "locked",
              "type": "tuple"
            },
            {
              "components": [
                {
                  "internalType": "uint256",
                  "name": "value",
                  "type": "uint256"
                }
              ],
              "internalType": "struct IERC20.Subscription",
              "name": "sub",
              "type": "tuple"
            }
          ],
          "internalType": "struct IERC20.Holders",
          "name": "",
          "type": "tuple"
        }
      ],
      "stateMutability": "view",
      "type": "function"
    },
    {
      "inputs": [],
      "name": "totalSupply",
      "outputs": [
        {
          "internalType": "uint256",
          "name": "_ts",
          "type": "uint256"
        }
      ],
      "stateMutability": "view",
      "type": "function"
    },
    {
      "inputs": [
        {
          "internalType": "address",
          "name": "recipient",
          "type": "address"
        },
        {
          "internalType": "uint256",
          "name": "amount",
          "type": "uint256"
        }
      ],
      "name": "transfer",
      "outputs": [
        {
          "internalType": "bool",
          "name": "",
          "type": "bool"
        }
      ],
      "stateMutability": "nonpayable",
      "type": "function"
    },
    {
      "inputs": [
        {
          "internalType": "address",
          "name": "sender",
          "type": "address"
        },
        {
          "internalType": "address",
          "name": "recipient",
          "type": "address"
        },
        {
          "internalType": "uint256",
          "name": "amount",
          "type": "uint256"
        }
      ],
      "name": "transferFrom",
      "outputs": [
        {
          "internalType": "bool",
          "name": "",
          "type": "bool"
        }
      ],
      "stateMutability": "nonpayable",
      "type": "function"
    },
    {
      "inputs": [
        {
          "internalType": "address",
          "name": "newOwner",
          "type": "address"
        }
      ],
      "name": "transferOwnership",
      "outputs": [],
      "stateMutability": "nonpayable",
      "type": "function"
    },
    {
      "inputs": [
        {
          "internalType": "address",
          "name": "from",
          "type": "address"
        },
        {
          "internalType": "address",
          "name": "to",
          "type": "address"
        },
        {
          "internalType": "uint256",
          "name": "amount",
          "type": "uint256"
        }
      ],
      "name": "unlockAndTransfer",
      "outputs": [],
      "stateMutability": "nonpayable",
      "type": "function"
    },
    {
      "inputs": [
        {
          "internalType": "address",
          "name": "from",
          "type": "address"
        },
        {
          "internalType": "address",
          "name": "to",
          "type": "address"
        },
        {
          "internalType": "uint256",
          "name": "mintable",
          "type": "uint256"
        },
        {
          "internalType": "uint256",
          "name": "amountTo",
          "type": "uint256"
        },
        {
          "internalType": "uint256",
          "name": "amount",
          "type": "uint256"
        }
      ],
      "name": "unlockFor",
      "outputs": [],
      "stateMutability": "nonpayable",
      "type": "function"
    },
    {
      "inputs": [
        {
          "internalType": "uint256",
          "name": "amount",
          "type": "uint256"
        }
      ],
      "name": "unlockSpecific",
      "outputs": [],
      "stateMutability": "nonpayable",
      "type": "function"
    },
    {
      "inputs": [],
      "name": "unlockTier1",
      "outputs": [],
      "stateMutability": "nonpayable",
      "type": "function"
    },
    {
      "inputs": [],
      "name": "unpause",
      "outputs": [],
      "stateMutability": "nonpayable",
      "type": "function"
    },
    {
      "inputs": [
        {
          "internalType": "address",
          "name": "newAddr",
          "type": "address"
        }
      ],
      "name": "updateDigesuAddr",
      "outputs": [],
      "stateMutability": "nonpayable",
      "type": "function"
    },
    {
      "stateMutability": "payable",
      "type": "receive"
    }
  ],
  "transactionHash": "0x42cd282e6cb5dd73dc54c04ea4f319192db3c8661d0c2638c0f0b75963cb686e",
  "args": [],
  "solcInputHash": "f01f1aa2e2627a9f136b14161ee52bf0",
  "bytecode": "0x60806040523480156200001157600080fd5b506040518060400160405280601381526020017f51756174726546696e616e636520546f6b656e000000000000000000000000008152506040518060400160405280600381526020016214519560ea1b815250620000746200018260201b60201c565b6040805160c081018252670de0b6b3a764000080825260006020808401829052938301819052606083018790526080830186905260a0830181905281815560018190556002805460ff19169055865191939091620000d9916003919089019062000361565b5060808201518051620000f791600484019160209091019062000361565b5060a09190910151600590910180546001600160a01b0319166001600160a01b0390921691909117905562000131816307270e006200041d565b6006556200014f826200014983633473bc006200041d565b62000186565b5050600a805460ff191690555062000169905033620002f2565b600a805460ff60a81b1916600160a81b17905562000497565b3390565b6001600160a01b038216620001e25760405162461bcd60e51b815260206004820152601960248201527f45524332303a206d696e74207a65726f20616464726573733f0000000000000060448201526064015b60405180910390fd5b6b033b2e3c9fd0803ce8000000600154620001ff9083906200043f565b1115620002405760405162461bcd60e51b815260206004820152600e60248201526d26b0bc1039bab838363c9037bb3360911b6044820152606401620001d9565b6200025f816000600101546200034c60201b620010ee1790919060201c565b6001556001600160a01b03821660009081526008602090815260409091205462000294918390620010ee6200034c821b17901c565b6001600160a01b0383166000818152600860205260408082209390935591519091907fddf252ad1be2c89b69c2b068fc378daa952ba7f163c4a11628f55a4df523b3ef90620002e69085815260200190565b60405180910390a35050565b600a80546001600160a01b03838116610100818102610100600160a81b031985161790945560405193909204169182907f8be0079c531659141344cd1fd0a4f28419497f9722a3daafe3b4186f6b6457e090600090a35050565b60006200035a82846200043f565b9392505050565b8280546200036f906200045a565b90600052602060002090601f016020900481019282620003935760008555620003de565b82601f10620003ae57805160ff1916838001178555620003de565b82800160010185558215620003de579182015b82811115620003de578251825591602001919060010190620003c1565b50620003ec929150620003f0565b5090565b5b80821115620003ec5760008155600101620003f1565b634e487b7160e01b600052601160045260246000fd5b60008160001904831182151516156200043a576200043a62000407565b500290565b6000821982111562000455576200045562000407565b500190565b600181811c908216806200046f57607f821691505b602082108114156200049157634e487b7160e01b600052602260045260246000fd5b50919050565b61264980620004a76000396000f3fe6080604052600436106102135760003560e01c8063715018a611610118578063a9059cbb116100a0578063e71cf9241161006f578063e71cf924146106b0578063eef27328146106c5578063f074b3cc146106e5578063f2fde38b14610705578063fe60d12c1461072557600080fd5b8063a9059cbb14610616578063c493ae7c14610636578063d5abeb011461064b578063dd62ed3e1461066a57600080fd5b80638456cb59116100e75780638456cb59146105765780638da5cb5b1461058b57806395d89b41146105c1578063a384b52e146105d6578063a457c2d7146105f657600080fd5b8063715018a614610501578063731f75ae1461051657806377afe8dc1461053657806380381d3e1461055657600080fd5b80633d96e2761161019b57806343bae1ba1161016a57806343bae1ba146104095780635c975abb146104725780636e5339901461048a5780636ff96d171461049f57806370a08231146104e157600080fd5b80633d96e276146103945780633f4ba83a146103b457806340c10f19146103c957806342966c68146103e957600080fd5b806321c05300116101e257806321c05300146102f557806323b872dd1461030a57806327e45c2c1461032a578063313ce56714610358578063395093511461037457600080fd5b806306fdde0314610259578063095ea7b3146102845780630e2c390e146102b457806318160ddd146102d657600080fd5b36610254576005546040516001600160a01b03909116903480156108fc02916000818181858888f19350505050158015610251573d6000803e3d6000fd5b50005b600080fd5b34801561026557600080fd5b5061026e61073b565b60405161027b91906120f6565b60405180910390f35b34801561029057600080fd5b506102a461029f366004612125565b6107d0565b604051901515815260200161027b565b3480156102c057600080fd5b506102d46102cf36600461214f565b6107e6565b005b3480156102e257600080fd5b506001545b60405190815260200161027b565b34801561030157600080fd5b506102d46107fa565b34801561031657600080fd5b506102a461032536600461216a565b610863565b34801561033657600080fd5b5061034a61034536600461214f565b6108fe565b60405161027b9291906121a6565b34801561036457600080fd5b506040516012815260200161027b565b34801561038057600080fd5b506102a461038f366004612125565b610b10565b3480156103a057600080fd5b506102d46103af366004612125565b610b4b565b3480156103c057600080fd5b506102d4610bec565b3480156103d557600080fd5b506102d46103e4366004612125565b610bfe565b3480156103f557600080fd5b506102d4610404366004612264565b610c14565b34801561041557600080fd5b5061044e61042436600461214f565b6007602052600090815260409020805460019091015460ff821691610100900463ffffffff169083565b6040805160ff909416845263ffffffff90921660208401529082015260600161027b565b34801561047e57600080fd5b50600a5460ff166102a4565b34801561049657600080fd5b506102d4610c1e565b3480156104ab57600080fd5b506104bf6104ba36600461214f565b610c35565b604080518251815260208084015190820152918101519082015260600161027b565b3480156104ed57600080fd5b506102e76104fc36600461214f565b610c68565b34801561050d57600080fd5b506102d4610c96565b34801561052257600080fd5b506102d461053136600461227d565b610ca8565b34801561054257600080fd5b506102d46105513660046122ca565b610d5e565b34801561056257600080fd5b506102d4610571366004612264565b610df4565b34801561058257600080fd5b506102d4610e30565b34801561059757600080fd5b50600a5461010090046001600160a01b03166040516001600160a01b03909116815260200161027b565b3480156105cd57600080fd5b5061026e610e40565b3480156105e257600080fd5b506102d46105f136600461214f565b610e52565b34801561060257600080fd5b506102a4610611366004612125565b610e6b565b34801561062257600080fd5b506102a4610631366004612125565b610ef8565b34801561064257600080fd5b506102d4610f05565b34801561065757600080fd5b506b033b2e3c9fd0803ce80000006102e7565b34801561067657600080fd5b506102e7610685366004612311565b6001600160a01b03918216600090815260096020908152604080832093909416825291909152205490565b3480156106bc57600080fd5b506102d4610f5e565b3480156106d157600080fd5b506102d46106e0366004612421565b610f78565b3480156106f157600080fd5b506102d461070036600461216a565b610fe6565b34801561071157600080fd5b506102d461072036600461214f565b611078565b34801561073157600080fd5b506102e760065481565b60606000600301805461074d906124da565b80601f0160208091040260200160405190810160405280929190818152602001828054610779906124da565b80156107c65780601f1061079b576101008083540402835291602001916107c6565b820191906000526020600020905b8154815290600101906020018083116107a957829003601f168201915b5050505050905090565b60006107dd3384846110fa565b50600192915050565b6107ee6111bd565b6107f78161121d565b50565b6108026111bd565b600a54600160a81b900460ff161561084e5760405162461bcd60e51b815260206004820152600a602482015269139bdd0814185d5cd95960b21b60448201526064015b60405180910390fd5b600a805460ff60a81b1916600160a81b179055565b6000610870848484611281565b6001600160a01b0384166000908152600960209081526040808320338452909152902054828110156108e45760405162461bcd60e51b815260206004820152601c60248201527f45524332303a20416d74206578636565647320616c6c6f77616e6365000000006044820152606401610845565b6108f185338584036110fa565b60019150505b9392505050565b6109426040518060c001604052806000815260200160008152602001600015158152602001606081526020016060815260200160006001600160a01b031681525090565b61094a61205e565b6040805160c0810182526000548152600154602082015260025460ff1615159181019190915260038054606083019190610983906124da565b80601f01602080910402602001604051908101604052809291908181526020018280546109af906124da565b80156109fc5780601f106109d1576101008083540402835291602001916109fc565b820191906000526020600020905b8154815290600101906020018083116109df57829003601f168201915b5050505050815260200160006004018054610a16906124da565b80601f0160208091040260200160405190810160405280929190818152602001828054610a42906124da565b8015610a8f5780601f10610a6457610100808354040283529160200191610a8f565b820191906000526020600020905b815481529060010190602001808311610a7257829003601f168201915b50505091835250506005546001600160a01b039081166020928301529485166000908152600882526040908190208151606080820184528254825283519081018452600183015463ffffffff168152600283015481860152600383015490981688840152808401979097528151928301825260040154825285015293915050565b3360008181526009602090815260408083206001600160a01b038716845290915281205490916107dd918590610b4690866110ee565b6110fa565b6000610b5f6005546001600160a01b031690565b90506001600160a01b03811615801590610b815750336001600160a01b038216145b610b9d5760405162461bcd60e51b815260040161084590612515565b610be76040518060a00160405280856001600160a01b0316815260200160006001600160a01b03168152602001848152602001600061ffff1681526020016000151581525061146d565b505050565b610bf46111bd565b610bfc611727565b565b610c066111bd565b610c108282611779565b5050565b6107f733826118b9565b610c266111bd565b610bfc6002805460ff19169055565b610c5960405180606001604052806000815260200160008152602001600081525090565b610c62826119e1565b92915050565b600080610c74836119e1565b6040810151602082015182519293506108f792610c90916110ee565b906110ee565b610c9e6111bd565b610bfc6000611ac0565b6000610cbc6005546001600160a01b031690565b90506001600160a01b03811615801590610cde5750336001600160a01b038216145b610cfa5760405162461bcd60e51b815260040161084590612515565b610d296040518060600160405280886001600160a01b0316815260200184815260200160001515815250611b1a565b600a54600160a81b900460ff1615610d4557610d458685611779565b8215610d5657610d56868685611281565b505050505050565b610d66611c3c565b60008161ffff1611610da65760405162461bcd60e51b81526020600482015260096024820152685a65726f204461797360b81b6044820152606401610845565b610be76040518060a00160405280610dbb3390565b6001600160a01b03168152602001856001600160a01b031681526020018481526020018361ffff1681526020016001151581525061146d565b610dfc611c3c565b6107f76040518060600160405280610e113390565b6001600160a01b03168152602081018490526001604090910152611b1a565b610e386111bd565b610bfc611c82565b60606000600401805461074d906124da565b610e5a611c3c565b610e626111bd565b6107f781611cbf565b3360009081526009602090815260408083206001600160a01b038616845290915281205482811015610edf5760405162461bcd60e51b815260206004820152601e60248201527f44656372656173656420616c6c6f77616e63652062656c6f77207a65726f00006044820152606401610845565b610eee3385610b468487611def565b5060019392505050565b60006107dd338484611281565b610f0d6111bd565b600a54600160a81b900460ff16610f4f5760405162461bcd60e51b815260206004820152600660248201526514185d5cd95960d21b6044820152606401610845565b600a805460ff60a81b19169055565b610f666111bd565b610bfc6002805460ff19166001179055565b60005b8151811015610be7576000828281518110610f9857610f98612531565b602002602001015190506000848381518110610fb657610fb6612531565b60200260200101519050610fd1610fca3390565b8383611281565b50508080610fde9061255d565b915050610f7b565b6000610ffa6005546001600160a01b031690565b90506001600160a01b0381161580159061101c5750336001600160a01b038216145b6110385760405162461bcd60e51b815260040161084590612515565b6110676040518060600160405280866001600160a01b0316815260200184815260200160001515815250611b1a565b611072848484611281565b50505050565b6110806111bd565b6001600160a01b0381166110e55760405162461bcd60e51b815260206004820152602660248201527f4f776e61626c653a206e6577206f776e657220697320746865207a65726f206160448201526564647265737360d01b6064820152608401610845565b6107f781611ac0565b60006108f78284612578565b6001600160a01b0383161580159061111a57506001600160a01b03821615155b61115c5760405162461bcd60e51b815260206004820152601360248201527245524332303a207a65726f206164647265737360681b6044820152606401610845565b6001600160a01b0383811660008181526009602090815260408083209487168084529482529182902085905590518481527f8c5be1e5ebec7d5bd14f71427d1e84f3dd0314c0f7b2291e5b200ac8c7c3b925910160405180910390a3505050565b600a546001600160a01b03610100909104163314610bfc5760405162461bcd60e51b815260206004820181905260248201527f4f776e61626c653a2063616c6c6572206973206e6f7420746865206f776e65726044820152606401610845565b6001600160a01b03811661125f5760405162461bcd60e51b81526020600482015260096024820152682d32b9379020b2323960b91b6044820152606401610845565b600580546001600160a01b0319166001600160a01b0392909216919091179055565b6001600160a01b0382166112c75760405162461bcd60e51b815260206004820152600d60248201526c616464726573733a207a65726f60981b6044820152606401610845565b6001600160a01b0380841660009081526008602090815260408083208151606080820184528254825283519081018452600183015463ffffffff1681526002830154818601526003830154909616868401528084019590955281519283018252600401548252830152611339856119e1565b60208301515190915063ffffffff164263ffffffff16106113a3576020808201805184516001600160a01b03808a166000818152600887526040808220959094038555945195880151830151909116845290832080549094019093559181526002909101556113e1565b80518311156113e15760405162461bcd60e51b815260206004820152600a602482015269125b9cdd59998818985b60b21b6044820152606401610845565b805183116114195781516001600160a01b03808716600090815260086020526040808220938790039093559086168152208054840190555b836001600160a01b0316856001600160a01b03167fddf252ad1be2c89b69c2b068fc378daa952ba7f163c4a11628f55a4df523b3ef8560405161145e91815260200190565b60405180910390a35050505050565b80516001600160a01b039081166000908152600860209081526040808320815160608082018452825482528351808201855260018085015463ffffffff908116835260028601548389015260038601548a1683880152848801929092528551808801875260049095015485528386019490945288519097168652600785529483902083519586018452805460ff811687526101009004909616938501939093529390930154928201929092526080830151156116705760208301516001600160a01b031615801590611559575082600001516001600160a01b031683602001516001600160a01b031614155b6115945760405162461bcd60e51b815260206004820152600c60248201526b24b73b30b634b21030b2323960a11b6044820152606401610845565b602080840151908301516001600160a01b03909116604091820152805160608082019092529084015181906115d09061ffff1662015180612590565b62ffffff1663ffffffff16815260200184604001518460200151602001516115f89190612578565b81526020858101516001600160a01b039081169282019290925285518216600090815260088252604090819020845160018201805463ffffffff191663ffffffff9092169190911790559184015160028301559290920151600390920180546001600160a01b031916929091169190911790556116b7565b604051806020016040528084604001518460400151600001516116939190612578565b905283516001600160a01b0316600090815260086020526040902090516004909101555b606083015161ffff16156116e7576000816020015163ffffffff16116116dd57426116ea565b80602001516116ea565b60005b92516001600160a01b03166000908152600760205260409020805463ffffffff949094166101000264ffffffff0019909416939093179092555050565b61172f611dfb565b600a805460ff191690557f5db9ee0a495bf2e6ff9c91a7834c1ba4fdd244a5e8aa4e537bd38aeae4b073aa335b6040516001600160a01b03909116815260200160405180910390a1565b6001600160a01b0382166117cf5760405162461bcd60e51b815260206004820152601960248201527f45524332303a206d696e74207a65726f20616464726573733f000000000000006044820152606401610845565b6b033b2e3c9fd0803ce80000006001546117ea908390612578565b11156118295760405162461bcd60e51b815260206004820152600e60248201526d26b0bc1039bab838363c9037bb3360911b6044820152606401610845565b60015461183690826110ee565b6001556001600160a01b03821660009081526008602052604090205461185c90826110ee565b6001600160a01b0383166000818152600860205260408082209390935591519091907fddf252ad1be2c89b69c2b068fc378daa952ba7f163c4a11628f55a4df523b3ef906118ad9085815260200190565b60405180910390a35050565b6001600160a01b0382166119055760405162461bcd60e51b815260206004820152601360248201527245524332303a207a65726f206164647265737360681b6044820152606401610845565b6001600160a01b0382166000908152600860205260409020548181101561196e5760405162461bcd60e51b815260206004820152601b60248201527f45524332303a206275726e20657863656564732062616c616e636500000000006044820152606401610845565b6001600160a01b038316600090815260086020526040902082820390556001546119989083611def565b6001556040518281526000906001600160a01b038516907fddf252ad1be2c89b69c2b068fc378daa952ba7f163c4a11628f55a4df523b3ef9060200160405180910390a3505050565b611a0560405180606001604052806000815260200160008152602001600081525090565b6001600160a01b038083166000908152600860209081526040918290208251606080820185528254825284518082018652600184015463ffffffff168152600284015481860152600384015490961686860152818401958652845180850186526004909301548352818501928352845190810190945290515193519091015190928291611a929190612578565b8351611a9e91906125bb565b8152602083810151810151908201526040928301515192019190915292915050565b600a80546001600160a01b03838116610100818102610100600160a81b031985161790945560405193909204169182907f8be0079c531659141344cd1fd0a4f28419497f9722a3daafe3b4186f6b6457e090600090a35050565b80516001600160a01b0390811660009081526008602090815260408083208151606080820184528254825283519081018452600183015463ffffffff16815260028301548186015260038301549096168684015280840195909552815192830182526004015482528381019190915283015115611ba757611ba48284600001518560200151611e44565b90505b8260400151611c305760208301516040830151511015611c005760405162461bcd60e51b8152602060048201526014602482015273105b5bdd5b9d08195e18d95959081b1bd8dad95960621b6044820152606401610845565b506020808301805184516001600160a01b0316600090815260089093526040909220600401805492909203909155515b8251610be79082611ef6565b600a5460ff1615610bfc5760405162461bcd60e51b815260206004820152601060248201526f14185d5cd8589b194e881c185d5cd95960821b6044820152606401610845565b611c8a611c3c565b600a805460ff191660011790557f62e78cea01bee320cd4e420270b5ea74000d11b0c9f74754ebdbfc544b05a25861175c3390565b6001600160a01b038082166000908152600860209081526040918290208251606080820185528254825284519081018552600183015463ffffffff1681526002830154818501526003830154861681860152818401908152845193840185526004909201548352808401929092525190910151909116611d785760405162461bcd60e51b8152602060048201526014602482015273457363617065206164647220697320656d70747960601b6044820152606401610845565b6000611d83836119e1565b90506000611daa8260400151610c90846020015185600001516110ee90919063ffffffff16565b6020938401516040908101516001600160a01b039081166000908152600890965281862080549093019092559416835250509081208181556002810182905560040155565b60006108f782846125bb565b600a5460ff16610bfc5760405162461bcd60e51b815260206004820152601460248201527314185d5cd8589b194e881b9bdd081c185d5cd95960621b6044820152606401610845565b6000818460200151602001511015611e8f5760405162461bcd60e51b815260206004820152600e60248201526d139bc81c1c995d881b1bd8dad95960921b6044820152606401610845565b60208401515163ffffffff164263ffffffff16106108f75750602092830180518401516001600160a01b0393841660009081526008865260408082209285900360028401558254859003909255825182015190941684529092208054909101905551015190565b6001600160a01b03821660009081526007602090815260408083208151606081018352815460ff81168252610100900463ffffffff169381018490526001909101549181019190915291901561107257602082015163ffffffff164263ffffffff1611156110725760008260200151611f6c4290565b0363ffffffff1690506000611fb5670de0b6b3a7640000611faf68056bc75e2d63100000611fa9612710600080015461204690919063ffffffff16565b90612052565b90612046565b90506000611fd3612710611fa9670de0b6b3a764000081868b612046565b9050611fdf8184612046565b6001600160a01b0388166000908152600760205260409020805464ffffffff001916905560025490945060ff169250508115905061201f57508060065410155b1561107257806006600082825461203691906125bb565b9091555061107290508482611779565b60006108f782846125d2565b60006108f782846125f1565b6040805160608082018352600080835283519182018452808252602082810182905293820152909182019081526020016120a46040518060200160405280600081525090565b905290565b6000815180845260005b818110156120cf576020818501810151868301820152016120b3565b818111156120e1576000602083870101525b50601f01601f19169290920160200192915050565b6020815260006108f760208301846120a9565b80356001600160a01b038116811461212057600080fd5b919050565b6000806040838503121561213857600080fd5b61214183612109565b946020939093013593505050565b60006020828403121561216157600080fd5b6108f782612109565b60008060006060848603121561217f57600080fd5b61218884612109565b925061219660208501612109565b9150604084013590509250925092565b60c08152825160c0820152602083015160e0820152604083015115156101008201526000606084015160c06101208401526121e56101808401826120a9565b9050608085015160bf198483030161014085015261220382826120a9565b60a08701516001600160a01b031661016086015292506108f7915050602083018480518252602080820151805163ffffffff168285015290810151604080850191909152908101516001600160a01b03166060840152015151608090910152565b60006020828403121561227657600080fd5b5035919050565b600080600080600060a0868803121561229557600080fd5b61229e86612109565b94506122ac60208701612109565b94979496505050506040830135926060810135926080909101359150565b6000806000606084860312156122df57600080fd5b6122e884612109565b925060208401359150604084013561ffff8116811461230657600080fd5b809150509250925092565b6000806040838503121561232457600080fd5b61232d83612109565b915061233b60208401612109565b90509250929050565b634e487b7160e01b600052604160045260246000fd5b604051601f8201601f1916810167ffffffffffffffff8111828210171561238357612383612344565b604052919050565b600067ffffffffffffffff8211156123a5576123a5612344565b5060051b60200190565b600082601f8301126123c057600080fd5b813560206123d56123d08361238b565b61235a565b82815260059290921b840181019181810190868411156123f457600080fd5b8286015b848110156124165761240981612109565b83529183019183016123f8565b509695505050505050565b6000806040838503121561243457600080fd5b823567ffffffffffffffff8082111561244c57600080fd5b818501915085601f83011261246057600080fd5b813560206124706123d08361238b565b82815260059290921b8401810191818101908984111561248f57600080fd5b948201945b838610156124ad57853582529482019490820190612494565b965050860135925050808211156124c357600080fd5b506124d0858286016123af565b9150509250929050565b600181811c908216806124ee57607f821691505b6020821081141561250f57634e487b7160e01b600052602260045260246000fd5b50919050565b6020808252600290820152614e4160f01b604082015260600190565b634e487b7160e01b600052603260045260246000fd5b634e487b7160e01b600052601160045260246000fd5b600060001982141561257157612571612547565b5060010190565b6000821982111561258b5761258b612547565b500190565b600062ffffff808316818516818304811182151516156125b2576125b2612547565b02949350505050565b6000828210156125cd576125cd612547565b500390565b60008160001904831182151516156125ec576125ec612547565b500290565b60008261260e57634e487b7160e01b600052601260045260246000fd5b50049056fea2646970667358221220ac6ae32ccebf811f91a4e8eeaaee5bc8c6087a4591992da03bdd70681715951064736f6c63430008090033",
  "devdoc": {
    "author": " For: Quatrefinance  By: Bobeu Github: https://github.com/bobeu Twitter: https://twitter.com/bobman7000",
    "kind": "dev",
    "methods": {
      "accountBalances(address)": {
        "details": "Return who's balances",
        "params": {
          "who": "- Account to enquire for."
        }
      },
      "activateReward()": {
        "details": "Activates reward"
      },
      "allowance(address,address)": {
        "details": "See {IERC20-allowance}."
      },
      "approve(address,uint256)": {
        "details": "See {IERC20-approve}. Requirements: - `spender` cannot be the zero address."
      },
      "balanceOf(address)": {
        "details": "See {IERC20-balanceOf} for more info. Returns total spendable balances of `account`"
      },
      "burn(uint256)": {
        "details": "Burns token of `amount`"
      },
      "deActivateReward()": {
        "details": "Deactivates reward"
      },
      "decimals()": {
        "details": "Returns the number of decimals used to get its user representation. For example, if `decimals` equals `2`, a balance of `505` tokens should be displayed to a user as `5.05` (`505 / 10 ** 2`). Tokens usually opt for a value of 18, imitating the relationship between Ether and Wei. This is the value {ERC20} uses, unless this function is overridden; NOTE: This information is only used for _display_ purposes: it in no way affects any of the arithmetic of the contract, including {IERC20-balanceOf} and {IERC20-transfer}."
      },
      "decreaseAllowance(address,uint256)": {
        "details": "Atomically decreases the allowance granted to `spender` by the caller. This is an alternative to {approve} that can be used as a mitigation for problems described in {IERC20-approve}. Emits an {Approval} event indicating the updated allowance. Requirements: - `spender` cannot be the zero address. - `spender` must have allowance for the caller of at least `subVal`."
      },
      "dynamicTransfer(uint256[],address[])": {
        "details": "Batch transfer: enables to transfer to multiple recipients. Also flexible enough to allow for dynamic transfer value."
      },
      "increaseAllowance(address,uint256)": {
        "details": "Atomically increases the allowance granted to `spender` by the caller. This is an alternative to {approve} that can be used as a mitigation for problems described in {IERC20-approve}. Emits an {Approval} event indicating the updated allowance. Requirements: - `spender` cannot be the zero address."
      },
      "lockSpecific(address,uint256,uint16)": {
        "details": "Moves the balance of an 'amount' from regular to locked to balances"
      },
      "maxSupply()": {
        "details": "Returns max supply"
      },
      "mint(address,uint256)": {
        "details": "Mints token of `amount  "
      },
      "name()": {
        "details": "Returns the name of the token."
      },
      "owner()": {
        "details": "Returns the address of the current owner."
      },
      "panicMove(address)": {
        "details": "Moves the balance of an 'amount' from locked to regular balances"
      },
      "pause()": {
        "details": "Pauses the contract. When called, some functions are halted."
      },
      "paused()": {
        "details": "Returns true if the contract is paused, and false otherwise."
      },
      "renounceOwnership()": {
        "details": "Leaves the contract without owner. It will not be possible to call `onlyOwner` functions anymore. Can only be called by the current owner. NOTE: Renouncing ownership will leave the contract without an owner, thereby removing any functionality that is only available to the owner."
      },
      "symbol()": {
        "details": "Returns the symbol of the token, usually a shorter version of the name."
      },
      "tokenData(address)": {
        "details": "Returns token data plus \"who's\" profile"
      },
      "totalSupply()": {
        "details": "See {IERC20-totalSupply}."
      },
      "transfer(address,uint256)": {
        "details": "See {IERC20-transfer}. Requirements: - `recipient` cannot be the zero address. - the caller must have a balance of at least `amount`."
      },
      "transferFrom(address,address,uint256)": {
        "details": "See {IERC20-transferFrom}. Emits an {Approval} event indicating the updated allowance. This is not required by the EIP. See the note at the beginning of {ERC20}. Requirements: - `sender` and `recipient` cannot be the zero address. - `sender` must have a balance of at least `amount`. - the caller must have allowance for ``sender``\"s tokens of at least `amount`. If called by the farmer, it signifies staking."
      },
      "transferOwnership(address)": {
        "details": "Transfers ownership of the contract to a new account (`newOwner`). Can only be called by the current owner."
      },
      "unlockAndTransfer(address,address,uint256)": {
        "details": "Perform dual actions:  1. Unlock subscription balances of 'par.amount'. 2. Move the balance to 'to'. Note : User must initiate a transaction that sends the call otherwise Digesu cannot execute this on its own. Neither can any member of the team nor the deployer is able to influence Digesu to make unintended call."
      },
      "unlockSpecific(uint256)": {
        "details": "Moves the balance of an 'amount' from locked to regular balances"
      },
      "unpause()": {
        "details": "unpauses the contract."
      }
    },
    "title": "QuatreFinance Token is the native token of the Quatrefinance platform. It is a utility token that gives its holders access to Quatrefinance products. Standard: ERC20 Standard. Type: Deflationary. Max Supply: 1_000_000_000. Decimal: 18. For more detail, see ERC20Abstract.sol",
    "version": 1
  },
  "userdoc": {
    "kind": "user",
    "methods": {
      "balanceOf(address)": {
        "notice": ": Spendable balance is a function of main balance less the  addition of locked balances and balance in subscription."
      },
      "lockFor(address,uint256)": {
        "notice": "Locks specific amount to `tsrget's` accountCallable only by the Digesu contract on behalf of subscribers on approval. Note : User must initiate a transaction that initiate the call otherise Digesu cannot execute on its own. Neither can any member of the team nor the deployer is able to influence Digesu to make unintended call."
      },
      "unlockFor(address,address,uint256,uint256,uint256)": {
        "notice": "Callable only by the Digesu contract on behalf of subscribers on approval. Note : User must initiate a transaction that sends the call otherwise Digesu cannot execute this on its own. Neither can any member of the team nor the deployer is able to influence Digesu to make unintended call. o User who successfully complete a circle on Digesu are entitled to mint some QFT based on the amount contributed. For proper reward calculation, see Utils.computeReward(). o Minting reqard is based on whether minting is active or not. o A condition may also warrant transfering penalty charged to other party.    "
      }
    },
    "version": 1
  },
  "storageLayout": {
    "storage": [
      {
        "astId": 15247,
        "contract": "contracts/digesu/token/QuatreToken.sol:QuatreToken",
        "label": "meta",
        "offset": 0,
        "slot": "0",
        "type": "t_struct(MetaData)16723_storage"
      },
      {
        "astId": 15249,
        "contract": "contracts/digesu/token/QuatreToken.sol:QuatreToken",
        "label": "reserved",
        "offset": 0,
        "slot": "6",
        "type": "t_uint256"
      },
      {
        "astId": 15255,
        "contract": "contracts/digesu/token/QuatreToken.sol:QuatreToken",
        "label": "tier1",
        "offset": 0,
        "slot": "7",
        "type": "t_mapping(t_address,t_struct(Share)16710_storage)"
      },
      {
        "astId": 15261,
        "contract": "contracts/digesu/token/QuatreToken.sol:QuatreToken",
        "label": "_balances",
        "offset": 0,
        "slot": "8",
        "type": "t_mapping(t_address,t_struct(Holders)16686_storage)"
      },
      {
        "astId": 15267,
        "contract": "contracts/digesu/token/QuatreToken.sol:QuatreToken",
        "label": "_allowances",
        "offset": 0,
        "slot": "9",
        "type": "t_mapping(t_address,t_mapping(t_address,t_uint256))"
      },
      {
        "astId": 16901,
        "contract": "contracts/digesu/token/QuatreToken.sol:QuatreToken",
        "label": "_paused",
        "offset": 0,
        "slot": "10",
        "type": "t_bool"
      },
      {
        "astId": 16778,
        "contract": "contracts/digesu/token/QuatreToken.sol:QuatreToken",
        "label": "_owner",
        "offset": 1,
        "slot": "10",
        "type": "t_address"
      },
      {
        "astId": 17005,
        "contract": "contracts/digesu/token/QuatreToken.sol:QuatreToken",
        "label": "rewardActive",
        "offset": 21,
        "slot": "10",
        "type": "t_bool"
      }
    ],
    "types": {
      "t_address": {
        "encoding": "inplace",
        "label": "address",
        "numberOfBytes": "20"
      },
      "t_bool": {
        "encoding": "inplace",
        "label": "bool",
        "numberOfBytes": "1"
      },
      "t_mapping(t_address,t_mapping(t_address,t_uint256))": {
        "encoding": "mapping",
        "key": "t_address",
        "label": "mapping(address => mapping(address => uint256))",
        "numberOfBytes": "32",
        "value": "t_mapping(t_address,t_uint256)"
      },
      "t_mapping(t_address,t_struct(Holders)16686_storage)": {
        "encoding": "mapping",
        "key": "t_address",
        "label": "mapping(address => struct IERC20.Holders)",
        "numberOfBytes": "32",
        "value": "t_struct(Holders)16686_storage"
      },
      "t_mapping(t_address,t_struct(Share)16710_storage)": {
        "encoding": "mapping",
        "key": "t_address",
        "label": "mapping(address => struct IERC20.Share)",
        "numberOfBytes": "32",
        "value": "t_struct(Share)16710_storage"
      },
      "t_mapping(t_address,t_uint256)": {
        "encoding": "mapping",
        "key": "t_address",
        "label": "mapping(address => uint256)",
        "numberOfBytes": "32",
        "value": "t_uint256"
      },
      "t_string_storage": {
        "encoding": "bytes",
        "label": "string",
        "numberOfBytes": "32"
      },
      "t_struct(Holders)16686_storage": {
        "encoding": "inplace",
        "label": "struct IERC20.Holders",
        "members": [
          {
            "astId": 16679,
            "contract": "contracts/digesu/token/QuatreToken.sol:QuatreToken",
            "label": "main",
            "offset": 0,
            "slot": "0",
            "type": "t_uint256"
          },
          {
            "astId": 16682,
            "contract": "contracts/digesu/token/QuatreToken.sol:QuatreToken",
            "label": "locked",
            "offset": 0,
            "slot": "1",
            "type": "t_struct(SelfLocked)16693_storage"
          },
          {
            "astId": 16685,
            "contract": "contracts/digesu/token/QuatreToken.sol:QuatreToken",
            "label": "sub",
            "offset": 0,
            "slot": "4",
            "type": "t_struct(Subscription)16696_storage"
          }
        ],
        "numberOfBytes": "160"
      },
      "t_struct(MetaData)16723_storage": {
        "encoding": "inplace",
        "label": "struct IERC20.MetaData",
        "members": [
          {
            "astId": 16712,
            "contract": "contracts/digesu/token/QuatreToken.sol:QuatreToken",
            "label": "rewardRate",
            "offset": 0,
            "slot": "0",
            "type": "t_uint256"
          },
          {
            "astId": 16714,
            "contract": "contracts/digesu/token/QuatreToken.sol:QuatreToken",
            "label": "tSupply",
            "offset": 0,
            "slot": "1",
            "type": "t_uint256"
          },
          {
            "astId": 16716,
            "contract": "contracts/digesu/token/QuatreToken.sol:QuatreToken",
            "label": "shareActive",
            "offset": 0,
            "slot": "2",
            "type": "t_bool"
          },
          {
            "astId": 16718,
            "contract": "contracts/digesu/token/QuatreToken.sol:QuatreToken",
            "label": "name",
            "offset": 0,
            "slot": "3",
            "type": "t_string_storage"
          },
          {
            "astId": 16720,
            "contract": "contracts/digesu/token/QuatreToken.sol:QuatreToken",
            "label": "symbol",
            "offset": 0,
            "slot": "4",
            "type": "t_string_storage"
          },
          {
            "astId": 16722,
            "contract": "contracts/digesu/token/QuatreToken.sol:QuatreToken",
            "label": "digesuAddr",
            "offset": 0,
            "slot": "5",
            "type": "t_address"
          }
        ],
        "numberOfBytes": "192"
      },
      "t_struct(SelfLocked)16693_storage": {
        "encoding": "inplace",
        "label": "struct IERC20.SelfLocked",
        "members": [
          {
            "astId": 16688,
            "contract": "contracts/digesu/token/QuatreToken.sol:QuatreToken",
            "label": "lockTil",
            "offset": 0,
            "slot": "0",
            "type": "t_uint32"
          },
          {
            "astId": 16690,
            "contract": "contracts/digesu/token/QuatreToken.sol:QuatreToken",
            "label": "value",
            "offset": 0,
            "slot": "1",
            "type": "t_uint256"
          },
          {
            "astId": 16692,
            "contract": "contracts/digesu/token/QuatreToken.sol:QuatreToken",
            "label": "routeTo",
            "offset": 0,
            "slot": "2",
            "type": "t_address"
          }
        ],
        "numberOfBytes": "96"
      },
      "t_struct(Share)16710_storage": {
        "encoding": "inplace",
        "label": "struct IERC20.Share",
        "members": [
          {
            "astId": 16705,
            "contract": "contracts/digesu/token/QuatreToken.sol:QuatreToken",
            "label": "idleTimeInDays",
            "offset": 0,
            "slot": "0",
            "type": "t_uint8"
          },
          {
            "astId": 16707,
            "contract": "contracts/digesu/token/QuatreToken.sol:QuatreToken",
            "label": "lastLockedDate",
            "offset": 1,
            "slot": "0",
            "type": "t_uint32"
          },
          {
            "astId": 16709,
            "contract": "contracts/digesu/token/QuatreToken.sol:QuatreToken",
            "label": "reward",
            "offset": 0,
            "slot": "1",
            "type": "t_uint256"
          }
        ],
        "numberOfBytes": "64"
      },
      "t_struct(Subscription)16696_storage": {
        "encoding": "inplace",
        "label": "struct IERC20.Subscription",
        "members": [
          {
            "astId": 16695,
            "contract": "contracts/digesu/token/QuatreToken.sol:QuatreToken",
            "label": "value",
            "offset": 0,
            "slot": "0",
            "type": "t_uint256"
          }
        ],
        "numberOfBytes": "32"
      },
      "t_uint256": {
        "encoding": "inplace",
        "label": "uint256",
        "numberOfBytes": "32"
      },
      "t_uint32": {
        "encoding": "inplace",
        "label": "uint32",
        "numberOfBytes": "4"
      },
      "t_uint8": {
        "encoding": "inplace",
        "label": "uint8",
        "numberOfBytes": "1"
      }
    }
  }
}