{
  "_format": "hh-sol-artifact-1",
  "contractName": "ArrowCatch",
  "sourceName": "contracts/ArrowCatch.sol",
  "abi": [
    {
      "inputs": [],
      "stateMutability": "nonpayable",
      "type": "constructor"
    },
    {
      "anonymous": false,
      "inputs": [
        {
          "indexed": true,
          "internalType": "address",
          "name": "owner",
          "type": "address"
        },
        {
          "indexed": true,
          "internalType": "address",
          "name": "approved",
          "type": "address"
        },
        {
          "indexed": true,
          "internalType": "uint256",
          "name": "tokenId",
          "type": "uint256"
        }
      ],
      "name": "Approval",
      "type": "event"
    },
    {
      "anonymous": false,
      "inputs": [
        {
          "indexed": true,
          "internalType": "address",
          "name": "owner",
          "type": "address"
        },
        {
          "indexed": true,
          "internalType": "address",
          "name": "operator",
          "type": "address"
        },
        {
          "indexed": false,
          "internalType": "bool",
          "name": "approved",
          "type": "bool"
        }
      ],
      "name": "ApprovalForAll",
      "type": "event"
    },
    {
      "anonymous": false,
      "inputs": [
        {
          "indexed": false,
          "internalType": "string",
          "name": "state",
          "type": "string"
        },
        {
          "indexed": false,
          "internalType": "uint256",
          "name": "reward",
          "type": "uint256"
        }
      ],
      "name": "Challenge",
      "type": "event"
    },
    {
      "anonymous": false,
      "inputs": [
        {
          "indexed": false,
          "internalType": "uint256",
          "name": "tokenid",
          "type": "uint256"
        },
        {
          "indexed": false,
          "internalType": "uint256",
          "name": "prize",
          "type": "uint256"
        }
      ],
      "name": "CloseContest",
      "type": "event"
    },
    {
      "anonymous": false,
      "inputs": [
        {
          "indexed": false,
          "internalType": "uint256",
          "name": "tokenid",
          "type": "uint256"
        }
      ],
      "name": "CreateNFT",
      "type": "event"
    },
    {
      "anonymous": false,
      "inputs": [
        {
          "indexed": false,
          "internalType": "uint256",
          "name": "tokenid",
          "type": "uint256"
        },
        {
          "indexed": false,
          "internalType": "uint256",
          "name": "prize",
          "type": "uint256"
        }
      ],
      "name": "OpenContest",
      "type": "event"
    },
    {
      "anonymous": false,
      "inputs": [
        {
          "indexed": true,
          "internalType": "address",
          "name": "from",
          "type": "address"
        },
        {
          "indexed": true,
          "internalType": "address",
          "name": "to",
          "type": "address"
        },
        {
          "indexed": true,
          "internalType": "uint256",
          "name": "tokenId",
          "type": "uint256"
        }
      ],
      "name": "Transfer",
      "type": "event"
    },
    {
      "inputs": [],
      "name": "NFTTotalSupply",
      "outputs": [
        {
          "internalType": "uint256",
          "name": "totalsupply",
          "type": "uint256"
        }
      ],
      "stateMutability": "view",
      "type": "function"
    },
    {
      "inputs": [],
      "name": "RandomHit",
      "outputs": [
        {
          "internalType": "string",
          "name": "translate",
          "type": "string"
        }
      ],
      "stateMutability": "nonpayable",
      "type": "function"
    },
    {
      "inputs": [
        {
          "internalType": "uint256",
          "name": "",
          "type": "uint256"
        }
      ],
      "name": "anglId",
      "outputs": [
        {
          "internalType": "uint256",
          "name": "",
          "type": "uint256"
        }
      ],
      "stateMutability": "view",
      "type": "function"
    },
    {
      "inputs": [
        {
          "internalType": "address",
          "name": "to",
          "type": "address"
        },
        {
          "internalType": "uint256",
          "name": "tokenId",
          "type": "uint256"
        }
      ],
      "name": "approve",
      "outputs": [],
      "stateMutability": "nonpayable",
      "type": "function"
    },
    {
      "inputs": [
        {
          "internalType": "address",
          "name": "owner",
          "type": "address"
        }
      ],
      "name": "balanceOf",
      "outputs": [
        {
          "internalType": "uint256",
          "name": "",
          "type": "uint256"
        }
      ],
      "stateMutability": "view",
      "type": "function"
    },
    {
      "inputs": [
        {
          "internalType": "uint256",
          "name": "tokenId",
          "type": "uint256"
        }
      ],
      "name": "challenge",
      "outputs": [],
      "stateMutability": "payable",
      "type": "function"
    },
    {
      "inputs": [
        {
          "internalType": "uint256",
          "name": "_tokenId",
          "type": "uint256"
        }
      ],
      "name": "closeContest",
      "outputs": [],
      "stateMutability": "nonpayable",
      "type": "function"
    },
    {
      "inputs": [],
      "name": "createNFT",
      "outputs": [
        {
          "internalType": "uint256",
          "name": "",
          "type": "uint256"
        }
      ],
      "stateMutability": "payable",
      "type": "function"
    },
    {
      "inputs": [],
      "name": "fetchMarketItems",
      "outputs": [
        {
          "components": [
            {
              "internalType": "uint256",
              "name": "tokenId",
              "type": "uint256"
            },
            {
              "internalType": "address payable",
              "name": "tokenowner",
              "type": "address"
            },
            {
              "internalType": "uint256",
              "name": "radius",
              "type": "uint256"
            },
            {
              "internalType": "uint256",
              "name": "angle",
              "type": "uint256"
            },
            {
              "internalType": "uint256",
              "name": "points",
              "type": "uint256"
            },
            {
              "internalType": "uint256",
              "name": "prize",
              "type": "uint256"
            },
            {
              "internalType": "bool",
              "name": "state",
              "type": "bool"
            }
          ],
          "internalType": "struct ArrowCatch.ArrwoItem[]",
          "name": "",
          "type": "tuple[]"
        }
      ],
      "stateMutability": "view",
      "type": "function"
    },
    {
      "inputs": [],
      "name": "fetchMyItem",
      "outputs": [
        {
          "components": [
            {
              "internalType": "uint256",
              "name": "tokenId",
              "type": "uint256"
            },
            {
              "internalType": "address payable",
              "name": "tokenowner",
              "type": "address"
            },
            {
              "internalType": "uint256",
              "name": "radius",
              "type": "uint256"
            },
            {
              "internalType": "uint256",
              "name": "angle",
              "type": "uint256"
            },
            {
              "internalType": "uint256",
              "name": "points",
              "type": "uint256"
            },
            {
              "internalType": "uint256",
              "name": "prize",
              "type": "uint256"
            },
            {
              "internalType": "bool",
              "name": "state",
              "type": "bool"
            }
          ],
          "internalType": "struct ArrowCatch.ArrwoItem[]",
          "name": "",
          "type": "tuple[]"
        }
      ],
      "stateMutability": "view",
      "type": "function"
    },
    {
      "inputs": [
        {
          "internalType": "string",
          "name": "imageURI",
          "type": "string"
        }
      ],
      "name": "formatTokenURI",
      "outputs": [
        {
          "internalType": "string",
          "name": "",
          "type": "string"
        }
      ],
      "stateMutability": "view",
      "type": "function"
    },
    {
      "inputs": [
        {
          "internalType": "uint256",
          "name": "tokenId",
          "type": "uint256"
        }
      ],
      "name": "getApproved",
      "outputs": [
        {
          "internalType": "address",
          "name": "",
          "type": "address"
        }
      ],
      "stateMutability": "view",
      "type": "function"
    },
    {
      "inputs": [
        {
          "internalType": "address",
          "name": "owner",
          "type": "address"
        },
        {
          "internalType": "address",
          "name": "operator",
          "type": "address"
        }
      ],
      "name": "isApprovedForAll",
      "outputs": [
        {
          "internalType": "bool",
          "name": "",
          "type": "bool"
        }
      ],
      "stateMutability": "view",
      "type": "function"
    },
    {
      "inputs": [],
      "name": "name",
      "outputs": [
        {
          "internalType": "string",
          "name": "",
          "type": "string"
        }
      ],
      "stateMutability": "view",
      "type": "function"
    },
    {
      "inputs": [
        {
          "internalType": "uint256",
          "name": "_tokenId",
          "type": "uint256"
        },
        {
          "internalType": "uint256",
          "name": "prize",
          "type": "uint256"
        }
      ],
      "name": "openContest",
      "outputs": [],
      "stateMutability": "payable",
      "type": "function"
    },
    {
      "inputs": [
        {
          "internalType": "uint256",
          "name": "tokenId",
          "type": "uint256"
        }
      ],
      "name": "ownerOf",
      "outputs": [
        {
          "internalType": "address",
          "name": "",
          "type": "address"
        }
      ],
      "stateMutability": "view",
      "type": "function"
    },
    {
      "inputs": [
        {
          "internalType": "uint256",
          "name": "_tokenId",
          "type": "uint256"
        }
      ],
      "name": "pointOfTokenId",
      "outputs": [
        {
          "internalType": "uint256",
          "name": "",
          "type": "uint256"
        }
      ],
      "stateMutability": "view",
      "type": "function"
    },
    {
      "inputs": [
        {
          "internalType": "address",
          "name": "from",
          "type": "address"
        },
        {
          "internalType": "address",
          "name": "to",
          "type": "address"
        },
        {
          "internalType": "uint256",
          "name": "tokenId",
          "type": "uint256"
        }
      ],
      "name": "safeTransferFrom",
      "outputs": [],
      "stateMutability": "nonpayable",
      "type": "function"
    },
    {
      "inputs": [
        {
          "internalType": "address",
          "name": "from",
          "type": "address"
        },
        {
          "internalType": "address",
          "name": "to",
          "type": "address"
        },
        {
          "internalType": "uint256",
          "name": "tokenId",
          "type": "uint256"
        },
        {
          "internalType": "bytes",
          "name": "data",
          "type": "bytes"
        }
      ],
      "name": "safeTransferFrom",
      "outputs": [],
      "stateMutability": "nonpayable",
      "type": "function"
    },
    {
      "inputs": [
        {
          "internalType": "address",
          "name": "operator",
          "type": "address"
        },
        {
          "internalType": "bool",
          "name": "approved",
          "type": "bool"
        }
      ],
      "name": "setApprovalForAll",
      "outputs": [],
      "stateMutability": "nonpayable",
      "type": "function"
    },
    {
      "inputs": [
        {
          "internalType": "uint256",
          "name": "_mintPrice",
          "type": "uint256"
        }
      ],
      "name": "setmintPrice",
      "outputs": [],
      "stateMutability": "nonpayable",
      "type": "function"
    },
    {
      "inputs": [
        {
          "internalType": "bytes4",
          "name": "interfaceId",
          "type": "bytes4"
        }
      ],
      "name": "supportsInterface",
      "outputs": [
        {
          "internalType": "bool",
          "name": "",
          "type": "bool"
        }
      ],
      "stateMutability": "view",
      "type": "function"
    },
    {
      "inputs": [],
      "name": "svg1",
      "outputs": [
        {
          "internalType": "string",
          "name": "",
          "type": "string"
        }
      ],
      "stateMutability": "view",
      "type": "function"
    },
    {
      "inputs": [
        {
          "internalType": "string",
          "name": "svg",
          "type": "string"
        }
      ],
      "name": "svgToImageURI",
      "outputs": [
        {
          "internalType": "string",
          "name": "",
          "type": "string"
        }
      ],
      "stateMutability": "pure",
      "type": "function"
    },
    {
      "inputs": [],
      "name": "symbol",
      "outputs": [
        {
          "internalType": "string",
          "name": "",
          "type": "string"
        }
      ],
      "stateMutability": "view",
      "type": "function"
    },
    {
      "inputs": [
        {
          "internalType": "uint256",
          "name": "tokenId",
          "type": "uint256"
        }
      ],
      "name": "tokenURI",
      "outputs": [
        {
          "internalType": "string",
          "name": "",
          "type": "string"
        }
      ],
      "stateMutability": "view",
      "type": "function"
    },
    {
      "inputs": [],
      "name": "totalpoints",
      "outputs": [
        {
          "internalType": "uint256",
          "name": "",
          "type": "uint256"
        }
      ],
      "stateMutability": "view",
      "type": "function"
    },
    {
      "inputs": [
        {
          "internalType": "address",
          "name": "from",
          "type": "address"
        },
        {
          "internalType": "address",
          "name": "to",
          "type": "address"
        },
        {
          "internalType": "uint256",
          "name": "tokenId",
          "type": "uint256"
        }
      ],
      "name": "transferFrom",
      "outputs": [],
      "stateMutability": "nonpayable",
      "type": "function"
    }
  ],
  "bytecode": "0x608060405260c8600955614000600a556000600b556000600c556000600d556703782dace9d90000600f55604051806102800160405280600660ff168152602001600d60ff168152602001600460ff168152602001601260ff168152602001600160ff168152602001601460ff168152602001600560ff168152602001600c60ff168152602001600960ff168152602001600e60ff168152602001600b60ff168152602001600860ff168152602001601060ff168152602001600760ff168152602001601360ff168152602001600360ff168152602001601160ff168152602001600260ff168152602001600f60ff168152602001600a60ff1681525060109060146200010e92919062000239565b503480156200011c57600080fd5b506040518060400160405280600881526020017f426f6172645356470000000000000000000000000000000000000000000000008152506040518060400160405280600581526020017f42444e46540000000000000000000000000000000000000000000000000000008152508160009080519060200190620001a192919062000290565b508060019080519060200190620001ba92919062000290565b50505033600760006101000a81548173ffffffffffffffffffffffffffffffffffffffff021916908373ffffffffffffffffffffffffffffffffffffffff16021790555060405180610d600160405280610d218152602001620055f5610d219139600e90805190602001906200023292919062000290565b50620003a5565b8280548282559060005260206000209081019282156200027d579160200282015b828111156200027c578251829060ff169055916020019190600101906200025a565b5b5090506200028c919062000321565b5090565b8280546200029e9062000340565b90600052602060002090601f016020900481019282620002c257600085556200030e565b82601f10620002dd57805160ff19168380011785556200030e565b828001600101855582156200030e579182015b828111156200030d578251825591602001919060010190620002f0565b5b5090506200031d919062000321565b5090565b5b808211156200033c57600081600090555060010162000322565b5090565b600060028204905060018216806200035957607f821691505b6020821081141562000370576200036f62000376565b5b50919050565b7f4e487b7100000000000000000000000000000000000000000000000000000000600052602260045260246000fd5b61524080620003b56000396000f3fe6080604052600436106101b75760003560e01c806371aee193116100ec578063b88d4fde1161008a578063db62c8e711610064578063db62c8e71461062a578063ddcbc84514610667578063e7e07c4414610692578063e985e9c5146106ae576101b7565b8063b88d4fde14610599578063c87b56dd146105c2578063ce39f21e146105ff576101b7565b806395d89b41116100c657806395d89b4114610500578063a22cb4651461052b578063ab82d9a014610554578063b488cf1814610570576101b7565b806371aee1931461047a5780638a97ec2a146104b757806394104c34146104d5576101b7565b806330d871c61161015957806363081f471161013357806363081f47146103ac5780636352211e146103d7578063636ec7891461041457806370a082311461043d576101b7565b806330d871c61461031b57806342842e0e14610358578063452edf5514610381576101b7565b8063081812fc11610195578063081812fc14610261578063095ea7b31461029e5780630f08efe0146102c757806323b872dd146102f2576101b7565b806301ffc9a7146101bc57806304481cd6146101f957806306fdde0314610236575b600080fd5b3480156101c857600080fd5b506101e360048036038101906101de91906134b9565b6106eb565b6040516101f09190613f6e565b60405180910390f35b34801561020557600080fd5b50610220600480360381019061021b9190613575565b6107cd565b60405161022d91906142a2565b60405180910390f35b34801561024257600080fd5b5061024b6107f1565b6040516102589190613f89565b60405180910390f35b34801561026d57600080fd5b5061028860048036038101906102839190613575565b610883565b6040516102959190613ee5565b60405180910390f35b3480156102aa57600080fd5b506102c560048036038101906102c0919061347d565b6108c9565b005b3480156102d357600080fd5b506102dc6109e1565b6040516102e99190613f4c565b60405180910390f35b3480156102fe57600080fd5b5061031960048036038101906103149190613377565b610c6f565b005b34801561032757600080fd5b50610342600480360381019061033d9190613534565b610ccf565b60405161034f9190613f89565b60405180910390f35b34801561036457600080fd5b5061037f600480360381019061037a9190613377565b610d62565b005b34801561038d57600080fd5b50610396610d82565b6040516103a39190613f4c565b60405180910390f35b3480156103b857600080fd5b506103c16110cf565b6040516103ce9190613f89565b60405180910390f35b3480156103e357600080fd5b506103fe60048036038101906103f99190613575565b6113b8565b60405161040b9190613ee5565b60405180910390f35b34801561042057600080fd5b5061043b60048036038101906104369190613575565b61146a565b005b34801561044957600080fd5b50610464600480360381019061045f9190613312565b6116c8565b60405161047191906142a2565b60405180910390f35b34801561048657600080fd5b506104a1600480360381019061049c9190613534565b611780565b6040516104ae9190613f89565b60405180910390f35b6104bf6117f4565b6040516104cc91906142a2565b60405180910390f35b3480156104e157600080fd5b506104ea611a78565b6040516104f791906142a2565b60405180910390f35b34801561050c57600080fd5b50610515611a89565b6040516105229190613f89565b60405180910390f35b34801561053757600080fd5b50610552600480360381019061054d9190613441565b611b1b565b005b61056e60048036038101906105699190613575565b611b31565b005b34801561057c57600080fd5b5061059760048036038101906105929190613575565b611d22565b005b3480156105a557600080fd5b506105c060048036038101906105bb91906133c6565b611d86565b005b3480156105ce57600080fd5b506105e960048036038101906105e49190613575565b611de8565b6040516105f69190613f89565b60405180910390f35b34801561060b57600080fd5b50610614611efb565b60405161062191906142a2565b60405180910390f35b34801561063657600080fd5b50610651600480360381019061064c9190613575565b611f66565b60405161065e91906142a2565b60405180910390f35b34801561067357600080fd5b5061067c611f8b565b6040516106899190613f89565b60405180910390f35b6106ac60048036038101906106a7919061359e565b612019565b005b3480156106ba57600080fd5b506106d560048036038101906106d0919061333b565b612190565b6040516106e29190613f6e565b60405180910390f35b60007f80ac58cd000000000000000000000000000000000000000000000000000000007bffffffffffffffffffffffffffffffffffffffffffffffffffffffff1916827bffffffffffffffffffffffffffffffffffffffffffffffffffffffff191614806107b657507f5b5e139f000000000000000000000000000000000000000000000000000000007bffffffffffffffffffffffffffffffffffffffffffffffffffffffff1916827bffffffffffffffffffffffffffffffffffffffffffffffffffffffff1916145b806107c657506107c582612224565b5b9050919050565b601081815481106107dd57600080fd5b906000526020600020016000915090505481565b606060008054610800906148a3565b80601f016020809104026020016040519081016040528092919081815260200182805461082c906148a3565b80156108795780601f1061084e57610100808354040283529160200191610879565b820191906000526020600020905b81548152906001019060200180831161085c57829003601f168201915b5050505050905090565b600061088e8261228e565b6004600083815260200190815260200160002060009054906101000a900473ffffffffffffffffffffffffffffffffffffffff169050919050565b60006108d4826113b8565b90508073ffffffffffffffffffffffffffffffffffffffff168373ffffffffffffffffffffffffffffffffffffffff161415610945576040517f08c379a000000000000000000000000000000000000000000000000000000000815260040161093c9061418b565b60405180910390fd5b8073ffffffffffffffffffffffffffffffffffffffff166109646122d9565b73ffffffffffffffffffffffffffffffffffffffff16148061099357506109928161098d6122d9565b612190565b5b6109d2576040517f08c379a00000000000000000000000000000000000000000000000000000000081526004016109c99061410b565b60405180910390fd5b6109dc83836122e1565b505050565b606060006109ef600861239a565b905060008060005b83811015610a5e576001151560116000600184610a14919061449d565b815260200190815260200160002060060160009054906101000a900460ff1615151415610a4b57600183610a48919061449d565b92505b8080610a5690614906565b9150506109f7565b5060008267ffffffffffffffff811115610aa1577f4e487b7100000000000000000000000000000000000000000000000000000000600052604160045260246000fd5b604051908082528060200260200182016040528015610ada57816020015b610ac76130cc565b815260200190600190039081610abf5790505b50905060005b84811015610c64576001151560116000600184610afd919061449d565b815260200190815260200160002060060160009054906101000a900460ff1615151415610c51576000600182610b33919061449d565b90506000601160008381526020019081526020016000209050806040518060e0016040529081600082015481526020016001820160009054906101000a900473ffffffffffffffffffffffffffffffffffffffff1673ffffffffffffffffffffffffffffffffffffffff1673ffffffffffffffffffffffffffffffffffffffff168152602001600282015481526020016003820154815260200160048201548152602001600582015481526020016006820160009054906101000a900460ff161515151581525050848681518110610c34577f4e487b7100000000000000000000000000000000000000000000000000000000600052603260045260246000fd5b6020026020010181905250600185610c4c919061449d565b945050505b8080610c5c90614906565b915050610ae0565b508094505050505090565b610c80610c7a6122d9565b826123a8565b610cbf576040517f08c379a0000000000000000000000000000000000000000000000000000000008152600401610cb690614219565b60405180910390fd5b610cca83838361243d565b505050565b606060006040518060400160405280601a81526020017f646174613a696d6167652f7376672b786d6c3b6261736536342c00000000000081525090506000610d3584604051602001610d219190613d7f565b6040516020818303038152906040526126a4565b90508181604051602001610d4a929190613d96565b60405160208183030381529060405292505050919050565b610d7d83838360405180602001604052806000815250611d86565b505050565b60606000610d90600861239a565b905060008060005b83811015610e39573373ffffffffffffffffffffffffffffffffffffffff1660116000600184610dc8919061449d565b815260200190815260200160002060010160009054906101000a900473ffffffffffffffffffffffffffffffffffffffff1673ffffffffffffffffffffffffffffffffffffffff161415610e2657600183610e23919061449d565b92505b8080610e3190614906565b915050610d98565b5060008267ffffffffffffffff811115610e7c577f4e487b7100000000000000000000000000000000000000000000000000000000600052604160045260246000fd5b604051908082528060200260200182016040528015610eb557816020015b610ea26130cc565b815260200190600190039081610e9a5790505b50905060005b848110156110c4573373ffffffffffffffffffffffffffffffffffffffff1660116000600184610eeb919061449d565b815260200190815260200160002060010160009054906101000a900473ffffffffffffffffffffffffffffffffffffffff1673ffffffffffffffffffffffffffffffffffffffff16148015610f7f57503373ffffffffffffffffffffffffffffffffffffffff16610f67600183610f62919061449d565b6113b8565b73ffffffffffffffffffffffffffffffffffffffff16145b156110b1576000600182610f93919061449d565b90506000601160008381526020019081526020016000209050806040518060e0016040529081600082015481526020016001820160009054906101000a900473ffffffffffffffffffffffffffffffffffffffff1673ffffffffffffffffffffffffffffffffffffffff1673ffffffffffffffffffffffffffffffffffffffff168152602001600282015481526020016003820154815260200160048201548152602001600582015481526020016006820160009054906101000a900460ff161515151581525050848681518110611094577f4e487b7100000000000000000000000000000000000000000000000000000000600052603260045260246000fd5b60200260200101819052506001856110ac919061449d565b945050505b80806110bc90614906565b915050610ebb565b508094505050505090565b6060600060095433426001436110e59190614793565b4043406040516020016110fb9493929190613d31565b6040516020818303038152906040528051906020012060001c61111e9190614987565b90506000600a5433426001436111349190614793565b40434060405160200161114a9493929190613d31565b6040516020818303038152906040528051906020012060001c61116d9190614987565b905081600b819055506140006101678261118791906146a5565b611191919061455d565b600c8190555060006012600c546111a8919061455d565b9050600b5460d2601083815481106111e9577f4e487b7100000000000000000000000000000000000000000000000000000000600052603260045260246000fd5b90600052602060002001546111fe91906146a5565b6112089190614793565b600d81905550600073__$b301bb6a1d274f8250e319052e37d13ded$__63a58b00ba846040518263ffffffff1660e01b81526004016112479190614287565b60206040518083038186803b15801561125f57600080fd5b505af4158015611273573d6000803e3d6000fd5b505050506040513d601f19601f82011682018060405250810190611297919061350b565b9050600073__$b301bb6a1d274f8250e319052e37d13ded$__63cb5cc109856040518263ffffffff1660e01b81526004016112d29190614287565b60206040518083038186803b1580156112ea57600080fd5b505af41580156112fe573d6000803e3d6000fd5b505050506040513d601f19601f82011682018060405250810190611322919061350b565b9050600061135560f0617fff85600b5461133c919061458e565b61134691906144f3565b6113509190614409565b612843565b90506000611388617fff84600b5461136d919061458e565b61137791906144f3565b60f061138391906146ff565b612843565b9050818160405160200161139d929190613dde565b60405160208183030381529060405297505050505050505090565b6000806002600084815260200190815260200160002060009054906101000a900473ffffffffffffffffffffffffffffffffffffffff169050600073ffffffffffffffffffffffffffffffffffffffff168173ffffffffffffffffffffffffffffffffffffffff161415611461576040517f08c379a00000000000000000000000000000000000000000000000000000000081526004016114589061414b565b60405180910390fd5b80915050919050565b600115156011600083815260200190815260200160002060060160009054906101000a900460ff161515146114d4576040517f08c379a00000000000000000000000000000000000000000000000000000000081526004016114cb906141cb565b60405180910390fd5b3373ffffffffffffffffffffffffffffffffffffffff166011600083815260200190815260200160002060010160009054906101000a900473ffffffffffffffffffffffffffffffffffffffff1673ffffffffffffffffffffffffffffffffffffffff1614611578576040517f08c379a000000000000000000000000000000000000000000000000000000000815260040161156f90614267565b60405180910390fd5b60006011600083815260200190815260200160002060050154905060003373ffffffffffffffffffffffffffffffffffffffff16826040516115b990613e45565b60006040518083038185875af1925050503d80600081146115f6576040519150601f19603f3d011682016040523d82523d6000602084013e6115fb565b606091505b505090508061163f576040517f08c379a00000000000000000000000000000000000000000000000000000000081526004016116369061402b565b60405180910390fd5b60006011600085815260200190815260200160002060060160006101000a81548160ff021916908315150217905550600060116000858152602001908152602001600020600501819055507fc63f9d796cfdeffff00ce57fde0dec19236e976c9f1c076dcd7ec8e91acce0ac83836040516116bb9291906142bd565b60405180910390a1505050565b60008073ffffffffffffffffffffffffffffffffffffffff168273ffffffffffffffffffffffffffffffffffffffff161415611739576040517f08c379a0000000000000000000000000000000000000000000000000000000008152600401611730906140cb565b60405180910390fd5b600360008373ffffffffffffffffffffffffffffffffffffffff1673ffffffffffffffffffffffffffffffffffffffff168152602001908152602001600020549050919050565b60606117ce611790600b54612843565b61179b600c54612843565b6117a6600d54612843565b856040516020016117ba9493929190613e5a565b6040516020818303038152906040526126a4565b6040516020016117de9190613e23565b6040516020818303038152906040529050919050565b600061180060086129f0565b600061180c600861239a565b90506118183382612a06565b6000600e6118246110cf565b604051602001611835929190613dba565b6040516020818303038152906040529050600061185182610ccf565b90506118658361186083611780565b612be0565b6040518060e001604052808481526020013373ffffffffffffffffffffffffffffffffffffffff168152602001600b548152602001600c548152602001600d5481526020016000815260200160001515815250601160008581526020019081526020016000206000820151816000015560208201518160010160006101000a81548173ffffffffffffffffffffffffffffffffffffffff021916908373ffffffffffffffffffffffffffffffffffffffff16021790555060408201518160020155606082015181600301556080820151816004015560a0820151816005015560c08201518160060160006101000a81548160ff0219169083151502179055509050506000600760009054906101000a900473ffffffffffffffffffffffffffffffffffffffff1673ffffffffffffffffffffffffffffffffffffffff16600f546040516119b190613e45565b60006040518083038185875af1925050503d80600081146119ee576040519150601f19603f3d011682016040523d82523d6000602084013e6119f3565b606091505b5050905080611a37576040517f08c379a0000000000000000000000000000000000000000000000000000000008152600401611a2e9061402b565b60405180910390fd5b7ffc8f2896a026fe67cf7750939518a86f80d8740522b220a53c353e741f706fd584604051611a6691906142a2565b60405180910390a18394505050505090565b6000611a84600861239a565b905090565b606060018054611a98906148a3565b80601f0160208091040260200160405190810160405280929190818152602001828054611ac4906148a3565b8015611b115780601f10611ae657610100808354040283529160200191611b11565b820191906000526020600020905b815481529060010190602001808311611af457829003601f168201915b5050505050905090565b611b2d611b266122d9565b8383612c54565b5050565b600f546002611b4091906146a5565b3414611b81576040517f08c379a0000000000000000000000000000000000000000000000000000000008152600401611b7890613fab565b60405180910390fd5b60016011600083815260200190815260200160002060060160006101000a81548160ff0219169083151502179055611bee576040517f08c379a0000000000000000000000000000000000000000000000000000000008152600401611be59061416b565b60405180910390fd5b6000611bf86117f4565b9050601160008381526020019081526020016000206004015460116000838152602001908152602001600020600401541115611cc25760006011600084815260200190815260200160002060060160006101000a81548160ff0219169083151502179055506000600f546011600085815260200190815260200160002060050154611c83919061449d565b90507fdfc48890c1568858e0db274ac0d3d46e938e0fd54970ace946d321a748c1b3fc81604051611cb491906141eb565b60405180910390a150611d1e565b6011600083815260200190815260200160002060010160009054906101000a9050507fdfc48890c1568858e0db274ac0d3d46e938e0fd54970ace946d321a748c1b3fc600f54604051611d159190614239565b60405180910390a15b5050565b600760009054906101000a900473ffffffffffffffffffffffffffffffffffffffff1673ffffffffffffffffffffffffffffffffffffffff163373ffffffffffffffffffffffffffffffffffffffff1614611d7c57600080fd5b80600f8190555050565b611d97611d916122d9565b836123a8565b611dd6576040517f08c379a0000000000000000000000000000000000000000000000000000000008152600401611dcd90614219565b60405180910390fd5b611de284848484612dc1565b50505050565b6060611df38261228e565b6000600660008481526020019081526020016000208054611e13906148a3565b80601f0160208091040260200160405190810160405280929190818152602001828054611e3f906148a3565b8015611e8c5780601f10611e6157610100808354040283529160200191611e8c565b820191906000526020600020905b815481529060010190602001808311611e6f57829003601f168201915b505050505090506000611e9d612e1d565b9050600081511415611eb3578192505050611ef6565b600082511115611ee8578082604051602001611ed0929190613d96565b60405160208183030381529060405292505050611ef6565b611ef184612e34565b925050505b919050565b600080611f08600861239a565b9050600080600090505b82811015611f5d5760116000600183611f2b919061449d565b81526020019081526020016000206004015482611f48919061449d565b91508080611f5590614906565b915050611f12565b50809250505090565b6000806011600084815260200190815260200160002060040154905080915050919050565b600e8054611f98906148a3565b80601f0160208091040260200160405190810160405280929190818152602001828054611fc4906148a3565b80156120115780601f10611fe657610100808354040283529160200191612011565b820191906000526020600020905b815481529060010190602001808311611ff457829003601f168201915b505050505081565b600015156011600084815260200190815260200160002060060160009054906101000a900460ff16151514612083576040517f08c379a000000000000000000000000000000000000000000000000000000000815260040161207a906140ab565b60405180910390fd5b8034146120c5576040517f08c379a00000000000000000000000000000000000000000000000000000000081526004016120bc906141ab565b60405180910390fd5b600f543411612109576040517f08c379a00000000000000000000000000000000000000000000000000000000081526004016121009061408b565b60405180910390fd5b60016011600084815260200190815260200160002060060160006101000a81548160ff0219169083151502179055508060116000848152602001908152602001600020600501819055507ff42d86ff8236bfe6470eb9bd31ed482d6740215528f6e559abc34275a640b6d682826040516121849291906142bd565b60405180910390a15050565b6000600560008473ffffffffffffffffffffffffffffffffffffffff1673ffffffffffffffffffffffffffffffffffffffff16815260200190815260200160002060008373ffffffffffffffffffffffffffffffffffffffff1673ffffffffffffffffffffffffffffffffffffffff16815260200190815260200160002060009054906101000a900460ff16905092915050565b60007f01ffc9a7000000000000000000000000000000000000000000000000000000007bffffffffffffffffffffffffffffffffffffffffffffffffffffffff1916827bffffffffffffffffffffffffffffffffffffffffffffffffffffffff1916149050919050565b61229781612e9c565b6122d6576040517f08c379a00000000000000000000000000000000000000000000000000000000081526004016122cd9061414b565b60405180910390fd5b50565b600033905090565b816004600083815260200190815260200160002060006101000a81548173ffffffffffffffffffffffffffffffffffffffff021916908373ffffffffffffffffffffffffffffffffffffffff160217905550808273ffffffffffffffffffffffffffffffffffffffff16612354836113b8565b73ffffffffffffffffffffffffffffffffffffffff167f8c5be1e5ebec7d5bd14f71427d1e84f3dd0314c0f7b2291e5b200ac8c7c3b92560405160405180910390a45050565b600081600001549050919050565b6000806123b4836113b8565b90508073ffffffffffffffffffffffffffffffffffffffff168473ffffffffffffffffffffffffffffffffffffffff1614806123f657506123f58185612190565b5b8061243457508373ffffffffffffffffffffffffffffffffffffffff1661241c84610883565b73ffffffffffffffffffffffffffffffffffffffff16145b91505092915050565b8273ffffffffffffffffffffffffffffffffffffffff1661245d826113b8565b73ffffffffffffffffffffffffffffffffffffffff16146124b3576040517f08c379a00000000000000000000000000000000000000000000000000000000081526004016124aa90613feb565b60405180910390fd5b600073ffffffffffffffffffffffffffffffffffffffff168273ffffffffffffffffffffffffffffffffffffffff161415612523576040517f08c379a000000000000000000000000000000000000000000000000000000000815260040161251a9061404b565b60405180910390fd5b61252e838383612f08565b6125396000826122e1565b6001600360008573ffffffffffffffffffffffffffffffffffffffff1673ffffffffffffffffffffffffffffffffffffffff16815260200190815260200160002060008282546125899190614793565b925050819055506001600360008473ffffffffffffffffffffffffffffffffffffffff1673ffffffffffffffffffffffffffffffffffffffff16815260200190815260200160002060008282546125e0919061449d565b92505081905550816002600083815260200190815260200160002060006101000a81548173ffffffffffffffffffffffffffffffffffffffff021916908373ffffffffffffffffffffffffffffffffffffffff160217905550808273ffffffffffffffffffffffffffffffffffffffff168473ffffffffffffffffffffffffffffffffffffffff167fddf252ad1be2c89b69c2b068fc378daa952ba7f163c4a11628f55a4df523b3ef60405160405180910390a461269f838383612f0d565b505050565b60606000825114156126c75760405180602001604052806000815250905061283e565b60006040518060600160405280604081526020016151cb60409139905060006003600285516126f6919061449d565b612700919061455d565b600461270c91906146a5565b9050600060208261271d919061449d565b67ffffffffffffffff81111561275c577f4e487b7100000000000000000000000000000000000000000000000000000000600052604160045260246000fd5b6040519080825280601f01601f19166020018201604052801561278e5781602001600182028036833780820191505090505b509050818152600183018586518101602084015b818310156127fd576003830192508251603f8160121c168501518253600182019150603f81600c1c168501518253600182019150603f8160061c168501518253600182019150603f81168501518253600182019150506127a2565b600389510660018114612817576002811461282757612832565b613d3d60f01b6002830352612832565b603d60f81b60018303525b50505050508093505050505b919050565b6060600082141561288b576040518060400160405280600181526020017f300000000000000000000000000000000000000000000000000000000000000081525090506129eb565b600082905060005b600082146128bd5780806128a690614906565b915050600a826128b6919061455d565b9150612893565b60008167ffffffffffffffff8111156128ff577f4e487b7100000000000000000000000000000000000000000000000000000000600052604160045260246000fd5b6040519080825280601f01601f1916602001820160405280156129315781602001600182028036833780820191505090505b5090505b600085146129e45760018261294a9190614793565b9150600a856129599190614987565b6030612965919061449d565b60f81b8183815181106129a1577f4e487b7100000000000000000000000000000000000000000000000000000000600052603260045260246000fd5b60200101907effffffffffffffffffffffffffffffffffffffffffffffffffffffffffffff1916908160001a905350600a856129dd919061455d565b9450612935565b8093505050505b919050565b6001816000016000828254019250508190555050565b600073ffffffffffffffffffffffffffffffffffffffff168273ffffffffffffffffffffffffffffffffffffffff161415612a76576040517f08c379a0000000000000000000000000000000000000000000000000000000008152600401612a6d9061412b565b60405180910390fd5b612a7f81612e9c565b15612abf576040517f08c379a0000000000000000000000000000000000000000000000000000000008152600401612ab69061400b565b60405180910390fd5b612acb60008383612f08565b6001600360008473ffffffffffffffffffffffffffffffffffffffff1673ffffffffffffffffffffffffffffffffffffffff1681526020019081526020016000206000828254612b1b919061449d565b92505081905550816002600083815260200190815260200160002060006101000a81548173ffffffffffffffffffffffffffffffffffffffff021916908373ffffffffffffffffffffffffffffffffffffffff160217905550808273ffffffffffffffffffffffffffffffffffffffff16600073ffffffffffffffffffffffffffffffffffffffff167fddf252ad1be2c89b69c2b068fc378daa952ba7f163c4a11628f55a4df523b3ef60405160405180910390a4612bdc60008383612f0d565b5050565b612be982612e9c565b612c28576040517f08c379a0000000000000000000000000000000000000000000000000000000008152600401612c1f906140eb565b60405180910390fd5b80600660008481526020019081526020016000209080519060200190612c4f929190613121565b505050565b8173ffffffffffffffffffffffffffffffffffffffff168373ffffffffffffffffffffffffffffffffffffffff161415612cc3576040517f08c379a0000000000000000000000000000000000000000000000000000000008152600401612cba9061406b565b60405180910390fd5b80600560008573ffffffffffffffffffffffffffffffffffffffff1673ffffffffffffffffffffffffffffffffffffffff16815260200190815260200160002060008473ffffffffffffffffffffffffffffffffffffffff1673ffffffffffffffffffffffffffffffffffffffff16815260200190815260200160002060006101000a81548160ff0219169083151502179055508173ffffffffffffffffffffffffffffffffffffffff168373ffffffffffffffffffffffffffffffffffffffff167f17307eab39ab6107e8899845ad3d59bd9653f200f220920489ca2b5937696c3183604051612db49190613f6e565b60405180910390a3505050565b612dcc84848461243d565b612dd884848484612f12565b612e17576040517f08c379a0000000000000000000000000000000000000000000000000000000008152600401612e0e90613fcb565b60405180910390fd5b50505050565b606060405180602001604052806000815250905090565b6060612e3f8261228e565b6000612e49612e1d565b90506000815111612e695760405180602001604052806000815250612e94565b80612e7384612843565b604051602001612e84929190613d96565b6040516020818303038152906040525b915050919050565b60008073ffffffffffffffffffffffffffffffffffffffff166002600084815260200190815260200160002060009054906101000a900473ffffffffffffffffffffffffffffffffffffffff1673ffffffffffffffffffffffffffffffffffffffff1614159050919050565b505050565b505050565b6000612f338473ffffffffffffffffffffffffffffffffffffffff166130a9565b1561309c578373ffffffffffffffffffffffffffffffffffffffff1663150b7a02612f5c6122d9565b8786866040518563ffffffff1660e01b8152600401612f7e9493929190613f00565b602060405180830381600087803b158015612f9857600080fd5b505af1925050508015612fc957506040513d601f19601f82011682018060405250810190612fc691906134e2565b60015b61304c573d8060008114612ff9576040519150601f19603f3d011682016040523d82523d6000602084013e612ffe565b606091505b50600081511415613044576040517f08c379a000000000000000000000000000000000000000000000000000000000815260040161303b90613fcb565b60405180910390fd5b805181602001fd5b63150b7a0260e01b7bffffffffffffffffffffffffffffffffffffffffffffffffffffffff1916817bffffffffffffffffffffffffffffffffffffffffffffffffffffffff1916149150506130a1565b600190505b949350505050565b6000808273ffffffffffffffffffffffffffffffffffffffff163b119050919050565b6040518060e0016040528060008152602001600073ffffffffffffffffffffffffffffffffffffffff168152602001600081526020016000815260200160008152602001600081526020016000151581525090565b82805461312d906148a3565b90600052602060002090601f01602090048101928261314f5760008555613196565b82601f1061316857805160ff1916838001178555613196565b82800160010185558215613196579182015b8281111561319557825182559160200191906001019061317a565b5b5090506131a391906131a7565b5090565b5b808211156131c05760008160009055506001016131a8565b5090565b60006131d76131d28461430b565b6142e6565b9050828152602081018484840111156131ef57600080fd5b6131fa848285614861565b509392505050565b60006132156132108461433c565b6142e6565b90508281526020810184848401111561322d57600080fd5b613238848285614861565b509392505050565b60008135905061324f81615157565b92915050565b6000813590506132648161516e565b92915050565b60008135905061327981615185565b92915050565b60008151905061328e81615185565b92915050565b600082601f8301126132a557600080fd5b81356132b58482602086016131c4565b91505092915050565b6000815190506132cd8161519c565b92915050565b600082601f8301126132e457600080fd5b81356132f4848260208601613202565b91505092915050565b60008135905061330c816151b3565b92915050565b60006020828403121561332457600080fd5b600061333284828501613240565b91505092915050565b6000806040838503121561334e57600080fd5b600061335c85828601613240565b925050602061336d85828601613240565b9150509250929050565b60008060006060848603121561338c57600080fd5b600061339a86828701613240565b93505060206133ab86828701613240565b92505060406133bc868287016132fd565b9150509250925092565b600080600080608085870312156133dc57600080fd5b60006133ea87828801613240565b94505060206133fb87828801613240565b935050604061340c878288016132fd565b925050606085013567ffffffffffffffff81111561342957600080fd5b61343587828801613294565b91505092959194509250565b6000806040838503121561345457600080fd5b600061346285828601613240565b925050602061347385828601613255565b9150509250929050565b6000806040838503121561349057600080fd5b600061349e85828601613240565b92505060206134af858286016132fd565b9150509250929050565b6000602082840312156134cb57600080fd5b60006134d98482850161326a565b91505092915050565b6000602082840312156134f457600080fd5b60006135028482850161327f565b91505092915050565b60006020828403121561351d57600080fd5b600061352b848285016132be565b91505092915050565b60006020828403121561354657600080fd5b600082013567ffffffffffffffff81111561356057600080fd5b61356c848285016132d3565b91505092915050565b60006020828403121561358757600080fd5b6000613595848285016132fd565b91505092915050565b600080604083850312156135b157600080fd5b60006135bf858286016132fd565b92505060206135d0858286016132fd565b9150509250929050565b60006135e68383613c5f565b60e08301905092915050565b6135fb816147d9565b82525050565b61360a816147c7565b82525050565b61362161361c826147c7565b61494f565b82525050565b600061363282614392565b61363c81856143c0565b93506136478361436d565b8060005b8381101561367857815161365f88826135da565b975061366a836143b3565b92505060018101905061364b565b5085935050505092915050565b61368e816147eb565b82525050565b61369d816147eb565b82525050565b6136b46136af826147f7565b614961565b82525050565b60006136c58261439d565b6136cf81856143d1565b93506136df818560208601614870565b6136e881614a74565b840191505092915050565b60006136fe826143a8565b61370881856143ed565b9350613718818560208601614870565b61372181614a74565b840191505092915050565b6000613737826143a8565b61374181856143fe565b9350613751818560208601614870565b80840191505092915050565b6000815461376a816148a3565b61377481866143fe565b9450600182166000811461378f57600181146137a0576137d3565b60ff198316865281860193506137d3565b6137a98561437d565b60005b838110156137cb578154818901526001820191506020810190506137ac565b838801955050505b50505092915050565b60006137e9601d836143ed565b91506137f482614a92565b602082019050919050565b600061380c6032836143ed565b915061381782614abb565b604082019050919050565b600061382f6025836143ed565b915061383a82614b0a565b604082019050919050565b6000613852601c836143ed565b915061385d82614b59565b602082019050919050565b60006138756008836143fe565b915061388082614b82565b600882019050919050565b60006138986026836143fe565b91506138a382614bab565b602682019050919050565b60006138bb6014836143ed565b91506138c682614bfa565b602082019050919050565b60006138de6024836143ed565b91506138e982614c23565b604082019050919050565b60006139016019836143ed565b915061390c82614c72565b602082019050919050565b60006139246022836143ed565b915061392f82614c9b565b604082019050919050565b60006139476006836143ed565b915061395282614cea565b602082019050919050565b600061396a6001836143fe565b915061397582614d13565b600182019050919050565b600061398d6029836143ed565b915061399882614d3c565b604082019050919050565b60006139b0602e836143ed565b91506139bb82614d8b565b604082019050919050565b60006139d36002836143fe565b91506139de82614dda565b600282019050919050565b60006139f6603e836143ed565b9150613a0182614e03565b604082019050919050565b6000613a196020836143ed565b9150613a2482614e52565b602082019050919050565b6000613a3c6018836143ed565b9150613a4782614e7b565b602082019050919050565b6000613a5f6016836143ed565b9150613a6a82614ea4565b602082019050919050565b6000613a826021836143ed565b9150613a8d82614ecd565b604082019050919050565b6000613aa5600d836143fe565b9150613ab082614f1c565b600d82019050919050565b6000613ac86002836143fe565b9150613ad382614f45565b600282019050919050565b6000613aeb601d836143fe565b9150613af682614f6e565b601d82019050919050565b6000613b0e6000836143e2565b9150613b1982614f97565b600082019050919050565b6000613b31601e836143fe565b9150613b3c82614f9a565b601e82019050919050565b6000613b546018836143ed565b9150613b5f82614fc3565b602082019050919050565b6000613b77600a836143ed565b9150613b8282614fec565b602082019050919050565b6000613b9a600a836143fe565b9150613ba582615015565b600a82019050919050565b6000613bbd6003836143ed565b9150613bc88261503e565b602082019050919050565b6000613be0602e836143ed565b9150613beb82615067565b604082019050919050565b6000613c036004836143ed565b9150613c0e826150b6565b602082019050919050565b6000613c266009836143ed565b9150613c31826150df565b602082019050919050565b6000613c49603a836143fe565b9150613c5482615108565b603a82019050919050565b60e082016000820151613c756000850182613ced565b506020820151613c8860208501826135f2565b506040820151613c9b6040850182613ced565b506060820151613cae6060850182613ced565b506080820151613cc16080850182613ced565b5060a0820151613cd460a0850182613ced565b5060c0820151613ce760c0850182613685565b50505050565b613cf681614857565b82525050565b613d0581614857565b82525050565b613d1481614857565b82525050565b613d2b613d2682614857565b61497d565b82525050565b6000613d3d8287613610565b601482019150613d4d8286613d1a565b602082019150613d5d82856136a3565b602082019150613d6d82846136a3565b60208201915081905095945050505050565b6000613d8b828461372c565b915081905092915050565b6000613da2828561372c565b9150613dae828461372c565b91508190509392505050565b6000613dc6828561375d565b9150613dd2828461372c565b91508190509392505050565b6000613de98261388b565b9150613df5828561372c565b9150613e008261395d565b9150613e0c828461372c565b9150613e1782613b24565b91508190509392505050565b6000613e2e82613ade565b9150613e3a828461372c565b915081905092915050565b6000613e5082613b01565b9150819050919050565b6000613e6582613b8d565b9150613e7082613868565b9150613e7b82613c3c565b9150613e87828761372c565b9150613e9282613abb565b9150613e9e828661372c565b9150613ea982613abb565b9150613eb5828561372c565b9150613ec082613a98565b9150613ecc828461372c565b9150613ed7826139c6565b915081905095945050505050565b6000602082019050613efa6000830184613601565b92915050565b6000608082019050613f156000830187613601565b613f226020830186613601565b613f2f6040830185613cfc565b8181036060830152613f4181846136ba565b905095945050505050565b60006020820190508181036000830152613f668184613627565b905092915050565b6000602082019050613f836000830184613694565b92915050565b60006020820190508181036000830152613fa381846136f3565b905092915050565b60006020820190508181036000830152613fc4816137dc565b9050919050565b60006020820190508181036000830152613fe4816137ff565b9050919050565b6000602082019050818103600083015261400481613822565b9050919050565b6000602082019050818103600083015261402481613845565b9050919050565b60006020820190508181036000830152614044816138ae565b9050919050565b60006020820190508181036000830152614064816138d1565b9050919050565b60006020820190508181036000830152614084816138f4565b9050919050565b600060208201905081810360008301526140a481613917565b9050919050565b600060208201905081810360008301526140c48161393a565b9050919050565b600060208201905081810360008301526140e481613980565b9050919050565b60006020820190508181036000830152614104816139a3565b9050919050565b60006020820190508181036000830152614124816139e9565b9050919050565b6000602082019050818103600083015261414481613a0c565b9050919050565b6000602082019050818103600083015261416481613a2f565b9050919050565b6000602082019050818103600083015261418481613a52565b9050919050565b600060208201905081810360008301526141a481613a75565b9050919050565b600060208201905081810360008301526141c481613b47565b9050919050565b600060208201905081810360008301526141e481613b6a565b9050919050565b6000604082019050818103600083015261420481613bb0565b90506142136020830184613cfc565b92915050565b6000602082019050818103600083015261423281613bd3565b9050919050565b6000604082019050818103600083015261425281613bf6565b90506142616020830184613cfc565b92915050565b6000602082019050818103600083015261428081613c19565b9050919050565b600060208201905061429c6000830184613d0b565b92915050565b60006020820190506142b76000830184613cfc565b92915050565b60006040820190506142d26000830185613cfc565b6142df6020830184613cfc565b9392505050565b60006142f0614301565b90506142fc82826148d5565b919050565b6000604051905090565b600067ffffffffffffffff82111561432657614325614a45565b5b61432f82614a74565b9050602081019050919050565b600067ffffffffffffffff82111561435757614356614a45565b5b61436082614a74565b9050602081019050919050565b6000819050602082019050919050565b60008190508160005260206000209050919050565b600081519050919050565b600081519050919050565b600081519050919050565b6000602082019050919050565b600082825260208201905092915050565b600082825260208201905092915050565b600081905092915050565b600082825260208201905092915050565b600081905092915050565b60006144148261482d565b915061441f8361482d565b9250817f7fffffffffffffffffffffffffffffffffffffffffffffffffffffffffffffff0383136000831215161561445a576144596149b8565b5b817f8000000000000000000000000000000000000000000000000000000000000000038312600083121615614492576144916149b8565b5b828201905092915050565b60006144a882614857565b91506144b383614857565b9250827fffffffffffffffffffffffffffffffffffffffffffffffffffffffffffffffff038211156144e8576144e76149b8565b5b828201905092915050565b60006144fe8261482d565b91506145098361482d565b925082614519576145186149e7565b5b600160000383147f800000000000000000000000000000000000000000000000000000000000000083141615614552576145516149b8565b5b828205905092915050565b600061456882614857565b915061457383614857565b925082614583576145826149e7565b5b828204905092915050565b60006145998261482d565b91506145a48361482d565b9250827f7fffffffffffffffffffffffffffffffffffffffffffffffffffffffffffffff04821160008413600084131616156145e3576145e26149b8565b5b817f800000000000000000000000000000000000000000000000000000000000000005831260008412600084131616156146205761461f6149b8565b5b827f8000000000000000000000000000000000000000000000000000000000000000058212600084136000841216161561465d5761465c6149b8565b5b827f7fffffffffffffffffffffffffffffffffffffffffffffffffffffffffffffff058212600084126000841216161561469a576146996149b8565b5b828202905092915050565b60006146b082614857565b91506146bb83614857565b9250817fffffffffffffffffffffffffffffffffffffffffffffffffffffffffffffffff04831182151516156146f4576146f36149b8565b5b828202905092915050565b600061470a8261482d565b91506147158361482d565b9250827f8000000000000000000000000000000000000000000000000000000000000000018212600084121516156147505761474f6149b8565b5b827f7fffffffffffffffffffffffffffffffffffffffffffffffffffffffffffffff018213600084121615614788576147876149b8565b5b828203905092915050565b600061479e82614857565b91506147a983614857565b9250828210156147bc576147bb6149b8565b5b828203905092915050565b60006147d282614837565b9050919050565b60006147e482614837565b9050919050565b60008115159050919050565b6000819050919050565b60007fffffffff0000000000000000000000000000000000000000000000000000000082169050919050565b6000819050919050565b600073ffffffffffffffffffffffffffffffffffffffff82169050919050565b6000819050919050565b82818337600083830152505050565b60005b8381101561488e578082015181840152602081019050614873565b8381111561489d576000848401525b50505050565b600060028204905060018216806148bb57607f821691505b602082108114156148cf576148ce614a16565b5b50919050565b6148de82614a74565b810181811067ffffffffffffffff821117156148fd576148fc614a45565b5b80604052505050565b600061491182614857565b91507fffffffffffffffffffffffffffffffffffffffffffffffffffffffffffffffff821415614944576149436149b8565b5b600182019050919050565b600061495a8261496b565b9050919050565b6000819050919050565b600061497682614a85565b9050919050565b6000819050919050565b600061499282614857565b915061499d83614857565b9250826149ad576149ac6149e7565b5b828206905092915050565b7f4e487b7100000000000000000000000000000000000000000000000000000000600052601160045260246000fd5b7f4e487b7100000000000000000000000000000000000000000000000000000000600052601260045260246000fd5b7f4e487b7100000000000000000000000000000000000000000000000000000000600052602260045260246000fd5b7f4e487b7100000000000000000000000000000000000000000000000000000000600052604160045260246000fd5b6000601f19601f8301169050919050565b60008160601b9050919050565b7f596f75206e65656420746f20706179206368616c6c656e676520666565000000600082015250565b7f4552433732313a207472616e7366657220746f206e6f6e20455243373231526560008201527f63656976657220696d706c656d656e7465720000000000000000000000000000602082015250565b7f4552433732313a207472616e736665722066726f6d20696e636f72726563742060008201527f6f776e6572000000000000000000000000000000000000000000000000000000602082015250565b7f4552433732313a20746f6b656e20616c7265616479206d696e74656400000000600082015250565b7f426f617264535647000000000000000000000000000000000000000000000000600082015250565b7f3c7465787420636c6173733d276927207472616e73666f726d3d277472616e7360008201527f6c61746528200000000000000000000000000000000000000000000000000000602082015250565b7f4661696c656420746f2073656e64204574686572000000000000000000000000600082015250565b7f4552433732313a207472616e7366657220746f20746865207a65726f2061646460008201527f7265737300000000000000000000000000000000000000000000000000000000602082015250565b7f4552433732313a20617070726f766520746f2063616c6c657200000000000000600082015250565b7f5072697a65206d757374206265206d6f7265207468616e206d696e742070726960008201527f6365000000000000000000000000000000000000000000000000000000000000602082015250565b7f6c69737465640000000000000000000000000000000000000000000000000000600082015250565b7f2000000000000000000000000000000000000000000000000000000000000000600082015250565b7f4552433732313a2061646472657373207a65726f206973206e6f74206120766160008201527f6c6964206f776e65720000000000000000000000000000000000000000000000602082015250565b7f45524337323155524953746f726167653a2055524920736574206f66206e6f6e60008201527f6578697374656e7420746f6b656e000000000000000000000000000000000000602082015250565b7f227d000000000000000000000000000000000000000000000000000000000000600082015250565b7f4552433732313a20617070726f76652063616c6c6572206973206e6f7420746f60008201527f6b656e206f776e6572206e6f7220617070726f76656420666f7220616c6c0000602082015250565b7f4552433732313a206d696e7420746f20746865207a65726f2061646472657373600082015250565b7f4552433732313a20696e76616c696420746f6b656e2049440000000000000000600082015250565b7f4368616c6c656e6765206e6f74206f70656e2079657400000000000000000000600082015250565b7f4552433732313a20617070726f76616c20746f2063757272656e74206f776e6560008201527f7200000000000000000000000000000000000000000000000000000000000000602082015250565b7f7d222c2022696d616765223a2200000000000000000000000000000000000000600082015250565b7f2c20000000000000000000000000000000000000000000000000000000000000600082015250565b7f646174613a6170706c69636174696f6e2f6a736f6e3b6261736536342c000000600082015250565b50565b7f29207363616c6528312e35203129273e783c2f746578743e3c2f7376673e0000600082015250565b7f5072697a65206e6f7420657175616c20746f2076616c75650000000000000000600082015250565b7f6e6f74206c697374656400000000000000000000000000000000000000000000600082015250565b7f7b2242444e4654223a2200000000000000000000000000000000000000000000600082015250565b7f57696e0000000000000000000000000000000000000000000000000000000000600082015250565b7f4552433732313a2063616c6c6572206973206e6f7420746f6b656e206f776e6560008201527f72206e6f7220617070726f766564000000000000000000000000000000000000602082015250565b7f4c6f736500000000000000000000000000000000000000000000000000000000600082015250565b7f6e6f74206f776e65720000000000000000000000000000000000000000000000600082015250565b7f222c20226465736372697074696f6e223a224172636865727920426f6172642060008201527f73686f6f74696e67222c202261747472696275746573223a227b000000000000602082015250565b615160816147c7565b811461516b57600080fd5b50565b615177816147eb565b811461518257600080fd5b50565b61518e81614801565b811461519957600080fd5b50565b6151a58161482d565b81146151b057600080fd5b50565b6151bc81614857565b81146151c757600080fd5b5056fe4142434445464748494a4b4c4d4e4f505152535455565758595a6162636465666768696a6b6c6d6e6f707172737475767778797a303132333435363738392b2fa26469706673582212201aba8b17a82727653cf1a44e3d259ae7c3179cbcda8ef7d737c725cba41d781164736f6c634300080100333c73766720786d6c6e733d27687474703a2f2f7777772e77332e6f72672f323030302f7376672720786d6c6e733a786c696e6b3d27687474703a2f2f7777772e77332e6f72672f313939392f786c696e6b272076696577426f783d27302030203439382e3636203439382e3636273e3c646566733e3c7374796c653e2e612c2e642c2e652c2e677b66696c6c3a6e6f6e653b7d2e612c2e622c2e642c2e652c2e662c2e677b7374726f6b652d6d697465726c696d69743a31303b7d2e617b7374726f6b652d77696474683a343070783b7374726f6b653a75726c282361293b7d2e627b66696c6c3a233233316631333b7374726f6b653a233535326430303b6f7061636974793a302e38323b7d2e622c2e647b7374726f6b652d77696474683a3470783b7d2e622c2e652c2e682c2e692c2e6a7b69736f6c6174696f6e3a69736f6c6174653b7d2e637b66696c6c3a233164653431363b7d2e647b7374726f6b653a233165306630303b7d2e657b7374726f6b653a233263323931323b7374726f6b652d77696474683a313170783b6f7061636974793a302e35393b7d2e667b66696c6c3a236263626362633b7374726f6b653a233133306438353b7374726f6b652d77696474683a3570783b7d2e677b7374726f6b653a236433643364333b7374726f6b652d77696474683a3270783b7d2e682c2e697b666f6e742d73697a653a33342e393970783b66696c6c3a236139626566663b666f6e742d66616d696c793a417269616c4d542c20417269616c3b7d2e697b6c65747465722d73706163696e673a2d302e3037656d3b7d2e6a7b666f6e742d73697a653a333670783b66696c6c3a236666666466643b666f6e742d66616d696c793a417269616c4e6172726f772c20417269616c3b7d3c2f7374796c653e3c72616469616c4772616469656e742069643d2761272063783d273234392e35272063793d273235312e31332720723d273233332e3127206772616469656e745472616e73666f726d3d276d617472697828312c20302c20302c202d312c20302c203530302927206772616469656e74556e6974733d277573657253706163654f6e557365273e3c73746f70206f66667365743d2730272073746f702d636f6c6f723d2723666666272f3e3c73746f70206f66667365743d2731272073746f702d636f6c6f723d2723303031633366272f3e3c2f72616469616c4772616469656e743e3c2f646566733e3c7469746c653e6c61737430313c2f7469746c653e3c636972636c6520636c6173733d2761272063783d273234392e35272063793d273234382e38372720723d273231332e31272f3e3c636972636c6520636c6173733d2762272063783d273234392e3333272063793d273234392e33332720723d273234372e3333272f3e3c706f6c79676f6e20636c6173733d27632720706f696e74733d2735302e3333203138342e3932203232342e3935203233372e31322038302e3037203132362e3536203232392e3435203232392e3338203132362e34332038302e3135203233362e3732203232342e3235203138342e37372035302e3433203234352e3133203232312e3239203234392e3535203430203235342e3135203232302e3731203331342e31322035302e32203236332e3720323235203337322e34332037392e3933203237302e35203233302e3534203431382e3834203132362e3334203237342e3835203233372e3132203434382e3633203138342e3631203237372e3933203234342e3835203435382e3737203234392e3138203237372e3731203235332e3937203434382e3537203331332e3937203237342e3932203236322e3337203431392e3036203337322e3338203236392e3635203236392e35203337322e3639203431382e3735203236322e3631203237342e3936203331342e3339203434382e3231203235342e3135203237372e3637203234392e35203436312e393720323435203237362e3435203138342e3937203434382e3636203233362e3732203237342e3637203132362e3635203431382e3933203232392e3536203236392e34332038302e3239203337322e3533203232322e3332203236332e37372035302e3536203331342e3231203232312e3334203235332e39372034302e3133203234392e3636203232312e3434203234352e30322035302e3333203138342e3932272f3e3c636972636c6520636c6173733d2764272063783d273234392e3333272063793d273234392e33332720723d273234332e3333272f3e3c636972636c6520636c6173733d2765272063783d273234392e39272063793d273234392e34372720723d273130352e32272f3e3c636972636c6520636c6173733d2766272063783d273234392e3432272063793d273234382e39372720723d2731382e3433272f3e3c636972636c6520636c6173733d2767272063783d273234392e39272063793d273234382e38372720723d2732372e3538272f3e3c7465787420636c6173733d276827207472616e73666f726d3d277472616e736c617465283236392e3137203437302e363729207363616c6528312e3131203129273e333c2f746578743e3c7465787420636c6173733d276827207472616e73666f726d3d277472616e736c617465283332302e38203435312e363729207363616c6528312e3131203129273e31373c2f746578743e3c7465787420636c6173733d276827207472616e73666f726d3d277472616e736c617465283338352e32203431342e333729207363616c6528312e3131203129273e323c2f746578743e3c7465787420636c6173733d276827207472616e73666f726d3d277472616e736c617465283236332e372035312e3929207363616c6528312e3131203129273e313c2f746578743e3c7465787420636c6173733d276827207472616e73666f726d3d277472616e736c617465283331362e392036392e373829207363616c6528312e3131203129273e31383c2f746578743e3c7465787420636c6173733d276827207472616e73666f726d3d277472616e736c617465283338332e31203130372e343829207363616c6528312e3131203129273e343c2f746578743e3c7465787420636c6173733d276827207472616e73666f726d3d277472616e736c617465283431312e37203135392e353729207363616c6528312e3131203129273e31333c2f746578743e3c7465787420636c6173733d276827207472616e73666f726d3d277472616e736c617465283434392e31203233312e363729207363616c6528312e3131203129273e363c2f746578743e3c7465787420636c6173733d276827207472616e73666f726d3d277472616e736c617465283433332e32203239372e353729207363616c6528312e3131203129273e31303c2f746578743e3c7465787420636c6173733d276827207472616e73666f726d3d277472616e736c617465283431342e39203335342e373729207363616c6528312e3131203129273e31353c2f746578743e3c7465787420636c6173733d276827207472616e73666f726d3d277472616e736c617465283138342e39203436382e343529207363616c6528312e3131203129273e31393c2f746578743e3c7465787420636c6173733d276827207472616e73666f726d3d277472616e736c617465283133352e36203434362e363729207363616c6528312e3131203129273e373c2f746578743e3c7465787420636c6173733d276827207472616e73666f726d3d277472616e736c617465283839203430382e373729207363616c6528312e3131203129273e363c2f746578743e3c7465787420636c6173733d276827207472616e73666f726d3d277472616e736c6174652834382e31203335362e363729207363616c6528312e3131203129273e383c2f746578743e3c7465787420636c6173733d276927207472616e73666f726d3d277472616e736c6174652831382e34203239312e313729207363616c6528312e3131203129273e313c2f746578743e3c7465787420636c6173733d276827207472616e73666f726d3d277472616e736c6174652833372e3131203239312e313729207363616c6528312e3131203129273e313c2f746578743e3c7465787420636c6173733d276827207472616e73666f726d3d277472616e736c6174652831382e3331203233312e363729207363616c6528312e3131203129273e31343c2f746578743e3c7465787420636c6173733d276827207472616e73666f726d3d277472616e736c6174652835342e31203136342e363829207363616c6528312e3131203129273e393c2f746578743e3c7465787420636c6173733d276827207472616e73666f726d3d277472616e736c6174652836392e35203131382e383729207363616c6528312e3131203129273e31323c2f746578743e3c7465787420636c6173733d276827207472616e73666f726d3d277472616e736c617465283134312e312037352e323729207363616c6528312e3131203129273e353c2f746578743e3c7465787420636c6173733d276827207472616e73666f726d3d277472616e736c617465283139332035332e333729207363616c6528312e3131203129273e32303c2f746578743e",
  "linkReferences": {
    "contracts/Trigonometry.sol": {
      "Trigonometry": [
        {
          "length": 20,
          "start": 5575
        },
        {
          "length": 20,
          "start": 5714
        }
      ]
    }
  },
  "deployedLinkReferences": {
    "contracts/Trigonometry.sol": {
      "Trigonometry": [
        {
          "length": 20,
          "start": 4626
        },
        {
          "length": 20,
          "start": 4765
        }
      ]
    }
  }
}