{
  "address": "0xf355C28BaA3B57f8a5A95bB5558C8cDCAf90dCbD",
  "_format": "hh-sol-artifact-1",
  "contractName": "PaysliceForwarder",
  "sourceName": "contracts/PaysliceForwarder.sol",
  "abi": [
    {
      "inputs": [
        {
          "internalType": "address",
          "name": "_exchangeAddress",
          "type": "address"
        }
      ],
      "stateMutability": "nonpayable",
      "type": "constructor"
    },
    {
      "anonymous": false,
      "inputs": [
        {
          "indexed": true,
          "internalType": "address",
          "name": "previousOwner",
          "type": "address"
        },
        {
          "indexed": true,
          "internalType": "address",
          "name": "newOwner",
          "type": "address"
        }
      ],
      "name": "OwnershipTransferred",
      "type": "event"
    },
    {
      "inputs": [
        {
          "internalType": "address",
          "name": "_paytoken",
          "type": "address"
        },
        {
          "internalType": "uint256",
          "name": "_value",
          "type": "uint256"
        }
      ],
      "name": "convertPaytokenToFeeToken",
      "outputs": [],
      "stateMutability": "nonpayable",
      "type": "function"
    },
    {
      "inputs": [],
      "name": "exchangeAddress",
      "outputs": [
        {
          "internalType": "address",
          "name": "",
          "type": "address"
        }
      ],
      "stateMutability": "view",
      "type": "function"
    },
    {
      "inputs": [
        {
          "components": [
            {
              "internalType": "address",
              "name": "from",
              "type": "address"
            },
            {
              "internalType": "address",
              "name": "to",
              "type": "address"
            },
            {
              "internalType": "uint256",
              "name": "value",
              "type": "uint256"
            },
            {
              "internalType": "uint256",
              "name": "gas",
              "type": "uint256"
            },
            {
              "internalType": "uint256",
              "name": "nonce",
              "type": "uint256"
            },
            {
              "internalType": "bytes",
              "name": "data",
              "type": "bytes"
            }
          ],
          "internalType": "struct PaysliceForwarder.ForwardRequest",
          "name": "_req",
          "type": "tuple"
        },
        {
          "internalType": "bytes",
          "name": "_signature",
          "type": "bytes"
        }
      ],
      "name": "execute",
      "outputs": [
        {
          "internalType": "bool",
          "name": "",
          "type": "bool"
        },
        {
          "internalType": "bytes",
          "name": "",
          "type": "bytes"
        }
      ],
      "stateMutability": "payable",
      "type": "function"
    },
    {
      "inputs": [
        {
          "internalType": "address",
          "name": "_paytoken",
          "type": "address"
        },
        {
          "internalType": "address",
          "name": "_owner",
          "type": "address"
        },
        {
          "internalType": "address",
          "name": "_spender",
          "type": "address"
        },
        {
          "internalType": "uint256",
          "name": "_value",
          "type": "uint256"
        },
        {
          "internalType": "uint256",
          "name": "_deadline",
          "type": "uint256"
        },
        {
          "internalType": "uint8",
          "name": "_v",
          "type": "uint8"
        },
        {
          "internalType": "bytes32",
          "name": "_r",
          "type": "bytes32"
        },
        {
          "internalType": "bytes32",
          "name": "_s",
          "type": "bytes32"
        }
      ],
      "name": "executeApproval",
      "outputs": [
        {
          "internalType": "bool",
          "name": "",
          "type": "bool"
        }
      ],
      "stateMutability": "nonpayable",
      "type": "function"
    },
    {
      "inputs": [
        {
          "internalType": "address",
          "name": "_paytoken",
          "type": "address"
        },
        {
          "internalType": "address",
          "name": "_owner",
          "type": "address"
        },
        {
          "internalType": "address",
          "name": "_spender",
          "type": "address"
        },
        {
          "internalType": "uint256",
          "name": "_value",
          "type": "uint256"
        },
        {
          "internalType": "uint256",
          "name": "_deadline",
          "type": "uint256"
        },
        {
          "internalType": "uint8",
          "name": "_v",
          "type": "uint8"
        },
        {
          "internalType": "bytes32",
          "name": "_r",
          "type": "bytes32"
        },
        {
          "internalType": "bytes32",
          "name": "_s",
          "type": "bytes32"
        }
      ],
      "name": "executeGasPayment",
      "outputs": [
        {
          "internalType": "bool",
          "name": "",
          "type": "bool"
        }
      ],
      "stateMutability": "nonpayable",
      "type": "function"
    },
    {
      "inputs": [],
      "name": "feeToken",
      "outputs": [
        {
          "internalType": "address",
          "name": "",
          "type": "address"
        }
      ],
      "stateMutability": "view",
      "type": "function"
    },
    {
      "inputs": [
        {
          "internalType": "uint256",
          "name": "amountOut",
          "type": "uint256"
        },
        {
          "internalType": "address[]",
          "name": "path",
          "type": "address[]"
        }
      ],
      "name": "gasCost",
      "outputs": [
        {
          "internalType": "uint256[]",
          "name": "",
          "type": "uint256[]"
        }
      ],
      "stateMutability": "view",
      "type": "function"
    },
    {
      "inputs": [
        {
          "internalType": "address",
          "name": "from",
          "type": "address"
        }
      ],
      "name": "getNonce",
      "outputs": [
        {
          "internalType": "uint256",
          "name": "",
          "type": "uint256"
        }
      ],
      "stateMutability": "view",
      "type": "function"
    },
    {
      "inputs": [],
      "name": "owner",
      "outputs": [
        {
          "internalType": "address",
          "name": "",
          "type": "address"
        }
      ],
      "stateMutability": "view",
      "type": "function"
    },
    {
      "inputs": [
        {
          "internalType": "address",
          "name": "_relayer",
          "type": "address"
        }
      ],
      "name": "registerRelayer",
      "outputs": [
        {
          "internalType": "bool",
          "name": "",
          "type": "bool"
        }
      ],
      "stateMutability": "nonpayable",
      "type": "function"
    },
    {
      "inputs": [],
      "name": "renounceOwnership",
      "outputs": [],
      "stateMutability": "nonpayable",
      "type": "function"
    },
    {
      "inputs": [
        {
          "internalType": "address",
          "name": "newOwner",
          "type": "address"
        }
      ],
      "name": "transferOwnership",
      "outputs": [],
      "stateMutability": "nonpayable",
      "type": "function"
    },
    {
      "inputs": [
        {
          "components": [
            {
              "internalType": "address",
              "name": "from",
              "type": "address"
            },
            {
              "internalType": "address",
              "name": "to",
              "type": "address"
            },
            {
              "internalType": "uint256",
              "name": "value",
              "type": "uint256"
            },
            {
              "internalType": "uint256",
              "name": "gas",
              "type": "uint256"
            },
            {
              "internalType": "uint256",
              "name": "nonce",
              "type": "uint256"
            },
            {
              "internalType": "bytes",
              "name": "data",
              "type": "bytes"
            }
          ],
          "internalType": "struct PaysliceForwarder.ForwardRequest",
          "name": "_req",
          "type": "tuple"
        },
        {
          "internalType": "bytes",
          "name": "_signature",
          "type": "bytes"
        }
      ],
      "name": "verify",
      "outputs": [
        {
          "internalType": "bool",
          "name": "",
          "type": "bool"
        }
      ],
      "stateMutability": "view",
      "type": "function"
    },
    {
      "inputs": [
        {
          "internalType": "uint256",
          "name": "_amount",
          "type": "uint256"
        },
        {
          "internalType": "address",
          "name": "_to",
          "type": "address"
        }
      ],
      "name": "withdrawFees",
      "outputs": [],
      "stateMutability": "nonpayable",
      "type": "function"
    }
  ],
  "bytecode": "0x6101406040527325d401b92b9c58521c4f312c18147c069f932206600160006101000a81548173ffffffffffffffffffffffffffffffffffffffff021916908373ffffffffffffffffffffffffffffffffffffffff1602179055503480156200006757600080fd5b506040516200351c3803806200351c83398181016040528101906200008d919062000385565b6040518060400160405280601181526020017f506179736c696365466f727761726465720000000000000000000000000000008152506040518060400160405280600581526020017f302e302e3100000000000000000000000000000000000000000000000000000081525060008280519060200120905060008280519060200120905060007f8b73c3c69bb8fe3d512ecc4cf759cc79239f7b179b0ffacaa9a75d522b39400f90508260e081815250508161010081815250504660a08181525050620001628184846200021360201b60201c565b608081815250503073ffffffffffffffffffffffffffffffffffffffff1660c08173ffffffffffffffffffffffffffffffffffffffff16815250508061012081815250505050505050620001cb620001bf6200024f60201b60201c565b6200025760201b60201c565b80600260006101000a81548173ffffffffffffffffffffffffffffffffffffffff021916908373ffffffffffffffffffffffffffffffffffffffff160217905550506200045b565b6000838383463060405160200162000230959493929190620003fe565b6040516020818303038152906040528051906020012090509392505050565b600033905090565b60008060009054906101000a900473ffffffffffffffffffffffffffffffffffffffff169050816000806101000a81548173ffffffffffffffffffffffffffffffffffffffff021916908373ffffffffffffffffffffffffffffffffffffffff1602179055508173ffffffffffffffffffffffffffffffffffffffff168173ffffffffffffffffffffffffffffffffffffffff167f8be0079c531659141344cd1fd0a4f28419497f9722a3daafe3b4186f6b6457e060405160405180910390a35050565b600080fd5b600073ffffffffffffffffffffffffffffffffffffffff82169050919050565b60006200034d8262000320565b9050919050565b6200035f8162000340565b81146200036b57600080fd5b50565b6000815190506200037f8162000354565b92915050565b6000602082840312156200039e576200039d6200031b565b5b6000620003ae848285016200036e565b91505092915050565b6000819050919050565b620003cc81620003b7565b82525050565b6000819050919050565b620003e781620003d2565b82525050565b620003f88162000340565b82525050565b600060a082019050620004156000830188620003c1565b620004246020830187620003c1565b620004336040830186620003c1565b620004426060830185620003dc565b620004516080830184620003ed565b9695505050505050565b60805160a05160c05160e0516101005161012051613071620004ab60003960006114ef0152600061153101526000611510015260006114450152600061149b015260006114c401526130716000f3fe6080604052600436106100dd5760003560e01c80638da5cb5b1161007f578063dd2cc3f311610059578063dd2cc3f3146102c8578063f2fde38b146102f1578063fb562cad1461031a578063fddcbcad14610357576100dd565b80638da5cb5b146102355780639cd0160514610260578063bf5d3bdb1461028b576100dd565b8063647846a5116100bb578063647846a51461018d578063715018a6146101b85780638414985e146101cf5780638d9d6b13146101f8576100dd565b80632d0335ab146100e257806347153f821461011f57806356f1612f14610150575b600080fd5b3480156100ee57600080fd5b5061010960048036038101906101049190611963565b610394565b60405161011691906119a9565b60405180910390f35b61013960048036038101906101349190611bfc565b6103dd565b604051610147929190611d17565b60405180910390f35b34801561015c57600080fd5b5061017760048036038101906101729190611963565b610551565b6040516101849190611d47565b60405180910390f35b34801561019957600080fd5b506101a2610726565b6040516101af9190611d71565b60405180910390f35b3480156101c457600080fd5b506101cd61074c565b005b3480156101db57600080fd5b506101f660048036038101906101f19190611d8c565b610760565b005b34801561020457600080fd5b5061021f600480360381019061021a9190611e3b565b610a91565b60405161022c9190611d47565b60405180910390f35b34801561024157600080fd5b5061024a610cb6565b6040516102579190611d71565b60405180910390f35b34801561026c57600080fd5b50610275610cdf565b6040516102829190611d71565b60405180910390f35b34801561029757600080fd5b506102b260048036038101906102ad9190611bfc565b610d05565b6040516102bf9190611d47565b60405180910390f35b3480156102d457600080fd5b506102ef60048036038101906102ea9190611ef1565b610d61565b005b3480156102fd57600080fd5b5061031860048036038101906103139190611963565b611062565b005b34801561032657600080fd5b50610341600480360381019061033c9190611e3b565b6110e5565b60405161034e9190611d47565b60405180910390f35b34801561036357600080fd5b5061037e60048036038101906103799190611ff9565b61116e565b60405161038b9190612113565b60405180910390f35b6000600460008373ffffffffffffffffffffffffffffffffffffffff1673ffffffffffffffffffffffffffffffffffffffff168152602001908152602001600020549050919050565b600060606103eb8484610d05565b61042a576040517f08c379a0000000000000000000000000000000000000000000000000000000008152600401610421906121b8565b60405180910390fd5b6001846080015161043b9190612207565b60046000866000015173ffffffffffffffffffffffffffffffffffffffff1673ffffffffffffffffffffffffffffffffffffffff16815260200190815260200160002081905550600080856020015173ffffffffffffffffffffffffffffffffffffffff16866060015187604001518860a0015189600001516040516020016104c59291906122e1565b6040516020818303038152906040526040516104e19190612309565b600060405180830381858888f193505050503d806000811461051f576040519150601f19603f3d011682016040523d82523d6000602084013e610524565b606091505b5091509150603f866060015161053a919061234f565b5a1161054257fe5b81819350935050509250929050565b600061055b61121b565b600073ffffffffffffffffffffffffffffffffffffffff168273ffffffffffffffffffffffffffffffffffffffff16036105ca576040517f08c379a00000000000000000000000000000000000000000000000000000000081526004016105c1906123cc565b60405180910390fd5b3073ffffffffffffffffffffffffffffffffffffffff168273ffffffffffffffffffffffffffffffffffffffff1603610638576040517f08c379a000000000000000000000000000000000000000000000000000000000815260040161062f90612438565b60405180910390fd5b600360008373ffffffffffffffffffffffffffffffffffffffff1673ffffffffffffffffffffffffffffffffffffffff16815260200190815260200160002060009054906101000a900460ff16156106c5576040517f08c379a00000000000000000000000000000000000000000000000000000000081526004016106bc906124a4565b60405180910390fd5b6001600360008473ffffffffffffffffffffffffffffffffffffffff1673ffffffffffffffffffffffffffffffffffffffff16815260200190815260200160002060006101000a81548160ff02191690831515021790555060019050919050565b600160009054906101000a900473ffffffffffffffffffffffffffffffffffffffff1681565b61075461121b565b61075e6000611299565b565b61076861121b565b60008273ffffffffffffffffffffffffffffffffffffffff16600260009054906101000a900473ffffffffffffffffffffffffffffffffffffffff16836040516024016107b69291906124c4565b6040516020818303038152906040527f095ea7b3000000000000000000000000000000000000000000000000000000007bffffffffffffffffffffffffffffffffffffffffffffffffffffffff19166020820180517bffffffffffffffffffffffffffffffffffffffffffffffffffffffff83818316178352505050506040516108409190612309565b6000604051808303816000865af19150503d806000811461087d576040519150601f19603f3d011682016040523d82523d6000602084013e610882565b606091505b50509050806108c6576040517f08c379a00000000000000000000000000000000000000000000000000000000081526004016108bd90612539565b60405180910390fd5b6000600267ffffffffffffffff8111156108e3576108e26119da565b5b6040519080825280602002602001820160405280156109115781602001602082028036833780820191505090505b509050838160008151811061092957610928612559565b5b602002602001019073ffffffffffffffffffffffffffffffffffffffff16908173ffffffffffffffffffffffffffffffffffffffff1681525050600160009054906101000a900473ffffffffffffffffffffffffffffffffffffffff168160018151811061099a57610999612559565b5b602002602001019073ffffffffffffffffffffffffffffffffffffffff16908173ffffffffffffffffffffffffffffffffffffffff1681525050600260009054906101000a900473ffffffffffffffffffffffffffffffffffffffff1673ffffffffffffffffffffffffffffffffffffffff1663472b43f3846103e886610a21919061234f565b84306040518563ffffffff1660e01b8152600401610a429493929190612646565b6000604051808303816000875af1158015610a61573d6000803e3d6000fd5b505050506040513d6000823e3d601f19601f82011682018060405250810190610a8a919061276a565b5050505050565b60008073ffffffffffffffffffffffffffffffffffffffff168973ffffffffffffffffffffffffffffffffffffffff161480610af957503073ffffffffffffffffffffffffffffffffffffffff168773ffffffffffffffffffffffffffffffffffffffff1614155b80610b045750600086145b15610b125760009050610caa565b6000610b248a8a8a8a8a8a8a8a6110e5565b905080610b66576040517f08c379a0000000000000000000000000000000000000000000000000000000008152600401610b5d906127ff565b60405180910390fd5b60008a73ffffffffffffffffffffffffffffffffffffffff168a308a604051602401610b949392919061281f565b6040516020818303038152906040527f23b872dd000000000000000000000000000000000000000000000000000000007bffffffffffffffffffffffffffffffffffffffffffffffffffffffff19166020820180517bffffffffffffffffffffffffffffffffffffffffffffffffffffffff8381831617835250505050604051610c1e9190612309565b6000604051808303816000865af19150503d8060008114610c5b576040519150601f19603f3d011682016040523d82523d6000602084013e610c60565b606091505b5050905080610ca4576040517f08c379a0000000000000000000000000000000000000000000000000000000008152600401610c9b906128a2565b60405180910390fd5b80925050505b98975050505050505050565b60008060009054906101000a900473ffffffffffffffffffffffffffffffffffffffff16905090565b600260009054906101000a900473ffffffffffffffffffffffffffffffffffffffff1681565b600080610d12848461135d565b90508073ffffffffffffffffffffffffffffffffffffffff16846000015173ffffffffffffffffffffffffffffffffffffffff1614610d55576000915050610d5b565b60019150505b92915050565b610d6961121b565b600073ffffffffffffffffffffffffffffffffffffffff168173ffffffffffffffffffffffffffffffffffffffff1603610dd8576040517f08c379a0000000000000000000000000000000000000000000000000000000008152600401610dcf9061290e565b60405180910390fd5b60008211610e1b576040517f08c379a0000000000000000000000000000000000000000000000000000000008152600401610e129061297a565b60405180910390fd5b6000600160009054906101000a900473ffffffffffffffffffffffffffffffffffffffff1673ffffffffffffffffffffffffffffffffffffffff166370a08231306040518263ffffffff1660e01b8152600401610e789190611d71565b602060405180830381865afa158015610e95573d6000803e3d6000fd5b505050506040513d601f19601f82011682018060405250810190610eb9919061299a565b905080831115610efe576040517f08c379a0000000000000000000000000000000000000000000000000000000008152600401610ef590612a13565b60405180910390fd5b6000600160009054906101000a900473ffffffffffffffffffffffffffffffffffffffff1673ffffffffffffffffffffffffffffffffffffffff168385604051602401610f4c9291906124c4565b6040516020818303038152906040527f6cb927d8000000000000000000000000000000000000000000000000000000007bffffffffffffffffffffffffffffffffffffffffffffffffffffffff19166020820180517bffffffffffffffffffffffffffffffffffffffffffffffffffffffff8381831617835250505050604051610fd69190612309565b6000604051808303816000865af19150503d8060008114611013576040519150601f19603f3d011682016040523d82523d6000602084013e611018565b606091505b505090508061105c576040517f08c379a000000000000000000000000000000000000000000000000000000000815260040161105390612a7f565b60405180910390fd5b50505050565b61106a61121b565b600073ffffffffffffffffffffffffffffffffffffffff168173ffffffffffffffffffffffffffffffffffffffff16036110d9576040517f08c379a00000000000000000000000000000000000000000000000000000000081526004016110d090612b11565b60405180910390fd5b6110e281611299565b50565b60008873ffffffffffffffffffffffffffffffffffffffff1663d505accf898989898989896040518863ffffffff1660e01b815260040161112c9796959493929190612b4f565b600060405180830381600087803b15801561114657600080fd5b505af115801561115a573d6000803e3d6000fd5b505050506001905098975050505050505050565b6060600260009054906101000a900473ffffffffffffffffffffffffffffffffffffffff1673ffffffffffffffffffffffffffffffffffffffff16631f00ca7484846040518363ffffffff1660e01b81526004016111cd929190612bbe565b600060405180830381865afa1580156111ea573d6000803e3d6000fd5b505050506040513d6000823e3d601f19601f82011682018060405250810190611213919061276a565b905092915050565b6112236113f8565b73ffffffffffffffffffffffffffffffffffffffff16611241610cb6565b73ffffffffffffffffffffffffffffffffffffffff1614611297576040517f08c379a000000000000000000000000000000000000000000000000000000000815260040161128e90612c3a565b60405180910390fd5b565b60008060009054906101000a900473ffffffffffffffffffffffffffffffffffffffff169050816000806101000a81548173ffffffffffffffffffffffffffffffffffffffff021916908373ffffffffffffffffffffffffffffffffffffffff1602179055508173ffffffffffffffffffffffffffffffffffffffff168173ffffffffffffffffffffffffffffffffffffffff167f8be0079c531659141344cd1fd0a4f28419497f9722a3daafe3b4186f6b6457e060405160405180910390a35050565b6000806113ec836113de7fdd8f4b70b0f4393e889bd39128a30628a78b61816a9eb8199759e7a349657e488760000151886020015189604001518a606001518b608001518c60a00151805190602001206040516020016113c39796959493929190612c5a565b60405160208183030381529060405280519060200120611400565b61141a90919063ffffffff16565b90508091505092915050565b600033905090565b600061141361140d611441565b8361155b565b9050919050565b6000806000611429858561158e565b91509150611436816115df565b819250505092915050565b60007f000000000000000000000000000000000000000000000000000000000000000073ffffffffffffffffffffffffffffffffffffffff163073ffffffffffffffffffffffffffffffffffffffff161480156114bd57507f000000000000000000000000000000000000000000000000000000000000000046145b156114ea577f00000000000000000000000000000000000000000000000000000000000000009050611558565b6115557f00000000000000000000000000000000000000000000000000000000000000007f00000000000000000000000000000000000000000000000000000000000000007f00000000000000000000000000000000000000000000000000000000000000006117ab565b90505b90565b60008282604051602001611570929190612d41565b60405160208183030381529060405280519060200120905092915050565b60008060418351036115cf5760008060006020860151925060408601519150606086015160001a90506115c3878285856117e5565b945094505050506115d8565b60006002915091505b9250929050565b600060048111156115f3576115f2612d78565b5b81600481111561160657611605612d78565b5b03156117a857600160048111156116205761161f612d78565b5b81600481111561163357611632612d78565b5b03611673576040517f08c379a000000000000000000000000000000000000000000000000000000000815260040161166a90612df3565b60405180910390fd5b6002600481111561168757611686612d78565b5b81600481111561169a57611699612d78565b5b036116da576040517f08c379a00000000000000000000000000000000000000000000000000000000081526004016116d190612e5f565b60405180910390fd5b600360048111156116ee576116ed612d78565b5b81600481111561170157611700612d78565b5b03611741576040517f08c379a000000000000000000000000000000000000000000000000000000000815260040161173890612ef1565b60405180910390fd5b60048081111561175457611753612d78565b5b81600481111561176757611766612d78565b5b036117a7576040517f08c379a000000000000000000000000000000000000000000000000000000000815260040161179e90612f83565b60405180910390fd5b5b50565b600083838346306040516020016117c6959493929190612fa3565b6040516020818303038152906040528051906020012090509392505050565b6000807f7fffffffffffffffffffffffffffffff5d576e7357a4501ddfe92f46681b20a08360001c11156118205760006003915091506118e8565b601b8560ff16141580156118385750601c8560ff1614155b1561184a5760006004915091506118e8565b60006001878787876040516000815260200160405260405161186f9493929190612ff6565b6020604051602081039080840390855afa158015611891573d6000803e3d6000fd5b505050602060405103519050600073ffffffffffffffffffffffffffffffffffffffff168173ffffffffffffffffffffffffffffffffffffffff16036118df576000600192509250506118e8565b80600092509250505b94509492505050565b6000604051905090565b600080fd5b600080fd5b600073ffffffffffffffffffffffffffffffffffffffff82169050919050565b600061193082611905565b9050919050565b61194081611925565b811461194b57600080fd5b50565b60008135905061195d81611937565b92915050565b600060208284031215611979576119786118fb565b5b60006119878482850161194e565b91505092915050565b6000819050919050565b6119a381611990565b82525050565b60006020820190506119be600083018461199a565b92915050565b600080fd5b6000601f19601f8301169050919050565b7f4e487b7100000000000000000000000000000000000000000000000000000000600052604160045260246000fd5b611a12826119c9565b810181811067ffffffffffffffff82111715611a3157611a306119da565b5b80604052505050565b6000611a446118f1565b9050611a508282611a09565b919050565b600080fd5b611a6381611990565b8114611a6e57600080fd5b50565b600081359050611a8081611a5a565b92915050565b600080fd5b600080fd5b600067ffffffffffffffff821115611aab57611aaa6119da565b5b611ab4826119c9565b9050602081019050919050565b82818337600083830152505050565b6000611ae3611ade84611a90565b611a3a565b905082815260208101848484011115611aff57611afe611a8b565b5b611b0a848285611ac1565b509392505050565b600082601f830112611b2757611b26611a86565b5b8135611b37848260208601611ad0565b91505092915050565b600060c08284031215611b5657611b556119c4565b5b611b6060c0611a3a565b90506000611b708482850161194e565b6000830152506020611b848482850161194e565b6020830152506040611b9884828501611a71565b6040830152506060611bac84828501611a71565b6060830152506080611bc084828501611a71565b60808301525060a082013567ffffffffffffffff811115611be457611be3611a55565b5b611bf084828501611b12565b60a08301525092915050565b60008060408385031215611c1357611c126118fb565b5b600083013567ffffffffffffffff811115611c3157611c30611900565b5b611c3d85828601611b40565b925050602083013567ffffffffffffffff811115611c5e57611c5d611900565b5b611c6a85828601611b12565b9150509250929050565b60008115159050919050565b611c8981611c74565b82525050565b600081519050919050565b600082825260208201905092915050565b60005b83811015611cc9578082015181840152602081019050611cae565b83811115611cd8576000848401525b50505050565b6000611ce982611c8f565b611cf38185611c9a565b9350611d03818560208601611cab565b611d0c816119c9565b840191505092915050565b6000604082019050611d2c6000830185611c80565b8181036020830152611d3e8184611cde565b90509392505050565b6000602082019050611d5c6000830184611c80565b92915050565b611d6b81611925565b82525050565b6000602082019050611d866000830184611d62565b92915050565b60008060408385031215611da357611da26118fb565b5b6000611db18582860161194e565b9250506020611dc285828601611a71565b9150509250929050565b600060ff82169050919050565b611de281611dcc565b8114611ded57600080fd5b50565b600081359050611dff81611dd9565b92915050565b6000819050919050565b611e1881611e05565b8114611e2357600080fd5b50565b600081359050611e3581611e0f565b92915050565b600080600080600080600080610100898b031215611e5c57611e5b6118fb565b5b6000611e6a8b828c0161194e565b9850506020611e7b8b828c0161194e565b9750506040611e8c8b828c0161194e565b9650506060611e9d8b828c01611a71565b9550506080611eae8b828c01611a71565b94505060a0611ebf8b828c01611df0565b93505060c0611ed08b828c01611e26565b92505060e0611ee18b828c01611e26565b9150509295985092959890939650565b60008060408385031215611f0857611f076118fb565b5b6000611f1685828601611a71565b9250506020611f278582860161194e565b9150509250929050565b600067ffffffffffffffff821115611f4c57611f4b6119da565b5b602082029050602081019050919050565b600080fd5b6000611f75611f7084611f31565b611a3a565b90508083825260208201905060208402830185811115611f9857611f97611f5d565b5b835b81811015611fc15780611fad888261194e565b845260208401935050602081019050611f9a565b5050509392505050565b600082601f830112611fe057611fdf611a86565b5b8135611ff0848260208601611f62565b91505092915050565b600080604083850312156120105761200f6118fb565b5b600061201e85828601611a71565b925050602083013567ffffffffffffffff81111561203f5761203e611900565b5b61204b85828601611fcb565b9150509250929050565b600081519050919050565b600082825260208201905092915050565b6000819050602082019050919050565b61208a81611990565b82525050565b600061209c8383612081565b60208301905092915050565b6000602082019050919050565b60006120c082612055565b6120ca8185612060565b93506120d583612071565b8060005b838110156121065781516120ed8882612090565b97506120f8836120a8565b9250506001810190506120d9565b5085935050505092915050565b6000602082019050818103600083015261212d81846120b5565b905092915050565b600082825260208201905092915050565b7f506179736c696365466f727761726465723a207369676e617475726520646f6560008201527f73206e6f74206d61746368207265717565737400000000000000000000000000602082015250565b60006121a2603383612135565b91506121ad82612146565b604082019050919050565b600060208201905081810360008301526121d181612195565b9050919050565b7f4e487b7100000000000000000000000000000000000000000000000000000000600052601160045260246000fd5b600061221282611990565b915061221d83611990565b9250827fffffffffffffffffffffffffffffffffffffffffffffffffffffffffffffffff03821115612252576122516121d8565b5b828201905092915050565b600081905092915050565b600061227382611c8f565b61227d818561225d565b935061228d818560208601611cab565b80840191505092915050565b60008160601b9050919050565b60006122b182612299565b9050919050565b60006122c3826122a6565b9050919050565b6122db6122d682611925565b6122b8565b82525050565b60006122ed8285612268565b91506122f982846122ca565b6014820191508190509392505050565b60006123158284612268565b915081905092915050565b7f4e487b7100000000000000000000000000000000000000000000000000000000600052601260045260246000fd5b600061235a82611990565b915061236583611990565b92508261237557612374612320565b5b828204905092915050565b7f496e76616c69642072656c617965722061646472657373000000000000000000600082015250565b60006123b6601783612135565b91506123c182612380565b602082019050919050565b600060208201905081810360008301526123e5816123a9565b9050919050565b7f466f727761726465722063616e6e6f742062652072656c617965720000000000600082015250565b6000612422601b83612135565b915061242d826123ec565b602082019050919050565b6000602082019050818103600083015261245181612415565b9050919050565b7f52656c6179657220616c72656164792061646465640000000000000000000000600082015250565b600061248e601583612135565b915061249982612458565b602082019050919050565b600060208201905081810360008301526124bd81612481565b9050919050565b60006040820190506124d96000830185611d62565b6124e6602083018461199a565b9392505050565b7f4661696c656420746f20617070726f76652065786368616e6765000000000000600082015250565b6000612523601a83612135565b915061252e826124ed565b602082019050919050565b6000602082019050818103600083015261255281612516565b9050919050565b7f4e487b7100000000000000000000000000000000000000000000000000000000600052603260045260246000fd5b600081519050919050565b600082825260208201905092915050565b6000819050602082019050919050565b6125bd81611925565b82525050565b60006125cf83836125b4565b60208301905092915050565b6000602082019050919050565b60006125f382612588565b6125fd8185612593565b9350612608836125a4565b8060005b8381101561263957815161262088826125c3565b975061262b836125db565b92505060018101905061260c565b5085935050505092915050565b600060808201905061265b600083018761199a565b612668602083018661199a565b818103604083015261267a81856125e8565b90506126896060830184611d62565b95945050505050565b600067ffffffffffffffff8211156126ad576126ac6119da565b5b602082029050602081019050919050565b6000815190506126cd81611a5a565b92915050565b60006126e66126e184612692565b611a3a565b9050808382526020820190506020840283018581111561270957612708611f5d565b5b835b81811015612732578061271e88826126be565b84526020840193505060208101905061270b565b5050509392505050565b600082601f83011261275157612750611a86565b5b81516127618482602086016126d3565b91505092915050565b6000602082840312156127805761277f6118fb565b5b600082015167ffffffffffffffff81111561279e5761279d611900565b5b6127aa8482850161273c565b91505092915050565b7f417070726f76616c204661696c65640000000000000000000000000000000000600082015250565b60006127e9600f83612135565b91506127f4826127b3565b602082019050919050565b60006020820190508181036000830152612818816127dc565b9050919050565b60006060820190506128346000830186611d62565b6128416020830185611d62565b61284e604083018461199a565b949350505050565b7f4661696c656420746f2064656475637420676173206665657300000000000000600082015250565b600061288c601983612135565b915061289782612856565b602082019050919050565b600060208201905081810360008301526128bb8161287f565b9050919050565b7f496e76616c696420616464726573730000000000000000000000000000000000600082015250565b60006128f8600f83612135565b9150612903826128c2565b602082019050919050565b60006020820190508181036000830152612927816128eb565b9050919050565b7f416d6f756e74206d757374206973206e6f7420656e6f75676800000000000000600082015250565b6000612964601983612135565b915061296f8261292e565b602082019050919050565b6000602082019050818103600083015261299381612957565b9050919050565b6000602082840312156129b0576129af6118fb565b5b60006129be848285016126be565b91505092915050565b7f417661696c61626c652066756e6473206e6f7420656e6f756768000000000000600082015250565b60006129fd601a83612135565b9150612a08826129c7565b602082019050919050565b60006020820190508181036000830152612a2c816129f0565b9050919050565b7f46656573207769746864726177616c206661696c656400000000000000000000600082015250565b6000612a69601683612135565b9150612a7482612a33565b602082019050919050565b60006020820190508181036000830152612a9881612a5c565b9050919050565b7f4f776e61626c653a206e6577206f776e657220697320746865207a65726f206160008201527f6464726573730000000000000000000000000000000000000000000000000000602082015250565b6000612afb602683612135565b9150612b0682612a9f565b604082019050919050565b60006020820190508181036000830152612b2a81612aee565b9050919050565b612b3a81611dcc565b82525050565b612b4981611e05565b82525050565b600060e082019050612b64600083018a611d62565b612b716020830189611d62565b612b7e604083018861199a565b612b8b606083018761199a565b612b986080830186612b31565b612ba560a0830185612b40565b612bb260c0830184612b40565b98975050505050505050565b6000604082019050612bd3600083018561199a565b8181036020830152612be581846125e8565b90509392505050565b7f4f776e61626c653a2063616c6c6572206973206e6f7420746865206f776e6572600082015250565b6000612c24602083612135565b9150612c2f82612bee565b602082019050919050565b60006020820190508181036000830152612c5381612c17565b9050919050565b600060e082019050612c6f600083018a612b40565b612c7c6020830189611d62565b612c896040830188611d62565b612c96606083018761199a565b612ca3608083018661199a565b612cb060a083018561199a565b612cbd60c0830184612b40565b98975050505050505050565b600081905092915050565b7f1901000000000000000000000000000000000000000000000000000000000000600082015250565b6000612d0a600283612cc9565b9150612d1582612cd4565b600282019050919050565b6000819050919050565b612d3b612d3682611e05565b612d20565b82525050565b6000612d4c82612cfd565b9150612d588285612d2a565b602082019150612d688284612d2a565b6020820191508190509392505050565b7f4e487b7100000000000000000000000000000000000000000000000000000000600052602160045260246000fd5b7f45434453413a20696e76616c6964207369676e61747572650000000000000000600082015250565b6000612ddd601883612135565b9150612de882612da7565b602082019050919050565b60006020820190508181036000830152612e0c81612dd0565b9050919050565b7f45434453413a20696e76616c6964207369676e6174757265206c656e67746800600082015250565b6000612e49601f83612135565b9150612e5482612e13565b602082019050919050565b60006020820190508181036000830152612e7881612e3c565b9050919050565b7f45434453413a20696e76616c6964207369676e6174757265202773272076616c60008201527f7565000000000000000000000000000000000000000000000000000000000000602082015250565b6000612edb602283612135565b9150612ee682612e7f565b604082019050919050565b60006020820190508181036000830152612f0a81612ece565b9050919050565b7f45434453413a20696e76616c6964207369676e6174757265202776272076616c60008201527f7565000000000000000000000000000000000000000000000000000000000000602082015250565b6000612f6d602283612135565b9150612f7882612f11565b604082019050919050565b60006020820190508181036000830152612f9c81612f60565b9050919050565b600060a082019050612fb86000830188612b40565b612fc56020830187612b40565b612fd26040830186612b40565b612fdf606083018561199a565b612fec6080830184611d62565b9695505050505050565b600060808201905061300b6000830187612b40565b6130186020830186612b31565b6130256040830185612b40565b6130326060830184612b40565b9594505050505056fea26469706673582212206eeab3270fd8f762d933230e0798c5cff292f2d34e0dcd4c54da8c9718b3b83c64736f6c634300080f0033",
  "linkReferences": {},
  "deployedLinkReferences": {}
}