{
  "_format": "hh-sol-artifact-1",
  "contractName": "Logger",
  "sourceName": "contracts/Logger.sol",
  "abi": [
    {
      "inputs": [],
      "stateMutability": "nonpayable",
      "type": "constructor"
    },
    {
      "anonymous": false,
      "inputs": [
        {
          "indexed": false,
          "internalType": "address",
          "name": "proxy",
          "type": "address"
        },
        {
          "indexed": false,
          "internalType": "bytes",
          "name": "payeruid",
          "type": "bytes"
        }
      ],
      "name": "PayerAdded",
      "type": "event"
    },
    {
      "anonymous": false,
      "inputs": [
        {
          "indexed": false,
          "internalType": "address",
          "name": "proxy",
          "type": "address"
        },
        {
          "indexed": false,
          "internalType": "bytes",
          "name": "payeruid",
          "type": "bytes"
        },
        {
          "indexed": false,
          "internalType": "uint256",
          "name": "amount",
          "type": "uint256"
        },
        {
          "indexed": false,
          "internalType": "uint256",
          "name": "transactonNumber",
          "type": "uint256"
        }
      ],
      "name": "PaymentMade",
      "type": "event"
    },
    {
      "anonymous": false,
      "inputs": [
        {
          "indexed": false,
          "internalType": "address",
          "name": "proxy",
          "type": "address"
        },
        {
          "indexed": true,
          "internalType": "address",
          "name": "owner",
          "type": "address"
        },
        {
          "indexed": true,
          "internalType": "address",
          "name": "recipientAddress",
          "type": "address"
        },
        {
          "indexed": false,
          "internalType": "uint256",
          "name": "totalReceivable",
          "type": "uint256"
        },
        {
          "indexed": true,
          "internalType": "address",
          "name": "targetToken",
          "type": "address"
        },
        {
          "indexed": false,
          "internalType": "bytes",
          "name": "userdata",
          "type": "bytes"
        }
      ],
      "name": "SliceCreated",
      "type": "event"
    },
    {
      "anonymous": false,
      "inputs": [
        {
          "indexed": false,
          "internalType": "address",
          "name": "proxy",
          "type": "address"
        },
        {
          "indexed": false,
          "internalType": "uint8",
          "name": "status",
          "type": "uint8"
        }
      ],
      "name": "StatusChange",
      "type": "event"
    },
    {
      "inputs": [
        {
          "internalType": "address",
          "name": "proxy",
          "type": "address"
        },
        {
          "internalType": "bytes",
          "name": "payeruid",
          "type": "bytes"
        }
      ],
      "name": "LogPayerAdded",
      "outputs": [
        {
          "internalType": "bool",
          "name": "",
          "type": "bool"
        }
      ],
      "stateMutability": "nonpayable",
      "type": "function"
    },
    {
      "inputs": [
        {
          "internalType": "address",
          "name": "proxy",
          "type": "address"
        },
        {
          "internalType": "bytes",
          "name": "payeruid",
          "type": "bytes"
        },
        {
          "internalType": "uint256",
          "name": "amount",
          "type": "uint256"
        },
        {
          "internalType": "uint256",
          "name": "transactonNumber",
          "type": "uint256"
        }
      ],
      "name": "LogPaymentMade",
      "outputs": [
        {
          "internalType": "bool",
          "name": "",
          "type": "bool"
        }
      ],
      "stateMutability": "nonpayable",
      "type": "function"
    },
    {
      "inputs": [
        {
          "internalType": "address",
          "name": "_proxy",
          "type": "address"
        },
        {
          "internalType": "address",
          "name": "_sender",
          "type": "address"
        },
        {
          "internalType": "address",
          "name": "_recipientAddress",
          "type": "address"
        },
        {
          "internalType": "uint256",
          "name": "_totalReceivable",
          "type": "uint256"
        },
        {
          "internalType": "address",
          "name": "_targetToken",
          "type": "address"
        },
        {
          "internalType": "bytes",
          "name": "userdata",
          "type": "bytes"
        }
      ],
      "name": "LogSliceCreated",
      "outputs": [
        {
          "internalType": "bool",
          "name": "",
          "type": "bool"
        }
      ],
      "stateMutability": "nonpayable",
      "type": "function"
    },
    {
      "inputs": [
        {
          "internalType": "address",
          "name": "proxy",
          "type": "address"
        },
        {
          "internalType": "uint8",
          "name": "status",
          "type": "uint8"
        }
      ],
      "name": "LogStatusChanged",
      "outputs": [
        {
          "internalType": "bool",
          "name": "",
          "type": "bool"
        }
      ],
      "stateMutability": "nonpayable",
      "type": "function"
    },
    {
      "inputs": [
        {
          "internalType": "bool",
          "name": "_pause",
          "type": "bool"
        }
      ],
      "name": "setPause",
      "outputs": [
        {
          "internalType": "bool",
          "name": "",
          "type": "bool"
        }
      ],
      "stateMutability": "nonpayable",
      "type": "function"
    }
  ],
  "bytecode": "0x608060405234801561001057600080fd5b50336000806101000a81548173ffffffffffffffffffffffffffffffffffffffff021916908373ffffffffffffffffffffffffffffffffffffffff160217905550610c7b806100606000396000f3fe608060405234801561001057600080fd5b50600436106100575760003560e01c80630c31c0e71461005c5780634d0148cf1461008c578063597e63ee146100bc57806378c6e93b146100ec578063bedb86fb1461011c575b600080fd5b61007660048036038101906100719190610669565b61014c565b60405161008391906106e0565b60405180910390f35b6100a660048036038101906100a19190610734565b6101e0565b6040516100b391906106e0565b60405180910390f35b6100d660048036038101906100d191906107aa565b610274565b6040516100e391906106e0565b60405180910390f35b6101066004803603810190610101919061088d565b61030e565b60405161011391906106e0565b60405180910390f35b61013660048036038101906101319190610968565b6103f0565b60405161014391906106e0565b60405180910390f35b60008060149054906101000a900460ff161561019d576040517f08c379a0000000000000000000000000000000000000000000000000000000008152600401610194906109f2565b60405180910390fd5b7f77bf943d31bc6dae46ec31a8245e24365f2ef076280e2447c90c9995143c38dd83836040516101ce929190610aa9565b60405180910390a16001905092915050565b60008060149054906101000a900460ff1615610231576040517f08c379a0000000000000000000000000000000000000000000000000000000008152600401610228906109f2565b60405180910390fd5b7f25a8ddd7a9cb175c465a79099ab90aa5db3309eeeb2086d6af0eda3d490f4a498383604051610262929190610ae8565b60405180910390a16001905092915050565b60008060149054906101000a900460ff16156102c5576040517f08c379a00000000000000000000000000000000000000000000000000000000081526004016102bc906109f2565b60405180910390fd5b7f79715490415ea1387e197922530b3daa4e456d6cbbc9ce2684b1813e906bc02a858585856040516102fa9493929190610b20565b60405180910390a160019050949350505050565b60008060149054906101000a900460ff161561035f576040517f08c379a0000000000000000000000000000000000000000000000000000000008152600401610356906109f2565b60405180910390fd5b8373ffffffffffffffffffffffffffffffffffffffff168673ffffffffffffffffffffffffffffffffffffffff168873ffffffffffffffffffffffffffffffffffffffff167f57fb172d5a510372f2fed6a482abb420cbcd5f5aaa44d0131ffc353bde797c218b8988886040516103d99493929190610b99565b60405180910390a460019050979650505050505050565b60003373ffffffffffffffffffffffffffffffffffffffff1660008054906101000a900473ffffffffffffffffffffffffffffffffffffffff1673ffffffffffffffffffffffffffffffffffffffff1614610480576040517f08c379a000000000000000000000000000000000000000000000000000000000815260040161047790610c25565b60405180910390fd5b81600060146101000a81548160ff021916908315150217905550600060149054906101000a900460ff169050919050565b6000604051905090565b600080fd5b600080fd5b600073ffffffffffffffffffffffffffffffffffffffff82169050919050565b60006104f0826104c5565b9050919050565b610500816104e5565b811461050b57600080fd5b50565b60008135905061051d816104f7565b92915050565b600080fd5b600080fd5b6000601f19601f8301169050919050565b7f4e487b7100000000000000000000000000000000000000000000000000000000600052604160045260246000fd5b6105768261052d565b810181811067ffffffffffffffff821117156105955761059461053e565b5b80604052505050565b60006105a86104b1565b90506105b4828261056d565b919050565b600067ffffffffffffffff8211156105d4576105d361053e565b5b6105dd8261052d565b9050602081019050919050565b82818337600083830152505050565b600061060c610607846105b9565b61059e565b90508281526020810184848401111561062857610627610528565b5b6106338482856105ea565b509392505050565b600082601f8301126106505761064f610523565b5b81356106608482602086016105f9565b91505092915050565b600080604083850312156106805761067f6104bb565b5b600061068e8582860161050e565b925050602083013567ffffffffffffffff8111156106af576106ae6104c0565b5b6106bb8582860161063b565b9150509250929050565b60008115159050919050565b6106da816106c5565b82525050565b60006020820190506106f560008301846106d1565b92915050565b600060ff82169050919050565b610711816106fb565b811461071c57600080fd5b50565b60008135905061072e81610708565b92915050565b6000806040838503121561074b5761074a6104bb565b5b60006107598582860161050e565b925050602061076a8582860161071f565b9150509250929050565b6000819050919050565b61078781610774565b811461079257600080fd5b50565b6000813590506107a48161077e565b92915050565b600080600080608085870312156107c4576107c36104bb565b5b60006107d28782880161050e565b945050602085013567ffffffffffffffff8111156107f3576107f26104c0565b5b6107ff8782880161063b565b935050604061081087828801610795565b925050606061082187828801610795565b91505092959194509250565b600080fd5b600080fd5b60008083601f84011261084d5761084c610523565b5b8235905067ffffffffffffffff81111561086a5761086961082d565b5b60208301915083600182028301111561088657610885610832565b5b9250929050565b600080600080600080600060c0888a0312156108ac576108ab6104bb565b5b60006108ba8a828b0161050e565b97505060206108cb8a828b0161050e565b96505060406108dc8a828b0161050e565b95505060606108ed8a828b01610795565b94505060806108fe8a828b0161050e565b93505060a088013567ffffffffffffffff81111561091f5761091e6104c0565b5b61092b8a828b01610837565b925092505092959891949750929550565b610945816106c5565b811461095057600080fd5b50565b6000813590506109628161093c565b92915050565b60006020828403121561097e5761097d6104bb565b5b600061098c84828501610953565b91505092915050565b600082825260208201905092915050565b7f4c45353030000000000000000000000000000000000000000000000000000000600082015250565b60006109dc600583610995565b91506109e7826109a6565b602082019050919050565b60006020820190508181036000830152610a0b816109cf565b9050919050565b610a1b816104e5565b82525050565b600081519050919050565b600082825260208201905092915050565b60005b83811015610a5b578082015181840152602081019050610a40565b83811115610a6a576000848401525b50505050565b6000610a7b82610a21565b610a858185610a2c565b9350610a95818560208601610a3d565b610a9e8161052d565b840191505092915050565b6000604082019050610abe6000830185610a12565b8181036020830152610ad08184610a70565b90509392505050565b610ae2816106fb565b82525050565b6000604082019050610afd6000830185610a12565b610b0a6020830184610ad9565b9392505050565b610b1a81610774565b82525050565b6000608082019050610b356000830187610a12565b8181036020830152610b478186610a70565b9050610b566040830185610b11565b610b636060830184610b11565b95945050505050565b6000610b788385610a2c565b9350610b858385846105ea565b610b8e8361052d565b840190509392505050565b6000606082019050610bae6000830187610a12565b610bbb6020830186610b11565b8181036040830152610bce818486610b6c565b905095945050505050565b7f4c45343032000000000000000000000000000000000000000000000000000000600082015250565b6000610c0f600583610995565b9150610c1a82610bd9565b602082019050919050565b60006020820190508181036000830152610c3e81610c02565b905091905056fea264697066735822122006ce243f03bbac75b03336ce1a5ca00f7697b6112055f621309da970c8f6a93a64736f6c634300080f0033",
  "linkReferences": {},
  "deployedLinkReferences": {}
}