{
  "_format": "hh-sol-artifact-1",
  "contractName": "RelicCF",
  "sourceName": "contracts/RelicCF.sol",
  "abi": [
    {
      "inputs": [
        {
          "internalType": "uint256",
          "name": "_projectTax",
          "type": "uint256"
        }
      ],
      "stateMutability": "nonpayable",
      "type": "constructor"
    },
    {
      "anonymous": false,
      "inputs": [
        {
          "indexed": false,
          "internalType": "uint256",
          "name": "id",
          "type": "uint256"
        },
        {
          "indexed": false,
          "internalType": "string",
          "name": "actionType",
          "type": "string"
        },
        {
          "indexed": true,
          "internalType": "address",
          "name": "executor",
          "type": "address"
        },
        {
          "indexed": false,
          "internalType": "uint256",
          "name": "timestamp",
          "type": "uint256"
        }
      ],
      "name": "Action",
      "type": "event"
    },
    {
      "inputs": [
        {
          "internalType": "uint256",
          "name": "id",
          "type": "uint256"
        }
      ],
      "name": "backProject",
      "outputs": [
        {
          "internalType": "bool",
          "name": "",
          "type": "bool"
        }
      ],
      "stateMutability": "payable",
      "type": "function"
    },
    {
      "inputs": [],
      "name": "balance",
      "outputs": [
        {
          "internalType": "uint256",
          "name": "",
          "type": "uint256"
        }
      ],
      "stateMutability": "view",
      "type": "function"
    },
    {
      "inputs": [
        {
          "internalType": "uint256",
          "name": "_taxPct",
          "type": "uint256"
        }
      ],
      "name": "changeTax",
      "outputs": [],
      "stateMutability": "nonpayable",
      "type": "function"
    },
    {
      "inputs": [
        {
          "internalType": "string",
          "name": "title",
          "type": "string"
        },
        {
          "internalType": "string",
          "name": "description",
          "type": "string"
        },
        {
          "internalType": "string",
          "name": "imageURL",
          "type": "string"
        },
        {
          "internalType": "uint256",
          "name": "cost",
          "type": "uint256"
        },
        {
          "internalType": "uint256",
          "name": "expiresAt",
          "type": "uint256"
        }
      ],
      "name": "createProject",
      "outputs": [
        {
          "internalType": "bool",
          "name": "",
          "type": "bool"
        }
      ],
      "stateMutability": "nonpayable",
      "type": "function"
    },
    {
      "inputs": [
        {
          "internalType": "uint256",
          "name": "id",
          "type": "uint256"
        }
      ],
      "name": "deleteProject",
      "outputs": [
        {
          "internalType": "bool",
          "name": "",
          "type": "bool"
        }
      ],
      "stateMutability": "nonpayable",
      "type": "function"
    },
    {
      "inputs": [
        {
          "internalType": "uint256",
          "name": "id",
          "type": "uint256"
        }
      ],
      "name": "getBackers",
      "outputs": [
        {
          "components": [
            {
              "internalType": "address",
              "name": "owner",
              "type": "address"
            },
            {
              "internalType": "uint256",
              "name": "contribution",
              "type": "uint256"
            },
            {
              "internalType": "uint256",
              "name": "timestamp",
              "type": "uint256"
            },
            {
              "internalType": "bool",
              "name": "refunded",
              "type": "bool"
            }
          ],
          "internalType": "struct RelicCF.backerStruct[]",
          "name": "",
          "type": "tuple[]"
        }
      ],
      "stateMutability": "view",
      "type": "function"
    },
    {
      "inputs": [
        {
          "internalType": "uint256",
          "name": "id",
          "type": "uint256"
        }
      ],
      "name": "getProject",
      "outputs": [
        {
          "components": [
            {
              "internalType": "uint256",
              "name": "id",
              "type": "uint256"
            },
            {
              "internalType": "address",
              "name": "owner",
              "type": "address"
            },
            {
              "internalType": "string",
              "name": "title",
              "type": "string"
            },
            {
              "internalType": "string",
              "name": "description",
              "type": "string"
            },
            {
              "internalType": "string",
              "name": "imageURL",
              "type": "string"
            },
            {
              "internalType": "uint256",
              "name": "cost",
              "type": "uint256"
            },
            {
              "internalType": "uint256",
              "name": "raised",
              "type": "uint256"
            },
            {
              "internalType": "uint256",
              "name": "timestamp",
              "type": "uint256"
            },
            {
              "internalType": "uint256",
              "name": "expiresAt",
              "type": "uint256"
            },
            {
              "internalType": "uint256",
              "name": "backers",
              "type": "uint256"
            },
            {
              "internalType": "enum RelicCF.statusEnum",
              "name": "status",
              "type": "uint8"
            }
          ],
          "internalType": "struct RelicCF.projectStruct",
          "name": "",
          "type": "tuple"
        }
      ],
      "stateMutability": "view",
      "type": "function"
    },
    {
      "inputs": [],
      "name": "getProjects",
      "outputs": [
        {
          "components": [
            {
              "internalType": "uint256",
              "name": "id",
              "type": "uint256"
            },
            {
              "internalType": "address",
              "name": "owner",
              "type": "address"
            },
            {
              "internalType": "string",
              "name": "title",
              "type": "string"
            },
            {
              "internalType": "string",
              "name": "description",
              "type": "string"
            },
            {
              "internalType": "string",
              "name": "imageURL",
              "type": "string"
            },
            {
              "internalType": "uint256",
              "name": "cost",
              "type": "uint256"
            },
            {
              "internalType": "uint256",
              "name": "raised",
              "type": "uint256"
            },
            {
              "internalType": "uint256",
              "name": "timestamp",
              "type": "uint256"
            },
            {
              "internalType": "uint256",
              "name": "expiresAt",
              "type": "uint256"
            },
            {
              "internalType": "uint256",
              "name": "backers",
              "type": "uint256"
            },
            {
              "internalType": "enum RelicCF.statusEnum",
              "name": "status",
              "type": "uint8"
            }
          ],
          "internalType": "struct RelicCF.projectStruct[]",
          "name": "",
          "type": "tuple[]"
        }
      ],
      "stateMutability": "view",
      "type": "function"
    },
    {
      "inputs": [],
      "name": "owner",
      "outputs": [
        {
          "internalType": "address",
          "name": "",
          "type": "address"
        }
      ],
      "stateMutability": "view",
      "type": "function"
    },
    {
      "inputs": [
        {
          "internalType": "uint256",
          "name": "id",
          "type": "uint256"
        }
      ],
      "name": "payOutProject",
      "outputs": [
        {
          "internalType": "bool",
          "name": "",
          "type": "bool"
        }
      ],
      "stateMutability": "nonpayable",
      "type": "function"
    },
    {
      "inputs": [],
      "name": "projectCount",
      "outputs": [
        {
          "internalType": "uint256",
          "name": "",
          "type": "uint256"
        }
      ],
      "stateMutability": "view",
      "type": "function"
    },
    {
      "inputs": [
        {
          "internalType": "uint256",
          "name": "",
          "type": "uint256"
        }
      ],
      "name": "projectExist",
      "outputs": [
        {
          "internalType": "bool",
          "name": "",
          "type": "bool"
        }
      ],
      "stateMutability": "view",
      "type": "function"
    },
    {
      "inputs": [],
      "name": "projectTax",
      "outputs": [
        {
          "internalType": "uint256",
          "name": "",
          "type": "uint256"
        }
      ],
      "stateMutability": "view",
      "type": "function"
    },
    {
      "inputs": [
        {
          "internalType": "uint256",
          "name": "id",
          "type": "uint256"
        }
      ],
      "name": "requestRefund",
      "outputs": [
        {
          "internalType": "bool",
          "name": "",
          "type": "bool"
        }
      ],
      "stateMutability": "nonpayable",
      "type": "function"
    },
    {
      "inputs": [],
      "name": "stats",
      "outputs": [
        {
          "internalType": "uint256",
          "name": "totalProjects",
          "type": "uint256"
        },
        {
          "internalType": "uint256",
          "name": "totalBacking",
          "type": "uint256"
        },
        {
          "internalType": "uint256",
          "name": "totalDonations",
          "type": "uint256"
        }
      ],
      "stateMutability": "view",
      "type": "function"
    },
    {
      "inputs": [
        {
          "internalType": "uint256",
          "name": "id",
          "type": "uint256"
        },
        {
          "internalType": "string",
          "name": "title",
          "type": "string"
        },
        {
          "internalType": "string",
          "name": "description",
          "type": "string"
        },
        {
          "internalType": "string",
          "name": "imageURL",
          "type": "string"
        },
        {
          "internalType": "uint256",
          "name": "expiresAt",
          "type": "uint256"
        }
      ],
      "name": "updateProject",
      "outputs": [
        {
          "internalType": "bool",
          "name": "",
          "type": "bool"
        }
      ],
      "stateMutability": "nonpayable",
      "type": "function"
    }
  ],
  "bytecode": "0x60806040523480156200001157600080fd5b5060405162003a4d38038062003a4d8339818101604052810190620000379190620000c5565b336000806101000a81548173ffffffffffffffffffffffffffffffffffffffff021916908373ffffffffffffffffffffffffffffffffffffffff1602179055508060018190555050620000f7565b600080fd5b6000819050919050565b6200009f816200008a565b8114620000ab57600080fd5b50565b600081519050620000bf8162000094565b92915050565b600060208284031215620000de57620000dd62000085565b5b6000620000ee84828501620000ae565b91505092915050565b61394680620001076000396000f3fe6080604052600436106100f35760003560e01c8063a4b2409e1161008a578063d24cd3ec11610059578063d24cd3ec1461037d578063d80528ae146103a8578063dcc60128146103d5578063f0f3f2c814610400576100f3565b8063a4b2409e1461029b578063b531dcba146102d8578063b69ef8a814610315578063c9168b7214610340576100f3565b80638593054b116100c65780638593054b146101c65780638da5cb5b146102035780639a3fa8c71461022e5780639f39a1941461026b576100f3565b8063056c29ee146100f857806336fbad26146101355780633e45c8af146101605780634cd0cb2814610189575b600080fd5b34801561010457600080fd5b5061011f600480360381019061011a91906124b2565b61043d565b60405161012c919061259c565b60405180910390f35b34801561014157600080fd5b5061014a6108d8565b60405161015791906125c6565b60405180910390f35b34801561016c57600080fd5b50610187600480360381019061018291906125e1565b6108de565b005b34801561019557600080fd5b506101b060048036038101906101ab91906125e1565b610976565b6040516101bd919061259c565b60405180910390f35b3480156101d257600080fd5b506101ed60048036038101906101e891906125e1565b610c2a565b6040516101fa919061259c565b60405180910390f35b34801561020f57600080fd5b50610218610c4a565b604051610225919061264f565b60405180910390f35b34801561023a57600080fd5b506102556004803603810190610250919061266a565b610c6e565b604051610262919061259c565b60405180910390f35b610285600480360381019061028091906125e1565b610f6f565b604051610292919061259c565b60405180910390f35b3480156102a757600080fd5b506102c260048036038101906102bd91906125e1565b611426565b6040516102cf919061259c565b60405180910390f35b3480156102e457600080fd5b506102ff60048036038101906102fa91906125e1565b611584565b60405161030c919061259c565b60405180910390f35b34801561032157600080fd5b5061032a6117a4565b60405161033791906125c6565b60405180910390f35b34801561034c57600080fd5b50610367600480360381019061036291906125e1565b6117aa565b604051610374919061286a565b60405180910390f35b34801561038957600080fd5b506103926118a1565b60405161039f91906125c6565b60405180910390f35b3480156103b457600080fd5b506103bd6118a7565b6040516103cc9392919061288c565b60405180910390f35b3480156103e157600080fd5b506103ea6118bf565b6040516103f79190612b78565b60405180910390f35b34801561040c57600080fd5b50610427600480360381019061042291906125e1565b611ba2565b6040516104349190612c97565b60405180910390f35b600080865111610482576040517f08c379a000000000000000000000000000000000000000000000000000000000815260040161047990612d16565b60405180910390fd5b60008551116104c6576040517f08c379a00000000000000000000000000000000000000000000000000000000081526004016104bd90612d82565b60405180910390fd5b600084511161050a576040517f08c379a000000000000000000000000000000000000000000000000000000000815260040161050190612dee565b60405180910390fd5b6105126122a0565b60025481600001818152505033816020019073ffffffffffffffffffffffffffffffffffffffff16908173ffffffffffffffffffffffffffffffffffffffff1681525050868160400181905250858160600181905250848160800181905250838160a0018181525050428160e0018181525050828161010001818152505060078190806001815401808255809150506001900390600052602060002090600b02016000909190919091506000820151816000015560208201518160010160006101000a81548173ffffffffffffffffffffffffffffffffffffffff021916908373ffffffffffffffffffffffffffffffffffffffff1602179055506040820151816002019081610622919061301a565b506060820151816003019081610638919061301a565b50608082015181600401908161064e919061301a565b5060a0820151816005015560c0820151816006015560e082015181600701556101008201518160080155610120820151816009015561014082015181600a0160006101000a81548160ff021916908360048111156106af576106ae61296e565b5b021790555050506001600a6000600254815260200190815260200160002060006101000a81548160ff021916908315150217905550600860003373ffffffffffffffffffffffffffffffffffffffff1673ffffffffffffffffffffffffffffffffffffffff1681526020019081526020016000208190806001815401808255809150506001900390600052602060002090600b02016000909190919091506000820151816000015560208201518160010160006101000a81548173ffffffffffffffffffffffffffffffffffffffff021916908373ffffffffffffffffffffffffffffffffffffffff16021790555060408201518160020190816107b3919061301a565b5060608201518160030190816107c9919061301a565b5060808201518160040190816107df919061301a565b5060a0820151816005015560c0820151816006015560e082015181600701556101008201518160080155610120820151816009015561014082015181600a0160006101000a81548160ff021916908360048111156108405761083f61296e565b5b0217905550505060016004600001600082825461085d919061311b565b925050819055503373ffffffffffffffffffffffffffffffffffffffff167faee8e5d3bbb2f71a951b5632cee20f7ac487b9f8ab4f66a236f7694b13af7c6a600260008154809291906108af9061314f565b91905055426040516108c29291906131e3565b60405180910390a2600191505095945050505050565b60025481565b60008054906101000a900473ffffffffffffffffffffffffffffffffffffffff1673ffffffffffffffffffffffffffffffffffffffff163373ffffffffffffffffffffffffffffffffffffffff161461096c576040517f08c379a00000000000000000000000000000000000000000000000000000000081526004016109639061326b565b60405180910390fd5b8060018190555050565b6000600a600083815260200190815260200160002060009054906101000a900460ff166109d8576040517f08c379a00000000000000000000000000000000000000000000000000000000081526004016109cf906132d7565b60405180910390fd5b600060048111156109ec576109eb61296e565b5b60078381548110610a00576109ff6132f7565b5b90600052602060002090600b0201600a0160009054906101000a900460ff166004811115610a3157610a3061296e565b5b14610a71576040517f08c379a0000000000000000000000000000000000000000000000000000000008152600401610a6890613372565b60405180910390fd5b60078281548110610a8557610a846132f7565b5b90600052602060002090600b020160010160009054906101000a900473ffffffffffffffffffffffffffffffffffffffff1673ffffffffffffffffffffffffffffffffffffffff163373ffffffffffffffffffffffffffffffffffffffff161480610b3b575060008054906101000a900473ffffffffffffffffffffffffffffffffffffffff1673ffffffffffffffffffffffffffffffffffffffff163373ffffffffffffffffffffffffffffffffffffffff16145b610b7a576040517f08c379a0000000000000000000000000000000000000000000000000000000008152600401610b71906133de565b60405180910390fd5b600360078381548110610b9057610b8f6132f7565b5b90600052602060002090600b0201600a0160006101000a81548160ff02191690836004811115610bc357610bc261296e565b5b0217905550610bd182611ec2565b3373ffffffffffffffffffffffffffffffffffffffff167faee8e5d3bbb2f71a951b5632cee20f7ac487b9f8ab4f66a236f7694b13af7c6a8342604051610c1992919061344a565b60405180910390a260019050919050565b600a6020528060005260406000206000915054906101000a900460ff1681565b60008054906101000a900473ffffffffffffffffffffffffffffffffffffffff1681565b600060078681548110610c8457610c836132f7565b5b90600052602060002090600b020160010160009054906101000a900473ffffffffffffffffffffffffffffffffffffffff1673ffffffffffffffffffffffffffffffffffffffff163373ffffffffffffffffffffffffffffffffffffffff1614610d23576040517f08c379a0000000000000000000000000000000000000000000000000000000008152600401610d1a906133de565b60405180910390fd5b600a600087815260200190815260200160002060009054906101000a900460ff16610d83576040517f08c379a0000000000000000000000000000000000000000000000000000000008152600401610d7a906132d7565b60405180910390fd5b6000855111610dc7576040517f08c379a0000000000000000000000000000000000000000000000000000000008152600401610dbe90612d16565b60405180910390fd5b6000845111610e0b576040517f08c379a0000000000000000000000000000000000000000000000000000000008152600401610e0290612d82565b60405180910390fd5b6000835111610e4f576040517f08c379a0000000000000000000000000000000000000000000000000000000008152600401610e4690612dee565b60405180910390fd5b8460078781548110610e6457610e636132f7565b5b90600052602060002090600b02016002019081610e81919061301a565b508360078781548110610e9757610e966132f7565b5b90600052602060002090600b02016003019081610eb4919061301a565b508260078781548110610eca57610ec96132f7565b5b90600052602060002090600b02016004019081610ee7919061301a565b508160078781548110610efd57610efc6132f7565b5b90600052602060002090600b0201600801819055503373ffffffffffffffffffffffffffffffffffffffff167faee8e5d3bbb2f71a951b5632cee20f7ac487b9f8ab4f66a236f7694b13af7c6a8742604051610f5a9291906134d2565b60405180910390a26001905095945050505050565b6000803411610fb3576040517f08c379a0000000000000000000000000000000000000000000000000000000008152600401610faa9061355a565b60405180910390fd5b600a600083815260200190815260200160002060009054906101000a900460ff16611013576040517f08c379a000000000000000000000000000000000000000000000000000000000815260040161100a906132d7565b60405180910390fd5b600060048111156110275761102661296e565b5b6007838154811061103b5761103a6132f7565b5b90600052602060002090600b0201600a0160009054906101000a900460ff16600481111561106c5761106b61296e565b5b146110ac576040517f08c379a00000000000000000000000000000000000000000000000000000000081526004016110a390613372565b60405180910390fd5b6001600460010160008282546110c2919061311b565b9250508190555034600460020160008282546110de919061311b565b9250508190555034600783815481106110fa576110f96132f7565b5b90600052602060002090600b0201600601600082825461111a919061311b565b92505081905550600160078381548110611137576111366132f7565b5b90600052602060002090600b02016009016000828254611157919061311b565b925050819055506009600083815260200190815260200160002060405180608001604052803373ffffffffffffffffffffffffffffffffffffffff16815260200134815260200142815260200160001515815250908060018154018082558091505060019003906000526020600020906004020160009091909190915060008201518160000160006101000a81548173ffffffffffffffffffffffffffffffffffffffff021916908373ffffffffffffffffffffffffffffffffffffffff160217905550602082015181600101556040820151816002015560608201518160030160006101000a81548160ff02191690831515021790555050503373ffffffffffffffffffffffffffffffffffffffff167faee8e5d3bbb2f71a951b5632cee20f7ac487b9f8ab4f66a236f7694b13af7c6a83426040516112999291906135c6565b60405180910390a2600782815481106112b5576112b46132f7565b5b90600052602060002090600b020160050154600783815481106112db576112da6132f7565b5b90600052602060002090600b0201600601541061139057600160078381548110611308576113076132f7565b5b90600052602060002090600b0201600a0160006101000a81548160ff0219169083600481111561133b5761133a61296e565b5b021790555060078281548110611354576113536132f7565b5b90600052602060002090600b02016006015460036000828254611377919061311b565b925050819055506113878261205f565b60019050611421565b600782815481106113a4576113a36132f7565b5b90600052602060002090600b020160080154421061141c576002600783815481106113d2576113d16132f7565b5b90600052602060002090600b0201600a0160006101000a81548160ff021916908360048111156114055761140461296e565b5b021790555061141382611ec2565b60019050611421565b600190505b919050565b60006002600481111561143c5761143b61296e565b5b600783815481106114505761144f6132f7565b5b90600052602060002090600b0201600a0160009054906101000a900460ff1660048111156114815761148061296e565b5b1415806114e557506003600481111561149d5761149c61296e565b5b600783815481106114b1576114b06132f7565b5b90600052602060002090600b0201600a0160009054906101000a900460ff1660048111156114e2576114e161296e565b5b14155b611524576040517f08c379a000000000000000000000000000000000000000000000000000000000815260040161151b90613674565b60405180910390fd5b60026007838154811061153a576115396132f7565b5b90600052602060002090600b0201600a0160006101000a81548160ff0219169083600481111561156d5761156c61296e565b5b021790555061157b82611ec2565b60019050919050565b60006001600481111561159a5761159961296e565b5b600783815481106115ae576115ad6132f7565b5b90600052602060002090600b0201600a0160009054906101000a900460ff1660048111156115df576115de61296e565b5b1461161f576040517f08c379a0000000000000000000000000000000000000000000000000000000008152600401611616906136e0565b60405180910390fd5b60035460078381548110611636576116356132f7565b5b90600052602060002090600b0201600601541015611689576040517f08c379a00000000000000000000000000000000000000000000000000000000081526004016116809061374c565b60405180910390fd5b6007828154811061169d5761169c6132f7565b5b90600052602060002090600b020160010160009054906101000a900473ffffffffffffffffffffffffffffffffffffffff1673ffffffffffffffffffffffffffffffffffffffff163373ffffffffffffffffffffffffffffffffffffffff161480611753575060008054906101000a900473ffffffffffffffffffffffffffffffffffffffff1673ffffffffffffffffffffffffffffffffffffffff163373ffffffffffffffffffffffffffffffffffffffff16145b611792576040517f08c379a0000000000000000000000000000000000000000000000000000000008152600401611789906133de565b60405180910390fd5b61179b8261205f565b60019050919050565b60035481565b606060096000838152602001908152602001600020805480602002602001604051908101604052809291908181526020016000905b8282101561189657838290600052602060002090600402016040518060800160405290816000820160009054906101000a900473ffffffffffffffffffffffffffffffffffffffff1673ffffffffffffffffffffffffffffffffffffffff1673ffffffffffffffffffffffffffffffffffffffff16815260200160018201548152602001600282015481526020016003820160009054906101000a900460ff161515151581525050815260200190600101906117df565b505050509050919050565b60015481565b60048060000154908060010154908060020154905083565b60606007805480602002602001604051908101604052809291908181526020016000905b82821015611b9957838290600052602060002090600b020160405180610160016040529081600082015481526020016001820160009054906101000a900473ffffffffffffffffffffffffffffffffffffffff1673ffffffffffffffffffffffffffffffffffffffff1673ffffffffffffffffffffffffffffffffffffffff16815260200160028201805461197790612e3d565b80601f01602080910402602001604051908101604052809291908181526020018280546119a390612e3d565b80156119f05780601f106119c5576101008083540402835291602001916119f0565b820191906000526020600020905b8154815290600101906020018083116119d357829003601f168201915b50505050508152602001600382018054611a0990612e3d565b80601f0160208091040260200160405190810160405280929190818152602001828054611a3590612e3d565b8015611a825780601f10611a5757610100808354040283529160200191611a82565b820191906000526020600020905b815481529060010190602001808311611a6557829003601f168201915b50505050508152602001600482018054611a9b90612e3d565b80601f0160208091040260200160405190810160405280929190818152602001828054611ac790612e3d565b8015611b145780601f10611ae957610100808354040283529160200191611b14565b820191906000526020600020905b815481529060010190602001808311611af757829003601f168201915b505050505081526020016005820154815260200160068201548152602001600782015481526020016008820154815260200160098201548152602001600a820160009054906101000a900460ff166004811115611b7457611b7361296e565b5b6004811115611b8657611b8561296e565b5b81525050815260200190600101906118e3565b50505050905090565b611baa6122a0565b600a600083815260200190815260200160002060009054906101000a900460ff16611c0a576040517f08c379a0000000000000000000000000000000000000000000000000000000008152600401611c01906132d7565b60405180910390fd5b60078281548110611c1e57611c1d6132f7565b5b90600052602060002090600b020160405180610160016040529081600082015481526020016001820160009054906101000a900473ffffffffffffffffffffffffffffffffffffffff1673ffffffffffffffffffffffffffffffffffffffff1673ffffffffffffffffffffffffffffffffffffffff168152602001600282018054611ca890612e3d565b80601f0160208091040260200160405190810160405280929190818152602001828054611cd490612e3d565b8015611d215780601f10611cf657610100808354040283529160200191611d21565b820191906000526020600020905b815481529060010190602001808311611d0457829003601f168201915b50505050508152602001600382018054611d3a90612e3d565b80601f0160208091040260200160405190810160405280929190818152602001828054611d6690612e3d565b8015611db35780601f10611d8857610100808354040283529160200191611db3565b820191906000526020600020905b815481529060010190602001808311611d9657829003601f168201915b50505050508152602001600482018054611dcc90612e3d565b80601f0160208091040260200160405190810160405280929190818152602001828054611df890612e3d565b8015611e455780601f10611e1a57610100808354040283529160200191611e45565b820191906000526020600020905b815481529060010190602001808311611e2857829003601f168201915b505050505081526020016005820154815260200160068201548152602001600782015481526020016008820154815260200160098201548152602001600a820160009054906101000a900460ff166004811115611ea557611ea461296e565b5b6004811115611eb757611eb661296e565b5b815250509050919050565b60005b600960008381526020019081526020016000208054905081101561205b576000600960008481526020019081526020016000208281548110611f0a57611f096132f7565b5b906000526020600020906004020160000160009054906101000a900473ffffffffffffffffffffffffffffffffffffffff1690506000600960008581526020019081526020016000208381548110611f6557611f646132f7565b5b90600052602060002090600402016001015490506001600960008681526020019081526020016000208481548110611fa057611f9f6132f7565b5b906000526020600020906004020160030160006101000a81548160ff02191690831515021790555042600960008681526020019081526020016000208481548110611fee57611fed6132f7565b5b90600052602060002090600402016002018190555061200d8282612225565b600160046001016000828254612023919061376c565b92505081905550806004600201600082825461203f919061376c565b92505081905550505080806120539061314f565b915050611ec5565b5050565b600060646001546007848154811061207a576120796132f7565b5b90600052602060002090600b02016006015461209691906137a0565b6120a09190613811565b905060006064600154836120b491906137a0565b6120be9190613811565b90506004600784815481106120d6576120d56132f7565b5b90600052602060002090600b0201600a0160006101000a81548160ff021916908360048111156121095761210861296e565b5b021790555061215d60078481548110612125576121246132f7565b5b90600052602060002090600b020160010160009054906101000a900473ffffffffffffffffffffffffffffffffffffffff1682612225565b61219260008054906101000a900473ffffffffffffffffffffffffffffffffffffffff16828461218d919061376c565b612225565b600783815481106121a6576121a56132f7565b5b90600052602060002090600b020160060154600360008282546121c9919061376c565b925050819055503373ffffffffffffffffffffffffffffffffffffffff167faee8e5d3bbb2f71a951b5632cee20f7ac487b9f8ab4f66a236f7694b13af7c6a844260405161221892919061388e565b60405180910390a2505050565b60008273ffffffffffffffffffffffffffffffffffffffff168260405161224b906138fb565b60006040518083038185875af1925050503d8060008114612288576040519150601f19603f3d011682016040523d82523d6000602084013e61228d565b606091505b505090508061229b57600080fd5b505050565b60405180610160016040528060008152602001600073ffffffffffffffffffffffffffffffffffffffff16815260200160608152602001606081526020016060815260200160008152602001600081526020016000815260200160008152602001600081526020016000600481111561231c5761231b61296e565b5b81525090565b6000604051905090565b600080fd5b600080fd5b600080fd5b600080fd5b6000601f19601f8301169050919050565b7f4e487b7100000000000000000000000000000000000000000000000000000000600052604160045260246000fd5b61238982612340565b810181811067ffffffffffffffff821117156123a8576123a7612351565b5b80604052505050565b60006123bb612322565b90506123c78282612380565b919050565b600067ffffffffffffffff8211156123e7576123e6612351565b5b6123f082612340565b9050602081019050919050565b82818337600083830152505050565b600061241f61241a846123cc565b6123b1565b90508281526020810184848401111561243b5761243a61233b565b5b6124468482856123fd565b509392505050565b600082601f83011261246357612462612336565b5b813561247384826020860161240c565b91505092915050565b6000819050919050565b61248f8161247c565b811461249a57600080fd5b50565b6000813590506124ac81612486565b92915050565b600080600080600060a086880312156124ce576124cd61232c565b5b600086013567ffffffffffffffff8111156124ec576124eb612331565b5b6124f88882890161244e565b955050602086013567ffffffffffffffff81111561251957612518612331565b5b6125258882890161244e565b945050604086013567ffffffffffffffff81111561254657612545612331565b5b6125528882890161244e565b93505060606125638882890161249d565b92505060806125748882890161249d565b9150509295509295909350565b60008115159050919050565b61259681612581565b82525050565b60006020820190506125b1600083018461258d565b92915050565b6125c08161247c565b82525050565b60006020820190506125db60008301846125b7565b92915050565b6000602082840312156125f7576125f661232c565b5b60006126058482850161249d565b91505092915050565b600073ffffffffffffffffffffffffffffffffffffffff82169050919050565b60006126398261260e565b9050919050565b6126498161262e565b82525050565b60006020820190506126646000830184612640565b92915050565b600080600080600060a086880312156126865761268561232c565b5b60006126948882890161249d565b955050602086013567ffffffffffffffff8111156126b5576126b4612331565b5b6126c18882890161244e565b945050604086013567ffffffffffffffff8111156126e2576126e1612331565b5b6126ee8882890161244e565b935050606086013567ffffffffffffffff81111561270f5761270e612331565b5b61271b8882890161244e565b925050608061272c8882890161249d565b9150509295509295909350565b600081519050919050565b600082825260208201905092915050565b6000819050602082019050919050565b61276e8161262e565b82525050565b61277d8161247c565b82525050565b61278c81612581565b82525050565b6080820160008201516127a86000850182612765565b5060208201516127bb6020850182612774565b5060408201516127ce6040850182612774565b5060608201516127e16060850182612783565b50505050565b60006127f38383612792565b60808301905092915050565b6000602082019050919050565b600061281782612739565b6128218185612744565b935061282c83612755565b8060005b8381101561285d57815161284488826127e7565b975061284f836127ff565b925050600181019050612830565b5085935050505092915050565b60006020820190508181036000830152612884818461280c565b905092915050565b60006060820190506128a160008301866125b7565b6128ae60208301856125b7565b6128bb60408301846125b7565b949350505050565b600081519050919050565b600082825260208201905092915050565b6000819050602082019050919050565b600081519050919050565b600082825260208201905092915050565b60005b8381101561292957808201518184015260208101905061290e565b60008484015250505050565b6000612940826128ef565b61294a81856128fa565b935061295a81856020860161290b565b61296381612340565b840191505092915050565b7f4e487b7100000000000000000000000000000000000000000000000000000000600052602160045260246000fd5b600581106129ae576129ad61296e565b5b50565b60008190506129bf8261299d565b919050565b60006129cf826129b1565b9050919050565b6129df816129c4565b82525050565b6000610160830160008301516129fe6000860182612774565b506020830151612a116020860182612765565b5060408301518482036040860152612a298282612935565b91505060608301518482036060860152612a438282612935565b91505060808301518482036080860152612a5d8282612935565b91505060a0830151612a7260a0860182612774565b5060c0830151612a8560c0860182612774565b5060e0830151612a9860e0860182612774565b50610100830151612aad610100860182612774565b50610120830151612ac2610120860182612774565b50610140830151612ad76101408601826129d6565b508091505092915050565b6000612aee83836129e5565b905092915050565b6000602082019050919050565b6000612b0e826128c3565b612b1881856128ce565b935083602082028501612b2a856128df565b8060005b85811015612b665784840389528151612b478582612ae2565b9450612b5283612af6565b925060208a01995050600181019050612b2e565b50829750879550505050505092915050565b60006020820190508181036000830152612b928184612b03565b905092915050565b600061016083016000830151612bb36000860182612774565b506020830151612bc66020860182612765565b5060408301518482036040860152612bde8282612935565b91505060608301518482036060860152612bf88282612935565b91505060808301518482036080860152612c128282612935565b91505060a0830151612c2760a0860182612774565b5060c0830151612c3a60c0860182612774565b5060e0830151612c4d60e0860182612774565b50610100830151612c62610100860182612774565b50610120830151612c77610120860182612774565b50610140830151612c8c6101408601826129d6565b508091505092915050565b60006020820190508181036000830152612cb18184612b9a565b905092915050565b600082825260208201905092915050565b7f5469746c652063616e6e6f7420626520656d7074790000000000000000000000600082015250565b6000612d00601583612cb9565b9150612d0b82612cca565b602082019050919050565b60006020820190508181036000830152612d2f81612cf3565b9050919050565b7f4465736372697074696f6e2063616e6e6f7420626520656d7074790000000000600082015250565b6000612d6c601b83612cb9565b9150612d7782612d36565b602082019050919050565b60006020820190508181036000830152612d9b81612d5f565b9050919050565b7f496d61676555524c2063616e6e6f7420626520656d7074790000000000000000600082015250565b6000612dd8601883612cb9565b9150612de382612da2565b602082019050919050565b60006020820190508181036000830152612e0781612dcb565b9050919050565b7f4e487b7100000000000000000000000000000000000000000000000000000000600052602260045260246000fd5b60006002820490506001821680612e5557607f821691505b602082108103612e6857612e67612e0e565b5b50919050565b60008190508160005260206000209050919050565b60006020601f8301049050919050565b600082821b905092915050565b600060088302612ed07fffffffffffffffffffffffffffffffffffffffffffffffffffffffffffffffff82612e93565b612eda8683612e93565b95508019841693508086168417925050509392505050565b6000819050919050565b6000612f17612f12612f0d8461247c565b612ef2565b61247c565b9050919050565b6000819050919050565b612f3183612efc565b612f45612f3d82612f1e565b848454612ea0565b825550505050565b600090565b612f5a612f4d565b612f65818484612f28565b505050565b5b81811015612f8957612f7e600082612f52565b600181019050612f6b565b5050565b601f821115612fce57612f9f81612e6e565b612fa884612e83565b81016020851015612fb7578190505b612fcb612fc385612e83565b830182612f6a565b50505b505050565b600082821c905092915050565b6000612ff160001984600802612fd3565b1980831691505092915050565b600061300a8383612fe0565b9150826002028217905092915050565b613023826128ef565b67ffffffffffffffff81111561303c5761303b612351565b5b6130468254612e3d565b613051828285612f8d565b600060209050601f8311600181146130845760008415613072578287015190505b61307c8582612ffe565b8655506130e4565b601f19841661309286612e6e565b60005b828110156130ba57848901518255600182019150602085019450602081019050613095565b868310156130d757848901516130d3601f891682612fe0565b8355505b6001600288020188555050505b505050505050565b7f4e487b7100000000000000000000000000000000000000000000000000000000600052601160045260246000fd5b60006131268261247c565b91506131318361247c565b9250828201905080821115613149576131486130ec565b5b92915050565b600061315a8261247c565b91507fffffffffffffffffffffffffffffffffffffffffffffffffffffffffffffffff820361318c5761318b6130ec565b5b600182019050919050565b7f50524f4a45435420435245415445440000000000000000000000000000000000600082015250565b60006131cd600f83612cb9565b91506131d882613197565b602082019050919050565b60006060820190506131f860008301856125b7565b8181036020830152613209816131c0565b905061321860408301846125b7565b9392505050565b7f4f776e6572207265736572766564206f6e6c7900000000000000000000000000600082015250565b6000613255601383612cb9565b91506132608261321f565b602082019050919050565b6000602082019050818103600083015261328481613248565b9050919050565b7f50726f6a656374206e6f7420666f756e64000000000000000000000000000000600082015250565b60006132c1601183612cb9565b91506132cc8261328b565b602082019050919050565b600060208201905081810360008301526132f0816132b4565b9050919050565b7f4e487b7100000000000000000000000000000000000000000000000000000000600052603260045260246000fd5b7f50726f6a656374206e6f206c6f6e676572206f70656e65640000000000000000600082015250565b600061335c601883612cb9565b915061336782613326565b602082019050919050565b6000602082019050818103600083015261338b8161334f565b9050919050565b7f556e617574686f72697a656420456e7469747900000000000000000000000000600082015250565b60006133c8601383612cb9565b91506133d382613392565b602082019050919050565b600060208201905081810360008301526133f7816133bb565b9050919050565b7f50524f4a4543542044454c455445440000000000000000000000000000000000600082015250565b6000613434600f83612cb9565b915061343f826133fe565b602082019050919050565b600060608201905061345f60008301856125b7565b818103602083015261347081613427565b905061347f60408301846125b7565b9392505050565b7f50524f4a45435420555044415445440000000000000000000000000000000000600082015250565b60006134bc600f83612cb9565b91506134c782613486565b602082019050919050565b60006060820190506134e760008301856125b7565b81810360208301526134f8816134af565b905061350760408301846125b7565b9392505050565b7f4574686572206d7573742062652067726561746572207468616e207a65726f00600082015250565b6000613544601f83612cb9565b915061354f8261350e565b602082019050919050565b6000602082019050818103600083015261357381613537565b9050919050565b7f50524f4a454354204241434b4544000000000000000000000000000000000000600082015250565b60006135b0600e83612cb9565b91506135bb8261357a565b602082019050919050565b60006060820190506135db60008301856125b7565b81810360208301526135ec816135a3565b90506135fb60408301846125b7565b9392505050565b7f50726f6a656374206e6f74206d61726b656420617320726576657274206f722060008201527f64656c6574650000000000000000000000000000000000000000000000000000602082015250565b600061365e602683612cb9565b915061366982613602565b604082019050919050565b6000602082019050818103600083015261368d81613651565b9050919050565b7f50726f6a656374206e6f206c6f6e67657220415050524f564544000000000000600082015250565b60006136ca601a83612cb9565b91506136d582613694565b602082019050919050565b600060208201905081810360008301526136f9816136bd565b9050919050565b7f496e73756666696369656e742046756e64000000000000000000000000000000600082015250565b6000613736601183612cb9565b915061374182613700565b602082019050919050565b6000602082019050818103600083015261376581613729565b9050919050565b60006137778261247c565b91506137828361247c565b925082820390508181111561379a576137996130ec565b5b92915050565b60006137ab8261247c565b91506137b68361247c565b92508282026137c48161247c565b915082820484148315176137db576137da6130ec565b5b5092915050565b7f4e487b7100000000000000000000000000000000000000000000000000000000600052601260045260246000fd5b600061381c8261247c565b91506138278361247c565b925082613837576138366137e2565b5b828204905092915050565b7f50524f4a4543542050414944204f555400000000000000000000000000000000600082015250565b6000613878601083612cb9565b915061388382613842565b602082019050919050565b60006060820190506138a360008301856125b7565b81810360208301526138b48161386b565b90506138c360408301846125b7565b9392505050565b600081905092915050565b50565b60006138e56000836138ca565b91506138f0826138d5565b600082019050919050565b6000613906826138d8565b915081905091905056fea2646970667358221220c1422b0df6f3849489f6ff13965bec89131ad8f6bd9323dc4760cc79b9f6f67b64736f6c63430008110033",
  "linkReferences": {},
  "deployedLinkReferences": {}
}