{
  "_format": "hh-sol-artifact-1",
  "contractName": "CELO_HACK",
  "sourceName": "contracts/CELO_HACK.sol",
  "abi": [
    {
      "inputs": [],
      "stateMutability": "nonpayable",
      "type": "constructor"
    },
    {
      "inputs": [
        {
          "internalType": "uint256",
          "name": "",
          "type": "uint256"
        }
      ],
      "name": "AllDonationDetails",
      "outputs": [
        {
          "internalType": "uint256",
          "name": "donationId",
          "type": "uint256"
        },
        {
          "internalType": "address",
          "name": "owner",
          "type": "address"
        },
        {
          "internalType": "string",
          "name": "donationInfo",
          "type": "string"
        },
        {
          "internalType": "address",
          "name": "donarAddress",
          "type": "address"
        },
        {
          "internalType": "bool",
          "name": "donationPickup",
          "type": "bool"
        },
        {
          "internalType": "bool",
          "name": "NFTreceived",
          "type": "bool"
        },
        {
          "internalType": "bool",
          "name": "donationReceived",
          "type": "bool"
        },
        {
          "internalType": "bool",
          "name": "donationClosed",
          "type": "bool"
        }
      ],
      "stateMutability": "view",
      "type": "function"
    },
    {
      "inputs": [
        {
          "internalType": "uint256",
          "name": "",
          "type": "uint256"
        }
      ],
      "name": "AllNFTs",
      "outputs": [
        {
          "internalType": "uint256",
          "name": "NFTId",
          "type": "uint256"
        },
        {
          "internalType": "address",
          "name": "owner",
          "type": "address"
        },
        {
          "internalType": "string",
          "name": "NFTinfo",
          "type": "string"
        }
      ],
      "stateMutability": "view",
      "type": "function"
    },
    {
      "inputs": [
        {
          "internalType": "uint256",
          "name": "",
          "type": "uint256"
        }
      ],
      "name": "AllRescueDetails",
      "outputs": [
        {
          "internalType": "uint256",
          "name": "rescueId",
          "type": "uint256"
        },
        {
          "internalType": "address",
          "name": "owner",
          "type": "address"
        },
        {
          "internalType": "string",
          "name": "rescueInfo",
          "type": "string"
        },
        {
          "internalType": "address",
          "name": "rescuerAddress",
          "type": "address"
        },
        {
          "internalType": "bool",
          "name": "rescuePickup",
          "type": "bool"
        },
        {
          "internalType": "bool",
          "name": "rescueRecieved",
          "type": "bool"
        },
        {
          "internalType": "bool",
          "name": "rescueClosed",
          "type": "bool"
        }
      ],
      "stateMutability": "view",
      "type": "function"
    },
    {
      "inputs": [
        {
          "internalType": "string",
          "name": "_donationInfo",
          "type": "string"
        }
      ],
      "name": "SendDonationRequest",
      "outputs": [],
      "stateMutability": "nonpayable",
      "type": "function"
    },
    {
      "inputs": [
        {
          "internalType": "string",
          "name": "_rescueInfo",
          "type": "string"
        }
      ],
      "name": "SendRescueRequest",
      "outputs": [],
      "stateMutability": "nonpayable",
      "type": "function"
    },
    {
      "inputs": [
        {
          "internalType": "uint256",
          "name": "_donationId",
          "type": "uint256"
        },
        {
          "internalType": "string",
          "name": "_NFTinfo",
          "type": "string"
        }
      ],
      "name": "createNFT",
      "outputs": [],
      "stateMutability": "nonpayable",
      "type": "function"
    },
    {
      "inputs": [],
      "name": "getAllDonationRequest",
      "outputs": [
        {
          "components": [
            {
              "internalType": "uint256",
              "name": "donationId",
              "type": "uint256"
            },
            {
              "internalType": "address",
              "name": "owner",
              "type": "address"
            },
            {
              "internalType": "string",
              "name": "donationInfo",
              "type": "string"
            },
            {
              "internalType": "address",
              "name": "donarAddress",
              "type": "address"
            },
            {
              "internalType": "bool",
              "name": "donationPickup",
              "type": "bool"
            },
            {
              "internalType": "bool",
              "name": "NFTreceived",
              "type": "bool"
            },
            {
              "internalType": "bool",
              "name": "donationReceived",
              "type": "bool"
            },
            {
              "internalType": "bool",
              "name": "donationClosed",
              "type": "bool"
            }
          ],
          "internalType": "struct CELO_HACK.DonationDetails[]",
          "name": "",
          "type": "tuple[]"
        }
      ],
      "stateMutability": "view",
      "type": "function"
    },
    {
      "inputs": [],
      "name": "getAllMyDonationDetails",
      "outputs": [
        {
          "components": [
            {
              "internalType": "uint256",
              "name": "donationId",
              "type": "uint256"
            },
            {
              "internalType": "address",
              "name": "owner",
              "type": "address"
            },
            {
              "internalType": "string",
              "name": "donationInfo",
              "type": "string"
            },
            {
              "internalType": "address",
              "name": "donarAddress",
              "type": "address"
            },
            {
              "internalType": "bool",
              "name": "donationPickup",
              "type": "bool"
            },
            {
              "internalType": "bool",
              "name": "NFTreceived",
              "type": "bool"
            },
            {
              "internalType": "bool",
              "name": "donationReceived",
              "type": "bool"
            },
            {
              "internalType": "bool",
              "name": "donationClosed",
              "type": "bool"
            }
          ],
          "internalType": "struct CELO_HACK.DonationDetails[]",
          "name": "",
          "type": "tuple[]"
        }
      ],
      "stateMutability": "view",
      "type": "function"
    },
    {
      "inputs": [],
      "name": "getAllMyNFT",
      "outputs": [
        {
          "components": [
            {
              "internalType": "uint256",
              "name": "NFTId",
              "type": "uint256"
            },
            {
              "internalType": "address",
              "name": "owner",
              "type": "address"
            },
            {
              "internalType": "string",
              "name": "NFTinfo",
              "type": "string"
            }
          ],
          "internalType": "struct CELO_HACK.NFT[]",
          "name": "",
          "type": "tuple[]"
        }
      ],
      "stateMutability": "view",
      "type": "function"
    },
    {
      "inputs": [],
      "name": "getAllMyRescueDetails",
      "outputs": [
        {
          "components": [
            {
              "internalType": "uint256",
              "name": "rescueId",
              "type": "uint256"
            },
            {
              "internalType": "address",
              "name": "owner",
              "type": "address"
            },
            {
              "internalType": "string",
              "name": "rescueInfo",
              "type": "string"
            },
            {
              "internalType": "address",
              "name": "rescuerAddress",
              "type": "address"
            },
            {
              "internalType": "bool",
              "name": "rescuePickup",
              "type": "bool"
            },
            {
              "internalType": "bool",
              "name": "rescueRecieved",
              "type": "bool"
            },
            {
              "internalType": "bool",
              "name": "rescueClosed",
              "type": "bool"
            }
          ],
          "internalType": "struct CELO_HACK.RescueDetails[]",
          "name": "",
          "type": "tuple[]"
        }
      ],
      "stateMutability": "view",
      "type": "function"
    },
    {
      "inputs": [],
      "name": "getAllRescueRequest",
      "outputs": [
        {
          "components": [
            {
              "internalType": "uint256",
              "name": "rescueId",
              "type": "uint256"
            },
            {
              "internalType": "address",
              "name": "owner",
              "type": "address"
            },
            {
              "internalType": "string",
              "name": "rescueInfo",
              "type": "string"
            },
            {
              "internalType": "address",
              "name": "rescuerAddress",
              "type": "address"
            },
            {
              "internalType": "bool",
              "name": "rescuePickup",
              "type": "bool"
            },
            {
              "internalType": "bool",
              "name": "rescueRecieved",
              "type": "bool"
            },
            {
              "internalType": "bool",
              "name": "rescueClosed",
              "type": "bool"
            }
          ],
          "internalType": "struct CELO_HACK.RescueDetails[]",
          "name": "",
          "type": "tuple[]"
        }
      ],
      "stateMutability": "view",
      "type": "function"
    },
    {
      "inputs": [
        {
          "internalType": "uint256",
          "name": "_donationId",
          "type": "uint256"
        }
      ],
      "name": "getDonationClosed",
      "outputs": [],
      "stateMutability": "nonpayable",
      "type": "function"
    },
    {
      "inputs": [
        {
          "internalType": "uint256",
          "name": "_donationId",
          "type": "uint256"
        }
      ],
      "name": "getDonationPickup",
      "outputs": [],
      "stateMutability": "nonpayable",
      "type": "function"
    },
    {
      "inputs": [
        {
          "internalType": "uint256",
          "name": "_donationId",
          "type": "uint256"
        }
      ],
      "name": "getDonationReceived",
      "outputs": [],
      "stateMutability": "nonpayable",
      "type": "function"
    },
    {
      "inputs": [
        {
          "internalType": "uint256",
          "name": "_rescueId",
          "type": "uint256"
        }
      ],
      "name": "getRescueClosed",
      "outputs": [],
      "stateMutability": "nonpayable",
      "type": "function"
    },
    {
      "inputs": [
        {
          "internalType": "uint256",
          "name": "_rescueId",
          "type": "uint256"
        }
      ],
      "name": "getRescuePickup",
      "outputs": [],
      "stateMutability": "nonpayable",
      "type": "function"
    },
    {
      "inputs": [
        {
          "internalType": "uint256",
          "name": "_rescueId",
          "type": "uint256"
        }
      ],
      "name": "getRescueRecieved",
      "outputs": [],
      "stateMutability": "nonpayable",
      "type": "function"
    },
    {
      "inputs": [],
      "name": "owner",
      "outputs": [
        {
          "internalType": "address payable",
          "name": "",
          "type": "address"
        }
      ],
      "stateMutability": "view",
      "type": "function"
    },
    {
      "inputs": [
        {
          "internalType": "address",
          "name": "_newOwner",
          "type": "address"
        }
      ],
      "name": "transferOwnership",
      "outputs": [],
      "stateMutability": "nonpayable",
      "type": "function"
    }
  ],
  "bytecode": "0x6080604052600080556000600155600060025534801561001e57600080fd5b5033600660006101000a81548173ffffffffffffffffffffffffffffffffffffffff021916908373ffffffffffffffffffffffffffffffffffffffff16021790555061359d8061006f6000396000f3fe608060405234801561001057600080fd5b50600436106101215760003560e01c8063b8e7772f116100ad578063dc99bd3b11610071578063dc99bd3b14610303578063dd2f72891461031f578063f1c869681461033b578063f2fde38b14610359578063f32b51241461037557610121565b8063b8e7772f1461022a578063c59eb0811461025c578063cbea745f14610293578063cddc2fbf146102b1578063d017f605146102e757610121565b80638208ebb7116100f45780638208ebb71461019a57806382445058146101b65780638da5cb5b146101d4578063a3ab4f15146101f2578063b75789801461020e57610121565b80630314790c146101265780631de8897414610144578063287798c314610160578063724950811461017c575b600080fd5b61012e610391565b60405161013b91906129ef565b60405180910390f35b61015e60048036038101906101599190612b5a565b61074b565b005b61017a60048036038101906101759190612bcf565b610951565b005b610184610aeb565b6040516101919190612d0e565b60405180910390f35b6101b460048036038101906101af9190612bcf565b610de2565b005b6101be610fbf565b6040516101cb91906129ef565b60405180910390f35b6101dc6111d3565b6040516101e99190612d51565b60405180910390f35b61020c60048036038101906102079190612bcf565b6111f9565b005b61022860048036038101906102239190612bcf565b611393565b005b610244600480360381019061023f9190612bcf565b61152d565b60405161025393929190612dd4565b60405180910390f35b61027660048036038101906102719190612bcf565b61160f565b60405161028a989796959493929190612e21565b60405180910390f35b61029b611763565b6040516102a89190613004565b60405180910390f35b6102cb60048036038101906102c69190612bcf565b611b00565b6040516102de9796959493929190613026565b60405180910390f35b61030160048036038101906102fc9190612bcf565b611c41565b005b61031d60048036038101906103189190612b5a565b611ddb565b005b61033960048036038101906103349190612bcf565b612002565b005b6103436121df565b6040516103509190613004565b60405180910390f35b610373600480360381019061036e91906130c8565b6123d7565b005b61038f600480360381019061038a91906130f5565b612475565b005b60606000600154905060008060005b83811015610442573373ffffffffffffffffffffffffffffffffffffffff16600482815481106103d3576103d2613151565b5b906000526020600020906004020160030160009054906101000a900473ffffffffffffffffffffffffffffffffffffffff1673ffffffffffffffffffffffffffffffffffffffff160361042f57828061042b906131af565b9350505b808061043a906131af565b9150506103a0565b5060008267ffffffffffffffff81111561045f5761045e612a2f565b5b60405190808252806020026020018201604052801561049857816020015b610485612659565b81526020019060019003908161047d5790505b50905060005b84811015610740573373ffffffffffffffffffffffffffffffffffffffff16600482815481106104d1576104d0613151565b5b906000526020600020906004020160030160009054906101000a900473ffffffffffffffffffffffffffffffffffffffff1673ffffffffffffffffffffffffffffffffffffffff160361072d576004818154811061053257610531613151565b5b906000526020600020906004020160405180610100016040529081600082015481526020016001820160009054906101000a900473ffffffffffffffffffffffffffffffffffffffff1673ffffffffffffffffffffffffffffffffffffffff1673ffffffffffffffffffffffffffffffffffffffff1681526020016002820180546105bc90613226565b80601f01602080910402602001604051908101604052809291908181526020018280546105e890613226565b80156106355780601f1061060a57610100808354040283529160200191610635565b820191906000526020600020905b81548152906001019060200180831161061857829003601f168201915b505050505081526020016003820160009054906101000a900473ffffffffffffffffffffffffffffffffffffffff1673ffffffffffffffffffffffffffffffffffffffff1673ffffffffffffffffffffffffffffffffffffffff1681526020016003820160149054906101000a900460ff161515151581526020016003820160159054906101000a900460ff161515151581526020016003820160169054906101000a900460ff161515151581526020016003820160179054906101000a900460ff16151515158152505082848151811061071357610712613151565b5b60200260200101819052508280610729906131af565b9350505b8080610738906131af565b91505061049e565b508094505050505090565b6107536126d2565b600054816000018181525050600660009054906101000a900473ffffffffffffffffffffffffffffffffffffffff16816020019073ffffffffffffffffffffffffffffffffffffffff16908173ffffffffffffffffffffffffffffffffffffffff168152505033816060019073ffffffffffffffffffffffffffffffffffffffff16908173ffffffffffffffffffffffffffffffffffffffff168152505081816040018190525060038190806001815401808255809150506001900390600052602060002090600402016000909190919091506000820151816000015560208201518160010160006101000a81548173ffffffffffffffffffffffffffffffffffffffff021916908373ffffffffffffffffffffffffffffffffffffffff160217905550604082015181600201908161088c9190613403565b5060608201518160030160006101000a81548173ffffffffffffffffffffffffffffffffffffffff021916908373ffffffffffffffffffffffffffffffffffffffff16021790555060808201518160030160146101000a81548160ff02191690831515021790555060a08201518160030160156101000a81548160ff02191690831515021790555060c08201518160030160166101000a81548160ff0219169083151502179055505050600080815480929190610948906131af565b91905055505050565b3373ffffffffffffffffffffffffffffffffffffffff16600660009054906101000a900473ffffffffffffffffffffffffffffffffffffffff1673ffffffffffffffffffffffffffffffffffffffff16146109e1576040517f08c379a00000000000000000000000000000000000000000000000000000000081526004016109d890613547565b60405180910390fd5b60001515600382815481106109f9576109f8613151565b5b906000526020600020906004020160030160159054906101000a900460ff16151514610a2457600080fd5b6000151560038281548110610a3c57610a3b613151565b5b906000526020600020906004020160030160149054906101000a900460ff16151514610a6757600080fd5b6000151560038281548110610a7f57610a7e613151565b5b906000526020600020906004020160030160169054906101000a900460ff16151514610aaa57600080fd5b600160038281548110610ac057610abf613151565b5b906000526020600020906004020160030160146101000a81548160ff02191690831515021790555050565b60606000600254905060008060005b83811015610b9c573373ffffffffffffffffffffffffffffffffffffffff1660058281548110610b2d57610b2c613151565b5b906000526020600020906003020160010160009054906101000a900473ffffffffffffffffffffffffffffffffffffffff1673ffffffffffffffffffffffffffffffffffffffff1603610b89578280610b85906131af565b9350505b8080610b94906131af565b915050610afa565b5060008267ffffffffffffffff811115610bb957610bb8612a2f565b5b604051908082528060200260200182016040528015610bf257816020015b610bdf612741565b815260200190600190039081610bd75790505b50905060005b84811015610dd7573373ffffffffffffffffffffffffffffffffffffffff1660058281548110610c2b57610c2a613151565b5b906000526020600020906003020160010160009054906101000a900473ffffffffffffffffffffffffffffffffffffffff1673ffffffffffffffffffffffffffffffffffffffff1603610dc45760058181548110610c8c57610c8b613151565b5b9060005260206000209060030201604051806060016040529081600082015481526020016001820160009054906101000a900473ffffffffffffffffffffffffffffffffffffffff1673ffffffffffffffffffffffffffffffffffffffff1673ffffffffffffffffffffffffffffffffffffffff168152602001600282018054610d1590613226565b80601f0160208091040260200160405190810160405280929190818152602001828054610d4190613226565b8015610d8e5780601f10610d6357610100808354040283529160200191610d8e565b820191906000526020600020905b815481529060010190602001808311610d7157829003601f168201915b505050505081525050828481518110610daa57610da9613151565b5b60200260200101819052508280610dc0906131af565b9350505b8080610dcf906131af565b915050610bf8565b508094505050505090565b3373ffffffffffffffffffffffffffffffffffffffff16600660009054906101000a900473ffffffffffffffffffffffffffffffffffffffff1673ffffffffffffffffffffffffffffffffffffffff1614610e72576040517f08c379a0000000000000000000000000000000000000000000000000000000008152600401610e6990613547565b60405180910390fd5b6001151560048281548110610e8a57610e89613151565b5b906000526020600020906004020160030160149054906101000a900460ff16151514610eb557600080fd5b6001151560048281548110610ecd57610ecc613151565b5b906000526020600020906004020160030160159054906101000a900460ff16151514610ef857600080fd5b6000151560048281548110610f1057610f0f613151565b5b906000526020600020906004020160030160169054906101000a900460ff16151514610f3b57600080fd5b6000151560048281548110610f5357610f52613151565b5b906000526020600020906004020160030160179054906101000a900460ff16151514610f7e57600080fd5b600160048281548110610f9457610f93613151565b5b906000526020600020906004020160030160166101000a81548160ff02191690831515021790555050565b60606004805480602002602001604051908101604052809291908181526020016000905b828210156111ca578382906000526020600020906004020160405180610100016040529081600082015481526020016001820160009054906101000a900473ffffffffffffffffffffffffffffffffffffffff1673ffffffffffffffffffffffffffffffffffffffff1673ffffffffffffffffffffffffffffffffffffffff16815260200160028201805461107790613226565b80601f01602080910402602001604051908101604052809291908181526020018280546110a390613226565b80156110f05780601f106110c5576101008083540402835291602001916110f0565b820191906000526020600020905b8154815290600101906020018083116110d357829003601f168201915b505050505081526020016003820160009054906101000a900473ffffffffffffffffffffffffffffffffffffffff1673ffffffffffffffffffffffffffffffffffffffff1673ffffffffffffffffffffffffffffffffffffffff1681526020016003820160149054906101000a900460ff161515151581526020016003820160159054906101000a900460ff161515151581526020016003820160169054906101000a900460ff161515151581526020016003820160179054906101000a900460ff16151515158152505081526020019060010190610fe3565b50505050905090565b600660009054906101000a900473ffffffffffffffffffffffffffffffffffffffff1681565b3373ffffffffffffffffffffffffffffffffffffffff16600660009054906101000a900473ffffffffffffffffffffffffffffffffffffffff1673ffffffffffffffffffffffffffffffffffffffff1614611289576040517f08c379a000000000000000000000000000000000000000000000000000000000815260040161128090613547565b60405180910390fd5b60011515600382815481106112a1576112a0613151565b5b906000526020600020906004020160030160149054906101000a900460ff161515146112cc57600080fd5b60011515600382815481106112e4576112e3613151565b5b906000526020600020906004020160030160159054906101000a900460ff1615151461130f57600080fd5b600015156003828154811061132757611326613151565b5b906000526020600020906004020160030160169054906101000a900460ff1615151461135257600080fd5b60016003828154811061136857611367613151565b5b906000526020600020906004020160030160166101000a81548160ff02191690831515021790555050565b3373ffffffffffffffffffffffffffffffffffffffff16600660009054906101000a900473ffffffffffffffffffffffffffffffffffffffff1673ffffffffffffffffffffffffffffffffffffffff1614611423576040517f08c379a000000000000000000000000000000000000000000000000000000000815260040161141a90613547565b60405180910390fd5b600115156003828154811061143b5761143a613151565b5b906000526020600020906004020160030160149054906101000a900460ff1615151461146657600080fd5b600015156003828154811061147e5761147d613151565b5b906000526020600020906004020160030160169054906101000a900460ff161515146114a957600080fd5b60001515600382815481106114c1576114c0613151565b5b906000526020600020906004020160030160159054906101000a900460ff161515146114ec57600080fd5b60016003828154811061150257611501613151565b5b906000526020600020906004020160030160156101000a81548160ff02191690831515021790555050565b6005818154811061153d57600080fd5b90600052602060002090600302016000915090508060000154908060010160009054906101000a900473ffffffffffffffffffffffffffffffffffffffff169080600201805461158c90613226565b80601f01602080910402602001604051908101604052809291908181526020018280546115b890613226565b80156116055780601f106115da57610100808354040283529160200191611605565b820191906000526020600020905b8154815290600101906020018083116115e857829003601f168201915b5050505050905083565b6004818154811061161f57600080fd5b90600052602060002090600402016000915090508060000154908060010160009054906101000a900473ffffffffffffffffffffffffffffffffffffffff169080600201805461166e90613226565b80601f016020809104026020016040519081016040528092919081815260200182805461169a90613226565b80156116e75780601f106116bc576101008083540402835291602001916116e7565b820191906000526020600020905b8154815290600101906020018083116116ca57829003601f168201915b5050505050908060030160009054906101000a900473ffffffffffffffffffffffffffffffffffffffff16908060030160149054906101000a900460ff16908060030160159054906101000a900460ff16908060030160169054906101000a900460ff16908060030160179054906101000a900460ff16905088565b606060008054905060008060005b83811015611813573373ffffffffffffffffffffffffffffffffffffffff16600382815481106117a4576117a3613151565b5b906000526020600020906004020160030160009054906101000a900473ffffffffffffffffffffffffffffffffffffffff1673ffffffffffffffffffffffffffffffffffffffff16036118005782806117fc906131af565b9350505b808061180b906131af565b915050611771565b5060008267ffffffffffffffff8111156118305761182f612a2f565b5b60405190808252806020026020018201604052801561186957816020015b6118566126d2565b81526020019060019003908161184e5790505b50905060005b84811015611af5573373ffffffffffffffffffffffffffffffffffffffff16600382815481106118a2576118a1613151565b5b906000526020600020906004020160030160009054906101000a900473ffffffffffffffffffffffffffffffffffffffff1673ffffffffffffffffffffffffffffffffffffffff1603611ae2576003818154811061190357611902613151565b5b90600052602060002090600402016040518060e0016040529081600082015481526020016001820160009054906101000a900473ffffffffffffffffffffffffffffffffffffffff1673ffffffffffffffffffffffffffffffffffffffff1673ffffffffffffffffffffffffffffffffffffffff16815260200160028201805461198c90613226565b80601f01602080910402602001604051908101604052809291908181526020018280546119b890613226565b8015611a055780601f106119da57610100808354040283529160200191611a05565b820191906000526020600020905b8154815290600101906020018083116119e857829003601f168201915b505050505081526020016003820160009054906101000a900473ffffffffffffffffffffffffffffffffffffffff1673ffffffffffffffffffffffffffffffffffffffff1673ffffffffffffffffffffffffffffffffffffffff1681526020016003820160149054906101000a900460ff161515151581526020016003820160159054906101000a900460ff161515151581526020016003820160169054906101000a900460ff161515151581525050828481518110611ac857611ac7613151565b5b60200260200101819052508280611ade906131af565b9350505b8080611aed906131af565b91505061186f565b508094505050505090565b60038181548110611b1057600080fd5b90600052602060002090600402016000915090508060000154908060010160009054906101000a900473ffffffffffffffffffffffffffffffffffffffff1690806002018054611b5f90613226565b80601f0160208091040260200160405190810160405280929190818152602001828054611b8b90613226565b8015611bd85780601f10611bad57610100808354040283529160200191611bd8565b820191906000526020600020905b815481529060010190602001808311611bbb57829003601f168201915b5050505050908060030160009054906101000a900473ffffffffffffffffffffffffffffffffffffffff16908060030160149054906101000a900460ff16908060030160159054906101000a900460ff16908060030160169054906101000a900460ff16905087565b3373ffffffffffffffffffffffffffffffffffffffff16600660009054906101000a900473ffffffffffffffffffffffffffffffffffffffff1673ffffffffffffffffffffffffffffffffffffffff1614611cd1576040517f08c379a0000000000000000000000000000000000000000000000000000000008152600401611cc890613547565b60405180910390fd5b6000151560048281548110611ce957611ce8613151565b5b906000526020600020906004020160030160169054906101000a900460ff16151514611d1457600080fd5b6000151560048281548110611d2c57611d2b613151565b5b906000526020600020906004020160030160179054906101000a900460ff16151514611d5757600080fd5b6000151560048281548110611d6f57611d6e613151565b5b906000526020600020906004020160030160149054906101000a900460ff16151514611d9a57600080fd5b600160048281548110611db057611daf613151565b5b906000526020600020906004020160030160146101000a81548160ff02191690831515021790555050565b611de3612659565b600154816000018181525050600660009054906101000a900473ffffffffffffffffffffffffffffffffffffffff16816020019073ffffffffffffffffffffffffffffffffffffffff16908173ffffffffffffffffffffffffffffffffffffffff168152505033816060019073ffffffffffffffffffffffffffffffffffffffff16908173ffffffffffffffffffffffffffffffffffffffff168152505081816040018190525060048190806001815401808255809150506001900390600052602060002090600402016000909190919091506000820151816000015560208201518160010160006101000a81548173ffffffffffffffffffffffffffffffffffffffff021916908373ffffffffffffffffffffffffffffffffffffffff1602179055506040820151816002019081611f1c9190613403565b5060608201518160030160006101000a81548173ffffffffffffffffffffffffffffffffffffffff021916908373ffffffffffffffffffffffffffffffffffffffff16021790555060808201518160030160146101000a81548160ff02191690831515021790555060a08201518160030160156101000a81548160ff02191690831515021790555060c08201518160030160166101000a81548160ff02191690831515021790555060e08201518160030160176101000a81548160ff021916908315150217905550505060016000815480929190611ff9906131af565b91905055505050565b3373ffffffffffffffffffffffffffffffffffffffff16600660009054906101000a900473ffffffffffffffffffffffffffffffffffffffff1673ffffffffffffffffffffffffffffffffffffffff1614612092576040517f08c379a000000000000000000000000000000000000000000000000000000000815260040161208990613547565b60405180910390fd5b60011515600482815481106120aa576120a9613151565b5b906000526020600020906004020160030160149054906101000a900460ff161515146120d557600080fd5b60011515600482815481106120ed576120ec613151565b5b906000526020600020906004020160030160159054906101000a900460ff1615151461211857600080fd5b60011515600482815481106121305761212f613151565b5b906000526020600020906004020160030160169054906101000a900460ff1615151461215b57600080fd5b600015156004828154811061217357612172613151565b5b906000526020600020906004020160030160179054906101000a900460ff1615151461219e57600080fd5b6001600482815481106121b4576121b3613151565b5b906000526020600020906004020160030160176101000a81548160ff02191690831515021790555050565b60606003805480602002602001604051908101604052809291908181526020016000905b828210156123ce57838290600052602060002090600402016040518060e0016040529081600082015481526020016001820160009054906101000a900473ffffffffffffffffffffffffffffffffffffffff1673ffffffffffffffffffffffffffffffffffffffff1673ffffffffffffffffffffffffffffffffffffffff16815260200160028201805461229690613226565b80601f01602080910402602001604051908101604052809291908181526020018280546122c290613226565b801561230f5780601f106122e45761010080835404028352916020019161230f565b820191906000526020600020905b8154815290600101906020018083116122f257829003601f168201915b505050505081526020016003820160009054906101000a900473ffffffffffffffffffffffffffffffffffffffff1673ffffffffffffffffffffffffffffffffffffffff1673ffffffffffffffffffffffffffffffffffffffff1681526020016003820160149054906101000a900460ff161515151581526020016003820160159054906101000a900460ff161515151581526020016003820160169054906101000a900460ff16151515158152505081526020019060010190612203565b50505050905090565b600660009054906101000a900473ffffffffffffffffffffffffffffffffffffffff1673ffffffffffffffffffffffffffffffffffffffff163373ffffffffffffffffffffffffffffffffffffffff161461243157600080fd5b80600660006101000a81548173ffffffffffffffffffffffffffffffffffffffff021916908373ffffffffffffffffffffffffffffffffffffffff16021790555050565b3373ffffffffffffffffffffffffffffffffffffffff16600660009054906101000a900473ffffffffffffffffffffffffffffffffffffffff1673ffffffffffffffffffffffffffffffffffffffff16146124cf57600080fd5b6124d7612741565b600254816000018181525050600483815481106124f7576124f6613151565b5b906000526020600020906004020160030160009054906101000a900473ffffffffffffffffffffffffffffffffffffffff16816020019073ffffffffffffffffffffffffffffffffffffffff16908173ffffffffffffffffffffffffffffffffffffffff168152505081816040018190525060058190806001815401808255809150506001900390600052602060002090600302016000909190919091506000820151816000015560208201518160010160006101000a81548173ffffffffffffffffffffffffffffffffffffffff021916908373ffffffffffffffffffffffffffffffffffffffff16021790555060408201518160020190816125fb9190613403565b50505060016004848154811061261457612613613151565b5b906000526020600020906004020160030160156101000a81548160ff0219169083151502179055506002600081548092919061264f906131af565b9190505550505050565b60405180610100016040528060008152602001600073ffffffffffffffffffffffffffffffffffffffff16815260200160608152602001600073ffffffffffffffffffffffffffffffffffffffff1681526020016000151581526020016000151581526020016000151581526020016000151581525090565b6040518060e0016040528060008152602001600073ffffffffffffffffffffffffffffffffffffffff16815260200160608152602001600073ffffffffffffffffffffffffffffffffffffffff1681526020016000151581526020016000151581526020016000151581525090565b604051806060016040528060008152602001600073ffffffffffffffffffffffffffffffffffffffff168152602001606081525090565b600081519050919050565b600082825260208201905092915050565b6000819050602082019050919050565b6000819050919050565b6127b7816127a4565b82525050565b600073ffffffffffffffffffffffffffffffffffffffff82169050919050565b60006127e8826127bd565b9050919050565b6127f8816127dd565b82525050565b600081519050919050565b600082825260208201905092915050565b60005b8381101561283857808201518184015260208101905061281d565b60008484015250505050565b6000601f19601f8301169050919050565b6000612860826127fe565b61286a8185612809565b935061287a81856020860161281a565b61288381612844565b840191505092915050565b60008115159050919050565b6128a38161288e565b82525050565b6000610100830160008301516128c260008601826127ae565b5060208301516128d560208601826127ef565b50604083015184820360408601526128ed8282612855565b915050606083015161290260608601826127ef565b506080830151612915608086018261289a565b5060a083015161292860a086018261289a565b5060c083015161293b60c086018261289a565b5060e083015161294e60e086018261289a565b508091505092915050565b600061296583836128a9565b905092915050565b6000602082019050919050565b600061298582612778565b61298f8185612783565b9350836020820285016129a185612794565b8060005b858110156129dd57848403895281516129be8582612959565b94506129c98361296d565b925060208a019950506001810190506129a5565b50829750879550505050505092915050565b60006020820190508181036000830152612a09818461297a565b905092915050565b6000604051905090565b600080fd5b600080fd5b600080fd5b600080fd5b7f4e487b7100000000000000000000000000000000000000000000000000000000600052604160045260246000fd5b612a6782612844565b810181811067ffffffffffffffff82111715612a8657612a85612a2f565b5b80604052505050565b6000612a99612a11565b9050612aa58282612a5e565b919050565b600067ffffffffffffffff821115612ac557612ac4612a2f565b5b612ace82612844565b9050602081019050919050565b82818337600083830152505050565b6000612afd612af884612aaa565b612a8f565b905082815260208101848484011115612b1957612b18612a2a565b5b612b24848285612adb565b509392505050565b600082601f830112612b4157612b40612a25565b5b8135612b51848260208601612aea565b91505092915050565b600060208284031215612b7057612b6f612a1b565b5b600082013567ffffffffffffffff811115612b8e57612b8d612a20565b5b612b9a84828501612b2c565b91505092915050565b612bac816127a4565b8114612bb757600080fd5b50565b600081359050612bc981612ba3565b92915050565b600060208284031215612be557612be4612a1b565b5b6000612bf384828501612bba565b91505092915050565b600081519050919050565b600082825260208201905092915050565b6000819050602082019050919050565b6000606083016000830151612c4060008601826127ae565b506020830151612c5360208601826127ef565b5060408301518482036040860152612c6b8282612855565b9150508091505092915050565b6000612c848383612c28565b905092915050565b6000602082019050919050565b6000612ca482612bfc565b612cae8185612c07565b935083602082028501612cc085612c18565b8060005b85811015612cfc5784840389528151612cdd8582612c78565b9450612ce883612c8c565b925060208a01995050600181019050612cc4565b50829750879550505050505092915050565b60006020820190508181036000830152612d288184612c99565b905092915050565b6000612d3b826127bd565b9050919050565b612d4b81612d30565b82525050565b6000602082019050612d666000830184612d42565b92915050565b612d75816127a4565b82525050565b612d84816127dd565b82525050565b600082825260208201905092915050565b6000612da6826127fe565b612db08185612d8a565b9350612dc081856020860161281a565b612dc981612844565b840191505092915050565b6000606082019050612de96000830186612d6c565b612df66020830185612d7b565b8181036040830152612e088184612d9b565b9050949350505050565b612e1b8161288e565b82525050565b600061010082019050612e37600083018b612d6c565b612e44602083018a612d7b565b8181036040830152612e568189612d9b565b9050612e656060830188612d7b565b612e726080830187612e12565b612e7f60a0830186612e12565b612e8c60c0830185612e12565b612e9960e0830184612e12565b9998505050505050505050565b600081519050919050565b600082825260208201905092915050565b6000819050602082019050919050565b600060e083016000830151612eea60008601826127ae565b506020830151612efd60208601826127ef565b5060408301518482036040860152612f158282612855565b9150506060830151612f2a60608601826127ef565b506080830151612f3d608086018261289a565b5060a0830151612f5060a086018261289a565b5060c0830151612f6360c086018261289a565b508091505092915050565b6000612f7a8383612ed2565b905092915050565b6000602082019050919050565b6000612f9a82612ea6565b612fa48185612eb1565b935083602082028501612fb685612ec2565b8060005b85811015612ff25784840389528151612fd38582612f6e565b9450612fde83612f82565b925060208a01995050600181019050612fba565b50829750879550505050505092915050565b6000602082019050818103600083015261301e8184612f8f565b905092915050565b600060e08201905061303b600083018a612d6c565b6130486020830189612d7b565b818103604083015261305a8188612d9b565b90506130696060830187612d7b565b6130766080830186612e12565b61308360a0830185612e12565b61309060c0830184612e12565b98975050505050505050565b6130a5816127dd565b81146130b057600080fd5b50565b6000813590506130c28161309c565b92915050565b6000602082840312156130de576130dd612a1b565b5b60006130ec848285016130b3565b91505092915050565b6000806040838503121561310c5761310b612a1b565b5b600061311a85828601612bba565b925050602083013567ffffffffffffffff81111561313b5761313a612a20565b5b61314785828601612b2c565b9150509250929050565b7f4e487b7100000000000000000000000000000000000000000000000000000000600052603260045260246000fd5b7f4e487b7100000000000000000000000000000000000000000000000000000000600052601160045260246000fd5b60006131ba826127a4565b91507fffffffffffffffffffffffffffffffffffffffffffffffffffffffffffffffff82036131ec576131eb613180565b5b600182019050919050565b7f4e487b7100000000000000000000000000000000000000000000000000000000600052602260045260246000fd5b6000600282049050600182168061323e57607f821691505b602082108103613251576132506131f7565b5b50919050565b60008190508160005260206000209050919050565b60006020601f8301049050919050565b600082821b905092915050565b6000600883026132b97fffffffffffffffffffffffffffffffffffffffffffffffffffffffffffffffff8261327c565b6132c3868361327c565b95508019841693508086168417925050509392505050565b6000819050919050565b60006133006132fb6132f6846127a4565b6132db565b6127a4565b9050919050565b6000819050919050565b61331a836132e5565b61332e61332682613307565b848454613289565b825550505050565b600090565b613343613336565b61334e818484613311565b505050565b5b818110156133725761336760008261333b565b600181019050613354565b5050565b601f8211156133b75761338881613257565b6133918461326c565b810160208510156133a0578190505b6133b46133ac8561326c565b830182613353565b50505b505050565b600082821c905092915050565b60006133da600019846008026133bc565b1980831691505092915050565b60006133f383836133c9565b9150826002028217905092915050565b61340c826127fe565b67ffffffffffffffff81111561342557613424612a2f565b5b61342f8254613226565b61343a828285613376565b600060209050601f83116001811461346d576000841561345b578287015190505b61346585826133e7565b8655506134cd565b601f19841661347b86613257565b60005b828110156134a35784890151825560018201915060208501945060208101905061347e565b868310156134c057848901516134bc601f8916826133c9565b8355505b6001600288020188555050505b505050505050565b7f4f6e6c79206f776e65722063616e2063616c6c20746869732066756e6374696f60008201527f6e00000000000000000000000000000000000000000000000000000000000000602082015250565b6000613531602183612d8a565b915061353c826134d5565b604082019050919050565b6000602082019050818103600083015261356081613524565b905091905056fea2646970667358221220f7894c8771287b1509cefc90ffa1f2ded3cc92fcde534eefb730086dfd12c67164736f6c63430008110033",
  "linkReferences": {},
  "deployedLinkReferences": {}
}