{
  "_format": "hh-sol-artifact-1",
  "contractName": "Run3Token",
  "sourceName": "contracts/RUN3Token.sol",
  "abi": [
    {
      "inputs": [],
      "stateMutability": "nonpayable",
      "type": "constructor"
    },
    {
      "anonymous": false,
      "inputs": [
        {
          "indexed": true,
          "internalType": "address",
          "name": "owner",
          "type": "address"
        },
        {
          "indexed": true,
          "internalType": "address",
          "name": "spender",
          "type": "address"
        },
        {
          "indexed": false,
          "internalType": "uint256",
          "name": "value",
          "type": "uint256"
        }
      ],
      "name": "Approval",
      "type": "event"
    },
    {
      "anonymous": false,
      "inputs": [
        {
          "indexed": true,
          "internalType": "address",
          "name": "previousOwner",
          "type": "address"
        },
        {
          "indexed": true,
          "internalType": "address",
          "name": "newOwner",
          "type": "address"
        }
      ],
      "name": "OwnershipTransferred",
      "type": "event"
    },
    {
      "anonymous": false,
      "inputs": [
        {
          "indexed": true,
          "internalType": "address",
          "name": "from",
          "type": "address"
        },
        {
          "indexed": true,
          "internalType": "address",
          "name": "to",
          "type": "address"
        },
        {
          "indexed": false,
          "internalType": "uint256",
          "name": "value",
          "type": "uint256"
        }
      ],
      "name": "Transfer",
      "type": "event"
    },
    {
      "inputs": [],
      "name": "DECIMALS",
      "outputs": [
        {
          "internalType": "uint8",
          "name": "",
          "type": "uint8"
        }
      ],
      "stateMutability": "view",
      "type": "function"
    },
    {
      "inputs": [],
      "name": "INITIAL_SUPPLY",
      "outputs": [
        {
          "internalType": "uint256",
          "name": "",
          "type": "uint256"
        }
      ],
      "stateMutability": "view",
      "type": "function"
    },
    {
      "inputs": [],
      "name": "MAX_SUPPLY",
      "outputs": [
        {
          "internalType": "uint256",
          "name": "",
          "type": "uint256"
        }
      ],
      "stateMutability": "view",
      "type": "function"
    },
    {
      "inputs": [
        {
          "internalType": "address",
          "name": "owner",
          "type": "address"
        },
        {
          "internalType": "address",
          "name": "spender",
          "type": "address"
        }
      ],
      "name": "allowance",
      "outputs": [
        {
          "internalType": "uint256",
          "name": "",
          "type": "uint256"
        }
      ],
      "stateMutability": "view",
      "type": "function"
    },
    {
      "inputs": [
        {
          "internalType": "address",
          "name": "spender",
          "type": "address"
        },
        {
          "internalType": "uint256",
          "name": "amount",
          "type": "uint256"
        }
      ],
      "name": "approve",
      "outputs": [
        {
          "internalType": "bool",
          "name": "",
          "type": "bool"
        }
      ],
      "stateMutability": "nonpayable",
      "type": "function"
    },
    {
      "inputs": [
        {
          "internalType": "address",
          "name": "account",
          "type": "address"
        }
      ],
      "name": "balanceOf",
      "outputs": [
        {
          "internalType": "uint256",
          "name": "",
          "type": "uint256"
        }
      ],
      "stateMutability": "view",
      "type": "function"
    },
    {
      "inputs": [],
      "name": "decimals",
      "outputs": [
        {
          "internalType": "uint8",
          "name": "",
          "type": "uint8"
        }
      ],
      "stateMutability": "view",
      "type": "function"
    },
    {
      "inputs": [
        {
          "internalType": "address",
          "name": "spender",
          "type": "address"
        },
        {
          "internalType": "uint256",
          "name": "subtractedValue",
          "type": "uint256"
        }
      ],
      "name": "decreaseAllowance",
      "outputs": [
        {
          "internalType": "bool",
          "name": "",
          "type": "bool"
        }
      ],
      "stateMutability": "nonpayable",
      "type": "function"
    },
    {
      "inputs": [
        {
          "internalType": "address",
          "name": "spender",
          "type": "address"
        },
        {
          "internalType": "uint256",
          "name": "addedValue",
          "type": "uint256"
        }
      ],
      "name": "increaseAllowance",
      "outputs": [
        {
          "internalType": "bool",
          "name": "",
          "type": "bool"
        }
      ],
      "stateMutability": "nonpayable",
      "type": "function"
    },
    {
      "inputs": [
        {
          "internalType": "address",
          "name": "recipient",
          "type": "address"
        },
        {
          "internalType": "uint256",
          "name": "amount",
          "type": "uint256"
        }
      ],
      "name": "mintRun3T",
      "outputs": [],
      "stateMutability": "nonpayable",
      "type": "function"
    },
    {
      "inputs": [],
      "name": "name",
      "outputs": [
        {
          "internalType": "string",
          "name": "",
          "type": "string"
        }
      ],
      "stateMutability": "view",
      "type": "function"
    },
    {
      "inputs": [],
      "name": "owner",
      "outputs": [
        {
          "internalType": "address",
          "name": "",
          "type": "address"
        }
      ],
      "stateMutability": "view",
      "type": "function"
    },
    {
      "inputs": [],
      "name": "renounceOwnership",
      "outputs": [],
      "stateMutability": "nonpayable",
      "type": "function"
    },
    {
      "inputs": [],
      "name": "symbol",
      "outputs": [
        {
          "internalType": "string",
          "name": "",
          "type": "string"
        }
      ],
      "stateMutability": "view",
      "type": "function"
    },
    {
      "inputs": [],
      "name": "totalSupply",
      "outputs": [
        {
          "internalType": "uint256",
          "name": "",
          "type": "uint256"
        }
      ],
      "stateMutability": "view",
      "type": "function"
    },
    {
      "inputs": [
        {
          "internalType": "address",
          "name": "to",
          "type": "address"
        },
        {
          "internalType": "uint256",
          "name": "amount",
          "type": "uint256"
        }
      ],
      "name": "transfer",
      "outputs": [
        {
          "internalType": "bool",
          "name": "",
          "type": "bool"
        }
      ],
      "stateMutability": "nonpayable",
      "type": "function"
    },
    {
      "inputs": [
        {
          "internalType": "address",
          "name": "from",
          "type": "address"
        },
        {
          "internalType": "address",
          "name": "to",
          "type": "address"
        },
        {
          "internalType": "uint256",
          "name": "amount",
          "type": "uint256"
        }
      ],
      "name": "transferFrom",
      "outputs": [
        {
          "internalType": "bool",
          "name": "",
          "type": "bool"
        }
      ],
      "stateMutability": "nonpayable",
      "type": "function"
    },
    {
      "inputs": [
        {
          "internalType": "address",
          "name": "newOwner",
          "type": "address"
        }
      ],
      "name": "transferOwnership",
      "outputs": [],
      "stateMutability": "nonpayable",
      "type": "function"
    },
    {
      "inputs": [
        {
          "internalType": "address",
          "name": "recipient",
          "type": "address"
        }
      ],
      "name": "updateWatchAddress",
      "outputs": [],
      "stateMutability": "nonpayable",
      "type": "function"
    }
  ],
  "bytecode": "0x60806040523480156200001157600080fd5b506040518060400160405280600a81526020017f52554e3320546f6b656e000000000000000000000000000000000000000000008152506040518060400160405280600581526020017f52554e335400000000000000000000000000000000000000000000000000000081525081600390816200008f919062000608565b508060049081620000a1919062000608565b505050620000c4620000b86200013e60201b60201c565b6200014660201b60201c565b33600660006101000a81548173ffffffffffffffffffffffffffffffffffffffff021916908373ffffffffffffffffffffffffffffffffffffffff1602179055506200013833601260ff16600a6200011d919062000872565b6127106200012c9190620008c3565b6200020c60201b60201c565b620009fa565b600033905090565b6000600560009054906101000a900473ffffffffffffffffffffffffffffffffffffffff16905081600560006101000a81548173ffffffffffffffffffffffffffffffffffffffff021916908373ffffffffffffffffffffffffffffffffffffffff1602179055508173ffffffffffffffffffffffffffffffffffffffff168173ffffffffffffffffffffffffffffffffffffffff167f8be0079c531659141344cd1fd0a4f28419497f9722a3daafe3b4186f6b6457e060405160405180910390a35050565b600073ffffffffffffffffffffffffffffffffffffffff168273ffffffffffffffffffffffffffffffffffffffff16036200027e576040517f08c379a000000000000000000000000000000000000000000000000000000000815260040162000275906200096f565b60405180910390fd5b62000292600083836200038460201b60201c565b8060026000828254620002a6919062000991565b92505081905550806000808473ffffffffffffffffffffffffffffffffffffffff1673ffffffffffffffffffffffffffffffffffffffff1681526020019081526020016000206000828254620002fd919062000991565b925050819055508173ffffffffffffffffffffffffffffffffffffffff16600073ffffffffffffffffffffffffffffffffffffffff167fddf252ad1be2c89b69c2b068fc378daa952ba7f163c4a11628f55a4df523b3ef83604051620003649190620009dd565b60405180910390a362000380600083836200038960201b60201c565b5050565b505050565b505050565b600081519050919050565b7f4e487b7100000000000000000000000000000000000000000000000000000000600052604160045260246000fd5b7f4e487b7100000000000000000000000000000000000000000000000000000000600052602260045260246000fd5b600060028204905060018216806200041057607f821691505b602082108103620004265762000425620003c8565b5b50919050565b60008190508160005260206000209050919050565b60006020601f8301049050919050565b600082821b905092915050565b600060088302620004907fffffffffffffffffffffffffffffffffffffffffffffffffffffffffffffffff8262000451565b6200049c868362000451565b95508019841693508086168417925050509392505050565b6000819050919050565b6000819050919050565b6000620004e9620004e3620004dd84620004b4565b620004be565b620004b4565b9050919050565b6000819050919050565b6200050583620004c8565b6200051d6200051482620004f0565b8484546200045e565b825550505050565b600090565b6200053462000525565b62000541818484620004fa565b505050565b5b8181101562000569576200055d6000826200052a565b60018101905062000547565b5050565b601f821115620005b85762000582816200042c565b6200058d8462000441565b810160208510156200059d578190505b620005b5620005ac8562000441565b83018262000546565b50505b505050565b600082821c905092915050565b6000620005dd60001984600802620005bd565b1980831691505092915050565b6000620005f88383620005ca565b9150826002028217905092915050565b62000613826200038e565b67ffffffffffffffff8111156200062f576200062e62000399565b5b6200063b8254620003f7565b620006488282856200056d565b600060209050601f8311600181146200068057600084156200066b578287015190505b620006778582620005ea565b865550620006e7565b601f19841662000690866200042c565b60005b82811015620006ba5784890151825560018201915060208501945060208101905062000693565b86831015620006da5784890151620006d6601f891682620005ca565b8355505b6001600288020188555050505b505050505050565b7f4e487b7100000000000000000000000000000000000000000000000000000000600052601160045260246000fd5b60008160011c9050919050565b6000808291508390505b60018511156200077d57808604811115620007555762000754620006ef565b5b6001851615620007655780820291505b808102905062000775856200071e565b945062000735565b94509492505050565b6000826200079857600190506200086b565b81620007a857600090506200086b565b8160018114620007c15760028114620007cc5762000802565b60019150506200086b565b60ff841115620007e157620007e0620006ef565b5b8360020a915084821115620007fb57620007fa620006ef565b5b506200086b565b5060208310610133831016604e8410600b84101617156200083c5782820a905083811115620008365762000835620006ef565b5b6200086b565b6200084b84848460016200072b565b92509050818404811115620008655762000864620006ef565b5b81810290505b9392505050565b60006200087f82620004b4565b91506200088c83620004b4565b9250620008bb7fffffffffffffffffffffffffffffffffffffffffffffffffffffffffffffffff848462000786565b905092915050565b6000620008d082620004b4565b9150620008dd83620004b4565b9250828202620008ed81620004b4565b91508282048414831517620009075762000906620006ef565b5b5092915050565b600082825260208201905092915050565b7f45524332303a206d696e7420746f20746865207a65726f206164647265737300600082015250565b600062000957601f836200090e565b915062000964826200091f565b602082019050919050565b600060208201905081810360008301526200098a8162000948565b9050919050565b60006200099e82620004b4565b9150620009ab83620004b4565b9250828201905080821115620009c657620009c5620006ef565b5b92915050565b620009d781620004b4565b82525050565b6000602082019050620009f46000830184620009cc565b92915050565b611d178062000a0a6000396000f3fe608060405234801561001057600080fd5b50600436106101215760003560e01c806370a08231116100ad578063a9059cbb11610071578063a9059cbb14610310578063c90dc12c14610340578063dd62ed3e1461035c578063f2fde38b1461038c578063f8273dcd146103a857610121565b806370a082311461026a578063715018a61461029a5780638da5cb5b146102a457806395d89b41146102c2578063a457c2d7146102e057610121565b80632e0f2625116100f45780632e0f2625146101c25780632ff2e9dc146101e0578063313ce567146101fe57806332cb6b0c1461021c578063395093511461023a57610121565b806306fdde0314610126578063095ea7b31461014457806318160ddd1461017457806323b872dd14610192575b600080fd5b61012e6103c4565b60405161013b91906111c8565b60405180910390f35b61015e60048036038101906101599190611283565b610456565b60405161016b91906112de565b60405180910390f35b61017c610479565b6040516101899190611308565b60405180910390f35b6101ac60048036038101906101a79190611323565b610483565b6040516101b991906112de565b60405180910390f35b6101ca6104b2565b6040516101d79190611392565b60405180910390f35b6101e86104b7565b6040516101f59190611308565b60405180910390f35b6102066104d8565b6040516102139190611392565b60405180910390f35b6102246104e1565b6040516102319190611308565b60405180910390f35b610254600480360381019061024f9190611283565b610504565b60405161026191906112de565b60405180910390f35b610284600480360381019061027f91906113ad565b61053b565b6040516102919190611308565b60405180910390f35b6102a2610583565b005b6102ac610597565b6040516102b991906113e9565b60405180910390f35b6102ca6105c1565b6040516102d791906111c8565b60405180910390f35b6102fa60048036038101906102f59190611283565b610653565b60405161030791906112de565b60405180910390f35b61032a60048036038101906103259190611283565b6106ca565b60405161033791906112de565b60405180910390f35b61035a600480360381019061035591906113ad565b6106ed565b005b61037660048036038101906103719190611404565b610739565b6040516103839190611308565b60405180910390f35b6103a660048036038101906103a191906113ad565b6107c0565b005b6103c260048036038101906103bd9190611283565b610843565b005b6060600380546103d390611473565b80601f01602080910402602001604051908101604052809291908181526020018280546103ff90611473565b801561044c5780601f106104215761010080835404028352916020019161044c565b820191906000526020600020905b81548152906001019060200180831161042f57829003601f168201915b5050505050905090565b6000806104616109af565b905061046e8185856109b7565b600191505092915050565b6000600254905090565b60008061048e6109af565b905061049b858285610b80565b6104a6858585610c0c565b60019150509392505050565b601281565b601260ff16600a6104c89190611606565b6127106104d59190611651565b81565b60006012905090565b601260ff16600a6104f29190611606565b63b2d05e006105019190611651565b81565b60008061050f6109af565b90506105308185856105218589610739565b61052b9190611693565b6109b7565b600191505092915050565b60008060008373ffffffffffffffffffffffffffffffffffffffff1673ffffffffffffffffffffffffffffffffffffffff168152602001908152602001600020549050919050565b61058b610e8b565b6105956000610f09565b565b6000600560009054906101000a900473ffffffffffffffffffffffffffffffffffffffff16905090565b6060600480546105d090611473565b80601f01602080910402602001604051908101604052809291908181526020018280546105fc90611473565b80156106495780601f1061061e57610100808354040283529160200191610649565b820191906000526020600020905b81548152906001019060200180831161062c57829003601f168201915b5050505050905090565b60008061065e6109af565b9050600061066c8286610739565b9050838110156106b1576040517f08c379a00000000000000000000000000000000000000000000000000000000081526004016106a890611739565b60405180910390fd5b6106be82868684036109b7565b60019250505092915050565b6000806106d56109af565b90506106e2818585610c0c565b600191505092915050565b6106f5610e8b565b80600760006101000a81548173ffffffffffffffffffffffffffffffffffffffff021916908373ffffffffffffffffffffffffffffffffffffffff16021790555050565b6000600160008473ffffffffffffffffffffffffffffffffffffffff1673ffffffffffffffffffffffffffffffffffffffff16815260200190815260200160002060008373ffffffffffffffffffffffffffffffffffffffff1673ffffffffffffffffffffffffffffffffffffffff16815260200190815260200160002054905092915050565b6107c8610e8b565b600073ffffffffffffffffffffffffffffffffffffffff168173ffffffffffffffffffffffffffffffffffffffff1603610837576040517f08c379a000000000000000000000000000000000000000000000000000000000815260040161082e906117cb565b60405180910390fd5b61084081610f09565b50565b600660009054906101000a900473ffffffffffffffffffffffffffffffffffffffff1673ffffffffffffffffffffffffffffffffffffffff163373ffffffffffffffffffffffffffffffffffffffff1614806108ec5750600760009054906101000a900473ffffffffffffffffffffffffffffffffffffffff1673ffffffffffffffffffffffffffffffffffffffff163373ffffffffffffffffffffffffffffffffffffffff16145b61092b576040517f08c379a000000000000000000000000000000000000000000000000000000000815260040161092290611837565b60405180910390fd5b80601260ff16600a61093d9190611606565b63b2d05e0061094c9190611651565b81610955610479565b61095f9190611693565b11156109a0576040517f08c379a0000000000000000000000000000000000000000000000000000000008152600401610997906118a3565b60405180910390fd5b6109aa8383610fcf565b505050565b600033905090565b600073ffffffffffffffffffffffffffffffffffffffff168373ffffffffffffffffffffffffffffffffffffffff1603610a26576040517f08c379a0000000000000000000000000000000000000000000000000000000008152600401610a1d90611935565b60405180910390fd5b600073ffffffffffffffffffffffffffffffffffffffff168273ffffffffffffffffffffffffffffffffffffffff1603610a95576040517f08c379a0000000000000000000000000000000000000000000000000000000008152600401610a8c906119c7565b60405180910390fd5b80600160008573ffffffffffffffffffffffffffffffffffffffff1673ffffffffffffffffffffffffffffffffffffffff16815260200190815260200160002060008473ffffffffffffffffffffffffffffffffffffffff1673ffffffffffffffffffffffffffffffffffffffff168152602001908152602001600020819055508173ffffffffffffffffffffffffffffffffffffffff168373ffffffffffffffffffffffffffffffffffffffff167f8c5be1e5ebec7d5bd14f71427d1e84f3dd0314c0f7b2291e5b200ac8c7c3b92583604051610b739190611308565b60405180910390a3505050565b6000610b8c8484610739565b90507fffffffffffffffffffffffffffffffffffffffffffffffffffffffffffffffff8114610c065781811015610bf8576040517f08c379a0000000000000000000000000000000000000000000000000000000008152600401610bef90611a33565b60405180910390fd5b610c0584848484036109b7565b5b50505050565b600073ffffffffffffffffffffffffffffffffffffffff168373ffffffffffffffffffffffffffffffffffffffff1603610c7b576040517f08c379a0000000000000000000000000000000000000000000000000000000008152600401610c7290611ac5565b60405180910390fd5b600073ffffffffffffffffffffffffffffffffffffffff168273ffffffffffffffffffffffffffffffffffffffff1603610cea576040517f08c379a0000000000000000000000000000000000000000000000000000000008152600401610ce190611b57565b60405180910390fd5b610cf583838361112e565b60008060008573ffffffffffffffffffffffffffffffffffffffff1673ffffffffffffffffffffffffffffffffffffffff16815260200190815260200160002054905081811015610d7b576040517f08c379a0000000000000000000000000000000000000000000000000000000008152600401610d7290611be9565b60405180910390fd5b8181036000808673ffffffffffffffffffffffffffffffffffffffff1673ffffffffffffffffffffffffffffffffffffffff16815260200190815260200160002081905550816000808573ffffffffffffffffffffffffffffffffffffffff1673ffffffffffffffffffffffffffffffffffffffff1681526020019081526020016000206000828254610e0e9190611693565b925050819055508273ffffffffffffffffffffffffffffffffffffffff168473ffffffffffffffffffffffffffffffffffffffff167fddf252ad1be2c89b69c2b068fc378daa952ba7f163c4a11628f55a4df523b3ef84604051610e729190611308565b60405180910390a3610e85848484611133565b50505050565b610e936109af565b73ffffffffffffffffffffffffffffffffffffffff16610eb1610597565b73ffffffffffffffffffffffffffffffffffffffff1614610f07576040517f08c379a0000000000000000000000000000000000000000000000000000000008152600401610efe90611c55565b60405180910390fd5b565b6000600560009054906101000a900473ffffffffffffffffffffffffffffffffffffffff16905081600560006101000a81548173ffffffffffffffffffffffffffffffffffffffff021916908373ffffffffffffffffffffffffffffffffffffffff1602179055508173ffffffffffffffffffffffffffffffffffffffff168173ffffffffffffffffffffffffffffffffffffffff167f8be0079c531659141344cd1fd0a4f28419497f9722a3daafe3b4186f6b6457e060405160405180910390a35050565b600073ffffffffffffffffffffffffffffffffffffffff168273ffffffffffffffffffffffffffffffffffffffff160361103e576040517f08c379a000000000000000000000000000000000000000000000000000000000815260040161103590611cc1565b60405180910390fd5b61104a6000838361112e565b806002600082825461105c9190611693565b92505081905550806000808473ffffffffffffffffffffffffffffffffffffffff1673ffffffffffffffffffffffffffffffffffffffff16815260200190815260200160002060008282546110b19190611693565b925050819055508173ffffffffffffffffffffffffffffffffffffffff16600073ffffffffffffffffffffffffffffffffffffffff167fddf252ad1be2c89b69c2b068fc378daa952ba7f163c4a11628f55a4df523b3ef836040516111169190611308565b60405180910390a361112a60008383611133565b5050565b505050565b505050565b600081519050919050565b600082825260208201905092915050565b60005b83811015611172578082015181840152602081019050611157565b60008484015250505050565b6000601f19601f8301169050919050565b600061119a82611138565b6111a48185611143565b93506111b4818560208601611154565b6111bd8161117e565b840191505092915050565b600060208201905081810360008301526111e2818461118f565b905092915050565b600080fd5b600073ffffffffffffffffffffffffffffffffffffffff82169050919050565b600061121a826111ef565b9050919050565b61122a8161120f565b811461123557600080fd5b50565b60008135905061124781611221565b92915050565b6000819050919050565b6112608161124d565b811461126b57600080fd5b50565b60008135905061127d81611257565b92915050565b6000806040838503121561129a576112996111ea565b5b60006112a885828601611238565b92505060206112b98582860161126e565b9150509250929050565b60008115159050919050565b6112d8816112c3565b82525050565b60006020820190506112f360008301846112cf565b92915050565b6113028161124d565b82525050565b600060208201905061131d60008301846112f9565b92915050565b60008060006060848603121561133c5761133b6111ea565b5b600061134a86828701611238565b935050602061135b86828701611238565b925050604061136c8682870161126e565b9150509250925092565b600060ff82169050919050565b61138c81611376565b82525050565b60006020820190506113a76000830184611383565b92915050565b6000602082840312156113c3576113c26111ea565b5b60006113d184828501611238565b91505092915050565b6113e38161120f565b82525050565b60006020820190506113fe60008301846113da565b92915050565b6000806040838503121561141b5761141a6111ea565b5b600061142985828601611238565b925050602061143a85828601611238565b9150509250929050565b7f4e487b7100000000000000000000000000000000000000000000000000000000600052602260045260246000fd5b6000600282049050600182168061148b57607f821691505b60208210810361149e5761149d611444565b5b50919050565b7f4e487b7100000000000000000000000000000000000000000000000000000000600052601160045260246000fd5b60008160011c9050919050565b6000808291508390505b600185111561152a57808604811115611506576115056114a4565b5b60018516156115155780820291505b8081029050611523856114d3565b94506114ea565b94509492505050565b60008261154357600190506115ff565b8161155157600090506115ff565b81600181146115675760028114611571576115a0565b60019150506115ff565b60ff841115611583576115826114a4565b5b8360020a91508482111561159a576115996114a4565b5b506115ff565b5060208310610133831016604e8410600b84101617156115d55782820a9050838111156115d0576115cf6114a4565b5b6115ff565b6115e284848460016114e0565b925090508184048111156115f9576115f86114a4565b5b81810290505b9392505050565b60006116118261124d565b915061161c8361124d565b92506116497fffffffffffffffffffffffffffffffffffffffffffffffffffffffffffffffff8484611533565b905092915050565b600061165c8261124d565b91506116678361124d565b92508282026116758161124d565b9150828204841483151761168c5761168b6114a4565b5b5092915050565b600061169e8261124d565b91506116a98361124d565b92508282019050808211156116c1576116c06114a4565b5b92915050565b7f45524332303a2064656372656173656420616c6c6f77616e63652062656c6f7760008201527f207a65726f000000000000000000000000000000000000000000000000000000602082015250565b6000611723602583611143565b915061172e826116c7565b604082019050919050565b6000602082019050818103600083015261175281611716565b9050919050565b7f4f776e61626c653a206e6577206f776e657220697320746865207a65726f206160008201527f6464726573730000000000000000000000000000000000000000000000000000602082015250565b60006117b5602683611143565b91506117c082611759565b604082019050919050565b600060208201905081810360008301526117e4816117a8565b9050919050565b7f4e6f7420616c6c6f776564000000000000000000000000000000000000000000600082015250565b6000611821600b83611143565b915061182c826117eb565b602082019050919050565b6000602082019050818103600083015261185081611814565b9050919050565b7f4d617820737570706c7920776173207265616368656400000000000000000000600082015250565b600061188d601683611143565b915061189882611857565b602082019050919050565b600060208201905081810360008301526118bc81611880565b9050919050565b7f45524332303a20617070726f76652066726f6d20746865207a65726f2061646460008201527f7265737300000000000000000000000000000000000000000000000000000000602082015250565b600061191f602483611143565b915061192a826118c3565b604082019050919050565b6000602082019050818103600083015261194e81611912565b9050919050565b7f45524332303a20617070726f766520746f20746865207a65726f20616464726560008201527f7373000000000000000000000000000000000000000000000000000000000000602082015250565b60006119b1602283611143565b91506119bc82611955565b604082019050919050565b600060208201905081810360008301526119e0816119a4565b9050919050565b7f45524332303a20696e73756666696369656e7420616c6c6f77616e6365000000600082015250565b6000611a1d601d83611143565b9150611a28826119e7565b602082019050919050565b60006020820190508181036000830152611a4c81611a10565b9050919050565b7f45524332303a207472616e736665722066726f6d20746865207a65726f20616460008201527f6472657373000000000000000000000000000000000000000000000000000000602082015250565b6000611aaf602583611143565b9150611aba82611a53565b604082019050919050565b60006020820190508181036000830152611ade81611aa2565b9050919050565b7f45524332303a207472616e7366657220746f20746865207a65726f206164647260008201527f6573730000000000000000000000000000000000000000000000000000000000602082015250565b6000611b41602383611143565b9150611b4c82611ae5565b604082019050919050565b60006020820190508181036000830152611b7081611b34565b9050919050565b7f45524332303a207472616e7366657220616d6f756e742065786365656473206260008201527f616c616e63650000000000000000000000000000000000000000000000000000602082015250565b6000611bd3602683611143565b9150611bde82611b77565b604082019050919050565b60006020820190508181036000830152611c0281611bc6565b9050919050565b7f4f776e61626c653a2063616c6c6572206973206e6f7420746865206f776e6572600082015250565b6000611c3f602083611143565b9150611c4a82611c09565b602082019050919050565b60006020820190508181036000830152611c6e81611c32565b9050919050565b7f45524332303a206d696e7420746f20746865207a65726f206164647265737300600082015250565b6000611cab601f83611143565b9150611cb682611c75565b602082019050919050565b60006020820190508181036000830152611cda81611c9e565b905091905056fea2646970667358221220d231dbabe6b2195498bb84cbcc9615ef11bea7a6ecbb98f56bf62f4174cea81d64736f6c63430008110033",
  "linkReferences": {},
  "deployedLinkReferences": {}
}