{
  "contractName": "MyGovernor",
  "abi": [
    {
      "inputs": [
        {
          "internalType": "contract IVotes",
          "name": "_token",
          "type": "address"
        },
        {
          "internalType": "contract TimelockController",
          "name": "_timelock",
          "type": "address"
        }
      ],
      "stateMutability": "nonpayable",
      "type": "constructor"
    },
    {
      "inputs": [],
      "name": "Empty",
      "type": "error"
    },
    {
      "anonymous": false,
      "inputs": [
        {
          "indexed": false,
          "internalType": "uint256",
          "name": "proposalId",
          "type": "uint256"
        }
      ],
      "name": "ProposalCanceled",
      "type": "event"
    },
    {
      "anonymous": false,
      "inputs": [
        {
          "indexed": false,
          "internalType": "uint256",
          "name": "proposalId",
          "type": "uint256"
        },
        {
          "indexed": false,
          "internalType": "address",
          "name": "proposer",
          "type": "address"
        },
        {
          "indexed": false,
          "internalType": "address[]",
          "name": "targets",
          "type": "address[]"
        },
        {
          "indexed": false,
          "internalType": "uint256[]",
          "name": "values",
          "type": "uint256[]"
        },
        {
          "indexed": false,
          "internalType": "string[]",
          "name": "signatures",
          "type": "string[]"
        },
        {
          "indexed": false,
          "internalType": "bytes[]",
          "name": "calldatas",
          "type": "bytes[]"
        },
        {
          "indexed": false,
          "internalType": "uint256",
          "name": "startBlock",
          "type": "uint256"
        },
        {
          "indexed": false,
          "internalType": "uint256",
          "name": "endBlock",
          "type": "uint256"
        },
        {
          "indexed": false,
          "internalType": "string",
          "name": "description",
          "type": "string"
        }
      ],
      "name": "ProposalCreated",
      "type": "event"
    },
    {
      "anonymous": false,
      "inputs": [
        {
          "indexed": false,
          "internalType": "uint256",
          "name": "proposalId",
          "type": "uint256"
        }
      ],
      "name": "ProposalExecuted",
      "type": "event"
    },
    {
      "anonymous": false,
      "inputs": [
        {
          "indexed": false,
          "internalType": "uint256",
          "name": "proposalId",
          "type": "uint256"
        },
        {
          "indexed": false,
          "internalType": "uint256",
          "name": "eta",
          "type": "uint256"
        }
      ],
      "name": "ProposalQueued",
      "type": "event"
    },
    {
      "anonymous": false,
      "inputs": [
        {
          "indexed": false,
          "internalType": "uint256",
          "name": "oldQuorumNumerator",
          "type": "uint256"
        },
        {
          "indexed": false,
          "internalType": "uint256",
          "name": "newQuorumNumerator",
          "type": "uint256"
        }
      ],
      "name": "QuorumNumeratorUpdated",
      "type": "event"
    },
    {
      "anonymous": false,
      "inputs": [
        {
          "indexed": false,
          "internalType": "address",
          "name": "oldTimelock",
          "type": "address"
        },
        {
          "indexed": false,
          "internalType": "address",
          "name": "newTimelock",
          "type": "address"
        }
      ],
      "name": "TimelockChange",
      "type": "event"
    },
    {
      "anonymous": false,
      "inputs": [
        {
          "indexed": true,
          "internalType": "address",
          "name": "voter",
          "type": "address"
        },
        {
          "indexed": false,
          "internalType": "uint256",
          "name": "proposalId",
          "type": "uint256"
        },
        {
          "indexed": false,
          "internalType": "uint8",
          "name": "support",
          "type": "uint8"
        },
        {
          "indexed": false,
          "internalType": "uint256",
          "name": "weight",
          "type": "uint256"
        },
        {
          "indexed": false,
          "internalType": "string",
          "name": "reason",
          "type": "string"
        }
      ],
      "name": "VoteCast",
      "type": "event"
    },
    {
      "anonymous": false,
      "inputs": [
        {
          "indexed": true,
          "internalType": "address",
          "name": "voter",
          "type": "address"
        },
        {
          "indexed": false,
          "internalType": "uint256",
          "name": "proposalId",
          "type": "uint256"
        },
        {
          "indexed": false,
          "internalType": "uint8",
          "name": "support",
          "type": "uint8"
        },
        {
          "indexed": false,
          "internalType": "uint256",
          "name": "weight",
          "type": "uint256"
        },
        {
          "indexed": false,
          "internalType": "string",
          "name": "reason",
          "type": "string"
        },
        {
          "indexed": false,
          "internalType": "bytes",
          "name": "params",
          "type": "bytes"
        }
      ],
      "name": "VoteCastWithParams",
      "type": "event"
    },
    {
      "inputs": [],
      "name": "BALLOT_TYPEHASH",
      "outputs": [
        {
          "internalType": "bytes32",
          "name": "",
          "type": "bytes32"
        }
      ],
      "stateMutability": "view",
      "type": "function",
      "constant": true
    },
    {
      "inputs": [],
      "name": "COUNTING_MODE",
      "outputs": [
        {
          "internalType": "string",
          "name": "",
          "type": "string"
        }
      ],
      "stateMutability": "pure",
      "type": "function",
      "constant": true
    },
    {
      "inputs": [],
      "name": "EXTENDED_BALLOT_TYPEHASH",
      "outputs": [
        {
          "internalType": "bytes32",
          "name": "",
          "type": "bytes32"
        }
      ],
      "stateMutability": "view",
      "type": "function",
      "constant": true
    },
    {
      "inputs": [
        {
          "internalType": "uint256",
          "name": "proposalId",
          "type": "uint256"
        },
        {
          "internalType": "uint8",
          "name": "support",
          "type": "uint8"
        }
      ],
      "name": "castVote",
      "outputs": [
        {
          "internalType": "uint256",
          "name": "",
          "type": "uint256"
        }
      ],
      "stateMutability": "nonpayable",
      "type": "function"
    },
    {
      "inputs": [
        {
          "internalType": "uint256",
          "name": "proposalId",
          "type": "uint256"
        },
        {
          "internalType": "uint8",
          "name": "support",
          "type": "uint8"
        },
        {
          "internalType": "uint8",
          "name": "v",
          "type": "uint8"
        },
        {
          "internalType": "bytes32",
          "name": "r",
          "type": "bytes32"
        },
        {
          "internalType": "bytes32",
          "name": "s",
          "type": "bytes32"
        }
      ],
      "name": "castVoteBySig",
      "outputs": [
        {
          "internalType": "uint256",
          "name": "",
          "type": "uint256"
        }
      ],
      "stateMutability": "nonpayable",
      "type": "function"
    },
    {
      "inputs": [
        {
          "internalType": "uint256",
          "name": "proposalId",
          "type": "uint256"
        },
        {
          "internalType": "uint8",
          "name": "support",
          "type": "uint8"
        },
        {
          "internalType": "string",
          "name": "reason",
          "type": "string"
        }
      ],
      "name": "castVoteWithReason",
      "outputs": [
        {
          "internalType": "uint256",
          "name": "",
          "type": "uint256"
        }
      ],
      "stateMutability": "nonpayable",
      "type": "function"
    },
    {
      "inputs": [
        {
          "internalType": "uint256",
          "name": "proposalId",
          "type": "uint256"
        },
        {
          "internalType": "uint8",
          "name": "support",
          "type": "uint8"
        },
        {
          "internalType": "string",
          "name": "reason",
          "type": "string"
        },
        {
          "internalType": "bytes",
          "name": "params",
          "type": "bytes"
        }
      ],
      "name": "castVoteWithReasonAndParams",
      "outputs": [
        {
          "internalType": "uint256",
          "name": "",
          "type": "uint256"
        }
      ],
      "stateMutability": "nonpayable",
      "type": "function"
    },
    {
      "inputs": [
        {
          "internalType": "uint256",
          "name": "proposalId",
          "type": "uint256"
        },
        {
          "internalType": "uint8",
          "name": "support",
          "type": "uint8"
        },
        {
          "internalType": "string",
          "name": "reason",
          "type": "string"
        },
        {
          "internalType": "bytes",
          "name": "params",
          "type": "bytes"
        },
        {
          "internalType": "uint8",
          "name": "v",
          "type": "uint8"
        },
        {
          "internalType": "bytes32",
          "name": "r",
          "type": "bytes32"
        },
        {
          "internalType": "bytes32",
          "name": "s",
          "type": "bytes32"
        }
      ],
      "name": "castVoteWithReasonAndParamsBySig",
      "outputs": [
        {
          "internalType": "uint256",
          "name": "",
          "type": "uint256"
        }
      ],
      "stateMutability": "nonpayable",
      "type": "function"
    },
    {
      "inputs": [
        {
          "internalType": "address[]",
          "name": "targets",
          "type": "address[]"
        },
        {
          "internalType": "uint256[]",
          "name": "values",
          "type": "uint256[]"
        },
        {
          "internalType": "bytes[]",
          "name": "calldatas",
          "type": "bytes[]"
        },
        {
          "internalType": "bytes32",
          "name": "descriptionHash",
          "type": "bytes32"
        }
      ],
      "name": "execute",
      "outputs": [
        {
          "internalType": "uint256",
          "name": "",
          "type": "uint256"
        }
      ],
      "stateMutability": "payable",
      "type": "function",
      "payable": true
    },
    {
      "inputs": [
        {
          "internalType": "address",
          "name": "account",
          "type": "address"
        },
        {
          "internalType": "uint256",
          "name": "blockNumber",
          "type": "uint256"
        }
      ],
      "name": "getVotes",
      "outputs": [
        {
          "internalType": "uint256",
          "name": "",
          "type": "uint256"
        }
      ],
      "stateMutability": "view",
      "type": "function",
      "constant": true
    },
    {
      "inputs": [
        {
          "internalType": "address",
          "name": "account",
          "type": "address"
        },
        {
          "internalType": "uint256",
          "name": "blockNumber",
          "type": "uint256"
        },
        {
          "internalType": "bytes",
          "name": "params",
          "type": "bytes"
        }
      ],
      "name": "getVotesWithParams",
      "outputs": [
        {
          "internalType": "uint256",
          "name": "",
          "type": "uint256"
        }
      ],
      "stateMutability": "view",
      "type": "function",
      "constant": true
    },
    {
      "inputs": [
        {
          "internalType": "uint256",
          "name": "proposalId",
          "type": "uint256"
        },
        {
          "internalType": "address",
          "name": "account",
          "type": "address"
        }
      ],
      "name": "hasVoted",
      "outputs": [
        {
          "internalType": "bool",
          "name": "",
          "type": "bool"
        }
      ],
      "stateMutability": "view",
      "type": "function",
      "constant": true
    },
    {
      "inputs": [
        {
          "internalType": "address[]",
          "name": "targets",
          "type": "address[]"
        },
        {
          "internalType": "uint256[]",
          "name": "values",
          "type": "uint256[]"
        },
        {
          "internalType": "bytes[]",
          "name": "calldatas",
          "type": "bytes[]"
        },
        {
          "internalType": "bytes32",
          "name": "descriptionHash",
          "type": "bytes32"
        }
      ],
      "name": "hashProposal",
      "outputs": [
        {
          "internalType": "uint256",
          "name": "",
          "type": "uint256"
        }
      ],
      "stateMutability": "pure",
      "type": "function",
      "constant": true
    },
    {
      "inputs": [],
      "name": "name",
      "outputs": [
        {
          "internalType": "string",
          "name": "",
          "type": "string"
        }
      ],
      "stateMutability": "view",
      "type": "function",
      "constant": true
    },
    {
      "inputs": [
        {
          "internalType": "address",
          "name": "",
          "type": "address"
        },
        {
          "internalType": "address",
          "name": "",
          "type": "address"
        },
        {
          "internalType": "uint256[]",
          "name": "",
          "type": "uint256[]"
        },
        {
          "internalType": "uint256[]",
          "name": "",
          "type": "uint256[]"
        },
        {
          "internalType": "bytes",
          "name": "",
          "type": "bytes"
        }
      ],
      "name": "onERC1155BatchReceived",
      "outputs": [
        {
          "internalType": "bytes4",
          "name": "",
          "type": "bytes4"
        }
      ],
      "stateMutability": "nonpayable",
      "type": "function"
    },
    {
      "inputs": [
        {
          "internalType": "address",
          "name": "",
          "type": "address"
        },
        {
          "internalType": "address",
          "name": "",
          "type": "address"
        },
        {
          "internalType": "uint256",
          "name": "",
          "type": "uint256"
        },
        {
          "internalType": "uint256",
          "name": "",
          "type": "uint256"
        },
        {
          "internalType": "bytes",
          "name": "",
          "type": "bytes"
        }
      ],
      "name": "onERC1155Received",
      "outputs": [
        {
          "internalType": "bytes4",
          "name": "",
          "type": "bytes4"
        }
      ],
      "stateMutability": "nonpayable",
      "type": "function"
    },
    {
      "inputs": [
        {
          "internalType": "address",
          "name": "",
          "type": "address"
        },
        {
          "internalType": "address",
          "name": "",
          "type": "address"
        },
        {
          "internalType": "uint256",
          "name": "",
          "type": "uint256"
        },
        {
          "internalType": "bytes",
          "name": "",
          "type": "bytes"
        }
      ],
      "name": "onERC721Received",
      "outputs": [
        {
          "internalType": "bytes4",
          "name": "",
          "type": "bytes4"
        }
      ],
      "stateMutability": "nonpayable",
      "type": "function"
    },
    {
      "inputs": [
        {
          "internalType": "uint256",
          "name": "proposalId",
          "type": "uint256"
        }
      ],
      "name": "proposalDeadline",
      "outputs": [
        {
          "internalType": "uint256",
          "name": "",
          "type": "uint256"
        }
      ],
      "stateMutability": "view",
      "type": "function",
      "constant": true
    },
    {
      "inputs": [
        {
          "internalType": "uint256",
          "name": "proposalId",
          "type": "uint256"
        }
      ],
      "name": "proposalEta",
      "outputs": [
        {
          "internalType": "uint256",
          "name": "",
          "type": "uint256"
        }
      ],
      "stateMutability": "view",
      "type": "function",
      "constant": true
    },
    {
      "inputs": [
        {
          "internalType": "uint256",
          "name": "proposalId",
          "type": "uint256"
        }
      ],
      "name": "proposalSnapshot",
      "outputs": [
        {
          "internalType": "uint256",
          "name": "",
          "type": "uint256"
        }
      ],
      "stateMutability": "view",
      "type": "function",
      "constant": true
    },
    {
      "inputs": [
        {
          "internalType": "uint256",
          "name": "proposalId",
          "type": "uint256"
        }
      ],
      "name": "proposalVotes",
      "outputs": [
        {
          "internalType": "uint256",
          "name": "againstVotes",
          "type": "uint256"
        },
        {
          "internalType": "uint256",
          "name": "forVotes",
          "type": "uint256"
        },
        {
          "internalType": "uint256",
          "name": "abstainVotes",
          "type": "uint256"
        }
      ],
      "stateMutability": "view",
      "type": "function",
      "constant": true
    },
    {
      "inputs": [
        {
          "internalType": "address[]",
          "name": "targets",
          "type": "address[]"
        },
        {
          "internalType": "uint256[]",
          "name": "values",
          "type": "uint256[]"
        },
        {
          "internalType": "bytes[]",
          "name": "calldatas",
          "type": "bytes[]"
        },
        {
          "internalType": "bytes32",
          "name": "descriptionHash",
          "type": "bytes32"
        }
      ],
      "name": "queue",
      "outputs": [
        {
          "internalType": "uint256",
          "name": "",
          "type": "uint256"
        }
      ],
      "stateMutability": "nonpayable",
      "type": "function"
    },
    {
      "inputs": [],
      "name": "quorumDenominator",
      "outputs": [
        {
          "internalType": "uint256",
          "name": "",
          "type": "uint256"
        }
      ],
      "stateMutability": "view",
      "type": "function",
      "constant": true
    },
    {
      "inputs": [
        {
          "internalType": "uint256",
          "name": "blockNumber",
          "type": "uint256"
        }
      ],
      "name": "quorumNumerator",
      "outputs": [
        {
          "internalType": "uint256",
          "name": "",
          "type": "uint256"
        }
      ],
      "stateMutability": "view",
      "type": "function",
      "constant": true
    },
    {
      "inputs": [],
      "name": "quorumNumerator",
      "outputs": [
        {
          "internalType": "uint256",
          "name": "",
          "type": "uint256"
        }
      ],
      "stateMutability": "view",
      "type": "function",
      "constant": true
    },
    {
      "inputs": [
        {
          "internalType": "address",
          "name": "target",
          "type": "address"
        },
        {
          "internalType": "uint256",
          "name": "value",
          "type": "uint256"
        },
        {
          "internalType": "bytes",
          "name": "data",
          "type": "bytes"
        }
      ],
      "name": "relay",
      "outputs": [],
      "stateMutability": "nonpayable",
      "type": "function"
    },
    {
      "inputs": [],
      "name": "timelock",
      "outputs": [
        {
          "internalType": "address",
          "name": "",
          "type": "address"
        }
      ],
      "stateMutability": "view",
      "type": "function",
      "constant": true
    },
    {
      "inputs": [],
      "name": "token",
      "outputs": [
        {
          "internalType": "contract IVotes",
          "name": "",
          "type": "address"
        }
      ],
      "stateMutability": "view",
      "type": "function",
      "constant": true
    },
    {
      "inputs": [
        {
          "internalType": "uint256",
          "name": "newQuorumNumerator",
          "type": "uint256"
        }
      ],
      "name": "updateQuorumNumerator",
      "outputs": [],
      "stateMutability": "nonpayable",
      "type": "function"
    },
    {
      "inputs": [
        {
          "internalType": "contract TimelockController",
          "name": "newTimelock",
          "type": "address"
        }
      ],
      "name": "updateTimelock",
      "outputs": [],
      "stateMutability": "nonpayable",
      "type": "function"
    },
    {
      "inputs": [],
      "name": "version",
      "outputs": [
        {
          "internalType": "string",
          "name": "",
          "type": "string"
        }
      ],
      "stateMutability": "view",
      "type": "function",
      "constant": true
    },
    {
      "stateMutability": "payable",
      "type": "receive",
      "payable": true
    },
    {
      "inputs": [],
      "name": "votingDelay",
      "outputs": [
        {
          "internalType": "uint256",
          "name": "",
          "type": "uint256"
        }
      ],
      "stateMutability": "pure",
      "type": "function",
      "constant": true
    },
    {
      "inputs": [],
      "name": "votingPeriod",
      "outputs": [
        {
          "internalType": "uint256",
          "name": "",
          "type": "uint256"
        }
      ],
      "stateMutability": "pure",
      "type": "function",
      "constant": true
    },
    {
      "inputs": [],
      "name": "proposalThreshold",
      "outputs": [
        {
          "internalType": "uint256",
          "name": "",
          "type": "uint256"
        }
      ],
      "stateMutability": "pure",
      "type": "function",
      "constant": true
    },
    {
      "inputs": [
        {
          "internalType": "uint256",
          "name": "blockNumber",
          "type": "uint256"
        }
      ],
      "name": "quorum",
      "outputs": [
        {
          "internalType": "uint256",
          "name": "",
          "type": "uint256"
        }
      ],
      "stateMutability": "view",
      "type": "function",
      "constant": true
    },
    {
      "inputs": [
        {
          "internalType": "uint256",
          "name": "proposalId",
          "type": "uint256"
        }
      ],
      "name": "state",
      "outputs": [
        {
          "internalType": "enum IGovernor.ProposalState",
          "name": "",
          "type": "uint8"
        }
      ],
      "stateMutability": "view",
      "type": "function",
      "constant": true
    },
    {
      "inputs": [
        {
          "internalType": "address[]",
          "name": "targets",
          "type": "address[]"
        },
        {
          "internalType": "uint256[]",
          "name": "values",
          "type": "uint256[]"
        },
        {
          "internalType": "bytes[]",
          "name": "calldatas",
          "type": "bytes[]"
        },
        {
          "internalType": "string",
          "name": "description",
          "type": "string"
        }
      ],
      "name": "propose",
      "outputs": [
        {
          "internalType": "uint256",
          "name": "",
          "type": "uint256"
        }
      ],
      "stateMutability": "nonpayable",
      "type": "function"
    },
    {
      "inputs": [
        {
          "internalType": "bytes4",
          "name": "interfaceId",
          "type": "bytes4"
        }
      ],
      "name": "supportsInterface",
      "outputs": [
        {
          "internalType": "bool",
          "name": "",
          "type": "bool"
        }
      ],
      "stateMutability": "view",
      "type": "function",
      "constant": true
    }
  ],
  "bytecode": "0x6101606040523480156200001257600080fd5b5060405162004086380380620040868339810160408190526200003591620006bb565b80600a836040518060400160405280600a81526020016926bca3b7bb32b93737b960b11b815250806200006d6200014260201b60201c565b815160208084019190912082518383012060e08290526101008190524660a0818152604080517f8b73c3c69bb8fe3d512ecc4cf759cc79239f7b179b0ffacaa9a75d522b39400f81880181905281830187905260608201869052608082019490945230818401528151808203909301835260c00190528051940193909320919290916080523060c052610120525050825162000113925060009150602084019062000606565b50506001600160a01b0316610140526200012d816200015d565b506200013981620002d9565b50505062000772565b6040805180820190915260018152603160f81b602082015290565b6064811115620001e65760405162461bcd60e51b815260206004820152604360248201527f476f7665726e6f72566f74657351756f72756d4672616374696f6e3a2071756f60448201527f72756d4e756d657261746f72206f7665722071756f72756d44656e6f6d696e616064820152623a37b960e91b608482015260a4015b60405180910390fd5b6000620001f262000342565b90508015801590620002045750600654155b156200027f5760066000016040518060400160405280600063ffffffff1681526020016200023d846200037160201b620012271760201c565b6001600160e01b0390811690915282546001810184556000938452602093849020835194909301519091166401000000000263ffffffff909316929092179101555b6200029a826006620003e060201b620012941790919060201c565b505060408051828152602081018490527f0553476bf02ef2726e8ce5ced78d63e26e602e4a2257b1f559418e24b4633997910160405180910390a15050565b600754604080516001600160a01b03928316815291831660208301527f08f74ea46ef7894f65eabfb5e6e695de773a000b47c529ab559178069b226401910160405180910390a1600780546001600160a01b0319166001600160a01b0392909216919091179055565b600654600090156200036a576200036560066200053c60201b620013bf1760201c565b905090565b5060055490565b60006001600160e01b03821115620003dc5760405162461bcd60e51b815260206004820152602760248201527f53616665436173743a2076616c756520646f65736e27742066697420696e20326044820152663234206269747360c81b6064820152608401620001dd565b5090565b8154600090819081620003f3866200053c565b9050600082118015620004375750438662000410600185620006fa565b8154811062000423576200042362000720565b60009182526020909120015463ffffffff16145b15620004ab5762000453856200037160201b620012271760201c565b8662000461600185620006fa565b8154811062000474576200047462000720565b9060005260206000200160000160046101000a8154816001600160e01b0302191690836001600160e01b0316021790555062000533565b856000016040518060400160405280620004d0436200059f60201b6200141b1760201c565b63ffffffff168152602001620004f1886200037160201b620012271760201c565b6001600160e01b0390811690915282546001810184556000938452602093849020835194909301519091166401000000000263ffffffff909316929092179101555b95939450505050565b805460009080156200058c578262000556600183620006fa565b8154811062000569576200056962000720565b60009182526020909120015464010000000090046001600160e01b03166200058f565b60005b6001600160e01b03169392505050565b600063ffffffff821115620003dc5760405162461bcd60e51b815260206004820152602660248201527f53616665436173743a2076616c756520646f65736e27742066697420696e203360448201526532206269747360d01b6064820152608401620001dd565b828054620006149062000736565b90600052602060002090601f01602090048101928262000638576000855562000683565b82601f106200065357805160ff191683800117855562000683565b8280016001018555821562000683579182015b828111156200068357825182559160200191906001019062000666565b50620003dc9291505b80821115620003dc57600081556001016200068c565b6001600160a01b0381168114620006b857600080fd5b50565b60008060408385031215620006cf57600080fd5b8251620006dc81620006a2565b6020840151909250620006ef81620006a2565b809150509250929050565b6000828210156200071b57634e487b7160e01b600052601160045260246000fd5b500390565b634e487b7160e01b600052603260045260246000fd5b600181811c908216806200074b57607f821691505b6020821081036200076c57634e487b7160e01b600052602260045260246000fd5b50919050565b60805160a05160c05160e0516101005161012051610140516138ab620007db600039600081816107f501528181611e8b0152611faa015260006121260152600061217501526000612150015260006120a9015260006120d3015260006120fd01526138ab6000f3fe6080604052600436106102295760003560e01c80637b3c71d311610123578063c01f9e37116100ab578063deaaa7cc1161006f578063deaaa7cc14610743578063eb9019d414610777578063f23a6e6114610797578063f8ce560a146107c3578063fc0c546a146107e357600080fd5b8063c01f9e371461066b578063c28bc2fa1461068b578063c59057e4146106ab578063d33219b4146106cb578063dd4e2ba5146106fd57600080fd5b8063a7713a70116100f2578063a7713a70146105cf578063a890c910146105e4578063ab58fb8e14610604578063b58131b014610624578063bc197c811461063f57600080fd5b80637b3c71d31461055b5780637d5e81e21461057b57806397c3d3341461059b5780639a802a6d146105af57600080fd5b80632fe3e261116101b1578063544ffc9c11610175578063544ffc9c1461047c57806354fd4d50146104d157806356781388146104fb5780635f398a141461051b57806360c4247f1461053b57600080fd5b80632fe3e2611461039d5780633932abb1146103d15780633bccf4fd146103e55780633e4f49e614610405578063438596321461043257600080fd5b806306fdde03116101f857806306fdde03146102e4578063150b7a0214610306578063160cbed71461034a5780632656227d1461036a5780632d63f6931461037d57600080fd5b806301ffc9a71461025157806302a251a31461028657806303420181146102a457806306f3f9e6146102c457600080fd5b3661024c5730610237610817565b6001600160a01b03161461024a57600080fd5b005b600080fd5b34801561025d57600080fd5b5061027161026c3660046129b8565b610830565b60405190151581526020015b60405180910390f35b34801561029257600080fd5b5060325b60405190815260200161027d565b3480156102b057600080fd5b506102966102bf366004612af6565b610841565b3480156102d057600080fd5b5061024a6102df366004612b9c565b610939565b3480156102f057600080fd5b506102f96109cc565b60405161027d9190612c11565b34801561031257600080fd5b50610331610321366004612c39565b630a85bd0160e11b949350505050565b6040516001600160e01b0319909116815260200161027d565b34801561035657600080fd5b50610296610365366004612e15565b610a5e565b610296610378366004612e15565b610c5e565b34801561038957600080fd5b50610296610398366004612b9c565b610d4b565b3480156103a957600080fd5b506102967fb3b3f3b703cd84ce352197dcff232b1b5d3cfb2025ce47cf04742d0651f1af8881565b3480156103dd57600080fd5b506001610296565b3480156103f157600080fd5b50610296610400366004612ea4565b610d82565b34801561041157600080fd5b50610425610420366004612b9c565b610df8565b60405161027d9190612f08565b34801561043e57600080fd5b5061027161044d366004612f30565b60008281526004602090815260408083206001600160a01b038516845260030190915290205460ff1692915050565b34801561048857600080fd5b506104b6610497366004612b9c565b6000908152600460205260409020805460018201546002909201549092565b6040805193845260208401929092529082015260600161027d565b3480156104dd57600080fd5b506040805180820190915260018152603160f81b60208201526102f9565b34801561050757600080fd5b50610296610516366004612f60565b610e03565b34801561052757600080fd5b50610296610536366004612f8c565b610e2c565b34801561054757600080fd5b50610296610556366004612b9c565b610e76565b34801561056757600080fd5b5061029661057636600461300f565b610f0e565b34801561058757600080fd5b50610296610596366004613068565b610f60565b3480156105a757600080fd5b506064610296565b3480156105bb57600080fd5b506102966105ca36600461311c565b610f77565b3480156105db57600080fd5b50610296610f8e565b3480156105f057600080fd5b5061024a6105ff366004613174565b610faa565b34801561061057600080fd5b5061029661061f366004612b9c565b611031565b34801561063057600080fd5b50670de0b6b3a7640000610296565b34801561064b57600080fd5b5061033161065a366004613191565b63bc197c8160e01b95945050505050565b34801561067757600080fd5b50610296610686366004612b9c565b6110cb565b34801561069757600080fd5b5061024a6106a6366004613224565b6110fa565b3480156106b757600080fd5b506102966106c6366004612e15565b6111c1565b3480156106d757600080fd5b506007546001600160a01b03165b6040516001600160a01b03909116815260200161027d565b34801561070957600080fd5b506040805180820190915260208082527f737570706f72743d627261766f2671756f72756d3d666f722c6162737461696e908201526102f9565b34801561074f57600080fd5b506102967f150214d74d59b7d1e90c73fc22ef3d991dd0a76b046543d4d80ab92d2a50328f81565b34801561078357600080fd5b50610296610792366004613267565b6111fb565b3480156107a357600080fd5b506103316107b2366004613293565b63f23a6e6160e01b95945050505050565b3480156107cf57600080fd5b506102966107de366004612b9c565b61121c565b3480156107ef57600080fd5b506106e57f000000000000000000000000000000000000000000000000000000000000000081565b600061082b6007546001600160a01b031690565b905090565b600061083b82611480565b92915050565b6000806108e56108dd7fb3b3f3b703cd84ce352197dcff232b1b5d3cfb2025ce47cf04742d0651f1af888c8c8c8c60405161087d9291906132fb565b60405180910390208b805190602001206040516020016108c2959493929190948552602085019390935260ff9190911660408401526060830152608082015260a00190565b604051602081830303815290604052805190602001206114a5565b8686866114f3565b905061092b8a828b8b8b8080601f0160208091040260200160405190810160405280939291908181526020018383808284376000920191909152508d9250611511915050565b9a9950505050505050505050565b610941610817565b6001600160a01b0316336001600160a01b03161461097a5760405162461bcd60e51b81526004016109719061330b565b60405180910390fd5b30610983610817565b6001600160a01b0316146109c057600080366040516109a39291906132fb565b604051809103902090505b806109b96002611676565b036109ae57505b6109c9816116f5565b50565b6060600080546109db90613342565b80601f0160208091040260200160405190810160405280929190818152602001828054610a0790613342565b8015610a545780601f10610a2957610100808354040283529160200191610a54565b820191906000526020600020905b815481529060010190602001808311610a3757829003601f168201915b5050505050905090565b600080610a6d868686866111c1565b90506004610a7a82610df8565b6007811115610a8b57610a8b612ef2565b14610aa85760405162461bcd60e51b81526004016109719061337c565b6007546040805163793d064960e11b815290516000926001600160a01b03169163f27a0c929160048083019260209291908290030181865afa158015610af2573d6000803e3d6000fd5b505050506040513d601f19601f82011682018060405250810190610b1691906133bd565b60075460405163b1c5f42760e01b81529192506001600160a01b03169063b1c5f42790610b50908a908a908a906000908b9060040161349f565b602060405180830381865afa158015610b6d573d6000803e3d6000fd5b505050506040513d601f19601f82011682018060405250810190610b9191906133bd565b6000838152600860205260408082209290925560075491516308f2a0bb60e41b81526001600160a01b0390921691638f2a0bb091610bdc918b918b918b91908b9089906004016134ed565b600060405180830381600087803b158015610bf657600080fd5b505af1158015610c0a573d6000803e3d6000fd5b505050507f9a2e42fd6722813d69113e7d0079d3d940171428df7373df9c7f7617cfda2892828242610c3c919061355b565b6040805192835260208301919091520160405180910390a15095945050505050565b600080610c6d868686866111c1565b90506000610c7a82610df8565b90506004816007811115610c9057610c90612ef2565b1480610cad57506005816007811115610cab57610cab612ef2565b145b610cc95760405162461bcd60e51b81526004016109719061337c565b600082815260016020818152604092839020600201805460ff191690921790915590518381527f712ae1383f79ac853f8d882153778e0260ef8f03b504e2866e0593e04d2b291f910160405180910390a1610d278288888888611842565b610d3482888888886118e3565b610d4182888888886118f0565b5095945050505050565b60008181526001602090815260408083208151928301909152546001600160401b0316908190525b6001600160401b031692915050565b604080517f150214d74d59b7d1e90c73fc22ef3d991dd0a76b046543d4d80ab92d2a50328f602082015290810186905260ff851660608201526000908190610dd0906108dd906080016108c2565b9050610ded87828860405180602001604052806000815250611929565b979650505050505050565b600061083b8261194c565b600080339050610e2484828560405180602001604052806000815250611929565b949350505050565b600080339050610ded87828888888080601f0160208091040260200160405190810160405280939291908181526020018383808284376000920191909152508a9250611511915050565b600654600090808203610e8d575050600554919050565b60006006610e9c600184613573565b81548110610eac57610eac61358a565b60009182526020918290206040805180820190915291015463ffffffff81168083526401000000009091046001600160e01b03169282019290925291508410610f0357602001516001600160e01b03169392505050565b610e24600685611a96565b600080339050610f5686828787878080601f01602080910402602001604051908101604052809392919081815260200183838082843760009201919091525061192992505050565b9695505050505050565b6000610f6e85858585611ba5565b95945050505050565b6000610f84848484611e62565b90505b9392505050565b60065460009015610fa35761082b60066113bf565b5060055490565b610fb2610817565b6001600160a01b0316336001600160a01b031614610fe25760405162461bcd60e51b81526004016109719061330b565b30610feb610817565b6001600160a01b031614611028576000803660405161100b9291906132fb565b604051809103902090505b806110216002611676565b0361101657505b6109c981611ef8565b60075460008281526008602052604080822054905163d45c443560e01b81526004810191909152909182916001600160a01b039091169063d45c443590602401602060405180830381865afa15801561108e573d6000803e3d6000fd5b505050506040513d601f19601f820116820180604052508101906110b291906133bd565b9050806001146110c25780610f87565b60009392505050565b60008181526001602081815260408084208151928301909152909101546001600160401b031690819052610d73565b611102610817565b6001600160a01b0316336001600160a01b0316146111325760405162461bcd60e51b81526004016109719061330b565b3061113b610817565b6001600160a01b031614611178576000803660405161115b9291906132fb565b604051809103902090505b806111716002611676565b0361116657505b6111ba8483838080601f016020809104026020016040519081016040528093929190818152602001838380828437600092019190915250889250611f61915050565b5050505050565b6000848484846040516020016111da94939291906135a0565b60408051601f19818403018152919052805160209091012095945050505050565b6000610f87838361121760408051602081019091526000815290565b611e62565b600061083b82611f87565b60006001600160e01b038211156112905760405162461bcd60e51b815260206004820152602760248201527f53616665436173743a2076616c756520646f65736e27742066697420696e20326044820152663234206269747360c81b6064820152608401610971565b5090565b81546000908190816112a5866113bf565b90506000821180156112e3575043866112bf600185613573565b815481106112cf576112cf61358a565b60009182526020909120015463ffffffff16145b15611343576112f185611227565b866112fd600185613573565b8154811061130d5761130d61358a565b9060005260206000200160000160046101000a8154816001600160e01b0302191690836001600160e01b031602179055506113b1565b85600001604051806040016040528061135b4361141b565b63ffffffff16815260200161136f88611227565b6001600160e01b0390811690915282546001810184556000938452602093849020835194909301519091166401000000000263ffffffff909316929092179101555b9250839150505b9250929050565b8054600090801561140857826113d6600183613573565b815481106113e6576113e661358a565b60009182526020909120015464010000000090046001600160e01b031661140b565b60005b6001600160e01b03169392505050565b600063ffffffff8211156112905760405162461bcd60e51b815260206004820152602660248201527f53616665436173743a2076616c756520646f65736e27742066697420696e203360448201526532206269747360d01b6064820152608401610971565b60006001600160e01b03198216636e665ced60e01b148061083b575061083b82612031565b600061083b6114b261209c565b8360405161190160f01b6020820152602281018390526042810182905260009060620160405160208183030381529060405280519060200120905092915050565b6000806000611504878787876121c3565b91509150610d41816122b0565b600085815260016020819052604082209061152b88610df8565b600781111561153c5761153c612ef2565b146115955760405162461bcd60e51b815260206004820152602360248201527f476f7665726e6f723a20766f7465206e6f742063757272656e746c792061637460448201526269766560e81b6064820152608401610971565b604080516020810190915281546001600160401b0316908190526000906115be90889086611e62565b90506115cd8888888488612466565b835160000361162257866001600160a01b03167fb8e138887d0aa13bab447e82de9d5c1777041ecd21ca36ba824ff1e6c07ddda48988848960405161161594939291906135eb565b60405180910390a2610ded565b866001600160a01b03167fe2babfbac5889a709b63bb7f598b324e08bc5a4fb9ec647fb3cbc9ec07eb87128988848989604051611663959493929190613613565b60405180910390a2979650505050505050565b60006116918254600f81810b600160801b909204900b131590565b156116af57604051631ed9509560e11b815260040160405180910390fd5b508054600f0b6000818152600180840160205260408220805492905583546fffffffffffffffffffffffffffffffff191692016001600160801b03169190911790915590565b60648111156117785760405162461bcd60e51b815260206004820152604360248201527f476f7665726e6f72566f74657351756f72756d4672616374696f6e3a2071756f60448201527f72756d4e756d657261746f72206f7665722071756f72756d44656e6f6d696e616064820152623a37b960e91b608482015260a401610971565b6000611782610f8e565b905080158015906117935750600654155b156117f8576040805180820190915260008152600690602081016117b684611227565b6001600160e01b0390811690915282546001810184556000938452602093849020835194909301519091166401000000000263ffffffff909316929092179101555b611803600683611294565b505060408051828152602081018490527f0553476bf02ef2726e8ce5ced78d63e26e602e4a2257b1f559418e24b4633997910160405180910390a15050565b3061184b610817565b6001600160a01b0316146111ba5760005b84518110156118db57306001600160a01b03168582815181106118815761188161358a565b60200260200101516001600160a01b0316036118cb576118cb8382815181106118ac576118ac61358a565b60200260200101518051906020012060026125e090919063ffffffff16565b6118d481613659565b905061185c565b505050505050565b6111ba858585858561261c565b306118f9610817565b6001600160a01b0316146111ba57600254600f81810b600160801b909204900b13156111ba5760006002556111ba565b6000610f6e8585858561194760408051602081019091526000815290565b611511565b60008061195883612690565b9050600481600781111561196e5761196e612ef2565b146119795792915050565b60008381526008602052604090205480611994575092915050565b600754604051632ab0f52960e01b8152600481018390526001600160a01b0390911690632ab0f52990602401602060405180830381865afa1580156119dd573d6000803e3d6000fd5b505050506040513d601f19601f82011682018060405250810190611a019190613672565b15611a10575060079392505050565b600754604051632c258a9f60e11b8152600481018390526001600160a01b039091169063584b153e90602401602060405180830381865afa158015611a59573d6000803e3d6000fd5b505050506040513d601f19601f82011682018060405250810190611a7d9190613672565b15611a8c575060059392505050565b5060029392505050565b6000438210611ae75760405162461bcd60e51b815260206004820181905260248201527f436865636b706f696e74733a20626c6f636b206e6f7420796574206d696e65646044820152606401610971565b825460005b81811015611b4c576000611b00828461279f565b905084866000018281548110611b1857611b1861358a565b60009182526020909120015463ffffffff161115611b3857809250611b46565b611b4381600161355b565b91505b50611aec565b8115611b905784611b5e600184613573565b81548110611b6e57611b6e61358a565b60009182526020909120015464010000000090046001600160e01b0316611b93565b60005b6001600160e01b031695945050505050565b6000670de0b6b3a7640000611bbf33610792600143613573565b1015611c275760405162461bcd60e51b815260206004820152603160248201527f476f7665726e6f723a2070726f706f73657220766f7465732062656c6f7720706044820152701c9bdc1bdcd85b081d1a1c995cda1bdb19607a1b6064820152608401610971565b6000611c3c86868686805190602001206111c1565b90508451865114611c5f5760405162461bcd60e51b815260040161097190613694565b8351865114611c805760405162461bcd60e51b815260040161097190613694565b6000865111611cd15760405162461bcd60e51b815260206004820152601860248201527f476f7665726e6f723a20656d7074792070726f706f73616c00000000000000006044820152606401610971565b600081815260016020908152604091829020825191820190925281546001600160401b03169081905215611d515760405162461bcd60e51b815260206004820152602160248201527f476f7665726e6f723a2070726f706f73616c20616c72656164792065786973746044820152607360f81b6064820152608401610971565b6000611d5d60016127ba565b611d66436127ba565b611d7091906136d5565b90506000611d7e60326127ba565b611d8890836136d5565b835467ffffffffffffffff19166001600160401b038416178455905060018301805467ffffffffffffffff19166001600160401b0383161790557f7d84a6263ae0d98d3329bd7b46bb4e8d6f98cd35a7adb45c274c8b7fd5ebd5e084338b8b8d516001600160401b03811115611e0057611e00612a39565b604051908082528060200260200182016040528015611e3357816020015b6060815260200190600190039081611e1e5790505b508c88888e604051611e4d99989796959493929190613700565b60405180910390a15091979650505050505050565b604051630748d63560e31b81526001600160a01b038481166004830152602482018490526000917f000000000000000000000000000000000000000000000000000000000000000090911690633a46b1a890604401602060405180830381865afa158015611ed4573d6000803e3d6000fd5b505050506040513d601f19601f82011682018060405250810190610f8491906133bd565b600754604080516001600160a01b03928316815291831660208301527f08f74ea46ef7894f65eabfb5e6e695de773a000b47c529ab559178069b226401910160405180910390a1600780546001600160a01b0319166001600160a01b0392909216919091179055565b6060610f8484848460405180606001604052806029815260200161384d60299139612822565b60006064611f9483610e76565b604051632394e7a360e21b8152600481018590527f00000000000000000000000000000000000000000000000000000000000000006001600160a01b031690638e539e8c90602401602060405180830381865afa158015611ff9573d6000803e3d6000fd5b505050506040513d601f19601f8201168201806040525081019061201d91906133bd565b61202791906137ef565b61083b919061380e565b60006001600160e01b0319821663bf26d89760e01b148061206257506001600160e01b031982166379dd796f60e01b145b8061207d57506001600160e01b03198216630271189760e51b145b8061083b57506301ffc9a760e01b6001600160e01b031983161461083b565b6000306001600160a01b037f0000000000000000000000000000000000000000000000000000000000000000161480156120f557507f000000000000000000000000000000000000000000000000000000000000000046145b1561211f57507f000000000000000000000000000000000000000000000000000000000000000090565b50604080517f00000000000000000000000000000000000000000000000000000000000000006020808301919091527f0000000000000000000000000000000000000000000000000000000000000000828401527f000000000000000000000000000000000000000000000000000000000000000060608301524660808301523060a0808401919091528351808403909101815260c0909201909252805191012090565b6000807f7fffffffffffffffffffffffffffffff5d576e7357a4501ddfe92f46681b20a08311156121fa57506000905060036122a7565b8460ff16601b1415801561221257508460ff16601c14155b1561222357506000905060046122a7565b6040805160008082526020820180845289905260ff881692820192909252606081018690526080810185905260019060a0016020604051602081039080840390855afa158015612277573d6000803e3d6000fd5b5050604051601f1901519150506001600160a01b0381166122a0576000600192509250506122a7565b9150600090505b94509492505050565b60008160048111156122c4576122c4612ef2565b036122cc5750565b60018160048111156122e0576122e0612ef2565b0361232d5760405162461bcd60e51b815260206004820152601860248201527f45434453413a20696e76616c6964207369676e617475726500000000000000006044820152606401610971565b600281600481111561234157612341612ef2565b0361238e5760405162461bcd60e51b815260206004820152601f60248201527f45434453413a20696e76616c6964207369676e6174757265206c656e677468006044820152606401610971565b60038160048111156123a2576123a2612ef2565b036123fa5760405162461bcd60e51b815260206004820152602260248201527f45434453413a20696e76616c6964207369676e6174757265202773272076616c604482015261756560f01b6064820152608401610971565b600481600481111561240e5761240e612ef2565b036109c95760405162461bcd60e51b815260206004820152602260248201527f45434453413a20696e76616c6964207369676e6174757265202776272076616c604482015261756560f01b6064820152608401610971565b60008581526004602090815260408083206001600160a01b0388168452600381019092529091205460ff16156124ee5760405162461bcd60e51b815260206004820152602760248201527f476f7665726e6f72566f74696e6753696d706c653a20766f746520616c726561604482015266191e4818d85cdd60ca1b6064820152608401610971565b6001600160a01b03851660009081526003820160205260409020805460ff1916600117905560ff841661253a578281600001600082825461252f919061355b565b909155506118db9050565b60001960ff85160161255a578281600101600082825461252f919061355b565b60011960ff85160161257a578281600201600082825461252f919061355b565b60405162461bcd60e51b815260206004820152603560248201527f476f7665726e6f72566f74696e6753696d706c653a20696e76616c69642076616044820152746c756520666f7220656e756d20566f74655479706560581b6064820152608401610971565b8154600160801b90819004600f0b6000818152600180860160205260409091209390935583546001600160801b03908116939091011602179055565b60075460405163e38335e560e01b81526001600160a01b039091169063e38335e590349061265790889088908890600090899060040161349f565b6000604051808303818588803b15801561267057600080fd5b505af1158015612684573d6000803e3d6000fd5b50505050505050505050565b6000818152600160205260408120600281015460ff16156126b45750600792915050565b6002810154610100900460ff16156126cf5750600292915050565b60006126da84610d4b565b90508060000361272c5760405162461bcd60e51b815260206004820152601d60248201527f476f7665726e6f723a20756e6b6e6f776e2070726f706f73616c2069640000006044820152606401610971565b43811061273d575060009392505050565b6000612748856110cb565b905043811061275c57506001949350505050565b61276585612948565b8015612784575060008581526004602052604090208054600190910154115b1561279457506004949350505050565b506003949350505050565b60006127ae600284841861380e565b610f879084841661355b565b60006001600160401b038211156112905760405162461bcd60e51b815260206004820152602660248201527f53616665436173743a2076616c756520646f65736e27742066697420696e203660448201526534206269747360d01b6064820152608401610971565b6060824710156128835760405162461bcd60e51b815260206004820152602660248201527f416464726573733a20696e73756666696369656e742062616c616e636520666f6044820152651c8818d85b1b60d21b6064820152608401610971565b6001600160a01b0385163b6128da5760405162461bcd60e51b815260206004820152601d60248201527f416464726573733a2063616c6c20746f206e6f6e2d636f6e74726163740000006044820152606401610971565b600080866001600160a01b031685876040516128f69190613830565b60006040518083038185875af1925050503d8060008114612933576040519150601f19603f3d011682016040523d82523d6000602084013e612938565b606091505b5091509150610ded82828661297f565b60008181526004602052604081206002810154600182015461296a919061355b565b6129766107de85610d4b565b11159392505050565b6060831561298e575081610f87565b82511561299e5782518084602001fd5b8160405162461bcd60e51b81526004016109719190612c11565b6000602082840312156129ca57600080fd5b81356001600160e01b031981168114610f8757600080fd5b803560ff811681146129f357600080fd5b919050565b60008083601f840112612a0a57600080fd5b5081356001600160401b03811115612a2157600080fd5b6020830191508360208285010111156113b857600080fd5b634e487b7160e01b600052604160045260246000fd5b604051601f8201601f191681016001600160401b0381118282101715612a7757612a77612a39565b604052919050565b60006001600160401b03831115612a9857612a98612a39565b612aab601f8401601f1916602001612a4f565b9050828152838383011115612abf57600080fd5b828260208301376000602084830101529392505050565b600082601f830112612ae757600080fd5b610f8783833560208501612a7f565b60008060008060008060008060e0898b031215612b1257600080fd5b88359750612b2260208a016129e2565b965060408901356001600160401b0380821115612b3e57600080fd5b612b4a8c838d016129f8565b909850965060608b0135915080821115612b6357600080fd5b50612b708b828c01612ad6565b945050612b7f60808a016129e2565b925060a0890135915060c089013590509295985092959890939650565b600060208284031215612bae57600080fd5b5035919050565b60005b83811015612bd0578181015183820152602001612bb8565b83811115612bdf576000848401525b50505050565b60008151808452612bfd816020860160208601612bb5565b601f01601f19169290920160200192915050565b602081526000610f876020830184612be5565b6001600160a01b03811681146109c957600080fd5b60008060008060808587031215612c4f57600080fd5b8435612c5a81612c24565b93506020850135612c6a81612c24565b92506040850135915060608501356001600160401b03811115612c8c57600080fd5b612c9887828801612ad6565b91505092959194509250565b60006001600160401b03821115612cbd57612cbd612a39565b5060051b60200190565b600082601f830112612cd857600080fd5b81356020612ced612ce883612ca4565b612a4f565b82815260059290921b84018101918181019086841115612d0c57600080fd5b8286015b84811015612d30578035612d2381612c24565b8352918301918301612d10565b509695505050505050565b600082601f830112612d4c57600080fd5b81356020612d5c612ce883612ca4565b82815260059290921b84018101918181019086841115612d7b57600080fd5b8286015b84811015612d305780358352918301918301612d7f565b600082601f830112612da757600080fd5b81356020612db7612ce883612ca4565b82815260059290921b84018101918181019086841115612dd657600080fd5b8286015b84811015612d305780356001600160401b03811115612df95760008081fd5b612e078986838b0101612ad6565b845250918301918301612dda565b60008060008060808587031215612e2b57600080fd5b84356001600160401b0380821115612e4257600080fd5b612e4e88838901612cc7565b95506020870135915080821115612e6457600080fd5b612e7088838901612d3b565b94506040870135915080821115612e8657600080fd5b50612e9387828801612d96565b949793965093946060013593505050565b600080600080600060a08688031215612ebc57600080fd5b85359450612ecc602087016129e2565b9350612eda604087016129e2565b94979396509394606081013594506080013592915050565b634e487b7160e01b600052602160045260246000fd5b6020810160088310612f2a57634e487b7160e01b600052602160045260246000fd5b91905290565b60008060408385031215612f4357600080fd5b823591506020830135612f5581612c24565b809150509250929050565b60008060408385031215612f7357600080fd5b82359150612f83602084016129e2565b90509250929050565b600080600080600060808688031215612fa457600080fd5b85359450612fb4602087016129e2565b935060408601356001600160401b0380821115612fd057600080fd5b612fdc89838a016129f8565b90955093506060880135915080821115612ff557600080fd5b5061300288828901612ad6565b9150509295509295909350565b6000806000806060858703121561302557600080fd5b84359350613035602086016129e2565b925060408501356001600160401b0381111561305057600080fd5b61305c878288016129f8565b95989497509550505050565b6000806000806080858703121561307e57600080fd5b84356001600160401b038082111561309557600080fd5b6130a188838901612cc7565b955060208701359150808211156130b757600080fd5b6130c388838901612d3b565b945060408701359150808211156130d957600080fd5b6130e588838901612d96565b935060608701359150808211156130fb57600080fd5b508501601f8101871361310d57600080fd5b612c9887823560208401612a7f565b60008060006060848603121561313157600080fd5b833561313c81612c24565b92506020840135915060408401356001600160401b0381111561315e57600080fd5b61316a86828701612ad6565b9150509250925092565b60006020828403121561318657600080fd5b8135610f8781612c24565b600080600080600060a086880312156131a957600080fd5b85356131b481612c24565b945060208601356131c481612c24565b935060408601356001600160401b03808211156131e057600080fd5b6131ec89838a01612d3b565b9450606088013591508082111561320257600080fd5b61320e89838a01612d3b565b93506080880135915080821115612ff557600080fd5b6000806000806060858703121561323a57600080fd5b843561324581612c24565b93506020850135925060408501356001600160401b0381111561305057600080fd5b6000806040838503121561327a57600080fd5b823561328581612c24565b946020939093013593505050565b600080600080600060a086880312156132ab57600080fd5b85356132b681612c24565b945060208601356132c681612c24565b9350604086013592506060860135915060808601356001600160401b038111156132ef57600080fd5b61300288828901612ad6565b8183823760009101908152919050565b60208082526018908201527f476f7665726e6f723a206f6e6c79476f7665726e616e63650000000000000000604082015260600190565b600181811c9082168061335657607f821691505b60208210810361337657634e487b7160e01b600052602260045260246000fd5b50919050565b60208082526021908201527f476f7665726e6f723a2070726f706f73616c206e6f74207375636365737366756040820152601b60fa1b606082015260800190565b6000602082840312156133cf57600080fd5b5051919050565b600081518084526020808501945080840160005b8381101561340f5781516001600160a01b0316875295820195908201906001016133ea565b509495945050505050565b600081518084526020808501945080840160005b8381101561340f5781518752958201959082019060010161342e565b600081518084526020808501808196508360051b8101915082860160005b85811015613492578284038952613480848351612be5565b98850198935090840190600101613468565b5091979650505050505050565b60a0815260006134b260a08301886133d6565b82810360208401526134c4818861341a565b905082810360408401526134d8818761344a565b60608401959095525050608001529392505050565b60c08152600061350060c08301896133d6565b8281036020840152613512818961341a565b90508281036040840152613526818861344a565b60608401969096525050608081019290925260a0909101529392505050565b634e487b7160e01b600052601160045260246000fd5b6000821982111561356e5761356e613545565b500190565b60008282101561358557613585613545565b500390565b634e487b7160e01b600052603260045260246000fd5b6080815260006135b360808301876133d6565b82810360208401526135c5818761341a565b905082810360408401526135d9818661344a565b91505082606083015295945050505050565b84815260ff84166020820152826040820152608060608201526000610f566080830184612be5565b85815260ff8516602082015283604082015260a06060820152600061363b60a0830185612be5565b828103608084015261364d8185612be5565b98975050505050505050565b60006001820161366b5761366b613545565b5060010190565b60006020828403121561368457600080fd5b81518015158114610f8757600080fd5b60208082526021908201527f476f7665726e6f723a20696e76616c69642070726f706f73616c206c656e67746040820152600d60fb1b606082015260800190565b60006001600160401b038083168185168083038211156136f7576136f7613545565b01949350505050565b60006101208b8352602060018060a01b038c16818501528160408501526137298285018c6133d6565b9150838203606085015261373d828b61341a565b915083820360808501528189518084528284019150828160051b850101838c0160005b8381101561378e57601f1987840301855261377c838351612be5565b94860194925090850190600101613760565b505086810360a08801526137a2818c61344a565b9450505050506137bd60c08401876001600160401b03169052565b6001600160401b03851660e08401528281036101008401526137df8185612be5565b9c9b505050505050505050505050565b600081600019048311821515161561380957613809613545565b500290565b60008261382b57634e487b7160e01b600052601260045260246000fd5b500490565b60008251613842818460208701612bb5565b919091019291505056fe416464726573733a206c6f772d6c6576656c2063616c6c20776974682076616c7565206661696c6564a26469706673582212205dcc882b4601716f2ddfdbd7088b38c0e17784035bd6819c85f3b9fed3416ce264736f6c634300080d0033",
  "immutableReferences": {
    "3504": [
      {
        "length": 32,
        "start": 2037
      },
      {
        "length": 32,
        "start": 7819
      },
      {
        "length": 32,
        "start": 8106
      }
    ],
    "5830": [
      {
        "length": 32,
        "start": 8445
      }
    ],
    "5832": [
      {
        "length": 32,
        "start": 8403
      }
    ],
    "5834": [
      {
        "length": 32,
        "start": 8361
      }
    ],
    "5836": [
      {
        "length": 32,
        "start": 8528
      }
    ],
    "5838": [
      {
        "length": 32,
        "start": 8565
      }
    ],
    "5840": [
      {
        "length": 32,
        "start": 8486
      }
    ]
  },
  "source": "// SPDX-License-Identifier: MIT\npragma solidity ^0.8.4;\n\nimport \"@openzeppelin/contracts/governance/Governor.sol\";\nimport \"@openzeppelin/contracts/governance/extensions/GovernorCountingSimple.sol\";\nimport \"@openzeppelin/contracts/governance/extensions/GovernorVotes.sol\";\nimport \"@openzeppelin/contracts/governance/extensions/GovernorVotesQuorumFraction.sol\";\nimport \"@openzeppelin/contracts/governance/extensions/GovernorTimelockControl.sol\";\nimport \"@openzeppelin/contracts/governance/utils/Votes.sol\";\n\ncontract MyGovernor is Governor, GovernorCountingSimple, GovernorVotes, GovernorVotesQuorumFraction, GovernorTimelockControl {\n    constructor(IVotes _token, TimelockController _timelock)\n        Governor(\"MyGovernor\")\n        GovernorVotes(_token)\n        GovernorVotesQuorumFraction(10)\n        GovernorTimelockControl(_timelock)\n    {}\n\n    function votingDelay() public pure override returns (uint256) {\n        return 1; // 1 block\n    }\n\n    function votingPeriod() public pure override returns (uint256) {\n        return 50; // 1 week\n    }\n\n    // function proposalThreshold() public pure override returns (uint256) {\n    //     return 100e18;\n    // }\n    // TODO 100 eth is not required for our project\n    function proposalThreshold() public pure override returns (uint256) {\n        return 1e18;\n    }\n\n    // The following functions are overrides required by Solidity.\n\n    function quorum(uint256 blockNumber)\n        public\n        view\n        override(IGovernor, GovernorVotesQuorumFraction)\n        returns (uint256)\n    {\n        return super.quorum(blockNumber);\n    }\n\n    function state(uint256 proposalId)\n        public\n        view\n        override(Governor, GovernorTimelockControl)\n        returns (ProposalState)\n    {\n        return super.state(proposalId);\n    }\n\n    function propose(address[] memory targets, uint256[] memory values, bytes[] memory calldatas, string memory description)\n        public\n        override(Governor, IGovernor)\n        returns (uint256)\n    {\n        return super.propose(targets, values, calldatas, description);\n    }\n\n    function _execute(uint256 proposalId, address[] memory targets, uint256[] memory values, bytes[] memory calldatas, bytes32 descriptionHash)\n        internal\n        override(Governor, GovernorTimelockControl)\n    {\n        super._execute(proposalId, targets, values, calldatas, descriptionHash);\n    }\n\n    function _cancel(address[] memory targets, uint256[] memory values, bytes[] memory calldatas, bytes32 descriptionHash)\n        internal\n        override(Governor, GovernorTimelockControl)\n        returns (uint256)\n    {\n        return super._cancel(targets, values, calldatas, descriptionHash);\n    }\n\n    function _executor()\n        internal\n        view\n        override(Governor, GovernorTimelockControl)\n        returns (address)\n    {\n        return super._executor();\n    }\n\n    function supportsInterface(bytes4 interfaceId)\n        public\n        view\n        override(Governor, GovernorTimelockControl)\n        returns (bool)\n    {\n        return super.supportsInterface(interfaceId);\n    }\n}\n\n\n",
  "sourcePath": "/Users/abhinilagarwal/Desktop/equistart/contracts/contracts/MyGovernor.sol",
  "compiler": {
    "name": "solc",
    "version": "0.8.13+commit.abaa5c0e.Emscripten.clang"
  },
  "schemaVersion": "3.4.9",
  "updatedAt": "2022-10-25T20:38:09.179Z",
  "networkType": "ethereum",
  "devdoc": {
    "errors": {
      "Empty()": [
        {
          "details": "An operation (e.g. {front}) couldn't be completed due to the queue being empty."
        }
      ]
    },
    "kind": "dev",
    "methods": {
      "COUNTING_MODE()": {
        "details": "See {IGovernor-COUNTING_MODE}."
      },
      "castVote(uint256,uint8)": {
        "details": "See {IGovernor-castVote}."
      },
      "castVoteBySig(uint256,uint8,uint8,bytes32,bytes32)": {
        "details": "See {IGovernor-castVoteBySig}."
      },
      "castVoteWithReason(uint256,uint8,string)": {
        "details": "See {IGovernor-castVoteWithReason}."
      },
      "castVoteWithReasonAndParams(uint256,uint8,string,bytes)": {
        "details": "See {IGovernor-castVoteWithReasonAndParams}."
      },
      "castVoteWithReasonAndParamsBySig(uint256,uint8,string,bytes,uint8,bytes32,bytes32)": {
        "details": "See {IGovernor-castVoteWithReasonAndParamsBySig}."
      },
      "execute(address[],uint256[],bytes[],bytes32)": {
        "details": "See {IGovernor-execute}."
      },
      "getVotes(address,uint256)": {
        "details": "See {IGovernor-getVotes}."
      },
      "getVotesWithParams(address,uint256,bytes)": {
        "details": "See {IGovernor-getVotesWithParams}."
      },
      "hasVoted(uint256,address)": {
        "details": "See {IGovernor-hasVoted}."
      },
      "hashProposal(address[],uint256[],bytes[],bytes32)": {
        "details": "See {IGovernor-hashProposal}. The proposal id is produced by hashing the ABI encoded `targets` array, the `values` array, the `calldatas` array and the descriptionHash (bytes32 which itself is the keccak256 hash of the description string). This proposal id can be produced from the proposal data which is part of the {ProposalCreated} event. It can even be computed in advance, before the proposal is submitted. Note that the chainId and the governor address are not part of the proposal id computation. Consequently, the same proposal (with same operation and same description) will have the same id if submitted on multiple governors across multiple networks. This also means that in order to execute the same operation twice (on the same governor) the proposer will have to change the description in order to avoid proposal id conflicts."
      },
      "name()": {
        "details": "See {IGovernor-name}."
      },
      "onERC1155BatchReceived(address,address,uint256[],uint256[],bytes)": {
        "details": "See {IERC1155Receiver-onERC1155BatchReceived}."
      },
      "onERC1155Received(address,address,uint256,uint256,bytes)": {
        "details": "See {IERC1155Receiver-onERC1155Received}."
      },
      "onERC721Received(address,address,uint256,bytes)": {
        "details": "See {IERC721Receiver-onERC721Received}."
      },
      "proposalDeadline(uint256)": {
        "details": "See {IGovernor-proposalDeadline}."
      },
      "proposalEta(uint256)": {
        "details": "Public accessor to check the eta of a queued proposal"
      },
      "proposalSnapshot(uint256)": {
        "details": "See {IGovernor-proposalSnapshot}."
      },
      "proposalThreshold()": {
        "details": "Part of the Governor Bravo's interface: _\"The number of votes required in order for a voter to become a proposer\"_."
      },
      "proposalVotes(uint256)": {
        "details": "Accessor to the internal vote counts."
      },
      "queue(address[],uint256[],bytes[],bytes32)": {
        "details": "Function to queue a proposal to the timelock."
      },
      "quorumDenominator()": {
        "details": "Returns the quorum denominator. Defaults to 100, but may be overridden."
      },
      "quorumNumerator()": {
        "details": "Returns the current quorum numerator. See {quorumDenominator}."
      },
      "quorumNumerator(uint256)": {
        "details": "Returns the quorum numerator at a specific block number. See {quorumDenominator}."
      },
      "relay(address,uint256,bytes)": {
        "details": "Relays a transaction or function call to an arbitrary target. In cases where the governance executor is some contract other than the governor itself, like when using a timelock, this function can be invoked in a governance proposal to recover tokens or Ether that was sent to the governor contract by mistake. Note that if the executor is simply the governor itself, use of `relay` is redundant."
      },
      "timelock()": {
        "details": "Public accessor to check the address of the timelock"
      },
      "updateQuorumNumerator(uint256)": {
        "details": "Changes the quorum numerator. Emits a {QuorumNumeratorUpdated} event. Requirements: - Must be called through a governance proposal. - New numerator must be smaller or equal to the denominator."
      },
      "updateTimelock(address)": {
        "details": "Public endpoint to update the underlying timelock instance. Restricted to the timelock itself, so updates must be proposed, scheduled, and executed through governance proposals. CAUTION: It is not recommended to change the timelock while there are other queued governance proposals."
      },
      "version()": {
        "details": "See {IGovernor-version}."
      },
      "votingDelay()": {
        "details": "Delay, in number of block, between the proposal is created and the vote starts. This can be increassed to leave time for users to buy voting power, or delegate it, before the voting of a proposal starts."
      },
      "votingPeriod()": {
        "details": "Delay, in number of blocks, between the vote start and vote ends. NOTE: The {votingDelay} can delay the start of the vote. This must be considered when setting the voting duration compared to the voting delay."
      }
    },
    "version": 1
  },
  "userdoc": {
    "kind": "user",
    "methods": {
      "votingDelay()": {
        "notice": "module:user-config"
      },
      "votingPeriod()": {
        "notice": "module:user-config"
      }
    },
    "version": 1
  }
}