{
	"data": {
		"bytecode": {
			"linkReferences": {},
			"object": "6080604052600060015534801561001557600080fd5b50610400806100256000396000f3fe608060405234801561001057600080fd5b50600436106100415760003560e01c80631f8a14181461004657806390f0a6df14610064578063ff10abd314610097575b600080fd5b61004e6100b3565b60405161005b91906102a9565b60405180910390f35b61007e600480360381019061007991906101f7565b6100bd565b60405161008e94939291906102c4565b60405180910390f35b6100b160048036038101906100ac9190610224565b610137565b005b6000600154905090565b600080600080600080868152602001908152602001600020600001546000808781526020019081526020016000206001015460008088815260200190815260200160002060020160009054906101000a900460ff166000808981526020019081526020016000206003015493509350935093509193509193565b60405180608001604052808581526020018481526020018315158152602001828152506000806001548152602001908152602001600020600082015181600001556020820151816001015560408201518160020160006101000a81548160ff02191690831515021790555060608201518160030155905050600160008154809291906101c29061031f565b919050555050505050565b6000813590506101dc8161039c565b92915050565b6000813590506101f1816103b3565b92915050565b60006020828403121561020d5761020c610397565b5b600061021b848285016101e2565b91505092915050565b6000806000806080858703121561023e5761023d610397565b5b600061024c878288016101e2565b945050602061025d878288016101e2565b935050604061026e878288016101cd565b925050606061027f878288016101e2565b91505092959194509250565b61029481610309565b82525050565b6102a381610315565b82525050565b60006020820190506102be600083018461029a565b92915050565b60006080820190506102d9600083018761029a565b6102e6602083018661029a565b6102f3604083018561028b565b610300606083018461029a565b95945050505050565b60008115159050919050565b6000819050919050565b600061032a82610315565b91507fffffffffffffffffffffffffffffffffffffffffffffffffffffffffffffffff82141561035d5761035c610368565b5b600182019050919050565b7f4e487b7100000000000000000000000000000000000000000000000000000000600052601160045260246000fd5b600080fd5b6103a581610309565b81146103b057600080fd5b50565b6103bc81610315565b81146103c757600080fd5b5056fea264697066735822122096304b84b26e4f584e7ba810d0a618ffbaf78b6e46e6fbb00eaed5911f14dad564736f6c63430008070033",
			"opcodes": "PUSH1 0x80 PUSH1 0x40 MSTORE PUSH1 0x0 PUSH1 0x1 SSTORE CALLVALUE DUP1 ISZERO PUSH2 0x15 JUMPI PUSH1 0x0 DUP1 REVERT JUMPDEST POP PUSH2 0x400 DUP1 PUSH2 0x25 PUSH1 0x0 CODECOPY PUSH1 0x0 RETURN INVALID PUSH1 0x80 PUSH1 0x40 MSTORE CALLVALUE DUP1 ISZERO PUSH2 0x10 JUMPI PUSH1 0x0 DUP1 REVERT JUMPDEST POP PUSH1 0x4 CALLDATASIZE LT PUSH2 0x41 JUMPI PUSH1 0x0 CALLDATALOAD PUSH1 0xE0 SHR DUP1 PUSH4 0x1F8A1418 EQ PUSH2 0x46 JUMPI DUP1 PUSH4 0x90F0A6DF EQ PUSH2 0x64 JUMPI DUP1 PUSH4 0xFF10ABD3 EQ PUSH2 0x97 JUMPI JUMPDEST PUSH1 0x0 DUP1 REVERT JUMPDEST PUSH2 0x4E PUSH2 0xB3 JUMP JUMPDEST PUSH1 0x40 MLOAD PUSH2 0x5B SWAP2 SWAP1 PUSH2 0x2A9 JUMP JUMPDEST PUSH1 0x40 MLOAD DUP1 SWAP2 SUB SWAP1 RETURN JUMPDEST PUSH2 0x7E PUSH1 0x4 DUP1 CALLDATASIZE SUB DUP2 ADD SWAP1 PUSH2 0x79 SWAP2 SWAP1 PUSH2 0x1F7 JUMP JUMPDEST PUSH2 0xBD JUMP JUMPDEST PUSH1 0x40 MLOAD PUSH2 0x8E SWAP5 SWAP4 SWAP3 SWAP2 SWAP1 PUSH2 0x2C4 JUMP JUMPDEST PUSH1 0x40 MLOAD DUP1 SWAP2 SUB SWAP1 RETURN JUMPDEST PUSH2 0xB1 PUSH1 0x4 DUP1 CALLDATASIZE SUB DUP2 ADD SWAP1 PUSH2 0xAC SWAP2 SWAP1 PUSH2 0x224 JUMP JUMPDEST PUSH2 0x137 JUMP JUMPDEST STOP JUMPDEST PUSH1 0x0 PUSH1 0x1 SLOAD SWAP1 POP SWAP1 JUMP JUMPDEST PUSH1 0x0 DUP1 PUSH1 0x0 DUP1 PUSH1 0x0 DUP1 DUP7 DUP2 MSTORE PUSH1 0x20 ADD SWAP1 DUP2 MSTORE PUSH1 0x20 ADD PUSH1 0x0 KECCAK256 PUSH1 0x0 ADD SLOAD PUSH1 0x0 DUP1 DUP8 DUP2 MSTORE PUSH1 0x20 ADD SWAP1 DUP2 MSTORE PUSH1 0x20 ADD PUSH1 0x0 KECCAK256 PUSH1 0x1 ADD SLOAD PUSH1 0x0 DUP1 DUP9 DUP2 MSTORE PUSH1 0x20 ADD SWAP1 DUP2 MSTORE PUSH1 0x20 ADD PUSH1 0x0 KECCAK256 PUSH1 0x2 ADD PUSH1 0x0 SWAP1 SLOAD SWAP1 PUSH2 0x100 EXP SWAP1 DIV PUSH1 0xFF AND PUSH1 0x0 DUP1 DUP10 DUP2 MSTORE PUSH1 0x20 ADD SWAP1 DUP2 MSTORE PUSH1 0x20 ADD PUSH1 0x0 KECCAK256 PUSH1 0x3 ADD SLOAD SWAP4 POP SWAP4 POP SWAP4 POP SWAP4 POP SWAP2 SWAP4 POP SWAP2 SWAP4 JUMP JUMPDEST PUSH1 0x40 MLOAD DUP1 PUSH1 0x80 ADD PUSH1 0x40 MSTORE DUP1 DUP6 DUP2 MSTORE PUSH1 0x20 ADD DUP5 DUP2 MSTORE PUSH1 0x20 ADD DUP4 ISZERO ISZERO DUP2 MSTORE PUSH1 0x20 ADD DUP3 DUP2 MSTORE POP PUSH1 0x0 DUP1 PUSH1 0x1 SLOAD DUP2 MSTORE PUSH1 0x20 ADD SWAP1 DUP2 MSTORE PUSH1 0x20 ADD PUSH1 0x0 KECCAK256 PUSH1 0x0 DUP3 ADD MLOAD DUP2 PUSH1 0x0 ADD SSTORE PUSH1 0x20 DUP3 ADD MLOAD DUP2 PUSH1 0x1 ADD SSTORE PUSH1 0x40 DUP3 ADD MLOAD DUP2 PUSH1 0x2 ADD PUSH1 0x0 PUSH2 0x100 EXP DUP2 SLOAD DUP2 PUSH1 0xFF MUL NOT AND SWAP1 DUP4 ISZERO ISZERO MUL OR SWAP1 SSTORE POP PUSH1 0x60 DUP3 ADD MLOAD DUP2 PUSH1 0x3 ADD SSTORE SWAP1 POP POP PUSH1 0x1 PUSH1 0x0 DUP2 SLOAD DUP1 SWAP3 SWAP2 SWAP1 PUSH2 0x1C2 SWAP1 PUSH2 0x31F JUMP JUMPDEST SWAP2 SWAP1 POP SSTORE POP POP POP POP POP JUMP JUMPDEST PUSH1 0x0 DUP2 CALLDATALOAD SWAP1 POP PUSH2 0x1DC DUP2 PUSH2 0x39C JUMP JUMPDEST SWAP3 SWAP2 POP POP JUMP JUMPDEST PUSH1 0x0 DUP2 CALLDATALOAD SWAP1 POP PUSH2 0x1F1 DUP2 PUSH2 0x3B3 JUMP JUMPDEST SWAP3 SWAP2 POP POP JUMP JUMPDEST PUSH1 0x0 PUSH1 0x20 DUP3 DUP5 SUB SLT ISZERO PUSH2 0x20D JUMPI PUSH2 0x20C PUSH2 0x397 JUMP JUMPDEST JUMPDEST PUSH1 0x0 PUSH2 0x21B DUP5 DUP3 DUP6 ADD PUSH2 0x1E2 JUMP JUMPDEST SWAP2 POP POP SWAP3 SWAP2 POP POP JUMP JUMPDEST PUSH1 0x0 DUP1 PUSH1 0x0 DUP1 PUSH1 0x80 DUP6 DUP8 SUB SLT ISZERO PUSH2 0x23E JUMPI PUSH2 0x23D PUSH2 0x397 JUMP JUMPDEST JUMPDEST PUSH1 0x0 PUSH2 0x24C DUP8 DUP3 DUP9 ADD PUSH2 0x1E2 JUMP JUMPDEST SWAP5 POP POP PUSH1 0x20 PUSH2 0x25D DUP8 DUP3 DUP9 ADD PUSH2 0x1E2 JUMP JUMPDEST SWAP4 POP POP PUSH1 0x40 PUSH2 0x26E DUP8 DUP3 DUP9 ADD PUSH2 0x1CD JUMP JUMPDEST SWAP3 POP POP PUSH1 0x60 PUSH2 0x27F DUP8 DUP3 DUP9 ADD PUSH2 0x1E2 JUMP JUMPDEST SWAP2 POP POP SWAP3 SWAP6 SWAP2 SWAP5 POP SWAP3 POP JUMP JUMPDEST PUSH2 0x294 DUP2 PUSH2 0x309 JUMP JUMPDEST DUP3 MSTORE POP POP JUMP JUMPDEST PUSH2 0x2A3 DUP2 PUSH2 0x315 JUMP JUMPDEST DUP3 MSTORE POP POP JUMP JUMPDEST PUSH1 0x0 PUSH1 0x20 DUP3 ADD SWAP1 POP PUSH2 0x2BE PUSH1 0x0 DUP4 ADD DUP5 PUSH2 0x29A JUMP JUMPDEST SWAP3 SWAP2 POP POP JUMP JUMPDEST PUSH1 0x0 PUSH1 0x80 DUP3 ADD SWAP1 POP PUSH2 0x2D9 PUSH1 0x0 DUP4 ADD DUP8 PUSH2 0x29A JUMP JUMPDEST PUSH2 0x2E6 PUSH1 0x20 DUP4 ADD DUP7 PUSH2 0x29A JUMP JUMPDEST PUSH2 0x2F3 PUSH1 0x40 DUP4 ADD DUP6 PUSH2 0x28B JUMP JUMPDEST PUSH2 0x300 PUSH1 0x60 DUP4 ADD DUP5 PUSH2 0x29A JUMP JUMPDEST SWAP6 SWAP5 POP POP POP POP POP JUMP JUMPDEST PUSH1 0x0 DUP2 ISZERO ISZERO SWAP1 POP SWAP2 SWAP1 POP JUMP JUMPDEST PUSH1 0x0 DUP2 SWAP1 POP SWAP2 SWAP1 POP JUMP JUMPDEST PUSH1 0x0 PUSH2 0x32A DUP3 PUSH2 0x315 JUMP JUMPDEST SWAP2 POP PUSH32 0xFFFFFFFFFFFFFFFFFFFFFFFFFFFFFFFFFFFFFFFFFFFFFFFFFFFFFFFFFFFFFFFF DUP3 EQ ISZERO PUSH2 0x35D JUMPI PUSH2 0x35C PUSH2 0x368 JUMP JUMPDEST JUMPDEST PUSH1 0x1 DUP3 ADD SWAP1 POP SWAP2 SWAP1 POP JUMP JUMPDEST PUSH32 0x4E487B7100000000000000000000000000000000000000000000000000000000 PUSH1 0x0 MSTORE PUSH1 0x11 PUSH1 0x4 MSTORE PUSH1 0x24 PUSH1 0x0 REVERT JUMPDEST PUSH1 0x0 DUP1 REVERT JUMPDEST PUSH2 0x3A5 DUP2 PUSH2 0x309 JUMP JUMPDEST DUP2 EQ PUSH2 0x3B0 JUMPI PUSH1 0x0 DUP1 REVERT JUMPDEST POP JUMP JUMPDEST PUSH2 0x3BC DUP2 PUSH2 0x315 JUMP JUMPDEST DUP2 EQ PUSH2 0x3C7 JUMPI PUSH1 0x0 DUP1 REVERT JUMPDEST POP JUMP INVALID LOG2 PUSH5 0x6970667358 0x22 SLT KECCAK256 SWAP7 ADDRESS 0x4B DUP5 0xB2 PUSH15 0x4F584E7BA810D0A618FFBAF78B6E46 0xE6 0xFB 0xB0 0xE 0xAE 0xD5 SWAP2 0x1F EQ 0xDA 0xD5 PUSH5 0x736F6C6343 STOP ADDMOD SMOD STOP CALLER "
		},
		"gasEstimates": {
			"creation": {
				"codeDepositCost": "204800",
				"executionCost": "5251",
				"totalCost": "210051"
			},
			"external": {
				"createMemberGroup(uint256,uint256,bool,uint256)": "infinite",
				"getNumberOfMemberGroups()": "2415",
				"showMemberGroup(uint256)": "infinite"
			}
		},
		"methodIdentifiers": {
			"createMemberGroup(uint256,uint256,bool,uint256)": "ff10abd3",
			"getNumberOfMemberGroups()": "1f8a1418",
			"showMemberGroup(uint256)": "90f0a6df"
		}
	},
	"abi": [
		{
			"inputs": [
				{
					"internalType": "uint256",
					"name": "_groupId",
					"type": "uint256"
				},
				{
					"internalType": "uint256",
					"name": "_memberId",
					"type": "uint256"
				},
				{
					"internalType": "bool",
					"name": "_memberIsValidated",
					"type": "bool"
				},
				{
					"internalType": "uint256",
					"name": "_memberFoodOrder",
					"type": "uint256"
				}
			],
			"name": "createMemberGroup",
			"outputs": [],
			"stateMutability": "nonpayable",
			"type": "function"
		},
		{
			"inputs": [],
			"name": "getNumberOfMemberGroups",
			"outputs": [
				{
					"internalType": "uint256",
					"name": "",
					"type": "uint256"
				}
			],
			"stateMutability": "view",
			"type": "function"
		},
		{
			"inputs": [
				{
					"internalType": "uint256",
					"name": "_memberGroupId",
					"type": "uint256"
				}
			],
			"name": "showMemberGroup",
			"outputs": [
				{
					"internalType": "uint256",
					"name": "",
					"type": "uint256"
				},
				{
					"internalType": "uint256",
					"name": "",
					"type": "uint256"
				},
				{
					"internalType": "bool",
					"name": "",
					"type": "bool"
				},
				{
					"internalType": "uint256",
					"name": "",
					"type": "uint256"
				}
			],
			"stateMutability": "view",
			"type": "function"
		}
	]
}