{
  "contractName": "EventHub",
  "abi": [
    {
      "anonymous": false,
      "inputs": [
        {
          "indexed": false,
          "internalType": "string",
          "name": "eventID",
          "type": "string"
        },
        {
          "indexed": false,
          "internalType": "address",
          "name": "attendeeAddress",
          "type": "address"
        }
      ],
      "name": "ConfirmedAttendee",
      "type": "event"
    },
    {
      "anonymous": false,
      "inputs": [
        {
          "indexed": false,
          "internalType": "string",
          "name": "eventID",
          "type": "string"
        }
      ],
      "name": "DepositsPaidOut",
      "type": "event"
    },
    {
      "anonymous": false,
      "inputs": [
        {
          "indexed": false,
          "internalType": "string",
          "name": "eventID",
          "type": "string"
        },
        {
          "indexed": false,
          "internalType": "address",
          "name": "creatorAddress",
          "type": "address"
        },
        {
          "indexed": false,
          "internalType": "uint256",
          "name": "eventTimestamp",
          "type": "uint256"
        },
        {
          "indexed": false,
          "internalType": "uint256",
          "name": "maxCapacity",
          "type": "uint256"
        },
        {
          "indexed": false,
          "internalType": "uint256",
          "name": "deposit",
          "type": "uint256"
        },
        {
          "indexed": false,
          "internalType": "string",
          "name": "eventDataCID",
          "type": "string"
        }
      ],
      "name": "NewEventCreated",
      "type": "event"
    },
    {
      "anonymous": false,
      "inputs": [
        {
          "indexed": false,
          "internalType": "string",
          "name": "eventID",
          "type": "string"
        },
        {
          "indexed": false,
          "internalType": "address",
          "name": "attendeeAddress",
          "type": "address"
        }
      ],
      "name": "NewRSVP",
      "type": "event"
    },
    {
      "inputs": [
        {
          "internalType": "string",
          "name": "",
          "type": "string"
        }
      ],
      "name": "idToEvent",
      "outputs": [
        {
          "internalType": "string",
          "name": "eventId",
          "type": "string"
        },
        {
          "internalType": "string",
          "name": "eventDataCID",
          "type": "string"
        },
        {
          "internalType": "address",
          "name": "eventOwner",
          "type": "address"
        },
        {
          "internalType": "uint256",
          "name": "eventTimestamp",
          "type": "uint256"
        },
        {
          "internalType": "uint256",
          "name": "deposit",
          "type": "uint256"
        },
        {
          "internalType": "uint256",
          "name": "maxCapacity",
          "type": "uint256"
        },
        {
          "internalType": "bool",
          "name": "paidOut",
          "type": "bool"
        }
      ],
      "stateMutability": "view",
      "type": "function",
      "constant": true
    },
    {
      "inputs": [],
      "name": "totalEvents",
      "outputs": [
        {
          "internalType": "uint256",
          "name": "",
          "type": "uint256"
        }
      ],
      "stateMutability": "view",
      "type": "function",
      "constant": true
    },
    {
      "inputs": [
        {
          "internalType": "uint256",
          "name": "eventTimestamp",
          "type": "uint256"
        },
        {
          "internalType": "uint256",
          "name": "deposit",
          "type": "uint256"
        },
        {
          "internalType": "uint256",
          "name": "maxCapacity",
          "type": "uint256"
        },
        {
          "internalType": "string",
          "name": "eventDataCID",
          "type": "string"
        },
        {
          "internalType": "string",
          "name": "eventId",
          "type": "string"
        }
      ],
      "name": "createNewEvent",
      "outputs": [
        {
          "internalType": "string",
          "name": "",
          "type": "string"
        }
      ],
      "stateMutability": "nonpayable",
      "type": "function"
    },
    {
      "inputs": [
        {
          "internalType": "string",
          "name": "eventId",
          "type": "string"
        }
      ],
      "name": "createNewRSVP",
      "outputs": [],
      "stateMutability": "payable",
      "type": "function",
      "payable": true
    },
    {
      "inputs": [
        {
          "internalType": "string",
          "name": "eventId",
          "type": "string"
        }
      ],
      "name": "confirmAllAttendees",
      "outputs": [],
      "stateMutability": "nonpayable",
      "type": "function"
    },
    {
      "inputs": [
        {
          "internalType": "string",
          "name": "eventId",
          "type": "string"
        },
        {
          "internalType": "address",
          "name": "attendee",
          "type": "address"
        }
      ],
      "name": "confirmAttendee",
      "outputs": [],
      "stateMutability": "nonpayable",
      "type": "function"
    },
    {
      "inputs": [
        {
          "internalType": "string",
          "name": "eventId",
          "type": "string"
        }
      ],
      "name": "withdrawUnclaimedDeposits",
      "outputs": [],
      "stateMutability": "nonpayable",
      "type": "function"
    },
    {
      "inputs": [
        {
          "internalType": "uint256",
          "name": "i",
          "type": "uint256"
        }
      ],
      "name": "getEventId",
      "outputs": [
        {
          "internalType": "string",
          "name": "",
          "type": "string"
        }
      ],
      "stateMutability": "view",
      "type": "function",
      "constant": true
    },
    {
      "inputs": [
        {
          "internalType": "string",
          "name": "eventID",
          "type": "string"
        }
      ],
      "name": "getEvent",
      "outputs": [
        {
          "internalType": "string",
          "name": "eventDataCID",
          "type": "string"
        },
        {
          "internalType": "address",
          "name": "eventOwner",
          "type": "address"
        },
        {
          "internalType": "uint256",
          "name": "eventTimestamp",
          "type": "uint256"
        },
        {
          "internalType": "uint256",
          "name": "maxCapacity",
          "type": "uint256"
        },
        {
          "internalType": "uint256",
          "name": "deposit",
          "type": "uint256"
        },
        {
          "internalType": "string",
          "name": "eventId",
          "type": "string"
        }
      ],
      "stateMutability": "view",
      "type": "function",
      "constant": true
    },
    {
      "inputs": [],
      "name": "getEventLength",
      "outputs": [
        {
          "internalType": "uint256",
          "name": "",
          "type": "uint256"
        }
      ],
      "stateMutability": "view",
      "type": "function",
      "constant": true
    },
    {
      "inputs": [
        {
          "internalType": "string",
          "name": "eventId",
          "type": "string"
        }
      ],
      "name": "getConfirmedRSVPs",
      "outputs": [
        {
          "internalType": "address[]",
          "name": "",
          "type": "address[]"
        }
      ],
      "stateMutability": "view",
      "type": "function",
      "constant": true
    },
    {
      "inputs": [],
      "name": "test",
      "outputs": [
        {
          "internalType": "uint256",
          "name": "",
          "type": "uint256"
        }
      ],
      "stateMutability": "view",
      "type": "function",
      "constant": true
    }
  ],
  "bytecode": "0x6080604052600460005534801561001557600080fd5b50612c1d806100256000396000f3fe6080604052600436106100a75760003560e01c8063c3be559b11610064578063c3be559b146101ba578063e1902063146101f7578063e495106b14610239578063ebf2325714610255578063f8a8fd6d14610298578063ff910c9b146102c3576100a7565b80635c98dfa1146100ac5780637130026e146100d75780639635069214610100578063aad4ba3914610129578063b07e369714610152578063ba8706861461018f575b600080fd5b3480156100b857600080fd5b506100c1610300565b6040516100ce919061267a565b60405180910390f35b3480156100e357600080fd5b506100fe60048036038101906100f99190611f26565b61030d565b005b34801561010c57600080fd5b5061012760048036038101906101229190611ee1565b61088f565b005b34801561013557600080fd5b50610150600480360381019061014b9190611ee1565b610de0565b005b34801561015e57600080fd5b5061017960048036038101906101749190611fe8565b6111cf565b604051610186919061244c565b60405180910390f35b34801561019b57600080fd5b506101a4611528565b6040516101b1919061267a565b60405180910390f35b3480156101c657600080fd5b506101e160048036038101906101dc9190611fbf565b61152e565b6040516101ee919061244c565b60405180910390f35b34801561020357600080fd5b5061021e60048036038101906102199190611ee1565b611604565b6040516102309695949392919061246e565b60405180910390f35b610253600480360381019061024e9190611ee1565b611832565b005b34801561026157600080fd5b5061027c60048036038101906102779190611f7e565b6119fc565b60405161028f97969594939291906124dd565b60405180910390f35b3480156102a457600080fd5b506102ad611b91565b6040516102ba919061267a565b60405180910390f35b3480156102cf57600080fd5b506102ea60048036038101906102e59190611ee1565b611b9a565b6040516102f79190612361565b60405180910390f35b6000600280549050905090565b600060038484604051610321929190612333565b908152602001604051809103902090508060020160009054906101000a900473ffffffffffffffffffffffffffffffffffffffff1673ffffffffffffffffffffffffffffffffffffffff163373ffffffffffffffffffffffffffffffffffffffff16146103c3576040517f08c379a00000000000000000000000000000000000000000000000000000000081526004016103ba9061263a565b60405180910390fd5b600080600090505b82600601805490508160ff1610156104fa578373ffffffffffffffffffffffffffffffffffffffff16836006018260ff1681548110610433577f4e487b7100000000000000000000000000000000000000000000000000000000600052603260045260246000fd5b9060005260206000200160009054906101000a900473ffffffffffffffffffffffffffffffffffffffff1673ffffffffffffffffffffffffffffffffffffffff1614156104e757826006018160ff16815481106104b9577f4e487b7100000000000000000000000000000000000000000000000000000000600052603260045260246000fd5b9060005260206000200160009054906101000a900473ffffffffffffffffffffffffffffffffffffffff1691505b80806104f29061297d565b9150506103cb565b508273ffffffffffffffffffffffffffffffffffffffff168173ffffffffffffffffffffffffffffffffffffffff1614610569576040517f08c379a0000000000000000000000000000000000000000000000000000000008152600401610560906125fa565b60405180910390fd5b60005b82600701805490508160ff161015610669578373ffffffffffffffffffffffffffffffffffffffff16836007018260ff16815481106105d4577f4e487b7100000000000000000000000000000000000000000000000000000000600052603260045260246000fd5b9060005260206000200160009054906101000a900473ffffffffffffffffffffffffffffffffffffffff1673ffffffffffffffffffffffffffffffffffffffff161415610656576040517f08c379a000000000000000000000000000000000000000000000000000000000815260040161064d9061255a565b60405180910390fd5b80806106619061297d565b91505061056c565b50600015158260080160009054906101000a900460ff161515146106c2576040517f08c379a00000000000000000000000000000000000000000000000000000000081526004016106b99061257a565b60405180910390fd5b81600701839080600181540180825580915050600190039060005260206000200160009091909190916101000a81548173ffffffffffffffffffffffffffffffffffffffff021916908373ffffffffffffffffffffffffffffffffffffffff16021790555060008373ffffffffffffffffffffffffffffffffffffffff1683600401546040516107519061234c565b60006040518083038185875af1925050503d806000811461078e576040519150601f19603f3d011682016040523d82523d6000602084013e610793565b606091505b505090508061080c57826007018054806107d6577f4e487b7100000000000000000000000000000000000000000000000000000000600052603160045260246000fd5b6001900381819060005260206000200160006101000a81549073ffffffffffffffffffffffffffffffffffffffff021916905590555b8061084c576040517f08c379a00000000000000000000000000000000000000000000000000000000081526004016108439061259a565b60405180910390fd5b7f01af219905d550e71d91f4f3db85bd1cee69235123c07aa81040ec7fa52bfb1286868660405161087f939291906123a7565b60405180910390a1505050505050565b6000600383836040516108a3929190612333565b9081526020016040518091039020604051806101200160405290816000820180546108cd906128d1565b80601f01602080910402602001604051908101604052809291908181526020018280546108f9906128d1565b80156109465780601f1061091b57610100808354040283529160200191610946565b820191906000526020600020905b81548152906001019060200180831161092957829003601f168201915b5050505050815260200160018201805461095f906128d1565b80601f016020809104026020016040519081016040528092919081815260200182805461098b906128d1565b80156109d85780601f106109ad576101008083540402835291602001916109d8565b820191906000526020600020905b8154815290600101906020018083116109bb57829003601f168201915b505050505081526020016002820160009054906101000a900473ffffffffffffffffffffffffffffffffffffffff1673ffffffffffffffffffffffffffffffffffffffff1673ffffffffffffffffffffffffffffffffffffffff16815260200160038201548152602001600482015481526020016005820154815260200160068201805480602002602001604051908101604052809291908181526020018280548015610ada57602002820191906000526020600020905b8160009054906101000a900473ffffffffffffffffffffffffffffffffffffffff1673ffffffffffffffffffffffffffffffffffffffff1681526020019060010190808311610a90575b5050505050815260200160078201805480602002602001604051908101604052809291908181526020018280548015610b6857602002820191906000526020600020905b8160009054906101000a900473ffffffffffffffffffffffffffffffffffffffff1673ffffffffffffffffffffffffffffffffffffffff1681526020019060010190808311610b1e575b505050505081526020016008820160009054906101000a900460ff161515151581525050905080610100015115610bd4576040517f08c379a0000000000000000000000000000000000000000000000000000000008152600401610bcb906125da565b60405180910390fd5b62093a808160600151610be79190612756565b421015610c29576040517f08c379a0000000000000000000000000000000000000000000000000000000008152600401610c209061265a565b60405180910390fd5b806040015173ffffffffffffffffffffffffffffffffffffffff163373ffffffffffffffffffffffffffffffffffffffff1614610c9b576040517f08c379a0000000000000000000000000000000000000000000000000000000008152600401610c929061261a565b60405180910390fd5b60008160e00151518260c0015151610cb39190612806565b90506000826080015182610cc791906127ac565b905060018361010001901515908115158152505060003373ffffffffffffffffffffffffffffffffffffffff1682604051610d019061234c565b60006040518083038185875af1925050503d8060008114610d3e576040519150601f19603f3d011682016040523d82523d6000602084013e610d43565b606091505b5050905080610d5f576000846101000190151590811515815250505b80610d9f576040517f08c379a0000000000000000000000000000000000000000000000000000000008152600401610d969061259a565b60405180910390fd5b7f951481b5ab03382781591c75ab7640501967f2896d66ab36a6576a1d2c9de5948686604051610dd0929190612383565b60405180910390a1505050505050565b600060038383604051610df4929190612333565b908152602001604051809103902060405180610120016040529081600082018054610e1e906128d1565b80601f0160208091040260200160405190810160405280929190818152602001828054610e4a906128d1565b8015610e975780601f10610e6c57610100808354040283529160200191610e97565b820191906000526020600020905b815481529060010190602001808311610e7a57829003601f168201915b50505050508152602001600182018054610eb0906128d1565b80601f0160208091040260200160405190810160405280929190818152602001828054610edc906128d1565b8015610f295780601f10610efe57610100808354040283529160200191610f29565b820191906000526020600020905b815481529060010190602001808311610f0c57829003601f168201915b505050505081526020016002820160009054906101000a900473ffffffffffffffffffffffffffffffffffffffff1673ffffffffffffffffffffffffffffffffffffffff1673ffffffffffffffffffffffffffffffffffffffff1681526020016003820154815260200160048201548152602001600582015481526020016006820180548060200260200160405190810160405280929190818152602001828054801561102b57602002820191906000526020600020905b8160009054906101000a900473ffffffffffffffffffffffffffffffffffffffff1673ffffffffffffffffffffffffffffffffffffffff1681526020019060010190808311610fe1575b50505050508152602001600782018054806020026020016040519081016040528092919081815260200182805480156110b957602002820191906000526020600020905b8160009054906101000a900473ffffffffffffffffffffffffffffffffffffffff1673ffffffffffffffffffffffffffffffffffffffff168152602001906001019080831161106f575b505050505081526020016008820160009054906101000a900460ff1615151515815250509050806040015173ffffffffffffffffffffffffffffffffffffffff163373ffffffffffffffffffffffffffffffffffffffff1614611151576040517f08c379a00000000000000000000000000000000000000000000000000000000081526004016111489061263a565b60405180910390fd5b60005b8160c00151518160ff1610156111c9576111b684848460c001518460ff16815181106111a9577f4e487b7100000000000000000000000000000000000000000000000000000000600052603260045260246000fd5b602002602001015161030d565b80806111c19061297d565b915050611154565b50505050565b606080606060405180610120016040528086868080601f016020809104026020016040519081016040528093929190818152602001838380828437600081840152601f19601f82011690508083019250505050505050815260200188888080601f016020809104026020016040519081016040528093929190818152602001838380828437600081840152601f19601f8201169050808301925050505050505081526020013373ffffffffffffffffffffffffffffffffffffffff1681526020018b81526020018a815260200189815260200183815260200182815260200160001515815250600386866040516112c7929190612333565b908152602001604051809103902060008201518160000190805190602001906112f1929190611c52565b50602082015181600101908051906020019061130e929190611c52565b5060408201518160020160006101000a81548173ffffffffffffffffffffffffffffffffffffffff021916908373ffffffffffffffffffffffffffffffffffffffff160217905550606082015181600301556080820151816004015560a0820151816005015560c0820151816006019080519060200190611390929190611cd8565b5060e08201518160070190805190602001906113ad929190611cd8565b506101008201518160080160006101000a81548160ff0219169083151502179055509050507f9f204c215b1f4f43a33a1b7272e476938a219d677894d59937dfb6e1554a2ab28585338d8c8e8d8d60405161140f9897969594939291906123d9565b60405180910390a16001600081548092919061142a90612934565b9190505550600285859091806001815401808255809150506001900390600052602060002001600090919290919290919290919250919061146c929190611d62565b506003858560405161147f929190612333565b9081526020016040518091039020600001805461149b906128d1565b80601f01602080910402602001604051908101604052809291908181526020018280546114c7906128d1565b80156115145780601f106114e957610100808354040283529160200191611514565b820191906000526020600020905b8154815290600101906020018083116114f757829003601f168201915b505050505092505050979650505050505050565b60015481565b60606002828154811061156a577f4e487b7100000000000000000000000000000000000000000000000000000000600052603260045260246000fd5b90600052602060002001805461157f906128d1565b80601f01602080910402602001604051908101604052809291908181526020018280546115ab906128d1565b80156115f85780601f106115cd576101008083540402835291602001916115f8565b820191906000526020600020905b8154815290600101906020018083116115db57829003601f168201915b50505050509050919050565b6060600080600080606060038888604051611620929190612333565b908152602001604051809103902060010160038989604051611643929190612333565b908152602001604051809103902060020160009054906101000a900473ffffffffffffffffffffffffffffffffffffffff1660038a8a604051611687929190612333565b90815260200160405180910390206003015460038b8b6040516116ab929190612333565b90815260200160405180910390206005015460038c8c6040516116cf929190612333565b90815260200160405180910390206004015460038d8d6040516116f3929190612333565b9081526020016040518091039020600001858054611710906128d1565b80601f016020809104026020016040519081016040528092919081815260200182805461173c906128d1565b80156117895780601f1061175e57610100808354040283529160200191611789565b820191906000526020600020905b81548152906001019060200180831161176c57829003601f168201915b5050505050955080805461179c906128d1565b80601f01602080910402602001604051908101604052809291908181526020018280546117c8906128d1565b80156118155780601f106117ea57610100808354040283529160200191611815565b820191906000526020600020905b8154815290600101906020018083116117f857829003601f168201915b505050505090509550955095509550955095509295509295509295565b600060038383604051611846929190612333565b9081526020016040518091039020905060005b81600601805490508160ff161015611956573373ffffffffffffffffffffffffffffffffffffffff16826006018260ff16815481106118c1577f4e487b7100000000000000000000000000000000000000000000000000000000600052603260045260246000fd5b9060005260206000200160009054906101000a900473ffffffffffffffffffffffffffffffffffffffff1673ffffffffffffffffffffffffffffffffffffffff161415611943576040517f08c379a000000000000000000000000000000000000000000000000000000000815260040161193a906125ba565b60405180910390fd5b808061194e9061297d565b915050611859565b5080600601339080600181540180825580915050600190039060005260206000200160009091909190916101000a81548173ffffffffffffffffffffffffffffffffffffffff021916908373ffffffffffffffffffffffffffffffffffffffff1602179055507fabcce16e56e262edb0b0f42f67799f9af66be1921b5e65285ea5c687d9b1e6188383336040516119ef939291906123a7565b60405180910390a1505050565b600381805160208101820180518482526020830160208501208183528095505050505050600091509050806000018054611a35906128d1565b80601f0160208091040260200160405190810160405280929190818152602001828054611a61906128d1565b8015611aae5780601f10611a8357610100808354040283529160200191611aae565b820191906000526020600020905b815481529060010190602001808311611a9157829003601f168201915b505050505090806001018054611ac3906128d1565b80601f0160208091040260200160405190810160405280929190818152602001828054611aef906128d1565b8015611b3c5780601f10611b1157610100808354040283529160200191611b3c565b820191906000526020600020905b815481529060010190602001808311611b1f57829003601f168201915b5050505050908060020160009054906101000a900473ffffffffffffffffffffffffffffffffffffffff16908060030154908060040154908060050154908060080160009054906101000a900460ff16905087565b60008054905090565b6060600060038484604051611bb0929190612333565b9081526020016040518091039020905080600601805480602002602001604051908101604052809291908181526020018280548015611c4457602002820191906000526020600020905b8160009054906101000a900473ffffffffffffffffffffffffffffffffffffffff1673ffffffffffffffffffffffffffffffffffffffff1681526020019060010190808311611bfa575b505050505091505092915050565b828054611c5e906128d1565b90600052602060002090601f016020900481019282611c805760008555611cc7565b82601f10611c9957805160ff1916838001178555611cc7565b82800160010185558215611cc7579182015b82811115611cc6578251825591602001919060010190611cab565b5b509050611cd49190611de8565b5090565b828054828255906000526020600020908101928215611d51579160200282015b82811115611d505782518260006101000a81548173ffffffffffffffffffffffffffffffffffffffff021916908373ffffffffffffffffffffffffffffffffffffffff16021790555091602001919060010190611cf8565b5b509050611d5e9190611de8565b5090565b828054611d6e906128d1565b90600052602060002090601f016020900481019282611d905760008555611dd7565b82601f10611da957803560ff1916838001178555611dd7565b82800160010185558215611dd7579182015b82811115611dd6578235825591602001919060010190611dbb565b5b509050611de49190611de8565b5090565b5b80821115611e01576000816000905550600101611de9565b5090565b6000611e18611e13846126ba565b612695565b905082815260208101848484011115611e3057600080fd5b611e3b84828561288f565b509392505050565b600081359050611e5281612bb9565b92915050565b60008083601f840112611e6a57600080fd5b8235905067ffffffffffffffff811115611e8357600080fd5b602083019150836001820283011115611e9b57600080fd5b9250929050565b600082601f830112611eb357600080fd5b8135611ec3848260208601611e05565b91505092915050565b600081359050611edb81612bd0565b92915050565b60008060208385031215611ef457600080fd5b600083013567ffffffffffffffff811115611f0e57600080fd5b611f1a85828601611e58565b92509250509250929050565b600080600060408486031215611f3b57600080fd5b600084013567ffffffffffffffff811115611f5557600080fd5b611f6186828701611e58565b93509350506020611f7486828701611e43565b9150509250925092565b600060208284031215611f9057600080fd5b600082013567ffffffffffffffff811115611faa57600080fd5b611fb684828501611ea2565b91505092915050565b600060208284031215611fd157600080fd5b6000611fdf84828501611ecc565b91505092915050565b600080600080600080600060a0888a03121561200357600080fd5b60006120118a828b01611ecc565b97505060206120228a828b01611ecc565b96505060406120338a828b01611ecc565b955050606088013567ffffffffffffffff81111561205057600080fd5b61205c8a828b01611e58565b9450945050608088013567ffffffffffffffff81111561207b57600080fd5b6120878a828b01611e58565b925092505092959891949750929550565b60006120a483836120b0565b60208301905092915050565b6120b98161283a565b82525050565b6120c88161283a565b82525050565b60006120d9826126fb565b6120e3818561271e565b93506120ee836126eb565b8060005b8381101561211f5781516121068882612098565b975061211183612711565b9250506001810190506120f2565b5085935050505092915050565b6121358161284c565b82525050565b6000612147838561273a565b935061215483858461288f565b61215d83612a34565b840190509392505050565b6000612174838561274b565b935061218183858461288f565b82840190509392505050565b600061219882612706565b6121a2818561273a565b93506121b281856020860161289e565b6121bb81612a34565b840191505092915050565b60006121d3600f8361273a565b91506121de82612a45565b602082019050919050565b60006121f660108361273a565b915061220182612a6e565b602082019050919050565b600061221960148361273a565b915061222482612a97565b602082019050919050565b600061223c60118361273a565b915061224782612ac0565b602082019050919050565b600061225f600c8361273a565b915061226a82612ae9565b602082019050919050565b600061228260128361273a565b915061228d82612b12565b602082019050919050565b60006122a560008361272f565b91506122b082612b3b565b600082019050919050565b60006122c860138361273a565b91506122d382612b3e565b602082019050919050565b60006122eb600e8361273a565b91506122f682612b67565b602082019050919050565b600061230e60098361273a565b915061231982612b90565b602082019050919050565b61232d81612878565b82525050565b6000612340828486612168565b91508190509392505050565b600061235782612298565b9150819050919050565b6000602082019050818103600083015261237b81846120ce565b905092915050565b6000602082019050818103600083015261239e81848661213b565b90509392505050565b600060408201905081810360008301526123c281858761213b565b90506123d160208301846120bf565b949350505050565b600060c08201905081810360008301526123f4818a8c61213b565b905061240360208301896120bf565b6124106040830188612324565b61241d6060830187612324565b61242a6080830186612324565b81810360a083015261243d81848661213b565b90509998505050505050505050565b60006020820190508181036000830152612466818461218d565b905092915050565b600060c0820190508181036000830152612488818961218d565b905061249760208301886120bf565b6124a46040830187612324565b6124b16060830186612324565b6124be6080830185612324565b81810360a08301526124d0818461218d565b9050979650505050505050565b600060e08201905081810360008301526124f7818a61218d565b9050818103602083015261250b818961218d565b905061251a60408301886120bf565b6125276060830187612324565b6125346080830186612324565b61254160a0830185612324565b61254e60c083018461212c565b98975050505050505050565b60006020820190508181036000830152612573816121c6565b9050919050565b60006020820190508181036000830152612593816121e9565b9050919050565b600060208201905081810360008301526125b38161220c565b9050919050565b600060208201905081810360008301526125d38161222f565b9050919050565b600060208201905081810360008301526125f381612252565b9050919050565b6000602082019050818103600083015261261381612275565b9050919050565b60006020820190508181036000830152612633816122bb565b9050919050565b60006020820190508181036000830152612653816122de565b9050919050565b6000602082019050818103600083015261267381612301565b9050919050565b600060208201905061268f6000830184612324565b92915050565b600061269f6126b0565b90506126ab8282612903565b919050565b6000604051905090565b600067ffffffffffffffff8211156126d5576126d4612a05565b5b6126de82612a34565b9050602081019050919050565b6000819050602082019050919050565b600081519050919050565b600081519050919050565b6000602082019050919050565b600082825260208201905092915050565b600081905092915050565b600082825260208201905092915050565b600081905092915050565b600061276182612878565b915061276c83612878565b9250827fffffffffffffffffffffffffffffffffffffffffffffffffffffffffffffffff038211156127a1576127a06129a7565b5b828201905092915050565b60006127b782612878565b91506127c283612878565b9250817fffffffffffffffffffffffffffffffffffffffffffffffffffffffffffffffff04831182151516156127fb576127fa6129a7565b5b828202905092915050565b600061281182612878565b915061281c83612878565b92508282101561282f5761282e6129a7565b5b828203905092915050565b600061284582612858565b9050919050565b60008115159050919050565b600073ffffffffffffffffffffffffffffffffffffffff82169050919050565b6000819050919050565b600060ff82169050919050565b82818337600083830152505050565b60005b838110156128bc5780820151818401526020810190506128a1565b838111156128cb576000848401525b50505050565b600060028204905060018216806128e957607f821691505b602082108114156128fd576128fc6129d6565b5b50919050565b61290c82612a34565b810181811067ffffffffffffffff8211171561292b5761292a612a05565b5b80604052505050565b600061293f82612878565b91507fffffffffffffffffffffffffffffffffffffffffffffffffffffffffffffffff821415612972576129716129a7565b5b600182019050919050565b600061298882612882565b915060ff82141561299c5761299b6129a7565b5b600182019050919050565b7f4e487b7100000000000000000000000000000000000000000000000000000000600052601160045260246000fd5b7f4e487b7100000000000000000000000000000000000000000000000000000000600052602260045260246000fd5b7f4e487b7100000000000000000000000000000000000000000000000000000000600052604160045260246000fd5b6000601f19601f8301169050919050565b7f414c524541445920434c41494d45440000000000000000000000000000000000600082015250565b7f414c52454144592050414944204f555400000000000000000000000000000000600082015250565b7f4661696c656420746f2073656e64204574686572000000000000000000000000600082015250565b7f414c524541445920434f4e4649524d4544000000000000000000000000000000600082015250565b7f414c524541445920504149440000000000000000000000000000000000000000600082015250565b7f4e4f205253565020544f20434f4e4649524d0000000000000000000000000000600082015250565b50565b7f4d555354204245204556454e54204f574e455200000000000000000000000000600082015250565b7f4e4f5420415554484f52495a4544000000000000000000000000000000000000600082015250565b7f544f4f204541524c590000000000000000000000000000000000000000000000600082015250565b612bc28161283a565b8114612bcd57600080fd5b50565b612bd981612878565b8114612be457600080fd5b5056fea26469706673582212206213d345e840773d0b9b1dbddc13db0aceef803186394351b5028a4e1ea05eb464736f6c63430008030033",
  "immutableReferences": {},
  "source": "//SPDX-License-Identifier: MIT\npragma solidity ^0.8.0;\n\ncontract EventHub {\n    uint myNum = 4;\n    uint256 public totalEvents;\n    string[] eventIds;\n\n    event NewEventCreated(\n        string eventID,\n        address creatorAddress,\n        uint256 eventTimestamp,\n        uint256 maxCapacity,\n        uint256 deposit,\n        string eventDataCID\n    );\n\n    event NewRSVP(string eventID, address attendeeAddress);\n\n    event ConfirmedAttendee(string eventID, address attendeeAddress);\n\n    event DepositsPaidOut(string eventID);\n\n    struct CreateEvent {\n        string eventId;\n        string eventDataCID;\n        address eventOwner;\n        uint256 eventTimestamp;\n        uint256 deposit;\n        uint256 maxCapacity;\n        address[] confirmedRSVPs;\n        address[] claimedRSVPs;\n        bool paidOut;\n    }\n\n    mapping(string => CreateEvent) public idToEvent;\n\n    function createNewEvent(\n        uint256 eventTimestamp,\n        uint256 deposit,\n        uint256 maxCapacity,\n        string calldata eventDataCID,\n        string calldata eventId\n    ) external returns(string memory) {\n        // generate an eventID based on other things passed in to generate a hash\n//        bytes32 eventId = keccak256(\n//            abi.encodePacked(\n//                msg.sender,\n//                address(this),\n//                eventTimestamp,\n//                deposit,\n//                maxCapacity\n//            )\n//        );\n\n        address[] memory confirmedRSVPs;\n        address[] memory claimedRSVPs;\n\n        // this creates a new CreateEvent struct and adds it to the idToEvent mapping\n        idToEvent[eventId] = CreateEvent(\n            eventId,\n            eventDataCID,\n            msg.sender,\n            eventTimestamp,\n            deposit,\n            maxCapacity,\n            confirmedRSVPs,\n            claimedRSVPs,\n            false\n        );\n\n        emit NewEventCreated(\n            eventId,\n            msg.sender,\n            eventTimestamp,\n            maxCapacity,\n            deposit,\n            eventDataCID\n        );\n        totalEvents ++;\n        eventIds.push(eventId);\n        return idToEvent[eventId].eventId;\n    }\n\n    function createNewRSVP(string calldata eventId) external payable {\n        // look up event from our mapping\n        CreateEvent storage myEvent = idToEvent[eventId];\n\n        // transfer deposit to our contract / require that they send in enough ETH to cover the deposit requirement of this specific event\n//        require(msg.value == myEvent.deposit, \"NOT ENOUGH\"); TODO: why not working.\n\n        // require that the event hasn't already happened (<eventTimestamp)\n//        require(block.timestamp <= myEvent.eventTimestamp, \"ALREADY HAPPENED\"); TODO: why is saying happened.\n\n        // make sure event is under max capacity\n//        require(\n//            myEvent.confirmedRSVPs.length < myEvent.maxCapacity,\n//            \"This event has reached capacity\"\n//        );\n\n        // require that msg.sender isn't already in myEvent.confirmedRSVPs AKA hasn't already RSVP'd\n        for (uint8 i = 0; i < myEvent.confirmedRSVPs.length; i++) {\n            require(\n                myEvent.confirmedRSVPs[i] != msg.sender,\n                \"ALREADY CONFIRMED\"\n            );\n        }\n\n        myEvent.confirmedRSVPs.push(payable(msg.sender));\n        emit NewRSVP(eventId, msg.sender);\n    }\n\n    function confirmAllAttendees(string calldata eventId) external {\n        // look up event from our struct with the eventId\n        CreateEvent memory myEvent = idToEvent[eventId];\n\n        // make sure you require that msg.sender is the owner of the event\n        require(msg.sender == myEvent.eventOwner, \"NOT AUTHORIZED\");\n\n        // confirm each attendee in the rsvp array\n        for (uint8 i = 0; i < myEvent.confirmedRSVPs.length; i++) {\n            confirmAttendee(eventId, myEvent.confirmedRSVPs[i]);\n        }\n    }\n\n    function confirmAttendee(string calldata eventId, address attendee) public {\n        // look up event from our struct using the eventId\n        CreateEvent storage myEvent = idToEvent[eventId];\n\n        // require that msg.sender is the owner of the event - only the host should be able to check people in\n        require(msg.sender == myEvent.eventOwner, \"NOT AUTHORIZED\");\n\n        // require that attendee trying to check in actually RSVP'd\n        address rsvpConfirm;\n\n        for (uint8 i = 0; i < myEvent.confirmedRSVPs.length; i++) {\n            if (myEvent.confirmedRSVPs[i] == attendee) {\n                rsvpConfirm = myEvent.confirmedRSVPs[i];\n            }\n        }\n\n        require(rsvpConfirm == attendee, \"NO RSVP TO CONFIRM\");\n\n        // require that attendee is NOT already in the claimedRSVPs list AKA make sure they haven't already checked in\n        for (uint8 i = 0; i < myEvent.claimedRSVPs.length; i++) {\n            require(myEvent.claimedRSVPs[i] != attendee, \"ALREADY CLAIMED\");\n        }\n\n        // require that deposits are not already claimed by the event owner\n        require(myEvent.paidOut == false, \"ALREADY PAID OUT\");\n\n        // add the attendee to the claimedRSVPs list\n        myEvent.claimedRSVPs.push(attendee);\n\n        // sending eth back to the staker `https://solidity-by-example.org/sending-ether`\n        (bool sent, ) = attendee.call{value: myEvent.deposit}(\"\");\n\n        // if this fails, remove the user from the array of claimed RSVPs\n        if (!sent) {\n            myEvent.claimedRSVPs.pop();\n        }\n\n        require(sent, \"Failed to send Ether\");\n        emit ConfirmedAttendee(eventId, attendee);\n    }\n\n    function withdrawUnclaimedDeposits(string calldata eventId) external {\n        // look up event\n        CreateEvent memory myEvent = idToEvent[eventId];\n\n        // check that the paidOut boolean still equals false AKA the money hasn't already been paid out\n        require(!myEvent.paidOut, \"ALREADY PAID\");\n\n        // check if it's been 7 days past myEvent.eventTimestamp\n        require(\n            block.timestamp >= (myEvent.eventTimestamp + 7 days),\n            \"TOO EARLY\"\n        );\n\n        // only the event owner can withdraw\n        require(msg.sender == myEvent.eventOwner, \"MUST BE EVENT OWNER\");\n\n        // calculate how many people didn't claim by comparing\n        uint256 unclaimed = myEvent.confirmedRSVPs.length -\n            myEvent.claimedRSVPs.length;\n\n        uint256 payout = unclaimed * myEvent.deposit;\n\n        // mark as paid before sending to avoid reentrancy attack\n        myEvent.paidOut = true;\n\n        // send the payout to the owner\n        (bool sent, ) = msg.sender.call{value: payout}(\"\");\n\n        // if this fails\n        if (!sent) {\n            myEvent.paidOut = false;\n        }\n\n        require(sent, \"Failed to send Ether\");\n        emit DepositsPaidOut(eventId);\n    }\n\n    function getEventId(uint i) public view returns (string memory) {\n        return eventIds[i];\n    }\n\n    function getEvent(string calldata eventID) public view returns (\n        string memory eventDataCID,\n        address eventOwner,\n        uint256 eventTimestamp,\n        uint256 maxCapacity,\n        uint256 deposit,\n        string memory eventId\n    ) {\n        return (\n        idToEvent[eventID].eventDataCID,\n        idToEvent[eventID].eventOwner,\n        idToEvent[eventID].eventTimestamp,\n        idToEvent[eventID].maxCapacity,\n        idToEvent[eventID].deposit,\n        idToEvent[eventID].eventId\n        );\n    }\n\n    function getEventLength() public view returns (uint) {\n        return eventIds.length;\n    }\n\n    function getConfirmedRSVPs(string calldata eventId) public view returns (address [] memory) {\n        CreateEvent storage myEvent = idToEvent[eventId];\n        return myEvent.confirmedRSVPs;\n    }\n\n    function test() public view returns(uint) {\n        return myNum;\n    }\n}\n\n\n",
  "sourcePath": "/media/justin/New Volume/Project/hackathons/event-hub/EVENT_HUB/contracts/EventHub.sol",
  "compiler": {
    "name": "solc",
    "version": "0.8.3+commit.8d00100c.Emscripten.clang"
  },
  "schemaVersion": "3.3.4",
  "updatedAt": "2022-10-09T22:24:15.817Z",
  "networkType": "ethereum",
  "devdoc": {
    "kind": "dev",
    "methods": {},
    "version": 1
  },
  "userdoc": {
    "kind": "user",
    "methods": {},
    "version": 1
  }
}