{
	"data": {
		"bytecode": {
			"linkReferences": {},
			"object": "60a0604052306080523480156200001557600080fd5b506200002062000026565b620000e8565b600054610100900460ff1615620000935760405162461bcd60e51b815260206004820152602760248201527f496e697469616c697a61626c653a20636f6e747261637420697320696e697469604482015266616c697a696e6760c81b606482015260840160405180910390fd5b60005460ff9081161015620000e6576000805460ff191660ff9081179091556040519081527f7f26b83ff96e1f2b6a682f133852f6798a09c465da95921460cefb38474024989060200160405180910390a15b565b608051614a686200012060003960008181610f2201528181610f620152818161120b0152818161124b01526112de0152614a686000f3fe6080604052600436106102975760003560e01c8063715018a61161015a578063c28bc2fa116100c1578063eb9019d41161007a578063eb9019d4146108b9578063ece40cc1146108d9578063f23a6e61146108f9578063f2fde38b14610925578063f8ce560a14610945578063fc0c546a1461096557600080fd5b8063c28bc2fa146107c0578063c59057e4146107e0578063d33219b414610800578063dd4e2ba51461081f578063deaaa7cc14610865578063ea0217cf1461089957600080fd5b8063a7713a7011610113578063a7713a701461070a578063a890c9101461071f578063ab58fb8e1461073f578063b58131b01461075f578063bc197c8114610774578063c01f9e37146107a057600080fd5b8063715018a61461064e5780637b3c71d3146106635780637d5e81e2146106835780638da5cb5b146106a357806397c3d334146106d65780639a802a6d146106ea57600080fd5b80633bccf4fd116101fe578063544ffc9c116101b7578063544ffc9c1461054e57806354fd4d50146105a457806356781388146105ce5780635f398a14146105ee57806360c4247f1461060e57806370b0f6601461062e57600080fd5b80633bccf4fd1461046e5780633e4f49e61461048e57806343859632146104bb578063485cc955146105065780634f1ef2861461052657806352d1902d1461053957600080fd5b8063160cbed711610250578063160cbed7146103b25780632656227d146103d25780632d63f693146103e55780632fe3e261146104055780633659cfe6146104395780633932abb11461045957600080fd5b806301ffc9a7146102bf57806302a251a3146102f4578063034201811461031757806306f3f9e61461033757806306fdde0314610357578063150b7a021461037957600080fd5b366102ba57306102a5610986565b6001600160a01b0316146102b857600080fd5b005b600080fd5b3480156102cb57600080fd5b506102df6102da3660046138ea565b6109a0565b60405190151581526020015b60405180910390f35b34801561030057600080fd5b506103096109b1565b6040519081526020016102eb565b34801561032357600080fd5b50610309610332366004613a28565b6109bd565b34801561034357600080fd5b506102b8610352366004613ace565b610ab5565b34801561036357600080fd5b5061036c610b48565b6040516102eb9190613b37565b34801561038557600080fd5b50610399610394366004613b5f565b610bda565b6040516001600160e01b031990911681526020016102eb565b3480156103be57600080fd5b506103096103cd366004613d3b565b610beb565b6103096103e0366004613d3b565b610def565b3480156103f157600080fd5b50610309610400366004613ace565b610ee1565b34801561041157600080fd5b506103097fb3b3f3b703cd84ce352197dcff232b1b5d3cfb2025ce47cf04742d0651f1af8881565b34801561044557600080fd5b506102b8610454366004613dca565b610f18565b34801561046557600080fd5b50610309610ff4565b34801561047a57600080fd5b50610309610489366004613de7565b611000565b34801561049a57600080fd5b506104ae6104a9366004613ace565b611076565b6040516102eb9190613e4b565b3480156104c757600080fd5b506102df6104d6366004613e73565b6000828152610161602090815260408083206001600160a01b038516845260030190915290205460ff1692915050565b34801561051257600080fd5b506102b8610521366004613ea3565b611081565b6102b8610534366004613ed1565b611201565b34801561054557600080fd5b506103096112d1565b34801561055a57600080fd5b50610589610569366004613ace565b600090815261016160205260409020805460018201546002909201549092565b604080519384526020840192909252908201526060016102eb565b3480156105b057600080fd5b506040805180820190915260018152603160f81b602082015261036c565b3480156105da57600080fd5b506103096105e9366004613f20565b611384565b3480156105fa57600080fd5b50610309610609366004613f4c565b6113a5565b34801561061a57600080fd5b50610309610629366004613ace565b6113ef565b34801561063a57600080fd5b506102b8610649366004613ace565b61148a565b34801561065a57600080fd5b506102b8611511565b34801561066f57600080fd5b5061030961067e366004613fcf565b611525565b34801561068f57600080fd5b5061030961069e366004614028565b611577565b3480156106af57600080fd5b5061022a546001600160a01b03165b6040516001600160a01b0390911681526020016102eb565b3480156106e257600080fd5b506064610309565b3480156106f657600080fd5b506103096107053660046140dc565b61158e565b34801561071657600080fd5b506103096115a5565b34801561072b57600080fd5b506102b861073a366004613dca565b6115d2565b34801561074b57600080fd5b5061030961075a366004613ace565b611659565b34801561076b57600080fd5b506103096116f5565b34801561078057600080fd5b5061039961078f366004614134565b63bc197c8160e01b95945050505050565b3480156107ac57600080fd5b506103096107bb366004613ace565b611701565b3480156107cc57600080fd5b506102b86107db3660046141c7565b611730565b3480156107ec57600080fd5b506103096107fb366004613d3b565b6117f7565b34801561080c57600080fd5b506101f8546001600160a01b03166106be565b34801561082b57600080fd5b506040805180820190915260208082527f737570706f72743d627261766f2671756f72756d3d666f722c6162737461696e9082015261036c565b34801561087157600080fd5b506103097f150214d74d59b7d1e90c73fc22ef3d991dd0a76b046543d4d80ab92d2a50328f81565b3480156108a557600080fd5b506102b86108b4366004613ace565b611831565b3480156108c557600080fd5b506103096108d436600461420a565b6118b8565b3480156108e557600080fd5b506102b86108f4366004613ace565b6118d9565b34801561090557600080fd5b50610399610914366004614236565b63f23a6e6160e01b95945050505050565b34801561093157600080fd5b506102b8610940366004613dca565b611960565b34801561095157600080fd5b50610309610960366004613ace565b6119d6565b34801561097157600080fd5b50610193546106be906001600160a01b031681565b600061099b6101f8546001600160a01b031690565b905090565b60006109ab826119e1565b92915050565b600061099b6101305490565b600080610a61610a597fb3b3f3b703cd84ce352197dcff232b1b5d3cfb2025ce47cf04742d0651f1af888c8c8c8c6040516109f992919061429e565b60405180910390208b80519060200120604051602001610a3e959493929190948552602085019390935260ff9190911660408401526060830152608082015260a00190565b60405160208183030381529060405280519060200120611a06565b868686611a54565b9050610aa78a828b8b8b8080601f0160208091040260200160405190810160405280939291908181526020018383808284376000920191909152508d9250611a72915050565b9a9950505050505050505050565b610abd610986565b6001600160a01b0316336001600160a01b031614610af65760405162461bcd60e51b8152600401610aed906142ae565b60405180910390fd5b30610aff610986565b6001600160a01b031614610b3c5760008036604051610b1f92919061429e565b604051809103902090505b80610b3560ff611bd6565b03610b2a57505b610b4581611c55565b50565b606060fd8054610b57906142e5565b80601f0160208091040260200160405190810160405280929190818152602001828054610b83906142e5565b8015610bd05780601f10610ba557610100808354040283529160200191610bd0565b820191906000526020600020905b815481529060010190602001808311610bb357829003601f168201915b5050505050905090565b630a85bd0160e11b5b949350505050565b600080610bfa868686866117f7565b90506004610c0782611076565b6007811115610c1857610c18613e35565b14610c355760405162461bcd60e51b8152600401610aed9061431f565b6101f8546040805163793d064960e11b815290516000926001600160a01b03169163f27a0c929160048083019260209291908290030181865afa158015610c80573d6000803e3d6000fd5b505050506040513d601f19601f82011682018060405250810190610ca49190614360565b6101f85460405163b1c5f42760e01b81529192506001600160a01b03169063b1c5f42790610cdf908a908a908a906000908b90600401614442565b602060405180830381865afa158015610cfc573d6000803e3d6000fd5b505050506040513d601f19601f82011682018060405250810190610d209190614360565b60008381526101f96020526040808220929092556101f85491516308f2a0bb60e41b81526001600160a01b0390921691638f2a0bb091610d6d918b918b918b91908b908990600401614490565b600060405180830381600087803b158015610d8757600080fd5b505af1158015610d9b573d6000803e3d6000fd5b505050507f9a2e42fd6722813d69113e7d0079d3d940171428df7373df9c7f7617cfda2892828242610dcd91906144fe565b6040805192835260208301919091520160405180910390a15095945050505050565b600080610dfe868686866117f7565b90506000610e0b82611076565b90506004816007811115610e2157610e21613e35565b1480610e3e57506005816007811115610e3c57610e3c613e35565b145b610e5a5760405162461bcd60e51b8152600401610aed9061431f565b600082815260fe602052604090819020600201805460ff19166001179055517f712ae1383f79ac853f8d882153778e0260ef8f03b504e2866e0593e04d2b291f90610ea89084815260200190565b60405180910390a1610ebd8288888888611da4565b610eca8288888888611e45565b610ed78288888888611e52565b5095945050505050565b600081815260fe602090815260408083208151928301909152546001600160401b0316908190525b6001600160401b031692915050565b6001600160a01b037f0000000000000000000000000000000000000000000000000000000000000000163003610f605760405162461bcd60e51b8152600401610aed90614511565b7f00000000000000000000000000000000000000000000000000000000000000006001600160a01b0316610fa96000805160206149c3833981519152546001600160a01b031690565b6001600160a01b031614610fcf5760405162461bcd60e51b8152600401610aed9061455d565b610fd881611e8b565b60408051600080825260208201909252610b4591839190611e93565b600061099b61012f5490565b604080517f150214d74d59b7d1e90c73fc22ef3d991dd0a76b046543d4d80ab92d2a50328f602082015290810186905260ff85166060820152600090819061104e90610a5990608001610a3e565b905061106b87828860405180602001604052806000815250611ffe565b979650505050505050565b60006109ab82612021565b600054610100900460ff16158080156110a15750600054600160ff909116105b806110bb5750303b1580156110bb575060005460ff166001145b61111e5760405162461bcd60e51b815260206004820152602e60248201527f496e697469616c697a61626c653a20636f6e747261637420697320616c72656160448201526d191e481a5b9a5d1a585b1a5e995960921b6064820152608401610aed565b6000805460ff191660011790558015611141576000805461ff0019166101001790555b61116c6040518060400160405280600a81526020016926bca3b7bb32b93737b960b11b81525061216e565b611182600161c4e0670de0b6b3a76400006121c5565b61118a6121f7565b6111938361221e565b61119d600a61224e565b6111a68261227e565b6111ae6122ae565b6111b66121f7565b80156111fc576000805461ff0019169055604051600181527f7f26b83ff96e1f2b6a682f133852f6798a09c465da95921460cefb38474024989060200160405180910390a15b505050565b6001600160a01b037f00000000000000000000000000000000000000000000000000000000000000001630036112495760405162461bcd60e51b8152600401610aed90614511565b7f00000000000000000000000000000000000000000000000000000000000000006001600160a01b03166112926000805160206149c3833981519152546001600160a01b031690565b6001600160a01b0316146112b85760405162461bcd60e51b8152600401610aed9061455d565b6112c182611e8b565b6112cd82826001611e93565b5050565b6000306001600160a01b037f000000000000000000000000000000000000000000000000000000000000000016146113715760405162461bcd60e51b815260206004820152603860248201527f555550535570677261646561626c653a206d757374206e6f742062652063616c60448201527f6c6564207468726f7567682064656c656761746563616c6c00000000000000006064820152608401610aed565b506000805160206149c383398151915290565b600080339050610be384828560405180602001604052806000815250611ffe565b60008033905061106b87828888888080601f0160208091040260200160405190810160405280939291908181526020018383808284376000920191909152508a9250611a72915050565b6101c7546000908082036114085750506101c654919050565b60006101c76114186001846145a9565b81548110611428576114286145bc565b60009182526020918290206040805180820190915291015463ffffffff8116808352600160201b9091046001600160e01b0316928201929092529150841061147e57602001516001600160e01b03169392505050565b610be36101c7856122dd565b611492610986565b6001600160a01b0316336001600160a01b0316146114c25760405162461bcd60e51b8152600401610aed906142ae565b306114cb610986565b6001600160a01b03161461150857600080366040516114eb92919061429e565b604051809103902090505b8061150160ff611bd6565b036114f657505b610b458161239d565b6115196123e0565b611523600061243b565b565b60008033905061156d86828787878080601f016020809104026020016040519081016040528093929190818152602001838380828437600092019190915250611ffe92505050565b9695505050505050565b60006115858585858561248e565b95945050505050565b600061159b848484612751565b90505b9392505050565b6101c754600090156115ca576115bc6101c76127c8565b6001600160e01b0316905090565b506101c65490565b6115da610986565b6001600160a01b0316336001600160a01b03161461160a5760405162461bcd60e51b8152600401610aed906142ae565b30611613610986565b6001600160a01b031614611650576000803660405161163392919061429e565b604051809103902090505b8061164960ff611bd6565b0361163e57505b610b45816127f8565b6101f85460008281526101f9602052604080822054905163d45c443560e01b81526004810191909152909182916001600160a01b039091169063d45c443590602401602060405180830381865afa1580156116b8573d6000803e3d6000fd5b505050506040513d601f19601f820116820180604052508101906116dc9190614360565b9050806001146116ec578061159e565b60009392505050565b600061099b6101315490565b600081815260fe602090815260408083208151928301909152600101546001600160401b031690819052610f09565b611738610986565b6001600160a01b0316336001600160a01b0316146117685760405162461bcd60e51b8152600401610aed906142ae565b30611771610986565b6001600160a01b0316146117ae576000803660405161179192919061429e565b604051809103902090505b806117a760ff611bd6565b0361179c57505b6117f08483838080601f016020809104026020016040519081016040528093929190818152602001838380828437600092019190915250889250612863915050565b5050505050565b60008484848460405160200161181094939291906145d2565b60408051601f19818403018152919052805160209091012095945050505050565b611839610986565b6001600160a01b0316336001600160a01b0316146118695760405162461bcd60e51b8152600401610aed906142ae565b30611872610986565b6001600160a01b0316146118af576000803660405161189292919061429e565b604051809103902090505b806118a860ff611bd6565b0361189d57505b610b4581612889565b600061159e83836118d460408051602081019091526000815290565b612751565b6118e1610986565b6001600160a01b0316336001600160a01b0316146119115760405162461bcd60e51b8152600401610aed906142ae565b3061191a610986565b6001600160a01b031614611957576000803660405161193a92919061429e565b604051809103902090505b8061195060ff611bd6565b0361194557505b610b458161292c565b6119686123e0565b6001600160a01b0381166119cd5760405162461bcd60e51b815260206004820152602660248201527f4f776e61626c653a206e6577206f776e657220697320746865207a65726f206160448201526564647265737360d01b6064820152608401610aed565b610b458161243b565b60006109ab8261296f565b60006001600160e01b03198216636e665ced60e01b14806109ab57506109ab826129fe565b60006109ab611a13612a69565b8360405161190160f01b6020820152602281018390526042810182905260009060620160405160208183030381529060405280519060200120905092915050565b6000806000611a6587878787612ae4565b91509150610ed781612ba8565b600085815260fe602052604081206001611a8b88611076565b6007811115611a9c57611a9c613e35565b14611af55760405162461bcd60e51b815260206004820152602360248201527f476f7665726e6f723a20766f7465206e6f742063757272656e746c792061637460448201526269766560e81b6064820152608401610aed565b604080516020810190915281546001600160401b031690819052600090611b1e90889086612751565b9050611b2d8888888488612cf2565b8351600003611b8257866001600160a01b03167fb8e138887d0aa13bab447e82de9d5c1777041ecd21ca36ba824ff1e6c07ddda489888489604051611b75949392919061461d565b60405180910390a261106b565b866001600160a01b03167fe2babfbac5889a709b63bb7f598b324e08bc5a4fb9ec647fb3cbc9ec07eb87128988848989604051611bc3959493929190614645565b60405180910390a2979650505050505050565b6000611bf18254600f81810b600160801b909204900b131590565b15611c0f57604051631ed9509560e11b815260040160405180910390fd5b508054600f0b6000818152600180840160205260408220805492905583546fffffffffffffffffffffffffffffffff191692016001600160801b03169190911790915590565b6064811115611cd85760405162461bcd60e51b815260206004820152604360248201527f476f7665726e6f72566f74657351756f72756d4672616374696f6e3a2071756f60448201527f72756d4e756d657261746f72206f7665722071756f72756d44656e6f6d696e616064820152623a37b960e91b608482015260a401610aed565b6000611ce26115a5565b90508015801590611cf457506101c754155b15611d595760408051808201909152600081526101c79060208101611d1884612e6d565b6001600160e01b039081169091528254600181018455600093845260209384902083519490930151909116600160201b0263ffffffff909316929092179101555b611d656101c783612eda565b505060408051828152602081018490527f0553476bf02ef2726e8ce5ced78d63e26e602e4a2257b1f559418e24b4633997910160405180910390a15050565b30611dad610986565b6001600160a01b0316146117f05760005b8451811015611e3d57306001600160a01b0316858281518110611de357611de36145bc565b60200260200101516001600160a01b031603611e2d57611e2d838281518110611e0e57611e0e6145bc565b60200260200101518051906020012060ff612f1090919063ffffffff16565b611e368161468b565b9050611dbe565b505050505050565b6117f08585858585612f4c565b30611e5b610986565b6001600160a01b0316146117f05760ff54600f81810b600160801b909204900b13156117f057600060ff556117f0565b610b456123e0565b7f4910fdfa16fed3260ed0e7147f7cc6da11a60208b5b9406d12a635614ffd91435460ff1615611ec6576111fc83612fc1565b826001600160a01b03166352d1902d6040518163ffffffff1660e01b8152600401602060405180830381865afa925050508015611f20575060408051601f3d908101601f19168201909252611f1d91810190614360565b60015b611f835760405162461bcd60e51b815260206004820152602e60248201527f45524331393637557067726164653a206e657720696d706c656d656e7461746960448201526d6f6e206973206e6f74205555505360901b6064820152608401610aed565b6000805160206149c38339815191528114611ff25760405162461bcd60e51b815260206004820152602960248201527f45524331393637557067726164653a20756e737570706f727465642070726f786044820152681a58589b195555525160ba1b6064820152608401610aed565b506111fc83838361305d565b60006115858585858561201c60408051602081019091526000815290565b611a72565b60008061202d83613088565b9050600481600781111561204357612043613e35565b1461204e5792915050565b60008381526101f960205260409020548061206a575092915050565b6101f854604051632ab0f52960e01b8152600481018390526001600160a01b0390911690632ab0f52990602401602060405180830381865afa1580156120b4573d6000803e3d6000fd5b505050506040513d601f19601f820116820180604052508101906120d891906146a4565b156120e7575060079392505050565b6101f854604051632c258a9f60e11b8152600481018390526001600160a01b039091169063584b153e90602401602060405180830381865afa158015612131573d6000803e3d6000fd5b505050506040513d601f19601f8201168201806040525081019061215591906146a4565b15612164575060059392505050565b5060029392505050565b600054610100900460ff166121955760405162461bcd60e51b8152600401610aed906146c6565b6121bc816121b76040805180820190915260018152603160f81b602082015290565b613198565b610b45816131d9565b600054610100900460ff166121ec5760405162461bcd60e51b8152600401610aed906146c6565b6111fc83838361320c565b600054610100900460ff166115235760405162461bcd60e51b8152600401610aed906146c6565b600054610100900460ff166122455760405162461bcd60e51b8152600401610aed906146c6565b610b458161324e565b600054610100900460ff166122755760405162461bcd60e51b8152600401610aed906146c6565b610b4581613298565b600054610100900460ff166122a55760405162461bcd60e51b8152600401610aed906146c6565b610b45816132bf565b600054610100900460ff166122d55760405162461bcd60e51b8152600401610aed906146c6565b6115236132e6565b600043821061232e5760405162461bcd60e51b815260206004820181905260248201527f436865636b706f696e74733a20626c6f636b206e6f7420796574206d696e65646044820152606401610aed565b600061233983613316565b8454909150600061234c8684838561337b565b9050801561238757612371866123636001846145a9565b600091825260209091200190565b54600160201b90046001600160e01b031661238a565b60005b6001600160e01b03169695505050505050565b61012f5460408051918252602082018390527fc565b045403dc03c2eea82b81a0465edad9e2e7fc4d97e11421c209da93d7a93910160405180910390a161012f55565b61022a546001600160a01b031633146115235760405162461bcd60e51b815260206004820181905260248201527f4f776e61626c653a2063616c6c6572206973206e6f7420746865206f776e65726044820152606401610aed565b61022a80546001600160a01b038381166001600160a01b0319831681179093556040519116919082907f8be0079c531659141344cd1fd0a4f28419497f9722a3daafe3b4186f6b6457e090600090a35050565b60006124986116f5565b6124a7336108d46001436145a9565b101561250f5760405162461bcd60e51b815260206004820152603160248201527f476f7665726e6f723a2070726f706f73657220766f7465732062656c6f7720706044820152701c9bdc1bdcd85b081d1a1c995cda1bdb19607a1b6064820152608401610aed565b600061252486868686805190602001206117f7565b905084518651146125475760405162461bcd60e51b8152600401610aed90614711565b83518651146125685760405162461bcd60e51b8152600401610aed90614711565b60008651116125b95760405162461bcd60e51b815260206004820152601860248201527f476f7665726e6f723a20656d7074792070726f706f73616c00000000000000006044820152606401610aed565b600081815260fe6020908152604091829020825191820190925281546001600160401b031690819052156126395760405162461bcd60e51b815260206004820152602160248201527f476f7665726e6f723a2070726f706f73616c20616c72656164792065786973746044820152607360f81b6064820152608401610aed565b600061264b612646610ff4565b6133d9565b612654436133d9565b61265e9190614752565b9050600061266d6126466109b1565b6126779083614752565b835467ffffffffffffffff19166001600160401b038416178455905060018301805467ffffffffffffffff19166001600160401b0383161790557f7d84a6263ae0d98d3329bd7b46bb4e8d6f98cd35a7adb45c274c8b7fd5ebd5e084338b8b8d516001600160401b038111156126ef576126ef61396b565b60405190808252806020026020018201604052801561272257816020015b606081526020019060019003908161270d5790505b508c88888e60405161273c99989796959493929190614779565b60405180910390a15091979650505050505050565b61019354604051630748d63560e31b81526001600160a01b038581166004830152602482018590526000921690633a46b1a890604401602060405180830381865afa1580156127a4573d6000803e3d6000fd5b505050506040513d601f19601f8201168201806040525081019061159b9190614360565b805460009080156116ec576127e2836123636001846145a9565b54600160201b90046001600160e01b031661159e565b6101f854604080516001600160a01b03928316815291831660208301527f08f74ea46ef7894f65eabfb5e6e695de773a000b47c529ab559178069b226401910160405180910390a16101f880546001600160a01b0319166001600160a01b0392909216919091179055565b606061159b8484846040518060600160405280602981526020016149e360299139613441565b600081116128e95760405162461bcd60e51b815260206004820152602760248201527f476f7665726e6f7253657474696e67733a20766f74696e6720706572696f6420604482015266746f6f206c6f7760c81b6064820152608401610aed565b6101305460408051918252602082018390527f7e3f7f0708a84de9203036abaa450dccc85ad5ff52f78c170f3edb55cf5e8828910160405180910390a161013055565b6101315460408051918252602082018390527fccb45da8d5717e6c4544694297c4ba5cf151d455c9bb0ed4fc7a38411bc05461910160405180910390a161013155565b6000606461297c836113ef565b61019354604051632394e7a360e21b8152600481018690526001600160a01b0390911690638e539e8c90602401602060405180830381865afa1580156129c6573d6000803e3d6000fd5b505050506040513d601f19601f820116820180604052508101906129ea9190614360565b6129f49190614868565b6109ab919061487f565b60006001600160e01b0319821663bf26d89760e01b1480612a2f57506001600160e01b031982166379dd796f60e01b145b80612a4a57506001600160e01b03198216630271189760e51b145b806109ab57506301ffc9a760e01b6001600160e01b03198316146109ab565b600061099b7f8b73c3c69bb8fe3d512ecc4cf759cc79239f7b179b0ffacaa9a75d522b39400f612a9860655490565b6066546040805160208101859052908101839052606081018290524660808201523060a082015260009060c0016040516020818303038152906040528051906020012090509392505050565b6000807f7fffffffffffffffffffffffffffffff5d576e7357a4501ddfe92f46681b20a0831115612b1b5750600090506003612b9f565b6040805160008082526020820180845289905260ff881692820192909252606081018690526080810185905260019060a0016020604051602081039080840390855afa158015612b6f573d6000803e3d6000fd5b5050604051601f1901519150506001600160a01b038116612b9857600060019250925050612b9f565b9150600090505b94509492505050565b6000816004811115612bbc57612bbc613e35565b03612bc45750565b6001816004811115612bd857612bd8613e35565b03612c255760405162461bcd60e51b815260206004820152601860248201527f45434453413a20696e76616c6964207369676e617475726500000000000000006044820152606401610aed565b6002816004811115612c3957612c39613e35565b03612c865760405162461bcd60e51b815260206004820152601f60248201527f45434453413a20696e76616c6964207369676e6174757265206c656e677468006044820152606401610aed565b6003816004811115612c9a57612c9a613e35565b03610b455760405162461bcd60e51b815260206004820152602260248201527f45434453413a20696e76616c6964207369676e6174757265202773272076616c604482015261756560f01b6064820152608401610aed565b6000858152610161602090815260408083206001600160a01b0388168452600381019092529091205460ff1615612d7b5760405162461bcd60e51b815260206004820152602760248201527f476f7665726e6f72566f74696e6753696d706c653a20766f746520616c726561604482015266191e4818d85cdd60ca1b6064820152608401610aed565b6001600160a01b03851660009081526003820160205260409020805460ff1916600117905560ff8416612dc75782816000016000828254612dbc91906144fe565b90915550611e3d9050565b60001960ff851601612de75782816001016000828254612dbc91906144fe565b60011960ff851601612e075782816002016000828254612dbc91906144fe565b60405162461bcd60e51b815260206004820152603560248201527f476f7665726e6f72566f74696e6753696d706c653a20696e76616c69642076616044820152746c756520666f7220656e756d20566f74655479706560581b6064820152608401610aed565b60006001600160e01b03821115612ed65760405162461bcd60e51b815260206004820152602760248201527f53616665436173743a2076616c756520646f65736e27742066697420696e20326044820152663234206269747360c81b6064820152608401610aed565b5090565b600080612ef884612eea43613316565b612ef386612e6d565b613511565b6001600160e01b0391821693501690505b9250929050565b8154600160801b90819004600f0b6000818152600180860160205260409091209390935583546001600160801b03908116939091011602179055565b6101f85460405163e38335e560e01b81526001600160a01b039091169063e38335e5903490612f88908890889088906000908990600401614442565b6000604051808303818588803b158015612fa157600080fd5b505af1158015612fb5573d6000803e3d6000fd5b50505050505050505050565b6001600160a01b0381163b61302e5760405162461bcd60e51b815260206004820152602d60248201527f455243313936373a206e657720696d706c656d656e746174696f6e206973206e60448201526c1bdd08184818dbdb9d1c9858dd609a1b6064820152608401610aed565b6000805160206149c383398151915280546001600160a01b0319166001600160a01b0392909216919091179055565b613066836136b4565b6000825111806130735750805b156111fc5761308283836136f4565b50505050565b600081815260fe60205260408120600281015460ff16156130ac5750600792915050565b6002810154610100900460ff16156130c75750600292915050565b60006130d284610ee1565b9050806000036131245760405162461bcd60e51b815260206004820152601d60248201527f476f7665726e6f723a20756e6b6e6f776e2070726f706f73616c2069640000006044820152606401610aed565b438110613135575060009392505050565b600061314085611701565b905043811061315457506001949350505050565b61315d856137df565b801561317d57506000858152610161602052604090208054600190910154115b1561318d57506004949350505050565b506003949350505050565b600054610100900460ff166131bf5760405162461bcd60e51b8152600401610aed906146c6565b815160209283012081519190920120606591909155606655565b600054610100900460ff166132005760405162461bcd60e51b8152600401610aed906146c6565b60fd6112cd82826148e7565b600054610100900460ff166132335760405162461bcd60e51b8152600401610aed906146c6565b61323c8361239d565b61324582612889565b6111fc8161292c565b600054610100900460ff166132755760405162461bcd60e51b8152600401610aed906146c6565b61019380546001600160a01b0319166001600160a01b0392909216919091179055565b600054610100900460ff16610b3c5760405162461bcd60e51b8152600401610aed906146c6565b600054610100900460ff166116505760405162461bcd60e51b8152600401610aed906146c6565b600054610100900460ff1661330d5760405162461bcd60e51b8152600401610aed906146c6565b6115233361243b565b600063ffffffff821115612ed65760405162461bcd60e51b815260206004820152602660248201527f53616665436173743a2076616c756520646f65736e27742066697420696e203360448201526532206269747360d01b6064820152608401610aed565b60005b818310156133d15760006133928484613817565b60008781526020902090915063ffffffff86169082015463ffffffff1611156133bd578092506133cb565b6133c88160016144fe565b93505b5061337e565b509392505050565b60006001600160401b03821115612ed65760405162461bcd60e51b815260206004820152602660248201527f53616665436173743a2076616c756520646f65736e27742066697420696e203660448201526534206269747360d01b6064820152608401610aed565b6060824710156134a25760405162461bcd60e51b815260206004820152602660248201527f416464726573733a20696e73756666696369656e742062616c616e636520666f6044820152651c8818d85b1b60d21b6064820152608401610aed565b600080866001600160a01b031685876040516134be91906149a6565b60006040518083038185875af1925050503d80600081146134fb576040519150601f19603f3d011682016040523d82523d6000602084013e613500565b606091505b509150915061106b87838387613832565b82546000908190801561365757600061352f876123636001856145a9565b60408051808201909152905463ffffffff808216808452600160201b9092046001600160e01b0316602084015291925090871610156135b05760405162461bcd60e51b815260206004820152601760248201527f436865636b706f696e743a20696e76616c6964206b65790000000000000000006044820152606401610aed565b805163ffffffff8088169116036135f857846135d1886123636001866145a9565b80546001600160e01b0392909216600160201b0263ffffffff909216919091179055613647565b6040805180820190915263ffffffff80881682526001600160e01b0380881660208085019182528b54600181018d5560008d81529190912094519151909216600160201b029216919091179101555b6020015192508391506136ac9050565b50506040805180820190915263ffffffff80851682526001600160e01b0380851660208085019182528854600181018a5560008a815291822095519251909316600160201b0291909316179201919091559050815b935093915050565b6136bd81612fc1565b6040516001600160a01b038216907fbc7cd75a20ee27fd9adebab32041f755214dbc6bffa90cc0225b39da2e5c2d3b90600090a250565b60606001600160a01b0383163b61375c5760405162461bcd60e51b815260206004820152602660248201527f416464726573733a2064656c65676174652063616c6c20746f206e6f6e2d636f6044820152651b9d1c9858dd60d21b6064820152608401610aed565b600080846001600160a01b03168460405161377791906149a6565b600060405180830381855af49150503d80600081146137b2576040519150601f19603f3d011682016040523d82523d6000602084013e6137b7565b606091505b50915091506115858282604051806060016040528060278152602001614a0c602791396138ab565b6000818152610161602052604081206002810154600182015461380291906144fe565b61380e61096085610ee1565b11159392505050565b6000613826600284841861487f565b61159e908484166144fe565b606083156138a157825160000361389a576001600160a01b0385163b61389a5760405162461bcd60e51b815260206004820152601d60248201527f416464726573733a2063616c6c20746f206e6f6e2d636f6e74726163740000006044820152606401610aed565b5081610be3565b610be383836138c0565b606083156138ba57508161159e565b61159e83835b8151156138d05781518083602001fd5b8060405162461bcd60e51b8152600401610aed9190613b37565b6000602082840312156138fc57600080fd5b81356001600160e01b03198116811461159e57600080fd5b803560ff8116811461392557600080fd5b919050565b60008083601f84011261393c57600080fd5b5081356001600160401b0381111561395357600080fd5b602083019150836020828501011115612f0957600080fd5b634e487b7160e01b600052604160045260246000fd5b604051601f8201601f191681016001600160401b03811182821017156139a9576139a961396b565b604052919050565b60006001600160401b038311156139ca576139ca61396b565b6139dd601f8401601f1916602001613981565b90508281528383830111156139f157600080fd5b828260208301376000602084830101529392505050565b600082601f830112613a1957600080fd5b61159e838335602085016139b1565b60008060008060008060008060e0898b031215613a4457600080fd5b88359750613a5460208a01613914565b965060408901356001600160401b0380821115613a7057600080fd5b613a7c8c838d0161392a565b909850965060608b0135915080821115613a9557600080fd5b50613aa28b828c01613a08565b945050613ab160808a01613914565b925060a0890135915060c089013590509295985092959890939650565b600060208284031215613ae057600080fd5b5035919050565b60005b83811015613b02578181015183820152602001613aea565b50506000910152565b60008151808452613b23816020860160208601613ae7565b601f01601f19169290920160200192915050565b60208152600061159e6020830184613b0b565b6001600160a01b0381168114610b4557600080fd5b60008060008060808587031215613b7557600080fd5b8435613b8081613b4a565b93506020850135613b9081613b4a565b92506040850135915060608501356001600160401b03811115613bb257600080fd5b613bbe87828801613a08565b91505092959194509250565b60006001600160401b03821115613be357613be361396b565b5060051b60200190565b600082601f830112613bfe57600080fd5b81356020613c13613c0e83613bca565b613981565b82815260059290921b84018101918181019086841115613c3257600080fd5b8286015b84811015613c56578035613c4981613b4a565b8352918301918301613c36565b509695505050505050565b600082601f830112613c7257600080fd5b81356020613c82613c0e83613bca565b82815260059290921b84018101918181019086841115613ca157600080fd5b8286015b84811015613c565780358352918301918301613ca5565b600082601f830112613ccd57600080fd5b81356020613cdd613c0e83613bca565b82815260059290921b84018101918181019086841115613cfc57600080fd5b8286015b84811015613c565780356001600160401b03811115613d1f5760008081fd5b613d2d8986838b0101613a08565b845250918301918301613d00565b60008060008060808587031215613d5157600080fd5b84356001600160401b0380821115613d6857600080fd5b613d7488838901613bed565b95506020870135915080821115613d8a57600080fd5b613d9688838901613c61565b94506040870135915080821115613dac57600080fd5b50613db987828801613cbc565b949793965093946060013593505050565b600060208284031215613ddc57600080fd5b813561159e81613b4a565b600080600080600060a08688031215613dff57600080fd5b85359450613e0f60208701613914565b9350613e1d60408701613914565b94979396509394606081013594506080013592915050565b634e487b7160e01b600052602160045260246000fd5b6020810160088310613e6d57634e487b7160e01b600052602160045260246000fd5b91905290565b60008060408385031215613e8657600080fd5b823591506020830135613e9881613b4a565b809150509250929050565b60008060408385031215613eb657600080fd5b8235613ec181613b4a565b91506020830135613e9881613b4a565b60008060408385031215613ee457600080fd5b8235613eef81613b4a565b915060208301356001600160401b03811115613f0a57600080fd5b613f1685828601613a08565b9150509250929050565b60008060408385031215613f3357600080fd5b82359150613f4360208401613914565b90509250929050565b600080600080600060808688031215613f6457600080fd5b85359450613f7460208701613914565b935060408601356001600160401b0380821115613f9057600080fd5b613f9c89838a0161392a565b90955093506060880135915080821115613fb557600080fd5b50613fc288828901613a08565b9150509295509295909350565b60008060008060608587031215613fe557600080fd5b84359350613ff560208601613914565b925060408501356001600160401b0381111561401057600080fd5b61401c8782880161392a565b95989497509550505050565b6000806000806080858703121561403e57600080fd5b84356001600160401b038082111561405557600080fd5b61406188838901613bed565b9550602087013591508082111561407757600080fd5b61408388838901613c61565b9450604087013591508082111561409957600080fd5b6140a588838901613cbc565b935060608701359150808211156140bb57600080fd5b508501601f810187136140cd57600080fd5b613bbe878235602084016139b1565b6000806000606084860312156140f157600080fd5b83356140fc81613b4a565b92506020840135915060408401356001600160401b0381111561411e57600080fd5b61412a86828701613a08565b9150509250925092565b600080600080600060a0868803121561414c57600080fd5b853561415781613b4a565b9450602086013561416781613b4a565b935060408601356001600160401b038082111561418357600080fd5b61418f89838a01613c61565b945060608801359150808211156141a557600080fd5b6141b189838a01613c61565b93506080880135915080821115613fb557600080fd5b600080600080606085870312156141dd57600080fd5b84356141e881613b4a565b93506020850135925060408501356001600160401b0381111561401057600080fd5b6000806040838503121561421d57600080fd5b823561422881613b4a565b946020939093013593505050565b600080600080600060a0868803121561424e57600080fd5b853561425981613b4a565b9450602086013561426981613b4a565b9350604086013592506060860135915060808601356001600160401b0381111561429257600080fd5b613fc288828901613a08565b8183823760009101908152919050565b60208082526018908201527f476f7665726e6f723a206f6e6c79476f7665726e616e63650000000000000000604082015260600190565b600181811c908216806142f957607f821691505b60208210810361431957634e487b7160e01b600052602260045260246000fd5b50919050565b60208082526021908201527f476f7665726e6f723a2070726f706f73616c206e6f74207375636365737366756040820152601b60fa1b606082015260800190565b60006020828403121561437257600080fd5b5051919050565b600081518084526020808501945080840160005b838110156143b25781516001600160a01b03168752958201959082019060010161438d565b509495945050505050565b600081518084526020808501945080840160005b838110156143b2578151875295820195908201906001016143d1565b600081518084526020808501808196508360051b8101915082860160005b85811015614435578284038952614423848351613b0b565b9885019893509084019060010161440b565b5091979650505050505050565b60a08152600061445560a0830188614379565b828103602084015261446781886143bd565b9050828103604084015261447b81876143ed565b60608401959095525050608001529392505050565b60c0815260006144a360c0830189614379565b82810360208401526144b581896143bd565b905082810360408401526144c981886143ed565b60608401969096525050608081019290925260a0909101529392505050565b634e487b7160e01b600052601160045260246000fd5b808201808211156109ab576109ab6144e8565b6020808252602c908201527f46756e6374696f6e206d7573742062652063616c6c6564207468726f7567682060408201526b19195b1959d85d1958d85b1b60a21b606082015260800190565b6020808252602c908201527f46756e6374696f6e206d7573742062652063616c6c6564207468726f7567682060408201526b6163746976652070726f787960a01b606082015260800190565b818103818111156109ab576109ab6144e8565b634e487b7160e01b600052603260045260246000fd5b6080815260006145e56080830187614379565b82810360208401526145f781876143bd565b9050828103604084015261460b81866143ed565b91505082606083015295945050505050565b84815260ff8416602082015282604082015260806060820152600061156d6080830184613b0b565b85815260ff8516602082015283604082015260a06060820152600061466d60a0830185613b0b565b828103608084015261467f8185613b0b565b98975050505050505050565b60006001820161469d5761469d6144e8565b5060010190565b6000602082840312156146b657600080fd5b8151801515811461159e57600080fd5b6020808252602b908201527f496e697469616c697a61626c653a20636f6e7472616374206973206e6f74206960408201526a6e697469616c697a696e6760a81b606082015260800190565b60208082526021908201527f476f7665726e6f723a20696e76616c69642070726f706f73616c206c656e67746040820152600d60fb1b606082015260800190565b6001600160401b03818116838216019080821115614772576147726144e8565b5092915050565b60006101208b8352602060018060a01b038c16818501528160408501526147a28285018c614379565b915083820360608501526147b6828b6143bd565b915083820360808501528189518084528284019150828160051b850101838c0160005b8381101561480757601f198784030185526147f5838351613b0b565b948601949250908501906001016147d9565b505086810360a088015261481b818c6143ed565b94505050505061483660c08401876001600160401b03169052565b6001600160401b03851660e08401528281036101008401526148588185613b0b565b9c9b505050505050505050505050565b80820281158282048414176109ab576109ab6144e8565b60008261489c57634e487b7160e01b600052601260045260246000fd5b500490565b601f8211156111fc57600081815260208120601f850160051c810160208610156148c85750805b601f850160051c820191505b81811015611e3d578281556001016148d4565b81516001600160401b038111156149005761490061396b565b6149148161490e84546142e5565b846148a1565b602080601f83116001811461494957600084156149315750858301515b600019600386901b1c1916600185901b178555611e3d565b600085815260208120601f198616915b8281101561497857888601518255948401946001909101908401614959565b50858210156149965787850151600019600388901b60f8161c191681555b5050505050600190811b01905550565b600082516149b8818460208701613ae7565b919091019291505056fe360894a13ba1a3210667c828492db98dca3e2076cc3735a920a3ca505d382bbc416464726573733a206c6f772d6c6576656c2063616c6c20776974682076616c7565206661696c6564416464726573733a206c6f772d6c6576656c2064656c65676174652063616c6c206661696c6564a264697066735822122093c2fd7564c49034259aff4848a5733e26af0b7d87828ab7d7ec80239653c71a64736f6c63430008110033",
			"opcodes": "PUSH1 0xA0 PUSH1 0x40 MSTORE ADDRESS PUSH1 0x80 MSTORE CALLVALUE DUP1 ISZERO PUSH3 0x15 JUMPI PUSH1 0x0 DUP1 REVERT JUMPDEST POP PUSH3 0x20 PUSH3 0x26 JUMP JUMPDEST PUSH3 0xE8 JUMP JUMPDEST PUSH1 0x0 SLOAD PUSH2 0x100 SWAP1 DIV PUSH1 0xFF AND ISZERO PUSH3 0x93 JUMPI PUSH1 0x40 MLOAD PUSH3 0x461BCD PUSH1 0xE5 SHL DUP2 MSTORE PUSH1 0x20 PUSH1 0x4 DUP3 ADD MSTORE PUSH1 0x27 PUSH1 0x24 DUP3 ADD MSTORE PUSH32 0x496E697469616C697A61626C653A20636F6E747261637420697320696E697469 PUSH1 0x44 DUP3 ADD MSTORE PUSH7 0x616C697A696E67 PUSH1 0xC8 SHL PUSH1 0x64 DUP3 ADD MSTORE PUSH1 0x84 ADD PUSH1 0x40 MLOAD DUP1 SWAP2 SUB SWAP1 REVERT JUMPDEST PUSH1 0x0 SLOAD PUSH1 0xFF SWAP1 DUP2 AND LT ISZERO PUSH3 0xE6 JUMPI PUSH1 0x0 DUP1 SLOAD PUSH1 0xFF NOT AND PUSH1 0xFF SWAP1 DUP2 OR SWAP1 SWAP2 SSTORE PUSH1 0x40 MLOAD SWAP1 DUP2 MSTORE PUSH32 0x7F26B83FF96E1F2B6A682F133852F6798A09C465DA95921460CEFB3847402498 SWAP1 PUSH1 0x20 ADD PUSH1 0x40 MLOAD DUP1 SWAP2 SUB SWAP1 LOG1 JUMPDEST JUMP JUMPDEST PUSH1 0x80 MLOAD PUSH2 0x4A68 PUSH3 0x120 PUSH1 0x0 CODECOPY PUSH1 0x0 DUP2 DUP2 PUSH2 0xF22 ADD MSTORE DUP2 DUP2 PUSH2 0xF62 ADD MSTORE DUP2 DUP2 PUSH2 0x120B ADD MSTORE DUP2 DUP2 PUSH2 0x124B ADD MSTORE PUSH2 0x12DE ADD MSTORE PUSH2 0x4A68 PUSH1 0x0 RETURN INVALID PUSH1 0x80 PUSH1 0x40 MSTORE PUSH1 0x4 CALLDATASIZE LT PUSH2 0x297 JUMPI PUSH1 0x0 CALLDATALOAD PUSH1 0xE0 SHR DUP1 PUSH4 0x715018A6 GT PUSH2 0x15A JUMPI DUP1 PUSH4 0xC28BC2FA GT PUSH2 0xC1 JUMPI DUP1 PUSH4 0xEB9019D4 GT PUSH2 0x7A JUMPI DUP1 PUSH4 0xEB9019D4 EQ PUSH2 0x8B9 JUMPI DUP1 PUSH4 0xECE40CC1 EQ PUSH2 0x8D9 JUMPI DUP1 PUSH4 0xF23A6E61 EQ PUSH2 0x8F9 JUMPI DUP1 PUSH4 0xF2FDE38B EQ PUSH2 0x925 JUMPI DUP1 PUSH4 0xF8CE560A EQ PUSH2 0x945 JUMPI DUP1 PUSH4 0xFC0C546A EQ PUSH2 0x965 JUMPI PUSH1 0x0 DUP1 REVERT JUMPDEST DUP1 PUSH4 0xC28BC2FA EQ PUSH2 0x7C0 JUMPI DUP1 PUSH4 0xC59057E4 EQ PUSH2 0x7E0 JUMPI DUP1 PUSH4 0xD33219B4 EQ PUSH2 0x800 JUMPI DUP1 PUSH4 0xDD4E2BA5 EQ PUSH2 0x81F JUMPI DUP1 PUSH4 0xDEAAA7CC EQ PUSH2 0x865 JUMPI DUP1 PUSH4 0xEA0217CF EQ PUSH2 0x899 JUMPI PUSH1 0x0 DUP1 REVERT JUMPDEST DUP1 PUSH4 0xA7713A70 GT PUSH2 0x113 JUMPI DUP1 PUSH4 0xA7713A70 EQ PUSH2 0x70A JUMPI DUP1 PUSH4 0xA890C910 EQ PUSH2 0x71F JUMPI DUP1 PUSH4 0xAB58FB8E EQ PUSH2 0x73F JUMPI DUP1 PUSH4 0xB58131B0 EQ PUSH2 0x75F JUMPI DUP1 PUSH4 0xBC197C81 EQ PUSH2 0x774 JUMPI DUP1 PUSH4 0xC01F9E37 EQ PUSH2 0x7A0 JUMPI PUSH1 0x0 DUP1 REVERT JUMPDEST DUP1 PUSH4 0x715018A6 EQ PUSH2 0x64E JUMPI DUP1 PUSH4 0x7B3C71D3 EQ PUSH2 0x663 JUMPI DUP1 PUSH4 0x7D5E81E2 EQ PUSH2 0x683 JUMPI DUP1 PUSH4 0x8DA5CB5B EQ PUSH2 0x6A3 JUMPI DUP1 PUSH4 0x97C3D334 EQ PUSH2 0x6D6 JUMPI DUP1 PUSH4 0x9A802A6D EQ PUSH2 0x6EA JUMPI PUSH1 0x0 DUP1 REVERT JUMPDEST DUP1 PUSH4 0x3BCCF4FD GT PUSH2 0x1FE JUMPI DUP1 PUSH4 0x544FFC9C GT PUSH2 0x1B7 JUMPI DUP1 PUSH4 0x544FFC9C EQ PUSH2 0x54E JUMPI DUP1 PUSH4 0x54FD4D50 EQ PUSH2 0x5A4 JUMPI DUP1 PUSH4 0x56781388 EQ PUSH2 0x5CE JUMPI DUP1 PUSH4 0x5F398A14 EQ PUSH2 0x5EE JUMPI DUP1 PUSH4 0x60C4247F EQ PUSH2 0x60E JUMPI DUP1 PUSH4 0x70B0F660 EQ PUSH2 0x62E JUMPI PUSH1 0x0 DUP1 REVERT JUMPDEST DUP1 PUSH4 0x3BCCF4FD EQ PUSH2 0x46E JUMPI DUP1 PUSH4 0x3E4F49E6 EQ PUSH2 0x48E JUMPI DUP1 PUSH4 0x43859632 EQ PUSH2 0x4BB JUMPI DUP1 PUSH4 0x485CC955 EQ PUSH2 0x506 JUMPI DUP1 PUSH4 0x4F1EF286 EQ PUSH2 0x526 JUMPI DUP1 PUSH4 0x52D1902D EQ PUSH2 0x539 JUMPI PUSH1 0x0 DUP1 REVERT JUMPDEST DUP1 PUSH4 0x160CBED7 GT PUSH2 0x250 JUMPI DUP1 PUSH4 0x160CBED7 EQ PUSH2 0x3B2 JUMPI DUP1 PUSH4 0x2656227D EQ PUSH2 0x3D2 JUMPI DUP1 PUSH4 0x2D63F693 EQ PUSH2 0x3E5 JUMPI DUP1 PUSH4 0x2FE3E261 EQ PUSH2 0x405 JUMPI DUP1 PUSH4 0x3659CFE6 EQ PUSH2 0x439 JUMPI DUP1 PUSH4 0x3932ABB1 EQ PUSH2 0x459 JUMPI PUSH1 0x0 DUP1 REVERT JUMPDEST DUP1 PUSH4 0x1FFC9A7 EQ PUSH2 0x2BF JUMPI DUP1 PUSH4 0x2A251A3 EQ PUSH2 0x2F4 JUMPI DUP1 PUSH4 0x3420181 EQ PUSH2 0x317 JUMPI DUP1 PUSH4 0x6F3F9E6 EQ PUSH2 0x337 JUMPI DUP1 PUSH4 0x6FDDE03 EQ PUSH2 0x357 JUMPI DUP1 PUSH4 0x150B7A02 EQ PUSH2 0x379 JUMPI PUSH1 0x0 DUP1 REVERT JUMPDEST CALLDATASIZE PUSH2 0x2BA JUMPI ADDRESS PUSH2 0x2A5 PUSH2 0x986 JUMP JUMPDEST PUSH1 0x1 PUSH1 0x1 PUSH1 0xA0 SHL SUB AND EQ PUSH2 0x2B8 JUMPI PUSH1 0x0 DUP1 REVERT JUMPDEST STOP JUMPDEST PUSH1 0x0 DUP1 REVERT JUMPDEST CALLVALUE DUP1 ISZERO PUSH2 0x2CB JUMPI PUSH1 0x0 DUP1 REVERT JUMPDEST POP PUSH2 0x2DF PUSH2 0x2DA CALLDATASIZE PUSH1 0x4 PUSH2 0x38EA JUMP JUMPDEST PUSH2 0x9A0 JUMP JUMPDEST PUSH1 0x40 MLOAD SWAP1 ISZERO ISZERO DUP2 MSTORE PUSH1 0x20 ADD JUMPDEST PUSH1 0x40 MLOAD DUP1 SWAP2 SUB SWAP1 RETURN JUMPDEST CALLVALUE DUP1 ISZERO PUSH2 0x300 JUMPI PUSH1 0x0 DUP1 REVERT JUMPDEST POP PUSH2 0x309 PUSH2 0x9B1 JUMP JUMPDEST PUSH1 0x40 MLOAD SWAP1 DUP2 MSTORE PUSH1 0x20 ADD PUSH2 0x2EB JUMP JUMPDEST CALLVALUE DUP1 ISZERO PUSH2 0x323 JUMPI PUSH1 0x0 DUP1 REVERT JUMPDEST POP PUSH2 0x309 PUSH2 0x332 CALLDATASIZE PUSH1 0x4 PUSH2 0x3A28 JUMP JUMPDEST PUSH2 0x9BD JUMP JUMPDEST CALLVALUE DUP1 ISZERO PUSH2 0x343 JUMPI PUSH1 0x0 DUP1 REVERT JUMPDEST POP PUSH2 0x2B8 PUSH2 0x352 CALLDATASIZE PUSH1 0x4 PUSH2 0x3ACE JUMP JUMPDEST PUSH2 0xAB5 JUMP JUMPDEST CALLVALUE DUP1 ISZERO PUSH2 0x363 JUMPI PUSH1 0x0 DUP1 REVERT JUMPDEST POP PUSH2 0x36C PUSH2 0xB48 JUMP JUMPDEST PUSH1 0x40 MLOAD PUSH2 0x2EB SWAP2 SWAP1 PUSH2 0x3B37 JUMP JUMPDEST CALLVALUE DUP1 ISZERO PUSH2 0x385 JUMPI PUSH1 0x0 DUP1 REVERT JUMPDEST POP PUSH2 0x399 PUSH2 0x394 CALLDATASIZE PUSH1 0x4 PUSH2 0x3B5F JUMP JUMPDEST PUSH2 0xBDA JUMP JUMPDEST PUSH1 0x40 MLOAD PUSH1 0x1 PUSH1 0x1 PUSH1 0xE0 SHL SUB NOT SWAP1 SWAP2 AND DUP2 MSTORE PUSH1 0x20 ADD PUSH2 0x2EB JUMP JUMPDEST CALLVALUE DUP1 ISZERO PUSH2 0x3BE JUMPI PUSH1 0x0 DUP1 REVERT JUMPDEST POP PUSH2 0x309 PUSH2 0x3CD CALLDATASIZE PUSH1 0x4 PUSH2 0x3D3B JUMP JUMPDEST PUSH2 0xBEB JUMP JUMPDEST PUSH2 0x309 PUSH2 0x3E0 CALLDATASIZE PUSH1 0x4 PUSH2 0x3D3B JUMP JUMPDEST PUSH2 0xDEF JUMP JUMPDEST CALLVALUE DUP1 ISZERO PUSH2 0x3F1 JUMPI PUSH1 0x0 DUP1 REVERT JUMPDEST POP PUSH2 0x309 PUSH2 0x400 CALLDATASIZE PUSH1 0x4 PUSH2 0x3ACE JUMP JUMPDEST PUSH2 0xEE1 JUMP JUMPDEST CALLVALUE DUP1 ISZERO PUSH2 0x411 JUMPI PUSH1 0x0 DUP1 REVERT JUMPDEST POP PUSH2 0x309 PUSH32 0xB3B3F3B703CD84CE352197DCFF232B1B5D3CFB2025CE47CF04742D0651F1AF88 DUP2 JUMP JUMPDEST CALLVALUE DUP1 ISZERO PUSH2 0x445 JUMPI PUSH1 0x0 DUP1 REVERT JUMPDEST POP PUSH2 0x2B8 PUSH2 0x454 CALLDATASIZE PUSH1 0x4 PUSH2 0x3DCA JUMP JUMPDEST PUSH2 0xF18 JUMP JUMPDEST CALLVALUE DUP1 ISZERO PUSH2 0x465 JUMPI PUSH1 0x0 DUP1 REVERT JUMPDEST POP PUSH2 0x309 PUSH2 0xFF4 JUMP JUMPDEST CALLVALUE DUP1 ISZERO PUSH2 0x47A JUMPI PUSH1 0x0 DUP1 REVERT JUMPDEST POP PUSH2 0x309 PUSH2 0x489 CALLDATASIZE PUSH1 0x4 PUSH2 0x3DE7 JUMP JUMPDEST PUSH2 0x1000 JUMP JUMPDEST CALLVALUE DUP1 ISZERO PUSH2 0x49A JUMPI PUSH1 0x0 DUP1 REVERT JUMPDEST POP PUSH2 0x4AE PUSH2 0x4A9 CALLDATASIZE PUSH1 0x4 PUSH2 0x3ACE JUMP JUMPDEST PUSH2 0x1076 JUMP JUMPDEST PUSH1 0x40 MLOAD PUSH2 0x2EB SWAP2 SWAP1 PUSH2 0x3E4B JUMP JUMPDEST CALLVALUE DUP1 ISZERO PUSH2 0x4C7 JUMPI PUSH1 0x0 DUP1 REVERT JUMPDEST POP PUSH2 0x2DF PUSH2 0x4D6 CALLDATASIZE PUSH1 0x4 PUSH2 0x3E73 JUMP JUMPDEST PUSH1 0x0 DUP3 DUP2 MSTORE PUSH2 0x161 PUSH1 0x20 SWAP1 DUP2 MSTORE PUSH1 0x40 DUP1 DUP4 KECCAK256 PUSH1 0x1 PUSH1 0x1 PUSH1 0xA0 SHL SUB DUP6 AND DUP5 MSTORE PUSH1 0x3 ADD SWAP1 SWAP2 MSTORE SWAP1 KECCAK256 SLOAD PUSH1 0xFF AND SWAP3 SWAP2 POP POP JUMP JUMPDEST CALLVALUE DUP1 ISZERO PUSH2 0x512 JUMPI PUSH1 0x0 DUP1 REVERT JUMPDEST POP PUSH2 0x2B8 PUSH2 0x521 CALLDATASIZE PUSH1 0x4 PUSH2 0x3EA3 JUMP JUMPDEST PUSH2 0x1081 JUMP JUMPDEST PUSH2 0x2B8 PUSH2 0x534 CALLDATASIZE PUSH1 0x4 PUSH2 0x3ED1 JUMP JUMPDEST PUSH2 0x1201 JUMP JUMPDEST CALLVALUE DUP1 ISZERO PUSH2 0x545 JUMPI PUSH1 0x0 DUP1 REVERT JUMPDEST POP PUSH2 0x309 PUSH2 0x12D1 JUMP JUMPDEST CALLVALUE DUP1 ISZERO PUSH2 0x55A JUMPI PUSH1 0x0 DUP1 REVERT JUMPDEST POP PUSH2 0x589 PUSH2 0x569 CALLDATASIZE PUSH1 0x4 PUSH2 0x3ACE JUMP JUMPDEST PUSH1 0x0 SWAP1 DUP2 MSTORE PUSH2 0x161 PUSH1 0x20 MSTORE PUSH1 0x40 SWAP1 KECCAK256 DUP1 SLOAD PUSH1 0x1 DUP3 ADD SLOAD PUSH1 0x2 SWAP1 SWAP3 ADD SLOAD SWAP1 SWAP3 JUMP JUMPDEST PUSH1 0x40 DUP1 MLOAD SWAP4 DUP5 MSTORE PUSH1 0x20 DUP5 ADD SWAP3 SWAP1 SWAP3 MSTORE SWAP1 DUP3 ADD MSTORE PUSH1 0x60 ADD PUSH2 0x2EB JUMP JUMPDEST CALLVALUE DUP1 ISZERO PUSH2 0x5B0 JUMPI PUSH1 0x0 DUP1 REVERT JUMPDEST POP PUSH1 0x40 DUP1 MLOAD DUP1 DUP3 ADD SWAP1 SWAP2 MSTORE PUSH1 0x1 DUP2 MSTORE PUSH1 0x31 PUSH1 0xF8 SHL PUSH1 0x20 DUP3 ADD MSTORE PUSH2 0x36C JUMP JUMPDEST CALLVALUE DUP1 ISZERO PUSH2 0x5DA JUMPI PUSH1 0x0 DUP1 REVERT JUMPDEST POP PUSH2 0x309 PUSH2 0x5E9 CALLDATASIZE PUSH1 0x4 PUSH2 0x3F20 JUMP JUMPDEST PUSH2 0x1384 JUMP JUMPDEST CALLVALUE DUP1 ISZERO PUSH2 0x5FA JUMPI PUSH1 0x0 DUP1 REVERT JUMPDEST POP PUSH2 0x309 PUSH2 0x609 CALLDATASIZE PUSH1 0x4 PUSH2 0x3F4C JUMP JUMPDEST PUSH2 0x13A5 JUMP JUMPDEST CALLVALUE DUP1 ISZERO PUSH2 0x61A JUMPI PUSH1 0x0 DUP1 REVERT JUMPDEST POP PUSH2 0x309 PUSH2 0x629 CALLDATASIZE PUSH1 0x4 PUSH2 0x3ACE JUMP JUMPDEST PUSH2 0x13EF JUMP JUMPDEST CALLVALUE DUP1 ISZERO PUSH2 0x63A JUMPI PUSH1 0x0 DUP1 REVERT JUMPDEST POP PUSH2 0x2B8 PUSH2 0x649 CALLDATASIZE PUSH1 0x4 PUSH2 0x3ACE JUMP JUMPDEST PUSH2 0x148A JUMP JUMPDEST CALLVALUE DUP1 ISZERO PUSH2 0x65A JUMPI PUSH1 0x0 DUP1 REVERT JUMPDEST POP PUSH2 0x2B8 PUSH2 0x1511 JUMP JUMPDEST CALLVALUE DUP1 ISZERO PUSH2 0x66F JUMPI PUSH1 0x0 DUP1 REVERT JUMPDEST POP PUSH2 0x309 PUSH2 0x67E CALLDATASIZE PUSH1 0x4 PUSH2 0x3FCF JUMP JUMPDEST PUSH2 0x1525 JUMP JUMPDEST CALLVALUE DUP1 ISZERO PUSH2 0x68F JUMPI PUSH1 0x0 DUP1 REVERT JUMPDEST POP PUSH2 0x309 PUSH2 0x69E CALLDATASIZE PUSH1 0x4 PUSH2 0x4028 JUMP JUMPDEST PUSH2 0x1577 JUMP JUMPDEST CALLVALUE DUP1 ISZERO PUSH2 0x6AF JUMPI PUSH1 0x0 DUP1 REVERT JUMPDEST POP PUSH2 0x22A SLOAD PUSH1 0x1 PUSH1 0x1 PUSH1 0xA0 SHL SUB AND JUMPDEST PUSH1 0x40 MLOAD PUSH1 0x1 PUSH1 0x1 PUSH1 0xA0 SHL SUB SWAP1 SWAP2 AND DUP2 MSTORE PUSH1 0x20 ADD PUSH2 0x2EB JUMP JUMPDEST CALLVALUE DUP1 ISZERO PUSH2 0x6E2 JUMPI PUSH1 0x0 DUP1 REVERT JUMPDEST POP PUSH1 0x64 PUSH2 0x309 JUMP JUMPDEST CALLVALUE DUP1 ISZERO PUSH2 0x6F6 JUMPI PUSH1 0x0 DUP1 REVERT JUMPDEST POP PUSH2 0x309 PUSH2 0x705 CALLDATASIZE PUSH1 0x4 PUSH2 0x40DC JUMP JUMPDEST PUSH2 0x158E JUMP JUMPDEST CALLVALUE DUP1 ISZERO PUSH2 0x716 JUMPI PUSH1 0x0 DUP1 REVERT JUMPDEST POP PUSH2 0x309 PUSH2 0x15A5 JUMP JUMPDEST CALLVALUE DUP1 ISZERO PUSH2 0x72B JUMPI PUSH1 0x0 DUP1 REVERT JUMPDEST POP PUSH2 0x2B8 PUSH2 0x73A CALLDATASIZE PUSH1 0x4 PUSH2 0x3DCA JUMP JUMPDEST PUSH2 0x15D2 JUMP JUMPDEST CALLVALUE DUP1 ISZERO PUSH2 0x74B JUMPI PUSH1 0x0 DUP1 REVERT JUMPDEST POP PUSH2 0x309 PUSH2 0x75A CALLDATASIZE PUSH1 0x4 PUSH2 0x3ACE JUMP JUMPDEST PUSH2 0x1659 JUMP JUMPDEST CALLVALUE DUP1 ISZERO PUSH2 0x76B JUMPI PUSH1 0x0 DUP1 REVERT JUMPDEST POP PUSH2 0x309 PUSH2 0x16F5 JUMP JUMPDEST CALLVALUE DUP1 ISZERO PUSH2 0x780 JUMPI PUSH1 0x0 DUP1 REVERT JUMPDEST POP PUSH2 0x399 PUSH2 0x78F CALLDATASIZE PUSH1 0x4 PUSH2 0x4134 JUMP JUMPDEST PUSH4 0xBC197C81 PUSH1 0xE0 SHL SWAP6 SWAP5 POP POP POP POP POP JUMP JUMPDEST CALLVALUE DUP1 ISZERO PUSH2 0x7AC JUMPI PUSH1 0x0 DUP1 REVERT JUMPDEST POP PUSH2 0x309 PUSH2 0x7BB CALLDATASIZE PUSH1 0x4 PUSH2 0x3ACE JUMP JUMPDEST PUSH2 0x1701 JUMP JUMPDEST CALLVALUE DUP1 ISZERO PUSH2 0x7CC JUMPI PUSH1 0x0 DUP1 REVERT JUMPDEST POP PUSH2 0x2B8 PUSH2 0x7DB CALLDATASIZE PUSH1 0x4 PUSH2 0x41C7 JUMP JUMPDEST PUSH2 0x1730 JUMP JUMPDEST CALLVALUE DUP1 ISZERO PUSH2 0x7EC JUMPI PUSH1 0x0 DUP1 REVERT JUMPDEST POP PUSH2 0x309 PUSH2 0x7FB CALLDATASIZE PUSH1 0x4 PUSH2 0x3D3B JUMP JUMPDEST PUSH2 0x17F7 JUMP JUMPDEST CALLVALUE DUP1 ISZERO PUSH2 0x80C JUMPI PUSH1 0x0 DUP1 REVERT JUMPDEST POP PUSH2 0x1F8 SLOAD PUSH1 0x1 PUSH1 0x1 PUSH1 0xA0 SHL SUB AND PUSH2 0x6BE JUMP JUMPDEST CALLVALUE DUP1 ISZERO PUSH2 0x82B JUMPI PUSH1 0x0 DUP1 REVERT JUMPDEST POP PUSH1 0x40 DUP1 MLOAD DUP1 DUP3 ADD SWAP1 SWAP2 MSTORE PUSH1 0x20 DUP1 DUP3 MSTORE PUSH32 0x737570706F72743D627261766F2671756F72756D3D666F722C6162737461696E SWAP1 DUP3 ADD MSTORE PUSH2 0x36C JUMP JUMPDEST CALLVALUE DUP1 ISZERO PUSH2 0x871 JUMPI PUSH1 0x0 DUP1 REVERT JUMPDEST POP PUSH2 0x309 PUSH32 0x150214D74D59B7D1E90C73FC22EF3D991DD0A76B046543D4D80AB92D2A50328F DUP2 JUMP JUMPDEST CALLVALUE DUP1 ISZERO PUSH2 0x8A5 JUMPI PUSH1 0x0 DUP1 REVERT JUMPDEST POP PUSH2 0x2B8 PUSH2 0x8B4 CALLDATASIZE PUSH1 0x4 PUSH2 0x3ACE JUMP JUMPDEST PUSH2 0x1831 JUMP JUMPDEST CALLVALUE DUP1 ISZERO PUSH2 0x8C5 JUMPI PUSH1 0x0 DUP1 REVERT JUMPDEST POP PUSH2 0x309 PUSH2 0x8D4 CALLDATASIZE PUSH1 0x4 PUSH2 0x420A JUMP JUMPDEST PUSH2 0x18B8 JUMP JUMPDEST CALLVALUE DUP1 ISZERO PUSH2 0x8E5 JUMPI PUSH1 0x0 DUP1 REVERT JUMPDEST POP PUSH2 0x2B8 PUSH2 0x8F4 CALLDATASIZE PUSH1 0x4 PUSH2 0x3ACE JUMP JUMPDEST PUSH2 0x18D9 JUMP JUMPDEST CALLVALUE DUP1 ISZERO PUSH2 0x905 JUMPI PUSH1 0x0 DUP1 REVERT JUMPDEST POP PUSH2 0x399 PUSH2 0x914 CALLDATASIZE PUSH1 0x4 PUSH2 0x4236 JUMP JUMPDEST PUSH4 0xF23A6E61 PUSH1 0xE0 SHL SWAP6 SWAP5 POP POP POP POP POP JUMP JUMPDEST CALLVALUE DUP1 ISZERO PUSH2 0x931 JUMPI PUSH1 0x0 DUP1 REVERT JUMPDEST POP PUSH2 0x2B8 PUSH2 0x940 CALLDATASIZE PUSH1 0x4 PUSH2 0x3DCA JUMP JUMPDEST PUSH2 0x1960 JUMP JUMPDEST CALLVALUE DUP1 ISZERO PUSH2 0x951 JUMPI PUSH1 0x0 DUP1 REVERT JUMPDEST POP PUSH2 0x309 PUSH2 0x960 CALLDATASIZE PUSH1 0x4 PUSH2 0x3ACE JUMP JUMPDEST PUSH2 0x19D6 JUMP JUMPDEST CALLVALUE DUP1 ISZERO PUSH2 0x971 JUMPI PUSH1 0x0 DUP1 REVERT JUMPDEST POP PUSH2 0x193 SLOAD PUSH2 0x6BE SWAP1 PUSH1 0x1 PUSH1 0x1 PUSH1 0xA0 SHL SUB AND DUP2 JUMP JUMPDEST PUSH1 0x0 PUSH2 0x99B PUSH2 0x1F8 SLOAD PUSH1 0x1 PUSH1 0x1 PUSH1 0xA0 SHL SUB AND SWAP1 JUMP JUMPDEST SWAP1 POP SWAP1 JUMP JUMPDEST PUSH1 0x0 PUSH2 0x9AB DUP3 PUSH2 0x19E1 JUMP JUMPDEST SWAP3 SWAP2 POP POP JUMP JUMPDEST PUSH1 0x0 PUSH2 0x99B PUSH2 0x130 SLOAD SWAP1 JUMP JUMPDEST PUSH1 0x0 DUP1 PUSH2 0xA61 PUSH2 0xA59 PUSH32 0xB3B3F3B703CD84CE352197DCFF232B1B5D3CFB2025CE47CF04742D0651F1AF88 DUP13 DUP13 DUP13 DUP13 PUSH1 0x40 MLOAD PUSH2 0x9F9 SWAP3 SWAP2 SWAP1 PUSH2 0x429E JUMP JUMPDEST PUSH1 0x40 MLOAD DUP1 SWAP2 SUB SWAP1 KECCAK256 DUP12 DUP1 MLOAD SWAP1 PUSH1 0x20 ADD KECCAK256 PUSH1 0x40 MLOAD PUSH1 0x20 ADD PUSH2 0xA3E SWAP6 SWAP5 SWAP4 SWAP3 SWAP2 SWAP1 SWAP5 DUP6 MSTORE PUSH1 0x20 DUP6 ADD SWAP4 SWAP1 SWAP4 MSTORE PUSH1 0xFF SWAP2 SWAP1 SWAP2 AND PUSH1 0x40 DUP5 ADD MSTORE PUSH1 0x60 DUP4 ADD MSTORE PUSH1 0x80 DUP3 ADD MSTORE PUSH1 0xA0 ADD SWAP1 JUMP JUMPDEST PUSH1 0x40 MLOAD PUSH1 0x20 DUP2 DUP4 SUB SUB DUP2 MSTORE SWAP1 PUSH1 0x40 MSTORE DUP1 MLOAD SWAP1 PUSH1 0x20 ADD KECCAK256 PUSH2 0x1A06 JUMP JUMPDEST DUP7 DUP7 DUP7 PUSH2 0x1A54 JUMP JUMPDEST SWAP1 POP PUSH2 0xAA7 DUP11 DUP3 DUP12 DUP12 DUP12 DUP1 DUP1 PUSH1 0x1F ADD PUSH1 0x20 DUP1 SWAP2 DIV MUL PUSH1 0x20 ADD PUSH1 0x40 MLOAD SWAP1 DUP2 ADD PUSH1 0x40 MSTORE DUP1 SWAP4 SWAP3 SWAP2 SWAP1 DUP2 DUP2 MSTORE PUSH1 0x20 ADD DUP4 DUP4 DUP1 DUP3 DUP5 CALLDATACOPY PUSH1 0x0 SWAP3 ADD SWAP2 SWAP1 SWAP2 MSTORE POP DUP14 SWAP3 POP PUSH2 0x1A72 SWAP2 POP POP JUMP JUMPDEST SWAP11 SWAP10 POP POP POP POP POP POP POP POP POP POP JUMP JUMPDEST PUSH2 0xABD PUSH2 0x986 JUMP JUMPDEST PUSH1 0x1 PUSH1 0x1 PUSH1 0xA0 SHL SUB AND CALLER PUSH1 0x1 PUSH1 0x1 PUSH1 0xA0 SHL SUB AND EQ PUSH2 0xAF6 JUMPI PUSH1 0x40 MLOAD PUSH3 0x461BCD PUSH1 0xE5 SHL DUP2 MSTORE PUSH1 0x4 ADD PUSH2 0xAED SWAP1 PUSH2 0x42AE JUMP JUMPDEST PUSH1 0x40 MLOAD DUP1 SWAP2 SUB SWAP1 REVERT JUMPDEST ADDRESS PUSH2 0xAFF PUSH2 0x986 JUMP JUMPDEST PUSH1 0x1 PUSH1 0x1 PUSH1 0xA0 SHL SUB AND EQ PUSH2 0xB3C JUMPI PUSH1 0x0 DUP1 CALLDATASIZE PUSH1 0x40 MLOAD PUSH2 0xB1F SWAP3 SWAP2 SWAP1 PUSH2 0x429E JUMP JUMPDEST PUSH1 0x40 MLOAD DUP1 SWAP2 SUB SWAP1 KECCAK256 SWAP1 POP JUMPDEST DUP1 PUSH2 0xB35 PUSH1 0xFF PUSH2 0x1BD6 JUMP JUMPDEST SUB PUSH2 0xB2A JUMPI POP JUMPDEST PUSH2 0xB45 DUP2 PUSH2 0x1C55 JUMP JUMPDEST POP JUMP JUMPDEST PUSH1 0x60 PUSH1 0xFD DUP1 SLOAD PUSH2 0xB57 SWAP1 PUSH2 0x42E5 JUMP JUMPDEST DUP1 PUSH1 0x1F ADD PUSH1 0x20 DUP1 SWAP2 DIV MUL PUSH1 0x20 ADD PUSH1 0x40 MLOAD SWAP1 DUP2 ADD PUSH1 0x40 MSTORE DUP1 SWAP3 SWAP2 SWAP1 DUP2 DUP2 MSTORE PUSH1 0x20 ADD DUP3 DUP1 SLOAD PUSH2 0xB83 SWAP1 PUSH2 0x42E5 JUMP JUMPDEST DUP1 ISZERO PUSH2 0xBD0 JUMPI DUP1 PUSH1 0x1F LT PUSH2 0xBA5 JUMPI PUSH2 0x100 DUP1 DUP4 SLOAD DIV MUL DUP4 MSTORE SWAP2 PUSH1 0x20 ADD SWAP2 PUSH2 0xBD0 JUMP JUMPDEST DUP3 ADD SWAP2 SWAP1 PUSH1 0x0 MSTORE PUSH1 0x20 PUSH1 0x0 KECCAK256 SWAP1 JUMPDEST DUP2 SLOAD DUP2 MSTORE SWAP1 PUSH1 0x1 ADD SWAP1 PUSH1 0x20 ADD DUP1 DUP4 GT PUSH2 0xBB3 JUMPI DUP3 SWAP1 SUB PUSH1 0x1F AND DUP3 ADD SWAP2 JUMPDEST POP POP POP POP POP SWAP1 POP SWAP1 JUMP JUMPDEST PUSH4 0xA85BD01 PUSH1 0xE1 SHL JUMPDEST SWAP5 SWAP4 POP POP POP POP JUMP JUMPDEST PUSH1 0x0 DUP1 PUSH2 0xBFA DUP7 DUP7 DUP7 DUP7 PUSH2 0x17F7 JUMP JUMPDEST SWAP1 POP PUSH1 0x4 PUSH2 0xC07 DUP3 PUSH2 0x1076 JUMP JUMPDEST PUSH1 0x7 DUP2 GT ISZERO PUSH2 0xC18 JUMPI PUSH2 0xC18 PUSH2 0x3E35 JUMP JUMPDEST EQ PUSH2 0xC35 JUMPI PUSH1 0x40 MLOAD PUSH3 0x461BCD PUSH1 0xE5 SHL DUP2 MSTORE PUSH1 0x4 ADD PUSH2 0xAED SWAP1 PUSH2 0x431F JUMP JUMPDEST PUSH2 0x1F8 SLOAD PUSH1 0x40 DUP1 MLOAD PUSH4 0x793D0649 PUSH1 0xE1 SHL DUP2 MSTORE SWAP1 MLOAD PUSH1 0x0 SWAP3 PUSH1 0x1 PUSH1 0x1 PUSH1 0xA0 SHL SUB AND SWAP2 PUSH4 0xF27A0C92 SWAP2 PUSH1 0x4 DUP1 DUP4 ADD SWAP3 PUSH1 0x20 SWAP3 SWAP2 SWAP1 DUP3 SWAP1 SUB ADD DUP2 DUP7 GAS STATICCALL ISZERO DUP1 ISZERO PUSH2 0xC80 JUMPI RETURNDATASIZE PUSH1 0x0 DUP1 RETURNDATACOPY RETURNDATASIZE PUSH1 0x0 REVERT JUMPDEST POP POP POP POP PUSH1 0x40 MLOAD RETURNDATASIZE PUSH1 0x1F NOT PUSH1 0x1F DUP3 ADD AND DUP3 ADD DUP1 PUSH1 0x40 MSTORE POP DUP2 ADD SWAP1 PUSH2 0xCA4 SWAP2 SWAP1 PUSH2 0x4360 JUMP JUMPDEST PUSH2 0x1F8 SLOAD PUSH1 0x40 MLOAD PUSH4 0xB1C5F427 PUSH1 0xE0 SHL DUP2 MSTORE SWAP2 SWAP3 POP PUSH1 0x1 PUSH1 0x1 PUSH1 0xA0 SHL SUB AND SWAP1 PUSH4 0xB1C5F427 SWAP1 PUSH2 0xCDF SWAP1 DUP11 SWAP1 DUP11 SWAP1 DUP11 SWAP1 PUSH1 0x0 SWAP1 DUP12 SWAP1 PUSH1 0x4 ADD PUSH2 0x4442 JUMP JUMPDEST PUSH1 0x20 PUSH1 0x40 MLOAD DUP1 DUP4 SUB DUP2 DUP7 GAS STATICCALL ISZERO DUP1 ISZERO PUSH2 0xCFC JUMPI RETURNDATASIZE PUSH1 0x0 DUP1 RETURNDATACOPY RETURNDATASIZE PUSH1 0x0 REVERT JUMPDEST POP POP POP POP PUSH1 0x40 MLOAD RETURNDATASIZE PUSH1 0x1F NOT PUSH1 0x1F DUP3 ADD AND DUP3 ADD DUP1 PUSH1 0x40 MSTORE POP DUP2 ADD SWAP1 PUSH2 0xD20 SWAP2 SWAP1 PUSH2 0x4360 JUMP JUMPDEST PUSH1 0x0 DUP4 DUP2 MSTORE PUSH2 0x1F9 PUSH1 0x20 MSTORE PUSH1 0x40 DUP1 DUP3 KECCAK256 SWAP3 SWAP1 SWAP3 SSTORE PUSH2 0x1F8 SLOAD SWAP2 MLOAD PUSH4 0x8F2A0BB PUSH1 0xE4 SHL DUP2 MSTORE PUSH1 0x1 PUSH1 0x1 PUSH1 0xA0 SHL SUB SWAP1 SWAP3 AND SWAP2 PUSH4 0x8F2A0BB0 SWAP2 PUSH2 0xD6D SWAP2 DUP12 SWAP2 DUP12 SWAP2 DUP12 SWAP2 SWAP1 DUP12 SWAP1 DUP10 SWAP1 PUSH1 0x4 ADD PUSH2 0x4490 JUMP JUMPDEST PUSH1 0x0 PUSH1 0x40 MLOAD DUP1 DUP4 SUB DUP2 PUSH1 0x0 DUP8 DUP1 EXTCODESIZE ISZERO DUP1 ISZERO PUSH2 0xD87 JUMPI PUSH1 0x0 DUP1 REVERT JUMPDEST POP GAS CALL ISZERO DUP1 ISZERO PUSH2 0xD9B JUMPI RETURNDATASIZE PUSH1 0x0 DUP1 RETURNDATACOPY RETURNDATASIZE PUSH1 0x0 REVERT JUMPDEST POP POP POP POP PUSH32 0x9A2E42FD6722813D69113E7D0079D3D940171428DF7373DF9C7F7617CFDA2892 DUP3 DUP3 TIMESTAMP PUSH2 0xDCD SWAP2 SWAP1 PUSH2 0x44FE JUMP JUMPDEST PUSH1 0x40 DUP1 MLOAD SWAP3 DUP4 MSTORE PUSH1 0x20 DUP4 ADD SWAP2 SWAP1 SWAP2 MSTORE ADD PUSH1 0x40 MLOAD DUP1 SWAP2 SUB SWAP1 LOG1 POP SWAP6 SWAP5 POP POP POP POP POP JUMP JUMPDEST PUSH1 0x0 DUP1 PUSH2 0xDFE DUP7 DUP7 DUP7 DUP7 PUSH2 0x17F7 JUMP JUMPDEST SWAP1 POP PUSH1 0x0 PUSH2 0xE0B DUP3 PUSH2 0x1076 JUMP JUMPDEST SWAP1 POP PUSH1 0x4 DUP2 PUSH1 0x7 DUP2 GT ISZERO PUSH2 0xE21 JUMPI PUSH2 0xE21 PUSH2 0x3E35 JUMP JUMPDEST EQ DUP1 PUSH2 0xE3E JUMPI POP PUSH1 0x5 DUP2 PUSH1 0x7 DUP2 GT ISZERO PUSH2 0xE3C JUMPI PUSH2 0xE3C PUSH2 0x3E35 JUMP JUMPDEST EQ JUMPDEST PUSH2 0xE5A JUMPI PUSH1 0x40 MLOAD PUSH3 0x461BCD PUSH1 0xE5 SHL DUP2 MSTORE PUSH1 0x4 ADD PUSH2 0xAED SWAP1 PUSH2 0x431F JUMP JUMPDEST PUSH1 0x0 DUP3 DUP2 MSTORE PUSH1 0xFE PUSH1 0x20 MSTORE PUSH1 0x40 SWAP1 DUP2 SWAP1 KECCAK256 PUSH1 0x2 ADD DUP1 SLOAD PUSH1 0xFF NOT AND PUSH1 0x1 OR SWAP1 SSTORE MLOAD PUSH32 0x712AE1383F79AC853F8D882153778E0260EF8F03B504E2866E0593E04D2B291F SWAP1 PUSH2 0xEA8 SWAP1 DUP5 DUP2 MSTORE PUSH1 0x20 ADD SWAP1 JUMP JUMPDEST PUSH1 0x40 MLOAD DUP1 SWAP2 SUB SWAP1 LOG1 PUSH2 0xEBD DUP3 DUP9 DUP9 DUP9 DUP9 PUSH2 0x1DA4 JUMP JUMPDEST PUSH2 0xECA DUP3 DUP9 DUP9 DUP9 DUP9 PUSH2 0x1E45 JUMP JUMPDEST PUSH2 0xED7 DUP3 DUP9 DUP9 DUP9 DUP9 PUSH2 0x1E52 JUMP JUMPDEST POP SWAP6 SWAP5 POP POP POP POP POP JUMP JUMPDEST PUSH1 0x0 DUP2 DUP2 MSTORE PUSH1 0xFE PUSH1 0x20 SWAP1 DUP2 MSTORE PUSH1 0x40 DUP1 DUP4 KECCAK256 DUP2 MLOAD SWAP3 DUP4 ADD SWAP1 SWAP2 MSTORE SLOAD PUSH1 0x1 PUSH1 0x1 PUSH1 0x40 SHL SUB AND SWAP1 DUP2 SWAP1 MSTORE JUMPDEST PUSH1 0x1 PUSH1 0x1 PUSH1 0x40 SHL SUB AND SWAP3 SWAP2 POP POP JUMP JUMPDEST PUSH1 0x1 PUSH1 0x1 PUSH1 0xA0 SHL SUB PUSH32 0x0 AND ADDRESS SUB PUSH2 0xF60 JUMPI PUSH1 0x40 MLOAD PUSH3 0x461BCD PUSH1 0xE5 SHL DUP2 MSTORE PUSH1 0x4 ADD PUSH2 0xAED SWAP1 PUSH2 0x4511 JUMP JUMPDEST PUSH32 0x0 PUSH1 0x1 PUSH1 0x1 PUSH1 0xA0 SHL SUB AND PUSH2 0xFA9 PUSH1 0x0 DUP1 MLOAD PUSH1 0x20 PUSH2 0x49C3 DUP4 CODECOPY DUP2 MLOAD SWAP2 MSTORE SLOAD PUSH1 0x1 PUSH1 0x1 PUSH1 0xA0 SHL SUB AND SWAP1 JUMP JUMPDEST PUSH1 0x1 PUSH1 0x1 PUSH1 0xA0 SHL SUB AND EQ PUSH2 0xFCF JUMPI PUSH1 0x40 MLOAD PUSH3 0x461BCD PUSH1 0xE5 SHL DUP2 MSTORE PUSH1 0x4 ADD PUSH2 0xAED SWAP1 PUSH2 0x455D JUMP JUMPDEST PUSH2 0xFD8 DUP2 PUSH2 0x1E8B JUMP JUMPDEST PUSH1 0x40 DUP1 MLOAD PUSH1 0x0 DUP1 DUP3 MSTORE PUSH1 0x20 DUP3 ADD SWAP1 SWAP3 MSTORE PUSH2 0xB45 SWAP2 DUP4 SWAP2 SWAP1 PUSH2 0x1E93 JUMP JUMPDEST PUSH1 0x0 PUSH2 0x99B PUSH2 0x12F SLOAD SWAP1 JUMP JUMPDEST PUSH1 0x40 DUP1 MLOAD PUSH32 0x150214D74D59B7D1E90C73FC22EF3D991DD0A76B046543D4D80AB92D2A50328F PUSH1 0x20 DUP3 ADD MSTORE SWAP1 DUP2 ADD DUP7 SWAP1 MSTORE PUSH1 0xFF DUP6 AND PUSH1 0x60 DUP3 ADD MSTORE PUSH1 0x0 SWAP1 DUP2 SWAP1 PUSH2 0x104E SWAP1 PUSH2 0xA59 SWAP1 PUSH1 0x80 ADD PUSH2 0xA3E JUMP JUMPDEST SWAP1 POP PUSH2 0x106B DUP8 DUP3 DUP9 PUSH1 0x40 MLOAD DUP1 PUSH1 0x20 ADD PUSH1 0x40 MSTORE DUP1 PUSH1 0x0 DUP2 MSTORE POP PUSH2 0x1FFE JUMP JUMPDEST SWAP8 SWAP7 POP POP POP POP POP POP POP JUMP JUMPDEST PUSH1 0x0 PUSH2 0x9AB DUP3 PUSH2 0x2021 JUMP JUMPDEST PUSH1 0x0 SLOAD PUSH2 0x100 SWAP1 DIV PUSH1 0xFF AND ISZERO DUP1 DUP1 ISZERO PUSH2 0x10A1 JUMPI POP PUSH1 0x0 SLOAD PUSH1 0x1 PUSH1 0xFF SWAP1 SWAP2 AND LT JUMPDEST DUP1 PUSH2 0x10BB JUMPI POP ADDRESS EXTCODESIZE ISZERO DUP1 ISZERO PUSH2 0x10BB JUMPI POP PUSH1 0x0 SLOAD PUSH1 0xFF AND PUSH1 0x1 EQ JUMPDEST PUSH2 0x111E JUMPI PUSH1 0x40 MLOAD PUSH3 0x461BCD PUSH1 0xE5 SHL DUP2 MSTORE PUSH1 0x20 PUSH1 0x4 DUP3 ADD MSTORE PUSH1 0x2E PUSH1 0x24 DUP3 ADD MSTORE PUSH32 0x496E697469616C697A61626C653A20636F6E747261637420697320616C726561 PUSH1 0x44 DUP3 ADD MSTORE PUSH14 0x191E481A5B9A5D1A585B1A5E9959 PUSH1 0x92 SHL PUSH1 0x64 DUP3 ADD MSTORE PUSH1 0x84 ADD PUSH2 0xAED JUMP JUMPDEST PUSH1 0x0 DUP1 SLOAD PUSH1 0xFF NOT AND PUSH1 0x1 OR SWAP1 SSTORE DUP1 ISZERO PUSH2 0x1141 JUMPI PUSH1 0x0 DUP1 SLOAD PUSH2 0xFF00 NOT AND PUSH2 0x100 OR SWAP1 SSTORE JUMPDEST PUSH2 0x116C PUSH1 0x40 MLOAD DUP1 PUSH1 0x40 ADD PUSH1 0x40 MSTORE DUP1 PUSH1 0xA DUP2 MSTORE PUSH1 0x20 ADD PUSH10 0x26BCA3B7BB32B93737B9 PUSH1 0xB1 SHL DUP2 MSTORE POP PUSH2 0x216E JUMP JUMPDEST PUSH2 0x1182 PUSH1 0x1 PUSH2 0xC4E0 PUSH8 0xDE0B6B3A7640000 PUSH2 0x21C5 JUMP JUMPDEST PUSH2 0x118A PUSH2 0x21F7 JUMP JUMPDEST PUSH2 0x1193 DUP4 PUSH2 0x221E JUMP JUMPDEST PUSH2 0x119D PUSH1 0xA PUSH2 0x224E JUMP JUMPDEST PUSH2 0x11A6 DUP3 PUSH2 0x227E JUMP JUMPDEST PUSH2 0x11AE PUSH2 0x22AE JUMP JUMPDEST PUSH2 0x11B6 PUSH2 0x21F7 JUMP JUMPDEST DUP1 ISZERO PUSH2 0x11FC JUMPI PUSH1 0x0 DUP1 SLOAD PUSH2 0xFF00 NOT AND SWAP1 SSTORE PUSH1 0x40 MLOAD PUSH1 0x1 DUP2 MSTORE PUSH32 0x7F26B83FF96E1F2B6A682F133852F6798A09C465DA95921460CEFB3847402498 SWAP1 PUSH1 0x20 ADD PUSH1 0x40 MLOAD DUP1 SWAP2 SUB SWAP1 LOG1 JUMPDEST POP POP POP JUMP JUMPDEST PUSH1 0x1 PUSH1 0x1 PUSH1 0xA0 SHL SUB PUSH32 0x0 AND ADDRESS SUB PUSH2 0x1249 JUMPI PUSH1 0x40 MLOAD PUSH3 0x461BCD PUSH1 0xE5 SHL DUP2 MSTORE PUSH1 0x4 ADD PUSH2 0xAED SWAP1 PUSH2 0x4511 JUMP JUMPDEST PUSH32 0x0 PUSH1 0x1 PUSH1 0x1 PUSH1 0xA0 SHL SUB AND PUSH2 0x1292 PUSH1 0x0 DUP1 MLOAD PUSH1 0x20 PUSH2 0x49C3 DUP4 CODECOPY DUP2 MLOAD SWAP2 MSTORE SLOAD PUSH1 0x1 PUSH1 0x1 PUSH1 0xA0 SHL SUB AND SWAP1 JUMP JUMPDEST PUSH1 0x1 PUSH1 0x1 PUSH1 0xA0 SHL SUB AND EQ PUSH2 0x12B8 JUMPI PUSH1 0x40 MLOAD PUSH3 0x461BCD PUSH1 0xE5 SHL DUP2 MSTORE PUSH1 0x4 ADD PUSH2 0xAED SWAP1 PUSH2 0x455D JUMP JUMPDEST PUSH2 0x12C1 DUP3 PUSH2 0x1E8B JUMP JUMPDEST PUSH2 0x12CD DUP3 DUP3 PUSH1 0x1 PUSH2 0x1E93 JUMP JUMPDEST POP POP JUMP JUMPDEST PUSH1 0x0 ADDRESS PUSH1 0x1 PUSH1 0x1 PUSH1 0xA0 SHL SUB PUSH32 0x0 AND EQ PUSH2 0x1371 JUMPI PUSH1 0x40 MLOAD PUSH3 0x461BCD PUSH1 0xE5 SHL DUP2 MSTORE PUSH1 0x20 PUSH1 0x4 DUP3 ADD MSTORE PUSH1 0x38 PUSH1 0x24 DUP3 ADD MSTORE PUSH32 0x555550535570677261646561626C653A206D757374206E6F742062652063616C PUSH1 0x44 DUP3 ADD MSTORE PUSH32 0x6C6564207468726F7567682064656C656761746563616C6C0000000000000000 PUSH1 0x64 DUP3 ADD MSTORE PUSH1 0x84 ADD PUSH2 0xAED JUMP JUMPDEST POP PUSH1 0x0 DUP1 MLOAD PUSH1 0x20 PUSH2 0x49C3 DUP4 CODECOPY DUP2 MLOAD SWAP2 MSTORE SWAP1 JUMP JUMPDEST PUSH1 0x0 DUP1 CALLER SWAP1 POP PUSH2 0xBE3 DUP5 DUP3 DUP6 PUSH1 0x40 MLOAD DUP1 PUSH1 0x20 ADD PUSH1 0x40 MSTORE DUP1 PUSH1 0x0 DUP2 MSTORE POP PUSH2 0x1FFE JUMP JUMPDEST PUSH1 0x0 DUP1 CALLER SWAP1 POP PUSH2 0x106B DUP8 DUP3 DUP9 DUP9 DUP9 DUP1 DUP1 PUSH1 0x1F ADD PUSH1 0x20 DUP1 SWAP2 DIV MUL PUSH1 0x20 ADD PUSH1 0x40 MLOAD SWAP1 DUP2 ADD PUSH1 0x40 MSTORE DUP1 SWAP4 SWAP3 SWAP2 SWAP1 DUP2 DUP2 MSTORE PUSH1 0x20 ADD DUP4 DUP4 DUP1 DUP3 DUP5 CALLDATACOPY PUSH1 0x0 SWAP3 ADD SWAP2 SWAP1 SWAP2 MSTORE POP DUP11 SWAP3 POP PUSH2 0x1A72 SWAP2 POP POP JUMP JUMPDEST PUSH2 0x1C7 SLOAD PUSH1 0x0 SWAP1 DUP1 DUP3 SUB PUSH2 0x1408 JUMPI POP POP PUSH2 0x1C6 SLOAD SWAP2 SWAP1 POP JUMP JUMPDEST PUSH1 0x0 PUSH2 0x1C7 PUSH2 0x1418 PUSH1 0x1 DUP5 PUSH2 0x45A9 JUMP JUMPDEST DUP2 SLOAD DUP2 LT PUSH2 0x1428 JUMPI PUSH2 0x1428 PUSH2 0x45BC JUMP JUMPDEST PUSH1 0x0 SWAP2 DUP3 MSTORE PUSH1 0x20 SWAP2 DUP3 SWAP1 KECCAK256 PUSH1 0x40 DUP1 MLOAD DUP1 DUP3 ADD SWAP1 SWAP2 MSTORE SWAP2 ADD SLOAD PUSH4 0xFFFFFFFF DUP2 AND DUP1 DUP4 MSTORE PUSH1 0x1 PUSH1 0x20 SHL SWAP1 SWAP2 DIV PUSH1 0x1 PUSH1 0x1 PUSH1 0xE0 SHL SUB AND SWAP3 DUP3 ADD SWAP3 SWAP1 SWAP3 MSTORE SWAP2 POP DUP5 LT PUSH2 0x147E JUMPI PUSH1 0x20 ADD MLOAD PUSH1 0x1 PUSH1 0x1 PUSH1 0xE0 SHL SUB AND SWAP4 SWAP3 POP POP POP JUMP JUMPDEST PUSH2 0xBE3 PUSH2 0x1C7 DUP6 PUSH2 0x22DD JUMP JUMPDEST PUSH2 0x1492 PUSH2 0x986 JUMP JUMPDEST PUSH1 0x1 PUSH1 0x1 PUSH1 0xA0 SHL SUB AND CALLER PUSH1 0x1 PUSH1 0x1 PUSH1 0xA0 SHL SUB AND EQ PUSH2 0x14C2 JUMPI PUSH1 0x40 MLOAD PUSH3 0x461BCD PUSH1 0xE5 SHL DUP2 MSTORE PUSH1 0x4 ADD PUSH2 0xAED SWAP1 PUSH2 0x42AE JUMP JUMPDEST ADDRESS PUSH2 0x14CB PUSH2 0x986 JUMP JUMPDEST PUSH1 0x1 PUSH1 0x1 PUSH1 0xA0 SHL SUB AND EQ PUSH2 0x1508 JUMPI PUSH1 0x0 DUP1 CALLDATASIZE PUSH1 0x40 MLOAD PUSH2 0x14EB SWAP3 SWAP2 SWAP1 PUSH2 0x429E JUMP JUMPDEST PUSH1 0x40 MLOAD DUP1 SWAP2 SUB SWAP1 KECCAK256 SWAP1 POP JUMPDEST DUP1 PUSH2 0x1501 PUSH1 0xFF PUSH2 0x1BD6 JUMP JUMPDEST SUB PUSH2 0x14F6 JUMPI POP JUMPDEST PUSH2 0xB45 DUP2 PUSH2 0x239D JUMP JUMPDEST PUSH2 0x1519 PUSH2 0x23E0 JUMP JUMPDEST PUSH2 0x1523 PUSH1 0x0 PUSH2 0x243B JUMP JUMPDEST JUMP JUMPDEST PUSH1 0x0 DUP1 CALLER SWAP1 POP PUSH2 0x156D DUP7 DUP3 DUP8 DUP8 DUP8 DUP1 DUP1 PUSH1 0x1F ADD PUSH1 0x20 DUP1 SWAP2 DIV MUL PUSH1 0x20 ADD PUSH1 0x40 MLOAD SWAP1 DUP2 ADD PUSH1 0x40 MSTORE DUP1 SWAP4 SWAP3 SWAP2 SWAP1 DUP2 DUP2 MSTORE PUSH1 0x20 ADD DUP4 DUP4 DUP1 DUP3 DUP5 CALLDATACOPY PUSH1 0x0 SWAP3 ADD SWAP2 SWAP1 SWAP2 MSTORE POP PUSH2 0x1FFE SWAP3 POP POP POP JUMP JUMPDEST SWAP7 SWAP6 POP POP POP POP POP POP JUMP JUMPDEST PUSH1 0x0 PUSH2 0x1585 DUP6 DUP6 DUP6 DUP6 PUSH2 0x248E JUMP JUMPDEST SWAP6 SWAP5 POP POP POP POP POP JUMP JUMPDEST PUSH1 0x0 PUSH2 0x159B DUP5 DUP5 DUP5 PUSH2 0x2751 JUMP JUMPDEST SWAP1 POP JUMPDEST SWAP4 SWAP3 POP POP POP JUMP JUMPDEST PUSH2 0x1C7 SLOAD PUSH1 0x0 SWAP1 ISZERO PUSH2 0x15CA JUMPI PUSH2 0x15BC PUSH2 0x1C7 PUSH2 0x27C8 JUMP JUMPDEST PUSH1 0x1 PUSH1 0x1 PUSH1 0xE0 SHL SUB AND SWAP1 POP SWAP1 JUMP JUMPDEST POP PUSH2 0x1C6 SLOAD SWAP1 JUMP JUMPDEST PUSH2 0x15DA PUSH2 0x986 JUMP JUMPDEST PUSH1 0x1 PUSH1 0x1 PUSH1 0xA0 SHL SUB AND CALLER PUSH1 0x1 PUSH1 0x1 PUSH1 0xA0 SHL SUB AND EQ PUSH2 0x160A JUMPI PUSH1 0x40 MLOAD PUSH3 0x461BCD PUSH1 0xE5 SHL DUP2 MSTORE PUSH1 0x4 ADD PUSH2 0xAED SWAP1 PUSH2 0x42AE JUMP JUMPDEST ADDRESS PUSH2 0x1613 PUSH2 0x986 JUMP JUMPDEST PUSH1 0x1 PUSH1 0x1 PUSH1 0xA0 SHL SUB AND EQ PUSH2 0x1650 JUMPI PUSH1 0x0 DUP1 CALLDATASIZE PUSH1 0x40 MLOAD PUSH2 0x1633 SWAP3 SWAP2 SWAP1 PUSH2 0x429E JUMP JUMPDEST PUSH1 0x40 MLOAD DUP1 SWAP2 SUB SWAP1 KECCAK256 SWAP1 POP JUMPDEST DUP1 PUSH2 0x1649 PUSH1 0xFF PUSH2 0x1BD6 JUMP JUMPDEST SUB PUSH2 0x163E JUMPI POP JUMPDEST PUSH2 0xB45 DUP2 PUSH2 0x27F8 JUMP JUMPDEST PUSH2 0x1F8 SLOAD PUSH1 0x0 DUP3 DUP2 MSTORE PUSH2 0x1F9 PUSH1 0x20 MSTORE PUSH1 0x40 DUP1 DUP3 KECCAK256 SLOAD SWAP1 MLOAD PUSH4 0xD45C4435 PUSH1 0xE0 SHL DUP2 MSTORE PUSH1 0x4 DUP2 ADD SWAP2 SWAP1 SWAP2 MSTORE SWAP1 SWAP2 DUP3 SWAP2 PUSH1 0x1 PUSH1 0x1 PUSH1 0xA0 SHL SUB SWAP1 SWAP2 AND SWAP1 PUSH4 0xD45C4435 SWAP1 PUSH1 0x24 ADD PUSH1 0x20 PUSH1 0x40 MLOAD DUP1 DUP4 SUB DUP2 DUP7 GAS STATICCALL ISZERO DUP1 ISZERO PUSH2 0x16B8 JUMPI RETURNDATASIZE PUSH1 0x0 DUP1 RETURNDATACOPY RETURNDATASIZE PUSH1 0x0 REVERT JUMPDEST POP POP POP POP PUSH1 0x40 MLOAD RETURNDATASIZE PUSH1 0x1F NOT PUSH1 0x1F DUP3 ADD AND DUP3 ADD DUP1 PUSH1 0x40 MSTORE POP DUP2 ADD SWAP1 PUSH2 0x16DC SWAP2 SWAP1 PUSH2 0x4360 JUMP JUMPDEST SWAP1 POP DUP1 PUSH1 0x1 EQ PUSH2 0x16EC JUMPI DUP1 PUSH2 0x159E JUMP JUMPDEST PUSH1 0x0 SWAP4 SWAP3 POP POP POP JUMP JUMPDEST PUSH1 0x0 PUSH2 0x99B PUSH2 0x131 SLOAD SWAP1 JUMP JUMPDEST PUSH1 0x0 DUP2 DUP2 MSTORE PUSH1 0xFE PUSH1 0x20 SWAP1 DUP2 MSTORE PUSH1 0x40 DUP1 DUP4 KECCAK256 DUP2 MLOAD SWAP3 DUP4 ADD SWAP1 SWAP2 MSTORE PUSH1 0x1 ADD SLOAD PUSH1 0x1 PUSH1 0x1 PUSH1 0x40 SHL SUB AND SWAP1 DUP2 SWAP1 MSTORE PUSH2 0xF09 JUMP JUMPDEST PUSH2 0x1738 PUSH2 0x986 JUMP JUMPDEST PUSH1 0x1 PUSH1 0x1 PUSH1 0xA0 SHL SUB AND CALLER PUSH1 0x1 PUSH1 0x1 PUSH1 0xA0 SHL SUB AND EQ PUSH2 0x1768 JUMPI PUSH1 0x40 MLOAD PUSH3 0x461BCD PUSH1 0xE5 SHL DUP2 MSTORE PUSH1 0x4 ADD PUSH2 0xAED SWAP1 PUSH2 0x42AE JUMP JUMPDEST ADDRESS PUSH2 0x1771 PUSH2 0x986 JUMP JUMPDEST PUSH1 0x1 PUSH1 0x1 PUSH1 0xA0 SHL SUB AND EQ PUSH2 0x17AE JUMPI PUSH1 0x0 DUP1 CALLDATASIZE PUSH1 0x40 MLOAD PUSH2 0x1791 SWAP3 SWAP2 SWAP1 PUSH2 0x429E JUMP JUMPDEST PUSH1 0x40 MLOAD DUP1 SWAP2 SUB SWAP1 KECCAK256 SWAP1 POP JUMPDEST DUP1 PUSH2 0x17A7 PUSH1 0xFF PUSH2 0x1BD6 JUMP JUMPDEST SUB PUSH2 0x179C JUMPI POP JUMPDEST PUSH2 0x17F0 DUP5 DUP4 DUP4 DUP1 DUP1 PUSH1 0x1F ADD PUSH1 0x20 DUP1 SWAP2 DIV MUL PUSH1 0x20 ADD PUSH1 0x40 MLOAD SWAP1 DUP2 ADD PUSH1 0x40 MSTORE DUP1 SWAP4 SWAP3 SWAP2 SWAP1 DUP2 DUP2 MSTORE PUSH1 0x20 ADD DUP4 DUP4 DUP1 DUP3 DUP5 CALLDATACOPY PUSH1 0x0 SWAP3 ADD SWAP2 SWAP1 SWAP2 MSTORE POP DUP9 SWAP3 POP PUSH2 0x2863 SWAP2 POP POP JUMP JUMPDEST POP POP POP POP POP JUMP JUMPDEST PUSH1 0x0 DUP5 DUP5 DUP5 DUP5 PUSH1 0x40 MLOAD PUSH1 0x20 ADD PUSH2 0x1810 SWAP5 SWAP4 SWAP3 SWAP2 SWAP1 PUSH2 0x45D2 JUMP JUMPDEST PUSH1 0x40 DUP1 MLOAD PUSH1 0x1F NOT DUP2 DUP5 SUB ADD DUP2 MSTORE SWAP2 SWAP1 MSTORE DUP1 MLOAD PUSH1 0x20 SWAP1 SWAP2 ADD KECCAK256 SWAP6 SWAP5 POP POP POP POP POP JUMP JUMPDEST PUSH2 0x1839 PUSH2 0x986 JUMP JUMPDEST PUSH1 0x1 PUSH1 0x1 PUSH1 0xA0 SHL SUB AND CALLER PUSH1 0x1 PUSH1 0x1 PUSH1 0xA0 SHL SUB AND EQ PUSH2 0x1869 JUMPI PUSH1 0x40 MLOAD PUSH3 0x461BCD PUSH1 0xE5 SHL DUP2 MSTORE PUSH1 0x4 ADD PUSH2 0xAED SWAP1 PUSH2 0x42AE JUMP JUMPDEST ADDRESS PUSH2 0x1872 PUSH2 0x986 JUMP JUMPDEST PUSH1 0x1 PUSH1 0x1 PUSH1 0xA0 SHL SUB AND EQ PUSH2 0x18AF JUMPI PUSH1 0x0 DUP1 CALLDATASIZE PUSH1 0x40 MLOAD PUSH2 0x1892 SWAP3 SWAP2 SWAP1 PUSH2 0x429E JUMP JUMPDEST PUSH1 0x40 MLOAD DUP1 SWAP2 SUB SWAP1 KECCAK256 SWAP1 POP JUMPDEST DUP1 PUSH2 0x18A8 PUSH1 0xFF PUSH2 0x1BD6 JUMP JUMPDEST SUB PUSH2 0x189D JUMPI POP JUMPDEST PUSH2 0xB45 DUP2 PUSH2 0x2889 JUMP JUMPDEST PUSH1 0x0 PUSH2 0x159E DUP4 DUP4 PUSH2 0x18D4 PUSH1 0x40 DUP1 MLOAD PUSH1 0x20 DUP2 ADD SWAP1 SWAP2 MSTORE PUSH1 0x0 DUP2 MSTORE SWAP1 JUMP JUMPDEST PUSH2 0x2751 JUMP JUMPDEST PUSH2 0x18E1 PUSH2 0x986 JUMP JUMPDEST PUSH1 0x1 PUSH1 0x1 PUSH1 0xA0 SHL SUB AND CALLER PUSH1 0x1 PUSH1 0x1 PUSH1 0xA0 SHL SUB AND EQ PUSH2 0x1911 JUMPI PUSH1 0x40 MLOAD PUSH3 0x461BCD PUSH1 0xE5 SHL DUP2 MSTORE PUSH1 0x4 ADD PUSH2 0xAED SWAP1 PUSH2 0x42AE JUMP JUMPDEST ADDRESS PUSH2 0x191A PUSH2 0x986 JUMP JUMPDEST PUSH1 0x1 PUSH1 0x1 PUSH1 0xA0 SHL SUB AND EQ PUSH2 0x1957 JUMPI PUSH1 0x0 DUP1 CALLDATASIZE PUSH1 0x40 MLOAD PUSH2 0x193A SWAP3 SWAP2 SWAP1 PUSH2 0x429E JUMP JUMPDEST PUSH1 0x40 MLOAD DUP1 SWAP2 SUB SWAP1 KECCAK256 SWAP1 POP JUMPDEST DUP1 PUSH2 0x1950 PUSH1 0xFF PUSH2 0x1BD6 JUMP JUMPDEST SUB PUSH2 0x1945 JUMPI POP JUMPDEST PUSH2 0xB45 DUP2 PUSH2 0x292C JUMP JUMPDEST PUSH2 0x1968 PUSH2 0x23E0 JUMP JUMPDEST PUSH1 0x1 PUSH1 0x1 PUSH1 0xA0 SHL SUB DUP2 AND PUSH2 0x19CD JUMPI PUSH1 0x40 MLOAD PUSH3 0x461BCD PUSH1 0xE5 SHL DUP2 MSTORE PUSH1 0x20 PUSH1 0x4 DUP3 ADD MSTORE PUSH1 0x26 PUSH1 0x24 DUP3 ADD MSTORE PUSH32 0x4F776E61626C653A206E6577206F776E657220697320746865207A65726F2061 PUSH1 0x44 DUP3 ADD MSTORE PUSH6 0x646472657373 PUSH1 0xD0 SHL PUSH1 0x64 DUP3 ADD MSTORE PUSH1 0x84 ADD PUSH2 0xAED JUMP JUMPDEST PUSH2 0xB45 DUP2 PUSH2 0x243B JUMP JUMPDEST PUSH1 0x0 PUSH2 0x9AB DUP3 PUSH2 0x296F JUMP JUMPDEST PUSH1 0x0 PUSH1 0x1 PUSH1 0x1 PUSH1 0xE0 SHL SUB NOT DUP3 AND PUSH4 0x6E665CED PUSH1 0xE0 SHL EQ DUP1 PUSH2 0x9AB JUMPI POP PUSH2 0x9AB DUP3 PUSH2 0x29FE JUMP JUMPDEST PUSH1 0x0 PUSH2 0x9AB PUSH2 0x1A13 PUSH2 0x2A69 JUMP JUMPDEST DUP4 PUSH1 0x40 MLOAD PUSH2 0x1901 PUSH1 0xF0 SHL PUSH1 0x20 DUP3 ADD MSTORE PUSH1 0x22 DUP2 ADD DUP4 SWAP1 MSTORE PUSH1 0x42 DUP2 ADD DUP3 SWAP1 MSTORE PUSH1 0x0 SWAP1 PUSH1 0x62 ADD PUSH1 0x40 MLOAD PUSH1 0x20 DUP2 DUP4 SUB SUB DUP2 MSTORE SWAP1 PUSH1 0x40 MSTORE DUP1 MLOAD SWAP1 PUSH1 0x20 ADD KECCAK256 SWAP1 POP SWAP3 SWAP2 POP POP JUMP JUMPDEST PUSH1 0x0 DUP1 PUSH1 0x0 PUSH2 0x1A65 DUP8 DUP8 DUP8 DUP8 PUSH2 0x2AE4 JUMP JUMPDEST SWAP2 POP SWAP2 POP PUSH2 0xED7 DUP2 PUSH2 0x2BA8 JUMP JUMPDEST PUSH1 0x0 DUP6 DUP2 MSTORE PUSH1 0xFE PUSH1 0x20 MSTORE PUSH1 0x40 DUP2 KECCAK256 PUSH1 0x1 PUSH2 0x1A8B DUP9 PUSH2 0x1076 JUMP JUMPDEST PUSH1 0x7 DUP2 GT ISZERO PUSH2 0x1A9C JUMPI PUSH2 0x1A9C PUSH2 0x3E35 JUMP JUMPDEST EQ PUSH2 0x1AF5 JUMPI PUSH1 0x40 MLOAD PUSH3 0x461BCD PUSH1 0xE5 SHL DUP2 MSTORE PUSH1 0x20 PUSH1 0x4 DUP3 ADD MSTORE PUSH1 0x23 PUSH1 0x24 DUP3 ADD MSTORE PUSH32 0x476F7665726E6F723A20766F7465206E6F742063757272656E746C7920616374 PUSH1 0x44 DUP3 ADD MSTORE PUSH3 0x697665 PUSH1 0xE8 SHL PUSH1 0x64 DUP3 ADD MSTORE PUSH1 0x84 ADD PUSH2 0xAED JUMP JUMPDEST PUSH1 0x40 DUP1 MLOAD PUSH1 0x20 DUP2 ADD SWAP1 SWAP2 MSTORE DUP2 SLOAD PUSH1 0x1 PUSH1 0x1 PUSH1 0x40 SHL SUB AND SWAP1 DUP2 SWAP1 MSTORE PUSH1 0x0 SWAP1 PUSH2 0x1B1E SWAP1 DUP9 SWAP1 DUP7 PUSH2 0x2751 JUMP JUMPDEST SWAP1 POP PUSH2 0x1B2D DUP9 DUP9 DUP9 DUP5 DUP9 PUSH2 0x2CF2 JUMP JUMPDEST DUP4 MLOAD PUSH1 0x0 SUB PUSH2 0x1B82 JUMPI DUP7 PUSH1 0x1 PUSH1 0x1 PUSH1 0xA0 SHL SUB AND PUSH32 0xB8E138887D0AA13BAB447E82DE9D5C1777041ECD21CA36BA824FF1E6C07DDDA4 DUP10 DUP9 DUP5 DUP10 PUSH1 0x40 MLOAD PUSH2 0x1B75 SWAP5 SWAP4 SWAP3 SWAP2 SWAP1 PUSH2 0x461D JUMP JUMPDEST PUSH1 0x40 MLOAD DUP1 SWAP2 SUB SWAP1 LOG2 PUSH2 0x106B JUMP JUMPDEST DUP7 PUSH1 0x1 PUSH1 0x1 PUSH1 0xA0 SHL SUB AND PUSH32 0xE2BABFBAC5889A709B63BB7F598B324E08BC5A4FB9EC647FB3CBC9EC07EB8712 DUP10 DUP9 DUP5 DUP10 DUP10 PUSH1 0x40 MLOAD PUSH2 0x1BC3 SWAP6 SWAP5 SWAP4 SWAP3 SWAP2 SWAP1 PUSH2 0x4645 JUMP JUMPDEST PUSH1 0x40 MLOAD DUP1 SWAP2 SUB SWAP1 LOG2 SWAP8 SWAP7 POP POP POP POP POP POP POP JUMP JUMPDEST PUSH1 0x0 PUSH2 0x1BF1 DUP3 SLOAD PUSH1 0xF DUP2 DUP2 SIGNEXTEND PUSH1 0x1 PUSH1 0x80 SHL SWAP1 SWAP3 DIV SWAP1 SIGNEXTEND SGT ISZERO SWAP1 JUMP JUMPDEST ISZERO PUSH2 0x1C0F JUMPI PUSH1 0x40 MLOAD PUSH4 0x1ED95095 PUSH1 0xE1 SHL DUP2 MSTORE PUSH1 0x4 ADD PUSH1 0x40 MLOAD DUP1 SWAP2 SUB SWAP1 REVERT JUMPDEST POP DUP1 SLOAD PUSH1 0xF SIGNEXTEND PUSH1 0x0 DUP2 DUP2 MSTORE PUSH1 0x1 DUP1 DUP5 ADD PUSH1 0x20 MSTORE PUSH1 0x40 DUP3 KECCAK256 DUP1 SLOAD SWAP3 SWAP1 SSTORE DUP4 SLOAD PUSH16 0xFFFFFFFFFFFFFFFFFFFFFFFFFFFFFFFF NOT AND SWAP3 ADD PUSH1 0x1 PUSH1 0x1 PUSH1 0x80 SHL SUB AND SWAP2 SWAP1 SWAP2 OR SWAP1 SWAP2 SSTORE SWAP1 JUMP JUMPDEST PUSH1 0x64 DUP2 GT ISZERO PUSH2 0x1CD8 JUMPI PUSH1 0x40 MLOAD PUSH3 0x461BCD PUSH1 0xE5 SHL DUP2 MSTORE PUSH1 0x20 PUSH1 0x4 DUP3 ADD MSTORE PUSH1 0x43 PUSH1 0x24 DUP3 ADD MSTORE PUSH32 0x476F7665726E6F72566F74657351756F72756D4672616374696F6E3A2071756F PUSH1 0x44 DUP3 ADD MSTORE PUSH32 0x72756D4E756D657261746F72206F7665722071756F72756D44656E6F6D696E61 PUSH1 0x64 DUP3 ADD MSTORE PUSH3 0x3A37B9 PUSH1 0xE9 SHL PUSH1 0x84 DUP3 ADD MSTORE PUSH1 0xA4 ADD PUSH2 0xAED JUMP JUMPDEST PUSH1 0x0 PUSH2 0x1CE2 PUSH2 0x15A5 JUMP JUMPDEST SWAP1 POP DUP1 ISZERO DUP1 ISZERO SWAP1 PUSH2 0x1CF4 JUMPI POP PUSH2 0x1C7 SLOAD ISZERO JUMPDEST ISZERO PUSH2 0x1D59 JUMPI PUSH1 0x40 DUP1 MLOAD DUP1 DUP3 ADD SWAP1 SWAP2 MSTORE PUSH1 0x0 DUP2 MSTORE PUSH2 0x1C7 SWAP1 PUSH1 0x20 DUP2 ADD PUSH2 0x1D18 DUP5 PUSH2 0x2E6D JUMP JUMPDEST PUSH1 0x1 PUSH1 0x1 PUSH1 0xE0 SHL SUB SWAP1 DUP2 AND SWAP1 SWAP2 MSTORE DUP3 SLOAD PUSH1 0x1 DUP2 ADD DUP5 SSTORE PUSH1 0x0 SWAP4 DUP5 MSTORE PUSH1 0x20 SWAP4 DUP5 SWAP1 KECCAK256 DUP4 MLOAD SWAP5 SWAP1 SWAP4 ADD MLOAD SWAP1 SWAP2 AND PUSH1 0x1 PUSH1 0x20 SHL MUL PUSH4 0xFFFFFFFF SWAP1 SWAP4 AND SWAP3 SWAP1 SWAP3 OR SWAP2 ADD SSTORE JUMPDEST PUSH2 0x1D65 PUSH2 0x1C7 DUP4 PUSH2 0x2EDA JUMP JUMPDEST POP POP PUSH1 0x40 DUP1 MLOAD DUP3 DUP2 MSTORE PUSH1 0x20 DUP2 ADD DUP5 SWAP1 MSTORE PUSH32 0x553476BF02EF2726E8CE5CED78D63E26E602E4A2257B1F559418E24B4633997 SWAP2 ADD PUSH1 0x40 MLOAD DUP1 SWAP2 SUB SWAP1 LOG1 POP POP JUMP JUMPDEST ADDRESS PUSH2 0x1DAD PUSH2 0x986 JUMP JUMPDEST PUSH1 0x1 PUSH1 0x1 PUSH1 0xA0 SHL SUB AND EQ PUSH2 0x17F0 JUMPI PUSH1 0x0 JUMPDEST DUP5 MLOAD DUP2 LT ISZERO PUSH2 0x1E3D JUMPI ADDRESS PUSH1 0x1 PUSH1 0x1 PUSH1 0xA0 SHL SUB AND DUP6 DUP3 DUP2 MLOAD DUP2 LT PUSH2 0x1DE3 JUMPI PUSH2 0x1DE3 PUSH2 0x45BC JUMP JUMPDEST PUSH1 0x20 MUL PUSH1 0x20 ADD ADD MLOAD PUSH1 0x1 PUSH1 0x1 PUSH1 0xA0 SHL SUB AND SUB PUSH2 0x1E2D JUMPI PUSH2 0x1E2D DUP4 DUP3 DUP2 MLOAD DUP2 LT PUSH2 0x1E0E JUMPI PUSH2 0x1E0E PUSH2 0x45BC JUMP JUMPDEST PUSH1 0x20 MUL PUSH1 0x20 ADD ADD MLOAD DUP1 MLOAD SWAP1 PUSH1 0x20 ADD KECCAK256 PUSH1 0xFF PUSH2 0x2F10 SWAP1 SWAP2 SWAP1 PUSH4 0xFFFFFFFF AND JUMP JUMPDEST PUSH2 0x1E36 DUP2 PUSH2 0x468B JUMP JUMPDEST SWAP1 POP PUSH2 0x1DBE JUMP JUMPDEST POP POP POP POP POP POP JUMP JUMPDEST PUSH2 0x17F0 DUP6 DUP6 DUP6 DUP6 DUP6 PUSH2 0x2F4C JUMP JUMPDEST ADDRESS PUSH2 0x1E5B PUSH2 0x986 JUMP JUMPDEST PUSH1 0x1 PUSH1 0x1 PUSH1 0xA0 SHL SUB AND EQ PUSH2 0x17F0 JUMPI PUSH1 0xFF SLOAD PUSH1 0xF DUP2 DUP2 SIGNEXTEND PUSH1 0x1 PUSH1 0x80 SHL SWAP1 SWAP3 DIV SWAP1 SIGNEXTEND SGT ISZERO PUSH2 0x17F0 JUMPI PUSH1 0x0 PUSH1 0xFF SSTORE PUSH2 0x17F0 JUMP JUMPDEST PUSH2 0xB45 PUSH2 0x23E0 JUMP JUMPDEST PUSH32 0x4910FDFA16FED3260ED0E7147F7CC6DA11A60208B5B9406D12A635614FFD9143 SLOAD PUSH1 0xFF AND ISZERO PUSH2 0x1EC6 JUMPI PUSH2 0x11FC DUP4 PUSH2 0x2FC1 JUMP JUMPDEST DUP3 PUSH1 0x1 PUSH1 0x1 PUSH1 0xA0 SHL SUB AND PUSH4 0x52D1902D PUSH1 0x40 MLOAD DUP2 PUSH4 0xFFFFFFFF AND PUSH1 0xE0 SHL DUP2 MSTORE PUSH1 0x4 ADD PUSH1 0x20 PUSH1 0x40 MLOAD DUP1 DUP4 SUB DUP2 DUP7 GAS STATICCALL SWAP3 POP POP POP DUP1 ISZERO PUSH2 0x1F20 JUMPI POP PUSH1 0x40 DUP1 MLOAD PUSH1 0x1F RETURNDATASIZE SWAP1 DUP2 ADD PUSH1 0x1F NOT AND DUP3 ADD SWAP1 SWAP3 MSTORE PUSH2 0x1F1D SWAP2 DUP2 ADD SWAP1 PUSH2 0x4360 JUMP JUMPDEST PUSH1 0x1 JUMPDEST PUSH2 0x1F83 JUMPI PUSH1 0x40 MLOAD PUSH3 0x461BCD PUSH1 0xE5 SHL DUP2 MSTORE PUSH1 0x20 PUSH1 0x4 DUP3 ADD MSTORE PUSH1 0x2E PUSH1 0x24 DUP3 ADD MSTORE PUSH32 0x45524331393637557067726164653A206E657720696D706C656D656E74617469 PUSH1 0x44 DUP3 ADD MSTORE PUSH14 0x6F6E206973206E6F742055555053 PUSH1 0x90 SHL PUSH1 0x64 DUP3 ADD MSTORE PUSH1 0x84 ADD PUSH2 0xAED JUMP JUMPDEST PUSH1 0x0 DUP1 MLOAD PUSH1 0x20 PUSH2 0x49C3 DUP4 CODECOPY DUP2 MLOAD SWAP2 MSTORE DUP2 EQ PUSH2 0x1FF2 JUMPI PUSH1 0x40 MLOAD PUSH3 0x461BCD PUSH1 0xE5 SHL DUP2 MSTORE PUSH1 0x20 PUSH1 0x4 DUP3 ADD MSTORE PUSH1 0x29 PUSH1 0x24 DUP3 ADD MSTORE PUSH32 0x45524331393637557067726164653A20756E737570706F727465642070726F78 PUSH1 0x44 DUP3 ADD MSTORE PUSH9 0x1A58589B1955555251 PUSH1 0xBA SHL PUSH1 0x64 DUP3 ADD MSTORE PUSH1 0x84 ADD PUSH2 0xAED JUMP JUMPDEST POP PUSH2 0x11FC DUP4 DUP4 DUP4 PUSH2 0x305D JUMP JUMPDEST PUSH1 0x0 PUSH2 0x1585 DUP6 DUP6 DUP6 DUP6 PUSH2 0x201C PUSH1 0x40 DUP1 MLOAD PUSH1 0x20 DUP2 ADD SWAP1 SWAP2 MSTORE PUSH1 0x0 DUP2 MSTORE SWAP1 JUMP JUMPDEST PUSH2 0x1A72 JUMP JUMPDEST PUSH1 0x0 DUP1 PUSH2 0x202D DUP4 PUSH2 0x3088 JUMP JUMPDEST SWAP1 POP PUSH1 0x4 DUP2 PUSH1 0x7 DUP2 GT ISZERO PUSH2 0x2043 JUMPI PUSH2 0x2043 PUSH2 0x3E35 JUMP JUMPDEST EQ PUSH2 0x204E JUMPI SWAP3 SWAP2 POP POP JUMP JUMPDEST PUSH1 0x0 DUP4 DUP2 MSTORE PUSH2 0x1F9 PUSH1 0x20 MSTORE PUSH1 0x40 SWAP1 KECCAK256 SLOAD DUP1 PUSH2 0x206A JUMPI POP SWAP3 SWAP2 POP POP JUMP JUMPDEST PUSH2 0x1F8 SLOAD PUSH1 0x40 MLOAD PUSH4 0x2AB0F529 PUSH1 0xE0 SHL DUP2 MSTORE PUSH1 0x4 DUP2 ADD DUP4 SWAP1 MSTORE PUSH1 0x1 PUSH1 0x1 PUSH1 0xA0 SHL SUB SWAP1 SWAP2 AND SWAP1 PUSH4 0x2AB0F529 SWAP1 PUSH1 0x24 ADD PUSH1 0x20 PUSH1 0x40 MLOAD DUP1 DUP4 SUB DUP2 DUP7 GAS STATICCALL ISZERO DUP1 ISZERO PUSH2 0x20B4 JUMPI RETURNDATASIZE PUSH1 0x0 DUP1 RETURNDATACOPY RETURNDATASIZE PUSH1 0x0 REVERT JUMPDEST POP POP POP POP PUSH1 0x40 MLOAD RETURNDATASIZE PUSH1 0x1F NOT PUSH1 0x1F DUP3 ADD AND DUP3 ADD DUP1 PUSH1 0x40 MSTORE POP DUP2 ADD SWAP1 PUSH2 0x20D8 SWAP2 SWAP1 PUSH2 0x46A4 JUMP JUMPDEST ISZERO PUSH2 0x20E7 JUMPI POP PUSH1 0x7 SWAP4 SWAP3 POP POP POP JUMP JUMPDEST PUSH2 0x1F8 SLOAD PUSH1 0x40 MLOAD PUSH4 0x2C258A9F PUSH1 0xE1 SHL DUP2 MSTORE PUSH1 0x4 DUP2 ADD DUP4 SWAP1 MSTORE PUSH1 0x1 PUSH1 0x1 PUSH1 0xA0 SHL SUB SWAP1 SWAP2 AND SWAP1 PUSH4 0x584B153E SWAP1 PUSH1 0x24 ADD PUSH1 0x20 PUSH1 0x40 MLOAD DUP1 DUP4 SUB DUP2 DUP7 GAS STATICCALL ISZERO DUP1 ISZERO PUSH2 0x2131 JUMPI RETURNDATASIZE PUSH1 0x0 DUP1 RETURNDATACOPY RETURNDATASIZE PUSH1 0x0 REVERT JUMPDEST POP POP POP POP PUSH1 0x40 MLOAD RETURNDATASIZE PUSH1 0x1F NOT PUSH1 0x1F DUP3 ADD AND DUP3 ADD DUP1 PUSH1 0x40 MSTORE POP DUP2 ADD SWAP1 PUSH2 0x2155 SWAP2 SWAP1 PUSH2 0x46A4 JUMP JUMPDEST ISZERO PUSH2 0x2164 JUMPI POP PUSH1 0x5 SWAP4 SWAP3 POP POP POP JUMP JUMPDEST POP PUSH1 0x2 SWAP4 SWAP3 POP POP POP JUMP JUMPDEST PUSH1 0x0 SLOAD PUSH2 0x100 SWAP1 DIV PUSH1 0xFF AND PUSH2 0x2195 JUMPI PUSH1 0x40 MLOAD PUSH3 0x461BCD PUSH1 0xE5 SHL DUP2 MSTORE PUSH1 0x4 ADD PUSH2 0xAED SWAP1 PUSH2 0x46C6 JUMP JUMPDEST PUSH2 0x21BC DUP2 PUSH2 0x21B7 PUSH1 0x40 DUP1 MLOAD DUP1 DUP3 ADD SWAP1 SWAP2 MSTORE PUSH1 0x1 DUP2 MSTORE PUSH1 0x31 PUSH1 0xF8 SHL PUSH1 0x20 DUP3 ADD MSTORE SWAP1 JUMP JUMPDEST PUSH2 0x3198 JUMP JUMPDEST PUSH2 0xB45 DUP2 PUSH2 0x31D9 JUMP JUMPDEST PUSH1 0x0 SLOAD PUSH2 0x100 SWAP1 DIV PUSH1 0xFF AND PUSH2 0x21EC JUMPI PUSH1 0x40 MLOAD PUSH3 0x461BCD PUSH1 0xE5 SHL DUP2 MSTORE PUSH1 0x4 ADD PUSH2 0xAED SWAP1 PUSH2 0x46C6 JUMP JUMPDEST PUSH2 0x11FC DUP4 DUP4 DUP4 PUSH2 0x320C JUMP JUMPDEST PUSH1 0x0 SLOAD PUSH2 0x100 SWAP1 DIV PUSH1 0xFF AND PUSH2 0x1523 JUMPI PUSH1 0x40 MLOAD PUSH3 0x461BCD PUSH1 0xE5 SHL DUP2 MSTORE PUSH1 0x4 ADD PUSH2 0xAED SWAP1 PUSH2 0x46C6 JUMP JUMPDEST PUSH1 0x0 SLOAD PUSH2 0x100 SWAP1 DIV PUSH1 0xFF AND PUSH2 0x2245 JUMPI PUSH1 0x40 MLOAD PUSH3 0x461BCD PUSH1 0xE5 SHL DUP2 MSTORE PUSH1 0x4 ADD PUSH2 0xAED SWAP1 PUSH2 0x46C6 JUMP JUMPDEST PUSH2 0xB45 DUP2 PUSH2 0x324E JUMP JUMPDEST PUSH1 0x0 SLOAD PUSH2 0x100 SWAP1 DIV PUSH1 0xFF AND PUSH2 0x2275 JUMPI PUSH1 0x40 MLOAD PUSH3 0x461BCD PUSH1 0xE5 SHL DUP2 MSTORE PUSH1 0x4 ADD PUSH2 0xAED SWAP1 PUSH2 0x46C6 JUMP JUMPDEST PUSH2 0xB45 DUP2 PUSH2 0x3298 JUMP JUMPDEST PUSH1 0x0 SLOAD PUSH2 0x100 SWAP1 DIV PUSH1 0xFF AND PUSH2 0x22A5 JUMPI PUSH1 0x40 MLOAD PUSH3 0x461BCD PUSH1 0xE5 SHL DUP2 MSTORE PUSH1 0x4 ADD PUSH2 0xAED SWAP1 PUSH2 0x46C6 JUMP JUMPDEST PUSH2 0xB45 DUP2 PUSH2 0x32BF JUMP JUMPDEST PUSH1 0x0 SLOAD PUSH2 0x100 SWAP1 DIV PUSH1 0xFF AND PUSH2 0x22D5 JUMPI PUSH1 0x40 MLOAD PUSH3 0x461BCD PUSH1 0xE5 SHL DUP2 MSTORE PUSH1 0x4 ADD PUSH2 0xAED SWAP1 PUSH2 0x46C6 JUMP JUMPDEST PUSH2 0x1523 PUSH2 0x32E6 JUMP JUMPDEST PUSH1 0x0 NUMBER DUP3 LT PUSH2 0x232E JUMPI PUSH1 0x40 MLOAD PUSH3 0x461BCD PUSH1 0xE5 SHL DUP2 MSTORE PUSH1 0x20 PUSH1 0x4 DUP3 ADD DUP2 SWAP1 MSTORE PUSH1 0x24 DUP3 ADD MSTORE PUSH32 0x436865636B706F696E74733A20626C6F636B206E6F7420796574206D696E6564 PUSH1 0x44 DUP3 ADD MSTORE PUSH1 0x64 ADD PUSH2 0xAED JUMP JUMPDEST PUSH1 0x0 PUSH2 0x2339 DUP4 PUSH2 0x3316 JUMP JUMPDEST DUP5 SLOAD SWAP1 SWAP2 POP PUSH1 0x0 PUSH2 0x234C DUP7 DUP5 DUP4 DUP6 PUSH2 0x337B JUMP JUMPDEST SWAP1 POP DUP1 ISZERO PUSH2 0x2387 JUMPI PUSH2 0x2371 DUP7 PUSH2 0x2363 PUSH1 0x1 DUP5 PUSH2 0x45A9 JUMP JUMPDEST PUSH1 0x0 SWAP2 DUP3 MSTORE PUSH1 0x20 SWAP1 SWAP2 KECCAK256 ADD SWAP1 JUMP JUMPDEST SLOAD PUSH1 0x1 PUSH1 0x20 SHL SWAP1 DIV PUSH1 0x1 PUSH1 0x1 PUSH1 0xE0 SHL SUB AND PUSH2 0x238A JUMP JUMPDEST PUSH1 0x0 JUMPDEST PUSH1 0x1 PUSH1 0x1 PUSH1 0xE0 SHL SUB AND SWAP7 SWAP6 POP POP POP POP POP POP JUMP JUMPDEST PUSH2 0x12F SLOAD PUSH1 0x40 DUP1 MLOAD SWAP2 DUP3 MSTORE PUSH1 0x20 DUP3 ADD DUP4 SWAP1 MSTORE PUSH32 0xC565B045403DC03C2EEA82B81A0465EDAD9E2E7FC4D97E11421C209DA93D7A93 SWAP2 ADD PUSH1 0x40 MLOAD DUP1 SWAP2 SUB SWAP1 LOG1 PUSH2 0x12F SSTORE JUMP JUMPDEST PUSH2 0x22A SLOAD PUSH1 0x1 PUSH1 0x1 PUSH1 0xA0 SHL SUB AND CALLER EQ PUSH2 0x1523 JUMPI PUSH1 0x40 MLOAD PUSH3 0x461BCD PUSH1 0xE5 SHL DUP2 MSTORE PUSH1 0x20 PUSH1 0x4 DUP3 ADD DUP2 SWAP1 MSTORE PUSH1 0x24 DUP3 ADD MSTORE PUSH32 0x4F776E61626C653A2063616C6C6572206973206E6F7420746865206F776E6572 PUSH1 0x44 DUP3 ADD MSTORE PUSH1 0x64 ADD PUSH2 0xAED JUMP JUMPDEST PUSH2 0x22A DUP1 SLOAD PUSH1 0x1 PUSH1 0x1 PUSH1 0xA0 SHL SUB DUP4 DUP2 AND PUSH1 0x1 PUSH1 0x1 PUSH1 0xA0 SHL SUB NOT DUP4 AND DUP2 OR SWAP1 SWAP4 SSTORE PUSH1 0x40 MLOAD SWAP2 AND SWAP2 SWAP1 DUP3 SWAP1 PUSH32 0x8BE0079C531659141344CD1FD0A4F28419497F9722A3DAAFE3B4186F6B6457E0 SWAP1 PUSH1 0x0 SWAP1 LOG3 POP POP JUMP JUMPDEST PUSH1 0x0 PUSH2 0x2498 PUSH2 0x16F5 JUMP JUMPDEST PUSH2 0x24A7 CALLER PUSH2 0x8D4 PUSH1 0x1 NUMBER PUSH2 0x45A9 JUMP JUMPDEST LT ISZERO PUSH2 0x250F JUMPI PUSH1 0x40 MLOAD PUSH3 0x461BCD PUSH1 0xE5 SHL DUP2 MSTORE PUSH1 0x20 PUSH1 0x4 DUP3 ADD MSTORE PUSH1 0x31 PUSH1 0x24 DUP3 ADD MSTORE PUSH32 0x476F7665726E6F723A2070726F706F73657220766F7465732062656C6F772070 PUSH1 0x44 DUP3 ADD MSTORE PUSH17 0x1C9BDC1BDCD85B081D1A1C995CDA1BDB19 PUSH1 0x7A SHL PUSH1 0x64 DUP3 ADD MSTORE PUSH1 0x84 ADD PUSH2 0xAED JUMP JUMPDEST PUSH1 0x0 PUSH2 0x2524 DUP7 DUP7 DUP7 DUP7 DUP1 MLOAD SWAP1 PUSH1 0x20 ADD KECCAK256 PUSH2 0x17F7 JUMP JUMPDEST SWAP1 POP DUP5 MLOAD DUP7 MLOAD EQ PUSH2 0x2547 JUMPI PUSH1 0x40 MLOAD PUSH3 0x461BCD PUSH1 0xE5 SHL DUP2 MSTORE PUSH1 0x4 ADD PUSH2 0xAED SWAP1 PUSH2 0x4711 JUMP JUMPDEST DUP4 MLOAD DUP7 MLOAD EQ PUSH2 0x2568 JUMPI PUSH1 0x40 MLOAD PUSH3 0x461BCD PUSH1 0xE5 SHL DUP2 MSTORE PUSH1 0x4 ADD PUSH2 0xAED SWAP1 PUSH2 0x4711 JUMP JUMPDEST PUSH1 0x0 DUP7 MLOAD GT PUSH2 0x25B9 JUMPI PUSH1 0x40 MLOAD PUSH3 0x461BCD PUSH1 0xE5 SHL DUP2 MSTORE PUSH1 0x20 PUSH1 0x4 DUP3 ADD MSTORE PUSH1 0x18 PUSH1 0x24 DUP3 ADD MSTORE PUSH32 0x476F7665726E6F723A20656D7074792070726F706F73616C0000000000000000 PUSH1 0x44 DUP3 ADD MSTORE PUSH1 0x64 ADD PUSH2 0xAED JUMP JUMPDEST PUSH1 0x0 DUP2 DUP2 MSTORE PUSH1 0xFE PUSH1 0x20 SWAP1 DUP2 MSTORE PUSH1 0x40 SWAP2 DUP3 SWAP1 KECCAK256 DUP3 MLOAD SWAP2 DUP3 ADD SWAP1 SWAP3 MSTORE DUP2 SLOAD PUSH1 0x1 PUSH1 0x1 PUSH1 0x40 SHL SUB AND SWAP1 DUP2 SWAP1 MSTORE ISZERO PUSH2 0x2639 JUMPI PUSH1 0x40 MLOAD PUSH3 0x461BCD PUSH1 0xE5 SHL DUP2 MSTORE PUSH1 0x20 PUSH1 0x4 DUP3 ADD MSTORE PUSH1 0x21 PUSH1 0x24 DUP3 ADD MSTORE PUSH32 0x476F7665726E6F723A2070726F706F73616C20616C7265616479206578697374 PUSH1 0x44 DUP3 ADD MSTORE PUSH1 0x73 PUSH1 0xF8 SHL PUSH1 0x64 DUP3 ADD MSTORE PUSH1 0x84 ADD PUSH2 0xAED JUMP JUMPDEST PUSH1 0x0 PUSH2 0x264B PUSH2 0x2646 PUSH2 0xFF4 JUMP JUMPDEST PUSH2 0x33D9 JUMP JUMPDEST PUSH2 0x2654 NUMBER PUSH2 0x33D9 JUMP JUMPDEST PUSH2 0x265E SWAP2 SWAP1 PUSH2 0x4752 JUMP JUMPDEST SWAP1 POP PUSH1 0x0 PUSH2 0x266D PUSH2 0x2646 PUSH2 0x9B1 JUMP JUMPDEST PUSH2 0x2677 SWAP1 DUP4 PUSH2 0x4752 JUMP JUMPDEST DUP4 SLOAD PUSH8 0xFFFFFFFFFFFFFFFF NOT AND PUSH1 0x1 PUSH1 0x1 PUSH1 0x40 SHL SUB DUP5 AND OR DUP5 SSTORE SWAP1 POP PUSH1 0x1 DUP4 ADD DUP1 SLOAD PUSH8 0xFFFFFFFFFFFFFFFF NOT AND PUSH1 0x1 PUSH1 0x1 PUSH1 0x40 SHL SUB DUP4 AND OR SWAP1 SSTORE PUSH32 0x7D84A6263AE0D98D3329BD7B46BB4E8D6F98CD35A7ADB45C274C8B7FD5EBD5E0 DUP5 CALLER DUP12 DUP12 DUP14 MLOAD PUSH1 0x1 PUSH1 0x1 PUSH1 0x40 SHL SUB DUP2 GT ISZERO PUSH2 0x26EF JUMPI PUSH2 0x26EF PUSH2 0x396B JUMP JUMPDEST PUSH1 0x40 MLOAD SWAP1 DUP1 DUP3 MSTORE DUP1 PUSH1 0x20 MUL PUSH1 0x20 ADD DUP3 ADD PUSH1 0x40 MSTORE DUP1 ISZERO PUSH2 0x2722 JUMPI DUP2 PUSH1 0x20 ADD JUMPDEST PUSH1 0x60 DUP2 MSTORE PUSH1 0x20 ADD SWAP1 PUSH1 0x1 SWAP1 SUB SWAP1 DUP2 PUSH2 0x270D JUMPI SWAP1 POP JUMPDEST POP DUP13 DUP9 DUP9 DUP15 PUSH1 0x40 MLOAD PUSH2 0x273C SWAP10 SWAP9 SWAP8 SWAP7 SWAP6 SWAP5 SWAP4 SWAP3 SWAP2 SWAP1 PUSH2 0x4779 JUMP JUMPDEST PUSH1 0x40 MLOAD DUP1 SWAP2 SUB SWAP1 LOG1 POP SWAP2 SWAP8 SWAP7 POP POP POP POP POP POP POP JUMP JUMPDEST PUSH2 0x193 SLOAD PUSH1 0x40 MLOAD PUSH4 0x748D635 PUSH1 0xE3 SHL DUP2 MSTORE PUSH1 0x1 PUSH1 0x1 PUSH1 0xA0 SHL SUB DUP6 DUP2 AND PUSH1 0x4 DUP4 ADD MSTORE PUSH1 0x24 DUP3 ADD DUP6 SWAP1 MSTORE PUSH1 0x0 SWAP3 AND SWAP1 PUSH4 0x3A46B1A8 SWAP1 PUSH1 0x44 ADD PUSH1 0x20 PUSH1 0x40 MLOAD DUP1 DUP4 SUB DUP2 DUP7 GAS STATICCALL ISZERO DUP1 ISZERO PUSH2 0x27A4 JUMPI RETURNDATASIZE PUSH1 0x0 DUP1 RETURNDATACOPY RETURNDATASIZE PUSH1 0x0 REVERT JUMPDEST POP POP POP POP PUSH1 0x40 MLOAD RETURNDATASIZE PUSH1 0x1F NOT PUSH1 0x1F DUP3 ADD AND DUP3 ADD DUP1 PUSH1 0x40 MSTORE POP DUP2 ADD SWAP1 PUSH2 0x159B SWAP2 SWAP1 PUSH2 0x4360 JUMP JUMPDEST DUP1 SLOAD PUSH1 0x0 SWAP1 DUP1 ISZERO PUSH2 0x16EC JUMPI PUSH2 0x27E2 DUP4 PUSH2 0x2363 PUSH1 0x1 DUP5 PUSH2 0x45A9 JUMP JUMPDEST SLOAD PUSH1 0x1 PUSH1 0x20 SHL SWAP1 DIV PUSH1 0x1 PUSH1 0x1 PUSH1 0xE0 SHL SUB AND PUSH2 0x159E JUMP JUMPDEST PUSH2 0x1F8 SLOAD PUSH1 0x40 DUP1 MLOAD PUSH1 0x1 PUSH1 0x1 PUSH1 0xA0 SHL SUB SWAP3 DUP4 AND DUP2 MSTORE SWAP2 DUP4 AND PUSH1 0x20 DUP4 ADD MSTORE PUSH32 0x8F74EA46EF7894F65EABFB5E6E695DE773A000B47C529AB559178069B226401 SWAP2 ADD PUSH1 0x40 MLOAD DUP1 SWAP2 SUB SWAP1 LOG1 PUSH2 0x1F8 DUP1 SLOAD PUSH1 0x1 PUSH1 0x1 PUSH1 0xA0 SHL SUB NOT AND PUSH1 0x1 PUSH1 0x1 PUSH1 0xA0 SHL SUB SWAP3 SWAP1 SWAP3 AND SWAP2 SWAP1 SWAP2 OR SWAP1 SSTORE JUMP JUMPDEST PUSH1 0x60 PUSH2 0x159B DUP5 DUP5 DUP5 PUSH1 0x40 MLOAD DUP1 PUSH1 0x60 ADD PUSH1 0x40 MSTORE DUP1 PUSH1 0x29 DUP2 MSTORE PUSH1 0x20 ADD PUSH2 0x49E3 PUSH1 0x29 SWAP2 CODECOPY PUSH2 0x3441 JUMP JUMPDEST PUSH1 0x0 DUP2 GT PUSH2 0x28E9 JUMPI PUSH1 0x40 MLOAD PUSH3 0x461BCD PUSH1 0xE5 SHL DUP2 MSTORE PUSH1 0x20 PUSH1 0x4 DUP3 ADD MSTORE PUSH1 0x27 PUSH1 0x24 DUP3 ADD MSTORE PUSH32 0x476F7665726E6F7253657474696E67733A20766F74696E6720706572696F6420 PUSH1 0x44 DUP3 ADD MSTORE PUSH7 0x746F6F206C6F77 PUSH1 0xC8 SHL PUSH1 0x64 DUP3 ADD MSTORE PUSH1 0x84 ADD PUSH2 0xAED JUMP JUMPDEST PUSH2 0x130 SLOAD PUSH1 0x40 DUP1 MLOAD SWAP2 DUP3 MSTORE PUSH1 0x20 DUP3 ADD DUP4 SWAP1 MSTORE PUSH32 0x7E3F7F0708A84DE9203036ABAA450DCCC85AD5FF52F78C170F3EDB55CF5E8828 SWAP2 ADD PUSH1 0x40 MLOAD DUP1 SWAP2 SUB SWAP1 LOG1 PUSH2 0x130 SSTORE JUMP JUMPDEST PUSH2 0x131 SLOAD PUSH1 0x40 DUP1 MLOAD SWAP2 DUP3 MSTORE PUSH1 0x20 DUP3 ADD DUP4 SWAP1 MSTORE PUSH32 0xCCB45DA8D5717E6C4544694297C4BA5CF151D455C9BB0ED4FC7A38411BC05461 SWAP2 ADD PUSH1 0x40 MLOAD DUP1 SWAP2 SUB SWAP1 LOG1 PUSH2 0x131 SSTORE JUMP JUMPDEST PUSH1 0x0 PUSH1 0x64 PUSH2 0x297C DUP4 PUSH2 0x13EF JUMP JUMPDEST PUSH2 0x193 SLOAD PUSH1 0x40 MLOAD PUSH4 0x2394E7A3 PUSH1 0xE2 SHL DUP2 MSTORE PUSH1 0x4 DUP2 ADD DUP7 SWAP1 MSTORE PUSH1 0x1 PUSH1 0x1 PUSH1 0xA0 SHL SUB SWAP1 SWAP2 AND SWAP1 PUSH4 0x8E539E8C SWAP1 PUSH1 0x24 ADD PUSH1 0x20 PUSH1 0x40 MLOAD DUP1 DUP4 SUB DUP2 DUP7 GAS STATICCALL ISZERO DUP1 ISZERO PUSH2 0x29C6 JUMPI RETURNDATASIZE PUSH1 0x0 DUP1 RETURNDATACOPY RETURNDATASIZE PUSH1 0x0 REVERT JUMPDEST POP POP POP POP PUSH1 0x40 MLOAD RETURNDATASIZE PUSH1 0x1F NOT PUSH1 0x1F DUP3 ADD AND DUP3 ADD DUP1 PUSH1 0x40 MSTORE POP DUP2 ADD SWAP1 PUSH2 0x29EA SWAP2 SWAP1 PUSH2 0x4360 JUMP JUMPDEST PUSH2 0x29F4 SWAP2 SWAP1 PUSH2 0x4868 JUMP JUMPDEST PUSH2 0x9AB SWAP2 SWAP1 PUSH2 0x487F JUMP JUMPDEST PUSH1 0x0 PUSH1 0x1 PUSH1 0x1 PUSH1 0xE0 SHL SUB NOT DUP3 AND PUSH4 0xBF26D897 PUSH1 0xE0 SHL EQ DUP1 PUSH2 0x2A2F JUMPI POP PUSH1 0x1 PUSH1 0x1 PUSH1 0xE0 SHL SUB NOT DUP3 AND PUSH4 0x79DD796F PUSH1 0xE0 SHL EQ JUMPDEST DUP1 PUSH2 0x2A4A JUMPI POP PUSH1 0x1 PUSH1 0x1 PUSH1 0xE0 SHL SUB NOT DUP3 AND PUSH4 0x2711897 PUSH1 0xE5 SHL EQ JUMPDEST DUP1 PUSH2 0x9AB JUMPI POP PUSH4 0x1FFC9A7 PUSH1 0xE0 SHL PUSH1 0x1 PUSH1 0x1 PUSH1 0xE0 SHL SUB NOT DUP4 AND EQ PUSH2 0x9AB JUMP JUMPDEST PUSH1 0x0 PUSH2 0x99B PUSH32 0x8B73C3C69BB8FE3D512ECC4CF759CC79239F7B179B0FFACAA9A75D522B39400F PUSH2 0x2A98 PUSH1 0x65 SLOAD SWAP1 JUMP JUMPDEST PUSH1 0x66 SLOAD PUSH1 0x40 DUP1 MLOAD PUSH1 0x20 DUP2 ADD DUP6 SWAP1 MSTORE SWAP1 DUP2 ADD DUP4 SWAP1 MSTORE PUSH1 0x60 DUP2 ADD DUP3 SWAP1 MSTORE CHAINID PUSH1 0x80 DUP3 ADD MSTORE ADDRESS PUSH1 0xA0 DUP3 ADD MSTORE PUSH1 0x0 SWAP1 PUSH1 0xC0 ADD PUSH1 0x40 MLOAD PUSH1 0x20 DUP2 DUP4 SUB SUB DUP2 MSTORE SWAP1 PUSH1 0x40 MSTORE DUP1 MLOAD SWAP1 PUSH1 0x20 ADD KECCAK256 SWAP1 POP SWAP4 SWAP3 POP POP POP JUMP JUMPDEST PUSH1 0x0 DUP1 PUSH32 0x7FFFFFFFFFFFFFFFFFFFFFFFFFFFFFFF5D576E7357A4501DDFE92F46681B20A0 DUP4 GT ISZERO PUSH2 0x2B1B JUMPI POP PUSH1 0x0 SWAP1 POP PUSH1 0x3 PUSH2 0x2B9F JUMP JUMPDEST PUSH1 0x40 DUP1 MLOAD PUSH1 0x0 DUP1 DUP3 MSTORE PUSH1 0x20 DUP3 ADD DUP1 DUP5 MSTORE DUP10 SWAP1 MSTORE PUSH1 0xFF DUP9 AND SWAP3 DUP3 ADD SWAP3 SWAP1 SWAP3 MSTORE PUSH1 0x60 DUP2 ADD DUP7 SWAP1 MSTORE PUSH1 0x80 DUP2 ADD DUP6 SWAP1 MSTORE PUSH1 0x1 SWAP1 PUSH1 0xA0 ADD PUSH1 0x20 PUSH1 0x40 MLOAD PUSH1 0x20 DUP2 SUB SWAP1 DUP1 DUP5 SUB SWAP1 DUP6 GAS STATICCALL ISZERO DUP1 ISZERO PUSH2 0x2B6F JUMPI RETURNDATASIZE PUSH1 0x0 DUP1 RETURNDATACOPY RETURNDATASIZE PUSH1 0x0 REVERT JUMPDEST POP POP PUSH1 0x40 MLOAD PUSH1 0x1F NOT ADD MLOAD SWAP2 POP POP PUSH1 0x1 PUSH1 0x1 PUSH1 0xA0 SHL SUB DUP2 AND PUSH2 0x2B98 JUMPI PUSH1 0x0 PUSH1 0x1 SWAP3 POP SWAP3 POP POP PUSH2 0x2B9F JUMP JUMPDEST SWAP2 POP PUSH1 0x0 SWAP1 POP JUMPDEST SWAP5 POP SWAP5 SWAP3 POP POP POP JUMP JUMPDEST PUSH1 0x0 DUP2 PUSH1 0x4 DUP2 GT ISZERO PUSH2 0x2BBC JUMPI PUSH2 0x2BBC PUSH2 0x3E35 JUMP JUMPDEST SUB PUSH2 0x2BC4 JUMPI POP JUMP JUMPDEST PUSH1 0x1 DUP2 PUSH1 0x4 DUP2 GT ISZERO PUSH2 0x2BD8 JUMPI PUSH2 0x2BD8 PUSH2 0x3E35 JUMP JUMPDEST SUB PUSH2 0x2C25 JUMPI PUSH1 0x40 MLOAD PUSH3 0x461BCD PUSH1 0xE5 SHL DUP2 MSTORE PUSH1 0x20 PUSH1 0x4 DUP3 ADD MSTORE PUSH1 0x18 PUSH1 0x24 DUP3 ADD MSTORE PUSH32 0x45434453413A20696E76616C6964207369676E61747572650000000000000000 PUSH1 0x44 DUP3 ADD MSTORE PUSH1 0x64 ADD PUSH2 0xAED JUMP JUMPDEST PUSH1 0x2 DUP2 PUSH1 0x4 DUP2 GT ISZERO PUSH2 0x2C39 JUMPI PUSH2 0x2C39 PUSH2 0x3E35 JUMP JUMPDEST SUB PUSH2 0x2C86 JUMPI PUSH1 0x40 MLOAD PUSH3 0x461BCD PUSH1 0xE5 SHL DUP2 MSTORE PUSH1 0x20 PUSH1 0x4 DUP3 ADD MSTORE PUSH1 0x1F PUSH1 0x24 DUP3 ADD MSTORE PUSH32 0x45434453413A20696E76616C6964207369676E6174757265206C656E67746800 PUSH1 0x44 DUP3 ADD MSTORE PUSH1 0x64 ADD PUSH2 0xAED JUMP JUMPDEST PUSH1 0x3 DUP2 PUSH1 0x4 DUP2 GT ISZERO PUSH2 0x2C9A JUMPI PUSH2 0x2C9A PUSH2 0x3E35 JUMP JUMPDEST SUB PUSH2 0xB45 JUMPI PUSH1 0x40 MLOAD PUSH3 0x461BCD PUSH1 0xE5 SHL DUP2 MSTORE PUSH1 0x20 PUSH1 0x4 DUP3 ADD MSTORE PUSH1 0x22 PUSH1 0x24 DUP3 ADD MSTORE PUSH32 0x45434453413A20696E76616C6964207369676E6174757265202773272076616C PUSH1 0x44 DUP3 ADD MSTORE PUSH2 0x7565 PUSH1 0xF0 SHL PUSH1 0x64 DUP3 ADD MSTORE PUSH1 0x84 ADD PUSH2 0xAED JUMP JUMPDEST PUSH1 0x0 DUP6 DUP2 MSTORE PUSH2 0x161 PUSH1 0x20 SWAP1 DUP2 MSTORE PUSH1 0x40 DUP1 DUP4 KECCAK256 PUSH1 0x1 PUSH1 0x1 PUSH1 0xA0 SHL SUB DUP9 AND DUP5 MSTORE PUSH1 0x3 DUP2 ADD SWAP1 SWAP3 MSTORE SWAP1 SWAP2 KECCAK256 SLOAD PUSH1 0xFF AND ISZERO PUSH2 0x2D7B JUMPI PUSH1 0x40 MLOAD PUSH3 0x461BCD PUSH1 0xE5 SHL DUP2 MSTORE PUSH1 0x20 PUSH1 0x4 DUP3 ADD MSTORE PUSH1 0x27 PUSH1 0x24 DUP3 ADD MSTORE PUSH32 0x476F7665726E6F72566F74696E6753696D706C653A20766F746520616C726561 PUSH1 0x44 DUP3 ADD MSTORE PUSH7 0x191E4818D85CDD PUSH1 0xCA SHL PUSH1 0x64 DUP3 ADD MSTORE PUSH1 0x84 ADD PUSH2 0xAED JUMP JUMPDEST PUSH1 0x1 PUSH1 0x1 PUSH1 0xA0 SHL SUB DUP6 AND PUSH1 0x0 SWAP1 DUP2 MSTORE PUSH1 0x3 DUP3 ADD PUSH1 0x20 MSTORE PUSH1 0x40 SWAP1 KECCAK256 DUP1 SLOAD PUSH1 0xFF NOT AND PUSH1 0x1 OR SWAP1 SSTORE PUSH1 0xFF DUP5 AND PUSH2 0x2DC7 JUMPI DUP3 DUP2 PUSH1 0x0 ADD PUSH1 0x0 DUP3 DUP3 SLOAD PUSH2 0x2DBC SWAP2 SWAP1 PUSH2 0x44FE JUMP JUMPDEST SWAP1 SWAP2 SSTORE POP PUSH2 0x1E3D SWAP1 POP JUMP JUMPDEST PUSH1 0x0 NOT PUSH1 0xFF DUP6 AND ADD PUSH2 0x2DE7 JUMPI DUP3 DUP2 PUSH1 0x1 ADD PUSH1 0x0 DUP3 DUP3 SLOAD PUSH2 0x2DBC SWAP2 SWAP1 PUSH2 0x44FE JUMP JUMPDEST PUSH1 0x1 NOT PUSH1 0xFF DUP6 AND ADD PUSH2 0x2E07 JUMPI DUP3 DUP2 PUSH1 0x2 ADD PUSH1 0x0 DUP3 DUP3 SLOAD PUSH2 0x2DBC SWAP2 SWAP1 PUSH2 0x44FE JUMP JUMPDEST PUSH1 0x40 MLOAD PUSH3 0x461BCD PUSH1 0xE5 SHL DUP2 MSTORE PUSH1 0x20 PUSH1 0x4 DUP3 ADD MSTORE PUSH1 0x35 PUSH1 0x24 DUP3 ADD MSTORE PUSH32 0x476F7665726E6F72566F74696E6753696D706C653A20696E76616C6964207661 PUSH1 0x44 DUP3 ADD MSTORE PUSH21 0x6C756520666F7220656E756D20566F746554797065 PUSH1 0x58 SHL PUSH1 0x64 DUP3 ADD MSTORE PUSH1 0x84 ADD PUSH2 0xAED JUMP JUMPDEST PUSH1 0x0 PUSH1 0x1 PUSH1 0x1 PUSH1 0xE0 SHL SUB DUP3 GT ISZERO PUSH2 0x2ED6 JUMPI PUSH1 0x40 MLOAD PUSH3 0x461BCD PUSH1 0xE5 SHL DUP2 MSTORE PUSH1 0x20 PUSH1 0x4 DUP3 ADD MSTORE PUSH1 0x27 PUSH1 0x24 DUP3 ADD MSTORE PUSH32 0x53616665436173743A2076616C756520646F65736E27742066697420696E2032 PUSH1 0x44 DUP3 ADD MSTORE PUSH7 0x32342062697473 PUSH1 0xC8 SHL PUSH1 0x64 DUP3 ADD MSTORE PUSH1 0x84 ADD PUSH2 0xAED JUMP JUMPDEST POP SWAP1 JUMP JUMPDEST PUSH1 0x0 DUP1 PUSH2 0x2EF8 DUP5 PUSH2 0x2EEA NUMBER PUSH2 0x3316 JUMP JUMPDEST PUSH2 0x2EF3 DUP7 PUSH2 0x2E6D JUMP JUMPDEST PUSH2 0x3511 JUMP JUMPDEST PUSH1 0x1 PUSH1 0x1 PUSH1 0xE0 SHL SUB SWAP2 DUP3 AND SWAP4 POP AND SWAP1 POP JUMPDEST SWAP3 POP SWAP3 SWAP1 POP JUMP JUMPDEST DUP2 SLOAD PUSH1 0x1 PUSH1 0x80 SHL SWAP1 DUP2 SWAP1 DIV PUSH1 0xF SIGNEXTEND PUSH1 0x0 DUP2 DUP2 MSTORE PUSH1 0x1 DUP1 DUP7 ADD PUSH1 0x20 MSTORE PUSH1 0x40 SWAP1 SWAP2 KECCAK256 SWAP4 SWAP1 SWAP4 SSTORE DUP4 SLOAD PUSH1 0x1 PUSH1 0x1 PUSH1 0x80 SHL SUB SWAP1 DUP2 AND SWAP4 SWAP1 SWAP2 ADD AND MUL OR SWAP1 SSTORE JUMP JUMPDEST PUSH2 0x1F8 SLOAD PUSH1 0x40 MLOAD PUSH4 0xE38335E5 PUSH1 0xE0 SHL DUP2 MSTORE PUSH1 0x1 PUSH1 0x1 PUSH1 0xA0 SHL SUB SWAP1 SWAP2 AND SWAP1 PUSH4 0xE38335E5 SWAP1 CALLVALUE SWAP1 PUSH2 0x2F88 SWAP1 DUP9 SWAP1 DUP9 SWAP1 DUP9 SWAP1 PUSH1 0x0 SWAP1 DUP10 SWAP1 PUSH1 0x4 ADD PUSH2 0x4442 JUMP JUMPDEST PUSH1 0x0 PUSH1 0x40 MLOAD DUP1 DUP4 SUB DUP2 DUP6 DUP9 DUP1 EXTCODESIZE ISZERO DUP1 ISZERO PUSH2 0x2FA1 JUMPI PUSH1 0x0 DUP1 REVERT JUMPDEST POP GAS CALL ISZERO DUP1 ISZERO PUSH2 0x2FB5 JUMPI RETURNDATASIZE PUSH1 0x0 DUP1 RETURNDATACOPY RETURNDATASIZE PUSH1 0x0 REVERT JUMPDEST POP POP POP POP POP POP POP POP POP POP JUMP JUMPDEST PUSH1 0x1 PUSH1 0x1 PUSH1 0xA0 SHL SUB DUP2 AND EXTCODESIZE PUSH2 0x302E JUMPI PUSH1 0x40 MLOAD PUSH3 0x461BCD PUSH1 0xE5 SHL DUP2 MSTORE PUSH1 0x20 PUSH1 0x4 DUP3 ADD MSTORE PUSH1 0x2D PUSH1 0x24 DUP3 ADD MSTORE PUSH32 0x455243313936373A206E657720696D706C656D656E746174696F6E206973206E PUSH1 0x44 DUP3 ADD MSTORE PUSH13 0x1BDD08184818DBDB9D1C9858DD PUSH1 0x9A SHL PUSH1 0x64 DUP3 ADD MSTORE PUSH1 0x84 ADD PUSH2 0xAED JUMP JUMPDEST PUSH1 0x0 DUP1 MLOAD PUSH1 0x20 PUSH2 0x49C3 DUP4 CODECOPY DUP2 MLOAD SWAP2 MSTORE DUP1 SLOAD PUSH1 0x1 PUSH1 0x1 PUSH1 0xA0 SHL SUB NOT AND PUSH1 0x1 PUSH1 0x1 PUSH1 0xA0 SHL SUB SWAP3 SWAP1 SWAP3 AND SWAP2 SWAP1 SWAP2 OR SWAP1 SSTORE JUMP JUMPDEST PUSH2 0x3066 DUP4 PUSH2 0x36B4 JUMP JUMPDEST PUSH1 0x0 DUP3 MLOAD GT DUP1 PUSH2 0x3073 JUMPI POP DUP1 JUMPDEST ISZERO PUSH2 0x11FC JUMPI PUSH2 0x3082 DUP4 DUP4 PUSH2 0x36F4 JUMP JUMPDEST POP POP POP POP JUMP JUMPDEST PUSH1 0x0 DUP2 DUP2 MSTORE PUSH1 0xFE PUSH1 0x20 MSTORE PUSH1 0x40 DUP2 KECCAK256 PUSH1 0x2 DUP2 ADD SLOAD PUSH1 0xFF AND ISZERO PUSH2 0x30AC JUMPI POP PUSH1 0x7 SWAP3 SWAP2 POP POP JUMP JUMPDEST PUSH1 0x2 DUP2 ADD SLOAD PUSH2 0x100 SWAP1 DIV PUSH1 0xFF AND ISZERO PUSH2 0x30C7 JUMPI POP PUSH1 0x2 SWAP3 SWAP2 POP POP JUMP JUMPDEST PUSH1 0x0 PUSH2 0x30D2 DUP5 PUSH2 0xEE1 JUMP JUMPDEST SWAP1 POP DUP1 PUSH1 0x0 SUB PUSH2 0x3124 JUMPI PUSH1 0x40 MLOAD PUSH3 0x461BCD PUSH1 0xE5 SHL DUP2 MSTORE PUSH1 0x20 PUSH1 0x4 DUP3 ADD MSTORE PUSH1 0x1D PUSH1 0x24 DUP3 ADD MSTORE PUSH32 0x476F7665726E6F723A20756E6B6E6F776E2070726F706F73616C206964000000 PUSH1 0x44 DUP3 ADD MSTORE PUSH1 0x64 ADD PUSH2 0xAED JUMP JUMPDEST NUMBER DUP2 LT PUSH2 0x3135 JUMPI POP PUSH1 0x0 SWAP4 SWAP3 POP POP POP JUMP JUMPDEST PUSH1 0x0 PUSH2 0x3140 DUP6 PUSH2 0x1701 JUMP JUMPDEST SWAP1 POP NUMBER DUP2 LT PUSH2 0x3154 JUMPI POP PUSH1 0x1 SWAP5 SWAP4 POP POP POP POP JUMP JUMPDEST PUSH2 0x315D DUP6 PUSH2 0x37DF JUMP JUMPDEST DUP1 ISZERO PUSH2 0x317D JUMPI POP PUSH1 0x0 DUP6 DUP2 MSTORE PUSH2 0x161 PUSH1 0x20 MSTORE PUSH1 0x40 SWAP1 KECCAK256 DUP1 SLOAD PUSH1 0x1 SWAP1 SWAP2 ADD SLOAD GT JUMPDEST ISZERO PUSH2 0x318D JUMPI POP PUSH1 0x4 SWAP5 SWAP4 POP POP POP POP JUMP JUMPDEST POP PUSH1 0x3 SWAP5 SWAP4 POP POP POP POP JUMP JUMPDEST PUSH1 0x0 SLOAD PUSH2 0x100 SWAP1 DIV PUSH1 0xFF AND PUSH2 0x31BF JUMPI PUSH1 0x40 MLOAD PUSH3 0x461BCD PUSH1 0xE5 SHL DUP2 MSTORE PUSH1 0x4 ADD PUSH2 0xAED SWAP1 PUSH2 0x46C6 JUMP JUMPDEST DUP2 MLOAD PUSH1 0x20 SWAP3 DUP4 ADD KECCAK256 DUP2 MLOAD SWAP2 SWAP1 SWAP3 ADD KECCAK256 PUSH1 0x65 SWAP2 SWAP1 SWAP2 SSTORE PUSH1 0x66 SSTORE JUMP JUMPDEST PUSH1 0x0 SLOAD PUSH2 0x100 SWAP1 DIV PUSH1 0xFF AND PUSH2 0x3200 JUMPI PUSH1 0x40 MLOAD PUSH3 0x461BCD PUSH1 0xE5 SHL DUP2 MSTORE PUSH1 0x4 ADD PUSH2 0xAED SWAP1 PUSH2 0x46C6 JUMP JUMPDEST PUSH1 0xFD PUSH2 0x12CD DUP3 DUP3 PUSH2 0x48E7 JUMP JUMPDEST PUSH1 0x0 SLOAD PUSH2 0x100 SWAP1 DIV PUSH1 0xFF AND PUSH2 0x3233 JUMPI PUSH1 0x40 MLOAD PUSH3 0x461BCD PUSH1 0xE5 SHL DUP2 MSTORE PUSH1 0x4 ADD PUSH2 0xAED SWAP1 PUSH2 0x46C6 JUMP JUMPDEST PUSH2 0x323C DUP4 PUSH2 0x239D JUMP JUMPDEST PUSH2 0x3245 DUP3 PUSH2 0x2889 JUMP JUMPDEST PUSH2 0x11FC DUP2 PUSH2 0x292C JUMP JUMPDEST PUSH1 0x0 SLOAD PUSH2 0x100 SWAP1 DIV PUSH1 0xFF AND PUSH2 0x3275 JUMPI PUSH1 0x40 MLOAD PUSH3 0x461BCD PUSH1 0xE5 SHL DUP2 MSTORE PUSH1 0x4 ADD PUSH2 0xAED SWAP1 PUSH2 0x46C6 JUMP JUMPDEST PUSH2 0x193 DUP1 SLOAD PUSH1 0x1 PUSH1 0x1 PUSH1 0xA0 SHL SUB NOT AND PUSH1 0x1 PUSH1 0x1 PUSH1 0xA0 SHL SUB SWAP3 SWAP1 SWAP3 AND SWAP2 SWAP1 SWAP2 OR SWAP1 SSTORE JUMP JUMPDEST PUSH1 0x0 SLOAD PUSH2 0x100 SWAP1 DIV PUSH1 0xFF AND PUSH2 0xB3C JUMPI PUSH1 0x40 MLOAD PUSH3 0x461BCD PUSH1 0xE5 SHL DUP2 MSTORE PUSH1 0x4 ADD PUSH2 0xAED SWAP1 PUSH2 0x46C6 JUMP JUMPDEST PUSH1 0x0 SLOAD PUSH2 0x100 SWAP1 DIV PUSH1 0xFF AND PUSH2 0x1650 JUMPI PUSH1 0x40 MLOAD PUSH3 0x461BCD PUSH1 0xE5 SHL DUP2 MSTORE PUSH1 0x4 ADD PUSH2 0xAED SWAP1 PUSH2 0x46C6 JUMP JUMPDEST PUSH1 0x0 SLOAD PUSH2 0x100 SWAP1 DIV PUSH1 0xFF AND PUSH2 0x330D JUMPI PUSH1 0x40 MLOAD PUSH3 0x461BCD PUSH1 0xE5 SHL DUP2 MSTORE PUSH1 0x4 ADD PUSH2 0xAED SWAP1 PUSH2 0x46C6 JUMP JUMPDEST PUSH2 0x1523 CALLER PUSH2 0x243B JUMP JUMPDEST PUSH1 0x0 PUSH4 0xFFFFFFFF DUP3 GT ISZERO PUSH2 0x2ED6 JUMPI PUSH1 0x40 MLOAD PUSH3 0x461BCD PUSH1 0xE5 SHL DUP2 MSTORE PUSH1 0x20 PUSH1 0x4 DUP3 ADD MSTORE PUSH1 0x26 PUSH1 0x24 DUP3 ADD MSTORE PUSH32 0x53616665436173743A2076616C756520646F65736E27742066697420696E2033 PUSH1 0x44 DUP3 ADD MSTORE PUSH6 0x322062697473 PUSH1 0xD0 SHL PUSH1 0x64 DUP3 ADD MSTORE PUSH1 0x84 ADD PUSH2 0xAED JUMP JUMPDEST PUSH1 0x0 JUMPDEST DUP2 DUP4 LT ISZERO PUSH2 0x33D1 JUMPI PUSH1 0x0 PUSH2 0x3392 DUP5 DUP5 PUSH2 0x3817 JUMP JUMPDEST PUSH1 0x0 DUP8 DUP2 MSTORE PUSH1 0x20 SWAP1 KECCAK256 SWAP1 SWAP2 POP PUSH4 0xFFFFFFFF DUP7 AND SWAP1 DUP3 ADD SLOAD PUSH4 0xFFFFFFFF AND GT ISZERO PUSH2 0x33BD JUMPI DUP1 SWAP3 POP PUSH2 0x33CB JUMP JUMPDEST PUSH2 0x33C8 DUP2 PUSH1 0x1 PUSH2 0x44FE JUMP JUMPDEST SWAP4 POP JUMPDEST POP PUSH2 0x337E JUMP JUMPDEST POP SWAP4 SWAP3 POP POP POP JUMP JUMPDEST PUSH1 0x0 PUSH1 0x1 PUSH1 0x1 PUSH1 0x40 SHL SUB DUP3 GT ISZERO PUSH2 0x2ED6 JUMPI PUSH1 0x40 MLOAD PUSH3 0x461BCD PUSH1 0xE5 SHL DUP2 MSTORE PUSH1 0x20 PUSH1 0x4 DUP3 ADD MSTORE PUSH1 0x26 PUSH1 0x24 DUP3 ADD MSTORE PUSH32 0x53616665436173743A2076616C756520646F65736E27742066697420696E2036 PUSH1 0x44 DUP3 ADD MSTORE PUSH6 0x342062697473 PUSH1 0xD0 SHL PUSH1 0x64 DUP3 ADD MSTORE PUSH1 0x84 ADD PUSH2 0xAED JUMP JUMPDEST PUSH1 0x60 DUP3 SELFBALANCE LT ISZERO PUSH2 0x34A2 JUMPI PUSH1 0x40 MLOAD PUSH3 0x461BCD PUSH1 0xE5 SHL DUP2 MSTORE PUSH1 0x20 PUSH1 0x4 DUP3 ADD MSTORE PUSH1 0x26 PUSH1 0x24 DUP3 ADD MSTORE PUSH32 0x416464726573733A20696E73756666696369656E742062616C616E636520666F PUSH1 0x44 DUP3 ADD MSTORE PUSH6 0x1C8818D85B1B PUSH1 0xD2 SHL PUSH1 0x64 DUP3 ADD MSTORE PUSH1 0x84 ADD PUSH2 0xAED JUMP JUMPDEST PUSH1 0x0 DUP1 DUP7 PUSH1 0x1 PUSH1 0x1 PUSH1 0xA0 SHL SUB AND DUP6 DUP8 PUSH1 0x40 MLOAD PUSH2 0x34BE SWAP2 SWAP1 PUSH2 0x49A6 JUMP JUMPDEST PUSH1 0x0 PUSH1 0x40 MLOAD DUP1 DUP4 SUB DUP2 DUP6 DUP8 GAS CALL SWAP3 POP POP POP RETURNDATASIZE DUP1 PUSH1 0x0 DUP2 EQ PUSH2 0x34FB JUMPI PUSH1 0x40 MLOAD SWAP2 POP PUSH1 0x1F NOT PUSH1 0x3F RETURNDATASIZE ADD AND DUP3 ADD PUSH1 0x40 MSTORE RETURNDATASIZE DUP3 MSTORE RETURNDATASIZE PUSH1 0x0 PUSH1 0x20 DUP5 ADD RETURNDATACOPY PUSH2 0x3500 JUMP JUMPDEST PUSH1 0x60 SWAP2 POP JUMPDEST POP SWAP2 POP SWAP2 POP PUSH2 0x106B DUP8 DUP4 DUP4 DUP8 PUSH2 0x3832 JUMP JUMPDEST DUP3 SLOAD PUSH1 0x0 SWAP1 DUP2 SWAP1 DUP1 ISZERO PUSH2 0x3657 JUMPI PUSH1 0x0 PUSH2 0x352F DUP8 PUSH2 0x2363 PUSH1 0x1 DUP6 PUSH2 0x45A9 JUMP JUMPDEST PUSH1 0x40 DUP1 MLOAD DUP1 DUP3 ADD SWAP1 SWAP2 MSTORE SWAP1 SLOAD PUSH4 0xFFFFFFFF DUP1 DUP3 AND DUP1 DUP5 MSTORE PUSH1 0x1 PUSH1 0x20 SHL SWAP1 SWAP3 DIV PUSH1 0x1 PUSH1 0x1 PUSH1 0xE0 SHL SUB AND PUSH1 0x20 DUP5 ADD MSTORE SWAP2 SWAP3 POP SWAP1 DUP8 AND LT ISZERO PUSH2 0x35B0 JUMPI PUSH1 0x40 MLOAD PUSH3 0x461BCD PUSH1 0xE5 SHL DUP2 MSTORE PUSH1 0x20 PUSH1 0x4 DUP3 ADD MSTORE PUSH1 0x17 PUSH1 0x24 DUP3 ADD MSTORE PUSH32 0x436865636B706F696E743A20696E76616C6964206B6579000000000000000000 PUSH1 0x44 DUP3 ADD MSTORE PUSH1 0x64 ADD PUSH2 0xAED JUMP JUMPDEST DUP1 MLOAD PUSH4 0xFFFFFFFF DUP1 DUP9 AND SWAP2 AND SUB PUSH2 0x35F8 JUMPI DUP5 PUSH2 0x35D1 DUP9 PUSH2 0x2363 PUSH1 0x1 DUP7 PUSH2 0x45A9 JUMP JUMPDEST DUP1 SLOAD PUSH1 0x1 PUSH1 0x1 PUSH1 0xE0 SHL SUB SWAP3 SWAP1 SWAP3 AND PUSH1 0x1 PUSH1 0x20 SHL MUL PUSH4 0xFFFFFFFF SWAP1 SWAP3 AND SWAP2 SWAP1 SWAP2 OR SWAP1 SSTORE PUSH2 0x3647 JUMP JUMPDEST PUSH1 0x40 DUP1 MLOAD DUP1 DUP3 ADD SWAP1 SWAP2 MSTORE PUSH4 0xFFFFFFFF DUP1 DUP9 AND DUP3 MSTORE PUSH1 0x1 PUSH1 0x1 PUSH1 0xE0 SHL SUB DUP1 DUP9 AND PUSH1 0x20 DUP1 DUP6 ADD SWAP2 DUP3 MSTORE DUP12 SLOAD PUSH1 0x1 DUP2 ADD DUP14 SSTORE PUSH1 0x0 DUP14 DUP2 MSTORE SWAP2 SWAP1 SWAP2 KECCAK256 SWAP5 MLOAD SWAP2 MLOAD SWAP1 SWAP3 AND PUSH1 0x1 PUSH1 0x20 SHL MUL SWAP3 AND SWAP2 SWAP1 SWAP2 OR SWAP2 ADD SSTORE JUMPDEST PUSH1 0x20 ADD MLOAD SWAP3 POP DUP4 SWAP2 POP PUSH2 0x36AC SWAP1 POP JUMP JUMPDEST POP POP PUSH1 0x40 DUP1 MLOAD DUP1 DUP3 ADD SWAP1 SWAP2 MSTORE PUSH4 0xFFFFFFFF DUP1 DUP6 AND DUP3 MSTORE PUSH1 0x1 PUSH1 0x1 PUSH1 0xE0 SHL SUB DUP1 DUP6 AND PUSH1 0x20 DUP1 DUP6 ADD SWAP2 DUP3 MSTORE DUP9 SLOAD PUSH1 0x1 DUP2 ADD DUP11 SSTORE PUSH1 0x0 DUP11 DUP2 MSTORE SWAP2 DUP3 KECCAK256 SWAP6 MLOAD SWAP3 MLOAD SWAP1 SWAP4 AND PUSH1 0x1 PUSH1 0x20 SHL MUL SWAP2 SWAP1 SWAP4 AND OR SWAP3 ADD SWAP2 SWAP1 SWAP2 SSTORE SWAP1 POP DUP2 JUMPDEST SWAP4 POP SWAP4 SWAP2 POP POP JUMP JUMPDEST PUSH2 0x36BD DUP2 PUSH2 0x2FC1 JUMP JUMPDEST PUSH1 0x40 MLOAD PUSH1 0x1 PUSH1 0x1 PUSH1 0xA0 SHL SUB DUP3 AND SWAP1 PUSH32 0xBC7CD75A20EE27FD9ADEBAB32041F755214DBC6BFFA90CC0225B39DA2E5C2D3B SWAP1 PUSH1 0x0 SWAP1 LOG2 POP JUMP JUMPDEST PUSH1 0x60 PUSH1 0x1 PUSH1 0x1 PUSH1 0xA0 SHL SUB DUP4 AND EXTCODESIZE PUSH2 0x375C JUMPI PUSH1 0x40 MLOAD PUSH3 0x461BCD PUSH1 0xE5 SHL DUP2 MSTORE PUSH1 0x20 PUSH1 0x4 DUP3 ADD MSTORE PUSH1 0x26 PUSH1 0x24 DUP3 ADD MSTORE PUSH32 0x416464726573733A2064656C65676174652063616C6C20746F206E6F6E2D636F PUSH1 0x44 DUP3 ADD MSTORE PUSH6 0x1B9D1C9858DD PUSH1 0xD2 SHL PUSH1 0x64 DUP3 ADD MSTORE PUSH1 0x84 ADD PUSH2 0xAED JUMP JUMPDEST PUSH1 0x0 DUP1 DUP5 PUSH1 0x1 PUSH1 0x1 PUSH1 0xA0 SHL SUB AND DUP5 PUSH1 0x40 MLOAD PUSH2 0x3777 SWAP2 SWAP1 PUSH2 0x49A6 JUMP JUMPDEST PUSH1 0x0 PUSH1 0x40 MLOAD DUP1 DUP4 SUB DUP2 DUP6 GAS DELEGATECALL SWAP2 POP POP RETURNDATASIZE DUP1 PUSH1 0x0 DUP2 EQ PUSH2 0x37B2 JUMPI PUSH1 0x40 MLOAD SWAP2 POP PUSH1 0x1F NOT PUSH1 0x3F RETURNDATASIZE ADD AND DUP3 ADD PUSH1 0x40 MSTORE RETURNDATASIZE DUP3 MSTORE RETURNDATASIZE PUSH1 0x0 PUSH1 0x20 DUP5 ADD RETURNDATACOPY PUSH2 0x37B7 JUMP JUMPDEST PUSH1 0x60 SWAP2 POP JUMPDEST POP SWAP2 POP SWAP2 POP PUSH2 0x1585 DUP3 DUP3 PUSH1 0x40 MLOAD DUP1 PUSH1 0x60 ADD PUSH1 0x40 MSTORE DUP1 PUSH1 0x27 DUP2 MSTORE PUSH1 0x20 ADD PUSH2 0x4A0C PUSH1 0x27 SWAP2 CODECOPY PUSH2 0x38AB JUMP JUMPDEST PUSH1 0x0 DUP2 DUP2 MSTORE PUSH2 0x161 PUSH1 0x20 MSTORE PUSH1 0x40 DUP2 KECCAK256 PUSH1 0x2 DUP2 ADD SLOAD PUSH1 0x1 DUP3 ADD SLOAD PUSH2 0x3802 SWAP2 SWAP1 PUSH2 0x44FE JUMP JUMPDEST PUSH2 0x380E PUSH2 0x960 DUP6 PUSH2 0xEE1 JUMP JUMPDEST GT ISZERO SWAP4 SWAP3 POP POP POP JUMP JUMPDEST PUSH1 0x0 PUSH2 0x3826 PUSH1 0x2 DUP5 DUP5 XOR PUSH2 0x487F JUMP JUMPDEST PUSH2 0x159E SWAP1 DUP5 DUP5 AND PUSH2 0x44FE JUMP JUMPDEST PUSH1 0x60 DUP4 ISZERO PUSH2 0x38A1 JUMPI DUP3 MLOAD PUSH1 0x0 SUB PUSH2 0x389A JUMPI PUSH1 0x1 PUSH1 0x1 PUSH1 0xA0 SHL SUB DUP6 AND EXTCODESIZE PUSH2 0x389A JUMPI PUSH1 0x40 MLOAD PUSH3 0x461BCD PUSH1 0xE5 SHL DUP2 MSTORE PUSH1 0x20 PUSH1 0x4 DUP3 ADD MSTORE PUSH1 0x1D PUSH1 0x24 DUP3 ADD MSTORE PUSH32 0x416464726573733A2063616C6C20746F206E6F6E2D636F6E7472616374000000 PUSH1 0x44 DUP3 ADD MSTORE PUSH1 0x64 ADD PUSH2 0xAED JUMP JUMPDEST POP DUP2 PUSH2 0xBE3 JUMP JUMPDEST PUSH2 0xBE3 DUP4 DUP4 PUSH2 0x38C0 JUMP JUMPDEST PUSH1 0x60 DUP4 ISZERO PUSH2 0x38BA JUMPI POP DUP2 PUSH2 0x159E JUMP JUMPDEST PUSH2 0x159E DUP4 DUP4 JUMPDEST DUP2 MLOAD ISZERO PUSH2 0x38D0 JUMPI DUP2 MLOAD DUP1 DUP4 PUSH1 0x20 ADD REVERT JUMPDEST DUP1 PUSH1 0x40 MLOAD PUSH3 0x461BCD PUSH1 0xE5 SHL DUP2 MSTORE PUSH1 0x4 ADD PUSH2 0xAED SWAP2 SWAP1 PUSH2 0x3B37 JUMP JUMPDEST PUSH1 0x0 PUSH1 0x20 DUP3 DUP5 SUB SLT ISZERO PUSH2 0x38FC JUMPI PUSH1 0x0 DUP1 REVERT JUMPDEST DUP2 CALLDATALOAD PUSH1 0x1 PUSH1 0x1 PUSH1 0xE0 SHL SUB NOT DUP2 AND DUP2 EQ PUSH2 0x159E JUMPI PUSH1 0x0 DUP1 REVERT JUMPDEST DUP1 CALLDATALOAD PUSH1 0xFF DUP2 AND DUP2 EQ PUSH2 0x3925 JUMPI PUSH1 0x0 DUP1 REVERT JUMPDEST SWAP2 SWAP1 POP JUMP JUMPDEST PUSH1 0x0 DUP1 DUP4 PUSH1 0x1F DUP5 ADD SLT PUSH2 0x393C JUMPI PUSH1 0x0 DUP1 REVERT JUMPDEST POP DUP2 CALLDATALOAD PUSH1 0x1 PUSH1 0x1 PUSH1 0x40 SHL SUB DUP2 GT ISZERO PUSH2 0x3953 JUMPI PUSH1 0x0 DUP1 REVERT JUMPDEST PUSH1 0x20 DUP4 ADD SWAP2 POP DUP4 PUSH1 0x20 DUP3 DUP6 ADD ADD GT ISZERO PUSH2 0x2F09 JUMPI PUSH1 0x0 DUP1 REVERT JUMPDEST PUSH4 0x4E487B71 PUSH1 0xE0 SHL PUSH1 0x0 MSTORE PUSH1 0x41 PUSH1 0x4 MSTORE PUSH1 0x24 PUSH1 0x0 REVERT JUMPDEST PUSH1 0x40 MLOAD PUSH1 0x1F DUP3 ADD PUSH1 0x1F NOT AND DUP2 ADD PUSH1 0x1 PUSH1 0x1 PUSH1 0x40 SHL SUB DUP2 GT DUP3 DUP3 LT OR ISZERO PUSH2 0x39A9 JUMPI PUSH2 0x39A9 PUSH2 0x396B JUMP JUMPDEST PUSH1 0x40 MSTORE SWAP2 SWAP1 POP JUMP JUMPDEST PUSH1 0x0 PUSH1 0x1 PUSH1 0x1 PUSH1 0x40 SHL SUB DUP4 GT ISZERO PUSH2 0x39CA JUMPI PUSH2 0x39CA PUSH2 0x396B JUMP JUMPDEST PUSH2 0x39DD PUSH1 0x1F DUP5 ADD PUSH1 0x1F NOT AND PUSH1 0x20 ADD PUSH2 0x3981 JUMP JUMPDEST SWAP1 POP DUP3 DUP2 MSTORE DUP4 DUP4 DUP4 ADD GT ISZERO PUSH2 0x39F1 JUMPI PUSH1 0x0 DUP1 REVERT JUMPDEST DUP3 DUP3 PUSH1 0x20 DUP4 ADD CALLDATACOPY PUSH1 0x0 PUSH1 0x20 DUP5 DUP4 ADD ADD MSTORE SWAP4 SWAP3 POP POP POP JUMP JUMPDEST PUSH1 0x0 DUP3 PUSH1 0x1F DUP4 ADD SLT PUSH2 0x3A19 JUMPI PUSH1 0x0 DUP1 REVERT JUMPDEST PUSH2 0x159E DUP4 DUP4 CALLDATALOAD PUSH1 0x20 DUP6 ADD PUSH2 0x39B1 JUMP JUMPDEST PUSH1 0x0 DUP1 PUSH1 0x0 DUP1 PUSH1 0x0 DUP1 PUSH1 0x0 DUP1 PUSH1 0xE0 DUP10 DUP12 SUB SLT ISZERO PUSH2 0x3A44 JUMPI PUSH1 0x0 DUP1 REVERT JUMPDEST DUP9 CALLDATALOAD SWAP8 POP PUSH2 0x3A54 PUSH1 0x20 DUP11 ADD PUSH2 0x3914 JUMP JUMPDEST SWAP7 POP PUSH1 0x40 DUP10 ADD CALLDATALOAD PUSH1 0x1 PUSH1 0x1 PUSH1 0x40 SHL SUB DUP1 DUP3 GT ISZERO PUSH2 0x3A70 JUMPI PUSH1 0x0 DUP1 REVERT JUMPDEST PUSH2 0x3A7C DUP13 DUP4 DUP14 ADD PUSH2 0x392A JUMP JUMPDEST SWAP1 SWAP9 POP SWAP7 POP PUSH1 0x60 DUP12 ADD CALLDATALOAD SWAP2 POP DUP1 DUP3 GT ISZERO PUSH2 0x3A95 JUMPI PUSH1 0x0 DUP1 REVERT JUMPDEST POP PUSH2 0x3AA2 DUP12 DUP3 DUP13 ADD PUSH2 0x3A08 JUMP JUMPDEST SWAP5 POP POP PUSH2 0x3AB1 PUSH1 0x80 DUP11 ADD PUSH2 0x3914 JUMP JUMPDEST SWAP3 POP PUSH1 0xA0 DUP10 ADD CALLDATALOAD SWAP2 POP PUSH1 0xC0 DUP10 ADD CALLDATALOAD SWAP1 POP SWAP3 SWAP6 SWAP9 POP SWAP3 SWAP6 SWAP9 SWAP1 SWAP4 SWAP7 POP JUMP JUMPDEST PUSH1 0x0 PUSH1 0x20 DUP3 DUP5 SUB SLT ISZERO PUSH2 0x3AE0 JUMPI PUSH1 0x0 DUP1 REVERT JUMPDEST POP CALLDATALOAD SWAP2 SWAP1 POP JUMP JUMPDEST PUSH1 0x0 JUMPDEST DUP4 DUP2 LT ISZERO PUSH2 0x3B02 JUMPI DUP2 DUP2 ADD MLOAD DUP4 DUP3 ADD MSTORE PUSH1 0x20 ADD PUSH2 0x3AEA JUMP JUMPDEST POP POP PUSH1 0x0 SWAP2 ADD MSTORE JUMP JUMPDEST PUSH1 0x0 DUP2 MLOAD DUP1 DUP5 MSTORE PUSH2 0x3B23 DUP2 PUSH1 0x20 DUP7 ADD PUSH1 0x20 DUP7 ADD PUSH2 0x3AE7 JUMP JUMPDEST PUSH1 0x1F ADD PUSH1 0x1F NOT AND SWAP3 SWAP1 SWAP3 ADD PUSH1 0x20 ADD SWAP3 SWAP2 POP POP JUMP JUMPDEST PUSH1 0x20 DUP2 MSTORE PUSH1 0x0 PUSH2 0x159E PUSH1 0x20 DUP4 ADD DUP5 PUSH2 0x3B0B JUMP JUMPDEST PUSH1 0x1 PUSH1 0x1 PUSH1 0xA0 SHL SUB DUP2 AND DUP2 EQ PUSH2 0xB45 JUMPI PUSH1 0x0 DUP1 REVERT JUMPDEST PUSH1 0x0 DUP1 PUSH1 0x0 DUP1 PUSH1 0x80 DUP6 DUP8 SUB SLT ISZERO PUSH2 0x3B75 JUMPI PUSH1 0x0 DUP1 REVERT JUMPDEST DUP5 CALLDATALOAD PUSH2 0x3B80 DUP2 PUSH2 0x3B4A JUMP JUMPDEST SWAP4 POP PUSH1 0x20 DUP6 ADD CALLDATALOAD PUSH2 0x3B90 DUP2 PUSH2 0x3B4A JUMP JUMPDEST SWAP3 POP PUSH1 0x40 DUP6 ADD CALLDATALOAD SWAP2 POP PUSH1 0x60 DUP6 ADD CALLDATALOAD PUSH1 0x1 PUSH1 0x1 PUSH1 0x40 SHL SUB DUP2 GT ISZERO PUSH2 0x3BB2 JUMPI PUSH1 0x0 DUP1 REVERT JUMPDEST PUSH2 0x3BBE DUP8 DUP3 DUP9 ADD PUSH2 0x3A08 JUMP JUMPDEST SWAP2 POP POP SWAP3 SWAP6 SWAP2 SWAP5 POP SWAP3 POP JUMP JUMPDEST PUSH1 0x0 PUSH1 0x1 PUSH1 0x1 PUSH1 0x40 SHL SUB DUP3 GT ISZERO PUSH2 0x3BE3 JUMPI PUSH2 0x3BE3 PUSH2 0x396B JUMP JUMPDEST POP PUSH1 0x5 SHL PUSH1 0x20 ADD SWAP1 JUMP JUMPDEST PUSH1 0x0 DUP3 PUSH1 0x1F DUP4 ADD SLT PUSH2 0x3BFE JUMPI PUSH1 0x0 DUP1 REVERT JUMPDEST DUP2 CALLDATALOAD PUSH1 0x20 PUSH2 0x3C13 PUSH2 0x3C0E DUP4 PUSH2 0x3BCA JUMP JUMPDEST PUSH2 0x3981 JUMP JUMPDEST DUP3 DUP2 MSTORE PUSH1 0x5 SWAP3 SWAP1 SWAP3 SHL DUP5 ADD DUP2 ADD SWAP2 DUP2 DUP2 ADD SWAP1 DUP7 DUP5 GT ISZERO PUSH2 0x3C32 JUMPI PUSH1 0x0 DUP1 REVERT JUMPDEST DUP3 DUP7 ADD JUMPDEST DUP5 DUP2 LT ISZERO PUSH2 0x3C56 JUMPI DUP1 CALLDATALOAD PUSH2 0x3C49 DUP2 PUSH2 0x3B4A JUMP JUMPDEST DUP4 MSTORE SWAP2 DUP4 ADD SWAP2 DUP4 ADD PUSH2 0x3C36 JUMP JUMPDEST POP SWAP7 SWAP6 POP POP POP POP POP POP JUMP JUMPDEST PUSH1 0x0 DUP3 PUSH1 0x1F DUP4 ADD SLT PUSH2 0x3C72 JUMPI PUSH1 0x0 DUP1 REVERT JUMPDEST DUP2 CALLDATALOAD PUSH1 0x20 PUSH2 0x3C82 PUSH2 0x3C0E DUP4 PUSH2 0x3BCA JUMP JUMPDEST DUP3 DUP2 MSTORE PUSH1 0x5 SWAP3 SWAP1 SWAP3 SHL DUP5 ADD DUP2 ADD SWAP2 DUP2 DUP2 ADD SWAP1 DUP7 DUP5 GT ISZERO PUSH2 0x3CA1 JUMPI PUSH1 0x0 DUP1 REVERT JUMPDEST DUP3 DUP7 ADD JUMPDEST DUP5 DUP2 LT ISZERO PUSH2 0x3C56 JUMPI DUP1 CALLDATALOAD DUP4 MSTORE SWAP2 DUP4 ADD SWAP2 DUP4 ADD PUSH2 0x3CA5 JUMP JUMPDEST PUSH1 0x0 DUP3 PUSH1 0x1F DUP4 ADD SLT PUSH2 0x3CCD JUMPI PUSH1 0x0 DUP1 REVERT JUMPDEST DUP2 CALLDATALOAD PUSH1 0x20 PUSH2 0x3CDD PUSH2 0x3C0E DUP4 PUSH2 0x3BCA JUMP JUMPDEST DUP3 DUP2 MSTORE PUSH1 0x5 SWAP3 SWAP1 SWAP3 SHL DUP5 ADD DUP2 ADD SWAP2 DUP2 DUP2 ADD SWAP1 DUP7 DUP5 GT ISZERO PUSH2 0x3CFC JUMPI PUSH1 0x0 DUP1 REVERT JUMPDEST DUP3 DUP7 ADD JUMPDEST DUP5 DUP2 LT ISZERO PUSH2 0x3C56 JUMPI DUP1 CALLDATALOAD PUSH1 0x1 PUSH1 0x1 PUSH1 0x40 SHL SUB DUP2 GT ISZERO PUSH2 0x3D1F JUMPI PUSH1 0x0 DUP1 DUP2 REVERT JUMPDEST PUSH2 0x3D2D DUP10 DUP7 DUP4 DUP12 ADD ADD PUSH2 0x3A08 JUMP JUMPDEST DUP5 MSTORE POP SWAP2 DUP4 ADD SWAP2 DUP4 ADD PUSH2 0x3D00 JUMP JUMPDEST PUSH1 0x0 DUP1 PUSH1 0x0 DUP1 PUSH1 0x80 DUP6 DUP8 SUB SLT ISZERO PUSH2 0x3D51 JUMPI PUSH1 0x0 DUP1 REVERT JUMPDEST DUP5 CALLDATALOAD PUSH1 0x1 PUSH1 0x1 PUSH1 0x40 SHL SUB DUP1 DUP3 GT ISZERO PUSH2 0x3D68 JUMPI PUSH1 0x0 DUP1 REVERT JUMPDEST PUSH2 0x3D74 DUP9 DUP4 DUP10 ADD PUSH2 0x3BED JUMP JUMPDEST SWAP6 POP PUSH1 0x20 DUP8 ADD CALLDATALOAD SWAP2 POP DUP1 DUP3 GT ISZERO PUSH2 0x3D8A JUMPI PUSH1 0x0 DUP1 REVERT JUMPDEST PUSH2 0x3D96 DUP9 DUP4 DUP10 ADD PUSH2 0x3C61 JUMP JUMPDEST SWAP5 POP PUSH1 0x40 DUP8 ADD CALLDATALOAD SWAP2 POP DUP1 DUP3 GT ISZERO PUSH2 0x3DAC JUMPI PUSH1 0x0 DUP1 REVERT JUMPDEST POP PUSH2 0x3DB9 DUP8 DUP3 DUP9 ADD PUSH2 0x3CBC JUMP JUMPDEST SWAP5 SWAP8 SWAP4 SWAP7 POP SWAP4 SWAP5 PUSH1 0x60 ADD CALLDATALOAD SWAP4 POP POP POP JUMP JUMPDEST PUSH1 0x0 PUSH1 0x20 DUP3 DUP5 SUB SLT ISZERO PUSH2 0x3DDC JUMPI PUSH1 0x0 DUP1 REVERT JUMPDEST DUP2 CALLDATALOAD PUSH2 0x159E DUP2 PUSH2 0x3B4A JUMP JUMPDEST PUSH1 0x0 DUP1 PUSH1 0x0 DUP1 PUSH1 0x0 PUSH1 0xA0 DUP7 DUP9 SUB SLT ISZERO PUSH2 0x3DFF JUMPI PUSH1 0x0 DUP1 REVERT JUMPDEST DUP6 CALLDATALOAD SWAP5 POP PUSH2 0x3E0F PUSH1 0x20 DUP8 ADD PUSH2 0x3914 JUMP JUMPDEST SWAP4 POP PUSH2 0x3E1D PUSH1 0x40 DUP8 ADD PUSH2 0x3914 JUMP JUMPDEST SWAP5 SWAP8 SWAP4 SWAP7 POP SWAP4 SWAP5 PUSH1 0x60 DUP2 ADD CALLDATALOAD SWAP5 POP PUSH1 0x80 ADD CALLDATALOAD SWAP3 SWAP2 POP POP JUMP JUMPDEST PUSH4 0x4E487B71 PUSH1 0xE0 SHL PUSH1 0x0 MSTORE PUSH1 0x21 PUSH1 0x4 MSTORE PUSH1 0x24 PUSH1 0x0 REVERT JUMPDEST PUSH1 0x20 DUP2 ADD PUSH1 0x8 DUP4 LT PUSH2 0x3E6D JUMPI PUSH4 0x4E487B71 PUSH1 0xE0 SHL PUSH1 0x0 MSTORE PUSH1 0x21 PUSH1 0x4 MSTORE PUSH1 0x24 PUSH1 0x0 REVERT JUMPDEST SWAP2 SWAP1 MSTORE SWAP1 JUMP JUMPDEST PUSH1 0x0 DUP1 PUSH1 0x40 DUP4 DUP6 SUB SLT ISZERO PUSH2 0x3E86 JUMPI PUSH1 0x0 DUP1 REVERT JUMPDEST DUP3 CALLDATALOAD SWAP2 POP PUSH1 0x20 DUP4 ADD CALLDATALOAD PUSH2 0x3E98 DUP2 PUSH2 0x3B4A JUMP JUMPDEST DUP1 SWAP2 POP POP SWAP3 POP SWAP3 SWAP1 POP JUMP JUMPDEST PUSH1 0x0 DUP1 PUSH1 0x40 DUP4 DUP6 SUB SLT ISZERO PUSH2 0x3EB6 JUMPI PUSH1 0x0 DUP1 REVERT JUMPDEST DUP3 CALLDATALOAD PUSH2 0x3EC1 DUP2 PUSH2 0x3B4A JUMP JUMPDEST SWAP2 POP PUSH1 0x20 DUP4 ADD CALLDATALOAD PUSH2 0x3E98 DUP2 PUSH2 0x3B4A JUMP JUMPDEST PUSH1 0x0 DUP1 PUSH1 0x40 DUP4 DUP6 SUB SLT ISZERO PUSH2 0x3EE4 JUMPI PUSH1 0x0 DUP1 REVERT JUMPDEST DUP3 CALLDATALOAD PUSH2 0x3EEF DUP2 PUSH2 0x3B4A JUMP JUMPDEST SWAP2 POP PUSH1 0x20 DUP4 ADD CALLDATALOAD PUSH1 0x1 PUSH1 0x1 PUSH1 0x40 SHL SUB DUP2 GT ISZERO PUSH2 0x3F0A JUMPI PUSH1 0x0 DUP1 REVERT JUMPDEST PUSH2 0x3F16 DUP6 DUP3 DUP7 ADD PUSH2 0x3A08 JUMP JUMPDEST SWAP2 POP POP SWAP3 POP SWAP3 SWAP1 POP JUMP JUMPDEST PUSH1 0x0 DUP1 PUSH1 0x40 DUP4 DUP6 SUB SLT ISZERO PUSH2 0x3F33 JUMPI PUSH1 0x0 DUP1 REVERT JUMPDEST DUP3 CALLDATALOAD SWAP2 POP PUSH2 0x3F43 PUSH1 0x20 DUP5 ADD PUSH2 0x3914 JUMP JUMPDEST SWAP1 POP SWAP3 POP SWAP3 SWAP1 POP JUMP JUMPDEST PUSH1 0x0 DUP1 PUSH1 0x0 DUP1 PUSH1 0x0 PUSH1 0x80 DUP7 DUP9 SUB SLT ISZERO PUSH2 0x3F64 JUMPI PUSH1 0x0 DUP1 REVERT JUMPDEST DUP6 CALLDATALOAD SWAP5 POP PUSH2 0x3F74 PUSH1 0x20 DUP8 ADD PUSH2 0x3914 JUMP JUMPDEST SWAP4 POP PUSH1 0x40 DUP7 ADD CALLDATALOAD PUSH1 0x1 PUSH1 0x1 PUSH1 0x40 SHL SUB DUP1 DUP3 GT ISZERO PUSH2 0x3F90 JUMPI PUSH1 0x0 DUP1 REVERT JUMPDEST PUSH2 0x3F9C DUP10 DUP4 DUP11 ADD PUSH2 0x392A JUMP JUMPDEST SWAP1 SWAP6 POP SWAP4 POP PUSH1 0x60 DUP9 ADD CALLDATALOAD SWAP2 POP DUP1 DUP3 GT ISZERO PUSH2 0x3FB5 JUMPI PUSH1 0x0 DUP1 REVERT JUMPDEST POP PUSH2 0x3FC2 DUP9 DUP3 DUP10 ADD PUSH2 0x3A08 JUMP JUMPDEST SWAP2 POP POP SWAP3 SWAP6 POP SWAP3 SWAP6 SWAP1 SWAP4 POP JUMP JUMPDEST PUSH1 0x0 DUP1 PUSH1 0x0 DUP1 PUSH1 0x60 DUP6 DUP8 SUB SLT ISZERO PUSH2 0x3FE5 JUMPI PUSH1 0x0 DUP1 REVERT JUMPDEST DUP5 CALLDATALOAD SWAP4 POP PUSH2 0x3FF5 PUSH1 0x20 DUP7 ADD PUSH2 0x3914 JUMP JUMPDEST SWAP3 POP PUSH1 0x40 DUP6 ADD CALLDATALOAD PUSH1 0x1 PUSH1 0x1 PUSH1 0x40 SHL SUB DUP2 GT ISZERO PUSH2 0x4010 JUMPI PUSH1 0x0 DUP1 REVERT JUMPDEST PUSH2 0x401C DUP8 DUP3 DUP9 ADD PUSH2 0x392A JUMP JUMPDEST SWAP6 SWAP9 SWAP5 SWAP8 POP SWAP6 POP POP POP POP JUMP JUMPDEST PUSH1 0x0 DUP1 PUSH1 0x0 DUP1 PUSH1 0x80 DUP6 DUP8 SUB SLT ISZERO PUSH2 0x403E JUMPI PUSH1 0x0 DUP1 REVERT JUMPDEST DUP5 CALLDATALOAD PUSH1 0x1 PUSH1 0x1 PUSH1 0x40 SHL SUB DUP1 DUP3 GT ISZERO PUSH2 0x4055 JUMPI PUSH1 0x0 DUP1 REVERT JUMPDEST PUSH2 0x4061 DUP9 DUP4 DUP10 ADD PUSH2 0x3BED JUMP JUMPDEST SWAP6 POP PUSH1 0x20 DUP8 ADD CALLDATALOAD SWAP2 POP DUP1 DUP3 GT ISZERO PUSH2 0x4077 JUMPI PUSH1 0x0 DUP1 REVERT JUMPDEST PUSH2 0x4083 DUP9 DUP4 DUP10 ADD PUSH2 0x3C61 JUMP JUMPDEST SWAP5 POP PUSH1 0x40 DUP8 ADD CALLDATALOAD SWAP2 POP DUP1 DUP3 GT ISZERO PUSH2 0x4099 JUMPI PUSH1 0x0 DUP1 REVERT JUMPDEST PUSH2 0x40A5 DUP9 DUP4 DUP10 ADD PUSH2 0x3CBC JUMP JUMPDEST SWAP4 POP PUSH1 0x60 DUP8 ADD CALLDATALOAD SWAP2 POP DUP1 DUP3 GT ISZERO PUSH2 0x40BB JUMPI PUSH1 0x0 DUP1 REVERT JUMPDEST POP DUP6 ADD PUSH1 0x1F DUP2 ADD DUP8 SGT PUSH2 0x40CD JUMPI PUSH1 0x0 DUP1 REVERT JUMPDEST PUSH2 0x3BBE DUP8 DUP3 CALLDATALOAD PUSH1 0x20 DUP5 ADD PUSH2 0x39B1 JUMP JUMPDEST PUSH1 0x0 DUP1 PUSH1 0x0 PUSH1 0x60 DUP5 DUP7 SUB SLT ISZERO PUSH2 0x40F1 JUMPI PUSH1 0x0 DUP1 REVERT JUMPDEST DUP4 CALLDATALOAD PUSH2 0x40FC DUP2 PUSH2 0x3B4A JUMP JUMPDEST SWAP3 POP PUSH1 0x20 DUP5 ADD CALLDATALOAD SWAP2 POP PUSH1 0x40 DUP5 ADD CALLDATALOAD PUSH1 0x1 PUSH1 0x1 PUSH1 0x40 SHL SUB DUP2 GT ISZERO PUSH2 0x411E JUMPI PUSH1 0x0 DUP1 REVERT JUMPDEST PUSH2 0x412A DUP7 DUP3 DUP8 ADD PUSH2 0x3A08 JUMP JUMPDEST SWAP2 POP POP SWAP3 POP SWAP3 POP SWAP3 JUMP JUMPDEST PUSH1 0x0 DUP1 PUSH1 0x0 DUP1 PUSH1 0x0 PUSH1 0xA0 DUP7 DUP9 SUB SLT ISZERO PUSH2 0x414C JUMPI PUSH1 0x0 DUP1 REVERT JUMPDEST DUP6 CALLDATALOAD PUSH2 0x4157 DUP2 PUSH2 0x3B4A JUMP JUMPDEST SWAP5 POP PUSH1 0x20 DUP7 ADD CALLDATALOAD PUSH2 0x4167 DUP2 PUSH2 0x3B4A JUMP JUMPDEST SWAP4 POP PUSH1 0x40 DUP7 ADD CALLDATALOAD PUSH1 0x1 PUSH1 0x1 PUSH1 0x40 SHL SUB DUP1 DUP3 GT ISZERO PUSH2 0x4183 JUMPI PUSH1 0x0 DUP1 REVERT JUMPDEST PUSH2 0x418F DUP10 DUP4 DUP11 ADD PUSH2 0x3C61 JUMP JUMPDEST SWAP5 POP PUSH1 0x60 DUP9 ADD CALLDATALOAD SWAP2 POP DUP1 DUP3 GT ISZERO PUSH2 0x41A5 JUMPI PUSH1 0x0 DUP1 REVERT JUMPDEST PUSH2 0x41B1 DUP10 DUP4 DUP11 ADD PUSH2 0x3C61 JUMP JUMPDEST SWAP4 POP PUSH1 0x80 DUP9 ADD CALLDATALOAD SWAP2 POP DUP1 DUP3 GT ISZERO PUSH2 0x3FB5 JUMPI PUSH1 0x0 DUP1 REVERT JUMPDEST PUSH1 0x0 DUP1 PUSH1 0x0 DUP1 PUSH1 0x60 DUP6 DUP8 SUB SLT ISZERO PUSH2 0x41DD JUMPI PUSH1 0x0 DUP1 REVERT JUMPDEST DUP5 CALLDATALOAD PUSH2 0x41E8 DUP2 PUSH2 0x3B4A JUMP JUMPDEST SWAP4 POP PUSH1 0x20 DUP6 ADD CALLDATALOAD SWAP3 POP PUSH1 0x40 DUP6 ADD CALLDATALOAD PUSH1 0x1 PUSH1 0x1 PUSH1 0x40 SHL SUB DUP2 GT ISZERO PUSH2 0x4010 JUMPI PUSH1 0x0 DUP1 REVERT JUMPDEST PUSH1 0x0 DUP1 PUSH1 0x40 DUP4 DUP6 SUB SLT ISZERO PUSH2 0x421D JUMPI PUSH1 0x0 DUP1 REVERT JUMPDEST DUP3 CALLDATALOAD PUSH2 0x4228 DUP2 PUSH2 0x3B4A JUMP JUMPDEST SWAP5 PUSH1 0x20 SWAP4 SWAP1 SWAP4 ADD CALLDATALOAD SWAP4 POP POP POP JUMP JUMPDEST PUSH1 0x0 DUP1 PUSH1 0x0 DUP1 PUSH1 0x0 PUSH1 0xA0 DUP7 DUP9 SUB SLT ISZERO PUSH2 0x424E JUMPI PUSH1 0x0 DUP1 REVERT JUMPDEST DUP6 CALLDATALOAD PUSH2 0x4259 DUP2 PUSH2 0x3B4A JUMP JUMPDEST SWAP5 POP PUSH1 0x20 DUP7 ADD CALLDATALOAD PUSH2 0x4269 DUP2 PUSH2 0x3B4A JUMP JUMPDEST SWAP4 POP PUSH1 0x40 DUP7 ADD CALLDATALOAD SWAP3 POP PUSH1 0x60 DUP7 ADD CALLDATALOAD SWAP2 POP PUSH1 0x80 DUP7 ADD CALLDATALOAD PUSH1 0x1 PUSH1 0x1 PUSH1 0x40 SHL SUB DUP2 GT ISZERO PUSH2 0x4292 JUMPI PUSH1 0x0 DUP1 REVERT JUMPDEST PUSH2 0x3FC2 DUP9 DUP3 DUP10 ADD PUSH2 0x3A08 JUMP JUMPDEST DUP2 DUP4 DUP3 CALLDATACOPY PUSH1 0x0 SWAP2 ADD SWAP1 DUP2 MSTORE SWAP2 SWAP1 POP JUMP JUMPDEST PUSH1 0x20 DUP1 DUP3 MSTORE PUSH1 0x18 SWAP1 DUP3 ADD MSTORE PUSH32 0x476F7665726E6F723A206F6E6C79476F7665726E616E63650000000000000000 PUSH1 0x40 DUP3 ADD MSTORE PUSH1 0x60 ADD SWAP1 JUMP JUMPDEST PUSH1 0x1 DUP2 DUP2 SHR SWAP1 DUP3 AND DUP1 PUSH2 0x42F9 JUMPI PUSH1 0x7F DUP3 AND SWAP2 POP JUMPDEST PUSH1 0x20 DUP3 LT DUP2 SUB PUSH2 0x4319 JUMPI PUSH4 0x4E487B71 PUSH1 0xE0 SHL PUSH1 0x0 MSTORE PUSH1 0x22 PUSH1 0x4 MSTORE PUSH1 0x24 PUSH1 0x0 REVERT JUMPDEST POP SWAP2 SWAP1 POP JUMP JUMPDEST PUSH1 0x20 DUP1 DUP3 MSTORE PUSH1 0x21 SWAP1 DUP3 ADD MSTORE PUSH32 0x476F7665726E6F723A2070726F706F73616C206E6F7420737563636573736675 PUSH1 0x40 DUP3 ADD MSTORE PUSH1 0x1B PUSH1 0xFA SHL PUSH1 0x60 DUP3 ADD MSTORE PUSH1 0x80 ADD SWAP1 JUMP JUMPDEST PUSH1 0x0 PUSH1 0x20 DUP3 DUP5 SUB SLT ISZERO PUSH2 0x4372 JUMPI PUSH1 0x0 DUP1 REVERT JUMPDEST POP MLOAD SWAP2 SWAP1 POP JUMP JUMPDEST PUSH1 0x0 DUP2 MLOAD DUP1 DUP5 MSTORE PUSH1 0x20 DUP1 DUP6 ADD SWAP5 POP DUP1 DUP5 ADD PUSH1 0x0 JUMPDEST DUP4 DUP2 LT ISZERO PUSH2 0x43B2 JUMPI DUP2 MLOAD PUSH1 0x1 PUSH1 0x1 PUSH1 0xA0 SHL SUB AND DUP8 MSTORE SWAP6 DUP3 ADD SWAP6 SWAP1 DUP3 ADD SWAP1 PUSH1 0x1 ADD PUSH2 0x438D JUMP JUMPDEST POP SWAP5 SWAP6 SWAP5 POP POP POP POP POP JUMP JUMPDEST PUSH1 0x0 DUP2 MLOAD DUP1 DUP5 MSTORE PUSH1 0x20 DUP1 DUP6 ADD SWAP5 POP DUP1 DUP5 ADD PUSH1 0x0 JUMPDEST DUP4 DUP2 LT ISZERO PUSH2 0x43B2 JUMPI DUP2 MLOAD DUP8 MSTORE SWAP6 DUP3 ADD SWAP6 SWAP1 DUP3 ADD SWAP1 PUSH1 0x1 ADD PUSH2 0x43D1 JUMP JUMPDEST PUSH1 0x0 DUP2 MLOAD DUP1 DUP5 MSTORE PUSH1 0x20 DUP1 DUP6 ADD DUP1 DUP2 SWAP7 POP DUP4 PUSH1 0x5 SHL DUP2 ADD SWAP2 POP DUP3 DUP7 ADD PUSH1 0x0 JUMPDEST DUP6 DUP2 LT ISZERO PUSH2 0x4435 JUMPI DUP3 DUP5 SUB DUP10 MSTORE PUSH2 0x4423 DUP5 DUP4 MLOAD PUSH2 0x3B0B JUMP JUMPDEST SWAP9 DUP6 ADD SWAP9 SWAP4 POP SWAP1 DUP5 ADD SWAP1 PUSH1 0x1 ADD PUSH2 0x440B JUMP JUMPDEST POP SWAP2 SWAP8 SWAP7 POP POP POP POP POP POP POP JUMP JUMPDEST PUSH1 0xA0 DUP2 MSTORE PUSH1 0x0 PUSH2 0x4455 PUSH1 0xA0 DUP4 ADD DUP9 PUSH2 0x4379 JUMP JUMPDEST DUP3 DUP2 SUB PUSH1 0x20 DUP5 ADD MSTORE PUSH2 0x4467 DUP2 DUP9 PUSH2 0x43BD JUMP JUMPDEST SWAP1 POP DUP3 DUP2 SUB PUSH1 0x40 DUP5 ADD MSTORE PUSH2 0x447B DUP2 DUP8 PUSH2 0x43ED JUMP JUMPDEST PUSH1 0x60 DUP5 ADD SWAP6 SWAP1 SWAP6 MSTORE POP POP PUSH1 0x80 ADD MSTORE SWAP4 SWAP3 POP POP POP JUMP JUMPDEST PUSH1 0xC0 DUP2 MSTORE PUSH1 0x0 PUSH2 0x44A3 PUSH1 0xC0 DUP4 ADD DUP10 PUSH2 0x4379 JUMP JUMPDEST DUP3 DUP2 SUB PUSH1 0x20 DUP5 ADD MSTORE PUSH2 0x44B5 DUP2 DUP10 PUSH2 0x43BD JUMP JUMPDEST SWAP1 POP DUP3 DUP2 SUB PUSH1 0x40 DUP5 ADD MSTORE PUSH2 0x44C9 DUP2 DUP9 PUSH2 0x43ED JUMP JUMPDEST PUSH1 0x60 DUP5 ADD SWAP7 SWAP1 SWAP7 MSTORE POP POP PUSH1 0x80 DUP2 ADD SWAP3 SWAP1 SWAP3 MSTORE PUSH1 0xA0 SWAP1 SWAP2 ADD MSTORE SWAP4 SWAP3 POP POP POP JUMP JUMPDEST PUSH4 0x4E487B71 PUSH1 0xE0 SHL PUSH1 0x0 MSTORE PUSH1 0x11 PUSH1 0x4 MSTORE PUSH1 0x24 PUSH1 0x0 REVERT JUMPDEST DUP1 DUP3 ADD DUP1 DUP3 GT ISZERO PUSH2 0x9AB JUMPI PUSH2 0x9AB PUSH2 0x44E8 JUMP JUMPDEST PUSH1 0x20 DUP1 DUP3 MSTORE PUSH1 0x2C SWAP1 DUP3 ADD MSTORE PUSH32 0x46756E6374696F6E206D7573742062652063616C6C6564207468726F75676820 PUSH1 0x40 DUP3 ADD MSTORE PUSH12 0x19195B1959D85D1958D85B1B PUSH1 0xA2 SHL PUSH1 0x60 DUP3 ADD MSTORE PUSH1 0x80 ADD SWAP1 JUMP JUMPDEST PUSH1 0x20 DUP1 DUP3 MSTORE PUSH1 0x2C SWAP1 DUP3 ADD MSTORE PUSH32 0x46756E6374696F6E206D7573742062652063616C6C6564207468726F75676820 PUSH1 0x40 DUP3 ADD MSTORE PUSH12 0x6163746976652070726F7879 PUSH1 0xA0 SHL PUSH1 0x60 DUP3 ADD MSTORE PUSH1 0x80 ADD SWAP1 JUMP JUMPDEST DUP2 DUP2 SUB DUP2 DUP2 GT ISZERO PUSH2 0x9AB JUMPI PUSH2 0x9AB PUSH2 0x44E8 JUMP JUMPDEST PUSH4 0x4E487B71 PUSH1 0xE0 SHL PUSH1 0x0 MSTORE PUSH1 0x32 PUSH1 0x4 MSTORE PUSH1 0x24 PUSH1 0x0 REVERT JUMPDEST PUSH1 0x80 DUP2 MSTORE PUSH1 0x0 PUSH2 0x45E5 PUSH1 0x80 DUP4 ADD DUP8 PUSH2 0x4379 JUMP JUMPDEST DUP3 DUP2 SUB PUSH1 0x20 DUP5 ADD MSTORE PUSH2 0x45F7 DUP2 DUP8 PUSH2 0x43BD JUMP JUMPDEST SWAP1 POP DUP3 DUP2 SUB PUSH1 0x40 DUP5 ADD MSTORE PUSH2 0x460B DUP2 DUP7 PUSH2 0x43ED JUMP JUMPDEST SWAP2 POP POP DUP3 PUSH1 0x60 DUP4 ADD MSTORE SWAP6 SWAP5 POP POP POP POP POP JUMP JUMPDEST DUP5 DUP2 MSTORE PUSH1 0xFF DUP5 AND PUSH1 0x20 DUP3 ADD MSTORE DUP3 PUSH1 0x40 DUP3 ADD MSTORE PUSH1 0x80 PUSH1 0x60 DUP3 ADD MSTORE PUSH1 0x0 PUSH2 0x156D PUSH1 0x80 DUP4 ADD DUP5 PUSH2 0x3B0B JUMP JUMPDEST DUP6 DUP2 MSTORE PUSH1 0xFF DUP6 AND PUSH1 0x20 DUP3 ADD MSTORE DUP4 PUSH1 0x40 DUP3 ADD MSTORE PUSH1 0xA0 PUSH1 0x60 DUP3 ADD MSTORE PUSH1 0x0 PUSH2 0x466D PUSH1 0xA0 DUP4 ADD DUP6 PUSH2 0x3B0B JUMP JUMPDEST DUP3 DUP2 SUB PUSH1 0x80 DUP5 ADD MSTORE PUSH2 0x467F DUP2 DUP6 PUSH2 0x3B0B JUMP JUMPDEST SWAP9 SWAP8 POP POP POP POP POP POP POP POP JUMP JUMPDEST PUSH1 0x0 PUSH1 0x1 DUP3 ADD PUSH2 0x469D JUMPI PUSH2 0x469D PUSH2 0x44E8 JUMP JUMPDEST POP PUSH1 0x1 ADD SWAP1 JUMP JUMPDEST PUSH1 0x0 PUSH1 0x20 DUP3 DUP5 SUB SLT ISZERO PUSH2 0x46B6 JUMPI PUSH1 0x0 DUP1 REVERT JUMPDEST DUP2 MLOAD DUP1 ISZERO ISZERO DUP2 EQ PUSH2 0x159E JUMPI PUSH1 0x0 DUP1 REVERT JUMPDEST PUSH1 0x20 DUP1 DUP3 MSTORE PUSH1 0x2B SWAP1 DUP3 ADD MSTORE PUSH32 0x496E697469616C697A61626C653A20636F6E7472616374206973206E6F742069 PUSH1 0x40 DUP3 ADD MSTORE PUSH11 0x6E697469616C697A696E67 PUSH1 0xA8 SHL PUSH1 0x60 DUP3 ADD MSTORE PUSH1 0x80 ADD SWAP1 JUMP JUMPDEST PUSH1 0x20 DUP1 DUP3 MSTORE PUSH1 0x21 SWAP1 DUP3 ADD MSTORE PUSH32 0x476F7665726E6F723A20696E76616C69642070726F706F73616C206C656E6774 PUSH1 0x40 DUP3 ADD MSTORE PUSH1 0xD PUSH1 0xFB SHL PUSH1 0x60 DUP3 ADD MSTORE PUSH1 0x80 ADD SWAP1 JUMP JUMPDEST PUSH1 0x1 PUSH1 0x1 PUSH1 0x40 SHL SUB DUP2 DUP2 AND DUP4 DUP3 AND ADD SWAP1 DUP1 DUP3 GT ISZERO PUSH2 0x4772 JUMPI PUSH2 0x4772 PUSH2 0x44E8 JUMP JUMPDEST POP SWAP3 SWAP2 POP POP JUMP JUMPDEST PUSH1 0x0 PUSH2 0x120 DUP12 DUP4 MSTORE PUSH1 0x20 PUSH1 0x1 DUP1 PUSH1 0xA0 SHL SUB DUP13 AND DUP2 DUP6 ADD MSTORE DUP2 PUSH1 0x40 DUP6 ADD MSTORE PUSH2 0x47A2 DUP3 DUP6 ADD DUP13 PUSH2 0x4379 JUMP JUMPDEST SWAP2 POP DUP4 DUP3 SUB PUSH1 0x60 DUP6 ADD MSTORE PUSH2 0x47B6 DUP3 DUP12 PUSH2 0x43BD JUMP JUMPDEST SWAP2 POP DUP4 DUP3 SUB PUSH1 0x80 DUP6 ADD MSTORE DUP2 DUP10 MLOAD DUP1 DUP5 MSTORE DUP3 DUP5 ADD SWAP2 POP DUP3 DUP2 PUSH1 0x5 SHL DUP6 ADD ADD DUP4 DUP13 ADD PUSH1 0x0 JUMPDEST DUP4 DUP2 LT ISZERO PUSH2 0x4807 JUMPI PUSH1 0x1F NOT DUP8 DUP5 SUB ADD DUP6 MSTORE PUSH2 0x47F5 DUP4 DUP4 MLOAD PUSH2 0x3B0B JUMP JUMPDEST SWAP5 DUP7 ADD SWAP5 SWAP3 POP SWAP1 DUP6 ADD SWAP1 PUSH1 0x1 ADD PUSH2 0x47D9 JUMP JUMPDEST POP POP DUP7 DUP2 SUB PUSH1 0xA0 DUP9 ADD MSTORE PUSH2 0x481B DUP2 DUP13 PUSH2 0x43ED JUMP JUMPDEST SWAP5 POP POP POP POP POP PUSH2 0x4836 PUSH1 0xC0 DUP5 ADD DUP8 PUSH1 0x1 PUSH1 0x1 PUSH1 0x40 SHL SUB AND SWAP1 MSTORE JUMP JUMPDEST PUSH1 0x1 PUSH1 0x1 PUSH1 0x40 SHL SUB DUP6 AND PUSH1 0xE0 DUP5 ADD MSTORE DUP3 DUP2 SUB PUSH2 0x100 DUP5 ADD MSTORE PUSH2 0x4858 DUP2 DUP6 PUSH2 0x3B0B JUMP JUMPDEST SWAP13 SWAP12 POP POP POP POP POP POP POP POP POP POP POP POP JUMP JUMPDEST DUP1 DUP3 MUL DUP2 ISZERO DUP3 DUP3 DIV DUP5 EQ OR PUSH2 0x9AB JUMPI PUSH2 0x9AB PUSH2 0x44E8 JUMP JUMPDEST PUSH1 0x0 DUP3 PUSH2 0x489C JUMPI PUSH4 0x4E487B71 PUSH1 0xE0 SHL PUSH1 0x0 MSTORE PUSH1 0x12 PUSH1 0x4 MSTORE PUSH1 0x24 PUSH1 0x0 REVERT JUMPDEST POP DIV SWAP1 JUMP JUMPDEST PUSH1 0x1F DUP3 GT ISZERO PUSH2 0x11FC JUMPI PUSH1 0x0 DUP2 DUP2 MSTORE PUSH1 0x20 DUP2 KECCAK256 PUSH1 0x1F DUP6 ADD PUSH1 0x5 SHR DUP2 ADD PUSH1 0x20 DUP7 LT ISZERO PUSH2 0x48C8 JUMPI POP DUP1 JUMPDEST PUSH1 0x1F DUP6 ADD PUSH1 0x5 SHR DUP3 ADD SWAP2 POP JUMPDEST DUP2 DUP2 LT ISZERO PUSH2 0x1E3D JUMPI DUP3 DUP2 SSTORE PUSH1 0x1 ADD PUSH2 0x48D4 JUMP JUMPDEST DUP2 MLOAD PUSH1 0x1 PUSH1 0x1 PUSH1 0x40 SHL SUB DUP2 GT ISZERO PUSH2 0x4900 JUMPI PUSH2 0x4900 PUSH2 0x396B JUMP JUMPDEST PUSH2 0x4914 DUP2 PUSH2 0x490E DUP5 SLOAD PUSH2 0x42E5 JUMP JUMPDEST DUP5 PUSH2 0x48A1 JUMP JUMPDEST PUSH1 0x20 DUP1 PUSH1 0x1F DUP4 GT PUSH1 0x1 DUP2 EQ PUSH2 0x4949 JUMPI PUSH1 0x0 DUP5 ISZERO PUSH2 0x4931 JUMPI POP DUP6 DUP4 ADD MLOAD JUMPDEST PUSH1 0x0 NOT PUSH1 0x3 DUP7 SWAP1 SHL SHR NOT AND PUSH1 0x1 DUP6 SWAP1 SHL OR DUP6 SSTORE PUSH2 0x1E3D JUMP JUMPDEST PUSH1 0x0 DUP6 DUP2 MSTORE PUSH1 0x20 DUP2 KECCAK256 PUSH1 0x1F NOT DUP7 AND SWAP2 JUMPDEST DUP3 DUP2 LT ISZERO PUSH2 0x4978 JUMPI DUP9 DUP7 ADD MLOAD DUP3 SSTORE SWAP5 DUP5 ADD SWAP5 PUSH1 0x1 SWAP1 SWAP2 ADD SWAP1 DUP5 ADD PUSH2 0x4959 JUMP JUMPDEST POP DUP6 DUP3 LT ISZERO PUSH2 0x4996 JUMPI DUP8 DUP6 ADD MLOAD PUSH1 0x0 NOT PUSH1 0x3 DUP9 SWAP1 SHL PUSH1 0xF8 AND SHR NOT AND DUP2 SSTORE JUMPDEST POP POP POP POP POP PUSH1 0x1 SWAP1 DUP2 SHL ADD SWAP1 SSTORE POP JUMP JUMPDEST PUSH1 0x0 DUP3 MLOAD PUSH2 0x49B8 DUP2 DUP5 PUSH1 0x20 DUP8 ADD PUSH2 0x3AE7 JUMP JUMPDEST SWAP2 SWAP1 SWAP2 ADD SWAP3 SWAP2 POP POP JUMP INVALID CALLDATASIZE ADDMOD SWAP5 LOG1 EXTCODESIZE LOG1 LOG3 0x21 MOD PUSH8 0xC828492DB98DCA3E KECCAK256 PUSH23 0xCC3735A920A3CA505D382BBC416464726573733A206C6F PUSH24 0x2D6C6576656C2063616C6C20776974682076616C75652066 PUSH2 0x696C PUSH6 0x644164647265 PUSH20 0x733A206C6F772D6C6576656C2064656C65676174 PUSH6 0x2063616C6C20 PUSH7 0x61696C6564A264 PUSH10 0x7066735822122093C2FD PUSH22 0x64C49034259AFF4848A5733E26AF0B7D87828AB7D7EC DUP1 0x23 SWAP7 MSTORE8 0xC7 BYTE PUSH5 0x736F6C6343 STOP ADDMOD GT STOP CALLER "
		},
		"gasEstimates": {
			"creation": {
				"codeDepositCost": "3809600",
				"executionCost": "infinite",
				"totalCost": "infinite"
			},
			"external": {
				"BALLOT_TYPEHASH()": "328",
				"COUNTING_MODE()": "infinite",
				"EXTENDED_BALLOT_TYPEHASH()": "307",
				"castVote(uint256,uint8)": "infinite",
				"castVoteBySig(uint256,uint8,uint8,bytes32,bytes32)": "infinite",
				"castVoteWithReason(uint256,uint8,string)": "infinite",
				"castVoteWithReasonAndParams(uint256,uint8,string,bytes)": "infinite",
				"castVoteWithReasonAndParamsBySig(uint256,uint8,string,bytes,uint8,bytes32,bytes32)": "infinite",
				"execute(address[],uint256[],bytes[],bytes32)": "infinite",
				"getVotes(address,uint256)": "infinite",
				"getVotesWithParams(address,uint256,bytes)": "infinite",
				"hasVoted(uint256,address)": "2738",
				"hashProposal(address[],uint256[],bytes[],bytes32)": "infinite",
				"initialize(address,address)": "infinite",
				"name()": "infinite",
				"onERC1155BatchReceived(address,address,uint256[],uint256[],bytes)": "infinite",
				"onERC1155Received(address,address,uint256,uint256,bytes)": "infinite",
				"onERC721Received(address,address,uint256,bytes)": "infinite",
				"owner()": "2432",
				"proposalDeadline(uint256)": "2714",
				"proposalEta(uint256)": "infinite",
				"proposalSnapshot(uint256)": "2632",
				"proposalThreshold()": "2441",
				"proposalVotes(uint256)": "6752",
				"propose(address[],uint256[],bytes[],string)": "infinite",
				"proxiableUUID()": "infinite",
				"queue(address[],uint256[],bytes[],bytes32)": "infinite",
				"quorum(uint256)": "infinite",
				"quorumDenominator()": "326",
				"quorumNumerator()": "6864",
				"quorumNumerator(uint256)": "infinite",
				"relay(address,uint256,bytes)": "infinite",
				"renounceOwnership()": "infinite",
				"setProposalThreshold(uint256)": "infinite",
				"setVotingDelay(uint256)": "infinite",
				"setVotingPeriod(uint256)": "infinite",
				"state(uint256)": "infinite",
				"supportsInterface(bytes4)": "infinite",
				"timelock()": "2420",
				"token()": "2491",
				"transferOwnership(address)": "infinite",
				"updateQuorumNumerator(uint256)": "infinite",
				"updateTimelock(address)": "infinite",
				"upgradeTo(address)": "infinite",
				"upgradeToAndCall(address,bytes)": "infinite",
				"version()": "infinite",
				"votingDelay()": "2486",
				"votingPeriod()": "2399"
			},
			"internal": {
				"_authorizeUpgrade(address)": "infinite",
				"_cancel(address[] memory,uint256[] memory,bytes memory[] memory,bytes32)": "infinite",
				"_execute(uint256,address[] memory,uint256[] memory,bytes memory[] memory,bytes32)": "infinite",
				"_executor()": "2156"
			}
		},
		"methodIdentifiers": {
			"BALLOT_TYPEHASH()": "deaaa7cc",
			"COUNTING_MODE()": "dd4e2ba5",
			"EXTENDED_BALLOT_TYPEHASH()": "2fe3e261",
			"castVote(uint256,uint8)": "56781388",
			"castVoteBySig(uint256,uint8,uint8,bytes32,bytes32)": "3bccf4fd",
			"castVoteWithReason(uint256,uint8,string)": "7b3c71d3",
			"castVoteWithReasonAndParams(uint256,uint8,string,bytes)": "5f398a14",
			"castVoteWithReasonAndParamsBySig(uint256,uint8,string,bytes,uint8,bytes32,bytes32)": "03420181",
			"execute(address[],uint256[],bytes[],bytes32)": "2656227d",
			"getVotes(address,uint256)": "eb9019d4",
			"getVotesWithParams(address,uint256,bytes)": "9a802a6d",
			"hasVoted(uint256,address)": "43859632",
			"hashProposal(address[],uint256[],bytes[],bytes32)": "c59057e4",
			"initialize(address,address)": "485cc955",
			"name()": "06fdde03",
			"onERC1155BatchReceived(address,address,uint256[],uint256[],bytes)": "bc197c81",
			"onERC1155Received(address,address,uint256,uint256,bytes)": "f23a6e61",
			"onERC721Received(address,address,uint256,bytes)": "150b7a02",
			"owner()": "8da5cb5b",
			"proposalDeadline(uint256)": "c01f9e37",
			"proposalEta(uint256)": "ab58fb8e",
			"proposalSnapshot(uint256)": "2d63f693",
			"proposalThreshold()": "b58131b0",
			"proposalVotes(uint256)": "544ffc9c",
			"propose(address[],uint256[],bytes[],string)": "7d5e81e2",
			"proxiableUUID()": "52d1902d",
			"queue(address[],uint256[],bytes[],bytes32)": "160cbed7",
			"quorum(uint256)": "f8ce560a",
			"quorumDenominator()": "97c3d334",
			"quorumNumerator()": "a7713a70",
			"quorumNumerator(uint256)": "60c4247f",
			"relay(address,uint256,bytes)": "c28bc2fa",
			"renounceOwnership()": "715018a6",
			"setProposalThreshold(uint256)": "ece40cc1",
			"setVotingDelay(uint256)": "70b0f660",
			"setVotingPeriod(uint256)": "ea0217cf",
			"state(uint256)": "3e4f49e6",
			"supportsInterface(bytes4)": "01ffc9a7",
			"timelock()": "d33219b4",
			"token()": "fc0c546a",
			"transferOwnership(address)": "f2fde38b",
			"updateQuorumNumerator(uint256)": "06f3f9e6",
			"updateTimelock(address)": "a890c910",
			"upgradeTo(address)": "3659cfe6",
			"upgradeToAndCall(address,bytes)": "4f1ef286",
			"version()": "54fd4d50",
			"votingDelay()": "3932abb1",
			"votingPeriod()": "02a251a3"
		}
	},
	"abi": [
		{
			"inputs": [],
			"stateMutability": "nonpayable",
			"type": "constructor"
		},
		{
			"inputs": [],
			"name": "Empty",
			"type": "error"
		},
		{
			"anonymous": false,
			"inputs": [
				{
					"indexed": false,
					"internalType": "address",
					"name": "previousAdmin",
					"type": "address"
				},
				{
					"indexed": false,
					"internalType": "address",
					"name": "newAdmin",
					"type": "address"
				}
			],
			"name": "AdminChanged",
			"type": "event"
		},
		{
			"anonymous": false,
			"inputs": [
				{
					"indexed": true,
					"internalType": "address",
					"name": "beacon",
					"type": "address"
				}
			],
			"name": "BeaconUpgraded",
			"type": "event"
		},
		{
			"anonymous": false,
			"inputs": [
				{
					"indexed": false,
					"internalType": "uint8",
					"name": "version",
					"type": "uint8"
				}
			],
			"name": "Initialized",
			"type": "event"
		},
		{
			"anonymous": false,
			"inputs": [
				{
					"indexed": true,
					"internalType": "address",
					"name": "previousOwner",
					"type": "address"
				},
				{
					"indexed": true,
					"internalType": "address",
					"name": "newOwner",
					"type": "address"
				}
			],
			"name": "OwnershipTransferred",
			"type": "event"
		},
		{
			"anonymous": false,
			"inputs": [
				{
					"indexed": false,
					"internalType": "uint256",
					"name": "proposalId",
					"type": "uint256"
				}
			],
			"name": "ProposalCanceled",
			"type": "event"
		},
		{
			"anonymous": false,
			"inputs": [
				{
					"indexed": false,
					"internalType": "uint256",
					"name": "proposalId",
					"type": "uint256"
				},
				{
					"indexed": false,
					"internalType": "address",
					"name": "proposer",
					"type": "address"
				},
				{
					"indexed": false,
					"internalType": "address[]",
					"name": "targets",
					"type": "address[]"
				},
				{
					"indexed": false,
					"internalType": "uint256[]",
					"name": "values",
					"type": "uint256[]"
				},
				{
					"indexed": false,
					"internalType": "string[]",
					"name": "signatures",
					"type": "string[]"
				},
				{
					"indexed": false,
					"internalType": "bytes[]",
					"name": "calldatas",
					"type": "bytes[]"
				},
				{
					"indexed": false,
					"internalType": "uint256",
					"name": "startBlock",
					"type": "uint256"
				},
				{
					"indexed": false,
					"internalType": "uint256",
					"name": "endBlock",
					"type": "uint256"
				},
				{
					"indexed": false,
					"internalType": "string",
					"name": "description",
					"type": "string"
				}
			],
			"name": "ProposalCreated",
			"type": "event"
		},
		{
			"anonymous": false,
			"inputs": [
				{
					"indexed": false,
					"internalType": "uint256",
					"name": "proposalId",
					"type": "uint256"
				}
			],
			"name": "ProposalExecuted",
			"type": "event"
		},
		{
			"anonymous": false,
			"inputs": [
				{
					"indexed": false,
					"internalType": "uint256",
					"name": "proposalId",
					"type": "uint256"
				},
				{
					"indexed": false,
					"internalType": "uint256",
					"name": "eta",
					"type": "uint256"
				}
			],
			"name": "ProposalQueued",
			"type": "event"
		},
		{
			"anonymous": false,
			"inputs": [
				{
					"indexed": false,
					"internalType": "uint256",
					"name": "oldProposalThreshold",
					"type": "uint256"
				},
				{
					"indexed": false,
					"internalType": "uint256",
					"name": "newProposalThreshold",
					"type": "uint256"
				}
			],
			"name": "ProposalThresholdSet",
			"type": "event"
		},
		{
			"anonymous": false,
			"inputs": [
				{
					"indexed": false,
					"internalType": "uint256",
					"name": "oldQuorumNumerator",
					"type": "uint256"
				},
				{
					"indexed": false,
					"internalType": "uint256",
					"name": "newQuorumNumerator",
					"type": "uint256"
				}
			],
			"name": "QuorumNumeratorUpdated",
			"type": "event"
		},
		{
			"anonymous": false,
			"inputs": [
				{
					"indexed": false,
					"internalType": "address",
					"name": "oldTimelock",
					"type": "address"
				},
				{
					"indexed": false,
					"internalType": "address",
					"name": "newTimelock",
					"type": "address"
				}
			],
			"name": "TimelockChange",
			"type": "event"
		},
		{
			"anonymous": false,
			"inputs": [
				{
					"indexed": true,
					"internalType": "address",
					"name": "implementation",
					"type": "address"
				}
			],
			"name": "Upgraded",
			"type": "event"
		},
		{
			"anonymous": false,
			"inputs": [
				{
					"indexed": true,
					"internalType": "address",
					"name": "voter",
					"type": "address"
				},
				{
					"indexed": false,
					"internalType": "uint256",
					"name": "proposalId",
					"type": "uint256"
				},
				{
					"indexed": false,
					"internalType": "uint8",
					"name": "support",
					"type": "uint8"
				},
				{
					"indexed": false,
					"internalType": "uint256",
					"name": "weight",
					"type": "uint256"
				},
				{
					"indexed": false,
					"internalType": "string",
					"name": "reason",
					"type": "string"
				}
			],
			"name": "VoteCast",
			"type": "event"
		},
		{
			"anonymous": false,
			"inputs": [
				{
					"indexed": true,
					"internalType": "address",
					"name": "voter",
					"type": "address"
				},
				{
					"indexed": false,
					"internalType": "uint256",
					"name": "proposalId",
					"type": "uint256"
				},
				{
					"indexed": false,
					"internalType": "uint8",
					"name": "support",
					"type": "uint8"
				},
				{
					"indexed": false,
					"internalType": "uint256",
					"name": "weight",
					"type": "uint256"
				},
				{
					"indexed": false,
					"internalType": "string",
					"name": "reason",
					"type": "string"
				},
				{
					"indexed": false,
					"internalType": "bytes",
					"name": "params",
					"type": "bytes"
				}
			],
			"name": "VoteCastWithParams",
			"type": "event"
		},
		{
			"anonymous": false,
			"inputs": [
				{
					"indexed": false,
					"internalType": "uint256",
					"name": "oldVotingDelay",
					"type": "uint256"
				},
				{
					"indexed": false,
					"internalType": "uint256",
					"name": "newVotingDelay",
					"type": "uint256"
				}
			],
			"name": "VotingDelaySet",
			"type": "event"
		},
		{
			"anonymous": false,
			"inputs": [
				{
					"indexed": false,
					"internalType": "uint256",
					"name": "oldVotingPeriod",
					"type": "uint256"
				},
				{
					"indexed": false,
					"internalType": "uint256",
					"name": "newVotingPeriod",
					"type": "uint256"
				}
			],
			"name": "VotingPeriodSet",
			"type": "event"
		},
		{
			"inputs": [],
			"name": "BALLOT_TYPEHASH",
			"outputs": [
				{
					"internalType": "bytes32",
					"name": "",
					"type": "bytes32"
				}
			],
			"stateMutability": "view",
			"type": "function"
		},
		{
			"inputs": [],
			"name": "COUNTING_MODE",
			"outputs": [
				{
					"internalType": "string",
					"name": "",
					"type": "string"
				}
			],
			"stateMutability": "pure",
			"type": "function"
		},
		{
			"inputs": [],
			"name": "EXTENDED_BALLOT_TYPEHASH",
			"outputs": [
				{
					"internalType": "bytes32",
					"name": "",
					"type": "bytes32"
				}
			],
			"stateMutability": "view",
			"type": "function"
		},
		{
			"inputs": [
				{
					"internalType": "uint256",
					"name": "proposalId",
					"type": "uint256"
				},
				{
					"internalType": "uint8",
					"name": "support",
					"type": "uint8"
				}
			],
			"name": "castVote",
			"outputs": [
				{
					"internalType": "uint256",
					"name": "",
					"type": "uint256"
				}
			],
			"stateMutability": "nonpayable",
			"type": "function"
		},
		{
			"inputs": [
				{
					"internalType": "uint256",
					"name": "proposalId",
					"type": "uint256"
				},
				{
					"internalType": "uint8",
					"name": "support",
					"type": "uint8"
				},
				{
					"internalType": "uint8",
					"name": "v",
					"type": "uint8"
				},
				{
					"internalType": "bytes32",
					"name": "r",
					"type": "bytes32"
				},
				{
					"internalType": "bytes32",
					"name": "s",
					"type": "bytes32"
				}
			],
			"name": "castVoteBySig",
			"outputs": [
				{
					"internalType": "uint256",
					"name": "",
					"type": "uint256"
				}
			],
			"stateMutability": "nonpayable",
			"type": "function"
		},
		{
			"inputs": [
				{
					"internalType": "uint256",
					"name": "proposalId",
					"type": "uint256"
				},
				{
					"internalType": "uint8",
					"name": "support",
					"type": "uint8"
				},
				{
					"internalType": "string",
					"name": "reason",
					"type": "string"
				}
			],
			"name": "castVoteWithReason",
			"outputs": [
				{
					"internalType": "uint256",
					"name": "",
					"type": "uint256"
				}
			],
			"stateMutability": "nonpayable",
			"type": "function"
		},
		{
			"inputs": [
				{
					"internalType": "uint256",
					"name": "proposalId",
					"type": "uint256"
				},
				{
					"internalType": "uint8",
					"name": "support",
					"type": "uint8"
				},
				{
					"internalType": "string",
					"name": "reason",
					"type": "string"
				},
				{
					"internalType": "bytes",
					"name": "params",
					"type": "bytes"
				}
			],
			"name": "castVoteWithReasonAndParams",
			"outputs": [
				{
					"internalType": "uint256",
					"name": "",
					"type": "uint256"
				}
			],
			"stateMutability": "nonpayable",
			"type": "function"
		},
		{
			"inputs": [
				{
					"internalType": "uint256",
					"name": "proposalId",
					"type": "uint256"
				},
				{
					"internalType": "uint8",
					"name": "support",
					"type": "uint8"
				},
				{
					"internalType": "string",
					"name": "reason",
					"type": "string"
				},
				{
					"internalType": "bytes",
					"name": "params",
					"type": "bytes"
				},
				{
					"internalType": "uint8",
					"name": "v",
					"type": "uint8"
				},
				{
					"internalType": "bytes32",
					"name": "r",
					"type": "bytes32"
				},
				{
					"internalType": "bytes32",
					"name": "s",
					"type": "bytes32"
				}
			],
			"name": "castVoteWithReasonAndParamsBySig",
			"outputs": [
				{
					"internalType": "uint256",
					"name": "",
					"type": "uint256"
				}
			],
			"stateMutability": "nonpayable",
			"type": "function"
		},
		{
			"inputs": [
				{
					"internalType": "address[]",
					"name": "targets",
					"type": "address[]"
				},
				{
					"internalType": "uint256[]",
					"name": "values",
					"type": "uint256[]"
				},
				{
					"internalType": "bytes[]",
					"name": "calldatas",
					"type": "bytes[]"
				},
				{
					"internalType": "bytes32",
					"name": "descriptionHash",
					"type": "bytes32"
				}
			],
			"name": "execute",
			"outputs": [
				{
					"internalType": "uint256",
					"name": "",
					"type": "uint256"
				}
			],
			"stateMutability": "payable",
			"type": "function"
		},
		{
			"inputs": [
				{
					"internalType": "address",
					"name": "account",
					"type": "address"
				},
				{
					"internalType": "uint256",
					"name": "blockNumber",
					"type": "uint256"
				}
			],
			"name": "getVotes",
			"outputs": [
				{
					"internalType": "uint256",
					"name": "",
					"type": "uint256"
				}
			],
			"stateMutability": "view",
			"type": "function"
		},
		{
			"inputs": [
				{
					"internalType": "address",
					"name": "account",
					"type": "address"
				},
				{
					"internalType": "uint256",
					"name": "blockNumber",
					"type": "uint256"
				},
				{
					"internalType": "bytes",
					"name": "params",
					"type": "bytes"
				}
			],
			"name": "getVotesWithParams",
			"outputs": [
				{
					"internalType": "uint256",
					"name": "",
					"type": "uint256"
				}
			],
			"stateMutability": "view",
			"type": "function"
		},
		{
			"inputs": [
				{
					"internalType": "uint256",
					"name": "proposalId",
					"type": "uint256"
				},
				{
					"internalType": "address",
					"name": "account",
					"type": "address"
				}
			],
			"name": "hasVoted",
			"outputs": [
				{
					"internalType": "bool",
					"name": "",
					"type": "bool"
				}
			],
			"stateMutability": "view",
			"type": "function"
		},
		{
			"inputs": [
				{
					"internalType": "address[]",
					"name": "targets",
					"type": "address[]"
				},
				{
					"internalType": "uint256[]",
					"name": "values",
					"type": "uint256[]"
				},
				{
					"internalType": "bytes[]",
					"name": "calldatas",
					"type": "bytes[]"
				},
				{
					"internalType": "bytes32",
					"name": "descriptionHash",
					"type": "bytes32"
				}
			],
			"name": "hashProposal",
			"outputs": [
				{
					"internalType": "uint256",
					"name": "",
					"type": "uint256"
				}
			],
			"stateMutability": "pure",
			"type": "function"
		},
		{
			"inputs": [
				{
					"internalType": "contract IVotesUpgradeable",
					"name": "_token",
					"type": "address"
				},
				{
					"internalType": "contract TimelockControllerUpgradeable",
					"name": "_timelock",
					"type": "address"
				}
			],
			"name": "initialize",
			"outputs": [],
			"stateMutability": "nonpayable",
			"type": "function"
		},
		{
			"inputs": [],
			"name": "name",
			"outputs": [
				{
					"internalType": "string",
					"name": "",
					"type": "string"
				}
			],
			"stateMutability": "view",
			"type": "function"
		},
		{
			"inputs": [
				{
					"internalType": "address",
					"name": "",
					"type": "address"
				},
				{
					"internalType": "address",
					"name": "",
					"type": "address"
				},
				{
					"internalType": "uint256[]",
					"name": "",
					"type": "uint256[]"
				},
				{
					"internalType": "uint256[]",
					"name": "",
					"type": "uint256[]"
				},
				{
					"internalType": "bytes",
					"name": "",
					"type": "bytes"
				}
			],
			"name": "onERC1155BatchReceived",
			"outputs": [
				{
					"internalType": "bytes4",
					"name": "",
					"type": "bytes4"
				}
			],
			"stateMutability": "nonpayable",
			"type": "function"
		},
		{
			"inputs": [
				{
					"internalType": "address",
					"name": "",
					"type": "address"
				},
				{
					"internalType": "address",
					"name": "",
					"type": "address"
				},
				{
					"internalType": "uint256",
					"name": "",
					"type": "uint256"
				},
				{
					"internalType": "uint256",
					"name": "",
					"type": "uint256"
				},
				{
					"internalType": "bytes",
					"name": "",
					"type": "bytes"
				}
			],
			"name": "onERC1155Received",
			"outputs": [
				{
					"internalType": "bytes4",
					"name": "",
					"type": "bytes4"
				}
			],
			"stateMutability": "nonpayable",
			"type": "function"
		},
		{
			"inputs": [
				{
					"internalType": "address",
					"name": "",
					"type": "address"
				},
				{
					"internalType": "address",
					"name": "",
					"type": "address"
				},
				{
					"internalType": "uint256",
					"name": "",
					"type": "uint256"
				},
				{
					"internalType": "bytes",
					"name": "",
					"type": "bytes"
				}
			],
			"name": "onERC721Received",
			"outputs": [
				{
					"internalType": "bytes4",
					"name": "",
					"type": "bytes4"
				}
			],
			"stateMutability": "nonpayable",
			"type": "function"
		},
		{
			"inputs": [],
			"name": "owner",
			"outputs": [
				{
					"internalType": "address",
					"name": "",
					"type": "address"
				}
			],
			"stateMutability": "view",
			"type": "function"
		},
		{
			"inputs": [
				{
					"internalType": "uint256",
					"name": "proposalId",
					"type": "uint256"
				}
			],
			"name": "proposalDeadline",
			"outputs": [
				{
					"internalType": "uint256",
					"name": "",
					"type": "uint256"
				}
			],
			"stateMutability": "view",
			"type": "function"
		},
		{
			"inputs": [
				{
					"internalType": "uint256",
					"name": "proposalId",
					"type": "uint256"
				}
			],
			"name": "proposalEta",
			"outputs": [
				{
					"internalType": "uint256",
					"name": "",
					"type": "uint256"
				}
			],
			"stateMutability": "view",
			"type": "function"
		},
		{
			"inputs": [
				{
					"internalType": "uint256",
					"name": "proposalId",
					"type": "uint256"
				}
			],
			"name": "proposalSnapshot",
			"outputs": [
				{
					"internalType": "uint256",
					"name": "",
					"type": "uint256"
				}
			],
			"stateMutability": "view",
			"type": "function"
		},
		{
			"inputs": [],
			"name": "proposalThreshold",
			"outputs": [
				{
					"internalType": "uint256",
					"name": "",
					"type": "uint256"
				}
			],
			"stateMutability": "view",
			"type": "function"
		},
		{
			"inputs": [
				{
					"internalType": "uint256",
					"name": "proposalId",
					"type": "uint256"
				}
			],
			"name": "proposalVotes",
			"outputs": [
				{
					"internalType": "uint256",
					"name": "againstVotes",
					"type": "uint256"
				},
				{
					"internalType": "uint256",
					"name": "forVotes",
					"type": "uint256"
				},
				{
					"internalType": "uint256",
					"name": "abstainVotes",
					"type": "uint256"
				}
			],
			"stateMutability": "view",
			"type": "function"
		},
		{
			"inputs": [
				{
					"internalType": "address[]",
					"name": "targets",
					"type": "address[]"
				},
				{
					"internalType": "uint256[]",
					"name": "values",
					"type": "uint256[]"
				},
				{
					"internalType": "bytes[]",
					"name": "calldatas",
					"type": "bytes[]"
				},
				{
					"internalType": "string",
					"name": "description",
					"type": "string"
				}
			],
			"name": "propose",
			"outputs": [
				{
					"internalType": "uint256",
					"name": "",
					"type": "uint256"
				}
			],
			"stateMutability": "nonpayable",
			"type": "function"
		},
		{
			"inputs": [],
			"name": "proxiableUUID",
			"outputs": [
				{
					"internalType": "bytes32",
					"name": "",
					"type": "bytes32"
				}
			],
			"stateMutability": "view",
			"type": "function"
		},
		{
			"inputs": [
				{
					"internalType": "address[]",
					"name": "targets",
					"type": "address[]"
				},
				{
					"internalType": "uint256[]",
					"name": "values",
					"type": "uint256[]"
				},
				{
					"internalType": "bytes[]",
					"name": "calldatas",
					"type": "bytes[]"
				},
				{
					"internalType": "bytes32",
					"name": "descriptionHash",
					"type": "bytes32"
				}
			],
			"name": "queue",
			"outputs": [
				{
					"internalType": "uint256",
					"name": "",
					"type": "uint256"
				}
			],
			"stateMutability": "nonpayable",
			"type": "function"
		},
		{
			"inputs": [
				{
					"internalType": "uint256",
					"name": "blockNumber",
					"type": "uint256"
				}
			],
			"name": "quorum",
			"outputs": [
				{
					"internalType": "uint256",
					"name": "",
					"type": "uint256"
				}
			],
			"stateMutability": "view",
			"type": "function"
		},
		{
			"inputs": [],
			"name": "quorumDenominator",
			"outputs": [
				{
					"internalType": "uint256",
					"name": "",
					"type": "uint256"
				}
			],
			"stateMutability": "view",
			"type": "function"
		},
		{
			"inputs": [
				{
					"internalType": "uint256",
					"name": "blockNumber",
					"type": "uint256"
				}
			],
			"name": "quorumNumerator",
			"outputs": [
				{
					"internalType": "uint256",
					"name": "",
					"type": "uint256"
				}
			],
			"stateMutability": "view",
			"type": "function"
		},
		{
			"inputs": [],
			"name": "quorumNumerator",
			"outputs": [
				{
					"internalType": "uint256",
					"name": "",
					"type": "uint256"
				}
			],
			"stateMutability": "view",
			"type": "function"
		},
		{
			"inputs": [
				{
					"internalType": "address",
					"name": "target",
					"type": "address"
				},
				{
					"internalType": "uint256",
					"name": "value",
					"type": "uint256"
				},
				{
					"internalType": "bytes",
					"name": "data",
					"type": "bytes"
				}
			],
			"name": "relay",
			"outputs": [],
			"stateMutability": "nonpayable",
			"type": "function"
		},
		{
			"inputs": [],
			"name": "renounceOwnership",
			"outputs": [],
			"stateMutability": "nonpayable",
			"type": "function"
		},
		{
			"inputs": [
				{
					"internalType": "uint256",
					"name": "newProposalThreshold",
					"type": "uint256"
				}
			],
			"name": "setProposalThreshold",
			"outputs": [],
			"stateMutability": "nonpayable",
			"type": "function"
		},
		{
			"inputs": [
				{
					"internalType": "uint256",
					"name": "newVotingDelay",
					"type": "uint256"
				}
			],
			"name": "setVotingDelay",
			"outputs": [],
			"stateMutability": "nonpayable",
			"type": "function"
		},
		{
			"inputs": [
				{
					"internalType": "uint256",
					"name": "newVotingPeriod",
					"type": "uint256"
				}
			],
			"name": "setVotingPeriod",
			"outputs": [],
			"stateMutability": "nonpayable",
			"type": "function"
		},
		{
			"inputs": [
				{
					"internalType": "uint256",
					"name": "proposalId",
					"type": "uint256"
				}
			],
			"name": "state",
			"outputs": [
				{
					"internalType": "enum IGovernorUpgradeable.ProposalState",
					"name": "",
					"type": "uint8"
				}
			],
			"stateMutability": "view",
			"type": "function"
		},
		{
			"inputs": [
				{
					"internalType": "bytes4",
					"name": "interfaceId",
					"type": "bytes4"
				}
			],
			"name": "supportsInterface",
			"outputs": [
				{
					"internalType": "bool",
					"name": "",
					"type": "bool"
				}
			],
			"stateMutability": "view",
			"type": "function"
		},
		{
			"inputs": [],
			"name": "timelock",
			"outputs": [
				{
					"internalType": "address",
					"name": "",
					"type": "address"
				}
			],
			"stateMutability": "view",
			"type": "function"
		},
		{
			"inputs": [],
			"name": "token",
			"outputs": [
				{
					"internalType": "contract IVotesUpgradeable",
					"name": "",
					"type": "address"
				}
			],
			"stateMutability": "view",
			"type": "function"
		},
		{
			"inputs": [
				{
					"internalType": "address",
					"name": "newOwner",
					"type": "address"
				}
			],
			"name": "transferOwnership",
			"outputs": [],
			"stateMutability": "nonpayable",
			"type": "function"
		},
		{
			"inputs": [
				{
					"internalType": "uint256",
					"name": "newQuorumNumerator",
					"type": "uint256"
				}
			],
			"name": "updateQuorumNumerator",
			"outputs": [],
			"stateMutability": "nonpayable",
			"type": "function"
		},
		{
			"inputs": [
				{
					"internalType": "contract TimelockControllerUpgradeable",
					"name": "newTimelock",
					"type": "address"
				}
			],
			"name": "updateTimelock",
			"outputs": [],
			"stateMutability": "nonpayable",
			"type": "function"
		},
		{
			"inputs": [
				{
					"internalType": "address",
					"name": "newImplementation",
					"type": "address"
				}
			],
			"name": "upgradeTo",
			"outputs": [],
			"stateMutability": "nonpayable",
			"type": "function"
		},
		{
			"inputs": [
				{
					"internalType": "address",
					"name": "newImplementation",
					"type": "address"
				},
				{
					"internalType": "bytes",
					"name": "data",
					"type": "bytes"
				}
			],
			"name": "upgradeToAndCall",
			"outputs": [],
			"stateMutability": "payable",
			"type": "function"
		},
		{
			"inputs": [],
			"name": "version",
			"outputs": [
				{
					"internalType": "string",
					"name": "",
					"type": "string"
				}
			],
			"stateMutability": "view",
			"type": "function"
		},
		{
			"inputs": [],
			"name": "votingDelay",
			"outputs": [
				{
					"internalType": "uint256",
					"name": "",
					"type": "uint256"
				}
			],
			"stateMutability": "view",
			"type": "function"
		},
		{
			"inputs": [],
			"name": "votingPeriod",
			"outputs": [
				{
					"internalType": "uint256",
					"name": "",
					"type": "uint256"
				}
			],
			"stateMutability": "view",
			"type": "function"
		},
		{
			"stateMutability": "payable",
			"type": "receive"
		}
	]
}