{
  "_format": "hh-sol-artifact-1",
  "contractName": "Growachild",
  "sourceName": "contracts/Growachild.sol",
  "abi": [
    {
      "anonymous": false,
      "inputs": [
        {
          "indexed": true,
          "internalType": "address",
          "name": "owner",
          "type": "address"
        },
        {
          "indexed": true,
          "internalType": "address",
          "name": "spender",
          "type": "address"
        },
        {
          "indexed": false,
          "internalType": "uint256",
          "name": "value",
          "type": "uint256"
        }
      ],
      "name": "Approval",
      "type": "event"
    },
    {
      "anonymous": false,
      "inputs": [
        {
          "indexed": false,
          "internalType": "uint8",
          "name": "version",
          "type": "uint8"
        }
      ],
      "name": "Initialized",
      "type": "event"
    },
    {
      "anonymous": false,
      "inputs": [
        {
          "indexed": true,
          "internalType": "address",
          "name": "previousOwner",
          "type": "address"
        },
        {
          "indexed": true,
          "internalType": "address",
          "name": "newOwner",
          "type": "address"
        }
      ],
      "name": "OwnershipTransferred",
      "type": "event"
    },
    {
      "anonymous": false,
      "inputs": [
        {
          "indexed": true,
          "internalType": "address",
          "name": "from",
          "type": "address"
        },
        {
          "indexed": true,
          "internalType": "address",
          "name": "to",
          "type": "address"
        },
        {
          "indexed": false,
          "internalType": "uint256",
          "name": "value",
          "type": "uint256"
        }
      ],
      "name": "Transfer",
      "type": "event"
    },
    {
      "inputs": [],
      "name": "_campaignID",
      "outputs": [
        {
          "internalType": "uint256",
          "name": "_value",
          "type": "uint256"
        }
      ],
      "stateMutability": "view",
      "type": "function"
    },
    {
      "inputs": [],
      "name": "_userid",
      "outputs": [
        {
          "internalType": "uint256",
          "name": "_value",
          "type": "uint256"
        }
      ],
      "stateMutability": "view",
      "type": "function"
    },
    {
      "inputs": [
        {
          "internalType": "address",
          "name": "owner",
          "type": "address"
        },
        {
          "internalType": "address",
          "name": "spender",
          "type": "address"
        }
      ],
      "name": "allowance",
      "outputs": [
        {
          "internalType": "uint256",
          "name": "",
          "type": "uint256"
        }
      ],
      "stateMutability": "view",
      "type": "function"
    },
    {
      "inputs": [
        {
          "internalType": "address",
          "name": "spender",
          "type": "address"
        },
        {
          "internalType": "uint256",
          "name": "amount",
          "type": "uint256"
        }
      ],
      "name": "approve",
      "outputs": [
        {
          "internalType": "bool",
          "name": "",
          "type": "bool"
        }
      ],
      "stateMutability": "nonpayable",
      "type": "function"
    },
    {
      "inputs": [
        {
          "internalType": "address",
          "name": "account",
          "type": "address"
        }
      ],
      "name": "balanceOf",
      "outputs": [
        {
          "internalType": "uint256",
          "name": "",
          "type": "uint256"
        }
      ],
      "stateMutability": "view",
      "type": "function"
    },
    {
      "inputs": [
        {
          "internalType": "uint256",
          "name": "",
          "type": "uint256"
        }
      ],
      "name": "campaignDetails",
      "outputs": [
        {
          "internalType": "uint256",
          "name": "campaignID",
          "type": "uint256"
        },
        {
          "internalType": "address",
          "name": "ngo",
          "type": "address"
        },
        {
          "internalType": "string",
          "name": "campaignPic",
          "type": "string"
        },
        {
          "internalType": "string",
          "name": "name",
          "type": "string"
        },
        {
          "internalType": "string",
          "name": "description",
          "type": "string"
        },
        {
          "internalType": "uint256",
          "name": "noOfBeneficiaries",
          "type": "uint256"
        },
        {
          "internalType": "uint256",
          "name": "dailyFundNeed",
          "type": "uint256"
        },
        {
          "internalType": "uint256",
          "name": "availableBalance",
          "type": "uint256"
        },
        {
          "internalType": "uint256",
          "name": "totalReceived",
          "type": "uint256"
        },
        {
          "internalType": "uint256",
          "name": "totalUsed",
          "type": "uint256"
        }
      ],
      "stateMutability": "view",
      "type": "function"
    },
    {
      "inputs": [],
      "name": "checkRegistration",
      "outputs": [
        {
          "internalType": "bool",
          "name": "",
          "type": "bool"
        }
      ],
      "stateMutability": "view",
      "type": "function"
    },
    {
      "inputs": [
        {
          "internalType": "uint256",
          "name": "campId",
          "type": "uint256"
        }
      ],
      "name": "completedTask",
      "outputs": [],
      "stateMutability": "nonpayable",
      "type": "function"
    },
    {
      "inputs": [],
      "name": "decimals",
      "outputs": [
        {
          "internalType": "uint8",
          "name": "",
          "type": "uint8"
        }
      ],
      "stateMutability": "view",
      "type": "function"
    },
    {
      "inputs": [
        {
          "internalType": "address",
          "name": "spender",
          "type": "address"
        },
        {
          "internalType": "uint256",
          "name": "subtractedValue",
          "type": "uint256"
        }
      ],
      "name": "decreaseAllowance",
      "outputs": [
        {
          "internalType": "bool",
          "name": "",
          "type": "bool"
        }
      ],
      "stateMutability": "nonpayable",
      "type": "function"
    },
    {
      "inputs": [
        {
          "internalType": "uint256",
          "name": "_ids",
          "type": "uint256"
        },
        {
          "internalType": "uint256",
          "name": "amount",
          "type": "uint256"
        },
        {
          "internalType": "address",
          "name": "_token",
          "type": "address"
        }
      ],
      "name": "deposit",
      "outputs": [],
      "stateMutability": "payable",
      "type": "function"
    },
    {
      "inputs": [
        {
          "internalType": "uint256",
          "name": "campainId",
          "type": "uint256"
        }
      ],
      "name": "freezeUnfreezeCampaign",
      "outputs": [],
      "stateMutability": "nonpayable",
      "type": "function"
    },
    {
      "inputs": [],
      "name": "getAllCampaigns",
      "outputs": [
        {
          "components": [
            {
              "internalType": "uint256",
              "name": "campaignID",
              "type": "uint256"
            },
            {
              "internalType": "address",
              "name": "ngo",
              "type": "address"
            },
            {
              "internalType": "string",
              "name": "campaignPic",
              "type": "string"
            },
            {
              "internalType": "string",
              "name": "name",
              "type": "string"
            },
            {
              "internalType": "string",
              "name": "description",
              "type": "string"
            },
            {
              "internalType": "uint256",
              "name": "noOfBeneficiaries",
              "type": "uint256"
            },
            {
              "internalType": "uint256",
              "name": "dailyFundNeed",
              "type": "uint256"
            },
            {
              "internalType": "uint256",
              "name": "availableBalance",
              "type": "uint256"
            },
            {
              "internalType": "uint256",
              "name": "totalReceived",
              "type": "uint256"
            },
            {
              "internalType": "uint256",
              "name": "totalUsed",
              "type": "uint256"
            }
          ],
          "internalType": "struct Growachild.Campaign[]",
          "name": "",
          "type": "tuple[]"
        }
      ],
      "stateMutability": "view",
      "type": "function"
    },
    {
      "inputs": [
        {
          "internalType": "uint256",
          "name": "id",
          "type": "uint256"
        }
      ],
      "name": "getCampaignDetails",
      "outputs": [
        {
          "components": [
            {
              "internalType": "uint256",
              "name": "campaignID",
              "type": "uint256"
            },
            {
              "internalType": "address",
              "name": "ngo",
              "type": "address"
            },
            {
              "internalType": "string",
              "name": "campaignPic",
              "type": "string"
            },
            {
              "internalType": "string",
              "name": "name",
              "type": "string"
            },
            {
              "internalType": "string",
              "name": "description",
              "type": "string"
            },
            {
              "internalType": "uint256",
              "name": "noOfBeneficiaries",
              "type": "uint256"
            },
            {
              "internalType": "uint256",
              "name": "dailyFundNeed",
              "type": "uint256"
            },
            {
              "internalType": "uint256",
              "name": "availableBalance",
              "type": "uint256"
            },
            {
              "internalType": "uint256",
              "name": "totalReceived",
              "type": "uint256"
            },
            {
              "internalType": "uint256",
              "name": "totalUsed",
              "type": "uint256"
            }
          ],
          "internalType": "struct Growachild.Campaign[]",
          "name": "",
          "type": "tuple[]"
        }
      ],
      "stateMutability": "view",
      "type": "function"
    },
    {
      "inputs": [],
      "name": "getMyCampaigns",
      "outputs": [
        {
          "components": [
            {
              "internalType": "uint256",
              "name": "campaignID",
              "type": "uint256"
            },
            {
              "internalType": "address",
              "name": "ngo",
              "type": "address"
            },
            {
              "internalType": "string",
              "name": "campaignPic",
              "type": "string"
            },
            {
              "internalType": "string",
              "name": "name",
              "type": "string"
            },
            {
              "internalType": "string",
              "name": "description",
              "type": "string"
            },
            {
              "internalType": "uint256",
              "name": "noOfBeneficiaries",
              "type": "uint256"
            },
            {
              "internalType": "uint256",
              "name": "dailyFundNeed",
              "type": "uint256"
            },
            {
              "internalType": "uint256",
              "name": "availableBalance",
              "type": "uint256"
            },
            {
              "internalType": "uint256",
              "name": "totalReceived",
              "type": "uint256"
            },
            {
              "internalType": "uint256",
              "name": "totalUsed",
              "type": "uint256"
            }
          ],
          "internalType": "struct Growachild.Campaign[]",
          "name": "",
          "type": "tuple[]"
        }
      ],
      "stateMutability": "view",
      "type": "function"
    },
    {
      "inputs": [],
      "name": "getMyDonations",
      "outputs": [
        {
          "components": [
            {
              "internalType": "uint256",
              "name": "campaignID",
              "type": "uint256"
            },
            {
              "internalType": "address",
              "name": "userAddress",
              "type": "address"
            },
            {
              "internalType": "uint256",
              "name": "depositAmount",
              "type": "uint256"
            },
            {
              "internalType": "address",
              "name": "ngoAddress",
              "type": "address"
            }
          ],
          "internalType": "struct Growachild.Users[]",
          "name": "",
          "type": "tuple[]"
        }
      ],
      "stateMutability": "view",
      "type": "function"
    },
    {
      "inputs": [
        {
          "internalType": "address",
          "name": "_addr",
          "type": "address"
        }
      ],
      "name": "getNGODetails",
      "outputs": [
        {
          "components": [
            {
              "internalType": "string",
              "name": "name",
              "type": "string"
            },
            {
              "internalType": "string",
              "name": "description",
              "type": "string"
            },
            {
              "internalType": "string",
              "name": "registrationNo",
              "type": "string"
            },
            {
              "internalType": "string",
              "name": "registeredByGovt",
              "type": "string"
            },
            {
              "internalType": "uint256",
              "name": "serviceSince",
              "type": "uint256"
            },
            {
              "internalType": "string",
              "name": "ngoAddress",
              "type": "string"
            },
            {
              "internalType": "string",
              "name": "country",
              "type": "string"
            },
            {
              "internalType": "uint256",
              "name": "campaignCount",
              "type": "uint256"
            }
          ],
          "internalType": "struct Growachild.NGO[]",
          "name": "",
          "type": "tuple[]"
        }
      ],
      "stateMutability": "view",
      "type": "function"
    },
    {
      "inputs": [],
      "name": "getTotalKidsCount",
      "outputs": [
        {
          "internalType": "uint256",
          "name": "",
          "type": "uint256"
        }
      ],
      "stateMutability": "view",
      "type": "function"
    },
    {
      "inputs": [
        {
          "internalType": "address",
          "name": "spender",
          "type": "address"
        },
        {
          "internalType": "uint256",
          "name": "addedValue",
          "type": "uint256"
        }
      ],
      "name": "increaseAllowance",
      "outputs": [
        {
          "internalType": "bool",
          "name": "",
          "type": "bool"
        }
      ],
      "stateMutability": "nonpayable",
      "type": "function"
    },
    {
      "inputs": [],
      "name": "initialize",
      "outputs": [],
      "stateMutability": "nonpayable",
      "type": "function"
    },
    {
      "inputs": [],
      "name": "name",
      "outputs": [
        {
          "internalType": "string",
          "name": "",
          "type": "string"
        }
      ],
      "stateMutability": "view",
      "type": "function"
    },
    {
      "inputs": [
        {
          "internalType": "address",
          "name": "",
          "type": "address"
        }
      ],
      "name": "ngoDetails",
      "outputs": [
        {
          "internalType": "string",
          "name": "name",
          "type": "string"
        },
        {
          "internalType": "string",
          "name": "description",
          "type": "string"
        },
        {
          "internalType": "string",
          "name": "registrationNo",
          "type": "string"
        },
        {
          "internalType": "string",
          "name": "registeredByGovt",
          "type": "string"
        },
        {
          "internalType": "uint256",
          "name": "serviceSince",
          "type": "uint256"
        },
        {
          "internalType": "string",
          "name": "ngoAddress",
          "type": "string"
        },
        {
          "internalType": "string",
          "name": "country",
          "type": "string"
        },
        {
          "internalType": "uint256",
          "name": "campaignCount",
          "type": "uint256"
        }
      ],
      "stateMutability": "view",
      "type": "function"
    },
    {
      "inputs": [],
      "name": "owner",
      "outputs": [
        {
          "internalType": "address",
          "name": "",
          "type": "address"
        }
      ],
      "stateMutability": "view",
      "type": "function"
    },
    {
      "inputs": [
        {
          "internalType": "string",
          "name": "_name",
          "type": "string"
        },
        {
          "internalType": "string",
          "name": "_campaignPic",
          "type": "string"
        },
        {
          "internalType": "string",
          "name": "_description",
          "type": "string"
        },
        {
          "internalType": "uint256",
          "name": "_noOfBeneficiaries",
          "type": "uint256"
        },
        {
          "internalType": "uint256",
          "name": "_dailyFundNeed",
          "type": "uint256"
        }
      ],
      "name": "registerCampign",
      "outputs": [],
      "stateMutability": "nonpayable",
      "type": "function"
    },
    {
      "inputs": [
        {
          "internalType": "string",
          "name": "_name",
          "type": "string"
        },
        {
          "internalType": "string",
          "name": "_description",
          "type": "string"
        },
        {
          "internalType": "string",
          "name": "_registrationNo",
          "type": "string"
        },
        {
          "internalType": "string",
          "name": "_registeredByGovt",
          "type": "string"
        },
        {
          "internalType": "uint256",
          "name": "_serviceSince",
          "type": "uint256"
        },
        {
          "internalType": "string",
          "name": "ngoAddress",
          "type": "string"
        },
        {
          "internalType": "string",
          "name": "_country",
          "type": "string"
        }
      ],
      "name": "registerNGO",
      "outputs": [],
      "stateMutability": "nonpayable",
      "type": "function"
    },
    {
      "inputs": [],
      "name": "renounceOwnership",
      "outputs": [],
      "stateMutability": "nonpayable",
      "type": "function"
    },
    {
      "inputs": [],
      "name": "symbol",
      "outputs": [
        {
          "internalType": "string",
          "name": "",
          "type": "string"
        }
      ],
      "stateMutability": "view",
      "type": "function"
    },
    {
      "inputs": [],
      "name": "totalSupply",
      "outputs": [
        {
          "internalType": "uint256",
          "name": "",
          "type": "uint256"
        }
      ],
      "stateMutability": "view",
      "type": "function"
    },
    {
      "inputs": [
        {
          "internalType": "address",
          "name": "to",
          "type": "address"
        },
        {
          "internalType": "uint256",
          "name": "amount",
          "type": "uint256"
        }
      ],
      "name": "transfer",
      "outputs": [
        {
          "internalType": "bool",
          "name": "",
          "type": "bool"
        }
      ],
      "stateMutability": "nonpayable",
      "type": "function"
    },
    {
      "inputs": [
        {
          "internalType": "address",
          "name": "from",
          "type": "address"
        },
        {
          "internalType": "address",
          "name": "to",
          "type": "address"
        },
        {
          "internalType": "uint256",
          "name": "amount",
          "type": "uint256"
        }
      ],
      "name": "transferFrom",
      "outputs": [
        {
          "internalType": "bool",
          "name": "",
          "type": "bool"
        }
      ],
      "stateMutability": "nonpayable",
      "type": "function"
    },
    {
      "inputs": [
        {
          "internalType": "address",
          "name": "newOwner",
          "type": "address"
        }
      ],
      "name": "transferOwnership",
      "outputs": [],
      "stateMutability": "nonpayable",
      "type": "function"
    },
    {
      "inputs": [
        {
          "internalType": "uint256",
          "name": "",
          "type": "uint256"
        }
      ],
      "name": "userDetails",
      "outputs": [
        {
          "internalType": "uint256",
          "name": "campaignID",
          "type": "uint256"
        },
        {
          "internalType": "address",
          "name": "userAddress",
          "type": "address"
        },
        {
          "internalType": "uint256",
          "name": "depositAmount",
          "type": "uint256"
        },
        {
          "internalType": "address",
          "name": "ngoAddress",
          "type": "address"
        }
      ],
      "stateMutability": "view",
      "type": "function"
    },
    {
      "inputs": [
        {
          "internalType": "uint256",
          "name": "campainId",
          "type": "uint256"
        },
        {
          "internalType": "address",
          "name": "_token",
          "type": "address"
        }
      ],
      "name": "withdrawDailyFund",
      "outputs": [],
      "stateMutability": "nonpayable",
      "type": "function"
    }
  ],
  "bytecode": "0x608060405234801561001057600080fd5b5061572780620000216000396000f3fe6080604052600436106101ee5760003560e01c806382bea0ca1161010d5780639d7bf4bf116100a0578063d993de621161006f578063d993de621461072f578063dd62ed3e1461076c578063ed454764146107a9578063f2fde38b146107d2578063fd1b2100146107fb576101ee565b80639d7bf4bf1461064a578063a457c2d714610675578063a9059cbb146106b2578063a9cad37b146106ef576101ee565b80638e53a762116100dc5780638e53a762146105a05780638f526bc2146105c957806390e4a130146105f457806395d89b411461061f576101ee565b806382bea0ca1461050357806386cdf6041461052e5780638da5cb5b146105595780638dbdbe6d14610584576101ee565b8063313ce5671161018557806370a082311161015457806370a082311461045b578063715018a614610498578063734d78c5146104af5780638129fc1c146104ec576101ee565b8063313ce5671461039f57806339509351146103ca5780634ed084651461040757806352d300a114610432576101ee565b806318160ddd116101c157806318160ddd146102e557806323b872dd1461031057806326509bb11461034d5780632c72706614610376576101ee565b80630131bc50146101f357806306fdde0314610239578063095ea7b31461026457806314140cdf146102a1575b600080fd5b3480156101ff57600080fd5b5061021a6004803603810190610215919061419a565b610826565b6040516102309a99989796959493929190614d82565b60405180910390f35b34801561024557600080fd5b5061024e610a32565b60405161025b9190614a5d565b60405180910390f35b34801561027057600080fd5b5061028b60048036038101906102869190613f48565b610ac4565b6040516102989190614a27565b60405180910390f35b3480156102ad57600080fd5b506102c860048036038101906102c39190613e94565b610ae7565b6040516102dc989796959493929190614a7f565b60405180910390f35b3480156102f157600080fd5b506102fa610e5f565b6040516103079190614d67565b60405180910390f35b34801561031c57600080fd5b5061033760048036038101906103329190613ef9565b610e69565b6040516103449190614a27565b60405180910390f35b34801561035957600080fd5b50610374600480360381019061036f9190613fad565b610e98565b005b34801561038257600080fd5b5061039d600480360381019061039891906141c3565b6110e1565b005b3480156103ab57600080fd5b506103b4611527565b6040516103c19190614e78565b60405180910390f35b3480156103d657600080fd5b506103f160048036038101906103ec9190613f48565b611530565b6040516103fe9190614a27565b60405180910390f35b34801561041357600080fd5b5061041c611567565b6040516104299190614d67565b60405180910390f35b34801561043e57600080fd5b50610459600480360381019061045491906140db565b611571565b005b34801561046757600080fd5b50610482600480360381019061047d9190613e94565b6117d7565b60405161048f9190614d67565b60405180910390f35b3480156104a457600080fd5b506104ad611820565b005b3480156104bb57600080fd5b506104d660048036038101906104d19190613e94565b611834565b6040516104e391906149e3565b60405180910390f35b3480156104f857600080fd5b50610501611cd4565b005b34801561050f57600080fd5b50610518611e42565b60405161052591906149c1565b60405180910390f35b34801561053a57600080fd5b5061054361226f565b60405161055091906149c1565b60405180910390f35b34801561056557600080fd5b5061056e6125e9565b60405161057b9190614946565b60405180910390f35b61059e600480360381019061059991906141ff565b612613565b005b3480156105ac57600080fd5b506105c760048036038101906105c2919061419a565b612a0a565b005b3480156105d557600080fd5b506105de612ab7565b6040516105eb9190614d67565b60405180910390f35b34801561060057600080fd5b50610609612ac3565b6040516106169190614a05565b60405180910390f35b34801561062b57600080fd5b50610634612d1f565b6040516106419190614a5d565b60405180910390f35b34801561065657600080fd5b5061065f612db1565b60405161066c9190614d67565b60405180910390f35b34801561068157600080fd5b5061069c60048036038101906106979190613f48565b612dbd565b6040516106a99190614a27565b60405180910390f35b3480156106be57600080fd5b506106d960048036038101906106d49190613f48565b612e34565b6040516106e69190614a27565b60405180910390f35b3480156106fb57600080fd5b506107166004803603810190610711919061419a565b612e57565b6040516107269493929190614e33565b60405180910390f35b34801561073b57600080fd5b506107566004803603810190610751919061419a565b612ec7565b60405161076391906149c1565b60405180910390f35b34801561077857600080fd5b50610793600480360381019061078e9190613ebd565b613203565b6040516107a09190614d67565b60405180910390f35b3480156107b557600080fd5b506107d060048036038101906107cb919061419a565b61328a565b005b3480156107de57600080fd5b506107f960048036038101906107f49190613e94565b6132a5565b005b34801561080757600080fd5b50610810613329565b60405161081d9190614a27565b60405180910390f35b60ce6020528060005260406000206000915090508060000154908060010160009054906101000a900473ffffffffffffffffffffffffffffffffffffffff16908060020180546108759061512a565b80601f01602080910402602001604051908101604052809291908181526020018280546108a19061512a565b80156108ee5780601f106108c3576101008083540402835291602001916108ee565b820191906000526020600020905b8154815290600101906020018083116108d157829003601f168201915b5050505050908060030180546109039061512a565b80601f016020809104026020016040519081016040528092919081815260200182805461092f9061512a565b801561097c5780601f106109515761010080835404028352916020019161097c565b820191906000526020600020905b81548152906001019060200180831161095f57829003601f168201915b5050505050908060040180546109919061512a565b80601f01602080910402602001604051908101604052809291908181526020018280546109bd9061512a565b8015610a0a5780601f106109df57610100808354040283529160200191610a0a565b820191906000526020600020905b8154815290600101906020018083116109ed57829003601f168201915b505050505090806005015490806006015490806007015490806008015490806009015490508a565b606060368054610a419061512a565b80601f0160208091040260200160405190810160405280929190818152602001828054610a6d9061512a565b8015610aba5780601f10610a8f57610100808354040283529160200191610aba565b820191906000526020600020905b815481529060010190602001808311610a9d57829003601f168201915b5050505050905090565b600080610acf613386565b9050610adc81858561338e565b600191505092915050565b60cc602052806000526040600020600091509050806000018054610b0a9061512a565b80601f0160208091040260200160405190810160405280929190818152602001828054610b369061512a565b8015610b835780601f10610b5857610100808354040283529160200191610b83565b820191906000526020600020905b815481529060010190602001808311610b6657829003601f168201915b505050505090806001018054610b989061512a565b80601f0160208091040260200160405190810160405280929190818152602001828054610bc49061512a565b8015610c115780601f10610be657610100808354040283529160200191610c11565b820191906000526020600020905b815481529060010190602001808311610bf457829003601f168201915b505050505090806002018054610c269061512a565b80601f0160208091040260200160405190810160405280929190818152602001828054610c529061512a565b8015610c9f5780601f10610c7457610100808354040283529160200191610c9f565b820191906000526020600020905b815481529060010190602001808311610c8257829003601f168201915b505050505090806003018054610cb49061512a565b80601f0160208091040260200160405190810160405280929190818152602001828054610ce09061512a565b8015610d2d5780601f10610d0257610100808354040283529160200191610d2d565b820191906000526020600020905b815481529060010190602001808311610d1057829003601f168201915b505050505090806004015490806005018054610d489061512a565b80601f0160208091040260200160405190810160405280929190818152602001828054610d749061512a565b8015610dc15780601f10610d9657610100808354040283529160200191610dc1565b820191906000526020600020905b815481529060010190602001808311610da457829003601f168201915b505050505090806006018054610dd69061512a565b80601f0160208091040260200160405190810160405280929190818152602001828054610e029061512a565b8015610e4f5780601f10610e2457610100808354040283529160200191610e4f565b820191906000526020600020905b815481529060010190602001808311610e3257829003601f168201915b5050505050908060070154905088565b6000603554905090565b600080610e74613386565b9050610e81858285613559565b610e8c8585856135e5565b60019150509392505050565b60026065541415610ede576040517f08c379a0000000000000000000000000000000000000000000000000000000008152600401610ed590614d27565b60405180910390fd5b6002606581905550610eee613329565b15610f2e576040517f08c379a0000000000000000000000000000000000000000000000000000000008152600401610f2590614b47565b60405180910390fd5b604051806101000160405280888152602001878152602001868152602001858152602001848152602001838152602001828152602001600081525060cc60003373ffffffffffffffffffffffffffffffffffffffff1673ffffffffffffffffffffffffffffffffffffffff1681526020019081526020016000206000820151816000019080519060200190610fc4929190613c48565b506020820151816001019080519060200190610fe1929190613c48565b506040820151816002019080519060200190610ffe929190613c48565b50606082015181600301908051906020019061101b929190613c48565b506080820151816004015560a0820151816005019080519060200190611042929190613c48565b5060c082015181600601908051906020019061105f929190613c48565b5060e0820151816007015590505060cd339080600181540180825580915050600190039060005260206000200160009091909190916101000a81548173ffffffffffffffffffffffffffffffffffffffff021916908373ffffffffffffffffffffffffffffffffffffffff160217905550600160658190555050505050505050565b8160d0600082815260200190815260200160002060009054906101000a900460ff16611142576040517f08c379a000000000000000000000000000000000000000000000000000000000815260040161113990614ba7565b60405180910390fd5b60ce600084815260200190815260200160002060010160009054906101000a900473ffffffffffffffffffffffffffffffffffffffff1673ffffffffffffffffffffffffffffffffffffffff163373ffffffffffffffffffffffffffffffffffffffff16146111e6576040517f08c379a00000000000000000000000000000000000000000000000000000000081526004016111dd90614c27565b60405180910390fd5b600060ce6000858152602001908152602001600020600701541161123f576040517f08c379a000000000000000000000000000000000000000000000000000000000815260040161123690614ca7565b60405180910390fd5b620151804261124e9190615017565b60d160008581526020019081526020016000205410156112a3576040517f08c379a000000000000000000000000000000000000000000000000000000000815260040161129a90614c67565b60405180910390fd5b62015180426112b29190615017565b60d260008581526020019081526020016000205410611306576040517f08c379a00000000000000000000000000000000000000000000000000000000081526004016112fd90614c07565b60405180910390fd5b600060ce6000858152602001908152602001600020600601549050600060ce60008681526020019081526020016000206007015490504260d2600087815260200190815260200160002081905550808211611448578160ce600087815260200190815260200160002060070160008282546113819190615017565b925050819055508160ce600087815260200190815260200160002060090160008282546113ae9190614fc1565b925050819055508373ffffffffffffffffffffffffffffffffffffffff1663a9059cbb33846040518363ffffffff1660e01b81526004016113f0929190614998565b602060405180830381600087803b15801561140a57600080fd5b505af115801561141e573d6000803e3d6000fd5b505050506040513d601f19601f820116820180604052508101906114429190613f84565b50611520565b600060ce6000878152602001908152602001600020600701819055508060ce6000878152602001908152602001600020600901600082825461148a9190614fc1565b925050819055508373ffffffffffffffffffffffffffffffffffffffff1663a9059cbb33836040518363ffffffff1660e01b81526004016114cc929190614998565b602060405180830381600087803b1580156114e657600080fd5b505af11580156114fa573d6000803e3d6000fd5b505050506040513d601f19601f8201168201806040525081019061151e9190613f84565b505b5050505050565b60006012905090565b60008061153b613386565b905061155c81858561154d8589613203565b6115579190614fc1565b61338e565b600191505092915050565b600060c954905090565b600260655414156115b7576040517f08c379a00000000000000000000000000000000000000000000000000000000081526004016115ae90614d27565b60405180910390fd5b60026065819055506115c960ca613869565b60006115d560ca61387f565b90506040518061014001604052808281526020013373ffffffffffffffffffffffffffffffffffffffff1681526020018681526020018781526020018581526020018481526020018381526020016000815260200160008152602001600081525060ce60008381526020019081526020016000206000820151816000015560208201518160010160006101000a81548173ffffffffffffffffffffffffffffffffffffffff021916908373ffffffffffffffffffffffffffffffffffffffff16021790555060408201518160020190805190602001906116b6929190613c48565b5060608201518160030190805190602001906116d3929190613c48565b5060808201518160040190805190602001906116f0929190613c48565b5060a0820151816005015560c0820151816006015560e0820151816007015561010082015181600801556101208201518160090155905050600160cc60003373ffffffffffffffffffffffffffffffffffffffff1673ffffffffffffffffffffffffffffffffffffffff168152602001908152602001600020600701600082825461177b9190614fc1565b925050819055508260c960008282546117949190614fc1565b92505081905550600160d0600083815260200190815260200160002060006101000a81548160ff0219169083151502179055505060016065819055505050505050565b6000603360008373ffffffffffffffffffffffffffffffffffffffff1673ffffffffffffffffffffffffffffffffffffffff168152602001908152602001600020549050919050565b61182861388d565b611832600061390b565b565b60606000600167ffffffffffffffff811115611879577f4e487b7100000000000000000000000000000000000000000000000000000000600052604160045260246000fd5b6040519080825280602002602001820160405280156118b257816020015b61189f613cce565b8152602001906001900390816118975790505b509050600060cc60008573ffffffffffffffffffffffffffffffffffffffff1673ffffffffffffffffffffffffffffffffffffffff168152602001908152602001600020905080604051806101000160405290816000820180546119159061512a565b80601f01602080910402602001604051908101604052809291908181526020018280546119419061512a565b801561198e5780601f106119635761010080835404028352916020019161198e565b820191906000526020600020905b81548152906001019060200180831161197157829003601f168201915b505050505081526020016001820180546119a79061512a565b80601f01602080910402602001604051908101604052809291908181526020018280546119d39061512a565b8015611a205780601f106119f557610100808354040283529160200191611a20565b820191906000526020600020905b815481529060010190602001808311611a0357829003601f168201915b50505050508152602001600282018054611a399061512a565b80601f0160208091040260200160405190810160405280929190818152602001828054611a659061512a565b8015611ab25780601f10611a8757610100808354040283529160200191611ab2565b820191906000526020600020905b815481529060010190602001808311611a9557829003601f168201915b50505050508152602001600382018054611acb9061512a565b80601f0160208091040260200160405190810160405280929190818152602001828054611af79061512a565b8015611b445780601f10611b1957610100808354040283529160200191611b44565b820191906000526020600020905b815481529060010190602001808311611b2757829003601f168201915b5050505050815260200160048201548152602001600582018054611b679061512a565b80601f0160208091040260200160405190810160405280929190818152602001828054611b939061512a565b8015611be05780601f10611bb557610100808354040283529160200191611be0565b820191906000526020600020905b815481529060010190602001808311611bc357829003601f168201915b50505050508152602001600682018054611bf99061512a565b80601f0160208091040260200160405190810160405280929190818152602001828054611c259061512a565b8015611c725780601f10611c4757610100808354040283529160200191611c72565b820191906000526020600020905b815481529060010190602001808311611c5557829003601f168201915b5050505050815260200160078201548152505082600081518110611cbf577f4e487b7100000000000000000000000000000000000000000000000000000000600052603260045260246000fd5b60200260200101819052508192505050919050565b60008060019054906101000a900460ff16159050808015611d055750600160008054906101000a900460ff1660ff16105b80611d325750611d14306139d1565b158015611d315750600160008054906101000a900460ff1660ff16145b5b611d71576040517f08c379a0000000000000000000000000000000000000000000000000000000008152600401611d6890614c47565b60405180910390fd5b60016000806101000a81548160ff021916908360ff1602179055508015611dae576001600060016101000a81548160ff0219169083151502179055505b611dd660405180602001604052806000815250604051806020016040528060008152506139f4565b611dde613a51565b611de6613aaa565b8015611e3f5760008060016101000a81548160ff0219169083151502179055507f7f26b83ff96e1f2b6a682f133852f6798a09c465da95921460cefb38474024986001604051611e369190614a42565b60405180910390a15b50565b6060600060cc60003373ffffffffffffffffffffffffffffffffffffffff1673ffffffffffffffffffffffffffffffffffffffff1681526020019081526020016000206007015490506000611e9760ca61387f565b90506000808367ffffffffffffffff811115611edc577f4e487b7100000000000000000000000000000000000000000000000000000000600052604160045260246000fd5b604051908082528060200260200182016040528015611f1557816020015b611f02613d13565b815260200190600190039081611efa5790505b5090506000600190505b838111612264573373ffffffffffffffffffffffffffffffffffffffff1660ce600083815260200190815260200160002060010160009054906101000a900473ffffffffffffffffffffffffffffffffffffffff1673ffffffffffffffffffffffffffffffffffffffff16141561225157600060ce600083815260200190815260200160002090508060405180610140016040529081600082015481526020016001820160009054906101000a900473ffffffffffffffffffffffffffffffffffffffff1673ffffffffffffffffffffffffffffffffffffffff1673ffffffffffffffffffffffffffffffffffffffff1681526020016002820180546120249061512a565b80601f01602080910402602001604051908101604052809291908181526020018280546120509061512a565b801561209d5780601f106120725761010080835404028352916020019161209d565b820191906000526020600020905b81548152906001019060200180831161208057829003601f168201915b505050505081526020016003820180546120b69061512a565b80601f01602080910402602001604051908101604052809291908181526020018280546120e29061512a565b801561212f5780601f106121045761010080835404028352916020019161212f565b820191906000526020600020905b81548152906001019060200180831161211257829003601f168201915b505050505081526020016004820180546121489061512a565b80601f01602080910402602001604051908101604052809291908181526020018280546121749061512a565b80156121c15780601f10612196576101008083540402835291602001916121c1565b820191906000526020600020905b8154815290600101906020018083116121a457829003601f168201915b5050505050815260200160058201548152602001600682015481526020016007820154815260200160088201548152602001600982015481525050838581518110612235577f4e487b7100000000000000000000000000000000000000000000000000000000600052603260045260246000fd5b602002602001018190525060018461224d9190614fc1565b9350505b808061225c9061518d565b915050611f1f565b508094505050505090565b6060600061227d60ca61387f565b90506000808267ffffffffffffffff8111156122c2577f4e487b7100000000000000000000000000000000000000000000000000000000600052604160045260246000fd5b6040519080825280602002602001820160405280156122fb57816020015b6122e8613d13565b8152602001906001900390816122e05790505b5090506000600190505b8381116125df57600060ce600083815260200190815260200160002090508060405180610140016040529081600082015481526020016001820160009054906101000a900473ffffffffffffffffffffffffffffffffffffffff1673ffffffffffffffffffffffffffffffffffffffff1673ffffffffffffffffffffffffffffffffffffffff1681526020016002820180546123a09061512a565b80601f01602080910402602001604051908101604052809291908181526020018280546123cc9061512a565b80156124195780601f106123ee57610100808354040283529160200191612419565b820191906000526020600020905b8154815290600101906020018083116123fc57829003601f168201915b505050505081526020016003820180546124329061512a565b80601f016020809104026020016040519081016040528092919081815260200182805461245e9061512a565b80156124ab5780601f10612480576101008083540402835291602001916124ab565b820191906000526020600020905b81548152906001019060200180831161248e57829003601f168201915b505050505081526020016004820180546124c49061512a565b80601f01602080910402602001604051908101604052809291908181526020018280546124f09061512a565b801561253d5780601f106125125761010080835404028352916020019161253d565b820191906000526020600020905b81548152906001019060200180831161252057829003601f168201915b50505050508152602001600582015481526020016006820154815260200160078201548152602001600882015481526020016009820154815250508385815181106125b1577f4e487b7100000000000000000000000000000000000000000000000000000000600052603260045260246000fd5b60200260200101819052506001846125c99190614fc1565b93505080806125d79061518d565b915050612305565b5080935050505090565b6000609760009054906101000a900473ffffffffffffffffffffffffffffffffffffffff16905090565b8260d0600082815260200190815260200160002060009054906101000a900460ff16612674576040517f08c379a000000000000000000000000000000000000000000000000000000000815260040161266b90614ba7565b60405180910390fd5b600260655414156126ba576040517f08c379a00000000000000000000000000000000000000000000000000000000081526004016126b190614d27565b60405180910390fd5b60026065819055508173ffffffffffffffffffffffffffffffffffffffff166323b872dd3330866040518463ffffffff1660e01b81526004016126ff93929190614961565b602060405180830381600087803b15801561271957600080fd5b505af115801561272d573d6000803e3d6000fd5b505050506040513d601f19601f820116820180604052508101906127519190613f84565b50600061275e60cb61387f565b9050600080600190505b828111612843573373ffffffffffffffffffffffffffffffffffffffff1660cf600083815260200190815260200160002060010160009054906101000a900473ffffffffffffffffffffffffffffffffffffffff1673ffffffffffffffffffffffffffffffffffffffff161480156127f557508660cf600083815260200190815260200160002060000154145b15612830578560cf600083815260200190815260200160002060020160008282546128209190614fc1565b9250508190555060019150612843565b808061283b9061518d565b915050612768565b506000151581151514156129a05761285b60cb613869565b60405180608001604052808781526020013373ffffffffffffffffffffffffffffffffffffffff16815260200186815260200160ce600089815260200190815260200160002060010160009054906101000a900473ffffffffffffffffffffffffffffffffffffffff1673ffffffffffffffffffffffffffffffffffffffff1681525060cf60006128ec60cb61387f565b81526020019081526020016000206000820151816000015560208201518160010160006101000a81548173ffffffffffffffffffffffffffffffffffffffff021916908373ffffffffffffffffffffffffffffffffffffffff1602179055506040820151816002015560608201518160030160006101000a81548173ffffffffffffffffffffffffffffffffffffffff021916908373ffffffffffffffffffffffffffffffffffffffff1602179055509050505b8460ce600088815260200190815260200160002060070160008282546129c69190614fc1565b925050819055508460ce600088815260200190815260200160002060080160008282546129f39190614fc1565b925050819055505050600160658190555050505050565b612a1261388d565b60026065541415612a58576040517f08c379a0000000000000000000000000000000000000000000000000000000008152600401612a4f90614d27565b60405180910390fd5b600260658190555060d0600082815260200190815260200160002060009054906101000a900460ff161560d0600083815260200190815260200160002060006101000a81548160ff021916908315150217905550600160658190555050565b60ca8060000154905081565b60606000612ad160cb61387f565b90506000808267ffffffffffffffff811115612b16577f4e487b7100000000000000000000000000000000000000000000000000000000600052604160045260246000fd5b604051908082528060200260200182016040528015612b4f57816020015b612b3c613d7c565b815260200190600190039081612b345790505b5090506000600190505b838111612d15573373ffffffffffffffffffffffffffffffffffffffff1660cf600083815260200190815260200160002060010160009054906101000a900473ffffffffffffffffffffffffffffffffffffffff1673ffffffffffffffffffffffffffffffffffffffff161415612d0257600060cf6000838152602001908152602001600020905080604051806080016040529081600082015481526020016001820160009054906101000a900473ffffffffffffffffffffffffffffffffffffffff1673ffffffffffffffffffffffffffffffffffffffff1673ffffffffffffffffffffffffffffffffffffffff168152602001600282015481526020016003820160009054906101000a900473ffffffffffffffffffffffffffffffffffffffff1673ffffffffffffffffffffffffffffffffffffffff1673ffffffffffffffffffffffffffffffffffffffff1681525050838581518110612ce6577f4e487b7100000000000000000000000000000000000000000000000000000000600052603260045260246000fd5b6020026020010181905250600184612cfe9190614fc1565b9350505b8080612d0d9061518d565b915050612b59565b5080935050505090565b606060378054612d2e9061512a565b80601f0160208091040260200160405190810160405280929190818152602001828054612d5a9061512a565b8015612da75780601f10612d7c57610100808354040283529160200191612da7565b820191906000526020600020905b815481529060010190602001808311612d8a57829003601f168201915b5050505050905090565b60cb8060000154905081565b600080612dc8613386565b90506000612dd68286613203565b905083811015612e1b576040517f08c379a0000000000000000000000000000000000000000000000000000000008152600401612e1290614d47565b60405180910390fd5b612e28828686840361338e565b60019250505092915050565b600080612e3f613386565b9050612e4c8185856135e5565b600191505092915050565b60cf6020528060005260406000206000915090508060000154908060010160009054906101000a900473ffffffffffffffffffffffffffffffffffffffff16908060020154908060030160009054906101000a900473ffffffffffffffffffffffffffffffffffffffff16905084565b60606000600167ffffffffffffffff811115612f0c577f4e487b7100000000000000000000000000000000000000000000000000000000600052604160045260246000fd5b604051908082528060200260200182016040528015612f4557816020015b612f32613d13565b815260200190600190039081612f2a5790505b509050600060ce600085815260200190815260200160002090508060405180610140016040529081600082015481526020016001820160009054906101000a900473ffffffffffffffffffffffffffffffffffffffff1673ffffffffffffffffffffffffffffffffffffffff1673ffffffffffffffffffffffffffffffffffffffff168152602001600282018054612fdc9061512a565b80601f01602080910402602001604051908101604052809291908181526020018280546130089061512a565b80156130555780601f1061302a57610100808354040283529160200191613055565b820191906000526020600020905b81548152906001019060200180831161303857829003601f168201915b5050505050815260200160038201805461306e9061512a565b80601f016020809104026020016040519081016040528092919081815260200182805461309a9061512a565b80156130e75780601f106130bc576101008083540402835291602001916130e7565b820191906000526020600020905b8154815290600101906020018083116130ca57829003601f168201915b505050505081526020016004820180546131009061512a565b80601f016020809104026020016040519081016040528092919081815260200182805461312c9061512a565b80156131795780601f1061314e57610100808354040283529160200191613179565b820191906000526020600020905b81548152906001019060200180831161315c57829003601f168201915b5050505050815260200160058201548152602001600682015481526020016007820154815260200160088201548152602001600982015481525050826000815181106131ee577f4e487b7100000000000000000000000000000000000000000000000000000000600052603260045260246000fd5b60200260200101819052508192505050919050565b6000603460008473ffffffffffffffffffffffffffffffffffffffff1673ffffffffffffffffffffffffffffffffffffffff16815260200190815260200160002060008373ffffffffffffffffffffffffffffffffffffffff1673ffffffffffffffffffffffffffffffffffffffff16815260200190815260200160002054905092915050565b4260d160008381526020019081526020016000208190555050565b6132ad61388d565b600073ffffffffffffffffffffffffffffffffffffffff168173ffffffffffffffffffffffffffffffffffffffff16141561331d576040517f08c379a000000000000000000000000000000000000000000000000000000000815260040161331490614b67565b60405180910390fd5b6133268161390b565b50565b60008060cc60003373ffffffffffffffffffffffffffffffffffffffff1673ffffffffffffffffffffffffffffffffffffffff16815260200190815260200160002060040154141561337e5760009050613383565b600190505b90565b600033905090565b600073ffffffffffffffffffffffffffffffffffffffff168373ffffffffffffffffffffffffffffffffffffffff1614156133fe576040517f08c379a00000000000000000000000000000000000000000000000000000000081526004016133f590614ce7565b60405180910390fd5b600073ffffffffffffffffffffffffffffffffffffffff168273ffffffffffffffffffffffffffffffffffffffff16141561346e576040517f08c379a000000000000000000000000000000000000000000000000000000000815260040161346590614b87565b60405180910390fd5b80603460008573ffffffffffffffffffffffffffffffffffffffff1673ffffffffffffffffffffffffffffffffffffffff16815260200190815260200160002060008473ffffffffffffffffffffffffffffffffffffffff1673ffffffffffffffffffffffffffffffffffffffff168152602001908152602001600020819055508173ffffffffffffffffffffffffffffffffffffffff168373ffffffffffffffffffffffffffffffffffffffff167f8c5be1e5ebec7d5bd14f71427d1e84f3dd0314c0f7b2291e5b200ac8c7c3b9258360405161354c9190614d67565b60405180910390a3505050565b60006135658484613203565b90507fffffffffffffffffffffffffffffffffffffffffffffffffffffffffffffffff81146135df57818110156135d1576040517f08c379a00000000000000000000000000000000000000000000000000000000081526004016135c890614bc7565b60405180910390fd5b6135de848484840361338e565b5b50505050565b600073ffffffffffffffffffffffffffffffffffffffff168373ffffffffffffffffffffffffffffffffffffffff161415613655576040517f08c379a000000000000000000000000000000000000000000000000000000000815260040161364c90614cc7565b60405180910390fd5b600073ffffffffffffffffffffffffffffffffffffffff168273ffffffffffffffffffffffffffffffffffffffff1614156136c5576040517f08c379a00000000000000000000000000000000000000000000000000000000081526004016136bc90614b27565b60405180910390fd5b6136d0838383613b03565b6000603360008573ffffffffffffffffffffffffffffffffffffffff1673ffffffffffffffffffffffffffffffffffffffff16815260200190815260200160002054905081811015613757576040517f08c379a000000000000000000000000000000000000000000000000000000000815260040161374e90614be7565b60405180910390fd5b818103603360008673ffffffffffffffffffffffffffffffffffffffff1673ffffffffffffffffffffffffffffffffffffffff1681526020019081526020016000208190555081603360008573ffffffffffffffffffffffffffffffffffffffff1673ffffffffffffffffffffffffffffffffffffffff16815260200190815260200160002060008282546137ec9190614fc1565b925050819055508273ffffffffffffffffffffffffffffffffffffffff168473ffffffffffffffffffffffffffffffffffffffff167fddf252ad1be2c89b69c2b068fc378daa952ba7f163c4a11628f55a4df523b3ef846040516138509190614d67565b60405180910390a3613863848484613b08565b50505050565b6001816000016000828254019250508190555050565b600081600001549050919050565b613895613386565b73ffffffffffffffffffffffffffffffffffffffff166138b36125e9565b73ffffffffffffffffffffffffffffffffffffffff1614613909576040517f08c379a000000000000000000000000000000000000000000000000000000000815260040161390090614c87565b60405180910390fd5b565b6000609760009054906101000a900473ffffffffffffffffffffffffffffffffffffffff16905081609760006101000a81548173ffffffffffffffffffffffffffffffffffffffff021916908373ffffffffffffffffffffffffffffffffffffffff1602179055508173ffffffffffffffffffffffffffffffffffffffff168173ffffffffffffffffffffffffffffffffffffffff167f8be0079c531659141344cd1fd0a4f28419497f9722a3daafe3b4186f6b6457e060405160405180910390a35050565b6000808273ffffffffffffffffffffffffffffffffffffffff163b119050919050565b600060019054906101000a900460ff16613a43576040517f08c379a0000000000000000000000000000000000000000000000000000000008152600401613a3a90614d07565b60405180910390fd5b613a4d8282613b0d565b5050565b600060019054906101000a900460ff16613aa0576040517f08c379a0000000000000000000000000000000000000000000000000000000008152600401613a9790614d07565b60405180910390fd5b613aa8613b8e565b565b600060019054906101000a900460ff16613af9576040517f08c379a0000000000000000000000000000000000000000000000000000000008152600401613af090614d07565b60405180910390fd5b613b01613be7565b565b505050565b505050565b600060019054906101000a900460ff16613b5c576040517f08c379a0000000000000000000000000000000000000000000000000000000008152600401613b5390614d07565b60405180910390fd5b8160369080519060200190613b72929190613c48565b508060379080519060200190613b89929190613c48565b505050565b600060019054906101000a900460ff16613bdd576040517f08c379a0000000000000000000000000000000000000000000000000000000008152600401613bd490614d07565b60405180910390fd5b6001606581905550565b600060019054906101000a900460ff16613c36576040517f08c379a0000000000000000000000000000000000000000000000000000000008152600401613c2d90614d07565b60405180910390fd5b613c46613c41613386565b61390b565b565b828054613c549061512a565b90600052602060002090601f016020900481019282613c765760008555613cbd565b82601f10613c8f57805160ff1916838001178555613cbd565b82800160010185558215613cbd579182015b82811115613cbc578251825591602001919060010190613ca1565b5b509050613cca9190613dd0565b5090565b60405180610100016040528060608152602001606081526020016060815260200160608152602001600081526020016060815260200160608152602001600081525090565b60405180610140016040528060008152602001600073ffffffffffffffffffffffffffffffffffffffff16815260200160608152602001606081526020016060815260200160008152602001600081526020016000815260200160008152602001600081525090565b604051806080016040528060008152602001600073ffffffffffffffffffffffffffffffffffffffff16815260200160008152602001600073ffffffffffffffffffffffffffffffffffffffff1681525090565b5b80821115613de9576000816000905550600101613dd1565b5090565b6000613e00613dfb84614eb8565b614e93565b905082815260208101848484011115613e1857600080fd5b613e238482856150e8565b509392505050565b600081359050613e3a816156ac565b92915050565b600081519050613e4f816156c3565b92915050565b600082601f830112613e6657600080fd5b8135613e76848260208601613ded565b91505092915050565b600081359050613e8e816156da565b92915050565b600060208284031215613ea657600080fd5b6000613eb484828501613e2b565b91505092915050565b60008060408385031215613ed057600080fd5b6000613ede85828601613e2b565b9250506020613eef85828601613e2b565b9150509250929050565b600080600060608486031215613f0e57600080fd5b6000613f1c86828701613e2b565b9350506020613f2d86828701613e2b565b9250506040613f3e86828701613e7f565b9150509250925092565b60008060408385031215613f5b57600080fd5b6000613f6985828601613e2b565b9250506020613f7a85828601613e7f565b9150509250929050565b600060208284031215613f9657600080fd5b6000613fa484828501613e40565b91505092915050565b600080600080600080600060e0888a031215613fc857600080fd5b600088013567ffffffffffffffff811115613fe257600080fd5b613fee8a828b01613e55565b975050602088013567ffffffffffffffff81111561400b57600080fd5b6140178a828b01613e55565b965050604088013567ffffffffffffffff81111561403457600080fd5b6140408a828b01613e55565b955050606088013567ffffffffffffffff81111561405d57600080fd5b6140698a828b01613e55565b945050608061407a8a828b01613e7f565b93505060a088013567ffffffffffffffff81111561409757600080fd5b6140a38a828b01613e55565b92505060c088013567ffffffffffffffff8111156140c057600080fd5b6140cc8a828b01613e55565b91505092959891949750929550565b600080600080600060a086880312156140f357600080fd5b600086013567ffffffffffffffff81111561410d57600080fd5b61411988828901613e55565b955050602086013567ffffffffffffffff81111561413657600080fd5b61414288828901613e55565b945050604086013567ffffffffffffffff81111561415f57600080fd5b61416b88828901613e55565b935050606061417c88828901613e7f565b925050608061418d88828901613e7f565b9150509295509295909350565b6000602082840312156141ac57600080fd5b60006141ba84828501613e7f565b91505092915050565b600080604083850312156141d657600080fd5b60006141e485828601613e7f565b92505060206141f585828601613e2b565b9150509250929050565b60008060006060848603121561421457600080fd5b600061422286828701613e7f565b935050602061423386828701613e7f565b925050604061424486828701613e2b565b9150509250925092565b600061425a8383614709565b905092915050565b600061426e83836147f1565b905092915050565b600061428283836148c4565b60808301905092915050565b614297816150a0565b82525050565b6142a68161504b565b82525050565b6142b58161504b565b82525050565b60006142c682614f19565b6142d08185614f6c565b9350836020820285016142e285614ee9565b8060005b8581101561431e57848403895281516142ff858261424e565b945061430a83614f45565b925060208a019950506001810190506142e6565b50829750879550505050505092915050565b600061433b82614f24565b6143458185614f7d565b93508360208202850161435785614ef9565b8060005b8581101561439357848403895281516143748582614262565b945061437f83614f52565b925060208a0199505060018101905061435b565b50829750879550505050505092915050565b60006143b082614f2f565b6143ba8185614f8e565b93506143c583614f09565b8060005b838110156143f65781516143dd8882614276565b97506143e883614f5f565b9250506001810190506143c9565b5085935050505092915050565b61440c8161505d565b82525050565b61441b816150b2565b82525050565b600061442c82614f3a565b6144368185614f9f565b93506144468185602086016150f7565b61444f81615263565b840191505092915050565b600061446582614f3a565b61446f8185614fb0565b935061447f8185602086016150f7565b61448881615263565b840191505092915050565b60006144a0602383614fb0565b91506144ab82615274565b604082019050919050565b60006144c3601b83614fb0565b91506144ce826152c3565b602082019050919050565b60006144e6602683614fb0565b91506144f1826152ec565b604082019050919050565b6000614509602283614fb0565b91506145148261533b565b604082019050919050565b600061452c601083614fb0565b91506145378261538a565b602082019050919050565b600061454f601d83614fb0565b915061455a826153b3565b602082019050919050565b6000614572602683614fb0565b915061457d826153dc565b604082019050919050565b6000614595602083614fb0565b91506145a08261542b565b602082019050919050565b60006145b8600d83614fb0565b91506145c382615454565b602082019050919050565b60006145db602e83614fb0565b91506145e68261547d565b604082019050919050565b60006145fe601283614fb0565b9150614609826154cc565b602082019050919050565b6000614621602083614fb0565b915061462c826154f5565b602082019050919050565b6000614644601483614fb0565b915061464f8261551e565b602082019050919050565b6000614667602583614fb0565b915061467282615547565b604082019050919050565b600061468a602483614fb0565b915061469582615596565b604082019050919050565b60006146ad602b83614fb0565b91506146b8826155e5565b604082019050919050565b60006146d0601f83614fb0565b91506146db82615634565b602082019050919050565b60006146f3602583614fb0565b91506146fe8261565d565b604082019050919050565b6000610140830160008301516147226000860182614919565b506020830151614735602086018261429d565b506040830151848203604086015261474d8282614421565b915050606083015184820360608601526147678282614421565b915050608083015184820360808601526147818282614421565b91505060a083015161479660a0860182614919565b5060c08301516147a960c0860182614919565b5060e08301516147bc60e0860182614919565b506101008301516147d1610100860182614919565b506101208301516147e6610120860182614919565b508091505092915050565b600061010083016000830151848203600086015261480f8282614421565b915050602083015184820360208601526148298282614421565b915050604083015184820360408601526148438282614421565b9150506060830151848203606086015261485d8282614421565b91505060808301516148726080860182614919565b5060a083015184820360a086015261488a8282614421565b91505060c083015184820360c08601526148a48282614421565b91505060e08301516148b960e0860182614919565b508091505092915050565b6080820160008201516148da6000850182614919565b5060208201516148ed602085018261429d565b5060408201516149006040850182614919565b506060820151614913606085018261429d565b50505050565b61492281615089565b82525050565b61493181615089565b82525050565b61494081615093565b82525050565b600060208201905061495b60008301846142ac565b92915050565b6000606082019050614976600083018661428e565b614983602083018561428e565b6149906040830184614928565b949350505050565b60006040820190506149ad600083018561428e565b6149ba6020830184614928565b9392505050565b600060208201905081810360008301526149db81846142bb565b905092915050565b600060208201905081810360008301526149fd8184614330565b905092915050565b60006020820190508181036000830152614a1f81846143a5565b905092915050565b6000602082019050614a3c6000830184614403565b92915050565b6000602082019050614a576000830184614412565b92915050565b60006020820190508181036000830152614a77818461445a565b905092915050565b6000610100820190508181036000830152614a9a818b61445a565b90508181036020830152614aae818a61445a565b90508181036040830152614ac2818961445a565b90508181036060830152614ad6818861445a565b9050614ae56080830187614928565b81810360a0830152614af7818661445a565b905081810360c0830152614b0b818561445a565b9050614b1a60e0830184614928565b9998505050505050505050565b60006020820190508181036000830152614b4081614493565b9050919050565b60006020820190508181036000830152614b60816144b6565b9050919050565b60006020820190508181036000830152614b80816144d9565b9050919050565b60006020820190508181036000830152614ba0816144fc565b9050919050565b60006020820190508181036000830152614bc08161451f565b9050919050565b60006020820190508181036000830152614be081614542565b9050919050565b60006020820190508181036000830152614c0081614565565b9050919050565b60006020820190508181036000830152614c2081614588565b9050919050565b60006020820190508181036000830152614c40816145ab565b9050919050565b60006020820190508181036000830152614c60816145ce565b9050919050565b60006020820190508181036000830152614c80816145f1565b9050919050565b60006020820190508181036000830152614ca081614614565b9050919050565b60006020820190508181036000830152614cc081614637565b9050919050565b60006020820190508181036000830152614ce08161465a565b9050919050565b60006020820190508181036000830152614d008161467d565b9050919050565b60006020820190508181036000830152614d20816146a0565b9050919050565b60006020820190508181036000830152614d40816146c3565b9050919050565b60006020820190508181036000830152614d60816146e6565b9050919050565b6000602082019050614d7c6000830184614928565b92915050565b600061014082019050614d98600083018d614928565b614da5602083018c6142ac565b8181036040830152614db7818b61445a565b90508181036060830152614dcb818a61445a565b90508181036080830152614ddf818961445a565b9050614dee60a0830188614928565b614dfb60c0830187614928565b614e0860e0830186614928565b614e16610100830185614928565b614e24610120830184614928565b9b9a5050505050505050505050565b6000608082019050614e486000830187614928565b614e5560208301866142ac565b614e626040830185614928565b614e6f60608301846142ac565b95945050505050565b6000602082019050614e8d6000830184614937565b92915050565b6000614e9d614eae565b9050614ea9828261515c565b919050565b6000604051905090565b600067ffffffffffffffff821115614ed357614ed2615234565b5b614edc82615263565b9050602081019050919050565b6000819050602082019050919050565b6000819050602082019050919050565b6000819050602082019050919050565b600081519050919050565b600081519050919050565b600081519050919050565b600081519050919050565b6000602082019050919050565b6000602082019050919050565b6000602082019050919050565b600082825260208201905092915050565b600082825260208201905092915050565b600082825260208201905092915050565b600082825260208201905092915050565b600082825260208201905092915050565b6000614fcc82615089565b9150614fd783615089565b9250827fffffffffffffffffffffffffffffffffffffffffffffffffffffffffffffffff0382111561500c5761500b6151d6565b5b828201905092915050565b600061502282615089565b915061502d83615089565b9250828210156150405761503f6151d6565b5b828203905092915050565b600061505682615069565b9050919050565b60008115159050919050565b600073ffffffffffffffffffffffffffffffffffffffff82169050919050565b6000819050919050565b600060ff82169050919050565b60006150ab826150c4565b9050919050565b60006150bd82615093565b9050919050565b60006150cf826150d6565b9050919050565b60006150e182615069565b9050919050565b82818337600083830152505050565b60005b838110156151155780820151818401526020810190506150fa565b83811115615124576000848401525b50505050565b6000600282049050600182168061514257607f821691505b6020821081141561515657615155615205565b5b50919050565b61516582615263565b810181811067ffffffffffffffff8211171561518457615183615234565b5b80604052505050565b600061519882615089565b91507fffffffffffffffffffffffffffffffffffffffffffffffffffffffffffffffff8214156151cb576151ca6151d6565b5b600182019050919050565b7f4e487b7100000000000000000000000000000000000000000000000000000000600052601160045260246000fd5b7f4e487b7100000000000000000000000000000000000000000000000000000000600052602260045260246000fd5b7f4e487b7100000000000000000000000000000000000000000000000000000000600052604160045260246000fd5b6000601f19601f8301169050919050565b7f45524332303a207472616e7366657220746f20746865207a65726f206164647260008201527f6573730000000000000000000000000000000000000000000000000000000000602082015250565b7f596f752061726520616c726561647920726567697374657265642e0000000000600082015250565b7f4f776e61626c653a206e6577206f776e657220697320746865207a65726f206160008201527f6464726573730000000000000000000000000000000000000000000000000000602082015250565b7f45524332303a20617070726f766520746f20746865207a65726f20616464726560008201527f7373000000000000000000000000000000000000000000000000000000000000602082015250565b7f43616d706169676e20666f727a656e2e00000000000000000000000000000000600082015250565b7f45524332303a20696e73756666696369656e7420616c6c6f77616e6365000000600082015250565b7f45524332303a207472616e7366657220616d6f756e742065786365656473206260008201527f616c616e63650000000000000000000000000000000000000000000000000000602082015250565b7f457868617573746564206461696c79207769746864726177616c206c696d6974600082015250565b7f4163636573732044656e69656400000000000000000000000000000000000000600082015250565b7f496e697469616c697a61626c653a20636f6e747261637420697320616c72656160008201527f647920696e697469616c697a6564000000000000000000000000000000000000602082015250565b7f4461696c79205461736b2050656e64696e670000000000000000000000000000600082015250565b7f4f776e61626c653a2063616c6c6572206973206e6f7420746865206f776e6572600082015250565b7f496e73756666696369656e742042616c616e6365000000000000000000000000600082015250565b7f45524332303a207472616e736665722066726f6d20746865207a65726f20616460008201527f6472657373000000000000000000000000000000000000000000000000000000602082015250565b7f45524332303a20617070726f76652066726f6d20746865207a65726f2061646460008201527f7265737300000000000000000000000000000000000000000000000000000000602082015250565b7f496e697469616c697a61626c653a20636f6e7472616374206973206e6f74206960008201527f6e697469616c697a696e67000000000000000000000000000000000000000000602082015250565b7f5265656e7472616e637947756172643a207265656e7472616e742063616c6c00600082015250565b7f45524332303a2064656372656173656420616c6c6f77616e63652062656c6f7760008201527f207a65726f000000000000000000000000000000000000000000000000000000602082015250565b6156b58161504b565b81146156c057600080fd5b50565b6156cc8161505d565b81146156d757600080fd5b50565b6156e381615089565b81146156ee57600080fd5b5056fea2646970667358221220d589ebac770cc99878f34949344d0786b66ed6793f5a3f00ba7fa4e9df64786364736f6c63430008020033",
  "linkReferences": {},
  "deployedLinkReferences": {}
}