{
  "_format": "hh-sol-artifact-1",
  "contractName": "Growachild",
  "sourceName": "contracts/Growachild.sol",
  "abi": [
    {
      "anonymous": false,
      "inputs": [
        {
          "indexed": true,
          "internalType": "address",
          "name": "owner",
          "type": "address"
        },
        {
          "indexed": true,
          "internalType": "address",
          "name": "spender",
          "type": "address"
        },
        {
          "indexed": false,
          "internalType": "uint256",
          "name": "value",
          "type": "uint256"
        }
      ],
      "name": "Approval",
      "type": "event"
    },
    {
      "anonymous": false,
      "inputs": [
        {
          "indexed": false,
          "internalType": "uint8",
          "name": "version",
          "type": "uint8"
        }
      ],
      "name": "Initialized",
      "type": "event"
    },
    {
      "anonymous": false,
      "inputs": [
        {
          "indexed": true,
          "internalType": "address",
          "name": "previousOwner",
          "type": "address"
        },
        {
          "indexed": true,
          "internalType": "address",
          "name": "newOwner",
          "type": "address"
        }
      ],
      "name": "OwnershipTransferred",
      "type": "event"
    },
    {
      "anonymous": false,
      "inputs": [
        {
          "indexed": true,
          "internalType": "address",
          "name": "from",
          "type": "address"
        },
        {
          "indexed": true,
          "internalType": "address",
          "name": "to",
          "type": "address"
        },
        {
          "indexed": false,
          "internalType": "uint256",
          "name": "value",
          "type": "uint256"
        }
      ],
      "name": "Transfer",
      "type": "event"
    },
    {
      "inputs": [],
      "name": "_campaignID",
      "outputs": [
        {
          "internalType": "uint256",
          "name": "_value",
          "type": "uint256"
        }
      ],
      "stateMutability": "view",
      "type": "function"
    },
    {
      "inputs": [],
      "name": "_userid",
      "outputs": [
        {
          "internalType": "uint256",
          "name": "_value",
          "type": "uint256"
        }
      ],
      "stateMutability": "view",
      "type": "function"
    },
    {
      "inputs": [
        {
          "internalType": "address",
          "name": "owner",
          "type": "address"
        },
        {
          "internalType": "address",
          "name": "spender",
          "type": "address"
        }
      ],
      "name": "allowance",
      "outputs": [
        {
          "internalType": "uint256",
          "name": "",
          "type": "uint256"
        }
      ],
      "stateMutability": "view",
      "type": "function"
    },
    {
      "inputs": [
        {
          "internalType": "address",
          "name": "spender",
          "type": "address"
        },
        {
          "internalType": "uint256",
          "name": "amount",
          "type": "uint256"
        }
      ],
      "name": "approve",
      "outputs": [
        {
          "internalType": "bool",
          "name": "",
          "type": "bool"
        }
      ],
      "stateMutability": "nonpayable",
      "type": "function"
    },
    {
      "inputs": [
        {
          "internalType": "address",
          "name": "account",
          "type": "address"
        }
      ],
      "name": "balanceOf",
      "outputs": [
        {
          "internalType": "uint256",
          "name": "",
          "type": "uint256"
        }
      ],
      "stateMutability": "view",
      "type": "function"
    },
    {
      "inputs": [
        {
          "internalType": "uint256",
          "name": "",
          "type": "uint256"
        }
      ],
      "name": "campaignDetails",
      "outputs": [
        {
          "internalType": "uint256",
          "name": "campaignID",
          "type": "uint256"
        },
        {
          "internalType": "address",
          "name": "ngo",
          "type": "address"
        },
        {
          "internalType": "string",
          "name": "campaignPic",
          "type": "string"
        },
        {
          "internalType": "string",
          "name": "name",
          "type": "string"
        },
        {
          "internalType": "string",
          "name": "description",
          "type": "string"
        },
        {
          "internalType": "uint256",
          "name": "noOfBeneficiaries",
          "type": "uint256"
        },
        {
          "internalType": "uint256",
          "name": "dailyFundNeed",
          "type": "uint256"
        },
        {
          "internalType": "uint256",
          "name": "availableBalance",
          "type": "uint256"
        },
        {
          "internalType": "uint256",
          "name": "totalReceived",
          "type": "uint256"
        },
        {
          "internalType": "uint256",
          "name": "totalUsed",
          "type": "uint256"
        }
      ],
      "stateMutability": "view",
      "type": "function"
    },
    {
      "inputs": [],
      "name": "checkRegistration",
      "outputs": [
        {
          "internalType": "bool",
          "name": "",
          "type": "bool"
        }
      ],
      "stateMutability": "view",
      "type": "function"
    },
    {
      "inputs": [
        {
          "internalType": "uint256",
          "name": "campId",
          "type": "uint256"
        }
      ],
      "name": "completedTask",
      "outputs": [],
      "stateMutability": "nonpayable",
      "type": "function"
    },
    {
      "inputs": [],
      "name": "decimals",
      "outputs": [
        {
          "internalType": "uint8",
          "name": "",
          "type": "uint8"
        }
      ],
      "stateMutability": "view",
      "type": "function"
    },
    {
      "inputs": [
        {
          "internalType": "address",
          "name": "spender",
          "type": "address"
        },
        {
          "internalType": "uint256",
          "name": "subtractedValue",
          "type": "uint256"
        }
      ],
      "name": "decreaseAllowance",
      "outputs": [
        {
          "internalType": "bool",
          "name": "",
          "type": "bool"
        }
      ],
      "stateMutability": "nonpayable",
      "type": "function"
    },
    {
      "inputs": [
        {
          "internalType": "uint256",
          "name": "_ids",
          "type": "uint256"
        },
        {
          "internalType": "uint256",
          "name": "amount",
          "type": "uint256"
        },
        {
          "internalType": "address",
          "name": "_token",
          "type": "address"
        }
      ],
      "name": "deposit",
      "outputs": [],
      "stateMutability": "payable",
      "type": "function"
    },
    {
      "inputs": [
        {
          "internalType": "uint256",
          "name": "campainId",
          "type": "uint256"
        }
      ],
      "name": "freezeUnfreezeCampaign",
      "outputs": [],
      "stateMutability": "nonpayable",
      "type": "function"
    },
    {
      "inputs": [],
      "name": "getAllCampaigns",
      "outputs": [
        {
          "components": [
            {
              "internalType": "uint256",
              "name": "campaignID",
              "type": "uint256"
            },
            {
              "internalType": "address",
              "name": "ngo",
              "type": "address"
            },
            {
              "internalType": "string",
              "name": "campaignPic",
              "type": "string"
            },
            {
              "internalType": "string",
              "name": "name",
              "type": "string"
            },
            {
              "internalType": "string",
              "name": "description",
              "type": "string"
            },
            {
              "internalType": "uint256",
              "name": "noOfBeneficiaries",
              "type": "uint256"
            },
            {
              "internalType": "uint256",
              "name": "dailyFundNeed",
              "type": "uint256"
            },
            {
              "internalType": "uint256",
              "name": "availableBalance",
              "type": "uint256"
            },
            {
              "internalType": "uint256",
              "name": "totalReceived",
              "type": "uint256"
            },
            {
              "internalType": "uint256",
              "name": "totalUsed",
              "type": "uint256"
            }
          ],
          "internalType": "struct Growachild.Campaign[]",
          "name": "",
          "type": "tuple[]"
        }
      ],
      "stateMutability": "view",
      "type": "function"
    },
    {
      "inputs": [
        {
          "internalType": "uint256",
          "name": "id",
          "type": "uint256"
        }
      ],
      "name": "getCampaignDetails",
      "outputs": [
        {
          "components": [
            {
              "internalType": "uint256",
              "name": "campaignID",
              "type": "uint256"
            },
            {
              "internalType": "address",
              "name": "ngo",
              "type": "address"
            },
            {
              "internalType": "string",
              "name": "campaignPic",
              "type": "string"
            },
            {
              "internalType": "string",
              "name": "name",
              "type": "string"
            },
            {
              "internalType": "string",
              "name": "description",
              "type": "string"
            },
            {
              "internalType": "uint256",
              "name": "noOfBeneficiaries",
              "type": "uint256"
            },
            {
              "internalType": "uint256",
              "name": "dailyFundNeed",
              "type": "uint256"
            },
            {
              "internalType": "uint256",
              "name": "availableBalance",
              "type": "uint256"
            },
            {
              "internalType": "uint256",
              "name": "totalReceived",
              "type": "uint256"
            },
            {
              "internalType": "uint256",
              "name": "totalUsed",
              "type": "uint256"
            }
          ],
          "internalType": "struct Growachild.Campaign[]",
          "name": "",
          "type": "tuple[]"
        }
      ],
      "stateMutability": "view",
      "type": "function"
    },
    {
      "inputs": [],
      "name": "getMyCampaigns",
      "outputs": [
        {
          "components": [
            {
              "internalType": "uint256",
              "name": "campaignID",
              "type": "uint256"
            },
            {
              "internalType": "address",
              "name": "ngo",
              "type": "address"
            },
            {
              "internalType": "string",
              "name": "campaignPic",
              "type": "string"
            },
            {
              "internalType": "string",
              "name": "name",
              "type": "string"
            },
            {
              "internalType": "string",
              "name": "description",
              "type": "string"
            },
            {
              "internalType": "uint256",
              "name": "noOfBeneficiaries",
              "type": "uint256"
            },
            {
              "internalType": "uint256",
              "name": "dailyFundNeed",
              "type": "uint256"
            },
            {
              "internalType": "uint256",
              "name": "availableBalance",
              "type": "uint256"
            },
            {
              "internalType": "uint256",
              "name": "totalReceived",
              "type": "uint256"
            },
            {
              "internalType": "uint256",
              "name": "totalUsed",
              "type": "uint256"
            }
          ],
          "internalType": "struct Growachild.Campaign[]",
          "name": "",
          "type": "tuple[]"
        }
      ],
      "stateMutability": "view",
      "type": "function"
    },
    {
      "inputs": [],
      "name": "getMyDonations",
      "outputs": [
        {
          "components": [
            {
              "internalType": "uint256",
              "name": "campaignID",
              "type": "uint256"
            },
            {
              "internalType": "address",
              "name": "userAddress",
              "type": "address"
            },
            {
              "internalType": "uint256",
              "name": "depositAmount",
              "type": "uint256"
            },
            {
              "internalType": "address",
              "name": "ngoAddress",
              "type": "address"
            }
          ],
          "internalType": "struct Growachild.Users[]",
          "name": "",
          "type": "tuple[]"
        }
      ],
      "stateMutability": "view",
      "type": "function"
    },
    {
      "inputs": [
        {
          "internalType": "address",
          "name": "_addr",
          "type": "address"
        }
      ],
      "name": "getNGODetails",
      "outputs": [
        {
          "components": [
            {
              "internalType": "string",
              "name": "name",
              "type": "string"
            },
            {
              "internalType": "string",
              "name": "description",
              "type": "string"
            },
            {
              "internalType": "string",
              "name": "registrationNo",
              "type": "string"
            },
            {
              "internalType": "string",
              "name": "registeredByGovt",
              "type": "string"
            },
            {
              "internalType": "uint256",
              "name": "serviceSince",
              "type": "uint256"
            },
            {
              "internalType": "string",
              "name": "ngoAddress",
              "type": "string"
            },
            {
              "internalType": "string",
              "name": "country",
              "type": "string"
            },
            {
              "internalType": "uint256",
              "name": "campaignCount",
              "type": "uint256"
            }
          ],
          "internalType": "struct Growachild.NGO[]",
          "name": "",
          "type": "tuple[]"
        }
      ],
      "stateMutability": "view",
      "type": "function"
    },
    {
      "inputs": [],
      "name": "getTotalKidsCount",
      "outputs": [
        {
          "internalType": "uint256",
          "name": "",
          "type": "uint256"
        }
      ],
      "stateMutability": "view",
      "type": "function"
    },
    {
      "inputs": [
        {
          "internalType": "address",
          "name": "spender",
          "type": "address"
        },
        {
          "internalType": "uint256",
          "name": "addedValue",
          "type": "uint256"
        }
      ],
      "name": "increaseAllowance",
      "outputs": [
        {
          "internalType": "bool",
          "name": "",
          "type": "bool"
        }
      ],
      "stateMutability": "nonpayable",
      "type": "function"
    },
    {
      "inputs": [
        {
          "internalType": "contract GAC",
          "name": "gacToken",
          "type": "address"
        }
      ],
      "name": "initialize",
      "outputs": [],
      "stateMutability": "nonpayable",
      "type": "function"
    },
    {
      "inputs": [],
      "name": "name",
      "outputs": [
        {
          "internalType": "string",
          "name": "",
          "type": "string"
        }
      ],
      "stateMutability": "view",
      "type": "function"
    },
    {
      "inputs": [
        {
          "internalType": "address",
          "name": "",
          "type": "address"
        }
      ],
      "name": "ngoDetails",
      "outputs": [
        {
          "internalType": "string",
          "name": "name",
          "type": "string"
        },
        {
          "internalType": "string",
          "name": "description",
          "type": "string"
        },
        {
          "internalType": "string",
          "name": "registrationNo",
          "type": "string"
        },
        {
          "internalType": "string",
          "name": "registeredByGovt",
          "type": "string"
        },
        {
          "internalType": "uint256",
          "name": "serviceSince",
          "type": "uint256"
        },
        {
          "internalType": "string",
          "name": "ngoAddress",
          "type": "string"
        },
        {
          "internalType": "string",
          "name": "country",
          "type": "string"
        },
        {
          "internalType": "uint256",
          "name": "campaignCount",
          "type": "uint256"
        }
      ],
      "stateMutability": "view",
      "type": "function"
    },
    {
      "inputs": [],
      "name": "owner",
      "outputs": [
        {
          "internalType": "address",
          "name": "",
          "type": "address"
        }
      ],
      "stateMutability": "view",
      "type": "function"
    },
    {
      "inputs": [],
      "name": "refiToken",
      "outputs": [
        {
          "internalType": "contract GAC",
          "name": "",
          "type": "address"
        }
      ],
      "stateMutability": "view",
      "type": "function"
    },
    {
      "inputs": [
        {
          "internalType": "string",
          "name": "_name",
          "type": "string"
        },
        {
          "internalType": "string",
          "name": "_campaignPic",
          "type": "string"
        },
        {
          "internalType": "string",
          "name": "_description",
          "type": "string"
        },
        {
          "internalType": "uint256",
          "name": "_noOfBeneficiaries",
          "type": "uint256"
        },
        {
          "internalType": "uint256",
          "name": "_dailyFundNeed",
          "type": "uint256"
        }
      ],
      "name": "registerCampign",
      "outputs": [],
      "stateMutability": "nonpayable",
      "type": "function"
    },
    {
      "inputs": [
        {
          "internalType": "string",
          "name": "_name",
          "type": "string"
        },
        {
          "internalType": "string",
          "name": "_description",
          "type": "string"
        },
        {
          "internalType": "string",
          "name": "_registrationNo",
          "type": "string"
        },
        {
          "internalType": "string",
          "name": "_registeredByGovt",
          "type": "string"
        },
        {
          "internalType": "uint256",
          "name": "_serviceSince",
          "type": "uint256"
        },
        {
          "internalType": "string",
          "name": "ngoAddress",
          "type": "string"
        },
        {
          "internalType": "string",
          "name": "_country",
          "type": "string"
        }
      ],
      "name": "registerNGO",
      "outputs": [],
      "stateMutability": "nonpayable",
      "type": "function"
    },
    {
      "inputs": [],
      "name": "renounceOwnership",
      "outputs": [],
      "stateMutability": "nonpayable",
      "type": "function"
    },
    {
      "inputs": [],
      "name": "symbol",
      "outputs": [
        {
          "internalType": "string",
          "name": "",
          "type": "string"
        }
      ],
      "stateMutability": "view",
      "type": "function"
    },
    {
      "inputs": [],
      "name": "totalSupply",
      "outputs": [
        {
          "internalType": "uint256",
          "name": "",
          "type": "uint256"
        }
      ],
      "stateMutability": "view",
      "type": "function"
    },
    {
      "inputs": [
        {
          "internalType": "address",
          "name": "to",
          "type": "address"
        },
        {
          "internalType": "uint256",
          "name": "amount",
          "type": "uint256"
        }
      ],
      "name": "transfer",
      "outputs": [
        {
          "internalType": "bool",
          "name": "",
          "type": "bool"
        }
      ],
      "stateMutability": "nonpayable",
      "type": "function"
    },
    {
      "inputs": [
        {
          "internalType": "address",
          "name": "from",
          "type": "address"
        },
        {
          "internalType": "address",
          "name": "to",
          "type": "address"
        },
        {
          "internalType": "uint256",
          "name": "amount",
          "type": "uint256"
        }
      ],
      "name": "transferFrom",
      "outputs": [
        {
          "internalType": "bool",
          "name": "",
          "type": "bool"
        }
      ],
      "stateMutability": "nonpayable",
      "type": "function"
    },
    {
      "inputs": [
        {
          "internalType": "address",
          "name": "newOwner",
          "type": "address"
        }
      ],
      "name": "transferOwnership",
      "outputs": [],
      "stateMutability": "nonpayable",
      "type": "function"
    },
    {
      "inputs": [
        {
          "internalType": "uint256",
          "name": "",
          "type": "uint256"
        }
      ],
      "name": "userDetails",
      "outputs": [
        {
          "internalType": "uint256",
          "name": "campaignID",
          "type": "uint256"
        },
        {
          "internalType": "address",
          "name": "userAddress",
          "type": "address"
        },
        {
          "internalType": "uint256",
          "name": "depositAmount",
          "type": "uint256"
        },
        {
          "internalType": "address",
          "name": "ngoAddress",
          "type": "address"
        }
      ],
      "stateMutability": "view",
      "type": "function"
    },
    {
      "inputs": [
        {
          "internalType": "uint256",
          "name": "campainId",
          "type": "uint256"
        },
        {
          "internalType": "address",
          "name": "_token",
          "type": "address"
        }
      ],
      "name": "withdrawDailyFund",
      "outputs": [],
      "stateMutability": "nonpayable",
      "type": "function"
    }
  ],
  "bytecode": "0x608060405234801561001057600080fd5b5061596580620000216000396000f3fe6080604052600436106101f95760003560e01c80638da5cb5b1161010d578063a9059cbb116100a0578063d993de621161006f578063d993de6214610777578063dd62ed3e146107b4578063ed454764146107f1578063f2fde38b1461081a578063fd1b210014610843576101f9565b8063a9059cbb146106a6578063a9cad37b146106e3578063b244665014610723578063c4d66de81461074e576101f9565b806390e4a130116100dc57806390e4a130146105e857806395d89b41146106135780639d7bf4bf1461063e578063a457c2d714610669576101f9565b80638da5cb5b1461054d5780638dbdbe6d146105785780638e53a762146105945780638f526bc2146105bd576101f9565b8063313ce5671161019057806370a082311161015f57806370a0823114610466578063715018a6146104a3578063734d78c5146104ba57806382bea0ca146104f757806386cdf60414610522576101f9565b8063313ce567146103aa57806339509351146103d55780634ed084651461041257806352d300a11461043d576101f9565b806318160ddd116101cc57806318160ddd146102f057806323b872dd1461031b57806326509bb1146103585780632c72706614610381576101f9565b80630131bc50146101fe57806306fdde0314610244578063095ea7b31461026f57806314140cdf146102ac575b600080fd5b34801561020a57600080fd5b5061022560048036038101906102209190614317565b61086e565b60405161023b9a99989796959493929190614f61565b60405180910390f35b34801561025057600080fd5b50610259610a7a565b6040516102669190614c3c565b60405180910390f35b34801561027b57600080fd5b506102966004803603810190610291919061409c565b610b0c565b6040516102a39190614beb565b60405180910390f35b3480156102b857600080fd5b506102d360048036038101906102ce9190613fe8565b610b2f565b6040516102e7989796959493929190614c5e565b60405180910390f35b3480156102fc57600080fd5b50610305610ea7565b6040516103129190614f46565b60405180910390f35b34801561032757600080fd5b50610342600480360381019061033d919061404d565b610eb1565b60405161034f9190614beb565b60405180910390f35b34801561036457600080fd5b5061037f600480360381019061037a919061412a565b610ee0565b005b34801561038d57600080fd5b506103a860048036038101906103a39190614340565b611129565b005b3480156103b657600080fd5b506103bf61156f565b6040516103cc9190615057565b60405180910390f35b3480156103e157600080fd5b506103fc60048036038101906103f7919061409c565b611578565b6040516104099190614beb565b60405180910390f35b34801561041e57600080fd5b506104276115af565b6040516104349190614f46565b60405180910390f35b34801561044957600080fd5b50610464600480360381019061045f9190614258565b6115b9565b005b34801561047257600080fd5b5061048d60048036038101906104889190613fe8565b61181f565b60405161049a9190614f46565b60405180910390f35b3480156104af57600080fd5b506104b8611868565b005b3480156104c657600080fd5b506104e160048036038101906104dc9190613fe8565b61187c565b6040516104ee9190614ba7565b60405180910390f35b34801561050357600080fd5b5061050c611d1c565b6040516105199190614b85565b60405180910390f35b34801561052e57600080fd5b50610537612149565b6040516105449190614b85565b60405180910390f35b34801561055957600080fd5b506105626124c3565b60405161056f9190614ae1565b60405180910390f35b610592600480360381019061058d919061437c565b6124ed565b005b3480156105a057600080fd5b506105bb60048036038101906105b69190614317565b612973565b005b3480156105c957600080fd5b506105d2612a20565b6040516105df9190614f46565b60405180910390f35b3480156105f457600080fd5b506105fd612a2c565b60405161060a9190614bc9565b60405180910390f35b34801561061f57600080fd5b50610628612c88565b6040516106359190614c3c565b60405180910390f35b34801561064a57600080fd5b50610653612d1a565b6040516106609190614f46565b60405180910390f35b34801561067557600080fd5b50610690600480360381019061068b919061409c565b612d26565b60405161069d9190614beb565b60405180910390f35b3480156106b257600080fd5b506106cd60048036038101906106c8919061409c565b612d9d565b6040516106da9190614beb565b60405180910390f35b3480156106ef57600080fd5b5061070a60048036038101906107059190614317565b612dc0565b60405161071a9493929190615012565b60405180910390f35b34801561072f57600080fd5b50610738612e30565b6040516107459190614c06565b60405180910390f35b34801561075a57600080fd5b5061077560048036038101906107709190614101565b612e56565b005b34801561078357600080fd5b5061079e60048036038101906107999190614317565b613006565b6040516107ab9190614b85565b60405180910390f35b3480156107c057600080fd5b506107db60048036038101906107d69190614011565b613342565b6040516107e89190614f46565b60405180910390f35b3480156107fd57600080fd5b5061081860048036038101906108139190614317565b6133c9565b005b34801561082657600080fd5b50610841600480360381019061083c9190613fe8565b6133e4565b005b34801561084f57600080fd5b50610858613468565b6040516108659190614beb565b60405180910390f35b60cf6020528060005260406000206000915090508060000154908060010160009054906101000a900473ffffffffffffffffffffffffffffffffffffffff16908060020180546108bd90615351565b80601f01602080910402602001604051908101604052809291908181526020018280546108e990615351565b80156109365780601f1061090b57610100808354040283529160200191610936565b820191906000526020600020905b81548152906001019060200180831161091957829003601f168201915b50505050509080600301805461094b90615351565b80601f016020809104026020016040519081016040528092919081815260200182805461097790615351565b80156109c45780601f10610999576101008083540402835291602001916109c4565b820191906000526020600020905b8154815290600101906020018083116109a757829003601f168201915b5050505050908060040180546109d990615351565b80601f0160208091040260200160405190810160405280929190818152602001828054610a0590615351565b8015610a525780601f10610a2757610100808354040283529160200191610a52565b820191906000526020600020905b815481529060010190602001808311610a3557829003601f168201915b505050505090806005015490806006015490806007015490806008015490806009015490508a565b606060368054610a8990615351565b80601f0160208091040260200160405190810160405280929190818152602001828054610ab590615351565b8015610b025780601f10610ad757610100808354040283529160200191610b02565b820191906000526020600020905b815481529060010190602001808311610ae557829003601f168201915b5050505050905090565b600080610b176134c5565b9050610b248185856134cd565b600191505092915050565b60cd602052806000526040600020600091509050806000018054610b5290615351565b80601f0160208091040260200160405190810160405280929190818152602001828054610b7e90615351565b8015610bcb5780601f10610ba057610100808354040283529160200191610bcb565b820191906000526020600020905b815481529060010190602001808311610bae57829003601f168201915b505050505090806001018054610be090615351565b80601f0160208091040260200160405190810160405280929190818152602001828054610c0c90615351565b8015610c595780601f10610c2e57610100808354040283529160200191610c59565b820191906000526020600020905b815481529060010190602001808311610c3c57829003601f168201915b505050505090806002018054610c6e90615351565b80601f0160208091040260200160405190810160405280929190818152602001828054610c9a90615351565b8015610ce75780601f10610cbc57610100808354040283529160200191610ce7565b820191906000526020600020905b815481529060010190602001808311610cca57829003601f168201915b505050505090806003018054610cfc90615351565b80601f0160208091040260200160405190810160405280929190818152602001828054610d2890615351565b8015610d755780601f10610d4a57610100808354040283529160200191610d75565b820191906000526020600020905b815481529060010190602001808311610d5857829003601f168201915b505050505090806004015490806005018054610d9090615351565b80601f0160208091040260200160405190810160405280929190818152602001828054610dbc90615351565b8015610e095780601f10610dde57610100808354040283529160200191610e09565b820191906000526020600020905b815481529060010190602001808311610dec57829003601f168201915b505050505090806006018054610e1e90615351565b80601f0160208091040260200160405190810160405280929190818152602001828054610e4a90615351565b8015610e975780601f10610e6c57610100808354040283529160200191610e97565b820191906000526020600020905b815481529060010190602001808311610e7a57829003601f168201915b5050505050908060070154905088565b6000603554905090565b600080610ebc6134c5565b9050610ec9858285613698565b610ed4858585613724565b60019150509392505050565b60026065541415610f26576040517f08c379a0000000000000000000000000000000000000000000000000000000008152600401610f1d90614f06565b60405180910390fd5b6002606581905550610f36613468565b15610f76576040517f08c379a0000000000000000000000000000000000000000000000000000000008152600401610f6d90614d26565b60405180910390fd5b604051806101000160405280888152602001878152602001868152602001858152602001848152602001838152602001828152602001600081525060cd60003373ffffffffffffffffffffffffffffffffffffffff1673ffffffffffffffffffffffffffffffffffffffff168152602001908152602001600020600082015181600001908051906020019061100c929190613d87565b506020820151816001019080519060200190611029929190613d87565b506040820151816002019080519060200190611046929190613d87565b506060820151816003019080519060200190611063929190613d87565b506080820151816004015560a082015181600501908051906020019061108a929190613d87565b5060c08201518160060190805190602001906110a7929190613d87565b5060e0820151816007015590505060ce339080600181540180825580915050600190039060005260206000200160009091909190916101000a81548173ffffffffffffffffffffffffffffffffffffffff021916908373ffffffffffffffffffffffffffffffffffffffff160217905550600160658190555050505050505050565b8160d1600082815260200190815260200160002060009054906101000a900460ff1661118a576040517f08c379a000000000000000000000000000000000000000000000000000000000815260040161118190614d86565b60405180910390fd5b60cf600084815260200190815260200160002060010160009054906101000a900473ffffffffffffffffffffffffffffffffffffffff1673ffffffffffffffffffffffffffffffffffffffff163373ffffffffffffffffffffffffffffffffffffffff161461122e576040517f08c379a000000000000000000000000000000000000000000000000000000000815260040161122590614e06565b60405180910390fd5b600060cf60008581526020019081526020016000206007015411611287576040517f08c379a000000000000000000000000000000000000000000000000000000000815260040161127e90614e86565b60405180910390fd5b620151804261129691906151f6565b60d260008581526020019081526020016000205410156112eb576040517f08c379a00000000000000000000000000000000000000000000000000000000081526004016112e290614e46565b60405180910390fd5b62015180426112fa91906151f6565b60d36000858152602001908152602001600020541061134e576040517f08c379a000000000000000000000000000000000000000000000000000000000815260040161134590614de6565b60405180910390fd5b600060cf6000858152602001908152602001600020600601549050600060cf60008681526020019081526020016000206007015490504260d3600087815260200190815260200160002081905550808211611490578160cf600087815260200190815260200160002060070160008282546113c991906151f6565b925050819055508160cf600087815260200190815260200160002060090160008282546113f691906151a0565b925050819055508373ffffffffffffffffffffffffffffffffffffffff1663a9059cbb33846040518363ffffffff1660e01b8152600401611438929190614b5c565b602060405180830381600087803b15801561145257600080fd5b505af1158015611466573d6000803e3d6000fd5b505050506040513d601f19601f8201168201806040525081019061148a91906140d8565b50611568565b600060cf6000878152602001908152602001600020600701819055508060cf600087815260200190815260200160002060090160008282546114d291906151a0565b925050819055508373ffffffffffffffffffffffffffffffffffffffff1663a9059cbb33836040518363ffffffff1660e01b8152600401611514929190614b5c565b602060405180830381600087803b15801561152e57600080fd5b505af1158015611542573d6000803e3d6000fd5b505050506040513d601f19601f8201168201806040525081019061156691906140d8565b505b5050505050565b60006012905090565b6000806115836134c5565b90506115a48185856115958589613342565b61159f91906151a0565b6134cd565b600191505092915050565b600060c954905090565b600260655414156115ff576040517f08c379a00000000000000000000000000000000000000000000000000000000081526004016115f690614f06565b60405180910390fd5b600260658190555061161160ca6139a8565b600061161d60ca6139be565b90506040518061014001604052808281526020013373ffffffffffffffffffffffffffffffffffffffff1681526020018681526020018781526020018581526020018481526020018381526020016000815260200160008152602001600081525060cf60008381526020019081526020016000206000820151816000015560208201518160010160006101000a81548173ffffffffffffffffffffffffffffffffffffffff021916908373ffffffffffffffffffffffffffffffffffffffff16021790555060408201518160020190805190602001906116fe929190613d87565b50606082015181600301908051906020019061171b929190613d87565b506080820151816004019080519060200190611738929190613d87565b5060a0820151816005015560c0820151816006015560e0820151816007015561010082015181600801556101208201518160090155905050600160cd60003373ffffffffffffffffffffffffffffffffffffffff1673ffffffffffffffffffffffffffffffffffffffff16815260200190815260200160002060070160008282546117c391906151a0565b925050819055508260c960008282546117dc91906151a0565b92505081905550600160d1600083815260200190815260200160002060006101000a81548160ff0219169083151502179055505060016065819055505050505050565b6000603360008373ffffffffffffffffffffffffffffffffffffffff1673ffffffffffffffffffffffffffffffffffffffff168152602001908152602001600020549050919050565b6118706139cc565b61187a6000613a4a565b565b60606000600167ffffffffffffffff8111156118c1577f4e487b7100000000000000000000000000000000000000000000000000000000600052604160045260246000fd5b6040519080825280602002602001820160405280156118fa57816020015b6118e7613e0d565b8152602001906001900390816118df5790505b509050600060cd60008573ffffffffffffffffffffffffffffffffffffffff1673ffffffffffffffffffffffffffffffffffffffff1681526020019081526020016000209050806040518061010001604052908160008201805461195d90615351565b80601f016020809104026020016040519081016040528092919081815260200182805461198990615351565b80156119d65780601f106119ab576101008083540402835291602001916119d6565b820191906000526020600020905b8154815290600101906020018083116119b957829003601f168201915b505050505081526020016001820180546119ef90615351565b80601f0160208091040260200160405190810160405280929190818152602001828054611a1b90615351565b8015611a685780601f10611a3d57610100808354040283529160200191611a68565b820191906000526020600020905b815481529060010190602001808311611a4b57829003601f168201915b50505050508152602001600282018054611a8190615351565b80601f0160208091040260200160405190810160405280929190818152602001828054611aad90615351565b8015611afa5780601f10611acf57610100808354040283529160200191611afa565b820191906000526020600020905b815481529060010190602001808311611add57829003601f168201915b50505050508152602001600382018054611b1390615351565b80601f0160208091040260200160405190810160405280929190818152602001828054611b3f90615351565b8015611b8c5780601f10611b6157610100808354040283529160200191611b8c565b820191906000526020600020905b815481529060010190602001808311611b6f57829003601f168201915b5050505050815260200160048201548152602001600582018054611baf90615351565b80601f0160208091040260200160405190810160405280929190818152602001828054611bdb90615351565b8015611c285780601f10611bfd57610100808354040283529160200191611c28565b820191906000526020600020905b815481529060010190602001808311611c0b57829003601f168201915b50505050508152602001600682018054611c4190615351565b80601f0160208091040260200160405190810160405280929190818152602001828054611c6d90615351565b8015611cba5780601f10611c8f57610100808354040283529160200191611cba565b820191906000526020600020905b815481529060010190602001808311611c9d57829003601f168201915b5050505050815260200160078201548152505082600081518110611d07577f4e487b7100000000000000000000000000000000000000000000000000000000600052603260045260246000fd5b60200260200101819052508192505050919050565b6060600060cd60003373ffffffffffffffffffffffffffffffffffffffff1673ffffffffffffffffffffffffffffffffffffffff1681526020019081526020016000206007015490506000611d7160ca6139be565b90506000808367ffffffffffffffff811115611db6577f4e487b7100000000000000000000000000000000000000000000000000000000600052604160045260246000fd5b604051908082528060200260200182016040528015611def57816020015b611ddc613e52565b815260200190600190039081611dd45790505b5090506000600190505b83811161213e573373ffffffffffffffffffffffffffffffffffffffff1660cf600083815260200190815260200160002060010160009054906101000a900473ffffffffffffffffffffffffffffffffffffffff1673ffffffffffffffffffffffffffffffffffffffff16141561212b57600060cf600083815260200190815260200160002090508060405180610140016040529081600082015481526020016001820160009054906101000a900473ffffffffffffffffffffffffffffffffffffffff1673ffffffffffffffffffffffffffffffffffffffff1673ffffffffffffffffffffffffffffffffffffffff168152602001600282018054611efe90615351565b80601f0160208091040260200160405190810160405280929190818152602001828054611f2a90615351565b8015611f775780601f10611f4c57610100808354040283529160200191611f77565b820191906000526020600020905b815481529060010190602001808311611f5a57829003601f168201915b50505050508152602001600382018054611f9090615351565b80601f0160208091040260200160405190810160405280929190818152602001828054611fbc90615351565b80156120095780601f10611fde57610100808354040283529160200191612009565b820191906000526020600020905b815481529060010190602001808311611fec57829003601f168201915b5050505050815260200160048201805461202290615351565b80601f016020809104026020016040519081016040528092919081815260200182805461204e90615351565b801561209b5780601f106120705761010080835404028352916020019161209b565b820191906000526020600020905b81548152906001019060200180831161207e57829003601f168201915b505050505081526020016005820154815260200160068201548152602001600782015481526020016008820154815260200160098201548152505083858151811061210f577f4e487b7100000000000000000000000000000000000000000000000000000000600052603260045260246000fd5b602002602001018190525060018461212791906151a0565b9350505b8080612136906153b4565b915050611df9565b508094505050505090565b6060600061215760ca6139be565b90506000808267ffffffffffffffff81111561219c577f4e487b7100000000000000000000000000000000000000000000000000000000600052604160045260246000fd5b6040519080825280602002602001820160405280156121d557816020015b6121c2613e52565b8152602001906001900390816121ba5790505b5090506000600190505b8381116124b957600060cf600083815260200190815260200160002090508060405180610140016040529081600082015481526020016001820160009054906101000a900473ffffffffffffffffffffffffffffffffffffffff1673ffffffffffffffffffffffffffffffffffffffff1673ffffffffffffffffffffffffffffffffffffffff16815260200160028201805461227a90615351565b80601f01602080910402602001604051908101604052809291908181526020018280546122a690615351565b80156122f35780601f106122c8576101008083540402835291602001916122f3565b820191906000526020600020905b8154815290600101906020018083116122d657829003601f168201915b5050505050815260200160038201805461230c90615351565b80601f016020809104026020016040519081016040528092919081815260200182805461233890615351565b80156123855780601f1061235a57610100808354040283529160200191612385565b820191906000526020600020905b81548152906001019060200180831161236857829003601f168201915b5050505050815260200160048201805461239e90615351565b80601f01602080910402602001604051908101604052809291908181526020018280546123ca90615351565b80156124175780601f106123ec57610100808354040283529160200191612417565b820191906000526020600020905b8154815290600101906020018083116123fa57829003601f168201915b505050505081526020016005820154815260200160068201548152602001600782015481526020016008820154815260200160098201548152505083858151811061248b577f4e487b7100000000000000000000000000000000000000000000000000000000600052603260045260246000fd5b60200260200101819052506001846124a391906151a0565b93505080806124b1906153b4565b9150506121df565b5080935050505090565b6000609760009054906101000a900473ffffffffffffffffffffffffffffffffffffffff16905090565b8260d1600082815260200190815260200160002060009054906101000a900460ff1661254e576040517f08c379a000000000000000000000000000000000000000000000000000000000815260040161254590614d86565b60405180910390fd5b60026065541415612594576040517f08c379a000000000000000000000000000000000000000000000000000000000815260040161258b90614f06565b60405180910390fd5b60026065819055508173ffffffffffffffffffffffffffffffffffffffff166323b872dd3330866040518463ffffffff1660e01b81526004016125d993929190614afc565b602060405180830381600087803b1580156125f357600080fd5b505af1158015612607573d6000803e3d6000fd5b505050506040513d601f19601f8201168201806040525081019061262b91906140d8565b50600061263860cb6139be565b9050600080600190505b82811161271d573373ffffffffffffffffffffffffffffffffffffffff1660d0600083815260200190815260200160002060010160009054906101000a900473ffffffffffffffffffffffffffffffffffffffff1673ffffffffffffffffffffffffffffffffffffffff161480156126cf57508660d0600083815260200190815260200160002060000154145b1561270a578560d0600083815260200190815260200160002060020160008282546126fa91906151a0565b925050819055506001915061271d565b8080612715906153b4565b915050612642565b5060001515811515141561287a5761273560cb6139a8565b60405180608001604052808781526020013373ffffffffffffffffffffffffffffffffffffffff16815260200186815260200160cf600089815260200190815260200160002060010160009054906101000a900473ffffffffffffffffffffffffffffffffffffffff1673ffffffffffffffffffffffffffffffffffffffff1681525060d060006127c660cb6139be565b81526020019081526020016000206000820151816000015560208201518160010160006101000a81548173ffffffffffffffffffffffffffffffffffffffff021916908373ffffffffffffffffffffffffffffffffffffffff1602179055506040820151816002015560608201518160030160006101000a81548173ffffffffffffffffffffffffffffffffffffffff021916908373ffffffffffffffffffffffffffffffffffffffff1602179055509050505b8460cf600088815260200190815260200160002060070160008282546128a091906151a0565b925050819055508460cf600088815260200190815260200160002060080160008282546128cd91906151a0565b9250508190555060cc60009054906101000a900473ffffffffffffffffffffffffffffffffffffffff1673ffffffffffffffffffffffffffffffffffffffff166340c10f1933876040518363ffffffff1660e01b8152600401612931929190614b33565b600060405180830381600087803b15801561294b57600080fd5b505af115801561295f573d6000803e3d6000fd5b505050505050600160658190555050505050565b61297b6139cc565b600260655414156129c1576040517f08c379a00000000000000000000000000000000000000000000000000000000081526004016129b890614f06565b60405180910390fd5b600260658190555060d1600082815260200190815260200160002060009054906101000a900460ff161560d1600083815260200190815260200160002060006101000a81548160ff021916908315150217905550600160658190555050565b60ca8060000154905081565b60606000612a3a60cb6139be565b90506000808267ffffffffffffffff811115612a7f577f4e487b7100000000000000000000000000000000000000000000000000000000600052604160045260246000fd5b604051908082528060200260200182016040528015612ab857816020015b612aa5613ebb565b815260200190600190039081612a9d5790505b5090506000600190505b838111612c7e573373ffffffffffffffffffffffffffffffffffffffff1660d0600083815260200190815260200160002060010160009054906101000a900473ffffffffffffffffffffffffffffffffffffffff1673ffffffffffffffffffffffffffffffffffffffff161415612c6b57600060d06000838152602001908152602001600020905080604051806080016040529081600082015481526020016001820160009054906101000a900473ffffffffffffffffffffffffffffffffffffffff1673ffffffffffffffffffffffffffffffffffffffff1673ffffffffffffffffffffffffffffffffffffffff168152602001600282015481526020016003820160009054906101000a900473ffffffffffffffffffffffffffffffffffffffff1673ffffffffffffffffffffffffffffffffffffffff1673ffffffffffffffffffffffffffffffffffffffff1681525050838581518110612c4f577f4e487b7100000000000000000000000000000000000000000000000000000000600052603260045260246000fd5b6020026020010181905250600184612c6791906151a0565b9350505b8080612c76906153b4565b915050612ac2565b5080935050505090565b606060378054612c9790615351565b80601f0160208091040260200160405190810160405280929190818152602001828054612cc390615351565b8015612d105780601f10612ce557610100808354040283529160200191612d10565b820191906000526020600020905b815481529060010190602001808311612cf357829003601f168201915b5050505050905090565b60cb8060000154905081565b600080612d316134c5565b90506000612d3f8286613342565b905083811015612d84576040517f08c379a0000000000000000000000000000000000000000000000000000000008152600401612d7b90614f26565b60405180910390fd5b612d9182868684036134cd565b60019250505092915050565b600080612da86134c5565b9050612db5818585613724565b600191505092915050565b60d06020528060005260406000206000915090508060000154908060010160009054906101000a900473ffffffffffffffffffffffffffffffffffffffff16908060020154908060030160009054906101000a900473ffffffffffffffffffffffffffffffffffffffff16905084565b60cc60009054906101000a900473ffffffffffffffffffffffffffffffffffffffff1681565b60008060019054906101000a900460ff16159050808015612e875750600160008054906101000a900460ff1660ff16105b80612eb45750612e9630613b10565b158015612eb35750600160008054906101000a900460ff1660ff16145b5b612ef3576040517f08c379a0000000000000000000000000000000000000000000000000000000008152600401612eea90614e26565b60405180910390fd5b60016000806101000a81548160ff021916908360ff1602179055508015612f30576001600060016101000a81548160ff0219169083151502179055505b612f586040518060200160405280600081525060405180602001604052806000815250613b33565b612f60613b90565b612f68613be9565b8160cc60006101000a81548173ffffffffffffffffffffffffffffffffffffffff021916908373ffffffffffffffffffffffffffffffffffffffff16021790555080156130025760008060016101000a81548160ff0219169083151502179055507f7f26b83ff96e1f2b6a682f133852f6798a09c465da95921460cefb38474024986001604051612ff99190614c21565b60405180910390a15b5050565b60606000600167ffffffffffffffff81111561304b577f4e487b7100000000000000000000000000000000000000000000000000000000600052604160045260246000fd5b60405190808252806020026020018201604052801561308457816020015b613071613e52565b8152602001906001900390816130695790505b509050600060cf600085815260200190815260200160002090508060405180610140016040529081600082015481526020016001820160009054906101000a900473ffffffffffffffffffffffffffffffffffffffff1673ffffffffffffffffffffffffffffffffffffffff1673ffffffffffffffffffffffffffffffffffffffff16815260200160028201805461311b90615351565b80601f016020809104026020016040519081016040528092919081815260200182805461314790615351565b80156131945780601f1061316957610100808354040283529160200191613194565b820191906000526020600020905b81548152906001019060200180831161317757829003601f168201915b505050505081526020016003820180546131ad90615351565b80601f01602080910402602001604051908101604052809291908181526020018280546131d990615351565b80156132265780601f106131fb57610100808354040283529160200191613226565b820191906000526020600020905b81548152906001019060200180831161320957829003601f168201915b5050505050815260200160048201805461323f90615351565b80601f016020809104026020016040519081016040528092919081815260200182805461326b90615351565b80156132b85780601f1061328d576101008083540402835291602001916132b8565b820191906000526020600020905b81548152906001019060200180831161329b57829003601f168201915b50505050508152602001600582015481526020016006820154815260200160078201548152602001600882015481526020016009820154815250508260008151811061332d577f4e487b7100000000000000000000000000000000000000000000000000000000600052603260045260246000fd5b60200260200101819052508192505050919050565b6000603460008473ffffffffffffffffffffffffffffffffffffffff1673ffffffffffffffffffffffffffffffffffffffff16815260200190815260200160002060008373ffffffffffffffffffffffffffffffffffffffff1673ffffffffffffffffffffffffffffffffffffffff16815260200190815260200160002054905092915050565b4260d260008381526020019081526020016000208190555050565b6133ec6139cc565b600073ffffffffffffffffffffffffffffffffffffffff168173ffffffffffffffffffffffffffffffffffffffff16141561345c576040517f08c379a000000000000000000000000000000000000000000000000000000000815260040161345390614d46565b60405180910390fd5b61346581613a4a565b50565b60008060cd60003373ffffffffffffffffffffffffffffffffffffffff1673ffffffffffffffffffffffffffffffffffffffff1681526020019081526020016000206004015414156134bd57600090506134c2565b600190505b90565b600033905090565b600073ffffffffffffffffffffffffffffffffffffffff168373ffffffffffffffffffffffffffffffffffffffff16141561353d576040517f08c379a000000000000000000000000000000000000000000000000000000000815260040161353490614ec6565b60405180910390fd5b600073ffffffffffffffffffffffffffffffffffffffff168273ffffffffffffffffffffffffffffffffffffffff1614156135ad576040517f08c379a00000000000000000000000000000000000000000000000000000000081526004016135a490614d66565b60405180910390fd5b80603460008573ffffffffffffffffffffffffffffffffffffffff1673ffffffffffffffffffffffffffffffffffffffff16815260200190815260200160002060008473ffffffffffffffffffffffffffffffffffffffff1673ffffffffffffffffffffffffffffffffffffffff168152602001908152602001600020819055508173ffffffffffffffffffffffffffffffffffffffff168373ffffffffffffffffffffffffffffffffffffffff167f8c5be1e5ebec7d5bd14f71427d1e84f3dd0314c0f7b2291e5b200ac8c7c3b9258360405161368b9190614f46565b60405180910390a3505050565b60006136a48484613342565b90507fffffffffffffffffffffffffffffffffffffffffffffffffffffffffffffffff811461371e5781811015613710576040517f08c379a000000000000000000000000000000000000000000000000000000000815260040161370790614da6565b60405180910390fd5b61371d84848484036134cd565b5b50505050565b600073ffffffffffffffffffffffffffffffffffffffff168373ffffffffffffffffffffffffffffffffffffffff161415613794576040517f08c379a000000000000000000000000000000000000000000000000000000000815260040161378b90614ea6565b60405180910390fd5b600073ffffffffffffffffffffffffffffffffffffffff168273ffffffffffffffffffffffffffffffffffffffff161415613804576040517f08c379a00000000000000000000000000000000000000000000000000000000081526004016137fb90614d06565b60405180910390fd5b61380f838383613c42565b6000603360008573ffffffffffffffffffffffffffffffffffffffff1673ffffffffffffffffffffffffffffffffffffffff16815260200190815260200160002054905081811015613896576040517f08c379a000000000000000000000000000000000000000000000000000000000815260040161388d90614dc6565b60405180910390fd5b818103603360008673ffffffffffffffffffffffffffffffffffffffff1673ffffffffffffffffffffffffffffffffffffffff1681526020019081526020016000208190555081603360008573ffffffffffffffffffffffffffffffffffffffff1673ffffffffffffffffffffffffffffffffffffffff168152602001908152602001600020600082825461392b91906151a0565b925050819055508273ffffffffffffffffffffffffffffffffffffffff168473ffffffffffffffffffffffffffffffffffffffff167fddf252ad1be2c89b69c2b068fc378daa952ba7f163c4a11628f55a4df523b3ef8460405161398f9190614f46565b60405180910390a36139a2848484613c47565b50505050565b6001816000016000828254019250508190555050565b600081600001549050919050565b6139d46134c5565b73ffffffffffffffffffffffffffffffffffffffff166139f26124c3565b73ffffffffffffffffffffffffffffffffffffffff1614613a48576040517f08c379a0000000000000000000000000000000000000000000000000000000008152600401613a3f90614e66565b60405180910390fd5b565b6000609760009054906101000a900473ffffffffffffffffffffffffffffffffffffffff16905081609760006101000a81548173ffffffffffffffffffffffffffffffffffffffff021916908373ffffffffffffffffffffffffffffffffffffffff1602179055508173ffffffffffffffffffffffffffffffffffffffff168173ffffffffffffffffffffffffffffffffffffffff167f8be0079c531659141344cd1fd0a4f28419497f9722a3daafe3b4186f6b6457e060405160405180910390a35050565b6000808273ffffffffffffffffffffffffffffffffffffffff163b119050919050565b600060019054906101000a900460ff16613b82576040517f08c379a0000000000000000000000000000000000000000000000000000000008152600401613b7990614ee6565b60405180910390fd5b613b8c8282613c4c565b5050565b600060019054906101000a900460ff16613bdf576040517f08c379a0000000000000000000000000000000000000000000000000000000008152600401613bd690614ee6565b60405180910390fd5b613be7613ccd565b565b600060019054906101000a900460ff16613c38576040517f08c379a0000000000000000000000000000000000000000000000000000000008152600401613c2f90614ee6565b60405180910390fd5b613c40613d26565b565b505050565b505050565b600060019054906101000a900460ff16613c9b576040517f08c379a0000000000000000000000000000000000000000000000000000000008152600401613c9290614ee6565b60405180910390fd5b8160369080519060200190613cb1929190613d87565b508060379080519060200190613cc8929190613d87565b505050565b600060019054906101000a900460ff16613d1c576040517f08c379a0000000000000000000000000000000000000000000000000000000008152600401613d1390614ee6565b60405180910390fd5b6001606581905550565b600060019054906101000a900460ff16613d75576040517f08c379a0000000000000000000000000000000000000000000000000000000008152600401613d6c90614ee6565b60405180910390fd5b613d85613d806134c5565b613a4a565b565b828054613d9390615351565b90600052602060002090601f016020900481019282613db55760008555613dfc565b82601f10613dce57805160ff1916838001178555613dfc565b82800160010185558215613dfc579182015b82811115613dfb578251825591602001919060010190613de0565b5b509050613e099190613f0f565b5090565b60405180610100016040528060608152602001606081526020016060815260200160608152602001600081526020016060815260200160608152602001600081525090565b60405180610140016040528060008152602001600073ffffffffffffffffffffffffffffffffffffffff16815260200160608152602001606081526020016060815260200160008152602001600081526020016000815260200160008152602001600081525090565b604051806080016040528060008152602001600073ffffffffffffffffffffffffffffffffffffffff16815260200160008152602001600073ffffffffffffffffffffffffffffffffffffffff1681525090565b5b80821115613f28576000816000905550600101613f10565b5090565b6000613f3f613f3a84615097565b615072565b905082815260208101848484011115613f5757600080fd5b613f6284828561530f565b509392505050565b600081359050613f79816158d3565b92915050565b600081519050613f8e816158ea565b92915050565b600081359050613fa381615901565b92915050565b600082601f830112613fba57600080fd5b8135613fca848260208601613f2c565b91505092915050565b600081359050613fe281615918565b92915050565b600060208284031215613ffa57600080fd5b600061400884828501613f6a565b91505092915050565b6000806040838503121561402457600080fd5b600061403285828601613f6a565b925050602061404385828601613f6a565b9150509250929050565b60008060006060848603121561406257600080fd5b600061407086828701613f6a565b935050602061408186828701613f6a565b925050604061409286828701613fd3565b9150509250925092565b600080604083850312156140af57600080fd5b60006140bd85828601613f6a565b92505060206140ce85828601613fd3565b9150509250929050565b6000602082840312156140ea57600080fd5b60006140f884828501613f7f565b91505092915050565b60006020828403121561411357600080fd5b600061412184828501613f94565b91505092915050565b600080600080600080600060e0888a03121561414557600080fd5b600088013567ffffffffffffffff81111561415f57600080fd5b61416b8a828b01613fa9565b975050602088013567ffffffffffffffff81111561418857600080fd5b6141948a828b01613fa9565b965050604088013567ffffffffffffffff8111156141b157600080fd5b6141bd8a828b01613fa9565b955050606088013567ffffffffffffffff8111156141da57600080fd5b6141e68a828b01613fa9565b94505060806141f78a828b01613fd3565b93505060a088013567ffffffffffffffff81111561421457600080fd5b6142208a828b01613fa9565b92505060c088013567ffffffffffffffff81111561423d57600080fd5b6142498a828b01613fa9565b91505092959891949750929550565b600080600080600060a0868803121561427057600080fd5b600086013567ffffffffffffffff81111561428a57600080fd5b61429688828901613fa9565b955050602086013567ffffffffffffffff8111156142b357600080fd5b6142bf88828901613fa9565b945050604086013567ffffffffffffffff8111156142dc57600080fd5b6142e888828901613fa9565b93505060606142f988828901613fd3565b925050608061430a88828901613fd3565b9150509295509295909350565b60006020828403121561432957600080fd5b600061433784828501613fd3565b91505092915050565b6000806040838503121561435357600080fd5b600061436185828601613fd3565b925050602061437285828601613f6a565b9150509250929050565b60008060006060848603121561439157600080fd5b600061439f86828701613fd3565b93505060206143b086828701613fd3565b92505060406143c186828701613f6a565b9150509250925092565b60006143d783836148a4565b905092915050565b60006143eb838361498c565b905092915050565b60006143ff8383614a5f565b60808301905092915050565b614414816152a3565b82525050565b6144238161523c565b82525050565b6144328161522a565b82525050565b6144418161522a565b82525050565b6000614452826150f8565b61445c818561514b565b93508360208202850161446e856150c8565b8060005b858110156144aa578484038952815161448b85826143cb565b945061449683615124565b925060208a01995050600181019050614472565b50829750879550505050505092915050565b60006144c782615103565b6144d1818561515c565b9350836020820285016144e3856150d8565b8060005b8581101561451f578484038952815161450085826143df565b945061450b83615131565b925060208a019950506001810190506144e7565b50829750879550505050505092915050565b600061453c8261510e565b614546818561516d565b9350614551836150e8565b8060005b8381101561458257815161456988826143f3565b97506145748361513e565b925050600181019050614555565b5085935050505092915050565b6145988161524e565b82525050565b6145a7816152b5565b82525050565b6145b6816152d9565b82525050565b60006145c782615119565b6145d1818561517e565b93506145e181856020860161531e565b6145ea8161548a565b840191505092915050565b600061460082615119565b61460a818561518f565b935061461a81856020860161531e565b6146238161548a565b840191505092915050565b600061463b60238361518f565b91506146468261549b565b604082019050919050565b600061465e601b8361518f565b9150614669826154ea565b602082019050919050565b600061468160268361518f565b915061468c82615513565b604082019050919050565b60006146a460228361518f565b91506146af82615562565b604082019050919050565b60006146c760108361518f565b91506146d2826155b1565b602082019050919050565b60006146ea601d8361518f565b91506146f5826155da565b602082019050919050565b600061470d60268361518f565b915061471882615603565b604082019050919050565b600061473060208361518f565b915061473b82615652565b602082019050919050565b6000614753600d8361518f565b915061475e8261567b565b602082019050919050565b6000614776602e8361518f565b9150614781826156a4565b604082019050919050565b600061479960128361518f565b91506147a4826156f3565b602082019050919050565b60006147bc60208361518f565b91506147c78261571c565b602082019050919050565b60006147df60148361518f565b91506147ea82615745565b602082019050919050565b600061480260258361518f565b915061480d8261576e565b604082019050919050565b600061482560248361518f565b9150614830826157bd565b604082019050919050565b6000614848602b8361518f565b91506148538261580c565b604082019050919050565b600061486b601f8361518f565b91506148768261585b565b602082019050919050565b600061488e60258361518f565b915061489982615884565b604082019050919050565b6000610140830160008301516148bd6000860182614ab4565b5060208301516148d06020860182614429565b50604083015184820360408601526148e882826145bc565b9150506060830151848203606086015261490282826145bc565b9150506080830151848203608086015261491c82826145bc565b91505060a083015161493160a0860182614ab4565b5060c083015161494460c0860182614ab4565b5060e083015161495760e0860182614ab4565b5061010083015161496c610100860182614ab4565b50610120830151614981610120860182614ab4565b508091505092915050565b60006101008301600083015184820360008601526149aa82826145bc565b915050602083015184820360208601526149c482826145bc565b915050604083015184820360408601526149de82826145bc565b915050606083015184820360608601526149f882826145bc565b9150506080830151614a0d6080860182614ab4565b5060a083015184820360a0860152614a2582826145bc565b91505060c083015184820360c0860152614a3f82826145bc565b91505060e0830151614a5460e0860182614ab4565b508091505092915050565b608082016000820151614a756000850182614ab4565b506020820151614a886020850182614429565b506040820151614a9b6040850182614ab4565b506060820151614aae6060850182614429565b50505050565b614abd8161528c565b82525050565b614acc8161528c565b82525050565b614adb81615296565b82525050565b6000602082019050614af66000830184614438565b92915050565b6000606082019050614b11600083018661440b565b614b1e602083018561440b565b614b2b6040830184614ac3565b949350505050565b6000604082019050614b48600083018561441a565b614b556020830184614ac3565b9392505050565b6000604082019050614b71600083018561440b565b614b7e6020830184614ac3565b9392505050565b60006020820190508181036000830152614b9f8184614447565b905092915050565b60006020820190508181036000830152614bc181846144bc565b905092915050565b60006020820190508181036000830152614be38184614531565b905092915050565b6000602082019050614c00600083018461458f565b92915050565b6000602082019050614c1b600083018461459e565b92915050565b6000602082019050614c3660008301846145ad565b92915050565b60006020820190508181036000830152614c5681846145f5565b905092915050565b6000610100820190508181036000830152614c79818b6145f5565b90508181036020830152614c8d818a6145f5565b90508181036040830152614ca181896145f5565b90508181036060830152614cb581886145f5565b9050614cc46080830187614ac3565b81810360a0830152614cd681866145f5565b905081810360c0830152614cea81856145f5565b9050614cf960e0830184614ac3565b9998505050505050505050565b60006020820190508181036000830152614d1f8161462e565b9050919050565b60006020820190508181036000830152614d3f81614651565b9050919050565b60006020820190508181036000830152614d5f81614674565b9050919050565b60006020820190508181036000830152614d7f81614697565b9050919050565b60006020820190508181036000830152614d9f816146ba565b9050919050565b60006020820190508181036000830152614dbf816146dd565b9050919050565b60006020820190508181036000830152614ddf81614700565b9050919050565b60006020820190508181036000830152614dff81614723565b9050919050565b60006020820190508181036000830152614e1f81614746565b9050919050565b60006020820190508181036000830152614e3f81614769565b9050919050565b60006020820190508181036000830152614e5f8161478c565b9050919050565b60006020820190508181036000830152614e7f816147af565b9050919050565b60006020820190508181036000830152614e9f816147d2565b9050919050565b60006020820190508181036000830152614ebf816147f5565b9050919050565b60006020820190508181036000830152614edf81614818565b9050919050565b60006020820190508181036000830152614eff8161483b565b9050919050565b60006020820190508181036000830152614f1f8161485e565b9050919050565b60006020820190508181036000830152614f3f81614881565b9050919050565b6000602082019050614f5b6000830184614ac3565b92915050565b600061014082019050614f77600083018d614ac3565b614f84602083018c614438565b8181036040830152614f96818b6145f5565b90508181036060830152614faa818a6145f5565b90508181036080830152614fbe81896145f5565b9050614fcd60a0830188614ac3565b614fda60c0830187614ac3565b614fe760e0830186614ac3565b614ff5610100830185614ac3565b615003610120830184614ac3565b9b9a5050505050505050505050565b60006080820190506150276000830187614ac3565b6150346020830186614438565b6150416040830185614ac3565b61504e6060830184614438565b95945050505050565b600060208201905061506c6000830184614ad2565b92915050565b600061507c61508d565b90506150888282615383565b919050565b6000604051905090565b600067ffffffffffffffff8211156150b2576150b161545b565b5b6150bb8261548a565b9050602081019050919050565b6000819050602082019050919050565b6000819050602082019050919050565b6000819050602082019050919050565b600081519050919050565b600081519050919050565b600081519050919050565b600081519050919050565b6000602082019050919050565b6000602082019050919050565b6000602082019050919050565b600082825260208201905092915050565b600082825260208201905092915050565b600082825260208201905092915050565b600082825260208201905092915050565b600082825260208201905092915050565b60006151ab8261528c565b91506151b68361528c565b9250827fffffffffffffffffffffffffffffffffffffffffffffffffffffffffffffffff038211156151eb576151ea6153fd565b5b828201905092915050565b60006152018261528c565b915061520c8361528c565b92508282101561521f5761521e6153fd565b5b828203905092915050565b60006152358261526c565b9050919050565b60006152478261526c565b9050919050565b60008115159050919050565b60006152658261522a565b9050919050565b600073ffffffffffffffffffffffffffffffffffffffff82169050919050565b6000819050919050565b600060ff82169050919050565b60006152ae826152eb565b9050919050565b60006152c0826152c7565b9050919050565b60006152d28261526c565b9050919050565b60006152e482615296565b9050919050565b60006152f6826152fd565b9050919050565b60006153088261526c565b9050919050565b82818337600083830152505050565b60005b8381101561533c578082015181840152602081019050615321565b8381111561534b576000848401525b50505050565b6000600282049050600182168061536957607f821691505b6020821081141561537d5761537c61542c565b5b50919050565b61538c8261548a565b810181811067ffffffffffffffff821117156153ab576153aa61545b565b5b80604052505050565b60006153bf8261528c565b91507fffffffffffffffffffffffffffffffffffffffffffffffffffffffffffffffff8214156153f2576153f16153fd565b5b600182019050919050565b7f4e487b7100000000000000000000000000000000000000000000000000000000600052601160045260246000fd5b7f4e487b7100000000000000000000000000000000000000000000000000000000600052602260045260246000fd5b7f4e487b7100000000000000000000000000000000000000000000000000000000600052604160045260246000fd5b6000601f19601f8301169050919050565b7f45524332303a207472616e7366657220746f20746865207a65726f206164647260008201527f6573730000000000000000000000000000000000000000000000000000000000602082015250565b7f596f752061726520616c726561647920726567697374657265642e0000000000600082015250565b7f4f776e61626c653a206e6577206f776e657220697320746865207a65726f206160008201527f6464726573730000000000000000000000000000000000000000000000000000602082015250565b7f45524332303a20617070726f766520746f20746865207a65726f20616464726560008201527f7373000000000000000000000000000000000000000000000000000000000000602082015250565b7f43616d706169676e20666f727a656e2e00000000000000000000000000000000600082015250565b7f45524332303a20696e73756666696369656e7420616c6c6f77616e6365000000600082015250565b7f45524332303a207472616e7366657220616d6f756e742065786365656473206260008201527f616c616e63650000000000000000000000000000000000000000000000000000602082015250565b7f457868617573746564206461696c79207769746864726177616c206c696d6974600082015250565b7f4163636573732044656e69656400000000000000000000000000000000000000600082015250565b7f496e697469616c697a61626c653a20636f6e747261637420697320616c72656160008201527f647920696e697469616c697a6564000000000000000000000000000000000000602082015250565b7f4461696c79205461736b2050656e64696e670000000000000000000000000000600082015250565b7f4f776e61626c653a2063616c6c6572206973206e6f7420746865206f776e6572600082015250565b7f496e73756666696369656e742042616c616e6365000000000000000000000000600082015250565b7f45524332303a207472616e736665722066726f6d20746865207a65726f20616460008201527f6472657373000000000000000000000000000000000000000000000000000000602082015250565b7f45524332303a20617070726f76652066726f6d20746865207a65726f2061646460008201527f7265737300000000000000000000000000000000000000000000000000000000602082015250565b7f496e697469616c697a61626c653a20636f6e7472616374206973206e6f74206960008201527f6e697469616c697a696e67000000000000000000000000000000000000000000602082015250565b7f5265656e7472616e637947756172643a207265656e7472616e742063616c6c00600082015250565b7f45524332303a2064656372656173656420616c6c6f77616e63652062656c6f7760008201527f207a65726f000000000000000000000000000000000000000000000000000000602082015250565b6158dc8161522a565b81146158e757600080fd5b50565b6158f38161524e565b81146158fe57600080fd5b50565b61590a8161525a565b811461591557600080fd5b50565b6159218161528c565b811461592c57600080fd5b5056fea2646970667358221220ab79fb658049b3abd4001abd851bf1b54c9159b1bdbe25cc555d79ecd2c06b9864736f6c63430008020033",
  "linkReferences": {},
  "deployedLinkReferences": {}
}