{
  "address": "0xE275512fAf0a80F779A5b47270773d0B6e200Abd",
  "abi": [
    {
      "inputs": [],
      "stateMutability": "nonpayable",
      "type": "constructor"
    },
    {
      "anonymous": false,
      "inputs": [
        {
          "indexed": true,
          "internalType": "address",
          "name": "owner",
          "type": "address"
        },
        {
          "indexed": true,
          "internalType": "address",
          "name": "spender",
          "type": "address"
        },
        {
          "indexed": false,
          "internalType": "uint256",
          "name": "value",
          "type": "uint256"
        }
      ],
      "name": "Approval",
      "type": "event"
    },
    {
      "anonymous": false,
      "inputs": [
        {
          "indexed": true,
          "internalType": "address",
          "name": "from",
          "type": "address"
        },
        {
          "indexed": true,
          "internalType": "address",
          "name": "to",
          "type": "address"
        },
        {
          "indexed": false,
          "internalType": "uint256",
          "name": "value",
          "type": "uint256"
        }
      ],
      "name": "Transfer",
      "type": "event"
    },
    {
      "inputs": [
        {
          "internalType": "uint256",
          "name": "amount",
          "type": "uint256"
        }
      ],
      "name": "acceptDonation",
      "outputs": [
        {
          "internalType": "bool",
          "name": "accepted",
          "type": "bool"
        }
      ],
      "stateMutability": "payable",
      "type": "function"
    },
    {
      "inputs": [
        {
          "internalType": "address",
          "name": "owner",
          "type": "address"
        },
        {
          "internalType": "address",
          "name": "spender",
          "type": "address"
        }
      ],
      "name": "allowance",
      "outputs": [
        {
          "internalType": "uint256",
          "name": "",
          "type": "uint256"
        }
      ],
      "stateMutability": "view",
      "type": "function"
    },
    {
      "inputs": [
        {
          "internalType": "address",
          "name": "spender",
          "type": "address"
        },
        {
          "internalType": "uint256",
          "name": "amount",
          "type": "uint256"
        }
      ],
      "name": "approve",
      "outputs": [
        {
          "internalType": "bool",
          "name": "",
          "type": "bool"
        }
      ],
      "stateMutability": "nonpayable",
      "type": "function"
    },
    {
      "inputs": [
        {
          "internalType": "address",
          "name": "account",
          "type": "address"
        }
      ],
      "name": "balanceOf",
      "outputs": [
        {
          "internalType": "uint256",
          "name": "",
          "type": "uint256"
        }
      ],
      "stateMutability": "view",
      "type": "function"
    },
    {
      "inputs": [],
      "name": "decimals",
      "outputs": [
        {
          "internalType": "uint8",
          "name": "",
          "type": "uint8"
        }
      ],
      "stateMutability": "view",
      "type": "function"
    },
    {
      "inputs": [
        {
          "internalType": "address",
          "name": "spender",
          "type": "address"
        },
        {
          "internalType": "uint256",
          "name": "subtractedValue",
          "type": "uint256"
        }
      ],
      "name": "decreaseAllowance",
      "outputs": [
        {
          "internalType": "bool",
          "name": "",
          "type": "bool"
        }
      ],
      "stateMutability": "nonpayable",
      "type": "function"
    },
    {
      "inputs": [
        {
          "internalType": "address",
          "name": "spender",
          "type": "address"
        },
        {
          "internalType": "uint256",
          "name": "addedValue",
          "type": "uint256"
        }
      ],
      "name": "increaseAllowance",
      "outputs": [
        {
          "internalType": "bool",
          "name": "",
          "type": "bool"
        }
      ],
      "stateMutability": "nonpayable",
      "type": "function"
    },
    {
      "inputs": [],
      "name": "name",
      "outputs": [
        {
          "internalType": "string",
          "name": "",
          "type": "string"
        }
      ],
      "stateMutability": "view",
      "type": "function"
    },
    {
      "inputs": [],
      "name": "symbol",
      "outputs": [
        {
          "internalType": "string",
          "name": "",
          "type": "string"
        }
      ],
      "stateMutability": "view",
      "type": "function"
    },
    {
      "inputs": [],
      "name": "totalSupply",
      "outputs": [
        {
          "internalType": "uint256",
          "name": "",
          "type": "uint256"
        }
      ],
      "stateMutability": "view",
      "type": "function"
    },
    {
      "inputs": [
        {
          "internalType": "address",
          "name": "to",
          "type": "address"
        },
        {
          "internalType": "uint256",
          "name": "amount",
          "type": "uint256"
        }
      ],
      "name": "transfer",
      "outputs": [
        {
          "internalType": "bool",
          "name": "",
          "type": "bool"
        }
      ],
      "stateMutability": "nonpayable",
      "type": "function"
    },
    {
      "inputs": [
        {
          "internalType": "address",
          "name": "from",
          "type": "address"
        },
        {
          "internalType": "address",
          "name": "to",
          "type": "address"
        },
        {
          "internalType": "uint256",
          "name": "amount",
          "type": "uint256"
        }
      ],
      "name": "transferFrom",
      "outputs": [
        {
          "internalType": "bool",
          "name": "",
          "type": "bool"
        }
      ],
      "stateMutability": "nonpayable",
      "type": "function"
    },
    {
      "inputs": [],
      "name": "withdrawChest",
      "outputs": [
        {
          "internalType": "bool",
          "name": "",
          "type": "bool"
        }
      ],
      "stateMutability": "nonpayable",
      "type": "function"
    }
  ],
  "transactionHash": "0xccd28fb985ba650536cd2bc1a3b1d895c78ac6f161c18b08c7ff0542d4ce8a8a",
  "args": [],
  "numDeployments": 1,
  "solcInputHash": "1574fa58495f96024aed2ee79ff321eb",
  "bytecode": "0x60806040523480156200001157600080fd5b506040518060400160405280600d81526020017f537570706f727420546f6b656e000000000000000000000000000000000000008152506040518060400160405280600381526020017f535454000000000000000000000000000000000000000000000000000000000081525081600390816200008f91906200050b565b508060049081620000a191906200050b565b505050620000c03369021e19e0c9bab24000006200010f60201b60201c565b33600660006101000a81548173ffffffffffffffffffffffffffffffffffffffff021916908373ffffffffffffffffffffffffffffffffffffffff16021790555060006005819055506200070d565b600073ffffffffffffffffffffffffffffffffffffffff168273ffffffffffffffffffffffffffffffffffffffff160362000181576040517f08c379a0000000000000000000000000000000000000000000000000000000008152600401620001789062000653565b60405180910390fd5b62000195600083836200028760201b60201c565b8060026000828254620001a99190620006a4565b92505081905550806000808473ffffffffffffffffffffffffffffffffffffffff1673ffffffffffffffffffffffffffffffffffffffff1681526020019081526020016000206000828254620002009190620006a4565b925050819055508173ffffffffffffffffffffffffffffffffffffffff16600073ffffffffffffffffffffffffffffffffffffffff167fddf252ad1be2c89b69c2b068fc378daa952ba7f163c4a11628f55a4df523b3ef83604051620002679190620006f0565b60405180910390a362000283600083836200028c60201b60201c565b5050565b505050565b505050565b600081519050919050565b7f4e487b7100000000000000000000000000000000000000000000000000000000600052604160045260246000fd5b7f4e487b7100000000000000000000000000000000000000000000000000000000600052602260045260246000fd5b600060028204905060018216806200031357607f821691505b602082108103620003295762000328620002cb565b5b50919050565b60008190508160005260206000209050919050565b60006020601f8301049050919050565b600082821b905092915050565b600060088302620003937fffffffffffffffffffffffffffffffffffffffffffffffffffffffffffffffff8262000354565b6200039f868362000354565b95508019841693508086168417925050509392505050565b6000819050919050565b6000819050919050565b6000620003ec620003e6620003e084620003b7565b620003c1565b620003b7565b9050919050565b6000819050919050565b6200040883620003cb565b620004206200041782620003f3565b84845462000361565b825550505050565b600090565b6200043762000428565b62000444818484620003fd565b505050565b5b818110156200046c57620004606000826200042d565b6001810190506200044a565b5050565b601f821115620004bb5762000485816200032f565b620004908462000344565b81016020851015620004a0578190505b620004b8620004af8562000344565b83018262000449565b50505b505050565b600082821c905092915050565b6000620004e060001984600802620004c0565b1980831691505092915050565b6000620004fb8383620004cd565b9150826002028217905092915050565b620005168262000291565b67ffffffffffffffff8111156200053257620005316200029c565b5b6200053e8254620002fa565b6200054b82828562000470565b600060209050601f8311600181146200058357600084156200056e578287015190505b6200057a8582620004ed565b865550620005ea565b601f19841662000593866200032f565b60005b82811015620005bd5784890151825560018201915060208501945060208101905062000596565b86831015620005dd5784890151620005d9601f891682620004cd565b8355505b6001600288020188555050505b505050505050565b600082825260208201905092915050565b7f45524332303a206d696e7420746f20746865207a65726f206164647265737300600082015250565b60006200063b601f83620005f2565b9150620006488262000603565b602082019050919050565b600060208201905081810360008301526200066e816200062c565b9050919050565b7f4e487b7100000000000000000000000000000000000000000000000000000000600052601160045260246000fd5b6000620006b182620003b7565b9150620006be83620003b7565b9250828201905080821115620006d957620006d862000675565b5b92915050565b620006ea81620003b7565b82525050565b6000602082019050620007076000830184620006df565b92915050565b61150a806200071d6000396000f3fe6080604052600436106100c25760003560e01c8063395093511161007f57806395d89b411161005957806395d89b4114610297578063a457c2d7146102c2578063a9059cbb146102ff578063dd62ed3e1461033c576100c2565b806339509351146101f25780636f6a2af91461022f57806370a082311461025a576100c2565b806306fdde03146100c7578063095ea7b3146100f25780630b9d847e1461012f57806318160ddd1461015f57806323b872dd1461018a578063313ce567146101c7575b600080fd5b3480156100d357600080fd5b506100dc610379565b6040516100e99190610d4e565b60405180910390f35b3480156100fe57600080fd5b5061011960048036038101906101149190610e09565b61040b565b6040516101269190610e64565b60405180910390f35b61014960048036038101906101449190610e7f565b61042e565b6040516101569190610e64565b60405180910390f35b34801561016b57600080fd5b50610174610494565b6040516101819190610ebb565b60405180910390f35b34801561019657600080fd5b506101b160048036038101906101ac9190610ed6565b61049e565b6040516101be9190610e64565b60405180910390f35b3480156101d357600080fd5b506101dc6104cd565b6040516101e99190610f45565b60405180910390f35b3480156101fe57600080fd5b5061021960048036038101906102149190610e09565b6104d6565b6040516102269190610e64565b60405180910390f35b34801561023b57600080fd5b5061024461050d565b6040516102519190610e64565b60405180910390f35b34801561026657600080fd5b50610281600480360381019061027c9190610f60565b6105dd565b60405161028e9190610ebb565b60405180910390f35b3480156102a357600080fd5b506102ac610625565b6040516102b99190610d4e565b60405180910390f35b3480156102ce57600080fd5b506102e960048036038101906102e49190610e09565b6106b7565b6040516102f69190610e64565b60405180910390f35b34801561030b57600080fd5b5061032660048036038101906103219190610e09565b61072e565b6040516103339190610e64565b60405180910390f35b34801561034857600080fd5b50610363600480360381019061035e9190610f8d565b610751565b6040516103709190610ebb565b60405180910390f35b60606003805461038890610ffc565b80601f01602080910402602001604051908101604052809291908181526020018280546103b490610ffc565b80156104015780601f106103d657610100808354040283529160200191610401565b820191906000526020600020905b8154815290600101906020018083116103e457829003601f168201915b5050505050905090565b6000806104166107d8565b90506104238185856107e0565b600191505092915050565b6000348214610472576040517f08c379a000000000000000000000000000000000000000000000000000000000815260040161046990611079565b60405180910390fd5b346005600082825461048491906110c8565b9250508190555060019050919050565b6000600254905090565b6000806104a96107d8565b90506104b68582856109a9565b6104c1858585610a35565b60019150509392505050565b60006012905090565b6000806104e16107d8565b90506105028185856104f38589610751565b6104fd91906110c8565b6107e0565b600191505092915050565b6000600660009054906101000a900473ffffffffffffffffffffffffffffffffffffffff1673ffffffffffffffffffffffffffffffffffffffff163373ffffffffffffffffffffffffffffffffffffffff161461056957600080fd5b6000600660009054906101000a900473ffffffffffffffffffffffffffffffffffffffff1673ffffffffffffffffffffffffffffffffffffffff166108fc479081150290604051600060405180830381858888f19350505050905080156105d45760019150506105da565b60009150505b90565b60008060008373ffffffffffffffffffffffffffffffffffffffff1673ffffffffffffffffffffffffffffffffffffffff168152602001908152602001600020549050919050565b60606004805461063490610ffc565b80601f016020809104026020016040519081016040528092919081815260200182805461066090610ffc565b80156106ad5780601f10610682576101008083540402835291602001916106ad565b820191906000526020600020905b81548152906001019060200180831161069057829003601f168201915b5050505050905090565b6000806106c26107d8565b905060006106d08286610751565b905083811015610715576040517f08c379a000000000000000000000000000000000000000000000000000000000815260040161070c9061116e565b60405180910390fd5b61072282868684036107e0565b60019250505092915050565b6000806107396107d8565b9050610746818585610a35565b600191505092915050565b6000600160008473ffffffffffffffffffffffffffffffffffffffff1673ffffffffffffffffffffffffffffffffffffffff16815260200190815260200160002060008373ffffffffffffffffffffffffffffffffffffffff1673ffffffffffffffffffffffffffffffffffffffff16815260200190815260200160002054905092915050565b600033905090565b600073ffffffffffffffffffffffffffffffffffffffff168373ffffffffffffffffffffffffffffffffffffffff160361084f576040517f08c379a000000000000000000000000000000000000000000000000000000000815260040161084690611200565b60405180910390fd5b600073ffffffffffffffffffffffffffffffffffffffff168273ffffffffffffffffffffffffffffffffffffffff16036108be576040517f08c379a00000000000000000000000000000000000000000000000000000000081526004016108b590611292565b60405180910390fd5b80600160008573ffffffffffffffffffffffffffffffffffffffff1673ffffffffffffffffffffffffffffffffffffffff16815260200190815260200160002060008473ffffffffffffffffffffffffffffffffffffffff1673ffffffffffffffffffffffffffffffffffffffff168152602001908152602001600020819055508173ffffffffffffffffffffffffffffffffffffffff168373ffffffffffffffffffffffffffffffffffffffff167f8c5be1e5ebec7d5bd14f71427d1e84f3dd0314c0f7b2291e5b200ac8c7c3b9258360405161099c9190610ebb565b60405180910390a3505050565b60006109b58484610751565b90507fffffffffffffffffffffffffffffffffffffffffffffffffffffffffffffffff8114610a2f5781811015610a21576040517f08c379a0000000000000000000000000000000000000000000000000000000008152600401610a18906112fe565b60405180910390fd5b610a2e84848484036107e0565b5b50505050565b600073ffffffffffffffffffffffffffffffffffffffff168373ffffffffffffffffffffffffffffffffffffffff1603610aa4576040517f08c379a0000000000000000000000000000000000000000000000000000000008152600401610a9b90611390565b60405180910390fd5b600073ffffffffffffffffffffffffffffffffffffffff168273ffffffffffffffffffffffffffffffffffffffff1603610b13576040517f08c379a0000000000000000000000000000000000000000000000000000000008152600401610b0a90611422565b60405180910390fd5b610b1e838383610cb4565b60008060008573ffffffffffffffffffffffffffffffffffffffff1673ffffffffffffffffffffffffffffffffffffffff16815260200190815260200160002054905081811015610ba4576040517f08c379a0000000000000000000000000000000000000000000000000000000008152600401610b9b906114b4565b60405180910390fd5b8181036000808673ffffffffffffffffffffffffffffffffffffffff1673ffffffffffffffffffffffffffffffffffffffff16815260200190815260200160002081905550816000808573ffffffffffffffffffffffffffffffffffffffff1673ffffffffffffffffffffffffffffffffffffffff1681526020019081526020016000206000828254610c3791906110c8565b925050819055508273ffffffffffffffffffffffffffffffffffffffff168473ffffffffffffffffffffffffffffffffffffffff167fddf252ad1be2c89b69c2b068fc378daa952ba7f163c4a11628f55a4df523b3ef84604051610c9b9190610ebb565b60405180910390a3610cae848484610cb9565b50505050565b505050565b505050565b600081519050919050565b600082825260208201905092915050565b60005b83811015610cf8578082015181840152602081019050610cdd565b60008484015250505050565b6000601f19601f8301169050919050565b6000610d2082610cbe565b610d2a8185610cc9565b9350610d3a818560208601610cda565b610d4381610d04565b840191505092915050565b60006020820190508181036000830152610d688184610d15565b905092915050565b600080fd5b600073ffffffffffffffffffffffffffffffffffffffff82169050919050565b6000610da082610d75565b9050919050565b610db081610d95565b8114610dbb57600080fd5b50565b600081359050610dcd81610da7565b92915050565b6000819050919050565b610de681610dd3565b8114610df157600080fd5b50565b600081359050610e0381610ddd565b92915050565b60008060408385031215610e2057610e1f610d70565b5b6000610e2e85828601610dbe565b9250506020610e3f85828601610df4565b9150509250929050565b60008115159050919050565b610e5e81610e49565b82525050565b6000602082019050610e796000830184610e55565b92915050565b600060208284031215610e9557610e94610d70565b5b6000610ea384828501610df4565b91505092915050565b610eb581610dd3565b82525050565b6000602082019050610ed06000830184610eac565b92915050565b600080600060608486031215610eef57610eee610d70565b5b6000610efd86828701610dbe565b9350506020610f0e86828701610dbe565b9250506040610f1f86828701610df4565b9150509250925092565b600060ff82169050919050565b610f3f81610f29565b82525050565b6000602082019050610f5a6000830184610f36565b92915050565b600060208284031215610f7657610f75610d70565b5b6000610f8484828501610dbe565b91505092915050565b60008060408385031215610fa457610fa3610d70565b5b6000610fb285828601610dbe565b9250506020610fc385828601610dbe565b9150509250929050565b7f4e487b7100000000000000000000000000000000000000000000000000000000600052602260045260246000fd5b6000600282049050600182168061101457607f821691505b60208210810361102757611026610fcd565b5b50919050565b7f496e76616c696420616d6f756e74210000000000000000000000000000000000600082015250565b6000611063600f83610cc9565b915061106e8261102d565b602082019050919050565b6000602082019050818103600083015261109281611056565b9050919050565b7f4e487b7100000000000000000000000000000000000000000000000000000000600052601160045260246000fd5b60006110d382610dd3565b91506110de83610dd3565b92508282019050808211156110f6576110f5611099565b5b92915050565b7f45524332303a2064656372656173656420616c6c6f77616e63652062656c6f7760008201527f207a65726f000000000000000000000000000000000000000000000000000000602082015250565b6000611158602583610cc9565b9150611163826110fc565b604082019050919050565b600060208201905081810360008301526111878161114b565b9050919050565b7f45524332303a20617070726f76652066726f6d20746865207a65726f2061646460008201527f7265737300000000000000000000000000000000000000000000000000000000602082015250565b60006111ea602483610cc9565b91506111f58261118e565b604082019050919050565b60006020820190508181036000830152611219816111dd565b9050919050565b7f45524332303a20617070726f766520746f20746865207a65726f20616464726560008201527f7373000000000000000000000000000000000000000000000000000000000000602082015250565b600061127c602283610cc9565b915061128782611220565b604082019050919050565b600060208201905081810360008301526112ab8161126f565b9050919050565b7f45524332303a20696e73756666696369656e7420616c6c6f77616e6365000000600082015250565b60006112e8601d83610cc9565b91506112f3826112b2565b602082019050919050565b60006020820190508181036000830152611317816112db565b9050919050565b7f45524332303a207472616e736665722066726f6d20746865207a65726f20616460008201527f6472657373000000000000000000000000000000000000000000000000000000602082015250565b600061137a602583610cc9565b91506113858261131e565b604082019050919050565b600060208201905081810360008301526113a98161136d565b9050919050565b7f45524332303a207472616e7366657220746f20746865207a65726f206164647260008201527f6573730000000000000000000000000000000000000000000000000000000000602082015250565b600061140c602383610cc9565b9150611417826113b0565b604082019050919050565b6000602082019050818103600083015261143b816113ff565b9050919050565b7f45524332303a207472616e7366657220616d6f756e742065786365656473206260008201527f616c616e63650000000000000000000000000000000000000000000000000000602082015250565b600061149e602683610cc9565b91506114a982611442565b604082019050919050565b600060208201905081810360008301526114cd81611491565b905091905056fea2646970667358221220b037ec6965226f9c60d9e3b9de9716af4b3b933d10e92237372620767d4355a664736f6c63430008110033",
  "devdoc": {
    "kind": "dev",
    "methods": {
      "allowance(address,address)": {
        "details": "See {IERC20-allowance}."
      },
      "approve(address,uint256)": {
        "details": "See {IERC20-approve}. NOTE: If `amount` is the maximum `uint256`, the allowance is not updated on `transferFrom`. This is semantically equivalent to an infinite approval. Requirements: - `spender` cannot be the zero address."
      },
      "balanceOf(address)": {
        "details": "See {IERC20-balanceOf}."
      },
      "decimals()": {
        "details": "Returns the number of decimals used to get its user representation. For example, if `decimals` equals `2`, a balance of `505` tokens should be displayed to a user as `5.05` (`505 / 10 ** 2`). Tokens usually opt for a value of 18, imitating the relationship between Ether and Wei. This is the value {ERC20} uses, unless this function is overridden; NOTE: This information is only used for _display_ purposes: it in no way affects any of the arithmetic of the contract, including {IERC20-balanceOf} and {IERC20-transfer}."
      },
      "decreaseAllowance(address,uint256)": {
        "details": "Atomically decreases the allowance granted to `spender` by the caller. This is an alternative to {approve} that can be used as a mitigation for problems described in {IERC20-approve}. Emits an {Approval} event indicating the updated allowance. Requirements: - `spender` cannot be the zero address. - `spender` must have allowance for the caller of at least `subtractedValue`."
      },
      "increaseAllowance(address,uint256)": {
        "details": "Atomically increases the allowance granted to `spender` by the caller. This is an alternative to {approve} that can be used as a mitigation for problems described in {IERC20-approve}. Emits an {Approval} event indicating the updated allowance. Requirements: - `spender` cannot be the zero address."
      },
      "name()": {
        "details": "Returns the name of the token."
      },
      "symbol()": {
        "details": "Returns the symbol of the token, usually a shorter version of the name."
      },
      "totalSupply()": {
        "details": "See {IERC20-totalSupply}."
      },
      "transfer(address,uint256)": {
        "details": "See {IERC20-transfer}. Requirements: - `to` cannot be the zero address. - the caller must have a balance of at least `amount`."
      },
      "transferFrom(address,address,uint256)": {
        "details": "See {IERC20-transferFrom}. Emits an {Approval} event indicating the updated allowance. This is not required by the EIP. See the note at the beginning of {ERC20}. NOTE: Does not update the allowance if the current allowance is the maximum `uint256`. Requirements: - `from` and `to` cannot be the zero address. - `from` must have a balance of at least `amount`. - the caller must have allowance for ``from``'s tokens of at least `amount`."
      }
    },
    "version": 1
  },
  "userdoc": {
    "kind": "user",
    "methods": {},
    "notice": "A simple ERC20 Token implementation that also accepts donation for the project",
    "version": 1
  },
  "storageLayout": {
    "storage": [
      {
        "astId": 15,
        "contract": "contracts/PayService.sol:PayService",
        "label": "_balances",
        "offset": 0,
        "slot": "0",
        "type": "t_mapping(t_address,t_uint256)"
      },
      {
        "astId": 21,
        "contract": "contracts/PayService.sol:PayService",
        "label": "_allowances",
        "offset": 0,
        "slot": "1",
        "type": "t_mapping(t_address,t_mapping(t_address,t_uint256))"
      },
      {
        "astId": 23,
        "contract": "contracts/PayService.sol:PayService",
        "label": "_totalSupply",
        "offset": 0,
        "slot": "2",
        "type": "t_uint256"
      },
      {
        "astId": 25,
        "contract": "contracts/PayService.sol:PayService",
        "label": "_name",
        "offset": 0,
        "slot": "3",
        "type": "t_string_storage"
      },
      {
        "astId": 27,
        "contract": "contracts/PayService.sol:PayService",
        "label": "_symbol",
        "offset": 0,
        "slot": "4",
        "type": "t_string_storage"
      },
      {
        "astId": 718,
        "contract": "contracts/PayService.sol:PayService",
        "label": "sentIn",
        "offset": 0,
        "slot": "5",
        "type": "t_uint256"
      },
      {
        "astId": 720,
        "contract": "contracts/PayService.sol:PayService",
        "label": "owner",
        "offset": 0,
        "slot": "6",
        "type": "t_address_payable"
      }
    ],
    "types": {
      "t_address": {
        "encoding": "inplace",
        "label": "address",
        "numberOfBytes": "20"
      },
      "t_address_payable": {
        "encoding": "inplace",
        "label": "address payable",
        "numberOfBytes": "20"
      },
      "t_mapping(t_address,t_mapping(t_address,t_uint256))": {
        "encoding": "mapping",
        "key": "t_address",
        "label": "mapping(address => mapping(address => uint256))",
        "numberOfBytes": "32",
        "value": "t_mapping(t_address,t_uint256)"
      },
      "t_mapping(t_address,t_uint256)": {
        "encoding": "mapping",
        "key": "t_address",
        "label": "mapping(address => uint256)",
        "numberOfBytes": "32",
        "value": "t_uint256"
      },
      "t_string_storage": {
        "encoding": "bytes",
        "label": "string",
        "numberOfBytes": "32"
      },
      "t_uint256": {
        "encoding": "inplace",
        "label": "uint256",
        "numberOfBytes": "32"
      }
    }
  }
}