{
  "_format": "hh-sol-artifact-1",
  "contractName": "QuickAuction",
  "address": "0x635cC14eA6A3c0d73341ae5C9CA5919663aF5eE6",
  "sourceName": "contracts/Auction.sol",
  "abi": [
    {
      "inputs": [],
      "stateMutability": "nonpayable",
      "type": "constructor"
    },
    {
      "anonymous": false,
      "inputs": [
        {
          "indexed": true,
          "internalType": "address",
          "name": "owner",
          "type": "address"
        },
        {
          "indexed": true,
          "internalType": "address",
          "name": "approved",
          "type": "address"
        },
        {
          "indexed": true,
          "internalType": "uint256",
          "name": "tokenId",
          "type": "uint256"
        }
      ],
      "name": "Approval",
      "type": "event"
    },
    {
      "anonymous": false,
      "inputs": [
        {
          "indexed": true,
          "internalType": "address",
          "name": "owner",
          "type": "address"
        },
        {
          "indexed": true,
          "internalType": "address",
          "name": "operator",
          "type": "address"
        },
        {
          "indexed": false,
          "internalType": "bool",
          "name": "approved",
          "type": "bool"
        }
      ],
      "name": "ApprovalForAll",
      "type": "event"
    },
    {
      "anonymous": false,
      "inputs": [
        {
          "indexed": true,
          "internalType": "address",
          "name": "sender",
          "type": "address"
        },
        {
          "indexed": false,
          "internalType": "uint256",
          "name": "amount",
          "type": "uint256"
        }
      ],
      "name": "Bid",
      "type": "event"
    },
    {
      "anonymous": false,
      "inputs": [
        {
          "indexed": false,
          "internalType": "address",
          "name": "winner",
          "type": "address"
        },
        {
          "indexed": false,
          "internalType": "uint256",
          "name": "amount",
          "type": "uint256"
        }
      ],
      "name": "End",
      "type": "event"
    },
    {
      "anonymous": false,
      "inputs": [
        {
          "indexed": false,
          "internalType": "uint256",
          "name": "id",
          "type": "uint256"
        }
      ],
      "name": "NewAuction",
      "type": "event"
    },
    {
      "anonymous": false,
      "inputs": [
        {
          "indexed": true,
          "internalType": "address",
          "name": "from",
          "type": "address"
        },
        {
          "indexed": true,
          "internalType": "address",
          "name": "to",
          "type": "address"
        },
        {
          "indexed": true,
          "internalType": "uint256",
          "name": "tokenId",
          "type": "uint256"
        }
      ],
      "name": "Transfer",
      "type": "event"
    },
    {
      "inputs": [
        {
          "internalType": "address",
          "name": "to",
          "type": "address"
        },
        {
          "internalType": "uint256",
          "name": "tokenId",
          "type": "uint256"
        }
      ],
      "name": "approve",
      "outputs": [],
      "stateMutability": "nonpayable",
      "type": "function"
    },
    {
      "inputs": [
        {
          "internalType": "address",
          "name": "owner",
          "type": "address"
        }
      ],
      "name": "balanceOf",
      "outputs": [
        {
          "internalType": "uint256",
          "name": "",
          "type": "uint256"
        }
      ],
      "stateMutability": "view",
      "type": "function"
    },
    {
      "inputs": [
        {
          "internalType": "uint256",
          "name": "_id",
          "type": "uint256"
        }
      ],
      "name": "bid",
      "outputs": [],
      "stateMutability": "payable",
      "type": "function"
    },
    {
      "inputs": [
        {
          "internalType": "string",
          "name": "_title",
          "type": "string"
        },
        {
          "internalType": "string",
          "name": "_description",
          "type": "string"
        },
        {
          "internalType": "string",
          "name": "tokenURI",
          "type": "string"
        },
        {
          "internalType": "uint256",
          "name": "_startPrice",
          "type": "uint256"
        },
        {
          "internalType": "uint256",
          "name": "_endTime",
          "type": "uint256"
        }
      ],
      "name": "createAuction",
      "outputs": [],
      "stateMutability": "nonpayable",
      "type": "function"
    },
    {
      "inputs": [
        {
          "internalType": "uint256",
          "name": "tokenId",
          "type": "uint256"
        }
      ],
      "name": "getApproved",
      "outputs": [
        {
          "internalType": "address",
          "name": "",
          "type": "address"
        }
      ],
      "stateMutability": "view",
      "type": "function"
    },
    {
      "inputs": [
        {
          "internalType": "uint256",
          "name": "_id",
          "type": "uint256"
        }
      ],
      "name": "getAuction",
      "outputs": [
        {
          "components": [
            {
              "internalType": "uint256",
              "name": "id",
              "type": "uint256"
            },
            {
              "internalType": "string",
              "name": "title",
              "type": "string"
            },
            {
              "internalType": "string",
              "name": "description",
              "type": "string"
            },
            {
              "internalType": "uint256",
              "name": "tokenId",
              "type": "uint256"
            },
            {
              "internalType": "address",
              "name": "owner",
              "type": "address"
            },
            {
              "internalType": "uint256",
              "name": "startPrice",
              "type": "uint256"
            },
            {
              "internalType": "uint256",
              "name": "highestBid",
              "type": "uint256"
            },
            {
              "internalType": "address",
              "name": "highestBidder",
              "type": "address"
            },
            {
              "internalType": "address[]",
              "name": "buyers",
              "type": "address[]"
            },
            {
              "internalType": "uint256",
              "name": "endTime",
              "type": "uint256"
            },
            {
              "internalType": "bool",
              "name": "isActive",
              "type": "bool"
            },
            {
              "internalType": "bool",
              "name": "ownerTaken",
              "type": "bool"
            }
          ],
          "internalType": "struct QuickAuction.Auction",
          "name": "auction",
          "type": "tuple"
        }
      ],
      "stateMutability": "view",
      "type": "function"
    },
    {
      "inputs": [],
      "name": "getAuctions",
      "outputs": [
        {
          "components": [
            {
              "internalType": "uint256",
              "name": "id",
              "type": "uint256"
            },
            {
              "internalType": "string",
              "name": "title",
              "type": "string"
            },
            {
              "internalType": "string",
              "name": "description",
              "type": "string"
            },
            {
              "internalType": "uint256",
              "name": "tokenId",
              "type": "uint256"
            },
            {
              "internalType": "address",
              "name": "owner",
              "type": "address"
            },
            {
              "internalType": "uint256",
              "name": "startPrice",
              "type": "uint256"
            },
            {
              "internalType": "uint256",
              "name": "highestBid",
              "type": "uint256"
            },
            {
              "internalType": "address",
              "name": "highestBidder",
              "type": "address"
            },
            {
              "internalType": "address[]",
              "name": "buyers",
              "type": "address[]"
            },
            {
              "internalType": "uint256",
              "name": "endTime",
              "type": "uint256"
            },
            {
              "internalType": "bool",
              "name": "isActive",
              "type": "bool"
            },
            {
              "internalType": "bool",
              "name": "ownerTaken",
              "type": "bool"
            }
          ],
          "internalType": "struct QuickAuction.Auction[]",
          "name": "",
          "type": "tuple[]"
        }
      ],
      "stateMutability": "view",
      "type": "function"
    },
    {
      "inputs": [
        {
          "internalType": "uint256",
          "name": "_id",
          "type": "uint256"
        }
      ],
      "name": "getTimeRemaining",
      "outputs": [
        {
          "internalType": "uint256",
          "name": "time",
          "type": "uint256"
        }
      ],
      "stateMutability": "view",
      "type": "function"
    },
    {
      "inputs": [],
      "name": "getUserAuctions",
      "outputs": [
        {
          "components": [
            {
              "internalType": "uint256",
              "name": "id",
              "type": "uint256"
            },
            {
              "internalType": "string",
              "name": "title",
              "type": "string"
            },
            {
              "internalType": "string",
              "name": "description",
              "type": "string"
            },
            {
              "internalType": "uint256",
              "name": "tokenId",
              "type": "uint256"
            },
            {
              "internalType": "address",
              "name": "owner",
              "type": "address"
            },
            {
              "internalType": "uint256",
              "name": "startPrice",
              "type": "uint256"
            },
            {
              "internalType": "uint256",
              "name": "highestBid",
              "type": "uint256"
            },
            {
              "internalType": "address",
              "name": "highestBidder",
              "type": "address"
            },
            {
              "internalType": "address[]",
              "name": "buyers",
              "type": "address[]"
            },
            {
              "internalType": "uint256",
              "name": "endTime",
              "type": "uint256"
            },
            {
              "internalType": "bool",
              "name": "isActive",
              "type": "bool"
            },
            {
              "internalType": "bool",
              "name": "ownerTaken",
              "type": "bool"
            }
          ],
          "internalType": "struct QuickAuction.Auction[]",
          "name": "",
          "type": "tuple[]"
        }
      ],
      "stateMutability": "view",
      "type": "function"
    },
    {
      "inputs": [
        {
          "internalType": "uint256",
          "name": "_id",
          "type": "uint256"
        }
      ],
      "name": "getUserBid",
      "outputs": [
        {
          "internalType": "uint256",
          "name": "",
          "type": "uint256"
        }
      ],
      "stateMutability": "view",
      "type": "function"
    },
    {
      "inputs": [
        {
          "internalType": "address",
          "name": "owner",
          "type": "address"
        },
        {
          "internalType": "address",
          "name": "operator",
          "type": "address"
        }
      ],
      "name": "isApprovedForAll",
      "outputs": [
        {
          "internalType": "bool",
          "name": "",
          "type": "bool"
        }
      ],
      "stateMutability": "view",
      "type": "function"
    },
    {
      "inputs": [],
      "name": "name",
      "outputs": [
        {
          "internalType": "string",
          "name": "",
          "type": "string"
        }
      ],
      "stateMutability": "view",
      "type": "function"
    },
    {
      "inputs": [
        {
          "internalType": "uint256",
          "name": "tokenId",
          "type": "uint256"
        }
      ],
      "name": "ownerOf",
      "outputs": [
        {
          "internalType": "address",
          "name": "",
          "type": "address"
        }
      ],
      "stateMutability": "view",
      "type": "function"
    },
    {
      "inputs": [
        {
          "internalType": "address",
          "name": "from",
          "type": "address"
        },
        {
          "internalType": "address",
          "name": "to",
          "type": "address"
        },
        {
          "internalType": "uint256",
          "name": "tokenId",
          "type": "uint256"
        }
      ],
      "name": "safeTransferFrom",
      "outputs": [],
      "stateMutability": "nonpayable",
      "type": "function"
    },
    {
      "inputs": [
        {
          "internalType": "address",
          "name": "from",
          "type": "address"
        },
        {
          "internalType": "address",
          "name": "to",
          "type": "address"
        },
        {
          "internalType": "uint256",
          "name": "tokenId",
          "type": "uint256"
        },
        {
          "internalType": "bytes",
          "name": "data",
          "type": "bytes"
        }
      ],
      "name": "safeTransferFrom",
      "outputs": [],
      "stateMutability": "nonpayable",
      "type": "function"
    },
    {
      "inputs": [
        {
          "internalType": "address",
          "name": "operator",
          "type": "address"
        },
        {
          "internalType": "bool",
          "name": "approved",
          "type": "bool"
        }
      ],
      "name": "setApprovalForAll",
      "outputs": [],
      "stateMutability": "nonpayable",
      "type": "function"
    },
    {
      "inputs": [
        {
          "internalType": "bytes4",
          "name": "interfaceId",
          "type": "bytes4"
        }
      ],
      "name": "supportsInterface",
      "outputs": [
        {
          "internalType": "bool",
          "name": "",
          "type": "bool"
        }
      ],
      "stateMutability": "view",
      "type": "function"
    },
    {
      "inputs": [],
      "name": "symbol",
      "outputs": [
        {
          "internalType": "string",
          "name": "",
          "type": "string"
        }
      ],
      "stateMutability": "view",
      "type": "function"
    },
    {
      "inputs": [
        {
          "internalType": "uint256",
          "name": "_id",
          "type": "uint256"
        }
      ],
      "name": "timeUp",
      "outputs": [],
      "stateMutability": "nonpayable",
      "type": "function"
    },
    {
      "inputs": [
        {
          "internalType": "uint256",
          "name": "tokenId",
          "type": "uint256"
        }
      ],
      "name": "tokenURI",
      "outputs": [
        {
          "internalType": "string",
          "name": "",
          "type": "string"
        }
      ],
      "stateMutability": "view",
      "type": "function"
    },
    {
      "inputs": [
        {
          "internalType": "address",
          "name": "from",
          "type": "address"
        },
        {
          "internalType": "address",
          "name": "to",
          "type": "address"
        },
        {
          "internalType": "uint256",
          "name": "tokenId",
          "type": "uint256"
        }
      ],
      "name": "transferFrom",
      "outputs": [],
      "stateMutability": "nonpayable",
      "type": "function"
    }
  ],
  "bytecode": "0x60806040523480156200001157600080fd5b506040518060400160405280600a81526020017f41756374696f6e4e4654000000000000000000000000000000000000000000008152506040518060400160405280600381526020017f4155430000000000000000000000000000000000000000000000000000000000815250816000908051906020019062000096929190620000b8565b508060019080519060200190620000af929190620000b8565b505050620001cd565b828054620000c69062000168565b90600052602060002090601f016020900481019282620000ea576000855562000136565b82601f106200010557805160ff191683800117855562000136565b8280016001018555821562000136579182015b828111156200013557825182559160200191906001019062000118565b5b50905062000145919062000149565b5090565b5b80821115620001645760008160009055506001016200014a565b5090565b600060028204905060018216806200018157607f821691505b602082108114156200019857620001976200019e565b5b50919050565b7f4e487b7100000000000000000000000000000000000000000000000000000000600052602260045260246000fd5b614a4b80620001dd6000396000f3fe60806040526004361061011f5760003560e01c806370a08231116100a0578063b88d4fde11610064578063b88d4fde1461040e578063c6bba6f514610437578063c87b56dd14610474578063ca225c6d146104b1578063e985e9c5146104da5761011f565b806370a082311461030357806378bd7935146103405780638cd429911461037d57806395d89b41146103ba578063a22cb465146103e55761011f565b806323b872dd116100e757806323b872dd1461022f57806342842e0e14610258578063454a2ab31461028157806358574dca1461029d5780636352211e146102c65761011f565b806301ffc9a71461012457806306fdde0314610161578063081812fc1461018c578063095ea7b3146101c957806316be3d90146101f2575b600080fd5b34801561013057600080fd5b5061014b600480360381019061014691906135a9565b610517565b6040516101589190613e5f565b60405180910390f35b34801561016d57600080fd5b506101766105f9565b6040516101839190613e7a565b60405180910390f35b34801561019857600080fd5b506101b360048036038101906101ae91906136ba565b61068b565b6040516101c09190613dd6565b60405180910390f35b3480156101d557600080fd5b506101f060048036038101906101eb919061356d565b6106d1565b005b3480156101fe57600080fd5b50610219600480360381019061021491906136ba565b6107e9565b6040516102269190613e3d565b60405180910390f35b34801561023b57600080fd5b5061025660048036038101906102519190613467565b610fbe565b005b34801561026457600080fd5b5061027f600480360381019061027a9190613467565b61101e565b005b61029b600480360381019061029691906136ba565b61103e565b005b3480156102a957600080fd5b506102c460048036038101906102bf91906135fb565b611593565b005b3480156102d257600080fd5b506102ed60048036038101906102e891906136ba565b6117e0565b6040516102fa9190613dd6565b60405180910390f35b34801561030f57600080fd5b5061032a60048036038101906103259190613402565b611892565b60405161033791906140fe565b60405180910390f35b34801561034c57600080fd5b50610367600480360381019061036291906136ba565b61194a565b60405161037491906140dc565b60405180910390f35b34801561038957600080fd5b506103a4600480360381019061039f91906136ba565b611c3e565b6040516103b191906140fe565b60405180910390f35b3480156103c657600080fd5b506103cf611c91565b6040516103dc9190613e7a565b60405180910390f35b3480156103f157600080fd5b5061040c60048036038101906104079190613531565b611d23565b005b34801561041a57600080fd5b50610435600480360381019061043091906134b6565b611d39565b005b34801561044357600080fd5b5061045e600480360381019061045991906136ba565b611d9b565b60405161046b91906140fe565b60405180910390f35b34801561048057600080fd5b5061049b600480360381019061049691906136ba565b611df5565b6040516104a89190613e7a565b60405180910390f35b3480156104bd57600080fd5b506104d860048036038101906104d391906136ba565b611f08565b005b3480156104e657600080fd5b5061050160048036038101906104fc919061342b565b6123f8565b60405161050e9190613e5f565b60405180910390f35b60007f80ac58cd000000000000000000000000000000000000000000000000000000007bffffffffffffffffffffffffffffffffffffffffffffffffffffffff1916827bffffffffffffffffffffffffffffffffffffffffffffffffffffffff191614806105e257507f5b5e139f000000000000000000000000000000000000000000000000000000007bffffffffffffffffffffffffffffffffffffffffffffffffffffffff1916827bffffffffffffffffffffffffffffffffffffffffffffffffffffffff1916145b806105f257506105f18261248c565b5b9050919050565b606060008054610608906143d7565b80601f0160208091040260200160405190810160405280929190818152602001828054610634906143d7565b80156106815780601f1061065657610100808354040283529160200191610681565b820191906000526020600020905b81548152906001019060200180831161066457829003601f168201915b5050505050905090565b6000610696826124f6565b6004600083815260200190815260200160002060009054906101000a900473ffffffffffffffffffffffffffffffffffffffff169050919050565b60006106dc826117e0565b90508073ffffffffffffffffffffffffffffffffffffffff168373ffffffffffffffffffffffffffffffffffffffff16141561074d576040517f08c379a00000000000000000000000000000000000000000000000000000000081526004016107449061403c565b60405180910390fd5b8073ffffffffffffffffffffffffffffffffffffffff1661076c612541565b73ffffffffffffffffffffffffffffffffffffffff16148061079b575061079a81610795612541565b6123f8565b5b6107da576040517f08c379a00000000000000000000000000000000000000000000000000000000081526004016107d190613fbc565b60405180910390fd5b6107e48383612549565b505050565b6060600060085467ffffffffffffffff81111561082f577f4e487b7100000000000000000000000000000000000000000000000000000000600052604160045260246000fd5b60405190808252806020026020018201604052801561086857816020015b610855613195565b81526020019060019003908161084d5790505b50905060005b600854811015610fb4576001841115610bd957600a6000828152602001908152602001600020600a0160009054906101000a900460ff1615610bd457600a600082815260200190815260200160002060405180610180016040529081600082015481526020016001820180546108e3906143d7565b80601f016020809104026020016040519081016040528092919081815260200182805461090f906143d7565b801561095c5780601f106109315761010080835404028352916020019161095c565b820191906000526020600020905b81548152906001019060200180831161093f57829003601f168201915b50505050508152602001600282018054610975906143d7565b80601f01602080910402602001604051908101604052809291908181526020018280546109a1906143d7565b80156109ee5780601f106109c3576101008083540402835291602001916109ee565b820191906000526020600020905b8154815290600101906020018083116109d157829003601f168201915b50505050508152602001600382015481526020016004820160009054906101000a900473ffffffffffffffffffffffffffffffffffffffff1673ffffffffffffffffffffffffffffffffffffffff1673ffffffffffffffffffffffffffffffffffffffff16815260200160058201548152602001600682015481526020016007820160009054906101000a900473ffffffffffffffffffffffffffffffffffffffff1673ffffffffffffffffffffffffffffffffffffffff1673ffffffffffffffffffffffffffffffffffffffff16815260200160088201805480602002602001604051908101604052809291908181526020018280548015610b4657602002820191906000526020600020905b8160009054906101000a900473ffffffffffffffffffffffffffffffffffffffff1673ffffffffffffffffffffffffffffffffffffffff1681526020019060010190808311610afc575b5050505050815260200160098201548152602001600a820160009054906101000a900460ff16151515158152602001600a820160019054906101000a900460ff161515151581525050828281518110610bc8577f4e487b7100000000000000000000000000000000000000000000000000000000600052603260045260246000fd5b60200260200101819052505b610fa3565b600b60003373ffffffffffffffffffffffffffffffffffffffff1673ffffffffffffffffffffffffffffffffffffffff1681526020019081526020016000208181548110610c50577f4e487b7100000000000000000000000000000000000000000000000000000000600052603260045260246000fd5b9060005260206000200154600a6000838152602001908152602001600020600001541415610fa257600a60008281526020019081526020016000206040518061018001604052908160008201548152602001600182018054610cb1906143d7565b80601f0160208091040260200160405190810160405280929190818152602001828054610cdd906143d7565b8015610d2a5780601f10610cff57610100808354040283529160200191610d2a565b820191906000526020600020905b815481529060010190602001808311610d0d57829003601f168201915b50505050508152602001600282018054610d43906143d7565b80601f0160208091040260200160405190810160405280929190818152602001828054610d6f906143d7565b8015610dbc5780601f10610d9157610100808354040283529160200191610dbc565b820191906000526020600020905b815481529060010190602001808311610d9f57829003601f168201915b50505050508152602001600382015481526020016004820160009054906101000a900473ffffffffffffffffffffffffffffffffffffffff1673ffffffffffffffffffffffffffffffffffffffff1673ffffffffffffffffffffffffffffffffffffffff16815260200160058201548152602001600682015481526020016007820160009054906101000a900473ffffffffffffffffffffffffffffffffffffffff1673ffffffffffffffffffffffffffffffffffffffff1673ffffffffffffffffffffffffffffffffffffffff16815260200160088201805480602002602001604051908101604052809291908181526020018280548015610f1457602002820191906000526020600020905b8160009054906101000a900473ffffffffffffffffffffffffffffffffffffffff1673ffffffffffffffffffffffffffffffffffffffff1681526020019060010190808311610eca575b5050505050815260200160098201548152602001600a820160009054906101000a900460ff16151515158152602001600a820160019054906101000a900460ff161515151581525050828281518110610f96577f4e487b7100000000000000000000000000000000000000000000000000000000600052603260045260246000fd5b60200260200101819052505b5b80610fad9061443a565b905061086e565b5080915050919050565b610fcf610fc9612541565b82612602565b61100e576040517f08c379a0000000000000000000000000000000000000000000000000000000008152600401611005906140bc565b60405180910390fd5b611019838383612697565b505050565b61103983838360405180602001604052806000815250611d39565b505050565b80600a60008281526020019081526020016000206009015442111561108d576000600a6000838152602001908152602001600020600a0160006101000a81548160ff0219169083151502179055505b600a6000838152602001908152602001600020600901544210806110d15750600a6000838152602001908152602001600020600a0160009054906101000a900460ff165b611110576040517f08c379a00000000000000000000000000000000000000000000000000000000081526004016111079061407c565b60405180910390fd5b600a600083815260200190815260200160002060040160009054906101000a900473ffffffffffffffffffffffffffffffffffffffff1673ffffffffffffffffffffffffffffffffffffffff163373ffffffffffffffffffffffffffffffffffffffff1614156111b5576040517f08c379a00000000000000000000000000000000000000000000000000000000081526004016111ac90613ffc565b60405180910390fd5b600034600960003373ffffffffffffffffffffffffffffffffffffffff1673ffffffffffffffffffffffffffffffffffffffff1681526020019081526020016000206000858152602001908152602001600020546112139190614266565b90506000600a60008581526020019081526020016000206006015414156112ac57600a600084815260200190815260200160002060050154341161128c576040517f08c379a000000000000000000000000000000000000000000000000000000000815260040161128390613edc565b60405180910390fd5b34600a60008581526020019081526020016000206006018190555061135f565b600a6000848152602001908152602001600020600601543411156112ea5734600a60008581526020019081526020016000206006018190555061135e565b600a6000848152602001908152602001600020600601548111611342576040517f08c379a00000000000000000000000000000000000000000000000000000000081526004016113399061405c565b60405180910390fd5b80600a6000858152602001908152602001600020600601819055505b5b33600a600085815260200190815260200160002060070160006101000a81548173ffffffffffffffffffffffffffffffffffffffff021916908373ffffffffffffffffffffffffffffffffffffffff1602179055506000600960003373ffffffffffffffffffffffffffffffffffffffff1673ffffffffffffffffffffffffffffffffffffffff168152602001908152602001600020600085815260200190815260200160002054141561148557600a6000848152602001908152602001600020600801339080600181540180825580915050600190039060005260206000200160009091909190916101000a81548173ffffffffffffffffffffffffffffffffffffffff021916908373ffffffffffffffffffffffffffffffffffffffff1602179055505b600b60003373ffffffffffffffffffffffffffffffffffffffff1673ffffffffffffffffffffffffffffffffffffffff16815260200190815260200160002083908060018154018082558091505060019003906000526020600020016000909190919091505580600960003373ffffffffffffffffffffffffffffffffffffffff1673ffffffffffffffffffffffffffffffffffffffff1681526020019081526020016000206000858152602001908152602001600020819055503373ffffffffffffffffffffffffffffffffffffffff167fe684a55f31b79eca403df938249029212a5925ec6be8012e099b45bc1019e5d28260405161158691906140fe565b60405180910390a2505050565b600061159f60076128fe565b90506115ab600761290c565b6115b53382612922565b6115bf8185612afc565b6000600854905080600a60008381526020019081526020016000206000018190555086600a6000838152602001908152602001600020600101908051906020019061160b929190613226565b5085600a60008381526020019081526020016000206002019080519060200190611636929190613226565b5081600a60008381526020019081526020016000206003018190555083600a60008381526020019081526020016000206005018190555082426116799190614266565b600a60008381526020019081526020016000206009018190555033600a600083815260200190815260200160002060040160006101000a81548173ffffffffffffffffffffffffffffffffffffffff021916908373ffffffffffffffffffffffffffffffffffffffff1602179055506001600a6000838152602001908152602001600020600a0160006101000a81548160ff0219169083151502179055506008600081548092919061172a9061443a565b9190505550600b60003373ffffffffffffffffffffffffffffffffffffffff1673ffffffffffffffffffffffffffffffffffffffff1681526020019081526020016000208190806001815401808255809150506001900390600052602060002001600090919091909150556117a0333084612697565b7fbdba0fc2c85fe021acfa560c047f0a846648b1b504aa94ab6557cabb04b94258816040516117cf91906140fe565b60405180910390a150505050505050565b6000806002600084815260200190815260200160002060009054906101000a900473ffffffffffffffffffffffffffffffffffffffff169050600073ffffffffffffffffffffffffffffffffffffffff168173ffffffffffffffffffffffffffffffffffffffff161415611889576040517f08c379a00000000000000000000000000000000000000000000000000000000081526004016118809061401c565b60405180910390fd5b80915050919050565b60008073ffffffffffffffffffffffffffffffffffffffff168273ffffffffffffffffffffffffffffffffffffffff161415611903576040517f08c379a00000000000000000000000000000000000000000000000000000000081526004016118fa90613f5c565b60405180910390fd5b600360008373ffffffffffffffffffffffffffffffffffffffff1673ffffffffffffffffffffffffffffffffffffffff168152602001908152602001600020549050919050565b611952613195565b600a6000838152602001908152602001600020604051806101800160405290816000820154815260200160018201805461198b906143d7565b80601f01602080910402602001604051908101604052809291908181526020018280546119b7906143d7565b8015611a045780601f106119d957610100808354040283529160200191611a04565b820191906000526020600020905b8154815290600101906020018083116119e757829003601f168201915b50505050508152602001600282018054611a1d906143d7565b80601f0160208091040260200160405190810160405280929190818152602001828054611a49906143d7565b8015611a965780601f10611a6b57610100808354040283529160200191611a96565b820191906000526020600020905b815481529060010190602001808311611a7957829003601f168201915b50505050508152602001600382015481526020016004820160009054906101000a900473ffffffffffffffffffffffffffffffffffffffff1673ffffffffffffffffffffffffffffffffffffffff1673ffffffffffffffffffffffffffffffffffffffff16815260200160058201548152602001600682015481526020016007820160009054906101000a900473ffffffffffffffffffffffffffffffffffffffff1673ffffffffffffffffffffffffffffffffffffffff1673ffffffffffffffffffffffffffffffffffffffff16815260200160088201805480602002602001604051908101604052809291908181526020018280548015611bee57602002820191906000526020600020905b8160009054906101000a900473ffffffffffffffffffffffffffffffffffffffff1673ffffffffffffffffffffffffffffffffffffffff1681526020019060010190808311611ba4575b5050505050815260200160098201548152602001600a820160009054906101000a900460ff16151515158152602001600a820160019054906101000a900460ff1615151515815250509050919050565b600042600a6000848152602001908152602001600020600901541115611c875742600a600084815260200190815260200160002060090154611c8091906142ed565b9050611c8c565b600090505b919050565b606060018054611ca0906143d7565b80601f0160208091040260200160405190810160405280929190818152602001828054611ccc906143d7565b8015611d195780601f10611cee57610100808354040283529160200191611d19565b820191906000526020600020905b815481529060010190602001808311611cfc57829003601f168201915b5050505050905090565b611d35611d2e612541565b8383612b70565b5050565b611d4a611d44612541565b83612602565b611d89576040517f08c379a0000000000000000000000000000000000000000000000000000000008152600401611d80906140bc565b60405180910390fd5b611d9584848484612cdd565b50505050565b6000600960003373ffffffffffffffffffffffffffffffffffffffff1673ffffffffffffffffffffffffffffffffffffffff1681526020019081526020016000206000838152602001908152602001600020549050919050565b6060611e00826124f6565b6000600660008481526020019081526020016000208054611e20906143d7565b80601f0160208091040260200160405190810160405280929190818152602001828054611e4c906143d7565b8015611e995780601f10611e6e57610100808354040283529160200191611e99565b820191906000526020600020905b815481529060010190602001808311611e7c57829003601f168201915b505050505090506000611eaa612d39565b9050600081511415611ec0578192505050611f03565b600082511115611ef5578082604051602001611edd929190613db2565b60405160208183030381529060405292505050611f03565b611efe84612d50565b925050505b919050565b80600a600082815260200190815260200160002060090154421115611f57576000600a6000838152602001908152602001600020600a0160006101000a81548160ff0219169083151502179055505b600a6000838152602001908152602001600020600a0160009054906101000a900460ff1615611fbb576040517f08c379a0000000000000000000000000000000000000000000000000000000008152600401611fb29061409c565b60405180910390fd5b3373ffffffffffffffffffffffffffffffffffffffff16600a600084815260200190815260200160002060040160009054906101000a900473ffffffffffffffffffffffffffffffffffffffff1673ffffffffffffffffffffffffffffffffffffffff1614801561204d5750600a6000838152602001908152602001600020600a0160019054906101000a900460ff16155b156121ab57600073ffffffffffffffffffffffffffffffffffffffff16600a600084815260200190815260200160002060070160009054906101000a900473ffffffffffffffffffffffffffffffffffffffff1673ffffffffffffffffffffffffffffffffffffffff1614156120e3576120de3033600a600086815260200190815260200160002060030154612697565b612177565b600a600083815260200190815260200160002060040160009054906101000a900473ffffffffffffffffffffffffffffffffffffffff1673ffffffffffffffffffffffffffffffffffffffff166108fc600a6000858152602001908152602001600020600601549081150290604051600060405180830381858888f19350505050158015612175573d6000803e3d6000fd5b505b6001600a6000848152602001908152602001600020600a0160016101000a81548160ff02191690831515021790555061239e565b3373ffffffffffffffffffffffffffffffffffffffff16600a600084815260200190815260200160002060070160009054906101000a900473ffffffffffffffffffffffffffffffffffffffff1673ffffffffffffffffffffffffffffffffffffffff1614156122715761226c30600a600085815260200190815260200160002060070160009054906101000a900473ffffffffffffffffffffffffffffffffffffffff16600a600086815260200190815260200160002060030154612697565b61239d565b6000600960003373ffffffffffffffffffffffffffffffffffffffff1673ffffffffffffffffffffffffffffffffffffffff1681526020019081526020016000206000848152602001908152602001600020541415612305576040517f08c379a00000000000000000000000000000000000000000000000000000000081526004016122fc90613f7c565b60405180910390fd5b3373ffffffffffffffffffffffffffffffffffffffff166108fc600960003373ffffffffffffffffffffffffffffffffffffffff1673ffffffffffffffffffffffffffffffffffffffff1681526020019081526020016000206000858152602001908152602001600020549081150290604051600060405180830381858888f1935050505015801561239b573d6000803e3d6000fd5b505b5b6000600960003373ffffffffffffffffffffffffffffffffffffffff1673ffffffffffffffffffffffffffffffffffffffff1681526020019081526020016000206000848152602001908152602001600020819055505050565b6000600560008473ffffffffffffffffffffffffffffffffffffffff1673ffffffffffffffffffffffffffffffffffffffff16815260200190815260200160002060008373ffffffffffffffffffffffffffffffffffffffff1673ffffffffffffffffffffffffffffffffffffffff16815260200190815260200160002060009054906101000a900460ff16905092915050565b60007f01ffc9a7000000000000000000000000000000000000000000000000000000007bffffffffffffffffffffffffffffffffffffffffffffffffffffffff1916827bffffffffffffffffffffffffffffffffffffffffffffffffffffffff1916149050919050565b6124ff81612db8565b61253e576040517f08c379a00000000000000000000000000000000000000000000000000000000081526004016125359061401c565b60405180910390fd5b50565b600033905090565b816004600083815260200190815260200160002060006101000a81548173ffffffffffffffffffffffffffffffffffffffff021916908373ffffffffffffffffffffffffffffffffffffffff160217905550808273ffffffffffffffffffffffffffffffffffffffff166125bc836117e0565b73ffffffffffffffffffffffffffffffffffffffff167f8c5be1e5ebec7d5bd14f71427d1e84f3dd0314c0f7b2291e5b200ac8c7c3b92560405160405180910390a45050565b60008061260e836117e0565b90508073ffffffffffffffffffffffffffffffffffffffff168473ffffffffffffffffffffffffffffffffffffffff161480612650575061264f81856123f8565b5b8061268e57508373ffffffffffffffffffffffffffffffffffffffff166126768461068b565b73ffffffffffffffffffffffffffffffffffffffff16145b91505092915050565b8273ffffffffffffffffffffffffffffffffffffffff166126b7826117e0565b73ffffffffffffffffffffffffffffffffffffffff161461270d576040517f08c379a000000000000000000000000000000000000000000000000000000000815260040161270490613ebc565b60405180910390fd5b600073ffffffffffffffffffffffffffffffffffffffff168273ffffffffffffffffffffffffffffffffffffffff16141561277d576040517f08c379a000000000000000000000000000000000000000000000000000000000815260040161277490613f1c565b60405180910390fd5b612788838383612e24565b612793600082612549565b6001600360008573ffffffffffffffffffffffffffffffffffffffff1673ffffffffffffffffffffffffffffffffffffffff16815260200190815260200160002060008282546127e391906142ed565b925050819055506001600360008473ffffffffffffffffffffffffffffffffffffffff1673ffffffffffffffffffffffffffffffffffffffff168152602001908152602001600020600082825461283a9190614266565b92505081905550816002600083815260200190815260200160002060006101000a81548173ffffffffffffffffffffffffffffffffffffffff021916908373ffffffffffffffffffffffffffffffffffffffff160217905550808273ffffffffffffffffffffffffffffffffffffffff168473ffffffffffffffffffffffffffffffffffffffff167fddf252ad1be2c89b69c2b068fc378daa952ba7f163c4a11628f55a4df523b3ef60405160405180910390a46128f9838383612e29565b505050565b600081600001549050919050565b6001816000016000828254019250508190555050565b600073ffffffffffffffffffffffffffffffffffffffff168273ffffffffffffffffffffffffffffffffffffffff161415612992576040517f08c379a000000000000000000000000000000000000000000000000000000000815260040161298990613fdc565b60405180910390fd5b61299b81612db8565b156129db576040517f08c379a00000000000000000000000000000000000000000000000000000000081526004016129d290613efc565b60405180910390fd5b6129e760008383612e24565b6001600360008473ffffffffffffffffffffffffffffffffffffffff1673ffffffffffffffffffffffffffffffffffffffff1681526020019081526020016000206000828254612a379190614266565b92505081905550816002600083815260200190815260200160002060006101000a81548173ffffffffffffffffffffffffffffffffffffffff021916908373ffffffffffffffffffffffffffffffffffffffff160217905550808273ffffffffffffffffffffffffffffffffffffffff16600073ffffffffffffffffffffffffffffffffffffffff167fddf252ad1be2c89b69c2b068fc378daa952ba7f163c4a11628f55a4df523b3ef60405160405180910390a4612af860008383612e29565b5050565b612b0582612db8565b612b44576040517f08c379a0000000000000000000000000000000000000000000000000000000008152600401612b3b90613f9c565b60405180910390fd5b80600660008481526020019081526020016000209080519060200190612b6b929190613226565b505050565b8173ffffffffffffffffffffffffffffffffffffffff168373ffffffffffffffffffffffffffffffffffffffff161415612bdf576040517f08c379a0000000000000000000000000000000000000000000000000000000008152600401612bd690613f3c565b60405180910390fd5b80600560008573ffffffffffffffffffffffffffffffffffffffff1673ffffffffffffffffffffffffffffffffffffffff16815260200190815260200160002060008473ffffffffffffffffffffffffffffffffffffffff1673ffffffffffffffffffffffffffffffffffffffff16815260200190815260200160002060006101000a81548160ff0219169083151502179055508173ffffffffffffffffffffffffffffffffffffffff168373ffffffffffffffffffffffffffffffffffffffff167f17307eab39ab6107e8899845ad3d59bd9653f200f220920489ca2b5937696c3183604051612cd09190613e5f565b60405180910390a3505050565b612ce8848484612697565b612cf484848484612e2e565b612d33576040517f08c379a0000000000000000000000000000000000000000000000000000000008152600401612d2a90613e9c565b60405180910390fd5b50505050565b606060405180602001604052806000815250905090565b6060612d5b826124f6565b6000612d65612d39565b90506000815111612d855760405180602001604052806000815250612db0565b80612d8f84612fc5565b604051602001612da0929190613db2565b6040516020818303038152906040525b915050919050565b60008073ffffffffffffffffffffffffffffffffffffffff166002600084815260200190815260200160002060009054906101000a900473ffffffffffffffffffffffffffffffffffffffff1673ffffffffffffffffffffffffffffffffffffffff1614159050919050565b505050565b505050565b6000612e4f8473ffffffffffffffffffffffffffffffffffffffff16613172565b15612fb8578373ffffffffffffffffffffffffffffffffffffffff1663150b7a02612e78612541565b8786866040518563ffffffff1660e01b8152600401612e9a9493929190613df1565b602060405180830381600087803b158015612eb457600080fd5b505af1925050508015612ee557506040513d601f19601f82011682018060405250810190612ee291906135d2565b60015b612f68573d8060008114612f15576040519150601f19603f3d011682016040523d82523d6000602084013e612f1a565b606091505b50600081511415612f60576040517f08c379a0000000000000000000000000000000000000000000000000000000008152600401612f5790613e9c565b60405180910390fd5b805181602001fd5b63150b7a0260e01b7bffffffffffffffffffffffffffffffffffffffffffffffffffffffff1916817bffffffffffffffffffffffffffffffffffffffffffffffffffffffff191614915050612fbd565b600190505b949350505050565b6060600082141561300d576040518060400160405280600181526020017f3000000000000000000000000000000000000000000000000000000000000000815250905061316d565b600082905060005b6000821461303f5780806130289061443a565b915050600a8261303891906142bc565b9150613015565b60008167ffffffffffffffff811115613081577f4e487b7100000000000000000000000000000000000000000000000000000000600052604160045260246000fd5b6040519080825280601f01601f1916602001820160405280156130b35781602001600182028036833780820191505090505b5090505b60008514613166576001826130cc91906142ed565b9150600a856130db9190614483565b60306130e79190614266565b60f81b818381518110613123577f4e487b7100000000000000000000000000000000000000000000000000000000600052603260045260246000fd5b60200101907effffffffffffffffffffffffffffffffffffffffffffffffffffffffffffff1916908160001a905350600a8561315f91906142bc565b94506130b7565b8093505050505b919050565b6000808273ffffffffffffffffffffffffffffffffffffffff163b119050919050565b60405180610180016040528060008152602001606081526020016060815260200160008152602001600073ffffffffffffffffffffffffffffffffffffffff1681526020016000815260200160008152602001600073ffffffffffffffffffffffffffffffffffffffff16815260200160608152602001600081526020016000151581526020016000151581525090565b828054613232906143d7565b90600052602060002090601f016020900481019282613254576000855561329b565b82601f1061326d57805160ff191683800117855561329b565b8280016001018555821561329b579182015b8281111561329a57825182559160200191906001019061327f565b5b5090506132a891906132ac565b5090565b5b808211156132c55760008160009055506001016132ad565b5090565b60006132dc6132d78461413e565b614119565b9050828152602081018484840111156132f457600080fd5b6132ff848285614395565b509392505050565b600061331a6133158461416f565b614119565b90508281526020810184848401111561333257600080fd5b61333d848285614395565b509392505050565b600081359050613354816149b9565b92915050565b600081359050613369816149d0565b92915050565b60008135905061337e816149e7565b92915050565b600081519050613393816149e7565b92915050565b600082601f8301126133aa57600080fd5b81356133ba8482602086016132c9565b91505092915050565b600082601f8301126133d457600080fd5b81356133e4848260208601613307565b91505092915050565b6000813590506133fc816149fe565b92915050565b60006020828403121561341457600080fd5b600061342284828501613345565b91505092915050565b6000806040838503121561343e57600080fd5b600061344c85828601613345565b925050602061345d85828601613345565b9150509250929050565b60008060006060848603121561347c57600080fd5b600061348a86828701613345565b935050602061349b86828701613345565b92505060406134ac868287016133ed565b9150509250925092565b600080600080608085870312156134cc57600080fd5b60006134da87828801613345565b94505060206134eb87828801613345565b93505060406134fc878288016133ed565b925050606085013567ffffffffffffffff81111561351957600080fd5b61352587828801613399565b91505092959194509250565b6000806040838503121561354457600080fd5b600061355285828601613345565b92505060206135638582860161335a565b9150509250929050565b6000806040838503121561358057600080fd5b600061358e85828601613345565b925050602061359f858286016133ed565b9150509250929050565b6000602082840312156135bb57600080fd5b60006135c98482850161336f565b91505092915050565b6000602082840312156135e457600080fd5b60006135f284828501613384565b91505092915050565b600080600080600060a0868803121561361357600080fd5b600086013567ffffffffffffffff81111561362d57600080fd5b613639888289016133c3565b955050602086013567ffffffffffffffff81111561365657600080fd5b613662888289016133c3565b945050604086013567ffffffffffffffff81111561367f57600080fd5b61368b888289016133c3565b935050606061369c888289016133ed565b92505060806136ad888289016133ed565b9150509295509295909350565b6000602082840312156136cc57600080fd5b60006136da848285016133ed565b91505092915050565b60006136ef838361370f565b60208301905092915050565b60006137078383613b70565b905092915050565b61371881614321565b82525050565b61372781614321565b82525050565b6000613738826141c0565b6137428185614206565b935061374d836141a0565b8060005b8381101561377e57815161376588826136e3565b9750613770836141ec565b925050600181019050613751565b5085935050505092915050565b6000613796826141cb565b6137a08185614217565b9350836020820285016137b2856141b0565b8060005b858110156137ee57848403895281516137cf85826136fb565b94506137da836141f9565b925060208a019950506001810190506137b6565b50829750879550505050505092915050565b61380981614333565b82525050565b61381881614333565b82525050565b6000613829826141d6565b6138338185614228565b93506138438185602086016143a4565b61384c81614570565b840191505092915050565b6000613862826141e1565b61386c8185614239565b935061387c8185602086016143a4565b61388581614570565b840191505092915050565b600061389b826141e1565b6138a5818561424a565b93506138b58185602086016143a4565b6138be81614570565b840191505092915050565b60006138d4826141e1565b6138de818561425b565b93506138ee8185602086016143a4565b80840191505092915050565b600061390760328361424a565b915061391282614581565b604082019050919050565b600061392a60258361424a565b9150613935826145d0565b604082019050919050565b600061394d60228361424a565b91506139588261461f565b604082019050919050565b6000613970601c8361424a565b915061397b8261466e565b602082019050919050565b600061399360248361424a565b915061399e82614697565b604082019050919050565b60006139b660198361424a565b91506139c1826146e6565b602082019050919050565b60006139d960298361424a565b91506139e48261470f565b604082019050919050565b60006139fc60168361424a565b9150613a078261475e565b602082019050919050565b6000613a1f602e8361424a565b9150613a2a82614787565b604082019050919050565b6000613a42603e8361424a565b9150613a4d826147d6565b604082019050919050565b6000613a6560208361424a565b9150613a7082614825565b602082019050919050565b6000613a8860168361424a565b9150613a938261484e565b602082019050919050565b6000613aab60188361424a565b9150613ab682614877565b602082019050919050565b6000613ace60218361424a565b9150613ad9826148a0565b604082019050919050565b6000613af1601f8361424a565b9150613afc826148ef565b602082019050919050565b6000613b14600d8361424a565b9150613b1f82614918565b602082019050919050565b6000613b3760198361424a565b9150613b4282614941565b602082019050919050565b6000613b5a602e8361424a565b9150613b658261496a565b604082019050919050565b600061018083016000830151613b896000860182613d94565b5060208301518482036020860152613ba18282613857565b91505060408301518482036040860152613bbb8282613857565b9150506060830151613bd06060860182613d94565b506080830151613be3608086018261370f565b5060a0830151613bf660a0860182613d94565b5060c0830151613c0960c0860182613d94565b5060e0830151613c1c60e086018261370f565b50610100830151848203610100860152613c36828261372d565b915050610120830151613c4d610120860182613d94565b50610140830151613c62610140860182613800565b50610160830151613c77610160860182613800565b508091505092915050565b600061018083016000830151613c9b6000860182613d94565b5060208301518482036020860152613cb38282613857565b91505060408301518482036040860152613ccd8282613857565b9150506060830151613ce26060860182613d94565b506080830151613cf5608086018261370f565b5060a0830151613d0860a0860182613d94565b5060c0830151613d1b60c0860182613d94565b5060e0830151613d2e60e086018261370f565b50610100830151848203610100860152613d48828261372d565b915050610120830151613d5f610120860182613d94565b50610140830151613d74610140860182613800565b50610160830151613d89610160860182613800565b508091505092915050565b613d9d8161438b565b82525050565b613dac8161438b565b82525050565b6000613dbe82856138c9565b9150613dca82846138c9565b91508190509392505050565b6000602082019050613deb600083018461371e565b92915050565b6000608082019050613e06600083018761371e565b613e13602083018661371e565b613e206040830185613da3565b8181036060830152613e32818461381e565b905095945050505050565b60006020820190508181036000830152613e57818461378b565b905092915050565b6000602082019050613e74600083018461380f565b92915050565b60006020820190508181036000830152613e948184613890565b905092915050565b60006020820190508181036000830152613eb5816138fa565b9050919050565b60006020820190508181036000830152613ed58161391d565b9050919050565b60006020820190508181036000830152613ef581613940565b9050919050565b60006020820190508181036000830152613f1581613963565b9050919050565b60006020820190508181036000830152613f3581613986565b9050919050565b60006020820190508181036000830152613f55816139a9565b9050919050565b60006020820190508181036000830152613f75816139cc565b9050919050565b60006020820190508181036000830152613f95816139ef565b9050919050565b60006020820190508181036000830152613fb581613a12565b9050919050565b60006020820190508181036000830152613fd581613a35565b9050919050565b60006020820190508181036000830152613ff581613a58565b9050919050565b6000602082019050818103600083015261401581613a7b565b9050919050565b6000602082019050818103600083015261403581613a9e565b9050919050565b6000602082019050818103600083015261405581613ac1565b9050919050565b6000602082019050818103600083015261407581613ae4565b9050919050565b6000602082019050818103600083015261409581613b07565b9050919050565b600060208201905081810360008301526140b581613b2a565b9050919050565b600060208201905081810360008301526140d581613b4d565b9050919050565b600060208201905081810360008301526140f68184613c82565b905092915050565b60006020820190506141136000830184613da3565b92915050565b6000614123614134565b905061412f8282614409565b919050565b6000604051905090565b600067ffffffffffffffff82111561415957614158614541565b5b61416282614570565b9050602081019050919050565b600067ffffffffffffffff82111561418a57614189614541565b5b61419382614570565b9050602081019050919050565b6000819050602082019050919050565b6000819050602082019050919050565b600081519050919050565b600081519050919050565b600081519050919050565b600081519050919050565b6000602082019050919050565b6000602082019050919050565b600082825260208201905092915050565b600082825260208201905092915050565b600082825260208201905092915050565b600082825260208201905092915050565b600082825260208201905092915050565b600081905092915050565b60006142718261438b565b915061427c8361438b565b9250827fffffffffffffffffffffffffffffffffffffffffffffffffffffffffffffffff038211156142b1576142b06144b4565b5b828201905092915050565b60006142c78261438b565b91506142d28361438b565b9250826142e2576142e16144e3565b5b828204905092915050565b60006142f88261438b565b91506143038361438b565b925082821015614316576143156144b4565b5b828203905092915050565b600061432c8261436b565b9050919050565b60008115159050919050565b60007fffffffff0000000000000000000000000000000000000000000000000000000082169050919050565b600073ffffffffffffffffffffffffffffffffffffffff82169050919050565b6000819050919050565b82818337600083830152505050565b60005b838110156143c25780820151818401526020810190506143a7565b838111156143d1576000848401525b50505050565b600060028204905060018216806143ef57607f821691505b6020821081141561440357614402614512565b5b50919050565b61441282614570565b810181811067ffffffffffffffff8211171561443157614430614541565b5b80604052505050565b60006144458261438b565b91507fffffffffffffffffffffffffffffffffffffffffffffffffffffffffffffffff821415614478576144776144b4565b5b600182019050919050565b600061448e8261438b565b91506144998361438b565b9250826144a9576144a86144e3565b5b828206905092915050565b7f4e487b7100000000000000000000000000000000000000000000000000000000600052601160045260246000fd5b7f4e487b7100000000000000000000000000000000000000000000000000000000600052601260045260246000fd5b7f4e487b7100000000000000000000000000000000000000000000000000000000600052602260045260246000fd5b7f4e487b7100000000000000000000000000000000000000000000000000000000600052604160045260246000fd5b6000601f19601f8301169050919050565b7f4552433732313a207472616e7366657220746f206e6f6e20455243373231526560008201527f63656976657220696d706c656d656e7465720000000000000000000000000000602082015250565b7f4552433732313a207472616e736665722066726f6d20696e636f72726563742060008201527f6f776e6572000000000000000000000000000000000000000000000000000000602082015250565b7f416d6f756e74206973206c657373207468616e207374617274696e672070726960008201527f6365000000000000000000000000000000000000000000000000000000000000602082015250565b7f4552433732313a20746f6b656e20616c7265616479206d696e74656400000000600082015250565b7f4552433732313a207472616e7366657220746f20746865207a65726f2061646460008201527f7265737300000000000000000000000000000000000000000000000000000000602082015250565b7f4552433732313a20617070726f766520746f2063616c6c657200000000000000600082015250565b7f4552433732313a2061646472657373207a65726f206973206e6f74206120766160008201527f6c6964206f776e65720000000000000000000000000000000000000000000000602082015250565b7f44696420796f752070617274696369706174653f3f3f00000000000000000000600082015250565b7f45524337323155524953746f726167653a2055524920736574206f66206e6f6e60008201527f6578697374656e7420746f6b656e000000000000000000000000000000000000602082015250565b7f4552433732313a20617070726f76652063616c6c6572206973206e6f7420746f60008201527f6b656e206f776e6572206e6f7220617070726f76656420666f7220616c6c0000602082015250565b7f4552433732313a206d696e7420746f20746865207a65726f2061646472657373600082015250565b7f4f776e65722063616e2774206269642064756821212100000000000000000000600082015250565b7f4552433732313a20696e76616c696420746f6b656e2049440000000000000000600082015250565b7f4552433732313a20617070726f76616c20746f2063757272656e74206f776e6560008201527f7200000000000000000000000000000000000000000000000000000000000000602082015250565b7f416d6f756e74206973206c657373207468616e2063757272656e742062696400600082015250565b7f41756374696f6e20656e64656400000000000000000000000000000000000000600082015250565b7f41756374696f6e20686173206e6f742079657420656e64656400000000000000600082015250565b7f4552433732313a2063616c6c6572206973206e6f7420746f6b656e206f776e6560008201527f72206e6f7220617070726f766564000000000000000000000000000000000000602082015250565b6149c281614321565b81146149cd57600080fd5b50565b6149d981614333565b81146149e457600080fd5b50565b6149f08161433f565b81146149fb57600080fd5b50565b614a078161438b565b8114614a1257600080fd5b5056fea26469706673582212200a6b168a128dd0bbfb6a13f61e9ee3eecc75e916e3ff24cbb988a4b26ec9b29d64736f6c63430008040033",
  "linkReferences": {},
  "deployedLinkReferences": {}
}