{
  "contractName": "TokenERC721",
  "abi": [
    {
      "inputs": [
        {
          "internalType": "string",
          "name": "name",
          "type": "string"
        },
        {
          "internalType": "string",
          "name": "symbol",
          "type": "string"
        },
        {
          "internalType": "string",
          "name": "baseTokenURI",
          "type": "string"
        }
      ],
      "stateMutability": "nonpayable",
      "type": "constructor"
    },
    {
      "anonymous": false,
      "inputs": [
        {
          "indexed": true,
          "internalType": "address",
          "name": "owner",
          "type": "address"
        },
        {
          "indexed": true,
          "internalType": "address",
          "name": "approved",
          "type": "address"
        },
        {
          "indexed": true,
          "internalType": "uint256",
          "name": "tokenId",
          "type": "uint256"
        }
      ],
      "name": "Approval",
      "type": "event"
    },
    {
      "anonymous": false,
      "inputs": [
        {
          "indexed": true,
          "internalType": "address",
          "name": "owner",
          "type": "address"
        },
        {
          "indexed": true,
          "internalType": "address",
          "name": "operator",
          "type": "address"
        },
        {
          "indexed": false,
          "internalType": "bool",
          "name": "approved",
          "type": "bool"
        }
      ],
      "name": "ApprovalForAll",
      "type": "event"
    },
    {
      "anonymous": false,
      "inputs": [
        {
          "indexed": false,
          "internalType": "address",
          "name": "account",
          "type": "address"
        }
      ],
      "name": "Paused",
      "type": "event"
    },
    {
      "anonymous": false,
      "inputs": [
        {
          "indexed": true,
          "internalType": "bytes32",
          "name": "role",
          "type": "bytes32"
        },
        {
          "indexed": true,
          "internalType": "bytes32",
          "name": "previousAdminRole",
          "type": "bytes32"
        },
        {
          "indexed": true,
          "internalType": "bytes32",
          "name": "newAdminRole",
          "type": "bytes32"
        }
      ],
      "name": "RoleAdminChanged",
      "type": "event"
    },
    {
      "anonymous": false,
      "inputs": [
        {
          "indexed": true,
          "internalType": "bytes32",
          "name": "role",
          "type": "bytes32"
        },
        {
          "indexed": true,
          "internalType": "address",
          "name": "account",
          "type": "address"
        },
        {
          "indexed": true,
          "internalType": "address",
          "name": "sender",
          "type": "address"
        }
      ],
      "name": "RoleGranted",
      "type": "event"
    },
    {
      "anonymous": false,
      "inputs": [
        {
          "indexed": true,
          "internalType": "bytes32",
          "name": "role",
          "type": "bytes32"
        },
        {
          "indexed": true,
          "internalType": "address",
          "name": "account",
          "type": "address"
        },
        {
          "indexed": true,
          "internalType": "address",
          "name": "sender",
          "type": "address"
        }
      ],
      "name": "RoleRevoked",
      "type": "event"
    },
    {
      "anonymous": false,
      "inputs": [
        {
          "indexed": true,
          "internalType": "address",
          "name": "from",
          "type": "address"
        },
        {
          "indexed": true,
          "internalType": "address",
          "name": "to",
          "type": "address"
        },
        {
          "indexed": true,
          "internalType": "uint256",
          "name": "tokenId",
          "type": "uint256"
        }
      ],
      "name": "Transfer",
      "type": "event"
    },
    {
      "anonymous": false,
      "inputs": [
        {
          "indexed": false,
          "internalType": "address",
          "name": "account",
          "type": "address"
        }
      ],
      "name": "Unpaused",
      "type": "event"
    },
    {
      "inputs": [],
      "name": "DEFAULT_ADMIN_ROLE",
      "outputs": [
        {
          "internalType": "bytes32",
          "name": "",
          "type": "bytes32"
        }
      ],
      "stateMutability": "view",
      "type": "function"
    },
    {
      "inputs": [],
      "name": "MINTER_ROLE",
      "outputs": [
        {
          "internalType": "bytes32",
          "name": "",
          "type": "bytes32"
        }
      ],
      "stateMutability": "view",
      "type": "function"
    },
    {
      "inputs": [],
      "name": "PAUSER_ROLE",
      "outputs": [
        {
          "internalType": "bytes32",
          "name": "",
          "type": "bytes32"
        }
      ],
      "stateMutability": "view",
      "type": "function"
    },
    {
      "inputs": [
        {
          "internalType": "address",
          "name": "to",
          "type": "address"
        },
        {
          "internalType": "uint256",
          "name": "tokenId",
          "type": "uint256"
        }
      ],
      "name": "approve",
      "outputs": [],
      "stateMutability": "nonpayable",
      "type": "function"
    },
    {
      "inputs": [
        {
          "internalType": "address",
          "name": "owner",
          "type": "address"
        }
      ],
      "name": "balanceOf",
      "outputs": [
        {
          "internalType": "uint256",
          "name": "",
          "type": "uint256"
        }
      ],
      "stateMutability": "view",
      "type": "function"
    },
    {
      "inputs": [
        {
          "internalType": "uint256",
          "name": "tokenId",
          "type": "uint256"
        }
      ],
      "name": "burn",
      "outputs": [],
      "stateMutability": "nonpayable",
      "type": "function"
    },
    {
      "inputs": [
        {
          "internalType": "uint256",
          "name": "tokenId",
          "type": "uint256"
        }
      ],
      "name": "getApproved",
      "outputs": [
        {
          "internalType": "address",
          "name": "",
          "type": "address"
        }
      ],
      "stateMutability": "view",
      "type": "function"
    },
    {
      "inputs": [
        {
          "internalType": "bytes32",
          "name": "role",
          "type": "bytes32"
        }
      ],
      "name": "getRoleAdmin",
      "outputs": [
        {
          "internalType": "bytes32",
          "name": "",
          "type": "bytes32"
        }
      ],
      "stateMutability": "view",
      "type": "function"
    },
    {
      "inputs": [
        {
          "internalType": "bytes32",
          "name": "role",
          "type": "bytes32"
        },
        {
          "internalType": "uint256",
          "name": "index",
          "type": "uint256"
        }
      ],
      "name": "getRoleMember",
      "outputs": [
        {
          "internalType": "address",
          "name": "",
          "type": "address"
        }
      ],
      "stateMutability": "view",
      "type": "function"
    },
    {
      "inputs": [
        {
          "internalType": "bytes32",
          "name": "role",
          "type": "bytes32"
        }
      ],
      "name": "getRoleMemberCount",
      "outputs": [
        {
          "internalType": "uint256",
          "name": "",
          "type": "uint256"
        }
      ],
      "stateMutability": "view",
      "type": "function"
    },
    {
      "inputs": [
        {
          "internalType": "bytes32",
          "name": "role",
          "type": "bytes32"
        },
        {
          "internalType": "address",
          "name": "account",
          "type": "address"
        }
      ],
      "name": "grantRole",
      "outputs": [],
      "stateMutability": "nonpayable",
      "type": "function"
    },
    {
      "inputs": [
        {
          "internalType": "bytes32",
          "name": "role",
          "type": "bytes32"
        },
        {
          "internalType": "address",
          "name": "account",
          "type": "address"
        }
      ],
      "name": "hasRole",
      "outputs": [
        {
          "internalType": "bool",
          "name": "",
          "type": "bool"
        }
      ],
      "stateMutability": "view",
      "type": "function"
    },
    {
      "inputs": [
        {
          "internalType": "address",
          "name": "owner",
          "type": "address"
        },
        {
          "internalType": "address",
          "name": "operator",
          "type": "address"
        }
      ],
      "name": "isApprovedForAll",
      "outputs": [
        {
          "internalType": "bool",
          "name": "",
          "type": "bool"
        }
      ],
      "stateMutability": "view",
      "type": "function"
    },
    {
      "inputs": [],
      "name": "name",
      "outputs": [
        {
          "internalType": "string",
          "name": "",
          "type": "string"
        }
      ],
      "stateMutability": "view",
      "type": "function"
    },
    {
      "inputs": [
        {
          "internalType": "uint256",
          "name": "tokenId",
          "type": "uint256"
        }
      ],
      "name": "ownerOf",
      "outputs": [
        {
          "internalType": "address",
          "name": "",
          "type": "address"
        }
      ],
      "stateMutability": "view",
      "type": "function"
    },
    {
      "inputs": [],
      "name": "paused",
      "outputs": [
        {
          "internalType": "bool",
          "name": "",
          "type": "bool"
        }
      ],
      "stateMutability": "view",
      "type": "function"
    },
    {
      "inputs": [
        {
          "internalType": "bytes32",
          "name": "role",
          "type": "bytes32"
        },
        {
          "internalType": "address",
          "name": "account",
          "type": "address"
        }
      ],
      "name": "renounceRole",
      "outputs": [],
      "stateMutability": "nonpayable",
      "type": "function"
    },
    {
      "inputs": [
        {
          "internalType": "bytes32",
          "name": "role",
          "type": "bytes32"
        },
        {
          "internalType": "address",
          "name": "account",
          "type": "address"
        }
      ],
      "name": "revokeRole",
      "outputs": [],
      "stateMutability": "nonpayable",
      "type": "function"
    },
    {
      "inputs": [
        {
          "internalType": "address",
          "name": "from",
          "type": "address"
        },
        {
          "internalType": "address",
          "name": "to",
          "type": "address"
        },
        {
          "internalType": "uint256",
          "name": "tokenId",
          "type": "uint256"
        }
      ],
      "name": "safeTransferFrom",
      "outputs": [],
      "stateMutability": "nonpayable",
      "type": "function"
    },
    {
      "inputs": [
        {
          "internalType": "address",
          "name": "from",
          "type": "address"
        },
        {
          "internalType": "address",
          "name": "to",
          "type": "address"
        },
        {
          "internalType": "uint256",
          "name": "tokenId",
          "type": "uint256"
        },
        {
          "internalType": "bytes",
          "name": "_data",
          "type": "bytes"
        }
      ],
      "name": "safeTransferFrom",
      "outputs": [],
      "stateMutability": "nonpayable",
      "type": "function"
    },
    {
      "inputs": [
        {
          "internalType": "address",
          "name": "operator",
          "type": "address"
        },
        {
          "internalType": "bool",
          "name": "approved",
          "type": "bool"
        }
      ],
      "name": "setApprovalForAll",
      "outputs": [],
      "stateMutability": "nonpayable",
      "type": "function"
    },
    {
      "inputs": [],
      "name": "symbol",
      "outputs": [
        {
          "internalType": "string",
          "name": "",
          "type": "string"
        }
      ],
      "stateMutability": "view",
      "type": "function"
    },
    {
      "inputs": [
        {
          "internalType": "uint256",
          "name": "index",
          "type": "uint256"
        }
      ],
      "name": "tokenByIndex",
      "outputs": [
        {
          "internalType": "uint256",
          "name": "",
          "type": "uint256"
        }
      ],
      "stateMutability": "view",
      "type": "function"
    },
    {
      "inputs": [
        {
          "internalType": "address",
          "name": "owner",
          "type": "address"
        },
        {
          "internalType": "uint256",
          "name": "index",
          "type": "uint256"
        }
      ],
      "name": "tokenOfOwnerByIndex",
      "outputs": [
        {
          "internalType": "uint256",
          "name": "",
          "type": "uint256"
        }
      ],
      "stateMutability": "view",
      "type": "function"
    },
    {
      "inputs": [
        {
          "internalType": "uint256",
          "name": "tokenId",
          "type": "uint256"
        }
      ],
      "name": "tokenURI",
      "outputs": [
        {
          "internalType": "string",
          "name": "",
          "type": "string"
        }
      ],
      "stateMutability": "view",
      "type": "function"
    },
    {
      "inputs": [],
      "name": "totalSupply",
      "outputs": [
        {
          "internalType": "uint256",
          "name": "",
          "type": "uint256"
        }
      ],
      "stateMutability": "view",
      "type": "function"
    },
    {
      "inputs": [
        {
          "internalType": "address",
          "name": "from",
          "type": "address"
        },
        {
          "internalType": "address",
          "name": "to",
          "type": "address"
        },
        {
          "internalType": "uint256",
          "name": "tokenId",
          "type": "uint256"
        }
      ],
      "name": "transferFrom",
      "outputs": [],
      "stateMutability": "nonpayable",
      "type": "function"
    },
    {
      "inputs": [
        {
          "internalType": "address",
          "name": "to",
          "type": "address"
        }
      ],
      "name": "mint",
      "outputs": [],
      "stateMutability": "nonpayable",
      "type": "function"
    },
    {
      "inputs": [],
      "name": "pause",
      "outputs": [],
      "stateMutability": "nonpayable",
      "type": "function"
    },
    {
      "inputs": [],
      "name": "unpause",
      "outputs": [],
      "stateMutability": "nonpayable",
      "type": "function"
    },
    {
      "inputs": [
        {
          "internalType": "bytes4",
          "name": "interfaceId",
          "type": "bytes4"
        }
      ],
      "name": "supportsInterface",
      "outputs": [
        {
          "internalType": "bool",
          "name": "",
          "type": "bool"
        }
      ],
      "stateMutability": "view",
      "type": "function"
    },
    {
      "inputs": [
        {
          "internalType": "uint256",
          "name": "tokenId",
          "type": "uint256"
        },
        {
          "internalType": "string",
          "name": "value",
          "type": "string"
        }
      ],
      "name": "registerRecord",
      "outputs": [],
      "stateMutability": "payable",
      "type": "function"
    },
    {
      "inputs": [
        {
          "internalType": "uint256",
          "name": "tokenId",
          "type": "uint256"
        }
      ],
      "name": "fetchRecords",
      "outputs": [
        {
          "internalType": "string[]",
          "name": "",
          "type": "string[]"
        }
      ],
      "stateMutability": "view",
      "type": "function"
    }
  ],
  "bytecode": "0x60806040523480156200001157600080fd5b506040516200530038038062005300833981810160405281019062000037919062000508565b8282816002908051906020019062000051929190620003e6565b5080600390805190602001906200006a929190620003e6565b5050506000600c60006101000a81548160ff02191690831515021790555080600e9080519060200190620000a0929190620003e6565b50620000c56000801b620000b96200015060201b60201c565b6200015860201b60201c565b620001067f9f2df0fed2c77648de5860a4cc508cd0818c85b8b8a1ab4ceeef8d981c8956a6620000fa6200015060201b60201c565b6200015860201b60201c565b620001477f65d7a28e3265b37a6474929f336521b332c1681b933f6cb9f3376673440d862a6200013b6200015060201b60201c565b6200015860201b60201c565b505050620006da565b600033905090565b6200016f8282620001a060201b620016be1760201c565b6200019b8160016000858152602001908152602001600020620001b660201b620016cc1790919060201c565b505050565b620001b28282620001ee60201b60201c565b5050565b6000620001e6836000018373ffffffffffffffffffffffffffffffffffffffff1660001b620002df60201b60201c565b905092915050565b6200020082826200035960201b60201c565b620002db57600160008084815260200190815260200160002060000160008373ffffffffffffffffffffffffffffffffffffffff1673ffffffffffffffffffffffffffffffffffffffff16815260200190815260200160002060006101000a81548160ff021916908315150217905550620002806200015060201b60201c565b73ffffffffffffffffffffffffffffffffffffffff168173ffffffffffffffffffffffffffffffffffffffff16837f2f8788117e7eff1d82e926ec794901d17c78024a50270940304540a733656f0d60405160405180910390a45b5050565b6000620002f38383620003c360201b60201c565b6200034e57826000018290806001815401808255809150506001900390600052602060002001600090919091909150558260000180549050836001016000848152602001908152602001600020819055506001905062000353565b600090505b92915050565b600080600084815260200190815260200160002060000160008373ffffffffffffffffffffffffffffffffffffffff1673ffffffffffffffffffffffffffffffffffffffff16815260200190815260200160002060009054906101000a900460ff16905092915050565b600080836001016000848152602001908152602001600020541415905092915050565b828054620003f49062000646565b90600052602060002090601f01602090048101928262000418576000855562000464565b82601f106200043357805160ff191683800117855562000464565b8280016001018555821562000464579182015b828111156200046357825182559160200191906001019062000446565b5b50905062000473919062000477565b5090565b5b808211156200049257600081600090555060010162000478565b5090565b6000620004ad620004a784620005dd565b620005a9565b905082815260208101848484011115620004c657600080fd5b620004d384828562000610565b509392505050565b600082601f830112620004ed57600080fd5b8151620004ff84826020860162000496565b91505092915050565b6000806000606084860312156200051e57600080fd5b600084015167ffffffffffffffff8111156200053957600080fd5b6200054786828701620004db565b935050602084015167ffffffffffffffff8111156200056557600080fd5b6200057386828701620004db565b925050604084015167ffffffffffffffff8111156200059157600080fd5b6200059f86828701620004db565b9150509250925092565b6000604051905081810181811067ffffffffffffffff82111715620005d357620005d2620006ab565b5b8060405250919050565b600067ffffffffffffffff821115620005fb57620005fa620006ab565b5b601f19601f8301169050602081019050919050565b60005b838110156200063057808201518184015260208101905062000613565b8381111562000640576000848401525b50505050565b600060028204905060018216806200065f57607f821691505b602082108114156200067657620006756200067c565b5b50919050565b7f4e487b7100000000000000000000000000000000000000000000000000000000600052602260045260246000fd5b7f4e487b7100000000000000000000000000000000000000000000000000000000600052604160045260246000fd5b614c1680620006ea6000396000f3fe6080604052600436106101ee5760003560e01c80635c975abb1161010d578063a217fddf116100a0578063ca15c8731161006f578063ca15c87314610724578063d539139314610761578063d547741f1461078c578063e63ab1e9146107b5578063e985e9c5146107e0576101ee565b8063a217fddf1461066a578063a22cb46514610695578063b88d4fde146106be578063c87b56dd146106e7576101ee565b80638456cb59116100dc5780638456cb59146105ae5780639010d07c146105c557806391d148541461060257806395d89b411461063f576101ee565b80635c975abb146104e05780636352211e1461050b5780636a6278421461054857806370a0823114610571576101ee565b80632f2ff15d116101855780633f4ba83a116101545780633f4ba83a1461043a57806342842e0e1461045157806342966c681461047a5780634f6ccce7146104a3576101ee565b80632f2ff15d1461038f5780632f745c59146103b85780632fda2df1146103f557806336568abe14610411576101ee565b806318160ddd116101c157806318160ddd146102c157806323b872dd146102ec578063248a9ca3146103155780632da2e6db14610352576101ee565b806301ffc9a7146101f357806306fdde0314610230578063081812fc1461025b578063095ea7b314610298575b600080fd5b3480156101ff57600080fd5b5061021a60048036038101906102159190613607565b61081d565b6040516102279190614368565b60405180910390f35b34801561023c57600080fd5b5061024561082f565b604051610252919061439e565b60405180910390f35b34801561026757600080fd5b50610282600480360381019061027d9190613659565b6108c1565b60405161028f91906142df565b60405180910390f35b3480156102a457600080fd5b506102bf60048036038101906102ba919061352a565b610946565b005b3480156102cd57600080fd5b506102d6610a5e565b6040516102e39190614740565b60405180910390f35b3480156102f857600080fd5b50610313600480360381019061030e9190613424565b610a6b565b005b34801561032157600080fd5b5061033c60048036038101906103379190613566565b610acb565b6040516103499190614383565b60405180910390f35b34801561035e57600080fd5b5061037960048036038101906103749190613659565b610aea565b6040516103869190614346565b60405180910390f35b34801561039b57600080fd5b506103b660048036038101906103b1919061358f565b610bd6565b005b3480156103c457600080fd5b506103df60048036038101906103da919061352a565b610c0a565b6040516103ec9190614740565b60405180910390f35b61040f600480360381019061040a9190613682565b610caf565b005b34801561041d57600080fd5b506104386004803603810190610433919061358f565b610d82565b005b34801561044657600080fd5b5061044f610db6565b005b34801561045d57600080fd5b5061047860048036038101906104739190613424565b610e30565b005b34801561048657600080fd5b506104a1600480360381019061049c9190613659565b610e50565b005b3480156104af57600080fd5b506104ca60048036038101906104c59190613659565b610eac565b6040516104d79190614740565b60405180910390f35b3480156104ec57600080fd5b506104f5610f43565b6040516105029190614368565b60405180910390f35b34801561051757600080fd5b50610532600480360381019061052d9190613659565b610f5a565b60405161053f91906142df565b60405180910390f35b34801561055457600080fd5b5061056f600480360381019061056a91906133bf565b61100c565b005b34801561057d57600080fd5b50610598600480360381019061059391906133bf565b61109c565b6040516105a59190614740565b60405180910390f35b3480156105ba57600080fd5b506105c3611154565b005b3480156105d157600080fd5b506105ec60048036038101906105e791906135cb565b6111ce565b6040516105f991906142df565b60405180910390f35b34801561060e57600080fd5b506106296004803603810190610624919061358f565b6111fd565b6040516106369190614368565b60405180910390f35b34801561064b57600080fd5b50610654611267565b604051610661919061439e565b60405180910390f35b34801561067657600080fd5b5061067f6112f9565b60405161068c9190614383565b60405180910390f35b3480156106a157600080fd5b506106bc60048036038101906106b791906134ee565b611300565b005b3480156106ca57600080fd5b506106e560048036038101906106e09190613473565b611481565b005b3480156106f357600080fd5b5061070e60048036038101906107099190613659565b6114e3565b60405161071b919061439e565b60405180910390f35b34801561073057600080fd5b5061074b60048036038101906107469190613566565b61158a565b6040516107589190614740565b60405180910390f35b34801561076d57600080fd5b506107766115ae565b6040516107839190614383565b60405180910390f35b34801561079857600080fd5b506107b360048036038101906107ae919061358f565b6115d2565b005b3480156107c157600080fd5b506107ca611606565b6040516107d79190614383565b60405180910390f35b3480156107ec57600080fd5b50610807600480360381019061080291906133e8565b61162a565b6040516108149190614368565b60405180910390f35b6000610828826116fc565b9050919050565b60606002805461083e906149f4565b80601f016020809104026020016040519081016040528092919081815260200182805461086a906149f4565b80156108b75780601f1061088c576101008083540402835291602001916108b7565b820191906000526020600020905b81548152906001019060200180831161089a57829003601f168201915b5050505050905090565b60006108cc82611776565b61090b576040517f08c379a0000000000000000000000000000000000000000000000000000000008152600401610902906145e0565b60405180910390fd5b6006600083815260200190815260200160002060009054906101000a900473ffffffffffffffffffffffffffffffffffffffff169050919050565b600061095182610f5a565b90508073ffffffffffffffffffffffffffffffffffffffff168373ffffffffffffffffffffffffffffffffffffffff1614156109c2576040517f08c379a00000000000000000000000000000000000000000000000000000000081526004016109b990614660565b60405180910390fd5b8073ffffffffffffffffffffffffffffffffffffffff166109e16117e2565b73ffffffffffffffffffffffffffffffffffffffff161480610a105750610a0f81610a0a6117e2565b61162a565b5b610a4f576040517f08c379a0000000000000000000000000000000000000000000000000000000008152600401610a4690614560565b60405180910390fd5b610a5983836117ea565b505050565b6000600a80549050905090565b610a7c610a766117e2565b826118a3565b610abb576040517f08c379a0000000000000000000000000000000000000000000000000000000008152600401610ab290614680565b60405180910390fd5b610ac6838383611981565b505050565b6000806000838152602001908152602001600020600101549050919050565b6060600f6000838152602001908152602001600020805480602002602001604051908101604052809291908181526020016000905b82821015610bcb578382906000526020600020018054610b3e906149f4565b80601f0160208091040260200160405190810160405280929190818152602001828054610b6a906149f4565b8015610bb75780601f10610b8c57610100808354040283529160200191610bb7565b820191906000526020600020905b815481529060010190602001808311610b9a57829003601f168201915b505050505081526020019060010190610b1f565b505050509050919050565b610be08282611bdd565b610c0581600160008581526020019081526020016000206116cc90919063ffffffff16565b505050565b6000610c158361109c565b8210610c56576040517f08c379a0000000000000000000000000000000000000000000000000000000008152600401610c4d90614440565b60405180910390fd5b600860008473ffffffffffffffffffffffffffffffffffffffff1673ffffffffffffffffffffffffffffffffffffffff168152602001908152602001600020600083815260200190815260200160002054905092915050565b60003390506000610cbf84610f5a565b90508173ffffffffffffffffffffffffffffffffffffffff168173ffffffffffffffffffffffffffffffffffffffff1614610d2f576040517f08c379a0000000000000000000000000000000000000000000000000000000008152600401610d2690614640565b60405180910390fd5b600f600085815260200190815260200160002083908060018154018082558091505060019003906000526020600020016000909190919091509080519060200190610d7b9291906131ce565b5050505050565b610d8c8282611c43565b610db18160016000858152602001908152602001600020611cc690919063ffffffff16565b505050565b610de77f65d7a28e3265b37a6474929f336521b332c1681b933f6cb9f3376673440d862a610de26117e2565b6111fd565b610e26576040517f08c379a0000000000000000000000000000000000000000000000000000000008152600401610e1d90614700565b60405180910390fd5b610e2e611cf6565b565b610e4b83838360405180602001604052806000815250611481565b505050565b610e61610e5b6117e2565b826118a3565b610ea0576040517f08c379a0000000000000000000000000000000000000000000000000000000008152600401610e97906146e0565b60405180910390fd5b610ea981611d98565b50565b6000610eb6610a5e565b8210610ef7576040517f08c379a0000000000000000000000000000000000000000000000000000000008152600401610eee906146a0565b60405180910390fd5b600a8281548110610f31577f4e487b7100000000000000000000000000000000000000000000000000000000600052603260045260246000fd5b90600052602060002001549050919050565b6000600c60009054906101000a900460ff16905090565b6000806004600084815260200190815260200160002060009054906101000a900473ffffffffffffffffffffffffffffffffffffffff169050600073ffffffffffffffffffffffffffffffffffffffff168173ffffffffffffffffffffffffffffffffffffffff161415611003576040517f08c379a0000000000000000000000000000000000000000000000000000000008152600401610ffa906145a0565b60405180910390fd5b80915050919050565b61103d7f9f2df0fed2c77648de5860a4cc508cd0818c85b8b8a1ab4ceeef8d981c8956a66110386117e2565b6111fd565b61107c576040517f08c379a0000000000000000000000000000000000000000000000000000000008152600401611073906146c0565b60405180910390fd5b61108f8161108a600d611ea9565b611eb7565b611099600d612085565b50565b60008073ffffffffffffffffffffffffffffffffffffffff168273ffffffffffffffffffffffffffffffffffffffff16141561110d576040517f08c379a000000000000000000000000000000000000000000000000000000000815260040161110490614580565b60405180910390fd5b600560008373ffffffffffffffffffffffffffffffffffffffff1673ffffffffffffffffffffffffffffffffffffffff168152602001908152602001600020549050919050565b6111857f65d7a28e3265b37a6474929f336521b332c1681b933f6cb9f3376673440d862a6111806117e2565b6111fd565b6111c4576040517f08c379a00000000000000000000000000000000000000000000000000000000081526004016111bb906144a0565b60405180910390fd5b6111cc61209b565b565b60006111f5826001600086815260200190815260200160002061213e90919063ffffffff16565b905092915050565b600080600084815260200190815260200160002060000160008373ffffffffffffffffffffffffffffffffffffffff1673ffffffffffffffffffffffffffffffffffffffff16815260200190815260200160002060009054906101000a900460ff16905092915050565b606060038054611276906149f4565b80601f01602080910402602001604051908101604052809291908181526020018280546112a2906149f4565b80156112ef5780601f106112c4576101008083540402835291602001916112ef565b820191906000526020600020905b8154815290600101906020018083116112d257829003601f168201915b5050505050905090565b6000801b81565b6113086117e2565b73ffffffffffffffffffffffffffffffffffffffff168273ffffffffffffffffffffffffffffffffffffffff161415611376576040517f08c379a000000000000000000000000000000000000000000000000000000000815260040161136d906144e0565b60405180910390fd5b80600760006113836117e2565b73ffffffffffffffffffffffffffffffffffffffff1673ffffffffffffffffffffffffffffffffffffffff16815260200190815260200160002060008473ffffffffffffffffffffffffffffffffffffffff1673ffffffffffffffffffffffffffffffffffffffff16815260200190815260200160002060006101000a81548160ff0219169083151502179055508173ffffffffffffffffffffffffffffffffffffffff166114306117e2565b73ffffffffffffffffffffffffffffffffffffffff167f17307eab39ab6107e8899845ad3d59bd9653f200f220920489ca2b5937696c31836040516114759190614368565b60405180910390a35050565b61149261148c6117e2565b836118a3565b6114d1576040517f08c379a00000000000000000000000000000000000000000000000000000000081526004016114c890614680565b60405180910390fd5b6114dd84848484612158565b50505050565b60606114ee82611776565b61152d576040517f08c379a000000000000000000000000000000000000000000000000000000000815260040161152490614620565b60405180910390fd5b60006115376121b4565b905060008151116115575760405180602001604052806000815250611582565b8061156184612246565b6040516020016115729291906142bb565b6040516020818303038152906040525b915050919050565b60006115a7600160008481526020019081526020016000206123f3565b9050919050565b7f9f2df0fed2c77648de5860a4cc508cd0818c85b8b8a1ab4ceeef8d981c8956a681565b6115dc8282612408565b6116018160016000858152602001908152602001600020611cc690919063ffffffff16565b505050565b7f65d7a28e3265b37a6474929f336521b332c1681b933f6cb9f3376673440d862a81565b6000600760008473ffffffffffffffffffffffffffffffffffffffff1673ffffffffffffffffffffffffffffffffffffffff16815260200190815260200160002060008373ffffffffffffffffffffffffffffffffffffffff1673ffffffffffffffffffffffffffffffffffffffff16815260200190815260200160002060009054906101000a900460ff16905092915050565b6116c8828261246e565b5050565b60006116f4836000018373ffffffffffffffffffffffffffffffffffffffff1660001b61254e565b905092915050565b60007f780e9d63000000000000000000000000000000000000000000000000000000007bffffffffffffffffffffffffffffffffffffffffffffffffffffffff1916827bffffffffffffffffffffffffffffffffffffffffffffffffffffffff1916148061176f575061176e826125be565b5b9050919050565b60008073ffffffffffffffffffffffffffffffffffffffff166004600084815260200190815260200160002060009054906101000a900473ffffffffffffffffffffffffffffffffffffffff1673ffffffffffffffffffffffffffffffffffffffff1614159050919050565b600033905090565b816006600083815260200190815260200160002060006101000a81548173ffffffffffffffffffffffffffffffffffffffff021916908373ffffffffffffffffffffffffffffffffffffffff160217905550808273ffffffffffffffffffffffffffffffffffffffff1661185d83610f5a565b73ffffffffffffffffffffffffffffffffffffffff167f8c5be1e5ebec7d5bd14f71427d1e84f3dd0314c0f7b2291e5b200ac8c7c3b92560405160405180910390a45050565b60006118ae82611776565b6118ed576040517f08c379a00000000000000000000000000000000000000000000000000000000081526004016118e490614500565b60405180910390fd5b60006118f883610f5a565b90508073ffffffffffffffffffffffffffffffffffffffff168473ffffffffffffffffffffffffffffffffffffffff16148061196757508373ffffffffffffffffffffffffffffffffffffffff1661194f846108c1565b73ffffffffffffffffffffffffffffffffffffffff16145b806119785750611977818561162a565b5b91505092915050565b8273ffffffffffffffffffffffffffffffffffffffff166119a182610f5a565b73ffffffffffffffffffffffffffffffffffffffff16146119f7576040517f08c379a00000000000000000000000000000000000000000000000000000000081526004016119ee90614600565b60405180910390fd5b600073ffffffffffffffffffffffffffffffffffffffff168273ffffffffffffffffffffffffffffffffffffffff161415611a67576040517f08c379a0000000000000000000000000000000000000000000000000000000008152600401611a5e906144c0565b60405180910390fd5b611a728383836126a0565b611a7d6000826117ea565b6001600560008573ffffffffffffffffffffffffffffffffffffffff1673ffffffffffffffffffffffffffffffffffffffff1681526020019081526020016000206000828254611acd9190614900565b925050819055506001600560008473ffffffffffffffffffffffffffffffffffffffff1673ffffffffffffffffffffffffffffffffffffffff1681526020019081526020016000206000828254611b249190614879565b92505081905550816004600083815260200190815260200160002060006101000a81548173ffffffffffffffffffffffffffffffffffffffff021916908373ffffffffffffffffffffffffffffffffffffffff160217905550808273ffffffffffffffffffffffffffffffffffffffff168473ffffffffffffffffffffffffffffffffffffffff167fddf252ad1be2c89b69c2b068fc378daa952ba7f163c4a11628f55a4df523b3ef60405160405180910390a4505050565b611bf6611be983610acb565b611bf16117e2565b6111fd565b611c35576040517f08c379a0000000000000000000000000000000000000000000000000000000008152600401611c2c90614400565b60405180910390fd5b611c3f828261246e565b5050565b611c4b6117e2565b73ffffffffffffffffffffffffffffffffffffffff168173ffffffffffffffffffffffffffffffffffffffff1614611cb8576040517f08c379a0000000000000000000000000000000000000000000000000000000008152600401611caf90614720565b60405180910390fd5b611cc282826126b0565b5050565b6000611cee836000018373ffffffffffffffffffffffffffffffffffffffff1660001b612791565b905092915050565b611cfe610f43565b611d3d576040517f08c379a0000000000000000000000000000000000000000000000000000000008152600401611d3490614420565b60405180910390fd5b6000600c60006101000a81548160ff0219169083151502179055507f5db9ee0a495bf2e6ff9c91a7834c1ba4fdd244a5e8aa4e537bd38aeae4b073aa611d816117e2565b604051611d8e91906142df565b60405180910390a1565b6000611da382610f5a565b9050611db1816000846126a0565b611dbc6000836117ea565b6001600560008373ffffffffffffffffffffffffffffffffffffffff1673ffffffffffffffffffffffffffffffffffffffff1681526020019081526020016000206000828254611e0c9190614900565b925050819055506004600083815260200190815260200160002060006101000a81549073ffffffffffffffffffffffffffffffffffffffff021916905581600073ffffffffffffffffffffffffffffffffffffffff168273ffffffffffffffffffffffffffffffffffffffff167fddf252ad1be2c89b69c2b068fc378daa952ba7f163c4a11628f55a4df523b3ef60405160405180910390a45050565b600081600001549050919050565b600073ffffffffffffffffffffffffffffffffffffffff168273ffffffffffffffffffffffffffffffffffffffff161415611f27576040517f08c379a0000000000000000000000000000000000000000000000000000000008152600401611f1e906145c0565b60405180910390fd5b611f3081611776565b15611f70576040517f08c379a0000000000000000000000000000000000000000000000000000000008152600401611f6790614480565b60405180910390fd5b611f7c600083836126a0565b6001600560008473ffffffffffffffffffffffffffffffffffffffff1673ffffffffffffffffffffffffffffffffffffffff1681526020019081526020016000206000828254611fcc9190614879565b92505081905550816004600083815260200190815260200160002060006101000a81548173ffffffffffffffffffffffffffffffffffffffff021916908373ffffffffffffffffffffffffffffffffffffffff160217905550808273ffffffffffffffffffffffffffffffffffffffff16600073ffffffffffffffffffffffffffffffffffffffff167fddf252ad1be2c89b69c2b068fc378daa952ba7f163c4a11628f55a4df523b3ef60405160405180910390a45050565b6001816000016000828254019250508190555050565b6120a3610f43565b156120e3576040517f08c379a00000000000000000000000000000000000000000000000000000000081526004016120da90614540565b60405180910390fd5b6001600c60006101000a81548160ff0219169083151502179055507f62e78cea01bee320cd4e420270b5ea74000d11b0c9f74754ebdbfc544b05a2586121276117e2565b60405161213491906142df565b60405180910390a1565b600061214d836000018361290f565b60001c905092915050565b612163848484611981565b61216f848484846129a9565b6121ae576040517f08c379a00000000000000000000000000000000000000000000000000000000081526004016121a590614460565b60405180910390fd5b50505050565b6060600e80546121c3906149f4565b80601f01602080910402602001604051908101604052809291908181526020018280546121ef906149f4565b801561223c5780601f106122115761010080835404028352916020019161223c565b820191906000526020600020905b81548152906001019060200180831161221f57829003601f168201915b5050505050905090565b6060600082141561228e576040518060400160405280600181526020017f300000000000000000000000000000000000000000000000000000000000000081525090506123ee565b600082905060005b600082146122c05780806122a990614a26565b915050600a826122b991906148cf565b9150612296565b60008167ffffffffffffffff811115612302577f4e487b7100000000000000000000000000000000000000000000000000000000600052604160045260246000fd5b6040519080825280601f01601f1916602001820160405280156123345781602001600182028036833780820191505090505b5090505b600085146123e75760018261234d9190614900565b9150600a8561235c9190614a6f565b60306123689190614879565b60f81b8183815181106123a4577f4e487b7100000000000000000000000000000000000000000000000000000000600052603260045260246000fd5b60200101907effffffffffffffffffffffffffffffffffffffffffffffffffffffffffffff1916908160001a905350600a856123e091906148cf565b9450612338565b8093505050505b919050565b600061240182600001612b40565b9050919050565b61242161241483610acb565b61241c6117e2565b6111fd565b612460576040517f08c379a000000000000000000000000000000000000000000000000000000000815260040161245790614520565b60405180910390fd5b61246a82826126b0565b5050565b61247882826111fd565b61254a57600160008084815260200190815260200160002060000160008373ffffffffffffffffffffffffffffffffffffffff1673ffffffffffffffffffffffffffffffffffffffff16815260200190815260200160002060006101000a81548160ff0219169083151502179055506124ef6117e2565b73ffffffffffffffffffffffffffffffffffffffff168173ffffffffffffffffffffffffffffffffffffffff16837f2f8788117e7eff1d82e926ec794901d17c78024a50270940304540a733656f0d60405160405180910390a45b5050565b600061255a8383612b51565b6125b35782600001829080600181540180825580915050600190039060005260206000200160009091909190915055826000018054905083600101600084815260200190815260200160002081905550600190506125b8565b600090505b92915050565b60007f80ac58cd000000000000000000000000000000000000000000000000000000007bffffffffffffffffffffffffffffffffffffffffffffffffffffffff1916827bffffffffffffffffffffffffffffffffffffffffffffffffffffffff1916148061268957507f5b5e139f000000000000000000000000000000000000000000000000000000007bffffffffffffffffffffffffffffffffffffffffffffffffffffffff1916827bffffffffffffffffffffffffffffffffffffffffffffffffffffffff1916145b80612699575061269882612b74565b5b9050919050565b6126ab838383612bee565b505050565b6126ba82826111fd565b1561278d57600080600084815260200190815260200160002060000160008373ffffffffffffffffffffffffffffffffffffffff1673ffffffffffffffffffffffffffffffffffffffff16815260200190815260200160002060006101000a81548160ff0219169083151502179055506127326117e2565b73ffffffffffffffffffffffffffffffffffffffff168173ffffffffffffffffffffffffffffffffffffffff16837ff6391f5c32d9c69d2a47ea670b442974b53935d1edc7fd64eb21e047a839171b60405160405180910390a45b5050565b600080836001016000848152602001908152602001600020549050600081146129035760006001826127c39190614900565b90506000600186600001805490506127db9190614900565b9050600086600001828154811061281b577f4e487b7100000000000000000000000000000000000000000000000000000000600052603260045260246000fd5b9060005260206000200154905080876000018481548110612865577f4e487b7100000000000000000000000000000000000000000000000000000000600052603260045260246000fd5b90600052602060002001819055508387600101600083815260200190815260200160002081905550866000018054806128c7577f4e487b7100000000000000000000000000000000000000000000000000000000600052603160045260246000fd5b60019003818190600052602060002001600090559055866001016000878152602001908152602001600020600090556001945050505050612909565b60009150505b92915050565b60008183600001805490501161295a576040517f08c379a0000000000000000000000000000000000000000000000000000000008152600401612951906143c0565b60405180910390fd5b826000018281548110612996577f4e487b7100000000000000000000000000000000000000000000000000000000600052603260045260246000fd5b9060005260206000200154905092915050565b60006129ca8473ffffffffffffffffffffffffffffffffffffffff16612c46565b15612b33578373ffffffffffffffffffffffffffffffffffffffff1663150b7a026129f36117e2565b8786866040518563ffffffff1660e01b8152600401612a1594939291906142fa565b602060405180830381600087803b158015612a2f57600080fd5b505af1925050508015612a6057506040513d601f19601f82011682018060405250810190612a5d9190613630565b60015b612ae3573d8060008114612a90576040519150601f19603f3d011682016040523d82523d6000602084013e612a95565b606091505b50600081511415612adb576040517f08c379a0000000000000000000000000000000000000000000000000000000008152600401612ad290614460565b60405180910390fd5b805181602001fd5b63150b7a0260e01b7bffffffffffffffffffffffffffffffffffffffffffffffffffffffff1916817bffffffffffffffffffffffffffffffffffffffffffffffffffffffff191614915050612b38565b600190505b949350505050565b600081600001805490509050919050565b600080836001016000848152602001908152602001600020541415905092915050565b60007f5a05180f000000000000000000000000000000000000000000000000000000007bffffffffffffffffffffffffffffffffffffffffffffffffffffffff1916827bffffffffffffffffffffffffffffffffffffffffffffffffffffffff19161480612be75750612be682612c59565b5b9050919050565b612bf9838383612cd3565b612c01610f43565b15612c41576040517f08c379a0000000000000000000000000000000000000000000000000000000008152600401612c38906143e0565b60405180910390fd5b505050565b600080823b905060008111915050919050565b60007f7965db0b000000000000000000000000000000000000000000000000000000007bffffffffffffffffffffffffffffffffffffffffffffffffffffffff1916827bffffffffffffffffffffffffffffffffffffffffffffffffffffffff19161480612ccc5750612ccb82612de7565b5b9050919050565b612cde838383612e51565b600073ffffffffffffffffffffffffffffffffffffffff168373ffffffffffffffffffffffffffffffffffffffff161415612d2157612d1c81612e56565b612d60565b8173ffffffffffffffffffffffffffffffffffffffff168373ffffffffffffffffffffffffffffffffffffffff1614612d5f57612d5e8382612e9f565b5b5b600073ffffffffffffffffffffffffffffffffffffffff168273ffffffffffffffffffffffffffffffffffffffff161415612da357612d9e8161300c565b612de2565b8273ffffffffffffffffffffffffffffffffffffffff168273ffffffffffffffffffffffffffffffffffffffff1614612de157612de0828261314f565b5b5b505050565b60007f01ffc9a7000000000000000000000000000000000000000000000000000000007bffffffffffffffffffffffffffffffffffffffffffffffffffffffff1916827bffffffffffffffffffffffffffffffffffffffffffffffffffffffff1916149050919050565b505050565b600a80549050600b600083815260200190815260200160002081905550600a81908060018154018082558091505060019003906000526020600020016000909190919091505550565b60006001612eac8461109c565b612eb69190614900565b9050600060096000848152602001908152602001600020549050818114612f9b576000600860008673ffffffffffffffffffffffffffffffffffffffff1673ffffffffffffffffffffffffffffffffffffffff168152602001908152602001600020600084815260200190815260200160002054905080600860008773ffffffffffffffffffffffffffffffffffffffff1673ffffffffffffffffffffffffffffffffffffffff168152602001908152602001600020600084815260200190815260200160002081905550816009600083815260200190815260200160002081905550505b6009600084815260200190815260200160002060009055600860008573ffffffffffffffffffffffffffffffffffffffff1673ffffffffffffffffffffffffffffffffffffffff16815260200190815260200160002060008381526020019081526020016000206000905550505050565b60006001600a805490506130209190614900565b90506000600b60008481526020019081526020016000205490506000600a8381548110613076577f4e487b7100000000000000000000000000000000000000000000000000000000600052603260045260246000fd5b9060005260206000200154905080600a83815481106130be577f4e487b7100000000000000000000000000000000000000000000000000000000600052603260045260246000fd5b906000526020600020018190555081600b600083815260200190815260200160002081905550600b600085815260200190815260200160002060009055600a805480613133577f4e487b7100000000000000000000000000000000000000000000000000000000600052603160045260246000fd5b6001900381819060005260206000200160009055905550505050565b600061315a8361109c565b905081600860008573ffffffffffffffffffffffffffffffffffffffff1673ffffffffffffffffffffffffffffffffffffffff168152602001908152602001600020600083815260200190815260200160002081905550806009600084815260200190815260200160002081905550505050565b8280546131da906149f4565b90600052602060002090601f0160209004810192826131fc5760008555613243565b82601f1061321557805160ff1916838001178555613243565b82800160010185558215613243579182015b82811115613242578251825591602001919060010190613227565b5b5090506132509190613254565b5090565b5b8082111561326d576000816000905550600101613255565b5090565b600061328461327f8461478c565b61475b565b90508281526020810184848401111561329c57600080fd5b6132a78482856149b2565b509392505050565b60006132c26132bd846147bc565b61475b565b9050828152602081018484840111156132da57600080fd5b6132e58482856149b2565b509392505050565b6000813590506132fc81614b6d565b92915050565b60008135905061331181614b84565b92915050565b60008135905061332681614b9b565b92915050565b60008135905061333b81614bb2565b92915050565b60008151905061335081614bb2565b92915050565b600082601f83011261336757600080fd5b8135613377848260208601613271565b91505092915050565b600082601f83011261339157600080fd5b81356133a18482602086016132af565b91505092915050565b6000813590506133b981614bc9565b92915050565b6000602082840312156133d157600080fd5b60006133df848285016132ed565b91505092915050565b600080604083850312156133fb57600080fd5b6000613409858286016132ed565b925050602061341a858286016132ed565b9150509250929050565b60008060006060848603121561343957600080fd5b6000613447868287016132ed565b9350506020613458868287016132ed565b9250506040613469868287016133aa565b9150509250925092565b6000806000806080858703121561348957600080fd5b6000613497878288016132ed565b94505060206134a8878288016132ed565b93505060406134b9878288016133aa565b925050606085013567ffffffffffffffff8111156134d657600080fd5b6134e287828801613356565b91505092959194509250565b6000806040838503121561350157600080fd5b600061350f858286016132ed565b925050602061352085828601613302565b9150509250929050565b6000806040838503121561353d57600080fd5b600061354b858286016132ed565b925050602061355c858286016133aa565b9150509250929050565b60006020828403121561357857600080fd5b600061358684828501613317565b91505092915050565b600080604083850312156135a257600080fd5b60006135b085828601613317565b92505060206135c1858286016132ed565b9150509250929050565b600080604083850312156135de57600080fd5b60006135ec85828601613317565b92505060206135fd858286016133aa565b9150509250929050565b60006020828403121561361957600080fd5b60006136278482850161332c565b91505092915050565b60006020828403121561364257600080fd5b600061365084828501613341565b91505092915050565b60006020828403121561366b57600080fd5b6000613679848285016133aa565b91505092915050565b6000806040838503121561369557600080fd5b60006136a3858286016133aa565b925050602083013567ffffffffffffffff8111156136c057600080fd5b6136cc85828601613380565b9150509250929050565b60006136e283836137c5565b905092915050565b6136f381614934565b82525050565b6000613704826147fc565b61370e818561482a565b935083602082028501613720856147ec565b8060005b8581101561375c578484038952815161373d85826136d6565b94506137488361481d565b925060208a01995050600181019050613724565b50829750879550505050505092915050565b61377781614946565b82525050565b61378681614952565b82525050565b600061379782614807565b6137a1818561483b565b93506137b18185602086016149c1565b6137ba81614b5c565b840191505092915050565b60006137d082614812565b6137da818561484c565b93506137ea8185602086016149c1565b6137f381614b5c565b840191505092915050565b600061380982614812565b613813818561485d565b93506138238185602086016149c1565b61382c81614b5c565b840191505092915050565b600061384282614812565b61384c818561486e565b935061385c8185602086016149c1565b80840191505092915050565b600061387560228361485d565b91507f456e756d657261626c655365743a20696e646578206f7574206f6620626f756e60008301527f64730000000000000000000000000000000000000000000000000000000000006020830152604082019050919050565b60006138db602b8361485d565b91507f4552433732315061757361626c653a20746f6b656e207472616e73666572207760008301527f68696c65207061757365640000000000000000000000000000000000000000006020830152604082019050919050565b6000613941602f8361485d565b91507f416363657373436f6e74726f6c3a2073656e646572206d75737420626520616e60008301527f2061646d696e20746f206772616e7400000000000000000000000000000000006020830152604082019050919050565b60006139a760148361485d565b91507f5061757361626c653a206e6f74207061757365640000000000000000000000006000830152602082019050919050565b60006139e7602b8361485d565b91507f455243373231456e756d657261626c653a206f776e657220696e646578206f7560008301527f74206f6620626f756e64730000000000000000000000000000000000000000006020830152604082019050919050565b6000613a4d60328361485d565b91507f4552433732313a207472616e7366657220746f206e6f6e20455243373231526560008301527f63656976657220696d706c656d656e74657200000000000000000000000000006020830152604082019050919050565b6000613ab3601c8361485d565b91507f4552433732313a20746f6b656e20616c7265616479206d696e746564000000006000830152602082019050919050565b6000613af3603e8361485d565b91507f4552433732315072657365744d696e7465725061757365724175746f49643a2060008301527f6d75737420686176652070617573657220726f6c6520746f20706175736500006020830152604082019050919050565b6000613b5960248361485d565b91507f4552433732313a207472616e7366657220746f20746865207a65726f2061646460008301527f72657373000000000000000000000000000000000000000000000000000000006020830152604082019050919050565b6000613bbf60198361485d565b91507f4552433732313a20617070726f766520746f2063616c6c6572000000000000006000830152602082019050919050565b6000613bff602c8361485d565b91507f4552433732313a206f70657261746f7220717565727920666f72206e6f6e657860008301527f697374656e7420746f6b656e00000000000000000000000000000000000000006020830152604082019050919050565b6000613c6560308361485d565b91507f416363657373436f6e74726f6c3a2073656e646572206d75737420626520616e60008301527f2061646d696e20746f207265766f6b65000000000000000000000000000000006020830152604082019050919050565b6000613ccb60108361485d565b91507f5061757361626c653a20706175736564000000000000000000000000000000006000830152602082019050919050565b6000613d0b60388361485d565b91507f4552433732313a20617070726f76652063616c6c6572206973206e6f74206f7760008301527f6e6572206e6f7220617070726f76656420666f7220616c6c00000000000000006020830152604082019050919050565b6000613d71602a8361485d565b91507f4552433732313a2062616c616e636520717565727920666f7220746865207a6560008301527f726f2061646472657373000000000000000000000000000000000000000000006020830152604082019050919050565b6000613dd760298361485d565b91507f4552433732313a206f776e657220717565727920666f72206e6f6e657869737460008301527f656e7420746f6b656e00000000000000000000000000000000000000000000006020830152604082019050919050565b6000613e3d60208361485d565b91507f4552433732313a206d696e7420746f20746865207a65726f20616464726573736000830152602082019050919050565b6000613e7d602c8361485d565b91507f4552433732313a20617070726f76656420717565727920666f72206e6f6e657860008301527f697374656e7420746f6b656e00000000000000000000000000000000000000006020830152604082019050919050565b6000613ee360298361485d565b91507f4552433732313a207472616e73666572206f6620746f6b656e2074686174206960008301527f73206e6f74206f776e00000000000000000000000000000000000000000000006020830152604082019050919050565b6000613f49602f8361485d565b91507f4552433732314d657461646174613a2055524920717565727920666f72206e6f60008301527f6e6578697374656e7420746f6b656e00000000000000000000000000000000006020830152604082019050919050565b6000613faf60128361485d565b91507f6e6f74206f776e6572206f6620746f6b656e00000000000000000000000000006000830152602082019050919050565b6000613fef60218361485d565b91507f4552433732313a20617070726f76616c20746f2063757272656e74206f776e6560008301527f72000000000000000000000000000000000000000000000000000000000000006020830152604082019050919050565b600061405560318361485d565b91507f4552433732313a207472616e736665722063616c6c6572206973206e6f74206f60008301527f776e6572206e6f7220617070726f7665640000000000000000000000000000006020830152604082019050919050565b60006140bb602c8361485d565b91507f455243373231456e756d657261626c653a20676c6f62616c20696e646578206f60008301527f7574206f6620626f756e647300000000000000000000000000000000000000006020830152604082019050919050565b6000614121603d8361485d565b91507f4552433732315072657365744d696e7465725061757365724175746f49643a2060008301527f6d7573742068617665206d696e74657220726f6c6520746f206d696e740000006020830152604082019050919050565b600061418760308361485d565b91507f4552433732314275726e61626c653a2063616c6c6572206973206e6f74206f7760008301527f6e6572206e6f7220617070726f766564000000000000000000000000000000006020830152604082019050919050565b60006141ed60408361485d565b91507f4552433732315072657365744d696e7465725061757365724175746f49643a2060008301527f6d75737420686176652070617573657220726f6c6520746f20756e70617573656020830152604082019050919050565b6000614253602f8361485d565b91507f416363657373436f6e74726f6c3a2063616e206f6e6c792072656e6f756e636560008301527f20726f6c657320666f722073656c6600000000000000000000000000000000006020830152604082019050919050565b6142b5816149a8565b82525050565b60006142c78285613837565b91506142d38284613837565b91508190509392505050565b60006020820190506142f460008301846136ea565b92915050565b600060808201905061430f60008301876136ea565b61431c60208301866136ea565b61432960408301856142ac565b818103606083015261433b818461378c565b905095945050505050565b6000602082019050818103600083015261436081846136f9565b905092915050565b600060208201905061437d600083018461376e565b92915050565b6000602082019050614398600083018461377d565b92915050565b600060208201905081810360008301526143b881846137fe565b905092915050565b600060208201905081810360008301526143d981613868565b9050919050565b600060208201905081810360008301526143f9816138ce565b9050919050565b6000602082019050818103600083015261441981613934565b9050919050565b600060208201905081810360008301526144398161399a565b9050919050565b60006020820190508181036000830152614459816139da565b9050919050565b6000602082019050818103600083015261447981613a40565b9050919050565b6000602082019050818103600083015261449981613aa6565b9050919050565b600060208201905081810360008301526144b981613ae6565b9050919050565b600060208201905081810360008301526144d981613b4c565b9050919050565b600060208201905081810360008301526144f981613bb2565b9050919050565b6000602082019050818103600083015261451981613bf2565b9050919050565b6000602082019050818103600083015261453981613c58565b9050919050565b6000602082019050818103600083015261455981613cbe565b9050919050565b6000602082019050818103600083015261457981613cfe565b9050919050565b6000602082019050818103600083015261459981613d64565b9050919050565b600060208201905081810360008301526145b981613dca565b9050919050565b600060208201905081810360008301526145d981613e30565b9050919050565b600060208201905081810360008301526145f981613e70565b9050919050565b6000602082019050818103600083015261461981613ed6565b9050919050565b6000602082019050818103600083015261463981613f3c565b9050919050565b6000602082019050818103600083015261465981613fa2565b9050919050565b6000602082019050818103600083015261467981613fe2565b9050919050565b6000602082019050818103600083015261469981614048565b9050919050565b600060208201905081810360008301526146b9816140ae565b9050919050565b600060208201905081810360008301526146d981614114565b9050919050565b600060208201905081810360008301526146f98161417a565b9050919050565b60006020820190508181036000830152614719816141e0565b9050919050565b6000602082019050818103600083015261473981614246565b9050919050565b600060208201905061475560008301846142ac565b92915050565b6000604051905081810181811067ffffffffffffffff8211171561478257614781614b2d565b5b8060405250919050565b600067ffffffffffffffff8211156147a7576147a6614b2d565b5b601f19601f8301169050602081019050919050565b600067ffffffffffffffff8211156147d7576147d6614b2d565b5b601f19601f8301169050602081019050919050565b6000819050602082019050919050565b600081519050919050565b600081519050919050565b600081519050919050565b6000602082019050919050565b600082825260208201905092915050565b600082825260208201905092915050565b600082825260208201905092915050565b600082825260208201905092915050565b600081905092915050565b6000614884826149a8565b915061488f836149a8565b9250827fffffffffffffffffffffffffffffffffffffffffffffffffffffffffffffffff038211156148c4576148c3614aa0565b5b828201905092915050565b60006148da826149a8565b91506148e5836149a8565b9250826148f5576148f4614acf565b5b828204905092915050565b600061490b826149a8565b9150614916836149a8565b92508282101561492957614928614aa0565b5b828203905092915050565b600061493f82614988565b9050919050565b60008115159050919050565b6000819050919050565b60007fffffffff0000000000000000000000000000000000000000000000000000000082169050919050565b600073ffffffffffffffffffffffffffffffffffffffff82169050919050565b6000819050919050565b82818337600083830152505050565b60005b838110156149df5780820151818401526020810190506149c4565b838111156149ee576000848401525b50505050565b60006002820490506001821680614a0c57607f821691505b60208210811415614a2057614a1f614afe565b5b50919050565b6000614a31826149a8565b91507fffffffffffffffffffffffffffffffffffffffffffffffffffffffffffffffff821415614a6457614a63614aa0565b5b600182019050919050565b6000614a7a826149a8565b9150614a85836149a8565b925082614a9557614a94614acf565b5b828206905092915050565b7f4e487b7100000000000000000000000000000000000000000000000000000000600052601160045260246000fd5b7f4e487b7100000000000000000000000000000000000000000000000000000000600052601260045260246000fd5b7f4e487b7100000000000000000000000000000000000000000000000000000000600052602260045260246000fd5b7f4e487b7100000000000000000000000000000000000000000000000000000000600052604160045260246000fd5b6000601f19601f8301169050919050565b614b7681614934565b8114614b8157600080fd5b50565b614b8d81614946565b8114614b9857600080fd5b50565b614ba481614952565b8114614baf57600080fd5b50565b614bbb8161495c565b8114614bc657600080fd5b50565b614bd2816149a8565b8114614bdd57600080fd5b5056fea264697066735822122043eadc736eb4f5deec680ee52d30df6cca3468f642404c25f8d8caa04e7a9f4c64736f6c63430008000033",
  "immutableReferences": {},
  "source": "// SPDX-License-Identifier: MIT\n\npragma solidity ^0.8.0;\n\nimport \"../token/ERC721/ERC721.sol\";\nimport \"../token/ERC721/extensions/ERC721Enumerable.sol\";\nimport \"../token/ERC721/extensions/ERC721Burnable.sol\";\nimport \"../token/ERC721/extensions/ERC721Pausable.sol\";\nimport \"../access/AccessControlEnumerable.sol\";\nimport \"../utils/Context.sol\";\nimport \"../utils/Counters.sol\";\n\n/**\n * @dev {ERC721} token, including:\n *\n *  - ability for holders to burn (destroy) their tokens\n *  - a minter role that allows for token minting (creation)\n *  - a pauser role that allows to stop all token transfers\n *  - token ID and URI autogeneration\n *\n * This contract uses {AccessControl} to lock permissioned functions using the\n * different roles - head to its documentation for details.\n *\n * The account that deploys the contract will be granted the minter and pauser\n * roles, as well as the default admin role, which will let it grant both minter\n * and pauser roles to other accounts.\n */\ncontract TokenERC721 is Context, AccessControlEnumerable, ERC721Enumerable, ERC721Burnable, ERC721Pausable {\n    using Counters for Counters.Counter;\n\n    bytes32 public constant MINTER_ROLE = keccak256(\"MINTER_ROLE\");\n    bytes32 public constant PAUSER_ROLE = keccak256(\"PAUSER_ROLE\");\n\n    Counters.Counter private _tokenIdTracker;\n\n    string private _baseTokenURI;\n\n\tmapping(uint256 => string[]) private _tokenrecords;\n\n    /**\n     * @dev Grants `DEFAULT_ADMIN_ROLE`, `MINTER_ROLE` and `PAUSER_ROLE` to the\n     * account that deploys the contract.\n     *\n     * Token URIs will be autogenerated based on `baseURI` and their token IDs.\n     * See {ERC721-tokenURI}.\n     */\n    constructor(string memory name, string memory symbol, string memory baseTokenURI) ERC721(name, symbol) {\n        _baseTokenURI = baseTokenURI;\n\n        _setupRole(DEFAULT_ADMIN_ROLE, _msgSender());\n\n        _setupRole(MINTER_ROLE, _msgSender());\n        _setupRole(PAUSER_ROLE, _msgSender());\n    }\n\n    function _baseURI() internal view virtual override returns (string memory) {\n        return _baseTokenURI;\n    }\n\n    /**\n     * @dev Creates a new token for `to`. Its token ID will be automatically\n     * assigned (and available on the emitted {IERC721-Transfer} event), and the token\n     * URI autogenerated based on the base URI passed at construction.\n     *\n     * See {ERC721-_mint}.\n     *\n     * Requirements:\n     *\n     * - the caller must have the `MINTER_ROLE`.\n     */\n    function mint(address to) public virtual {\n        require(hasRole(MINTER_ROLE, _msgSender()), \"ERC721PresetMinterPauserAutoId: must have minter role to mint\");\n\n        // We cannot just use balanceOf to create the new tokenId because tokens\n        // can be burned (destroyed), so we need a separate counter.\n        _mint(to, _tokenIdTracker.current());\n        _tokenIdTracker.increment();\n    }\n\n    /**\n     * @dev Pauses all token transfers.\n     *\n     * See {ERC721Pausable} and {Pausable-_pause}.\n     *\n     * Requirements:\n     *\n     * - the caller must have the `PAUSER_ROLE`.\n     */\n    function pause() public virtual {\n        require(hasRole(PAUSER_ROLE, _msgSender()), \"ERC721PresetMinterPauserAutoId: must have pauser role to pause\");\n        _pause();\n    }\n\n    /**\n     * @dev Unpauses all token transfers.\n     *\n     * See {ERC721Pausable} and {Pausable-_unpause}.\n     *\n     * Requirements:\n     *\n     * - the caller must have the `PAUSER_ROLE`.\n     */\n    function unpause() public virtual {\n        require(hasRole(PAUSER_ROLE, _msgSender()), \"ERC721PresetMinterPauserAutoId: must have pauser role to unpause\");\n        _unpause();\n    }\n\n    function _beforeTokenTransfer(address from, address to, uint256 tokenId) internal virtual override(ERC721, ERC721Enumerable, ERC721Pausable) {\n        super._beforeTokenTransfer(from, to, tokenId);\n    }\n\n    /**\n     * @dev See {IERC165-supportsInterface}.\n     */\n    function supportsInterface(bytes4 interfaceId) public view virtual override(AccessControlEnumerable, ERC721, ERC721Enumerable) returns (bool) {\n        return super.supportsInterface(interfaceId);\n    }\n\n\t// token records\n\tfunction registerRecord(uint256 tokenId, string memory value) public payable {\n\t    address _client = msg.sender;\n\n\t\taddress _owner = super.ownerOf(tokenId);\n\n\t\trequire(_owner == _client, \"not owner of token\");\n\n    \t_tokenrecords[tokenId].push(value);\n\t}\n\n\tfunction fetchRecords(uint256 tokenId) public view returns (string[] memory) {\n\t\treturn _tokenrecords[tokenId];\n\t}\n\n}\n",
  "sourcePath": "/home/frederic/development/p2pmoney-dev/var/lib/git/repos/solidity/ethereum_erc721_dapp/contracts/deed/TokenERC721.sol",
  "compiler": {
    "name": "solc",
    "version": "0.8.0+commit.c7dfd78e.Emscripten.clang"
  },
  "schemaVersion": "3.3.4",
  "updatedAt": "2021-04-20T05:59:59.164Z",
  "devdoc": {
    "details": "{ERC721} token, including:  - ability for holders to burn (destroy) their tokens  - a minter role that allows for token minting (creation)  - a pauser role that allows to stop all token transfers  - token ID and URI autogeneration This contract uses {AccessControl} to lock permissioned functions using the different roles - head to its documentation for details. The account that deploys the contract will be granted the minter and pauser roles, as well as the default admin role, which will let it grant both minter and pauser roles to other accounts.",
    "kind": "dev",
    "methods": {
      "approve(address,uint256)": {
        "details": "See {IERC721-approve}."
      },
      "balanceOf(address)": {
        "details": "See {IERC721-balanceOf}."
      },
      "burn(uint256)": {
        "details": "Burns `tokenId`. See {ERC721-_burn}. Requirements: - The caller must own `tokenId` or be an approved operator."
      },
      "constructor": {
        "details": "Grants `DEFAULT_ADMIN_ROLE`, `MINTER_ROLE` and `PAUSER_ROLE` to the account that deploys the contract. Token URIs will be autogenerated based on `baseURI` and their token IDs. See {ERC721-tokenURI}."
      },
      "getApproved(uint256)": {
        "details": "See {IERC721-getApproved}."
      },
      "getRoleAdmin(bytes32)": {
        "details": "Returns the admin role that controls `role`. See {grantRole} and {revokeRole}. To change a role's admin, use {_setRoleAdmin}."
      },
      "getRoleMember(bytes32,uint256)": {
        "details": "Returns one of the accounts that have `role`. `index` must be a value between 0 and {getRoleMemberCount}, non-inclusive. Role bearers are not sorted in any particular way, and their ordering may change at any point. WARNING: When using {getRoleMember} and {getRoleMemberCount}, make sure you perform all queries on the same block. See the following https://forum.openzeppelin.com/t/iterating-over-elements-on-enumerableset-in-openzeppelin-contracts/2296[forum post] for more information."
      },
      "getRoleMemberCount(bytes32)": {
        "details": "Returns the number of accounts that have `role`. Can be used together with {getRoleMember} to enumerate all bearers of a role."
      },
      "grantRole(bytes32,address)": {
        "details": "Overload {grantRole} to track enumerable memberships"
      },
      "hasRole(bytes32,address)": {
        "details": "Returns `true` if `account` has been granted `role`."
      },
      "isApprovedForAll(address,address)": {
        "details": "See {IERC721-isApprovedForAll}."
      },
      "mint(address)": {
        "details": "Creates a new token for `to`. Its token ID will be automatically assigned (and available on the emitted {IERC721-Transfer} event), and the token URI autogenerated based on the base URI passed at construction. See {ERC721-_mint}. Requirements: - the caller must have the `MINTER_ROLE`."
      },
      "name()": {
        "details": "See {IERC721Metadata-name}."
      },
      "ownerOf(uint256)": {
        "details": "See {IERC721-ownerOf}."
      },
      "pause()": {
        "details": "Pauses all token transfers. See {ERC721Pausable} and {Pausable-_pause}. Requirements: - the caller must have the `PAUSER_ROLE`."
      },
      "paused()": {
        "details": "Returns true if the contract is paused, and false otherwise."
      },
      "renounceRole(bytes32,address)": {
        "details": "Overload {renounceRole} to track enumerable memberships"
      },
      "revokeRole(bytes32,address)": {
        "details": "Overload {revokeRole} to track enumerable memberships"
      },
      "safeTransferFrom(address,address,uint256)": {
        "details": "See {IERC721-safeTransferFrom}."
      },
      "safeTransferFrom(address,address,uint256,bytes)": {
        "details": "See {IERC721-safeTransferFrom}."
      },
      "setApprovalForAll(address,bool)": {
        "details": "See {IERC721-setApprovalForAll}."
      },
      "supportsInterface(bytes4)": {
        "details": "See {IERC165-supportsInterface}."
      },
      "symbol()": {
        "details": "See {IERC721Metadata-symbol}."
      },
      "tokenByIndex(uint256)": {
        "details": "See {IERC721Enumerable-tokenByIndex}."
      },
      "tokenOfOwnerByIndex(address,uint256)": {
        "details": "See {IERC721Enumerable-tokenOfOwnerByIndex}."
      },
      "tokenURI(uint256)": {
        "details": "See {IERC721Metadata-tokenURI}."
      },
      "totalSupply()": {
        "details": "See {IERC721Enumerable-totalSupply}."
      },
      "transferFrom(address,address,uint256)": {
        "details": "See {IERC721-transferFrom}."
      },
      "unpause()": {
        "details": "Unpauses all token transfers. See {ERC721Pausable} and {Pausable-_unpause}. Requirements: - the caller must have the `PAUSER_ROLE`."
      }
    },
    "version": 1
  },
  "userdoc": {
    "kind": "user",
    "methods": {},
    "version": 1
  }
}