{
	"contracts/GovernorFactory.sol": {
		"GovernorFactory": {
			"abi": [
				{
					"anonymous": false,
					"inputs": [
						{
							"indexed": true,
							"internalType": "address",
							"name": "previousOwner",
							"type": "address"
						},
						{
							"indexed": true,
							"internalType": "address",
							"name": "newOwner",
							"type": "address"
						}
					],
					"name": "OwnershipTransferred",
					"type": "event"
				},
				{
					"anonymous": false,
					"inputs": [
						{
							"indexed": false,
							"internalType": "address",
							"name": "governor",
							"type": "address"
						}
					],
					"name": "newGovernorCreated",
					"type": "event"
				},
				{
					"inputs": [
						{
							"internalType": "address",
							"name": "_governor",
							"type": "address"
						},
						{
							"internalType": "address",
							"name": "_timelock",
							"type": "address"
						},
						{
							"internalType": "address",
							"name": "_token",
							"type": "address"
						}
					],
					"name": "addGovernorAddress",
					"outputs": [],
					"stateMutability": "nonpayable",
					"type": "function"
				},
				{
					"inputs": [],
					"name": "getAllDeployedGovernor",
					"outputs": [
						{
							"components": [
								{
									"internalType": "address",
									"name": "governor",
									"type": "address"
								},
								{
									"internalType": "address",
									"name": "timelock",
									"type": "address"
								},
								{
									"internalType": "address",
									"name": "token",
									"type": "address"
								}
							],
							"internalType": "struct GovernorFactory.GovernorMeta[]",
							"name": "props",
							"type": "tuple[]"
						}
					],
					"stateMutability": "view",
					"type": "function"
				},
				{
					"inputs": [],
					"name": "owner",
					"outputs": [
						{
							"internalType": "address",
							"name": "",
							"type": "address"
						}
					],
					"stateMutability": "view",
					"type": "function"
				},
				{
					"inputs": [],
					"name": "renounceOwnership",
					"outputs": [],
					"stateMutability": "nonpayable",
					"type": "function"
				},
				{
					"inputs": [
						{
							"internalType": "address",
							"name": "newOwner",
							"type": "address"
						}
					],
					"name": "transferOwnership",
					"outputs": [],
					"stateMutability": "nonpayable",
					"type": "function"
				}
			],
			"devdoc": {
				"kind": "dev",
				"methods": {
					"owner()": {
						"details": "Returns the address of the current owner."
					},
					"renounceOwnership()": {
						"details": "Leaves the contract without owner. It will not be possible to call `onlyOwner` functions anymore. Can only be called by the current owner. NOTE: Renouncing ownership will leave the contract without an owner, thereby removing any functionality that is only available to the owner."
					},
					"transferOwnership(address)": {
						"details": "Transfers ownership of the contract to a new account (`newOwner`). Can only be called by the current owner."
					}
				},
				"version": 1
			},
			"evm": {
				"assembly": "    /* \"contracts/GovernorFactory.sol\":115:1081  contract GovernorFactory is Ownable {... */\n  mstore(0x40, 0x80)\n  callvalue\n  dup1\n  iszero\n  tag_1\n  jumpi\n  0x00\n  dup1\n  revert\ntag_1:\n  pop\n    /* \"@openzeppelin/contracts/access/Ownable.sol\":936:968  _transferOwnership(_msgSender()) */\n  tag_4\n    /* \"@openzeppelin/contracts/access/Ownable.sol\":955:967  _msgSender() */\n  tag_5\n    /* \"@openzeppelin/contracts/access/Ownable.sol\":955:965  _msgSender */\n  shl(0x20, tag_6)\n    /* \"@openzeppelin/contracts/access/Ownable.sol\":955:967  _msgSender() */\n  0x20\n  shr\n  jump\t// in\ntag_5:\n    /* \"@openzeppelin/contracts/access/Ownable.sol\":936:954  _transferOwnership */\n  shl(0x20, tag_7)\n    /* \"@openzeppelin/contracts/access/Ownable.sol\":936:968  _transferOwnership(_msgSender()) */\n  0x20\n  shr\n  jump\t// in\ntag_4:\n    /* \"contracts/GovernorFactory.sol\":115:1081  contract GovernorFactory is Ownable {... */\n  jump(tag_8)\n    /* \"@openzeppelin/contracts/utils/Context.sol\":640:736  function _msgSender() internal view virtual returns (address) {... */\ntag_6:\n    /* \"@openzeppelin/contracts/utils/Context.sol\":693:700  address */\n  0x00\n    /* \"@openzeppelin/contracts/utils/Context.sol\":719:729  msg.sender */\n  caller\n    /* \"@openzeppelin/contracts/utils/Context.sol\":712:729  return msg.sender */\n  swap1\n  pop\n    /* \"@openzeppelin/contracts/utils/Context.sol\":640:736  function _msgSender() internal view virtual returns (address) {... */\n  swap1\n  jump\t// out\n    /* \"@openzeppelin/contracts/access/Ownable.sol\":2433:2620  function _transferOwnership(address newOwner) internal virtual {... */\ntag_7:\n    /* \"@openzeppelin/contracts/access/Ownable.sol\":2506:2522  address oldOwner */\n  0x00\n    /* \"@openzeppelin/contracts/access/Ownable.sol\":2525:2531  _owner */\n  dup1\n  0x00\n  swap1\n  sload\n  swap1\n  0x0100\n  exp\n  swap1\n  div\n  0xffffffffffffffffffffffffffffffffffffffff\n  and\n    /* \"@openzeppelin/contracts/access/Ownable.sol\":2506:2531  address oldOwner = _owner */\n  swap1\n  pop\n    /* \"@openzeppelin/contracts/access/Ownable.sol\":2550:2558  newOwner */\n  dup2\n    /* \"@openzeppelin/contracts/access/Ownable.sol\":2541:2547  _owner */\n  0x00\n  dup1\n    /* \"@openzeppelin/contracts/access/Ownable.sol\":2541:2558  _owner = newOwner */\n  0x0100\n  exp\n  dup2\n  sload\n  dup2\n  0xffffffffffffffffffffffffffffffffffffffff\n  mul\n  not\n  and\n  swap1\n  dup4\n  0xffffffffffffffffffffffffffffffffffffffff\n  and\n  mul\n  or\n  swap1\n  sstore\n  pop\n    /* \"@openzeppelin/contracts/access/Ownable.sol\":2604:2612  newOwner */\n  dup2\n    /* \"@openzeppelin/contracts/access/Ownable.sol\":2573:2613  OwnershipTransferred(oldOwner, newOwner) */\n  0xffffffffffffffffffffffffffffffffffffffff\n  and\n    /* \"@openzeppelin/contracts/access/Ownable.sol\":2594:2602  oldOwner */\n  dup2\n    /* \"@openzeppelin/contracts/access/Ownable.sol\":2573:2613  OwnershipTransferred(oldOwner, newOwner) */\n  0xffffffffffffffffffffffffffffffffffffffff\n  and\n  0x8be0079c531659141344cd1fd0a4f28419497f9722a3daafe3b4186f6b6457e0\n  mload(0x40)\n  mload(0x40)\n  dup1\n  swap2\n  sub\n  swap1\n  log3\n    /* \"@openzeppelin/contracts/access/Ownable.sol\":2496:2620  {... */\n  pop\n    /* \"@openzeppelin/contracts/access/Ownable.sol\":2433:2620  function _transferOwnership(address newOwner) internal virtual {... */\n  pop\n  jump\t// out\n    /* \"contracts/GovernorFactory.sol\":115:1081  contract GovernorFactory is Ownable {... */\ntag_8:\n  dataSize(sub_0)\n  dup1\n  dataOffset(sub_0)\n  0x00\n  codecopy\n  0x00\n  return\nstop\n\nsub_0: assembly {\n        /* \"contracts/GovernorFactory.sol\":115:1081  contract GovernorFactory is Ownable {... */\n      mstore(0x40, 0x80)\n      callvalue\n      dup1\n      iszero\n      tag_1\n      jumpi\n      0x00\n      dup1\n      revert\n    tag_1:\n      pop\n      jumpi(tag_2, lt(calldatasize, 0x04))\n      shr(0xe0, calldataload(0x00))\n      dup1\n      0x0dab2420\n      eq\n      tag_3\n      jumpi\n      dup1\n      0x715018a6\n      eq\n      tag_4\n      jumpi\n      dup1\n      0x8da5cb5b\n      eq\n      tag_5\n      jumpi\n      dup1\n      0xaf800e71\n      eq\n      tag_6\n      jumpi\n      dup1\n      0xf2fde38b\n      eq\n      tag_7\n      jumpi\n    tag_2:\n      0x00\n      dup1\n      revert\n        /* \"contracts/GovernorFactory.sol\":413:807  function addGovernorAddress(address _governor, address _timelock,address _token ) public {... */\n    tag_3:\n      tag_8\n      0x04\n      dup1\n      calldatasize\n      sub\n      dup2\n      add\n      swap1\n      tag_9\n      swap2\n      swap1\n      tag_10\n      jump\t// in\n    tag_9:\n      tag_11\n      jump\t// in\n    tag_8:\n      stop\n        /* \"@openzeppelin/contracts/access/Ownable.sol\":1831:1932  function renounceOwnership() public virtual onlyOwner {... */\n    tag_4:\n      tag_12\n      tag_13\n      jump\t// in\n    tag_12:\n      stop\n        /* \"@openzeppelin/contracts/access/Ownable.sol\":1201:1286  function owner() public view virtual returns (address) {... */\n    tag_5:\n      tag_14\n      tag_15\n      jump\t// in\n    tag_14:\n      mload(0x40)\n      tag_16\n      swap2\n      swap1\n      tag_17\n      jump\t// in\n    tag_16:\n      mload(0x40)\n      dup1\n      swap2\n      sub\n      swap1\n      return\n        /* \"contracts/GovernorFactory.sol\":813:1079  function getAllDeployedGovernor () public view returns (GovernorMeta[] memory props){... */\n    tag_6:\n      tag_18\n      tag_19\n      jump\t// in\n    tag_18:\n      mload(0x40)\n      tag_20\n      swap2\n      swap1\n      tag_21\n      jump\t// in\n    tag_20:\n      mload(0x40)\n      dup1\n      swap2\n      sub\n      swap1\n      return\n        /* \"@openzeppelin/contracts/access/Ownable.sol\":2081:2279  function transferOwnership(address newOwner) public virtual onlyOwner {... */\n    tag_7:\n      tag_22\n      0x04\n      dup1\n      calldatasize\n      sub\n      dup2\n      add\n      swap1\n      tag_23\n      swap2\n      swap1\n      tag_24\n      jump\t// in\n    tag_23:\n      tag_25\n      jump\t// in\n    tag_22:\n      stop\n        /* \"contracts/GovernorFactory.sol\":413:807  function addGovernorAddress(address _governor, address _timelock,address _token ) public {... */\n    tag_11:\n        /* \"contracts/GovernorFactory.sol\":512:527  uint governorId */\n      0x00\n        /* \"contracts/GovernorFactory.sol\":530:544  numOfGovernors */\n      0x01\n      0x00\n        /* \"contracts/GovernorFactory.sol\":530:546  numOfGovernors++ */\n      dup2\n      sload\n      dup1\n      swap3\n      swap2\n      swap1\n      tag_27\n      swap1\n      tag_28\n      jump\t// in\n    tag_27:\n      swap2\n      swap1\n      pop\n      sstore\n        /* \"contracts/GovernorFactory.sol\":512:546  uint governorId = numOfGovernors++ */\n      swap1\n      pop\n        /* \"contracts/GovernorFactory.sol\":556:592  GovernorMeta storage currentGovernor */\n      0x00\n        /* \"contracts/GovernorFactory.sol\":595:612  deployedContracts */\n      0x02\n        /* \"contracts/GovernorFactory.sol\":595:624  deployedContracts[governorId] */\n      0x00\n        /* \"contracts/GovernorFactory.sol\":613:623  governorId */\n      dup4\n        /* \"contracts/GovernorFactory.sol\":595:624  deployedContracts[governorId] */\n      dup2\n      mstore\n      0x20\n      add\n      swap1\n      dup2\n      mstore\n      0x20\n      add\n      0x00\n      keccak256\n        /* \"contracts/GovernorFactory.sol\":556:624  GovernorMeta storage currentGovernor = deployedContracts[governorId] */\n      swap1\n      pop\n        /* \"contracts/GovernorFactory.sol\":661:670  _governor */\n      dup5\n        /* \"contracts/GovernorFactory.sol\":634:649  currentGovernor */\n      dup2\n        /* \"contracts/GovernorFactory.sol\":634:658  currentGovernor.governor */\n      0x00\n      add\n      0x00\n        /* \"contracts/GovernorFactory.sol\":634:670  currentGovernor.governor = _governor */\n      0x0100\n      exp\n      dup2\n      sload\n      dup2\n      0xffffffffffffffffffffffffffffffffffffffff\n      mul\n      not\n      and\n      swap1\n      dup4\n      0xffffffffffffffffffffffffffffffffffffffff\n      and\n      mul\n      or\n      swap1\n      sstore\n      pop\n        /* \"contracts/GovernorFactory.sol\":707:716  _timelock */\n      dup4\n        /* \"contracts/GovernorFactory.sol\":680:695  currentGovernor */\n      dup2\n        /* \"contracts/GovernorFactory.sol\":680:704  currentGovernor.timelock */\n      0x01\n      add\n      0x00\n        /* \"contracts/GovernorFactory.sol\":680:716  currentGovernor.timelock = _timelock */\n      0x0100\n      exp\n      dup2\n      sload\n      dup2\n      0xffffffffffffffffffffffffffffffffffffffff\n      mul\n      not\n      and\n      swap1\n      dup4\n      0xffffffffffffffffffffffffffffffffffffffff\n      and\n      mul\n      or\n      swap1\n      sstore\n      pop\n        /* \"contracts/GovernorFactory.sol\":750:756  _token */\n      dup3\n        /* \"contracts/GovernorFactory.sol\":726:741  currentGovernor */\n      dup2\n        /* \"contracts/GovernorFactory.sol\":726:747  currentGovernor.token */\n      0x02\n      add\n      0x00\n        /* \"contracts/GovernorFactory.sol\":726:756  currentGovernor.token = _token */\n      0x0100\n      exp\n      dup2\n      sload\n      dup2\n      0xffffffffffffffffffffffffffffffffffffffff\n      mul\n      not\n      and\n      swap1\n      dup4\n      0xffffffffffffffffffffffffffffffffffffffff\n      and\n      mul\n      or\n      swap1\n      sstore\n      pop\n        /* \"contracts/GovernorFactory.sol\":771:800  newGovernorCreated(_governor) */\n      0x5cbe3ce075ecdc55e8142db31e6a441bbf67f93d56fcb05ba3c88db57c7f362d\n        /* \"contracts/GovernorFactory.sol\":790:799  _governor */\n      dup6\n        /* \"contracts/GovernorFactory.sol\":771:800  newGovernorCreated(_governor) */\n      mload(0x40)\n      tag_29\n      swap2\n      swap1\n      tag_17\n      jump\t// in\n    tag_29:\n      mload(0x40)\n      dup1\n      swap2\n      sub\n      swap1\n      log1\n        /* \"contracts/GovernorFactory.sol\":502:807  {... */\n      pop\n      pop\n        /* \"contracts/GovernorFactory.sol\":413:807  function addGovernorAddress(address _governor, address _timelock,address _token ) public {... */\n      pop\n      pop\n      pop\n      jump\t// out\n        /* \"@openzeppelin/contracts/access/Ownable.sol\":1831:1932  function renounceOwnership() public virtual onlyOwner {... */\n    tag_13:\n        /* \"@openzeppelin/contracts/access/Ownable.sol\":1094:1107  _checkOwner() */\n      tag_31\n        /* \"@openzeppelin/contracts/access/Ownable.sol\":1094:1105  _checkOwner */\n      tag_32\n        /* \"@openzeppelin/contracts/access/Ownable.sol\":1094:1107  _checkOwner() */\n      jump\t// in\n    tag_31:\n        /* \"@openzeppelin/contracts/access/Ownable.sol\":1895:1925  _transferOwnership(address(0)) */\n      tag_34\n        /* \"@openzeppelin/contracts/access/Ownable.sol\":1922:1923  0 */\n      0x00\n        /* \"@openzeppelin/contracts/access/Ownable.sol\":1895:1913  _transferOwnership */\n      tag_35\n        /* \"@openzeppelin/contracts/access/Ownable.sol\":1895:1925  _transferOwnership(address(0)) */\n      jump\t// in\n    tag_34:\n        /* \"@openzeppelin/contracts/access/Ownable.sol\":1831:1932  function renounceOwnership() public virtual onlyOwner {... */\n      jump\t// out\n        /* \"@openzeppelin/contracts/access/Ownable.sol\":1201:1286  function owner() public view virtual returns (address) {... */\n    tag_15:\n        /* \"@openzeppelin/contracts/access/Ownable.sol\":1247:1254  address */\n      0x00\n        /* \"@openzeppelin/contracts/access/Ownable.sol\":1273:1279  _owner */\n      dup1\n      0x00\n      swap1\n      sload\n      swap1\n      0x0100\n      exp\n      swap1\n      div\n      0xffffffffffffffffffffffffffffffffffffffff\n      and\n        /* \"@openzeppelin/contracts/access/Ownable.sol\":1266:1279  return _owner */\n      swap1\n      pop\n        /* \"@openzeppelin/contracts/access/Ownable.sol\":1201:1286  function owner() public view virtual returns (address) {... */\n      swap1\n      jump\t// out\n        /* \"contracts/GovernorFactory.sol\":813:1079  function getAllDeployedGovernor () public view returns (GovernorMeta[] memory props){... */\n    tag_19:\n        /* \"contracts/GovernorFactory.sol\":869:896  GovernorMeta[] memory props */\n      0x60\n        /* \"contracts/GovernorFactory.sol\":934:948  numOfGovernors */\n      sload(0x01)\n        /* \"contracts/GovernorFactory.sol\":915:949  new GovernorMeta[](numOfGovernors) */\n      0xffffffffffffffff\n      dup2\n      gt\n      iszero\n      tag_38\n      jumpi\n      tag_39\n      tag_40\n      jump\t// in\n    tag_39:\n    tag_38:\n      mload(0x40)\n      swap1\n      dup1\n      dup3\n      mstore\n      dup1\n      0x20\n      mul\n      0x20\n      add\n      dup3\n      add\n      0x40\n      mstore\n      dup1\n      iszero\n      tag_41\n      jumpi\n      dup2\n      0x20\n      add\n    tag_42:\n      tag_43\n      tag_44\n      jump\t// in\n    tag_43:\n      dup2\n      mstore\n      0x20\n      add\n      swap1\n      0x01\n      swap1\n      sub\n      swap1\n      dup2\n      tag_42\n      jumpi\n      swap1\n      pop\n    tag_41:\n      pop\n        /* \"contracts/GovernorFactory.sol\":907:949  props = new GovernorMeta[](numOfGovernors) */\n      swap1\n      pop\n        /* \"contracts/GovernorFactory.sol\":963:976  uint256 index */\n      0x00\n        /* \"contracts/GovernorFactory.sol\":959:1073  for(uint256 index=0; index<numOfGovernors; index++){... */\n    tag_45:\n        /* \"contracts/GovernorFactory.sol\":986:1000  numOfGovernors */\n      sload(0x01)\n        /* \"contracts/GovernorFactory.sol\":980:985  index */\n      dup2\n        /* \"contracts/GovernorFactory.sol\":980:1000  index<numOfGovernors */\n      lt\n        /* \"contracts/GovernorFactory.sol\":959:1073  for(uint256 index=0; index<numOfGovernors; index++){... */\n      iszero\n      tag_46\n      jumpi\n        /* \"contracts/GovernorFactory.sol\":1038:1055  deployedContracts */\n      0x02\n        /* \"contracts/GovernorFactory.sol\":1038:1062  deployedContracts[index] */\n      0x00\n        /* \"contracts/GovernorFactory.sol\":1056:1061  index */\n      dup3\n        /* \"contracts/GovernorFactory.sol\":1038:1062  deployedContracts[index] */\n      dup2\n      mstore\n      0x20\n      add\n      swap1\n      dup2\n      mstore\n      0x20\n      add\n      0x00\n      keccak256\n        /* \"contracts/GovernorFactory.sol\":1024:1062  props[index]= deployedContracts[index] */\n      mload(0x40)\n      dup1\n      0x60\n      add\n      0x40\n      mstore\n      swap1\n      dup2\n      0x00\n      dup3\n      add\n      0x00\n      swap1\n      sload\n      swap1\n      0x0100\n      exp\n      swap1\n      div\n      0xffffffffffffffffffffffffffffffffffffffff\n      and\n      0xffffffffffffffffffffffffffffffffffffffff\n      and\n      0xffffffffffffffffffffffffffffffffffffffff\n      and\n      dup2\n      mstore\n      0x20\n      add\n      0x01\n      dup3\n      add\n      0x00\n      swap1\n      sload\n      swap1\n      0x0100\n      exp\n      swap1\n      div\n      0xffffffffffffffffffffffffffffffffffffffff\n      and\n      0xffffffffffffffffffffffffffffffffffffffff\n      and\n      0xffffffffffffffffffffffffffffffffffffffff\n      and\n      dup2\n      mstore\n      0x20\n      add\n      0x02\n      dup3\n      add\n      0x00\n      swap1\n      sload\n      swap1\n      0x0100\n      exp\n      swap1\n      div\n      0xffffffffffffffffffffffffffffffffffffffff\n      and\n      0xffffffffffffffffffffffffffffffffffffffff\n      and\n      0xffffffffffffffffffffffffffffffffffffffff\n      and\n      dup2\n      mstore\n      pop\n      pop\n        /* \"contracts/GovernorFactory.sol\":1024:1029  props */\n      dup3\n        /* \"contracts/GovernorFactory.sol\":1030:1035  index */\n      dup3\n        /* \"contracts/GovernorFactory.sol\":1024:1036  props[index] */\n      dup2\n      mload\n      dup2\n      lt\n      tag_48\n      jumpi\n      tag_49\n      tag_50\n      jump\t// in\n    tag_49:\n    tag_48:\n      0x20\n      mul\n      0x20\n      add\n      add\n        /* \"contracts/GovernorFactory.sol\":1024:1062  props[index]= deployedContracts[index] */\n      dup2\n      swap1\n      mstore\n      pop\n        /* \"contracts/GovernorFactory.sol\":1002:1009  index++ */\n      dup1\n      dup1\n      tag_51\n      swap1\n      tag_28\n      jump\t// in\n    tag_51:\n      swap2\n      pop\n      pop\n        /* \"contracts/GovernorFactory.sol\":959:1073  for(uint256 index=0; index<numOfGovernors; index++){... */\n      jump(tag_45)\n    tag_46:\n      pop\n        /* \"contracts/GovernorFactory.sol\":813:1079  function getAllDeployedGovernor () public view returns (GovernorMeta[] memory props){... */\n      swap1\n      jump\t// out\n        /* \"@openzeppelin/contracts/access/Ownable.sol\":2081:2279  function transferOwnership(address newOwner) public virtual onlyOwner {... */\n    tag_25:\n        /* \"@openzeppelin/contracts/access/Ownable.sol\":1094:1107  _checkOwner() */\n      tag_53\n        /* \"@openzeppelin/contracts/access/Ownable.sol\":1094:1105  _checkOwner */\n      tag_32\n        /* \"@openzeppelin/contracts/access/Ownable.sol\":1094:1107  _checkOwner() */\n      jump\t// in\n    tag_53:\n        /* \"@openzeppelin/contracts/access/Ownable.sol\":2189:2190  0 */\n      0x00\n        /* \"@openzeppelin/contracts/access/Ownable.sol\":2169:2191  newOwner != address(0) */\n      0xffffffffffffffffffffffffffffffffffffffff\n      and\n        /* \"@openzeppelin/contracts/access/Ownable.sol\":2169:2177  newOwner */\n      dup2\n        /* \"@openzeppelin/contracts/access/Ownable.sol\":2169:2191  newOwner != address(0) */\n      0xffffffffffffffffffffffffffffffffffffffff\n      and\n      sub\n        /* \"@openzeppelin/contracts/access/Ownable.sol\":2161:2234  require(newOwner != address(0), \"Ownable: new owner is the zero address\") */\n      tag_55\n      jumpi\n      mload(0x40)\n      0x08c379a000000000000000000000000000000000000000000000000000000000\n      dup2\n      mstore\n      0x04\n      add\n      tag_56\n      swap1\n      tag_57\n      jump\t// in\n    tag_56:\n      mload(0x40)\n      dup1\n      swap2\n      sub\n      swap1\n      revert\n    tag_55:\n        /* \"@openzeppelin/contracts/access/Ownable.sol\":2244:2272  _transferOwnership(newOwner) */\n      tag_58\n        /* \"@openzeppelin/contracts/access/Ownable.sol\":2263:2271  newOwner */\n      dup2\n        /* \"@openzeppelin/contracts/access/Ownable.sol\":2244:2262  _transferOwnership */\n      tag_35\n        /* \"@openzeppelin/contracts/access/Ownable.sol\":2244:2272  _transferOwnership(newOwner) */\n      jump\t// in\n    tag_58:\n        /* \"@openzeppelin/contracts/access/Ownable.sol\":2081:2279  function transferOwnership(address newOwner) public virtual onlyOwner {... */\n      pop\n      jump\t// out\n        /* \"@openzeppelin/contracts/access/Ownable.sol\":1359:1489  function _checkOwner() internal view virtual {... */\n    tag_32:\n        /* \"@openzeppelin/contracts/access/Ownable.sol\":1433:1445  _msgSender() */\n      tag_60\n        /* \"@openzeppelin/contracts/access/Ownable.sol\":1433:1443  _msgSender */\n      tag_61\n        /* \"@openzeppelin/contracts/access/Ownable.sol\":1433:1445  _msgSender() */\n      jump\t// in\n    tag_60:\n        /* \"@openzeppelin/contracts/access/Ownable.sol\":1422:1445  owner() == _msgSender() */\n      0xffffffffffffffffffffffffffffffffffffffff\n      and\n        /* \"@openzeppelin/contracts/access/Ownable.sol\":1422:1429  owner() */\n      tag_62\n        /* \"@openzeppelin/contracts/access/Ownable.sol\":1422:1427  owner */\n      tag_15\n        /* \"@openzeppelin/contracts/access/Ownable.sol\":1422:1429  owner() */\n      jump\t// in\n    tag_62:\n        /* \"@openzeppelin/contracts/access/Ownable.sol\":1422:1445  owner() == _msgSender() */\n      0xffffffffffffffffffffffffffffffffffffffff\n      and\n      eq\n        /* \"@openzeppelin/contracts/access/Ownable.sol\":1414:1482  require(owner() == _msgSender(), \"Ownable: caller is not the owner\") */\n      tag_63\n      jumpi\n      mload(0x40)\n      0x08c379a000000000000000000000000000000000000000000000000000000000\n      dup2\n      mstore\n      0x04\n      add\n      tag_64\n      swap1\n      tag_65\n      jump\t// in\n    tag_64:\n      mload(0x40)\n      dup1\n      swap2\n      sub\n      swap1\n      revert\n    tag_63:\n        /* \"@openzeppelin/contracts/access/Ownable.sol\":1359:1489  function _checkOwner() internal view virtual {... */\n      jump\t// out\n        /* \"@openzeppelin/contracts/access/Ownable.sol\":2433:2620  function _transferOwnership(address newOwner) internal virtual {... */\n    tag_35:\n        /* \"@openzeppelin/contracts/access/Ownable.sol\":2506:2522  address oldOwner */\n      0x00\n        /* \"@openzeppelin/contracts/access/Ownable.sol\":2525:2531  _owner */\n      dup1\n      0x00\n      swap1\n      sload\n      swap1\n      0x0100\n      exp\n      swap1\n      div\n      0xffffffffffffffffffffffffffffffffffffffff\n      and\n        /* \"@openzeppelin/contracts/access/Ownable.sol\":2506:2531  address oldOwner = _owner */\n      swap1\n      pop\n        /* \"@openzeppelin/contracts/access/Ownable.sol\":2550:2558  newOwner */\n      dup2\n        /* \"@openzeppelin/contracts/access/Ownable.sol\":2541:2547  _owner */\n      0x00\n      dup1\n        /* \"@openzeppelin/contracts/access/Ownable.sol\":2541:2558  _owner = newOwner */\n      0x0100\n      exp\n      dup2\n      sload\n      dup2\n      0xffffffffffffffffffffffffffffffffffffffff\n      mul\n      not\n      and\n      swap1\n      dup4\n      0xffffffffffffffffffffffffffffffffffffffff\n      and\n      mul\n      or\n      swap1\n      sstore\n      pop\n        /* \"@openzeppelin/contracts/access/Ownable.sol\":2604:2612  newOwner */\n      dup2\n        /* \"@openzeppelin/contracts/access/Ownable.sol\":2573:2613  OwnershipTransferred(oldOwner, newOwner) */\n      0xffffffffffffffffffffffffffffffffffffffff\n      and\n        /* \"@openzeppelin/contracts/access/Ownable.sol\":2594:2602  oldOwner */\n      dup2\n        /* \"@openzeppelin/contracts/access/Ownable.sol\":2573:2613  OwnershipTransferred(oldOwner, newOwner) */\n      0xffffffffffffffffffffffffffffffffffffffff\n      and\n      0x8be0079c531659141344cd1fd0a4f28419497f9722a3daafe3b4186f6b6457e0\n      mload(0x40)\n      mload(0x40)\n      dup1\n      swap2\n      sub\n      swap1\n      log3\n        /* \"@openzeppelin/contracts/access/Ownable.sol\":2496:2620  {... */\n      pop\n        /* \"@openzeppelin/contracts/access/Ownable.sol\":2433:2620  function _transferOwnership(address newOwner) internal virtual {... */\n      pop\n      jump\t// out\n        /* \"@openzeppelin/contracts/utils/Context.sol\":640:736  function _msgSender() internal view virtual returns (address) {... */\n    tag_61:\n        /* \"@openzeppelin/contracts/utils/Context.sol\":693:700  address */\n      0x00\n        /* \"@openzeppelin/contracts/utils/Context.sol\":719:729  msg.sender */\n      caller\n        /* \"@openzeppelin/contracts/utils/Context.sol\":712:729  return msg.sender */\n      swap1\n      pop\n        /* \"@openzeppelin/contracts/utils/Context.sol\":640:736  function _msgSender() internal view virtual returns (address) {... */\n      swap1\n      jump\t// out\n    tag_44:\n      mload(0x40)\n      dup1\n      0x60\n      add\n      0x40\n      mstore\n      dup1\n      and(0xffffffffffffffffffffffffffffffffffffffff, 0x00)\n      dup2\n      mstore\n      0x20\n      add\n      and(0xffffffffffffffffffffffffffffffffffffffff, 0x00)\n      dup2\n      mstore\n      0x20\n      add\n      and(0xffffffffffffffffffffffffffffffffffffffff, 0x00)\n      dup2\n      mstore\n      pop\n      swap1\n      jump\t// out\n        /* \"#utility.yul\":88:205   */\n    tag_69:\n        /* \"#utility.yul\":197:198   */\n      0x00\n        /* \"#utility.yul\":194:195   */\n      dup1\n        /* \"#utility.yul\":187:199   */\n      revert\n        /* \"#utility.yul\":334:460   */\n    tag_71:\n        /* \"#utility.yul\":371:378   */\n      0x00\n        /* \"#utility.yul\":411:453   */\n      0xffffffffffffffffffffffffffffffffffffffff\n        /* \"#utility.yul\":404:409   */\n      dup3\n        /* \"#utility.yul\":400:454   */\n      and\n        /* \"#utility.yul\":389:454   */\n      swap1\n      pop\n        /* \"#utility.yul\":334:460   */\n      swap2\n      swap1\n      pop\n      jump\t// out\n        /* \"#utility.yul\":466:562   */\n    tag_72:\n        /* \"#utility.yul\":503:510   */\n      0x00\n        /* \"#utility.yul\":532:556   */\n      tag_97\n        /* \"#utility.yul\":550:555   */\n      dup3\n        /* \"#utility.yul\":532:556   */\n      tag_71\n      jump\t// in\n    tag_97:\n        /* \"#utility.yul\":521:556   */\n      swap1\n      pop\n        /* \"#utility.yul\":466:562   */\n      swap2\n      swap1\n      pop\n      jump\t// out\n        /* \"#utility.yul\":568:690   */\n    tag_73:\n        /* \"#utility.yul\":641:665   */\n      tag_99\n        /* \"#utility.yul\":659:664   */\n      dup2\n        /* \"#utility.yul\":641:665   */\n      tag_72\n      jump\t// in\n    tag_99:\n        /* \"#utility.yul\":634:639   */\n      dup2\n        /* \"#utility.yul\":631:666   */\n      eq\n        /* \"#utility.yul\":621:684   */\n      tag_100\n      jumpi\n        /* \"#utility.yul\":680:681   */\n      0x00\n        /* \"#utility.yul\":677:678   */\n      dup1\n        /* \"#utility.yul\":670:682   */\n      revert\n        /* \"#utility.yul\":621:684   */\n    tag_100:\n        /* \"#utility.yul\":568:690   */\n      pop\n      jump\t// out\n        /* \"#utility.yul\":696:835   */\n    tag_74:\n        /* \"#utility.yul\":742:747   */\n      0x00\n        /* \"#utility.yul\":780:786   */\n      dup2\n        /* \"#utility.yul\":767:787   */\n      calldataload\n        /* \"#utility.yul\":758:787   */\n      swap1\n      pop\n        /* \"#utility.yul\":796:829   */\n      tag_102\n        /* \"#utility.yul\":823:828   */\n      dup2\n        /* \"#utility.yul\":796:829   */\n      tag_73\n      jump\t// in\n    tag_102:\n        /* \"#utility.yul\":696:835   */\n      swap3\n      swap2\n      pop\n      pop\n      jump\t// out\n        /* \"#utility.yul\":841:1460   */\n    tag_10:\n        /* \"#utility.yul\":918:924   */\n      0x00\n        /* \"#utility.yul\":926:932   */\n      dup1\n        /* \"#utility.yul\":934:940   */\n      0x00\n        /* \"#utility.yul\":983:985   */\n      0x60\n        /* \"#utility.yul\":971:980   */\n      dup5\n        /* \"#utility.yul\":962:969   */\n      dup7\n        /* \"#utility.yul\":958:981   */\n      sub\n        /* \"#utility.yul\":954:986   */\n      slt\n        /* \"#utility.yul\":951:1070   */\n      iszero\n      tag_104\n      jumpi\n        /* \"#utility.yul\":989:1068   */\n      tag_105\n      tag_69\n      jump\t// in\n    tag_105:\n        /* \"#utility.yul\":951:1070   */\n    tag_104:\n        /* \"#utility.yul\":1109:1110   */\n      0x00\n        /* \"#utility.yul\":1134:1187   */\n      tag_106\n        /* \"#utility.yul\":1179:1186   */\n      dup7\n        /* \"#utility.yul\":1170:1176   */\n      dup3\n        /* \"#utility.yul\":1159:1168   */\n      dup8\n        /* \"#utility.yul\":1155:1177   */\n      add\n        /* \"#utility.yul\":1134:1187   */\n      tag_74\n      jump\t// in\n    tag_106:\n        /* \"#utility.yul\":1124:1187   */\n      swap4\n      pop\n        /* \"#utility.yul\":1080:1197   */\n      pop\n        /* \"#utility.yul\":1236:1238   */\n      0x20\n        /* \"#utility.yul\":1262:1315   */\n      tag_107\n        /* \"#utility.yul\":1307:1314   */\n      dup7\n        /* \"#utility.yul\":1298:1304   */\n      dup3\n        /* \"#utility.yul\":1287:1296   */\n      dup8\n        /* \"#utility.yul\":1283:1305   */\n      add\n        /* \"#utility.yul\":1262:1315   */\n      tag_74\n      jump\t// in\n    tag_107:\n        /* \"#utility.yul\":1252:1315   */\n      swap3\n      pop\n        /* \"#utility.yul\":1207:1325   */\n      pop\n        /* \"#utility.yul\":1364:1366   */\n      0x40\n        /* \"#utility.yul\":1390:1443   */\n      tag_108\n        /* \"#utility.yul\":1435:1442   */\n      dup7\n        /* \"#utility.yul\":1426:1432   */\n      dup3\n        /* \"#utility.yul\":1415:1424   */\n      dup8\n        /* \"#utility.yul\":1411:1433   */\n      add\n        /* \"#utility.yul\":1390:1443   */\n      tag_74\n      jump\t// in\n    tag_108:\n        /* \"#utility.yul\":1380:1443   */\n      swap2\n      pop\n        /* \"#utility.yul\":1335:1453   */\n      pop\n        /* \"#utility.yul\":841:1460   */\n      swap3\n      pop\n      swap3\n      pop\n      swap3\n      jump\t// out\n        /* \"#utility.yul\":1466:1584   */\n    tag_75:\n        /* \"#utility.yul\":1553:1577   */\n      tag_110\n        /* \"#utility.yul\":1571:1576   */\n      dup2\n        /* \"#utility.yul\":1553:1577   */\n      tag_72\n      jump\t// in\n    tag_110:\n        /* \"#utility.yul\":1548:1551   */\n      dup3\n        /* \"#utility.yul\":1541:1578   */\n      mstore\n        /* \"#utility.yul\":1466:1584   */\n      pop\n      pop\n      jump\t// out\n        /* \"#utility.yul\":1590:1812   */\n    tag_17:\n        /* \"#utility.yul\":1683:1687   */\n      0x00\n        /* \"#utility.yul\":1721:1723   */\n      0x20\n        /* \"#utility.yul\":1710:1719   */\n      dup3\n        /* \"#utility.yul\":1706:1724   */\n      add\n        /* \"#utility.yul\":1698:1724   */\n      swap1\n      pop\n        /* \"#utility.yul\":1734:1805   */\n      tag_112\n        /* \"#utility.yul\":1802:1803   */\n      0x00\n        /* \"#utility.yul\":1791:1800   */\n      dup4\n        /* \"#utility.yul\":1787:1804   */\n      add\n        /* \"#utility.yul\":1778:1784   */\n      dup5\n        /* \"#utility.yul\":1734:1805   */\n      tag_75\n      jump\t// in\n    tag_112:\n        /* \"#utility.yul\":1590:1812   */\n      swap3\n      swap2\n      pop\n      pop\n      jump\t// out\n        /* \"#utility.yul\":1818:1961   */\n    tag_76:\n        /* \"#utility.yul\":1914:1920   */\n      0x00\n        /* \"#utility.yul\":1948:1953   */\n      dup2\n        /* \"#utility.yul\":1942:1954   */\n      mload\n        /* \"#utility.yul\":1932:1954   */\n      swap1\n      pop\n        /* \"#utility.yul\":1818:1961   */\n      swap2\n      swap1\n      pop\n      jump\t// out\n        /* \"#utility.yul\":1967:2180   */\n    tag_77:\n        /* \"#utility.yul\":2095:2106   */\n      0x00\n        /* \"#utility.yul\":2129:2135   */\n      dup3\n        /* \"#utility.yul\":2124:2127   */\n      dup3\n        /* \"#utility.yul\":2117:2136   */\n      mstore\n        /* \"#utility.yul\":2169:2173   */\n      0x20\n        /* \"#utility.yul\":2164:2167   */\n      dup3\n        /* \"#utility.yul\":2160:2174   */\n      add\n        /* \"#utility.yul\":2145:2174   */\n      swap1\n      pop\n        /* \"#utility.yul\":1967:2180   */\n      swap3\n      swap2\n      pop\n      pop\n      jump\t// out\n        /* \"#utility.yul\":2186:2347   */\n    tag_78:\n        /* \"#utility.yul\":2282:2286   */\n      0x00\n        /* \"#utility.yul\":2305:2308   */\n      dup2\n        /* \"#utility.yul\":2297:2308   */\n      swap1\n      pop\n        /* \"#utility.yul\":2335:2339   */\n      0x20\n        /* \"#utility.yul\":2330:2333   */\n      dup3\n        /* \"#utility.yul\":2326:2340   */\n      add\n        /* \"#utility.yul\":2318:2340   */\n      swap1\n      pop\n        /* \"#utility.yul\":2186:2347   */\n      swap2\n      swap1\n      pop\n      jump\t// out\n        /* \"#utility.yul\":2353:2461   */\n    tag_79:\n        /* \"#utility.yul\":2430:2454   */\n      tag_117\n        /* \"#utility.yul\":2448:2453   */\n      dup2\n        /* \"#utility.yul\":2430:2454   */\n      tag_72\n      jump\t// in\n    tag_117:\n        /* \"#utility.yul\":2425:2428   */\n      dup3\n        /* \"#utility.yul\":2418:2455   */\n      mstore\n        /* \"#utility.yul\":2353:2461   */\n      pop\n      pop\n      jump\t// out\n        /* \"#utility.yul\":2549:3237   */\n    tag_80:\n        /* \"#utility.yul\":2694:2698   */\n      0x60\n        /* \"#utility.yul\":2689:2692   */\n      dup3\n        /* \"#utility.yul\":2685:2699   */\n      add\n        /* \"#utility.yul\":2785:2789   */\n      0x00\n        /* \"#utility.yul\":2778:2783   */\n      dup3\n        /* \"#utility.yul\":2774:2790   */\n      add\n        /* \"#utility.yul\":2768:2791   */\n      mload\n        /* \"#utility.yul\":2804:2867   */\n      tag_119\n        /* \"#utility.yul\":2861:2865   */\n      0x00\n        /* \"#utility.yul\":2856:2859   */\n      dup6\n        /* \"#utility.yul\":2852:2866   */\n      add\n        /* \"#utility.yul\":2838:2850   */\n      dup3\n        /* \"#utility.yul\":2804:2867   */\n      tag_79\n      jump\t// in\n    tag_119:\n        /* \"#utility.yul\":2709:2877   */\n      pop\n        /* \"#utility.yul\":2963:2967   */\n      0x20\n        /* \"#utility.yul\":2956:2961   */\n      dup3\n        /* \"#utility.yul\":2952:2968   */\n      add\n        /* \"#utility.yul\":2946:2969   */\n      mload\n        /* \"#utility.yul\":2982:3045   */\n      tag_120\n        /* \"#utility.yul\":3039:3043   */\n      0x20\n        /* \"#utility.yul\":3034:3037   */\n      dup6\n        /* \"#utility.yul\":3030:3044   */\n      add\n        /* \"#utility.yul\":3016:3028   */\n      dup3\n        /* \"#utility.yul\":2982:3045   */\n      tag_79\n      jump\t// in\n    tag_120:\n        /* \"#utility.yul\":2887:3055   */\n      pop\n        /* \"#utility.yul\":3138:3142   */\n      0x40\n        /* \"#utility.yul\":3131:3136   */\n      dup3\n        /* \"#utility.yul\":3127:3143   */\n      add\n        /* \"#utility.yul\":3121:3144   */\n      mload\n        /* \"#utility.yul\":3157:3220   */\n      tag_121\n        /* \"#utility.yul\":3214:3218   */\n      0x40\n        /* \"#utility.yul\":3209:3212   */\n      dup6\n        /* \"#utility.yul\":3205:3219   */\n      add\n        /* \"#utility.yul\":3191:3203   */\n      dup3\n        /* \"#utility.yul\":3157:3220   */\n      tag_79\n      jump\t// in\n    tag_121:\n        /* \"#utility.yul\":3065:3230   */\n      pop\n        /* \"#utility.yul\":2663:3237   */\n      pop\n        /* \"#utility.yul\":2549:3237   */\n      pop\n      pop\n      jump\t// out\n        /* \"#utility.yul\":3243:3538   */\n    tag_81:\n        /* \"#utility.yul\":3370:3380   */\n      0x00\n        /* \"#utility.yul\":3391:3495   */\n      tag_123\n        /* \"#utility.yul\":3491:3494   */\n      dup4\n        /* \"#utility.yul\":3483:3489   */\n      dup4\n        /* \"#utility.yul\":3391:3495   */\n      tag_80\n      jump\t// in\n    tag_123:\n        /* \"#utility.yul\":3527:3531   */\n      0x60\n        /* \"#utility.yul\":3522:3525   */\n      dup4\n        /* \"#utility.yul\":3518:3532   */\n      add\n        /* \"#utility.yul\":3504:3532   */\n      swap1\n      pop\n        /* \"#utility.yul\":3243:3538   */\n      swap3\n      swap2\n      pop\n      pop\n      jump\t// out\n        /* \"#utility.yul\":3544:3686   */\n    tag_82:\n        /* \"#utility.yul\":3643:3647   */\n      0x00\n        /* \"#utility.yul\":3675:3679   */\n      0x20\n        /* \"#utility.yul\":3670:3673   */\n      dup3\n        /* \"#utility.yul\":3666:3680   */\n      add\n        /* \"#utility.yul\":3658:3680   */\n      swap1\n      pop\n        /* \"#utility.yul\":3544:3686   */\n      swap2\n      swap1\n      pop\n      jump\t// out\n        /* \"#utility.yul\":3778:4742   */\n    tag_83:\n        /* \"#utility.yul\":3955:3958   */\n      0x00\n        /* \"#utility.yul\":3984:4067   */\n      tag_126\n        /* \"#utility.yul\":4061:4066   */\n      dup3\n        /* \"#utility.yul\":3984:4067   */\n      tag_76\n      jump\t// in\n    tag_126:\n        /* \"#utility.yul\":4083:4198   */\n      tag_127\n        /* \"#utility.yul\":4191:4197   */\n      dup2\n        /* \"#utility.yul\":4186:4189   */\n      dup6\n        /* \"#utility.yul\":4083:4198   */\n      tag_77\n      jump\t// in\n    tag_127:\n        /* \"#utility.yul\":4076:4198   */\n      swap4\n      pop\n        /* \"#utility.yul\":4222:4307   */\n      tag_128\n        /* \"#utility.yul\":4301:4306   */\n      dup4\n        /* \"#utility.yul\":4222:4307   */\n      tag_78\n      jump\t// in\n    tag_128:\n        /* \"#utility.yul\":4330:4337   */\n      dup1\n        /* \"#utility.yul\":4361:4362   */\n      0x00\n        /* \"#utility.yul\":4346:4717   */\n    tag_129:\n        /* \"#utility.yul\":4371:4377   */\n      dup4\n        /* \"#utility.yul\":4368:4369   */\n      dup2\n        /* \"#utility.yul\":4365:4378   */\n      lt\n        /* \"#utility.yul\":4346:4717   */\n      iszero\n      tag_131\n      jumpi\n        /* \"#utility.yul\":4447:4453   */\n      dup2\n        /* \"#utility.yul\":4441:4454   */\n      mload\n        /* \"#utility.yul\":4474:4595   */\n      tag_132\n        /* \"#utility.yul\":4591:4594   */\n      dup9\n        /* \"#utility.yul\":4576:4589   */\n      dup3\n        /* \"#utility.yul\":4474:4595   */\n      tag_81\n      jump\t// in\n    tag_132:\n        /* \"#utility.yul\":4467:4595   */\n      swap8\n      pop\n        /* \"#utility.yul\":4618:4707   */\n      tag_133\n        /* \"#utility.yul\":4700:4706   */\n      dup4\n        /* \"#utility.yul\":4618:4707   */\n      tag_82\n      jump\t// in\n    tag_133:\n        /* \"#utility.yul\":4608:4707   */\n      swap3\n      pop\n        /* \"#utility.yul\":4406:4717   */\n      pop\n        /* \"#utility.yul\":4393:4394   */\n      0x01\n        /* \"#utility.yul\":4390:4391   */\n      dup2\n        /* \"#utility.yul\":4386:4395   */\n      add\n        /* \"#utility.yul\":4381:4395   */\n      swap1\n      pop\n        /* \"#utility.yul\":4346:4717   */\n      jump(tag_129)\n    tag_131:\n        /* \"#utility.yul\":4350:4364   */\n      pop\n        /* \"#utility.yul\":4733:4736   */\n      dup6\n        /* \"#utility.yul\":4726:4736   */\n      swap4\n      pop\n        /* \"#utility.yul\":3960:4742   */\n      pop\n      pop\n      pop\n        /* \"#utility.yul\":3778:4742   */\n      swap3\n      swap2\n      pop\n      pop\n      jump\t// out\n        /* \"#utility.yul\":4748:5237   */\n    tag_21:\n        /* \"#utility.yul\":4949:4953   */\n      0x00\n        /* \"#utility.yul\":4987:4989   */\n      0x20\n        /* \"#utility.yul\":4976:4985   */\n      dup3\n        /* \"#utility.yul\":4972:4990   */\n      add\n        /* \"#utility.yul\":4964:4990   */\n      swap1\n      pop\n        /* \"#utility.yul\":5036:5045   */\n      dup2\n        /* \"#utility.yul\":5030:5034   */\n      dup2\n        /* \"#utility.yul\":5026:5046   */\n      sub\n        /* \"#utility.yul\":5022:5023   */\n      0x00\n        /* \"#utility.yul\":5011:5020   */\n      dup4\n        /* \"#utility.yul\":5007:5024   */\n      add\n        /* \"#utility.yul\":5000:5047   */\n      mstore\n        /* \"#utility.yul\":5064:5230   */\n      tag_135\n        /* \"#utility.yul\":5225:5229   */\n      dup2\n        /* \"#utility.yul\":5216:5222   */\n      dup5\n        /* \"#utility.yul\":5064:5230   */\n      tag_83\n      jump\t// in\n    tag_135:\n        /* \"#utility.yul\":5056:5230   */\n      swap1\n      pop\n        /* \"#utility.yul\":4748:5237   */\n      swap3\n      swap2\n      pop\n      pop\n      jump\t// out\n        /* \"#utility.yul\":5243:5572   */\n    tag_24:\n        /* \"#utility.yul\":5302:5308   */\n      0x00\n        /* \"#utility.yul\":5351:5353   */\n      0x20\n        /* \"#utility.yul\":5339:5348   */\n      dup3\n        /* \"#utility.yul\":5330:5337   */\n      dup5\n        /* \"#utility.yul\":5326:5349   */\n      sub\n        /* \"#utility.yul\":5322:5354   */\n      slt\n        /* \"#utility.yul\":5319:5438   */\n      iszero\n      tag_137\n      jumpi\n        /* \"#utility.yul\":5357:5436   */\n      tag_138\n      tag_69\n      jump\t// in\n    tag_138:\n        /* \"#utility.yul\":5319:5438   */\n    tag_137:\n        /* \"#utility.yul\":5477:5478   */\n      0x00\n        /* \"#utility.yul\":5502:5555   */\n      tag_139\n        /* \"#utility.yul\":5547:5554   */\n      dup5\n        /* \"#utility.yul\":5538:5544   */\n      dup3\n        /* \"#utility.yul\":5527:5536   */\n      dup6\n        /* \"#utility.yul\":5523:5545   */\n      add\n        /* \"#utility.yul\":5502:5555   */\n      tag_74\n      jump\t// in\n    tag_139:\n        /* \"#utility.yul\":5492:5555   */\n      swap2\n      pop\n        /* \"#utility.yul\":5448:5565   */\n      pop\n        /* \"#utility.yul\":5243:5572   */\n      swap3\n      swap2\n      pop\n      pop\n      jump\t// out\n        /* \"#utility.yul\":5578:5758   */\n    tag_84:\n        /* \"#utility.yul\":5626:5703   */\n      0x4e487b7100000000000000000000000000000000000000000000000000000000\n        /* \"#utility.yul\":5623:5624   */\n      0x00\n        /* \"#utility.yul\":5616:5704   */\n      mstore\n        /* \"#utility.yul\":5723:5727   */\n      0x11\n        /* \"#utility.yul\":5720:5721   */\n      0x04\n        /* \"#utility.yul\":5713:5728   */\n      mstore\n        /* \"#utility.yul\":5747:5751   */\n      0x24\n        /* \"#utility.yul\":5744:5745   */\n      0x00\n        /* \"#utility.yul\":5737:5752   */\n      revert\n        /* \"#utility.yul\":5764:5841   */\n    tag_85:\n        /* \"#utility.yul\":5801:5808   */\n      0x00\n        /* \"#utility.yul\":5830:5835   */\n      dup2\n        /* \"#utility.yul\":5819:5835   */\n      swap1\n      pop\n        /* \"#utility.yul\":5764:5841   */\n      swap2\n      swap1\n      pop\n      jump\t// out\n        /* \"#utility.yul\":5847:6080   */\n    tag_28:\n        /* \"#utility.yul\":5886:5889   */\n      0x00\n        /* \"#utility.yul\":5909:5933   */\n      tag_143\n        /* \"#utility.yul\":5927:5932   */\n      dup3\n        /* \"#utility.yul\":5909:5933   */\n      tag_85\n      jump\t// in\n    tag_143:\n        /* \"#utility.yul\":5900:5933   */\n      swap2\n      pop\n        /* \"#utility.yul\":5955:6021   */\n      0xffffffffffffffffffffffffffffffffffffffffffffffffffffffffffffffff\n        /* \"#utility.yul\":5948:5953   */\n      dup3\n        /* \"#utility.yul\":5945:6022   */\n      sub\n        /* \"#utility.yul\":5942:6045   */\n      tag_144\n      jumpi\n        /* \"#utility.yul\":6025:6043   */\n      tag_145\n      tag_84\n      jump\t// in\n    tag_145:\n        /* \"#utility.yul\":5942:6045   */\n    tag_144:\n        /* \"#utility.yul\":6072:6073   */\n      0x01\n        /* \"#utility.yul\":6065:6070   */\n      dup3\n        /* \"#utility.yul\":6061:6074   */\n      add\n        /* \"#utility.yul\":6054:6074   */\n      swap1\n      pop\n        /* \"#utility.yul\":5847:6080   */\n      swap2\n      swap1\n      pop\n      jump\t// out\n        /* \"#utility.yul\":6086:6266   */\n    tag_40:\n        /* \"#utility.yul\":6134:6211   */\n      0x4e487b7100000000000000000000000000000000000000000000000000000000\n        /* \"#utility.yul\":6131:6132   */\n      0x00\n        /* \"#utility.yul\":6124:6212   */\n      mstore\n        /* \"#utility.yul\":6231:6235   */\n      0x41\n        /* \"#utility.yul\":6228:6229   */\n      0x04\n        /* \"#utility.yul\":6221:6236   */\n      mstore\n        /* \"#utility.yul\":6255:6259   */\n      0x24\n        /* \"#utility.yul\":6252:6253   */\n      0x00\n        /* \"#utility.yul\":6245:6260   */\n      revert\n        /* \"#utility.yul\":6272:6452   */\n    tag_50:\n        /* \"#utility.yul\":6320:6397   */\n      0x4e487b7100000000000000000000000000000000000000000000000000000000\n        /* \"#utility.yul\":6317:6318   */\n      0x00\n        /* \"#utility.yul\":6310:6398   */\n      mstore\n        /* \"#utility.yul\":6417:6421   */\n      0x32\n        /* \"#utility.yul\":6414:6415   */\n      0x04\n        /* \"#utility.yul\":6407:6422   */\n      mstore\n        /* \"#utility.yul\":6441:6445   */\n      0x24\n        /* \"#utility.yul\":6438:6439   */\n      0x00\n        /* \"#utility.yul\":6431:6446   */\n      revert\n        /* \"#utility.yul\":6458:6627   */\n    tag_86:\n        /* \"#utility.yul\":6542:6553   */\n      0x00\n        /* \"#utility.yul\":6576:6582   */\n      dup3\n        /* \"#utility.yul\":6571:6574   */\n      dup3\n        /* \"#utility.yul\":6564:6583   */\n      mstore\n        /* \"#utility.yul\":6616:6620   */\n      0x20\n        /* \"#utility.yul\":6611:6614   */\n      dup3\n        /* \"#utility.yul\":6607:6621   */\n      add\n        /* \"#utility.yul\":6592:6621   */\n      swap1\n      pop\n        /* \"#utility.yul\":6458:6627   */\n      swap3\n      swap2\n      pop\n      pop\n      jump\t// out\n        /* \"#utility.yul\":6633:6858   */\n    tag_87:\n        /* \"#utility.yul\":6773:6807   */\n      0x4f776e61626c653a206e6577206f776e657220697320746865207a65726f2061\n        /* \"#utility.yul\":6769:6770   */\n      0x00\n        /* \"#utility.yul\":6761:6767   */\n      dup3\n        /* \"#utility.yul\":6757:6771   */\n      add\n        /* \"#utility.yul\":6750:6808   */\n      mstore\n        /* \"#utility.yul\":6842:6850   */\n      0x6464726573730000000000000000000000000000000000000000000000000000\n        /* \"#utility.yul\":6837:6839   */\n      0x20\n        /* \"#utility.yul\":6829:6835   */\n      dup3\n        /* \"#utility.yul\":6825:6840   */\n      add\n        /* \"#utility.yul\":6818:6851   */\n      mstore\n        /* \"#utility.yul\":6633:6858   */\n      pop\n      jump\t// out\n        /* \"#utility.yul\":6864:7230   */\n    tag_88:\n        /* \"#utility.yul\":7006:7009   */\n      0x00\n        /* \"#utility.yul\":7027:7094   */\n      tag_151\n        /* \"#utility.yul\":7091:7093   */\n      0x26\n        /* \"#utility.yul\":7086:7089   */\n      dup4\n        /* \"#utility.yul\":7027:7094   */\n      tag_86\n      jump\t// in\n    tag_151:\n        /* \"#utility.yul\":7020:7094   */\n      swap2\n      pop\n        /* \"#utility.yul\":7103:7196   */\n      tag_152\n        /* \"#utility.yul\":7192:7195   */\n      dup3\n        /* \"#utility.yul\":7103:7196   */\n      tag_87\n      jump\t// in\n    tag_152:\n        /* \"#utility.yul\":7221:7223   */\n      0x40\n        /* \"#utility.yul\":7216:7219   */\n      dup3\n        /* \"#utility.yul\":7212:7224   */\n      add\n        /* \"#utility.yul\":7205:7224   */\n      swap1\n      pop\n        /* \"#utility.yul\":6864:7230   */\n      swap2\n      swap1\n      pop\n      jump\t// out\n        /* \"#utility.yul\":7236:7655   */\n    tag_57:\n        /* \"#utility.yul\":7402:7406   */\n      0x00\n        /* \"#utility.yul\":7440:7442   */\n      0x20\n        /* \"#utility.yul\":7429:7438   */\n      dup3\n        /* \"#utility.yul\":7425:7443   */\n      add\n        /* \"#utility.yul\":7417:7443   */\n      swap1\n      pop\n        /* \"#utility.yul\":7489:7498   */\n      dup2\n        /* \"#utility.yul\":7483:7487   */\n      dup2\n        /* \"#utility.yul\":7479:7499   */\n      sub\n        /* \"#utility.yul\":7475:7476   */\n      0x00\n        /* \"#utility.yul\":7464:7473   */\n      dup4\n        /* \"#utility.yul\":7460:7477   */\n      add\n        /* \"#utility.yul\":7453:7500   */\n      mstore\n        /* \"#utility.yul\":7517:7648   */\n      tag_154\n        /* \"#utility.yul\":7643:7647   */\n      dup2\n        /* \"#utility.yul\":7517:7648   */\n      tag_88\n      jump\t// in\n    tag_154:\n        /* \"#utility.yul\":7509:7648   */\n      swap1\n      pop\n        /* \"#utility.yul\":7236:7655   */\n      swap2\n      swap1\n      pop\n      jump\t// out\n        /* \"#utility.yul\":7661:7843   */\n    tag_89:\n        /* \"#utility.yul\":7801:7835   */\n      0x4f776e61626c653a2063616c6c6572206973206e6f7420746865206f776e6572\n        /* \"#utility.yul\":7797:7798   */\n      0x00\n        /* \"#utility.yul\":7789:7795   */\n      dup3\n        /* \"#utility.yul\":7785:7799   */\n      add\n        /* \"#utility.yul\":7778:7836   */\n      mstore\n        /* \"#utility.yul\":7661:7843   */\n      pop\n      jump\t// out\n        /* \"#utility.yul\":7849:8215   */\n    tag_90:\n        /* \"#utility.yul\":7991:7994   */\n      0x00\n        /* \"#utility.yul\":8012:8079   */\n      tag_157\n        /* \"#utility.yul\":8076:8078   */\n      0x20\n        /* \"#utility.yul\":8071:8074   */\n      dup4\n        /* \"#utility.yul\":8012:8079   */\n      tag_86\n      jump\t// in\n    tag_157:\n        /* \"#utility.yul\":8005:8079   */\n      swap2\n      pop\n        /* \"#utility.yul\":8088:8181   */\n      tag_158\n        /* \"#utility.yul\":8177:8180   */\n      dup3\n        /* \"#utility.yul\":8088:8181   */\n      tag_89\n      jump\t// in\n    tag_158:\n        /* \"#utility.yul\":8206:8208   */\n      0x20\n        /* \"#utility.yul\":8201:8204   */\n      dup3\n        /* \"#utility.yul\":8197:8209   */\n      add\n        /* \"#utility.yul\":8190:8209   */\n      swap1\n      pop\n        /* \"#utility.yul\":7849:8215   */\n      swap2\n      swap1\n      pop\n      jump\t// out\n        /* \"#utility.yul\":8221:8640   */\n    tag_65:\n        /* \"#utility.yul\":8387:8391   */\n      0x00\n        /* \"#utility.yul\":8425:8427   */\n      0x20\n        /* \"#utility.yul\":8414:8423   */\n      dup3\n        /* \"#utility.yul\":8410:8428   */\n      add\n        /* \"#utility.yul\":8402:8428   */\n      swap1\n      pop\n        /* \"#utility.yul\":8474:8483   */\n      dup2\n        /* \"#utility.yul\":8468:8472   */\n      dup2\n        /* \"#utility.yul\":8464:8484   */\n      sub\n        /* \"#utility.yul\":8460:8461   */\n      0x00\n        /* \"#utility.yul\":8449:8458   */\n      dup4\n        /* \"#utility.yul\":8445:8462   */\n      add\n        /* \"#utility.yul\":8438:8485   */\n      mstore\n        /* \"#utility.yul\":8502:8633   */\n      tag_160\n        /* \"#utility.yul\":8628:8632   */\n      dup2\n        /* \"#utility.yul\":8502:8633   */\n      tag_90\n      jump\t// in\n    tag_160:\n        /* \"#utility.yul\":8494:8633   */\n      swap1\n      pop\n        /* \"#utility.yul\":8221:8640   */\n      swap2\n      swap1\n      pop\n      jump\t// out\n\n    auxdata: 0xa2646970667358221220587e67835c66599d3a40317afec8b13aed050d06709a5c702b38d1f22b888aee64736f6c63430008110033\n}\n",
				"bytecode": {
					"linkReferences": {},
					"object": "608060405234801561001057600080fd5b5061002d61002261003260201b60201c565b61003a60201b60201c565b6100fe565b600033905090565b60008060009054906101000a900473ffffffffffffffffffffffffffffffffffffffff169050816000806101000a81548173ffffffffffffffffffffffffffffffffffffffff021916908373ffffffffffffffffffffffffffffffffffffffff1602179055508173ffffffffffffffffffffffffffffffffffffffff168173ffffffffffffffffffffffffffffffffffffffff167f8be0079c531659141344cd1fd0a4f28419497f9722a3daafe3b4186f6b6457e060405160405180910390a35050565b610a8f8061010d6000396000f3fe608060405234801561001057600080fd5b50600436106100575760003560e01c80630dab24201461005c578063715018a6146100785780638da5cb5b14610082578063af800e71146100a0578063f2fde38b146100be575b600080fd5b6100766004803603810190610071919061069f565b6100da565b005b610080610213565b005b61008a610227565b6040516100979190610701565b60405180910390f35b6100a8610250565b6040516100b5919061081c565b60405180910390f35b6100d860048036038101906100d3919061083e565b61040c565b005b6000600160008154809291906100ef906108a4565b9190505590506000600260008381526020019081526020016000209050848160000160006101000a81548173ffffffffffffffffffffffffffffffffffffffff021916908373ffffffffffffffffffffffffffffffffffffffff160217905550838160010160006101000a81548173ffffffffffffffffffffffffffffffffffffffff021916908373ffffffffffffffffffffffffffffffffffffffff160217905550828160020160006101000a81548173ffffffffffffffffffffffffffffffffffffffff021916908373ffffffffffffffffffffffffffffffffffffffff1602179055507f5cbe3ce075ecdc55e8142db31e6a441bbf67f93d56fcb05ba3c88db57c7f362d856040516102049190610701565b60405180910390a15050505050565b61021b61048f565b610225600061050d565b565b60008060009054906101000a900473ffffffffffffffffffffffffffffffffffffffff16905090565b606060015467ffffffffffffffff81111561026e5761026d6108ec565b5b6040519080825280602002602001820160405280156102a757816020015b6102946105d9565b81526020019060019003908161028c5790505b50905060005b60015481101561040857600260008281526020019081526020016000206040518060600160405290816000820160009054906101000a900473ffffffffffffffffffffffffffffffffffffffff1673ffffffffffffffffffffffffffffffffffffffff1673ffffffffffffffffffffffffffffffffffffffff1681526020016001820160009054906101000a900473ffffffffffffffffffffffffffffffffffffffff1673ffffffffffffffffffffffffffffffffffffffff1673ffffffffffffffffffffffffffffffffffffffff1681526020016002820160009054906101000a900473ffffffffffffffffffffffffffffffffffffffff1673ffffffffffffffffffffffffffffffffffffffff1673ffffffffffffffffffffffffffffffffffffffff16815250508282815181106103ea576103e961091b565b5b60200260200101819052508080610400906108a4565b9150506102ad565b5090565b61041461048f565b600073ffffffffffffffffffffffffffffffffffffffff168173ffffffffffffffffffffffffffffffffffffffff1603610483576040517f08c379a000000000000000000000000000000000000000000000000000000000815260040161047a906109cd565b60405180910390fd5b61048c8161050d565b50565b6104976105d1565b73ffffffffffffffffffffffffffffffffffffffff166104b5610227565b73ffffffffffffffffffffffffffffffffffffffff161461050b576040517f08c379a000000000000000000000000000000000000000000000000000000000815260040161050290610a39565b60405180910390fd5b565b60008060009054906101000a900473ffffffffffffffffffffffffffffffffffffffff169050816000806101000a81548173ffffffffffffffffffffffffffffffffffffffff021916908373ffffffffffffffffffffffffffffffffffffffff1602179055508173ffffffffffffffffffffffffffffffffffffffff168173ffffffffffffffffffffffffffffffffffffffff167f8be0079c531659141344cd1fd0a4f28419497f9722a3daafe3b4186f6b6457e060405160405180910390a35050565b600033905090565b6040518060600160405280600073ffffffffffffffffffffffffffffffffffffffff168152602001600073ffffffffffffffffffffffffffffffffffffffff168152602001600073ffffffffffffffffffffffffffffffffffffffff1681525090565b600080fd5b600073ffffffffffffffffffffffffffffffffffffffff82169050919050565b600061066c82610641565b9050919050565b61067c81610661565b811461068757600080fd5b50565b60008135905061069981610673565b92915050565b6000806000606084860312156106b8576106b761063c565b5b60006106c68682870161068a565b93505060206106d78682870161068a565b92505060406106e88682870161068a565b9150509250925092565b6106fb81610661565b82525050565b600060208201905061071660008301846106f2565b92915050565b600081519050919050565b600082825260208201905092915050565b6000819050602082019050919050565b61075181610661565b82525050565b60608201600082015161076d6000850182610748565b5060208201516107806020850182610748565b5060408201516107936040850182610748565b50505050565b60006107a58383610757565b60608301905092915050565b6000602082019050919050565b60006107c98261071c565b6107d38185610727565b93506107de83610738565b8060005b8381101561080f5781516107f68882610799565b9750610801836107b1565b9250506001810190506107e2565b5085935050505092915050565b6000602082019050818103600083015261083681846107be565b905092915050565b6000602082840312156108545761085361063c565b5b60006108628482850161068a565b91505092915050565b7f4e487b7100000000000000000000000000000000000000000000000000000000600052601160045260246000fd5b6000819050919050565b60006108af8261089a565b91507fffffffffffffffffffffffffffffffffffffffffffffffffffffffffffffffff82036108e1576108e061086b565b5b600182019050919050565b7f4e487b7100000000000000000000000000000000000000000000000000000000600052604160045260246000fd5b7f4e487b7100000000000000000000000000000000000000000000000000000000600052603260045260246000fd5b600082825260208201905092915050565b7f4f776e61626c653a206e6577206f776e657220697320746865207a65726f206160008201527f6464726573730000000000000000000000000000000000000000000000000000602082015250565b60006109b760268361094a565b91506109c28261095b565b604082019050919050565b600060208201905081810360008301526109e6816109aa565b9050919050565b7f4f776e61626c653a2063616c6c6572206973206e6f7420746865206f776e6572600082015250565b6000610a2360208361094a565b9150610a2e826109ed565b602082019050919050565b60006020820190508181036000830152610a5281610a16565b905091905056fea2646970667358221220587e67835c66599d3a40317afec8b13aed050d06709a5c702b38d1f22b888aee64736f6c63430008110033",
					"opcodes": "PUSH1 0x80 PUSH1 0x40 MSTORE CALLVALUE DUP1 ISZERO PUSH2 0x10 JUMPI PUSH1 0x0 DUP1 REVERT JUMPDEST POP PUSH2 0x2D PUSH2 0x22 PUSH2 0x32 PUSH1 0x20 SHL PUSH1 0x20 SHR JUMP JUMPDEST PUSH2 0x3A PUSH1 0x20 SHL PUSH1 0x20 SHR JUMP JUMPDEST PUSH2 0xFE JUMP JUMPDEST PUSH1 0x0 CALLER SWAP1 POP SWAP1 JUMP JUMPDEST PUSH1 0x0 DUP1 PUSH1 0x0 SWAP1 SLOAD SWAP1 PUSH2 0x100 EXP SWAP1 DIV PUSH20 0xFFFFFFFFFFFFFFFFFFFFFFFFFFFFFFFFFFFFFFFF AND SWAP1 POP DUP2 PUSH1 0x0 DUP1 PUSH2 0x100 EXP DUP2 SLOAD DUP2 PUSH20 0xFFFFFFFFFFFFFFFFFFFFFFFFFFFFFFFFFFFFFFFF MUL NOT AND SWAP1 DUP4 PUSH20 0xFFFFFFFFFFFFFFFFFFFFFFFFFFFFFFFFFFFFFFFF AND MUL OR SWAP1 SSTORE POP DUP2 PUSH20 0xFFFFFFFFFFFFFFFFFFFFFFFFFFFFFFFFFFFFFFFF AND DUP2 PUSH20 0xFFFFFFFFFFFFFFFFFFFFFFFFFFFFFFFFFFFFFFFF AND PUSH32 0x8BE0079C531659141344CD1FD0A4F28419497F9722A3DAAFE3B4186F6B6457E0 PUSH1 0x40 MLOAD PUSH1 0x40 MLOAD DUP1 SWAP2 SUB SWAP1 LOG3 POP POP JUMP JUMPDEST PUSH2 0xA8F DUP1 PUSH2 0x10D PUSH1 0x0 CODECOPY PUSH1 0x0 RETURN INVALID PUSH1 0x80 PUSH1 0x40 MSTORE CALLVALUE DUP1 ISZERO PUSH2 0x10 JUMPI PUSH1 0x0 DUP1 REVERT JUMPDEST POP PUSH1 0x4 CALLDATASIZE LT PUSH2 0x57 JUMPI PUSH1 0x0 CALLDATALOAD PUSH1 0xE0 SHR DUP1 PUSH4 0xDAB2420 EQ PUSH2 0x5C JUMPI DUP1 PUSH4 0x715018A6 EQ PUSH2 0x78 JUMPI DUP1 PUSH4 0x8DA5CB5B EQ PUSH2 0x82 JUMPI DUP1 PUSH4 0xAF800E71 EQ PUSH2 0xA0 JUMPI DUP1 PUSH4 0xF2FDE38B EQ PUSH2 0xBE JUMPI JUMPDEST PUSH1 0x0 DUP1 REVERT JUMPDEST PUSH2 0x76 PUSH1 0x4 DUP1 CALLDATASIZE SUB DUP2 ADD SWAP1 PUSH2 0x71 SWAP2 SWAP1 PUSH2 0x69F JUMP JUMPDEST PUSH2 0xDA JUMP JUMPDEST STOP JUMPDEST PUSH2 0x80 PUSH2 0x213 JUMP JUMPDEST STOP JUMPDEST PUSH2 0x8A PUSH2 0x227 JUMP JUMPDEST PUSH1 0x40 MLOAD PUSH2 0x97 SWAP2 SWAP1 PUSH2 0x701 JUMP JUMPDEST PUSH1 0x40 MLOAD DUP1 SWAP2 SUB SWAP1 RETURN JUMPDEST PUSH2 0xA8 PUSH2 0x250 JUMP JUMPDEST PUSH1 0x40 MLOAD PUSH2 0xB5 SWAP2 SWAP1 PUSH2 0x81C JUMP JUMPDEST PUSH1 0x40 MLOAD DUP1 SWAP2 SUB SWAP1 RETURN JUMPDEST PUSH2 0xD8 PUSH1 0x4 DUP1 CALLDATASIZE SUB DUP2 ADD SWAP1 PUSH2 0xD3 SWAP2 SWAP1 PUSH2 0x83E JUMP JUMPDEST PUSH2 0x40C JUMP JUMPDEST STOP JUMPDEST PUSH1 0x0 PUSH1 0x1 PUSH1 0x0 DUP2 SLOAD DUP1 SWAP3 SWAP2 SWAP1 PUSH2 0xEF SWAP1 PUSH2 0x8A4 JUMP JUMPDEST SWAP2 SWAP1 POP SSTORE SWAP1 POP PUSH1 0x0 PUSH1 0x2 PUSH1 0x0 DUP4 DUP2 MSTORE PUSH1 0x20 ADD SWAP1 DUP2 MSTORE PUSH1 0x20 ADD PUSH1 0x0 KECCAK256 SWAP1 POP DUP5 DUP2 PUSH1 0x0 ADD PUSH1 0x0 PUSH2 0x100 EXP DUP2 SLOAD DUP2 PUSH20 0xFFFFFFFFFFFFFFFFFFFFFFFFFFFFFFFFFFFFFFFF MUL NOT AND SWAP1 DUP4 PUSH20 0xFFFFFFFFFFFFFFFFFFFFFFFFFFFFFFFFFFFFFFFF AND MUL OR SWAP1 SSTORE POP DUP4 DUP2 PUSH1 0x1 ADD PUSH1 0x0 PUSH2 0x100 EXP DUP2 SLOAD DUP2 PUSH20 0xFFFFFFFFFFFFFFFFFFFFFFFFFFFFFFFFFFFFFFFF MUL NOT AND SWAP1 DUP4 PUSH20 0xFFFFFFFFFFFFFFFFFFFFFFFFFFFFFFFFFFFFFFFF AND MUL OR SWAP1 SSTORE POP DUP3 DUP2 PUSH1 0x2 ADD PUSH1 0x0 PUSH2 0x100 EXP DUP2 SLOAD DUP2 PUSH20 0xFFFFFFFFFFFFFFFFFFFFFFFFFFFFFFFFFFFFFFFF MUL NOT AND SWAP1 DUP4 PUSH20 0xFFFFFFFFFFFFFFFFFFFFFFFFFFFFFFFFFFFFFFFF AND MUL OR SWAP1 SSTORE POP PUSH32 0x5CBE3CE075ECDC55E8142DB31E6A441BBF67F93D56FCB05BA3C88DB57C7F362D DUP6 PUSH1 0x40 MLOAD PUSH2 0x204 SWAP2 SWAP1 PUSH2 0x701 JUMP JUMPDEST PUSH1 0x40 MLOAD DUP1 SWAP2 SUB SWAP1 LOG1 POP POP POP POP POP JUMP JUMPDEST PUSH2 0x21B PUSH2 0x48F JUMP JUMPDEST PUSH2 0x225 PUSH1 0x0 PUSH2 0x50D JUMP JUMPDEST JUMP JUMPDEST PUSH1 0x0 DUP1 PUSH1 0x0 SWAP1 SLOAD SWAP1 PUSH2 0x100 EXP SWAP1 DIV PUSH20 0xFFFFFFFFFFFFFFFFFFFFFFFFFFFFFFFFFFFFFFFF AND SWAP1 POP SWAP1 JUMP JUMPDEST PUSH1 0x60 PUSH1 0x1 SLOAD PUSH8 0xFFFFFFFFFFFFFFFF DUP2 GT ISZERO PUSH2 0x26E JUMPI PUSH2 0x26D PUSH2 0x8EC JUMP JUMPDEST JUMPDEST PUSH1 0x40 MLOAD SWAP1 DUP1 DUP3 MSTORE DUP1 PUSH1 0x20 MUL PUSH1 0x20 ADD DUP3 ADD PUSH1 0x40 MSTORE DUP1 ISZERO PUSH2 0x2A7 JUMPI DUP2 PUSH1 0x20 ADD JUMPDEST PUSH2 0x294 PUSH2 0x5D9 JUMP JUMPDEST DUP2 MSTORE PUSH1 0x20 ADD SWAP1 PUSH1 0x1 SWAP1 SUB SWAP1 DUP2 PUSH2 0x28C JUMPI SWAP1 POP JUMPDEST POP SWAP1 POP PUSH1 0x0 JUMPDEST PUSH1 0x1 SLOAD DUP2 LT ISZERO PUSH2 0x408 JUMPI PUSH1 0x2 PUSH1 0x0 DUP3 DUP2 MSTORE PUSH1 0x20 ADD SWAP1 DUP2 MSTORE PUSH1 0x20 ADD PUSH1 0x0 KECCAK256 PUSH1 0x40 MLOAD DUP1 PUSH1 0x60 ADD PUSH1 0x40 MSTORE SWAP1 DUP2 PUSH1 0x0 DUP3 ADD PUSH1 0x0 SWAP1 SLOAD SWAP1 PUSH2 0x100 EXP SWAP1 DIV PUSH20 0xFFFFFFFFFFFFFFFFFFFFFFFFFFFFFFFFFFFFFFFF AND PUSH20 0xFFFFFFFFFFFFFFFFFFFFFFFFFFFFFFFFFFFFFFFF AND PUSH20 0xFFFFFFFFFFFFFFFFFFFFFFFFFFFFFFFFFFFFFFFF AND DUP2 MSTORE PUSH1 0x20 ADD PUSH1 0x1 DUP3 ADD PUSH1 0x0 SWAP1 SLOAD SWAP1 PUSH2 0x100 EXP SWAP1 DIV PUSH20 0xFFFFFFFFFFFFFFFFFFFFFFFFFFFFFFFFFFFFFFFF AND PUSH20 0xFFFFFFFFFFFFFFFFFFFFFFFFFFFFFFFFFFFFFFFF AND PUSH20 0xFFFFFFFFFFFFFFFFFFFFFFFFFFFFFFFFFFFFFFFF AND DUP2 MSTORE PUSH1 0x20 ADD PUSH1 0x2 DUP3 ADD PUSH1 0x0 SWAP1 SLOAD SWAP1 PUSH2 0x100 EXP SWAP1 DIV PUSH20 0xFFFFFFFFFFFFFFFFFFFFFFFFFFFFFFFFFFFFFFFF AND PUSH20 0xFFFFFFFFFFFFFFFFFFFFFFFFFFFFFFFFFFFFFFFF AND PUSH20 0xFFFFFFFFFFFFFFFFFFFFFFFFFFFFFFFFFFFFFFFF AND DUP2 MSTORE POP POP DUP3 DUP3 DUP2 MLOAD DUP2 LT PUSH2 0x3EA JUMPI PUSH2 0x3E9 PUSH2 0x91B JUMP JUMPDEST JUMPDEST PUSH1 0x20 MUL PUSH1 0x20 ADD ADD DUP2 SWAP1 MSTORE POP DUP1 DUP1 PUSH2 0x400 SWAP1 PUSH2 0x8A4 JUMP JUMPDEST SWAP2 POP POP PUSH2 0x2AD JUMP JUMPDEST POP SWAP1 JUMP JUMPDEST PUSH2 0x414 PUSH2 0x48F JUMP JUMPDEST PUSH1 0x0 PUSH20 0xFFFFFFFFFFFFFFFFFFFFFFFFFFFFFFFFFFFFFFFF AND DUP2 PUSH20 0xFFFFFFFFFFFFFFFFFFFFFFFFFFFFFFFFFFFFFFFF AND SUB PUSH2 0x483 JUMPI PUSH1 0x40 MLOAD PUSH32 0x8C379A000000000000000000000000000000000000000000000000000000000 DUP2 MSTORE PUSH1 0x4 ADD PUSH2 0x47A SWAP1 PUSH2 0x9CD JUMP JUMPDEST PUSH1 0x40 MLOAD DUP1 SWAP2 SUB SWAP1 REVERT JUMPDEST PUSH2 0x48C DUP2 PUSH2 0x50D JUMP JUMPDEST POP JUMP JUMPDEST PUSH2 0x497 PUSH2 0x5D1 JUMP JUMPDEST PUSH20 0xFFFFFFFFFFFFFFFFFFFFFFFFFFFFFFFFFFFFFFFF AND PUSH2 0x4B5 PUSH2 0x227 JUMP JUMPDEST PUSH20 0xFFFFFFFFFFFFFFFFFFFFFFFFFFFFFFFFFFFFFFFF AND EQ PUSH2 0x50B JUMPI PUSH1 0x40 MLOAD PUSH32 0x8C379A000000000000000000000000000000000000000000000000000000000 DUP2 MSTORE PUSH1 0x4 ADD PUSH2 0x502 SWAP1 PUSH2 0xA39 JUMP JUMPDEST PUSH1 0x40 MLOAD DUP1 SWAP2 SUB SWAP1 REVERT JUMPDEST JUMP JUMPDEST PUSH1 0x0 DUP1 PUSH1 0x0 SWAP1 SLOAD SWAP1 PUSH2 0x100 EXP SWAP1 DIV PUSH20 0xFFFFFFFFFFFFFFFFFFFFFFFFFFFFFFFFFFFFFFFF AND SWAP1 POP DUP2 PUSH1 0x0 DUP1 PUSH2 0x100 EXP DUP2 SLOAD DUP2 PUSH20 0xFFFFFFFFFFFFFFFFFFFFFFFFFFFFFFFFFFFFFFFF MUL NOT AND SWAP1 DUP4 PUSH20 0xFFFFFFFFFFFFFFFFFFFFFFFFFFFFFFFFFFFFFFFF AND MUL OR SWAP1 SSTORE POP DUP2 PUSH20 0xFFFFFFFFFFFFFFFFFFFFFFFFFFFFFFFFFFFFFFFF AND DUP2 PUSH20 0xFFFFFFFFFFFFFFFFFFFFFFFFFFFFFFFFFFFFFFFF AND PUSH32 0x8BE0079C531659141344CD1FD0A4F28419497F9722A3DAAFE3B4186F6B6457E0 PUSH1 0x40 MLOAD PUSH1 0x40 MLOAD DUP1 SWAP2 SUB SWAP1 LOG3 POP POP JUMP JUMPDEST PUSH1 0x0 CALLER SWAP1 POP SWAP1 JUMP JUMPDEST PUSH1 0x40 MLOAD DUP1 PUSH1 0x60 ADD PUSH1 0x40 MSTORE DUP1 PUSH1 0x0 PUSH20 0xFFFFFFFFFFFFFFFFFFFFFFFFFFFFFFFFFFFFFFFF AND DUP2 MSTORE PUSH1 0x20 ADD PUSH1 0x0 PUSH20 0xFFFFFFFFFFFFFFFFFFFFFFFFFFFFFFFFFFFFFFFF AND DUP2 MSTORE PUSH1 0x20 ADD PUSH1 0x0 PUSH20 0xFFFFFFFFFFFFFFFFFFFFFFFFFFFFFFFFFFFFFFFF AND DUP2 MSTORE POP SWAP1 JUMP JUMPDEST PUSH1 0x0 DUP1 REVERT JUMPDEST PUSH1 0x0 PUSH20 0xFFFFFFFFFFFFFFFFFFFFFFFFFFFFFFFFFFFFFFFF DUP3 AND SWAP1 POP SWAP2 SWAP1 POP JUMP JUMPDEST PUSH1 0x0 PUSH2 0x66C DUP3 PUSH2 0x641 JUMP JUMPDEST SWAP1 POP SWAP2 SWAP1 POP JUMP JUMPDEST PUSH2 0x67C DUP2 PUSH2 0x661 JUMP JUMPDEST DUP2 EQ PUSH2 0x687 JUMPI PUSH1 0x0 DUP1 REVERT JUMPDEST POP JUMP JUMPDEST PUSH1 0x0 DUP2 CALLDATALOAD SWAP1 POP PUSH2 0x699 DUP2 PUSH2 0x673 JUMP JUMPDEST SWAP3 SWAP2 POP POP JUMP JUMPDEST PUSH1 0x0 DUP1 PUSH1 0x0 PUSH1 0x60 DUP5 DUP7 SUB SLT ISZERO PUSH2 0x6B8 JUMPI PUSH2 0x6B7 PUSH2 0x63C JUMP JUMPDEST JUMPDEST PUSH1 0x0 PUSH2 0x6C6 DUP7 DUP3 DUP8 ADD PUSH2 0x68A JUMP JUMPDEST SWAP4 POP POP PUSH1 0x20 PUSH2 0x6D7 DUP7 DUP3 DUP8 ADD PUSH2 0x68A JUMP JUMPDEST SWAP3 POP POP PUSH1 0x40 PUSH2 0x6E8 DUP7 DUP3 DUP8 ADD PUSH2 0x68A JUMP JUMPDEST SWAP2 POP POP SWAP3 POP SWAP3 POP SWAP3 JUMP JUMPDEST PUSH2 0x6FB DUP2 PUSH2 0x661 JUMP JUMPDEST DUP3 MSTORE POP POP JUMP JUMPDEST PUSH1 0x0 PUSH1 0x20 DUP3 ADD SWAP1 POP PUSH2 0x716 PUSH1 0x0 DUP4 ADD DUP5 PUSH2 0x6F2 JUMP JUMPDEST SWAP3 SWAP2 POP POP JUMP JUMPDEST PUSH1 0x0 DUP2 MLOAD SWAP1 POP SWAP2 SWAP1 POP JUMP JUMPDEST PUSH1 0x0 DUP3 DUP3 MSTORE PUSH1 0x20 DUP3 ADD SWAP1 POP SWAP3 SWAP2 POP POP JUMP JUMPDEST PUSH1 0x0 DUP2 SWAP1 POP PUSH1 0x20 DUP3 ADD SWAP1 POP SWAP2 SWAP1 POP JUMP JUMPDEST PUSH2 0x751 DUP2 PUSH2 0x661 JUMP JUMPDEST DUP3 MSTORE POP POP JUMP JUMPDEST PUSH1 0x60 DUP3 ADD PUSH1 0x0 DUP3 ADD MLOAD PUSH2 0x76D PUSH1 0x0 DUP6 ADD DUP3 PUSH2 0x748 JUMP JUMPDEST POP PUSH1 0x20 DUP3 ADD MLOAD PUSH2 0x780 PUSH1 0x20 DUP6 ADD DUP3 PUSH2 0x748 JUMP JUMPDEST POP PUSH1 0x40 DUP3 ADD MLOAD PUSH2 0x793 PUSH1 0x40 DUP6 ADD DUP3 PUSH2 0x748 JUMP JUMPDEST POP POP POP POP JUMP JUMPDEST PUSH1 0x0 PUSH2 0x7A5 DUP4 DUP4 PUSH2 0x757 JUMP JUMPDEST PUSH1 0x60 DUP4 ADD SWAP1 POP SWAP3 SWAP2 POP POP JUMP JUMPDEST PUSH1 0x0 PUSH1 0x20 DUP3 ADD SWAP1 POP SWAP2 SWAP1 POP JUMP JUMPDEST PUSH1 0x0 PUSH2 0x7C9 DUP3 PUSH2 0x71C JUMP JUMPDEST PUSH2 0x7D3 DUP2 DUP6 PUSH2 0x727 JUMP JUMPDEST SWAP4 POP PUSH2 0x7DE DUP4 PUSH2 0x738 JUMP JUMPDEST DUP1 PUSH1 0x0 JUMPDEST DUP4 DUP2 LT ISZERO PUSH2 0x80F JUMPI DUP2 MLOAD PUSH2 0x7F6 DUP9 DUP3 PUSH2 0x799 JUMP JUMPDEST SWAP8 POP PUSH2 0x801 DUP4 PUSH2 0x7B1 JUMP JUMPDEST SWAP3 POP POP PUSH1 0x1 DUP2 ADD SWAP1 POP PUSH2 0x7E2 JUMP JUMPDEST POP DUP6 SWAP4 POP POP POP POP SWAP3 SWAP2 POP POP JUMP JUMPDEST PUSH1 0x0 PUSH1 0x20 DUP3 ADD SWAP1 POP DUP2 DUP2 SUB PUSH1 0x0 DUP4 ADD MSTORE PUSH2 0x836 DUP2 DUP5 PUSH2 0x7BE JUMP JUMPDEST SWAP1 POP SWAP3 SWAP2 POP POP JUMP JUMPDEST PUSH1 0x0 PUSH1 0x20 DUP3 DUP5 SUB SLT ISZERO PUSH2 0x854 JUMPI PUSH2 0x853 PUSH2 0x63C JUMP JUMPDEST JUMPDEST PUSH1 0x0 PUSH2 0x862 DUP5 DUP3 DUP6 ADD PUSH2 0x68A JUMP JUMPDEST SWAP2 POP POP SWAP3 SWAP2 POP POP JUMP JUMPDEST PUSH32 0x4E487B7100000000000000000000000000000000000000000000000000000000 PUSH1 0x0 MSTORE PUSH1 0x11 PUSH1 0x4 MSTORE PUSH1 0x24 PUSH1 0x0 REVERT JUMPDEST PUSH1 0x0 DUP2 SWAP1 POP SWAP2 SWAP1 POP JUMP JUMPDEST PUSH1 0x0 PUSH2 0x8AF DUP3 PUSH2 0x89A JUMP JUMPDEST SWAP2 POP PUSH32 0xFFFFFFFFFFFFFFFFFFFFFFFFFFFFFFFFFFFFFFFFFFFFFFFFFFFFFFFFFFFFFFFF DUP3 SUB PUSH2 0x8E1 JUMPI PUSH2 0x8E0 PUSH2 0x86B JUMP JUMPDEST JUMPDEST PUSH1 0x1 DUP3 ADD SWAP1 POP SWAP2 SWAP1 POP JUMP JUMPDEST PUSH32 0x4E487B7100000000000000000000000000000000000000000000000000000000 PUSH1 0x0 MSTORE PUSH1 0x41 PUSH1 0x4 MSTORE PUSH1 0x24 PUSH1 0x0 REVERT JUMPDEST PUSH32 0x4E487B7100000000000000000000000000000000000000000000000000000000 PUSH1 0x0 MSTORE PUSH1 0x32 PUSH1 0x4 MSTORE PUSH1 0x24 PUSH1 0x0 REVERT JUMPDEST PUSH1 0x0 DUP3 DUP3 MSTORE PUSH1 0x20 DUP3 ADD SWAP1 POP SWAP3 SWAP2 POP POP JUMP JUMPDEST PUSH32 0x4F776E61626C653A206E6577206F776E657220697320746865207A65726F2061 PUSH1 0x0 DUP3 ADD MSTORE PUSH32 0x6464726573730000000000000000000000000000000000000000000000000000 PUSH1 0x20 DUP3 ADD MSTORE POP JUMP JUMPDEST PUSH1 0x0 PUSH2 0x9B7 PUSH1 0x26 DUP4 PUSH2 0x94A JUMP JUMPDEST SWAP2 POP PUSH2 0x9C2 DUP3 PUSH2 0x95B JUMP JUMPDEST PUSH1 0x40 DUP3 ADD SWAP1 POP SWAP2 SWAP1 POP JUMP JUMPDEST PUSH1 0x0 PUSH1 0x20 DUP3 ADD SWAP1 POP DUP2 DUP2 SUB PUSH1 0x0 DUP4 ADD MSTORE PUSH2 0x9E6 DUP2 PUSH2 0x9AA JUMP JUMPDEST SWAP1 POP SWAP2 SWAP1 POP JUMP JUMPDEST PUSH32 0x4F776E61626C653A2063616C6C6572206973206E6F7420746865206F776E6572 PUSH1 0x0 DUP3 ADD MSTORE POP JUMP JUMPDEST PUSH1 0x0 PUSH2 0xA23 PUSH1 0x20 DUP4 PUSH2 0x94A JUMP JUMPDEST SWAP2 POP PUSH2 0xA2E DUP3 PUSH2 0x9ED JUMP JUMPDEST PUSH1 0x20 DUP3 ADD SWAP1 POP SWAP2 SWAP1 POP JUMP JUMPDEST PUSH1 0x0 PUSH1 0x20 DUP3 ADD SWAP1 POP DUP2 DUP2 SUB PUSH1 0x0 DUP4 ADD MSTORE PUSH2 0xA52 DUP2 PUSH2 0xA16 JUMP JUMPDEST SWAP1 POP SWAP2 SWAP1 POP JUMP INVALID LOG2 PUSH5 0x6970667358 0x22 SLT KECCAK256 PC PUSH31 0x67835C66599D3A40317AFEC8B13AED050D06709A5C702B38D1F22B888AEE64 PUSH20 0x6F6C634300081100330000000000000000000000 "
				},
				"gasEstimates": {
					"creation": {
						"codeDepositCost": "540600",
						"executionCost": "infinite",
						"totalCost": "infinite"
					},
					"external": {
						"addGovernorAddress(address,address,address)": "infinite",
						"getAllDeployedGovernor()": "infinite",
						"owner()": "2544",
						"renounceOwnership()": "30398",
						"transferOwnership(address)": "30810"
					}
				},
				"methodIdentifiers": {
					"addGovernorAddress(address,address,address)": "0dab2420",
					"getAllDeployedGovernor()": "af800e71",
					"owner()": "8da5cb5b",
					"renounceOwnership()": "715018a6",
					"transferOwnership(address)": "f2fde38b"
				}
			},
			"storageLayout": {
				"storage": [
					{
						"astId": 7,
						"contract": "contracts/GovernorFactory.sol:GovernorFactory",
						"label": "_owner",
						"offset": 0,
						"slot": "0",
						"type": "t_address"
					},
					{
						"astId": 141,
						"contract": "contracts/GovernorFactory.sol:GovernorFactory",
						"label": "numOfGovernors",
						"offset": 0,
						"slot": "1",
						"type": "t_uint256"
					},
					{
						"astId": 153,
						"contract": "contracts/GovernorFactory.sol:GovernorFactory",
						"label": "deployedContracts",
						"offset": 0,
						"slot": "2",
						"type": "t_mapping(t_uint256,t_struct(GovernorMeta)148_storage)"
					}
				],
				"types": {
					"t_address": {
						"encoding": "inplace",
						"label": "address",
						"numberOfBytes": "20"
					},
					"t_mapping(t_uint256,t_struct(GovernorMeta)148_storage)": {
						"encoding": "mapping",
						"key": "t_uint256",
						"label": "mapping(uint256 => struct GovernorFactory.GovernorMeta)",
						"numberOfBytes": "32",
						"value": "t_struct(GovernorMeta)148_storage"
					},
					"t_struct(GovernorMeta)148_storage": {
						"encoding": "inplace",
						"label": "struct GovernorFactory.GovernorMeta",
						"members": [
							{
								"astId": 143,
								"contract": "contracts/GovernorFactory.sol:GovernorFactory",
								"label": "governor",
								"offset": 0,
								"slot": "0",
								"type": "t_address"
							},
							{
								"astId": 145,
								"contract": "contracts/GovernorFactory.sol:GovernorFactory",
								"label": "timelock",
								"offset": 0,
								"slot": "1",
								"type": "t_address"
							},
							{
								"astId": 147,
								"contract": "contracts/GovernorFactory.sol:GovernorFactory",
								"label": "token",
								"offset": 0,
								"slot": "2",
								"type": "t_address"
							}
						],
						"numberOfBytes": "96"
					},
					"t_uint256": {
						"encoding": "inplace",
						"label": "uint256",
						"numberOfBytes": "32"
					}
				}
			},
			"userdoc": {
				"kind": "user",
				"methods": {},
				"version": 1
			}
		}
	}
}