{
	"contracts/CrowdsaleFactory.sol": {
		"CrowdsaleFactory": {
			"abi": [
				{
					"anonymous": false,
					"inputs": [
						{
							"indexed": true,
							"internalType": "address",
							"name": "previousOwner",
							"type": "address"
						},
						{
							"indexed": true,
							"internalType": "address",
							"name": "newOwner",
							"type": "address"
						}
					],
					"name": "OwnershipTransferred",
					"type": "event"
				},
				{
					"anonymous": false,
					"inputs": [
						{
							"indexed": false,
							"internalType": "address",
							"name": "crowdsaleContract",
							"type": "address"
						}
					],
					"name": "newCrowdSaleCreatedAt",
					"type": "event"
				},
				{
					"inputs": [
						{
							"internalType": "uint256",
							"name": "_rate",
							"type": "uint256"
						},
						{
							"internalType": "address",
							"name": "_wallet",
							"type": "address"
						},
						{
							"internalType": "contract ERC20",
							"name": "_token",
							"type": "address"
						}
					],
					"name": "createCrowdSale",
					"outputs": [],
					"stateMutability": "nonpayable",
					"type": "function"
				},
				{
					"inputs": [],
					"name": "getAllDeployedProjects",
					"outputs": [
						{
							"components": [
								{
									"internalType": "contract ERC20",
									"name": "token",
									"type": "address"
								},
								{
									"internalType": "uint256",
									"name": "rate",
									"type": "uint256"
								},
								{
									"internalType": "address",
									"name": "beneficiaryAddr",
									"type": "address"
								},
								{
									"internalType": "address",
									"name": "crowdsaleContractAddr",
									"type": "address"
								}
							],
							"internalType": "struct CrowdsaleFactory.crowdsaleMeta[]",
							"name": "props",
							"type": "tuple[]"
						}
					],
					"stateMutability": "view",
					"type": "function"
				},
				{
					"inputs": [],
					"name": "owner",
					"outputs": [
						{
							"internalType": "address",
							"name": "",
							"type": "address"
						}
					],
					"stateMutability": "view",
					"type": "function"
				},
				{
					"inputs": [],
					"name": "renounceOwnership",
					"outputs": [],
					"stateMutability": "nonpayable",
					"type": "function"
				},
				{
					"inputs": [
						{
							"internalType": "address",
							"name": "newOwner",
							"type": "address"
						}
					],
					"name": "transferOwnership",
					"outputs": [],
					"stateMutability": "nonpayable",
					"type": "function"
				}
			],
			"devdoc": {
				"kind": "dev",
				"methods": {
					"owner()": {
						"details": "Returns the address of the current owner."
					},
					"renounceOwnership()": {
						"details": "Leaves the contract without owner. It will not be possible to call `onlyOwner` functions anymore. Can only be called by the current owner. NOTE: Renouncing ownership will leave the contract without an owner, thereby removing any functionality that is only available to the owner."
					},
					"transferOwnership(address)": {
						"details": "Transfers ownership of the contract to a new account (`newOwner`). Can only be called by the current owner."
					}
				},
				"version": 1
			},
			"evm": {
				"assembly": "    /* \"contracts/CrowdsaleFactory.sol\":141:1432  contract CrowdsaleFactory is Ownable{... */\n  mstore(0x40, 0x80)\n  callvalue\n  dup1\n  iszero\n  tag_1\n  jumpi\n  0x00\n  dup1\n  revert\ntag_1:\n  pop\n    /* \"@openzeppelin/contracts/access/Ownable.sol\":936:968  _transferOwnership(_msgSender()) */\n  tag_4\n    /* \"@openzeppelin/contracts/utils/Context.sol\":719:729  msg.sender */\n  caller\n    /* \"@openzeppelin/contracts/access/Ownable.sol\":936:954  _transferOwnership */\n  tag_7\n    /* \"@openzeppelin/contracts/access/Ownable.sol\":936:968  _transferOwnership(_msgSender()) */\n  jump\t// in\ntag_4:\n    /* \"contracts/CrowdsaleFactory.sol\":141:1432  contract CrowdsaleFactory is Ownable{... */\n  jump(tag_8)\n    /* \"@openzeppelin/contracts/access/Ownable.sol\":2433:2620  function _transferOwnership(address newOwner) internal virtual {... */\ntag_7:\n    /* \"@openzeppelin/contracts/access/Ownable.sol\":2506:2522  address oldOwner */\n  0x00\n    /* \"@openzeppelin/contracts/access/Ownable.sol\":2525:2531  _owner */\n  dup1\n  sload\n  sub(shl(0xa0, 0x01), 0x01)\n    /* \"@openzeppelin/contracts/access/Ownable.sol\":2541:2558  _owner = newOwner */\n  dup4\n  dup2\n  and\n  not(sub(shl(0xa0, 0x01), 0x01))\n  dup4\n  and\n  dup2\n  or\n  dup5\n  sstore\n    /* \"@openzeppelin/contracts/access/Ownable.sol\":2573:2613  OwnershipTransferred(oldOwner, newOwner) */\n  mload(0x40)\n    /* \"@openzeppelin/contracts/access/Ownable.sol\":2525:2531  _owner */\n  swap2\n  swap1\n  swap3\n  and\n  swap3\n  dup4\n  swap2\n    /* \"@openzeppelin/contracts/access/Ownable.sol\":2573:2613  OwnershipTransferred(oldOwner, newOwner) */\n  0x8be0079c531659141344cd1fd0a4f28419497f9722a3daafe3b4186f6b6457e0\n  swap2\n    /* \"@openzeppelin/contracts/access/Ownable.sol\":2506:2522  address oldOwner */\n  swap1\n    /* \"@openzeppelin/contracts/access/Ownable.sol\":2573:2613  OwnershipTransferred(oldOwner, newOwner) */\n  log3\n    /* \"@openzeppelin/contracts/access/Ownable.sol\":2496:2620  {... */\n  pop\n    /* \"@openzeppelin/contracts/access/Ownable.sol\":2433:2620  function _transferOwnership(address newOwner) internal virtual {... */\n  pop\n  jump\t// out\n    /* \"contracts/CrowdsaleFactory.sol\":141:1432  contract CrowdsaleFactory is Ownable{... */\ntag_8:\n  dataSize(sub_0)\n  dup1\n  dataOffset(sub_0)\n  0x00\n  codecopy\n  0x00\n  return\nstop\n\nsub_0: assembly {\n        /* \"contracts/CrowdsaleFactory.sol\":141:1432  contract CrowdsaleFactory is Ownable{... */\n      mstore(0x40, 0x80)\n      callvalue\n      dup1\n      iszero\n      tag_1\n      jumpi\n      0x00\n      dup1\n      revert\n    tag_1:\n      pop\n      jumpi(tag_2, lt(calldatasize, 0x04))\n      shr(0xe0, calldataload(0x00))\n      dup1\n      0x715018a6\n      eq\n      tag_3\n      jumpi\n      dup1\n      0x8da5cb5b\n      eq\n      tag_4\n      jumpi\n      dup1\n      0xee323eca\n      eq\n      tag_5\n      jumpi\n      dup1\n      0xf0e24a40\n      eq\n      tag_6\n      jumpi\n      dup1\n      0xf2fde38b\n      eq\n      tag_7\n      jumpi\n    tag_2:\n      0x00\n      dup1\n      revert\n        /* \"@openzeppelin/contracts/access/Ownable.sol\":1831:1932  function renounceOwnership() public virtual onlyOwner {... */\n    tag_3:\n      tag_8\n      tag_9\n      jump\t// in\n    tag_8:\n      stop\n        /* \"@openzeppelin/contracts/access/Ownable.sol\":1201:1286  function owner() public view virtual returns (address) {... */\n    tag_4:\n        /* \"@openzeppelin/contracts/access/Ownable.sol\":1247:1254  address */\n      0x00\n        /* \"@openzeppelin/contracts/access/Ownable.sol\":1273:1279  _owner */\n      sload\n        /* \"@openzeppelin/contracts/access/Ownable.sol\":1201:1286  function owner() public view virtual returns (address) {... */\n      mload(0x40)\n      sub(shl(0xa0, 0x01), 0x01)\n        /* \"@openzeppelin/contracts/access/Ownable.sol\":1273:1279  _owner */\n      swap1\n      swap2\n      and\n        /* \"#utility.yul\":886:937   */\n      dup2\n      mstore\n        /* \"#utility.yul\":874:876   */\n      0x20\n        /* \"#utility.yul\":859:877   */\n      add\n        /* \"@openzeppelin/contracts/access/Ownable.sol\":1201:1286  function owner() public view virtual returns (address) {... */\n    tag_12:\n      mload(0x40)\n      dup1\n      swap2\n      sub\n      swap1\n      return\n        /* \"contracts/CrowdsaleFactory.sol\":589:1106  function createCrowdSale(uint256 _rate, address _wallet, ERC20 _token) public {... */\n    tag_5:\n      tag_8\n      tag_15\n      calldatasize\n      0x04\n      tag_16\n      jump\t// in\n    tag_15:\n      tag_17\n      jump\t// in\n        /* \"contracts/CrowdsaleFactory.sol\":1112:1429  function getAllDeployedProjects () public view returns (crowdsaleMeta[] memory props){... */\n    tag_6:\n      tag_18\n      tag_19\n      jump\t// in\n    tag_18:\n      mload(0x40)\n      tag_12\n      swap2\n      swap1\n      tag_21\n      jump\t// in\n        /* \"@openzeppelin/contracts/access/Ownable.sol\":2081:2279  function transferOwnership(address newOwner) public virtual onlyOwner {... */\n    tag_7:\n      tag_8\n      tag_23\n      calldatasize\n      0x04\n      tag_24\n      jump\t// in\n    tag_23:\n      tag_25\n      jump\t// in\n        /* \"@openzeppelin/contracts/access/Ownable.sol\":1831:1932  function renounceOwnership() public virtual onlyOwner {... */\n    tag_9:\n        /* \"@openzeppelin/contracts/access/Ownable.sol\":1094:1107  _checkOwner() */\n      tag_27\n        /* \"@openzeppelin/contracts/access/Ownable.sol\":1094:1105  _checkOwner */\n      tag_28\n        /* \"@openzeppelin/contracts/access/Ownable.sol\":1094:1107  _checkOwner() */\n      jump\t// in\n    tag_27:\n        /* \"@openzeppelin/contracts/access/Ownable.sol\":1895:1925  _transferOwnership(address(0)) */\n      tag_30\n        /* \"@openzeppelin/contracts/access/Ownable.sol\":1922:1923  0 */\n      0x00\n        /* \"@openzeppelin/contracts/access/Ownable.sol\":1895:1913  _transferOwnership */\n      tag_31\n        /* \"@openzeppelin/contracts/access/Ownable.sol\":1895:1925  _transferOwnership(address(0)) */\n      jump\t// in\n    tag_30:\n        /* \"@openzeppelin/contracts/access/Ownable.sol\":1831:1932  function renounceOwnership() public virtual onlyOwner {... */\n      jump\t// out\n        /* \"contracts/CrowdsaleFactory.sol\":589:1106  function createCrowdSale(uint256 _rate, address _wallet, ERC20 _token) public {... */\n    tag_17:\n        /* \"contracts/CrowdsaleFactory.sol\":696:710  numOfCrowdsale */\n      0x01\n        /* \"contracts/CrowdsaleFactory.sol\":696:712  numOfCrowdsale++ */\n      dup1\n      sload\n        /* \"contracts/CrowdsaleFactory.sol\":677:693  uint crowdsaleId */\n      0x00\n      swap2\n      dup3\n        /* \"contracts/CrowdsaleFactory.sol\":696:712  numOfCrowdsale++ */\n      tag_34\n      dup4\n      tag_35\n      jump\t// in\n    tag_34:\n      swap1\n      swap2\n      sstore\n      pop\n        /* \"contracts/CrowdsaleFactory.sol\":722:760  crowdsaleMeta storage currentCrowdsale */\n      0x00\n        /* \"contracts/CrowdsaleFactory.sol\":763:793  deployedCrowdsale[crowdsaleId] */\n      dup2\n      dup2\n      mstore\n        /* \"contracts/CrowdsaleFactory.sol\":763:780  deployedCrowdsale */\n      0x02\n        /* \"contracts/CrowdsaleFactory.sol\":763:793  deployedCrowdsale[crowdsaleId] */\n      0x20\n      dup2\n      swap1\n      mstore\n      0x40\n      swap2\n      dup3\n      swap1\n      keccak256\n        /* \"contracts/CrowdsaleFactory.sol\":803:834  currentCrowdsale.token = _token */\n      dup1\n      sload\n      sub(shl(0xa0, 0x01), 0x01)\n      dup1\n      dup9\n      and\n      not(sub(shl(0xa0, 0x01), 0x01))\n      swap3\n      dup4\n      and\n      or\n      dup4\n      sstore\n      0x01\n        /* \"contracts/CrowdsaleFactory.sol\":844:865  currentCrowdsale.rate */\n      dup4\n      add\n        /* \"contracts/CrowdsaleFactory.sol\":844:873  currentCrowdsale.rate = _rate */\n      dup11\n      swap1\n      sstore\n        /* \"contracts/CrowdsaleFactory.sol\":883:915  currentCrowdsale.beneficiaryAddr */\n      swap3\n      dup3\n      add\n        /* \"contracts/CrowdsaleFactory.sol\":883:925  currentCrowdsale.beneficiaryAddr = _wallet */\n      dup1\n      sload\n      swap4\n      dup10\n      and\n      swap4\n      swap1\n      swap2\n      and\n      swap3\n      swap1\n      swap3\n      or\n      swap1\n      swap2\n      sstore\n        /* \"contracts/CrowdsaleFactory.sol\":984:1021  new Crowdsale(_rate, _wallet, _token) */\n      swap1\n      mload\n        /* \"contracts/CrowdsaleFactory.sol\":677:712  uint crowdsaleId = numOfCrowdsale++ */\n      swap2\n      swap3\n      pop\n        /* \"contracts/CrowdsaleFactory.sol\":763:793  deployedCrowdsale[crowdsaleId] */\n      swap1\n        /* \"contracts/CrowdsaleFactory.sol\":868:873  _rate */\n      dup6\n      swap1\n        /* \"contracts/CrowdsaleFactory.sol\":918:925  _wallet */\n      dup6\n      swap1\n        /* \"contracts/CrowdsaleFactory.sol\":828:834  _token */\n      dup6\n      swap1\n        /* \"contracts/CrowdsaleFactory.sol\":984:1021  new Crowdsale(_rate, _wallet, _token) */\n      tag_36\n      swap1\n      tag_37\n      jump\t// in\n    tag_36:\n        /* \"#utility.yul\":2940:2965   */\n      swap3\n      dup4\n      mstore\n      sub(shl(0xa0, 0x01), 0x01)\n        /* \"#utility.yul\":3039:3054   */\n      swap2\n      dup3\n      and\n        /* \"#utility.yul\":3034:3036   */\n      0x20\n        /* \"#utility.yul\":3019:3037   */\n      dup5\n      add\n        /* \"#utility.yul\":3012:3055   */\n      mstore\n        /* \"#utility.yul\":3091:3106   */\n      and\n        /* \"#utility.yul\":3086:3088   */\n      0x40\n        /* \"#utility.yul\":3071:3089   */\n      dup3\n      add\n        /* \"#utility.yul\":3064:3107   */\n      mstore\n        /* \"#utility.yul\":2928:2930   */\n      0x60\n        /* \"#utility.yul\":2913:2931   */\n      add\n        /* \"contracts/CrowdsaleFactory.sol\":984:1021  new Crowdsale(_rate, _wallet, _token) */\n      mload(0x40)\n      dup1\n      swap2\n      sub\n      swap1\n      0x00\n      create\n      dup1\n      iszero\n      dup1\n      iszero\n      tag_40\n      jumpi\n      returndatasize\n      0x00\n      dup1\n      returndatacopy\n      revert(0x00, returndatasize)\n    tag_40:\n      pop\n        /* \"contracts/CrowdsaleFactory.sol\":935:973  currentCrowdsale.crowdsaleContractAddr */\n      0x03\n      dup3\n      add\n        /* \"contracts/CrowdsaleFactory.sol\":935:1022  currentCrowdsale.crowdsaleContractAddr = address(new Crowdsale(_rate, _wallet, _token)) */\n      dup1\n      sload\n      not(sub(shl(0xa0, 0x01), 0x01))\n      and\n      sub(shl(0xa0, 0x01), 0x01)\n      swap3\n      swap1\n      swap3\n      and\n      swap2\n      dup3\n      or\n      swap1\n      sstore\n        /* \"contracts/CrowdsaleFactory.sol\":1037:1098  newCrowdSaleCreatedAt(currentCrowdsale.crowdsaleContractAddr) */\n      mload(0x40)\n        /* \"#utility.yul\":886:937   */\n      swap1\n      dup2\n      mstore\n        /* \"contracts/CrowdsaleFactory.sol\":1037:1098  newCrowdSaleCreatedAt(currentCrowdsale.crowdsaleContractAddr) */\n      0x87bf7513da32df063aa08a31dcfc40284567075208515fcb6d35bbdcc4744736\n      swap1\n        /* \"#utility.yul\":874:876   */\n      0x20\n        /* \"#utility.yul\":859:877   */\n      add\n        /* \"contracts/CrowdsaleFactory.sol\":1037:1098  newCrowdSaleCreatedAt(currentCrowdsale.crowdsaleContractAddr) */\n      mload(0x40)\n      dup1\n      swap2\n      sub\n      swap1\n      log1\n        /* \"contracts/CrowdsaleFactory.sol\":667:1106  {... */\n      pop\n      pop\n        /* \"contracts/CrowdsaleFactory.sol\":589:1106  function createCrowdSale(uint256 _rate, address _wallet, ERC20 _token) public {... */\n      pop\n      pop\n      pop\n      jump\t// out\n        /* \"contracts/CrowdsaleFactory.sol\":1112:1429  function getAllDeployedProjects () public view returns (crowdsaleMeta[] memory props){... */\n    tag_19:\n        /* \"contracts/CrowdsaleFactory.sol\":1168:1196  crowdsaleMeta[] memory props */\n      0x60\n        /* \"contracts/CrowdsaleFactory.sol\":1271:1285  numOfCrowdsale */\n      sload(0x01)\n        /* \"contracts/CrowdsaleFactory.sol\":1251:1286  new crowdsaleMeta[](numOfCrowdsale) */\n      0xffffffffffffffff\n      dup2\n      gt\n      iszero\n      tag_44\n      jumpi\n      tag_44\n      tag_45\n      jump\t// in\n    tag_44:\n      mload(0x40)\n      swap1\n      dup1\n      dup3\n      mstore\n      dup1\n      0x20\n      mul\n      0x20\n      add\n      dup3\n      add\n      0x40\n      mstore\n      dup1\n      iszero\n      tag_46\n      jumpi\n      dup2\n      0x20\n      add\n    tag_47:\n      0x40\n      dup1\n      mload\n      0x80\n      dup2\n      add\n      dup3\n      mstore\n      0x00\n      dup1\n      dup3\n      mstore\n      0x20\n      dup1\n      dup4\n      add\n      dup3\n      swap1\n      mstore\n      swap3\n      dup3\n      add\n      dup2\n      swap1\n      mstore\n      0x60\n      dup3\n      add\n      mstore\n      dup3\n      mstore\n      not(0x00)\n      swap1\n      swap3\n      add\n      swap2\n      add\n      dup2\n      tag_47\n      jumpi\n      swap1\n      pop\n    tag_46:\n      pop\n        /* \"contracts/CrowdsaleFactory.sol\":1243:1286  props = new crowdsaleMeta[](numOfCrowdsale) */\n      swap1\n      pop\n        /* \"contracts/CrowdsaleFactory.sol\":1310:1323  uint256 index */\n      0x00\n        /* \"contracts/CrowdsaleFactory.sol\":1305:1423  for (uint256 index =0; index< numOfCrowdsale; index++){... */\n    tag_50:\n        /* \"contracts/CrowdsaleFactory.sol\":1335:1349  numOfCrowdsale */\n      sload(0x01)\n        /* \"contracts/CrowdsaleFactory.sol\":1328:1333  index */\n      dup2\n        /* \"contracts/CrowdsaleFactory.sol\":1328:1349  index< numOfCrowdsale */\n      lt\n        /* \"contracts/CrowdsaleFactory.sol\":1305:1423  for (uint256 index =0; index< numOfCrowdsale; index++){... */\n      iszero\n      tag_51\n      jumpi\n        /* \"contracts/CrowdsaleFactory.sol\":1388:1412  deployedCrowdsale[index] */\n      0x00\n      dup2\n      dup2\n      mstore\n        /* \"contracts/CrowdsaleFactory.sol\":1388:1405  deployedCrowdsale */\n      0x02\n        /* \"contracts/CrowdsaleFactory.sol\":1388:1412  deployedCrowdsale[index] */\n      0x20\n      dup2\n      dup2\n      mstore\n      0x40\n      swap3\n      dup4\n      swap1\n      keccak256\n        /* \"contracts/CrowdsaleFactory.sol\":1373:1412  props[index] = deployedCrowdsale[index] */\n      dup4\n      mload\n      0x80\n      dup2\n      add\n      dup6\n      mstore\n      dup2\n      sload\n      sub(shl(0xa0, 0x01), 0x01)\n      swap1\n      dup2\n      and\n      dup3\n      mstore\n      0x01\n      dup4\n      add\n      sload\n      swap4\n      dup3\n      add\n      swap4\n      swap1\n      swap4\n      mstore\n      swap3\n      dup2\n      add\n      sload\n      dup3\n      and\n      swap4\n      dup4\n      add\n      swap4\n      swap1\n      swap4\n      mstore\n      0x03\n      swap1\n      swap3\n      add\n      sload\n      swap1\n      swap2\n      and\n      0x60\n      dup3\n      add\n      mstore\n        /* \"contracts/CrowdsaleFactory.sol\":1373:1385  props[index] */\n      dup3\n      mload\n        /* \"contracts/CrowdsaleFactory.sol\":1373:1378  props */\n      dup4\n      swap1\n        /* \"contracts/CrowdsaleFactory.sol\":1406:1411  index */\n      dup4\n      swap1\n        /* \"contracts/CrowdsaleFactory.sol\":1373:1385  props[index] */\n      dup2\n      lt\n      tag_54\n      jumpi\n      tag_54\n      tag_55\n      jump\t// in\n    tag_54:\n      0x20\n      mul\n      0x20\n      add\n      add\n        /* \"contracts/CrowdsaleFactory.sol\":1373:1412  props[index] = deployedCrowdsale[index] */\n      dup2\n      swap1\n      mstore\n      pop\n        /* \"contracts/CrowdsaleFactory.sol\":1351:1358  index++ */\n      dup1\n      dup1\n      tag_56\n      swap1\n      tag_35\n      jump\t// in\n    tag_56:\n      swap2\n      pop\n      pop\n        /* \"contracts/CrowdsaleFactory.sol\":1305:1423  for (uint256 index =0; index< numOfCrowdsale; index++){... */\n      jump(tag_50)\n    tag_51:\n      pop\n        /* \"contracts/CrowdsaleFactory.sol\":1112:1429  function getAllDeployedProjects () public view returns (crowdsaleMeta[] memory props){... */\n      swap1\n      jump\t// out\n        /* \"@openzeppelin/contracts/access/Ownable.sol\":2081:2279  function transferOwnership(address newOwner) public virtual onlyOwner {... */\n    tag_25:\n        /* \"@openzeppelin/contracts/access/Ownable.sol\":1094:1107  _checkOwner() */\n      tag_58\n        /* \"@openzeppelin/contracts/access/Ownable.sol\":1094:1105  _checkOwner */\n      tag_28\n        /* \"@openzeppelin/contracts/access/Ownable.sol\":1094:1107  _checkOwner() */\n      jump\t// in\n    tag_58:\n      sub(shl(0xa0, 0x01), 0x01)\n        /* \"@openzeppelin/contracts/access/Ownable.sol\":2169:2191  newOwner != address(0) */\n      dup2\n      and\n        /* \"@openzeppelin/contracts/access/Ownable.sol\":2161:2234  require(newOwner != address(0), \"Ownable: new owner is the zero address\") */\n      tag_60\n      jumpi\n      mload(0x40)\n      shl(0xe5, 0x461bcd)\n      dup2\n      mstore\n        /* \"#utility.yul\":2159:2161   */\n      0x20\n        /* \"@openzeppelin/contracts/access/Ownable.sol\":2161:2234  require(newOwner != address(0), \"Ownable: new owner is the zero address\") */\n      0x04\n      dup3\n      add\n        /* \"#utility.yul\":2141:2162   */\n      mstore\n        /* \"#utility.yul\":2198:2200   */\n      0x26\n        /* \"#utility.yul\":2178:2196   */\n      0x24\n      dup3\n      add\n        /* \"#utility.yul\":2171:2201   */\n      mstore\n        /* \"#utility.yul\":2237:2271   */\n      0x4f776e61626c653a206e6577206f776e657220697320746865207a65726f2061\n        /* \"#utility.yul\":2217:2235   */\n      0x44\n      dup3\n      add\n        /* \"#utility.yul\":2210:2272   */\n      mstore\n      shl(0xd0, 0x646472657373)\n        /* \"#utility.yul\":2288:2306   */\n      0x64\n      dup3\n      add\n        /* \"#utility.yul\":2281:2317   */\n      mstore\n        /* \"#utility.yul\":2334:2353   */\n      0x84\n      add\n        /* \"@openzeppelin/contracts/access/Ownable.sol\":2161:2234  require(newOwner != address(0), \"Ownable: new owner is the zero address\") */\n    tag_61:\n      mload(0x40)\n      dup1\n      swap2\n      sub\n      swap1\n      revert\n    tag_60:\n        /* \"@openzeppelin/contracts/access/Ownable.sol\":2244:2272  _transferOwnership(newOwner) */\n      tag_63\n        /* \"@openzeppelin/contracts/access/Ownable.sol\":2263:2271  newOwner */\n      dup2\n        /* \"@openzeppelin/contracts/access/Ownable.sol\":2244:2262  _transferOwnership */\n      tag_31\n        /* \"@openzeppelin/contracts/access/Ownable.sol\":2244:2272  _transferOwnership(newOwner) */\n      jump\t// in\n    tag_63:\n        /* \"@openzeppelin/contracts/access/Ownable.sol\":2081:2279  function transferOwnership(address newOwner) public virtual onlyOwner {... */\n      pop\n      jump\t// out\n        /* \"@openzeppelin/contracts/access/Ownable.sol\":1359:1489  function _checkOwner() internal view virtual {... */\n    tag_28:\n        /* \"@openzeppelin/contracts/access/Ownable.sol\":1247:1254  address */\n      0x00\n        /* \"@openzeppelin/contracts/access/Ownable.sol\":1273:1279  _owner */\n      sload\n      sub(shl(0xa0, 0x01), 0x01)\n      and\n        /* \"@openzeppelin/contracts/utils/Context.sol\":719:729  msg.sender */\n      caller\n        /* \"@openzeppelin/contracts/access/Ownable.sol\":1422:1445  owner() == _msgSender() */\n      eq\n        /* \"@openzeppelin/contracts/access/Ownable.sol\":1414:1482  require(owner() == _msgSender(), \"Ownable: caller is not the owner\") */\n      tag_30\n      jumpi\n      mload(0x40)\n      shl(0xe5, 0x461bcd)\n      dup2\n      mstore\n        /* \"#utility.yul\":2566:2568   */\n      0x20\n        /* \"@openzeppelin/contracts/access/Ownable.sol\":1414:1482  require(owner() == _msgSender(), \"Ownable: caller is not the owner\") */\n      0x04\n      dup3\n      add\n        /* \"#utility.yul\":2548:2569   */\n      dup2\n      swap1\n      mstore\n        /* \"#utility.yul\":2585:2603   */\n      0x24\n      dup3\n      add\n        /* \"#utility.yul\":2578:2608   */\n      mstore\n        /* \"#utility.yul\":2644:2678   */\n      0x4f776e61626c653a2063616c6c6572206973206e6f7420746865206f776e6572\n        /* \"#utility.yul\":2624:2642   */\n      0x44\n      dup3\n      add\n        /* \"#utility.yul\":2617:2679   */\n      mstore\n        /* \"#utility.yul\":2696:2714   */\n      0x64\n      add\n        /* \"@openzeppelin/contracts/access/Ownable.sol\":1414:1482  require(owner() == _msgSender(), \"Ownable: caller is not the owner\") */\n      tag_61\n        /* \"#utility.yul\":2538:2720   */\n      jump\n        /* \"@openzeppelin/contracts/access/Ownable.sol\":2433:2620  function _transferOwnership(address newOwner) internal virtual {... */\n    tag_31:\n        /* \"@openzeppelin/contracts/access/Ownable.sol\":2506:2522  address oldOwner */\n      0x00\n        /* \"@openzeppelin/contracts/access/Ownable.sol\":2525:2531  _owner */\n      dup1\n      sload\n      sub(shl(0xa0, 0x01), 0x01)\n        /* \"@openzeppelin/contracts/access/Ownable.sol\":2541:2558  _owner = newOwner */\n      dup4\n      dup2\n      and\n      not(sub(shl(0xa0, 0x01), 0x01))\n      dup4\n      and\n      dup2\n      or\n      dup5\n      sstore\n        /* \"@openzeppelin/contracts/access/Ownable.sol\":2573:2613  OwnershipTransferred(oldOwner, newOwner) */\n      mload(0x40)\n        /* \"@openzeppelin/contracts/access/Ownable.sol\":2525:2531  _owner */\n      swap2\n      swap1\n      swap3\n      and\n      swap3\n      dup4\n      swap2\n        /* \"@openzeppelin/contracts/access/Ownable.sol\":2573:2613  OwnershipTransferred(oldOwner, newOwner) */\n      0x8be0079c531659141344cd1fd0a4f28419497f9722a3daafe3b4186f6b6457e0\n      swap2\n        /* \"@openzeppelin/contracts/access/Ownable.sol\":2506:2522  address oldOwner */\n      swap1\n        /* \"@openzeppelin/contracts/access/Ownable.sol\":2573:2613  OwnershipTransferred(oldOwner, newOwner) */\n      log3\n        /* \"@openzeppelin/contracts/access/Ownable.sol\":2496:2620  {... */\n      pop\n        /* \"@openzeppelin/contracts/access/Ownable.sol\":2433:2620  function _transferOwnership(address newOwner) internal virtual {... */\n      pop\n      jump\t// out\n    tag_37:\n      dataSize(sub_0)\n      dup1\n      dataOffset(sub_0)\n      dup4\n      codecopy\n      add\n      swap1\n      jump\t// out\n        /* \"#utility.yul\":14:261   */\n    tag_24:\n        /* \"#utility.yul\":73:79   */\n      0x00\n        /* \"#utility.yul\":126:128   */\n      0x20\n        /* \"#utility.yul\":114:123   */\n      dup3\n        /* \"#utility.yul\":105:112   */\n      dup5\n        /* \"#utility.yul\":101:124   */\n      sub\n        /* \"#utility.yul\":97:129   */\n      slt\n        /* \"#utility.yul\":94:96   */\n      iszero\n      tag_75\n      jumpi\n        /* \"#utility.yul\":142:143   */\n      0x00\n        /* \"#utility.yul\":139:140   */\n      dup1\n        /* \"#utility.yul\":132:144   */\n      revert\n        /* \"#utility.yul\":94:96   */\n    tag_75:\n        /* \"#utility.yul\":181:190   */\n      dup2\n        /* \"#utility.yul\":168:191   */\n      calldataload\n        /* \"#utility.yul\":200:231   */\n      tag_76\n        /* \"#utility.yul\":225:230   */\n      dup2\n        /* \"#utility.yul\":200:231   */\n      tag_77\n      jump\t// in\n    tag_76:\n        /* \"#utility.yul\":250:255   */\n      swap4\n        /* \"#utility.yul\":84:261   */\n      swap3\n      pop\n      pop\n      pop\n      jump\t// out\n        /* \"#utility.yul\":266:735   */\n    tag_16:\n        /* \"#utility.yul\":356:362   */\n      0x00\n        /* \"#utility.yul\":364:370   */\n      dup1\n        /* \"#utility.yul\":372:378   */\n      0x00\n        /* \"#utility.yul\":425:427   */\n      0x60\n        /* \"#utility.yul\":413:422   */\n      dup5\n        /* \"#utility.yul\":404:411   */\n      dup7\n        /* \"#utility.yul\":400:423   */\n      sub\n        /* \"#utility.yul\":396:428   */\n      slt\n        /* \"#utility.yul\":393:395   */\n      iszero\n      tag_79\n      jumpi\n        /* \"#utility.yul\":441:442   */\n      0x00\n        /* \"#utility.yul\":438:439   */\n      dup1\n        /* \"#utility.yul\":431:443   */\n      revert\n        /* \"#utility.yul\":393:395   */\n    tag_79:\n        /* \"#utility.yul\":477:486   */\n      dup4\n        /* \"#utility.yul\":464:487   */\n      calldataload\n        /* \"#utility.yul\":454:487   */\n      swap3\n      pop\n        /* \"#utility.yul\":537:539   */\n      0x20\n        /* \"#utility.yul\":526:535   */\n      dup5\n        /* \"#utility.yul\":522:540   */\n      add\n        /* \"#utility.yul\":509:541   */\n      calldataload\n        /* \"#utility.yul\":550:581   */\n      tag_80\n        /* \"#utility.yul\":575:580   */\n      dup2\n        /* \"#utility.yul\":550:581   */\n      tag_77\n      jump\t// in\n    tag_80:\n        /* \"#utility.yul\":600:605   */\n      swap2\n      pop\n        /* \"#utility.yul\":657:659   */\n      0x40\n        /* \"#utility.yul\":642:660   */\n      dup5\n      add\n        /* \"#utility.yul\":629:661   */\n      calldataload\n        /* \"#utility.yul\":670:703   */\n      tag_81\n        /* \"#utility.yul\":629:661   */\n      dup2\n        /* \"#utility.yul\":670:703   */\n      tag_77\n      jump\t// in\n    tag_81:\n        /* \"#utility.yul\":722:729   */\n      dup1\n        /* \"#utility.yul\":712:729   */\n      swap2\n      pop\n      pop\n        /* \"#utility.yul\":383:735   */\n      swap3\n      pop\n      swap3\n      pop\n      swap3\n      jump\t// out\n        /* \"#utility.yul\":948:1952   */\n    tag_21:\n        /* \"#utility.yul\":1181:1183   */\n      0x20\n        /* \"#utility.yul\":1233:1254   */\n      dup1\n      dup3\n      mstore\n        /* \"#utility.yul\":1303:1316   */\n      dup3\n      mload\n        /* \"#utility.yul\":1206:1224   */\n      dup3\n      dup3\n      add\n        /* \"#utility.yul\":1325:1347   */\n      dup2\n      swap1\n      mstore\n        /* \"#utility.yul\":1152:1156   */\n      0x00\n      swap2\n        /* \"#utility.yul\":1181:1183   */\n      swap1\n        /* \"#utility.yul\":1366:1368   */\n      0x40\n      swap1\n        /* \"#utility.yul\":1384:1402   */\n      dup2\n      dup6\n      add\n      swap1\n        /* \"#utility.yul\":1425:1440   */\n      dup7\n      dup5\n      add\n        /* \"#utility.yul\":1152:1156   */\n      dup6\n        /* \"#utility.yul\":1468:1926   */\n    tag_84:\n        /* \"#utility.yul\":1482:1488   */\n      dup3\n        /* \"#utility.yul\":1479:1480   */\n      dup2\n        /* \"#utility.yul\":1476:1489   */\n      lt\n        /* \"#utility.yul\":1468:1926   */\n      iszero\n      tag_86\n      jumpi\n        /* \"#utility.yul\":1541:1554   */\n      dup2\n      mload\n        /* \"#utility.yul\":1625:1634   */\n      dup1\n      mload\n      sub(shl(0xa0, 0x01), 0x01)\n        /* \"#utility.yul\":1621:1639   */\n      swap1\n      dup2\n      and\n        /* \"#utility.yul\":1609:1640   */\n      dup7\n      mstore\n        /* \"#utility.yul\":1680:1691   */\n      dup8\n      dup3\n      add\n        /* \"#utility.yul\":1674:1692   */\n      mload\n        /* \"#utility.yul\":1660:1672   */\n      dup9\n      dup8\n      add\n        /* \"#utility.yul\":1653:1693   */\n      mstore\n        /* \"#utility.yul\":1737:1748   */\n      dup7\n      dup3\n      add\n        /* \"#utility.yul\":1731:1749   */\n      mload\n        /* \"#utility.yul\":1727:1754   */\n      dup2\n      and\n        /* \"#utility.yul\":1713:1725   */\n      dup8\n      dup8\n      add\n        /* \"#utility.yul\":1706:1755   */\n      mstore\n        /* \"#utility.yul\":1778:1782   */\n      0x60\n        /* \"#utility.yul\":1826:1837   */\n      swap2\n      dup3\n      add\n        /* \"#utility.yul\":1820:1838   */\n      mload\n        /* \"#utility.yul\":1816:1843   */\n      and\n        /* \"#utility.yul\":1802:1814   */\n      swap1\n      dup6\n      add\n        /* \"#utility.yul\":1795:1844   */\n      mstore\n        /* \"#utility.yul\":1873:1877   */\n      0x80\n        /* \"#utility.yul\":1864:1878   */\n      swap1\n      swap4\n      add\n      swap3\n        /* \"#utility.yul\":1901:1916   */\n      swap1\n      dup6\n      add\n      swap1\n        /* \"#utility.yul\":1594:1595   */\n      0x01\n        /* \"#utility.yul\":1497:1506   */\n      add\n        /* \"#utility.yul\":1468:1926   */\n      jump(tag_84)\n    tag_86:\n      pop\n        /* \"#utility.yul\":1943:1946   */\n      swap2\n      swap8\n        /* \"#utility.yul\":1161:1952   */\n      swap7\n      pop\n      pop\n      pop\n      pop\n      pop\n      pop\n      pop\n      jump\t// out\n        /* \"#utility.yul\":3118:3350   */\n    tag_35:\n        /* \"#utility.yul\":3157:3160   */\n      0x00\n      not(0x00)\n        /* \"#utility.yul\":3178:3195   */\n      dup3\n      eq\n        /* \"#utility.yul\":3175:3177   */\n      iszero\n      tag_91\n      jumpi\n        /* \"#utility.yul\":3237:3247   */\n      0x4e487b71\n        /* \"#utility.yul\":3232:3235   */\n      0xe0\n        /* \"#utility.yul\":3228:3248   */\n      shl\n        /* \"#utility.yul\":3225:3226   */\n      0x00\n        /* \"#utility.yul\":3218:3249   */\n      mstore\n        /* \"#utility.yul\":3272:3276   */\n      0x11\n        /* \"#utility.yul\":3269:3270   */\n      0x04\n        /* \"#utility.yul\":3262:3277   */\n      mstore\n        /* \"#utility.yul\":3300:3304   */\n      0x24\n        /* \"#utility.yul\":3297:3298   */\n      0x00\n        /* \"#utility.yul\":3290:3305   */\n      revert\n        /* \"#utility.yul\":3175:3177   */\n    tag_91:\n      pop\n        /* \"#utility.yul\":3342:3343   */\n      0x01\n        /* \"#utility.yul\":3331:3344   */\n      add\n      swap1\n        /* \"#utility.yul\":3165:3350   */\n      jump\t// out\n        /* \"#utility.yul\":3355:3482   */\n    tag_55:\n        /* \"#utility.yul\":3416:3426   */\n      0x4e487b71\n        /* \"#utility.yul\":3411:3414   */\n      0xe0\n        /* \"#utility.yul\":3407:3427   */\n      shl\n        /* \"#utility.yul\":3404:3405   */\n      0x00\n        /* \"#utility.yul\":3397:3428   */\n      mstore\n        /* \"#utility.yul\":3447:3451   */\n      0x32\n        /* \"#utility.yul\":3444:3445   */\n      0x04\n        /* \"#utility.yul\":3437:3452   */\n      mstore\n        /* \"#utility.yul\":3471:3475   */\n      0x24\n        /* \"#utility.yul\":3468:3469   */\n      0x00\n        /* \"#utility.yul\":3461:3476   */\n      revert\n        /* \"#utility.yul\":3487:3614   */\n    tag_45:\n        /* \"#utility.yul\":3548:3558   */\n      0x4e487b71\n        /* \"#utility.yul\":3543:3546   */\n      0xe0\n        /* \"#utility.yul\":3539:3559   */\n      shl\n        /* \"#utility.yul\":3536:3537   */\n      0x00\n        /* \"#utility.yul\":3529:3560   */\n      mstore\n        /* \"#utility.yul\":3579:3583   */\n      0x41\n        /* \"#utility.yul\":3576:3577   */\n      0x04\n        /* \"#utility.yul\":3569:3584   */\n      mstore\n        /* \"#utility.yul\":3603:3607   */\n      0x24\n        /* \"#utility.yul\":3600:3601   */\n      0x00\n        /* \"#utility.yul\":3593:3608   */\n      revert\n        /* \"#utility.yul\":3619:3750   */\n    tag_77:\n      sub(shl(0xa0, 0x01), 0x01)\n        /* \"#utility.yul\":3694:3725   */\n      dup2\n      and\n        /* \"#utility.yul\":3684:3726   */\n      dup2\n      eq\n        /* \"#utility.yul\":3674:3676   */\n      tag_63\n      jumpi\n        /* \"#utility.yul\":3740:3741   */\n      0x00\n        /* \"#utility.yul\":3737:3738   */\n      dup1\n        /* \"#utility.yul\":3730:3742   */\n      revert\n    stop\n\n    sub_0: assembly {\n            /* \"contracts/Crowdsale.sol\":1086:5935  contract Crowdsale {... */\n          mstore(0x40, 0x80)\n            /* \"contracts/Crowdsale.sol\":1932:2160  constructor(uint256 _rate, address _wallet, ERC20 _token) {... */\n          callvalue\n          dup1\n          iszero\n          tag_1\n          jumpi\n          0x00\n          dup1\n          revert\n        tag_1:\n          pop\n          mload(0x40)\n          sub(codesize, bytecodeSize)\n          dup1\n          bytecodeSize\n          dup4\n          codecopy\n          dup2\n          add\n          0x40\n          dup2\n          swap1\n          mstore\n          tag_2\n          swap2\n          tag_3\n          jump\t// in\n        tag_2:\n            /* \"contracts/Crowdsale.sol\":2012:2013  0 */\n          0x00\n            /* \"contracts/Crowdsale.sol\":2004:2009  _rate */\n          dup4\n            /* \"contracts/Crowdsale.sol\":2004:2013  _rate > 0 */\n          gt\n            /* \"contracts/Crowdsale.sol\":1996:2014  require(_rate > 0) */\n          tag_6\n          jumpi\n          0x00\n          dup1\n          revert\n        tag_6:\n          sub(shl(0xa0, 0x01), 0x01)\n            /* \"contracts/Crowdsale.sol\":2028:2049  _wallet != address(0) */\n          dup3\n          and\n            /* \"contracts/Crowdsale.sol\":2020:2050  require(_wallet != address(0)) */\n          tag_7\n          jumpi\n          0x00\n          dup1\n          revert\n        tag_7:\n          sub(shl(0xa0, 0x01), 0x01)\n            /* \"contracts/Crowdsale.sol\":2064:2093  address(_token) != address(0) */\n          dup2\n          and\n            /* \"contracts/Crowdsale.sol\":2056:2094  require(address(_token) != address(0)) */\n          tag_8\n          jumpi\n          0x00\n          dup1\n          revert\n        tag_8:\n            /* \"contracts/Crowdsale.sol\":2101:2105  rate */\n          0x02\n            /* \"contracts/Crowdsale.sol\":2101:2113  rate = _rate */\n          swap3\n          swap1\n          swap3\n          sstore\n            /* \"contracts/Crowdsale.sol\":2119:2125  wallet */\n          0x01\n            /* \"contracts/Crowdsale.sol\":2119:2135  wallet = _wallet */\n          dup1\n          sload\n          sub(shl(0xa0, 0x01), 0x01)\n          swap3\n          dup4\n          and\n          not(sub(shl(0xa0, 0x01), 0x01))\n          swap2\n          dup3\n          and\n          or\n          swap1\n          swap2\n          sstore\n          0x00\n            /* \"contracts/Crowdsale.sol\":2141:2155  token = _token */\n          dup1\n          sload\n          swap3\n          swap1\n          swap4\n          and\n          swap2\n          and\n          or\n          swap1\n          sstore\n            /* \"contracts/Crowdsale.sol\":1086:5935  contract Crowdsale {... */\n          jump(tag_10)\n            /* \"#utility.yul\":14:473   */\n        tag_3:\n            /* \"#utility.yul\":115:121   */\n          0x00\n            /* \"#utility.yul\":123:129   */\n          dup1\n            /* \"#utility.yul\":131:137   */\n          0x00\n            /* \"#utility.yul\":184:186   */\n          0x60\n            /* \"#utility.yul\":172:181   */\n          dup5\n            /* \"#utility.yul\":163:170   */\n          dup7\n            /* \"#utility.yul\":159:182   */\n          sub\n            /* \"#utility.yul\":155:187   */\n          slt\n            /* \"#utility.yul\":152:154   */\n          iszero\n          tag_12\n          jumpi\n            /* \"#utility.yul\":200:201   */\n          0x00\n            /* \"#utility.yul\":197:198   */\n          dup1\n            /* \"#utility.yul\":190:202   */\n          revert\n            /* \"#utility.yul\":152:154   */\n        tag_12:\n            /* \"#utility.yul\":229:238   */\n          dup4\n            /* \"#utility.yul\":223:239   */\n          mload\n            /* \"#utility.yul\":213:239   */\n          swap3\n          pop\n            /* \"#utility.yul\":282:284   */\n          0x20\n            /* \"#utility.yul\":271:280   */\n          dup5\n            /* \"#utility.yul\":267:285   */\n          add\n            /* \"#utility.yul\":261:286   */\n          mload\n            /* \"#utility.yul\":295:326   */\n          tag_13\n            /* \"#utility.yul\":320:325   */\n          dup2\n            /* \"#utility.yul\":295:326   */\n          tag_14\n          jump\t// in\n        tag_13:\n            /* \"#utility.yul\":395:397   */\n          0x40\n            /* \"#utility.yul\":380:398   */\n          dup6\n          add\n            /* \"#utility.yul\":374:399   */\n          mload\n            /* \"#utility.yul\":345:350   */\n          swap1\n          swap3\n          pop\n            /* \"#utility.yul\":408:441   */\n          tag_15\n            /* \"#utility.yul\":374:399   */\n          dup2\n            /* \"#utility.yul\":408:441   */\n          tag_14\n          jump\t// in\n        tag_15:\n            /* \"#utility.yul\":460:467   */\n          dup1\n            /* \"#utility.yul\":450:467   */\n          swap2\n          pop\n          pop\n            /* \"#utility.yul\":142:473   */\n          swap3\n          pop\n          swap3\n          pop\n          swap3\n          jump\t// out\n            /* \"#utility.yul\":478:609   */\n        tag_14:\n          sub(shl(0xa0, 0x01), 0x01)\n            /* \"#utility.yul\":553:584   */\n          dup2\n          and\n            /* \"#utility.yul\":543:585   */\n          dup2\n          eq\n            /* \"#utility.yul\":533:535   */\n          tag_17\n          jumpi\n            /* \"#utility.yul\":599:600   */\n          0x00\n            /* \"#utility.yul\":596:597   */\n          dup1\n            /* \"#utility.yul\":589:601   */\n          revert\n            /* \"#utility.yul\":533:535   */\n        tag_17:\n            /* \"#utility.yul\":523:609   */\n          pop\n          jump\t// out\n        tag_10:\n            /* \"contracts/Crowdsale.sol\":1086:5935  contract Crowdsale {... */\n          dataSize(sub_0)\n          dup1\n          dataOffset(sub_0)\n          0x00\n          codecopy\n          0x00\n          return\n        stop\n\n        sub_0: assembly {\n                /* \"contracts/Crowdsale.sol\":1086:5935  contract Crowdsale {... */\n              mstore(0x40, 0x80)\n              jumpi(tag_1, lt(calldatasize, 0x04))\n              shr(0xe0, calldataload(0x00))\n              dup1\n              0x2c4e722e\n              eq\n              tag_3\n              jumpi\n              dup1\n              0x4042b66f\n              eq\n              tag_4\n              jumpi\n              dup1\n              0x521eb273\n              eq\n              tag_5\n              jumpi\n              dup1\n              0xec8ac4d8\n              eq\n              tag_6\n              jumpi\n              dup1\n              0xfc0c546a\n              eq\n              tag_7\n              jumpi\n              jump(tag_2)\n            tag_1:\n              jumpi(tag_2, calldatasize)\n                /* \"contracts/Crowdsale.sol\":2456:2477  buyTokens(msg.sender) */\n              tag_10\n                /* \"contracts/Crowdsale.sol\":2466:2476  msg.sender */\n              caller\n                /* \"contracts/Crowdsale.sol\":2456:2465  buyTokens */\n              tag_11\n                /* \"contracts/Crowdsale.sol\":2456:2477  buyTokens(msg.sender) */\n              jump\t// in\n            tag_10:\n                /* \"contracts/Crowdsale.sol\":1086:5935  contract Crowdsale {... */\n              stop\n            tag_2:\n                /* \"contracts/Crowdsale.sol\":2390:2411  buyTokens(msg.sender) */\n              tag_10\n                /* \"contracts/Crowdsale.sol\":2400:2410  msg.sender */\n              caller\n                /* \"contracts/Crowdsale.sol\":2390:2399  buyTokens */\n              tag_11\n                /* \"contracts/Crowdsale.sol\":2390:2411  buyTokens(msg.sender) */\n              jump\t// in\n                /* \"contracts/Crowdsale.sol\":1301:1320  uint256 public rate */\n            tag_3:\n              callvalue\n              dup1\n              iszero\n              tag_15\n              jumpi\n              0x00\n              dup1\n              revert\n            tag_15:\n              pop\n              tag_16\n              sload(0x02)\n              dup2\n              jump\n            tag_16:\n              mload(0x40)\n                /* \"#utility.yul\":1441:1466   */\n              swap1\n              dup2\n              mstore\n                /* \"#utility.yul\":1429:1431   */\n              0x20\n                /* \"#utility.yul\":1414:1432   */\n              add\n                /* \"contracts/Crowdsale.sol\":1301:1320  uint256 public rate */\n            tag_18:\n              mload(0x40)\n              dup1\n              swap2\n              sub\n              swap1\n              return\n                /* \"contracts/Crowdsale.sol\":1351:1375  uint256 public weiRaised */\n            tag_4:\n              callvalue\n              dup1\n              iszero\n              tag_20\n              jumpi\n              0x00\n              dup1\n              revert\n            tag_20:\n              pop\n              tag_16\n              sload(0x03)\n              dup2\n              jump\n                /* \"contracts/Crowdsale.sol\":1228:1249  address public wallet */\n            tag_5:\n              callvalue\n              dup1\n              iszero\n              tag_24\n              jumpi\n              0x00\n              dup1\n              revert\n            tag_24:\n              pop\n              sload(0x01)\n              tag_25\n              swap1\n              sub(shl(0xa0, 0x01), 0x01)\n              and\n              dup2\n              jump\n            tag_25:\n              mload(0x40)\n              sub(shl(0xa0, 0x01), 0x01)\n                /* \"#utility.yul\":751:783   */\n              swap2\n              swap1\n              swap2\n              and\n                /* \"#utility.yul\":733:784   */\n              dup2\n              mstore\n                /* \"#utility.yul\":721:723   */\n              0x20\n                /* \"#utility.yul\":706:724   */\n              add\n                /* \"contracts/Crowdsale.sol\":1228:1249  address public wallet */\n              tag_18\n                /* \"#utility.yul\":688:790   */\n              jump\n                /* \"contracts/Crowdsale.sol\":2618:3195  function buyTokens(address _beneficiary) public payable {... */\n            tag_6:\n              tag_10\n              tag_30\n              calldatasize\n              0x04\n              tag_31\n              jump\t// in\n            tag_30:\n              tag_11\n              jump\t// in\n                /* \"contracts/Crowdsale.sol\":1166:1184  ERC20 public token */\n            tag_7:\n              callvalue\n              dup1\n              iszero\n              tag_32\n              jumpi\n              0x00\n              dup1\n              revert\n            tag_32:\n              pop\n              sload(0x00)\n              tag_25\n              swap1\n              sub(shl(0xa0, 0x01), 0x01)\n              and\n              dup2\n              jump\n                /* \"contracts/Crowdsale.sol\":2618:3195  function buyTokens(address _beneficiary) public payable {... */\n            tag_11:\n                /* \"contracts/Crowdsale.sol\":2701:2710  msg.value */\n              callvalue\n                /* \"contracts/Crowdsale.sol\":2716:2761  _preValidatePurchase(_beneficiary, weiAmount) */\n              tag_38\n                /* \"contracts/Crowdsale.sol\":2737:2749  _beneficiary */\n              dup3\n                /* \"contracts/Crowdsale.sol\":2701:2710  msg.value */\n              dup3\n                /* \"contracts/Crowdsale.sol\":2716:2736  _preValidatePurchase */\n              tag_39\n                /* \"contracts/Crowdsale.sol\":2716:2761  _preValidatePurchase(_beneficiary, weiAmount) */\n              jump\t// in\n            tag_38:\n                /* \"contracts/Crowdsale.sol\":2812:2826  uint256 tokens */\n              0x00\n                /* \"contracts/Crowdsale.sol\":2829:2855  _getTokenAmount(weiAmount) */\n              tag_40\n                /* \"contracts/Crowdsale.sol\":2845:2854  weiAmount */\n              dup3\n                /* \"contracts/Crowdsale.sol\":2829:2844  _getTokenAmount */\n              tag_41\n                /* \"contracts/Crowdsale.sol\":2829:2855  _getTokenAmount(weiAmount) */\n              jump\t// in\n            tag_40:\n                /* \"contracts/Crowdsale.sol\":2894:2903  weiRaised */\n              sload(0x03)\n                /* \"contracts/Crowdsale.sol\":2812:2855  uint256 tokens = _getTokenAmount(weiAmount) */\n              swap1\n              swap2\n              pop\n                /* \"contracts/Crowdsale.sol\":2894:2918  weiRaised.add(weiAmount) */\n              tag_42\n              swap1\n                /* \"contracts/Crowdsale.sol\":2908:2917  weiAmount */\n              dup4\n                /* \"contracts/Crowdsale.sol\":2894:2907  weiRaised.add */\n              tag_43\n                /* \"contracts/Crowdsale.sol\":2894:2918  weiRaised.add(weiAmount) */\n              jump\t// in\n            tag_42:\n                /* \"contracts/Crowdsale.sol\":2882:2891  weiRaised */\n              0x03\n                /* \"contracts/Crowdsale.sol\":2882:2918  weiRaised = weiRaised.add(weiAmount) */\n              sstore\n                /* \"contracts/Crowdsale.sol\":2925:2963  _processPurchase(_beneficiary, tokens) */\n              tag_44\n                /* \"contracts/Crowdsale.sol\":2942:2954  _beneficiary */\n              dup4\n                /* \"contracts/Crowdsale.sol\":2956:2962  tokens */\n              dup3\n                /* \"contracts/Crowdsale.sol\":2925:2941  _processPurchase */\n              tag_45\n                /* \"contracts/Crowdsale.sol\":2925:2963  _processPurchase(_beneficiary, tokens) */\n              jump\t// in\n            tag_44:\n                /* \"contracts/Crowdsale.sol\":2974:3062  TokenPurchase(... */\n              0x40\n              dup1\n              mload\n                /* \"#utility.yul\":1651:1676   */\n              dup4\n              dup2\n              mstore\n                /* \"#utility.yul\":1707:1709   */\n              0x20\n                /* \"#utility.yul\":1692:1710   */\n              dup2\n              add\n                /* \"#utility.yul\":1685:1719   */\n              dup4\n              swap1\n              mstore\n                /* \"contracts/Crowdsale.sol\":2974:3062  TokenPurchase(... */\n              dup2\n              mload\n              sub(shl(0xa0, 0x01), 0x01)\n              dup7\n              and\n              swap3\n                /* \"contracts/Crowdsale.sol\":2995:3005  msg.sender */\n              caller\n              swap3\n                /* \"contracts/Crowdsale.sol\":2974:3062  TokenPurchase(... */\n              0x623b3804fa71d67900d064613da8f94b9617215ee90799290593e1745087ad18\n              swap3\n              swap1\n              dup2\n              swap1\n              sub\n              swap1\n              swap2\n              add\n              swap1\n              log3\n                /* \"contracts/Crowdsale.sol\":3123:3138  _forwardFunds() */\n              tag_50\n                /* \"contracts/Crowdsale.sol\":3123:3136  _forwardFunds */\n              tag_51\n                /* \"contracts/Crowdsale.sol\":3123:3138  _forwardFunds() */\n              jump\t// in\n            tag_50:\n                /* \"contracts/Crowdsale.sol\":2674:3195  {... */\n              pop\n              pop\n                /* \"contracts/Crowdsale.sol\":2618:3195  function buyTokens(address _beneficiary) public payable {... */\n              pop\n              jump\t// out\n                /* \"contracts/Crowdsale.sol\":3619:3803  function _preValidatePurchase(... */\n            tag_39:\n              sub(shl(0xa0, 0x01), 0x01)\n                /* \"contracts/Crowdsale.sol\":3741:3767  _beneficiary != address(0) */\n              dup3\n              and\n                /* \"contracts/Crowdsale.sol\":3733:3768  require(_beneficiary != address(0)) */\n              tag_55\n              jumpi\n              0x00\n              dup1\n              revert\n            tag_55:\n                /* \"contracts/Crowdsale.sol\":3782:3797  _weiAmount != 0 */\n              dup1\n                /* \"contracts/Crowdsale.sol\":3774:3798  require(_weiAmount != 0) */\n              tag_56\n              jumpi\n              0x00\n              dup1\n              revert\n            tag_56:\n                /* \"contracts/Crowdsale.sol\":3619:3803  function _preValidatePurchase(... */\n              pop\n              pop\n              jump\t// out\n                /* \"contracts/Crowdsale.sol\":5653:5774  function _getTokenAmount(uint256 _weiAmount)... */\n            tag_41:\n                /* \"contracts/Crowdsale.sol\":5725:5732  uint256 */\n              0x00\n                /* \"contracts/Crowdsale.sol\":5749:5769  _weiAmount.mul(rate) */\n              tag_58\n                /* \"contracts/Crowdsale.sol\":5764:5768  rate */\n              sload(0x02)\n                /* \"contracts/Crowdsale.sol\":5749:5759  _weiAmount */\n              dup4\n                /* \"contracts/Crowdsale.sol\":5749:5763  _weiAmount.mul */\n              tag_59\n              swap1\n                /* \"contracts/Crowdsale.sol\":5749:5769  _weiAmount.mul(rate) */\n              swap2\n              swap1\n              0xffffffff\n              and\n              jump\t// in\n            tag_58:\n                /* \"contracts/Crowdsale.sol\":5742:5769  return _weiAmount.mul(rate) */\n              swap3\n                /* \"contracts/Crowdsale.sol\":5653:5774  function _getTokenAmount(uint256 _weiAmount)... */\n              swap2\n              pop\n              pop\n              jump\t// out\n                /* \"@openzeppelin/contracts/utils/math/SafeMath.sol\":2755:2851  function add(uint256 a, uint256 b) internal pure returns (uint256) {... */\n            tag_43:\n                /* \"@openzeppelin/contracts/utils/math/SafeMath.sol\":2813:2820  uint256 */\n              0x00\n                /* \"@openzeppelin/contracts/utils/math/SafeMath.sol\":2839:2844  a + b */\n              tag_61\n                /* \"@openzeppelin/contracts/utils/math/SafeMath.sol\":2843:2844  b */\n              dup3\n                /* \"@openzeppelin/contracts/utils/math/SafeMath.sol\":2839:2840  a */\n              dup5\n                /* \"@openzeppelin/contracts/utils/math/SafeMath.sol\":2839:2844  a + b */\n              tag_62\n              jump\t// in\n            tag_61:\n                /* \"@openzeppelin/contracts/utils/math/SafeMath.sol\":2832:2844  return a + b */\n              swap4\n                /* \"@openzeppelin/contracts/utils/math/SafeMath.sol\":2755:2851  function add(uint256 a, uint256 b) internal pure returns (uint256) {... */\n              swap3\n              pop\n              pop\n              pop\n              jump\t// out\n                /* \"contracts/Crowdsale.sol\":4881:5031  function _processPurchase(... */\n            tag_45:\n                /* \"contracts/Crowdsale.sol\":4984:5026  _deliverTokens(_beneficiary, _tokenAmount) */\n              tag_56\n                /* \"contracts/Crowdsale.sol\":4999:5011  _beneficiary */\n              dup3\n                /* \"contracts/Crowdsale.sol\":5013:5025  _tokenAmount */\n              dup3\n                /* \"contracts/Crowdsale.sol\":4984:4998  _deliverTokens */\n              tag_65\n                /* \"contracts/Crowdsale.sol\":4984:5026  _deliverTokens(_beneficiary, _tokenAmount) */\n              jump\t// in\n                /* \"contracts/Crowdsale.sol\":5853:5933  function _forwardFunds() internal {... */\n            tag_51:\n                /* \"contracts/Crowdsale.sol\":5901:5907  wallet */\n              sload(0x01)\n                /* \"contracts/Crowdsale.sol\":5893:5928  payable(wallet).transfer(msg.value) */\n              mload(0x40)\n              sub(shl(0xa0, 0x01), 0x01)\n                /* \"contracts/Crowdsale.sol\":5901:5907  wallet */\n              swap1\n              swap2\n              and\n              swap1\n                /* \"contracts/Crowdsale.sol\":5918:5927  msg.value */\n              callvalue\n                /* \"contracts/Crowdsale.sol\":5893:5928  payable(wallet).transfer(msg.value) */\n              dup1\n              iszero\n              0x08fc\n              mul\n              swap2\n                /* \"contracts/Crowdsale.sol\":5901:5907  wallet */\n              0x00\n                /* \"contracts/Crowdsale.sol\":5893:5928  payable(wallet).transfer(msg.value) */\n              dup2\n                /* \"contracts/Crowdsale.sol\":5901:5907  wallet */\n              dup2\n                /* \"contracts/Crowdsale.sol\":5893:5928  payable(wallet).transfer(msg.value) */\n              dup2\n                /* \"contracts/Crowdsale.sol\":5918:5927  msg.value */\n              dup6\n                /* \"contracts/Crowdsale.sol\":5901:5907  wallet */\n              dup9\n                /* \"contracts/Crowdsale.sol\":5893:5928  payable(wallet).transfer(msg.value) */\n              dup9\n              call\n              swap4\n              pop\n              pop\n              pop\n              pop\n              iszero\n              dup1\n              iszero\n              tag_69\n              jumpi\n              returndatasize\n              0x00\n              dup1\n              returndatacopy\n              revert(0x00, returndatasize)\n            tag_69:\n              pop\n                /* \"contracts/Crowdsale.sol\":5853:5933  function _forwardFunds() internal {... */\n              jump\t// out\n                /* \"@openzeppelin/contracts/utils/math/SafeMath.sol\":3465:3561  function mul(uint256 a, uint256 b) internal pure returns (uint256) {... */\n            tag_59:\n                /* \"@openzeppelin/contracts/utils/math/SafeMath.sol\":3523:3530  uint256 */\n              0x00\n                /* \"@openzeppelin/contracts/utils/math/SafeMath.sol\":3549:3554  a * b */\n              tag_61\n                /* \"@openzeppelin/contracts/utils/math/SafeMath.sol\":3553:3554  b */\n              dup3\n                /* \"@openzeppelin/contracts/utils/math/SafeMath.sol\":3549:3550  a */\n              dup5\n                /* \"@openzeppelin/contracts/utils/math/SafeMath.sol\":3549:3554  a * b */\n              tag_73\n              jump\t// in\n                /* \"contracts/Crowdsale.sol\":4474:4634  function _deliverTokens(... */\n            tag_65:\n                /* \"contracts/Crowdsale.sol\":4587:4592  token */\n              sload(0x00)\n                /* \"contracts/Crowdsale.sol\":4587:4629  token.transfer(_beneficiary, _tokenAmount) */\n              mload(0x40)\n              shl(0xe0, 0xa9059cbb)\n              dup2\n              mstore\n              0x01\n              dup1\n              0xa0\n              shl\n              sub\n                /* \"#utility.yul\":987:1019   */\n              dup5\n              dup2\n              and\n                /* \"contracts/Crowdsale.sol\":4587:4629  token.transfer(_beneficiary, _tokenAmount) */\n              0x04\n              dup4\n              add\n                /* \"#utility.yul\":969:1020   */\n              mstore\n                /* \"#utility.yul\":1036:1054   */\n              0x24\n              dup3\n              add\n                /* \"#utility.yul\":1029:1063   */\n              dup5\n              swap1\n              mstore\n                /* \"contracts/Crowdsale.sol\":4587:4592  token */\n              swap1\n              swap2\n              and\n              swap1\n                /* \"contracts/Crowdsale.sol\":4587:4601  token.transfer */\n              0xa9059cbb\n              swap1\n                /* \"#utility.yul\":942:960   */\n              0x44\n              add\n                /* \"contracts/Crowdsale.sol\":4587:4629  token.transfer(_beneficiary, _tokenAmount) */\n              0x20\n              mload(0x40)\n              dup1\n              dup4\n              sub\n              dup2\n              0x00\n              dup8\n              dup1\n              extcodesize\n              iszero\n              dup1\n              iszero\n              tag_77\n              jumpi\n              0x00\n              dup1\n              revert\n            tag_77:\n              pop\n              gas\n              call\n              iszero\n              dup1\n              iszero\n              tag_79\n              jumpi\n              returndatasize\n              0x00\n              dup1\n              returndatacopy\n              revert(0x00, returndatasize)\n            tag_79:\n              pop\n              pop\n              pop\n              pop\n              mload(0x40)\n              returndatasize\n              not(0x1f)\n              0x1f\n              dup3\n              add\n              and\n              dup3\n              add\n              dup1\n              0x40\n              mstore\n              pop\n              dup2\n              add\n              swap1\n              tag_50\n              swap2\n              swap1\n              tag_81\n              jump\t// in\n                /* \"#utility.yul\":14:300   */\n            tag_31:\n                /* \"#utility.yul\":73:79   */\n              0x00\n                /* \"#utility.yul\":126:128   */\n              0x20\n                /* \"#utility.yul\":114:123   */\n              dup3\n                /* \"#utility.yul\":105:112   */\n              dup5\n                /* \"#utility.yul\":101:124   */\n              sub\n                /* \"#utility.yul\":97:129   */\n              slt\n                /* \"#utility.yul\":94:96   */\n              iszero\n              tag_84\n              jumpi\n                /* \"#utility.yul\":142:143   */\n              0x00\n                /* \"#utility.yul\":139:140   */\n              dup1\n                /* \"#utility.yul\":132:144   */\n              revert\n                /* \"#utility.yul\":94:96   */\n            tag_84:\n                /* \"#utility.yul\":168:191   */\n              dup2\n              calldataload\n              sub(shl(0xa0, 0x01), 0x01)\n                /* \"#utility.yul\":220:251   */\n              dup2\n              and\n                /* \"#utility.yul\":210:252   */\n              dup2\n              eq\n                /* \"#utility.yul\":200:202   */\n              tag_61\n              jumpi\n                /* \"#utility.yul\":266:267   */\n              0x00\n                /* \"#utility.yul\":263:264   */\n              dup1\n                /* \"#utility.yul\":256:268   */\n              revert\n                /* \"#utility.yul\":305:582   */\n            tag_81:\n                /* \"#utility.yul\":372:378   */\n              0x00\n                /* \"#utility.yul\":425:427   */\n              0x20\n                /* \"#utility.yul\":413:422   */\n              dup3\n                /* \"#utility.yul\":404:411   */\n              dup5\n                /* \"#utility.yul\":400:423   */\n              sub\n                /* \"#utility.yul\":396:428   */\n              slt\n                /* \"#utility.yul\":393:395   */\n              iszero\n              tag_87\n              jumpi\n                /* \"#utility.yul\":441:442   */\n              0x00\n                /* \"#utility.yul\":438:439   */\n              dup1\n                /* \"#utility.yul\":431:443   */\n              revert\n                /* \"#utility.yul\":393:395   */\n            tag_87:\n                /* \"#utility.yul\":473:482   */\n              dup2\n                /* \"#utility.yul\":467:483   */\n              mload\n                /* \"#utility.yul\":526:531   */\n              dup1\n                /* \"#utility.yul\":519:532   */\n              iszero\n                /* \"#utility.yul\":512:533   */\n              iszero\n                /* \"#utility.yul\":505:510   */\n              dup2\n                /* \"#utility.yul\":502:534   */\n              eq\n                /* \"#utility.yul\":492:494   */\n              tag_61\n              jumpi\n                /* \"#utility.yul\":548:549   */\n              0x00\n                /* \"#utility.yul\":545:546   */\n              dup1\n                /* \"#utility.yul\":538:550   */\n              revert\n                /* \"#utility.yul\":1730:1858   */\n            tag_62:\n                /* \"#utility.yul\":1770:1773   */\n              0x00\n                /* \"#utility.yul\":1801:1802   */\n              dup3\n                /* \"#utility.yul\":1797:1803   */\n              not\n                /* \"#utility.yul\":1794:1795   */\n              dup3\n                /* \"#utility.yul\":1791:1804   */\n              gt\n                /* \"#utility.yul\":1788:1790   */\n              iszero\n              tag_96\n              jumpi\n                /* \"#utility.yul\":1807:1825   */\n              tag_96\n              tag_97\n              jump\t// in\n            tag_96:\n              pop\n                /* \"#utility.yul\":1843:1852   */\n              add\n              swap1\n                /* \"#utility.yul\":1778:1858   */\n              jump\t// out\n                /* \"#utility.yul\":1863:2031   */\n            tag_73:\n                /* \"#utility.yul\":1903:1910   */\n              0x00\n                /* \"#utility.yul\":1969:1970   */\n              dup2\n                /* \"#utility.yul\":1965:1966   */\n              0x00\n                /* \"#utility.yul\":1961:1967   */\n              not\n                /* \"#utility.yul\":1957:1971   */\n              div\n                /* \"#utility.yul\":1954:1955   */\n              dup4\n                /* \"#utility.yul\":1951:1972   */\n              gt\n                /* \"#utility.yul\":1946:1947   */\n              dup3\n                /* \"#utility.yul\":1939:1948   */\n              iszero\n                /* \"#utility.yul\":1932:1949   */\n              iszero\n                /* \"#utility.yul\":1928:1973   */\n              and\n                /* \"#utility.yul\":1925:1927   */\n              iszero\n              tag_100\n              jumpi\n                /* \"#utility.yul\":1976:1994   */\n              tag_100\n              tag_97\n              jump\t// in\n            tag_100:\n              pop\n                /* \"#utility.yul\":2016:2025   */\n              mul\n              swap1\n                /* \"#utility.yul\":1915:2031   */\n              jump\t// out\n                /* \"#utility.yul\":2036:2163   */\n            tag_97:\n                /* \"#utility.yul\":2097:2107   */\n              0x4e487b71\n                /* \"#utility.yul\":2092:2095   */\n              0xe0\n                /* \"#utility.yul\":2088:2108   */\n              shl\n                /* \"#utility.yul\":2085:2086   */\n              0x00\n                /* \"#utility.yul\":2078:2109   */\n              mstore\n                /* \"#utility.yul\":2128:2132   */\n              0x11\n                /* \"#utility.yul\":2125:2126   */\n              0x04\n                /* \"#utility.yul\":2118:2133   */\n              mstore\n                /* \"#utility.yul\":2152:2156   */\n              0x24\n                /* \"#utility.yul\":2149:2150   */\n              0x00\n                /* \"#utility.yul\":2142:2157   */\n              revert\n\n            auxdata: 0xa264697066735822122074fabfe1782544237d2815280b75efb7ce1463d874ee8c6fdee433ce58bddadb64736f6c63430008060033\n        }\n    }\n\n    auxdata: 0xa2646970667358221220be50c8a65caf871ae159ad970dce163a11af26e062a349f07d3d6a7653a11e7b64736f6c63430008060033\n}\n",
				"bytecode": {
					"linkReferences": {},
					"object": "608060405234801561001057600080fd5b5061001a3361001f565b61006f565b600080546001600160a01b038381166001600160a01b0319831681178455604051919092169283917f8be0079c531659141344cd1fd0a4f28419497f9722a3daafe3b4186f6b6457e09190a35050565b610a1e8061007e6000396000f3fe608060405234801561001057600080fd5b50600436106100575760003560e01c8063715018a61461005c5780638da5cb5b14610066578063ee323eca14610086578063f0e24a4014610099578063f2fde38b146100ae575b600080fd5b6100646100c1565b005b6000546040516001600160a01b0390911681526020015b60405180910390f35b610064610094366004610439565b6100d5565b6100a16101db565b60405161007d919061047b565b6100646100bc366004610415565b6102e0565b6100c961035e565b6100d360006103b8565b565b60018054600091826100e6836104ed565b9091555060008181526002602081905260409182902080546001600160a01b038088166001600160a01b0319928316178355600183018a90559282018054938916939091169290921790915590519192509085908590859061014790610408565b9283526001600160a01b039182166020840152166040820152606001604051809103906000f08015801561017f573d6000803e3d6000fd5b506003820180546001600160a01b0319166001600160a01b039290921691821790556040519081527f87bf7513da32df063aa08a31dcfc40284567075208515fcb6d35bbdcc47447369060200160405180910390a15050505050565b606060015467ffffffffffffffff8111156101f8576101f861052c565b60405190808252806020026020018201604052801561024a57816020015b6040805160808101825260008082526020808301829052928201819052606082015282526000199092019101816102165790505b50905060005b6001548110156102dc57600081815260026020818152604092839020835160808101855281546001600160a01b03908116825260018301549382019390935292810154821693830193909352600390920154909116606082015282518390839081106102be576102be610516565b602002602001018190525080806102d4906104ed565b915050610250565b5090565b6102e861035e565b6001600160a01b0381166103525760405162461bcd60e51b815260206004820152602660248201527f4f776e61626c653a206e6577206f776e657220697320746865207a65726f206160448201526564647265737360d01b60648201526084015b60405180910390fd5b61035b816103b8565b50565b6000546001600160a01b031633146100d35760405162461bcd60e51b815260206004820181905260248201527f4f776e61626c653a2063616c6c6572206973206e6f7420746865206f776e65726044820152606401610349565b600080546001600160a01b038381166001600160a01b0319831681178455604051919092169283917f8be0079c531659141344cd1fd0a4f28419497f9722a3daafe3b4186f6b6457e09190a35050565b6104918061055883390190565b60006020828403121561042757600080fd5b813561043281610542565b9392505050565b60008060006060848603121561044e57600080fd5b83359250602084013561046081610542565b9150604084013561047081610542565b809150509250925092565b602080825282518282018190526000919060409081850190868401855b828110156104e057815180516001600160a01b039081168652878201518887015286820151811687870152606091820151169085015260809093019290850190600101610498565b5091979650505050505050565b600060001982141561050f57634e487b7160e01b600052601160045260246000fd5b5060010190565b634e487b7160e01b600052603260045260246000fd5b634e487b7160e01b600052604160045260246000fd5b6001600160a01b038116811461035b57600080fdfe608060405234801561001057600080fd5b5060405161049138038061049183398101604081905261002f91610099565b6000831161003c57600080fd5b6001600160a01b03821661004f57600080fd5b6001600160a01b03811661006257600080fd5b600292909255600180546001600160a01b039283166001600160a01b031991821617909155600080549290931691161790556100f4565b6000806000606084860312156100ae57600080fd5b8351925060208401516100c0816100dc565b60408501519092506100d1816100dc565b809150509250925092565b6001600160a01b03811681146100f157600080fd5b50565b61038e806101036000396000f3fe60806040526004361061004e5760003560e01c80632c4e722e146100675780634042b66f14610090578063521eb273146100a6578063ec8ac4d8146100de578063fc0c546a146100f15761005e565b3661005e5761005c33610111565b005b61005c33610111565b34801561007357600080fd5b5061007d60025481565b6040519081526020015b60405180910390f35b34801561009c57600080fd5b5061007d60035481565b3480156100b257600080fd5b506001546100c6906001600160a01b031681565b6040516001600160a01b039091168152602001610087565b61005c6100ec3660046102c0565b610111565b3480156100fd57600080fd5b506000546100c6906001600160a01b031681565b3461011c8282610197565b6000610127826101b8565b60035490915061013790836101d5565b60035561014483826101e8565b60408051838152602081018390526001600160a01b0385169133917f623b3804fa71d67900d064613da8f94b9617215ee90799290593e1745087ad18910160405180910390a36101926101f2565b505050565b6001600160a01b0382166101aa57600080fd5b806101b457600080fd5b5050565b60006101cf6002548361022e90919063ffffffff16565b92915050565b60006101e1828461030b565b9392505050565b6101b4828261023a565b6001546040516001600160a01b03909116903480156108fc02916000818181858888f1935050505015801561022b573d6000803e3d6000fd5b50565b60006101e18284610323565b60005460405163a9059cbb60e01b81526001600160a01b038481166004830152602482018490529091169063a9059cbb90604401602060405180830381600087803b15801561028857600080fd5b505af115801561029c573d6000803e3d6000fd5b505050506040513d601f19601f8201168201806040525081019061019291906102e9565b6000602082840312156102d257600080fd5b81356001600160a01b03811681146101e157600080fd5b6000602082840312156102fb57600080fd5b815180151581146101e157600080fd5b6000821982111561031e5761031e610342565b500190565b600081600019048311821515161561033d5761033d610342565b500290565b634e487b7160e01b600052601160045260246000fdfea264697066735822122074fabfe1782544237d2815280b75efb7ce1463d874ee8c6fdee433ce58bddadb64736f6c63430008060033a2646970667358221220be50c8a65caf871ae159ad970dce163a11af26e062a349f07d3d6a7653a11e7b64736f6c63430008060033",
					"opcodes": "PUSH1 0x80 PUSH1 0x40 MSTORE CALLVALUE DUP1 ISZERO PUSH2 0x10 JUMPI PUSH1 0x0 DUP1 REVERT JUMPDEST POP PUSH2 0x1A CALLER PUSH2 0x1F JUMP JUMPDEST PUSH2 0x6F JUMP JUMPDEST PUSH1 0x0 DUP1 SLOAD PUSH1 0x1 PUSH1 0x1 PUSH1 0xA0 SHL SUB DUP4 DUP2 AND PUSH1 0x1 PUSH1 0x1 PUSH1 0xA0 SHL SUB NOT DUP4 AND DUP2 OR DUP5 SSTORE PUSH1 0x40 MLOAD SWAP2 SWAP1 SWAP3 AND SWAP3 DUP4 SWAP2 PUSH32 0x8BE0079C531659141344CD1FD0A4F28419497F9722A3DAAFE3B4186F6B6457E0 SWAP2 SWAP1 LOG3 POP POP JUMP JUMPDEST PUSH2 0xA1E DUP1 PUSH2 0x7E PUSH1 0x0 CODECOPY PUSH1 0x0 RETURN INVALID PUSH1 0x80 PUSH1 0x40 MSTORE CALLVALUE DUP1 ISZERO PUSH2 0x10 JUMPI PUSH1 0x0 DUP1 REVERT JUMPDEST POP PUSH1 0x4 CALLDATASIZE LT PUSH2 0x57 JUMPI PUSH1 0x0 CALLDATALOAD PUSH1 0xE0 SHR DUP1 PUSH4 0x715018A6 EQ PUSH2 0x5C JUMPI DUP1 PUSH4 0x8DA5CB5B EQ PUSH2 0x66 JUMPI DUP1 PUSH4 0xEE323ECA EQ PUSH2 0x86 JUMPI DUP1 PUSH4 0xF0E24A40 EQ PUSH2 0x99 JUMPI DUP1 PUSH4 0xF2FDE38B EQ PUSH2 0xAE JUMPI JUMPDEST PUSH1 0x0 DUP1 REVERT JUMPDEST PUSH2 0x64 PUSH2 0xC1 JUMP JUMPDEST STOP JUMPDEST PUSH1 0x0 SLOAD PUSH1 0x40 MLOAD PUSH1 0x1 PUSH1 0x1 PUSH1 0xA0 SHL SUB SWAP1 SWAP2 AND DUP2 MSTORE PUSH1 0x20 ADD JUMPDEST PUSH1 0x40 MLOAD DUP1 SWAP2 SUB SWAP1 RETURN JUMPDEST PUSH2 0x64 PUSH2 0x94 CALLDATASIZE PUSH1 0x4 PUSH2 0x439 JUMP JUMPDEST PUSH2 0xD5 JUMP JUMPDEST PUSH2 0xA1 PUSH2 0x1DB JUMP JUMPDEST PUSH1 0x40 MLOAD PUSH2 0x7D SWAP2 SWAP1 PUSH2 0x47B JUMP JUMPDEST PUSH2 0x64 PUSH2 0xBC CALLDATASIZE PUSH1 0x4 PUSH2 0x415 JUMP JUMPDEST PUSH2 0x2E0 JUMP JUMPDEST PUSH2 0xC9 PUSH2 0x35E JUMP JUMPDEST PUSH2 0xD3 PUSH1 0x0 PUSH2 0x3B8 JUMP JUMPDEST JUMP JUMPDEST PUSH1 0x1 DUP1 SLOAD PUSH1 0x0 SWAP2 DUP3 PUSH2 0xE6 DUP4 PUSH2 0x4ED JUMP JUMPDEST SWAP1 SWAP2 SSTORE POP PUSH1 0x0 DUP2 DUP2 MSTORE PUSH1 0x2 PUSH1 0x20 DUP2 SWAP1 MSTORE PUSH1 0x40 SWAP2 DUP3 SWAP1 KECCAK256 DUP1 SLOAD PUSH1 0x1 PUSH1 0x1 PUSH1 0xA0 SHL SUB DUP1 DUP9 AND PUSH1 0x1 PUSH1 0x1 PUSH1 0xA0 SHL SUB NOT SWAP3 DUP4 AND OR DUP4 SSTORE PUSH1 0x1 DUP4 ADD DUP11 SWAP1 SSTORE SWAP3 DUP3 ADD DUP1 SLOAD SWAP4 DUP10 AND SWAP4 SWAP1 SWAP2 AND SWAP3 SWAP1 SWAP3 OR SWAP1 SWAP2 SSTORE SWAP1 MLOAD SWAP2 SWAP3 POP SWAP1 DUP6 SWAP1 DUP6 SWAP1 DUP6 SWAP1 PUSH2 0x147 SWAP1 PUSH2 0x408 JUMP JUMPDEST SWAP3 DUP4 MSTORE PUSH1 0x1 PUSH1 0x1 PUSH1 0xA0 SHL SUB SWAP2 DUP3 AND PUSH1 0x20 DUP5 ADD MSTORE AND PUSH1 0x40 DUP3 ADD MSTORE PUSH1 0x60 ADD PUSH1 0x40 MLOAD DUP1 SWAP2 SUB SWAP1 PUSH1 0x0 CREATE DUP1 ISZERO DUP1 ISZERO PUSH2 0x17F JUMPI RETURNDATASIZE PUSH1 0x0 DUP1 RETURNDATACOPY RETURNDATASIZE PUSH1 0x0 REVERT JUMPDEST POP PUSH1 0x3 DUP3 ADD DUP1 SLOAD PUSH1 0x1 PUSH1 0x1 PUSH1 0xA0 SHL SUB NOT AND PUSH1 0x1 PUSH1 0x1 PUSH1 0xA0 SHL SUB SWAP3 SWAP1 SWAP3 AND SWAP2 DUP3 OR SWAP1 SSTORE PUSH1 0x40 MLOAD SWAP1 DUP2 MSTORE PUSH32 0x87BF7513DA32DF063AA08A31DCFC40284567075208515FCB6D35BBDCC4744736 SWAP1 PUSH1 0x20 ADD PUSH1 0x40 MLOAD DUP1 SWAP2 SUB SWAP1 LOG1 POP POP POP POP POP JUMP JUMPDEST PUSH1 0x60 PUSH1 0x1 SLOAD PUSH8 0xFFFFFFFFFFFFFFFF DUP2 GT ISZERO PUSH2 0x1F8 JUMPI PUSH2 0x1F8 PUSH2 0x52C JUMP JUMPDEST PUSH1 0x40 MLOAD SWAP1 DUP1 DUP3 MSTORE DUP1 PUSH1 0x20 MUL PUSH1 0x20 ADD DUP3 ADD PUSH1 0x40 MSTORE DUP1 ISZERO PUSH2 0x24A JUMPI DUP2 PUSH1 0x20 ADD JUMPDEST PUSH1 0x40 DUP1 MLOAD PUSH1 0x80 DUP2 ADD DUP3 MSTORE PUSH1 0x0 DUP1 DUP3 MSTORE PUSH1 0x20 DUP1 DUP4 ADD DUP3 SWAP1 MSTORE SWAP3 DUP3 ADD DUP2 SWAP1 MSTORE PUSH1 0x60 DUP3 ADD MSTORE DUP3 MSTORE PUSH1 0x0 NOT SWAP1 SWAP3 ADD SWAP2 ADD DUP2 PUSH2 0x216 JUMPI SWAP1 POP JUMPDEST POP SWAP1 POP PUSH1 0x0 JUMPDEST PUSH1 0x1 SLOAD DUP2 LT ISZERO PUSH2 0x2DC JUMPI PUSH1 0x0 DUP2 DUP2 MSTORE PUSH1 0x2 PUSH1 0x20 DUP2 DUP2 MSTORE PUSH1 0x40 SWAP3 DUP4 SWAP1 KECCAK256 DUP4 MLOAD PUSH1 0x80 DUP2 ADD DUP6 MSTORE DUP2 SLOAD PUSH1 0x1 PUSH1 0x1 PUSH1 0xA0 SHL SUB SWAP1 DUP2 AND DUP3 MSTORE PUSH1 0x1 DUP4 ADD SLOAD SWAP4 DUP3 ADD SWAP4 SWAP1 SWAP4 MSTORE SWAP3 DUP2 ADD SLOAD DUP3 AND SWAP4 DUP4 ADD SWAP4 SWAP1 SWAP4 MSTORE PUSH1 0x3 SWAP1 SWAP3 ADD SLOAD SWAP1 SWAP2 AND PUSH1 0x60 DUP3 ADD MSTORE DUP3 MLOAD DUP4 SWAP1 DUP4 SWAP1 DUP2 LT PUSH2 0x2BE JUMPI PUSH2 0x2BE PUSH2 0x516 JUMP JUMPDEST PUSH1 0x20 MUL PUSH1 0x20 ADD ADD DUP2 SWAP1 MSTORE POP DUP1 DUP1 PUSH2 0x2D4 SWAP1 PUSH2 0x4ED JUMP JUMPDEST SWAP2 POP POP PUSH2 0x250 JUMP JUMPDEST POP SWAP1 JUMP JUMPDEST PUSH2 0x2E8 PUSH2 0x35E JUMP JUMPDEST PUSH1 0x1 PUSH1 0x1 PUSH1 0xA0 SHL SUB DUP2 AND PUSH2 0x352 JUMPI PUSH1 0x40 MLOAD PUSH3 0x461BCD PUSH1 0xE5 SHL DUP2 MSTORE PUSH1 0x20 PUSH1 0x4 DUP3 ADD MSTORE PUSH1 0x26 PUSH1 0x24 DUP3 ADD MSTORE PUSH32 0x4F776E61626C653A206E6577206F776E657220697320746865207A65726F2061 PUSH1 0x44 DUP3 ADD MSTORE PUSH6 0x646472657373 PUSH1 0xD0 SHL PUSH1 0x64 DUP3 ADD MSTORE PUSH1 0x84 ADD JUMPDEST PUSH1 0x40 MLOAD DUP1 SWAP2 SUB SWAP1 REVERT JUMPDEST PUSH2 0x35B DUP2 PUSH2 0x3B8 JUMP JUMPDEST POP JUMP JUMPDEST PUSH1 0x0 SLOAD PUSH1 0x1 PUSH1 0x1 PUSH1 0xA0 SHL SUB AND CALLER EQ PUSH2 0xD3 JUMPI PUSH1 0x40 MLOAD PUSH3 0x461BCD PUSH1 0xE5 SHL DUP2 MSTORE PUSH1 0x20 PUSH1 0x4 DUP3 ADD DUP2 SWAP1 MSTORE PUSH1 0x24 DUP3 ADD MSTORE PUSH32 0x4F776E61626C653A2063616C6C6572206973206E6F7420746865206F776E6572 PUSH1 0x44 DUP3 ADD MSTORE PUSH1 0x64 ADD PUSH2 0x349 JUMP JUMPDEST PUSH1 0x0 DUP1 SLOAD PUSH1 0x1 PUSH1 0x1 PUSH1 0xA0 SHL SUB DUP4 DUP2 AND PUSH1 0x1 PUSH1 0x1 PUSH1 0xA0 SHL SUB NOT DUP4 AND DUP2 OR DUP5 SSTORE PUSH1 0x40 MLOAD SWAP2 SWAP1 SWAP3 AND SWAP3 DUP4 SWAP2 PUSH32 0x8BE0079C531659141344CD1FD0A4F28419497F9722A3DAAFE3B4186F6B6457E0 SWAP2 SWAP1 LOG3 POP POP JUMP JUMPDEST PUSH2 0x491 DUP1 PUSH2 0x558 DUP4 CODECOPY ADD SWAP1 JUMP JUMPDEST PUSH1 0x0 PUSH1 0x20 DUP3 DUP5 SUB SLT ISZERO PUSH2 0x427 JUMPI PUSH1 0x0 DUP1 REVERT JUMPDEST DUP2 CALLDATALOAD PUSH2 0x432 DUP2 PUSH2 0x542 JUMP JUMPDEST SWAP4 SWAP3 POP POP POP JUMP JUMPDEST PUSH1 0x0 DUP1 PUSH1 0x0 PUSH1 0x60 DUP5 DUP7 SUB SLT ISZERO PUSH2 0x44E JUMPI PUSH1 0x0 DUP1 REVERT JUMPDEST DUP4 CALLDATALOAD SWAP3 POP PUSH1 0x20 DUP5 ADD CALLDATALOAD PUSH2 0x460 DUP2 PUSH2 0x542 JUMP JUMPDEST SWAP2 POP PUSH1 0x40 DUP5 ADD CALLDATALOAD PUSH2 0x470 DUP2 PUSH2 0x542 JUMP JUMPDEST DUP1 SWAP2 POP POP SWAP3 POP SWAP3 POP SWAP3 JUMP JUMPDEST PUSH1 0x20 DUP1 DUP3 MSTORE DUP3 MLOAD DUP3 DUP3 ADD DUP2 SWAP1 MSTORE PUSH1 0x0 SWAP2 SWAP1 PUSH1 0x40 SWAP1 DUP2 DUP6 ADD SWAP1 DUP7 DUP5 ADD DUP6 JUMPDEST DUP3 DUP2 LT ISZERO PUSH2 0x4E0 JUMPI DUP2 MLOAD DUP1 MLOAD PUSH1 0x1 PUSH1 0x1 PUSH1 0xA0 SHL SUB SWAP1 DUP2 AND DUP7 MSTORE DUP8 DUP3 ADD MLOAD DUP9 DUP8 ADD MSTORE DUP7 DUP3 ADD MLOAD DUP2 AND DUP8 DUP8 ADD MSTORE PUSH1 0x60 SWAP2 DUP3 ADD MLOAD AND SWAP1 DUP6 ADD MSTORE PUSH1 0x80 SWAP1 SWAP4 ADD SWAP3 SWAP1 DUP6 ADD SWAP1 PUSH1 0x1 ADD PUSH2 0x498 JUMP JUMPDEST POP SWAP2 SWAP8 SWAP7 POP POP POP POP POP POP POP JUMP JUMPDEST PUSH1 0x0 PUSH1 0x0 NOT DUP3 EQ ISZERO PUSH2 0x50F JUMPI PUSH4 0x4E487B71 PUSH1 0xE0 SHL PUSH1 0x0 MSTORE PUSH1 0x11 PUSH1 0x4 MSTORE PUSH1 0x24 PUSH1 0x0 REVERT JUMPDEST POP PUSH1 0x1 ADD SWAP1 JUMP JUMPDEST PUSH4 0x4E487B71 PUSH1 0xE0 SHL PUSH1 0x0 MSTORE PUSH1 0x32 PUSH1 0x4 MSTORE PUSH1 0x24 PUSH1 0x0 REVERT JUMPDEST PUSH4 0x4E487B71 PUSH1 0xE0 SHL PUSH1 0x0 MSTORE PUSH1 0x41 PUSH1 0x4 MSTORE PUSH1 0x24 PUSH1 0x0 REVERT JUMPDEST PUSH1 0x1 PUSH1 0x1 PUSH1 0xA0 SHL SUB DUP2 AND DUP2 EQ PUSH2 0x35B JUMPI PUSH1 0x0 DUP1 REVERT INVALID PUSH1 0x80 PUSH1 0x40 MSTORE CALLVALUE DUP1 ISZERO PUSH2 0x10 JUMPI PUSH1 0x0 DUP1 REVERT JUMPDEST POP PUSH1 0x40 MLOAD PUSH2 0x491 CODESIZE SUB DUP1 PUSH2 0x491 DUP4 CODECOPY DUP2 ADD PUSH1 0x40 DUP2 SWAP1 MSTORE PUSH2 0x2F SWAP2 PUSH2 0x99 JUMP JUMPDEST PUSH1 0x0 DUP4 GT PUSH2 0x3C JUMPI PUSH1 0x0 DUP1 REVERT JUMPDEST PUSH1 0x1 PUSH1 0x1 PUSH1 0xA0 SHL SUB DUP3 AND PUSH2 0x4F JUMPI PUSH1 0x0 DUP1 REVERT JUMPDEST PUSH1 0x1 PUSH1 0x1 PUSH1 0xA0 SHL SUB DUP2 AND PUSH2 0x62 JUMPI PUSH1 0x0 DUP1 REVERT JUMPDEST PUSH1 0x2 SWAP3 SWAP1 SWAP3 SSTORE PUSH1 0x1 DUP1 SLOAD PUSH1 0x1 PUSH1 0x1 PUSH1 0xA0 SHL SUB SWAP3 DUP4 AND PUSH1 0x1 PUSH1 0x1 PUSH1 0xA0 SHL SUB NOT SWAP2 DUP3 AND OR SWAP1 SWAP2 SSTORE PUSH1 0x0 DUP1 SLOAD SWAP3 SWAP1 SWAP4 AND SWAP2 AND OR SWAP1 SSTORE PUSH2 0xF4 JUMP JUMPDEST PUSH1 0x0 DUP1 PUSH1 0x0 PUSH1 0x60 DUP5 DUP7 SUB SLT ISZERO PUSH2 0xAE JUMPI PUSH1 0x0 DUP1 REVERT JUMPDEST DUP4 MLOAD SWAP3 POP PUSH1 0x20 DUP5 ADD MLOAD PUSH2 0xC0 DUP2 PUSH2 0xDC JUMP JUMPDEST PUSH1 0x40 DUP6 ADD MLOAD SWAP1 SWAP3 POP PUSH2 0xD1 DUP2 PUSH2 0xDC JUMP JUMPDEST DUP1 SWAP2 POP POP SWAP3 POP SWAP3 POP SWAP3 JUMP JUMPDEST PUSH1 0x1 PUSH1 0x1 PUSH1 0xA0 SHL SUB DUP2 AND DUP2 EQ PUSH2 0xF1 JUMPI PUSH1 0x0 DUP1 REVERT JUMPDEST POP JUMP JUMPDEST PUSH2 0x38E DUP1 PUSH2 0x103 PUSH1 0x0 CODECOPY PUSH1 0x0 RETURN INVALID PUSH1 0x80 PUSH1 0x40 MSTORE PUSH1 0x4 CALLDATASIZE LT PUSH2 0x4E JUMPI PUSH1 0x0 CALLDATALOAD PUSH1 0xE0 SHR DUP1 PUSH4 0x2C4E722E EQ PUSH2 0x67 JUMPI DUP1 PUSH4 0x4042B66F EQ PUSH2 0x90 JUMPI DUP1 PUSH4 0x521EB273 EQ PUSH2 0xA6 JUMPI DUP1 PUSH4 0xEC8AC4D8 EQ PUSH2 0xDE JUMPI DUP1 PUSH4 0xFC0C546A EQ PUSH2 0xF1 JUMPI PUSH2 0x5E JUMP JUMPDEST CALLDATASIZE PUSH2 0x5E JUMPI PUSH2 0x5C CALLER PUSH2 0x111 JUMP JUMPDEST STOP JUMPDEST PUSH2 0x5C CALLER PUSH2 0x111 JUMP JUMPDEST CALLVALUE DUP1 ISZERO PUSH2 0x73 JUMPI PUSH1 0x0 DUP1 REVERT JUMPDEST POP PUSH2 0x7D PUSH1 0x2 SLOAD DUP2 JUMP JUMPDEST PUSH1 0x40 MLOAD SWAP1 DUP2 MSTORE PUSH1 0x20 ADD JUMPDEST PUSH1 0x40 MLOAD DUP1 SWAP2 SUB SWAP1 RETURN JUMPDEST CALLVALUE DUP1 ISZERO PUSH2 0x9C JUMPI PUSH1 0x0 DUP1 REVERT JUMPDEST POP PUSH2 0x7D PUSH1 0x3 SLOAD DUP2 JUMP JUMPDEST CALLVALUE DUP1 ISZERO PUSH2 0xB2 JUMPI PUSH1 0x0 DUP1 REVERT JUMPDEST POP PUSH1 0x1 SLOAD PUSH2 0xC6 SWAP1 PUSH1 0x1 PUSH1 0x1 PUSH1 0xA0 SHL SUB AND DUP2 JUMP JUMPDEST PUSH1 0x40 MLOAD PUSH1 0x1 PUSH1 0x1 PUSH1 0xA0 SHL SUB SWAP1 SWAP2 AND DUP2 MSTORE PUSH1 0x20 ADD PUSH2 0x87 JUMP JUMPDEST PUSH2 0x5C PUSH2 0xEC CALLDATASIZE PUSH1 0x4 PUSH2 0x2C0 JUMP JUMPDEST PUSH2 0x111 JUMP JUMPDEST CALLVALUE DUP1 ISZERO PUSH2 0xFD JUMPI PUSH1 0x0 DUP1 REVERT JUMPDEST POP PUSH1 0x0 SLOAD PUSH2 0xC6 SWAP1 PUSH1 0x1 PUSH1 0x1 PUSH1 0xA0 SHL SUB AND DUP2 JUMP JUMPDEST CALLVALUE PUSH2 0x11C DUP3 DUP3 PUSH2 0x197 JUMP JUMPDEST PUSH1 0x0 PUSH2 0x127 DUP3 PUSH2 0x1B8 JUMP JUMPDEST PUSH1 0x3 SLOAD SWAP1 SWAP2 POP PUSH2 0x137 SWAP1 DUP4 PUSH2 0x1D5 JUMP JUMPDEST PUSH1 0x3 SSTORE PUSH2 0x144 DUP4 DUP3 PUSH2 0x1E8 JUMP JUMPDEST PUSH1 0x40 DUP1 MLOAD DUP4 DUP2 MSTORE PUSH1 0x20 DUP2 ADD DUP4 SWAP1 MSTORE PUSH1 0x1 PUSH1 0x1 PUSH1 0xA0 SHL SUB DUP6 AND SWAP2 CALLER SWAP2 PUSH32 0x623B3804FA71D67900D064613DA8F94B9617215EE90799290593E1745087AD18 SWAP2 ADD PUSH1 0x40 MLOAD DUP1 SWAP2 SUB SWAP1 LOG3 PUSH2 0x192 PUSH2 0x1F2 JUMP JUMPDEST POP POP POP JUMP JUMPDEST PUSH1 0x1 PUSH1 0x1 PUSH1 0xA0 SHL SUB DUP3 AND PUSH2 0x1AA JUMPI PUSH1 0x0 DUP1 REVERT JUMPDEST DUP1 PUSH2 0x1B4 JUMPI PUSH1 0x0 DUP1 REVERT JUMPDEST POP POP JUMP JUMPDEST PUSH1 0x0 PUSH2 0x1CF PUSH1 0x2 SLOAD DUP4 PUSH2 0x22E SWAP1 SWAP2 SWAP1 PUSH4 0xFFFFFFFF AND JUMP JUMPDEST SWAP3 SWAP2 POP POP JUMP JUMPDEST PUSH1 0x0 PUSH2 0x1E1 DUP3 DUP5 PUSH2 0x30B JUMP JUMPDEST SWAP4 SWAP3 POP POP POP JUMP JUMPDEST PUSH2 0x1B4 DUP3 DUP3 PUSH2 0x23A JUMP JUMPDEST PUSH1 0x1 SLOAD PUSH1 0x40 MLOAD PUSH1 0x1 PUSH1 0x1 PUSH1 0xA0 SHL SUB SWAP1 SWAP2 AND SWAP1 CALLVALUE DUP1 ISZERO PUSH2 0x8FC MUL SWAP2 PUSH1 0x0 DUP2 DUP2 DUP2 DUP6 DUP9 DUP9 CALL SWAP4 POP POP POP POP ISZERO DUP1 ISZERO PUSH2 0x22B JUMPI RETURNDATASIZE PUSH1 0x0 DUP1 RETURNDATACOPY RETURNDATASIZE PUSH1 0x0 REVERT JUMPDEST POP JUMP JUMPDEST PUSH1 0x0 PUSH2 0x1E1 DUP3 DUP5 PUSH2 0x323 JUMP JUMPDEST PUSH1 0x0 SLOAD PUSH1 0x40 MLOAD PUSH4 0xA9059CBB PUSH1 0xE0 SHL DUP2 MSTORE PUSH1 0x1 PUSH1 0x1 PUSH1 0xA0 SHL SUB DUP5 DUP2 AND PUSH1 0x4 DUP4 ADD MSTORE PUSH1 0x24 DUP3 ADD DUP5 SWAP1 MSTORE SWAP1 SWAP2 AND SWAP1 PUSH4 0xA9059CBB SWAP1 PUSH1 0x44 ADD PUSH1 0x20 PUSH1 0x40 MLOAD DUP1 DUP4 SUB DUP2 PUSH1 0x0 DUP8 DUP1 EXTCODESIZE ISZERO DUP1 ISZERO PUSH2 0x288 JUMPI PUSH1 0x0 DUP1 REVERT JUMPDEST POP GAS CALL ISZERO DUP1 ISZERO PUSH2 0x29C JUMPI RETURNDATASIZE PUSH1 0x0 DUP1 RETURNDATACOPY RETURNDATASIZE PUSH1 0x0 REVERT JUMPDEST POP POP POP POP PUSH1 0x40 MLOAD RETURNDATASIZE PUSH1 0x1F NOT PUSH1 0x1F DUP3 ADD AND DUP3 ADD DUP1 PUSH1 0x40 MSTORE POP DUP2 ADD SWAP1 PUSH2 0x192 SWAP2 SWAP1 PUSH2 0x2E9 JUMP JUMPDEST PUSH1 0x0 PUSH1 0x20 DUP3 DUP5 SUB SLT ISZERO PUSH2 0x2D2 JUMPI PUSH1 0x0 DUP1 REVERT JUMPDEST DUP2 CALLDATALOAD PUSH1 0x1 PUSH1 0x1 PUSH1 0xA0 SHL SUB DUP2 AND DUP2 EQ PUSH2 0x1E1 JUMPI PUSH1 0x0 DUP1 REVERT JUMPDEST PUSH1 0x0 PUSH1 0x20 DUP3 DUP5 SUB SLT ISZERO PUSH2 0x2FB JUMPI PUSH1 0x0 DUP1 REVERT JUMPDEST DUP2 MLOAD DUP1 ISZERO ISZERO DUP2 EQ PUSH2 0x1E1 JUMPI PUSH1 0x0 DUP1 REVERT JUMPDEST PUSH1 0x0 DUP3 NOT DUP3 GT ISZERO PUSH2 0x31E JUMPI PUSH2 0x31E PUSH2 0x342 JUMP JUMPDEST POP ADD SWAP1 JUMP JUMPDEST PUSH1 0x0 DUP2 PUSH1 0x0 NOT DIV DUP4 GT DUP3 ISZERO ISZERO AND ISZERO PUSH2 0x33D JUMPI PUSH2 0x33D PUSH2 0x342 JUMP JUMPDEST POP MUL SWAP1 JUMP JUMPDEST PUSH4 0x4E487B71 PUSH1 0xE0 SHL PUSH1 0x0 MSTORE PUSH1 0x11 PUSH1 0x4 MSTORE PUSH1 0x24 PUSH1 0x0 REVERT INVALID LOG2 PUSH5 0x6970667358 0x22 SLT KECCAK256 PUSH21 0xFABFE1782544237D2815280B75EFB7CE1463D874EE DUP13 PUSH16 0xDEE433CE58BDDADB64736F6C63430008 MOD STOP CALLER LOG2 PUSH5 0x6970667358 0x22 SLT KECCAK256 0xBE POP 0xC8 0xA6 0x5C 0xAF DUP8 BYTE 0xE1 MSIZE 0xAD SWAP8 0xD 0xCE AND GASPRICE GT 0xAF 0x26 0xE0 PUSH3 0xA349F0 PUSH30 0x3D6A7653A11E7B64736F6C63430008060033000000000000000000000000 "
				},
				"gasEstimates": {
					"creation": {
						"codeDepositCost": "518000",
						"executionCost": "26390",
						"totalCost": "544390"
					},
					"external": {
						"createCrowdSale(uint256,address,address)": "infinite",
						"getAllDeployedProjects()": "infinite",
						"owner()": "2290",
						"renounceOwnership()": "infinite",
						"transferOwnership(address)": "infinite"
					}
				},
				"methodIdentifiers": {
					"createCrowdSale(uint256,address,address)": "ee323eca",
					"getAllDeployedProjects()": "f0e24a40",
					"owner()": "8da5cb5b",
					"renounceOwnership()": "715018a6",
					"transferOwnership(address)": "f2fde38b"
				}
			},
			"storageLayout": {
				"storage": [
					{
						"astId": 7,
						"contract": "contracts/CrowdsaleFactory.sol:CrowdsaleFactory",
						"label": "_owner",
						"offset": 0,
						"slot": "0",
						"type": "t_address"
					},
					{
						"astId": 1398,
						"contract": "contracts/CrowdsaleFactory.sol:CrowdsaleFactory",
						"label": "numOfCrowdsale",
						"offset": 0,
						"slot": "1",
						"type": "t_uint256"
					},
					{
						"astId": 1413,
						"contract": "contracts/CrowdsaleFactory.sol:CrowdsaleFactory",
						"label": "deployedCrowdsale",
						"offset": 0,
						"slot": "2",
						"type": "t_mapping(t_uint256,t_struct(crowdsaleMeta)1408_storage)"
					}
				],
				"types": {
					"t_address": {
						"encoding": "inplace",
						"label": "address",
						"numberOfBytes": "20"
					},
					"t_contract(ERC20)698": {
						"encoding": "inplace",
						"label": "contract ERC20",
						"numberOfBytes": "20"
					},
					"t_mapping(t_uint256,t_struct(crowdsaleMeta)1408_storage)": {
						"encoding": "mapping",
						"key": "t_uint256",
						"label": "mapping(uint256 => struct CrowdsaleFactory.crowdsaleMeta)",
						"numberOfBytes": "32",
						"value": "t_struct(crowdsaleMeta)1408_storage"
					},
					"t_struct(crowdsaleMeta)1408_storage": {
						"encoding": "inplace",
						"label": "struct CrowdsaleFactory.crowdsaleMeta",
						"members": [
							{
								"astId": 1401,
								"contract": "contracts/CrowdsaleFactory.sol:CrowdsaleFactory",
								"label": "token",
								"offset": 0,
								"slot": "0",
								"type": "t_contract(ERC20)698"
							},
							{
								"astId": 1403,
								"contract": "contracts/CrowdsaleFactory.sol:CrowdsaleFactory",
								"label": "rate",
								"offset": 0,
								"slot": "1",
								"type": "t_uint256"
							},
							{
								"astId": 1405,
								"contract": "contracts/CrowdsaleFactory.sol:CrowdsaleFactory",
								"label": "beneficiaryAddr",
								"offset": 0,
								"slot": "2",
								"type": "t_address"
							},
							{
								"astId": 1407,
								"contract": "contracts/CrowdsaleFactory.sol:CrowdsaleFactory",
								"label": "crowdsaleContractAddr",
								"offset": 0,
								"slot": "3",
								"type": "t_address"
							}
						],
						"numberOfBytes": "128"
					},
					"t_uint256": {
						"encoding": "inplace",
						"label": "uint256",
						"numberOfBytes": "32"
					}
				}
			},
			"userdoc": {
				"kind": "user",
				"methods": {},
				"version": 1
			}
		}
	}
}