{
	"contracts/GovernorFactory.sol": {
		"GovernorFactory": {
			"abi": [
				{
					"anonymous": false,
					"inputs": [
						{
							"indexed": true,
							"internalType": "address",
							"name": "previousOwner",
							"type": "address"
						},
						{
							"indexed": true,
							"internalType": "address",
							"name": "newOwner",
							"type": "address"
						}
					],
					"name": "OwnershipTransferred",
					"type": "event"
				},
				{
					"anonymous": false,
					"inputs": [
						{
							"indexed": false,
							"internalType": "address",
							"name": "governor",
							"type": "address"
						}
					],
					"name": "newGovernorCreated",
					"type": "event"
				},
				{
					"inputs": [
						{
							"internalType": "address",
							"name": "_governor",
							"type": "address"
						},
						{
							"internalType": "address",
							"name": "_timelock",
							"type": "address"
						},
						{
							"internalType": "address",
							"name": "_token",
							"type": "address"
						}
					],
					"name": "addGovernorAddress",
					"outputs": [],
					"stateMutability": "nonpayable",
					"type": "function"
				},
				{
					"inputs": [],
					"name": "getAllDeployedGovernor",
					"outputs": [
						{
							"components": [
								{
									"internalType": "address",
									"name": "governor",
									"type": "address"
								},
								{
									"internalType": "address",
									"name": "timelock",
									"type": "address"
								},
								{
									"internalType": "address",
									"name": "token",
									"type": "address"
								}
							],
							"internalType": "struct GovernorFactory.GovernorMeta[]",
							"name": "props",
							"type": "tuple[]"
						}
					],
					"stateMutability": "view",
					"type": "function"
				},
				{
					"inputs": [],
					"name": "owner",
					"outputs": [
						{
							"internalType": "address",
							"name": "",
							"type": "address"
						}
					],
					"stateMutability": "view",
					"type": "function"
				},
				{
					"inputs": [],
					"name": "renounceOwnership",
					"outputs": [],
					"stateMutability": "nonpayable",
					"type": "function"
				},
				{
					"inputs": [
						{
							"internalType": "address",
							"name": "newOwner",
							"type": "address"
						}
					],
					"name": "transferOwnership",
					"outputs": [],
					"stateMutability": "nonpayable",
					"type": "function"
				}
			],
			"devdoc": {
				"kind": "dev",
				"methods": {
					"owner()": {
						"details": "Returns the address of the current owner."
					},
					"renounceOwnership()": {
						"details": "Leaves the contract without owner. It will not be possible to call `onlyOwner` functions anymore. Can only be called by the current owner. NOTE: Renouncing ownership will leave the contract without an owner, thereby removing any functionality that is only available to the owner."
					},
					"transferOwnership(address)": {
						"details": "Transfers ownership of the contract to a new account (`newOwner`). Can only be called by the current owner."
					}
				},
				"version": 1
			},
			"evm": {
				"assembly": "    /* \"contracts/GovernorFactory.sol\":180:1137  contract GovernorFactory is Ownable {... */\n  mstore(0x40, 0x80)\n  callvalue\n  dup1\n  iszero\n  tag_1\n  jumpi\n  0x00\n  dup1\n  revert\ntag_1:\n  pop\n    /* \"@openzeppelin/contracts/access/Ownable.sol\":936:968  _transferOwnership(_msgSender()) */\n  tag_4\n    /* \"@openzeppelin/contracts/utils/Context.sol\":719:729  msg.sender */\n  caller\n    /* \"@openzeppelin/contracts/access/Ownable.sol\":936:954  _transferOwnership */\n  tag_7\n    /* \"@openzeppelin/contracts/access/Ownable.sol\":936:968  _transferOwnership(_msgSender()) */\n  jump\t// in\ntag_4:\n    /* \"contracts/GovernorFactory.sol\":180:1137  contract GovernorFactory is Ownable {... */\n  jump(tag_8)\n    /* \"@openzeppelin/contracts/access/Ownable.sol\":2433:2620  function _transferOwnership(address newOwner) internal virtual {... */\ntag_7:\n    /* \"@openzeppelin/contracts/access/Ownable.sol\":2506:2522  address oldOwner */\n  0x00\n    /* \"@openzeppelin/contracts/access/Ownable.sol\":2525:2531  _owner */\n  dup1\n  sload\n  sub(shl(0xa0, 0x01), 0x01)\n    /* \"@openzeppelin/contracts/access/Ownable.sol\":2541:2558  _owner = newOwner */\n  dup4\n  dup2\n  and\n  not(sub(shl(0xa0, 0x01), 0x01))\n  dup4\n  and\n  dup2\n  or\n  dup5\n  sstore\n    /* \"@openzeppelin/contracts/access/Ownable.sol\":2573:2613  OwnershipTransferred(oldOwner, newOwner) */\n  mload(0x40)\n    /* \"@openzeppelin/contracts/access/Ownable.sol\":2525:2531  _owner */\n  swap2\n  swap1\n  swap3\n  and\n  swap3\n  dup4\n  swap2\n    /* \"@openzeppelin/contracts/access/Ownable.sol\":2573:2613  OwnershipTransferred(oldOwner, newOwner) */\n  0x8be0079c531659141344cd1fd0a4f28419497f9722a3daafe3b4186f6b6457e0\n  swap2\n    /* \"@openzeppelin/contracts/access/Ownable.sol\":2506:2522  address oldOwner */\n  swap1\n    /* \"@openzeppelin/contracts/access/Ownable.sol\":2573:2613  OwnershipTransferred(oldOwner, newOwner) */\n  log3\n    /* \"@openzeppelin/contracts/access/Ownable.sol\":2496:2620  {... */\n  pop\n    /* \"@openzeppelin/contracts/access/Ownable.sol\":2433:2620  function _transferOwnership(address newOwner) internal virtual {... */\n  pop\n  jump\t// out\n    /* \"contracts/GovernorFactory.sol\":180:1137  contract GovernorFactory is Ownable {... */\ntag_8:\n  dataSize(sub_0)\n  dup1\n  dataOffset(sub_0)\n  0x00\n  codecopy\n  0x00\n  return\nstop\n\nsub_0: assembly {\n        /* \"contracts/GovernorFactory.sol\":180:1137  contract GovernorFactory is Ownable {... */\n      mstore(0x40, 0x80)\n      callvalue\n      dup1\n      iszero\n      tag_1\n      jumpi\n      0x00\n      dup1\n      revert\n    tag_1:\n      pop\n      jumpi(tag_2, lt(calldatasize, 0x04))\n      shr(0xe0, calldataload(0x00))\n      dup1\n      0x8da5cb5b\n      gt\n      tag_8\n      jumpi\n      dup1\n      0x8da5cb5b\n      eq\n      tag_5\n      jumpi\n      dup1\n      0xaf800e71\n      eq\n      tag_6\n      jumpi\n      dup1\n      0xf2fde38b\n      eq\n      tag_7\n      jumpi\n      0x00\n      dup1\n      revert\n    tag_8:\n      dup1\n      0x0dab2420\n      eq\n      tag_3\n      jumpi\n      dup1\n      0x715018a6\n      eq\n      tag_4\n      jumpi\n    tag_2:\n      0x00\n      dup1\n      revert\n        /* \"contracts/GovernorFactory.sol\":469:863  function addGovernorAddress(address _governor, address _timelock,address _token ) public {... */\n    tag_3:\n      tag_9\n      tag_10\n      calldatasize\n      0x04\n      tag_11\n      jump\t// in\n    tag_10:\n      tag_12\n      jump\t// in\n    tag_9:\n      stop\n        /* \"@openzeppelin/contracts/access/Ownable.sol\":1831:1932  function renounceOwnership() public virtual onlyOwner {... */\n    tag_4:\n      tag_9\n      tag_14\n      jump\t// in\n        /* \"@openzeppelin/contracts/access/Ownable.sol\":1201:1286  function owner() public view virtual returns (address) {... */\n    tag_5:\n        /* \"@openzeppelin/contracts/access/Ownable.sol\":1247:1254  address */\n      0x00\n        /* \"@openzeppelin/contracts/access/Ownable.sol\":1273:1279  _owner */\n      sload\n        /* \"@openzeppelin/contracts/access/Ownable.sol\":1201:1286  function owner() public view virtual returns (address) {... */\n      mload(0x40)\n        /* \"@openzeppelin/contracts/access/Ownable.sol\":1273:1279  _owner */\n      0xffffffffffffffffffffffffffffffffffffffff\n      swap1\n      swap2\n      and\n        /* \"#utility.yul\":700:774   */\n      dup2\n      mstore\n        /* \"#utility.yul\":688:690   */\n      0x20\n        /* \"#utility.yul\":673:691   */\n      add\n        /* \"@openzeppelin/contracts/access/Ownable.sol\":1201:1286  function owner() public view virtual returns (address) {... */\n    tag_17:\n      mload(0x40)\n      dup1\n      swap2\n      sub\n      swap1\n      return\n        /* \"contracts/GovernorFactory.sol\":869:1135  function getAllDeployedGovernor () public view returns (GovernorMeta[] memory props){... */\n    tag_6:\n      tag_19\n      tag_20\n      jump\t// in\n    tag_19:\n      mload(0x40)\n      tag_17\n      swap2\n      swap1\n      tag_22\n      jump\t// in\n        /* \"@openzeppelin/contracts/access/Ownable.sol\":2081:2279  function transferOwnership(address newOwner) public virtual onlyOwner {... */\n    tag_7:\n      tag_9\n      tag_24\n      calldatasize\n      0x04\n      tag_25\n      jump\t// in\n    tag_24:\n      tag_26\n      jump\t// in\n        /* \"contracts/GovernorFactory.sol\":469:863  function addGovernorAddress(address _governor, address _timelock,address _token ) public {... */\n    tag_12:\n        /* \"contracts/GovernorFactory.sol\":586:600  numOfGovernors */\n      0x01\n        /* \"contracts/GovernorFactory.sol\":586:602  numOfGovernors++ */\n      dup1\n      sload\n        /* \"contracts/GovernorFactory.sol\":568:583  uint governorId */\n      0x00\n      swap2\n      dup3\n        /* \"contracts/GovernorFactory.sol\":586:602  numOfGovernors++ */\n      tag_28\n      dup4\n      tag_29\n      jump\t// in\n    tag_28:\n      swap1\n      swap2\n      sstore\n      pop\n        /* \"contracts/GovernorFactory.sol\":612:648  GovernorMeta storage currentGovernor */\n      0x00\n        /* \"contracts/GovernorFactory.sol\":651:680  deployedContracts[governorId] */\n      dup2\n      dup2\n      mstore\n        /* \"contracts/GovernorFactory.sol\":651:668  deployedContracts */\n      0x02\n        /* \"contracts/GovernorFactory.sol\":651:680  deployedContracts[governorId] */\n      0x20\n      dup2\n      dup2\n      mstore\n      0x40\n      swap3\n      dup4\n      swap1\n      keccak256\n        /* \"contracts/GovernorFactory.sol\":690:726  currentGovernor.governor = _governor */\n      dup1\n      sload\n      0xffffffffffffffffffffffffffffffffffffffff\n      dup11\n      dup2\n      and\n      0xffffffffffffffffffffffff0000000000000000000000000000000000000000\n      swap3\n      dup4\n      and\n      dup2\n      or\n      dup5\n      sstore\n      0x01\n        /* \"contracts/GovernorFactory.sol\":736:760  currentGovernor.timelock */\n      dup5\n      add\n        /* \"contracts/GovernorFactory.sol\":736:772  currentGovernor.timelock = _timelock */\n      dup1\n      sload\n      dup13\n      dup5\n      and\n      swap1\n      dup6\n      and\n      or\n      swap1\n      sstore\n        /* \"contracts/GovernorFactory.sol\":782:803  currentGovernor.token */\n      swap5\n      dup4\n      add\n        /* \"contracts/GovernorFactory.sol\":782:812  currentGovernor.token = _token */\n      dup1\n      sload\n      swap2\n      dup11\n      and\n      swap2\n      swap1\n      swap3\n      and\n      or\n      swap1\n      sstore\n        /* \"contracts/GovernorFactory.sol\":827:856  newGovernorCreated(_governor) */\n      swap3\n      mload\n        /* \"#utility.yul\":700:774   */\n      swap2\n      dup3\n      mstore\n        /* \"contracts/GovernorFactory.sol\":651:680  deployedContracts[governorId] */\n      swap3\n      swap4\n      pop\n      swap1\n      swap2\n        /* \"contracts/GovernorFactory.sol\":827:856  newGovernorCreated(_governor) */\n      0x5cbe3ce075ecdc55e8142db31e6a441bbf67f93d56fcb05ba3c88db57c7f362d\n      swap2\n        /* \"#utility.yul\":673:691   */\n      add\n        /* \"contracts/GovernorFactory.sol\":827:856  newGovernorCreated(_governor) */\n      mload(0x40)\n      dup1\n      swap2\n      sub\n      swap1\n      log1\n        /* \"contracts/GovernorFactory.sol\":558:863  {... */\n      pop\n      pop\n        /* \"contracts/GovernorFactory.sol\":469:863  function addGovernorAddress(address _governor, address _timelock,address _token ) public {... */\n      pop\n      pop\n      pop\n      jump\t// out\n        /* \"@openzeppelin/contracts/access/Ownable.sol\":1831:1932  function renounceOwnership() public virtual onlyOwner {... */\n    tag_14:\n        /* \"@openzeppelin/contracts/access/Ownable.sol\":1094:1107  _checkOwner() */\n      tag_32\n        /* \"@openzeppelin/contracts/access/Ownable.sol\":1094:1105  _checkOwner */\n      tag_33\n        /* \"@openzeppelin/contracts/access/Ownable.sol\":1094:1107  _checkOwner() */\n      jump\t// in\n    tag_32:\n        /* \"@openzeppelin/contracts/access/Ownable.sol\":1895:1925  _transferOwnership(address(0)) */\n      tag_35\n        /* \"@openzeppelin/contracts/access/Ownable.sol\":1922:1923  0 */\n      0x00\n        /* \"@openzeppelin/contracts/access/Ownable.sol\":1895:1913  _transferOwnership */\n      tag_36\n        /* \"@openzeppelin/contracts/access/Ownable.sol\":1895:1925  _transferOwnership(address(0)) */\n      jump\t// in\n    tag_35:\n        /* \"@openzeppelin/contracts/access/Ownable.sol\":1831:1932  function renounceOwnership() public virtual onlyOwner {... */\n      jump\t// out\n        /* \"contracts/GovernorFactory.sol\":869:1135  function getAllDeployedGovernor () public view returns (GovernorMeta[] memory props){... */\n    tag_20:\n        /* \"contracts/GovernorFactory.sol\":925:952  GovernorMeta[] memory props */\n      0x60\n        /* \"contracts/GovernorFactory.sol\":990:1004  numOfGovernors */\n      sload(0x01)\n        /* \"contracts/GovernorFactory.sol\":971:1005  new GovernorMeta[](numOfGovernors) */\n      0xffffffffffffffff\n      dup2\n      gt\n      iszero\n      tag_40\n      jumpi\n      tag_40\n      tag_41\n      jump\t// in\n    tag_40:\n      mload(0x40)\n      swap1\n      dup1\n      dup3\n      mstore\n      dup1\n      0x20\n      mul\n      0x20\n      add\n      dup3\n      add\n      0x40\n      mstore\n      dup1\n      iszero\n      tag_42\n      jumpi\n      dup2\n      0x20\n      add\n    tag_43:\n      0x40\n      dup1\n      mload\n      0x60\n      dup2\n      add\n      dup3\n      mstore\n      0x00\n      dup1\n      dup3\n      mstore\n      0x20\n      dup1\n      dup4\n      add\n      dup3\n      swap1\n      mstore\n      swap3\n      dup3\n      add\n      mstore\n      dup3\n      mstore\n      0xffffffffffffffffffffffffffffffffffffffffffffffffffffffffffffffff\n      swap1\n      swap3\n      add\n      swap2\n      add\n      dup2\n      tag_43\n      jumpi\n      swap1\n      pop\n    tag_42:\n      pop\n        /* \"contracts/GovernorFactory.sol\":963:1005  props = new GovernorMeta[](numOfGovernors) */\n      swap1\n      pop\n        /* \"contracts/GovernorFactory.sol\":1019:1032  uint256 index */\n      0x00\n        /* \"contracts/GovernorFactory.sol\":1015:1129  for(uint256 index=0; index<numOfGovernors; index++){... */\n    tag_46:\n        /* \"contracts/GovernorFactory.sol\":1042:1056  numOfGovernors */\n      sload(0x01)\n        /* \"contracts/GovernorFactory.sol\":1036:1041  index */\n      dup2\n        /* \"contracts/GovernorFactory.sol\":1036:1056  index<numOfGovernors */\n      lt\n        /* \"contracts/GovernorFactory.sol\":1015:1129  for(uint256 index=0; index<numOfGovernors; index++){... */\n      iszero\n      tag_47\n      jumpi\n        /* \"contracts/GovernorFactory.sol\":1094:1118  deployedContracts[index] */\n      0x00\n      dup2\n      dup2\n      mstore\n        /* \"contracts/GovernorFactory.sol\":1094:1111  deployedContracts */\n      0x02\n        /* \"contracts/GovernorFactory.sol\":1094:1118  deployedContracts[index] */\n      0x20\n      dup2\n      dup2\n      mstore\n      0x40\n      swap3\n      dup4\n      swap1\n      keccak256\n        /* \"contracts/GovernorFactory.sol\":1080:1118  props[index]= deployedContracts[index] */\n      dup4\n      mload\n      0x60\n      dup2\n      add\n      dup6\n      mstore\n      dup2\n      sload\n      0xffffffffffffffffffffffffffffffffffffffff\n      swap1\n      dup2\n      and\n      dup3\n      mstore\n      0x01\n      dup4\n      add\n      sload\n      dup2\n      and\n      swap4\n      dup3\n      add\n      swap4\n      swap1\n      swap4\n      mstore\n      swap3\n      add\n      sload\n      and\n      swap2\n      dup2\n      add\n      swap2\n      swap1\n      swap2\n      mstore\n        /* \"contracts/GovernorFactory.sol\":1080:1092  props[index] */\n      dup3\n      mload\n        /* \"contracts/GovernorFactory.sol\":1080:1085  props */\n      dup4\n      swap1\n        /* \"contracts/GovernorFactory.sol\":1112:1117  index */\n      dup4\n      swap1\n        /* \"contracts/GovernorFactory.sol\":1080:1092  props[index] */\n      dup2\n      lt\n      tag_50\n      jumpi\n      tag_50\n      tag_51\n      jump\t// in\n    tag_50:\n      0x20\n      mul\n      0x20\n      add\n      add\n        /* \"contracts/GovernorFactory.sol\":1080:1118  props[index]= deployedContracts[index] */\n      dup2\n      swap1\n      mstore\n      pop\n        /* \"contracts/GovernorFactory.sol\":1058:1065  index++ */\n      dup1\n      dup1\n      tag_52\n      swap1\n      tag_29\n      jump\t// in\n    tag_52:\n      swap2\n      pop\n      pop\n        /* \"contracts/GovernorFactory.sol\":1015:1129  for(uint256 index=0; index<numOfGovernors; index++){... */\n      jump(tag_46)\n    tag_47:\n      pop\n        /* \"contracts/GovernorFactory.sol\":869:1135  function getAllDeployedGovernor () public view returns (GovernorMeta[] memory props){... */\n      swap1\n      jump\t// out\n        /* \"@openzeppelin/contracts/access/Ownable.sol\":2081:2279  function transferOwnership(address newOwner) public virtual onlyOwner {... */\n    tag_26:\n        /* \"@openzeppelin/contracts/access/Ownable.sol\":1094:1107  _checkOwner() */\n      tag_54\n        /* \"@openzeppelin/contracts/access/Ownable.sol\":1094:1105  _checkOwner */\n      tag_33\n        /* \"@openzeppelin/contracts/access/Ownable.sol\":1094:1107  _checkOwner() */\n      jump\t// in\n    tag_54:\n        /* \"@openzeppelin/contracts/access/Ownable.sol\":2169:2191  newOwner != address(0) */\n      0xffffffffffffffffffffffffffffffffffffffff\n      dup2\n      and\n        /* \"@openzeppelin/contracts/access/Ownable.sol\":2161:2234  require(newOwner != address(0), \"Ownable: new owner is the zero address\") */\n      tag_56\n      jumpi\n      mload(0x40)\n      0x08c379a000000000000000000000000000000000000000000000000000000000\n      dup2\n      mstore\n        /* \"#utility.yul\":2858:2860   */\n      0x20\n        /* \"@openzeppelin/contracts/access/Ownable.sol\":2161:2234  require(newOwner != address(0), \"Ownable: new owner is the zero address\") */\n      0x04\n      dup3\n      add\n        /* \"#utility.yul\":2840:2861   */\n      mstore\n        /* \"#utility.yul\":2897:2899   */\n      0x26\n        /* \"#utility.yul\":2877:2895   */\n      0x24\n      dup3\n      add\n        /* \"#utility.yul\":2870:2900   */\n      mstore\n        /* \"#utility.yul\":2936:2970   */\n      0x4f776e61626c653a206e6577206f776e657220697320746865207a65726f2061\n        /* \"#utility.yul\":2916:2934   */\n      0x44\n      dup3\n      add\n        /* \"#utility.yul\":2909:2971   */\n      mstore\n        /* \"#utility.yul\":3007:3015   */\n      0x6464726573730000000000000000000000000000000000000000000000000000\n        /* \"#utility.yul\":2987:3005   */\n      0x64\n      dup3\n      add\n        /* \"#utility.yul\":2980:3016   */\n      mstore\n        /* \"#utility.yul\":3033:3052   */\n      0x84\n      add\n        /* \"@openzeppelin/contracts/access/Ownable.sol\":2161:2234  require(newOwner != address(0), \"Ownable: new owner is the zero address\") */\n    tag_57:\n      mload(0x40)\n      dup1\n      swap2\n      sub\n      swap1\n      revert\n    tag_56:\n        /* \"@openzeppelin/contracts/access/Ownable.sol\":2244:2272  _transferOwnership(newOwner) */\n      tag_59\n        /* \"@openzeppelin/contracts/access/Ownable.sol\":2263:2271  newOwner */\n      dup2\n        /* \"@openzeppelin/contracts/access/Ownable.sol\":2244:2262  _transferOwnership */\n      tag_36\n        /* \"@openzeppelin/contracts/access/Ownable.sol\":2244:2272  _transferOwnership(newOwner) */\n      jump\t// in\n    tag_59:\n        /* \"@openzeppelin/contracts/access/Ownable.sol\":2081:2279  function transferOwnership(address newOwner) public virtual onlyOwner {... */\n      pop\n      jump\t// out\n        /* \"@openzeppelin/contracts/access/Ownable.sol\":1359:1489  function _checkOwner() internal view virtual {... */\n    tag_33:\n        /* \"@openzeppelin/contracts/access/Ownable.sol\":1247:1254  address */\n      0x00\n        /* \"@openzeppelin/contracts/access/Ownable.sol\":1273:1279  _owner */\n      sload\n        /* \"@openzeppelin/contracts/access/Ownable.sol\":1422:1445  owner() == _msgSender() */\n      0xffffffffffffffffffffffffffffffffffffffff\n        /* \"@openzeppelin/contracts/access/Ownable.sol\":1273:1279  _owner */\n      and\n        /* \"@openzeppelin/contracts/utils/Context.sol\":719:729  msg.sender */\n      caller\n        /* \"@openzeppelin/contracts/access/Ownable.sol\":1422:1445  owner() == _msgSender() */\n      eq\n        /* \"@openzeppelin/contracts/access/Ownable.sol\":1414:1482  require(owner() == _msgSender(), \"Ownable: caller is not the owner\") */\n      tag_35\n      jumpi\n      mload(0x40)\n      0x08c379a000000000000000000000000000000000000000000000000000000000\n      dup2\n      mstore\n        /* \"#utility.yul\":3265:3267   */\n      0x20\n        /* \"@openzeppelin/contracts/access/Ownable.sol\":1414:1482  require(owner() == _msgSender(), \"Ownable: caller is not the owner\") */\n      0x04\n      dup3\n      add\n        /* \"#utility.yul\":3247:3268   */\n      dup2\n      swap1\n      mstore\n        /* \"#utility.yul\":3284:3302   */\n      0x24\n      dup3\n      add\n        /* \"#utility.yul\":3277:3307   */\n      mstore\n        /* \"#utility.yul\":3343:3377   */\n      0x4f776e61626c653a2063616c6c6572206973206e6f7420746865206f776e6572\n        /* \"#utility.yul\":3323:3341   */\n      0x44\n      dup3\n      add\n        /* \"#utility.yul\":3316:3378   */\n      mstore\n        /* \"#utility.yul\":3395:3413   */\n      0x64\n      add\n        /* \"@openzeppelin/contracts/access/Ownable.sol\":1414:1482  require(owner() == _msgSender(), \"Ownable: caller is not the owner\") */\n      tag_57\n        /* \"#utility.yul\":3063:3419   */\n      jump\n        /* \"@openzeppelin/contracts/access/Ownable.sol\":2433:2620  function _transferOwnership(address newOwner) internal virtual {... */\n    tag_36:\n        /* \"@openzeppelin/contracts/access/Ownable.sol\":2506:2522  address oldOwner */\n      0x00\n        /* \"@openzeppelin/contracts/access/Ownable.sol\":2525:2531  _owner */\n      dup1\n      sload\n      0xffffffffffffffffffffffffffffffffffffffff\n        /* \"@openzeppelin/contracts/access/Ownable.sol\":2541:2558  _owner = newOwner */\n      dup4\n      dup2\n      and\n      0xffffffffffffffffffffffff0000000000000000000000000000000000000000\n      dup4\n      and\n      dup2\n      or\n      dup5\n      sstore\n        /* \"@openzeppelin/contracts/access/Ownable.sol\":2573:2613  OwnershipTransferred(oldOwner, newOwner) */\n      mload(0x40)\n        /* \"@openzeppelin/contracts/access/Ownable.sol\":2525:2531  _owner */\n      swap2\n      swap1\n      swap3\n      and\n      swap3\n      dup4\n      swap2\n        /* \"@openzeppelin/contracts/access/Ownable.sol\":2573:2613  OwnershipTransferred(oldOwner, newOwner) */\n      0x8be0079c531659141344cd1fd0a4f28419497f9722a3daafe3b4186f6b6457e0\n      swap2\n        /* \"@openzeppelin/contracts/access/Ownable.sol\":2506:2522  address oldOwner */\n      swap1\n        /* \"@openzeppelin/contracts/access/Ownable.sol\":2573:2613  OwnershipTransferred(oldOwner, newOwner) */\n      log3\n        /* \"@openzeppelin/contracts/access/Ownable.sol\":2496:2620  {... */\n      pop\n        /* \"@openzeppelin/contracts/access/Ownable.sol\":2433:2620  function _transferOwnership(address newOwner) internal virtual {... */\n      pop\n      jump\t// out\n        /* \"#utility.yul\":14:210   */\n    tag_69:\n        /* \"#utility.yul\":82:102   */\n      dup1\n      calldataload\n        /* \"#utility.yul\":142:184   */\n      0xffffffffffffffffffffffffffffffffffffffff\n        /* \"#utility.yul\":131:185   */\n      dup2\n      and\n        /* \"#utility.yul\":121:186   */\n      dup2\n      eq\n        /* \"#utility.yul\":111:204   */\n      tag_72\n      jumpi\n        /* \"#utility.yul\":200:201   */\n      0x00\n        /* \"#utility.yul\":197:198   */\n      dup1\n        /* \"#utility.yul\":190:202   */\n      revert\n        /* \"#utility.yul\":111:204   */\n    tag_72:\n        /* \"#utility.yul\":14:210   */\n      swap2\n      swap1\n      pop\n      jump\t// out\n        /* \"#utility.yul\":215:549   */\n    tag_11:\n        /* \"#utility.yul\":292:298   */\n      0x00\n        /* \"#utility.yul\":300:306   */\n      dup1\n        /* \"#utility.yul\":308:314   */\n      0x00\n        /* \"#utility.yul\":361:363   */\n      0x60\n        /* \"#utility.yul\":349:358   */\n      dup5\n        /* \"#utility.yul\":340:347   */\n      dup7\n        /* \"#utility.yul\":336:359   */\n      sub\n        /* \"#utility.yul\":332:364   */\n      slt\n        /* \"#utility.yul\":329:381   */\n      iszero\n      tag_74\n      jumpi\n        /* \"#utility.yul\":377:378   */\n      0x00\n        /* \"#utility.yul\":374:375   */\n      dup1\n        /* \"#utility.yul\":367:379   */\n      revert\n        /* \"#utility.yul\":329:381   */\n    tag_74:\n        /* \"#utility.yul\":400:429   */\n      tag_75\n        /* \"#utility.yul\":419:428   */\n      dup5\n        /* \"#utility.yul\":400:429   */\n      tag_69\n      jump\t// in\n    tag_75:\n        /* \"#utility.yul\":390:429   */\n      swap3\n      pop\n        /* \"#utility.yul\":448:486   */\n      tag_76\n        /* \"#utility.yul\":482:484   */\n      0x20\n        /* \"#utility.yul\":471:480   */\n      dup6\n        /* \"#utility.yul\":467:485   */\n      add\n        /* \"#utility.yul\":448:486   */\n      tag_69\n      jump\t// in\n    tag_76:\n        /* \"#utility.yul\":438:486   */\n      swap2\n      pop\n        /* \"#utility.yul\":505:543   */\n      tag_77\n        /* \"#utility.yul\":539:541   */\n      0x40\n        /* \"#utility.yul\":528:537   */\n      dup6\n        /* \"#utility.yul\":524:542   */\n      add\n        /* \"#utility.yul\":505:543   */\n      tag_69\n      jump\t// in\n    tag_77:\n        /* \"#utility.yul\":495:543   */\n      swap1\n      pop\n        /* \"#utility.yul\":215:549   */\n      swap3\n      pop\n      swap3\n      pop\n      swap3\n      jump\t// out\n        /* \"#utility.yul\":785:1728   */\n    tag_22:\n        /* \"#utility.yul\":1014:1016   */\n      0x20\n        /* \"#utility.yul\":1066:1087   */\n      dup1\n      dup3\n      mstore\n        /* \"#utility.yul\":1136:1149   */\n      dup3\n      mload\n        /* \"#utility.yul\":1039:1057   */\n      dup3\n      dup3\n      add\n        /* \"#utility.yul\":1158:1180   */\n      dup2\n      swap1\n      mstore\n        /* \"#utility.yul\":985:989   */\n      0x00\n      swap2\n        /* \"#utility.yul\":1014:1016   */\n      swap1\n        /* \"#utility.yul\":1199:1201   */\n      0x40\n      swap1\n        /* \"#utility.yul\":1217:1235   */\n      dup2\n      dup6\n      add\n      swap1\n        /* \"#utility.yul\":1258:1273   */\n      dup7\n      dup5\n      add\n        /* \"#utility.yul\":985:989   */\n      dup6\n        /* \"#utility.yul\":1301:1702   */\n    tag_80:\n        /* \"#utility.yul\":1315:1321   */\n      dup3\n        /* \"#utility.yul\":1312:1313   */\n      dup2\n        /* \"#utility.yul\":1309:1322   */\n      lt\n        /* \"#utility.yul\":1301:1702   */\n      iszero\n      tag_82\n      jumpi\n        /* \"#utility.yul\":1374:1387   */\n      dup2\n      mload\n        /* \"#utility.yul\":1481:1490   */\n      dup1\n      mload\n        /* \"#utility.yul\":1410:1452   */\n      0xffffffffffffffffffffffffffffffffffffffff\n        /* \"#utility.yul\":1477:1495   */\n      swap1\n      dup2\n      and\n        /* \"#utility.yul\":1465:1496   */\n      dup7\n      mstore\n        /* \"#utility.yul\":1540:1551   */\n      dup8\n      dup3\n      add\n        /* \"#utility.yul\":1534:1552   */\n      mload\n        /* \"#utility.yul\":1530:1557   */\n      dup2\n      and\n        /* \"#utility.yul\":1516:1528   */\n      dup9\n      dup8\n      add\n        /* \"#utility.yul\":1509:1558   */\n      mstore\n        /* \"#utility.yul\":1602:1613   */\n      swap1\n      dup7\n      add\n        /* \"#utility.yul\":1596:1614   */\n      mload\n        /* \"#utility.yul\":1592:1619   */\n      and\n        /* \"#utility.yul\":1578:1590   */\n      dup6\n      dup6\n      add\n        /* \"#utility.yul\":1571:1620   */\n      mstore\n        /* \"#utility.yul\":1649:1653   */\n      0x60\n        /* \"#utility.yul\":1640:1654   */\n      swap1\n      swap4\n      add\n      swap3\n        /* \"#utility.yul\":1677:1692   */\n      swap1\n      dup6\n      add\n      swap1\n        /* \"#utility.yul\":1337:1338   */\n      0x01\n        /* \"#utility.yul\":1330:1339   */\n      add\n        /* \"#utility.yul\":1301:1702   */\n      jump(tag_80)\n    tag_82:\n      pop\n        /* \"#utility.yul\":1719:1722   */\n      swap2\n      swap8\n        /* \"#utility.yul\":785:1728   */\n      swap7\n      pop\n      pop\n      pop\n      pop\n      pop\n      pop\n      pop\n      jump\t// out\n        /* \"#utility.yul\":1733:1919   */\n    tag_25:\n        /* \"#utility.yul\":1792:1798   */\n      0x00\n        /* \"#utility.yul\":1845:1847   */\n      0x20\n        /* \"#utility.yul\":1833:1842   */\n      dup3\n        /* \"#utility.yul\":1824:1831   */\n      dup5\n        /* \"#utility.yul\":1820:1843   */\n      sub\n        /* \"#utility.yul\":1816:1848   */\n      slt\n        /* \"#utility.yul\":1813:1865   */\n      iszero\n      tag_84\n      jumpi\n        /* \"#utility.yul\":1861:1862   */\n      0x00\n        /* \"#utility.yul\":1858:1859   */\n      dup1\n        /* \"#utility.yul\":1851:1863   */\n      revert\n        /* \"#utility.yul\":1813:1865   */\n    tag_84:\n        /* \"#utility.yul\":1884:1913   */\n      tag_85\n        /* \"#utility.yul\":1903:1912   */\n      dup3\n        /* \"#utility.yul\":1884:1913   */\n      tag_69\n      jump\t// in\n    tag_85:\n        /* \"#utility.yul\":1874:1913   */\n      swap4\n        /* \"#utility.yul\":1733:1919   */\n      swap3\n      pop\n      pop\n      pop\n      jump\t// out\n        /* \"#utility.yul\":1924:2273   */\n    tag_29:\n        /* \"#utility.yul\":1963:1966   */\n      0x00\n        /* \"#utility.yul\":1994:2060   */\n      0xffffffffffffffffffffffffffffffffffffffffffffffffffffffffffffffff\n        /* \"#utility.yul\":1987:1992   */\n      dup3\n        /* \"#utility.yul\":1984:2061   */\n      sub\n        /* \"#utility.yul\":1981:2238   */\n      tag_87\n      jumpi\n        /* \"#utility.yul\":2094:2171   */\n      0x4e487b7100000000000000000000000000000000000000000000000000000000\n        /* \"#utility.yul\":2091:2092   */\n      0x00\n        /* \"#utility.yul\":2084:2172   */\n      mstore\n        /* \"#utility.yul\":2195:2199   */\n      0x11\n        /* \"#utility.yul\":2192:2193   */\n      0x04\n        /* \"#utility.yul\":2185:2200   */\n      mstore\n        /* \"#utility.yul\":2223:2227   */\n      0x24\n        /* \"#utility.yul\":2220:2221   */\n      0x00\n        /* \"#utility.yul\":2213:2228   */\n      revert\n        /* \"#utility.yul\":1981:2238   */\n    tag_87:\n      pop\n        /* \"#utility.yul\":2265:2266   */\n      0x01\n        /* \"#utility.yul\":2254:2267   */\n      add\n      swap1\n        /* \"#utility.yul\":1924:2273   */\n      jump\t// out\n        /* \"#utility.yul\":2278:2462   */\n    tag_41:\n        /* \"#utility.yul\":2330:2407   */\n      0x4e487b7100000000000000000000000000000000000000000000000000000000\n        /* \"#utility.yul\":2327:2328   */\n      0x00\n        /* \"#utility.yul\":2320:2408   */\n      mstore\n        /* \"#utility.yul\":2427:2431   */\n      0x41\n        /* \"#utility.yul\":2424:2425   */\n      0x04\n        /* \"#utility.yul\":2417:2432   */\n      mstore\n        /* \"#utility.yul\":2451:2455   */\n      0x24\n        /* \"#utility.yul\":2448:2449   */\n      0x00\n        /* \"#utility.yul\":2441:2456   */\n      revert\n        /* \"#utility.yul\":2467:2651   */\n    tag_51:\n        /* \"#utility.yul\":2519:2596   */\n      0x4e487b7100000000000000000000000000000000000000000000000000000000\n        /* \"#utility.yul\":2516:2517   */\n      0x00\n        /* \"#utility.yul\":2509:2597   */\n      mstore\n        /* \"#utility.yul\":2616:2620   */\n      0x32\n        /* \"#utility.yul\":2613:2614   */\n      0x04\n        /* \"#utility.yul\":2606:2621   */\n      mstore\n        /* \"#utility.yul\":2640:2644   */\n      0x24\n        /* \"#utility.yul\":2637:2638   */\n      0x00\n        /* \"#utility.yul\":2630:2645   */\n      revert\n\n    auxdata: 0xa2646970667358221220ead9d0293d97de134ab29fbf15694383f4174fa7e41d1e6f1a535d1c2187222864736f6c63430008110033\n}\n",
				"bytecode": {
					"linkReferences": {},
					"object": "608060405234801561001057600080fd5b5061001a3361001f565b61006f565b600080546001600160a01b038381166001600160a01b0319831681178455604051919092169283917f8be0079c531659141344cd1fd0a4f28419497f9722a3daafe3b4186f6b6457e09190a35050565b6106788061007e6000396000f3fe608060405234801561001057600080fd5b50600436106100675760003560e01c80638da5cb5b116100505780638da5cb5b14610089578063af800e71146100b6578063f2fde38b146100cb57600080fd5b80630dab24201461006c578063715018a614610081575b600080fd5b61007f61007a3660046104ab565b6100de565b005b61007f6101a1565b60005460405173ffffffffffffffffffffffffffffffffffffffff90911681526020015b60405180910390f35b6100be6101b5565b6040516100ad91906104ee565b61007f6100d9366004610563565b6102d0565b60018054600091826100ef83610585565b90915550600081815260026020818152604092839020805473ffffffffffffffffffffffffffffffffffffffff8a81167fffffffffffffffffffffffff0000000000000000000000000000000000000000928316811784556001840180548c84169085161790559483018054918a1691909216179055925191825292935090917f5cbe3ce075ecdc55e8142db31e6a441bbf67f93d56fcb05ba3c88db57c7f362d910160405180910390a15050505050565b6101a961038c565b6101b3600061040d565b565b606060015467ffffffffffffffff8111156101d2576101d26105e4565b60405190808252806020026020018201604052801561023b57816020015b60408051606081018252600080825260208083018290529282015282527fffffffffffffffffffffffffffffffffffffffffffffffffffffffffffffffff9092019101816101f05790505b50905060005b6001548110156102cc576000818152600260208181526040928390208351606081018552815473ffffffffffffffffffffffffffffffffffffffff90811682526001830154811693820193909352920154169181019190915282518390839081106102ae576102ae610613565b602002602001018190525080806102c490610585565b915050610241565b5090565b6102d861038c565b73ffffffffffffffffffffffffffffffffffffffff8116610380576040517f08c379a000000000000000000000000000000000000000000000000000000000815260206004820152602660248201527f4f776e61626c653a206e6577206f776e657220697320746865207a65726f206160448201527f646472657373000000000000000000000000000000000000000000000000000060648201526084015b60405180910390fd5b6103898161040d565b50565b60005473ffffffffffffffffffffffffffffffffffffffff1633146101b3576040517f08c379a000000000000000000000000000000000000000000000000000000000815260206004820181905260248201527f4f776e61626c653a2063616c6c6572206973206e6f7420746865206f776e65726044820152606401610377565b6000805473ffffffffffffffffffffffffffffffffffffffff8381167fffffffffffffffffffffffff0000000000000000000000000000000000000000831681178455604051919092169283917f8be0079c531659141344cd1fd0a4f28419497f9722a3daafe3b4186f6b6457e09190a35050565b803573ffffffffffffffffffffffffffffffffffffffff811681146104a657600080fd5b919050565b6000806000606084860312156104c057600080fd5b6104c984610482565b92506104d760208501610482565b91506104e560408501610482565b90509250925092565b602080825282518282018190526000919060409081850190868401855b82811015610556578151805173ffffffffffffffffffffffffffffffffffffffff9081168652878201518116888701529086015116858501526060909301929085019060010161050b565b5091979650505050505050565b60006020828403121561057557600080fd5b61057e82610482565b9392505050565b60007fffffffffffffffffffffffffffffffffffffffffffffffffffffffffffffffff82036105dd577f4e487b7100000000000000000000000000000000000000000000000000000000600052601160045260246000fd5b5060010190565b7f4e487b7100000000000000000000000000000000000000000000000000000000600052604160045260246000fd5b7f4e487b7100000000000000000000000000000000000000000000000000000000600052603260045260246000fdfea2646970667358221220ead9d0293d97de134ab29fbf15694383f4174fa7e41d1e6f1a535d1c2187222864736f6c63430008110033",
					"opcodes": "PUSH1 0x80 PUSH1 0x40 MSTORE CALLVALUE DUP1 ISZERO PUSH2 0x10 JUMPI PUSH1 0x0 DUP1 REVERT JUMPDEST POP PUSH2 0x1A CALLER PUSH2 0x1F JUMP JUMPDEST PUSH2 0x6F JUMP JUMPDEST PUSH1 0x0 DUP1 SLOAD PUSH1 0x1 PUSH1 0x1 PUSH1 0xA0 SHL SUB DUP4 DUP2 AND PUSH1 0x1 PUSH1 0x1 PUSH1 0xA0 SHL SUB NOT DUP4 AND DUP2 OR DUP5 SSTORE PUSH1 0x40 MLOAD SWAP2 SWAP1 SWAP3 AND SWAP3 DUP4 SWAP2 PUSH32 0x8BE0079C531659141344CD1FD0A4F28419497F9722A3DAAFE3B4186F6B6457E0 SWAP2 SWAP1 LOG3 POP POP JUMP JUMPDEST PUSH2 0x678 DUP1 PUSH2 0x7E PUSH1 0x0 CODECOPY PUSH1 0x0 RETURN INVALID PUSH1 0x80 PUSH1 0x40 MSTORE CALLVALUE DUP1 ISZERO PUSH2 0x10 JUMPI PUSH1 0x0 DUP1 REVERT JUMPDEST POP PUSH1 0x4 CALLDATASIZE LT PUSH2 0x67 JUMPI PUSH1 0x0 CALLDATALOAD PUSH1 0xE0 SHR DUP1 PUSH4 0x8DA5CB5B GT PUSH2 0x50 JUMPI DUP1 PUSH4 0x8DA5CB5B EQ PUSH2 0x89 JUMPI DUP1 PUSH4 0xAF800E71 EQ PUSH2 0xB6 JUMPI DUP1 PUSH4 0xF2FDE38B EQ PUSH2 0xCB JUMPI PUSH1 0x0 DUP1 REVERT JUMPDEST DUP1 PUSH4 0xDAB2420 EQ PUSH2 0x6C JUMPI DUP1 PUSH4 0x715018A6 EQ PUSH2 0x81 JUMPI JUMPDEST PUSH1 0x0 DUP1 REVERT JUMPDEST PUSH2 0x7F PUSH2 0x7A CALLDATASIZE PUSH1 0x4 PUSH2 0x4AB JUMP JUMPDEST PUSH2 0xDE JUMP JUMPDEST STOP JUMPDEST PUSH2 0x7F PUSH2 0x1A1 JUMP JUMPDEST PUSH1 0x0 SLOAD PUSH1 0x40 MLOAD PUSH20 0xFFFFFFFFFFFFFFFFFFFFFFFFFFFFFFFFFFFFFFFF SWAP1 SWAP2 AND DUP2 MSTORE PUSH1 0x20 ADD JUMPDEST PUSH1 0x40 MLOAD DUP1 SWAP2 SUB SWAP1 RETURN JUMPDEST PUSH2 0xBE PUSH2 0x1B5 JUMP JUMPDEST PUSH1 0x40 MLOAD PUSH2 0xAD SWAP2 SWAP1 PUSH2 0x4EE JUMP JUMPDEST PUSH2 0x7F PUSH2 0xD9 CALLDATASIZE PUSH1 0x4 PUSH2 0x563 JUMP JUMPDEST PUSH2 0x2D0 JUMP JUMPDEST PUSH1 0x1 DUP1 SLOAD PUSH1 0x0 SWAP2 DUP3 PUSH2 0xEF DUP4 PUSH2 0x585 JUMP JUMPDEST SWAP1 SWAP2 SSTORE POP PUSH1 0x0 DUP2 DUP2 MSTORE PUSH1 0x2 PUSH1 0x20 DUP2 DUP2 MSTORE PUSH1 0x40 SWAP3 DUP4 SWAP1 KECCAK256 DUP1 SLOAD PUSH20 0xFFFFFFFFFFFFFFFFFFFFFFFFFFFFFFFFFFFFFFFF DUP11 DUP2 AND PUSH32 0xFFFFFFFFFFFFFFFFFFFFFFFF0000000000000000000000000000000000000000 SWAP3 DUP4 AND DUP2 OR DUP5 SSTORE PUSH1 0x1 DUP5 ADD DUP1 SLOAD DUP13 DUP5 AND SWAP1 DUP6 AND OR SWAP1 SSTORE SWAP5 DUP4 ADD DUP1 SLOAD SWAP2 DUP11 AND SWAP2 SWAP1 SWAP3 AND OR SWAP1 SSTORE SWAP3 MLOAD SWAP2 DUP3 MSTORE SWAP3 SWAP4 POP SWAP1 SWAP2 PUSH32 0x5CBE3CE075ECDC55E8142DB31E6A441BBF67F93D56FCB05BA3C88DB57C7F362D SWAP2 ADD PUSH1 0x40 MLOAD DUP1 SWAP2 SUB SWAP1 LOG1 POP POP POP POP POP JUMP JUMPDEST PUSH2 0x1A9 PUSH2 0x38C JUMP JUMPDEST PUSH2 0x1B3 PUSH1 0x0 PUSH2 0x40D JUMP JUMPDEST JUMP JUMPDEST PUSH1 0x60 PUSH1 0x1 SLOAD PUSH8 0xFFFFFFFFFFFFFFFF DUP2 GT ISZERO PUSH2 0x1D2 JUMPI PUSH2 0x1D2 PUSH2 0x5E4 JUMP JUMPDEST PUSH1 0x40 MLOAD SWAP1 DUP1 DUP3 MSTORE DUP1 PUSH1 0x20 MUL PUSH1 0x20 ADD DUP3 ADD PUSH1 0x40 MSTORE DUP1 ISZERO PUSH2 0x23B JUMPI DUP2 PUSH1 0x20 ADD JUMPDEST PUSH1 0x40 DUP1 MLOAD PUSH1 0x60 DUP2 ADD DUP3 MSTORE PUSH1 0x0 DUP1 DUP3 MSTORE PUSH1 0x20 DUP1 DUP4 ADD DUP3 SWAP1 MSTORE SWAP3 DUP3 ADD MSTORE DUP3 MSTORE PUSH32 0xFFFFFFFFFFFFFFFFFFFFFFFFFFFFFFFFFFFFFFFFFFFFFFFFFFFFFFFFFFFFFFFF SWAP1 SWAP3 ADD SWAP2 ADD DUP2 PUSH2 0x1F0 JUMPI SWAP1 POP JUMPDEST POP SWAP1 POP PUSH1 0x0 JUMPDEST PUSH1 0x1 SLOAD DUP2 LT ISZERO PUSH2 0x2CC JUMPI PUSH1 0x0 DUP2 DUP2 MSTORE PUSH1 0x2 PUSH1 0x20 DUP2 DUP2 MSTORE PUSH1 0x40 SWAP3 DUP4 SWAP1 KECCAK256 DUP4 MLOAD PUSH1 0x60 DUP2 ADD DUP6 MSTORE DUP2 SLOAD PUSH20 0xFFFFFFFFFFFFFFFFFFFFFFFFFFFFFFFFFFFFFFFF SWAP1 DUP2 AND DUP3 MSTORE PUSH1 0x1 DUP4 ADD SLOAD DUP2 AND SWAP4 DUP3 ADD SWAP4 SWAP1 SWAP4 MSTORE SWAP3 ADD SLOAD AND SWAP2 DUP2 ADD SWAP2 SWAP1 SWAP2 MSTORE DUP3 MLOAD DUP4 SWAP1 DUP4 SWAP1 DUP2 LT PUSH2 0x2AE JUMPI PUSH2 0x2AE PUSH2 0x613 JUMP JUMPDEST PUSH1 0x20 MUL PUSH1 0x20 ADD ADD DUP2 SWAP1 MSTORE POP DUP1 DUP1 PUSH2 0x2C4 SWAP1 PUSH2 0x585 JUMP JUMPDEST SWAP2 POP POP PUSH2 0x241 JUMP JUMPDEST POP SWAP1 JUMP JUMPDEST PUSH2 0x2D8 PUSH2 0x38C JUMP JUMPDEST PUSH20 0xFFFFFFFFFFFFFFFFFFFFFFFFFFFFFFFFFFFFFFFF DUP2 AND PUSH2 0x380 JUMPI PUSH1 0x40 MLOAD PUSH32 0x8C379A000000000000000000000000000000000000000000000000000000000 DUP2 MSTORE PUSH1 0x20 PUSH1 0x4 DUP3 ADD MSTORE PUSH1 0x26 PUSH1 0x24 DUP3 ADD MSTORE PUSH32 0x4F776E61626C653A206E6577206F776E657220697320746865207A65726F2061 PUSH1 0x44 DUP3 ADD MSTORE PUSH32 0x6464726573730000000000000000000000000000000000000000000000000000 PUSH1 0x64 DUP3 ADD MSTORE PUSH1 0x84 ADD JUMPDEST PUSH1 0x40 MLOAD DUP1 SWAP2 SUB SWAP1 REVERT JUMPDEST PUSH2 0x389 DUP2 PUSH2 0x40D JUMP JUMPDEST POP JUMP JUMPDEST PUSH1 0x0 SLOAD PUSH20 0xFFFFFFFFFFFFFFFFFFFFFFFFFFFFFFFFFFFFFFFF AND CALLER EQ PUSH2 0x1B3 JUMPI PUSH1 0x40 MLOAD PUSH32 0x8C379A000000000000000000000000000000000000000000000000000000000 DUP2 MSTORE PUSH1 0x20 PUSH1 0x4 DUP3 ADD DUP2 SWAP1 MSTORE PUSH1 0x24 DUP3 ADD MSTORE PUSH32 0x4F776E61626C653A2063616C6C6572206973206E6F7420746865206F776E6572 PUSH1 0x44 DUP3 ADD MSTORE PUSH1 0x64 ADD PUSH2 0x377 JUMP JUMPDEST PUSH1 0x0 DUP1 SLOAD PUSH20 0xFFFFFFFFFFFFFFFFFFFFFFFFFFFFFFFFFFFFFFFF DUP4 DUP2 AND PUSH32 0xFFFFFFFFFFFFFFFFFFFFFFFF0000000000000000000000000000000000000000 DUP4 AND DUP2 OR DUP5 SSTORE PUSH1 0x40 MLOAD SWAP2 SWAP1 SWAP3 AND SWAP3 DUP4 SWAP2 PUSH32 0x8BE0079C531659141344CD1FD0A4F28419497F9722A3DAAFE3B4186F6B6457E0 SWAP2 SWAP1 LOG3 POP POP JUMP JUMPDEST DUP1 CALLDATALOAD PUSH20 0xFFFFFFFFFFFFFFFFFFFFFFFFFFFFFFFFFFFFFFFF DUP2 AND DUP2 EQ PUSH2 0x4A6 JUMPI PUSH1 0x0 DUP1 REVERT JUMPDEST SWAP2 SWAP1 POP JUMP JUMPDEST PUSH1 0x0 DUP1 PUSH1 0x0 PUSH1 0x60 DUP5 DUP7 SUB SLT ISZERO PUSH2 0x4C0 JUMPI PUSH1 0x0 DUP1 REVERT JUMPDEST PUSH2 0x4C9 DUP5 PUSH2 0x482 JUMP JUMPDEST SWAP3 POP PUSH2 0x4D7 PUSH1 0x20 DUP6 ADD PUSH2 0x482 JUMP JUMPDEST SWAP2 POP PUSH2 0x4E5 PUSH1 0x40 DUP6 ADD PUSH2 0x482 JUMP JUMPDEST SWAP1 POP SWAP3 POP SWAP3 POP SWAP3 JUMP JUMPDEST PUSH1 0x20 DUP1 DUP3 MSTORE DUP3 MLOAD DUP3 DUP3 ADD DUP2 SWAP1 MSTORE PUSH1 0x0 SWAP2 SWAP1 PUSH1 0x40 SWAP1 DUP2 DUP6 ADD SWAP1 DUP7 DUP5 ADD DUP6 JUMPDEST DUP3 DUP2 LT ISZERO PUSH2 0x556 JUMPI DUP2 MLOAD DUP1 MLOAD PUSH20 0xFFFFFFFFFFFFFFFFFFFFFFFFFFFFFFFFFFFFFFFF SWAP1 DUP2 AND DUP7 MSTORE DUP8 DUP3 ADD MLOAD DUP2 AND DUP9 DUP8 ADD MSTORE SWAP1 DUP7 ADD MLOAD AND DUP6 DUP6 ADD MSTORE PUSH1 0x60 SWAP1 SWAP4 ADD SWAP3 SWAP1 DUP6 ADD SWAP1 PUSH1 0x1 ADD PUSH2 0x50B JUMP JUMPDEST POP SWAP2 SWAP8 SWAP7 POP POP POP POP POP POP POP JUMP JUMPDEST PUSH1 0x0 PUSH1 0x20 DUP3 DUP5 SUB SLT ISZERO PUSH2 0x575 JUMPI PUSH1 0x0 DUP1 REVERT JUMPDEST PUSH2 0x57E DUP3 PUSH2 0x482 JUMP JUMPDEST SWAP4 SWAP3 POP POP POP JUMP JUMPDEST PUSH1 0x0 PUSH32 0xFFFFFFFFFFFFFFFFFFFFFFFFFFFFFFFFFFFFFFFFFFFFFFFFFFFFFFFFFFFFFFFF DUP3 SUB PUSH2 0x5DD JUMPI PUSH32 0x4E487B7100000000000000000000000000000000000000000000000000000000 PUSH1 0x0 MSTORE PUSH1 0x11 PUSH1 0x4 MSTORE PUSH1 0x24 PUSH1 0x0 REVERT JUMPDEST POP PUSH1 0x1 ADD SWAP1 JUMP JUMPDEST PUSH32 0x4E487B7100000000000000000000000000000000000000000000000000000000 PUSH1 0x0 MSTORE PUSH1 0x41 PUSH1 0x4 MSTORE PUSH1 0x24 PUSH1 0x0 REVERT JUMPDEST PUSH32 0x4E487B7100000000000000000000000000000000000000000000000000000000 PUSH1 0x0 MSTORE PUSH1 0x32 PUSH1 0x4 MSTORE PUSH1 0x24 PUSH1 0x0 REVERT INVALID LOG2 PUSH5 0x6970667358 0x22 SLT KECCAK256 0xEA 0xD9 0xD0 0x29 RETURNDATASIZE SWAP8 0xDE SGT 0x4A 0xB2 SWAP16 0xBF ISZERO PUSH10 0x4383F4174FA7E41D1E6F BYTE MSTORE8 0x5D SHR 0x21 DUP8 0x22 0x28 PUSH5 0x736F6C6343 STOP ADDMOD GT STOP CALLER "
				},
				"gasEstimates": {
					"creation": {
						"codeDepositCost": "331200",
						"executionCost": "26209",
						"totalCost": "357409"
					},
					"external": {
						"addGovernorAddress(address,address,address)": "infinite",
						"getAllDeployedGovernor()": "infinite",
						"owner()": "2278",
						"renounceOwnership()": "infinite",
						"transferOwnership(address)": "28314"
					}
				},
				"methodIdentifiers": {
					"addGovernorAddress(address,address,address)": "0dab2420",
					"getAllDeployedGovernor()": "af800e71",
					"owner()": "8da5cb5b",
					"renounceOwnership()": "715018a6",
					"transferOwnership(address)": "f2fde38b"
				}
			},
			"storageLayout": {
				"storage": [
					{
						"astId": 7,
						"contract": "contracts/GovernorFactory.sol:GovernorFactory",
						"label": "_owner",
						"offset": 0,
						"slot": "0",
						"type": "t_address"
					},
					{
						"astId": 141,
						"contract": "contracts/GovernorFactory.sol:GovernorFactory",
						"label": "numOfGovernors",
						"offset": 0,
						"slot": "1",
						"type": "t_uint256"
					},
					{
						"astId": 153,
						"contract": "contracts/GovernorFactory.sol:GovernorFactory",
						"label": "deployedContracts",
						"offset": 0,
						"slot": "2",
						"type": "t_mapping(t_uint256,t_struct(GovernorMeta)148_storage)"
					}
				],
				"types": {
					"t_address": {
						"encoding": "inplace",
						"label": "address",
						"numberOfBytes": "20"
					},
					"t_mapping(t_uint256,t_struct(GovernorMeta)148_storage)": {
						"encoding": "mapping",
						"key": "t_uint256",
						"label": "mapping(uint256 => struct GovernorFactory.GovernorMeta)",
						"numberOfBytes": "32",
						"value": "t_struct(GovernorMeta)148_storage"
					},
					"t_struct(GovernorMeta)148_storage": {
						"encoding": "inplace",
						"label": "struct GovernorFactory.GovernorMeta",
						"members": [
							{
								"astId": 143,
								"contract": "contracts/GovernorFactory.sol:GovernorFactory",
								"label": "governor",
								"offset": 0,
								"slot": "0",
								"type": "t_address"
							},
							{
								"astId": 145,
								"contract": "contracts/GovernorFactory.sol:GovernorFactory",
								"label": "timelock",
								"offset": 0,
								"slot": "1",
								"type": "t_address"
							},
							{
								"astId": 147,
								"contract": "contracts/GovernorFactory.sol:GovernorFactory",
								"label": "token",
								"offset": 0,
								"slot": "2",
								"type": "t_address"
							}
						],
						"numberOfBytes": "96"
					},
					"t_uint256": {
						"encoding": "inplace",
						"label": "uint256",
						"numberOfBytes": "32"
					}
				}
			},
			"userdoc": {
				"kind": "user",
				"methods": {},
				"version": 1
			}
		}
	}
}