{
  "_format": "hh-sol-artifact-1",
  "contractName": "Willow",
  "sourceName": "contracts/Willow.sol",
  "abi": [
    {
      "inputs": [],
      "stateMutability": "nonpayable",
      "type": "constructor"
    },
    {
      "anonymous": false,
      "inputs": [
        {
          "indexed": true,
          "internalType": "address",
          "name": "owner",
          "type": "address"
        },
        {
          "indexed": true,
          "internalType": "address",
          "name": "approved",
          "type": "address"
        },
        {
          "indexed": true,
          "internalType": "uint256",
          "name": "tokenId",
          "type": "uint256"
        }
      ],
      "name": "Approval",
      "type": "event"
    },
    {
      "anonymous": false,
      "inputs": [
        {
          "indexed": true,
          "internalType": "address",
          "name": "owner",
          "type": "address"
        },
        {
          "indexed": true,
          "internalType": "address",
          "name": "operator",
          "type": "address"
        },
        {
          "indexed": false,
          "internalType": "bool",
          "name": "approved",
          "type": "bool"
        }
      ],
      "name": "ApprovalForAll",
      "type": "event"
    },
    {
      "anonymous": false,
      "inputs": [
        {
          "indexed": true,
          "internalType": "address",
          "name": "previousOwner",
          "type": "address"
        },
        {
          "indexed": true,
          "internalType": "address",
          "name": "newOwner",
          "type": "address"
        }
      ],
      "name": "OwnershipTransferred",
      "type": "event"
    },
    {
      "anonymous": false,
      "inputs": [
        {
          "indexed": true,
          "internalType": "address",
          "name": "from",
          "type": "address"
        },
        {
          "indexed": true,
          "internalType": "address",
          "name": "to",
          "type": "address"
        },
        {
          "indexed": true,
          "internalType": "uint256",
          "name": "tokenId",
          "type": "uint256"
        }
      ],
      "name": "Transfer",
      "type": "event"
    },
    {
      "inputs": [
        {
          "internalType": "address",
          "name": "to",
          "type": "address"
        },
        {
          "internalType": "uint256",
          "name": "tokenId",
          "type": "uint256"
        }
      ],
      "name": "approve",
      "outputs": [],
      "stateMutability": "nonpayable",
      "type": "function"
    },
    {
      "inputs": [
        {
          "internalType": "address",
          "name": "owner",
          "type": "address"
        }
      ],
      "name": "balanceOf",
      "outputs": [
        {
          "internalType": "uint256",
          "name": "",
          "type": "uint256"
        }
      ],
      "stateMutability": "view",
      "type": "function"
    },
    {
      "inputs": [
        {
          "internalType": "uint256",
          "name": "tokenId",
          "type": "uint256"
        }
      ],
      "name": "burn",
      "outputs": [],
      "stateMutability": "nonpayable",
      "type": "function"
    },
    {
      "inputs": [
        {
          "internalType": "uint256",
          "name": "tokenId",
          "type": "uint256"
        }
      ],
      "name": "getApproved",
      "outputs": [
        {
          "internalType": "address",
          "name": "",
          "type": "address"
        }
      ],
      "stateMutability": "view",
      "type": "function"
    },
    {
      "inputs": [
        {
          "internalType": "address",
          "name": "owner",
          "type": "address"
        },
        {
          "internalType": "address",
          "name": "operator",
          "type": "address"
        }
      ],
      "name": "isApprovedForAll",
      "outputs": [
        {
          "internalType": "bool",
          "name": "",
          "type": "bool"
        }
      ],
      "stateMutability": "view",
      "type": "function"
    },
    {
      "inputs": [],
      "name": "name",
      "outputs": [
        {
          "internalType": "string",
          "name": "",
          "type": "string"
        }
      ],
      "stateMutability": "view",
      "type": "function"
    },
    {
      "inputs": [],
      "name": "owner",
      "outputs": [
        {
          "internalType": "address",
          "name": "",
          "type": "address"
        }
      ],
      "stateMutability": "view",
      "type": "function"
    },
    {
      "inputs": [
        {
          "internalType": "uint256",
          "name": "tokenId",
          "type": "uint256"
        }
      ],
      "name": "ownerOf",
      "outputs": [
        {
          "internalType": "address",
          "name": "",
          "type": "address"
        }
      ],
      "stateMutability": "view",
      "type": "function"
    },
    {
      "inputs": [],
      "name": "renounceOwnership",
      "outputs": [],
      "stateMutability": "nonpayable",
      "type": "function"
    },
    {
      "inputs": [
        {
          "internalType": "address",
          "name": "to",
          "type": "address"
        },
        {
          "internalType": "string",
          "name": "uri",
          "type": "string"
        }
      ],
      "name": "safeMint",
      "outputs": [],
      "stateMutability": "nonpayable",
      "type": "function"
    },
    {
      "inputs": [
        {
          "internalType": "address",
          "name": "from",
          "type": "address"
        },
        {
          "internalType": "address",
          "name": "to",
          "type": "address"
        },
        {
          "internalType": "uint256",
          "name": "tokenId",
          "type": "uint256"
        }
      ],
      "name": "safeTransferFrom",
      "outputs": [],
      "stateMutability": "nonpayable",
      "type": "function"
    },
    {
      "inputs": [
        {
          "internalType": "address",
          "name": "from",
          "type": "address"
        },
        {
          "internalType": "address",
          "name": "to",
          "type": "address"
        },
        {
          "internalType": "uint256",
          "name": "tokenId",
          "type": "uint256"
        },
        {
          "internalType": "bytes",
          "name": "data",
          "type": "bytes"
        }
      ],
      "name": "safeTransferFrom",
      "outputs": [],
      "stateMutability": "nonpayable",
      "type": "function"
    },
    {
      "inputs": [
        {
          "internalType": "address",
          "name": "operator",
          "type": "address"
        },
        {
          "internalType": "bool",
          "name": "approved",
          "type": "bool"
        }
      ],
      "name": "setApprovalForAll",
      "outputs": [],
      "stateMutability": "nonpayable",
      "type": "function"
    },
    {
      "inputs": [
        {
          "internalType": "bytes4",
          "name": "interfaceId",
          "type": "bytes4"
        }
      ],
      "name": "supportsInterface",
      "outputs": [
        {
          "internalType": "bool",
          "name": "",
          "type": "bool"
        }
      ],
      "stateMutability": "view",
      "type": "function"
    },
    {
      "inputs": [],
      "name": "symbol",
      "outputs": [
        {
          "internalType": "string",
          "name": "",
          "type": "string"
        }
      ],
      "stateMutability": "view",
      "type": "function"
    },
    {
      "inputs": [],
      "name": "tokenId",
      "outputs": [
        {
          "internalType": "uint256",
          "name": "",
          "type": "uint256"
        }
      ],
      "stateMutability": "view",
      "type": "function"
    },
    {
      "inputs": [
        {
          "internalType": "uint256",
          "name": "_tokenId",
          "type": "uint256"
        }
      ],
      "name": "tokenURI",
      "outputs": [
        {
          "internalType": "string",
          "name": "",
          "type": "string"
        }
      ],
      "stateMutability": "view",
      "type": "function"
    },
    {
      "inputs": [
        {
          "internalType": "address",
          "name": "from",
          "type": "address"
        },
        {
          "internalType": "address",
          "name": "to",
          "type": "address"
        },
        {
          "internalType": "uint256",
          "name": "tokenId",
          "type": "uint256"
        }
      ],
      "name": "transferFrom",
      "outputs": [],
      "stateMutability": "nonpayable",
      "type": "function"
    },
    {
      "inputs": [
        {
          "internalType": "address",
          "name": "newOwner",
          "type": "address"
        }
      ],
      "name": "transferOwnership",
      "outputs": [],
      "stateMutability": "nonpayable",
      "type": "function"
    }
  ],
  "bytecode": "0x60806040523480156200001157600080fd5b506040518060400160405280601d81526020017f57696c6c6f7720547265657320706c616e7465642062792075736572730000008152506040518060400160405280600681526020017f57494c4c6f570000000000000000000000000000000000000000000000000000815250816000908051906020019062000096929190620001a6565b508060019080519060200190620000af929190620001a6565b505050620000d2620000c6620000d860201b60201c565b620000e060201b60201c565b620002bb565b600033905090565b6000600760009054906101000a900473ffffffffffffffffffffffffffffffffffffffff16905081600760006101000a81548173ffffffffffffffffffffffffffffffffffffffff021916908373ffffffffffffffffffffffffffffffffffffffff1602179055508173ffffffffffffffffffffffffffffffffffffffff168173ffffffffffffffffffffffffffffffffffffffff167f8be0079c531659141344cd1fd0a4f28419497f9722a3daafe3b4186f6b6457e060405160405180910390a35050565b828054620001b49062000285565b90600052602060002090601f016020900481019282620001d8576000855562000224565b82601f10620001f357805160ff191683800117855562000224565b8280016001018555821562000224579182015b828111156200022357825182559160200191906001019062000206565b5b50905062000233919062000237565b5090565b5b808211156200025257600081600090555060010162000238565b5090565b7f4e487b7100000000000000000000000000000000000000000000000000000000600052602260045260246000fd5b600060028204905060018216806200029e57607f821691505b60208210811415620002b557620002b462000256565b5b50919050565b612f0280620002cb6000396000f3fe608060405234801561001057600080fd5b50600436106101215760003560e01c806370a08231116100ad578063b88d4fde11610071578063b88d4fde146102f4578063c87b56dd14610310578063d204c45e14610340578063e985e9c51461035c578063f2fde38b1461038c57610121565b806370a0823114610262578063715018a6146102925780638da5cb5b1461029c57806395d89b41146102ba578063a22cb465146102d857610121565b806317d70f7c116100f457806317d70f7c146101c057806323b872dd146101de57806342842e0e146101fa57806342966c68146102165780636352211e1461023257610121565b806301ffc9a71461012657806306fdde0314610156578063081812fc14610174578063095ea7b3146101a4575b600080fd5b610140600480360381019061013b9190611dd4565b6103a8565b60405161014d9190611e1c565b60405180910390f35b61015e61048a565b60405161016b9190611ed0565b60405180910390f35b61018e60048036038101906101899190611f28565b61051c565b60405161019b9190611f96565b60405180910390f35b6101be60048036038101906101b99190611fdd565b610562565b005b6101c861067a565b6040516101d5919061202c565b60405180910390f35b6101f860048036038101906101f39190612047565b61068b565b005b610214600480360381019061020f9190612047565b6106eb565b005b610230600480360381019061022b9190611f28565b61070b565b005b61024c60048036038101906102479190611f28565b610767565b6040516102599190611f96565b60405180910390f35b61027c6004803603810190610277919061209a565b610819565b604051610289919061202c565b60405180910390f35b61029a6108d1565b005b6102a46108e5565b6040516102b19190611f96565b60405180910390f35b6102c261090f565b6040516102cf9190611ed0565b60405180910390f35b6102f260048036038101906102ed91906120f3565b6109a1565b005b61030e60048036038101906103099190612268565b6109b7565b005b61032a60048036038101906103259190611f28565b610a19565b6040516103379190611ed0565b60405180910390f35b61035a6004803603810190610355919061238c565b610a2b565b005b610376600480360381019061037191906123e8565b610a64565b6040516103839190611e1c565b60405180910390f35b6103a660048036038101906103a1919061209a565b610af8565b005b60007f80ac58cd000000000000000000000000000000000000000000000000000000007bffffffffffffffffffffffffffffffffffffffffffffffffffffffff1916827bffffffffffffffffffffffffffffffffffffffffffffffffffffffff1916148061047357507f5b5e139f000000000000000000000000000000000000000000000000000000007bffffffffffffffffffffffffffffffffffffffffffffffffffffffff1916827bffffffffffffffffffffffffffffffffffffffffffffffffffffffff1916145b80610483575061048282610b7c565b5b9050919050565b60606000805461049990612457565b80601f01602080910402602001604051908101604052809291908181526020018280546104c590612457565b80156105125780601f106104e757610100808354040283529160200191610512565b820191906000526020600020905b8154815290600101906020018083116104f557829003601f168201915b5050505050905090565b600061052782610be6565b6004600083815260200190815260200160002060009054906101000a900473ffffffffffffffffffffffffffffffffffffffff169050919050565b600061056d82610767565b90508073ffffffffffffffffffffffffffffffffffffffff168373ffffffffffffffffffffffffffffffffffffffff1614156105de576040517f08c379a00000000000000000000000000000000000000000000000000000000081526004016105d5906124fb565b60405180910390fd5b8073ffffffffffffffffffffffffffffffffffffffff166105fd610c31565b73ffffffffffffffffffffffffffffffffffffffff16148061062c575061062b81610626610c31565b610a64565b5b61066b576040517f08c379a00000000000000000000000000000000000000000000000000000000081526004016106629061258d565b60405180910390fd5b6106758383610c39565b505050565b60006106866008610cf2565b905090565b61069c610696610c31565b82610d00565b6106db576040517f08c379a00000000000000000000000000000000000000000000000000000000081526004016106d29061261f565b60405180910390fd5b6106e6838383610d95565b505050565b610706838383604051806020016040528060008152506109b7565b505050565b61071c610716610c31565b82610d00565b61075b576040517f08c379a00000000000000000000000000000000000000000000000000000000081526004016107529061261f565b60405180910390fd5b61076481610ffc565b50565b6000806002600084815260200190815260200160002060009054906101000a900473ffffffffffffffffffffffffffffffffffffffff169050600073ffffffffffffffffffffffffffffffffffffffff168173ffffffffffffffffffffffffffffffffffffffff161415610810576040517f08c379a00000000000000000000000000000000000000000000000000000000081526004016108079061268b565b60405180910390fd5b80915050919050565b60008073ffffffffffffffffffffffffffffffffffffffff168273ffffffffffffffffffffffffffffffffffffffff16141561088a576040517f08c379a00000000000000000000000000000000000000000000000000000000081526004016108819061271d565b60405180910390fd5b600360008373ffffffffffffffffffffffffffffffffffffffff1673ffffffffffffffffffffffffffffffffffffffff168152602001908152602001600020549050919050565b6108d9611008565b6108e36000611086565b565b6000600760009054906101000a900473ffffffffffffffffffffffffffffffffffffffff16905090565b60606001805461091e90612457565b80601f016020809104026020016040519081016040528092919081815260200182805461094a90612457565b80156109975780601f1061096c57610100808354040283529160200191610997565b820191906000526020600020905b81548152906001019060200180831161097a57829003601f168201915b5050505050905090565b6109b36109ac610c31565b838361114c565b5050565b6109c86109c2610c31565b83610d00565b610a07576040517f08c379a00000000000000000000000000000000000000000000000000000000081526004016109fe9061261f565b60405180910390fd5b610a13848484846112b9565b50505050565b6060610a2482611315565b9050919050565b610a33611008565b6000610a3f6008610cf2565b9050610a4b6008611428565b610a55838261143e565b610a5f818361145c565b505050565b6000600560008473ffffffffffffffffffffffffffffffffffffffff1673ffffffffffffffffffffffffffffffffffffffff16815260200190815260200160002060008373ffffffffffffffffffffffffffffffffffffffff1673ffffffffffffffffffffffffffffffffffffffff16815260200190815260200160002060009054906101000a900460ff16905092915050565b610b00611008565b600073ffffffffffffffffffffffffffffffffffffffff168173ffffffffffffffffffffffffffffffffffffffff161415610b70576040517f08c379a0000000000000000000000000000000000000000000000000000000008152600401610b67906127af565b60405180910390fd5b610b7981611086565b50565b60007f01ffc9a7000000000000000000000000000000000000000000000000000000007bffffffffffffffffffffffffffffffffffffffffffffffffffffffff1916827bffffffffffffffffffffffffffffffffffffffffffffffffffffffff1916149050919050565b610bef816114d0565b610c2e576040517f08c379a0000000000000000000000000000000000000000000000000000000008152600401610c259061268b565b60405180910390fd5b50565b600033905090565b816004600083815260200190815260200160002060006101000a81548173ffffffffffffffffffffffffffffffffffffffff021916908373ffffffffffffffffffffffffffffffffffffffff160217905550808273ffffffffffffffffffffffffffffffffffffffff16610cac83610767565b73ffffffffffffffffffffffffffffffffffffffff167f8c5be1e5ebec7d5bd14f71427d1e84f3dd0314c0f7b2291e5b200ac8c7c3b92560405160405180910390a45050565b600081600001549050919050565b600080610d0c83610767565b90508073ffffffffffffffffffffffffffffffffffffffff168473ffffffffffffffffffffffffffffffffffffffff161480610d4e5750610d4d8185610a64565b5b80610d8c57508373ffffffffffffffffffffffffffffffffffffffff16610d748461051c565b73ffffffffffffffffffffffffffffffffffffffff16145b91505092915050565b8273ffffffffffffffffffffffffffffffffffffffff16610db582610767565b73ffffffffffffffffffffffffffffffffffffffff1614610e0b576040517f08c379a0000000000000000000000000000000000000000000000000000000008152600401610e0290612841565b60405180910390fd5b600073ffffffffffffffffffffffffffffffffffffffff168273ffffffffffffffffffffffffffffffffffffffff161415610e7b576040517f08c379a0000000000000000000000000000000000000000000000000000000008152600401610e72906128d3565b60405180910390fd5b610e8683838361153c565b610e91600082610c39565b6001600360008573ffffffffffffffffffffffffffffffffffffffff1673ffffffffffffffffffffffffffffffffffffffff1681526020019081526020016000206000828254610ee19190612922565b925050819055506001600360008473ffffffffffffffffffffffffffffffffffffffff1673ffffffffffffffffffffffffffffffffffffffff1681526020019081526020016000206000828254610f389190612956565b92505081905550816002600083815260200190815260200160002060006101000a81548173ffffffffffffffffffffffffffffffffffffffff021916908373ffffffffffffffffffffffffffffffffffffffff160217905550808273ffffffffffffffffffffffffffffffffffffffff168473ffffffffffffffffffffffffffffffffffffffff167fddf252ad1be2c89b69c2b068fc378daa952ba7f163c4a11628f55a4df523b3ef60405160405180910390a4610ff7838383611541565b505050565b61100581611546565b50565b611010610c31565b73ffffffffffffffffffffffffffffffffffffffff1661102e6108e5565b73ffffffffffffffffffffffffffffffffffffffff1614611084576040517f08c379a000000000000000000000000000000000000000000000000000000000815260040161107b906129f8565b60405180910390fd5b565b6000600760009054906101000a900473ffffffffffffffffffffffffffffffffffffffff16905081600760006101000a81548173ffffffffffffffffffffffffffffffffffffffff021916908373ffffffffffffffffffffffffffffffffffffffff1602179055508173ffffffffffffffffffffffffffffffffffffffff168173ffffffffffffffffffffffffffffffffffffffff167f8be0079c531659141344cd1fd0a4f28419497f9722a3daafe3b4186f6b6457e060405160405180910390a35050565b8173ffffffffffffffffffffffffffffffffffffffff168373ffffffffffffffffffffffffffffffffffffffff1614156111bb576040517f08c379a00000000000000000000000000000000000000000000000000000000081526004016111b290612a64565b60405180910390fd5b80600560008573ffffffffffffffffffffffffffffffffffffffff1673ffffffffffffffffffffffffffffffffffffffff16815260200190815260200160002060008473ffffffffffffffffffffffffffffffffffffffff1673ffffffffffffffffffffffffffffffffffffffff16815260200190815260200160002060006101000a81548160ff0219169083151502179055508173ffffffffffffffffffffffffffffffffffffffff168373ffffffffffffffffffffffffffffffffffffffff167f17307eab39ab6107e8899845ad3d59bd9653f200f220920489ca2b5937696c31836040516112ac9190611e1c565b60405180910390a3505050565b6112c4848484610d95565b6112d084848484611599565b61130f576040517f08c379a000000000000000000000000000000000000000000000000000000000815260040161130690612af6565b60405180910390fd5b50505050565b606061132082610be6565b600060066000848152602001908152602001600020805461134090612457565b80601f016020809104026020016040519081016040528092919081815260200182805461136c90612457565b80156113b95780601f1061138e576101008083540402835291602001916113b9565b820191906000526020600020905b81548152906001019060200180831161139c57829003601f168201915b5050505050905060006113ca611730565b90506000815114156113e0578192505050611423565b6000825111156114155780826040516020016113fd929190612b52565b60405160208183030381529060405292505050611423565b61141e84611747565b925050505b919050565b6001816000016000828254019250508190555050565b6114588282604051806020016040528060008152506117af565b5050565b611465826114d0565b6114a4576040517f08c379a000000000000000000000000000000000000000000000000000000000815260040161149b90612be8565b60405180910390fd5b806006600084815260200190815260200160002090805190602001906114cb929190611c85565b505050565b60008073ffffffffffffffffffffffffffffffffffffffff166002600084815260200190815260200160002060009054906101000a900473ffffffffffffffffffffffffffffffffffffffff1673ffffffffffffffffffffffffffffffffffffffff1614159050919050565b505050565b505050565b61154f8161180a565b600060066000838152602001908152602001600020805461156f90612457565b905014611596576006600082815260200190815260200160002060006115959190611d0b565b5b50565b60006115ba8473ffffffffffffffffffffffffffffffffffffffff16611927565b15611723578373ffffffffffffffffffffffffffffffffffffffff1663150b7a026115e3610c31565b8786866040518563ffffffff1660e01b81526004016116059493929190612c5d565b602060405180830381600087803b15801561161f57600080fd5b505af192505050801561165057506040513d601f19601f8201168201806040525081019061164d9190612cbe565b60015b6116d3573d8060008114611680576040519150601f19603f3d011682016040523d82523d6000602084013e611685565b606091505b506000815114156116cb576040517f08c379a00000000000000000000000000000000000000000000000000000000081526004016116c290612af6565b60405180910390fd5b805181602001fd5b63150b7a0260e01b7bffffffffffffffffffffffffffffffffffffffffffffffffffffffff1916817bffffffffffffffffffffffffffffffffffffffffffffffffffffffff191614915050611728565b600190505b949350505050565b606060405180602001604052806000815250905090565b606061175282610be6565b600061175c611730565b9050600081511161177c57604051806020016040528060008152506117a7565b806117868461194a565b604051602001611797929190612b52565b6040516020818303038152906040525b915050919050565b6117b98383611aab565b6117c66000848484611599565b611805576040517f08c379a00000000000000000000000000000000000000000000000000000000081526004016117fc90612af6565b60405180910390fd5b505050565b600061181582610767565b90506118238160008461153c565b61182e600083610c39565b6001600360008373ffffffffffffffffffffffffffffffffffffffff1673ffffffffffffffffffffffffffffffffffffffff168152602001908152602001600020600082825461187e9190612922565b925050819055506002600083815260200190815260200160002060006101000a81549073ffffffffffffffffffffffffffffffffffffffff021916905581600073ffffffffffffffffffffffffffffffffffffffff168273ffffffffffffffffffffffffffffffffffffffff167fddf252ad1be2c89b69c2b068fc378daa952ba7f163c4a11628f55a4df523b3ef60405160405180910390a461192381600084611541565b5050565b6000808273ffffffffffffffffffffffffffffffffffffffff163b119050919050565b60606000821415611992576040518060400160405280600181526020017f30000000000000000000000000000000000000000000000000000000000000008152509050611aa6565b600082905060005b600082146119c45780806119ad90612ceb565b915050600a826119bd9190612d63565b915061199a565b60008167ffffffffffffffff8111156119e0576119df61213d565b5b6040519080825280601f01601f191660200182016040528015611a125781602001600182028036833780820191505090505b5090505b60008514611a9f57600182611a2b9190612922565b9150600a85611a3a9190612d94565b6030611a469190612956565b60f81b818381518110611a5c57611a5b612dc5565b5b60200101907effffffffffffffffffffffffffffffffffffffffffffffffffffffffffffff1916908160001a905350600a85611a989190612d63565b9450611a16565b8093505050505b919050565b600073ffffffffffffffffffffffffffffffffffffffff168273ffffffffffffffffffffffffffffffffffffffff161415611b1b576040517f08c379a0000000000000000000000000000000000000000000000000000000008152600401611b1290612e40565b60405180910390fd5b611b24816114d0565b15611b64576040517f08c379a0000000000000000000000000000000000000000000000000000000008152600401611b5b90612eac565b60405180910390fd5b611b706000838361153c565b6001600360008473ffffffffffffffffffffffffffffffffffffffff1673ffffffffffffffffffffffffffffffffffffffff1681526020019081526020016000206000828254611bc09190612956565b92505081905550816002600083815260200190815260200160002060006101000a81548173ffffffffffffffffffffffffffffffffffffffff021916908373ffffffffffffffffffffffffffffffffffffffff160217905550808273ffffffffffffffffffffffffffffffffffffffff16600073ffffffffffffffffffffffffffffffffffffffff167fddf252ad1be2c89b69c2b068fc378daa952ba7f163c4a11628f55a4df523b3ef60405160405180910390a4611c8160008383611541565b5050565b828054611c9190612457565b90600052602060002090601f016020900481019282611cb35760008555611cfa565b82601f10611ccc57805160ff1916838001178555611cfa565b82800160010185558215611cfa579182015b82811115611cf9578251825591602001919060010190611cde565b5b509050611d079190611d4b565b5090565b508054611d1790612457565b6000825580601f10611d295750611d48565b601f016020900490600052602060002090810190611d479190611d4b565b5b50565b5b80821115611d64576000816000905550600101611d4c565b5090565b6000604051905090565b600080fd5b600080fd5b60007fffffffff0000000000000000000000000000000000000000000000000000000082169050919050565b611db181611d7c565b8114611dbc57600080fd5b50565b600081359050611dce81611da8565b92915050565b600060208284031215611dea57611de9611d72565b5b6000611df884828501611dbf565b91505092915050565b60008115159050919050565b611e1681611e01565b82525050565b6000602082019050611e316000830184611e0d565b92915050565b600081519050919050565b600082825260208201905092915050565b60005b83811015611e71578082015181840152602081019050611e56565b83811115611e80576000848401525b50505050565b6000601f19601f8301169050919050565b6000611ea282611e37565b611eac8185611e42565b9350611ebc818560208601611e53565b611ec581611e86565b840191505092915050565b60006020820190508181036000830152611eea8184611e97565b905092915050565b6000819050919050565b611f0581611ef2565b8114611f1057600080fd5b50565b600081359050611f2281611efc565b92915050565b600060208284031215611f3e57611f3d611d72565b5b6000611f4c84828501611f13565b91505092915050565b600073ffffffffffffffffffffffffffffffffffffffff82169050919050565b6000611f8082611f55565b9050919050565b611f9081611f75565b82525050565b6000602082019050611fab6000830184611f87565b92915050565b611fba81611f75565b8114611fc557600080fd5b50565b600081359050611fd781611fb1565b92915050565b60008060408385031215611ff457611ff3611d72565b5b600061200285828601611fc8565b925050602061201385828601611f13565b9150509250929050565b61202681611ef2565b82525050565b6000602082019050612041600083018461201d565b92915050565b6000806000606084860312156120605761205f611d72565b5b600061206e86828701611fc8565b935050602061207f86828701611fc8565b925050604061209086828701611f13565b9150509250925092565b6000602082840312156120b0576120af611d72565b5b60006120be84828501611fc8565b91505092915050565b6120d081611e01565b81146120db57600080fd5b50565b6000813590506120ed816120c7565b92915050565b6000806040838503121561210a57612109611d72565b5b600061211885828601611fc8565b9250506020612129858286016120de565b9150509250929050565b600080fd5b600080fd5b7f4e487b7100000000000000000000000000000000000000000000000000000000600052604160045260246000fd5b61217582611e86565b810181811067ffffffffffffffff821117156121945761219361213d565b5b80604052505050565b60006121a7611d68565b90506121b3828261216c565b919050565b600067ffffffffffffffff8211156121d3576121d261213d565b5b6121dc82611e86565b9050602081019050919050565b82818337600083830152505050565b600061220b612206846121b8565b61219d565b90508281526020810184848401111561222757612226612138565b5b6122328482856121e9565b509392505050565b600082601f83011261224f5761224e612133565b5b813561225f8482602086016121f8565b91505092915050565b6000806000806080858703121561228257612281611d72565b5b600061229087828801611fc8565b94505060206122a187828801611fc8565b93505060406122b287828801611f13565b925050606085013567ffffffffffffffff8111156122d3576122d2611d77565b5b6122df8782880161223a565b91505092959194509250565b600067ffffffffffffffff8211156123065761230561213d565b5b61230f82611e86565b9050602081019050919050565b600061232f61232a846122eb565b61219d565b90508281526020810184848401111561234b5761234a612138565b5b6123568482856121e9565b509392505050565b600082601f83011261237357612372612133565b5b813561238384826020860161231c565b91505092915050565b600080604083850312156123a3576123a2611d72565b5b60006123b185828601611fc8565b925050602083013567ffffffffffffffff8111156123d2576123d1611d77565b5b6123de8582860161235e565b9150509250929050565b600080604083850312156123ff576123fe611d72565b5b600061240d85828601611fc8565b925050602061241e85828601611fc8565b9150509250929050565b7f4e487b7100000000000000000000000000000000000000000000000000000000600052602260045260246000fd5b6000600282049050600182168061246f57607f821691505b6020821081141561248357612482612428565b5b50919050565b7f4552433732313a20617070726f76616c20746f2063757272656e74206f776e6560008201527f7200000000000000000000000000000000000000000000000000000000000000602082015250565b60006124e5602183611e42565b91506124f082612489565b604082019050919050565b60006020820190508181036000830152612514816124d8565b9050919050565b7f4552433732313a20617070726f76652063616c6c6572206973206e6f7420746f60008201527f6b656e206f776e6572206e6f7220617070726f76656420666f7220616c6c0000602082015250565b6000612577603e83611e42565b91506125828261251b565b604082019050919050565b600060208201905081810360008301526125a68161256a565b9050919050565b7f4552433732313a2063616c6c6572206973206e6f7420746f6b656e206f776e6560008201527f72206e6f7220617070726f766564000000000000000000000000000000000000602082015250565b6000612609602e83611e42565b9150612614826125ad565b604082019050919050565b60006020820190508181036000830152612638816125fc565b9050919050565b7f4552433732313a20696e76616c696420746f6b656e2049440000000000000000600082015250565b6000612675601883611e42565b91506126808261263f565b602082019050919050565b600060208201905081810360008301526126a481612668565b9050919050565b7f4552433732313a2061646472657373207a65726f206973206e6f74206120766160008201527f6c6964206f776e65720000000000000000000000000000000000000000000000602082015250565b6000612707602983611e42565b9150612712826126ab565b604082019050919050565b60006020820190508181036000830152612736816126fa565b9050919050565b7f4f776e61626c653a206e6577206f776e657220697320746865207a65726f206160008201527f6464726573730000000000000000000000000000000000000000000000000000602082015250565b6000612799602683611e42565b91506127a48261273d565b604082019050919050565b600060208201905081810360008301526127c88161278c565b9050919050565b7f4552433732313a207472616e736665722066726f6d20696e636f72726563742060008201527f6f776e6572000000000000000000000000000000000000000000000000000000602082015250565b600061282b602583611e42565b9150612836826127cf565b604082019050919050565b6000602082019050818103600083015261285a8161281e565b9050919050565b7f4552433732313a207472616e7366657220746f20746865207a65726f2061646460008201527f7265737300000000000000000000000000000000000000000000000000000000602082015250565b60006128bd602483611e42565b91506128c882612861565b604082019050919050565b600060208201905081810360008301526128ec816128b0565b9050919050565b7f4e487b7100000000000000000000000000000000000000000000000000000000600052601160045260246000fd5b600061292d82611ef2565b915061293883611ef2565b92508282101561294b5761294a6128f3565b5b828203905092915050565b600061296182611ef2565b915061296c83611ef2565b9250827fffffffffffffffffffffffffffffffffffffffffffffffffffffffffffffffff038211156129a1576129a06128f3565b5b828201905092915050565b7f4f776e61626c653a2063616c6c6572206973206e6f7420746865206f776e6572600082015250565b60006129e2602083611e42565b91506129ed826129ac565b602082019050919050565b60006020820190508181036000830152612a11816129d5565b9050919050565b7f4552433732313a20617070726f766520746f2063616c6c657200000000000000600082015250565b6000612a4e601983611e42565b9150612a5982612a18565b602082019050919050565b60006020820190508181036000830152612a7d81612a41565b9050919050565b7f4552433732313a207472616e7366657220746f206e6f6e20455243373231526560008201527f63656976657220696d706c656d656e7465720000000000000000000000000000602082015250565b6000612ae0603283611e42565b9150612aeb82612a84565b604082019050919050565b60006020820190508181036000830152612b0f81612ad3565b9050919050565b600081905092915050565b6000612b2c82611e37565b612b368185612b16565b9350612b46818560208601611e53565b80840191505092915050565b6000612b5e8285612b21565b9150612b6a8284612b21565b91508190509392505050565b7f45524337323155524953746f726167653a2055524920736574206f66206e6f6e60008201527f6578697374656e7420746f6b656e000000000000000000000000000000000000602082015250565b6000612bd2602e83611e42565b9150612bdd82612b76565b604082019050919050565b60006020820190508181036000830152612c0181612bc5565b9050919050565b600081519050919050565b600082825260208201905092915050565b6000612c2f82612c08565b612c398185612c13565b9350612c49818560208601611e53565b612c5281611e86565b840191505092915050565b6000608082019050612c726000830187611f87565b612c7f6020830186611f87565b612c8c604083018561201d565b8181036060830152612c9e8184612c24565b905095945050505050565b600081519050612cb881611da8565b92915050565b600060208284031215612cd457612cd3611d72565b5b6000612ce284828501612ca9565b91505092915050565b6000612cf682611ef2565b91507fffffffffffffffffffffffffffffffffffffffffffffffffffffffffffffffff821415612d2957612d286128f3565b5b600182019050919050565b7f4e487b7100000000000000000000000000000000000000000000000000000000600052601260045260246000fd5b6000612d6e82611ef2565b9150612d7983611ef2565b925082612d8957612d88612d34565b5b828204905092915050565b6000612d9f82611ef2565b9150612daa83611ef2565b925082612dba57612db9612d34565b5b828206905092915050565b7f4e487b7100000000000000000000000000000000000000000000000000000000600052603260045260246000fd5b7f4552433732313a206d696e7420746f20746865207a65726f2061646472657373600082015250565b6000612e2a602083611e42565b9150612e3582612df4565b602082019050919050565b60006020820190508181036000830152612e5981612e1d565b9050919050565b7f4552433732313a20746f6b656e20616c7265616479206d696e74656400000000600082015250565b6000612e96601c83611e42565b9150612ea182612e60565b602082019050919050565b60006020820190508181036000830152612ec581612e89565b905091905056fea2646970667358221220e743a657324fe6757ce004029fb36d915207685c5cf45845a72a74330603a40a64736f6c63430008090033",
  "linkReferences": {},
  "deployedLinkReferences": {}
}