{
  "_format": "hh-sol-artifact-1",
  "contractName": "Route",
  "sourceName": "contracts/Route.sol",
  "abi": [
    {
      "inputs": [],
      "stateMutability": "nonpayable",
      "type": "constructor"
    },
    {
      "anonymous": false,
      "inputs": [
        {
          "indexed": true,
          "internalType": "address",
          "name": "owner",
          "type": "address"
        },
        {
          "indexed": true,
          "internalType": "address",
          "name": "approved",
          "type": "address"
        },
        {
          "indexed": true,
          "internalType": "uint256",
          "name": "tokenId",
          "type": "uint256"
        }
      ],
      "name": "Approval",
      "type": "event"
    },
    {
      "anonymous": false,
      "inputs": [
        {
          "indexed": true,
          "internalType": "address",
          "name": "owner",
          "type": "address"
        },
        {
          "indexed": true,
          "internalType": "address",
          "name": "operator",
          "type": "address"
        },
        {
          "indexed": false,
          "internalType": "bool",
          "name": "approved",
          "type": "bool"
        }
      ],
      "name": "ApprovalForAll",
      "type": "event"
    },
    {
      "anonymous": false,
      "inputs": [
        {
          "indexed": true,
          "internalType": "address",
          "name": "previousOwner",
          "type": "address"
        },
        {
          "indexed": true,
          "internalType": "address",
          "name": "newOwner",
          "type": "address"
        }
      ],
      "name": "OwnershipTransferred",
      "type": "event"
    },
    {
      "anonymous": false,
      "inputs": [
        {
          "indexed": true,
          "internalType": "address",
          "name": "from",
          "type": "address"
        },
        {
          "indexed": true,
          "internalType": "address",
          "name": "to",
          "type": "address"
        },
        {
          "indexed": true,
          "internalType": "uint256",
          "name": "tokenId",
          "type": "uint256"
        }
      ],
      "name": "Transfer",
      "type": "event"
    },
    {
      "inputs": [
        {
          "internalType": "address",
          "name": "to",
          "type": "address"
        },
        {
          "internalType": "uint256",
          "name": "tokenId",
          "type": "uint256"
        }
      ],
      "name": "approve",
      "outputs": [],
      "stateMutability": "nonpayable",
      "type": "function"
    },
    {
      "inputs": [
        {
          "internalType": "address",
          "name": "owner",
          "type": "address"
        }
      ],
      "name": "balanceOf",
      "outputs": [
        {
          "internalType": "uint256",
          "name": "",
          "type": "uint256"
        }
      ],
      "stateMutability": "view",
      "type": "function"
    },
    {
      "inputs": [
        {
          "internalType": "uint256",
          "name": "tokenId",
          "type": "uint256"
        }
      ],
      "name": "getApproved",
      "outputs": [
        {
          "internalType": "address",
          "name": "",
          "type": "address"
        }
      ],
      "stateMutability": "view",
      "type": "function"
    },
    {
      "inputs": [
        {
          "internalType": "address",
          "name": "recipient",
          "type": "address"
        }
      ],
      "name": "getUserRouteIds",
      "outputs": [
        {
          "internalType": "uint256[]",
          "name": "",
          "type": "uint256[]"
        }
      ],
      "stateMutability": "view",
      "type": "function"
    },
    {
      "inputs": [
        {
          "internalType": "address",
          "name": "owner",
          "type": "address"
        },
        {
          "internalType": "address",
          "name": "operator",
          "type": "address"
        }
      ],
      "name": "isApprovedForAll",
      "outputs": [
        {
          "internalType": "bool",
          "name": "",
          "type": "bool"
        }
      ],
      "stateMutability": "view",
      "type": "function"
    },
    {
      "inputs": [
        {
          "internalType": "address",
          "name": "recipient",
          "type": "address"
        },
        {
          "internalType": "string",
          "name": "tokenURI",
          "type": "string"
        }
      ],
      "name": "mintRoute",
      "outputs": [
        {
          "internalType": "uint256",
          "name": "",
          "type": "uint256"
        }
      ],
      "stateMutability": "nonpayable",
      "type": "function"
    },
    {
      "inputs": [],
      "name": "name",
      "outputs": [
        {
          "internalType": "string",
          "name": "",
          "type": "string"
        }
      ],
      "stateMutability": "view",
      "type": "function"
    },
    {
      "inputs": [],
      "name": "owner",
      "outputs": [
        {
          "internalType": "address",
          "name": "",
          "type": "address"
        }
      ],
      "stateMutability": "view",
      "type": "function"
    },
    {
      "inputs": [
        {
          "internalType": "uint256",
          "name": "tokenId",
          "type": "uint256"
        }
      ],
      "name": "ownerOf",
      "outputs": [
        {
          "internalType": "address",
          "name": "",
          "type": "address"
        }
      ],
      "stateMutability": "view",
      "type": "function"
    },
    {
      "inputs": [],
      "name": "renounceOwnership",
      "outputs": [],
      "stateMutability": "nonpayable",
      "type": "function"
    },
    {
      "inputs": [
        {
          "internalType": "address",
          "name": "from",
          "type": "address"
        },
        {
          "internalType": "address",
          "name": "to",
          "type": "address"
        },
        {
          "internalType": "uint256",
          "name": "tokenId",
          "type": "uint256"
        }
      ],
      "name": "safeTransferFrom",
      "outputs": [],
      "stateMutability": "nonpayable",
      "type": "function"
    },
    {
      "inputs": [
        {
          "internalType": "address",
          "name": "from",
          "type": "address"
        },
        {
          "internalType": "address",
          "name": "to",
          "type": "address"
        },
        {
          "internalType": "uint256",
          "name": "tokenId",
          "type": "uint256"
        },
        {
          "internalType": "bytes",
          "name": "data",
          "type": "bytes"
        }
      ],
      "name": "safeTransferFrom",
      "outputs": [],
      "stateMutability": "nonpayable",
      "type": "function"
    },
    {
      "inputs": [
        {
          "internalType": "address",
          "name": "operator",
          "type": "address"
        },
        {
          "internalType": "bool",
          "name": "approved",
          "type": "bool"
        }
      ],
      "name": "setApprovalForAll",
      "outputs": [],
      "stateMutability": "nonpayable",
      "type": "function"
    },
    {
      "inputs": [
        {
          "internalType": "bytes4",
          "name": "interfaceId",
          "type": "bytes4"
        }
      ],
      "name": "supportsInterface",
      "outputs": [
        {
          "internalType": "bool",
          "name": "",
          "type": "bool"
        }
      ],
      "stateMutability": "view",
      "type": "function"
    },
    {
      "inputs": [],
      "name": "symbol",
      "outputs": [
        {
          "internalType": "string",
          "name": "",
          "type": "string"
        }
      ],
      "stateMutability": "view",
      "type": "function"
    },
    {
      "inputs": [
        {
          "internalType": "uint256",
          "name": "tokenId",
          "type": "uint256"
        }
      ],
      "name": "tokenURI",
      "outputs": [
        {
          "internalType": "string",
          "name": "",
          "type": "string"
        }
      ],
      "stateMutability": "view",
      "type": "function"
    },
    {
      "inputs": [
        {
          "internalType": "address",
          "name": "from",
          "type": "address"
        },
        {
          "internalType": "address",
          "name": "to",
          "type": "address"
        },
        {
          "internalType": "uint256",
          "name": "tokenId",
          "type": "uint256"
        }
      ],
      "name": "transferFrom",
      "outputs": [],
      "stateMutability": "nonpayable",
      "type": "function"
    },
    {
      "inputs": [
        {
          "internalType": "address",
          "name": "newOwner",
          "type": "address"
        }
      ],
      "name": "transferOwnership",
      "outputs": [],
      "stateMutability": "nonpayable",
      "type": "function"
    }
  ],
  "bytecode": "0x60806040523480156200001157600080fd5b506040518060400160405280600881526020017f526f7574654e46540000000000000000000000000000000000000000000000008152506040518060400160405280600581526020017f524f55544500000000000000000000000000000000000000000000000000000081525081600090816200008f919062000412565b508060019081620000a1919062000412565b505050620000c4620000b8620000ca60201b60201c565b620000d260201b60201c565b620004f9565b600033905090565b6000600760009054906101000a900473ffffffffffffffffffffffffffffffffffffffff16905081600760006101000a81548173ffffffffffffffffffffffffffffffffffffffff021916908373ffffffffffffffffffffffffffffffffffffffff1602179055508173ffffffffffffffffffffffffffffffffffffffff168173ffffffffffffffffffffffffffffffffffffffff167f8be0079c531659141344cd1fd0a4f28419497f9722a3daafe3b4186f6b6457e060405160405180910390a35050565b600081519050919050565b7f4e487b7100000000000000000000000000000000000000000000000000000000600052604160045260246000fd5b7f4e487b7100000000000000000000000000000000000000000000000000000000600052602260045260246000fd5b600060028204905060018216806200021a57607f821691505b60208210810362000230576200022f620001d2565b5b50919050565b60008190508160005260206000209050919050565b60006020601f8301049050919050565b600082821b905092915050565b6000600883026200029a7fffffffffffffffffffffffffffffffffffffffffffffffffffffffffffffffff826200025b565b620002a686836200025b565b95508019841693508086168417925050509392505050565b6000819050919050565b6000819050919050565b6000620002f3620002ed620002e784620002be565b620002c8565b620002be565b9050919050565b6000819050919050565b6200030f83620002d2565b620003276200031e82620002fa565b84845462000268565b825550505050565b600090565b6200033e6200032f565b6200034b81848462000304565b505050565b5b8181101562000373576200036760008262000334565b60018101905062000351565b5050565b601f821115620003c2576200038c8162000236565b62000397846200024b565b81016020851015620003a7578190505b620003bf620003b6856200024b565b83018262000350565b50505b505050565b600082821c905092915050565b6000620003e760001984600802620003c7565b1980831691505092915050565b6000620004028383620003d4565b9150826002028217905092915050565b6200041d8262000198565b67ffffffffffffffff811115620004395762000438620001a3565b5b62000445825462000201565b6200045282828562000377565b600060209050601f8311600181146200048a576000841562000475578287015190505b620004818582620003f4565b865550620004f1565b601f1984166200049a8662000236565b60005b82811015620004c4578489015182556001820191506020850194506020810190506200049d565b86831015620004e45784890151620004e0601f891682620003d4565b8355505b6001600288020188555050505b505050505050565b612fbf80620005096000396000f3fe608060405234801561001057600080fd5b50600436106101165760003560e01c8063715018a6116100a2578063b88d4fde11610071578063b88d4fde146102df578063c86ba491146102fb578063c87b56dd1461032b578063e985e9c51461035b578063f2fde38b1461038b57610116565b8063715018a61461027d5780638da5cb5b1461028757806395d89b41146102a5578063a22cb465146102c357610116565b8063128db457116100e9578063128db457146101b557806323b872dd146101e557806342842e0e146102015780636352211e1461021d57806370a082311461024d57610116565b806301ffc9a71461011b57806306fdde031461014b578063081812fc14610169578063095ea7b314610199575b600080fd5b61013560048036038101906101309190611b60565b6103a7565b6040516101429190611ba8565b60405180910390f35b610153610489565b6040516101609190611c53565b60405180910390f35b610183600480360381019061017e9190611cab565b61051b565b6040516101909190611d19565b60405180910390f35b6101b360048036038101906101ae9190611d60565b610561565b005b6101cf60048036038101906101ca9190611ed5565b610678565b6040516101dc9190611f40565b60405180910390f35b6101ff60048036038101906101fa9190611f5b565b61071e565b005b61021b60048036038101906102169190611f5b565b61077e565b005b61023760048036038101906102329190611cab565b61079e565b6040516102449190611d19565b60405180910390f35b61026760048036038101906102629190611fae565b61084f565b6040516102749190611f40565b60405180910390f35b610285610906565b005b61028f61091a565b60405161029c9190611d19565b60405180910390f35b6102ad610944565b6040516102ba9190611c53565b60405180910390f35b6102dd60048036038101906102d89190612007565b6109d6565b005b6102f960048036038101906102f491906120e8565b6109ec565b005b61031560048036038101906103109190611fae565b610a4e565b6040516103229190612229565b60405180910390f35b61034560048036038101906103409190611cab565b610ae5565b6040516103529190611c53565b60405180910390f35b6103756004803603810190610370919061224b565b610bf7565b6040516103829190611ba8565b60405180910390f35b6103a560048036038101906103a09190611fae565b610c8b565b005b60007f80ac58cd000000000000000000000000000000000000000000000000000000007bffffffffffffffffffffffffffffffffffffffffffffffffffffffff1916827bffffffffffffffffffffffffffffffffffffffffffffffffffffffff1916148061047257507f5b5e139f000000000000000000000000000000000000000000000000000000007bffffffffffffffffffffffffffffffffffffffffffffffffffffffff1916827bffffffffffffffffffffffffffffffffffffffffffffffffffffffff1916145b80610482575061048182610d0e565b5b9050919050565b606060008054610498906122ba565b80601f01602080910402602001604051908101604052809291908181526020018280546104c4906122ba565b80156105115780601f106104e657610100808354040283529160200191610511565b820191906000526020600020905b8154815290600101906020018083116104f457829003601f168201915b5050505050905090565b600061052682610d78565b6004600083815260200190815260200160002060009054906101000a900473ffffffffffffffffffffffffffffffffffffffff169050919050565b600061056c8261079e565b90508073ffffffffffffffffffffffffffffffffffffffff168373ffffffffffffffffffffffffffffffffffffffff16036105dc576040517f08c379a00000000000000000000000000000000000000000000000000000000081526004016105d39061235d565b60405180910390fd5b8073ffffffffffffffffffffffffffffffffffffffff166105fb610dc3565b73ffffffffffffffffffffffffffffffffffffffff16148061062a575061062981610624610dc3565b610bf7565b5b610669576040517f08c379a0000000000000000000000000000000000000000000000000000000008152600401610660906123ef565b60405180910390fd5b6106738383610dcb565b505050565b6000610682610e84565b61068c6008610f02565b60006106986008610f18565b9050600960008573ffffffffffffffffffffffffffffffffffffffff1673ffffffffffffffffffffffffffffffffffffffff16815260200190815260200160002081908060018154018082558091505060019003906000526020600020016000909190919091505561070a8482610f26565b61071481846110ff565b8091505092915050565b61072f610729610dc3565b8261116c565b61076e576040517f08c379a000000000000000000000000000000000000000000000000000000000815260040161076590612481565b60405180910390fd5b610779838383611201565b505050565b610799838383604051806020016040528060008152506109ec565b505050565b6000806002600084815260200190815260200160002060009054906101000a900473ffffffffffffffffffffffffffffffffffffffff169050600073ffffffffffffffffffffffffffffffffffffffff168173ffffffffffffffffffffffffffffffffffffffff1603610846576040517f08c379a000000000000000000000000000000000000000000000000000000000815260040161083d906124ed565b60405180910390fd5b80915050919050565b60008073ffffffffffffffffffffffffffffffffffffffff168273ffffffffffffffffffffffffffffffffffffffff16036108bf576040517f08c379a00000000000000000000000000000000000000000000000000000000081526004016108b69061257f565b60405180910390fd5b600360008373ffffffffffffffffffffffffffffffffffffffff1673ffffffffffffffffffffffffffffffffffffffff168152602001908152602001600020549050919050565b61090e610e84565b6109186000611467565b565b6000600760009054906101000a900473ffffffffffffffffffffffffffffffffffffffff16905090565b606060018054610953906122ba565b80601f016020809104026020016040519081016040528092919081815260200182805461097f906122ba565b80156109cc5780601f106109a1576101008083540402835291602001916109cc565b820191906000526020600020905b8154815290600101906020018083116109af57829003601f168201915b5050505050905090565b6109e86109e1610dc3565b838361152d565b5050565b6109fd6109f7610dc3565b8361116c565b610a3c576040517f08c379a0000000000000000000000000000000000000000000000000000000008152600401610a3390612481565b60405180910390fd5b610a4884848484611699565b50505050565b6060600960008373ffffffffffffffffffffffffffffffffffffffff1673ffffffffffffffffffffffffffffffffffffffff168152602001908152602001600020805480602002602001604051908101604052809291908181526020018280548015610ad957602002820191906000526020600020905b815481526020019060010190808311610ac5575b50505050509050919050565b6060610af082610d78565b6000600660008481526020019081526020016000208054610b10906122ba565b80601f0160208091040260200160405190810160405280929190818152602001828054610b3c906122ba565b8015610b895780601f10610b5e57610100808354040283529160200191610b89565b820191906000526020600020905b815481529060010190602001808311610b6c57829003601f168201915b505050505090506000610b9a6116f5565b90506000815103610baf578192505050610bf2565b600082511115610be4578082604051602001610bcc9291906125db565b60405160208183030381529060405292505050610bf2565b610bed8461170c565b925050505b919050565b6000600560008473ffffffffffffffffffffffffffffffffffffffff1673ffffffffffffffffffffffffffffffffffffffff16815260200190815260200160002060008373ffffffffffffffffffffffffffffffffffffffff1673ffffffffffffffffffffffffffffffffffffffff16815260200190815260200160002060009054906101000a900460ff16905092915050565b610c93610e84565b600073ffffffffffffffffffffffffffffffffffffffff168173ffffffffffffffffffffffffffffffffffffffff1603610d02576040517f08c379a0000000000000000000000000000000000000000000000000000000008152600401610cf990612671565b60405180910390fd5b610d0b81611467565b50565b60007f01ffc9a7000000000000000000000000000000000000000000000000000000007bffffffffffffffffffffffffffffffffffffffffffffffffffffffff1916827bffffffffffffffffffffffffffffffffffffffffffffffffffffffff1916149050919050565b610d8181611774565b610dc0576040517f08c379a0000000000000000000000000000000000000000000000000000000008152600401610db7906124ed565b60405180910390fd5b50565b600033905090565b816004600083815260200190815260200160002060006101000a81548173ffffffffffffffffffffffffffffffffffffffff021916908373ffffffffffffffffffffffffffffffffffffffff160217905550808273ffffffffffffffffffffffffffffffffffffffff16610e3e8361079e565b73ffffffffffffffffffffffffffffffffffffffff167f8c5be1e5ebec7d5bd14f71427d1e84f3dd0314c0f7b2291e5b200ac8c7c3b92560405160405180910390a45050565b610e8c610dc3565b73ffffffffffffffffffffffffffffffffffffffff16610eaa61091a565b73ffffffffffffffffffffffffffffffffffffffff1614610f00576040517f08c379a0000000000000000000000000000000000000000000000000000000008152600401610ef7906126dd565b60405180910390fd5b565b6001816000016000828254019250508190555050565b600081600001549050919050565b600073ffffffffffffffffffffffffffffffffffffffff168273ffffffffffffffffffffffffffffffffffffffff1603610f95576040517f08c379a0000000000000000000000000000000000000000000000000000000008152600401610f8c90612749565b60405180910390fd5b610f9e81611774565b15610fde576040517f08c379a0000000000000000000000000000000000000000000000000000000008152600401610fd5906127b5565b60405180910390fd5b610fea600083836117e0565b6001600360008473ffffffffffffffffffffffffffffffffffffffff1673ffffffffffffffffffffffffffffffffffffffff168152602001908152602001600020600082825461103a9190612804565b92505081905550816002600083815260200190815260200160002060006101000a81548173ffffffffffffffffffffffffffffffffffffffff021916908373ffffffffffffffffffffffffffffffffffffffff160217905550808273ffffffffffffffffffffffffffffffffffffffff16600073ffffffffffffffffffffffffffffffffffffffff167fddf252ad1be2c89b69c2b068fc378daa952ba7f163c4a11628f55a4df523b3ef60405160405180910390a46110fb600083836117e5565b5050565b61110882611774565b611147576040517f08c379a000000000000000000000000000000000000000000000000000000000815260040161113e906128aa565b60405180910390fd5b806006600084815260200190815260200160002090816111679190612a76565b505050565b6000806111788361079e565b90508073ffffffffffffffffffffffffffffffffffffffff168473ffffffffffffffffffffffffffffffffffffffff1614806111ba57506111b98185610bf7565b5b806111f857508373ffffffffffffffffffffffffffffffffffffffff166111e08461051b565b73ffffffffffffffffffffffffffffffffffffffff16145b91505092915050565b8273ffffffffffffffffffffffffffffffffffffffff166112218261079e565b73ffffffffffffffffffffffffffffffffffffffff1614611277576040517f08c379a000000000000000000000000000000000000000000000000000000000815260040161126e90612bba565b60405180910390fd5b600073ffffffffffffffffffffffffffffffffffffffff168273ffffffffffffffffffffffffffffffffffffffff16036112e6576040517f08c379a00000000000000000000000000000000000000000000000000000000081526004016112dd90612c4c565b60405180910390fd5b6112f18383836117e0565b6112fc600082610dcb565b6001600360008573ffffffffffffffffffffffffffffffffffffffff1673ffffffffffffffffffffffffffffffffffffffff168152602001908152602001600020600082825461134c9190612c6c565b925050819055506001600360008473ffffffffffffffffffffffffffffffffffffffff1673ffffffffffffffffffffffffffffffffffffffff16815260200190815260200160002060008282546113a39190612804565b92505081905550816002600083815260200190815260200160002060006101000a81548173ffffffffffffffffffffffffffffffffffffffff021916908373ffffffffffffffffffffffffffffffffffffffff160217905550808273ffffffffffffffffffffffffffffffffffffffff168473ffffffffffffffffffffffffffffffffffffffff167fddf252ad1be2c89b69c2b068fc378daa952ba7f163c4a11628f55a4df523b3ef60405160405180910390a46114628383836117e5565b505050565b6000600760009054906101000a900473ffffffffffffffffffffffffffffffffffffffff16905081600760006101000a81548173ffffffffffffffffffffffffffffffffffffffff021916908373ffffffffffffffffffffffffffffffffffffffff1602179055508173ffffffffffffffffffffffffffffffffffffffff168173ffffffffffffffffffffffffffffffffffffffff167f8be0079c531659141344cd1fd0a4f28419497f9722a3daafe3b4186f6b6457e060405160405180910390a35050565b8173ffffffffffffffffffffffffffffffffffffffff168373ffffffffffffffffffffffffffffffffffffffff160361159b576040517f08c379a000000000000000000000000000000000000000000000000000000000815260040161159290612cec565b60405180910390fd5b80600560008573ffffffffffffffffffffffffffffffffffffffff1673ffffffffffffffffffffffffffffffffffffffff16815260200190815260200160002060008473ffffffffffffffffffffffffffffffffffffffff1673ffffffffffffffffffffffffffffffffffffffff16815260200190815260200160002060006101000a81548160ff0219169083151502179055508173ffffffffffffffffffffffffffffffffffffffff168373ffffffffffffffffffffffffffffffffffffffff167f17307eab39ab6107e8899845ad3d59bd9653f200f220920489ca2b5937696c318360405161168c9190611ba8565b60405180910390a3505050565b6116a4848484611201565b6116b0848484846117ea565b6116ef576040517f08c379a00000000000000000000000000000000000000000000000000000000081526004016116e690612d7e565b60405180910390fd5b50505050565b606060405180602001604052806000815250905090565b606061171782610d78565b60006117216116f5565b90506000815111611741576040518060200160405280600081525061176c565b8061174b84611971565b60405160200161175c9291906125db565b6040516020818303038152906040525b915050919050565b60008073ffffffffffffffffffffffffffffffffffffffff166002600084815260200190815260200160002060009054906101000a900473ffffffffffffffffffffffffffffffffffffffff1673ffffffffffffffffffffffffffffffffffffffff1614159050919050565b505050565b505050565b600061180b8473ffffffffffffffffffffffffffffffffffffffff16611ad1565b15611964578373ffffffffffffffffffffffffffffffffffffffff1663150b7a02611834610dc3565b8786866040518563ffffffff1660e01b81526004016118569493929190612df3565b6020604051808303816000875af192505050801561189257506040513d601f19601f8201168201806040525081019061188f9190612e54565b60015b611914573d80600081146118c2576040519150601f19603f3d011682016040523d82523d6000602084013e6118c7565b606091505b50600081510361190c576040517f08c379a000000000000000000000000000000000000000000000000000000000815260040161190390612d7e565b60405180910390fd5b805181602001fd5b63150b7a0260e01b7bffffffffffffffffffffffffffffffffffffffffffffffffffffffff1916817bffffffffffffffffffffffffffffffffffffffffffffffffffffffff191614915050611969565b600190505b949350505050565b6060600082036119b8576040518060400160405280600181526020017f30000000000000000000000000000000000000000000000000000000000000008152509050611acc565b600082905060005b600082146119ea5780806119d390612e81565b915050600a826119e39190612ef8565b91506119c0565b60008167ffffffffffffffff811115611a0657611a05611daa565b5b6040519080825280601f01601f191660200182016040528015611a385781602001600182028036833780820191505090505b5090505b60008514611ac557600182611a519190612c6c565b9150600a85611a609190612f29565b6030611a6c9190612804565b60f81b818381518110611a8257611a81612f5a565b5b60200101907effffffffffffffffffffffffffffffffffffffffffffffffffffffffffffff1916908160001a905350600a85611abe9190612ef8565b9450611a3c565b8093505050505b919050565b6000808273ffffffffffffffffffffffffffffffffffffffff163b119050919050565b6000604051905090565b600080fd5b600080fd5b60007fffffffff0000000000000000000000000000000000000000000000000000000082169050919050565b611b3d81611b08565b8114611b4857600080fd5b50565b600081359050611b5a81611b34565b92915050565b600060208284031215611b7657611b75611afe565b5b6000611b8484828501611b4b565b91505092915050565b60008115159050919050565b611ba281611b8d565b82525050565b6000602082019050611bbd6000830184611b99565b92915050565b600081519050919050565b600082825260208201905092915050565b60005b83811015611bfd578082015181840152602081019050611be2565b60008484015250505050565b6000601f19601f8301169050919050565b6000611c2582611bc3565b611c2f8185611bce565b9350611c3f818560208601611bdf565b611c4881611c09565b840191505092915050565b60006020820190508181036000830152611c6d8184611c1a565b905092915050565b6000819050919050565b611c8881611c75565b8114611c9357600080fd5b50565b600081359050611ca581611c7f565b92915050565b600060208284031215611cc157611cc0611afe565b5b6000611ccf84828501611c96565b91505092915050565b600073ffffffffffffffffffffffffffffffffffffffff82169050919050565b6000611d0382611cd8565b9050919050565b611d1381611cf8565b82525050565b6000602082019050611d2e6000830184611d0a565b92915050565b611d3d81611cf8565b8114611d4857600080fd5b50565b600081359050611d5a81611d34565b92915050565b60008060408385031215611d7757611d76611afe565b5b6000611d8585828601611d4b565b9250506020611d9685828601611c96565b9150509250929050565b600080fd5b600080fd5b7f4e487b7100000000000000000000000000000000000000000000000000000000600052604160045260246000fd5b611de282611c09565b810181811067ffffffffffffffff82111715611e0157611e00611daa565b5b80604052505050565b6000611e14611af4565b9050611e208282611dd9565b919050565b600067ffffffffffffffff821115611e4057611e3f611daa565b5b611e4982611c09565b9050602081019050919050565b82818337600083830152505050565b6000611e78611e7384611e25565b611e0a565b905082815260208101848484011115611e9457611e93611da5565b5b611e9f848285611e56565b509392505050565b600082601f830112611ebc57611ebb611da0565b5b8135611ecc848260208601611e65565b91505092915050565b60008060408385031215611eec57611eeb611afe565b5b6000611efa85828601611d4b565b925050602083013567ffffffffffffffff811115611f1b57611f1a611b03565b5b611f2785828601611ea7565b9150509250929050565b611f3a81611c75565b82525050565b6000602082019050611f556000830184611f31565b92915050565b600080600060608486031215611f7457611f73611afe565b5b6000611f8286828701611d4b565b9350506020611f9386828701611d4b565b9250506040611fa486828701611c96565b9150509250925092565b600060208284031215611fc457611fc3611afe565b5b6000611fd284828501611d4b565b91505092915050565b611fe481611b8d565b8114611fef57600080fd5b50565b60008135905061200181611fdb565b92915050565b6000806040838503121561201e5761201d611afe565b5b600061202c85828601611d4b565b925050602061203d85828601611ff2565b9150509250929050565b600067ffffffffffffffff82111561206257612061611daa565b5b61206b82611c09565b9050602081019050919050565b600061208b61208684612047565b611e0a565b9050828152602081018484840111156120a7576120a6611da5565b5b6120b2848285611e56565b509392505050565b600082601f8301126120cf576120ce611da0565b5b81356120df848260208601612078565b91505092915050565b6000806000806080858703121561210257612101611afe565b5b600061211087828801611d4b565b945050602061212187828801611d4b565b935050604061213287828801611c96565b925050606085013567ffffffffffffffff81111561215357612152611b03565b5b61215f878288016120ba565b91505092959194509250565b600081519050919050565b600082825260208201905092915050565b6000819050602082019050919050565b6121a081611c75565b82525050565b60006121b28383612197565b60208301905092915050565b6000602082019050919050565b60006121d68261216b565b6121e08185612176565b93506121eb83612187565b8060005b8381101561221c57815161220388826121a6565b975061220e836121be565b9250506001810190506121ef565b5085935050505092915050565b6000602082019050818103600083015261224381846121cb565b905092915050565b6000806040838503121561226257612261611afe565b5b600061227085828601611d4b565b925050602061228185828601611d4b565b9150509250929050565b7f4e487b7100000000000000000000000000000000000000000000000000000000600052602260045260246000fd5b600060028204905060018216806122d257607f821691505b6020821081036122e5576122e461228b565b5b50919050565b7f4552433732313a20617070726f76616c20746f2063757272656e74206f776e6560008201527f7200000000000000000000000000000000000000000000000000000000000000602082015250565b6000612347602183611bce565b9150612352826122eb565b604082019050919050565b600060208201905081810360008301526123768161233a565b9050919050565b7f4552433732313a20617070726f76652063616c6c6572206973206e6f7420746f60008201527f6b656e206f776e6572206e6f7220617070726f76656420666f7220616c6c0000602082015250565b60006123d9603e83611bce565b91506123e48261237d565b604082019050919050565b60006020820190508181036000830152612408816123cc565b9050919050565b7f4552433732313a2063616c6c6572206973206e6f7420746f6b656e206f776e6560008201527f72206e6f7220617070726f766564000000000000000000000000000000000000602082015250565b600061246b602e83611bce565b91506124768261240f565b604082019050919050565b6000602082019050818103600083015261249a8161245e565b9050919050565b7f4552433732313a20696e76616c696420746f6b656e2049440000000000000000600082015250565b60006124d7601883611bce565b91506124e2826124a1565b602082019050919050565b60006020820190508181036000830152612506816124ca565b9050919050565b7f4552433732313a2061646472657373207a65726f206973206e6f74206120766160008201527f6c6964206f776e65720000000000000000000000000000000000000000000000602082015250565b6000612569602983611bce565b91506125748261250d565b604082019050919050565b600060208201905081810360008301526125988161255c565b9050919050565b600081905092915050565b60006125b582611bc3565b6125bf818561259f565b93506125cf818560208601611bdf565b80840191505092915050565b60006125e782856125aa565b91506125f382846125aa565b91508190509392505050565b7f4f776e61626c653a206e6577206f776e657220697320746865207a65726f206160008201527f6464726573730000000000000000000000000000000000000000000000000000602082015250565b600061265b602683611bce565b9150612666826125ff565b604082019050919050565b6000602082019050818103600083015261268a8161264e565b9050919050565b7f4f776e61626c653a2063616c6c6572206973206e6f7420746865206f776e6572600082015250565b60006126c7602083611bce565b91506126d282612691565b602082019050919050565b600060208201905081810360008301526126f6816126ba565b9050919050565b7f4552433732313a206d696e7420746f20746865207a65726f2061646472657373600082015250565b6000612733602083611bce565b915061273e826126fd565b602082019050919050565b6000602082019050818103600083015261276281612726565b9050919050565b7f4552433732313a20746f6b656e20616c7265616479206d696e74656400000000600082015250565b600061279f601c83611bce565b91506127aa82612769565b602082019050919050565b600060208201905081810360008301526127ce81612792565b9050919050565b7f4e487b7100000000000000000000000000000000000000000000000000000000600052601160045260246000fd5b600061280f82611c75565b915061281a83611c75565b9250828201905080821115612832576128316127d5565b5b92915050565b7f45524337323155524953746f726167653a2055524920736574206f66206e6f6e60008201527f6578697374656e7420746f6b656e000000000000000000000000000000000000602082015250565b6000612894602e83611bce565b915061289f82612838565b604082019050919050565b600060208201905081810360008301526128c381612887565b9050919050565b60008190508160005260206000209050919050565b60006020601f8301049050919050565b600082821b905092915050565b60006008830261292c7fffffffffffffffffffffffffffffffffffffffffffffffffffffffffffffffff826128ef565b61293686836128ef565b95508019841693508086168417925050509392505050565b6000819050919050565b600061297361296e61296984611c75565b61294e565b611c75565b9050919050565b6000819050919050565b61298d83612958565b6129a16129998261297a565b8484546128fc565b825550505050565b600090565b6129b66129a9565b6129c1818484612984565b505050565b5b818110156129e5576129da6000826129ae565b6001810190506129c7565b5050565b601f821115612a2a576129fb816128ca565b612a04846128df565b81016020851015612a13578190505b612a27612a1f856128df565b8301826129c6565b50505b505050565b600082821c905092915050565b6000612a4d60001984600802612a2f565b1980831691505092915050565b6000612a668383612a3c565b9150826002028217905092915050565b612a7f82611bc3565b67ffffffffffffffff811115612a9857612a97611daa565b5b612aa282546122ba565b612aad8282856129e9565b600060209050601f831160018114612ae05760008415612ace578287015190505b612ad88582612a5a565b865550612b40565b601f198416612aee866128ca565b60005b82811015612b1657848901518255600182019150602085019450602081019050612af1565b86831015612b335784890151612b2f601f891682612a3c565b8355505b6001600288020188555050505b505050505050565b7f4552433732313a207472616e736665722066726f6d20696e636f72726563742060008201527f6f776e6572000000000000000000000000000000000000000000000000000000602082015250565b6000612ba4602583611bce565b9150612baf82612b48565b604082019050919050565b60006020820190508181036000830152612bd381612b97565b9050919050565b7f4552433732313a207472616e7366657220746f20746865207a65726f2061646460008201527f7265737300000000000000000000000000000000000000000000000000000000602082015250565b6000612c36602483611bce565b9150612c4182612bda565b604082019050919050565b60006020820190508181036000830152612c6581612c29565b9050919050565b6000612c7782611c75565b9150612c8283611c75565b9250828203905081811115612c9a57612c996127d5565b5b92915050565b7f4552433732313a20617070726f766520746f2063616c6c657200000000000000600082015250565b6000612cd6601983611bce565b9150612ce182612ca0565b602082019050919050565b60006020820190508181036000830152612d0581612cc9565b9050919050565b7f4552433732313a207472616e7366657220746f206e6f6e20455243373231526560008201527f63656976657220696d706c656d656e7465720000000000000000000000000000602082015250565b6000612d68603283611bce565b9150612d7382612d0c565b604082019050919050565b60006020820190508181036000830152612d9781612d5b565b9050919050565b600081519050919050565b600082825260208201905092915050565b6000612dc582612d9e565b612dcf8185612da9565b9350612ddf818560208601611bdf565b612de881611c09565b840191505092915050565b6000608082019050612e086000830187611d0a565b612e156020830186611d0a565b612e226040830185611f31565b8181036060830152612e348184612dba565b905095945050505050565b600081519050612e4e81611b34565b92915050565b600060208284031215612e6a57612e69611afe565b5b6000612e7884828501612e3f565b91505092915050565b6000612e8c82611c75565b91507fffffffffffffffffffffffffffffffffffffffffffffffffffffffffffffffff8203612ebe57612ebd6127d5565b5b600182019050919050565b7f4e487b7100000000000000000000000000000000000000000000000000000000600052601260045260246000fd5b6000612f0382611c75565b9150612f0e83611c75565b925082612f1e57612f1d612ec9565b5b828204905092915050565b6000612f3482611c75565b9150612f3f83611c75565b925082612f4f57612f4e612ec9565b5b828206905092915050565b7f4e487b7100000000000000000000000000000000000000000000000000000000600052603260045260246000fdfea2646970667358221220c2b2ab92f29e236c797ecdc87d1e3e55283a923d521d6916e90b7cb9550f754964736f6c63430008110033",
  "linkReferences": {},
  "deployedLinkReferences": {}
}