{
  "_format": "hh-sol-artifact-1",
  "contractName": "GAC",
  "sourceName": "contracts/GAC.sol",
  "abi": [
    {
      "anonymous": false,
      "inputs": [
        {
          "indexed": true,
          "internalType": "address",
          "name": "owner",
          "type": "address"
        },
        {
          "indexed": true,
          "internalType": "address",
          "name": "spender",
          "type": "address"
        },
        {
          "indexed": false,
          "internalType": "uint256",
          "name": "value",
          "type": "uint256"
        }
      ],
      "name": "Approval",
      "type": "event"
    },
    {
      "anonymous": false,
      "inputs": [
        {
          "indexed": false,
          "internalType": "uint8",
          "name": "version",
          "type": "uint8"
        }
      ],
      "name": "Initialized",
      "type": "event"
    },
    {
      "anonymous": false,
      "inputs": [
        {
          "indexed": true,
          "internalType": "address",
          "name": "previousOwner",
          "type": "address"
        },
        {
          "indexed": true,
          "internalType": "address",
          "name": "newOwner",
          "type": "address"
        }
      ],
      "name": "OwnershipTransferred",
      "type": "event"
    },
    {
      "anonymous": false,
      "inputs": [
        {
          "indexed": true,
          "internalType": "address",
          "name": "from",
          "type": "address"
        },
        {
          "indexed": true,
          "internalType": "address",
          "name": "to",
          "type": "address"
        },
        {
          "indexed": false,
          "internalType": "uint256",
          "name": "value",
          "type": "uint256"
        }
      ],
      "name": "Transfer",
      "type": "event"
    },
    {
      "inputs": [
        {
          "internalType": "address",
          "name": "owner",
          "type": "address"
        },
        {
          "internalType": "address",
          "name": "spender",
          "type": "address"
        }
      ],
      "name": "allowance",
      "outputs": [
        {
          "internalType": "uint256",
          "name": "",
          "type": "uint256"
        }
      ],
      "stateMutability": "view",
      "type": "function"
    },
    {
      "inputs": [
        {
          "internalType": "address",
          "name": "spender",
          "type": "address"
        },
        {
          "internalType": "uint256",
          "name": "amount",
          "type": "uint256"
        }
      ],
      "name": "approve",
      "outputs": [
        {
          "internalType": "bool",
          "name": "",
          "type": "bool"
        }
      ],
      "stateMutability": "nonpayable",
      "type": "function"
    },
    {
      "inputs": [
        {
          "internalType": "address",
          "name": "account",
          "type": "address"
        }
      ],
      "name": "balanceOf",
      "outputs": [
        {
          "internalType": "uint256",
          "name": "",
          "type": "uint256"
        }
      ],
      "stateMutability": "view",
      "type": "function"
    },
    {
      "inputs": [
        {
          "internalType": "address",
          "name": "account",
          "type": "address"
        },
        {
          "internalType": "uint256",
          "name": "amount",
          "type": "uint256"
        }
      ],
      "name": "burn",
      "outputs": [],
      "stateMutability": "payable",
      "type": "function"
    },
    {
      "inputs": [],
      "name": "decimals",
      "outputs": [
        {
          "internalType": "uint8",
          "name": "",
          "type": "uint8"
        }
      ],
      "stateMutability": "view",
      "type": "function"
    },
    {
      "inputs": [
        {
          "internalType": "address",
          "name": "spender",
          "type": "address"
        },
        {
          "internalType": "uint256",
          "name": "subtractedValue",
          "type": "uint256"
        }
      ],
      "name": "decreaseAllowance",
      "outputs": [
        {
          "internalType": "bool",
          "name": "",
          "type": "bool"
        }
      ],
      "stateMutability": "nonpayable",
      "type": "function"
    },
    {
      "inputs": [
        {
          "internalType": "address",
          "name": "spender",
          "type": "address"
        },
        {
          "internalType": "uint256",
          "name": "addedValue",
          "type": "uint256"
        }
      ],
      "name": "increaseAllowance",
      "outputs": [
        {
          "internalType": "bool",
          "name": "",
          "type": "bool"
        }
      ],
      "stateMutability": "nonpayable",
      "type": "function"
    },
    {
      "inputs": [],
      "name": "initialize",
      "outputs": [],
      "stateMutability": "nonpayable",
      "type": "function"
    },
    {
      "inputs": [
        {
          "internalType": "address payable",
          "name": "addr",
          "type": "address"
        },
        {
          "internalType": "uint256",
          "name": "amount",
          "type": "uint256"
        }
      ],
      "name": "mint",
      "outputs": [],
      "stateMutability": "payable",
      "type": "function"
    },
    {
      "inputs": [],
      "name": "name",
      "outputs": [
        {
          "internalType": "string",
          "name": "",
          "type": "string"
        }
      ],
      "stateMutability": "view",
      "type": "function"
    },
    {
      "inputs": [],
      "name": "owner",
      "outputs": [
        {
          "internalType": "address",
          "name": "",
          "type": "address"
        }
      ],
      "stateMutability": "view",
      "type": "function"
    },
    {
      "inputs": [],
      "name": "renounceOwnership",
      "outputs": [],
      "stateMutability": "nonpayable",
      "type": "function"
    },
    {
      "inputs": [],
      "name": "symbol",
      "outputs": [
        {
          "internalType": "string",
          "name": "",
          "type": "string"
        }
      ],
      "stateMutability": "view",
      "type": "function"
    },
    {
      "inputs": [],
      "name": "totalSupply",
      "outputs": [
        {
          "internalType": "uint256",
          "name": "",
          "type": "uint256"
        }
      ],
      "stateMutability": "view",
      "type": "function"
    },
    {
      "inputs": [
        {
          "internalType": "address",
          "name": "to",
          "type": "address"
        },
        {
          "internalType": "uint256",
          "name": "amount",
          "type": "uint256"
        }
      ],
      "name": "transfer",
      "outputs": [
        {
          "internalType": "bool",
          "name": "",
          "type": "bool"
        }
      ],
      "stateMutability": "nonpayable",
      "type": "function"
    },
    {
      "inputs": [
        {
          "internalType": "address",
          "name": "from",
          "type": "address"
        },
        {
          "internalType": "address",
          "name": "to",
          "type": "address"
        },
        {
          "internalType": "uint256",
          "name": "amount",
          "type": "uint256"
        }
      ],
      "name": "transferFrom",
      "outputs": [
        {
          "internalType": "bool",
          "name": "",
          "type": "bool"
        }
      ],
      "stateMutability": "nonpayable",
      "type": "function"
    },
    {
      "inputs": [
        {
          "internalType": "address",
          "name": "newOwner",
          "type": "address"
        }
      ],
      "name": "transferOwnership",
      "outputs": [],
      "stateMutability": "nonpayable",
      "type": "function"
    }
  ],
  "bytecode": "0x608060405234801561001057600080fd5b506123f9806100206000396000f3fe6080604052600436106100fe5760003560e01c8063715018a6116100955780639dc29fac116100645780639dc29fac14610318578063a457c2d714610334578063a9059cbb14610371578063dd62ed3e146103ae578063f2fde38b146103eb576100fe565b8063715018a6146102945780638129fc1c146102ab5780638da5cb5b146102c257806395d89b41146102ed576100fe565b8063313ce567116100d1578063313ce567146101d357806339509351146101fe57806340c10f191461023b57806370a0823114610257576100fe565b806306fdde0314610103578063095ea7b31461012e57806318160ddd1461016b57806323b872dd14610196575b600080fd5b34801561010f57600080fd5b50610118610414565b6040516101259190611b4a565b60405180910390f35b34801561013a57600080fd5b506101556004803603810190610150919061182c565b6104a6565b6040516101629190611b14565b60405180910390f35b34801561017757600080fd5b506101806104c9565b60405161018d9190611d4c565b60405180910390f35b3480156101a257600080fd5b506101bd60048036038101906101b891906117dd565b6104d3565b6040516101ca9190611b14565b60405180910390f35b3480156101df57600080fd5b506101e8610502565b6040516101f59190611d67565b60405180910390f35b34801561020a57600080fd5b506102256004803603810190610220919061182c565b61050b565b6040516102329190611b14565b60405180910390f35b61025560048036038101906102509190611765565b610542565b005b34801561026357600080fd5b5061027e6004803603810190610279919061173c565b6105a6565b60405161028b9190611d4c565b60405180910390f35b3480156102a057600080fd5b506102a96105ef565b005b3480156102b757600080fd5b506102c0610603565b005b3480156102ce57600080fd5b506102d76107bd565b6040516102e49190611af9565b60405180910390f35b3480156102f957600080fd5b506103026107e7565b60405161030f9190611b4a565b60405180910390f35b610332600480360381019061032d919061182c565b610879565b005b34801561034057600080fd5b5061035b6004803603810190610356919061182c565b6108dd565b6040516103689190611b14565b60405180910390f35b34801561037d57600080fd5b506103986004803603810190610393919061182c565b610954565b6040516103a59190611b14565b60405180910390f35b3480156103ba57600080fd5b506103d560048036038101906103d091906117a1565b610977565b6040516103e29190611d4c565b60405180910390f35b3480156103f757600080fd5b50610412600480360381019061040d919061173c565b6109fe565b005b60606036805461042390611ed4565b80601f016020809104026020016040519081016040528092919081815260200182805461044f90611ed4565b801561049c5780601f106104715761010080835404028352916020019161049c565b820191906000526020600020905b81548152906001019060200180831161047f57829003601f168201915b5050505050905090565b6000806104b1610a82565b90506104be818585610a8a565b600191505092915050565b6000603554905090565b6000806104de610a82565b90506104eb858285610c55565b6104f6858585610ce1565b60019150509392505050565b60006012905090565b600080610516610a82565b90506105378185856105288589610977565b6105329190611d9e565b610a8a565b600191505092915050565b60026065541415610588576040517f08c379a000000000000000000000000000000000000000000000000000000000815260040161057f90611cec565b60405180910390fd5b600260658190555061059a8282610f65565b60016065819055505050565b6000603360008373ffffffffffffffffffffffffffffffffffffffff1673ffffffffffffffffffffffffffffffffffffffff168152602001908152602001600020549050919050565b6105f76110c6565b6106016000611144565b565b60008060019054906101000a900460ff161590508080156106345750600160008054906101000a900460ff1660ff16105b8061066157506106433061120a565b1580156106605750600160008054906101000a900460ff1660ff16145b5b6106a0576040517f08c379a000000000000000000000000000000000000000000000000000000000815260040161069790611c2c565b60405180910390fd5b60016000806101000a81548160ff021916908360ff16021790555080156106dd576001600060016101000a81548160ff0219169083151502179055505b6107516040518060400160405280600a81526020017f47726f77414368696c64000000000000000000000000000000000000000000008152506040518060400160405280600381526020017f474143000000000000000000000000000000000000000000000000000000000081525061122d565b61075961128a565b6107616112e3565b80156107ba5760008060016101000a81548160ff0219169083151502179055507f7f26b83ff96e1f2b6a682f133852f6798a09c465da95921460cefb384740249860016040516107b19190611b2f565b60405180910390a15b50565b6000609760009054906101000a900473ffffffffffffffffffffffffffffffffffffffff16905090565b6060603780546107f690611ed4565b80601f016020809104026020016040519081016040528092919081815260200182805461082290611ed4565b801561086f5780601f106108445761010080835404028352916020019161086f565b820191906000526020600020905b81548152906001019060200180831161085257829003601f168201915b5050505050905090565b600260655414156108bf576040517f08c379a00000000000000000000000000000000000000000000000000000000081526004016108b690611cec565b60405180910390fd5b60026065819055506108d1828261133c565b60016065819055505050565b6000806108e8610a82565b905060006108f68286610977565b90508381101561093b576040517f08c379a000000000000000000000000000000000000000000000000000000000815260040161093290611d0c565b60405180910390fd5b6109488286868403610a8a565b60019250505092915050565b60008061095f610a82565b905061096c818585610ce1565b600191505092915050565b6000603460008473ffffffffffffffffffffffffffffffffffffffff1673ffffffffffffffffffffffffffffffffffffffff16815260200190815260200160002060008373ffffffffffffffffffffffffffffffffffffffff1673ffffffffffffffffffffffffffffffffffffffff16815260200190815260200160002054905092915050565b610a066110c6565b600073ffffffffffffffffffffffffffffffffffffffff168173ffffffffffffffffffffffffffffffffffffffff161415610a76576040517f08c379a0000000000000000000000000000000000000000000000000000000008152600401610a6d90611bac565b60405180910390fd5b610a7f81611144565b50565b600033905090565b600073ffffffffffffffffffffffffffffffffffffffff168373ffffffffffffffffffffffffffffffffffffffff161415610afa576040517f08c379a0000000000000000000000000000000000000000000000000000000008152600401610af190611cac565b60405180910390fd5b600073ffffffffffffffffffffffffffffffffffffffff168273ffffffffffffffffffffffffffffffffffffffff161415610b6a576040517f08c379a0000000000000000000000000000000000000000000000000000000008152600401610b6190611bcc565b60405180910390fd5b80603460008573ffffffffffffffffffffffffffffffffffffffff1673ffffffffffffffffffffffffffffffffffffffff16815260200190815260200160002060008473ffffffffffffffffffffffffffffffffffffffff1673ffffffffffffffffffffffffffffffffffffffff168152602001908152602001600020819055508173ffffffffffffffffffffffffffffffffffffffff168373ffffffffffffffffffffffffffffffffffffffff167f8c5be1e5ebec7d5bd14f71427d1e84f3dd0314c0f7b2291e5b200ac8c7c3b92583604051610c489190611d4c565b60405180910390a3505050565b6000610c618484610977565b90507fffffffffffffffffffffffffffffffffffffffffffffffffffffffffffffffff8114610cdb5781811015610ccd576040517f08c379a0000000000000000000000000000000000000000000000000000000008152600401610cc490611bec565b60405180910390fd5b610cda8484848403610a8a565b5b50505050565b600073ffffffffffffffffffffffffffffffffffffffff168373ffffffffffffffffffffffffffffffffffffffff161415610d51576040517f08c379a0000000000000000000000000000000000000000000000000000000008152600401610d4890611c8c565b60405180910390fd5b600073ffffffffffffffffffffffffffffffffffffffff168273ffffffffffffffffffffffffffffffffffffffff161415610dc1576040517f08c379a0000000000000000000000000000000000000000000000000000000008152600401610db890611b6c565b60405180910390fd5b610dcc838383611515565b6000603360008573ffffffffffffffffffffffffffffffffffffffff1673ffffffffffffffffffffffffffffffffffffffff16815260200190815260200160002054905081811015610e53576040517f08c379a0000000000000000000000000000000000000000000000000000000008152600401610e4a90611c0c565b60405180910390fd5b818103603360008673ffffffffffffffffffffffffffffffffffffffff1673ffffffffffffffffffffffffffffffffffffffff1681526020019081526020016000208190555081603360008573ffffffffffffffffffffffffffffffffffffffff1673ffffffffffffffffffffffffffffffffffffffff1681526020019081526020016000206000828254610ee89190611d9e565b925050819055508273ffffffffffffffffffffffffffffffffffffffff168473ffffffffffffffffffffffffffffffffffffffff167fddf252ad1be2c89b69c2b068fc378daa952ba7f163c4a11628f55a4df523b3ef84604051610f4c9190611d4c565b60405180910390a3610f5f84848461151a565b50505050565b600073ffffffffffffffffffffffffffffffffffffffff168273ffffffffffffffffffffffffffffffffffffffff161415610fd5576040517f08c379a0000000000000000000000000000000000000000000000000000000008152600401610fcc90611d2c565b60405180910390fd5b610fe160008383611515565b8060356000828254610ff39190611d9e565b9250508190555080603360008473ffffffffffffffffffffffffffffffffffffffff1673ffffffffffffffffffffffffffffffffffffffff16815260200190815260200160002060008282546110499190611d9e565b925050819055508173ffffffffffffffffffffffffffffffffffffffff16600073ffffffffffffffffffffffffffffffffffffffff167fddf252ad1be2c89b69c2b068fc378daa952ba7f163c4a11628f55a4df523b3ef836040516110ae9190611d4c565b60405180910390a36110c26000838361151a565b5050565b6110ce610a82565b73ffffffffffffffffffffffffffffffffffffffff166110ec6107bd565b73ffffffffffffffffffffffffffffffffffffffff1614611142576040517f08c379a000000000000000000000000000000000000000000000000000000000815260040161113990611c4c565b60405180910390fd5b565b6000609760009054906101000a900473ffffffffffffffffffffffffffffffffffffffff16905081609760006101000a81548173ffffffffffffffffffffffffffffffffffffffff021916908373ffffffffffffffffffffffffffffffffffffffff1602179055508173ffffffffffffffffffffffffffffffffffffffff168173ffffffffffffffffffffffffffffffffffffffff167f8be0079c531659141344cd1fd0a4f28419497f9722a3daafe3b4186f6b6457e060405160405180910390a35050565b6000808273ffffffffffffffffffffffffffffffffffffffff163b119050919050565b600060019054906101000a900460ff1661127c576040517f08c379a000000000000000000000000000000000000000000000000000000000815260040161127390611ccc565b60405180910390fd5b611286828261151f565b5050565b600060019054906101000a900460ff166112d9576040517f08c379a00000000000000000000000000000000000000000000000000000000081526004016112d090611ccc565b60405180910390fd5b6112e16115a0565b565b600060019054906101000a900460ff16611332576040517f08c379a000000000000000000000000000000000000000000000000000000000815260040161132990611ccc565b60405180910390fd5b61133a6115f9565b565b600073ffffffffffffffffffffffffffffffffffffffff168273ffffffffffffffffffffffffffffffffffffffff1614156113ac576040517f08c379a00000000000000000000000000000000000000000000000000000000081526004016113a390611c6c565b60405180910390fd5b6113b882600083611515565b6000603360008473ffffffffffffffffffffffffffffffffffffffff1673ffffffffffffffffffffffffffffffffffffffff1681526020019081526020016000205490508181101561143f576040517f08c379a000000000000000000000000000000000000000000000000000000000815260040161143690611b8c565b60405180910390fd5b818103603360008573ffffffffffffffffffffffffffffffffffffffff1673ffffffffffffffffffffffffffffffffffffffff1681526020019081526020016000208190555081603560008282546114979190611df4565b92505081905550600073ffffffffffffffffffffffffffffffffffffffff168373ffffffffffffffffffffffffffffffffffffffff167fddf252ad1be2c89b69c2b068fc378daa952ba7f163c4a11628f55a4df523b3ef846040516114fc9190611d4c565b60405180910390a36115108360008461151a565b505050565b505050565b505050565b600060019054906101000a900460ff1661156e576040517f08c379a000000000000000000000000000000000000000000000000000000000815260040161156590611ccc565b60405180910390fd5b816036908051906020019061158492919061165a565b50806037908051906020019061159b92919061165a565b505050565b600060019054906101000a900460ff166115ef576040517f08c379a00000000000000000000000000000000000000000000000000000000081526004016115e690611ccc565b60405180910390fd5b6001606581905550565b600060019054906101000a900460ff16611648576040517f08c379a000000000000000000000000000000000000000000000000000000000815260040161163f90611ccc565b60405180910390fd5b611658611653610a82565b611144565b565b82805461166690611ed4565b90600052602060002090601f01602090048101928261168857600085556116cf565b82601f106116a157805160ff19168380011785556116cf565b828001600101855582156116cf579182015b828111156116ce5782518255916020019190600101906116b3565b5b5090506116dc91906116e0565b5090565b5b808211156116f95760008160009055506001016116e1565b5090565b60008135905061170c8161237e565b92915050565b60008135905061172181612395565b92915050565b600081359050611736816123ac565b92915050565b60006020828403121561174e57600080fd5b600061175c848285016116fd565b91505092915050565b6000806040838503121561177857600080fd5b600061178685828601611712565b925050602061179785828601611727565b9150509250929050565b600080604083850312156117b457600080fd5b60006117c2858286016116fd565b92505060206117d3858286016116fd565b9150509250929050565b6000806000606084860312156117f257600080fd5b6000611800868287016116fd565b9350506020611811868287016116fd565b925050604061182286828701611727565b9150509250925092565b6000806040838503121561183f57600080fd5b600061184d858286016116fd565b925050602061185e85828601611727565b9150509250929050565b61187181611e28565b82525050565b61188081611e4c565b82525050565b61188f81611e8f565b82525050565b60006118a082611d82565b6118aa8185611d8d565b93506118ba818560208601611ea1565b6118c381611f64565b840191505092915050565b60006118db602383611d8d565b91506118e682611f75565b604082019050919050565b60006118fe602283611d8d565b915061190982611fc4565b604082019050919050565b6000611921602683611d8d565b915061192c82612013565b604082019050919050565b6000611944602283611d8d565b915061194f82612062565b604082019050919050565b6000611967601d83611d8d565b9150611972826120b1565b602082019050919050565b600061198a602683611d8d565b9150611995826120da565b604082019050919050565b60006119ad602e83611d8d565b91506119b882612129565b604082019050919050565b60006119d0602083611d8d565b91506119db82612178565b602082019050919050565b60006119f3602183611d8d565b91506119fe826121a1565b604082019050919050565b6000611a16602583611d8d565b9150611a21826121f0565b604082019050919050565b6000611a39602483611d8d565b9150611a448261223f565b604082019050919050565b6000611a5c602b83611d8d565b9150611a678261228e565b604082019050919050565b6000611a7f601f83611d8d565b9150611a8a826122dd565b602082019050919050565b6000611aa2602583611d8d565b9150611aad82612306565b604082019050919050565b6000611ac5601f83611d8d565b9150611ad082612355565b602082019050919050565b611ae481611e78565b82525050565b611af381611e82565b82525050565b6000602082019050611b0e6000830184611868565b92915050565b6000602082019050611b296000830184611877565b92915050565b6000602082019050611b446000830184611886565b92915050565b60006020820190508181036000830152611b648184611895565b905092915050565b60006020820190508181036000830152611b85816118ce565b9050919050565b60006020820190508181036000830152611ba5816118f1565b9050919050565b60006020820190508181036000830152611bc581611914565b9050919050565b60006020820190508181036000830152611be581611937565b9050919050565b60006020820190508181036000830152611c058161195a565b9050919050565b60006020820190508181036000830152611c258161197d565b9050919050565b60006020820190508181036000830152611c45816119a0565b9050919050565b60006020820190508181036000830152611c65816119c3565b9050919050565b60006020820190508181036000830152611c85816119e6565b9050919050565b60006020820190508181036000830152611ca581611a09565b9050919050565b60006020820190508181036000830152611cc581611a2c565b9050919050565b60006020820190508181036000830152611ce581611a4f565b9050919050565b60006020820190508181036000830152611d0581611a72565b9050919050565b60006020820190508181036000830152611d2581611a95565b9050919050565b60006020820190508181036000830152611d4581611ab8565b9050919050565b6000602082019050611d616000830184611adb565b92915050565b6000602082019050611d7c6000830184611aea565b92915050565b600081519050919050565b600082825260208201905092915050565b6000611da982611e78565b9150611db483611e78565b9250827fffffffffffffffffffffffffffffffffffffffffffffffffffffffffffffffff03821115611de957611de8611f06565b5b828201905092915050565b6000611dff82611e78565b9150611e0a83611e78565b925082821015611e1d57611e1c611f06565b5b828203905092915050565b6000611e3382611e58565b9050919050565b6000611e4582611e58565b9050919050565b60008115159050919050565b600073ffffffffffffffffffffffffffffffffffffffff82169050919050565b6000819050919050565b600060ff82169050919050565b6000611e9a82611e82565b9050919050565b60005b83811015611ebf578082015181840152602081019050611ea4565b83811115611ece576000848401525b50505050565b60006002820490506001821680611eec57607f821691505b60208210811415611f0057611eff611f35565b5b50919050565b7f4e487b7100000000000000000000000000000000000000000000000000000000600052601160045260246000fd5b7f4e487b7100000000000000000000000000000000000000000000000000000000600052602260045260246000fd5b6000601f19601f8301169050919050565b7f45524332303a207472616e7366657220746f20746865207a65726f206164647260008201527f6573730000000000000000000000000000000000000000000000000000000000602082015250565b7f45524332303a206275726e20616d6f756e7420657863656564732062616c616e60008201527f6365000000000000000000000000000000000000000000000000000000000000602082015250565b7f4f776e61626c653a206e6577206f776e657220697320746865207a65726f206160008201527f6464726573730000000000000000000000000000000000000000000000000000602082015250565b7f45524332303a20617070726f766520746f20746865207a65726f20616464726560008201527f7373000000000000000000000000000000000000000000000000000000000000602082015250565b7f45524332303a20696e73756666696369656e7420616c6c6f77616e6365000000600082015250565b7f45524332303a207472616e7366657220616d6f756e742065786365656473206260008201527f616c616e63650000000000000000000000000000000000000000000000000000602082015250565b7f496e697469616c697a61626c653a20636f6e747261637420697320616c72656160008201527f647920696e697469616c697a6564000000000000000000000000000000000000602082015250565b7f4f776e61626c653a2063616c6c6572206973206e6f7420746865206f776e6572600082015250565b7f45524332303a206275726e2066726f6d20746865207a65726f2061646472657360008201527f7300000000000000000000000000000000000000000000000000000000000000602082015250565b7f45524332303a207472616e736665722066726f6d20746865207a65726f20616460008201527f6472657373000000000000000000000000000000000000000000000000000000602082015250565b7f45524332303a20617070726f76652066726f6d20746865207a65726f2061646460008201527f7265737300000000000000000000000000000000000000000000000000000000602082015250565b7f496e697469616c697a61626c653a20636f6e7472616374206973206e6f74206960008201527f6e697469616c697a696e67000000000000000000000000000000000000000000602082015250565b7f5265656e7472616e637947756172643a207265656e7472616e742063616c6c00600082015250565b7f45524332303a2064656372656173656420616c6c6f77616e63652062656c6f7760008201527f207a65726f000000000000000000000000000000000000000000000000000000602082015250565b7f45524332303a206d696e7420746f20746865207a65726f206164647265737300600082015250565b61238781611e28565b811461239257600080fd5b50565b61239e81611e3a565b81146123a957600080fd5b50565b6123b581611e78565b81146123c057600080fd5b5056fea2646970667358221220fdc091c561457f244c99d8daa3bdd793843b33ead413e500d60be2586665a50e64736f6c63430008020033",
  "linkReferences": {},
  "deployedLinkReferences": {}
}