{
  "address": "0x3F73bAe6Eb80B1d2B33033951F249e2D185e69CD",
  "_format": "hh-sol-artifact-1",
  "contractName": "Logger",
  "sourceName": "contracts/Logger.sol",
  "abi": [
    {
      "inputs": [],
      "stateMutability": "nonpayable",
      "type": "constructor"
    },
    {
      "anonymous": false,
      "inputs": [
        {
          "indexed": false,
          "internalType": "address",
          "name": "proxy",
          "type": "address"
        },
        {
          "indexed": false,
          "internalType": "bytes",
          "name": "payeruid",
          "type": "bytes"
        }
      ],
      "name": "PayerAdded",
      "type": "event"
    },
    {
      "anonymous": false,
      "inputs": [
        {
          "indexed": true,
          "internalType": "address",
          "name": "proxy",
          "type": "address"
        },
        {
          "indexed": true,
          "internalType": "bytes",
          "name": "payeruid",
          "type": "bytes"
        },
        {
          "indexed": false,
          "internalType": "uint256",
          "name": "amount",
          "type": "uint256"
        },
        {
          "indexed": false,
          "internalType": "uint256",
          "name": "amountPaid",
          "type": "uint256"
        },
        {
          "indexed": false,
          "internalType": "uint256",
          "name": "transactonNumber",
          "type": "uint256"
        }
      ],
      "name": "PaymentMade",
      "type": "event"
    },
    {
      "anonymous": false,
      "inputs": [
        {
          "indexed": true,
          "internalType": "address",
          "name": "proxy",
          "type": "address"
        },
        {
          "indexed": true,
          "internalType": "address",
          "name": "owner",
          "type": "address"
        },
        {
          "indexed": true,
          "internalType": "address",
          "name": "recipientAddress",
          "type": "address"
        },
        {
          "indexed": false,
          "internalType": "uint256",
          "name": "totalReceivable",
          "type": "uint256"
        },
        {
          "indexed": false,
          "internalType": "address",
          "name": "targetToken",
          "type": "address"
        },
        {
          "indexed": false,
          "internalType": "bytes",
          "name": "userdata",
          "type": "bytes"
        }
      ],
      "name": "SliceCreated",
      "type": "event"
    },
    {
      "anonymous": false,
      "inputs": [
        {
          "indexed": true,
          "internalType": "address",
          "name": "proxy",
          "type": "address"
        },
        {
          "indexed": true,
          "internalType": "uint8",
          "name": "status",
          "type": "uint8"
        }
      ],
      "name": "StatusChange",
      "type": "event"
    },
    {
      "inputs": [
        {
          "internalType": "address",
          "name": "proxy",
          "type": "address"
        },
        {
          "internalType": "bytes",
          "name": "payeruid",
          "type": "bytes"
        }
      ],
      "name": "LogPayerAdded",
      "outputs": [
        {
          "internalType": "bool",
          "name": "",
          "type": "bool"
        }
      ],
      "stateMutability": "nonpayable",
      "type": "function"
    },
    {
      "inputs": [
        {
          "internalType": "address",
          "name": "proxy",
          "type": "address"
        },
        {
          "internalType": "bytes",
          "name": "payeruid",
          "type": "bytes"
        },
        {
          "internalType": "uint256",
          "name": "amount",
          "type": "uint256"
        },
        {
          "internalType": "uint256",
          "name": "amountPaid",
          "type": "uint256"
        },
        {
          "internalType": "uint256",
          "name": "transactonNumber",
          "type": "uint256"
        }
      ],
      "name": "LogPaymentMade",
      "outputs": [
        {
          "internalType": "bool",
          "name": "",
          "type": "bool"
        }
      ],
      "stateMutability": "nonpayable",
      "type": "function"
    },
    {
      "inputs": [
        {
          "internalType": "address",
          "name": "_proxy",
          "type": "address"
        },
        {
          "internalType": "address",
          "name": "_sender",
          "type": "address"
        },
        {
          "internalType": "address",
          "name": "_recipientAddress",
          "type": "address"
        },
        {
          "internalType": "uint256",
          "name": "_totalReceivable",
          "type": "uint256"
        },
        {
          "internalType": "address",
          "name": "_targetToken",
          "type": "address"
        },
        {
          "internalType": "bytes",
          "name": "userdata",
          "type": "bytes"
        }
      ],
      "name": "LogSliceCreated",
      "outputs": [
        {
          "internalType": "bool",
          "name": "",
          "type": "bool"
        }
      ],
      "stateMutability": "nonpayable",
      "type": "function"
    },
    {
      "inputs": [
        {
          "internalType": "address",
          "name": "proxy",
          "type": "address"
        },
        {
          "internalType": "uint8",
          "name": "status",
          "type": "uint8"
        }
      ],
      "name": "LogStatusChanged",
      "outputs": [
        {
          "internalType": "bool",
          "name": "",
          "type": "bool"
        }
      ],
      "stateMutability": "nonpayable",
      "type": "function"
    },
    {
      "inputs": [
        {
          "internalType": "bool",
          "name": "_pause",
          "type": "bool"
        }
      ],
      "name": "setPause",
      "outputs": [
        {
          "internalType": "bool",
          "name": "",
          "type": "bool"
        }
      ],
      "stateMutability": "nonpayable",
      "type": "function"
    }
  ],
  "bytecode": "0x608060405234801561001057600080fd5b50336000806101000a81548173ffffffffffffffffffffffffffffffffffffffff021916908373ffffffffffffffffffffffffffffffffffffffff160217905550610ccf806100606000396000f3fe608060405234801561001057600080fd5b50600436106100575760003560e01c80630c31c0e71461005c5780634d0148cf1461008c57806378c6e93b146100bc578063bedb86fb146100ec578063fba8ca911461011c575b600080fd5b610076600480360381019061007191906106a3565b61014c565b604051610083919061071a565b60405180910390f35b6100a660048036038101906100a1919061076e565b6101e0565b6040516100b3919061071a565b60405180910390f35b6100d660048036038101906100d19190610844565b610282565b6040516100e3919061071a565b60405180910390f35b6101066004803603810190610101919061091f565b610364565b604051610113919061071a565b60405180910390f35b6101366004803603810190610131919061094c565b610425565b604051610143919061071a565b60405180910390f35b60008060149054906101000a900460ff161561019d576040517f08c379a000000000000000000000000000000000000000000000000000000000815260040161019490610a40565b60405180910390fd5b7f77bf943d31bc6dae46ec31a8245e24365f2ef076280e2447c90c9995143c38dd83836040516101ce929190610af7565b60405180910390a16001905092915050565b60008060149054906101000a900460ff1615610231576040517f08c379a000000000000000000000000000000000000000000000000000000000815260040161022890610a40565b60405180910390fd5b8160ff168373ffffffffffffffffffffffffffffffffffffffff167f25a8ddd7a9cb175c465a79099ab90aa5db3309eeeb2086d6af0eda3d490f4a4960405160405180910390a36001905092915050565b60008060149054906101000a900460ff16156102d3576040517f08c379a00000000000000000000000000000000000000000000000000000000081526004016102ca90610a40565b60405180910390fd5b8573ffffffffffffffffffffffffffffffffffffffff168773ffffffffffffffffffffffffffffffffffffffff168973ffffffffffffffffffffffffffffffffffffffff167f57fb172d5a510372f2fed6a482abb420cbcd5f5aaa44d0131ffc353bde797c218888888860405161034d9493929190610b63565b60405180910390a460019050979650505050505050565b60003373ffffffffffffffffffffffffffffffffffffffff1660008054906101000a900473ffffffffffffffffffffffffffffffffffffffff1673ffffffffffffffffffffffffffffffffffffffff16146103f4576040517f08c379a00000000000000000000000000000000000000000000000000000000081526004016103eb90610bef565b60405180910390fd5b81600060146101000a81548160ff021916908315150217905550600060149054906101000a900460ff169050919050565b60008060149054906101000a900460ff1615610476576040517f08c379a000000000000000000000000000000000000000000000000000000000815260040161046d90610a40565b60405180910390fd5b846040516104849190610c4b565b60405180910390208673ffffffffffffffffffffffffffffffffffffffff167fd7ab814870d8fe21317c08af89c968c39e27baea15e83218f45d2fcd3f7429b28686866040516104d693929190610c62565b60405180910390a36001905095945050505050565b6000604051905090565b600080fd5b600080fd5b600073ffffffffffffffffffffffffffffffffffffffff82169050919050565b600061052a826104ff565b9050919050565b61053a8161051f565b811461054557600080fd5b50565b60008135905061055781610531565b92915050565b600080fd5b600080fd5b6000601f19601f8301169050919050565b7f4e487b7100000000000000000000000000000000000000000000000000000000600052604160045260246000fd5b6105b082610567565b810181811067ffffffffffffffff821117156105cf576105ce610578565b5b80604052505050565b60006105e26104eb565b90506105ee82826105a7565b919050565b600067ffffffffffffffff82111561060e5761060d610578565b5b61061782610567565b9050602081019050919050565b82818337600083830152505050565b6000610646610641846105f3565b6105d8565b90508281526020810184848401111561066257610661610562565b5b61066d848285610624565b509392505050565b600082601f83011261068a5761068961055d565b5b813561069a848260208601610633565b91505092915050565b600080604083850312156106ba576106b96104f5565b5b60006106c885828601610548565b925050602083013567ffffffffffffffff8111156106e9576106e86104fa565b5b6106f585828601610675565b9150509250929050565b60008115159050919050565b610714816106ff565b82525050565b600060208201905061072f600083018461070b565b92915050565b600060ff82169050919050565b61074b81610735565b811461075657600080fd5b50565b60008135905061076881610742565b92915050565b60008060408385031215610785576107846104f5565b5b600061079385828601610548565b92505060206107a485828601610759565b9150509250929050565b6000819050919050565b6107c1816107ae565b81146107cc57600080fd5b50565b6000813590506107de816107b8565b92915050565b600080fd5b600080fd5b60008083601f8401126108045761080361055d565b5b8235905067ffffffffffffffff811115610821576108206107e4565b5b60208301915083600182028301111561083d5761083c6107e9565b5b9250929050565b600080600080600080600060c0888a031215610863576108626104f5565b5b60006108718a828b01610548565b97505060206108828a828b01610548565b96505060406108938a828b01610548565b95505060606108a48a828b016107cf565b94505060806108b58a828b01610548565b93505060a088013567ffffffffffffffff8111156108d6576108d56104fa565b5b6108e28a828b016107ee565b925092505092959891949750929550565b6108fc816106ff565b811461090757600080fd5b50565b600081359050610919816108f3565b92915050565b600060208284031215610935576109346104f5565b5b60006109438482850161090a565b91505092915050565b600080600080600060a08688031215610968576109676104f5565b5b600061097688828901610548565b955050602086013567ffffffffffffffff811115610997576109966104fa565b5b6109a388828901610675565b94505060406109b4888289016107cf565b93505060606109c5888289016107cf565b92505060806109d6888289016107cf565b9150509295509295909350565b600082825260208201905092915050565b7f4c45353030000000000000000000000000000000000000000000000000000000600082015250565b6000610a2a6005836109e3565b9150610a35826109f4565b602082019050919050565b60006020820190508181036000830152610a5981610a1d565b9050919050565b610a698161051f565b82525050565b600081519050919050565b600082825260208201905092915050565b60005b83811015610aa9578082015181840152602081019050610a8e565b83811115610ab8576000848401525b50505050565b6000610ac982610a6f565b610ad38185610a7a565b9350610ae3818560208601610a8b565b610aec81610567565b840191505092915050565b6000604082019050610b0c6000830185610a60565b8181036020830152610b1e8184610abe565b90509392505050565b610b30816107ae565b82525050565b6000610b428385610a7a565b9350610b4f838584610624565b610b5883610567565b840190509392505050565b6000606082019050610b786000830187610b27565b610b856020830186610a60565b8181036040830152610b98818486610b36565b905095945050505050565b7f4c45343032000000000000000000000000000000000000000000000000000000600082015250565b6000610bd96005836109e3565b9150610be482610ba3565b602082019050919050565b60006020820190508181036000830152610c0881610bcc565b9050919050565b600081905092915050565b6000610c2582610a6f565b610c2f8185610c0f565b9350610c3f818560208601610a8b565b80840191505092915050565b6000610c578284610c1a565b915081905092915050565b6000606082019050610c776000830186610b27565b610c846020830185610b27565b610c916040830184610b27565b94935050505056fea264697066735822122032f41891778f7b6968dba8867c6fd1b71f107e3f4a7966d5df6f12dcbcd9e6be64736f6c634300080f0033",
  "linkReferences": {},
  "deployedLinkReferences": {}
}