{
  "address": "0xBC406123967E009AcD28755602d9675cE27fCF90",
  "_format": "hh-sol-artifact-1",
  "contractName": "PaysliceForwarder",
  "sourceName": "contracts/PaysliceForwarder.sol",
  "abi": [
    {
      "inputs": [
        {
          "internalType": "address",
          "name": "_exchangeAddress",
          "type": "address"
        }
      ],
      "stateMutability": "nonpayable",
      "type": "constructor"
    },
    {
      "anonymous": false,
      "inputs": [
        {
          "indexed": true,
          "internalType": "address",
          "name": "previousOwner",
          "type": "address"
        },
        {
          "indexed": true,
          "internalType": "address",
          "name": "newOwner",
          "type": "address"
        }
      ],
      "name": "OwnershipTransferred",
      "type": "event"
    },
    {
      "inputs": [],
      "name": "exchangeAddress",
      "outputs": [
        {
          "internalType": "address",
          "name": "",
          "type": "address"
        }
      ],
      "stateMutability": "view",
      "type": "function"
    },
    {
      "inputs": [
        {
          "components": [
            {
              "internalType": "address",
              "name": "from",
              "type": "address"
            },
            {
              "internalType": "address",
              "name": "to",
              "type": "address"
            },
            {
              "internalType": "uint256",
              "name": "value",
              "type": "uint256"
            },
            {
              "internalType": "uint256",
              "name": "gas",
              "type": "uint256"
            },
            {
              "internalType": "uint256",
              "name": "nonce",
              "type": "uint256"
            },
            {
              "internalType": "bytes",
              "name": "data",
              "type": "bytes"
            }
          ],
          "internalType": "struct PaysliceForwarder.ForwardRequest",
          "name": "_req",
          "type": "tuple"
        },
        {
          "internalType": "bytes",
          "name": "_signature",
          "type": "bytes"
        }
      ],
      "name": "execute",
      "outputs": [
        {
          "internalType": "bool",
          "name": "",
          "type": "bool"
        },
        {
          "internalType": "bytes",
          "name": "",
          "type": "bytes"
        }
      ],
      "stateMutability": "payable",
      "type": "function"
    },
    {
      "inputs": [
        {
          "internalType": "address",
          "name": "_paytoken",
          "type": "address"
        },
        {
          "internalType": "address",
          "name": "_owner",
          "type": "address"
        },
        {
          "internalType": "address",
          "name": "_spender",
          "type": "address"
        },
        {
          "internalType": "uint256",
          "name": "_value",
          "type": "uint256"
        },
        {
          "internalType": "uint256",
          "name": "_deadline",
          "type": "uint256"
        },
        {
          "internalType": "uint8",
          "name": "_v",
          "type": "uint8"
        },
        {
          "internalType": "bytes32",
          "name": "_r",
          "type": "bytes32"
        },
        {
          "internalType": "bytes32",
          "name": "_s",
          "type": "bytes32"
        }
      ],
      "name": "executeApproval",
      "outputs": [
        {
          "internalType": "bool",
          "name": "",
          "type": "bool"
        }
      ],
      "stateMutability": "nonpayable",
      "type": "function"
    },
    {
      "inputs": [
        {
          "internalType": "address",
          "name": "_paytoken",
          "type": "address"
        },
        {
          "internalType": "address",
          "name": "_owner",
          "type": "address"
        },
        {
          "internalType": "address",
          "name": "_spender",
          "type": "address"
        },
        {
          "internalType": "uint256",
          "name": "_value",
          "type": "uint256"
        },
        {
          "internalType": "uint256",
          "name": "_deadline",
          "type": "uint256"
        },
        {
          "internalType": "uint256",
          "name": "_gasFee",
          "type": "uint256"
        },
        {
          "internalType": "uint8",
          "name": "_v",
          "type": "uint8"
        },
        {
          "internalType": "bytes32",
          "name": "_r",
          "type": "bytes32"
        },
        {
          "internalType": "bytes32",
          "name": "_s",
          "type": "bytes32"
        }
      ],
      "name": "executeGasPayment",
      "outputs": [
        {
          "internalType": "bool",
          "name": "",
          "type": "bool"
        }
      ],
      "stateMutability": "nonpayable",
      "type": "function"
    },
    {
      "inputs": [],
      "name": "feeToken",
      "outputs": [
        {
          "internalType": "address",
          "name": "",
          "type": "address"
        }
      ],
      "stateMutability": "view",
      "type": "function"
    },
    {
      "inputs": [
        {
          "internalType": "uint256",
          "name": "amountOut",
          "type": "uint256"
        },
        {
          "internalType": "address[]",
          "name": "path",
          "type": "address[]"
        }
      ],
      "name": "gasCost",
      "outputs": [
        {
          "internalType": "uint256[]",
          "name": "",
          "type": "uint256[]"
        }
      ],
      "stateMutability": "view",
      "type": "function"
    },
    {
      "inputs": [
        {
          "internalType": "address",
          "name": "from",
          "type": "address"
        }
      ],
      "name": "getNonce",
      "outputs": [
        {
          "internalType": "uint256",
          "name": "",
          "type": "uint256"
        }
      ],
      "stateMutability": "view",
      "type": "function"
    },
    {
      "inputs": [],
      "name": "owner",
      "outputs": [
        {
          "internalType": "address",
          "name": "",
          "type": "address"
        }
      ],
      "stateMutability": "view",
      "type": "function"
    },
    {
      "inputs": [],
      "name": "renounceOwnership",
      "outputs": [],
      "stateMutability": "nonpayable",
      "type": "function"
    },
    {
      "inputs": [
        {
          "internalType": "address",
          "name": "newOwner",
          "type": "address"
        }
      ],
      "name": "transferOwnership",
      "outputs": [],
      "stateMutability": "nonpayable",
      "type": "function"
    },
    {
      "inputs": [
        {
          "components": [
            {
              "internalType": "address",
              "name": "from",
              "type": "address"
            },
            {
              "internalType": "address",
              "name": "to",
              "type": "address"
            },
            {
              "internalType": "uint256",
              "name": "value",
              "type": "uint256"
            },
            {
              "internalType": "uint256",
              "name": "gas",
              "type": "uint256"
            },
            {
              "internalType": "uint256",
              "name": "nonce",
              "type": "uint256"
            },
            {
              "internalType": "bytes",
              "name": "data",
              "type": "bytes"
            }
          ],
          "internalType": "struct PaysliceForwarder.ForwardRequest",
          "name": "_req",
          "type": "tuple"
        },
        {
          "internalType": "bytes",
          "name": "_signature",
          "type": "bytes"
        }
      ],
      "name": "verify",
      "outputs": [
        {
          "internalType": "bool",
          "name": "",
          "type": "bool"
        }
      ],
      "stateMutability": "view",
      "type": "function"
    },
    {
      "inputs": [
        {
          "internalType": "uint256",
          "name": "_amount",
          "type": "uint256"
        },
        {
          "internalType": "address",
          "name": "_to",
          "type": "address"
        }
      ],
      "name": "withdrawFees",
      "outputs": [],
      "stateMutability": "nonpayable",
      "type": "function"
    }
  ],
  "bytecode": "0x6101406040527325d401b92b9c58521c4f312c18147c069f932206600160006101000a81548173ffffffffffffffffffffffffffffffffffffffff021916908373ffffffffffffffffffffffffffffffffffffffff1602179055503480156200006757600080fd5b5060405162002dda38038062002dda83398181016040528101906200008d919062000385565b6040518060400160405280601181526020017f506179736c696365466f727761726465720000000000000000000000000000008152506040518060400160405280600581526020017f302e302e3100000000000000000000000000000000000000000000000000000081525060008280519060200120905060008280519060200120905060007f8b73c3c69bb8fe3d512ecc4cf759cc79239f7b179b0ffacaa9a75d522b39400f90508260e081815250508161010081815250504660a08181525050620001628184846200021360201b60201c565b608081815250503073ffffffffffffffffffffffffffffffffffffffff1660c08173ffffffffffffffffffffffffffffffffffffffff16815250508061012081815250505050505050620001cb620001bf6200024f60201b60201c565b6200025760201b60201c565b80600260006101000a81548173ffffffffffffffffffffffffffffffffffffffff021916908373ffffffffffffffffffffffffffffffffffffffff160217905550506200045b565b6000838383463060405160200162000230959493929190620003fe565b6040516020818303038152906040528051906020012090509392505050565b600033905090565b60008060009054906101000a900473ffffffffffffffffffffffffffffffffffffffff169050816000806101000a81548173ffffffffffffffffffffffffffffffffffffffff021916908373ffffffffffffffffffffffffffffffffffffffff1602179055508173ffffffffffffffffffffffffffffffffffffffff168173ffffffffffffffffffffffffffffffffffffffff167f8be0079c531659141344cd1fd0a4f28419497f9722a3daafe3b4186f6b6457e060405160405180910390a35050565b600080fd5b600073ffffffffffffffffffffffffffffffffffffffff82169050919050565b60006200034d8262000320565b9050919050565b6200035f8162000340565b81146200036b57600080fd5b50565b6000815190506200037f8162000354565b92915050565b6000602082840312156200039e576200039d6200031b565b5b6000620003ae848285016200036e565b91505092915050565b6000819050919050565b620003cc81620003b7565b82525050565b6000819050919050565b620003e781620003d2565b82525050565b620003f88162000340565b82525050565b600060a082019050620004156000830188620003c1565b620004246020830187620003c1565b620004336040830186620003c1565b620004426060830185620003dc565b620004516080830184620003ed565b9695505050505050565b60805160a05160c05160e051610100516101205161292f620004ab6000396000610fba01526000610ffc01526000610fdb01526000610f1001526000610f6601526000610f8f015261292f6000f3fe6080604052600436106100a75760003560e01c80639cd01605116100645780639cd01605146101c4578063bf5d3bdb146101ef578063dd2cc3f31461022c578063f2fde38b14610255578063fb562cad1461027e578063fddcbcad146102bb576100a7565b80632d0335ab146100ac57806347153f82146100e957806361eb35731461011a578063647846a514610157578063715018a6146101825780638da5cb5b14610199575b600080fd5b3480156100b857600080fd5b506100d360048036038101906100ce919061142e565b6102f8565b6040516100e09190611474565b60405180910390f35b61010360048036038101906100fe91906116c7565b610341565b6040516101119291906117e2565b60405180910390f35b34801561012657600080fd5b50610141600480360381019061013c9190611881565b6104b5565b60405161014e919061194b565b60405180910390f35b34801561016357600080fd5b5061016c610679565b6040516101799190611975565b60405180910390f35b34801561018e57600080fd5b5061019761069f565b005b3480156101a557600080fd5b506101ae6106b3565b6040516101bb9190611975565b60405180910390f35b3480156101d057600080fd5b506101d96106dc565b6040516101e69190611975565b60405180910390f35b3480156101fb57600080fd5b50610216600480360381019061021191906116c7565b610702565b604051610223919061194b565b60405180910390f35b34801561023857600080fd5b50610253600480360381019061024e9190611990565b61075e565b005b34801561026157600080fd5b5061027c6004803603810190610277919061142e565b610a5f565b005b34801561028a57600080fd5b506102a560048036038101906102a091906119d0565b610ae2565b6040516102b2919061194b565b60405180910390f35b3480156102c757600080fd5b506102e260048036038101906102dd9190611b4e565b610c39565b6040516102ef9190611c68565b60405180910390f35b6000600360008373ffffffffffffffffffffffffffffffffffffffff1673ffffffffffffffffffffffffffffffffffffffff168152602001908152602001600020549050919050565b6000606061034f8484610702565b61038e576040517f08c379a000000000000000000000000000000000000000000000000000000000815260040161038590611d0d565b60405180910390fd5b6001846080015161039f9190611d5c565b60036000866000015173ffffffffffffffffffffffffffffffffffffffff1673ffffffffffffffffffffffffffffffffffffffff16815260200190815260200160002081905550600080856020015173ffffffffffffffffffffffffffffffffffffffff16866060015187604001518860a001518960000151604051602001610429929190611e36565b6040516020818303038152906040526040516104459190611e5e565b600060405180830381858888f193505050503d8060008114610483576040519150601f19603f3d011682016040523d82523d6000602084013e610488565b606091505b5091509150603f866060015161049e9190611ea4565b5a116104a657fe5b81819350935050509250929050565b60008073ffffffffffffffffffffffffffffffffffffffff168a73ffffffffffffffffffffffffffffffffffffffff16148061051d57503073ffffffffffffffffffffffffffffffffffffffff168873ffffffffffffffffffffffffffffffffffffffff1614155b806105285750600085145b15610536576000905061066c565b60006105488b8b8b8b8b8a8a8a610ae2565b905080610558578091505061066c565b60008b73ffffffffffffffffffffffffffffffffffffffff168b308960405160240161058693929190611ed5565b6040516020818303038152906040527fa978501e000000000000000000000000000000000000000000000000000000007bffffffffffffffffffffffffffffffffffffffffffffffffffffffff19166020820180517bffffffffffffffffffffffffffffffffffffffffffffffffffffffff83818316178352505050506040516106109190611e5e565b6000604051808303816000865af19150503d806000811461064d576040519150601f19603f3d011682016040523d82523d6000602084013e610652565b606091505b505090508061066557809250505061066c565b6001925050505b9998505050505050505050565b600160009054906101000a900473ffffffffffffffffffffffffffffffffffffffff1681565b6106a7610ce6565b6106b16000610d64565b565b60008060009054906101000a900473ffffffffffffffffffffffffffffffffffffffff16905090565b600260009054906101000a900473ffffffffffffffffffffffffffffffffffffffff1681565b60008061070f8484610e28565b90508073ffffffffffffffffffffffffffffffffffffffff16846000015173ffffffffffffffffffffffffffffffffffffffff1614610752576000915050610758565b60019150505b92915050565b610766610ce6565b600073ffffffffffffffffffffffffffffffffffffffff168173ffffffffffffffffffffffffffffffffffffffff16036107d5576040517f08c379a00000000000000000000000000000000000000000000000000000000081526004016107cc90611f58565b60405180910390fd5b60008211610818576040517f08c379a000000000000000000000000000000000000000000000000000000000815260040161080f90611fc4565b60405180910390fd5b6000600160009054906101000a900473ffffffffffffffffffffffffffffffffffffffff1673ffffffffffffffffffffffffffffffffffffffff166370a08231306040518263ffffffff1660e01b81526004016108759190611975565b602060405180830381865afa158015610892573d6000803e3d6000fd5b505050506040513d601f19601f820116820180604052508101906108b69190611ff9565b9050808311156108fb576040517f08c379a00000000000000000000000000000000000000000000000000000000081526004016108f290612072565b60405180910390fd5b6000600160009054906101000a900473ffffffffffffffffffffffffffffffffffffffff1673ffffffffffffffffffffffffffffffffffffffff168385604051602401610949929190612092565b6040516020818303038152906040527f6cb927d8000000000000000000000000000000000000000000000000000000007bffffffffffffffffffffffffffffffffffffffffffffffffffffffff19166020820180517bffffffffffffffffffffffffffffffffffffffffffffffffffffffff83818316178352505050506040516109d39190611e5e565b6000604051808303816000865af19150503d8060008114610a10576040519150601f19603f3d011682016040523d82523d6000602084013e610a15565b606091505b5050905080610a59576040517f08c379a0000000000000000000000000000000000000000000000000000000008152600401610a5090612107565b60405180910390fd5b50505050565b610a67610ce6565b600073ffffffffffffffffffffffffffffffffffffffff168173ffffffffffffffffffffffffffffffffffffffff1603610ad6576040517f08c379a0000000000000000000000000000000000000000000000000000000008152600401610acd90612199565b60405180910390fd5b610adf81610d64565b50565b6000808973ffffffffffffffffffffffffffffffffffffffff1689898989898989604051602401610b1997969594939291906121d7565b6040516020818303038152906040527fd505accf000000000000000000000000000000000000000000000000000000007bffffffffffffffffffffffffffffffffffffffffffffffffffffffff19166020820180517bffffffffffffffffffffffffffffffffffffffffffffffffffffffff8381831617835250505050604051610ba39190611e5e565b6000604051808303816000865af19150503d8060008114610be0576040519150601f19603f3d011682016040523d82523d6000602084013e610be5565b606091505b5050905080610c29576040517f08c379a0000000000000000000000000000000000000000000000000000000008152600401610c2090612292565b60405180910390fd5b8091505098975050505050505050565b6060600260009054906101000a900473ffffffffffffffffffffffffffffffffffffffff1673ffffffffffffffffffffffffffffffffffffffff16631f00ca7484846040518363ffffffff1660e01b8152600401610c98929190612370565b600060405180830381865afa158015610cb5573d6000803e3d6000fd5b505050506040513d6000823e3d601f19601f82011682018060405250810190610cde9190612463565b905092915050565b610cee610ec3565b73ffffffffffffffffffffffffffffffffffffffff16610d0c6106b3565b73ffffffffffffffffffffffffffffffffffffffff1614610d62576040517f08c379a0000000000000000000000000000000000000000000000000000000008152600401610d59906124f8565b60405180910390fd5b565b60008060009054906101000a900473ffffffffffffffffffffffffffffffffffffffff169050816000806101000a81548173ffffffffffffffffffffffffffffffffffffffff021916908373ffffffffffffffffffffffffffffffffffffffff1602179055508173ffffffffffffffffffffffffffffffffffffffff168173ffffffffffffffffffffffffffffffffffffffff167f8be0079c531659141344cd1fd0a4f28419497f9722a3daafe3b4186f6b6457e060405160405180910390a35050565b600080610eb783610ea97fdd8f4b70b0f4393e889bd39128a30628a78b61816a9eb8199759e7a349657e488760000151886020015189604001518a606001518b608001518c60a0015180519060200120604051602001610e8e9796959493929190612518565b60405160208183030381529060405280519060200120610ecb565b610ee590919063ffffffff16565b90508091505092915050565b600033905090565b6000610ede610ed8610f0c565b83611026565b9050919050565b6000806000610ef48585611059565b91509150610f01816110aa565b819250505092915050565b60007f000000000000000000000000000000000000000000000000000000000000000073ffffffffffffffffffffffffffffffffffffffff163073ffffffffffffffffffffffffffffffffffffffff16148015610f8857507f000000000000000000000000000000000000000000000000000000000000000046145b15610fb5577f00000000000000000000000000000000000000000000000000000000000000009050611023565b6110207f00000000000000000000000000000000000000000000000000000000000000007f00000000000000000000000000000000000000000000000000000000000000007f0000000000000000000000000000000000000000000000000000000000000000611276565b90505b90565b6000828260405160200161103b9291906125ff565b60405160208183030381529060405280519060200120905092915050565b600080604183510361109a5760008060006020860151925060408601519150606086015160001a905061108e878285856112b0565b945094505050506110a3565b60006002915091505b9250929050565b600060048111156110be576110bd612636565b5b8160048111156110d1576110d0612636565b5b031561127357600160048111156110eb576110ea612636565b5b8160048111156110fe576110fd612636565b5b0361113e576040517f08c379a0000000000000000000000000000000000000000000000000000000008152600401611135906126b1565b60405180910390fd5b6002600481111561115257611151612636565b5b81600481111561116557611164612636565b5b036111a5576040517f08c379a000000000000000000000000000000000000000000000000000000000815260040161119c9061271d565b60405180910390fd5b600360048111156111b9576111b8612636565b5b8160048111156111cc576111cb612636565b5b0361120c576040517f08c379a0000000000000000000000000000000000000000000000000000000008152600401611203906127af565b60405180910390fd5b60048081111561121f5761121e612636565b5b81600481111561123257611231612636565b5b03611272576040517f08c379a000000000000000000000000000000000000000000000000000000000815260040161126990612841565b60405180910390fd5b5b50565b60008383834630604051602001611291959493929190612861565b6040516020818303038152906040528051906020012090509392505050565b6000807f7fffffffffffffffffffffffffffffff5d576e7357a4501ddfe92f46681b20a08360001c11156112eb5760006003915091506113b3565b601b8560ff16141580156113035750601c8560ff1614155b156113155760006004915091506113b3565b60006001878787876040516000815260200160405260405161133a94939291906128b4565b6020604051602081039080840390855afa15801561135c573d6000803e3d6000fd5b505050602060405103519050600073ffffffffffffffffffffffffffffffffffffffff168173ffffffffffffffffffffffffffffffffffffffff16036113aa576000600192509250506113b3565b80600092509250505b94509492505050565b6000604051905090565b600080fd5b600080fd5b600073ffffffffffffffffffffffffffffffffffffffff82169050919050565b60006113fb826113d0565b9050919050565b61140b816113f0565b811461141657600080fd5b50565b60008135905061142881611402565b92915050565b600060208284031215611444576114436113c6565b5b600061145284828501611419565b91505092915050565b6000819050919050565b61146e8161145b565b82525050565b60006020820190506114896000830184611465565b92915050565b600080fd5b6000601f19601f8301169050919050565b7f4e487b7100000000000000000000000000000000000000000000000000000000600052604160045260246000fd5b6114dd82611494565b810181811067ffffffffffffffff821117156114fc576114fb6114a5565b5b80604052505050565b600061150f6113bc565b905061151b82826114d4565b919050565b600080fd5b61152e8161145b565b811461153957600080fd5b50565b60008135905061154b81611525565b92915050565b600080fd5b600080fd5b600067ffffffffffffffff821115611576576115756114a5565b5b61157f82611494565b9050602081019050919050565b82818337600083830152505050565b60006115ae6115a98461155b565b611505565b9050828152602081018484840111156115ca576115c9611556565b5b6115d584828561158c565b509392505050565b600082601f8301126115f2576115f1611551565b5b813561160284826020860161159b565b91505092915050565b600060c082840312156116215761162061148f565b5b61162b60c0611505565b9050600061163b84828501611419565b600083015250602061164f84828501611419565b60208301525060406116638482850161153c565b60408301525060606116778482850161153c565b606083015250608061168b8482850161153c565b60808301525060a082013567ffffffffffffffff8111156116af576116ae611520565b5b6116bb848285016115dd565b60a08301525092915050565b600080604083850312156116de576116dd6113c6565b5b600083013567ffffffffffffffff8111156116fc576116fb6113cb565b5b6117088582860161160b565b925050602083013567ffffffffffffffff811115611729576117286113cb565b5b611735858286016115dd565b9150509250929050565b60008115159050919050565b6117548161173f565b82525050565b600081519050919050565b600082825260208201905092915050565b60005b83811015611794578082015181840152602081019050611779565b838111156117a3576000848401525b50505050565b60006117b48261175a565b6117be8185611765565b93506117ce818560208601611776565b6117d781611494565b840191505092915050565b60006040820190506117f7600083018561174b565b818103602083015261180981846117a9565b90509392505050565b600060ff82169050919050565b61182881611812565b811461183357600080fd5b50565b6000813590506118458161181f565b92915050565b6000819050919050565b61185e8161184b565b811461186957600080fd5b50565b60008135905061187b81611855565b92915050565b60008060008060008060008060006101208a8c0312156118a4576118a36113c6565b5b60006118b28c828d01611419565b99505060206118c38c828d01611419565b98505060406118d48c828d01611419565b97505060606118e58c828d0161153c565b96505060806118f68c828d0161153c565b95505060a06119078c828d0161153c565b94505060c06119188c828d01611836565b93505060e06119298c828d0161186c565b92505061010061193b8c828d0161186c565b9150509295985092959850929598565b6000602082019050611960600083018461174b565b92915050565b61196f816113f0565b82525050565b600060208201905061198a6000830184611966565b92915050565b600080604083850312156119a7576119a66113c6565b5b60006119b58582860161153c565b92505060206119c685828601611419565b9150509250929050565b600080600080600080600080610100898b0312156119f1576119f06113c6565b5b60006119ff8b828c01611419565b9850506020611a108b828c01611419565b9750506040611a218b828c01611419565b9650506060611a328b828c0161153c565b9550506080611a438b828c0161153c565b94505060a0611a548b828c01611836565b93505060c0611a658b828c0161186c565b92505060e0611a768b828c0161186c565b9150509295985092959890939650565b600067ffffffffffffffff821115611aa157611aa06114a5565b5b602082029050602081019050919050565b600080fd5b6000611aca611ac584611a86565b611505565b90508083825260208201905060208402830185811115611aed57611aec611ab2565b5b835b81811015611b165780611b028882611419565b845260208401935050602081019050611aef565b5050509392505050565b600082601f830112611b3557611b34611551565b5b8135611b45848260208601611ab7565b91505092915050565b60008060408385031215611b6557611b646113c6565b5b6000611b738582860161153c565b925050602083013567ffffffffffffffff811115611b9457611b936113cb565b5b611ba085828601611b20565b9150509250929050565b600081519050919050565b600082825260208201905092915050565b6000819050602082019050919050565b611bdf8161145b565b82525050565b6000611bf18383611bd6565b60208301905092915050565b6000602082019050919050565b6000611c1582611baa565b611c1f8185611bb5565b9350611c2a83611bc6565b8060005b83811015611c5b578151611c428882611be5565b9750611c4d83611bfd565b925050600181019050611c2e565b5085935050505092915050565b60006020820190508181036000830152611c828184611c0a565b905092915050565b600082825260208201905092915050565b7f506179736c696365466f727761726465723a207369676e617475726520646f6560008201527f73206e6f74206d61746368207265717565737400000000000000000000000000602082015250565b6000611cf7603383611c8a565b9150611d0282611c9b565b604082019050919050565b60006020820190508181036000830152611d2681611cea565b9050919050565b7f4e487b7100000000000000000000000000000000000000000000000000000000600052601160045260246000fd5b6000611d678261145b565b9150611d728361145b565b9250827fffffffffffffffffffffffffffffffffffffffffffffffffffffffffffffffff03821115611da757611da6611d2d565b5b828201905092915050565b600081905092915050565b6000611dc88261175a565b611dd28185611db2565b9350611de2818560208601611776565b80840191505092915050565b60008160601b9050919050565b6000611e0682611dee565b9050919050565b6000611e1882611dfb565b9050919050565b611e30611e2b826113f0565b611e0d565b82525050565b6000611e428285611dbd565b9150611e4e8284611e1f565b6014820191508190509392505050565b6000611e6a8284611dbd565b915081905092915050565b7f4e487b7100000000000000000000000000000000000000000000000000000000600052601260045260246000fd5b6000611eaf8261145b565b9150611eba8361145b565b925082611eca57611ec9611e75565b5b828204905092915050565b6000606082019050611eea6000830186611966565b611ef76020830185611966565b611f046040830184611465565b949350505050565b7f496e76616c696420616464726573730000000000000000000000000000000000600082015250565b6000611f42600f83611c8a565b9150611f4d82611f0c565b602082019050919050565b60006020820190508181036000830152611f7181611f35565b9050919050565b7f416d6f756e74206d757374206973206e6f7420656e6f75676800000000000000600082015250565b6000611fae601983611c8a565b9150611fb982611f78565b602082019050919050565b60006020820190508181036000830152611fdd81611fa1565b9050919050565b600081519050611ff381611525565b92915050565b60006020828403121561200f5761200e6113c6565b5b600061201d84828501611fe4565b91505092915050565b7f417661696c61626c652066756e6473206e6f7420656e6f756768000000000000600082015250565b600061205c601a83611c8a565b915061206782612026565b602082019050919050565b6000602082019050818103600083015261208b8161204f565b9050919050565b60006040820190506120a76000830185611966565b6120b46020830184611465565b9392505050565b7f46656573207769746864726177616c206661696c656400000000000000000000600082015250565b60006120f1601683611c8a565b91506120fc826120bb565b602082019050919050565b60006020820190508181036000830152612120816120e4565b9050919050565b7f4f776e61626c653a206e6577206f776e657220697320746865207a65726f206160008201527f6464726573730000000000000000000000000000000000000000000000000000602082015250565b6000612183602683611c8a565b915061218e82612127565b604082019050919050565b600060208201905081810360008301526121b281612176565b9050919050565b6121c281611812565b82525050565b6121d18161184b565b82525050565b600060e0820190506121ec600083018a611966565b6121f96020830189611966565b6122066040830188611465565b6122136060830187611465565b61222060808301866121b9565b61222d60a08301856121c8565b61223a60c08301846121c8565b98975050505050505050565b7f4661696c656420746f20617070726f766520616c6c6f77616e63650000000000600082015250565b600061227c601b83611c8a565b915061228782612246565b602082019050919050565b600060208201905081810360008301526122ab8161226f565b9050919050565b600081519050919050565b600082825260208201905092915050565b6000819050602082019050919050565b6122e7816113f0565b82525050565b60006122f983836122de565b60208301905092915050565b6000602082019050919050565b600061231d826122b2565b61232781856122bd565b9350612332836122ce565b8060005b8381101561236357815161234a88826122ed565b975061235583612305565b925050600181019050612336565b5085935050505092915050565b60006040820190506123856000830185611465565b81810360208301526123978184612312565b90509392505050565b600067ffffffffffffffff8211156123bb576123ba6114a5565b5b602082029050602081019050919050565b60006123df6123da846123a0565b611505565b9050808382526020820190506020840283018581111561240257612401611ab2565b5b835b8181101561242b57806124178882611fe4565b845260208401935050602081019050612404565b5050509392505050565b600082601f83011261244a57612449611551565b5b815161245a8482602086016123cc565b91505092915050565b600060208284031215612479576124786113c6565b5b600082015167ffffffffffffffff811115612497576124966113cb565b5b6124a384828501612435565b91505092915050565b7f4f776e61626c653a2063616c6c6572206973206e6f7420746865206f776e6572600082015250565b60006124e2602083611c8a565b91506124ed826124ac565b602082019050919050565b60006020820190508181036000830152612511816124d5565b9050919050565b600060e08201905061252d600083018a6121c8565b61253a6020830189611966565b6125476040830188611966565b6125546060830187611465565b6125616080830186611465565b61256e60a0830185611465565b61257b60c08301846121c8565b98975050505050505050565b600081905092915050565b7f1901000000000000000000000000000000000000000000000000000000000000600082015250565b60006125c8600283612587565b91506125d382612592565b600282019050919050565b6000819050919050565b6125f96125f48261184b565b6125de565b82525050565b600061260a826125bb565b915061261682856125e8565b60208201915061262682846125e8565b6020820191508190509392505050565b7f4e487b7100000000000000000000000000000000000000000000000000000000600052602160045260246000fd5b7f45434453413a20696e76616c6964207369676e61747572650000000000000000600082015250565b600061269b601883611c8a565b91506126a682612665565b602082019050919050565b600060208201905081810360008301526126ca8161268e565b9050919050565b7f45434453413a20696e76616c6964207369676e6174757265206c656e67746800600082015250565b6000612707601f83611c8a565b9150612712826126d1565b602082019050919050565b60006020820190508181036000830152612736816126fa565b9050919050565b7f45434453413a20696e76616c6964207369676e6174757265202773272076616c60008201527f7565000000000000000000000000000000000000000000000000000000000000602082015250565b6000612799602283611c8a565b91506127a48261273d565b604082019050919050565b600060208201905081810360008301526127c88161278c565b9050919050565b7f45434453413a20696e76616c6964207369676e6174757265202776272076616c60008201527f7565000000000000000000000000000000000000000000000000000000000000602082015250565b600061282b602283611c8a565b9150612836826127cf565b604082019050919050565b6000602082019050818103600083015261285a8161281e565b9050919050565b600060a08201905061287660008301886121c8565b61288360208301876121c8565b61289060408301866121c8565b61289d6060830185611465565b6128aa6080830184611966565b9695505050505050565b60006080820190506128c960008301876121c8565b6128d660208301866121b9565b6128e360408301856121c8565b6128f060608301846121c8565b9594505050505056fea26469706673582212202352cd4dd057cb5705be581b41a93f55ffaf5e45ae92e158bfd55800d8b9eecb64736f6c634300080f0033",
  "linkReferences": {},
  "deployedLinkReferences": {}
}