{
  "_format": "hh-sol-artifact-1",
  "contractName": "joinCommunity",
  "sourceName": "contracts/joincommunity.sol",
  "abi": [
    {
      "inputs": [],
      "stateMutability": "nonpayable",
      "type": "constructor"
    },
    {
      "anonymous": false,
      "inputs": [
        {
          "indexed": true,
          "internalType": "address",
          "name": "previousOwner",
          "type": "address"
        },
        {
          "indexed": true,
          "internalType": "address",
          "name": "newOwner",
          "type": "address"
        }
      ],
      "name": "OwnershipTransferred",
      "type": "event"
    },
    {
      "stateMutability": "payable",
      "type": "fallback"
    },
    {
      "inputs": [
        {
          "internalType": "address",
          "name": "_rehemaToken",
          "type": "address"
        }
      ],
      "name": "activate",
      "outputs": [],
      "stateMutability": "nonpayable",
      "type": "function"
    },
    {
      "inputs": [],
      "name": "amount",
      "outputs": [
        {
          "internalType": "uint256",
          "name": "",
          "type": "uint256"
        }
      ],
      "stateMutability": "view",
      "type": "function"
    },
    {
      "inputs": [],
      "name": "balances",
      "outputs": [
        {
          "internalType": "uint256",
          "name": "",
          "type": "uint256"
        }
      ],
      "stateMutability": "view",
      "type": "function"
    },
    {
      "inputs": [],
      "name": "balancesthis",
      "outputs": [
        {
          "internalType": "uint256",
          "name": "",
          "type": "uint256"
        }
      ],
      "stateMutability": "view",
      "type": "function"
    },
    {
      "inputs": [
        {
          "internalType": "uint256",
          "name": "_amount",
          "type": "uint256"
        }
      ],
      "name": "buyRehemaTokenForETH",
      "outputs": [],
      "stateMutability": "payable",
      "type": "function"
    },
    {
      "inputs": [
        {
          "internalType": "uint256",
          "name": "_amount",
          "type": "uint256"
        }
      ],
      "name": "buyRehemaTokensForcUSD",
      "outputs": [],
      "stateMutability": "payable",
      "type": "function"
    },
    {
      "inputs": [],
      "name": "getBalanceofMember",
      "outputs": [
        {
          "internalType": "uint256",
          "name": "",
          "type": "uint256"
        }
      ],
      "stateMutability": "view",
      "type": "function"
    },
    {
      "inputs": [
        {
          "internalType": "address",
          "name": "",
          "type": "address"
        }
      ],
      "name": "join",
      "outputs": [
        {
          "internalType": "bool",
          "name": "",
          "type": "bool"
        }
      ],
      "stateMutability": "view",
      "type": "function"
    },
    {
      "inputs": [],
      "name": "joinCommunityy",
      "outputs": [],
      "stateMutability": "nonpayable",
      "type": "function"
    },
    {
      "inputs": [],
      "name": "owner",
      "outputs": [
        {
          "internalType": "address",
          "name": "",
          "type": "address"
        }
      ],
      "stateMutability": "view",
      "type": "function"
    },
    {
      "inputs": [],
      "name": "renounceOwnership",
      "outputs": [],
      "stateMutability": "nonpayable",
      "type": "function"
    },
    {
      "inputs": [
        {
          "internalType": "address payable",
          "name": "_receiver",
          "type": "address"
        },
        {
          "internalType": "uint256",
          "name": "_amount",
          "type": "uint256"
        }
      ],
      "name": "shareRehemaTokens",
      "outputs": [],
      "stateMutability": "payable",
      "type": "function"
    },
    {
      "inputs": [
        {
          "internalType": "address",
          "name": "newOwner",
          "type": "address"
        }
      ],
      "name": "transferOwnership",
      "outputs": [],
      "stateMutability": "nonpayable",
      "type": "function"
    },
    {
      "stateMutability": "payable",
      "type": "receive"
    }
  ],
  "bytecode": "0x608060405273c877733b142f44af7e2fa8d29a7065e56ff851fa600360006101000a81548173ffffffffffffffffffffffffffffffffffffffff021916908373ffffffffffffffffffffffffffffffffffffffff160217905550600a60055573874069fa1eb16d44d622f2e0ca25eea172369bc1600660006101000a81548173ffffffffffffffffffffffffffffffffffffffff021916908373ffffffffffffffffffffffffffffffffffffffff1602179055503480156100bf57600080fd5b506100dc6100d161014460201b60201c565b61014c60201b60201c565b600660009054906101000a900473ffffffffffffffffffffffffffffffffffffffff16600260006101000a81548173ffffffffffffffffffffffffffffffffffffffff021916908373ffffffffffffffffffffffffffffffffffffffff160217905550610210565b600033905090565b60008060009054906101000a900473ffffffffffffffffffffffffffffffffffffffff169050816000806101000a81548173ffffffffffffffffffffffffffffffffffffffff021916908373ffffffffffffffffffffffffffffffffffffffff1602179055508173ffffffffffffffffffffffffffffffffffffffff168173ffffffffffffffffffffffffffffffffffffffff167f8be0079c531659141344cd1fd0a4f28419497f9722a3daafe3b4186f6b6457e060405160405180910390a35050565b6115858061021f6000396000f3fe6080604052600436106100c65760003560e01c80637bb98a681161007f578063865362191161005957806386536219146102215780638da5cb5b14610238578063aa8c217c14610263578063f2fde38b1461028e576100cd565b80637bb98a68146101be578063804e084c146101e95780638245f17014610205576100cd565b8063121f91a0146100cf5780631c5a9d9c146100fa57806328ffe6c8146101235780634d6dd1f114610160578063715018a61461018b57806373a11d90146101a2576100cd565b366100cd57005b005b3480156100db57600080fd5b506100e46102b7565b6040516100f19190610e28565b60405180910390f35b34801561010657600080fd5b50610121600480360381019061011c9190610ea6565b61035a565b005b34801561012f57600080fd5b5061014a60048036038101906101459190610ea6565b6103a6565b6040516101579190610eee565b60405180910390f35b34801561016c57600080fd5b506101756103c6565b6040516101829190610e28565b60405180910390f35b34801561019757600080fd5b506101a06103d6565b005b6101bc60048036038101906101b79190610f73565b6103ea565b005b3480156101ca57600080fd5b506101d361056f565b6040516101e09190610e28565b60405180910390f35b61020360048036038101906101fe9190610fb3565b61061a565b005b61021f600480360381019061021a9190610fb3565b610932565b005b34801561022d57600080fd5b50610236610a83565b005b34801561024457600080fd5b5061024d610c13565b60405161025a9190610fef565b60405180910390f35b34801561026f57600080fd5b50610278610c3c565b6040516102859190610e28565b60405180910390f35b34801561029a57600080fd5b506102b560048036038101906102b09190610ea6565b610c42565b005b6000600160009054906101000a900473ffffffffffffffffffffffffffffffffffffffff1673ffffffffffffffffffffffffffffffffffffffff166370a08231336040518263ffffffff1660e01b81526004016103149190610fef565b602060405180830381865afa158015610331573d6000803e3d6000fd5b505050506040513d601f19601f82011682018060405250810190610355919061101f565b905090565b610362610cc5565b80600160006101000a81548173ffffffffffffffffffffffffffffffffffffffff021916908373ffffffffffffffffffffffffffffffffffffffff16021790555050565b60046020528060005260406000206000915054906101000a900460ff1681565b60006103d0610cc5565b47905090565b6103de610cc5565b6103e86000610d43565b565b80600160009054906101000a900473ffffffffffffffffffffffffffffffffffffffff1673ffffffffffffffffffffffffffffffffffffffff166370a08231336040518263ffffffff1660e01b81526004016104469190610fef565b602060405180830381865afa158015610463573d6000803e3d6000fd5b505050506040513d601f19601f82011682018060405250810190610487919061101f565b10156104c8576040517f08c379a00000000000000000000000000000000000000000000000000000000081526004016104bf906110cf565b60405180910390fd5b600160009054906101000a900473ffffffffffffffffffffffffffffffffffffffff1673ffffffffffffffffffffffffffffffffffffffff1663a9059cbb836005546040518363ffffffff1660e01b815260040161052792919061114e565b6020604051808303816000875af1158015610546573d6000803e3d6000fd5b505050506040513d601f19601f8201168201806040525081019061056a91906111a3565b505050565b6000610579610cc5565b600260009054906101000a900473ffffffffffffffffffffffffffffffffffffffff1673ffffffffffffffffffffffffffffffffffffffff166370a08231306040518263ffffffff1660e01b81526004016105d49190610fef565b602060405180830381865afa1580156105f1573d6000803e3d6000fd5b505050506040513d601f19601f82011682018060405250810190610615919061101f565b905090565b80600260009054906101000a900473ffffffffffffffffffffffffffffffffffffffff1673ffffffffffffffffffffffffffffffffffffffff166370a08231336040518263ffffffff1660e01b81526004016106769190610fef565b602060405180830381865afa158015610693573d6000803e3d6000fd5b505050506040513d601f19601f820116820180604052508101906106b7919061101f565b10156106f8576040517f08c379a00000000000000000000000000000000000000000000000000000000081526004016106ef9061121c565b60405180910390fd5b600260009054906101000a900473ffffffffffffffffffffffffffffffffffffffff1673ffffffffffffffffffffffffffffffffffffffff1663095ea7b330836040518363ffffffff1660e01b815260040161075592919061123c565b6020604051808303816000875af1158015610774573d6000803e3d6000fd5b505050506040513d601f19601f8201168201806040525081019061079891906111a3565b6107a157600080fd5b600260009054906101000a900473ffffffffffffffffffffffffffffffffffffffff1673ffffffffffffffffffffffffffffffffffffffff166323b872dd3330846040518463ffffffff1660e01b815260040161080093929190611265565b6020604051808303816000875af115801561081f573d6000803e3d6000fd5b505050506040513d601f19601f8201168201806040525081019061084391906111a3565b610882576040517f08c379a0000000000000000000000000000000000000000000000000000000008152600401610879906112e8565b60405180910390fd5b600160009054906101000a900473ffffffffffffffffffffffffffffffffffffffff1673ffffffffffffffffffffffffffffffffffffffff1663a9059cbb33600a846108ce9190611337565b6040518363ffffffff1660e01b81526004016108eb92919061123c565b6020604051808303816000875af115801561090a573d6000803e3d6000fd5b505050506040513d601f19601f8201168201806040525081019061092e91906111a3565b5050565b803373ffffffffffffffffffffffffffffffffffffffff1631101561098c576040517f08c379a0000000000000000000000000000000000000000000000000000000008152600401610983906113c5565b60405180910390fd5b3073ffffffffffffffffffffffffffffffffffffffff166108fc829081150290604051600060405180830381858888f193505050501580156109d2573d6000803e3d6000fd5b50600160009054906101000a900473ffffffffffffffffffffffffffffffffffffffff1673ffffffffffffffffffffffffffffffffffffffff1663a9059cbb33600a84610a1f9190611337565b6040518363ffffffff1660e01b8152600401610a3c92919061123c565b6020604051808303816000875af1158015610a5b573d6000803e3d6000fd5b505050506040513d601f19601f82011682018060405250810190610a7f91906111a3565b5050565b60011515600460003373ffffffffffffffffffffffffffffffffffffffff1673ffffffffffffffffffffffffffffffffffffffff16815260200190815260200160002060009054906101000a900460ff16151503610b16576040517f08c379a0000000000000000000000000000000000000000000000000000000008152600401610b0d90611431565b60405180910390fd5b600160009054906101000a900473ffffffffffffffffffffffffffffffffffffffff1673ffffffffffffffffffffffffffffffffffffffff1663a9059cbb336005546040518363ffffffff1660e01b8152600401610b7592919061123c565b6020604051808303816000875af1158015610b94573d6000803e3d6000fd5b505050506040513d601f19601f82011682018060405250810190610bb891906111a3565b506001600460003373ffffffffffffffffffffffffffffffffffffffff1673ffffffffffffffffffffffffffffffffffffffff16815260200190815260200160002060006101000a81548160ff021916908315150217905550565b60008060009054906101000a900473ffffffffffffffffffffffffffffffffffffffff16905090565b60055481565b610c4a610cc5565b600073ffffffffffffffffffffffffffffffffffffffff168173ffffffffffffffffffffffffffffffffffffffff1603610cb9576040517f08c379a0000000000000000000000000000000000000000000000000000000008152600401610cb0906114c3565b60405180910390fd5b610cc281610d43565b50565b610ccd610e07565b73ffffffffffffffffffffffffffffffffffffffff16610ceb610c13565b73ffffffffffffffffffffffffffffffffffffffff1614610d41576040517f08c379a0000000000000000000000000000000000000000000000000000000008152600401610d389061152f565b60405180910390fd5b565b60008060009054906101000a900473ffffffffffffffffffffffffffffffffffffffff169050816000806101000a81548173ffffffffffffffffffffffffffffffffffffffff021916908373ffffffffffffffffffffffffffffffffffffffff1602179055508173ffffffffffffffffffffffffffffffffffffffff168173ffffffffffffffffffffffffffffffffffffffff167f8be0079c531659141344cd1fd0a4f28419497f9722a3daafe3b4186f6b6457e060405160405180910390a35050565b600033905090565b6000819050919050565b610e2281610e0f565b82525050565b6000602082019050610e3d6000830184610e19565b92915050565b600080fd5b600073ffffffffffffffffffffffffffffffffffffffff82169050919050565b6000610e7382610e48565b9050919050565b610e8381610e68565b8114610e8e57600080fd5b50565b600081359050610ea081610e7a565b92915050565b600060208284031215610ebc57610ebb610e43565b5b6000610eca84828501610e91565b91505092915050565b60008115159050919050565b610ee881610ed3565b82525050565b6000602082019050610f036000830184610edf565b92915050565b6000610f1482610e48565b9050919050565b610f2481610f09565b8114610f2f57600080fd5b50565b600081359050610f4181610f1b565b92915050565b610f5081610e0f565b8114610f5b57600080fd5b50565b600081359050610f6d81610f47565b92915050565b60008060408385031215610f8a57610f89610e43565b5b6000610f9885828601610f32565b9250506020610fa985828601610f5e565b9150509250929050565b600060208284031215610fc957610fc8610e43565b5b6000610fd784828501610f5e565b91505092915050565b610fe981610e68565b82525050565b60006020820190506110046000830184610fe0565b92915050565b60008151905061101981610f47565b92915050565b60006020828403121561103557611034610e43565b5b60006110438482850161100a565b91505092915050565b600082825260208201905092915050565b7f596f752068617665206c65737320726568656d6120746f6b656e7320706c656160008201527f736520746f702075700000000000000000000000000000000000000000000000602082015250565b60006110b960298361104c565b91506110c48261105d565b604082019050919050565b600060208201905081810360008301526110e8816110ac565b9050919050565b6000819050919050565b600061111461110f61110a84610e48565b6110ef565b610e48565b9050919050565b6000611126826110f9565b9050919050565b60006111388261111b565b9050919050565b6111488161112d565b82525050565b6000604082019050611163600083018561113f565b6111706020830184610e19565b9392505050565b61118081610ed3565b811461118b57600080fd5b50565b60008151905061119d81611177565b92915050565b6000602082840312156111b9576111b8610e43565b5b60006111c78482850161118e565b91505092915050565b7f6c6f772062616c616e6365000000000000000000000000000000000000000000600082015250565b6000611206600b8361104c565b9150611211826111d0565b602082019050919050565b60006020820190508181036000830152611235816111f9565b9050919050565b60006040820190506112516000830185610fe0565b61125e6020830184610e19565b9392505050565b600060608201905061127a6000830186610fe0565b6112876020830185610fe0565b6112946040830184610e19565b949350505050565b7f5472616e7365666572204661696c656400000000000000000000000000000000600082015250565b60006112d260108361104c565b91506112dd8261129c565b602082019050919050565b60006020820190508181036000830152611301816112c5565b9050919050565b7f4e487b7100000000000000000000000000000000000000000000000000000000600052601160045260246000fd5b600061134282610e0f565b915061134d83610e0f565b925082820261135b81610e0f565b9150828204841483151761137257611371611308565b5b5092915050565b7f4c65737320616d6f756e7420696e20746865206163636f756e74000000000000600082015250565b60006113af601a8361104c565b91506113ba82611379565b602082019050919050565b600060208201905081810360008301526113de816113a2565b9050919050565b7f616c72656164792061206d656d62657200000000000000000000000000000000600082015250565b600061141b60108361104c565b9150611426826113e5565b602082019050919050565b6000602082019050818103600083015261144a8161140e565b9050919050565b7f4f776e61626c653a206e6577206f776e657220697320746865207a65726f206160008201527f6464726573730000000000000000000000000000000000000000000000000000602082015250565b60006114ad60268361104c565b91506114b882611451565b604082019050919050565b600060208201905081810360008301526114dc816114a0565b9050919050565b7f4f776e61626c653a2063616c6c6572206973206e6f7420746865206f776e6572600082015250565b600061151960208361104c565b9150611524826114e3565b602082019050919050565b600060208201905081810360008301526115488161150c565b905091905056fea2646970667358221220be78ea08c224a64f28dd7010e58a57e045e2270ef862b0b5ed104415e943e83464736f6c63430008110033",
  "linkReferences": {},
  "deployedLinkReferences": {}
}