{
  "_format": "hh-sol-artifact-1",
  "contractName": "tumainiDao",
  "sourceName": "contracts/tumainiDao.sol",
  "abi": [
    {
      "inputs": [
        {
          "internalType": "address",
          "name": "_tokens",
          "type": "address"
        }
      ],
      "stateMutability": "nonpayable",
      "type": "constructor"
    },
    {
      "anonymous": false,
      "inputs": [
        {
          "indexed": true,
          "internalType": "address",
          "name": "fromAddress",
          "type": "address"
        },
        {
          "indexed": false,
          "internalType": "uint256",
          "name": "amount",
          "type": "uint256"
        }
      ],
      "name": "ContributionReceived",
      "type": "event"
    },
    {
      "anonymous": false,
      "inputs": [
        {
          "indexed": true,
          "internalType": "address",
          "name": "proposer",
          "type": "address"
        },
        {
          "indexed": false,
          "internalType": "uint256",
          "name": "amount",
          "type": "uint256"
        }
      ],
      "name": "NewCharityProposal",
      "type": "event"
    },
    {
      "anonymous": false,
      "inputs": [
        {
          "indexed": true,
          "internalType": "address",
          "name": "previousOwner",
          "type": "address"
        },
        {
          "indexed": true,
          "internalType": "address",
          "name": "newOwner",
          "type": "address"
        }
      ],
      "name": "OwnershipTransferred",
      "type": "event"
    },
    {
      "anonymous": false,
      "inputs": [
        {
          "indexed": true,
          "internalType": "address",
          "name": "stakeholder",
          "type": "address"
        },
        {
          "indexed": true,
          "internalType": "address",
          "name": "charityAddress",
          "type": "address"
        },
        {
          "indexed": false,
          "internalType": "uint256",
          "name": "amount",
          "type": "uint256"
        }
      ],
      "name": "PaymentTransfered",
      "type": "event"
    },
    {
      "anonymous": false,
      "inputs": [
        {
          "indexed": true,
          "internalType": "bytes32",
          "name": "role",
          "type": "bytes32"
        },
        {
          "indexed": true,
          "internalType": "bytes32",
          "name": "previousAdminRole",
          "type": "bytes32"
        },
        {
          "indexed": true,
          "internalType": "bytes32",
          "name": "newAdminRole",
          "type": "bytes32"
        }
      ],
      "name": "RoleAdminChanged",
      "type": "event"
    },
    {
      "anonymous": false,
      "inputs": [
        {
          "indexed": true,
          "internalType": "bytes32",
          "name": "role",
          "type": "bytes32"
        },
        {
          "indexed": true,
          "internalType": "address",
          "name": "account",
          "type": "address"
        },
        {
          "indexed": true,
          "internalType": "address",
          "name": "sender",
          "type": "address"
        }
      ],
      "name": "RoleGranted",
      "type": "event"
    },
    {
      "anonymous": false,
      "inputs": [
        {
          "indexed": true,
          "internalType": "bytes32",
          "name": "role",
          "type": "bytes32"
        },
        {
          "indexed": true,
          "internalType": "address",
          "name": "account",
          "type": "address"
        },
        {
          "indexed": true,
          "internalType": "address",
          "name": "sender",
          "type": "address"
        }
      ],
      "name": "RoleRevoked",
      "type": "event"
    },
    {
      "inputs": [],
      "name": "CONTRIBUTOR_ROLE",
      "outputs": [
        {
          "internalType": "bytes32",
          "name": "",
          "type": "bytes32"
        }
      ],
      "stateMutability": "view",
      "type": "function"
    },
    {
      "inputs": [],
      "name": "DEFAULT_ADMIN_ROLE",
      "outputs": [
        {
          "internalType": "bytes32",
          "name": "",
          "type": "bytes32"
        }
      ],
      "stateMutability": "view",
      "type": "function"
    },
    {
      "inputs": [],
      "name": "STAKEHOLDER_ROLE",
      "outputs": [
        {
          "internalType": "bytes32",
          "name": "",
          "type": "bytes32"
        }
      ],
      "stateMutability": "view",
      "type": "function"
    },
    {
      "inputs": [],
      "name": "addMember",
      "outputs": [],
      "stateMutability": "nonpayable",
      "type": "function"
    },
    {
      "inputs": [],
      "name": "bal",
      "outputs": [
        {
          "internalType": "uint256",
          "name": "",
          "type": "uint256"
        }
      ],
      "stateMutability": "view",
      "type": "function"
    },
    {
      "inputs": [
        {
          "internalType": "uint256",
          "name": "proposalid",
          "type": "uint256"
        }
      ],
      "name": "contributeToCharity",
      "outputs": [],
      "stateMutability": "payable",
      "type": "function"
    },
    {
      "inputs": [
        {
          "internalType": "string",
          "name": "description",
          "type": "string"
        },
        {
          "internalType": "address",
          "name": "charityAddress",
          "type": "address"
        },
        {
          "internalType": "uint256",
          "name": "amount",
          "type": "uint256"
        }
      ],
      "name": "createProposal",
      "outputs": [],
      "stateMutability": "nonpayable",
      "type": "function"
    },
    {
      "inputs": [],
      "name": "getAllProposals",
      "outputs": [
        {
          "components": [
            {
              "internalType": "uint256",
              "name": "id",
              "type": "uint256"
            },
            {
              "internalType": "uint256",
              "name": "amount",
              "type": "uint256"
            },
            {
              "internalType": "uint256",
              "name": "livePeriod",
              "type": "uint256"
            },
            {
              "internalType": "uint256",
              "name": "votesFor",
              "type": "uint256"
            },
            {
              "internalType": "uint256",
              "name": "voteAgainst",
              "type": "uint256"
            },
            {
              "internalType": "string",
              "name": "description",
              "type": "string"
            },
            {
              "internalType": "bool",
              "name": "votingPassed",
              "type": "bool"
            },
            {
              "internalType": "bool",
              "name": "paid",
              "type": "bool"
            },
            {
              "internalType": "address payable",
              "name": "charityAddress",
              "type": "address"
            },
            {
              "internalType": "address",
              "name": "proposer",
              "type": "address"
            },
            {
              "internalType": "address",
              "name": "paidBy",
              "type": "address"
            }
          ],
          "internalType": "struct tumainiDao.TumainCharityProposal[]",
          "name": "props",
          "type": "tuple[]"
        }
      ],
      "stateMutability": "view",
      "type": "function"
    },
    {
      "inputs": [],
      "name": "getContributorBalance",
      "outputs": [
        {
          "internalType": "uint256",
          "name": "",
          "type": "uint256"
        }
      ],
      "stateMutability": "view",
      "type": "function"
    },
    {
      "inputs": [
        {
          "internalType": "uint256",
          "name": "proposalid",
          "type": "uint256"
        }
      ],
      "name": "getProposal",
      "outputs": [
        {
          "components": [
            {
              "internalType": "uint256",
              "name": "id",
              "type": "uint256"
            },
            {
              "internalType": "uint256",
              "name": "amount",
              "type": "uint256"
            },
            {
              "internalType": "uint256",
              "name": "livePeriod",
              "type": "uint256"
            },
            {
              "internalType": "uint256",
              "name": "votesFor",
              "type": "uint256"
            },
            {
              "internalType": "uint256",
              "name": "voteAgainst",
              "type": "uint256"
            },
            {
              "internalType": "string",
              "name": "description",
              "type": "string"
            },
            {
              "internalType": "bool",
              "name": "votingPassed",
              "type": "bool"
            },
            {
              "internalType": "bool",
              "name": "paid",
              "type": "bool"
            },
            {
              "internalType": "address payable",
              "name": "charityAddress",
              "type": "address"
            },
            {
              "internalType": "address",
              "name": "proposer",
              "type": "address"
            },
            {
              "internalType": "address",
              "name": "paidBy",
              "type": "address"
            }
          ],
          "internalType": "struct tumainiDao.TumainCharityProposal",
          "name": "",
          "type": "tuple"
        }
      ],
      "stateMutability": "view",
      "type": "function"
    },
    {
      "inputs": [
        {
          "internalType": "bytes32",
          "name": "role",
          "type": "bytes32"
        }
      ],
      "name": "getRoleAdmin",
      "outputs": [
        {
          "internalType": "bytes32",
          "name": "",
          "type": "bytes32"
        }
      ],
      "stateMutability": "view",
      "type": "function"
    },
    {
      "inputs": [],
      "name": "getStakeHolderVotes",
      "outputs": [
        {
          "internalType": "uint256[]",
          "name": "",
          "type": "uint256[]"
        }
      ],
      "stateMutability": "view",
      "type": "function"
    },
    {
      "inputs": [],
      "name": "getStakeholderBalance",
      "outputs": [
        {
          "internalType": "uint256",
          "name": "",
          "type": "uint256"
        }
      ],
      "stateMutability": "view",
      "type": "function"
    },
    {
      "inputs": [
        {
          "internalType": "bytes32",
          "name": "role",
          "type": "bytes32"
        },
        {
          "internalType": "address",
          "name": "account",
          "type": "address"
        }
      ],
      "name": "grantRole",
      "outputs": [],
      "stateMutability": "nonpayable",
      "type": "function"
    },
    {
      "inputs": [
        {
          "internalType": "bytes32",
          "name": "role",
          "type": "bytes32"
        },
        {
          "internalType": "address",
          "name": "account",
          "type": "address"
        }
      ],
      "name": "hasRole",
      "outputs": [
        {
          "internalType": "bool",
          "name": "",
          "type": "bool"
        }
      ],
      "stateMutability": "view",
      "type": "function"
    },
    {
      "inputs": [],
      "name": "isContributor",
      "outputs": [
        {
          "internalType": "bool",
          "name": "",
          "type": "bool"
        }
      ],
      "stateMutability": "view",
      "type": "function"
    },
    {
      "inputs": [],
      "name": "isStakeholder",
      "outputs": [
        {
          "internalType": "bool",
          "name": "",
          "type": "bool"
        }
      ],
      "stateMutability": "view",
      "type": "function"
    },
    {
      "inputs": [],
      "name": "makeStakeholder",
      "outputs": [],
      "stateMutability": "payable",
      "type": "function"
    },
    {
      "inputs": [],
      "name": "owner",
      "outputs": [
        {
          "internalType": "address",
          "name": "",
          "type": "address"
        }
      ],
      "stateMutability": "view",
      "type": "function"
    },
    {
      "inputs": [],
      "name": "renounceOwnership",
      "outputs": [],
      "stateMutability": "nonpayable",
      "type": "function"
    },
    {
      "inputs": [
        {
          "internalType": "bytes32",
          "name": "role",
          "type": "bytes32"
        },
        {
          "internalType": "address",
          "name": "account",
          "type": "address"
        }
      ],
      "name": "renounceRole",
      "outputs": [],
      "stateMutability": "nonpayable",
      "type": "function"
    },
    {
      "inputs": [
        {
          "internalType": "bytes32",
          "name": "role",
          "type": "bytes32"
        },
        {
          "internalType": "address",
          "name": "account",
          "type": "address"
        }
      ],
      "name": "revokeRole",
      "outputs": [],
      "stateMutability": "nonpayable",
      "type": "function"
    },
    {
      "inputs": [
        {
          "internalType": "bytes4",
          "name": "interfaceId",
          "type": "bytes4"
        }
      ],
      "name": "supportsInterface",
      "outputs": [
        {
          "internalType": "bool",
          "name": "",
          "type": "bool"
        }
      ],
      "stateMutability": "view",
      "type": "function"
    },
    {
      "inputs": [
        {
          "internalType": "address",
          "name": "newOwner",
          "type": "address"
        }
      ],
      "name": "transferOwnership",
      "outputs": [],
      "stateMutability": "nonpayable",
      "type": "function"
    },
    {
      "inputs": [
        {
          "internalType": "uint256",
          "name": "proposalid",
          "type": "uint256"
        }
      ],
      "name": "transferToCharity",
      "outputs": [],
      "stateMutability": "nonpayable",
      "type": "function"
    },
    {
      "inputs": [
        {
          "internalType": "uint256",
          "name": "proposalid",
          "type": "uint256"
        },
        {
          "internalType": "bool",
          "name": "supportProposal",
          "type": "bool"
        }
      ],
      "name": "vote",
      "outputs": [],
      "stateMutability": "nonpayable",
      "type": "function"
    },
    {
      "inputs": [],
      "name": "withDraw",
      "outputs": [],
      "stateMutability": "nonpayable",
      "type": "function"
    }
  ],
  "bytecode": "0x60806040523480156200001157600080fd5b5060405162003b9838038062003b988339818101604052810190620000379190620001dd565b620000576200004b620000a760201b60201c565b620000af60201b60201c565b600160028190555080600860006101000a81548173ffffffffffffffffffffffffffffffffffffffff021916908373ffffffffffffffffffffffffffffffffffffffff160217905550506200020f565b600033905090565b60008060009054906101000a900473ffffffffffffffffffffffffffffffffffffffff169050816000806101000a81548173ffffffffffffffffffffffffffffffffffffffff021916908373ffffffffffffffffffffffffffffffffffffffff1602179055508173ffffffffffffffffffffffffffffffffffffffff168173ffffffffffffffffffffffffffffffffffffffff167f8be0079c531659141344cd1fd0a4f28419497f9722a3daafe3b4186f6b6457e060405160405180910390a35050565b600080fd5b600073ffffffffffffffffffffffffffffffffffffffff82169050919050565b6000620001a58262000178565b9050919050565b620001b78162000198565b8114620001c357600080fd5b50565b600081519050620001d781620001ac565b92915050565b600060208284031215620001f657620001f562000173565b5b60006200020684828501620001c6565b91505092915050565b613979806200021f6000396000f3fe60806040526004361061019c5760003560e01c8063715018a6116100ec578063c8c2cfa71161008a578063d547741f11610064578063d547741f14610550578063d6cc801614610579578063eafb79e2146105a4578063f2fde38b146105cf5761019c565b8063c8c2cfa7146104d1578063c9d27afe146104fc578063cceb68f5146105255761019c565b806391d14854116100c657806391d1485414610401578063a217fddf1461043e578063c02146ac14610469578063c7f758a8146104945761019c565b8063715018a614610396578063831c43ac146103ad5780638da5cb5b146103d65761019c565b80632f2ff15d116101595780633d79d1c8116101335780633d79d1c8146102fb5780634796a3521461032657806362cef33c146103425780636a80d84d1461036b5761019c565b80632f2ff15d1461027e57806336568abe146102a75780633cdb48c2146102d05761019c565b806301ffc9a7146101a1578063029d010d146101de5780630fdb1c10146101f557806322d1e1fb1461020c578063248a9ca3146102165780632b7fac7314610253575b600080fd5b3480156101ad57600080fd5b506101c860048036038101906101c391906125ac565b6105f8565b6040516101d591906125f4565b60405180910390f35b3480156101ea57600080fd5b506101f3610672565b005b34801561020157600080fd5b5061020a61069e565b005b6102146106ef565b005b34801561022257600080fd5b5061023d60048036038101906102389190612645565b6109dd565b60405161024a9190612681565b60405180910390f35b34801561025f57600080fd5b506102686109fd565b6040516102759190612681565b60405180910390f35b34801561028a57600080fd5b506102a560048036038101906102a091906126fa565b610a21565b005b3480156102b357600080fd5b506102ce60048036038101906102c991906126fa565b610a42565b005b3480156102dc57600080fd5b506102e5610ac5565b6040516102f29190612753565b60405180910390f35b34801561030757600080fd5b50610310610bb0565b60405161031d9190612753565b60405180910390f35b610340600480360381019061033b919061279a565b610c53565b005b34801561034e57600080fd5b506103696004803603810190610364919061279a565b610cd9565b005b34801561037757600080fd5b50610380610f73565b60405161038d9190612753565b60405180910390f35b3480156103a257600080fd5b506103ab61105e565b005b3480156103b957600080fd5b506103d460048036038101906103cf919061282c565b611072565b005b3480156103e257600080fd5b506103eb611323565b6040516103f891906128af565b60405180910390f35b34801561040d57600080fd5b50610428600480360381019061042391906126fa565b61134c565b60405161043591906125f4565b60405180910390f35b34801561044a57600080fd5b506104536113b7565b6040516104609190612681565b60405180910390f35b34801561047557600080fd5b5061047e6113be565b60405161048b91906125f4565b60405180910390f35b3480156104a057600080fd5b506104bb60048036038101906104b6919061279a565b611407565b6040516104c89190612a97565b60405180910390f35b3480156104dd57600080fd5b506104e6611631565b6040516104f39190612b68565b60405180910390f35b34801561050857600080fd5b50610523600480360381019061051e9190612bb6565b61176a565b005b34801561053157600080fd5b5061053a6118dd565b6040516105479190612da7565b60405180910390f35b34801561055c57600080fd5b50610577600480360381019061057291906126fa565b611b94565b005b34801561058557600080fd5b5061058e611bb5565b60405161059b91906125f4565b60405180910390f35b3480156105b057600080fd5b506105b9611bfe565b6040516105c69190612681565b60405180910390f35b3480156105db57600080fd5b506105f660048036038101906105f19190612dc9565b611c22565b005b60007f7965db0b000000000000000000000000000000000000000000000000000000007bffffffffffffffffffffffffffffffffffffffffffffffffffffffff1916827bffffffffffffffffffffffffffffffffffffffffffffffffffffffff1916148061066b575061066a82611ca5565b5b9050919050565b61069c7ff4bb84e1768dd286358a736d195a0b228621173f655a73b89bf8b191ed0ba07d33610a21565b565b6106a6611d0f565b3373ffffffffffffffffffffffffffffffffffffffff166108fc479081150290604051600060405180830381858888f193505050501580156106ec573d6000803e3d6000fd5b50565b600033905060003490506107237ff4bb84e1768dd286358a736d195a0b228621173f655a73b89bf8b191ed0ba07d8361134c565b61092c57600081600660008573ffffffffffffffffffffffffffffffffffffffff1673ffffffffffffffffffffffffffffffffffffffff168152602001908152602001600020546107749190612e25565b90503481106108a55780600760008573ffffffffffffffffffffffffffffffffffffffff1673ffffffffffffffffffffffffffffffffffffffff1681526020019081526020016000208190555080600660008573ffffffffffffffffffffffffffffffffffffffff1673ffffffffffffffffffffffffffffffffffffffff1681526020019081526020016000208190555061082f7ff4bb84e1768dd286358a736d195a0b228621173f655a73b89bf8b191ed0ba07d84611d8d565b6108597fa0bb1af1c90aa52ed052b92714ff0087008cc720049bf1af77cca2600b31e80c84611d8d565b3073ffffffffffffffffffffffffffffffffffffffff166108fc349081150290604051600060405180830381858888f1935050505015801561089f573d6000803e3d6000fd5b50610926565b81600660008573ffffffffffffffffffffffffffffffffffffffff1673ffffffffffffffffffffffffffffffffffffffff16815260200190815260200160002060008282546108f49190612e25565b925050819055506109257fa0bb1af1c90aa52ed052b92714ff0087008cc720049bf1af77cca2600b31e80c84611d8d565b5b506109d9565b80600660008473ffffffffffffffffffffffffffffffffffffffff1673ffffffffffffffffffffffffffffffffffffffff168152602001908152602001600020600082825461097b9190612e25565b9250508190555080600760008473ffffffffffffffffffffffffffffffffffffffff1673ffffffffffffffffffffffffffffffffffffffff16815260200190815260200160002060008282546109d19190612e25565b925050819055505b5050565b600060016000838152602001908152602001600020600101549050919050565b7ff4bb84e1768dd286358a736d195a0b228621173f655a73b89bf8b191ed0ba07d81565b610a2a826109dd565b610a3381611d9b565b610a3d8383611daf565b505050565b610a4a611e8f565b73ffffffffffffffffffffffffffffffffffffffff168173ffffffffffffffffffffffffffffffffffffffff1614610ab7576040517f08c379a0000000000000000000000000000000000000000000000000000000008152600401610aae90612edc565b60405180910390fd5b610ac18282611e97565b5050565b60006040518060400160405280601981526020017f55736572206973206e6f74206120636f6e7472696275746f7200000000000000815250610b277fa0bb1af1c90aa52ed052b92714ff0087008cc720049bf1af77cca2600b31e80c3361134c565b8190610b69576040517f08c379a0000000000000000000000000000000000000000000000000000000008152600401610b609190612f35565b60405180910390fd5b50600660003373ffffffffffffffffffffffffffffffffffffffff1673ffffffffffffffffffffffffffffffffffffffff1681526020019081526020016000205491505090565b6000600860009054906101000a900473ffffffffffffffffffffffffffffffffffffffff1673ffffffffffffffffffffffffffffffffffffffff166370a08231336040518263ffffffff1660e01b8152600401610c0d91906128af565b602060405180830381865afa158015610c2a573d6000803e3d6000fd5b505050506040513d601f19601f82011682018060405250810190610c4e9190612f6c565b905090565b60006004600083815260200190815260200160002090508060060160029054906101000a900473ffffffffffffffffffffffffffffffffffffffff1673ffffffffffffffffffffffffffffffffffffffff166108fc349081150290604051600060405180830381858888f19350505050158015610cd4573d6000803e3d6000fd5b505050565b6040518060600160405280602e81526020016138e4602e9139610d1c7ff4bb84e1768dd286358a736d195a0b228621173f655a73b89bf8b191ed0ba07d3361134c565b8190610d5e576040517f08c379a0000000000000000000000000000000000000000000000000000000008152600401610d559190612f35565b60405180910390fd5b5060006004600084815260200190815260200160002090508060060160019054906101000a900460ff1615610dc8576040517f08c379a0000000000000000000000000000000000000000000000000000000008152600401610dbf9061300b565b60405180910390fd5b8060040154816003015411610e12576040517f08c379a0000000000000000000000000000000000000000000000000000000008152600401610e099061309d565b60405180910390fd5b60018160060160016101000a81548160ff021916908315150217905550338160080160006101000a81548173ffffffffffffffffffffffffffffffffffffffff021916908373ffffffffffffffffffffffffffffffffffffffff1602179055508060060160029054906101000a900473ffffffffffffffffffffffffffffffffffffffff1673ffffffffffffffffffffffffffffffffffffffff163373ffffffffffffffffffffffffffffffffffffffff167ffdb2bc0ebc2e58404f3ad5b20d3ec351f2b7b7bf6a21e18beaa7d296d2f01ba58360010154604051610ef79190612753565b60405180910390a38060060160029054906101000a900473ffffffffffffffffffffffffffffffffffffffff1673ffffffffffffffffffffffffffffffffffffffff166108fc82600101549081150290604051600060405180830381858888f19350505050158015610f6d573d6000803e3d6000fd5b50505050565b60006040518060400160405280601981526020017f55736572206973206e6f742061207374616b65686f6c64657200000000000000815250610fd57ff4bb84e1768dd286358a736d195a0b228621173f655a73b89bf8b191ed0ba07d3361134c565b8190611017576040517f08c379a000000000000000000000000000000000000000000000000000000000815260040161100e9190612f35565b60405180910390fd5b50600760003373ffffffffffffffffffffffffffffffffffffffff1673ffffffffffffffffffffffffffffffffffffffff1681526020019081526020016000205491505090565b611066611d0f565b6110706000611f79565b565b604051806060016040528060328152602001613912603291396110b57ff4bb84e1768dd286358a736d195a0b228621173f655a73b89bf8b191ed0ba07d3361134c565b81906110f7576040517f08c379a00000000000000000000000000000000000000000000000000000000081526004016110ee9190612f35565b60405180910390fd5b506009600860009054906101000a900473ffffffffffffffffffffffffffffffffffffffff1673ffffffffffffffffffffffffffffffffffffffff166370a08231336040518263ffffffff1660e01b815260040161115591906128af565b602060405180830381865afa158015611172573d6000803e3d6000fd5b505050506040513d601f19601f820116820180604052508101906111969190612f6c565b10156111d7576040517f08c379a00000000000000000000000000000000000000000000000000000000081526004016111ce9061312f565b60405180910390fd5b6000600360008154809291906111ec9061314f565b919050559050600060046000838152602001908152602001600020905081816000018190555086868260050191826112259291906133dd565b50338160070160006101000a81548173ffffffffffffffffffffffffffffffffffffffff021916908373ffffffffffffffffffffffffffffffffffffffff160217905550848160060160026101000a81548173ffffffffffffffffffffffffffffffffffffffff021916908373ffffffffffffffffffffffffffffffffffffffff16021790555083816001018190555062093a80426112c49190612e25565b81600201819055503373ffffffffffffffffffffffffffffffffffffffff167fde0de3e1063d1a2b43ea01642e4e063713543716ff7d67f30c45ff96dd8fb697856040516113129190612753565b60405180910390a250505050505050565b60008060009054906101000a900473ffffffffffffffffffffffffffffffffffffffff16905090565b60006001600084815260200190815260200160002060000160008373ffffffffffffffffffffffffffffffffffffffff1673ffffffffffffffffffffffffffffffffffffffff16815260200190815260200160002060009054906101000a900460ff16905092915050565b6000801b81565b600080600760003373ffffffffffffffffffffffffffffffffffffffff1673ffffffffffffffffffffffffffffffffffffffff1681526020019081526020016000205411905090565b61140f6124aa565b6004600083815260200190815260200160002060405180610160016040529081600082015481526020016001820154815260200160028201548152602001600382015481526020016004820154815260200160058201805461147090613200565b80601f016020809104026020016040519081016040528092919081815260200182805461149c90613200565b80156114e95780601f106114be576101008083540402835291602001916114e9565b820191906000526020600020905b8154815290600101906020018083116114cc57829003601f168201915b505050505081526020016006820160009054906101000a900460ff161515151581526020016006820160019054906101000a900460ff161515151581526020016006820160029054906101000a900473ffffffffffffffffffffffffffffffffffffffff1673ffffffffffffffffffffffffffffffffffffffff1673ffffffffffffffffffffffffffffffffffffffff1681526020016007820160009054906101000a900473ffffffffffffffffffffffffffffffffffffffff1673ffffffffffffffffffffffffffffffffffffffff1673ffffffffffffffffffffffffffffffffffffffff1681526020016008820160009054906101000a900473ffffffffffffffffffffffffffffffffffffffff1673ffffffffffffffffffffffffffffffffffffffff1673ffffffffffffffffffffffffffffffffffffffff16815250509050919050565b60606040518060400160405280601481526020017f55736572206e6f74205374616b65686f6c6465720000000000000000000000008152506116937ff4bb84e1768dd286358a736d195a0b228621173f655a73b89bf8b191ed0ba07d3361134c565b81906116d5576040517f08c379a00000000000000000000000000000000000000000000000000000000081526004016116cc9190612f35565b60405180910390fd5b50600560003373ffffffffffffffffffffffffffffffffffffffff1673ffffffffffffffffffffffffffffffffffffffff16815260200190815260200160002080548060200260200160405190810160405280929190818152602001828054801561175f57602002820191906000526020600020905b81548152602001906001019080831161174b575b505050505091505090565b6040518060400160405280601981526020017f6f6e6c79205374616b65486f6c6465722063616e20766f7465000000000000008152506117ca7ff4bb84e1768dd286358a736d195a0b228621173f655a73b89bf8b191ed0ba07d3361134c565b819061180c576040517f08c379a00000000000000000000000000000000000000000000000000000000081526004016118039190612f35565b60405180910390fd5b50600060046000858152602001908152602001600020905061182d8161203d565b8215611852578060030160008154809291906118489061314f565b919050555061186d565b8060040160008154809291906118679061314f565b91905055505b600560003373ffffffffffffffffffffffffffffffffffffffff1673ffffffffffffffffffffffffffffffffffffffff1681526020019081526020016000208160000154908060018154018082558091505060019003906000526020600020016000909190919091505550505050565b606060035467ffffffffffffffff8111156118fb576118fa6131a2565b5b60405190808252806020026020018201604052801561193457816020015b6119216124aa565b8152602001906001900390816119195790505b50905060005b600354811015611b9057600460008281526020019081526020016000206040518061016001604052908160008201548152602001600182015481526020016002820154815260200160038201548152602001600482015481526020016005820180546119a590613200565b80601f01602080910402602001604051908101604052809291908181526020018280546119d190613200565b8015611a1e5780601f106119f357610100808354040283529160200191611a1e565b820191906000526020600020905b815481529060010190602001808311611a0157829003601f168201915b505050505081526020016006820160009054906101000a900460ff161515151581526020016006820160019054906101000a900460ff161515151581526020016006820160029054906101000a900473ffffffffffffffffffffffffffffffffffffffff1673ffffffffffffffffffffffffffffffffffffffff1673ffffffffffffffffffffffffffffffffffffffff1681526020016007820160009054906101000a900473ffffffffffffffffffffffffffffffffffffffff1673ffffffffffffffffffffffffffffffffffffffff1673ffffffffffffffffffffffffffffffffffffffff1681526020016008820160009054906101000a900473ffffffffffffffffffffffffffffffffffffffff1673ffffffffffffffffffffffffffffffffffffffff1673ffffffffffffffffffffffffffffffffffffffff1681525050828281518110611b7257611b716134ad565b5b60200260200101819052508080611b889061314f565b91505061193a565b5090565b611b9d826109dd565b611ba681611d9b565b611bb08383611e97565b505050565b600080600660003373ffffffffffffffffffffffffffffffffffffffff1673ffffffffffffffffffffffffffffffffffffffff1681526020019081526020016000205411905090565b7fa0bb1af1c90aa52ed052b92714ff0087008cc720049bf1af77cca2600b31e80c81565b611c2a611d0f565b600073ffffffffffffffffffffffffffffffffffffffff168173ffffffffffffffffffffffffffffffffffffffff1603611c99576040517f08c379a0000000000000000000000000000000000000000000000000000000008152600401611c909061354e565b60405180910390fd5b611ca281611f79565b50565b60007f01ffc9a7000000000000000000000000000000000000000000000000000000007bffffffffffffffffffffffffffffffffffffffffffffffffffffffff1916827bffffffffffffffffffffffffffffffffffffffffffffffffffffffff1916149050919050565b611d17611e8f565b73ffffffffffffffffffffffffffffffffffffffff16611d35611323565b73ffffffffffffffffffffffffffffffffffffffff1614611d8b576040517f08c379a0000000000000000000000000000000000000000000000000000000008152600401611d82906135ba565b60405180910390fd5b565b611d978282611daf565b5050565b611dac81611da7611e8f565b6121d1565b50565b611db9828261134c565b611e8b57600180600084815260200190815260200160002060000160008373ffffffffffffffffffffffffffffffffffffffff1673ffffffffffffffffffffffffffffffffffffffff16815260200190815260200160002060006101000a81548160ff021916908315150217905550611e30611e8f565b73ffffffffffffffffffffffffffffffffffffffff168173ffffffffffffffffffffffffffffffffffffffff16837f2f8788117e7eff1d82e926ec794901d17c78024a50270940304540a733656f0d60405160405180910390a45b5050565b600033905090565b611ea1828261134c565b15611f755760006001600084815260200190815260200160002060000160008373ffffffffffffffffffffffffffffffffffffffff1673ffffffffffffffffffffffffffffffffffffffff16815260200190815260200160002060006101000a81548160ff021916908315150217905550611f1a611e8f565b73ffffffffffffffffffffffffffffffffffffffff168173ffffffffffffffffffffffffffffffffffffffff16837ff6391f5c32d9c69d2a47ea670b442974b53935d1edc7fd64eb21e047a839171b60405160405180910390a45b5050565b60008060009054906101000a900473ffffffffffffffffffffffffffffffffffffffff169050816000806101000a81548173ffffffffffffffffffffffffffffffffffffffff021916908373ffffffffffffffffffffffffffffffffffffffff1602179055508173ffffffffffffffffffffffffffffffffffffffff168173ffffffffffffffffffffffffffffffffffffffff167f8be0079c531659141344cd1fd0a4f28419497f9722a3daafe3b4186f6b6457e060405160405180910390a35050565b8060060160009054906101000a900460ff168061205e575042816002015411155b156120bb5760018160060160006101000a81548160ff0219169083151502179055506040517f08c379a00000000000000000000000000000000000000000000000000000000081526004016120b29061364c565b60405180910390fd5b6000600560003373ffffffffffffffffffffffffffffffffffffffff1673ffffffffffffffffffffffffffffffffffffffff16815260200190815260200160002080548060200260200160405190810160405280929190818152602001828054801561214657602002820191906000526020600020905b815481526020019060010190808311612132575b5050505050905060005b81518110156121cc5781818151811061216c5761216b6134ad565b5b60200260200101518360000154036121b9576040517f08c379a00000000000000000000000000000000000000000000000000000000081526004016121b0906136de565b60405180910390fd5b80806121c49061314f565b915050612150565b505050565b6121db828261134c565b61226a576122008173ffffffffffffffffffffffffffffffffffffffff16601461226e565b61220e8360001c602061226e565b60405160200161221f9291906137d2565b6040516020818303038152906040526040517f08c379a00000000000000000000000000000000000000000000000000000000081526004016122619190612f35565b60405180910390fd5b5050565b606060006002836002612281919061380c565b61228b9190612e25565b67ffffffffffffffff8111156122a4576122a36131a2565b5b6040519080825280601f01601f1916602001820160405280156122d65781602001600182028036833780820191505090505b5090507f30000000000000000000000000000000000000000000000000000000000000008160008151811061230e5761230d6134ad565b5b60200101907effffffffffffffffffffffffffffffffffffffffffffffffffffffffffffff1916908160001a9053507f780000000000000000000000000000000000000000000000000000000000000081600181518110612372576123716134ad565b5b60200101907effffffffffffffffffffffffffffffffffffffffffffffffffffffffffffff1916908160001a905350600060018460026123b2919061380c565b6123bc9190612e25565b90505b600181111561245c577f3031323334353637383961626364656600000000000000000000000000000000600f8616601081106123fe576123fd6134ad565b5b1a60f81b828281518110612415576124146134ad565b5b60200101907effffffffffffffffffffffffffffffffffffffffffffffffffffffffffffff1916908160001a905350600485901c9450806124559061384e565b90506123bf565b50600084146124a0576040517f08c379a0000000000000000000000000000000000000000000000000000000008152600401612497906138c3565b60405180910390fd5b8091505092915050565b604051806101600160405280600081526020016000815260200160008152602001600081526020016000815260200160608152602001600015158152602001600015158152602001600073ffffffffffffffffffffffffffffffffffffffff168152602001600073ffffffffffffffffffffffffffffffffffffffff168152602001600073ffffffffffffffffffffffffffffffffffffffff1681525090565b600080fd5b600080fd5b60007fffffffff0000000000000000000000000000000000000000000000000000000082169050919050565b61258981612554565b811461259457600080fd5b50565b6000813590506125a681612580565b92915050565b6000602082840312156125c2576125c161254a565b5b60006125d084828501612597565b91505092915050565b60008115159050919050565b6125ee816125d9565b82525050565b600060208201905061260960008301846125e5565b92915050565b6000819050919050565b6126228161260f565b811461262d57600080fd5b50565b60008135905061263f81612619565b92915050565b60006020828403121561265b5761265a61254a565b5b600061266984828501612630565b91505092915050565b61267b8161260f565b82525050565b60006020820190506126966000830184612672565b92915050565b600073ffffffffffffffffffffffffffffffffffffffff82169050919050565b60006126c78261269c565b9050919050565b6126d7816126bc565b81146126e257600080fd5b50565b6000813590506126f4816126ce565b92915050565b600080604083850312156127115761271061254a565b5b600061271f85828601612630565b9250506020612730858286016126e5565b9150509250929050565b6000819050919050565b61274d8161273a565b82525050565b60006020820190506127686000830184612744565b92915050565b6127778161273a565b811461278257600080fd5b50565b6000813590506127948161276e565b92915050565b6000602082840312156127b0576127af61254a565b5b60006127be84828501612785565b91505092915050565b600080fd5b600080fd5b600080fd5b60008083601f8401126127ec576127eb6127c7565b5b8235905067ffffffffffffffff811115612809576128086127cc565b5b602083019150836001820283011115612825576128246127d1565b5b9250929050565b600080600080606085870312156128465761284561254a565b5b600085013567ffffffffffffffff8111156128645761286361254f565b5b612870878288016127d6565b94509450506020612883878288016126e5565b925050604061289487828801612785565b91505092959194509250565b6128a9816126bc565b82525050565b60006020820190506128c460008301846128a0565b92915050565b6128d38161273a565b82525050565b600081519050919050565b600082825260208201905092915050565b60005b838110156129135780820151818401526020810190506128f8565b60008484015250505050565b6000601f19601f8301169050919050565b600061293b826128d9565b61294581856128e4565b93506129558185602086016128f5565b61295e8161291f565b840191505092915050565b612972816125d9565b82525050565b60006129838261269c565b9050919050565b61299381612978565b82525050565b6129a2816126bc565b82525050565b6000610160830160008301516129c160008601826128ca565b5060208301516129d460208601826128ca565b5060408301516129e760408601826128ca565b5060608301516129fa60608601826128ca565b506080830151612a0d60808601826128ca565b5060a083015184820360a0860152612a258282612930565b91505060c0830151612a3a60c0860182612969565b5060e0830151612a4d60e0860182612969565b50610100830151612a6261010086018261298a565b50610120830151612a77610120860182612999565b50610140830151612a8c610140860182612999565b508091505092915050565b60006020820190508181036000830152612ab181846129a8565b905092915050565b600081519050919050565b600082825260208201905092915050565b6000819050602082019050919050565b6000612af183836128ca565b60208301905092915050565b6000602082019050919050565b6000612b1582612ab9565b612b1f8185612ac4565b9350612b2a83612ad5565b8060005b83811015612b5b578151612b428882612ae5565b9750612b4d83612afd565b925050600181019050612b2e565b5085935050505092915050565b60006020820190508181036000830152612b828184612b0a565b905092915050565b612b93816125d9565b8114612b9e57600080fd5b50565b600081359050612bb081612b8a565b92915050565b60008060408385031215612bcd57612bcc61254a565b5b6000612bdb85828601612785565b9250506020612bec85828601612ba1565b9150509250929050565b600081519050919050565b600082825260208201905092915050565b6000819050602082019050919050565b600061016083016000830151612c3b60008601826128ca565b506020830151612c4e60208601826128ca565b506040830151612c6160408601826128ca565b506060830151612c7460608601826128ca565b506080830151612c8760808601826128ca565b5060a083015184820360a0860152612c9f8282612930565b91505060c0830151612cb460c0860182612969565b5060e0830151612cc760e0860182612969565b50610100830151612cdc61010086018261298a565b50610120830151612cf1610120860182612999565b50610140830151612d06610140860182612999565b508091505092915050565b6000612d1d8383612c22565b905092915050565b6000602082019050919050565b6000612d3d82612bf6565b612d478185612c01565b935083602082028501612d5985612c12565b8060005b85811015612d955784840389528151612d768582612d11565b9450612d8183612d25565b925060208a01995050600181019050612d5d565b50829750879550505050505092915050565b60006020820190508181036000830152612dc18184612d32565b905092915050565b600060208284031215612ddf57612dde61254a565b5b6000612ded848285016126e5565b91505092915050565b7f4e487b7100000000000000000000000000000000000000000000000000000000600052601160045260246000fd5b6000612e308261273a565b9150612e3b8361273a565b9250828201905080821115612e5357612e52612df6565b5b92915050565b600082825260208201905092915050565b7f416363657373436f6e74726f6c3a2063616e206f6e6c792072656e6f756e636560008201527f20726f6c657320666f722073656c660000000000000000000000000000000000602082015250565b6000612ec6602f83612e59565b9150612ed182612e6a565b604082019050919050565b60006020820190508181036000830152612ef581612eb9565b9050919050565b6000612f07826128d9565b612f118185612e59565b9350612f218185602086016128f5565b612f2a8161291f565b840191505092915050565b60006020820190508181036000830152612f4f8184612efc565b905092915050565b600081519050612f668161276e565b92915050565b600060208284031215612f8257612f8161254a565b5b6000612f9084828501612f57565b91505092915050565b7f7061796d656e742068617665206265656e206d61646520746f2074686973206360008201527f6861726974790000000000000000000000000000000000000000000000000000602082015250565b6000612ff5602683612e59565b915061300082612f99565b604082019050919050565b6000602082019050818103600083015261302481612fe8565b9050919050565b7f5468652070726f706f73616c20646f6573206e6f74206861766520746865207260008201527f6571756972656420616d6f756e74206f6620766f746573000000000000000000602082015250565b6000613087603783612e59565b91506130928261302b565b604082019050919050565b600060208201905081810360008301526130b68161307a565b9050919050565b7f6c6573732074756d61696e20746f6b656e20706c65617365207075726368617360008201527f6500000000000000000000000000000000000000000000000000000000000000602082015250565b6000613119602183612e59565b9150613124826130bd565b604082019050919050565b600060208201905081810360008301526131488161310c565b9050919050565b600061315a8261273a565b91507fffffffffffffffffffffffffffffffffffffffffffffffffffffffffffffffff820361318c5761318b612df6565b5b600182019050919050565b600082905092915050565b7f4e487b7100000000000000000000000000000000000000000000000000000000600052604160045260246000fd5b7f4e487b7100000000000000000000000000000000000000000000000000000000600052602260045260246000fd5b6000600282049050600182168061321857607f821691505b60208210810361322b5761322a6131d1565b5b50919050565b60008190508160005260206000209050919050565b60006020601f8301049050919050565b600082821b905092915050565b6000600883026132937fffffffffffffffffffffffffffffffffffffffffffffffffffffffffffffffff82613256565b61329d8683613256565b95508019841693508086168417925050509392505050565b6000819050919050565b60006132da6132d56132d08461273a565b6132b5565b61273a565b9050919050565b6000819050919050565b6132f4836132bf565b613308613300826132e1565b848454613263565b825550505050565b600090565b61331d613310565b6133288184846132eb565b505050565b5b8181101561334c57613341600082613315565b60018101905061332e565b5050565b601f8211156133915761336281613231565b61336b84613246565b8101602085101561337a578190505b61338e61338685613246565b83018261332d565b50505b505050565b600082821c905092915050565b60006133b460001984600802613396565b1980831691505092915050565b60006133cd83836133a3565b9150826002028217905092915050565b6133e78383613197565b67ffffffffffffffff811115613400576133ff6131a2565b5b61340a8254613200565b613415828285613350565b6000601f8311600181146134445760008415613432578287013590505b61343c85826133c1565b8655506134a4565b601f19841661345286613231565b60005b8281101561347a57848901358255600182019150602085019450602081019050613455565b868310156134975784890135613493601f8916826133a3565b8355505b6001600288020188555050505b50505050505050565b7f4e487b7100000000000000000000000000000000000000000000000000000000600052603260045260246000fd5b7f4f776e61626c653a206e6577206f776e657220697320746865207a65726f206160008201527f6464726573730000000000000000000000000000000000000000000000000000602082015250565b6000613538602683612e59565b9150613543826134dc565b604082019050919050565b600060208201905081810360008301526135678161352b565b9050919050565b7f4f776e61626c653a2063616c6c6572206973206e6f7420746865206f776e6572600082015250565b60006135a4602083612e59565b91506135af8261356e565b602082019050919050565b600060208201905081810360008301526135d381613597565b9050919050565b7f566f74696e6720706572696f64206861732070617373656420666f722074686960008201527f732070726f706f73616c00000000000000000000000000000000000000000000602082015250565b6000613636602a83612e59565b9150613641826135da565b604082019050919050565b6000602082019050818103600083015261366581613629565b9050919050565b7f54686973207374616b65686f6c6465722068617320616c726561647920766f7460008201527f6564206f6e20746869732070726f706f73616c00000000000000000000000000602082015250565b60006136c8603383612e59565b91506136d38261366c565b604082019050919050565b600060208201905081810360008301526136f7816136bb565b9050919050565b600081905092915050565b7f416363657373436f6e74726f6c3a206163636f756e7420000000000000000000600082015250565b600061373f6017836136fe565b915061374a82613709565b601782019050919050565b6000613760826128d9565b61376a81856136fe565b935061377a8185602086016128f5565b80840191505092915050565b7f206973206d697373696e6720726f6c6520000000000000000000000000000000600082015250565b60006137bc6011836136fe565b91506137c782613786565b601182019050919050565b60006137dd82613732565b91506137e98285613755565b91506137f4826137af565b91506138008284613755565b91508190509392505050565b60006138178261273a565b91506138228361273a565b92508282026138308161273a565b9150828204841483151761384757613846612df6565b5b5092915050565b60006138598261273a565b91506000820361386c5761386b612df6565b5b600182039050919050565b7f537472696e67733a20686578206c656e67746820696e73756666696369656e74600082015250565b60006138ad602083612e59565b91506138b882613877565b602082019050919050565b600060208201905081810360008301526138dc816138a0565b905091905056fe6f6e6c79205374616b65486f6c646572732061726520616c6c6f77656420746f206d616b65207061796d656e74736f6e6c79207374616b65486f6c646572732061726520616c6c6f77656420746f2063726561746520612070726f706f73616ca264697066735822122091f2817a3869defb596a0f73baa5f0ec4140ddffa82b4bc8b28cdff253fc5c1e64736f6c63430008110033",
  "linkReferences": {},
  "deployedLinkReferences": {}
}