{
	"contracts/Groups.sol": {
		"Groups": {
			"abi": [
				{
					"inputs": [
						{
							"internalType": "uint256",
							"name": "_tontineId",
							"type": "uint256"
						},
						{
							"internalType": "uint256",
							"name": "_numberOfMembers",
							"type": "uint256"
						}
					],
					"name": "createGroup",
					"outputs": [],
					"stateMutability": "nonpayable",
					"type": "function"
				},
				{
					"inputs": [],
					"name": "getNumberOfGroups",
					"outputs": [
						{
							"internalType": "uint256",
							"name": "",
							"type": "uint256"
						}
					],
					"stateMutability": "view",
					"type": "function"
				},
				{
					"inputs": [
						{
							"internalType": "uint256",
							"name": "_groupId",
							"type": "uint256"
						}
					],
					"name": "showGroup",
					"outputs": [
						{
							"internalType": "uint256",
							"name": "",
							"type": "uint256"
						},
						{
							"internalType": "uint256",
							"name": "",
							"type": "uint256"
						}
					],
					"stateMutability": "view",
					"type": "function"
				}
			],
			"devdoc": {
				"kind": "dev",
				"methods": {},
				"version": 1
			},
			"evm": {
				"assembly": "    /* \"contracts/Groups.sol\":101:930  contract Groups {\r... */\n  mstore(0x40, 0x80)\n    /* \"contracts/Groups.sol\":251:252  0 */\n  0x00\n    /* \"contracts/Groups.sol\":234:252  uint allGroups = 0 */\n  dup1\n  sstore\n    /* \"contracts/Groups.sol\":101:930  contract Groups {\r... */\n  callvalue\n  dup1\n  iszero\n  tag_1\n  jumpi\n  0x00\n  dup1\n  revert\ntag_1:\n  pop\n  dataSize(sub_0)\n  dup1\n  dataOffset(sub_0)\n  0x00\n  codecopy\n  0x00\n  return\nstop\n\nsub_0: assembly {\n        /* \"contracts/Groups.sol\":101:930  contract Groups {\r... */\n      mstore(0x40, 0x80)\n      callvalue\n      dup1\n      iszero\n      tag_1\n      jumpi\n      0x00\n      dup1\n      revert\n    tag_1:\n      pop\n      jumpi(tag_2, lt(calldatasize, 0x04))\n      shr(0xe0, calldataload(0x00))\n      dup1\n      0x980cb3ac\n      eq\n      tag_3\n      jumpi\n      dup1\n      0xb897688b\n      eq\n      tag_4\n      jumpi\n      dup1\n      0xc1fa411a\n      eq\n      tag_5\n      jumpi\n    tag_2:\n      0x00\n      dup1\n      revert\n        /* \"contracts/Groups.sol\":307:600  function createGroup(uint _tontineId, uint _numberOfMembers) public {\r... */\n    tag_3:\n      tag_6\n      0x04\n      dup1\n      calldatasize\n      sub\n      dup2\n      add\n      swap1\n      tag_7\n      swap2\n      swap1\n      tag_8\n      jump\t// in\n    tag_7:\n      tag_9\n      jump\t// in\n    tag_6:\n      stop\n        /* \"contracts/Groups.sol\":608:825  function showGroup(uint _groupId) public view returns (\r... */\n    tag_4:\n      tag_10\n      0x04\n      dup1\n      calldatasize\n      sub\n      dup2\n      add\n      swap1\n      tag_11\n      swap2\n      swap1\n      tag_12\n      jump\t// in\n    tag_11:\n      tag_13\n      jump\t// in\n    tag_10:\n      mload(0x40)\n      tag_14\n      swap3\n      swap2\n      swap1\n      tag_15\n      jump\t// in\n    tag_14:\n      mload(0x40)\n      dup1\n      swap2\n      sub\n      swap1\n      return\n        /* \"contracts/Groups.sol\":833:923  function getNumberOfGroups() public view returns(uint) {\r... */\n    tag_5:\n      tag_16\n      tag_17\n      jump\t// in\n    tag_16:\n      mload(0x40)\n      tag_18\n      swap2\n      swap1\n      tag_19\n      jump\t// in\n    tag_18:\n      mload(0x40)\n      dup1\n      swap2\n      sub\n      swap1\n      return\n        /* \"contracts/Groups.sol\":307:600  function createGroup(uint _tontineId, uint _numberOfMembers) public {\r... */\n    tag_9:\n        /* \"contracts/Groups.sol\":406:504  Group(\r... */\n      mload(0x40)\n      dup1\n      0x60\n      add\n      0x40\n      mstore\n      dup1\n        /* \"contracts/Groups.sol\":436:437  1 */\n      0x01\n        /* \"contracts/Groups.sol\":426:435  allGroups */\n      sload(0x00)\n        /* \"contracts/Groups.sol\":426:437  allGroups+1 */\n      tag_21\n      swap2\n      swap1\n      tag_22\n      jump\t// in\n    tag_21:\n        /* \"contracts/Groups.sol\":406:504  Group(\r... */\n      dup2\n      mstore\n      0x20\n      add\n        /* \"contracts/Groups.sol\":452:462  _tontineId */\n      dup4\n        /* \"contracts/Groups.sol\":406:504  Group(\r... */\n      dup2\n      mstore\n      0x20\n      add\n        /* \"contracts/Groups.sol\":477:493  _numberOfMembers */\n      dup3\n        /* \"contracts/Groups.sol\":406:504  Group(\r... */\n      dup2\n      mstore\n      pop\n        /* \"contracts/Groups.sol\":386:392  groups */\n      0x01\n        /* \"contracts/Groups.sol\":386:403  groups[allGroups] */\n      0x00\n        /* \"contracts/Groups.sol\":393:402  allGroups */\n      dup1\n      sload\n        /* \"contracts/Groups.sol\":386:403  groups[allGroups] */\n      dup2\n      mstore\n      0x20\n      add\n      swap1\n      dup2\n      mstore\n      0x20\n      add\n      0x00\n      keccak256\n        /* \"contracts/Groups.sol\":386:504  groups[allGroups] = Group(\r... */\n      0x00\n      dup3\n      add\n      mload\n      dup2\n      0x00\n      add\n      sstore\n      0x20\n      dup3\n      add\n      mload\n      dup2\n      0x01\n      add\n      sstore\n      0x40\n      dup3\n      add\n      mload\n      dup2\n      0x02\n      add\n      sstore\n      swap1\n      pop\n      pop\n        /* \"contracts/Groups.sol\":517:526  allGroups */\n      0x00\n      dup1\n        /* \"contracts/Groups.sol\":517:528  allGroups++ */\n      dup2\n      sload\n      dup1\n      swap3\n      swap2\n      swap1\n      tag_23\n      swap1\n      tag_24\n      jump\t// in\n    tag_23:\n      swap2\n      swap1\n      pop\n      sstore\n      pop\n        /* \"contracts/Groups.sol\":307:600  function createGroup(uint _tontineId, uint _numberOfMembers) public {\r... */\n      pop\n      pop\n      jump\t// out\n        /* \"contracts/Groups.sol\":608:825  function showGroup(uint _groupId) public view returns (\r... */\n    tag_13:\n        /* \"contracts/Groups.sol\":673:677  uint */\n      0x00\n        /* \"contracts/Groups.sol\":688:692  uint */\n      dup1\n        /* \"contracts/Groups.sol\":733:739  groups */\n      0x01\n        /* \"contracts/Groups.sol\":733:749  groups[_groupId] */\n      0x00\n        /* \"contracts/Groups.sol\":740:748  _groupId */\n      dup5\n        /* \"contracts/Groups.sol\":733:749  groups[_groupId] */\n      dup2\n      mstore\n      0x20\n      add\n      swap1\n      dup2\n      mstore\n      0x20\n      add\n      0x00\n      keccak256\n        /* \"contracts/Groups.sol\":733:759  groups[_groupId].tontineId */\n      0x01\n      add\n      sload\n        /* \"contracts/Groups.sol\":774:780  groups */\n      0x01\n        /* \"contracts/Groups.sol\":774:790  groups[_groupId] */\n      0x00\n        /* \"contracts/Groups.sol\":781:789  _groupId */\n      dup6\n        /* \"contracts/Groups.sol\":774:790  groups[_groupId] */\n      dup2\n      mstore\n      0x20\n      add\n      swap1\n      dup2\n      mstore\n      0x20\n      add\n      0x00\n      keccak256\n        /* \"contracts/Groups.sol\":774:806  groups[_groupId].numberOfMembers */\n      0x02\n      add\n      sload\n        /* \"contracts/Groups.sol\":711:817  return (\r... */\n      swap2\n      pop\n      swap2\n      pop\n        /* \"contracts/Groups.sol\":608:825  function showGroup(uint _groupId) public view returns (\r... */\n      swap2\n      pop\n      swap2\n      jump\t// out\n        /* \"contracts/Groups.sol\":833:923  function getNumberOfGroups() public view returns(uint) {\r... */\n    tag_17:\n        /* \"contracts/Groups.sol\":882:886  uint */\n      0x00\n        /* \"contracts/Groups.sol\":906:915  allGroups */\n      dup1\n      sload\n        /* \"contracts/Groups.sol\":899:915  return allGroups */\n      swap1\n      pop\n        /* \"contracts/Groups.sol\":833:923  function getNumberOfGroups() public view returns(uint) {\r... */\n      swap1\n      jump\t// out\n        /* \"#utility.yul\":7:146   */\n    tag_28:\n        /* \"#utility.yul\":53:58   */\n      0x00\n        /* \"#utility.yul\":91:97   */\n      dup2\n        /* \"#utility.yul\":78:98   */\n      calldataload\n        /* \"#utility.yul\":69:98   */\n      swap1\n      pop\n        /* \"#utility.yul\":107:140   */\n      tag_30\n        /* \"#utility.yul\":134:139   */\n      dup2\n        /* \"#utility.yul\":107:140   */\n      tag_31\n      jump\t// in\n    tag_30:\n        /* \"#utility.yul\":7:146   */\n      swap3\n      swap2\n      pop\n      pop\n      jump\t// out\n        /* \"#utility.yul\":152:481   */\n    tag_12:\n        /* \"#utility.yul\":211:217   */\n      0x00\n        /* \"#utility.yul\":260:262   */\n      0x20\n        /* \"#utility.yul\":248:257   */\n      dup3\n        /* \"#utility.yul\":239:246   */\n      dup5\n        /* \"#utility.yul\":235:258   */\n      sub\n        /* \"#utility.yul\":231:263   */\n      slt\n        /* \"#utility.yul\":228:347   */\n      iszero\n      tag_33\n      jumpi\n        /* \"#utility.yul\":266:345   */\n      tag_34\n      tag_35\n      jump\t// in\n    tag_34:\n        /* \"#utility.yul\":228:347   */\n    tag_33:\n        /* \"#utility.yul\":386:387   */\n      0x00\n        /* \"#utility.yul\":411:464   */\n      tag_36\n        /* \"#utility.yul\":456:463   */\n      dup5\n        /* \"#utility.yul\":447:453   */\n      dup3\n        /* \"#utility.yul\":436:445   */\n      dup6\n        /* \"#utility.yul\":432:454   */\n      add\n        /* \"#utility.yul\":411:464   */\n      tag_28\n      jump\t// in\n    tag_36:\n        /* \"#utility.yul\":401:464   */\n      swap2\n      pop\n        /* \"#utility.yul\":357:474   */\n      pop\n        /* \"#utility.yul\":152:481   */\n      swap3\n      swap2\n      pop\n      pop\n      jump\t// out\n        /* \"#utility.yul\":487:961   */\n    tag_8:\n        /* \"#utility.yul\":555:561   */\n      0x00\n        /* \"#utility.yul\":563:569   */\n      dup1\n        /* \"#utility.yul\":612:614   */\n      0x40\n        /* \"#utility.yul\":600:609   */\n      dup4\n        /* \"#utility.yul\":591:598   */\n      dup6\n        /* \"#utility.yul\":587:610   */\n      sub\n        /* \"#utility.yul\":583:615   */\n      slt\n        /* \"#utility.yul\":580:699   */\n      iszero\n      tag_38\n      jumpi\n        /* \"#utility.yul\":618:697   */\n      tag_39\n      tag_35\n      jump\t// in\n    tag_39:\n        /* \"#utility.yul\":580:699   */\n    tag_38:\n        /* \"#utility.yul\":738:739   */\n      0x00\n        /* \"#utility.yul\":763:816   */\n      tag_40\n        /* \"#utility.yul\":808:815   */\n      dup6\n        /* \"#utility.yul\":799:805   */\n      dup3\n        /* \"#utility.yul\":788:797   */\n      dup7\n        /* \"#utility.yul\":784:806   */\n      add\n        /* \"#utility.yul\":763:816   */\n      tag_28\n      jump\t// in\n    tag_40:\n        /* \"#utility.yul\":753:816   */\n      swap3\n      pop\n        /* \"#utility.yul\":709:826   */\n      pop\n        /* \"#utility.yul\":865:867   */\n      0x20\n        /* \"#utility.yul\":891:944   */\n      tag_41\n        /* \"#utility.yul\":936:943   */\n      dup6\n        /* \"#utility.yul\":927:933   */\n      dup3\n        /* \"#utility.yul\":916:925   */\n      dup7\n        /* \"#utility.yul\":912:934   */\n      add\n        /* \"#utility.yul\":891:944   */\n      tag_28\n      jump\t// in\n    tag_41:\n        /* \"#utility.yul\":881:944   */\n      swap2\n      pop\n        /* \"#utility.yul\":836:954   */\n      pop\n        /* \"#utility.yul\":487:961   */\n      swap3\n      pop\n      swap3\n      swap1\n      pop\n      jump\t// out\n        /* \"#utility.yul\":967:1085   */\n    tag_42:\n        /* \"#utility.yul\":1054:1078   */\n      tag_44\n        /* \"#utility.yul\":1072:1077   */\n      dup2\n        /* \"#utility.yul\":1054:1078   */\n      tag_45\n      jump\t// in\n    tag_44:\n        /* \"#utility.yul\":1049:1052   */\n      dup3\n        /* \"#utility.yul\":1042:1079   */\n      mstore\n        /* \"#utility.yul\":967:1085   */\n      pop\n      pop\n      jump\t// out\n        /* \"#utility.yul\":1091:1313   */\n    tag_19:\n        /* \"#utility.yul\":1184:1188   */\n      0x00\n        /* \"#utility.yul\":1222:1224   */\n      0x20\n        /* \"#utility.yul\":1211:1220   */\n      dup3\n        /* \"#utility.yul\":1207:1225   */\n      add\n        /* \"#utility.yul\":1199:1225   */\n      swap1\n      pop\n        /* \"#utility.yul\":1235:1306   */\n      tag_47\n        /* \"#utility.yul\":1303:1304   */\n      0x00\n        /* \"#utility.yul\":1292:1301   */\n      dup4\n        /* \"#utility.yul\":1288:1305   */\n      add\n        /* \"#utility.yul\":1279:1285   */\n      dup5\n        /* \"#utility.yul\":1235:1306   */\n      tag_42\n      jump\t// in\n    tag_47:\n        /* \"#utility.yul\":1091:1313   */\n      swap3\n      swap2\n      pop\n      pop\n      jump\t// out\n        /* \"#utility.yul\":1319:1651   */\n    tag_15:\n        /* \"#utility.yul\":1440:1444   */\n      0x00\n        /* \"#utility.yul\":1478:1480   */\n      0x40\n        /* \"#utility.yul\":1467:1476   */\n      dup3\n        /* \"#utility.yul\":1463:1481   */\n      add\n        /* \"#utility.yul\":1455:1481   */\n      swap1\n      pop\n        /* \"#utility.yul\":1491:1562   */\n      tag_49\n        /* \"#utility.yul\":1559:1560   */\n      0x00\n        /* \"#utility.yul\":1548:1557   */\n      dup4\n        /* \"#utility.yul\":1544:1561   */\n      add\n        /* \"#utility.yul\":1535:1541   */\n      dup6\n        /* \"#utility.yul\":1491:1562   */\n      tag_42\n      jump\t// in\n    tag_49:\n        /* \"#utility.yul\":1572:1644   */\n      tag_50\n        /* \"#utility.yul\":1640:1642   */\n      0x20\n        /* \"#utility.yul\":1629:1638   */\n      dup4\n        /* \"#utility.yul\":1625:1643   */\n      add\n        /* \"#utility.yul\":1616:1622   */\n      dup5\n        /* \"#utility.yul\":1572:1644   */\n      tag_42\n      jump\t// in\n    tag_50:\n        /* \"#utility.yul\":1319:1651   */\n      swap4\n      swap3\n      pop\n      pop\n      pop\n      jump\t// out\n        /* \"#utility.yul\":1738:2043   */\n    tag_22:\n        /* \"#utility.yul\":1778:1781   */\n      0x00\n        /* \"#utility.yul\":1797:1817   */\n      tag_54\n        /* \"#utility.yul\":1815:1816   */\n      dup3\n        /* \"#utility.yul\":1797:1817   */\n      tag_45\n      jump\t// in\n    tag_54:\n        /* \"#utility.yul\":1792:1817   */\n      swap2\n      pop\n        /* \"#utility.yul\":1831:1851   */\n      tag_55\n        /* \"#utility.yul\":1849:1850   */\n      dup4\n        /* \"#utility.yul\":1831:1851   */\n      tag_45\n      jump\t// in\n    tag_55:\n        /* \"#utility.yul\":1826:1851   */\n      swap3\n      pop\n        /* \"#utility.yul\":1985:1986   */\n      dup3\n        /* \"#utility.yul\":1917:1983   */\n      0xffffffffffffffffffffffffffffffffffffffffffffffffffffffffffffffff\n        /* \"#utility.yul\":1913:1987   */\n      sub\n        /* \"#utility.yul\":1910:1911   */\n      dup3\n        /* \"#utility.yul\":1907:1988   */\n      gt\n        /* \"#utility.yul\":1904:2011   */\n      iszero\n      tag_56\n      jumpi\n        /* \"#utility.yul\":1991:2009   */\n      tag_57\n      tag_58\n      jump\t// in\n    tag_57:\n        /* \"#utility.yul\":1904:2011   */\n    tag_56:\n        /* \"#utility.yul\":2035:2036   */\n      dup3\n        /* \"#utility.yul\":2032:2033   */\n      dup3\n        /* \"#utility.yul\":2028:2037   */\n      add\n        /* \"#utility.yul\":2021:2037   */\n      swap1\n      pop\n        /* \"#utility.yul\":1738:2043   */\n      swap3\n      swap2\n      pop\n      pop\n      jump\t// out\n        /* \"#utility.yul\":2049:2126   */\n    tag_45:\n        /* \"#utility.yul\":2086:2093   */\n      0x00\n        /* \"#utility.yul\":2115:2120   */\n      dup2\n        /* \"#utility.yul\":2104:2120   */\n      swap1\n      pop\n        /* \"#utility.yul\":2049:2126   */\n      swap2\n      swap1\n      pop\n      jump\t// out\n        /* \"#utility.yul\":2132:2365   */\n    tag_24:\n        /* \"#utility.yul\":2171:2174   */\n      0x00\n        /* \"#utility.yul\":2194:2218   */\n      tag_61\n        /* \"#utility.yul\":2212:2217   */\n      dup3\n        /* \"#utility.yul\":2194:2218   */\n      tag_45\n      jump\t// in\n    tag_61:\n        /* \"#utility.yul\":2185:2218   */\n      swap2\n      pop\n        /* \"#utility.yul\":2240:2306   */\n      0xffffffffffffffffffffffffffffffffffffffffffffffffffffffffffffffff\n        /* \"#utility.yul\":2233:2238   */\n      dup3\n        /* \"#utility.yul\":2230:2307   */\n      eq\n        /* \"#utility.yul\":2227:2330   */\n      iszero\n      tag_62\n      jumpi\n        /* \"#utility.yul\":2310:2328   */\n      tag_63\n      tag_58\n      jump\t// in\n    tag_63:\n        /* \"#utility.yul\":2227:2330   */\n    tag_62:\n        /* \"#utility.yul\":2357:2358   */\n      0x01\n        /* \"#utility.yul\":2350:2355   */\n      dup3\n        /* \"#utility.yul\":2346:2359   */\n      add\n        /* \"#utility.yul\":2339:2359   */\n      swap1\n      pop\n        /* \"#utility.yul\":2132:2365   */\n      swap2\n      swap1\n      pop\n      jump\t// out\n        /* \"#utility.yul\":2371:2551   */\n    tag_58:\n        /* \"#utility.yul\":2419:2496   */\n      0x4e487b7100000000000000000000000000000000000000000000000000000000\n        /* \"#utility.yul\":2416:2417   */\n      0x00\n        /* \"#utility.yul\":2409:2497   */\n      mstore\n        /* \"#utility.yul\":2516:2520   */\n      0x11\n        /* \"#utility.yul\":2513:2514   */\n      0x04\n        /* \"#utility.yul\":2506:2521   */\n      mstore\n        /* \"#utility.yul\":2540:2544   */\n      0x24\n        /* \"#utility.yul\":2537:2538   */\n      0x00\n        /* \"#utility.yul\":2530:2545   */\n      revert\n        /* \"#utility.yul\":2680:2797   */\n    tag_35:\n        /* \"#utility.yul\":2789:2790   */\n      0x00\n        /* \"#utility.yul\":2786:2787   */\n      dup1\n        /* \"#utility.yul\":2779:2791   */\n      revert\n        /* \"#utility.yul\":2803:2925   */\n    tag_31:\n        /* \"#utility.yul\":2876:2900   */\n      tag_69\n        /* \"#utility.yul\":2894:2899   */\n      dup2\n        /* \"#utility.yul\":2876:2900   */\n      tag_45\n      jump\t// in\n    tag_69:\n        /* \"#utility.yul\":2869:2874   */\n      dup2\n        /* \"#utility.yul\":2866:2901   */\n      eq\n        /* \"#utility.yul\":2856:2919   */\n      tag_70\n      jumpi\n        /* \"#utility.yul\":2915:2916   */\n      0x00\n        /* \"#utility.yul\":2912:2913   */\n      dup1\n        /* \"#utility.yul\":2905:2917   */\n      revert\n        /* \"#utility.yul\":2856:2919   */\n    tag_70:\n        /* \"#utility.yul\":2803:2925   */\n      pop\n      jump\t// out\n\n    auxdata: 0xa26469706673582212209d4e50361f7723fd14bc8ab67cc959ffe3f4b68bcfbb1b5d5c035a98cc26924664736f6c63430008070033\n}\n",
				"bytecode": {
					"linkReferences": {},
					"object": "60806040526000805534801561001457600080fd5b5061036c806100246000396000f3fe608060405234801561001057600080fd5b50600436106100415760003560e01c8063980cb3ac14610046578063b897688b14610062578063c1fa411a14610093575b600080fd5b610060600480360381019061005b91906101af565b6100b1565b005b61007c60048036038101906100779190610182565b61012a565b60405161008a929190610219565b60405180910390f35b61009b610164565b6040516100a891906101fe565b60405180910390f35b604051806060016040528060016000546100cb9190610242565b8152602001838152602001828152506001600080548152602001908152602001600020600082015181600001556020820151816001015560408201518160020155905050600080815480929190610121906102a2565b91905055505050565b6000806001600084815260200190815260200160002060010154600160008581526020019081526020016000206002015491509150915091565b60008054905090565b60008135905061017c8161031f565b92915050565b6000602082840312156101985761019761031a565b5b60006101a68482850161016d565b91505092915050565b600080604083850312156101c6576101c561031a565b5b60006101d48582860161016d565b92505060206101e58582860161016d565b9150509250929050565b6101f881610298565b82525050565b600060208201905061021360008301846101ef565b92915050565b600060408201905061022e60008301856101ef565b61023b60208301846101ef565b9392505050565b600061024d82610298565b915061025883610298565b9250827fffffffffffffffffffffffffffffffffffffffffffffffffffffffffffffffff0382111561028d5761028c6102eb565b5b828201905092915050565b6000819050919050565b60006102ad82610298565b91507fffffffffffffffffffffffffffffffffffffffffffffffffffffffffffffffff8214156102e0576102df6102eb565b5b600182019050919050565b7f4e487b7100000000000000000000000000000000000000000000000000000000600052601160045260246000fd5b600080fd5b61032881610298565b811461033357600080fd5b5056fea26469706673582212209d4e50361f7723fd14bc8ab67cc959ffe3f4b68bcfbb1b5d5c035a98cc26924664736f6c63430008070033",
					"opcodes": "PUSH1 0x80 PUSH1 0x40 MSTORE PUSH1 0x0 DUP1 SSTORE CALLVALUE DUP1 ISZERO PUSH2 0x14 JUMPI PUSH1 0x0 DUP1 REVERT JUMPDEST POP PUSH2 0x36C DUP1 PUSH2 0x24 PUSH1 0x0 CODECOPY PUSH1 0x0 RETURN INVALID PUSH1 0x80 PUSH1 0x40 MSTORE CALLVALUE DUP1 ISZERO PUSH2 0x10 JUMPI PUSH1 0x0 DUP1 REVERT JUMPDEST POP PUSH1 0x4 CALLDATASIZE LT PUSH2 0x41 JUMPI PUSH1 0x0 CALLDATALOAD PUSH1 0xE0 SHR DUP1 PUSH4 0x980CB3AC EQ PUSH2 0x46 JUMPI DUP1 PUSH4 0xB897688B EQ PUSH2 0x62 JUMPI DUP1 PUSH4 0xC1FA411A EQ PUSH2 0x93 JUMPI JUMPDEST PUSH1 0x0 DUP1 REVERT JUMPDEST PUSH2 0x60 PUSH1 0x4 DUP1 CALLDATASIZE SUB DUP2 ADD SWAP1 PUSH2 0x5B SWAP2 SWAP1 PUSH2 0x1AF JUMP JUMPDEST PUSH2 0xB1 JUMP JUMPDEST STOP JUMPDEST PUSH2 0x7C PUSH1 0x4 DUP1 CALLDATASIZE SUB DUP2 ADD SWAP1 PUSH2 0x77 SWAP2 SWAP1 PUSH2 0x182 JUMP JUMPDEST PUSH2 0x12A JUMP JUMPDEST PUSH1 0x40 MLOAD PUSH2 0x8A SWAP3 SWAP2 SWAP1 PUSH2 0x219 JUMP JUMPDEST PUSH1 0x40 MLOAD DUP1 SWAP2 SUB SWAP1 RETURN JUMPDEST PUSH2 0x9B PUSH2 0x164 JUMP JUMPDEST PUSH1 0x40 MLOAD PUSH2 0xA8 SWAP2 SWAP1 PUSH2 0x1FE JUMP JUMPDEST PUSH1 0x40 MLOAD DUP1 SWAP2 SUB SWAP1 RETURN JUMPDEST PUSH1 0x40 MLOAD DUP1 PUSH1 0x60 ADD PUSH1 0x40 MSTORE DUP1 PUSH1 0x1 PUSH1 0x0 SLOAD PUSH2 0xCB SWAP2 SWAP1 PUSH2 0x242 JUMP JUMPDEST DUP2 MSTORE PUSH1 0x20 ADD DUP4 DUP2 MSTORE PUSH1 0x20 ADD DUP3 DUP2 MSTORE POP PUSH1 0x1 PUSH1 0x0 DUP1 SLOAD DUP2 MSTORE PUSH1 0x20 ADD SWAP1 DUP2 MSTORE PUSH1 0x20 ADD PUSH1 0x0 KECCAK256 PUSH1 0x0 DUP3 ADD MLOAD DUP2 PUSH1 0x0 ADD SSTORE PUSH1 0x20 DUP3 ADD MLOAD DUP2 PUSH1 0x1 ADD SSTORE PUSH1 0x40 DUP3 ADD MLOAD DUP2 PUSH1 0x2 ADD SSTORE SWAP1 POP POP PUSH1 0x0 DUP1 DUP2 SLOAD DUP1 SWAP3 SWAP2 SWAP1 PUSH2 0x121 SWAP1 PUSH2 0x2A2 JUMP JUMPDEST SWAP2 SWAP1 POP SSTORE POP POP POP JUMP JUMPDEST PUSH1 0x0 DUP1 PUSH1 0x1 PUSH1 0x0 DUP5 DUP2 MSTORE PUSH1 0x20 ADD SWAP1 DUP2 MSTORE PUSH1 0x20 ADD PUSH1 0x0 KECCAK256 PUSH1 0x1 ADD SLOAD PUSH1 0x1 PUSH1 0x0 DUP6 DUP2 MSTORE PUSH1 0x20 ADD SWAP1 DUP2 MSTORE PUSH1 0x20 ADD PUSH1 0x0 KECCAK256 PUSH1 0x2 ADD SLOAD SWAP2 POP SWAP2 POP SWAP2 POP SWAP2 JUMP JUMPDEST PUSH1 0x0 DUP1 SLOAD SWAP1 POP SWAP1 JUMP JUMPDEST PUSH1 0x0 DUP2 CALLDATALOAD SWAP1 POP PUSH2 0x17C DUP2 PUSH2 0x31F JUMP JUMPDEST SWAP3 SWAP2 POP POP JUMP JUMPDEST PUSH1 0x0 PUSH1 0x20 DUP3 DUP5 SUB SLT ISZERO PUSH2 0x198 JUMPI PUSH2 0x197 PUSH2 0x31A JUMP JUMPDEST JUMPDEST PUSH1 0x0 PUSH2 0x1A6 DUP5 DUP3 DUP6 ADD PUSH2 0x16D JUMP JUMPDEST SWAP2 POP POP SWAP3 SWAP2 POP POP JUMP JUMPDEST PUSH1 0x0 DUP1 PUSH1 0x40 DUP4 DUP6 SUB SLT ISZERO PUSH2 0x1C6 JUMPI PUSH2 0x1C5 PUSH2 0x31A JUMP JUMPDEST JUMPDEST PUSH1 0x0 PUSH2 0x1D4 DUP6 DUP3 DUP7 ADD PUSH2 0x16D JUMP JUMPDEST SWAP3 POP POP PUSH1 0x20 PUSH2 0x1E5 DUP6 DUP3 DUP7 ADD PUSH2 0x16D JUMP JUMPDEST SWAP2 POP POP SWAP3 POP SWAP3 SWAP1 POP JUMP JUMPDEST PUSH2 0x1F8 DUP2 PUSH2 0x298 JUMP JUMPDEST DUP3 MSTORE POP POP JUMP JUMPDEST PUSH1 0x0 PUSH1 0x20 DUP3 ADD SWAP1 POP PUSH2 0x213 PUSH1 0x0 DUP4 ADD DUP5 PUSH2 0x1EF JUMP JUMPDEST SWAP3 SWAP2 POP POP JUMP JUMPDEST PUSH1 0x0 PUSH1 0x40 DUP3 ADD SWAP1 POP PUSH2 0x22E PUSH1 0x0 DUP4 ADD DUP6 PUSH2 0x1EF JUMP JUMPDEST PUSH2 0x23B PUSH1 0x20 DUP4 ADD DUP5 PUSH2 0x1EF JUMP JUMPDEST SWAP4 SWAP3 POP POP POP JUMP JUMPDEST PUSH1 0x0 PUSH2 0x24D DUP3 PUSH2 0x298 JUMP JUMPDEST SWAP2 POP PUSH2 0x258 DUP4 PUSH2 0x298 JUMP JUMPDEST SWAP3 POP DUP3 PUSH32 0xFFFFFFFFFFFFFFFFFFFFFFFFFFFFFFFFFFFFFFFFFFFFFFFFFFFFFFFFFFFFFFFF SUB DUP3 GT ISZERO PUSH2 0x28D JUMPI PUSH2 0x28C PUSH2 0x2EB JUMP JUMPDEST JUMPDEST DUP3 DUP3 ADD SWAP1 POP SWAP3 SWAP2 POP POP JUMP JUMPDEST PUSH1 0x0 DUP2 SWAP1 POP SWAP2 SWAP1 POP JUMP JUMPDEST PUSH1 0x0 PUSH2 0x2AD DUP3 PUSH2 0x298 JUMP JUMPDEST SWAP2 POP PUSH32 0xFFFFFFFFFFFFFFFFFFFFFFFFFFFFFFFFFFFFFFFFFFFFFFFFFFFFFFFFFFFFFFFF DUP3 EQ ISZERO PUSH2 0x2E0 JUMPI PUSH2 0x2DF PUSH2 0x2EB JUMP JUMPDEST JUMPDEST PUSH1 0x1 DUP3 ADD SWAP1 POP SWAP2 SWAP1 POP JUMP JUMPDEST PUSH32 0x4E487B7100000000000000000000000000000000000000000000000000000000 PUSH1 0x0 MSTORE PUSH1 0x11 PUSH1 0x4 MSTORE PUSH1 0x24 PUSH1 0x0 REVERT JUMPDEST PUSH1 0x0 DUP1 REVERT JUMPDEST PUSH2 0x328 DUP2 PUSH2 0x298 JUMP JUMPDEST DUP2 EQ PUSH2 0x333 JUMPI PUSH1 0x0 DUP1 REVERT JUMPDEST POP JUMP INVALID LOG2 PUSH5 0x6970667358 0x22 SLT KECCAK256 SWAP14 0x4E POP CALLDATASIZE 0x1F PUSH24 0x23FD14BC8AB67CC959FFE3F4B68BCFBB1B5D5C035A98CC26 SWAP3 CHAINID PUSH5 0x736F6C6343 STOP ADDMOD SMOD STOP CALLER "
				},
				"gasEstimates": {
					"creation": {
						"codeDepositCost": "175200",
						"executionCost": "5226",
						"totalCost": "180426"
					},
					"external": {
						"createGroup(uint256,uint256)": "infinite",
						"getNumberOfGroups()": "2459",
						"showGroup(uint256)": "infinite"
					}
				},
				"methodIdentifiers": {
					"createGroup(uint256,uint256)": "980cb3ac",
					"getNumberOfGroups()": "c1fa411a",
					"showGroup(uint256)": "b897688b"
				}
			},
			"storageLayout": {
				"storage": [
					{
						"astId": 12,
						"contract": "contracts/Groups.sol:Groups",
						"label": "allGroups",
						"offset": 0,
						"slot": "0",
						"type": "t_uint256"
					},
					{
						"astId": 17,
						"contract": "contracts/Groups.sol:Groups",
						"label": "groups",
						"offset": 0,
						"slot": "1",
						"type": "t_mapping(t_uint256,t_struct(Group)9_storage)"
					}
				],
				"types": {
					"t_mapping(t_uint256,t_struct(Group)9_storage)": {
						"encoding": "mapping",
						"key": "t_uint256",
						"label": "mapping(uint256 => struct Groups.Group)",
						"numberOfBytes": "32",
						"value": "t_struct(Group)9_storage"
					},
					"t_struct(Group)9_storage": {
						"encoding": "inplace",
						"label": "struct Groups.Group",
						"members": [
							{
								"astId": 4,
								"contract": "contracts/Groups.sol:Groups",
								"label": "groupId",
								"offset": 0,
								"slot": "0",
								"type": "t_uint256"
							},
							{
								"astId": 6,
								"contract": "contracts/Groups.sol:Groups",
								"label": "tontineId",
								"offset": 0,
								"slot": "1",
								"type": "t_uint256"
							},
							{
								"astId": 8,
								"contract": "contracts/Groups.sol:Groups",
								"label": "numberOfMembers",
								"offset": 0,
								"slot": "2",
								"type": "t_uint256"
							}
						],
						"numberOfBytes": "96"
					},
					"t_uint256": {
						"encoding": "inplace",
						"label": "uint256",
						"numberOfBytes": "32"
					}
				}
			},
			"userdoc": {
				"kind": "user",
				"methods": {},
				"version": 1
			}
		}
	}
}