{
	"contracts/Tontines.sol": {
		"Tontines": {
			"abi": [
				{
					"inputs": [
						{
							"internalType": "string",
							"name": "_name",
							"type": "string"
						},
						{
							"internalType": "uint256",
							"name": "_amount",
							"type": "uint256"
						},
						{
							"internalType": "uint256",
							"name": "_beneficyingTimeInterval",
							"type": "uint256"
						}
					],
					"name": "createTontine",
					"outputs": [],
					"stateMutability": "nonpayable",
					"type": "function"
				},
				{
					"inputs": [],
					"name": "getNumberOfTontines",
					"outputs": [
						{
							"internalType": "uint256",
							"name": "",
							"type": "uint256"
						}
					],
					"stateMutability": "view",
					"type": "function"
				},
				{
					"inputs": [
						{
							"internalType": "uint256",
							"name": "_tontineId",
							"type": "uint256"
						}
					],
					"name": "showTontine",
					"outputs": [
						{
							"internalType": "address payable",
							"name": "",
							"type": "address"
						},
						{
							"internalType": "string",
							"name": "",
							"type": "string"
						},
						{
							"internalType": "uint256",
							"name": "",
							"type": "uint256"
						},
						{
							"internalType": "uint256",
							"name": "",
							"type": "uint256"
						}
					],
					"stateMutability": "view",
					"type": "function"
				}
			],
			"devdoc": {
				"kind": "dev",
				"methods": {},
				"version": 1
			},
			"evm": {
				"assembly": "    /* \"contracts/Tontines.sol\":152:1382  contract Tontines {\r... */\n  mstore(0x40, 0x80)\n    /* \"contracts/Tontines.sol\":426:427  0 */\n  0x00\n    /* \"contracts/Tontines.sol\":402:427  uint numberOfTontines = 0 */\n  0x01\n  sstore\n    /* \"contracts/Tontines.sol\":152:1382  contract Tontines {\r... */\n  callvalue\n  dup1\n  iszero\n  tag_1\n  jumpi\n  0x00\n  dup1\n  revert\ntag_1:\n  pop\n  dataSize(sub_0)\n  dup1\n  dataOffset(sub_0)\n  0x00\n  codecopy\n  0x00\n  return\nstop\n\nsub_0: assembly {\n        /* \"contracts/Tontines.sol\":152:1382  contract Tontines {\r... */\n      mstore(0x40, 0x80)\n      callvalue\n      dup1\n      iszero\n      tag_1\n      jumpi\n      0x00\n      dup1\n      revert\n    tag_1:\n      pop\n      jumpi(tag_2, lt(calldatasize, 0x04))\n      shr(0xe0, calldataload(0x00))\n      dup1\n      0x53d21d45\n      eq\n      tag_3\n      jumpi\n      dup1\n      0x8c7bf6d4\n      eq\n      tag_4\n      jumpi\n      dup1\n      0xc3a70959\n      eq\n      tag_5\n      jumpi\n    tag_2:\n      0x00\n      dup1\n      revert\n        /* \"contracts/Tontines.sol\":436:886  function createTontine(string memory _name, uint _amount, uint _beneficyingTimeInterval) public {\r... */\n    tag_3:\n      tag_6\n      0x04\n      dup1\n      calldatasize\n      sub\n      dup2\n      add\n      swap1\n      tag_7\n      swap2\n      swap1\n      tag_8\n      jump\t// in\n    tag_7:\n      tag_9\n      jump\t// in\n    tag_6:\n      stop\n        /* \"contracts/Tontines.sol\":1277:1377  function getNumberOfTontines() public view returns (uint) {\r... */\n    tag_4:\n      tag_10\n      tag_11\n      jump\t// in\n    tag_10:\n      mload(0x40)\n      tag_12\n      swap2\n      swap1\n      tag_13\n      jump\t// in\n    tag_12:\n      mload(0x40)\n      dup1\n      swap2\n      sub\n      swap1\n      return\n        /* \"contracts/Tontines.sol\":894:1269  function showTontine(uint _tontineId) public view returns(\r... */\n    tag_5:\n      tag_14\n      0x04\n      dup1\n      calldatasize\n      sub\n      dup2\n      add\n      swap1\n      tag_15\n      swap2\n      swap1\n      tag_16\n      jump\t// in\n    tag_15:\n      tag_17\n      jump\t// in\n    tag_14:\n      mload(0x40)\n      tag_18\n      swap5\n      swap4\n      swap3\n      swap2\n      swap1\n      tag_19\n      jump\t// in\n    tag_18:\n      mload(0x40)\n      dup1\n      swap2\n      sub\n      swap1\n      return\n        /* \"contracts/Tontines.sol\":436:886  function createTontine(string memory _name, uint _amount, uint _beneficyingTimeInterval) public {\r... */\n    tag_9:\n        /* \"contracts/Tontines.sol\":574:741  Tontine (\r... */\n      mload(0x40)\n      dup1\n      0xa0\n      add\n      0x40\n      mstore\n      dup1\n        /* \"contracts/Tontines.sol\":605:615  msg.sender */\n      caller\n        /* \"contracts/Tontines.sol\":574:741  Tontine (\r... */\n      0xffffffffffffffffffffffffffffffffffffffff\n      and\n      dup2\n      mstore\n      0x20\n      add\n        /* \"contracts/Tontines.sol\":648:649  1 */\n      0x01\n        /* \"contracts/Tontines.sol\":631:647  numberOfTontines */\n      dup1\n      sload\n        /* \"contracts/Tontines.sol\":631:649  numberOfTontines+1 */\n      tag_21\n      swap2\n      swap1\n      tag_22\n      jump\t// in\n    tag_21:\n        /* \"contracts/Tontines.sol\":574:741  Tontine (\r... */\n      dup2\n      mstore\n      0x20\n      add\n        /* \"contracts/Tontines.sol\":664:669  _name */\n      dup5\n        /* \"contracts/Tontines.sol\":574:741  Tontine (\r... */\n      dup2\n      mstore\n      0x20\n      add\n        /* \"contracts/Tontines.sol\":684:691  _amount */\n      dup4\n        /* \"contracts/Tontines.sol\":574:741  Tontine (\r... */\n      dup2\n      mstore\n      0x20\n      add\n        /* \"contracts/Tontines.sol\":706:730  _beneficyingTimeInterval */\n      dup3\n        /* \"contracts/Tontines.sol\":574:741  Tontine (\r... */\n      dup2\n      mstore\n      pop\n        /* \"contracts/Tontines.sol\":545:553  tontines */\n      0x00\n        /* \"contracts/Tontines.sol\":545:571  tontines[numberOfTontines] */\n      dup1\n        /* \"contracts/Tontines.sol\":554:570  numberOfTontines */\n      sload(0x01)\n        /* \"contracts/Tontines.sol\":545:571  tontines[numberOfTontines] */\n      dup2\n      mstore\n      0x20\n      add\n      swap1\n      dup2\n      mstore\n      0x20\n      add\n      0x00\n      keccak256\n        /* \"contracts/Tontines.sol\":545:741  tontines[numberOfTontines] = Tontine (\r... */\n      0x00\n      dup3\n      add\n      mload\n      dup2\n      0x00\n      add\n      exp(0x0100, 0x00)\n      dup2\n      sload\n      dup2\n      0xffffffffffffffffffffffffffffffffffffffff\n      mul\n      not\n      and\n      swap1\n      dup4\n      0xffffffffffffffffffffffffffffffffffffffff\n      and\n      mul\n      or\n      swap1\n      sstore\n      pop\n      0x20\n      dup3\n      add\n      mload\n      dup2\n      0x01\n      add\n      sstore\n      0x40\n      dup3\n      add\n      mload\n      dup2\n      0x02\n      add\n      swap1\n      dup1\n      mload\n      swap1\n      0x20\n      add\n      swap1\n      tag_23\n      swap3\n      swap2\n      swap1\n      tag_24\n      jump\t// in\n    tag_23:\n      pop\n      0x60\n      dup3\n      add\n      mload\n      dup2\n      0x03\n      add\n      sstore\n      0x80\n      dup3\n      add\n      mload\n      dup2\n      0x04\n      add\n      sstore\n      swap1\n      pop\n      pop\n        /* \"contracts/Tontines.sol\":752:768  numberOfTontines */\n      0x01\n      0x00\n        /* \"contracts/Tontines.sol\":752:770  numberOfTontines++ */\n      dup2\n      sload\n      dup1\n      swap3\n      swap2\n      swap1\n      tag_25\n      swap1\n      tag_26\n      jump\t// in\n    tag_25:\n      swap2\n      swap1\n      pop\n      sstore\n      pop\n        /* \"contracts/Tontines.sol\":436:886  function createTontine(string memory _name, uint _amount, uint _beneficyingTimeInterval) public {\r... */\n      pop\n      pop\n      pop\n      jump\t// out\n        /* \"contracts/Tontines.sol\":1277:1377  function getNumberOfTontines() public view returns (uint) {\r... */\n    tag_11:\n        /* \"contracts/Tontines.sol\":1329:1333  uint */\n      0x00\n        /* \"contracts/Tontines.sol\":1353:1369  numberOfTontines */\n      sload(0x01)\n        /* \"contracts/Tontines.sol\":1346:1369  return numberOfTontines */\n      swap1\n      pop\n        /* \"contracts/Tontines.sol\":1277:1377  function getNumberOfTontines() public view returns (uint) {\r... */\n      swap1\n      jump\t// out\n        /* \"contracts/Tontines.sol\":894:1269  function showTontine(uint _tontineId) public view returns(\r... */\n    tag_17:\n        /* \"contracts/Tontines.sol\":962:977  address payable */\n      0x00\n        /* \"contracts/Tontines.sol\":988:1001  string memory */\n      0x60\n        /* \"contracts/Tontines.sol\":1012:1016  uint */\n      0x00\n        /* \"contracts/Tontines.sol\":1027:1031  uint */\n      dup1\n        /* \"contracts/Tontines.sol\":1081:1089  tontines */\n      0x00\n        /* \"contracts/Tontines.sol\":1081:1101  tontines[_tontineId] */\n      dup1\n        /* \"contracts/Tontines.sol\":1090:1100  _tontineId */\n      dup7\n        /* \"contracts/Tontines.sol\":1081:1101  tontines[_tontineId] */\n      dup2\n      mstore\n      0x20\n      add\n      swap1\n      dup2\n      mstore\n      0x20\n      add\n      0x00\n      keccak256\n        /* \"contracts/Tontines.sol\":1081:1107  tontines[_tontineId].owner */\n      0x00\n      add\n      0x00\n      swap1\n      sload\n      swap1\n      0x0100\n      exp\n      swap1\n      div\n      0xffffffffffffffffffffffffffffffffffffffff\n      and\n        /* \"contracts/Tontines.sol\":1122:1130  tontines */\n      0x00\n        /* \"contracts/Tontines.sol\":1122:1142  tontines[_tontineId] */\n      dup1\n        /* \"contracts/Tontines.sol\":1131:1141  _tontineId */\n      dup8\n        /* \"contracts/Tontines.sol\":1122:1142  tontines[_tontineId] */\n      dup2\n      mstore\n      0x20\n      add\n      swap1\n      dup2\n      mstore\n      0x20\n      add\n      0x00\n      keccak256\n        /* \"contracts/Tontines.sol\":1122:1147  tontines[_tontineId].name */\n      0x02\n      add\n        /* \"contracts/Tontines.sol\":1162:1170  tontines */\n      0x00\n        /* \"contracts/Tontines.sol\":1162:1182  tontines[_tontineId] */\n      dup1\n        /* \"contracts/Tontines.sol\":1171:1181  _tontineId */\n      dup9\n        /* \"contracts/Tontines.sol\":1162:1182  tontines[_tontineId] */\n      dup2\n      mstore\n      0x20\n      add\n      swap1\n      dup2\n      mstore\n      0x20\n      add\n      0x00\n      keccak256\n        /* \"contracts/Tontines.sol\":1162:1189  tontines[_tontineId].amount */\n      0x03\n      add\n      sload\n        /* \"contracts/Tontines.sol\":1204:1212  tontines */\n      0x00\n        /* \"contracts/Tontines.sol\":1204:1224  tontines[_tontineId] */\n      dup1\n        /* \"contracts/Tontines.sol\":1213:1223  _tontineId */\n      dup10\n        /* \"contracts/Tontines.sol\":1204:1224  tontines[_tontineId] */\n      dup2\n      mstore\n      0x20\n      add\n      swap1\n      dup2\n      mstore\n      0x20\n      add\n      0x00\n      keccak256\n        /* \"contracts/Tontines.sol\":1204:1248  tontines[_tontineId].beneficyingTimeInterval */\n      0x04\n      add\n      sload\n        /* \"contracts/Tontines.sol\":1059:1259  return (\r... */\n      dup3\n      dup1\n      sload\n      tag_29\n      swap1\n      tag_30\n      jump\t// in\n    tag_29:\n      dup1\n      0x1f\n      add\n      0x20\n      dup1\n      swap2\n      div\n      mul\n      0x20\n      add\n      mload(0x40)\n      swap1\n      dup2\n      add\n      0x40\n      mstore\n      dup1\n      swap3\n      swap2\n      swap1\n      dup2\n      dup2\n      mstore\n      0x20\n      add\n      dup3\n      dup1\n      sload\n      tag_31\n      swap1\n      tag_30\n      jump\t// in\n    tag_31:\n      dup1\n      iszero\n      tag_32\n      jumpi\n      dup1\n      0x1f\n      lt\n      tag_33\n      jumpi\n      0x0100\n      dup1\n      dup4\n      sload\n      div\n      mul\n      dup4\n      mstore\n      swap2\n      0x20\n      add\n      swap2\n      jump(tag_32)\n    tag_33:\n      dup3\n      add\n      swap2\n      swap1\n      0x00\n      mstore\n      keccak256(0x00, 0x20)\n      swap1\n    tag_34:\n      dup2\n      sload\n      dup2\n      mstore\n      swap1\n      0x01\n      add\n      swap1\n      0x20\n      add\n      dup1\n      dup4\n      gt\n      tag_34\n      jumpi\n      dup3\n      swap1\n      sub\n      0x1f\n      and\n      dup3\n      add\n      swap2\n    tag_32:\n      pop\n      pop\n      pop\n      pop\n      pop\n      swap3\n      pop\n      swap4\n      pop\n      swap4\n      pop\n      swap4\n      pop\n      swap4\n      pop\n        /* \"contracts/Tontines.sol\":894:1269  function showTontine(uint _tontineId) public view returns(\r... */\n      swap2\n      swap4\n      pop\n      swap2\n      swap4\n      jump\t// out\n    tag_24:\n      dup3\n      dup1\n      sload\n      tag_35\n      swap1\n      tag_30\n      jump\t// in\n    tag_35:\n      swap1\n      0x00\n      mstore\n      keccak256(0x00, 0x20)\n      swap1\n      0x1f\n      add\n      0x20\n      swap1\n      div\n      dup2\n      add\n      swap3\n      dup3\n      tag_37\n      jumpi\n      0x00\n      dup6\n      sstore\n      jump(tag_36)\n    tag_37:\n      dup3\n      0x1f\n      lt\n      tag_38\n      jumpi\n      dup1\n      mload\n      not(0xff)\n      and\n      dup4\n      dup1\n      add\n      or\n      dup6\n      sstore\n      jump(tag_36)\n    tag_38:\n      dup3\n      dup1\n      add\n      0x01\n      add\n      dup6\n      sstore\n      dup3\n      iszero\n      tag_36\n      jumpi\n      swap2\n      dup3\n      add\n    tag_39:\n      dup3\n      dup2\n      gt\n      iszero\n      tag_40\n      jumpi\n      dup3\n      mload\n      dup3\n      sstore\n      swap2\n      0x20\n      add\n      swap2\n      swap1\n      0x01\n      add\n      swap1\n      jump(tag_39)\n    tag_40:\n    tag_36:\n      pop\n      swap1\n      pop\n      tag_41\n      swap2\n      swap1\n      tag_42\n      jump\t// in\n    tag_41:\n      pop\n      swap1\n      jump\t// out\n    tag_42:\n    tag_43:\n      dup1\n      dup3\n      gt\n      iszero\n      tag_44\n      jumpi\n      0x00\n      dup2\n      0x00\n      swap1\n      sstore\n      pop\n      0x01\n      add\n      jump(tag_43)\n    tag_44:\n      pop\n      swap1\n      jump\t// out\n        /* \"#utility.yul\":7:419   */\n    tag_46:\n        /* \"#utility.yul\":85:90   */\n      0x00\n        /* \"#utility.yul\":110:176   */\n      tag_48\n        /* \"#utility.yul\":126:175   */\n      tag_49\n        /* \"#utility.yul\":168:174   */\n      dup5\n        /* \"#utility.yul\":126:175   */\n      tag_50\n      jump\t// in\n    tag_49:\n        /* \"#utility.yul\":110:176   */\n      tag_51\n      jump\t// in\n    tag_48:\n        /* \"#utility.yul\":101:176   */\n      swap1\n      pop\n        /* \"#utility.yul\":199:205   */\n      dup3\n        /* \"#utility.yul\":192:197   */\n      dup2\n        /* \"#utility.yul\":185:206   */\n      mstore\n        /* \"#utility.yul\":237:241   */\n      0x20\n        /* \"#utility.yul\":230:235   */\n      dup2\n        /* \"#utility.yul\":226:242   */\n      add\n        /* \"#utility.yul\":275:278   */\n      dup5\n        /* \"#utility.yul\":266:272   */\n      dup5\n        /* \"#utility.yul\":261:264   */\n      dup5\n        /* \"#utility.yul\":257:273   */\n      add\n        /* \"#utility.yul\":254:279   */\n      gt\n        /* \"#utility.yul\":251:363   */\n      iszero\n      tag_52\n      jumpi\n        /* \"#utility.yul\":282:361   */\n      tag_53\n      tag_54\n      jump\t// in\n    tag_53:\n        /* \"#utility.yul\":251:363   */\n    tag_52:\n        /* \"#utility.yul\":372:413   */\n      tag_55\n        /* \"#utility.yul\":406:412   */\n      dup5\n        /* \"#utility.yul\":401:404   */\n      dup3\n        /* \"#utility.yul\":396:399   */\n      dup6\n        /* \"#utility.yul\":372:413   */\n      tag_56\n      jump\t// in\n    tag_55:\n        /* \"#utility.yul\":91:419   */\n      pop\n        /* \"#utility.yul\":7:419   */\n      swap4\n      swap3\n      pop\n      pop\n      pop\n      jump\t// out\n        /* \"#utility.yul\":439:779   */\n    tag_57:\n        /* \"#utility.yul\":495:500   */\n      0x00\n        /* \"#utility.yul\":544:547   */\n      dup3\n        /* \"#utility.yul\":537:541   */\n      0x1f\n        /* \"#utility.yul\":529:535   */\n      dup4\n        /* \"#utility.yul\":525:542   */\n      add\n        /* \"#utility.yul\":521:548   */\n      slt\n        /* \"#utility.yul\":511:633   */\n      tag_59\n      jumpi\n        /* \"#utility.yul\":552:631   */\n      tag_60\n      tag_61\n      jump\t// in\n    tag_60:\n        /* \"#utility.yul\":511:633   */\n    tag_59:\n        /* \"#utility.yul\":669:675   */\n      dup2\n        /* \"#utility.yul\":656:676   */\n      calldataload\n        /* \"#utility.yul\":694:773   */\n      tag_62\n        /* \"#utility.yul\":769:772   */\n      dup5\n        /* \"#utility.yul\":761:767   */\n      dup3\n        /* \"#utility.yul\":754:758   */\n      0x20\n        /* \"#utility.yul\":746:752   */\n      dup7\n        /* \"#utility.yul\":742:759   */\n      add\n        /* \"#utility.yul\":694:773   */\n      tag_46\n      jump\t// in\n    tag_62:\n        /* \"#utility.yul\":685:773   */\n      swap2\n      pop\n        /* \"#utility.yul\":501:779   */\n      pop\n        /* \"#utility.yul\":439:779   */\n      swap3\n      swap2\n      pop\n      pop\n      jump\t// out\n        /* \"#utility.yul\":785:924   */\n    tag_63:\n        /* \"#utility.yul\":831:836   */\n      0x00\n        /* \"#utility.yul\":869:875   */\n      dup2\n        /* \"#utility.yul\":856:876   */\n      calldataload\n        /* \"#utility.yul\":847:876   */\n      swap1\n      pop\n        /* \"#utility.yul\":885:918   */\n      tag_65\n        /* \"#utility.yul\":912:917   */\n      dup2\n        /* \"#utility.yul\":885:918   */\n      tag_66\n      jump\t// in\n    tag_65:\n        /* \"#utility.yul\":785:924   */\n      swap3\n      swap2\n      pop\n      pop\n      jump\t// out\n        /* \"#utility.yul\":930:1729   */\n    tag_8:\n        /* \"#utility.yul\":1017:1023   */\n      0x00\n        /* \"#utility.yul\":1025:1031   */\n      dup1\n        /* \"#utility.yul\":1033:1039   */\n      0x00\n        /* \"#utility.yul\":1082:1084   */\n      0x60\n        /* \"#utility.yul\":1070:1079   */\n      dup5\n        /* \"#utility.yul\":1061:1068   */\n      dup7\n        /* \"#utility.yul\":1057:1080   */\n      sub\n        /* \"#utility.yul\":1053:1085   */\n      slt\n        /* \"#utility.yul\":1050:1169   */\n      iszero\n      tag_68\n      jumpi\n        /* \"#utility.yul\":1088:1167   */\n      tag_69\n      tag_70\n      jump\t// in\n    tag_69:\n        /* \"#utility.yul\":1050:1169   */\n    tag_68:\n        /* \"#utility.yul\":1236:1237   */\n      0x00\n        /* \"#utility.yul\":1225:1234   */\n      dup5\n        /* \"#utility.yul\":1221:1238   */\n      add\n        /* \"#utility.yul\":1208:1239   */\n      calldataload\n        /* \"#utility.yul\":1266:1284   */\n      0xffffffffffffffff\n        /* \"#utility.yul\":1258:1264   */\n      dup2\n        /* \"#utility.yul\":1255:1285   */\n      gt\n        /* \"#utility.yul\":1252:1369   */\n      iszero\n      tag_71\n      jumpi\n        /* \"#utility.yul\":1288:1367   */\n      tag_72\n      tag_73\n      jump\t// in\n    tag_72:\n        /* \"#utility.yul\":1252:1369   */\n    tag_71:\n        /* \"#utility.yul\":1393:1456   */\n      tag_74\n        /* \"#utility.yul\":1448:1455   */\n      dup7\n        /* \"#utility.yul\":1439:1445   */\n      dup3\n        /* \"#utility.yul\":1428:1437   */\n      dup8\n        /* \"#utility.yul\":1424:1446   */\n      add\n        /* \"#utility.yul\":1393:1456   */\n      tag_57\n      jump\t// in\n    tag_74:\n        /* \"#utility.yul\":1383:1456   */\n      swap4\n      pop\n        /* \"#utility.yul\":1179:1466   */\n      pop\n        /* \"#utility.yul\":1505:1507   */\n      0x20\n        /* \"#utility.yul\":1531:1584   */\n      tag_75\n        /* \"#utility.yul\":1576:1583   */\n      dup7\n        /* \"#utility.yul\":1567:1573   */\n      dup3\n        /* \"#utility.yul\":1556:1565   */\n      dup8\n        /* \"#utility.yul\":1552:1574   */\n      add\n        /* \"#utility.yul\":1531:1584   */\n      tag_63\n      jump\t// in\n    tag_75:\n        /* \"#utility.yul\":1521:1584   */\n      swap3\n      pop\n        /* \"#utility.yul\":1476:1594   */\n      pop\n        /* \"#utility.yul\":1633:1635   */\n      0x40\n        /* \"#utility.yul\":1659:1712   */\n      tag_76\n        /* \"#utility.yul\":1704:1711   */\n      dup7\n        /* \"#utility.yul\":1695:1701   */\n      dup3\n        /* \"#utility.yul\":1684:1693   */\n      dup8\n        /* \"#utility.yul\":1680:1702   */\n      add\n        /* \"#utility.yul\":1659:1712   */\n      tag_63\n      jump\t// in\n    tag_76:\n        /* \"#utility.yul\":1649:1712   */\n      swap2\n      pop\n        /* \"#utility.yul\":1604:1722   */\n      pop\n        /* \"#utility.yul\":930:1729   */\n      swap3\n      pop\n      swap3\n      pop\n      swap3\n      jump\t// out\n        /* \"#utility.yul\":1735:2064   */\n    tag_16:\n        /* \"#utility.yul\":1794:1800   */\n      0x00\n        /* \"#utility.yul\":1843:1845   */\n      0x20\n        /* \"#utility.yul\":1831:1840   */\n      dup3\n        /* \"#utility.yul\":1822:1829   */\n      dup5\n        /* \"#utility.yul\":1818:1841   */\n      sub\n        /* \"#utility.yul\":1814:1846   */\n      slt\n        /* \"#utility.yul\":1811:1930   */\n      iszero\n      tag_78\n      jumpi\n        /* \"#utility.yul\":1849:1928   */\n      tag_79\n      tag_70\n      jump\t// in\n    tag_79:\n        /* \"#utility.yul\":1811:1930   */\n    tag_78:\n        /* \"#utility.yul\":1969:1970   */\n      0x00\n        /* \"#utility.yul\":1994:2047   */\n      tag_80\n        /* \"#utility.yul\":2039:2046   */\n      dup5\n        /* \"#utility.yul\":2030:2036   */\n      dup3\n        /* \"#utility.yul\":2019:2028   */\n      dup6\n        /* \"#utility.yul\":2015:2037   */\n      add\n        /* \"#utility.yul\":1994:2047   */\n      tag_63\n      jump\t// in\n    tag_80:\n        /* \"#utility.yul\":1984:2047   */\n      swap2\n      pop\n        /* \"#utility.yul\":1940:2057   */\n      pop\n        /* \"#utility.yul\":1735:2064   */\n      swap3\n      swap2\n      pop\n      pop\n      jump\t// out\n        /* \"#utility.yul\":2070:2212   */\n    tag_81:\n        /* \"#utility.yul\":2173:2205   */\n      tag_83\n        /* \"#utility.yul\":2199:2204   */\n      dup2\n        /* \"#utility.yul\":2173:2205   */\n      tag_84\n      jump\t// in\n    tag_83:\n        /* \"#utility.yul\":2168:2171   */\n      dup3\n        /* \"#utility.yul\":2161:2206   */\n      mstore\n        /* \"#utility.yul\":2070:2212   */\n      pop\n      pop\n      jump\t// out\n        /* \"#utility.yul\":2218:2582   */\n    tag_85:\n        /* \"#utility.yul\":2306:2309   */\n      0x00\n        /* \"#utility.yul\":2334:2373   */\n      tag_87\n        /* \"#utility.yul\":2367:2372   */\n      dup3\n        /* \"#utility.yul\":2334:2373   */\n      tag_88\n      jump\t// in\n    tag_87:\n        /* \"#utility.yul\":2389:2460   */\n      tag_89\n        /* \"#utility.yul\":2453:2459   */\n      dup2\n        /* \"#utility.yul\":2448:2451   */\n      dup6\n        /* \"#utility.yul\":2389:2460   */\n      tag_90\n      jump\t// in\n    tag_89:\n        /* \"#utility.yul\":2382:2460   */\n      swap4\n      pop\n        /* \"#utility.yul\":2469:2521   */\n      tag_91\n        /* \"#utility.yul\":2514:2520   */\n      dup2\n        /* \"#utility.yul\":2509:2512   */\n      dup6\n        /* \"#utility.yul\":2502:2506   */\n      0x20\n        /* \"#utility.yul\":2495:2500   */\n      dup7\n        /* \"#utility.yul\":2491:2507   */\n      add\n        /* \"#utility.yul\":2469:2521   */\n      tag_92\n      jump\t// in\n    tag_91:\n        /* \"#utility.yul\":2546:2575   */\n      tag_93\n        /* \"#utility.yul\":2568:2574   */\n      dup2\n        /* \"#utility.yul\":2546:2575   */\n      tag_94\n      jump\t// in\n    tag_93:\n        /* \"#utility.yul\":2541:2544   */\n      dup5\n        /* \"#utility.yul\":2537:2576   */\n      add\n        /* \"#utility.yul\":2530:2576   */\n      swap2\n      pop\n        /* \"#utility.yul\":2310:2582   */\n      pop\n        /* \"#utility.yul\":2218:2582   */\n      swap3\n      swap2\n      pop\n      pop\n      jump\t// out\n        /* \"#utility.yul\":2588:2706   */\n    tag_95:\n        /* \"#utility.yul\":2675:2699   */\n      tag_97\n        /* \"#utility.yul\":2693:2698   */\n      dup2\n        /* \"#utility.yul\":2675:2699   */\n      tag_98\n      jump\t// in\n    tag_97:\n        /* \"#utility.yul\":2670:2673   */\n      dup3\n        /* \"#utility.yul\":2663:2700   */\n      mstore\n        /* \"#utility.yul\":2588:2706   */\n      pop\n      pop\n      jump\t// out\n        /* \"#utility.yul\":2712:3388   */\n    tag_19:\n        /* \"#utility.yul\":2925:2929   */\n      0x00\n        /* \"#utility.yul\":2963:2966   */\n      0x80\n        /* \"#utility.yul\":2952:2961   */\n      dup3\n        /* \"#utility.yul\":2948:2967   */\n      add\n        /* \"#utility.yul\":2940:2967   */\n      swap1\n      pop\n        /* \"#utility.yul\":2977:3064   */\n      tag_100\n        /* \"#utility.yul\":3061:3062   */\n      0x00\n        /* \"#utility.yul\":3050:3059   */\n      dup4\n        /* \"#utility.yul\":3046:3063   */\n      add\n        /* \"#utility.yul\":3037:3043   */\n      dup8\n        /* \"#utility.yul\":2977:3064   */\n      tag_81\n      jump\t// in\n    tag_100:\n        /* \"#utility.yul\":3111:3120   */\n      dup2\n        /* \"#utility.yul\":3105:3109   */\n      dup2\n        /* \"#utility.yul\":3101:3121   */\n      sub\n        /* \"#utility.yul\":3096:3098   */\n      0x20\n        /* \"#utility.yul\":3085:3094   */\n      dup4\n        /* \"#utility.yul\":3081:3099   */\n      add\n        /* \"#utility.yul\":3074:3122   */\n      mstore\n        /* \"#utility.yul\":3139:3217   */\n      tag_101\n        /* \"#utility.yul\":3212:3216   */\n      dup2\n        /* \"#utility.yul\":3203:3209   */\n      dup7\n        /* \"#utility.yul\":3139:3217   */\n      tag_85\n      jump\t// in\n    tag_101:\n        /* \"#utility.yul\":3131:3217   */\n      swap1\n      pop\n        /* \"#utility.yul\":3227:3299   */\n      tag_102\n        /* \"#utility.yul\":3295:3297   */\n      0x40\n        /* \"#utility.yul\":3284:3293   */\n      dup4\n        /* \"#utility.yul\":3280:3298   */\n      add\n        /* \"#utility.yul\":3271:3277   */\n      dup6\n        /* \"#utility.yul\":3227:3299   */\n      tag_95\n      jump\t// in\n    tag_102:\n        /* \"#utility.yul\":3309:3381   */\n      tag_103\n        /* \"#utility.yul\":3377:3379   */\n      0x60\n        /* \"#utility.yul\":3366:3375   */\n      dup4\n        /* \"#utility.yul\":3362:3380   */\n      add\n        /* \"#utility.yul\":3353:3359   */\n      dup5\n        /* \"#utility.yul\":3309:3381   */\n      tag_95\n      jump\t// in\n    tag_103:\n        /* \"#utility.yul\":2712:3388   */\n      swap6\n      swap5\n      pop\n      pop\n      pop\n      pop\n      pop\n      jump\t// out\n        /* \"#utility.yul\":3394:3616   */\n    tag_13:\n        /* \"#utility.yul\":3487:3491   */\n      0x00\n        /* \"#utility.yul\":3525:3527   */\n      0x20\n        /* \"#utility.yul\":3514:3523   */\n      dup3\n        /* \"#utility.yul\":3510:3528   */\n      add\n        /* \"#utility.yul\":3502:3528   */\n      swap1\n      pop\n        /* \"#utility.yul\":3538:3609   */\n      tag_105\n        /* \"#utility.yul\":3606:3607   */\n      0x00\n        /* \"#utility.yul\":3595:3604   */\n      dup4\n        /* \"#utility.yul\":3591:3608   */\n      add\n        /* \"#utility.yul\":3582:3588   */\n      dup5\n        /* \"#utility.yul\":3538:3609   */\n      tag_95\n      jump\t// in\n    tag_105:\n        /* \"#utility.yul\":3394:3616   */\n      swap3\n      swap2\n      pop\n      pop\n      jump\t// out\n        /* \"#utility.yul\":3622:3751   */\n    tag_51:\n        /* \"#utility.yul\":3656:3662   */\n      0x00\n        /* \"#utility.yul\":3683:3703   */\n      tag_107\n      tag_108\n      jump\t// in\n    tag_107:\n        /* \"#utility.yul\":3673:3703   */\n      swap1\n      pop\n        /* \"#utility.yul\":3712:3745   */\n      tag_109\n        /* \"#utility.yul\":3740:3744   */\n      dup3\n        /* \"#utility.yul\":3732:3738   */\n      dup3\n        /* \"#utility.yul\":3712:3745   */\n      tag_110\n      jump\t// in\n    tag_109:\n        /* \"#utility.yul\":3622:3751   */\n      swap2\n      swap1\n      pop\n      jump\t// out\n        /* \"#utility.yul\":3757:3832   */\n    tag_108:\n        /* \"#utility.yul\":3790:3796   */\n      0x00\n        /* \"#utility.yul\":3823:3825   */\n      0x40\n        /* \"#utility.yul\":3817:3826   */\n      mload\n        /* \"#utility.yul\":3807:3826   */\n      swap1\n      pop\n        /* \"#utility.yul\":3757:3832   */\n      swap1\n      jump\t// out\n        /* \"#utility.yul\":3838:4146   */\n    tag_50:\n        /* \"#utility.yul\":3900:3904   */\n      0x00\n        /* \"#utility.yul\":3990:4008   */\n      0xffffffffffffffff\n        /* \"#utility.yul\":3982:3988   */\n      dup3\n        /* \"#utility.yul\":3979:4009   */\n      gt\n        /* \"#utility.yul\":3976:4032   */\n      iszero\n      tag_113\n      jumpi\n        /* \"#utility.yul\":4012:4030   */\n      tag_114\n      tag_115\n      jump\t// in\n    tag_114:\n        /* \"#utility.yul\":3976:4032   */\n    tag_113:\n        /* \"#utility.yul\":4050:4079   */\n      tag_116\n        /* \"#utility.yul\":4072:4078   */\n      dup3\n        /* \"#utility.yul\":4050:4079   */\n      tag_94\n      jump\t// in\n    tag_116:\n        /* \"#utility.yul\":4042:4079   */\n      swap1\n      pop\n        /* \"#utility.yul\":4134:4138   */\n      0x20\n        /* \"#utility.yul\":4128:4132   */\n      dup2\n        /* \"#utility.yul\":4124:4139   */\n      add\n        /* \"#utility.yul\":4116:4139   */\n      swap1\n      pop\n        /* \"#utility.yul\":3838:4146   */\n      swap2\n      swap1\n      pop\n      jump\t// out\n        /* \"#utility.yul\":4152:4251   */\n    tag_88:\n        /* \"#utility.yul\":4204:4210   */\n      0x00\n        /* \"#utility.yul\":4238:4243   */\n      dup2\n        /* \"#utility.yul\":4232:4244   */\n      mload\n        /* \"#utility.yul\":4222:4244   */\n      swap1\n      pop\n        /* \"#utility.yul\":4152:4251   */\n      swap2\n      swap1\n      pop\n      jump\t// out\n        /* \"#utility.yul\":4257:4426   */\n    tag_90:\n        /* \"#utility.yul\":4341:4352   */\n      0x00\n        /* \"#utility.yul\":4375:4381   */\n      dup3\n        /* \"#utility.yul\":4370:4373   */\n      dup3\n        /* \"#utility.yul\":4363:4382   */\n      mstore\n        /* \"#utility.yul\":4415:4419   */\n      0x20\n        /* \"#utility.yul\":4410:4413   */\n      dup3\n        /* \"#utility.yul\":4406:4420   */\n      add\n        /* \"#utility.yul\":4391:4420   */\n      swap1\n      pop\n        /* \"#utility.yul\":4257:4426   */\n      swap3\n      swap2\n      pop\n      pop\n      jump\t// out\n        /* \"#utility.yul\":4432:4737   */\n    tag_22:\n        /* \"#utility.yul\":4472:4475   */\n      0x00\n        /* \"#utility.yul\":4491:4511   */\n      tag_120\n        /* \"#utility.yul\":4509:4510   */\n      dup3\n        /* \"#utility.yul\":4491:4511   */\n      tag_98\n      jump\t// in\n    tag_120:\n        /* \"#utility.yul\":4486:4511   */\n      swap2\n      pop\n        /* \"#utility.yul\":4525:4545   */\n      tag_121\n        /* \"#utility.yul\":4543:4544   */\n      dup4\n        /* \"#utility.yul\":4525:4545   */\n      tag_98\n      jump\t// in\n    tag_121:\n        /* \"#utility.yul\":4520:4545   */\n      swap3\n      pop\n        /* \"#utility.yul\":4679:4680   */\n      dup3\n        /* \"#utility.yul\":4611:4677   */\n      0xffffffffffffffffffffffffffffffffffffffffffffffffffffffffffffffff\n        /* \"#utility.yul\":4607:4681   */\n      sub\n        /* \"#utility.yul\":4604:4605   */\n      dup3\n        /* \"#utility.yul\":4601:4682   */\n      gt\n        /* \"#utility.yul\":4598:4705   */\n      iszero\n      tag_122\n      jumpi\n        /* \"#utility.yul\":4685:4703   */\n      tag_123\n      tag_124\n      jump\t// in\n    tag_123:\n        /* \"#utility.yul\":4598:4705   */\n    tag_122:\n        /* \"#utility.yul\":4729:4730   */\n      dup3\n        /* \"#utility.yul\":4726:4727   */\n      dup3\n        /* \"#utility.yul\":4722:4731   */\n      add\n        /* \"#utility.yul\":4715:4731   */\n      swap1\n      pop\n        /* \"#utility.yul\":4432:4737   */\n      swap3\n      swap2\n      pop\n      pop\n      jump\t// out\n        /* \"#utility.yul\":4743:4847   */\n    tag_84:\n        /* \"#utility.yul\":4788:4795   */\n      0x00\n        /* \"#utility.yul\":4817:4841   */\n      tag_126\n        /* \"#utility.yul\":4835:4840   */\n      dup3\n        /* \"#utility.yul\":4817:4841   */\n      tag_127\n      jump\t// in\n    tag_126:\n        /* \"#utility.yul\":4806:4841   */\n      swap1\n      pop\n        /* \"#utility.yul\":4743:4847   */\n      swap2\n      swap1\n      pop\n      jump\t// out\n        /* \"#utility.yul\":4853:4979   */\n    tag_127:\n        /* \"#utility.yul\":4890:4897   */\n      0x00\n        /* \"#utility.yul\":4930:4972   */\n      0xffffffffffffffffffffffffffffffffffffffff\n        /* \"#utility.yul\":4923:4928   */\n      dup3\n        /* \"#utility.yul\":4919:4973   */\n      and\n        /* \"#utility.yul\":4908:4973   */\n      swap1\n      pop\n        /* \"#utility.yul\":4853:4979   */\n      swap2\n      swap1\n      pop\n      jump\t// out\n        /* \"#utility.yul\":4985:5062   */\n    tag_98:\n        /* \"#utility.yul\":5022:5029   */\n      0x00\n        /* \"#utility.yul\":5051:5056   */\n      dup2\n        /* \"#utility.yul\":5040:5056   */\n      swap1\n      pop\n        /* \"#utility.yul\":4985:5062   */\n      swap2\n      swap1\n      pop\n      jump\t// out\n        /* \"#utility.yul\":5068:5222   */\n    tag_56:\n        /* \"#utility.yul\":5152:5158   */\n      dup3\n        /* \"#utility.yul\":5147:5150   */\n      dup2\n        /* \"#utility.yul\":5142:5145   */\n      dup4\n        /* \"#utility.yul\":5129:5159   */\n      calldatacopy\n        /* \"#utility.yul\":5214:5215   */\n      0x00\n        /* \"#utility.yul\":5205:5211   */\n      dup4\n        /* \"#utility.yul\":5200:5203   */\n      dup4\n        /* \"#utility.yul\":5196:5212   */\n      add\n        /* \"#utility.yul\":5189:5216   */\n      mstore\n        /* \"#utility.yul\":5068:5222   */\n      pop\n      pop\n      pop\n      jump\t// out\n        /* \"#utility.yul\":5228:5535   */\n    tag_92:\n        /* \"#utility.yul\":5296:5297   */\n      0x00\n        /* \"#utility.yul\":5306:5419   */\n    tag_132:\n        /* \"#utility.yul\":5320:5326   */\n      dup4\n        /* \"#utility.yul\":5317:5318   */\n      dup2\n        /* \"#utility.yul\":5314:5327   */\n      lt\n        /* \"#utility.yul\":5306:5419   */\n      iszero\n      tag_134\n      jumpi\n        /* \"#utility.yul\":5405:5406   */\n      dup1\n        /* \"#utility.yul\":5400:5403   */\n      dup3\n        /* \"#utility.yul\":5396:5407   */\n      add\n        /* \"#utility.yul\":5390:5408   */\n      mload\n        /* \"#utility.yul\":5386:5387   */\n      dup2\n        /* \"#utility.yul\":5381:5384   */\n      dup5\n        /* \"#utility.yul\":5377:5388   */\n      add\n        /* \"#utility.yul\":5370:5409   */\n      mstore\n        /* \"#utility.yul\":5342:5344   */\n      0x20\n        /* \"#utility.yul\":5339:5340   */\n      dup2\n        /* \"#utility.yul\":5335:5345   */\n      add\n        /* \"#utility.yul\":5330:5345   */\n      swap1\n      pop\n        /* \"#utility.yul\":5306:5419   */\n      jump(tag_132)\n    tag_134:\n        /* \"#utility.yul\":5437:5443   */\n      dup4\n        /* \"#utility.yul\":5434:5435   */\n      dup2\n        /* \"#utility.yul\":5431:5444   */\n      gt\n        /* \"#utility.yul\":5428:5529   */\n      iszero\n      tag_135\n      jumpi\n        /* \"#utility.yul\":5517:5518   */\n      0x00\n        /* \"#utility.yul\":5508:5514   */\n      dup5\n        /* \"#utility.yul\":5503:5506   */\n      dup5\n        /* \"#utility.yul\":5499:5515   */\n      add\n        /* \"#utility.yul\":5492:5519   */\n      mstore\n        /* \"#utility.yul\":5428:5529   */\n    tag_135:\n        /* \"#utility.yul\":5277:5535   */\n      pop\n        /* \"#utility.yul\":5228:5535   */\n      pop\n      pop\n      pop\n      jump\t// out\n        /* \"#utility.yul\":5541:5861   */\n    tag_30:\n        /* \"#utility.yul\":5585:5591   */\n      0x00\n        /* \"#utility.yul\":5622:5623   */\n      0x02\n        /* \"#utility.yul\":5616:5620   */\n      dup3\n        /* \"#utility.yul\":5612:5624   */\n      div\n        /* \"#utility.yul\":5602:5624   */\n      swap1\n      pop\n        /* \"#utility.yul\":5669:5670   */\n      0x01\n        /* \"#utility.yul\":5663:5667   */\n      dup3\n        /* \"#utility.yul\":5659:5671   */\n      and\n        /* \"#utility.yul\":5690:5708   */\n      dup1\n        /* \"#utility.yul\":5680:5761   */\n      tag_137\n      jumpi\n        /* \"#utility.yul\":5746:5750   */\n      0x7f\n        /* \"#utility.yul\":5738:5744   */\n      dup3\n        /* \"#utility.yul\":5734:5751   */\n      and\n        /* \"#utility.yul\":5724:5751   */\n      swap2\n      pop\n        /* \"#utility.yul\":5680:5761   */\n    tag_137:\n        /* \"#utility.yul\":5808:5810   */\n      0x20\n        /* \"#utility.yul\":5800:5806   */\n      dup3\n        /* \"#utility.yul\":5797:5811   */\n      lt\n        /* \"#utility.yul\":5777:5795   */\n      dup2\n        /* \"#utility.yul\":5774:5812   */\n      eq\n        /* \"#utility.yul\":5771:5855   */\n      iszero\n      tag_138\n      jumpi\n        /* \"#utility.yul\":5827:5845   */\n      tag_139\n      tag_140\n      jump\t// in\n    tag_139:\n        /* \"#utility.yul\":5771:5855   */\n    tag_138:\n        /* \"#utility.yul\":5592:5861   */\n      pop\n        /* \"#utility.yul\":5541:5861   */\n      swap2\n      swap1\n      pop\n      jump\t// out\n        /* \"#utility.yul\":5867:6148   */\n    tag_110:\n        /* \"#utility.yul\":5950:5977   */\n      tag_142\n        /* \"#utility.yul\":5972:5976   */\n      dup3\n        /* \"#utility.yul\":5950:5977   */\n      tag_94\n      jump\t// in\n    tag_142:\n        /* \"#utility.yul\":5942:5948   */\n      dup2\n        /* \"#utility.yul\":5938:5978   */\n      add\n        /* \"#utility.yul\":6080:6086   */\n      dup2\n        /* \"#utility.yul\":6068:6078   */\n      dup2\n        /* \"#utility.yul\":6065:6087   */\n      lt\n        /* \"#utility.yul\":6044:6062   */\n      0xffffffffffffffff\n        /* \"#utility.yul\":6032:6042   */\n      dup3\n        /* \"#utility.yul\":6029:6063   */\n      gt\n        /* \"#utility.yul\":6026:6088   */\n      or\n        /* \"#utility.yul\":6023:6111   */\n      iszero\n      tag_143\n      jumpi\n        /* \"#utility.yul\":6091:6109   */\n      tag_144\n      tag_115\n      jump\t// in\n    tag_144:\n        /* \"#utility.yul\":6023:6111   */\n    tag_143:\n        /* \"#utility.yul\":6131:6141   */\n      dup1\n        /* \"#utility.yul\":6127:6129   */\n      0x40\n        /* \"#utility.yul\":6120:6142   */\n      mstore\n        /* \"#utility.yul\":5910:6148   */\n      pop\n        /* \"#utility.yul\":5867:6148   */\n      pop\n      pop\n      jump\t// out\n        /* \"#utility.yul\":6154:6387   */\n    tag_26:\n        /* \"#utility.yul\":6193:6196   */\n      0x00\n        /* \"#utility.yul\":6216:6240   */\n      tag_146\n        /* \"#utility.yul\":6234:6239   */\n      dup3\n        /* \"#utility.yul\":6216:6240   */\n      tag_98\n      jump\t// in\n    tag_146:\n        /* \"#utility.yul\":6207:6240   */\n      swap2\n      pop\n        /* \"#utility.yul\":6262:6328   */\n      0xffffffffffffffffffffffffffffffffffffffffffffffffffffffffffffffff\n        /* \"#utility.yul\":6255:6260   */\n      dup3\n        /* \"#utility.yul\":6252:6329   */\n      eq\n        /* \"#utility.yul\":6249:6352   */\n      iszero\n      tag_147\n      jumpi\n        /* \"#utility.yul\":6332:6350   */\n      tag_148\n      tag_124\n      jump\t// in\n    tag_148:\n        /* \"#utility.yul\":6249:6352   */\n    tag_147:\n        /* \"#utility.yul\":6379:6380   */\n      0x01\n        /* \"#utility.yul\":6372:6377   */\n      dup3\n        /* \"#utility.yul\":6368:6381   */\n      add\n        /* \"#utility.yul\":6361:6381   */\n      swap1\n      pop\n        /* \"#utility.yul\":6154:6387   */\n      swap2\n      swap1\n      pop\n      jump\t// out\n        /* \"#utility.yul\":6393:6573   */\n    tag_124:\n        /* \"#utility.yul\":6441:6518   */\n      0x4e487b7100000000000000000000000000000000000000000000000000000000\n        /* \"#utility.yul\":6438:6439   */\n      0x00\n        /* \"#utility.yul\":6431:6519   */\n      mstore\n        /* \"#utility.yul\":6538:6542   */\n      0x11\n        /* \"#utility.yul\":6535:6536   */\n      0x04\n        /* \"#utility.yul\":6528:6543   */\n      mstore\n        /* \"#utility.yul\":6562:6566   */\n      0x24\n        /* \"#utility.yul\":6559:6560   */\n      0x00\n        /* \"#utility.yul\":6552:6567   */\n      revert\n        /* \"#utility.yul\":6579:6759   */\n    tag_140:\n        /* \"#utility.yul\":6627:6704   */\n      0x4e487b7100000000000000000000000000000000000000000000000000000000\n        /* \"#utility.yul\":6624:6625   */\n      0x00\n        /* \"#utility.yul\":6617:6705   */\n      mstore\n        /* \"#utility.yul\":6724:6728   */\n      0x22\n        /* \"#utility.yul\":6721:6722   */\n      0x04\n        /* \"#utility.yul\":6714:6729   */\n      mstore\n        /* \"#utility.yul\":6748:6752   */\n      0x24\n        /* \"#utility.yul\":6745:6746   */\n      0x00\n        /* \"#utility.yul\":6738:6753   */\n      revert\n        /* \"#utility.yul\":6765:6945   */\n    tag_115:\n        /* \"#utility.yul\":6813:6890   */\n      0x4e487b7100000000000000000000000000000000000000000000000000000000\n        /* \"#utility.yul\":6810:6811   */\n      0x00\n        /* \"#utility.yul\":6803:6891   */\n      mstore\n        /* \"#utility.yul\":6910:6914   */\n      0x41\n        /* \"#utility.yul\":6907:6908   */\n      0x04\n        /* \"#utility.yul\":6900:6915   */\n      mstore\n        /* \"#utility.yul\":6934:6938   */\n      0x24\n        /* \"#utility.yul\":6931:6932   */\n      0x00\n        /* \"#utility.yul\":6924:6939   */\n      revert\n        /* \"#utility.yul\":6951:7068   */\n    tag_61:\n        /* \"#utility.yul\":7060:7061   */\n      0x00\n        /* \"#utility.yul\":7057:7058   */\n      dup1\n        /* \"#utility.yul\":7050:7062   */\n      revert\n        /* \"#utility.yul\":7074:7191   */\n    tag_54:\n        /* \"#utility.yul\":7183:7184   */\n      0x00\n        /* \"#utility.yul\":7180:7181   */\n      dup1\n        /* \"#utility.yul\":7173:7185   */\n      revert\n        /* \"#utility.yul\":7197:7314   */\n    tag_73:\n        /* \"#utility.yul\":7306:7307   */\n      0x00\n        /* \"#utility.yul\":7303:7304   */\n      dup1\n        /* \"#utility.yul\":7296:7308   */\n      revert\n        /* \"#utility.yul\":7320:7437   */\n    tag_70:\n        /* \"#utility.yul\":7429:7430   */\n      0x00\n        /* \"#utility.yul\":7426:7427   */\n      dup1\n        /* \"#utility.yul\":7419:7431   */\n      revert\n        /* \"#utility.yul\":7443:7545   */\n    tag_94:\n        /* \"#utility.yul\":7484:7490   */\n      0x00\n        /* \"#utility.yul\":7535:7537   */\n      0x1f\n        /* \"#utility.yul\":7531:7538   */\n      not\n        /* \"#utility.yul\":7526:7528   */\n      0x1f\n        /* \"#utility.yul\":7519:7524   */\n      dup4\n        /* \"#utility.yul\":7515:7529   */\n      add\n        /* \"#utility.yul\":7511:7539   */\n      and\n        /* \"#utility.yul\":7501:7539   */\n      swap1\n      pop\n        /* \"#utility.yul\":7443:7545   */\n      swap2\n      swap1\n      pop\n      jump\t// out\n        /* \"#utility.yul\":7551:7673   */\n    tag_66:\n        /* \"#utility.yul\":7624:7648   */\n      tag_158\n        /* \"#utility.yul\":7642:7647   */\n      dup2\n        /* \"#utility.yul\":7624:7648   */\n      tag_98\n      jump\t// in\n    tag_158:\n        /* \"#utility.yul\":7617:7622   */\n      dup2\n        /* \"#utility.yul\":7614:7649   */\n      eq\n        /* \"#utility.yul\":7604:7667   */\n      tag_159\n      jumpi\n        /* \"#utility.yul\":7663:7664   */\n      0x00\n        /* \"#utility.yul\":7660:7661   */\n      dup1\n        /* \"#utility.yul\":7653:7665   */\n      revert\n        /* \"#utility.yul\":7604:7667   */\n    tag_159:\n        /* \"#utility.yul\":7551:7673   */\n      pop\n      jump\t// out\n\n    auxdata: 0xa2646970667358221220d33e2db8aea1dda44e4c268b34ed9e4a0a257fe1d9dd20f726923fb27558721464736f6c63430008070033\n}\n",
				"bytecode": {
					"linkReferences": {},
					"object": "6080604052600060015534801561001557600080fd5b50610849806100256000396000f3fe608060405234801561001057600080fd5b50600436106100415760003560e01c806353d21d45146100465780638c7bf6d414610062578063c3a7095914610080575b600080fd5b610060600480360381019061005b91906103fe565b6100b3565b005b61006a6101b3565b604051610077919061053d565b60405180910390f35b61009a6004803603810190610095919061046d565b6101bd565b6040516100aa94939291906104f1565b60405180910390f35b6040518060a001604052803373ffffffffffffffffffffffffffffffffffffffff168152602001600180546100e891906105ca565b815260200184815260200183815260200182815250600080600154815260200190815260200160002060008201518160000160006101000a81548173ffffffffffffffffffffffffffffffffffffffff021916908373ffffffffffffffffffffffffffffffffffffffff16021790555060208201518160010155604082015181600201908051906020019061017e9291906102d6565b506060820151816003015560808201518160040155905050600160008154809291906101a990610701565b9190505550505050565b6000600154905090565b6000606060008060008086815260200190815260200160002060000160009054906101000a900473ffffffffffffffffffffffffffffffffffffffff1660008087815260200190815260200160002060020160008088815260200190815260200160002060030154600080898152602001908152602001600020600401548280546102479061069e565b80601f01602080910402602001604051908101604052809291908181526020018280546102739061069e565b80156102c05780601f10610295576101008083540402835291602001916102c0565b820191906000526020600020905b8154815290600101906020018083116102a357829003601f168201915b5050505050925093509350935093509193509193565b8280546102e29061069e565b90600052602060002090601f016020900481019282610304576000855561034b565b82601f1061031d57805160ff191683800117855561034b565b8280016001018555821561034b579182015b8281111561034a57825182559160200191906001019061032f565b5b509050610358919061035c565b5090565b5b8082111561037557600081600090555060010161035d565b5090565b600061038c6103878461057d565b610558565b9050828152602081018484840111156103a8576103a76107dc565b5b6103b384828561065c565b509392505050565b600082601f8301126103d0576103cf6107d7565b5b81356103e0848260208601610379565b91505092915050565b6000813590506103f8816107fc565b92915050565b600080600060608486031215610417576104166107e6565b5b600084013567ffffffffffffffff811115610435576104346107e1565b5b610441868287016103bb565b9350506020610452868287016103e9565b9250506040610463868287016103e9565b9150509250925092565b600060208284031215610483576104826107e6565b5b6000610491848285016103e9565b91505092915050565b6104a381610620565b82525050565b60006104b4826105ae565b6104be81856105b9565b93506104ce81856020860161066b565b6104d7816107eb565b840191505092915050565b6104eb81610652565b82525050565b6000608082019050610506600083018761049a565b818103602083015261051881866104a9565b905061052760408301856104e2565b61053460608301846104e2565b95945050505050565b600060208201905061055260008301846104e2565b92915050565b6000610562610573565b905061056e82826106d0565b919050565b6000604051905090565b600067ffffffffffffffff821115610598576105976107a8565b5b6105a1826107eb565b9050602081019050919050565b600081519050919050565b600082825260208201905092915050565b60006105d582610652565b91506105e083610652565b9250827fffffffffffffffffffffffffffffffffffffffffffffffffffffffffffffffff038211156106155761061461074a565b5b828201905092915050565b600061062b82610632565b9050919050565b600073ffffffffffffffffffffffffffffffffffffffff82169050919050565b6000819050919050565b82818337600083830152505050565b60005b8381101561068957808201518184015260208101905061066e565b83811115610698576000848401525b50505050565b600060028204905060018216806106b657607f821691505b602082108114156106ca576106c9610779565b5b50919050565b6106d9826107eb565b810181811067ffffffffffffffff821117156106f8576106f76107a8565b5b80604052505050565b600061070c82610652565b91507fffffffffffffffffffffffffffffffffffffffffffffffffffffffffffffffff82141561073f5761073e61074a565b5b600182019050919050565b7f4e487b7100000000000000000000000000000000000000000000000000000000600052601160045260246000fd5b7f4e487b7100000000000000000000000000000000000000000000000000000000600052602260045260246000fd5b7f4e487b7100000000000000000000000000000000000000000000000000000000600052604160045260246000fd5b600080fd5b600080fd5b600080fd5b600080fd5b6000601f19601f8301169050919050565b61080581610652565b811461081057600080fd5b5056fea2646970667358221220d33e2db8aea1dda44e4c268b34ed9e4a0a257fe1d9dd20f726923fb27558721464736f6c63430008070033",
					"opcodes": "PUSH1 0x80 PUSH1 0x40 MSTORE PUSH1 0x0 PUSH1 0x1 SSTORE CALLVALUE DUP1 ISZERO PUSH2 0x15 JUMPI PUSH1 0x0 DUP1 REVERT JUMPDEST POP PUSH2 0x849 DUP1 PUSH2 0x25 PUSH1 0x0 CODECOPY PUSH1 0x0 RETURN INVALID PUSH1 0x80 PUSH1 0x40 MSTORE CALLVALUE DUP1 ISZERO PUSH2 0x10 JUMPI PUSH1 0x0 DUP1 REVERT JUMPDEST POP PUSH1 0x4 CALLDATASIZE LT PUSH2 0x41 JUMPI PUSH1 0x0 CALLDATALOAD PUSH1 0xE0 SHR DUP1 PUSH4 0x53D21D45 EQ PUSH2 0x46 JUMPI DUP1 PUSH4 0x8C7BF6D4 EQ PUSH2 0x62 JUMPI DUP1 PUSH4 0xC3A70959 EQ PUSH2 0x80 JUMPI JUMPDEST PUSH1 0x0 DUP1 REVERT JUMPDEST PUSH2 0x60 PUSH1 0x4 DUP1 CALLDATASIZE SUB DUP2 ADD SWAP1 PUSH2 0x5B SWAP2 SWAP1 PUSH2 0x3FE JUMP JUMPDEST PUSH2 0xB3 JUMP JUMPDEST STOP JUMPDEST PUSH2 0x6A PUSH2 0x1B3 JUMP JUMPDEST PUSH1 0x40 MLOAD PUSH2 0x77 SWAP2 SWAP1 PUSH2 0x53D JUMP JUMPDEST PUSH1 0x40 MLOAD DUP1 SWAP2 SUB SWAP1 RETURN JUMPDEST PUSH2 0x9A PUSH1 0x4 DUP1 CALLDATASIZE SUB DUP2 ADD SWAP1 PUSH2 0x95 SWAP2 SWAP1 PUSH2 0x46D JUMP JUMPDEST PUSH2 0x1BD JUMP JUMPDEST PUSH1 0x40 MLOAD PUSH2 0xAA SWAP5 SWAP4 SWAP3 SWAP2 SWAP1 PUSH2 0x4F1 JUMP JUMPDEST PUSH1 0x40 MLOAD DUP1 SWAP2 SUB SWAP1 RETURN JUMPDEST PUSH1 0x40 MLOAD DUP1 PUSH1 0xA0 ADD PUSH1 0x40 MSTORE DUP1 CALLER PUSH20 0xFFFFFFFFFFFFFFFFFFFFFFFFFFFFFFFFFFFFFFFF AND DUP2 MSTORE PUSH1 0x20 ADD PUSH1 0x1 DUP1 SLOAD PUSH2 0xE8 SWAP2 SWAP1 PUSH2 0x5CA JUMP JUMPDEST DUP2 MSTORE PUSH1 0x20 ADD DUP5 DUP2 MSTORE PUSH1 0x20 ADD DUP4 DUP2 MSTORE PUSH1 0x20 ADD DUP3 DUP2 MSTORE POP PUSH1 0x0 DUP1 PUSH1 0x1 SLOAD DUP2 MSTORE PUSH1 0x20 ADD SWAP1 DUP2 MSTORE PUSH1 0x20 ADD PUSH1 0x0 KECCAK256 PUSH1 0x0 DUP3 ADD MLOAD DUP2 PUSH1 0x0 ADD PUSH1 0x0 PUSH2 0x100 EXP DUP2 SLOAD DUP2 PUSH20 0xFFFFFFFFFFFFFFFFFFFFFFFFFFFFFFFFFFFFFFFF MUL NOT AND SWAP1 DUP4 PUSH20 0xFFFFFFFFFFFFFFFFFFFFFFFFFFFFFFFFFFFFFFFF AND MUL OR SWAP1 SSTORE POP PUSH1 0x20 DUP3 ADD MLOAD DUP2 PUSH1 0x1 ADD SSTORE PUSH1 0x40 DUP3 ADD MLOAD DUP2 PUSH1 0x2 ADD SWAP1 DUP1 MLOAD SWAP1 PUSH1 0x20 ADD SWAP1 PUSH2 0x17E SWAP3 SWAP2 SWAP1 PUSH2 0x2D6 JUMP JUMPDEST POP PUSH1 0x60 DUP3 ADD MLOAD DUP2 PUSH1 0x3 ADD SSTORE PUSH1 0x80 DUP3 ADD MLOAD DUP2 PUSH1 0x4 ADD SSTORE SWAP1 POP POP PUSH1 0x1 PUSH1 0x0 DUP2 SLOAD DUP1 SWAP3 SWAP2 SWAP1 PUSH2 0x1A9 SWAP1 PUSH2 0x701 JUMP JUMPDEST SWAP2 SWAP1 POP SSTORE POP POP POP POP JUMP JUMPDEST PUSH1 0x0 PUSH1 0x1 SLOAD SWAP1 POP SWAP1 JUMP JUMPDEST PUSH1 0x0 PUSH1 0x60 PUSH1 0x0 DUP1 PUSH1 0x0 DUP1 DUP7 DUP2 MSTORE PUSH1 0x20 ADD SWAP1 DUP2 MSTORE PUSH1 0x20 ADD PUSH1 0x0 KECCAK256 PUSH1 0x0 ADD PUSH1 0x0 SWAP1 SLOAD SWAP1 PUSH2 0x100 EXP SWAP1 DIV PUSH20 0xFFFFFFFFFFFFFFFFFFFFFFFFFFFFFFFFFFFFFFFF AND PUSH1 0x0 DUP1 DUP8 DUP2 MSTORE PUSH1 0x20 ADD SWAP1 DUP2 MSTORE PUSH1 0x20 ADD PUSH1 0x0 KECCAK256 PUSH1 0x2 ADD PUSH1 0x0 DUP1 DUP9 DUP2 MSTORE PUSH1 0x20 ADD SWAP1 DUP2 MSTORE PUSH1 0x20 ADD PUSH1 0x0 KECCAK256 PUSH1 0x3 ADD SLOAD PUSH1 0x0 DUP1 DUP10 DUP2 MSTORE PUSH1 0x20 ADD SWAP1 DUP2 MSTORE PUSH1 0x20 ADD PUSH1 0x0 KECCAK256 PUSH1 0x4 ADD SLOAD DUP3 DUP1 SLOAD PUSH2 0x247 SWAP1 PUSH2 0x69E JUMP JUMPDEST DUP1 PUSH1 0x1F ADD PUSH1 0x20 DUP1 SWAP2 DIV MUL PUSH1 0x20 ADD PUSH1 0x40 MLOAD SWAP1 DUP2 ADD PUSH1 0x40 MSTORE DUP1 SWAP3 SWAP2 SWAP1 DUP2 DUP2 MSTORE PUSH1 0x20 ADD DUP3 DUP1 SLOAD PUSH2 0x273 SWAP1 PUSH2 0x69E JUMP JUMPDEST DUP1 ISZERO PUSH2 0x2C0 JUMPI DUP1 PUSH1 0x1F LT PUSH2 0x295 JUMPI PUSH2 0x100 DUP1 DUP4 SLOAD DIV MUL DUP4 MSTORE SWAP2 PUSH1 0x20 ADD SWAP2 PUSH2 0x2C0 JUMP JUMPDEST DUP3 ADD SWAP2 SWAP1 PUSH1 0x0 MSTORE PUSH1 0x20 PUSH1 0x0 KECCAK256 SWAP1 JUMPDEST DUP2 SLOAD DUP2 MSTORE SWAP1 PUSH1 0x1 ADD SWAP1 PUSH1 0x20 ADD DUP1 DUP4 GT PUSH2 0x2A3 JUMPI DUP3 SWAP1 SUB PUSH1 0x1F AND DUP3 ADD SWAP2 JUMPDEST POP POP POP POP POP SWAP3 POP SWAP4 POP SWAP4 POP SWAP4 POP SWAP4 POP SWAP2 SWAP4 POP SWAP2 SWAP4 JUMP JUMPDEST DUP3 DUP1 SLOAD PUSH2 0x2E2 SWAP1 PUSH2 0x69E JUMP JUMPDEST SWAP1 PUSH1 0x0 MSTORE PUSH1 0x20 PUSH1 0x0 KECCAK256 SWAP1 PUSH1 0x1F ADD PUSH1 0x20 SWAP1 DIV DUP2 ADD SWAP3 DUP3 PUSH2 0x304 JUMPI PUSH1 0x0 DUP6 SSTORE PUSH2 0x34B JUMP JUMPDEST DUP3 PUSH1 0x1F LT PUSH2 0x31D JUMPI DUP1 MLOAD PUSH1 0xFF NOT AND DUP4 DUP1 ADD OR DUP6 SSTORE PUSH2 0x34B JUMP JUMPDEST DUP3 DUP1 ADD PUSH1 0x1 ADD DUP6 SSTORE DUP3 ISZERO PUSH2 0x34B JUMPI SWAP2 DUP3 ADD JUMPDEST DUP3 DUP2 GT ISZERO PUSH2 0x34A JUMPI DUP3 MLOAD DUP3 SSTORE SWAP2 PUSH1 0x20 ADD SWAP2 SWAP1 PUSH1 0x1 ADD SWAP1 PUSH2 0x32F JUMP JUMPDEST JUMPDEST POP SWAP1 POP PUSH2 0x358 SWAP2 SWAP1 PUSH2 0x35C JUMP JUMPDEST POP SWAP1 JUMP JUMPDEST JUMPDEST DUP1 DUP3 GT ISZERO PUSH2 0x375 JUMPI PUSH1 0x0 DUP2 PUSH1 0x0 SWAP1 SSTORE POP PUSH1 0x1 ADD PUSH2 0x35D JUMP JUMPDEST POP SWAP1 JUMP JUMPDEST PUSH1 0x0 PUSH2 0x38C PUSH2 0x387 DUP5 PUSH2 0x57D JUMP JUMPDEST PUSH2 0x558 JUMP JUMPDEST SWAP1 POP DUP3 DUP2 MSTORE PUSH1 0x20 DUP2 ADD DUP5 DUP5 DUP5 ADD GT ISZERO PUSH2 0x3A8 JUMPI PUSH2 0x3A7 PUSH2 0x7DC JUMP JUMPDEST JUMPDEST PUSH2 0x3B3 DUP5 DUP3 DUP6 PUSH2 0x65C JUMP JUMPDEST POP SWAP4 SWAP3 POP POP POP JUMP JUMPDEST PUSH1 0x0 DUP3 PUSH1 0x1F DUP4 ADD SLT PUSH2 0x3D0 JUMPI PUSH2 0x3CF PUSH2 0x7D7 JUMP JUMPDEST JUMPDEST DUP2 CALLDATALOAD PUSH2 0x3E0 DUP5 DUP3 PUSH1 0x20 DUP7 ADD PUSH2 0x379 JUMP JUMPDEST SWAP2 POP POP SWAP3 SWAP2 POP POP JUMP JUMPDEST PUSH1 0x0 DUP2 CALLDATALOAD SWAP1 POP PUSH2 0x3F8 DUP2 PUSH2 0x7FC JUMP JUMPDEST SWAP3 SWAP2 POP POP JUMP JUMPDEST PUSH1 0x0 DUP1 PUSH1 0x0 PUSH1 0x60 DUP5 DUP7 SUB SLT ISZERO PUSH2 0x417 JUMPI PUSH2 0x416 PUSH2 0x7E6 JUMP JUMPDEST JUMPDEST PUSH1 0x0 DUP5 ADD CALLDATALOAD PUSH8 0xFFFFFFFFFFFFFFFF DUP2 GT ISZERO PUSH2 0x435 JUMPI PUSH2 0x434 PUSH2 0x7E1 JUMP JUMPDEST JUMPDEST PUSH2 0x441 DUP7 DUP3 DUP8 ADD PUSH2 0x3BB JUMP JUMPDEST SWAP4 POP POP PUSH1 0x20 PUSH2 0x452 DUP7 DUP3 DUP8 ADD PUSH2 0x3E9 JUMP JUMPDEST SWAP3 POP POP PUSH1 0x40 PUSH2 0x463 DUP7 DUP3 DUP8 ADD PUSH2 0x3E9 JUMP JUMPDEST SWAP2 POP POP SWAP3 POP SWAP3 POP SWAP3 JUMP JUMPDEST PUSH1 0x0 PUSH1 0x20 DUP3 DUP5 SUB SLT ISZERO PUSH2 0x483 JUMPI PUSH2 0x482 PUSH2 0x7E6 JUMP JUMPDEST JUMPDEST PUSH1 0x0 PUSH2 0x491 DUP5 DUP3 DUP6 ADD PUSH2 0x3E9 JUMP JUMPDEST SWAP2 POP POP SWAP3 SWAP2 POP POP JUMP JUMPDEST PUSH2 0x4A3 DUP2 PUSH2 0x620 JUMP JUMPDEST DUP3 MSTORE POP POP JUMP JUMPDEST PUSH1 0x0 PUSH2 0x4B4 DUP3 PUSH2 0x5AE JUMP JUMPDEST PUSH2 0x4BE DUP2 DUP6 PUSH2 0x5B9 JUMP JUMPDEST SWAP4 POP PUSH2 0x4CE DUP2 DUP6 PUSH1 0x20 DUP7 ADD PUSH2 0x66B JUMP JUMPDEST PUSH2 0x4D7 DUP2 PUSH2 0x7EB JUMP JUMPDEST DUP5 ADD SWAP2 POP POP SWAP3 SWAP2 POP POP JUMP JUMPDEST PUSH2 0x4EB DUP2 PUSH2 0x652 JUMP JUMPDEST DUP3 MSTORE POP POP JUMP JUMPDEST PUSH1 0x0 PUSH1 0x80 DUP3 ADD SWAP1 POP PUSH2 0x506 PUSH1 0x0 DUP4 ADD DUP8 PUSH2 0x49A JUMP JUMPDEST DUP2 DUP2 SUB PUSH1 0x20 DUP4 ADD MSTORE PUSH2 0x518 DUP2 DUP7 PUSH2 0x4A9 JUMP JUMPDEST SWAP1 POP PUSH2 0x527 PUSH1 0x40 DUP4 ADD DUP6 PUSH2 0x4E2 JUMP JUMPDEST PUSH2 0x534 PUSH1 0x60 DUP4 ADD DUP5 PUSH2 0x4E2 JUMP JUMPDEST SWAP6 SWAP5 POP POP POP POP POP JUMP JUMPDEST PUSH1 0x0 PUSH1 0x20 DUP3 ADD SWAP1 POP PUSH2 0x552 PUSH1 0x0 DUP4 ADD DUP5 PUSH2 0x4E2 JUMP JUMPDEST SWAP3 SWAP2 POP POP JUMP JUMPDEST PUSH1 0x0 PUSH2 0x562 PUSH2 0x573 JUMP JUMPDEST SWAP1 POP PUSH2 0x56E DUP3 DUP3 PUSH2 0x6D0 JUMP JUMPDEST SWAP2 SWAP1 POP JUMP JUMPDEST PUSH1 0x0 PUSH1 0x40 MLOAD SWAP1 POP SWAP1 JUMP JUMPDEST PUSH1 0x0 PUSH8 0xFFFFFFFFFFFFFFFF DUP3 GT ISZERO PUSH2 0x598 JUMPI PUSH2 0x597 PUSH2 0x7A8 JUMP JUMPDEST JUMPDEST PUSH2 0x5A1 DUP3 PUSH2 0x7EB JUMP JUMPDEST SWAP1 POP PUSH1 0x20 DUP2 ADD SWAP1 POP SWAP2 SWAP1 POP JUMP JUMPDEST PUSH1 0x0 DUP2 MLOAD SWAP1 POP SWAP2 SWAP1 POP JUMP JUMPDEST PUSH1 0x0 DUP3 DUP3 MSTORE PUSH1 0x20 DUP3 ADD SWAP1 POP SWAP3 SWAP2 POP POP JUMP JUMPDEST PUSH1 0x0 PUSH2 0x5D5 DUP3 PUSH2 0x652 JUMP JUMPDEST SWAP2 POP PUSH2 0x5E0 DUP4 PUSH2 0x652 JUMP JUMPDEST SWAP3 POP DUP3 PUSH32 0xFFFFFFFFFFFFFFFFFFFFFFFFFFFFFFFFFFFFFFFFFFFFFFFFFFFFFFFFFFFFFFFF SUB DUP3 GT ISZERO PUSH2 0x615 JUMPI PUSH2 0x614 PUSH2 0x74A JUMP JUMPDEST JUMPDEST DUP3 DUP3 ADD SWAP1 POP SWAP3 SWAP2 POP POP JUMP JUMPDEST PUSH1 0x0 PUSH2 0x62B DUP3 PUSH2 0x632 JUMP JUMPDEST SWAP1 POP SWAP2 SWAP1 POP JUMP JUMPDEST PUSH1 0x0 PUSH20 0xFFFFFFFFFFFFFFFFFFFFFFFFFFFFFFFFFFFFFFFF DUP3 AND SWAP1 POP SWAP2 SWAP1 POP JUMP JUMPDEST PUSH1 0x0 DUP2 SWAP1 POP SWAP2 SWAP1 POP JUMP JUMPDEST DUP3 DUP2 DUP4 CALLDATACOPY PUSH1 0x0 DUP4 DUP4 ADD MSTORE POP POP POP JUMP JUMPDEST PUSH1 0x0 JUMPDEST DUP4 DUP2 LT ISZERO PUSH2 0x689 JUMPI DUP1 DUP3 ADD MLOAD DUP2 DUP5 ADD MSTORE PUSH1 0x20 DUP2 ADD SWAP1 POP PUSH2 0x66E JUMP JUMPDEST DUP4 DUP2 GT ISZERO PUSH2 0x698 JUMPI PUSH1 0x0 DUP5 DUP5 ADD MSTORE JUMPDEST POP POP POP POP JUMP JUMPDEST PUSH1 0x0 PUSH1 0x2 DUP3 DIV SWAP1 POP PUSH1 0x1 DUP3 AND DUP1 PUSH2 0x6B6 JUMPI PUSH1 0x7F DUP3 AND SWAP2 POP JUMPDEST PUSH1 0x20 DUP3 LT DUP2 EQ ISZERO PUSH2 0x6CA JUMPI PUSH2 0x6C9 PUSH2 0x779 JUMP JUMPDEST JUMPDEST POP SWAP2 SWAP1 POP JUMP JUMPDEST PUSH2 0x6D9 DUP3 PUSH2 0x7EB JUMP JUMPDEST DUP2 ADD DUP2 DUP2 LT PUSH8 0xFFFFFFFFFFFFFFFF DUP3 GT OR ISZERO PUSH2 0x6F8 JUMPI PUSH2 0x6F7 PUSH2 0x7A8 JUMP JUMPDEST JUMPDEST DUP1 PUSH1 0x40 MSTORE POP POP POP JUMP JUMPDEST PUSH1 0x0 PUSH2 0x70C DUP3 PUSH2 0x652 JUMP JUMPDEST SWAP2 POP PUSH32 0xFFFFFFFFFFFFFFFFFFFFFFFFFFFFFFFFFFFFFFFFFFFFFFFFFFFFFFFFFFFFFFFF DUP3 EQ ISZERO PUSH2 0x73F JUMPI PUSH2 0x73E PUSH2 0x74A JUMP JUMPDEST JUMPDEST PUSH1 0x1 DUP3 ADD SWAP1 POP SWAP2 SWAP1 POP JUMP JUMPDEST PUSH32 0x4E487B7100000000000000000000000000000000000000000000000000000000 PUSH1 0x0 MSTORE PUSH1 0x11 PUSH1 0x4 MSTORE PUSH1 0x24 PUSH1 0x0 REVERT JUMPDEST PUSH32 0x4E487B7100000000000000000000000000000000000000000000000000000000 PUSH1 0x0 MSTORE PUSH1 0x22 PUSH1 0x4 MSTORE PUSH1 0x24 PUSH1 0x0 REVERT JUMPDEST PUSH32 0x4E487B7100000000000000000000000000000000000000000000000000000000 PUSH1 0x0 MSTORE PUSH1 0x41 PUSH1 0x4 MSTORE PUSH1 0x24 PUSH1 0x0 REVERT JUMPDEST PUSH1 0x0 DUP1 REVERT JUMPDEST PUSH1 0x0 DUP1 REVERT JUMPDEST PUSH1 0x0 DUP1 REVERT JUMPDEST PUSH1 0x0 DUP1 REVERT JUMPDEST PUSH1 0x0 PUSH1 0x1F NOT PUSH1 0x1F DUP4 ADD AND SWAP1 POP SWAP2 SWAP1 POP JUMP JUMPDEST PUSH2 0x805 DUP2 PUSH2 0x652 JUMP JUMPDEST DUP2 EQ PUSH2 0x810 JUMPI PUSH1 0x0 DUP1 REVERT JUMPDEST POP JUMP INVALID LOG2 PUSH5 0x6970667358 0x22 SLT KECCAK256 0xD3 RETURNDATACOPY 0x2D 0xB8 0xAE LOG1 0xDD LOG4 0x4E 0x4C 0x26 DUP12 CALLVALUE 0xED SWAP15 0x4A EXP 0x25 PUSH32 0xE1D9DD20F726923FB27558721464736F6C634300080700330000000000000000 "
				},
				"gasEstimates": {
					"creation": {
						"codeDepositCost": "424200",
						"executionCost": "5467",
						"totalCost": "429667"
					},
					"external": {
						"createTontine(string,uint256,uint256)": "infinite",
						"getNumberOfTontines()": "2437",
						"showTontine(uint256)": "infinite"
					}
				},
				"methodIdentifiers": {
					"createTontine(string,uint256,uint256)": "53d21d45",
					"getNumberOfTontines()": "8c7bf6d4",
					"showTontine(uint256)": "c3a70959"
				}
			},
			"storageLayout": {
				"storage": [
					{
						"astId": 248,
						"contract": "contracts/Tontines.sol:Tontines",
						"label": "tontines",
						"offset": 0,
						"slot": "0",
						"type": "t_mapping(t_uint256,t_struct(Tontine)243_storage)"
					},
					{
						"astId": 251,
						"contract": "contracts/Tontines.sol:Tontines",
						"label": "numberOfTontines",
						"offset": 0,
						"slot": "1",
						"type": "t_uint256"
					}
				],
				"types": {
					"t_address_payable": {
						"encoding": "inplace",
						"label": "address payable",
						"numberOfBytes": "20"
					},
					"t_mapping(t_uint256,t_struct(Tontine)243_storage)": {
						"encoding": "mapping",
						"key": "t_uint256",
						"label": "mapping(uint256 => struct Tontines.Tontine)",
						"numberOfBytes": "32",
						"value": "t_struct(Tontine)243_storage"
					},
					"t_string_storage": {
						"encoding": "bytes",
						"label": "string",
						"numberOfBytes": "32"
					},
					"t_struct(Tontine)243_storage": {
						"encoding": "inplace",
						"label": "struct Tontines.Tontine",
						"members": [
							{
								"astId": 234,
								"contract": "contracts/Tontines.sol:Tontines",
								"label": "owner",
								"offset": 0,
								"slot": "0",
								"type": "t_address_payable"
							},
							{
								"astId": 236,
								"contract": "contracts/Tontines.sol:Tontines",
								"label": "tontineId",
								"offset": 0,
								"slot": "1",
								"type": "t_uint256"
							},
							{
								"astId": 238,
								"contract": "contracts/Tontines.sol:Tontines",
								"label": "name",
								"offset": 0,
								"slot": "2",
								"type": "t_string_storage"
							},
							{
								"astId": 240,
								"contract": "contracts/Tontines.sol:Tontines",
								"label": "amount",
								"offset": 0,
								"slot": "3",
								"type": "t_uint256"
							},
							{
								"astId": 242,
								"contract": "contracts/Tontines.sol:Tontines",
								"label": "beneficyingTimeInterval",
								"offset": 0,
								"slot": "4",
								"type": "t_uint256"
							}
						],
						"numberOfBytes": "160"
					},
					"t_uint256": {
						"encoding": "inplace",
						"label": "uint256",
						"numberOfBytes": "32"
					}
				}
			},
			"userdoc": {
				"kind": "user",
				"methods": {},
				"version": 1
			}
		}
	}
}