{
	"contracts/Members.sol": {
		"Members": {
			"abi": [
				{
					"inputs": [
						{
							"internalType": "string",
							"name": "_name",
							"type": "string"
						},
						{
							"internalType": "address",
							"name": "_memberWalletAddress",
							"type": "address"
						}
					],
					"name": "createMember",
					"outputs": [],
					"stateMutability": "nonpayable",
					"type": "function"
				},
				{
					"inputs": [
						{
							"internalType": "uint256",
							"name": "_memberId",
							"type": "uint256"
						}
					],
					"name": "showMember",
					"outputs": [
						{
							"internalType": "string",
							"name": "",
							"type": "string"
						},
						{
							"internalType": "address",
							"name": "",
							"type": "address"
						}
					],
					"stateMutability": "view",
					"type": "function"
				}
			],
			"devdoc": {
				"kind": "dev",
				"methods": {},
				"version": 1
			},
			"evm": {
				"assembly": "    /* \"contracts/Members.sol\":74:862  contract Members {\r... */\n  mstore(0x40, 0x80)\n    /* \"contracts/Members.sol\":287:288  0 */\n  0x00\n    /* \"contracts/Members.sol\":269:288  uint AllMembers = 0 */\n  0x01\n  sstore\n    /* \"contracts/Members.sol\":74:862  contract Members {\r... */\n  callvalue\n  dup1\n  iszero\n  tag_1\n  jumpi\n  0x00\n  dup1\n  revert\ntag_1:\n  pop\n  dataSize(sub_0)\n  dup1\n  dataOffset(sub_0)\n  0x00\n  codecopy\n  0x00\n  return\nstop\n\nsub_0: assembly {\n        /* \"contracts/Members.sol\":74:862  contract Members {\r... */\n      mstore(0x40, 0x80)\n      callvalue\n      dup1\n      iszero\n      tag_1\n      jumpi\n      0x00\n      dup1\n      revert\n    tag_1:\n      pop\n      jumpi(tag_2, lt(calldatasize, 0x04))\n      shr(0xe0, calldataload(0x00))\n      dup1\n      0x6b42cf4d\n      eq\n      tag_3\n      jumpi\n      dup1\n      0xfeec91d3\n      eq\n      tag_4\n      jumpi\n    tag_2:\n      0x00\n      dup1\n      revert\n        /* \"contracts/Members.sol\":297:615  function createMember(string memory _name, address _memberWalletAddress) public {\r... */\n    tag_3:\n      tag_5\n      0x04\n      dup1\n      calldatasize\n      sub\n      dup2\n      add\n      swap1\n      tag_6\n      swap2\n      swap1\n      tag_7\n      jump\t// in\n    tag_6:\n      tag_8\n      jump\t// in\n    tag_5:\n      stop\n        /* \"contracts/Members.sol\":623:857  function showMember(uint _memberId) public view returns (\r... */\n    tag_4:\n      tag_9\n      0x04\n      dup1\n      calldatasize\n      sub\n      dup2\n      add\n      swap1\n      tag_10\n      swap2\n      swap1\n      tag_11\n      jump\t// in\n    tag_10:\n      tag_12\n      jump\t// in\n    tag_9:\n      mload(0x40)\n      tag_13\n      swap3\n      swap2\n      swap1\n      tag_14\n      jump\t// in\n    tag_13:\n      mload(0x40)\n      dup1\n      swap2\n      sub\n      swap1\n      return\n        /* \"contracts/Members.sol\":297:615  function createMember(string memory _name, address _memberWalletAddress) public {\r... */\n    tag_8:\n        /* \"contracts/Members.sol\":410:518  Member(\r... */\n      mload(0x40)\n      dup1\n      0x60\n      add\n      0x40\n      mstore\n      dup1\n        /* \"contracts/Members.sol\":442:443  1 */\n      0x01\n        /* \"contracts/Members.sol\":431:441  AllMembers */\n      dup1\n      sload\n        /* \"contracts/Members.sol\":431:443  AllMembers+1 */\n      tag_16\n      swap2\n      swap1\n      tag_17\n      jump\t// in\n    tag_16:\n        /* \"contracts/Members.sol\":410:518  Member(\r... */\n      dup2\n      mstore\n      0x20\n      add\n        /* \"contracts/Members.sol\":458:463  _name */\n      dup4\n        /* \"contracts/Members.sol\":410:518  Member(\r... */\n      dup2\n      mstore\n      0x20\n      add\n        /* \"contracts/Members.sol\":486:506  _memberWalletAddress */\n      dup3\n        /* \"contracts/Members.sol\":410:518  Member(\r... */\n      0xffffffffffffffffffffffffffffffffffffffff\n      and\n      dup2\n      mstore\n      pop\n        /* \"contracts/Members.sol\":388:395  members */\n      0x00\n        /* \"contracts/Members.sol\":388:407  members[AllMembers] */\n      dup1\n        /* \"contracts/Members.sol\":396:406  AllMembers */\n      sload(0x01)\n        /* \"contracts/Members.sol\":388:407  members[AllMembers] */\n      dup2\n      mstore\n      0x20\n      add\n      swap1\n      dup2\n      mstore\n      0x20\n      add\n      0x00\n      keccak256\n        /* \"contracts/Members.sol\":388:518  members[AllMembers] = Member(\r... */\n      0x00\n      dup3\n      add\n      mload\n      dup2\n      0x00\n      add\n      sstore\n      0x20\n      dup3\n      add\n      mload\n      dup2\n      0x01\n      add\n      swap1\n      dup1\n      mload\n      swap1\n      0x20\n      add\n      swap1\n      tag_18\n      swap3\n      swap2\n      swap1\n      tag_19\n      jump\t// in\n    tag_18:\n      pop\n      0x40\n      dup3\n      add\n      mload\n      dup2\n      0x02\n      add\n      exp(0x0100, 0x00)\n      dup2\n      sload\n      dup2\n      0xffffffffffffffffffffffffffffffffffffffff\n      mul\n      not\n      and\n      swap1\n      dup4\n      0xffffffffffffffffffffffffffffffffffffffff\n      and\n      mul\n      or\n      swap1\n      sstore\n      pop\n      swap1\n      pop\n      pop\n        /* \"contracts/Members.sol\":531:541  AllMembers */\n      0x01\n      0x00\n        /* \"contracts/Members.sol\":531:543  AllMembers++ */\n      dup2\n      sload\n      dup1\n      swap3\n      swap2\n      swap1\n      tag_20\n      swap1\n      tag_21\n      jump\t// in\n    tag_20:\n      swap2\n      swap1\n      pop\n      sstore\n      pop\n        /* \"contracts/Members.sol\":297:615  function createMember(string memory _name, address _memberWalletAddress) public {\r... */\n      pop\n      pop\n      jump\t// out\n        /* \"contracts/Members.sol\":623:857  function showMember(uint _memberId) public view returns (\r... */\n    tag_12:\n        /* \"contracts/Members.sol\":690:703  string memory */\n      0x60\n        /* \"contracts/Members.sol\":714:721  address */\n      0x00\n        /* \"contracts/Members.sol\":762:769  members */\n      dup1\n        /* \"contracts/Members.sol\":762:780  members[_memberId] */\n      0x00\n        /* \"contracts/Members.sol\":770:779  _memberId */\n      dup5\n        /* \"contracts/Members.sol\":762:780  members[_memberId] */\n      dup2\n      mstore\n      0x20\n      add\n      swap1\n      dup2\n      mstore\n      0x20\n      add\n      0x00\n      keccak256\n        /* \"contracts/Members.sol\":762:785  members[_memberId].name */\n      0x01\n      add\n        /* \"contracts/Members.sol\":800:807  members */\n      0x00\n        /* \"contracts/Members.sol\":800:818  members[_memberId] */\n      dup1\n        /* \"contracts/Members.sol\":808:817  _memberId */\n      dup6\n        /* \"contracts/Members.sol\":800:818  members[_memberId] */\n      dup2\n      mstore\n      0x20\n      add\n      swap1\n      dup2\n      mstore\n      0x20\n      add\n      0x00\n      keccak256\n        /* \"contracts/Members.sol\":800:838  members[_memberId].memberWalletAddress */\n      0x02\n      add\n      0x00\n      swap1\n      sload\n      swap1\n      0x0100\n      exp\n      swap1\n      div\n      0xffffffffffffffffffffffffffffffffffffffff\n      and\n        /* \"contracts/Members.sol\":740:849  return (\r... */\n      dup2\n      dup1\n      sload\n      tag_23\n      swap1\n      tag_24\n      jump\t// in\n    tag_23:\n      dup1\n      0x1f\n      add\n      0x20\n      dup1\n      swap2\n      div\n      mul\n      0x20\n      add\n      mload(0x40)\n      swap1\n      dup2\n      add\n      0x40\n      mstore\n      dup1\n      swap3\n      swap2\n      swap1\n      dup2\n      dup2\n      mstore\n      0x20\n      add\n      dup3\n      dup1\n      sload\n      tag_25\n      swap1\n      tag_24\n      jump\t// in\n    tag_25:\n      dup1\n      iszero\n      tag_26\n      jumpi\n      dup1\n      0x1f\n      lt\n      tag_27\n      jumpi\n      0x0100\n      dup1\n      dup4\n      sload\n      div\n      mul\n      dup4\n      mstore\n      swap2\n      0x20\n      add\n      swap2\n      jump(tag_26)\n    tag_27:\n      dup3\n      add\n      swap2\n      swap1\n      0x00\n      mstore\n      keccak256(0x00, 0x20)\n      swap1\n    tag_28:\n      dup2\n      sload\n      dup2\n      mstore\n      swap1\n      0x01\n      add\n      swap1\n      0x20\n      add\n      dup1\n      dup4\n      gt\n      tag_28\n      jumpi\n      dup3\n      swap1\n      sub\n      0x1f\n      and\n      dup3\n      add\n      swap2\n    tag_26:\n      pop\n      pop\n      pop\n      pop\n      pop\n      swap2\n      pop\n      swap2\n      pop\n      swap2\n      pop\n        /* \"contracts/Members.sol\":623:857  function showMember(uint _memberId) public view returns (\r... */\n      swap2\n      pop\n      swap2\n      jump\t// out\n    tag_19:\n      dup3\n      dup1\n      sload\n      tag_29\n      swap1\n      tag_24\n      jump\t// in\n    tag_29:\n      swap1\n      0x00\n      mstore\n      keccak256(0x00, 0x20)\n      swap1\n      0x1f\n      add\n      0x20\n      swap1\n      div\n      dup2\n      add\n      swap3\n      dup3\n      tag_31\n      jumpi\n      0x00\n      dup6\n      sstore\n      jump(tag_30)\n    tag_31:\n      dup3\n      0x1f\n      lt\n      tag_32\n      jumpi\n      dup1\n      mload\n      not(0xff)\n      and\n      dup4\n      dup1\n      add\n      or\n      dup6\n      sstore\n      jump(tag_30)\n    tag_32:\n      dup3\n      dup1\n      add\n      0x01\n      add\n      dup6\n      sstore\n      dup3\n      iszero\n      tag_30\n      jumpi\n      swap2\n      dup3\n      add\n    tag_33:\n      dup3\n      dup2\n      gt\n      iszero\n      tag_34\n      jumpi\n      dup3\n      mload\n      dup3\n      sstore\n      swap2\n      0x20\n      add\n      swap2\n      swap1\n      0x01\n      add\n      swap1\n      jump(tag_33)\n    tag_34:\n    tag_30:\n      pop\n      swap1\n      pop\n      tag_35\n      swap2\n      swap1\n      tag_36\n      jump\t// in\n    tag_35:\n      pop\n      swap1\n      jump\t// out\n    tag_36:\n    tag_37:\n      dup1\n      dup3\n      gt\n      iszero\n      tag_38\n      jumpi\n      0x00\n      dup2\n      0x00\n      swap1\n      sstore\n      pop\n      0x01\n      add\n      jump(tag_37)\n    tag_38:\n      pop\n      swap1\n      jump\t// out\n        /* \"#utility.yul\":7:419   */\n    tag_40:\n        /* \"#utility.yul\":85:90   */\n      0x00\n        /* \"#utility.yul\":110:176   */\n      tag_42\n        /* \"#utility.yul\":126:175   */\n      tag_43\n        /* \"#utility.yul\":168:174   */\n      dup5\n        /* \"#utility.yul\":126:175   */\n      tag_44\n      jump\t// in\n    tag_43:\n        /* \"#utility.yul\":110:176   */\n      tag_45\n      jump\t// in\n    tag_42:\n        /* \"#utility.yul\":101:176   */\n      swap1\n      pop\n        /* \"#utility.yul\":199:205   */\n      dup3\n        /* \"#utility.yul\":192:197   */\n      dup2\n        /* \"#utility.yul\":185:206   */\n      mstore\n        /* \"#utility.yul\":237:241   */\n      0x20\n        /* \"#utility.yul\":230:235   */\n      dup2\n        /* \"#utility.yul\":226:242   */\n      add\n        /* \"#utility.yul\":275:278   */\n      dup5\n        /* \"#utility.yul\":266:272   */\n      dup5\n        /* \"#utility.yul\":261:264   */\n      dup5\n        /* \"#utility.yul\":257:273   */\n      add\n        /* \"#utility.yul\":254:279   */\n      gt\n        /* \"#utility.yul\":251:363   */\n      iszero\n      tag_46\n      jumpi\n        /* \"#utility.yul\":282:361   */\n      tag_47\n      tag_48\n      jump\t// in\n    tag_47:\n        /* \"#utility.yul\":251:363   */\n    tag_46:\n        /* \"#utility.yul\":372:413   */\n      tag_49\n        /* \"#utility.yul\":406:412   */\n      dup5\n        /* \"#utility.yul\":401:404   */\n      dup3\n        /* \"#utility.yul\":396:399   */\n      dup6\n        /* \"#utility.yul\":372:413   */\n      tag_50\n      jump\t// in\n    tag_49:\n        /* \"#utility.yul\":91:419   */\n      pop\n        /* \"#utility.yul\":7:419   */\n      swap4\n      swap3\n      pop\n      pop\n      pop\n      jump\t// out\n        /* \"#utility.yul\":425:564   */\n    tag_51:\n        /* \"#utility.yul\":471:476   */\n      0x00\n        /* \"#utility.yul\":509:515   */\n      dup2\n        /* \"#utility.yul\":496:516   */\n      calldataload\n        /* \"#utility.yul\":487:516   */\n      swap1\n      pop\n        /* \"#utility.yul\":525:558   */\n      tag_53\n        /* \"#utility.yul\":552:557   */\n      dup2\n        /* \"#utility.yul\":525:558   */\n      tag_54\n      jump\t// in\n    tag_53:\n        /* \"#utility.yul\":425:564   */\n      swap3\n      swap2\n      pop\n      pop\n      jump\t// out\n        /* \"#utility.yul\":584:924   */\n    tag_55:\n        /* \"#utility.yul\":640:645   */\n      0x00\n        /* \"#utility.yul\":689:692   */\n      dup3\n        /* \"#utility.yul\":682:686   */\n      0x1f\n        /* \"#utility.yul\":674:680   */\n      dup4\n        /* \"#utility.yul\":670:687   */\n      add\n        /* \"#utility.yul\":666:693   */\n      slt\n        /* \"#utility.yul\":656:778   */\n      tag_57\n      jumpi\n        /* \"#utility.yul\":697:776   */\n      tag_58\n      tag_59\n      jump\t// in\n    tag_58:\n        /* \"#utility.yul\":656:778   */\n    tag_57:\n        /* \"#utility.yul\":814:820   */\n      dup2\n        /* \"#utility.yul\":801:821   */\n      calldataload\n        /* \"#utility.yul\":839:918   */\n      tag_60\n        /* \"#utility.yul\":914:917   */\n      dup5\n        /* \"#utility.yul\":906:912   */\n      dup3\n        /* \"#utility.yul\":899:903   */\n      0x20\n        /* \"#utility.yul\":891:897   */\n      dup7\n        /* \"#utility.yul\":887:904   */\n      add\n        /* \"#utility.yul\":839:918   */\n      tag_40\n      jump\t// in\n    tag_60:\n        /* \"#utility.yul\":830:918   */\n      swap2\n      pop\n        /* \"#utility.yul\":646:924   */\n      pop\n        /* \"#utility.yul\":584:924   */\n      swap3\n      swap2\n      pop\n      pop\n      jump\t// out\n        /* \"#utility.yul\":930:1069   */\n    tag_61:\n        /* \"#utility.yul\":976:981   */\n      0x00\n        /* \"#utility.yul\":1014:1020   */\n      dup2\n        /* \"#utility.yul\":1001:1021   */\n      calldataload\n        /* \"#utility.yul\":992:1021   */\n      swap1\n      pop\n        /* \"#utility.yul\":1030:1063   */\n      tag_63\n        /* \"#utility.yul\":1057:1062   */\n      dup2\n        /* \"#utility.yul\":1030:1063   */\n      tag_64\n      jump\t// in\n    tag_63:\n        /* \"#utility.yul\":930:1069   */\n      swap3\n      swap2\n      pop\n      pop\n      jump\t// out\n        /* \"#utility.yul\":1075:1729   */\n    tag_7:\n        /* \"#utility.yul\":1153:1159   */\n      0x00\n        /* \"#utility.yul\":1161:1167   */\n      dup1\n        /* \"#utility.yul\":1210:1212   */\n      0x40\n        /* \"#utility.yul\":1198:1207   */\n      dup4\n        /* \"#utility.yul\":1189:1196   */\n      dup6\n        /* \"#utility.yul\":1185:1208   */\n      sub\n        /* \"#utility.yul\":1181:1213   */\n      slt\n        /* \"#utility.yul\":1178:1297   */\n      iszero\n      tag_66\n      jumpi\n        /* \"#utility.yul\":1216:1295   */\n      tag_67\n      tag_68\n      jump\t// in\n    tag_67:\n        /* \"#utility.yul\":1178:1297   */\n    tag_66:\n        /* \"#utility.yul\":1364:1365   */\n      0x00\n        /* \"#utility.yul\":1353:1362   */\n      dup4\n        /* \"#utility.yul\":1349:1366   */\n      add\n        /* \"#utility.yul\":1336:1367   */\n      calldataload\n        /* \"#utility.yul\":1394:1412   */\n      0xffffffffffffffff\n        /* \"#utility.yul\":1386:1392   */\n      dup2\n        /* \"#utility.yul\":1383:1413   */\n      gt\n        /* \"#utility.yul\":1380:1497   */\n      iszero\n      tag_69\n      jumpi\n        /* \"#utility.yul\":1416:1495   */\n      tag_70\n      tag_71\n      jump\t// in\n    tag_70:\n        /* \"#utility.yul\":1380:1497   */\n    tag_69:\n        /* \"#utility.yul\":1521:1584   */\n      tag_72\n        /* \"#utility.yul\":1576:1583   */\n      dup6\n        /* \"#utility.yul\":1567:1573   */\n      dup3\n        /* \"#utility.yul\":1556:1565   */\n      dup7\n        /* \"#utility.yul\":1552:1574   */\n      add\n        /* \"#utility.yul\":1521:1584   */\n      tag_55\n      jump\t// in\n    tag_72:\n        /* \"#utility.yul\":1511:1584   */\n      swap3\n      pop\n        /* \"#utility.yul\":1307:1594   */\n      pop\n        /* \"#utility.yul\":1633:1635   */\n      0x20\n        /* \"#utility.yul\":1659:1712   */\n      tag_73\n        /* \"#utility.yul\":1704:1711   */\n      dup6\n        /* \"#utility.yul\":1695:1701   */\n      dup3\n        /* \"#utility.yul\":1684:1693   */\n      dup7\n        /* \"#utility.yul\":1680:1702   */\n      add\n        /* \"#utility.yul\":1659:1712   */\n      tag_51\n      jump\t// in\n    tag_73:\n        /* \"#utility.yul\":1649:1712   */\n      swap2\n      pop\n        /* \"#utility.yul\":1604:1722   */\n      pop\n        /* \"#utility.yul\":1075:1729   */\n      swap3\n      pop\n      swap3\n      swap1\n      pop\n      jump\t// out\n        /* \"#utility.yul\":1735:2064   */\n    tag_11:\n        /* \"#utility.yul\":1794:1800   */\n      0x00\n        /* \"#utility.yul\":1843:1845   */\n      0x20\n        /* \"#utility.yul\":1831:1840   */\n      dup3\n        /* \"#utility.yul\":1822:1829   */\n      dup5\n        /* \"#utility.yul\":1818:1841   */\n      sub\n        /* \"#utility.yul\":1814:1846   */\n      slt\n        /* \"#utility.yul\":1811:1930   */\n      iszero\n      tag_75\n      jumpi\n        /* \"#utility.yul\":1849:1928   */\n      tag_76\n      tag_68\n      jump\t// in\n    tag_76:\n        /* \"#utility.yul\":1811:1930   */\n    tag_75:\n        /* \"#utility.yul\":1969:1970   */\n      0x00\n        /* \"#utility.yul\":1994:2047   */\n      tag_77\n        /* \"#utility.yul\":2039:2046   */\n      dup5\n        /* \"#utility.yul\":2030:2036   */\n      dup3\n        /* \"#utility.yul\":2019:2028   */\n      dup6\n        /* \"#utility.yul\":2015:2037   */\n      add\n        /* \"#utility.yul\":1994:2047   */\n      tag_61\n      jump\t// in\n    tag_77:\n        /* \"#utility.yul\":1984:2047   */\n      swap2\n      pop\n        /* \"#utility.yul\":1940:2057   */\n      pop\n        /* \"#utility.yul\":1735:2064   */\n      swap3\n      swap2\n      pop\n      pop\n      jump\t// out\n        /* \"#utility.yul\":2070:2188   */\n    tag_78:\n        /* \"#utility.yul\":2157:2181   */\n      tag_80\n        /* \"#utility.yul\":2175:2180   */\n      dup2\n        /* \"#utility.yul\":2157:2181   */\n      tag_81\n      jump\t// in\n    tag_80:\n        /* \"#utility.yul\":2152:2155   */\n      dup3\n        /* \"#utility.yul\":2145:2182   */\n      mstore\n        /* \"#utility.yul\":2070:2188   */\n      pop\n      pop\n      jump\t// out\n        /* \"#utility.yul\":2194:2558   */\n    tag_82:\n        /* \"#utility.yul\":2282:2285   */\n      0x00\n        /* \"#utility.yul\":2310:2349   */\n      tag_84\n        /* \"#utility.yul\":2343:2348   */\n      dup3\n        /* \"#utility.yul\":2310:2349   */\n      tag_85\n      jump\t// in\n    tag_84:\n        /* \"#utility.yul\":2365:2436   */\n      tag_86\n        /* \"#utility.yul\":2429:2435   */\n      dup2\n        /* \"#utility.yul\":2424:2427   */\n      dup6\n        /* \"#utility.yul\":2365:2436   */\n      tag_87\n      jump\t// in\n    tag_86:\n        /* \"#utility.yul\":2358:2436   */\n      swap4\n      pop\n        /* \"#utility.yul\":2445:2497   */\n      tag_88\n        /* \"#utility.yul\":2490:2496   */\n      dup2\n        /* \"#utility.yul\":2485:2488   */\n      dup6\n        /* \"#utility.yul\":2478:2482   */\n      0x20\n        /* \"#utility.yul\":2471:2476   */\n      dup7\n        /* \"#utility.yul\":2467:2483   */\n      add\n        /* \"#utility.yul\":2445:2497   */\n      tag_89\n      jump\t// in\n    tag_88:\n        /* \"#utility.yul\":2522:2551   */\n      tag_90\n        /* \"#utility.yul\":2544:2550   */\n      dup2\n        /* \"#utility.yul\":2522:2551   */\n      tag_91\n      jump\t// in\n    tag_90:\n        /* \"#utility.yul\":2517:2520   */\n      dup5\n        /* \"#utility.yul\":2513:2552   */\n      add\n        /* \"#utility.yul\":2506:2552   */\n      swap2\n      pop\n        /* \"#utility.yul\":2286:2558   */\n      pop\n        /* \"#utility.yul\":2194:2558   */\n      swap3\n      swap2\n      pop\n      pop\n      jump\t// out\n        /* \"#utility.yul\":2564:2987   */\n    tag_14:\n        /* \"#utility.yul\":2705:2709   */\n      0x00\n        /* \"#utility.yul\":2743:2745   */\n      0x40\n        /* \"#utility.yul\":2732:2741   */\n      dup3\n        /* \"#utility.yul\":2728:2746   */\n      add\n        /* \"#utility.yul\":2720:2746   */\n      swap1\n      pop\n        /* \"#utility.yul\":2792:2801   */\n      dup2\n        /* \"#utility.yul\":2786:2790   */\n      dup2\n        /* \"#utility.yul\":2782:2802   */\n      sub\n        /* \"#utility.yul\":2778:2779   */\n      0x00\n        /* \"#utility.yul\":2767:2776   */\n      dup4\n        /* \"#utility.yul\":2763:2780   */\n      add\n        /* \"#utility.yul\":2756:2803   */\n      mstore\n        /* \"#utility.yul\":2820:2898   */\n      tag_93\n        /* \"#utility.yul\":2893:2897   */\n      dup2\n        /* \"#utility.yul\":2884:2890   */\n      dup6\n        /* \"#utility.yul\":2820:2898   */\n      tag_82\n      jump\t// in\n    tag_93:\n        /* \"#utility.yul\":2812:2898   */\n      swap1\n      pop\n        /* \"#utility.yul\":2908:2980   */\n      tag_94\n        /* \"#utility.yul\":2976:2978   */\n      0x20\n        /* \"#utility.yul\":2965:2974   */\n      dup4\n        /* \"#utility.yul\":2961:2979   */\n      add\n        /* \"#utility.yul\":2952:2958   */\n      dup5\n        /* \"#utility.yul\":2908:2980   */\n      tag_78\n      jump\t// in\n    tag_94:\n        /* \"#utility.yul\":2564:2987   */\n      swap4\n      swap3\n      pop\n      pop\n      pop\n      jump\t// out\n        /* \"#utility.yul\":2993:3122   */\n    tag_45:\n        /* \"#utility.yul\":3027:3033   */\n      0x00\n        /* \"#utility.yul\":3054:3074   */\n      tag_96\n      tag_97\n      jump\t// in\n    tag_96:\n        /* \"#utility.yul\":3044:3074   */\n      swap1\n      pop\n        /* \"#utility.yul\":3083:3116   */\n      tag_98\n        /* \"#utility.yul\":3111:3115   */\n      dup3\n        /* \"#utility.yul\":3103:3109   */\n      dup3\n        /* \"#utility.yul\":3083:3116   */\n      tag_99\n      jump\t// in\n    tag_98:\n        /* \"#utility.yul\":2993:3122   */\n      swap2\n      swap1\n      pop\n      jump\t// out\n        /* \"#utility.yul\":3128:3203   */\n    tag_97:\n        /* \"#utility.yul\":3161:3167   */\n      0x00\n        /* \"#utility.yul\":3194:3196   */\n      0x40\n        /* \"#utility.yul\":3188:3197   */\n      mload\n        /* \"#utility.yul\":3178:3197   */\n      swap1\n      pop\n        /* \"#utility.yul\":3128:3203   */\n      swap1\n      jump\t// out\n        /* \"#utility.yul\":3209:3517   */\n    tag_44:\n        /* \"#utility.yul\":3271:3275   */\n      0x00\n        /* \"#utility.yul\":3361:3379   */\n      0xffffffffffffffff\n        /* \"#utility.yul\":3353:3359   */\n      dup3\n        /* \"#utility.yul\":3350:3380   */\n      gt\n        /* \"#utility.yul\":3347:3403   */\n      iszero\n      tag_102\n      jumpi\n        /* \"#utility.yul\":3383:3401   */\n      tag_103\n      tag_104\n      jump\t// in\n    tag_103:\n        /* \"#utility.yul\":3347:3403   */\n    tag_102:\n        /* \"#utility.yul\":3421:3450   */\n      tag_105\n        /* \"#utility.yul\":3443:3449   */\n      dup3\n        /* \"#utility.yul\":3421:3450   */\n      tag_91\n      jump\t// in\n    tag_105:\n        /* \"#utility.yul\":3413:3450   */\n      swap1\n      pop\n        /* \"#utility.yul\":3505:3509   */\n      0x20\n        /* \"#utility.yul\":3499:3503   */\n      dup2\n        /* \"#utility.yul\":3495:3510   */\n      add\n        /* \"#utility.yul\":3487:3510   */\n      swap1\n      pop\n        /* \"#utility.yul\":3209:3517   */\n      swap2\n      swap1\n      pop\n      jump\t// out\n        /* \"#utility.yul\":3523:3622   */\n    tag_85:\n        /* \"#utility.yul\":3575:3581   */\n      0x00\n        /* \"#utility.yul\":3609:3614   */\n      dup2\n        /* \"#utility.yul\":3603:3615   */\n      mload\n        /* \"#utility.yul\":3593:3615   */\n      swap1\n      pop\n        /* \"#utility.yul\":3523:3622   */\n      swap2\n      swap1\n      pop\n      jump\t// out\n        /* \"#utility.yul\":3628:3797   */\n    tag_87:\n        /* \"#utility.yul\":3712:3723   */\n      0x00\n        /* \"#utility.yul\":3746:3752   */\n      dup3\n        /* \"#utility.yul\":3741:3744   */\n      dup3\n        /* \"#utility.yul\":3734:3753   */\n      mstore\n        /* \"#utility.yul\":3786:3790   */\n      0x20\n        /* \"#utility.yul\":3781:3784   */\n      dup3\n        /* \"#utility.yul\":3777:3791   */\n      add\n        /* \"#utility.yul\":3762:3791   */\n      swap1\n      pop\n        /* \"#utility.yul\":3628:3797   */\n      swap3\n      swap2\n      pop\n      pop\n      jump\t// out\n        /* \"#utility.yul\":3803:4108   */\n    tag_17:\n        /* \"#utility.yul\":3843:3846   */\n      0x00\n        /* \"#utility.yul\":3862:3882   */\n      tag_109\n        /* \"#utility.yul\":3880:3881   */\n      dup3\n        /* \"#utility.yul\":3862:3882   */\n      tag_110\n      jump\t// in\n    tag_109:\n        /* \"#utility.yul\":3857:3882   */\n      swap2\n      pop\n        /* \"#utility.yul\":3896:3916   */\n      tag_111\n        /* \"#utility.yul\":3914:3915   */\n      dup4\n        /* \"#utility.yul\":3896:3916   */\n      tag_110\n      jump\t// in\n    tag_111:\n        /* \"#utility.yul\":3891:3916   */\n      swap3\n      pop\n        /* \"#utility.yul\":4050:4051   */\n      dup3\n        /* \"#utility.yul\":3982:4048   */\n      0xffffffffffffffffffffffffffffffffffffffffffffffffffffffffffffffff\n        /* \"#utility.yul\":3978:4052   */\n      sub\n        /* \"#utility.yul\":3975:3976   */\n      dup3\n        /* \"#utility.yul\":3972:4053   */\n      gt\n        /* \"#utility.yul\":3969:4076   */\n      iszero\n      tag_112\n      jumpi\n        /* \"#utility.yul\":4056:4074   */\n      tag_113\n      tag_114\n      jump\t// in\n    tag_113:\n        /* \"#utility.yul\":3969:4076   */\n    tag_112:\n        /* \"#utility.yul\":4100:4101   */\n      dup3\n        /* \"#utility.yul\":4097:4098   */\n      dup3\n        /* \"#utility.yul\":4093:4102   */\n      add\n        /* \"#utility.yul\":4086:4102   */\n      swap1\n      pop\n        /* \"#utility.yul\":3803:4108   */\n      swap3\n      swap2\n      pop\n      pop\n      jump\t// out\n        /* \"#utility.yul\":4114:4210   */\n    tag_81:\n        /* \"#utility.yul\":4151:4158   */\n      0x00\n        /* \"#utility.yul\":4180:4204   */\n      tag_116\n        /* \"#utility.yul\":4198:4203   */\n      dup3\n        /* \"#utility.yul\":4180:4204   */\n      tag_117\n      jump\t// in\n    tag_116:\n        /* \"#utility.yul\":4169:4204   */\n      swap1\n      pop\n        /* \"#utility.yul\":4114:4210   */\n      swap2\n      swap1\n      pop\n      jump\t// out\n        /* \"#utility.yul\":4216:4342   */\n    tag_117:\n        /* \"#utility.yul\":4253:4260   */\n      0x00\n        /* \"#utility.yul\":4293:4335   */\n      0xffffffffffffffffffffffffffffffffffffffff\n        /* \"#utility.yul\":4286:4291   */\n      dup3\n        /* \"#utility.yul\":4282:4336   */\n      and\n        /* \"#utility.yul\":4271:4336   */\n      swap1\n      pop\n        /* \"#utility.yul\":4216:4342   */\n      swap2\n      swap1\n      pop\n      jump\t// out\n        /* \"#utility.yul\":4348:4425   */\n    tag_110:\n        /* \"#utility.yul\":4385:4392   */\n      0x00\n        /* \"#utility.yul\":4414:4419   */\n      dup2\n        /* \"#utility.yul\":4403:4419   */\n      swap1\n      pop\n        /* \"#utility.yul\":4348:4425   */\n      swap2\n      swap1\n      pop\n      jump\t// out\n        /* \"#utility.yul\":4431:4585   */\n    tag_50:\n        /* \"#utility.yul\":4515:4521   */\n      dup3\n        /* \"#utility.yul\":4510:4513   */\n      dup2\n        /* \"#utility.yul\":4505:4508   */\n      dup4\n        /* \"#utility.yul\":4492:4522   */\n      calldatacopy\n        /* \"#utility.yul\":4577:4578   */\n      0x00\n        /* \"#utility.yul\":4568:4574   */\n      dup4\n        /* \"#utility.yul\":4563:4566   */\n      dup4\n        /* \"#utility.yul\":4559:4575   */\n      add\n        /* \"#utility.yul\":4552:4579   */\n      mstore\n        /* \"#utility.yul\":4431:4585   */\n      pop\n      pop\n      pop\n      jump\t// out\n        /* \"#utility.yul\":4591:4898   */\n    tag_89:\n        /* \"#utility.yul\":4659:4660   */\n      0x00\n        /* \"#utility.yul\":4669:4782   */\n    tag_122:\n        /* \"#utility.yul\":4683:4689   */\n      dup4\n        /* \"#utility.yul\":4680:4681   */\n      dup2\n        /* \"#utility.yul\":4677:4690   */\n      lt\n        /* \"#utility.yul\":4669:4782   */\n      iszero\n      tag_124\n      jumpi\n        /* \"#utility.yul\":4768:4769   */\n      dup1\n        /* \"#utility.yul\":4763:4766   */\n      dup3\n        /* \"#utility.yul\":4759:4770   */\n      add\n        /* \"#utility.yul\":4753:4771   */\n      mload\n        /* \"#utility.yul\":4749:4750   */\n      dup2\n        /* \"#utility.yul\":4744:4747   */\n      dup5\n        /* \"#utility.yul\":4740:4751   */\n      add\n        /* \"#utility.yul\":4733:4772   */\n      mstore\n        /* \"#utility.yul\":4705:4707   */\n      0x20\n        /* \"#utility.yul\":4702:4703   */\n      dup2\n        /* \"#utility.yul\":4698:4708   */\n      add\n        /* \"#utility.yul\":4693:4708   */\n      swap1\n      pop\n        /* \"#utility.yul\":4669:4782   */\n      jump(tag_122)\n    tag_124:\n        /* \"#utility.yul\":4800:4806   */\n      dup4\n        /* \"#utility.yul\":4797:4798   */\n      dup2\n        /* \"#utility.yul\":4794:4807   */\n      gt\n        /* \"#utility.yul\":4791:4892   */\n      iszero\n      tag_125\n      jumpi\n        /* \"#utility.yul\":4880:4881   */\n      0x00\n        /* \"#utility.yul\":4871:4877   */\n      dup5\n        /* \"#utility.yul\":4866:4869   */\n      dup5\n        /* \"#utility.yul\":4862:4878   */\n      add\n        /* \"#utility.yul\":4855:4882   */\n      mstore\n        /* \"#utility.yul\":4791:4892   */\n    tag_125:\n        /* \"#utility.yul\":4640:4898   */\n      pop\n        /* \"#utility.yul\":4591:4898   */\n      pop\n      pop\n      pop\n      jump\t// out\n        /* \"#utility.yul\":4904:5224   */\n    tag_24:\n        /* \"#utility.yul\":4948:4954   */\n      0x00\n        /* \"#utility.yul\":4985:4986   */\n      0x02\n        /* \"#utility.yul\":4979:4983   */\n      dup3\n        /* \"#utility.yul\":4975:4987   */\n      div\n        /* \"#utility.yul\":4965:4987   */\n      swap1\n      pop\n        /* \"#utility.yul\":5032:5033   */\n      0x01\n        /* \"#utility.yul\":5026:5030   */\n      dup3\n        /* \"#utility.yul\":5022:5034   */\n      and\n        /* \"#utility.yul\":5053:5071   */\n      dup1\n        /* \"#utility.yul\":5043:5124   */\n      tag_127\n      jumpi\n        /* \"#utility.yul\":5109:5113   */\n      0x7f\n        /* \"#utility.yul\":5101:5107   */\n      dup3\n        /* \"#utility.yul\":5097:5114   */\n      and\n        /* \"#utility.yul\":5087:5114   */\n      swap2\n      pop\n        /* \"#utility.yul\":5043:5124   */\n    tag_127:\n        /* \"#utility.yul\":5171:5173   */\n      0x20\n        /* \"#utility.yul\":5163:5169   */\n      dup3\n        /* \"#utility.yul\":5160:5174   */\n      lt\n        /* \"#utility.yul\":5140:5158   */\n      dup2\n        /* \"#utility.yul\":5137:5175   */\n      eq\n        /* \"#utility.yul\":5134:5218   */\n      iszero\n      tag_128\n      jumpi\n        /* \"#utility.yul\":5190:5208   */\n      tag_129\n      tag_130\n      jump\t// in\n    tag_129:\n        /* \"#utility.yul\":5134:5218   */\n    tag_128:\n        /* \"#utility.yul\":4955:5224   */\n      pop\n        /* \"#utility.yul\":4904:5224   */\n      swap2\n      swap1\n      pop\n      jump\t// out\n        /* \"#utility.yul\":5230:5511   */\n    tag_99:\n        /* \"#utility.yul\":5313:5340   */\n      tag_132\n        /* \"#utility.yul\":5335:5339   */\n      dup3\n        /* \"#utility.yul\":5313:5340   */\n      tag_91\n      jump\t// in\n    tag_132:\n        /* \"#utility.yul\":5305:5311   */\n      dup2\n        /* \"#utility.yul\":5301:5341   */\n      add\n        /* \"#utility.yul\":5443:5449   */\n      dup2\n        /* \"#utility.yul\":5431:5441   */\n      dup2\n        /* \"#utility.yul\":5428:5450   */\n      lt\n        /* \"#utility.yul\":5407:5425   */\n      0xffffffffffffffff\n        /* \"#utility.yul\":5395:5405   */\n      dup3\n        /* \"#utility.yul\":5392:5426   */\n      gt\n        /* \"#utility.yul\":5389:5451   */\n      or\n        /* \"#utility.yul\":5386:5474   */\n      iszero\n      tag_133\n      jumpi\n        /* \"#utility.yul\":5454:5472   */\n      tag_134\n      tag_104\n      jump\t// in\n    tag_134:\n        /* \"#utility.yul\":5386:5474   */\n    tag_133:\n        /* \"#utility.yul\":5494:5504   */\n      dup1\n        /* \"#utility.yul\":5490:5492   */\n      0x40\n        /* \"#utility.yul\":5483:5505   */\n      mstore\n        /* \"#utility.yul\":5273:5511   */\n      pop\n        /* \"#utility.yul\":5230:5511   */\n      pop\n      pop\n      jump\t// out\n        /* \"#utility.yul\":5517:5750   */\n    tag_21:\n        /* \"#utility.yul\":5556:5559   */\n      0x00\n        /* \"#utility.yul\":5579:5603   */\n      tag_136\n        /* \"#utility.yul\":5597:5602   */\n      dup3\n        /* \"#utility.yul\":5579:5603   */\n      tag_110\n      jump\t// in\n    tag_136:\n        /* \"#utility.yul\":5570:5603   */\n      swap2\n      pop\n        /* \"#utility.yul\":5625:5691   */\n      0xffffffffffffffffffffffffffffffffffffffffffffffffffffffffffffffff\n        /* \"#utility.yul\":5618:5623   */\n      dup3\n        /* \"#utility.yul\":5615:5692   */\n      eq\n        /* \"#utility.yul\":5612:5715   */\n      iszero\n      tag_137\n      jumpi\n        /* \"#utility.yul\":5695:5713   */\n      tag_138\n      tag_114\n      jump\t// in\n    tag_138:\n        /* \"#utility.yul\":5612:5715   */\n    tag_137:\n        /* \"#utility.yul\":5742:5743   */\n      0x01\n        /* \"#utility.yul\":5735:5740   */\n      dup3\n        /* \"#utility.yul\":5731:5744   */\n      add\n        /* \"#utility.yul\":5724:5744   */\n      swap1\n      pop\n        /* \"#utility.yul\":5517:5750   */\n      swap2\n      swap1\n      pop\n      jump\t// out\n        /* \"#utility.yul\":5756:5936   */\n    tag_114:\n        /* \"#utility.yul\":5804:5881   */\n      0x4e487b7100000000000000000000000000000000000000000000000000000000\n        /* \"#utility.yul\":5801:5802   */\n      0x00\n        /* \"#utility.yul\":5794:5882   */\n      mstore\n        /* \"#utility.yul\":5901:5905   */\n      0x11\n        /* \"#utility.yul\":5898:5899   */\n      0x04\n        /* \"#utility.yul\":5891:5906   */\n      mstore\n        /* \"#utility.yul\":5925:5929   */\n      0x24\n        /* \"#utility.yul\":5922:5923   */\n      0x00\n        /* \"#utility.yul\":5915:5930   */\n      revert\n        /* \"#utility.yul\":5942:6122   */\n    tag_130:\n        /* \"#utility.yul\":5990:6067   */\n      0x4e487b7100000000000000000000000000000000000000000000000000000000\n        /* \"#utility.yul\":5987:5988   */\n      0x00\n        /* \"#utility.yul\":5980:6068   */\n      mstore\n        /* \"#utility.yul\":6087:6091   */\n      0x22\n        /* \"#utility.yul\":6084:6085   */\n      0x04\n        /* \"#utility.yul\":6077:6092   */\n      mstore\n        /* \"#utility.yul\":6111:6115   */\n      0x24\n        /* \"#utility.yul\":6108:6109   */\n      0x00\n        /* \"#utility.yul\":6101:6116   */\n      revert\n        /* \"#utility.yul\":6128:6308   */\n    tag_104:\n        /* \"#utility.yul\":6176:6253   */\n      0x4e487b7100000000000000000000000000000000000000000000000000000000\n        /* \"#utility.yul\":6173:6174   */\n      0x00\n        /* \"#utility.yul\":6166:6254   */\n      mstore\n        /* \"#utility.yul\":6273:6277   */\n      0x41\n        /* \"#utility.yul\":6270:6271   */\n      0x04\n        /* \"#utility.yul\":6263:6278   */\n      mstore\n        /* \"#utility.yul\":6297:6301   */\n      0x24\n        /* \"#utility.yul\":6294:6295   */\n      0x00\n        /* \"#utility.yul\":6287:6302   */\n      revert\n        /* \"#utility.yul\":6314:6431   */\n    tag_59:\n        /* \"#utility.yul\":6423:6424   */\n      0x00\n        /* \"#utility.yul\":6420:6421   */\n      dup1\n        /* \"#utility.yul\":6413:6425   */\n      revert\n        /* \"#utility.yul\":6437:6554   */\n    tag_48:\n        /* \"#utility.yul\":6546:6547   */\n      0x00\n        /* \"#utility.yul\":6543:6544   */\n      dup1\n        /* \"#utility.yul\":6536:6548   */\n      revert\n        /* \"#utility.yul\":6560:6677   */\n    tag_71:\n        /* \"#utility.yul\":6669:6670   */\n      0x00\n        /* \"#utility.yul\":6666:6667   */\n      dup1\n        /* \"#utility.yul\":6659:6671   */\n      revert\n        /* \"#utility.yul\":6683:6800   */\n    tag_68:\n        /* \"#utility.yul\":6792:6793   */\n      0x00\n        /* \"#utility.yul\":6789:6790   */\n      dup1\n        /* \"#utility.yul\":6782:6794   */\n      revert\n        /* \"#utility.yul\":6806:6908   */\n    tag_91:\n        /* \"#utility.yul\":6847:6853   */\n      0x00\n        /* \"#utility.yul\":6898:6900   */\n      0x1f\n        /* \"#utility.yul\":6894:6901   */\n      not\n        /* \"#utility.yul\":6889:6891   */\n      0x1f\n        /* \"#utility.yul\":6882:6887   */\n      dup4\n        /* \"#utility.yul\":6878:6892   */\n      add\n        /* \"#utility.yul\":6874:6902   */\n      and\n        /* \"#utility.yul\":6864:6902   */\n      swap1\n      pop\n        /* \"#utility.yul\":6806:6908   */\n      swap2\n      swap1\n      pop\n      jump\t// out\n        /* \"#utility.yul\":6914:7036   */\n    tag_54:\n        /* \"#utility.yul\":6987:7011   */\n      tag_148\n        /* \"#utility.yul\":7005:7010   */\n      dup2\n        /* \"#utility.yul\":6987:7011   */\n      tag_81\n      jump\t// in\n    tag_148:\n        /* \"#utility.yul\":6980:6985   */\n      dup2\n        /* \"#utility.yul\":6977:7012   */\n      eq\n        /* \"#utility.yul\":6967:7030   */\n      tag_149\n      jumpi\n        /* \"#utility.yul\":7026:7027   */\n      0x00\n        /* \"#utility.yul\":7023:7024   */\n      dup1\n        /* \"#utility.yul\":7016:7028   */\n      revert\n        /* \"#utility.yul\":6967:7030   */\n    tag_149:\n        /* \"#utility.yul\":6914:7036   */\n      pop\n      jump\t// out\n        /* \"#utility.yul\":7042:7164   */\n    tag_64:\n        /* \"#utility.yul\":7115:7139   */\n      tag_151\n        /* \"#utility.yul\":7133:7138   */\n      dup2\n        /* \"#utility.yul\":7115:7139   */\n      tag_110\n      jump\t// in\n    tag_151:\n        /* \"#utility.yul\":7108:7113   */\n      dup2\n        /* \"#utility.yul\":7105:7140   */\n      eq\n        /* \"#utility.yul\":7095:7158   */\n      tag_152\n      jumpi\n        /* \"#utility.yul\":7154:7155   */\n      0x00\n        /* \"#utility.yul\":7151:7152   */\n      dup1\n        /* \"#utility.yul\":7144:7156   */\n      revert\n        /* \"#utility.yul\":7095:7158   */\n    tag_152:\n        /* \"#utility.yul\":7042:7164   */\n      pop\n      jump\t// out\n\n    auxdata: 0xa2646970667358221220d7a9f0e209734a006659de19244f15a129375da879f68b2eacfce09ac80f603764736f6c63430008070033\n}\n",
				"bytecode": {
					"linkReferences": {},
					"object": "6080604052600060015534801561001557600080fd5b50610791806100256000396000f3fe608060405234801561001057600080fd5b50600436106100365760003560e01c80636b42cf4d1461003b578063feec91d314610057575b600080fd5b61005560048036038101906100509190610388565b610088565b005b610071600480360381019061006c91906103e4565b610167565b60405161007f929190610459565b60405180910390f35b6040518060600160405280600180546100a191906104fb565b81526020018381526020018273ffffffffffffffffffffffffffffffffffffffff16815250600080600154815260200190815260200160002060008201518160000155602082015181600101908051906020019061010092919061024b565b5060408201518160020160006101000a81548173ffffffffffffffffffffffffffffffffffffffff021916908373ffffffffffffffffffffffffffffffffffffffff1602179055509050506001600081548092919061015e90610632565b91905055505050565b6060600080600084815260200190815260200160002060010160008085815260200190815260200160002060020160009054906101000a900473ffffffffffffffffffffffffffffffffffffffff168180546101c2906105cf565b80601f01602080910402602001604051908101604052809291908181526020018280546101ee906105cf565b801561023b5780601f106102105761010080835404028352916020019161023b565b820191906000526020600020905b81548152906001019060200180831161021e57829003601f168201915b5050505050915091509150915091565b828054610257906105cf565b90600052602060002090601f01602090048101928261027957600085556102c0565b82601f1061029257805160ff19168380011785556102c0565b828001600101855582156102c0579182015b828111156102bf5782518255916020019190600101906102a4565b5b5090506102cd91906102d1565b5090565b5b808211156102ea5760008160009055506001016102d2565b5090565b60006103016102fc846104ae565b610489565b90508281526020810184848401111561031d5761031c61070d565b5b61032884828561058d565b509392505050565b60008135905061033f8161072d565b92915050565b600082601f83011261035a57610359610708565b5b813561036a8482602086016102ee565b91505092915050565b60008135905061038281610744565b92915050565b6000806040838503121561039f5761039e610717565b5b600083013567ffffffffffffffff8111156103bd576103bc610712565b5b6103c985828601610345565b92505060206103da85828601610330565b9150509250929050565b6000602082840312156103fa576103f9610717565b5b600061040884828501610373565b91505092915050565b61041a81610551565b82525050565b600061042b826104df565b61043581856104ea565b935061044581856020860161059c565b61044e8161071c565b840191505092915050565b600060408201905081810360008301526104738185610420565b90506104826020830184610411565b9392505050565b60006104936104a4565b905061049f8282610601565b919050565b6000604051905090565b600067ffffffffffffffff8211156104c9576104c86106d9565b5b6104d28261071c565b9050602081019050919050565b600081519050919050565b600082825260208201905092915050565b600061050682610583565b915061051183610583565b9250827fffffffffffffffffffffffffffffffffffffffffffffffffffffffffffffffff038211156105465761054561067b565b5b828201905092915050565b600061055c82610563565b9050919050565b600073ffffffffffffffffffffffffffffffffffffffff82169050919050565b6000819050919050565b82818337600083830152505050565b60005b838110156105ba57808201518184015260208101905061059f565b838111156105c9576000848401525b50505050565b600060028204905060018216806105e757607f821691505b602082108114156105fb576105fa6106aa565b5b50919050565b61060a8261071c565b810181811067ffffffffffffffff82111715610629576106286106d9565b5b80604052505050565b600061063d82610583565b91507fffffffffffffffffffffffffffffffffffffffffffffffffffffffffffffffff8214156106705761066f61067b565b5b600182019050919050565b7f4e487b7100000000000000000000000000000000000000000000000000000000600052601160045260246000fd5b7f4e487b7100000000000000000000000000000000000000000000000000000000600052602260045260246000fd5b7f4e487b7100000000000000000000000000000000000000000000000000000000600052604160045260246000fd5b600080fd5b600080fd5b600080fd5b600080fd5b6000601f19601f8301169050919050565b61073681610551565b811461074157600080fd5b50565b61074d81610583565b811461075857600080fd5b5056fea2646970667358221220d7a9f0e209734a006659de19244f15a129375da879f68b2eacfce09ac80f603764736f6c63430008070033",
					"opcodes": "PUSH1 0x80 PUSH1 0x40 MSTORE PUSH1 0x0 PUSH1 0x1 SSTORE CALLVALUE DUP1 ISZERO PUSH2 0x15 JUMPI PUSH1 0x0 DUP1 REVERT JUMPDEST POP PUSH2 0x791 DUP1 PUSH2 0x25 PUSH1 0x0 CODECOPY PUSH1 0x0 RETURN INVALID PUSH1 0x80 PUSH1 0x40 MSTORE CALLVALUE DUP1 ISZERO PUSH2 0x10 JUMPI PUSH1 0x0 DUP1 REVERT JUMPDEST POP PUSH1 0x4 CALLDATASIZE LT PUSH2 0x36 JUMPI PUSH1 0x0 CALLDATALOAD PUSH1 0xE0 SHR DUP1 PUSH4 0x6B42CF4D EQ PUSH2 0x3B JUMPI DUP1 PUSH4 0xFEEC91D3 EQ PUSH2 0x57 JUMPI JUMPDEST PUSH1 0x0 DUP1 REVERT JUMPDEST PUSH2 0x55 PUSH1 0x4 DUP1 CALLDATASIZE SUB DUP2 ADD SWAP1 PUSH2 0x50 SWAP2 SWAP1 PUSH2 0x388 JUMP JUMPDEST PUSH2 0x88 JUMP JUMPDEST STOP JUMPDEST PUSH2 0x71 PUSH1 0x4 DUP1 CALLDATASIZE SUB DUP2 ADD SWAP1 PUSH2 0x6C SWAP2 SWAP1 PUSH2 0x3E4 JUMP JUMPDEST PUSH2 0x167 JUMP JUMPDEST PUSH1 0x40 MLOAD PUSH2 0x7F SWAP3 SWAP2 SWAP1 PUSH2 0x459 JUMP JUMPDEST PUSH1 0x40 MLOAD DUP1 SWAP2 SUB SWAP1 RETURN JUMPDEST PUSH1 0x40 MLOAD DUP1 PUSH1 0x60 ADD PUSH1 0x40 MSTORE DUP1 PUSH1 0x1 DUP1 SLOAD PUSH2 0xA1 SWAP2 SWAP1 PUSH2 0x4FB JUMP JUMPDEST DUP2 MSTORE PUSH1 0x20 ADD DUP4 DUP2 MSTORE PUSH1 0x20 ADD DUP3 PUSH20 0xFFFFFFFFFFFFFFFFFFFFFFFFFFFFFFFFFFFFFFFF AND DUP2 MSTORE POP PUSH1 0x0 DUP1 PUSH1 0x1 SLOAD DUP2 MSTORE PUSH1 0x20 ADD SWAP1 DUP2 MSTORE PUSH1 0x20 ADD PUSH1 0x0 KECCAK256 PUSH1 0x0 DUP3 ADD MLOAD DUP2 PUSH1 0x0 ADD SSTORE PUSH1 0x20 DUP3 ADD MLOAD DUP2 PUSH1 0x1 ADD SWAP1 DUP1 MLOAD SWAP1 PUSH1 0x20 ADD SWAP1 PUSH2 0x100 SWAP3 SWAP2 SWAP1 PUSH2 0x24B JUMP JUMPDEST POP PUSH1 0x40 DUP3 ADD MLOAD DUP2 PUSH1 0x2 ADD PUSH1 0x0 PUSH2 0x100 EXP DUP2 SLOAD DUP2 PUSH20 0xFFFFFFFFFFFFFFFFFFFFFFFFFFFFFFFFFFFFFFFF MUL NOT AND SWAP1 DUP4 PUSH20 0xFFFFFFFFFFFFFFFFFFFFFFFFFFFFFFFFFFFFFFFF AND MUL OR SWAP1 SSTORE POP SWAP1 POP POP PUSH1 0x1 PUSH1 0x0 DUP2 SLOAD DUP1 SWAP3 SWAP2 SWAP1 PUSH2 0x15E SWAP1 PUSH2 0x632 JUMP JUMPDEST SWAP2 SWAP1 POP SSTORE POP POP POP JUMP JUMPDEST PUSH1 0x60 PUSH1 0x0 DUP1 PUSH1 0x0 DUP5 DUP2 MSTORE PUSH1 0x20 ADD SWAP1 DUP2 MSTORE PUSH1 0x20 ADD PUSH1 0x0 KECCAK256 PUSH1 0x1 ADD PUSH1 0x0 DUP1 DUP6 DUP2 MSTORE PUSH1 0x20 ADD SWAP1 DUP2 MSTORE PUSH1 0x20 ADD PUSH1 0x0 KECCAK256 PUSH1 0x2 ADD PUSH1 0x0 SWAP1 SLOAD SWAP1 PUSH2 0x100 EXP SWAP1 DIV PUSH20 0xFFFFFFFFFFFFFFFFFFFFFFFFFFFFFFFFFFFFFFFF AND DUP2 DUP1 SLOAD PUSH2 0x1C2 SWAP1 PUSH2 0x5CF JUMP JUMPDEST DUP1 PUSH1 0x1F ADD PUSH1 0x20 DUP1 SWAP2 DIV MUL PUSH1 0x20 ADD PUSH1 0x40 MLOAD SWAP1 DUP2 ADD PUSH1 0x40 MSTORE DUP1 SWAP3 SWAP2 SWAP1 DUP2 DUP2 MSTORE PUSH1 0x20 ADD DUP3 DUP1 SLOAD PUSH2 0x1EE SWAP1 PUSH2 0x5CF JUMP JUMPDEST DUP1 ISZERO PUSH2 0x23B JUMPI DUP1 PUSH1 0x1F LT PUSH2 0x210 JUMPI PUSH2 0x100 DUP1 DUP4 SLOAD DIV MUL DUP4 MSTORE SWAP2 PUSH1 0x20 ADD SWAP2 PUSH2 0x23B JUMP JUMPDEST DUP3 ADD SWAP2 SWAP1 PUSH1 0x0 MSTORE PUSH1 0x20 PUSH1 0x0 KECCAK256 SWAP1 JUMPDEST DUP2 SLOAD DUP2 MSTORE SWAP1 PUSH1 0x1 ADD SWAP1 PUSH1 0x20 ADD DUP1 DUP4 GT PUSH2 0x21E JUMPI DUP3 SWAP1 SUB PUSH1 0x1F AND DUP3 ADD SWAP2 JUMPDEST POP POP POP POP POP SWAP2 POP SWAP2 POP SWAP2 POP SWAP2 POP SWAP2 JUMP JUMPDEST DUP3 DUP1 SLOAD PUSH2 0x257 SWAP1 PUSH2 0x5CF JUMP JUMPDEST SWAP1 PUSH1 0x0 MSTORE PUSH1 0x20 PUSH1 0x0 KECCAK256 SWAP1 PUSH1 0x1F ADD PUSH1 0x20 SWAP1 DIV DUP2 ADD SWAP3 DUP3 PUSH2 0x279 JUMPI PUSH1 0x0 DUP6 SSTORE PUSH2 0x2C0 JUMP JUMPDEST DUP3 PUSH1 0x1F LT PUSH2 0x292 JUMPI DUP1 MLOAD PUSH1 0xFF NOT AND DUP4 DUP1 ADD OR DUP6 SSTORE PUSH2 0x2C0 JUMP JUMPDEST DUP3 DUP1 ADD PUSH1 0x1 ADD DUP6 SSTORE DUP3 ISZERO PUSH2 0x2C0 JUMPI SWAP2 DUP3 ADD JUMPDEST DUP3 DUP2 GT ISZERO PUSH2 0x2BF JUMPI DUP3 MLOAD DUP3 SSTORE SWAP2 PUSH1 0x20 ADD SWAP2 SWAP1 PUSH1 0x1 ADD SWAP1 PUSH2 0x2A4 JUMP JUMPDEST JUMPDEST POP SWAP1 POP PUSH2 0x2CD SWAP2 SWAP1 PUSH2 0x2D1 JUMP JUMPDEST POP SWAP1 JUMP JUMPDEST JUMPDEST DUP1 DUP3 GT ISZERO PUSH2 0x2EA JUMPI PUSH1 0x0 DUP2 PUSH1 0x0 SWAP1 SSTORE POP PUSH1 0x1 ADD PUSH2 0x2D2 JUMP JUMPDEST POP SWAP1 JUMP JUMPDEST PUSH1 0x0 PUSH2 0x301 PUSH2 0x2FC DUP5 PUSH2 0x4AE JUMP JUMPDEST PUSH2 0x489 JUMP JUMPDEST SWAP1 POP DUP3 DUP2 MSTORE PUSH1 0x20 DUP2 ADD DUP5 DUP5 DUP5 ADD GT ISZERO PUSH2 0x31D JUMPI PUSH2 0x31C PUSH2 0x70D JUMP JUMPDEST JUMPDEST PUSH2 0x328 DUP5 DUP3 DUP6 PUSH2 0x58D JUMP JUMPDEST POP SWAP4 SWAP3 POP POP POP JUMP JUMPDEST PUSH1 0x0 DUP2 CALLDATALOAD SWAP1 POP PUSH2 0x33F DUP2 PUSH2 0x72D JUMP JUMPDEST SWAP3 SWAP2 POP POP JUMP JUMPDEST PUSH1 0x0 DUP3 PUSH1 0x1F DUP4 ADD SLT PUSH2 0x35A JUMPI PUSH2 0x359 PUSH2 0x708 JUMP JUMPDEST JUMPDEST DUP2 CALLDATALOAD PUSH2 0x36A DUP5 DUP3 PUSH1 0x20 DUP7 ADD PUSH2 0x2EE JUMP JUMPDEST SWAP2 POP POP SWAP3 SWAP2 POP POP JUMP JUMPDEST PUSH1 0x0 DUP2 CALLDATALOAD SWAP1 POP PUSH2 0x382 DUP2 PUSH2 0x744 JUMP JUMPDEST SWAP3 SWAP2 POP POP JUMP JUMPDEST PUSH1 0x0 DUP1 PUSH1 0x40 DUP4 DUP6 SUB SLT ISZERO PUSH2 0x39F JUMPI PUSH2 0x39E PUSH2 0x717 JUMP JUMPDEST JUMPDEST PUSH1 0x0 DUP4 ADD CALLDATALOAD PUSH8 0xFFFFFFFFFFFFFFFF DUP2 GT ISZERO PUSH2 0x3BD JUMPI PUSH2 0x3BC PUSH2 0x712 JUMP JUMPDEST JUMPDEST PUSH2 0x3C9 DUP6 DUP3 DUP7 ADD PUSH2 0x345 JUMP JUMPDEST SWAP3 POP POP PUSH1 0x20 PUSH2 0x3DA DUP6 DUP3 DUP7 ADD PUSH2 0x330 JUMP JUMPDEST SWAP2 POP POP SWAP3 POP SWAP3 SWAP1 POP JUMP JUMPDEST PUSH1 0x0 PUSH1 0x20 DUP3 DUP5 SUB SLT ISZERO PUSH2 0x3FA JUMPI PUSH2 0x3F9 PUSH2 0x717 JUMP JUMPDEST JUMPDEST PUSH1 0x0 PUSH2 0x408 DUP5 DUP3 DUP6 ADD PUSH2 0x373 JUMP JUMPDEST SWAP2 POP POP SWAP3 SWAP2 POP POP JUMP JUMPDEST PUSH2 0x41A DUP2 PUSH2 0x551 JUMP JUMPDEST DUP3 MSTORE POP POP JUMP JUMPDEST PUSH1 0x0 PUSH2 0x42B DUP3 PUSH2 0x4DF JUMP JUMPDEST PUSH2 0x435 DUP2 DUP6 PUSH2 0x4EA JUMP JUMPDEST SWAP4 POP PUSH2 0x445 DUP2 DUP6 PUSH1 0x20 DUP7 ADD PUSH2 0x59C JUMP JUMPDEST PUSH2 0x44E DUP2 PUSH2 0x71C JUMP JUMPDEST DUP5 ADD SWAP2 POP POP SWAP3 SWAP2 POP POP JUMP JUMPDEST PUSH1 0x0 PUSH1 0x40 DUP3 ADD SWAP1 POP DUP2 DUP2 SUB PUSH1 0x0 DUP4 ADD MSTORE PUSH2 0x473 DUP2 DUP6 PUSH2 0x420 JUMP JUMPDEST SWAP1 POP PUSH2 0x482 PUSH1 0x20 DUP4 ADD DUP5 PUSH2 0x411 JUMP JUMPDEST SWAP4 SWAP3 POP POP POP JUMP JUMPDEST PUSH1 0x0 PUSH2 0x493 PUSH2 0x4A4 JUMP JUMPDEST SWAP1 POP PUSH2 0x49F DUP3 DUP3 PUSH2 0x601 JUMP JUMPDEST SWAP2 SWAP1 POP JUMP JUMPDEST PUSH1 0x0 PUSH1 0x40 MLOAD SWAP1 POP SWAP1 JUMP JUMPDEST PUSH1 0x0 PUSH8 0xFFFFFFFFFFFFFFFF DUP3 GT ISZERO PUSH2 0x4C9 JUMPI PUSH2 0x4C8 PUSH2 0x6D9 JUMP JUMPDEST JUMPDEST PUSH2 0x4D2 DUP3 PUSH2 0x71C JUMP JUMPDEST SWAP1 POP PUSH1 0x20 DUP2 ADD SWAP1 POP SWAP2 SWAP1 POP JUMP JUMPDEST PUSH1 0x0 DUP2 MLOAD SWAP1 POP SWAP2 SWAP1 POP JUMP JUMPDEST PUSH1 0x0 DUP3 DUP3 MSTORE PUSH1 0x20 DUP3 ADD SWAP1 POP SWAP3 SWAP2 POP POP JUMP JUMPDEST PUSH1 0x0 PUSH2 0x506 DUP3 PUSH2 0x583 JUMP JUMPDEST SWAP2 POP PUSH2 0x511 DUP4 PUSH2 0x583 JUMP JUMPDEST SWAP3 POP DUP3 PUSH32 0xFFFFFFFFFFFFFFFFFFFFFFFFFFFFFFFFFFFFFFFFFFFFFFFFFFFFFFFFFFFFFFFF SUB DUP3 GT ISZERO PUSH2 0x546 JUMPI PUSH2 0x545 PUSH2 0x67B JUMP JUMPDEST JUMPDEST DUP3 DUP3 ADD SWAP1 POP SWAP3 SWAP2 POP POP JUMP JUMPDEST PUSH1 0x0 PUSH2 0x55C DUP3 PUSH2 0x563 JUMP JUMPDEST SWAP1 POP SWAP2 SWAP1 POP JUMP JUMPDEST PUSH1 0x0 PUSH20 0xFFFFFFFFFFFFFFFFFFFFFFFFFFFFFFFFFFFFFFFF DUP3 AND SWAP1 POP SWAP2 SWAP1 POP JUMP JUMPDEST PUSH1 0x0 DUP2 SWAP1 POP SWAP2 SWAP1 POP JUMP JUMPDEST DUP3 DUP2 DUP4 CALLDATACOPY PUSH1 0x0 DUP4 DUP4 ADD MSTORE POP POP POP JUMP JUMPDEST PUSH1 0x0 JUMPDEST DUP4 DUP2 LT ISZERO PUSH2 0x5BA JUMPI DUP1 DUP3 ADD MLOAD DUP2 DUP5 ADD MSTORE PUSH1 0x20 DUP2 ADD SWAP1 POP PUSH2 0x59F JUMP JUMPDEST DUP4 DUP2 GT ISZERO PUSH2 0x5C9 JUMPI PUSH1 0x0 DUP5 DUP5 ADD MSTORE JUMPDEST POP POP POP POP JUMP JUMPDEST PUSH1 0x0 PUSH1 0x2 DUP3 DIV SWAP1 POP PUSH1 0x1 DUP3 AND DUP1 PUSH2 0x5E7 JUMPI PUSH1 0x7F DUP3 AND SWAP2 POP JUMPDEST PUSH1 0x20 DUP3 LT DUP2 EQ ISZERO PUSH2 0x5FB JUMPI PUSH2 0x5FA PUSH2 0x6AA JUMP JUMPDEST JUMPDEST POP SWAP2 SWAP1 POP JUMP JUMPDEST PUSH2 0x60A DUP3 PUSH2 0x71C JUMP JUMPDEST DUP2 ADD DUP2 DUP2 LT PUSH8 0xFFFFFFFFFFFFFFFF DUP3 GT OR ISZERO PUSH2 0x629 JUMPI PUSH2 0x628 PUSH2 0x6D9 JUMP JUMPDEST JUMPDEST DUP1 PUSH1 0x40 MSTORE POP POP POP JUMP JUMPDEST PUSH1 0x0 PUSH2 0x63D DUP3 PUSH2 0x583 JUMP JUMPDEST SWAP2 POP PUSH32 0xFFFFFFFFFFFFFFFFFFFFFFFFFFFFFFFFFFFFFFFFFFFFFFFFFFFFFFFFFFFFFFFF DUP3 EQ ISZERO PUSH2 0x670 JUMPI PUSH2 0x66F PUSH2 0x67B JUMP JUMPDEST JUMPDEST PUSH1 0x1 DUP3 ADD SWAP1 POP SWAP2 SWAP1 POP JUMP JUMPDEST PUSH32 0x4E487B7100000000000000000000000000000000000000000000000000000000 PUSH1 0x0 MSTORE PUSH1 0x11 PUSH1 0x4 MSTORE PUSH1 0x24 PUSH1 0x0 REVERT JUMPDEST PUSH32 0x4E487B7100000000000000000000000000000000000000000000000000000000 PUSH1 0x0 MSTORE PUSH1 0x22 PUSH1 0x4 MSTORE PUSH1 0x24 PUSH1 0x0 REVERT JUMPDEST PUSH32 0x4E487B7100000000000000000000000000000000000000000000000000000000 PUSH1 0x0 MSTORE PUSH1 0x41 PUSH1 0x4 MSTORE PUSH1 0x24 PUSH1 0x0 REVERT JUMPDEST PUSH1 0x0 DUP1 REVERT JUMPDEST PUSH1 0x0 DUP1 REVERT JUMPDEST PUSH1 0x0 DUP1 REVERT JUMPDEST PUSH1 0x0 DUP1 REVERT JUMPDEST PUSH1 0x0 PUSH1 0x1F NOT PUSH1 0x1F DUP4 ADD AND SWAP1 POP SWAP2 SWAP1 POP JUMP JUMPDEST PUSH2 0x736 DUP2 PUSH2 0x551 JUMP JUMPDEST DUP2 EQ PUSH2 0x741 JUMPI PUSH1 0x0 DUP1 REVERT JUMPDEST POP JUMP JUMPDEST PUSH2 0x74D DUP2 PUSH2 0x583 JUMP JUMPDEST DUP2 EQ PUSH2 0x758 JUMPI PUSH1 0x0 DUP1 REVERT JUMPDEST POP JUMP INVALID LOG2 PUSH5 0x6970667358 0x22 SLT KECCAK256 0xD7 0xA9 CREATE 0xE2 MULMOD PUSH20 0x4A006659DE19244F15A129375DA879F68B2EACFC 0xE0 SWAP11 0xC8 0xF PUSH1 0x37 PUSH5 0x736F6C6343 STOP ADDMOD SMOD STOP CALLER "
				},
				"gasEstimates": {
					"creation": {
						"codeDepositCost": "387400",
						"executionCost": "5430",
						"totalCost": "392830"
					},
					"external": {
						"createMember(string,address)": "infinite",
						"showMember(uint256)": "infinite"
					}
				},
				"methodIdentifiers": {
					"createMember(string,address)": "6b42cf4d",
					"showMember(uint256)": "feec91d3"
				}
			},
			"storageLayout": {
				"storage": [
					{
						"astId": 13,
						"contract": "contracts/Members.sol:Members",
						"label": "members",
						"offset": 0,
						"slot": "0",
						"type": "t_mapping(t_uint256,t_struct(Member)8_storage)"
					},
					{
						"astId": 16,
						"contract": "contracts/Members.sol:Members",
						"label": "AllMembers",
						"offset": 0,
						"slot": "1",
						"type": "t_uint256"
					}
				],
				"types": {
					"t_address_payable": {
						"encoding": "inplace",
						"label": "address payable",
						"numberOfBytes": "20"
					},
					"t_mapping(t_uint256,t_struct(Member)8_storage)": {
						"encoding": "mapping",
						"key": "t_uint256",
						"label": "mapping(uint256 => struct Members.Member)",
						"numberOfBytes": "32",
						"value": "t_struct(Member)8_storage"
					},
					"t_string_storage": {
						"encoding": "bytes",
						"label": "string",
						"numberOfBytes": "32"
					},
					"t_struct(Member)8_storage": {
						"encoding": "inplace",
						"label": "struct Members.Member",
						"members": [
							{
								"astId": 3,
								"contract": "contracts/Members.sol:Members",
								"label": "memberId",
								"offset": 0,
								"slot": "0",
								"type": "t_uint256"
							},
							{
								"astId": 5,
								"contract": "contracts/Members.sol:Members",
								"label": "name",
								"offset": 0,
								"slot": "1",
								"type": "t_string_storage"
							},
							{
								"astId": 7,
								"contract": "contracts/Members.sol:Members",
								"label": "memberWalletAddress",
								"offset": 0,
								"slot": "2",
								"type": "t_address_payable"
							}
						],
						"numberOfBytes": "96"
					},
					"t_uint256": {
						"encoding": "inplace",
						"label": "uint256",
						"numberOfBytes": "32"
					}
				}
			},
			"userdoc": {
				"kind": "user",
				"methods": {},
				"version": 1
			}
		}
	}
}