{
	"contracts/Members.sol": {
		"Members": {
			"abi": [
				{
					"inputs": [
						{
							"internalType": "string",
							"name": "_name",
							"type": "string"
						},
						{
							"internalType": "address",
							"name": "_memberWalletAddress",
							"type": "address"
						}
					],
					"name": "createMember",
					"outputs": [],
					"stateMutability": "nonpayable",
					"type": "function"
				},
				{
					"inputs": [],
					"name": "getNumberOfMembers",
					"outputs": [
						{
							"internalType": "uint256",
							"name": "",
							"type": "uint256"
						}
					],
					"stateMutability": "view",
					"type": "function"
				},
				{
					"inputs": [
						{
							"internalType": "uint256",
							"name": "_memberId",
							"type": "uint256"
						}
					],
					"name": "showMember",
					"outputs": [
						{
							"internalType": "string",
							"name": "",
							"type": "string"
						},
						{
							"internalType": "address",
							"name": "",
							"type": "address"
						}
					],
					"stateMutability": "view",
					"type": "function"
				}
			],
			"devdoc": {
				"kind": "dev",
				"methods": {},
				"version": 1
			},
			"evm": {
				"assembly": "    /* \"contracts/Members.sol\":74:962  contract Members {\r... */\n  mstore(0x40, 0x80)\n    /* \"contracts/Members.sol\":287:288  0 */\n  0x00\n    /* \"contracts/Members.sol\":269:288  uint AllMembers = 0 */\n  0x01\n  sstore\n    /* \"contracts/Members.sol\":74:962  contract Members {\r... */\n  callvalue\n  dup1\n  iszero\n  tag_1\n  jumpi\n  0x00\n  dup1\n  revert\ntag_1:\n  pop\n  dataSize(sub_0)\n  dup1\n  dataOffset(sub_0)\n  0x00\n  codecopy\n  0x00\n  return\nstop\n\nsub_0: assembly {\n        /* \"contracts/Members.sol\":74:962  contract Members {\r... */\n      mstore(0x40, 0x80)\n      callvalue\n      dup1\n      iszero\n      tag_1\n      jumpi\n      0x00\n      dup1\n      revert\n    tag_1:\n      pop\n      jumpi(tag_2, lt(calldatasize, 0x04))\n      shr(0xe0, calldataload(0x00))\n      dup1\n      0x6b42cf4d\n      eq\n      tag_3\n      jumpi\n      dup1\n      0x8b73a46b\n      eq\n      tag_4\n      jumpi\n      dup1\n      0xfeec91d3\n      eq\n      tag_5\n      jumpi\n    tag_2:\n      0x00\n      dup1\n      revert\n        /* \"contracts/Members.sol\":297:615  function createMember(string memory _name, address _memberWalletAddress) public {\r... */\n    tag_3:\n      tag_6\n      0x04\n      dup1\n      calldatasize\n      sub\n      dup2\n      add\n      swap1\n      tag_7\n      swap2\n      swap1\n      tag_8\n      jump\t// in\n    tag_7:\n      tag_9\n      jump\t// in\n    tag_6:\n      stop\n        /* \"contracts/Members.sol\":865:957  function getNumberOfMembers() public view returns(uint) {\r... */\n    tag_4:\n      tag_10\n      tag_11\n      jump\t// in\n    tag_10:\n      mload(0x40)\n      tag_12\n      swap2\n      swap1\n      tag_13\n      jump\t// in\n    tag_12:\n      mload(0x40)\n      dup1\n      swap2\n      sub\n      swap1\n      return\n        /* \"contracts/Members.sol\":623:857  function showMember(uint _memberId) public view returns (\r... */\n    tag_5:\n      tag_14\n      0x04\n      dup1\n      calldatasize\n      sub\n      dup2\n      add\n      swap1\n      tag_15\n      swap2\n      swap1\n      tag_16\n      jump\t// in\n    tag_15:\n      tag_17\n      jump\t// in\n    tag_14:\n      mload(0x40)\n      tag_18\n      swap3\n      swap2\n      swap1\n      tag_19\n      jump\t// in\n    tag_18:\n      mload(0x40)\n      dup1\n      swap2\n      sub\n      swap1\n      return\n        /* \"contracts/Members.sol\":297:615  function createMember(string memory _name, address _memberWalletAddress) public {\r... */\n    tag_9:\n        /* \"contracts/Members.sol\":410:518  Member(\r... */\n      mload(0x40)\n      dup1\n      0x60\n      add\n      0x40\n      mstore\n      dup1\n        /* \"contracts/Members.sol\":442:443  1 */\n      0x01\n        /* \"contracts/Members.sol\":431:441  AllMembers */\n      dup1\n      sload\n        /* \"contracts/Members.sol\":431:443  AllMembers+1 */\n      tag_21\n      swap2\n      swap1\n      tag_22\n      jump\t// in\n    tag_21:\n        /* \"contracts/Members.sol\":410:518  Member(\r... */\n      dup2\n      mstore\n      0x20\n      add\n        /* \"contracts/Members.sol\":458:463  _name */\n      dup4\n        /* \"contracts/Members.sol\":410:518  Member(\r... */\n      dup2\n      mstore\n      0x20\n      add\n        /* \"contracts/Members.sol\":486:506  _memberWalletAddress */\n      dup3\n        /* \"contracts/Members.sol\":410:518  Member(\r... */\n      0xffffffffffffffffffffffffffffffffffffffff\n      and\n      dup2\n      mstore\n      pop\n        /* \"contracts/Members.sol\":388:395  members */\n      0x00\n        /* \"contracts/Members.sol\":388:407  members[AllMembers] */\n      dup1\n        /* \"contracts/Members.sol\":396:406  AllMembers */\n      sload(0x01)\n        /* \"contracts/Members.sol\":388:407  members[AllMembers] */\n      dup2\n      mstore\n      0x20\n      add\n      swap1\n      dup2\n      mstore\n      0x20\n      add\n      0x00\n      keccak256\n        /* \"contracts/Members.sol\":388:518  members[AllMembers] = Member(\r... */\n      0x00\n      dup3\n      add\n      mload\n      dup2\n      0x00\n      add\n      sstore\n      0x20\n      dup3\n      add\n      mload\n      dup2\n      0x01\n      add\n      swap1\n      dup1\n      mload\n      swap1\n      0x20\n      add\n      swap1\n      tag_23\n      swap3\n      swap2\n      swap1\n      tag_24\n      jump\t// in\n    tag_23:\n      pop\n      0x40\n      dup3\n      add\n      mload\n      dup2\n      0x02\n      add\n      exp(0x0100, 0x00)\n      dup2\n      sload\n      dup2\n      0xffffffffffffffffffffffffffffffffffffffff\n      mul\n      not\n      and\n      swap1\n      dup4\n      0xffffffffffffffffffffffffffffffffffffffff\n      and\n      mul\n      or\n      swap1\n      sstore\n      pop\n      swap1\n      pop\n      pop\n        /* \"contracts/Members.sol\":531:541  AllMembers */\n      0x01\n      0x00\n        /* \"contracts/Members.sol\":531:543  AllMembers++ */\n      dup2\n      sload\n      dup1\n      swap3\n      swap2\n      swap1\n      tag_25\n      swap1\n      tag_26\n      jump\t// in\n    tag_25:\n      swap2\n      swap1\n      pop\n      sstore\n      pop\n        /* \"contracts/Members.sol\":297:615  function createMember(string memory _name, address _memberWalletAddress) public {\r... */\n      pop\n      pop\n      jump\t// out\n        /* \"contracts/Members.sol\":865:957  function getNumberOfMembers() public view returns(uint) {\r... */\n    tag_11:\n        /* \"contracts/Members.sol\":915:919  uint */\n      0x00\n        /* \"contracts/Members.sol\":939:949  AllMembers */\n      sload(0x01)\n        /* \"contracts/Members.sol\":932:949  return AllMembers */\n      swap1\n      pop\n        /* \"contracts/Members.sol\":865:957  function getNumberOfMembers() public view returns(uint) {\r... */\n      swap1\n      jump\t// out\n        /* \"contracts/Members.sol\":623:857  function showMember(uint _memberId) public view returns (\r... */\n    tag_17:\n        /* \"contracts/Members.sol\":690:703  string memory */\n      0x60\n        /* \"contracts/Members.sol\":714:721  address */\n      0x00\n        /* \"contracts/Members.sol\":762:769  members */\n      dup1\n        /* \"contracts/Members.sol\":762:780  members[_memberId] */\n      0x00\n        /* \"contracts/Members.sol\":770:779  _memberId */\n      dup5\n        /* \"contracts/Members.sol\":762:780  members[_memberId] */\n      dup2\n      mstore\n      0x20\n      add\n      swap1\n      dup2\n      mstore\n      0x20\n      add\n      0x00\n      keccak256\n        /* \"contracts/Members.sol\":762:785  members[_memberId].name */\n      0x01\n      add\n        /* \"contracts/Members.sol\":800:807  members */\n      0x00\n        /* \"contracts/Members.sol\":800:818  members[_memberId] */\n      dup1\n        /* \"contracts/Members.sol\":808:817  _memberId */\n      dup6\n        /* \"contracts/Members.sol\":800:818  members[_memberId] */\n      dup2\n      mstore\n      0x20\n      add\n      swap1\n      dup2\n      mstore\n      0x20\n      add\n      0x00\n      keccak256\n        /* \"contracts/Members.sol\":800:838  members[_memberId].memberWalletAddress */\n      0x02\n      add\n      0x00\n      swap1\n      sload\n      swap1\n      0x0100\n      exp\n      swap1\n      div\n      0xffffffffffffffffffffffffffffffffffffffff\n      and\n        /* \"contracts/Members.sol\":740:849  return (\r... */\n      dup2\n      dup1\n      sload\n      tag_29\n      swap1\n      tag_30\n      jump\t// in\n    tag_29:\n      dup1\n      0x1f\n      add\n      0x20\n      dup1\n      swap2\n      div\n      mul\n      0x20\n      add\n      mload(0x40)\n      swap1\n      dup2\n      add\n      0x40\n      mstore\n      dup1\n      swap3\n      swap2\n      swap1\n      dup2\n      dup2\n      mstore\n      0x20\n      add\n      dup3\n      dup1\n      sload\n      tag_31\n      swap1\n      tag_30\n      jump\t// in\n    tag_31:\n      dup1\n      iszero\n      tag_32\n      jumpi\n      dup1\n      0x1f\n      lt\n      tag_33\n      jumpi\n      0x0100\n      dup1\n      dup4\n      sload\n      div\n      mul\n      dup4\n      mstore\n      swap2\n      0x20\n      add\n      swap2\n      jump(tag_32)\n    tag_33:\n      dup3\n      add\n      swap2\n      swap1\n      0x00\n      mstore\n      keccak256(0x00, 0x20)\n      swap1\n    tag_34:\n      dup2\n      sload\n      dup2\n      mstore\n      swap1\n      0x01\n      add\n      swap1\n      0x20\n      add\n      dup1\n      dup4\n      gt\n      tag_34\n      jumpi\n      dup3\n      swap1\n      sub\n      0x1f\n      and\n      dup3\n      add\n      swap2\n    tag_32:\n      pop\n      pop\n      pop\n      pop\n      pop\n      swap2\n      pop\n      swap2\n      pop\n      swap2\n      pop\n        /* \"contracts/Members.sol\":623:857  function showMember(uint _memberId) public view returns (\r... */\n      swap2\n      pop\n      swap2\n      jump\t// out\n    tag_24:\n      dup3\n      dup1\n      sload\n      tag_35\n      swap1\n      tag_30\n      jump\t// in\n    tag_35:\n      swap1\n      0x00\n      mstore\n      keccak256(0x00, 0x20)\n      swap1\n      0x1f\n      add\n      0x20\n      swap1\n      div\n      dup2\n      add\n      swap3\n      dup3\n      tag_37\n      jumpi\n      0x00\n      dup6\n      sstore\n      jump(tag_36)\n    tag_37:\n      dup3\n      0x1f\n      lt\n      tag_38\n      jumpi\n      dup1\n      mload\n      not(0xff)\n      and\n      dup4\n      dup1\n      add\n      or\n      dup6\n      sstore\n      jump(tag_36)\n    tag_38:\n      dup3\n      dup1\n      add\n      0x01\n      add\n      dup6\n      sstore\n      dup3\n      iszero\n      tag_36\n      jumpi\n      swap2\n      dup3\n      add\n    tag_39:\n      dup3\n      dup2\n      gt\n      iszero\n      tag_40\n      jumpi\n      dup3\n      mload\n      dup3\n      sstore\n      swap2\n      0x20\n      add\n      swap2\n      swap1\n      0x01\n      add\n      swap1\n      jump(tag_39)\n    tag_40:\n    tag_36:\n      pop\n      swap1\n      pop\n      tag_41\n      swap2\n      swap1\n      tag_42\n      jump\t// in\n    tag_41:\n      pop\n      swap1\n      jump\t// out\n    tag_42:\n    tag_43:\n      dup1\n      dup3\n      gt\n      iszero\n      tag_44\n      jumpi\n      0x00\n      dup2\n      0x00\n      swap1\n      sstore\n      pop\n      0x01\n      add\n      jump(tag_43)\n    tag_44:\n      pop\n      swap1\n      jump\t// out\n        /* \"#utility.yul\":7:419   */\n    tag_46:\n        /* \"#utility.yul\":85:90   */\n      0x00\n        /* \"#utility.yul\":110:176   */\n      tag_48\n        /* \"#utility.yul\":126:175   */\n      tag_49\n        /* \"#utility.yul\":168:174   */\n      dup5\n        /* \"#utility.yul\":126:175   */\n      tag_50\n      jump\t// in\n    tag_49:\n        /* \"#utility.yul\":110:176   */\n      tag_51\n      jump\t// in\n    tag_48:\n        /* \"#utility.yul\":101:176   */\n      swap1\n      pop\n        /* \"#utility.yul\":199:205   */\n      dup3\n        /* \"#utility.yul\":192:197   */\n      dup2\n        /* \"#utility.yul\":185:206   */\n      mstore\n        /* \"#utility.yul\":237:241   */\n      0x20\n        /* \"#utility.yul\":230:235   */\n      dup2\n        /* \"#utility.yul\":226:242   */\n      add\n        /* \"#utility.yul\":275:278   */\n      dup5\n        /* \"#utility.yul\":266:272   */\n      dup5\n        /* \"#utility.yul\":261:264   */\n      dup5\n        /* \"#utility.yul\":257:273   */\n      add\n        /* \"#utility.yul\":254:279   */\n      gt\n        /* \"#utility.yul\":251:363   */\n      iszero\n      tag_52\n      jumpi\n        /* \"#utility.yul\":282:361   */\n      tag_53\n      tag_54\n      jump\t// in\n    tag_53:\n        /* \"#utility.yul\":251:363   */\n    tag_52:\n        /* \"#utility.yul\":372:413   */\n      tag_55\n        /* \"#utility.yul\":406:412   */\n      dup5\n        /* \"#utility.yul\":401:404   */\n      dup3\n        /* \"#utility.yul\":396:399   */\n      dup6\n        /* \"#utility.yul\":372:413   */\n      tag_56\n      jump\t// in\n    tag_55:\n        /* \"#utility.yul\":91:419   */\n      pop\n        /* \"#utility.yul\":7:419   */\n      swap4\n      swap3\n      pop\n      pop\n      pop\n      jump\t// out\n        /* \"#utility.yul\":425:564   */\n    tag_57:\n        /* \"#utility.yul\":471:476   */\n      0x00\n        /* \"#utility.yul\":509:515   */\n      dup2\n        /* \"#utility.yul\":496:516   */\n      calldataload\n        /* \"#utility.yul\":487:516   */\n      swap1\n      pop\n        /* \"#utility.yul\":525:558   */\n      tag_59\n        /* \"#utility.yul\":552:557   */\n      dup2\n        /* \"#utility.yul\":525:558   */\n      tag_60\n      jump\t// in\n    tag_59:\n        /* \"#utility.yul\":425:564   */\n      swap3\n      swap2\n      pop\n      pop\n      jump\t// out\n        /* \"#utility.yul\":584:924   */\n    tag_61:\n        /* \"#utility.yul\":640:645   */\n      0x00\n        /* \"#utility.yul\":689:692   */\n      dup3\n        /* \"#utility.yul\":682:686   */\n      0x1f\n        /* \"#utility.yul\":674:680   */\n      dup4\n        /* \"#utility.yul\":670:687   */\n      add\n        /* \"#utility.yul\":666:693   */\n      slt\n        /* \"#utility.yul\":656:778   */\n      tag_63\n      jumpi\n        /* \"#utility.yul\":697:776   */\n      tag_64\n      tag_65\n      jump\t// in\n    tag_64:\n        /* \"#utility.yul\":656:778   */\n    tag_63:\n        /* \"#utility.yul\":814:820   */\n      dup2\n        /* \"#utility.yul\":801:821   */\n      calldataload\n        /* \"#utility.yul\":839:918   */\n      tag_66\n        /* \"#utility.yul\":914:917   */\n      dup5\n        /* \"#utility.yul\":906:912   */\n      dup3\n        /* \"#utility.yul\":899:903   */\n      0x20\n        /* \"#utility.yul\":891:897   */\n      dup7\n        /* \"#utility.yul\":887:904   */\n      add\n        /* \"#utility.yul\":839:918   */\n      tag_46\n      jump\t// in\n    tag_66:\n        /* \"#utility.yul\":830:918   */\n      swap2\n      pop\n        /* \"#utility.yul\":646:924   */\n      pop\n        /* \"#utility.yul\":584:924   */\n      swap3\n      swap2\n      pop\n      pop\n      jump\t// out\n        /* \"#utility.yul\":930:1069   */\n    tag_67:\n        /* \"#utility.yul\":976:981   */\n      0x00\n        /* \"#utility.yul\":1014:1020   */\n      dup2\n        /* \"#utility.yul\":1001:1021   */\n      calldataload\n        /* \"#utility.yul\":992:1021   */\n      swap1\n      pop\n        /* \"#utility.yul\":1030:1063   */\n      tag_69\n        /* \"#utility.yul\":1057:1062   */\n      dup2\n        /* \"#utility.yul\":1030:1063   */\n      tag_70\n      jump\t// in\n    tag_69:\n        /* \"#utility.yul\":930:1069   */\n      swap3\n      swap2\n      pop\n      pop\n      jump\t// out\n        /* \"#utility.yul\":1075:1729   */\n    tag_8:\n        /* \"#utility.yul\":1153:1159   */\n      0x00\n        /* \"#utility.yul\":1161:1167   */\n      dup1\n        /* \"#utility.yul\":1210:1212   */\n      0x40\n        /* \"#utility.yul\":1198:1207   */\n      dup4\n        /* \"#utility.yul\":1189:1196   */\n      dup6\n        /* \"#utility.yul\":1185:1208   */\n      sub\n        /* \"#utility.yul\":1181:1213   */\n      slt\n        /* \"#utility.yul\":1178:1297   */\n      iszero\n      tag_72\n      jumpi\n        /* \"#utility.yul\":1216:1295   */\n      tag_73\n      tag_74\n      jump\t// in\n    tag_73:\n        /* \"#utility.yul\":1178:1297   */\n    tag_72:\n        /* \"#utility.yul\":1364:1365   */\n      0x00\n        /* \"#utility.yul\":1353:1362   */\n      dup4\n        /* \"#utility.yul\":1349:1366   */\n      add\n        /* \"#utility.yul\":1336:1367   */\n      calldataload\n        /* \"#utility.yul\":1394:1412   */\n      0xffffffffffffffff\n        /* \"#utility.yul\":1386:1392   */\n      dup2\n        /* \"#utility.yul\":1383:1413   */\n      gt\n        /* \"#utility.yul\":1380:1497   */\n      iszero\n      tag_75\n      jumpi\n        /* \"#utility.yul\":1416:1495   */\n      tag_76\n      tag_77\n      jump\t// in\n    tag_76:\n        /* \"#utility.yul\":1380:1497   */\n    tag_75:\n        /* \"#utility.yul\":1521:1584   */\n      tag_78\n        /* \"#utility.yul\":1576:1583   */\n      dup6\n        /* \"#utility.yul\":1567:1573   */\n      dup3\n        /* \"#utility.yul\":1556:1565   */\n      dup7\n        /* \"#utility.yul\":1552:1574   */\n      add\n        /* \"#utility.yul\":1521:1584   */\n      tag_61\n      jump\t// in\n    tag_78:\n        /* \"#utility.yul\":1511:1584   */\n      swap3\n      pop\n        /* \"#utility.yul\":1307:1594   */\n      pop\n        /* \"#utility.yul\":1633:1635   */\n      0x20\n        /* \"#utility.yul\":1659:1712   */\n      tag_79\n        /* \"#utility.yul\":1704:1711   */\n      dup6\n        /* \"#utility.yul\":1695:1701   */\n      dup3\n        /* \"#utility.yul\":1684:1693   */\n      dup7\n        /* \"#utility.yul\":1680:1702   */\n      add\n        /* \"#utility.yul\":1659:1712   */\n      tag_57\n      jump\t// in\n    tag_79:\n        /* \"#utility.yul\":1649:1712   */\n      swap2\n      pop\n        /* \"#utility.yul\":1604:1722   */\n      pop\n        /* \"#utility.yul\":1075:1729   */\n      swap3\n      pop\n      swap3\n      swap1\n      pop\n      jump\t// out\n        /* \"#utility.yul\":1735:2064   */\n    tag_16:\n        /* \"#utility.yul\":1794:1800   */\n      0x00\n        /* \"#utility.yul\":1843:1845   */\n      0x20\n        /* \"#utility.yul\":1831:1840   */\n      dup3\n        /* \"#utility.yul\":1822:1829   */\n      dup5\n        /* \"#utility.yul\":1818:1841   */\n      sub\n        /* \"#utility.yul\":1814:1846   */\n      slt\n        /* \"#utility.yul\":1811:1930   */\n      iszero\n      tag_81\n      jumpi\n        /* \"#utility.yul\":1849:1928   */\n      tag_82\n      tag_74\n      jump\t// in\n    tag_82:\n        /* \"#utility.yul\":1811:1930   */\n    tag_81:\n        /* \"#utility.yul\":1969:1970   */\n      0x00\n        /* \"#utility.yul\":1994:2047   */\n      tag_83\n        /* \"#utility.yul\":2039:2046   */\n      dup5\n        /* \"#utility.yul\":2030:2036   */\n      dup3\n        /* \"#utility.yul\":2019:2028   */\n      dup6\n        /* \"#utility.yul\":2015:2037   */\n      add\n        /* \"#utility.yul\":1994:2047   */\n      tag_67\n      jump\t// in\n    tag_83:\n        /* \"#utility.yul\":1984:2047   */\n      swap2\n      pop\n        /* \"#utility.yul\":1940:2057   */\n      pop\n        /* \"#utility.yul\":1735:2064   */\n      swap3\n      swap2\n      pop\n      pop\n      jump\t// out\n        /* \"#utility.yul\":2070:2188   */\n    tag_84:\n        /* \"#utility.yul\":2157:2181   */\n      tag_86\n        /* \"#utility.yul\":2175:2180   */\n      dup2\n        /* \"#utility.yul\":2157:2181   */\n      tag_87\n      jump\t// in\n    tag_86:\n        /* \"#utility.yul\":2152:2155   */\n      dup3\n        /* \"#utility.yul\":2145:2182   */\n      mstore\n        /* \"#utility.yul\":2070:2188   */\n      pop\n      pop\n      jump\t// out\n        /* \"#utility.yul\":2194:2558   */\n    tag_88:\n        /* \"#utility.yul\":2282:2285   */\n      0x00\n        /* \"#utility.yul\":2310:2349   */\n      tag_90\n        /* \"#utility.yul\":2343:2348   */\n      dup3\n        /* \"#utility.yul\":2310:2349   */\n      tag_91\n      jump\t// in\n    tag_90:\n        /* \"#utility.yul\":2365:2436   */\n      tag_92\n        /* \"#utility.yul\":2429:2435   */\n      dup2\n        /* \"#utility.yul\":2424:2427   */\n      dup6\n        /* \"#utility.yul\":2365:2436   */\n      tag_93\n      jump\t// in\n    tag_92:\n        /* \"#utility.yul\":2358:2436   */\n      swap4\n      pop\n        /* \"#utility.yul\":2445:2497   */\n      tag_94\n        /* \"#utility.yul\":2490:2496   */\n      dup2\n        /* \"#utility.yul\":2485:2488   */\n      dup6\n        /* \"#utility.yul\":2478:2482   */\n      0x20\n        /* \"#utility.yul\":2471:2476   */\n      dup7\n        /* \"#utility.yul\":2467:2483   */\n      add\n        /* \"#utility.yul\":2445:2497   */\n      tag_95\n      jump\t// in\n    tag_94:\n        /* \"#utility.yul\":2522:2551   */\n      tag_96\n        /* \"#utility.yul\":2544:2550   */\n      dup2\n        /* \"#utility.yul\":2522:2551   */\n      tag_97\n      jump\t// in\n    tag_96:\n        /* \"#utility.yul\":2517:2520   */\n      dup5\n        /* \"#utility.yul\":2513:2552   */\n      add\n        /* \"#utility.yul\":2506:2552   */\n      swap2\n      pop\n        /* \"#utility.yul\":2286:2558   */\n      pop\n        /* \"#utility.yul\":2194:2558   */\n      swap3\n      swap2\n      pop\n      pop\n      jump\t// out\n        /* \"#utility.yul\":2564:2682   */\n    tag_98:\n        /* \"#utility.yul\":2651:2675   */\n      tag_100\n        /* \"#utility.yul\":2669:2674   */\n      dup2\n        /* \"#utility.yul\":2651:2675   */\n      tag_101\n      jump\t// in\n    tag_100:\n        /* \"#utility.yul\":2646:2649   */\n      dup3\n        /* \"#utility.yul\":2639:2676   */\n      mstore\n        /* \"#utility.yul\":2564:2682   */\n      pop\n      pop\n      jump\t// out\n        /* \"#utility.yul\":2688:3111   */\n    tag_19:\n        /* \"#utility.yul\":2829:2833   */\n      0x00\n        /* \"#utility.yul\":2867:2869   */\n      0x40\n        /* \"#utility.yul\":2856:2865   */\n      dup3\n        /* \"#utility.yul\":2852:2870   */\n      add\n        /* \"#utility.yul\":2844:2870   */\n      swap1\n      pop\n        /* \"#utility.yul\":2916:2925   */\n      dup2\n        /* \"#utility.yul\":2910:2914   */\n      dup2\n        /* \"#utility.yul\":2906:2926   */\n      sub\n        /* \"#utility.yul\":2902:2903   */\n      0x00\n        /* \"#utility.yul\":2891:2900   */\n      dup4\n        /* \"#utility.yul\":2887:2904   */\n      add\n        /* \"#utility.yul\":2880:2927   */\n      mstore\n        /* \"#utility.yul\":2944:3022   */\n      tag_103\n        /* \"#utility.yul\":3017:3021   */\n      dup2\n        /* \"#utility.yul\":3008:3014   */\n      dup6\n        /* \"#utility.yul\":2944:3022   */\n      tag_88\n      jump\t// in\n    tag_103:\n        /* \"#utility.yul\":2936:3022   */\n      swap1\n      pop\n        /* \"#utility.yul\":3032:3104   */\n      tag_104\n        /* \"#utility.yul\":3100:3102   */\n      0x20\n        /* \"#utility.yul\":3089:3098   */\n      dup4\n        /* \"#utility.yul\":3085:3103   */\n      add\n        /* \"#utility.yul\":3076:3082   */\n      dup5\n        /* \"#utility.yul\":3032:3104   */\n      tag_84\n      jump\t// in\n    tag_104:\n        /* \"#utility.yul\":2688:3111   */\n      swap4\n      swap3\n      pop\n      pop\n      pop\n      jump\t// out\n        /* \"#utility.yul\":3117:3339   */\n    tag_13:\n        /* \"#utility.yul\":3210:3214   */\n      0x00\n        /* \"#utility.yul\":3248:3250   */\n      0x20\n        /* \"#utility.yul\":3237:3246   */\n      dup3\n        /* \"#utility.yul\":3233:3251   */\n      add\n        /* \"#utility.yul\":3225:3251   */\n      swap1\n      pop\n        /* \"#utility.yul\":3261:3332   */\n      tag_106\n        /* \"#utility.yul\":3329:3330   */\n      0x00\n        /* \"#utility.yul\":3318:3327   */\n      dup4\n        /* \"#utility.yul\":3314:3331   */\n      add\n        /* \"#utility.yul\":3305:3311   */\n      dup5\n        /* \"#utility.yul\":3261:3332   */\n      tag_98\n      jump\t// in\n    tag_106:\n        /* \"#utility.yul\":3117:3339   */\n      swap3\n      swap2\n      pop\n      pop\n      jump\t// out\n        /* \"#utility.yul\":3345:3474   */\n    tag_51:\n        /* \"#utility.yul\":3379:3385   */\n      0x00\n        /* \"#utility.yul\":3406:3426   */\n      tag_108\n      tag_109\n      jump\t// in\n    tag_108:\n        /* \"#utility.yul\":3396:3426   */\n      swap1\n      pop\n        /* \"#utility.yul\":3435:3468   */\n      tag_110\n        /* \"#utility.yul\":3463:3467   */\n      dup3\n        /* \"#utility.yul\":3455:3461   */\n      dup3\n        /* \"#utility.yul\":3435:3468   */\n      tag_111\n      jump\t// in\n    tag_110:\n        /* \"#utility.yul\":3345:3474   */\n      swap2\n      swap1\n      pop\n      jump\t// out\n        /* \"#utility.yul\":3480:3555   */\n    tag_109:\n        /* \"#utility.yul\":3513:3519   */\n      0x00\n        /* \"#utility.yul\":3546:3548   */\n      0x40\n        /* \"#utility.yul\":3540:3549   */\n      mload\n        /* \"#utility.yul\":3530:3549   */\n      swap1\n      pop\n        /* \"#utility.yul\":3480:3555   */\n      swap1\n      jump\t// out\n        /* \"#utility.yul\":3561:3869   */\n    tag_50:\n        /* \"#utility.yul\":3623:3627   */\n      0x00\n        /* \"#utility.yul\":3713:3731   */\n      0xffffffffffffffff\n        /* \"#utility.yul\":3705:3711   */\n      dup3\n        /* \"#utility.yul\":3702:3732   */\n      gt\n        /* \"#utility.yul\":3699:3755   */\n      iszero\n      tag_114\n      jumpi\n        /* \"#utility.yul\":3735:3753   */\n      tag_115\n      tag_116\n      jump\t// in\n    tag_115:\n        /* \"#utility.yul\":3699:3755   */\n    tag_114:\n        /* \"#utility.yul\":3773:3802   */\n      tag_117\n        /* \"#utility.yul\":3795:3801   */\n      dup3\n        /* \"#utility.yul\":3773:3802   */\n      tag_97\n      jump\t// in\n    tag_117:\n        /* \"#utility.yul\":3765:3802   */\n      swap1\n      pop\n        /* \"#utility.yul\":3857:3861   */\n      0x20\n        /* \"#utility.yul\":3851:3855   */\n      dup2\n        /* \"#utility.yul\":3847:3862   */\n      add\n        /* \"#utility.yul\":3839:3862   */\n      swap1\n      pop\n        /* \"#utility.yul\":3561:3869   */\n      swap2\n      swap1\n      pop\n      jump\t// out\n        /* \"#utility.yul\":3875:3974   */\n    tag_91:\n        /* \"#utility.yul\":3927:3933   */\n      0x00\n        /* \"#utility.yul\":3961:3966   */\n      dup2\n        /* \"#utility.yul\":3955:3967   */\n      mload\n        /* \"#utility.yul\":3945:3967   */\n      swap1\n      pop\n        /* \"#utility.yul\":3875:3974   */\n      swap2\n      swap1\n      pop\n      jump\t// out\n        /* \"#utility.yul\":3980:4149   */\n    tag_93:\n        /* \"#utility.yul\":4064:4075   */\n      0x00\n        /* \"#utility.yul\":4098:4104   */\n      dup3\n        /* \"#utility.yul\":4093:4096   */\n      dup3\n        /* \"#utility.yul\":4086:4105   */\n      mstore\n        /* \"#utility.yul\":4138:4142   */\n      0x20\n        /* \"#utility.yul\":4133:4136   */\n      dup3\n        /* \"#utility.yul\":4129:4143   */\n      add\n        /* \"#utility.yul\":4114:4143   */\n      swap1\n      pop\n        /* \"#utility.yul\":3980:4149   */\n      swap3\n      swap2\n      pop\n      pop\n      jump\t// out\n        /* \"#utility.yul\":4155:4460   */\n    tag_22:\n        /* \"#utility.yul\":4195:4198   */\n      0x00\n        /* \"#utility.yul\":4214:4234   */\n      tag_121\n        /* \"#utility.yul\":4232:4233   */\n      dup3\n        /* \"#utility.yul\":4214:4234   */\n      tag_101\n      jump\t// in\n    tag_121:\n        /* \"#utility.yul\":4209:4234   */\n      swap2\n      pop\n        /* \"#utility.yul\":4248:4268   */\n      tag_122\n        /* \"#utility.yul\":4266:4267   */\n      dup4\n        /* \"#utility.yul\":4248:4268   */\n      tag_101\n      jump\t// in\n    tag_122:\n        /* \"#utility.yul\":4243:4268   */\n      swap3\n      pop\n        /* \"#utility.yul\":4402:4403   */\n      dup3\n        /* \"#utility.yul\":4334:4400   */\n      0xffffffffffffffffffffffffffffffffffffffffffffffffffffffffffffffff\n        /* \"#utility.yul\":4330:4404   */\n      sub\n        /* \"#utility.yul\":4327:4328   */\n      dup3\n        /* \"#utility.yul\":4324:4405   */\n      gt\n        /* \"#utility.yul\":4321:4428   */\n      iszero\n      tag_123\n      jumpi\n        /* \"#utility.yul\":4408:4426   */\n      tag_124\n      tag_125\n      jump\t// in\n    tag_124:\n        /* \"#utility.yul\":4321:4428   */\n    tag_123:\n        /* \"#utility.yul\":4452:4453   */\n      dup3\n        /* \"#utility.yul\":4449:4450   */\n      dup3\n        /* \"#utility.yul\":4445:4454   */\n      add\n        /* \"#utility.yul\":4438:4454   */\n      swap1\n      pop\n        /* \"#utility.yul\":4155:4460   */\n      swap3\n      swap2\n      pop\n      pop\n      jump\t// out\n        /* \"#utility.yul\":4466:4562   */\n    tag_87:\n        /* \"#utility.yul\":4503:4510   */\n      0x00\n        /* \"#utility.yul\":4532:4556   */\n      tag_127\n        /* \"#utility.yul\":4550:4555   */\n      dup3\n        /* \"#utility.yul\":4532:4556   */\n      tag_128\n      jump\t// in\n    tag_127:\n        /* \"#utility.yul\":4521:4556   */\n      swap1\n      pop\n        /* \"#utility.yul\":4466:4562   */\n      swap2\n      swap1\n      pop\n      jump\t// out\n        /* \"#utility.yul\":4568:4694   */\n    tag_128:\n        /* \"#utility.yul\":4605:4612   */\n      0x00\n        /* \"#utility.yul\":4645:4687   */\n      0xffffffffffffffffffffffffffffffffffffffff\n        /* \"#utility.yul\":4638:4643   */\n      dup3\n        /* \"#utility.yul\":4634:4688   */\n      and\n        /* \"#utility.yul\":4623:4688   */\n      swap1\n      pop\n        /* \"#utility.yul\":4568:4694   */\n      swap2\n      swap1\n      pop\n      jump\t// out\n        /* \"#utility.yul\":4700:4777   */\n    tag_101:\n        /* \"#utility.yul\":4737:4744   */\n      0x00\n        /* \"#utility.yul\":4766:4771   */\n      dup2\n        /* \"#utility.yul\":4755:4771   */\n      swap1\n      pop\n        /* \"#utility.yul\":4700:4777   */\n      swap2\n      swap1\n      pop\n      jump\t// out\n        /* \"#utility.yul\":4783:4937   */\n    tag_56:\n        /* \"#utility.yul\":4867:4873   */\n      dup3\n        /* \"#utility.yul\":4862:4865   */\n      dup2\n        /* \"#utility.yul\":4857:4860   */\n      dup4\n        /* \"#utility.yul\":4844:4874   */\n      calldatacopy\n        /* \"#utility.yul\":4929:4930   */\n      0x00\n        /* \"#utility.yul\":4920:4926   */\n      dup4\n        /* \"#utility.yul\":4915:4918   */\n      dup4\n        /* \"#utility.yul\":4911:4927   */\n      add\n        /* \"#utility.yul\":4904:4931   */\n      mstore\n        /* \"#utility.yul\":4783:4937   */\n      pop\n      pop\n      pop\n      jump\t// out\n        /* \"#utility.yul\":4943:5250   */\n    tag_95:\n        /* \"#utility.yul\":5011:5012   */\n      0x00\n        /* \"#utility.yul\":5021:5134   */\n    tag_133:\n        /* \"#utility.yul\":5035:5041   */\n      dup4\n        /* \"#utility.yul\":5032:5033   */\n      dup2\n        /* \"#utility.yul\":5029:5042   */\n      lt\n        /* \"#utility.yul\":5021:5134   */\n      iszero\n      tag_135\n      jumpi\n        /* \"#utility.yul\":5120:5121   */\n      dup1\n        /* \"#utility.yul\":5115:5118   */\n      dup3\n        /* \"#utility.yul\":5111:5122   */\n      add\n        /* \"#utility.yul\":5105:5123   */\n      mload\n        /* \"#utility.yul\":5101:5102   */\n      dup2\n        /* \"#utility.yul\":5096:5099   */\n      dup5\n        /* \"#utility.yul\":5092:5103   */\n      add\n        /* \"#utility.yul\":5085:5124   */\n      mstore\n        /* \"#utility.yul\":5057:5059   */\n      0x20\n        /* \"#utility.yul\":5054:5055   */\n      dup2\n        /* \"#utility.yul\":5050:5060   */\n      add\n        /* \"#utility.yul\":5045:5060   */\n      swap1\n      pop\n        /* \"#utility.yul\":5021:5134   */\n      jump(tag_133)\n    tag_135:\n        /* \"#utility.yul\":5152:5158   */\n      dup4\n        /* \"#utility.yul\":5149:5150   */\n      dup2\n        /* \"#utility.yul\":5146:5159   */\n      gt\n        /* \"#utility.yul\":5143:5244   */\n      iszero\n      tag_136\n      jumpi\n        /* \"#utility.yul\":5232:5233   */\n      0x00\n        /* \"#utility.yul\":5223:5229   */\n      dup5\n        /* \"#utility.yul\":5218:5221   */\n      dup5\n        /* \"#utility.yul\":5214:5230   */\n      add\n        /* \"#utility.yul\":5207:5234   */\n      mstore\n        /* \"#utility.yul\":5143:5244   */\n    tag_136:\n        /* \"#utility.yul\":4992:5250   */\n      pop\n        /* \"#utility.yul\":4943:5250   */\n      pop\n      pop\n      pop\n      jump\t// out\n        /* \"#utility.yul\":5256:5576   */\n    tag_30:\n        /* \"#utility.yul\":5300:5306   */\n      0x00\n        /* \"#utility.yul\":5337:5338   */\n      0x02\n        /* \"#utility.yul\":5331:5335   */\n      dup3\n        /* \"#utility.yul\":5327:5339   */\n      div\n        /* \"#utility.yul\":5317:5339   */\n      swap1\n      pop\n        /* \"#utility.yul\":5384:5385   */\n      0x01\n        /* \"#utility.yul\":5378:5382   */\n      dup3\n        /* \"#utility.yul\":5374:5386   */\n      and\n        /* \"#utility.yul\":5405:5423   */\n      dup1\n        /* \"#utility.yul\":5395:5476   */\n      tag_138\n      jumpi\n        /* \"#utility.yul\":5461:5465   */\n      0x7f\n        /* \"#utility.yul\":5453:5459   */\n      dup3\n        /* \"#utility.yul\":5449:5466   */\n      and\n        /* \"#utility.yul\":5439:5466   */\n      swap2\n      pop\n        /* \"#utility.yul\":5395:5476   */\n    tag_138:\n        /* \"#utility.yul\":5523:5525   */\n      0x20\n        /* \"#utility.yul\":5515:5521   */\n      dup3\n        /* \"#utility.yul\":5512:5526   */\n      lt\n        /* \"#utility.yul\":5492:5510   */\n      dup2\n        /* \"#utility.yul\":5489:5527   */\n      eq\n        /* \"#utility.yul\":5486:5570   */\n      iszero\n      tag_139\n      jumpi\n        /* \"#utility.yul\":5542:5560   */\n      tag_140\n      tag_141\n      jump\t// in\n    tag_140:\n        /* \"#utility.yul\":5486:5570   */\n    tag_139:\n        /* \"#utility.yul\":5307:5576   */\n      pop\n        /* \"#utility.yul\":5256:5576   */\n      swap2\n      swap1\n      pop\n      jump\t// out\n        /* \"#utility.yul\":5582:5863   */\n    tag_111:\n        /* \"#utility.yul\":5665:5692   */\n      tag_143\n        /* \"#utility.yul\":5687:5691   */\n      dup3\n        /* \"#utility.yul\":5665:5692   */\n      tag_97\n      jump\t// in\n    tag_143:\n        /* \"#utility.yul\":5657:5663   */\n      dup2\n        /* \"#utility.yul\":5653:5693   */\n      add\n        /* \"#utility.yul\":5795:5801   */\n      dup2\n        /* \"#utility.yul\":5783:5793   */\n      dup2\n        /* \"#utility.yul\":5780:5802   */\n      lt\n        /* \"#utility.yul\":5759:5777   */\n      0xffffffffffffffff\n        /* \"#utility.yul\":5747:5757   */\n      dup3\n        /* \"#utility.yul\":5744:5778   */\n      gt\n        /* \"#utility.yul\":5741:5803   */\n      or\n        /* \"#utility.yul\":5738:5826   */\n      iszero\n      tag_144\n      jumpi\n        /* \"#utility.yul\":5806:5824   */\n      tag_145\n      tag_116\n      jump\t// in\n    tag_145:\n        /* \"#utility.yul\":5738:5826   */\n    tag_144:\n        /* \"#utility.yul\":5846:5856   */\n      dup1\n        /* \"#utility.yul\":5842:5844   */\n      0x40\n        /* \"#utility.yul\":5835:5857   */\n      mstore\n        /* \"#utility.yul\":5625:5863   */\n      pop\n        /* \"#utility.yul\":5582:5863   */\n      pop\n      pop\n      jump\t// out\n        /* \"#utility.yul\":5869:6102   */\n    tag_26:\n        /* \"#utility.yul\":5908:5911   */\n      0x00\n        /* \"#utility.yul\":5931:5955   */\n      tag_147\n        /* \"#utility.yul\":5949:5954   */\n      dup3\n        /* \"#utility.yul\":5931:5955   */\n      tag_101\n      jump\t// in\n    tag_147:\n        /* \"#utility.yul\":5922:5955   */\n      swap2\n      pop\n        /* \"#utility.yul\":5977:6043   */\n      0xffffffffffffffffffffffffffffffffffffffffffffffffffffffffffffffff\n        /* \"#utility.yul\":5970:5975   */\n      dup3\n        /* \"#utility.yul\":5967:6044   */\n      eq\n        /* \"#utility.yul\":5964:6067   */\n      iszero\n      tag_148\n      jumpi\n        /* \"#utility.yul\":6047:6065   */\n      tag_149\n      tag_125\n      jump\t// in\n    tag_149:\n        /* \"#utility.yul\":5964:6067   */\n    tag_148:\n        /* \"#utility.yul\":6094:6095   */\n      0x01\n        /* \"#utility.yul\":6087:6092   */\n      dup3\n        /* \"#utility.yul\":6083:6096   */\n      add\n        /* \"#utility.yul\":6076:6096   */\n      swap1\n      pop\n        /* \"#utility.yul\":5869:6102   */\n      swap2\n      swap1\n      pop\n      jump\t// out\n        /* \"#utility.yul\":6108:6288   */\n    tag_125:\n        /* \"#utility.yul\":6156:6233   */\n      0x4e487b7100000000000000000000000000000000000000000000000000000000\n        /* \"#utility.yul\":6153:6154   */\n      0x00\n        /* \"#utility.yul\":6146:6234   */\n      mstore\n        /* \"#utility.yul\":6253:6257   */\n      0x11\n        /* \"#utility.yul\":6250:6251   */\n      0x04\n        /* \"#utility.yul\":6243:6258   */\n      mstore\n        /* \"#utility.yul\":6277:6281   */\n      0x24\n        /* \"#utility.yul\":6274:6275   */\n      0x00\n        /* \"#utility.yul\":6267:6282   */\n      revert\n        /* \"#utility.yul\":6294:6474   */\n    tag_141:\n        /* \"#utility.yul\":6342:6419   */\n      0x4e487b7100000000000000000000000000000000000000000000000000000000\n        /* \"#utility.yul\":6339:6340   */\n      0x00\n        /* \"#utility.yul\":6332:6420   */\n      mstore\n        /* \"#utility.yul\":6439:6443   */\n      0x22\n        /* \"#utility.yul\":6436:6437   */\n      0x04\n        /* \"#utility.yul\":6429:6444   */\n      mstore\n        /* \"#utility.yul\":6463:6467   */\n      0x24\n        /* \"#utility.yul\":6460:6461   */\n      0x00\n        /* \"#utility.yul\":6453:6468   */\n      revert\n        /* \"#utility.yul\":6480:6660   */\n    tag_116:\n        /* \"#utility.yul\":6528:6605   */\n      0x4e487b7100000000000000000000000000000000000000000000000000000000\n        /* \"#utility.yul\":6525:6526   */\n      0x00\n        /* \"#utility.yul\":6518:6606   */\n      mstore\n        /* \"#utility.yul\":6625:6629   */\n      0x41\n        /* \"#utility.yul\":6622:6623   */\n      0x04\n        /* \"#utility.yul\":6615:6630   */\n      mstore\n        /* \"#utility.yul\":6649:6653   */\n      0x24\n        /* \"#utility.yul\":6646:6647   */\n      0x00\n        /* \"#utility.yul\":6639:6654   */\n      revert\n        /* \"#utility.yul\":6666:6783   */\n    tag_65:\n        /* \"#utility.yul\":6775:6776   */\n      0x00\n        /* \"#utility.yul\":6772:6773   */\n      dup1\n        /* \"#utility.yul\":6765:6777   */\n      revert\n        /* \"#utility.yul\":6789:6906   */\n    tag_54:\n        /* \"#utility.yul\":6898:6899   */\n      0x00\n        /* \"#utility.yul\":6895:6896   */\n      dup1\n        /* \"#utility.yul\":6888:6900   */\n      revert\n        /* \"#utility.yul\":6912:7029   */\n    tag_77:\n        /* \"#utility.yul\":7021:7022   */\n      0x00\n        /* \"#utility.yul\":7018:7019   */\n      dup1\n        /* \"#utility.yul\":7011:7023   */\n      revert\n        /* \"#utility.yul\":7035:7152   */\n    tag_74:\n        /* \"#utility.yul\":7144:7145   */\n      0x00\n        /* \"#utility.yul\":7141:7142   */\n      dup1\n        /* \"#utility.yul\":7134:7146   */\n      revert\n        /* \"#utility.yul\":7158:7260   */\n    tag_97:\n        /* \"#utility.yul\":7199:7205   */\n      0x00\n        /* \"#utility.yul\":7250:7252   */\n      0x1f\n        /* \"#utility.yul\":7246:7253   */\n      not\n        /* \"#utility.yul\":7241:7243   */\n      0x1f\n        /* \"#utility.yul\":7234:7239   */\n      dup4\n        /* \"#utility.yul\":7230:7244   */\n      add\n        /* \"#utility.yul\":7226:7254   */\n      and\n        /* \"#utility.yul\":7216:7254   */\n      swap1\n      pop\n        /* \"#utility.yul\":7158:7260   */\n      swap2\n      swap1\n      pop\n      jump\t// out\n        /* \"#utility.yul\":7266:7388   */\n    tag_60:\n        /* \"#utility.yul\":7339:7363   */\n      tag_159\n        /* \"#utility.yul\":7357:7362   */\n      dup2\n        /* \"#utility.yul\":7339:7363   */\n      tag_87\n      jump\t// in\n    tag_159:\n        /* \"#utility.yul\":7332:7337   */\n      dup2\n        /* \"#utility.yul\":7329:7364   */\n      eq\n        /* \"#utility.yul\":7319:7382   */\n      tag_160\n      jumpi\n        /* \"#utility.yul\":7378:7379   */\n      0x00\n        /* \"#utility.yul\":7375:7376   */\n      dup1\n        /* \"#utility.yul\":7368:7380   */\n      revert\n        /* \"#utility.yul\":7319:7382   */\n    tag_160:\n        /* \"#utility.yul\":7266:7388   */\n      pop\n      jump\t// out\n        /* \"#utility.yul\":7394:7516   */\n    tag_70:\n        /* \"#utility.yul\":7467:7491   */\n      tag_162\n        /* \"#utility.yul\":7485:7490   */\n      dup2\n        /* \"#utility.yul\":7467:7491   */\n      tag_101\n      jump\t// in\n    tag_162:\n        /* \"#utility.yul\":7460:7465   */\n      dup2\n        /* \"#utility.yul\":7457:7492   */\n      eq\n        /* \"#utility.yul\":7447:7510   */\n      tag_163\n      jumpi\n        /* \"#utility.yul\":7506:7507   */\n      0x00\n        /* \"#utility.yul\":7503:7504   */\n      dup1\n        /* \"#utility.yul\":7496:7508   */\n      revert\n        /* \"#utility.yul\":7447:7510   */\n    tag_163:\n        /* \"#utility.yul\":7394:7516   */\n      pop\n      jump\t// out\n\n    auxdata: 0xa2646970667358221220f9e8a1aaf2e1106f2b580dc01582bcf692ac0f6850a79c4652b75835c1378fa864736f6c63430008070033\n}\n",
				"bytecode": {
					"linkReferences": {},
					"object": "6080604052600060015534801561001557600080fd5b506107ee806100256000396000f3fe608060405234801561001057600080fd5b50600436106100415760003560e01c80636b42cf4d146100465780638b73a46b14610062578063feec91d314610080575b600080fd5b610060600480360381019061005b91906103bb565b6100b1565b005b61006a610190565b60405161007791906104cb565b60405180910390f35b61009a60048036038101906100959190610417565b61019a565b6040516100a892919061049b565b60405180910390f35b6040518060600160405280600180546100ca9190610558565b81526020018381526020018273ffffffffffffffffffffffffffffffffffffffff16815250600080600154815260200190815260200160002060008201518160000155602082015181600101908051906020019061012992919061027e565b5060408201518160020160006101000a81548173ffffffffffffffffffffffffffffffffffffffff021916908373ffffffffffffffffffffffffffffffffffffffff160217905550905050600160008154809291906101879061068f565b91905055505050565b6000600154905090565b6060600080600084815260200190815260200160002060010160008085815260200190815260200160002060020160009054906101000a900473ffffffffffffffffffffffffffffffffffffffff168180546101f59061062c565b80601f01602080910402602001604051908101604052809291908181526020018280546102219061062c565b801561026e5780601f106102435761010080835404028352916020019161026e565b820191906000526020600020905b81548152906001019060200180831161025157829003601f168201915b5050505050915091509150915091565b82805461028a9061062c565b90600052602060002090601f0160209004810192826102ac57600085556102f3565b82601f106102c557805160ff19168380011785556102f3565b828001600101855582156102f3579182015b828111156102f25782518255916020019190600101906102d7565b5b5090506103009190610304565b5090565b5b8082111561031d576000816000905550600101610305565b5090565b600061033461032f8461050b565b6104e6565b9050828152602081018484840111156103505761034f61076a565b5b61035b8482856105ea565b509392505050565b6000813590506103728161078a565b92915050565b600082601f83011261038d5761038c610765565b5b813561039d848260208601610321565b91505092915050565b6000813590506103b5816107a1565b92915050565b600080604083850312156103d2576103d1610774565b5b600083013567ffffffffffffffff8111156103f0576103ef61076f565b5b6103fc85828601610378565b925050602061040d85828601610363565b9150509250929050565b60006020828403121561042d5761042c610774565b5b600061043b848285016103a6565b91505092915050565b61044d816105ae565b82525050565b600061045e8261053c565b6104688185610547565b93506104788185602086016105f9565b61048181610779565b840191505092915050565b610495816105e0565b82525050565b600060408201905081810360008301526104b58185610453565b90506104c46020830184610444565b9392505050565b60006020820190506104e0600083018461048c565b92915050565b60006104f0610501565b90506104fc828261065e565b919050565b6000604051905090565b600067ffffffffffffffff82111561052657610525610736565b5b61052f82610779565b9050602081019050919050565b600081519050919050565b600082825260208201905092915050565b6000610563826105e0565b915061056e836105e0565b9250827fffffffffffffffffffffffffffffffffffffffffffffffffffffffffffffffff038211156105a3576105a26106d8565b5b828201905092915050565b60006105b9826105c0565b9050919050565b600073ffffffffffffffffffffffffffffffffffffffff82169050919050565b6000819050919050565b82818337600083830152505050565b60005b838110156106175780820151818401526020810190506105fc565b83811115610626576000848401525b50505050565b6000600282049050600182168061064457607f821691505b6020821081141561065857610657610707565b5b50919050565b61066782610779565b810181811067ffffffffffffffff8211171561068657610685610736565b5b80604052505050565b600061069a826105e0565b91507fffffffffffffffffffffffffffffffffffffffffffffffffffffffffffffffff8214156106cd576106cc6106d8565b5b600182019050919050565b7f4e487b7100000000000000000000000000000000000000000000000000000000600052601160045260246000fd5b7f4e487b7100000000000000000000000000000000000000000000000000000000600052602260045260246000fd5b7f4e487b7100000000000000000000000000000000000000000000000000000000600052604160045260246000fd5b600080fd5b600080fd5b600080fd5b600080fd5b6000601f19601f8301169050919050565b610793816105ae565b811461079e57600080fd5b50565b6107aa816105e0565b81146107b557600080fd5b5056fea2646970667358221220f9e8a1aaf2e1106f2b580dc01582bcf692ac0f6850a79c4652b75835c1378fa864736f6c63430008070033",
					"opcodes": "PUSH1 0x80 PUSH1 0x40 MSTORE PUSH1 0x0 PUSH1 0x1 SSTORE CALLVALUE DUP1 ISZERO PUSH2 0x15 JUMPI PUSH1 0x0 DUP1 REVERT JUMPDEST POP PUSH2 0x7EE DUP1 PUSH2 0x25 PUSH1 0x0 CODECOPY PUSH1 0x0 RETURN INVALID PUSH1 0x80 PUSH1 0x40 MSTORE CALLVALUE DUP1 ISZERO PUSH2 0x10 JUMPI PUSH1 0x0 DUP1 REVERT JUMPDEST POP PUSH1 0x4 CALLDATASIZE LT PUSH2 0x41 JUMPI PUSH1 0x0 CALLDATALOAD PUSH1 0xE0 SHR DUP1 PUSH4 0x6B42CF4D EQ PUSH2 0x46 JUMPI DUP1 PUSH4 0x8B73A46B EQ PUSH2 0x62 JUMPI DUP1 PUSH4 0xFEEC91D3 EQ PUSH2 0x80 JUMPI JUMPDEST PUSH1 0x0 DUP1 REVERT JUMPDEST PUSH2 0x60 PUSH1 0x4 DUP1 CALLDATASIZE SUB DUP2 ADD SWAP1 PUSH2 0x5B SWAP2 SWAP1 PUSH2 0x3BB JUMP JUMPDEST PUSH2 0xB1 JUMP JUMPDEST STOP JUMPDEST PUSH2 0x6A PUSH2 0x190 JUMP JUMPDEST PUSH1 0x40 MLOAD PUSH2 0x77 SWAP2 SWAP1 PUSH2 0x4CB JUMP JUMPDEST PUSH1 0x40 MLOAD DUP1 SWAP2 SUB SWAP1 RETURN JUMPDEST PUSH2 0x9A PUSH1 0x4 DUP1 CALLDATASIZE SUB DUP2 ADD SWAP1 PUSH2 0x95 SWAP2 SWAP1 PUSH2 0x417 JUMP JUMPDEST PUSH2 0x19A JUMP JUMPDEST PUSH1 0x40 MLOAD PUSH2 0xA8 SWAP3 SWAP2 SWAP1 PUSH2 0x49B JUMP JUMPDEST PUSH1 0x40 MLOAD DUP1 SWAP2 SUB SWAP1 RETURN JUMPDEST PUSH1 0x40 MLOAD DUP1 PUSH1 0x60 ADD PUSH1 0x40 MSTORE DUP1 PUSH1 0x1 DUP1 SLOAD PUSH2 0xCA SWAP2 SWAP1 PUSH2 0x558 JUMP JUMPDEST DUP2 MSTORE PUSH1 0x20 ADD DUP4 DUP2 MSTORE PUSH1 0x20 ADD DUP3 PUSH20 0xFFFFFFFFFFFFFFFFFFFFFFFFFFFFFFFFFFFFFFFF AND DUP2 MSTORE POP PUSH1 0x0 DUP1 PUSH1 0x1 SLOAD DUP2 MSTORE PUSH1 0x20 ADD SWAP1 DUP2 MSTORE PUSH1 0x20 ADD PUSH1 0x0 KECCAK256 PUSH1 0x0 DUP3 ADD MLOAD DUP2 PUSH1 0x0 ADD SSTORE PUSH1 0x20 DUP3 ADD MLOAD DUP2 PUSH1 0x1 ADD SWAP1 DUP1 MLOAD SWAP1 PUSH1 0x20 ADD SWAP1 PUSH2 0x129 SWAP3 SWAP2 SWAP1 PUSH2 0x27E JUMP JUMPDEST POP PUSH1 0x40 DUP3 ADD MLOAD DUP2 PUSH1 0x2 ADD PUSH1 0x0 PUSH2 0x100 EXP DUP2 SLOAD DUP2 PUSH20 0xFFFFFFFFFFFFFFFFFFFFFFFFFFFFFFFFFFFFFFFF MUL NOT AND SWAP1 DUP4 PUSH20 0xFFFFFFFFFFFFFFFFFFFFFFFFFFFFFFFFFFFFFFFF AND MUL OR SWAP1 SSTORE POP SWAP1 POP POP PUSH1 0x1 PUSH1 0x0 DUP2 SLOAD DUP1 SWAP3 SWAP2 SWAP1 PUSH2 0x187 SWAP1 PUSH2 0x68F JUMP JUMPDEST SWAP2 SWAP1 POP SSTORE POP POP POP JUMP JUMPDEST PUSH1 0x0 PUSH1 0x1 SLOAD SWAP1 POP SWAP1 JUMP JUMPDEST PUSH1 0x60 PUSH1 0x0 DUP1 PUSH1 0x0 DUP5 DUP2 MSTORE PUSH1 0x20 ADD SWAP1 DUP2 MSTORE PUSH1 0x20 ADD PUSH1 0x0 KECCAK256 PUSH1 0x1 ADD PUSH1 0x0 DUP1 DUP6 DUP2 MSTORE PUSH1 0x20 ADD SWAP1 DUP2 MSTORE PUSH1 0x20 ADD PUSH1 0x0 KECCAK256 PUSH1 0x2 ADD PUSH1 0x0 SWAP1 SLOAD SWAP1 PUSH2 0x100 EXP SWAP1 DIV PUSH20 0xFFFFFFFFFFFFFFFFFFFFFFFFFFFFFFFFFFFFFFFF AND DUP2 DUP1 SLOAD PUSH2 0x1F5 SWAP1 PUSH2 0x62C JUMP JUMPDEST DUP1 PUSH1 0x1F ADD PUSH1 0x20 DUP1 SWAP2 DIV MUL PUSH1 0x20 ADD PUSH1 0x40 MLOAD SWAP1 DUP2 ADD PUSH1 0x40 MSTORE DUP1 SWAP3 SWAP2 SWAP1 DUP2 DUP2 MSTORE PUSH1 0x20 ADD DUP3 DUP1 SLOAD PUSH2 0x221 SWAP1 PUSH2 0x62C JUMP JUMPDEST DUP1 ISZERO PUSH2 0x26E JUMPI DUP1 PUSH1 0x1F LT PUSH2 0x243 JUMPI PUSH2 0x100 DUP1 DUP4 SLOAD DIV MUL DUP4 MSTORE SWAP2 PUSH1 0x20 ADD SWAP2 PUSH2 0x26E JUMP JUMPDEST DUP3 ADD SWAP2 SWAP1 PUSH1 0x0 MSTORE PUSH1 0x20 PUSH1 0x0 KECCAK256 SWAP1 JUMPDEST DUP2 SLOAD DUP2 MSTORE SWAP1 PUSH1 0x1 ADD SWAP1 PUSH1 0x20 ADD DUP1 DUP4 GT PUSH2 0x251 JUMPI DUP3 SWAP1 SUB PUSH1 0x1F AND DUP3 ADD SWAP2 JUMPDEST POP POP POP POP POP SWAP2 POP SWAP2 POP SWAP2 POP SWAP2 POP SWAP2 JUMP JUMPDEST DUP3 DUP1 SLOAD PUSH2 0x28A SWAP1 PUSH2 0x62C JUMP JUMPDEST SWAP1 PUSH1 0x0 MSTORE PUSH1 0x20 PUSH1 0x0 KECCAK256 SWAP1 PUSH1 0x1F ADD PUSH1 0x20 SWAP1 DIV DUP2 ADD SWAP3 DUP3 PUSH2 0x2AC JUMPI PUSH1 0x0 DUP6 SSTORE PUSH2 0x2F3 JUMP JUMPDEST DUP3 PUSH1 0x1F LT PUSH2 0x2C5 JUMPI DUP1 MLOAD PUSH1 0xFF NOT AND DUP4 DUP1 ADD OR DUP6 SSTORE PUSH2 0x2F3 JUMP JUMPDEST DUP3 DUP1 ADD PUSH1 0x1 ADD DUP6 SSTORE DUP3 ISZERO PUSH2 0x2F3 JUMPI SWAP2 DUP3 ADD JUMPDEST DUP3 DUP2 GT ISZERO PUSH2 0x2F2 JUMPI DUP3 MLOAD DUP3 SSTORE SWAP2 PUSH1 0x20 ADD SWAP2 SWAP1 PUSH1 0x1 ADD SWAP1 PUSH2 0x2D7 JUMP JUMPDEST JUMPDEST POP SWAP1 POP PUSH2 0x300 SWAP2 SWAP1 PUSH2 0x304 JUMP JUMPDEST POP SWAP1 JUMP JUMPDEST JUMPDEST DUP1 DUP3 GT ISZERO PUSH2 0x31D JUMPI PUSH1 0x0 DUP2 PUSH1 0x0 SWAP1 SSTORE POP PUSH1 0x1 ADD PUSH2 0x305 JUMP JUMPDEST POP SWAP1 JUMP JUMPDEST PUSH1 0x0 PUSH2 0x334 PUSH2 0x32F DUP5 PUSH2 0x50B JUMP JUMPDEST PUSH2 0x4E6 JUMP JUMPDEST SWAP1 POP DUP3 DUP2 MSTORE PUSH1 0x20 DUP2 ADD DUP5 DUP5 DUP5 ADD GT ISZERO PUSH2 0x350 JUMPI PUSH2 0x34F PUSH2 0x76A JUMP JUMPDEST JUMPDEST PUSH2 0x35B DUP5 DUP3 DUP6 PUSH2 0x5EA JUMP JUMPDEST POP SWAP4 SWAP3 POP POP POP JUMP JUMPDEST PUSH1 0x0 DUP2 CALLDATALOAD SWAP1 POP PUSH2 0x372 DUP2 PUSH2 0x78A JUMP JUMPDEST SWAP3 SWAP2 POP POP JUMP JUMPDEST PUSH1 0x0 DUP3 PUSH1 0x1F DUP4 ADD SLT PUSH2 0x38D JUMPI PUSH2 0x38C PUSH2 0x765 JUMP JUMPDEST JUMPDEST DUP2 CALLDATALOAD PUSH2 0x39D DUP5 DUP3 PUSH1 0x20 DUP7 ADD PUSH2 0x321 JUMP JUMPDEST SWAP2 POP POP SWAP3 SWAP2 POP POP JUMP JUMPDEST PUSH1 0x0 DUP2 CALLDATALOAD SWAP1 POP PUSH2 0x3B5 DUP2 PUSH2 0x7A1 JUMP JUMPDEST SWAP3 SWAP2 POP POP JUMP JUMPDEST PUSH1 0x0 DUP1 PUSH1 0x40 DUP4 DUP6 SUB SLT ISZERO PUSH2 0x3D2 JUMPI PUSH2 0x3D1 PUSH2 0x774 JUMP JUMPDEST JUMPDEST PUSH1 0x0 DUP4 ADD CALLDATALOAD PUSH8 0xFFFFFFFFFFFFFFFF DUP2 GT ISZERO PUSH2 0x3F0 JUMPI PUSH2 0x3EF PUSH2 0x76F JUMP JUMPDEST JUMPDEST PUSH2 0x3FC DUP6 DUP3 DUP7 ADD PUSH2 0x378 JUMP JUMPDEST SWAP3 POP POP PUSH1 0x20 PUSH2 0x40D DUP6 DUP3 DUP7 ADD PUSH2 0x363 JUMP JUMPDEST SWAP2 POP POP SWAP3 POP SWAP3 SWAP1 POP JUMP JUMPDEST PUSH1 0x0 PUSH1 0x20 DUP3 DUP5 SUB SLT ISZERO PUSH2 0x42D JUMPI PUSH2 0x42C PUSH2 0x774 JUMP JUMPDEST JUMPDEST PUSH1 0x0 PUSH2 0x43B DUP5 DUP3 DUP6 ADD PUSH2 0x3A6 JUMP JUMPDEST SWAP2 POP POP SWAP3 SWAP2 POP POP JUMP JUMPDEST PUSH2 0x44D DUP2 PUSH2 0x5AE JUMP JUMPDEST DUP3 MSTORE POP POP JUMP JUMPDEST PUSH1 0x0 PUSH2 0x45E DUP3 PUSH2 0x53C JUMP JUMPDEST PUSH2 0x468 DUP2 DUP6 PUSH2 0x547 JUMP JUMPDEST SWAP4 POP PUSH2 0x478 DUP2 DUP6 PUSH1 0x20 DUP7 ADD PUSH2 0x5F9 JUMP JUMPDEST PUSH2 0x481 DUP2 PUSH2 0x779 JUMP JUMPDEST DUP5 ADD SWAP2 POP POP SWAP3 SWAP2 POP POP JUMP JUMPDEST PUSH2 0x495 DUP2 PUSH2 0x5E0 JUMP JUMPDEST DUP3 MSTORE POP POP JUMP JUMPDEST PUSH1 0x0 PUSH1 0x40 DUP3 ADD SWAP1 POP DUP2 DUP2 SUB PUSH1 0x0 DUP4 ADD MSTORE PUSH2 0x4B5 DUP2 DUP6 PUSH2 0x453 JUMP JUMPDEST SWAP1 POP PUSH2 0x4C4 PUSH1 0x20 DUP4 ADD DUP5 PUSH2 0x444 JUMP JUMPDEST SWAP4 SWAP3 POP POP POP JUMP JUMPDEST PUSH1 0x0 PUSH1 0x20 DUP3 ADD SWAP1 POP PUSH2 0x4E0 PUSH1 0x0 DUP4 ADD DUP5 PUSH2 0x48C JUMP JUMPDEST SWAP3 SWAP2 POP POP JUMP JUMPDEST PUSH1 0x0 PUSH2 0x4F0 PUSH2 0x501 JUMP JUMPDEST SWAP1 POP PUSH2 0x4FC DUP3 DUP3 PUSH2 0x65E JUMP JUMPDEST SWAP2 SWAP1 POP JUMP JUMPDEST PUSH1 0x0 PUSH1 0x40 MLOAD SWAP1 POP SWAP1 JUMP JUMPDEST PUSH1 0x0 PUSH8 0xFFFFFFFFFFFFFFFF DUP3 GT ISZERO PUSH2 0x526 JUMPI PUSH2 0x525 PUSH2 0x736 JUMP JUMPDEST JUMPDEST PUSH2 0x52F DUP3 PUSH2 0x779 JUMP JUMPDEST SWAP1 POP PUSH1 0x20 DUP2 ADD SWAP1 POP SWAP2 SWAP1 POP JUMP JUMPDEST PUSH1 0x0 DUP2 MLOAD SWAP1 POP SWAP2 SWAP1 POP JUMP JUMPDEST PUSH1 0x0 DUP3 DUP3 MSTORE PUSH1 0x20 DUP3 ADD SWAP1 POP SWAP3 SWAP2 POP POP JUMP JUMPDEST PUSH1 0x0 PUSH2 0x563 DUP3 PUSH2 0x5E0 JUMP JUMPDEST SWAP2 POP PUSH2 0x56E DUP4 PUSH2 0x5E0 JUMP JUMPDEST SWAP3 POP DUP3 PUSH32 0xFFFFFFFFFFFFFFFFFFFFFFFFFFFFFFFFFFFFFFFFFFFFFFFFFFFFFFFFFFFFFFFF SUB DUP3 GT ISZERO PUSH2 0x5A3 JUMPI PUSH2 0x5A2 PUSH2 0x6D8 JUMP JUMPDEST JUMPDEST DUP3 DUP3 ADD SWAP1 POP SWAP3 SWAP2 POP POP JUMP JUMPDEST PUSH1 0x0 PUSH2 0x5B9 DUP3 PUSH2 0x5C0 JUMP JUMPDEST SWAP1 POP SWAP2 SWAP1 POP JUMP JUMPDEST PUSH1 0x0 PUSH20 0xFFFFFFFFFFFFFFFFFFFFFFFFFFFFFFFFFFFFFFFF DUP3 AND SWAP1 POP SWAP2 SWAP1 POP JUMP JUMPDEST PUSH1 0x0 DUP2 SWAP1 POP SWAP2 SWAP1 POP JUMP JUMPDEST DUP3 DUP2 DUP4 CALLDATACOPY PUSH1 0x0 DUP4 DUP4 ADD MSTORE POP POP POP JUMP JUMPDEST PUSH1 0x0 JUMPDEST DUP4 DUP2 LT ISZERO PUSH2 0x617 JUMPI DUP1 DUP3 ADD MLOAD DUP2 DUP5 ADD MSTORE PUSH1 0x20 DUP2 ADD SWAP1 POP PUSH2 0x5FC JUMP JUMPDEST DUP4 DUP2 GT ISZERO PUSH2 0x626 JUMPI PUSH1 0x0 DUP5 DUP5 ADD MSTORE JUMPDEST POP POP POP POP JUMP JUMPDEST PUSH1 0x0 PUSH1 0x2 DUP3 DIV SWAP1 POP PUSH1 0x1 DUP3 AND DUP1 PUSH2 0x644 JUMPI PUSH1 0x7F DUP3 AND SWAP2 POP JUMPDEST PUSH1 0x20 DUP3 LT DUP2 EQ ISZERO PUSH2 0x658 JUMPI PUSH2 0x657 PUSH2 0x707 JUMP JUMPDEST JUMPDEST POP SWAP2 SWAP1 POP JUMP JUMPDEST PUSH2 0x667 DUP3 PUSH2 0x779 JUMP JUMPDEST DUP2 ADD DUP2 DUP2 LT PUSH8 0xFFFFFFFFFFFFFFFF DUP3 GT OR ISZERO PUSH2 0x686 JUMPI PUSH2 0x685 PUSH2 0x736 JUMP JUMPDEST JUMPDEST DUP1 PUSH1 0x40 MSTORE POP POP POP JUMP JUMPDEST PUSH1 0x0 PUSH2 0x69A DUP3 PUSH2 0x5E0 JUMP JUMPDEST SWAP2 POP PUSH32 0xFFFFFFFFFFFFFFFFFFFFFFFFFFFFFFFFFFFFFFFFFFFFFFFFFFFFFFFFFFFFFFFF DUP3 EQ ISZERO PUSH2 0x6CD JUMPI PUSH2 0x6CC PUSH2 0x6D8 JUMP JUMPDEST JUMPDEST PUSH1 0x1 DUP3 ADD SWAP1 POP SWAP2 SWAP1 POP JUMP JUMPDEST PUSH32 0x4E487B7100000000000000000000000000000000000000000000000000000000 PUSH1 0x0 MSTORE PUSH1 0x11 PUSH1 0x4 MSTORE PUSH1 0x24 PUSH1 0x0 REVERT JUMPDEST PUSH32 0x4E487B7100000000000000000000000000000000000000000000000000000000 PUSH1 0x0 MSTORE PUSH1 0x22 PUSH1 0x4 MSTORE PUSH1 0x24 PUSH1 0x0 REVERT JUMPDEST PUSH32 0x4E487B7100000000000000000000000000000000000000000000000000000000 PUSH1 0x0 MSTORE PUSH1 0x41 PUSH1 0x4 MSTORE PUSH1 0x24 PUSH1 0x0 REVERT JUMPDEST PUSH1 0x0 DUP1 REVERT JUMPDEST PUSH1 0x0 DUP1 REVERT JUMPDEST PUSH1 0x0 DUP1 REVERT JUMPDEST PUSH1 0x0 DUP1 REVERT JUMPDEST PUSH1 0x0 PUSH1 0x1F NOT PUSH1 0x1F DUP4 ADD AND SWAP1 POP SWAP2 SWAP1 POP JUMP JUMPDEST PUSH2 0x793 DUP2 PUSH2 0x5AE JUMP JUMPDEST DUP2 EQ PUSH2 0x79E JUMPI PUSH1 0x0 DUP1 REVERT JUMPDEST POP JUMP JUMPDEST PUSH2 0x7AA DUP2 PUSH2 0x5E0 JUMP JUMPDEST DUP2 EQ PUSH2 0x7B5 JUMPI PUSH1 0x0 DUP1 REVERT JUMPDEST POP JUMP INVALID LOG2 PUSH5 0x6970667358 0x22 SLT KECCAK256 0xF9 0xE8 LOG1 0xAA CALLCODE 0xE1 LT PUSH16 0x2B580DC01582BCF692AC0F6850A79C46 MSTORE 0xB7 PC CALLDATALOAD 0xC1 CALLDATACOPY DUP16 0xA8 PUSH5 0x736F6C6343 STOP ADDMOD SMOD STOP CALLER "
				},
				"gasEstimates": {
					"creation": {
						"codeDepositCost": "406000",
						"executionCost": "5449",
						"totalCost": "411449"
					},
					"external": {
						"createMember(string,address)": "infinite",
						"getNumberOfMembers()": "2437",
						"showMember(uint256)": "infinite"
					}
				},
				"methodIdentifiers": {
					"createMember(string,address)": "6b42cf4d",
					"getNumberOfMembers()": "8b73a46b",
					"showMember(uint256)": "feec91d3"
				}
			},
			"storageLayout": {
				"storage": [
					{
						"astId": 32,
						"contract": "contracts/Members.sol:Members",
						"label": "members",
						"offset": 0,
						"slot": "0",
						"type": "t_mapping(t_uint256,t_struct(Member)27_storage)"
					},
					{
						"astId": 35,
						"contract": "contracts/Members.sol:Members",
						"label": "AllMembers",
						"offset": 0,
						"slot": "1",
						"type": "t_uint256"
					}
				],
				"types": {
					"t_address_payable": {
						"encoding": "inplace",
						"label": "address payable",
						"numberOfBytes": "20"
					},
					"t_mapping(t_uint256,t_struct(Member)27_storage)": {
						"encoding": "mapping",
						"key": "t_uint256",
						"label": "mapping(uint256 => struct Members.Member)",
						"numberOfBytes": "32",
						"value": "t_struct(Member)27_storage"
					},
					"t_string_storage": {
						"encoding": "bytes",
						"label": "string",
						"numberOfBytes": "32"
					},
					"t_struct(Member)27_storage": {
						"encoding": "inplace",
						"label": "struct Members.Member",
						"members": [
							{
								"astId": 22,
								"contract": "contracts/Members.sol:Members",
								"label": "memberId",
								"offset": 0,
								"slot": "0",
								"type": "t_uint256"
							},
							{
								"astId": 24,
								"contract": "contracts/Members.sol:Members",
								"label": "name",
								"offset": 0,
								"slot": "1",
								"type": "t_string_storage"
							},
							{
								"astId": 26,
								"contract": "contracts/Members.sol:Members",
								"label": "memberWalletAddress",
								"offset": 0,
								"slot": "2",
								"type": "t_address_payable"
							}
						],
						"numberOfBytes": "96"
					},
					"t_uint256": {
						"encoding": "inplace",
						"label": "uint256",
						"numberOfBytes": "32"
					}
				}
			},
			"userdoc": {
				"kind": "user",
				"methods": {},
				"version": 1
			}
		}
	}
}