{
	"contracts/Tontines.sol": {
		"Tontines": {
			"abi": [
				{
					"inputs": [
						{
							"internalType": "string",
							"name": "_name",
							"type": "string"
						},
						{
							"internalType": "uint256",
							"name": "_amount",
							"type": "uint256"
						},
						{
							"internalType": "uint256",
							"name": "_beneficyingTimeInterval",
							"type": "uint256"
						}
					],
					"name": "createTontine",
					"outputs": [],
					"stateMutability": "nonpayable",
					"type": "function"
				},
				{
					"inputs": [
						{
							"internalType": "uint256",
							"name": "_tontineId",
							"type": "uint256"
						}
					],
					"name": "showTontine",
					"outputs": [
						{
							"internalType": "address payable",
							"name": "",
							"type": "address"
						},
						{
							"internalType": "string",
							"name": "",
							"type": "string"
						},
						{
							"internalType": "uint256",
							"name": "",
							"type": "uint256"
						},
						{
							"internalType": "uint256",
							"name": "",
							"type": "uint256"
						}
					],
					"stateMutability": "view",
					"type": "function"
				}
			],
			"devdoc": {
				"kind": "dev",
				"methods": {},
				"version": 1
			},
			"evm": {
				"assembly": "    /* \"contracts/Tontines.sol\":74:1090  contract Tontines {\r... */\n  mstore(0x40, 0x80)\n    /* \"contracts/Tontines.sol\":350:351  0 */\n  0x00\n    /* \"contracts/Tontines.sol\":326:351  uint numberOfTontines = 0 */\n  0x01\n  sstore\n    /* \"contracts/Tontines.sol\":74:1090  contract Tontines {\r... */\n  callvalue\n  dup1\n  iszero\n  tag_1\n  jumpi\n  0x00\n  dup1\n  revert\ntag_1:\n  pop\n  dataSize(sub_0)\n  dup1\n  dataOffset(sub_0)\n  0x00\n  codecopy\n  0x00\n  return\nstop\n\nsub_0: assembly {\n        /* \"contracts/Tontines.sol\":74:1090  contract Tontines {\r... */\n      mstore(0x40, 0x80)\n      callvalue\n      dup1\n      iszero\n      tag_1\n      jumpi\n      0x00\n      dup1\n      revert\n    tag_1:\n      pop\n      jumpi(tag_2, lt(calldatasize, 0x04))\n      shr(0xe0, calldataload(0x00))\n      dup1\n      0x53d21d45\n      eq\n      tag_3\n      jumpi\n      dup1\n      0xc3a70959\n      eq\n      tag_4\n      jumpi\n    tag_2:\n      0x00\n      dup1\n      revert\n        /* \"contracts/Tontines.sol\":360:702  function createTontine(string memory _name, uint _amount, uint _beneficyingTimeInterval) public {\r... */\n    tag_3:\n      tag_5\n      0x04\n      dup1\n      calldatasize\n      sub\n      dup2\n      add\n      swap1\n      tag_6\n      swap2\n      swap1\n      tag_7\n      jump\t// in\n    tag_6:\n      tag_8\n      jump\t// in\n    tag_5:\n      stop\n        /* \"contracts/Tontines.sol\":710:1085  function showTontine(uint _tontineId) public view returns(\r... */\n    tag_4:\n      tag_9\n      0x04\n      dup1\n      calldatasize\n      sub\n      dup2\n      add\n      swap1\n      tag_10\n      swap2\n      swap1\n      tag_11\n      jump\t// in\n    tag_10:\n      tag_12\n      jump\t// in\n    tag_9:\n      mload(0x40)\n      tag_13\n      swap5\n      swap4\n      swap3\n      swap2\n      swap1\n      tag_14\n      jump\t// in\n    tag_13:\n      mload(0x40)\n      dup1\n      swap2\n      sub\n      swap1\n      return\n        /* \"contracts/Tontines.sol\":360:702  function createTontine(string memory _name, uint _amount, uint _beneficyingTimeInterval) public {\r... */\n    tag_8:\n        /* \"contracts/Tontines.sol\":498:665  Tontine (\r... */\n      mload(0x40)\n      dup1\n      0xa0\n      add\n      0x40\n      mstore\n      dup1\n        /* \"contracts/Tontines.sol\":529:539  msg.sender */\n      caller\n        /* \"contracts/Tontines.sol\":498:665  Tontine (\r... */\n      0xffffffffffffffffffffffffffffffffffffffff\n      and\n      dup2\n      mstore\n      0x20\n      add\n        /* \"contracts/Tontines.sol\":572:573  1 */\n      0x01\n        /* \"contracts/Tontines.sol\":555:571  numberOfTontines */\n      dup1\n      sload\n        /* \"contracts/Tontines.sol\":555:573  numberOfTontines+1 */\n      tag_16\n      swap2\n      swap1\n      tag_17\n      jump\t// in\n    tag_16:\n        /* \"contracts/Tontines.sol\":498:665  Tontine (\r... */\n      dup2\n      mstore\n      0x20\n      add\n        /* \"contracts/Tontines.sol\":588:593  _name */\n      dup5\n        /* \"contracts/Tontines.sol\":498:665  Tontine (\r... */\n      dup2\n      mstore\n      0x20\n      add\n        /* \"contracts/Tontines.sol\":608:615  _amount */\n      dup4\n        /* \"contracts/Tontines.sol\":498:665  Tontine (\r... */\n      dup2\n      mstore\n      0x20\n      add\n        /* \"contracts/Tontines.sol\":630:654  _beneficyingTimeInterval */\n      dup3\n        /* \"contracts/Tontines.sol\":498:665  Tontine (\r... */\n      dup2\n      mstore\n      pop\n        /* \"contracts/Tontines.sol\":469:477  tontines */\n      0x00\n        /* \"contracts/Tontines.sol\":469:495  tontines[numberOfTontines] */\n      dup1\n        /* \"contracts/Tontines.sol\":478:494  numberOfTontines */\n      sload(0x01)\n        /* \"contracts/Tontines.sol\":469:495  tontines[numberOfTontines] */\n      dup2\n      mstore\n      0x20\n      add\n      swap1\n      dup2\n      mstore\n      0x20\n      add\n      0x00\n      keccak256\n        /* \"contracts/Tontines.sol\":469:665  tontines[numberOfTontines] = Tontine (\r... */\n      0x00\n      dup3\n      add\n      mload\n      dup2\n      0x00\n      add\n      exp(0x0100, 0x00)\n      dup2\n      sload\n      dup2\n      0xffffffffffffffffffffffffffffffffffffffff\n      mul\n      not\n      and\n      swap1\n      dup4\n      0xffffffffffffffffffffffffffffffffffffffff\n      and\n      mul\n      or\n      swap1\n      sstore\n      pop\n      0x20\n      dup3\n      add\n      mload\n      dup2\n      0x01\n      add\n      sstore\n      0x40\n      dup3\n      add\n      mload\n      dup2\n      0x02\n      add\n      swap1\n      dup1\n      mload\n      swap1\n      0x20\n      add\n      swap1\n      tag_18\n      swap3\n      swap2\n      swap1\n      tag_19\n      jump\t// in\n    tag_18:\n      pop\n      0x60\n      dup3\n      add\n      mload\n      dup2\n      0x03\n      add\n      sstore\n      0x80\n      dup3\n      add\n      mload\n      dup2\n      0x04\n      add\n      sstore\n      swap1\n      pop\n      pop\n        /* \"contracts/Tontines.sol\":676:692  numberOfTontines */\n      0x01\n      0x00\n        /* \"contracts/Tontines.sol\":676:694  numberOfTontines++ */\n      dup2\n      sload\n      dup1\n      swap3\n      swap2\n      swap1\n      tag_20\n      swap1\n      tag_21\n      jump\t// in\n    tag_20:\n      swap2\n      swap1\n      pop\n      sstore\n      pop\n        /* \"contracts/Tontines.sol\":360:702  function createTontine(string memory _name, uint _amount, uint _beneficyingTimeInterval) public {\r... */\n      pop\n      pop\n      pop\n      jump\t// out\n        /* \"contracts/Tontines.sol\":710:1085  function showTontine(uint _tontineId) public view returns(\r... */\n    tag_12:\n        /* \"contracts/Tontines.sol\":778:793  address payable */\n      0x00\n        /* \"contracts/Tontines.sol\":804:817  string memory */\n      0x60\n        /* \"contracts/Tontines.sol\":828:832  uint */\n      0x00\n        /* \"contracts/Tontines.sol\":843:847  uint */\n      dup1\n        /* \"contracts/Tontines.sol\":897:905  tontines */\n      0x00\n        /* \"contracts/Tontines.sol\":897:917  tontines[_tontineId] */\n      dup1\n        /* \"contracts/Tontines.sol\":906:916  _tontineId */\n      dup7\n        /* \"contracts/Tontines.sol\":897:917  tontines[_tontineId] */\n      dup2\n      mstore\n      0x20\n      add\n      swap1\n      dup2\n      mstore\n      0x20\n      add\n      0x00\n      keccak256\n        /* \"contracts/Tontines.sol\":897:923  tontines[_tontineId].owner */\n      0x00\n      add\n      0x00\n      swap1\n      sload\n      swap1\n      0x0100\n      exp\n      swap1\n      div\n      0xffffffffffffffffffffffffffffffffffffffff\n      and\n        /* \"contracts/Tontines.sol\":938:946  tontines */\n      0x00\n        /* \"contracts/Tontines.sol\":938:958  tontines[_tontineId] */\n      dup1\n        /* \"contracts/Tontines.sol\":947:957  _tontineId */\n      dup8\n        /* \"contracts/Tontines.sol\":938:958  tontines[_tontineId] */\n      dup2\n      mstore\n      0x20\n      add\n      swap1\n      dup2\n      mstore\n      0x20\n      add\n      0x00\n      keccak256\n        /* \"contracts/Tontines.sol\":938:963  tontines[_tontineId].name */\n      0x02\n      add\n        /* \"contracts/Tontines.sol\":978:986  tontines */\n      0x00\n        /* \"contracts/Tontines.sol\":978:998  tontines[_tontineId] */\n      dup1\n        /* \"contracts/Tontines.sol\":987:997  _tontineId */\n      dup9\n        /* \"contracts/Tontines.sol\":978:998  tontines[_tontineId] */\n      dup2\n      mstore\n      0x20\n      add\n      swap1\n      dup2\n      mstore\n      0x20\n      add\n      0x00\n      keccak256\n        /* \"contracts/Tontines.sol\":978:1005  tontines[_tontineId].amount */\n      0x03\n      add\n      sload\n        /* \"contracts/Tontines.sol\":1020:1028  tontines */\n      0x00\n        /* \"contracts/Tontines.sol\":1020:1040  tontines[_tontineId] */\n      dup1\n        /* \"contracts/Tontines.sol\":1029:1039  _tontineId */\n      dup10\n        /* \"contracts/Tontines.sol\":1020:1040  tontines[_tontineId] */\n      dup2\n      mstore\n      0x20\n      add\n      swap1\n      dup2\n      mstore\n      0x20\n      add\n      0x00\n      keccak256\n        /* \"contracts/Tontines.sol\":1020:1064  tontines[_tontineId].beneficyingTimeInterval */\n      0x04\n      add\n      sload\n        /* \"contracts/Tontines.sol\":875:1075  return (\r... */\n      dup3\n      dup1\n      sload\n      tag_23\n      swap1\n      tag_24\n      jump\t// in\n    tag_23:\n      dup1\n      0x1f\n      add\n      0x20\n      dup1\n      swap2\n      div\n      mul\n      0x20\n      add\n      mload(0x40)\n      swap1\n      dup2\n      add\n      0x40\n      mstore\n      dup1\n      swap3\n      swap2\n      swap1\n      dup2\n      dup2\n      mstore\n      0x20\n      add\n      dup3\n      dup1\n      sload\n      tag_25\n      swap1\n      tag_24\n      jump\t// in\n    tag_25:\n      dup1\n      iszero\n      tag_26\n      jumpi\n      dup1\n      0x1f\n      lt\n      tag_27\n      jumpi\n      0x0100\n      dup1\n      dup4\n      sload\n      div\n      mul\n      dup4\n      mstore\n      swap2\n      0x20\n      add\n      swap2\n      jump(tag_26)\n    tag_27:\n      dup3\n      add\n      swap2\n      swap1\n      0x00\n      mstore\n      keccak256(0x00, 0x20)\n      swap1\n    tag_28:\n      dup2\n      sload\n      dup2\n      mstore\n      swap1\n      0x01\n      add\n      swap1\n      0x20\n      add\n      dup1\n      dup4\n      gt\n      tag_28\n      jumpi\n      dup3\n      swap1\n      sub\n      0x1f\n      and\n      dup3\n      add\n      swap2\n    tag_26:\n      pop\n      pop\n      pop\n      pop\n      pop\n      swap3\n      pop\n      swap4\n      pop\n      swap4\n      pop\n      swap4\n      pop\n      swap4\n      pop\n        /* \"contracts/Tontines.sol\":710:1085  function showTontine(uint _tontineId) public view returns(\r... */\n      swap2\n      swap4\n      pop\n      swap2\n      swap4\n      jump\t// out\n    tag_19:\n      dup3\n      dup1\n      sload\n      tag_29\n      swap1\n      tag_24\n      jump\t// in\n    tag_29:\n      swap1\n      0x00\n      mstore\n      keccak256(0x00, 0x20)\n      swap1\n      0x1f\n      add\n      0x20\n      swap1\n      div\n      dup2\n      add\n      swap3\n      dup3\n      tag_31\n      jumpi\n      0x00\n      dup6\n      sstore\n      jump(tag_30)\n    tag_31:\n      dup3\n      0x1f\n      lt\n      tag_32\n      jumpi\n      dup1\n      mload\n      not(0xff)\n      and\n      dup4\n      dup1\n      add\n      or\n      dup6\n      sstore\n      jump(tag_30)\n    tag_32:\n      dup3\n      dup1\n      add\n      0x01\n      add\n      dup6\n      sstore\n      dup3\n      iszero\n      tag_30\n      jumpi\n      swap2\n      dup3\n      add\n    tag_33:\n      dup3\n      dup2\n      gt\n      iszero\n      tag_34\n      jumpi\n      dup3\n      mload\n      dup3\n      sstore\n      swap2\n      0x20\n      add\n      swap2\n      swap1\n      0x01\n      add\n      swap1\n      jump(tag_33)\n    tag_34:\n    tag_30:\n      pop\n      swap1\n      pop\n      tag_35\n      swap2\n      swap1\n      tag_36\n      jump\t// in\n    tag_35:\n      pop\n      swap1\n      jump\t// out\n    tag_36:\n    tag_37:\n      dup1\n      dup3\n      gt\n      iszero\n      tag_38\n      jumpi\n      0x00\n      dup2\n      0x00\n      swap1\n      sstore\n      pop\n      0x01\n      add\n      jump(tag_37)\n    tag_38:\n      pop\n      swap1\n      jump\t// out\n        /* \"#utility.yul\":7:419   */\n    tag_40:\n        /* \"#utility.yul\":85:90   */\n      0x00\n        /* \"#utility.yul\":110:176   */\n      tag_42\n        /* \"#utility.yul\":126:175   */\n      tag_43\n        /* \"#utility.yul\":168:174   */\n      dup5\n        /* \"#utility.yul\":126:175   */\n      tag_44\n      jump\t// in\n    tag_43:\n        /* \"#utility.yul\":110:176   */\n      tag_45\n      jump\t// in\n    tag_42:\n        /* \"#utility.yul\":101:176   */\n      swap1\n      pop\n        /* \"#utility.yul\":199:205   */\n      dup3\n        /* \"#utility.yul\":192:197   */\n      dup2\n        /* \"#utility.yul\":185:206   */\n      mstore\n        /* \"#utility.yul\":237:241   */\n      0x20\n        /* \"#utility.yul\":230:235   */\n      dup2\n        /* \"#utility.yul\":226:242   */\n      add\n        /* \"#utility.yul\":275:278   */\n      dup5\n        /* \"#utility.yul\":266:272   */\n      dup5\n        /* \"#utility.yul\":261:264   */\n      dup5\n        /* \"#utility.yul\":257:273   */\n      add\n        /* \"#utility.yul\":254:279   */\n      gt\n        /* \"#utility.yul\":251:363   */\n      iszero\n      tag_46\n      jumpi\n        /* \"#utility.yul\":282:361   */\n      tag_47\n      tag_48\n      jump\t// in\n    tag_47:\n        /* \"#utility.yul\":251:363   */\n    tag_46:\n        /* \"#utility.yul\":372:413   */\n      tag_49\n        /* \"#utility.yul\":406:412   */\n      dup5\n        /* \"#utility.yul\":401:404   */\n      dup3\n        /* \"#utility.yul\":396:399   */\n      dup6\n        /* \"#utility.yul\":372:413   */\n      tag_50\n      jump\t// in\n    tag_49:\n        /* \"#utility.yul\":91:419   */\n      pop\n        /* \"#utility.yul\":7:419   */\n      swap4\n      swap3\n      pop\n      pop\n      pop\n      jump\t// out\n        /* \"#utility.yul\":439:779   */\n    tag_51:\n        /* \"#utility.yul\":495:500   */\n      0x00\n        /* \"#utility.yul\":544:547   */\n      dup3\n        /* \"#utility.yul\":537:541   */\n      0x1f\n        /* \"#utility.yul\":529:535   */\n      dup4\n        /* \"#utility.yul\":525:542   */\n      add\n        /* \"#utility.yul\":521:548   */\n      slt\n        /* \"#utility.yul\":511:633   */\n      tag_53\n      jumpi\n        /* \"#utility.yul\":552:631   */\n      tag_54\n      tag_55\n      jump\t// in\n    tag_54:\n        /* \"#utility.yul\":511:633   */\n    tag_53:\n        /* \"#utility.yul\":669:675   */\n      dup2\n        /* \"#utility.yul\":656:676   */\n      calldataload\n        /* \"#utility.yul\":694:773   */\n      tag_56\n        /* \"#utility.yul\":769:772   */\n      dup5\n        /* \"#utility.yul\":761:767   */\n      dup3\n        /* \"#utility.yul\":754:758   */\n      0x20\n        /* \"#utility.yul\":746:752   */\n      dup7\n        /* \"#utility.yul\":742:759   */\n      add\n        /* \"#utility.yul\":694:773   */\n      tag_40\n      jump\t// in\n    tag_56:\n        /* \"#utility.yul\":685:773   */\n      swap2\n      pop\n        /* \"#utility.yul\":501:779   */\n      pop\n        /* \"#utility.yul\":439:779   */\n      swap3\n      swap2\n      pop\n      pop\n      jump\t// out\n        /* \"#utility.yul\":785:924   */\n    tag_57:\n        /* \"#utility.yul\":831:836   */\n      0x00\n        /* \"#utility.yul\":869:875   */\n      dup2\n        /* \"#utility.yul\":856:876   */\n      calldataload\n        /* \"#utility.yul\":847:876   */\n      swap1\n      pop\n        /* \"#utility.yul\":885:918   */\n      tag_59\n        /* \"#utility.yul\":912:917   */\n      dup2\n        /* \"#utility.yul\":885:918   */\n      tag_60\n      jump\t// in\n    tag_59:\n        /* \"#utility.yul\":785:924   */\n      swap3\n      swap2\n      pop\n      pop\n      jump\t// out\n        /* \"#utility.yul\":930:1729   */\n    tag_7:\n        /* \"#utility.yul\":1017:1023   */\n      0x00\n        /* \"#utility.yul\":1025:1031   */\n      dup1\n        /* \"#utility.yul\":1033:1039   */\n      0x00\n        /* \"#utility.yul\":1082:1084   */\n      0x60\n        /* \"#utility.yul\":1070:1079   */\n      dup5\n        /* \"#utility.yul\":1061:1068   */\n      dup7\n        /* \"#utility.yul\":1057:1080   */\n      sub\n        /* \"#utility.yul\":1053:1085   */\n      slt\n        /* \"#utility.yul\":1050:1169   */\n      iszero\n      tag_62\n      jumpi\n        /* \"#utility.yul\":1088:1167   */\n      tag_63\n      tag_64\n      jump\t// in\n    tag_63:\n        /* \"#utility.yul\":1050:1169   */\n    tag_62:\n        /* \"#utility.yul\":1236:1237   */\n      0x00\n        /* \"#utility.yul\":1225:1234   */\n      dup5\n        /* \"#utility.yul\":1221:1238   */\n      add\n        /* \"#utility.yul\":1208:1239   */\n      calldataload\n        /* \"#utility.yul\":1266:1284   */\n      0xffffffffffffffff\n        /* \"#utility.yul\":1258:1264   */\n      dup2\n        /* \"#utility.yul\":1255:1285   */\n      gt\n        /* \"#utility.yul\":1252:1369   */\n      iszero\n      tag_65\n      jumpi\n        /* \"#utility.yul\":1288:1367   */\n      tag_66\n      tag_67\n      jump\t// in\n    tag_66:\n        /* \"#utility.yul\":1252:1369   */\n    tag_65:\n        /* \"#utility.yul\":1393:1456   */\n      tag_68\n        /* \"#utility.yul\":1448:1455   */\n      dup7\n        /* \"#utility.yul\":1439:1445   */\n      dup3\n        /* \"#utility.yul\":1428:1437   */\n      dup8\n        /* \"#utility.yul\":1424:1446   */\n      add\n        /* \"#utility.yul\":1393:1456   */\n      tag_51\n      jump\t// in\n    tag_68:\n        /* \"#utility.yul\":1383:1456   */\n      swap4\n      pop\n        /* \"#utility.yul\":1179:1466   */\n      pop\n        /* \"#utility.yul\":1505:1507   */\n      0x20\n        /* \"#utility.yul\":1531:1584   */\n      tag_69\n        /* \"#utility.yul\":1576:1583   */\n      dup7\n        /* \"#utility.yul\":1567:1573   */\n      dup3\n        /* \"#utility.yul\":1556:1565   */\n      dup8\n        /* \"#utility.yul\":1552:1574   */\n      add\n        /* \"#utility.yul\":1531:1584   */\n      tag_57\n      jump\t// in\n    tag_69:\n        /* \"#utility.yul\":1521:1584   */\n      swap3\n      pop\n        /* \"#utility.yul\":1476:1594   */\n      pop\n        /* \"#utility.yul\":1633:1635   */\n      0x40\n        /* \"#utility.yul\":1659:1712   */\n      tag_70\n        /* \"#utility.yul\":1704:1711   */\n      dup7\n        /* \"#utility.yul\":1695:1701   */\n      dup3\n        /* \"#utility.yul\":1684:1693   */\n      dup8\n        /* \"#utility.yul\":1680:1702   */\n      add\n        /* \"#utility.yul\":1659:1712   */\n      tag_57\n      jump\t// in\n    tag_70:\n        /* \"#utility.yul\":1649:1712   */\n      swap2\n      pop\n        /* \"#utility.yul\":1604:1722   */\n      pop\n        /* \"#utility.yul\":930:1729   */\n      swap3\n      pop\n      swap3\n      pop\n      swap3\n      jump\t// out\n        /* \"#utility.yul\":1735:2064   */\n    tag_11:\n        /* \"#utility.yul\":1794:1800   */\n      0x00\n        /* \"#utility.yul\":1843:1845   */\n      0x20\n        /* \"#utility.yul\":1831:1840   */\n      dup3\n        /* \"#utility.yul\":1822:1829   */\n      dup5\n        /* \"#utility.yul\":1818:1841   */\n      sub\n        /* \"#utility.yul\":1814:1846   */\n      slt\n        /* \"#utility.yul\":1811:1930   */\n      iszero\n      tag_72\n      jumpi\n        /* \"#utility.yul\":1849:1928   */\n      tag_73\n      tag_64\n      jump\t// in\n    tag_73:\n        /* \"#utility.yul\":1811:1930   */\n    tag_72:\n        /* \"#utility.yul\":1969:1970   */\n      0x00\n        /* \"#utility.yul\":1994:2047   */\n      tag_74\n        /* \"#utility.yul\":2039:2046   */\n      dup5\n        /* \"#utility.yul\":2030:2036   */\n      dup3\n        /* \"#utility.yul\":2019:2028   */\n      dup6\n        /* \"#utility.yul\":2015:2037   */\n      add\n        /* \"#utility.yul\":1994:2047   */\n      tag_57\n      jump\t// in\n    tag_74:\n        /* \"#utility.yul\":1984:2047   */\n      swap2\n      pop\n        /* \"#utility.yul\":1940:2057   */\n      pop\n        /* \"#utility.yul\":1735:2064   */\n      swap3\n      swap2\n      pop\n      pop\n      jump\t// out\n        /* \"#utility.yul\":2070:2212   */\n    tag_75:\n        /* \"#utility.yul\":2173:2205   */\n      tag_77\n        /* \"#utility.yul\":2199:2204   */\n      dup2\n        /* \"#utility.yul\":2173:2205   */\n      tag_78\n      jump\t// in\n    tag_77:\n        /* \"#utility.yul\":2168:2171   */\n      dup3\n        /* \"#utility.yul\":2161:2206   */\n      mstore\n        /* \"#utility.yul\":2070:2212   */\n      pop\n      pop\n      jump\t// out\n        /* \"#utility.yul\":2218:2582   */\n    tag_79:\n        /* \"#utility.yul\":2306:2309   */\n      0x00\n        /* \"#utility.yul\":2334:2373   */\n      tag_81\n        /* \"#utility.yul\":2367:2372   */\n      dup3\n        /* \"#utility.yul\":2334:2373   */\n      tag_82\n      jump\t// in\n    tag_81:\n        /* \"#utility.yul\":2389:2460   */\n      tag_83\n        /* \"#utility.yul\":2453:2459   */\n      dup2\n        /* \"#utility.yul\":2448:2451   */\n      dup6\n        /* \"#utility.yul\":2389:2460   */\n      tag_84\n      jump\t// in\n    tag_83:\n        /* \"#utility.yul\":2382:2460   */\n      swap4\n      pop\n        /* \"#utility.yul\":2469:2521   */\n      tag_85\n        /* \"#utility.yul\":2514:2520   */\n      dup2\n        /* \"#utility.yul\":2509:2512   */\n      dup6\n        /* \"#utility.yul\":2502:2506   */\n      0x20\n        /* \"#utility.yul\":2495:2500   */\n      dup7\n        /* \"#utility.yul\":2491:2507   */\n      add\n        /* \"#utility.yul\":2469:2521   */\n      tag_86\n      jump\t// in\n    tag_85:\n        /* \"#utility.yul\":2546:2575   */\n      tag_87\n        /* \"#utility.yul\":2568:2574   */\n      dup2\n        /* \"#utility.yul\":2546:2575   */\n      tag_88\n      jump\t// in\n    tag_87:\n        /* \"#utility.yul\":2541:2544   */\n      dup5\n        /* \"#utility.yul\":2537:2576   */\n      add\n        /* \"#utility.yul\":2530:2576   */\n      swap2\n      pop\n        /* \"#utility.yul\":2310:2582   */\n      pop\n        /* \"#utility.yul\":2218:2582   */\n      swap3\n      swap2\n      pop\n      pop\n      jump\t// out\n        /* \"#utility.yul\":2588:2706   */\n    tag_89:\n        /* \"#utility.yul\":2675:2699   */\n      tag_91\n        /* \"#utility.yul\":2693:2698   */\n      dup2\n        /* \"#utility.yul\":2675:2699   */\n      tag_92\n      jump\t// in\n    tag_91:\n        /* \"#utility.yul\":2670:2673   */\n      dup3\n        /* \"#utility.yul\":2663:2700   */\n      mstore\n        /* \"#utility.yul\":2588:2706   */\n      pop\n      pop\n      jump\t// out\n        /* \"#utility.yul\":2712:3388   */\n    tag_14:\n        /* \"#utility.yul\":2925:2929   */\n      0x00\n        /* \"#utility.yul\":2963:2966   */\n      0x80\n        /* \"#utility.yul\":2952:2961   */\n      dup3\n        /* \"#utility.yul\":2948:2967   */\n      add\n        /* \"#utility.yul\":2940:2967   */\n      swap1\n      pop\n        /* \"#utility.yul\":2977:3064   */\n      tag_94\n        /* \"#utility.yul\":3061:3062   */\n      0x00\n        /* \"#utility.yul\":3050:3059   */\n      dup4\n        /* \"#utility.yul\":3046:3063   */\n      add\n        /* \"#utility.yul\":3037:3043   */\n      dup8\n        /* \"#utility.yul\":2977:3064   */\n      tag_75\n      jump\t// in\n    tag_94:\n        /* \"#utility.yul\":3111:3120   */\n      dup2\n        /* \"#utility.yul\":3105:3109   */\n      dup2\n        /* \"#utility.yul\":3101:3121   */\n      sub\n        /* \"#utility.yul\":3096:3098   */\n      0x20\n        /* \"#utility.yul\":3085:3094   */\n      dup4\n        /* \"#utility.yul\":3081:3099   */\n      add\n        /* \"#utility.yul\":3074:3122   */\n      mstore\n        /* \"#utility.yul\":3139:3217   */\n      tag_95\n        /* \"#utility.yul\":3212:3216   */\n      dup2\n        /* \"#utility.yul\":3203:3209   */\n      dup7\n        /* \"#utility.yul\":3139:3217   */\n      tag_79\n      jump\t// in\n    tag_95:\n        /* \"#utility.yul\":3131:3217   */\n      swap1\n      pop\n        /* \"#utility.yul\":3227:3299   */\n      tag_96\n        /* \"#utility.yul\":3295:3297   */\n      0x40\n        /* \"#utility.yul\":3284:3293   */\n      dup4\n        /* \"#utility.yul\":3280:3298   */\n      add\n        /* \"#utility.yul\":3271:3277   */\n      dup6\n        /* \"#utility.yul\":3227:3299   */\n      tag_89\n      jump\t// in\n    tag_96:\n        /* \"#utility.yul\":3309:3381   */\n      tag_97\n        /* \"#utility.yul\":3377:3379   */\n      0x60\n        /* \"#utility.yul\":3366:3375   */\n      dup4\n        /* \"#utility.yul\":3362:3380   */\n      add\n        /* \"#utility.yul\":3353:3359   */\n      dup5\n        /* \"#utility.yul\":3309:3381   */\n      tag_89\n      jump\t// in\n    tag_97:\n        /* \"#utility.yul\":2712:3388   */\n      swap6\n      swap5\n      pop\n      pop\n      pop\n      pop\n      pop\n      jump\t// out\n        /* \"#utility.yul\":3394:3523   */\n    tag_45:\n        /* \"#utility.yul\":3428:3434   */\n      0x00\n        /* \"#utility.yul\":3455:3475   */\n      tag_99\n      tag_100\n      jump\t// in\n    tag_99:\n        /* \"#utility.yul\":3445:3475   */\n      swap1\n      pop\n        /* \"#utility.yul\":3484:3517   */\n      tag_101\n        /* \"#utility.yul\":3512:3516   */\n      dup3\n        /* \"#utility.yul\":3504:3510   */\n      dup3\n        /* \"#utility.yul\":3484:3517   */\n      tag_102\n      jump\t// in\n    tag_101:\n        /* \"#utility.yul\":3394:3523   */\n      swap2\n      swap1\n      pop\n      jump\t// out\n        /* \"#utility.yul\":3529:3604   */\n    tag_100:\n        /* \"#utility.yul\":3562:3568   */\n      0x00\n        /* \"#utility.yul\":3595:3597   */\n      0x40\n        /* \"#utility.yul\":3589:3598   */\n      mload\n        /* \"#utility.yul\":3579:3598   */\n      swap1\n      pop\n        /* \"#utility.yul\":3529:3604   */\n      swap1\n      jump\t// out\n        /* \"#utility.yul\":3610:3918   */\n    tag_44:\n        /* \"#utility.yul\":3672:3676   */\n      0x00\n        /* \"#utility.yul\":3762:3780   */\n      0xffffffffffffffff\n        /* \"#utility.yul\":3754:3760   */\n      dup3\n        /* \"#utility.yul\":3751:3781   */\n      gt\n        /* \"#utility.yul\":3748:3804   */\n      iszero\n      tag_105\n      jumpi\n        /* \"#utility.yul\":3784:3802   */\n      tag_106\n      tag_107\n      jump\t// in\n    tag_106:\n        /* \"#utility.yul\":3748:3804   */\n    tag_105:\n        /* \"#utility.yul\":3822:3851   */\n      tag_108\n        /* \"#utility.yul\":3844:3850   */\n      dup3\n        /* \"#utility.yul\":3822:3851   */\n      tag_88\n      jump\t// in\n    tag_108:\n        /* \"#utility.yul\":3814:3851   */\n      swap1\n      pop\n        /* \"#utility.yul\":3906:3910   */\n      0x20\n        /* \"#utility.yul\":3900:3904   */\n      dup2\n        /* \"#utility.yul\":3896:3911   */\n      add\n        /* \"#utility.yul\":3888:3911   */\n      swap1\n      pop\n        /* \"#utility.yul\":3610:3918   */\n      swap2\n      swap1\n      pop\n      jump\t// out\n        /* \"#utility.yul\":3924:4023   */\n    tag_82:\n        /* \"#utility.yul\":3976:3982   */\n      0x00\n        /* \"#utility.yul\":4010:4015   */\n      dup2\n        /* \"#utility.yul\":4004:4016   */\n      mload\n        /* \"#utility.yul\":3994:4016   */\n      swap1\n      pop\n        /* \"#utility.yul\":3924:4023   */\n      swap2\n      swap1\n      pop\n      jump\t// out\n        /* \"#utility.yul\":4029:4198   */\n    tag_84:\n        /* \"#utility.yul\":4113:4124   */\n      0x00\n        /* \"#utility.yul\":4147:4153   */\n      dup3\n        /* \"#utility.yul\":4142:4145   */\n      dup3\n        /* \"#utility.yul\":4135:4154   */\n      mstore\n        /* \"#utility.yul\":4187:4191   */\n      0x20\n        /* \"#utility.yul\":4182:4185   */\n      dup3\n        /* \"#utility.yul\":4178:4192   */\n      add\n        /* \"#utility.yul\":4163:4192   */\n      swap1\n      pop\n        /* \"#utility.yul\":4029:4198   */\n      swap3\n      swap2\n      pop\n      pop\n      jump\t// out\n        /* \"#utility.yul\":4204:4509   */\n    tag_17:\n        /* \"#utility.yul\":4244:4247   */\n      0x00\n        /* \"#utility.yul\":4263:4283   */\n      tag_112\n        /* \"#utility.yul\":4281:4282   */\n      dup3\n        /* \"#utility.yul\":4263:4283   */\n      tag_92\n      jump\t// in\n    tag_112:\n        /* \"#utility.yul\":4258:4283   */\n      swap2\n      pop\n        /* \"#utility.yul\":4297:4317   */\n      tag_113\n        /* \"#utility.yul\":4315:4316   */\n      dup4\n        /* \"#utility.yul\":4297:4317   */\n      tag_92\n      jump\t// in\n    tag_113:\n        /* \"#utility.yul\":4292:4317   */\n      swap3\n      pop\n        /* \"#utility.yul\":4451:4452   */\n      dup3\n        /* \"#utility.yul\":4383:4449   */\n      0xffffffffffffffffffffffffffffffffffffffffffffffffffffffffffffffff\n        /* \"#utility.yul\":4379:4453   */\n      sub\n        /* \"#utility.yul\":4376:4377   */\n      dup3\n        /* \"#utility.yul\":4373:4454   */\n      gt\n        /* \"#utility.yul\":4370:4477   */\n      iszero\n      tag_114\n      jumpi\n        /* \"#utility.yul\":4457:4475   */\n      tag_115\n      tag_116\n      jump\t// in\n    tag_115:\n        /* \"#utility.yul\":4370:4477   */\n    tag_114:\n        /* \"#utility.yul\":4501:4502   */\n      dup3\n        /* \"#utility.yul\":4498:4499   */\n      dup3\n        /* \"#utility.yul\":4494:4503   */\n      add\n        /* \"#utility.yul\":4487:4503   */\n      swap1\n      pop\n        /* \"#utility.yul\":4204:4509   */\n      swap3\n      swap2\n      pop\n      pop\n      jump\t// out\n        /* \"#utility.yul\":4515:4619   */\n    tag_78:\n        /* \"#utility.yul\":4560:4567   */\n      0x00\n        /* \"#utility.yul\":4589:4613   */\n      tag_118\n        /* \"#utility.yul\":4607:4612   */\n      dup3\n        /* \"#utility.yul\":4589:4613   */\n      tag_119\n      jump\t// in\n    tag_118:\n        /* \"#utility.yul\":4578:4613   */\n      swap1\n      pop\n        /* \"#utility.yul\":4515:4619   */\n      swap2\n      swap1\n      pop\n      jump\t// out\n        /* \"#utility.yul\":4625:4751   */\n    tag_119:\n        /* \"#utility.yul\":4662:4669   */\n      0x00\n        /* \"#utility.yul\":4702:4744   */\n      0xffffffffffffffffffffffffffffffffffffffff\n        /* \"#utility.yul\":4695:4700   */\n      dup3\n        /* \"#utility.yul\":4691:4745   */\n      and\n        /* \"#utility.yul\":4680:4745   */\n      swap1\n      pop\n        /* \"#utility.yul\":4625:4751   */\n      swap2\n      swap1\n      pop\n      jump\t// out\n        /* \"#utility.yul\":4757:4834   */\n    tag_92:\n        /* \"#utility.yul\":4794:4801   */\n      0x00\n        /* \"#utility.yul\":4823:4828   */\n      dup2\n        /* \"#utility.yul\":4812:4828   */\n      swap1\n      pop\n        /* \"#utility.yul\":4757:4834   */\n      swap2\n      swap1\n      pop\n      jump\t// out\n        /* \"#utility.yul\":4840:4994   */\n    tag_50:\n        /* \"#utility.yul\":4924:4930   */\n      dup3\n        /* \"#utility.yul\":4919:4922   */\n      dup2\n        /* \"#utility.yul\":4914:4917   */\n      dup4\n        /* \"#utility.yul\":4901:4931   */\n      calldatacopy\n        /* \"#utility.yul\":4986:4987   */\n      0x00\n        /* \"#utility.yul\":4977:4983   */\n      dup4\n        /* \"#utility.yul\":4972:4975   */\n      dup4\n        /* \"#utility.yul\":4968:4984   */\n      add\n        /* \"#utility.yul\":4961:4988   */\n      mstore\n        /* \"#utility.yul\":4840:4994   */\n      pop\n      pop\n      pop\n      jump\t// out\n        /* \"#utility.yul\":5000:5307   */\n    tag_86:\n        /* \"#utility.yul\":5068:5069   */\n      0x00\n        /* \"#utility.yul\":5078:5191   */\n    tag_124:\n        /* \"#utility.yul\":5092:5098   */\n      dup4\n        /* \"#utility.yul\":5089:5090   */\n      dup2\n        /* \"#utility.yul\":5086:5099   */\n      lt\n        /* \"#utility.yul\":5078:5191   */\n      iszero\n      tag_126\n      jumpi\n        /* \"#utility.yul\":5177:5178   */\n      dup1\n        /* \"#utility.yul\":5172:5175   */\n      dup3\n        /* \"#utility.yul\":5168:5179   */\n      add\n        /* \"#utility.yul\":5162:5180   */\n      mload\n        /* \"#utility.yul\":5158:5159   */\n      dup2\n        /* \"#utility.yul\":5153:5156   */\n      dup5\n        /* \"#utility.yul\":5149:5160   */\n      add\n        /* \"#utility.yul\":5142:5181   */\n      mstore\n        /* \"#utility.yul\":5114:5116   */\n      0x20\n        /* \"#utility.yul\":5111:5112   */\n      dup2\n        /* \"#utility.yul\":5107:5117   */\n      add\n        /* \"#utility.yul\":5102:5117   */\n      swap1\n      pop\n        /* \"#utility.yul\":5078:5191   */\n      jump(tag_124)\n    tag_126:\n        /* \"#utility.yul\":5209:5215   */\n      dup4\n        /* \"#utility.yul\":5206:5207   */\n      dup2\n        /* \"#utility.yul\":5203:5216   */\n      gt\n        /* \"#utility.yul\":5200:5301   */\n      iszero\n      tag_127\n      jumpi\n        /* \"#utility.yul\":5289:5290   */\n      0x00\n        /* \"#utility.yul\":5280:5286   */\n      dup5\n        /* \"#utility.yul\":5275:5278   */\n      dup5\n        /* \"#utility.yul\":5271:5287   */\n      add\n        /* \"#utility.yul\":5264:5291   */\n      mstore\n        /* \"#utility.yul\":5200:5301   */\n    tag_127:\n        /* \"#utility.yul\":5049:5307   */\n      pop\n        /* \"#utility.yul\":5000:5307   */\n      pop\n      pop\n      pop\n      jump\t// out\n        /* \"#utility.yul\":5313:5633   */\n    tag_24:\n        /* \"#utility.yul\":5357:5363   */\n      0x00\n        /* \"#utility.yul\":5394:5395   */\n      0x02\n        /* \"#utility.yul\":5388:5392   */\n      dup3\n        /* \"#utility.yul\":5384:5396   */\n      div\n        /* \"#utility.yul\":5374:5396   */\n      swap1\n      pop\n        /* \"#utility.yul\":5441:5442   */\n      0x01\n        /* \"#utility.yul\":5435:5439   */\n      dup3\n        /* \"#utility.yul\":5431:5443   */\n      and\n        /* \"#utility.yul\":5462:5480   */\n      dup1\n        /* \"#utility.yul\":5452:5533   */\n      tag_129\n      jumpi\n        /* \"#utility.yul\":5518:5522   */\n      0x7f\n        /* \"#utility.yul\":5510:5516   */\n      dup3\n        /* \"#utility.yul\":5506:5523   */\n      and\n        /* \"#utility.yul\":5496:5523   */\n      swap2\n      pop\n        /* \"#utility.yul\":5452:5533   */\n    tag_129:\n        /* \"#utility.yul\":5580:5582   */\n      0x20\n        /* \"#utility.yul\":5572:5578   */\n      dup3\n        /* \"#utility.yul\":5569:5583   */\n      lt\n        /* \"#utility.yul\":5549:5567   */\n      dup2\n        /* \"#utility.yul\":5546:5584   */\n      eq\n        /* \"#utility.yul\":5543:5627   */\n      iszero\n      tag_130\n      jumpi\n        /* \"#utility.yul\":5599:5617   */\n      tag_131\n      tag_132\n      jump\t// in\n    tag_131:\n        /* \"#utility.yul\":5543:5627   */\n    tag_130:\n        /* \"#utility.yul\":5364:5633   */\n      pop\n        /* \"#utility.yul\":5313:5633   */\n      swap2\n      swap1\n      pop\n      jump\t// out\n        /* \"#utility.yul\":5639:5920   */\n    tag_102:\n        /* \"#utility.yul\":5722:5749   */\n      tag_134\n        /* \"#utility.yul\":5744:5748   */\n      dup3\n        /* \"#utility.yul\":5722:5749   */\n      tag_88\n      jump\t// in\n    tag_134:\n        /* \"#utility.yul\":5714:5720   */\n      dup2\n        /* \"#utility.yul\":5710:5750   */\n      add\n        /* \"#utility.yul\":5852:5858   */\n      dup2\n        /* \"#utility.yul\":5840:5850   */\n      dup2\n        /* \"#utility.yul\":5837:5859   */\n      lt\n        /* \"#utility.yul\":5816:5834   */\n      0xffffffffffffffff\n        /* \"#utility.yul\":5804:5814   */\n      dup3\n        /* \"#utility.yul\":5801:5835   */\n      gt\n        /* \"#utility.yul\":5798:5860   */\n      or\n        /* \"#utility.yul\":5795:5883   */\n      iszero\n      tag_135\n      jumpi\n        /* \"#utility.yul\":5863:5881   */\n      tag_136\n      tag_107\n      jump\t// in\n    tag_136:\n        /* \"#utility.yul\":5795:5883   */\n    tag_135:\n        /* \"#utility.yul\":5903:5913   */\n      dup1\n        /* \"#utility.yul\":5899:5901   */\n      0x40\n        /* \"#utility.yul\":5892:5914   */\n      mstore\n        /* \"#utility.yul\":5682:5920   */\n      pop\n        /* \"#utility.yul\":5639:5920   */\n      pop\n      pop\n      jump\t// out\n        /* \"#utility.yul\":5926:6159   */\n    tag_21:\n        /* \"#utility.yul\":5965:5968   */\n      0x00\n        /* \"#utility.yul\":5988:6012   */\n      tag_138\n        /* \"#utility.yul\":6006:6011   */\n      dup3\n        /* \"#utility.yul\":5988:6012   */\n      tag_92\n      jump\t// in\n    tag_138:\n        /* \"#utility.yul\":5979:6012   */\n      swap2\n      pop\n        /* \"#utility.yul\":6034:6100   */\n      0xffffffffffffffffffffffffffffffffffffffffffffffffffffffffffffffff\n        /* \"#utility.yul\":6027:6032   */\n      dup3\n        /* \"#utility.yul\":6024:6101   */\n      eq\n        /* \"#utility.yul\":6021:6124   */\n      iszero\n      tag_139\n      jumpi\n        /* \"#utility.yul\":6104:6122   */\n      tag_140\n      tag_116\n      jump\t// in\n    tag_140:\n        /* \"#utility.yul\":6021:6124   */\n    tag_139:\n        /* \"#utility.yul\":6151:6152   */\n      0x01\n        /* \"#utility.yul\":6144:6149   */\n      dup3\n        /* \"#utility.yul\":6140:6153   */\n      add\n        /* \"#utility.yul\":6133:6153   */\n      swap1\n      pop\n        /* \"#utility.yul\":5926:6159   */\n      swap2\n      swap1\n      pop\n      jump\t// out\n        /* \"#utility.yul\":6165:6345   */\n    tag_116:\n        /* \"#utility.yul\":6213:6290   */\n      0x4e487b7100000000000000000000000000000000000000000000000000000000\n        /* \"#utility.yul\":6210:6211   */\n      0x00\n        /* \"#utility.yul\":6203:6291   */\n      mstore\n        /* \"#utility.yul\":6310:6314   */\n      0x11\n        /* \"#utility.yul\":6307:6308   */\n      0x04\n        /* \"#utility.yul\":6300:6315   */\n      mstore\n        /* \"#utility.yul\":6334:6338   */\n      0x24\n        /* \"#utility.yul\":6331:6332   */\n      0x00\n        /* \"#utility.yul\":6324:6339   */\n      revert\n        /* \"#utility.yul\":6351:6531   */\n    tag_132:\n        /* \"#utility.yul\":6399:6476   */\n      0x4e487b7100000000000000000000000000000000000000000000000000000000\n        /* \"#utility.yul\":6396:6397   */\n      0x00\n        /* \"#utility.yul\":6389:6477   */\n      mstore\n        /* \"#utility.yul\":6496:6500   */\n      0x22\n        /* \"#utility.yul\":6493:6494   */\n      0x04\n        /* \"#utility.yul\":6486:6501   */\n      mstore\n        /* \"#utility.yul\":6520:6524   */\n      0x24\n        /* \"#utility.yul\":6517:6518   */\n      0x00\n        /* \"#utility.yul\":6510:6525   */\n      revert\n        /* \"#utility.yul\":6537:6717   */\n    tag_107:\n        /* \"#utility.yul\":6585:6662   */\n      0x4e487b7100000000000000000000000000000000000000000000000000000000\n        /* \"#utility.yul\":6582:6583   */\n      0x00\n        /* \"#utility.yul\":6575:6663   */\n      mstore\n        /* \"#utility.yul\":6682:6686   */\n      0x41\n        /* \"#utility.yul\":6679:6680   */\n      0x04\n        /* \"#utility.yul\":6672:6687   */\n      mstore\n        /* \"#utility.yul\":6706:6710   */\n      0x24\n        /* \"#utility.yul\":6703:6704   */\n      0x00\n        /* \"#utility.yul\":6696:6711   */\n      revert\n        /* \"#utility.yul\":6723:6840   */\n    tag_55:\n        /* \"#utility.yul\":6832:6833   */\n      0x00\n        /* \"#utility.yul\":6829:6830   */\n      dup1\n        /* \"#utility.yul\":6822:6834   */\n      revert\n        /* \"#utility.yul\":6846:6963   */\n    tag_48:\n        /* \"#utility.yul\":6955:6956   */\n      0x00\n        /* \"#utility.yul\":6952:6953   */\n      dup1\n        /* \"#utility.yul\":6945:6957   */\n      revert\n        /* \"#utility.yul\":6969:7086   */\n    tag_67:\n        /* \"#utility.yul\":7078:7079   */\n      0x00\n        /* \"#utility.yul\":7075:7076   */\n      dup1\n        /* \"#utility.yul\":7068:7080   */\n      revert\n        /* \"#utility.yul\":7092:7209   */\n    tag_64:\n        /* \"#utility.yul\":7201:7202   */\n      0x00\n        /* \"#utility.yul\":7198:7199   */\n      dup1\n        /* \"#utility.yul\":7191:7203   */\n      revert\n        /* \"#utility.yul\":7215:7317   */\n    tag_88:\n        /* \"#utility.yul\":7256:7262   */\n      0x00\n        /* \"#utility.yul\":7307:7309   */\n      0x1f\n        /* \"#utility.yul\":7303:7310   */\n      not\n        /* \"#utility.yul\":7298:7300   */\n      0x1f\n        /* \"#utility.yul\":7291:7296   */\n      dup4\n        /* \"#utility.yul\":7287:7301   */\n      add\n        /* \"#utility.yul\":7283:7311   */\n      and\n        /* \"#utility.yul\":7273:7311   */\n      swap1\n      pop\n        /* \"#utility.yul\":7215:7317   */\n      swap2\n      swap1\n      pop\n      jump\t// out\n        /* \"#utility.yul\":7323:7445   */\n    tag_60:\n        /* \"#utility.yul\":7396:7420   */\n      tag_150\n        /* \"#utility.yul\":7414:7419   */\n      dup2\n        /* \"#utility.yul\":7396:7420   */\n      tag_92\n      jump\t// in\n    tag_150:\n        /* \"#utility.yul\":7389:7394   */\n      dup2\n        /* \"#utility.yul\":7386:7421   */\n      eq\n        /* \"#utility.yul\":7376:7439   */\n      tag_151\n      jumpi\n        /* \"#utility.yul\":7435:7436   */\n      0x00\n        /* \"#utility.yul\":7432:7433   */\n      dup1\n        /* \"#utility.yul\":7425:7437   */\n      revert\n        /* \"#utility.yul\":7376:7439   */\n    tag_151:\n        /* \"#utility.yul\":7323:7445   */\n      pop\n      jump\t// out\n\n    auxdata: 0xa2646970667358221220b6bd875e322dc9f87409b6c9e6391b4a42e611caeb556f50ac8e0c19a7e888db64736f6c63430008070033\n}\n",
				"bytecode": {
					"linkReferences": {},
					"object": "6080604052600060015534801561001557600080fd5b506107fb806100256000396000f3fe608060405234801561001057600080fd5b50600436106100365760003560e01c806353d21d451461003b578063c3a7095914610057575b600080fd5b610055600480360381019061005091906103cb565b61008a565b005b610071600480360381019061006c919061043a565b61018a565b60405161008194939291906104be565b60405180910390f35b6040518060a001604052803373ffffffffffffffffffffffffffffffffffffffff168152602001600180546100bf919061057c565b815260200184815260200183815260200182815250600080600154815260200190815260200160002060008201518160000160006101000a81548173ffffffffffffffffffffffffffffffffffffffff021916908373ffffffffffffffffffffffffffffffffffffffff1602179055506020820151816001015560408201518160020190805190602001906101559291906102a3565b50606082015181600301556080820151816004015590505060016000815480929190610180906106b3565b9190505550505050565b6000606060008060008086815260200190815260200160002060000160009054906101000a900473ffffffffffffffffffffffffffffffffffffffff16600080878152602001908152602001600020600201600080888152602001908152602001600020600301546000808981526020019081526020016000206004015482805461021490610650565b80601f016020809104026020016040519081016040528092919081815260200182805461024090610650565b801561028d5780601f106102625761010080835404028352916020019161028d565b820191906000526020600020905b81548152906001019060200180831161027057829003601f168201915b5050505050925093509350935093509193509193565b8280546102af90610650565b90600052602060002090601f0160209004810192826102d15760008555610318565b82601f106102ea57805160ff1916838001178555610318565b82800160010185558215610318579182015b828111156103175782518255916020019190600101906102fc565b5b5090506103259190610329565b5090565b5b8082111561034257600081600090555060010161032a565b5090565b60006103596103548461052f565b61050a565b9050828152602081018484840111156103755761037461078e565b5b61038084828561060e565b509392505050565b600082601f83011261039d5761039c610789565b5b81356103ad848260208601610346565b91505092915050565b6000813590506103c5816107ae565b92915050565b6000806000606084860312156103e4576103e3610798565b5b600084013567ffffffffffffffff81111561040257610401610793565b5b61040e86828701610388565b935050602061041f868287016103b6565b9250506040610430868287016103b6565b9150509250925092565b6000602082840312156104505761044f610798565b5b600061045e848285016103b6565b91505092915050565b610470816105d2565b82525050565b600061048182610560565b61048b818561056b565b935061049b81856020860161061d565b6104a48161079d565b840191505092915050565b6104b881610604565b82525050565b60006080820190506104d36000830187610467565b81810360208301526104e58186610476565b90506104f460408301856104af565b61050160608301846104af565b95945050505050565b6000610514610525565b90506105208282610682565b919050565b6000604051905090565b600067ffffffffffffffff82111561054a5761054961075a565b5b6105538261079d565b9050602081019050919050565b600081519050919050565b600082825260208201905092915050565b600061058782610604565b915061059283610604565b9250827fffffffffffffffffffffffffffffffffffffffffffffffffffffffffffffffff038211156105c7576105c66106fc565b5b828201905092915050565b60006105dd826105e4565b9050919050565b600073ffffffffffffffffffffffffffffffffffffffff82169050919050565b6000819050919050565b82818337600083830152505050565b60005b8381101561063b578082015181840152602081019050610620565b8381111561064a576000848401525b50505050565b6000600282049050600182168061066857607f821691505b6020821081141561067c5761067b61072b565b5b50919050565b61068b8261079d565b810181811067ffffffffffffffff821117156106aa576106a961075a565b5b80604052505050565b60006106be82610604565b91507fffffffffffffffffffffffffffffffffffffffffffffffffffffffffffffffff8214156106f1576106f06106fc565b5b600182019050919050565b7f4e487b7100000000000000000000000000000000000000000000000000000000600052601160045260246000fd5b7f4e487b7100000000000000000000000000000000000000000000000000000000600052602260045260246000fd5b7f4e487b7100000000000000000000000000000000000000000000000000000000600052604160045260246000fd5b600080fd5b600080fd5b600080fd5b600080fd5b6000601f19601f8301169050919050565b6107b781610604565b81146107c257600080fd5b5056fea2646970667358221220b6bd875e322dc9f87409b6c9e6391b4a42e611caeb556f50ac8e0c19a7e888db64736f6c63430008070033",
					"opcodes": "PUSH1 0x80 PUSH1 0x40 MSTORE PUSH1 0x0 PUSH1 0x1 SSTORE CALLVALUE DUP1 ISZERO PUSH2 0x15 JUMPI PUSH1 0x0 DUP1 REVERT JUMPDEST POP PUSH2 0x7FB DUP1 PUSH2 0x25 PUSH1 0x0 CODECOPY PUSH1 0x0 RETURN INVALID PUSH1 0x80 PUSH1 0x40 MSTORE CALLVALUE DUP1 ISZERO PUSH2 0x10 JUMPI PUSH1 0x0 DUP1 REVERT JUMPDEST POP PUSH1 0x4 CALLDATASIZE LT PUSH2 0x36 JUMPI PUSH1 0x0 CALLDATALOAD PUSH1 0xE0 SHR DUP1 PUSH4 0x53D21D45 EQ PUSH2 0x3B JUMPI DUP1 PUSH4 0xC3A70959 EQ PUSH2 0x57 JUMPI JUMPDEST PUSH1 0x0 DUP1 REVERT JUMPDEST PUSH2 0x55 PUSH1 0x4 DUP1 CALLDATASIZE SUB DUP2 ADD SWAP1 PUSH2 0x50 SWAP2 SWAP1 PUSH2 0x3CB JUMP JUMPDEST PUSH2 0x8A JUMP JUMPDEST STOP JUMPDEST PUSH2 0x71 PUSH1 0x4 DUP1 CALLDATASIZE SUB DUP2 ADD SWAP1 PUSH2 0x6C SWAP2 SWAP1 PUSH2 0x43A JUMP JUMPDEST PUSH2 0x18A JUMP JUMPDEST PUSH1 0x40 MLOAD PUSH2 0x81 SWAP5 SWAP4 SWAP3 SWAP2 SWAP1 PUSH2 0x4BE JUMP JUMPDEST PUSH1 0x40 MLOAD DUP1 SWAP2 SUB SWAP1 RETURN JUMPDEST PUSH1 0x40 MLOAD DUP1 PUSH1 0xA0 ADD PUSH1 0x40 MSTORE DUP1 CALLER PUSH20 0xFFFFFFFFFFFFFFFFFFFFFFFFFFFFFFFFFFFFFFFF AND DUP2 MSTORE PUSH1 0x20 ADD PUSH1 0x1 DUP1 SLOAD PUSH2 0xBF SWAP2 SWAP1 PUSH2 0x57C JUMP JUMPDEST DUP2 MSTORE PUSH1 0x20 ADD DUP5 DUP2 MSTORE PUSH1 0x20 ADD DUP4 DUP2 MSTORE PUSH1 0x20 ADD DUP3 DUP2 MSTORE POP PUSH1 0x0 DUP1 PUSH1 0x1 SLOAD DUP2 MSTORE PUSH1 0x20 ADD SWAP1 DUP2 MSTORE PUSH1 0x20 ADD PUSH1 0x0 KECCAK256 PUSH1 0x0 DUP3 ADD MLOAD DUP2 PUSH1 0x0 ADD PUSH1 0x0 PUSH2 0x100 EXP DUP2 SLOAD DUP2 PUSH20 0xFFFFFFFFFFFFFFFFFFFFFFFFFFFFFFFFFFFFFFFF MUL NOT AND SWAP1 DUP4 PUSH20 0xFFFFFFFFFFFFFFFFFFFFFFFFFFFFFFFFFFFFFFFF AND MUL OR SWAP1 SSTORE POP PUSH1 0x20 DUP3 ADD MLOAD DUP2 PUSH1 0x1 ADD SSTORE PUSH1 0x40 DUP3 ADD MLOAD DUP2 PUSH1 0x2 ADD SWAP1 DUP1 MLOAD SWAP1 PUSH1 0x20 ADD SWAP1 PUSH2 0x155 SWAP3 SWAP2 SWAP1 PUSH2 0x2A3 JUMP JUMPDEST POP PUSH1 0x60 DUP3 ADD MLOAD DUP2 PUSH1 0x3 ADD SSTORE PUSH1 0x80 DUP3 ADD MLOAD DUP2 PUSH1 0x4 ADD SSTORE SWAP1 POP POP PUSH1 0x1 PUSH1 0x0 DUP2 SLOAD DUP1 SWAP3 SWAP2 SWAP1 PUSH2 0x180 SWAP1 PUSH2 0x6B3 JUMP JUMPDEST SWAP2 SWAP1 POP SSTORE POP POP POP POP JUMP JUMPDEST PUSH1 0x0 PUSH1 0x60 PUSH1 0x0 DUP1 PUSH1 0x0 DUP1 DUP7 DUP2 MSTORE PUSH1 0x20 ADD SWAP1 DUP2 MSTORE PUSH1 0x20 ADD PUSH1 0x0 KECCAK256 PUSH1 0x0 ADD PUSH1 0x0 SWAP1 SLOAD SWAP1 PUSH2 0x100 EXP SWAP1 DIV PUSH20 0xFFFFFFFFFFFFFFFFFFFFFFFFFFFFFFFFFFFFFFFF AND PUSH1 0x0 DUP1 DUP8 DUP2 MSTORE PUSH1 0x20 ADD SWAP1 DUP2 MSTORE PUSH1 0x20 ADD PUSH1 0x0 KECCAK256 PUSH1 0x2 ADD PUSH1 0x0 DUP1 DUP9 DUP2 MSTORE PUSH1 0x20 ADD SWAP1 DUP2 MSTORE PUSH1 0x20 ADD PUSH1 0x0 KECCAK256 PUSH1 0x3 ADD SLOAD PUSH1 0x0 DUP1 DUP10 DUP2 MSTORE PUSH1 0x20 ADD SWAP1 DUP2 MSTORE PUSH1 0x20 ADD PUSH1 0x0 KECCAK256 PUSH1 0x4 ADD SLOAD DUP3 DUP1 SLOAD PUSH2 0x214 SWAP1 PUSH2 0x650 JUMP JUMPDEST DUP1 PUSH1 0x1F ADD PUSH1 0x20 DUP1 SWAP2 DIV MUL PUSH1 0x20 ADD PUSH1 0x40 MLOAD SWAP1 DUP2 ADD PUSH1 0x40 MSTORE DUP1 SWAP3 SWAP2 SWAP1 DUP2 DUP2 MSTORE PUSH1 0x20 ADD DUP3 DUP1 SLOAD PUSH2 0x240 SWAP1 PUSH2 0x650 JUMP JUMPDEST DUP1 ISZERO PUSH2 0x28D JUMPI DUP1 PUSH1 0x1F LT PUSH2 0x262 JUMPI PUSH2 0x100 DUP1 DUP4 SLOAD DIV MUL DUP4 MSTORE SWAP2 PUSH1 0x20 ADD SWAP2 PUSH2 0x28D JUMP JUMPDEST DUP3 ADD SWAP2 SWAP1 PUSH1 0x0 MSTORE PUSH1 0x20 PUSH1 0x0 KECCAK256 SWAP1 JUMPDEST DUP2 SLOAD DUP2 MSTORE SWAP1 PUSH1 0x1 ADD SWAP1 PUSH1 0x20 ADD DUP1 DUP4 GT PUSH2 0x270 JUMPI DUP3 SWAP1 SUB PUSH1 0x1F AND DUP3 ADD SWAP2 JUMPDEST POP POP POP POP POP SWAP3 POP SWAP4 POP SWAP4 POP SWAP4 POP SWAP4 POP SWAP2 SWAP4 POP SWAP2 SWAP4 JUMP JUMPDEST DUP3 DUP1 SLOAD PUSH2 0x2AF SWAP1 PUSH2 0x650 JUMP JUMPDEST SWAP1 PUSH1 0x0 MSTORE PUSH1 0x20 PUSH1 0x0 KECCAK256 SWAP1 PUSH1 0x1F ADD PUSH1 0x20 SWAP1 DIV DUP2 ADD SWAP3 DUP3 PUSH2 0x2D1 JUMPI PUSH1 0x0 DUP6 SSTORE PUSH2 0x318 JUMP JUMPDEST DUP3 PUSH1 0x1F LT PUSH2 0x2EA JUMPI DUP1 MLOAD PUSH1 0xFF NOT AND DUP4 DUP1 ADD OR DUP6 SSTORE PUSH2 0x318 JUMP JUMPDEST DUP3 DUP1 ADD PUSH1 0x1 ADD DUP6 SSTORE DUP3 ISZERO PUSH2 0x318 JUMPI SWAP2 DUP3 ADD JUMPDEST DUP3 DUP2 GT ISZERO PUSH2 0x317 JUMPI DUP3 MLOAD DUP3 SSTORE SWAP2 PUSH1 0x20 ADD SWAP2 SWAP1 PUSH1 0x1 ADD SWAP1 PUSH2 0x2FC JUMP JUMPDEST JUMPDEST POP SWAP1 POP PUSH2 0x325 SWAP2 SWAP1 PUSH2 0x329 JUMP JUMPDEST POP SWAP1 JUMP JUMPDEST JUMPDEST DUP1 DUP3 GT ISZERO PUSH2 0x342 JUMPI PUSH1 0x0 DUP2 PUSH1 0x0 SWAP1 SSTORE POP PUSH1 0x1 ADD PUSH2 0x32A JUMP JUMPDEST POP SWAP1 JUMP JUMPDEST PUSH1 0x0 PUSH2 0x359 PUSH2 0x354 DUP5 PUSH2 0x52F JUMP JUMPDEST PUSH2 0x50A JUMP JUMPDEST SWAP1 POP DUP3 DUP2 MSTORE PUSH1 0x20 DUP2 ADD DUP5 DUP5 DUP5 ADD GT ISZERO PUSH2 0x375 JUMPI PUSH2 0x374 PUSH2 0x78E JUMP JUMPDEST JUMPDEST PUSH2 0x380 DUP5 DUP3 DUP6 PUSH2 0x60E JUMP JUMPDEST POP SWAP4 SWAP3 POP POP POP JUMP JUMPDEST PUSH1 0x0 DUP3 PUSH1 0x1F DUP4 ADD SLT PUSH2 0x39D JUMPI PUSH2 0x39C PUSH2 0x789 JUMP JUMPDEST JUMPDEST DUP2 CALLDATALOAD PUSH2 0x3AD DUP5 DUP3 PUSH1 0x20 DUP7 ADD PUSH2 0x346 JUMP JUMPDEST SWAP2 POP POP SWAP3 SWAP2 POP POP JUMP JUMPDEST PUSH1 0x0 DUP2 CALLDATALOAD SWAP1 POP PUSH2 0x3C5 DUP2 PUSH2 0x7AE JUMP JUMPDEST SWAP3 SWAP2 POP POP JUMP JUMPDEST PUSH1 0x0 DUP1 PUSH1 0x0 PUSH1 0x60 DUP5 DUP7 SUB SLT ISZERO PUSH2 0x3E4 JUMPI PUSH2 0x3E3 PUSH2 0x798 JUMP JUMPDEST JUMPDEST PUSH1 0x0 DUP5 ADD CALLDATALOAD PUSH8 0xFFFFFFFFFFFFFFFF DUP2 GT ISZERO PUSH2 0x402 JUMPI PUSH2 0x401 PUSH2 0x793 JUMP JUMPDEST JUMPDEST PUSH2 0x40E DUP7 DUP3 DUP8 ADD PUSH2 0x388 JUMP JUMPDEST SWAP4 POP POP PUSH1 0x20 PUSH2 0x41F DUP7 DUP3 DUP8 ADD PUSH2 0x3B6 JUMP JUMPDEST SWAP3 POP POP PUSH1 0x40 PUSH2 0x430 DUP7 DUP3 DUP8 ADD PUSH2 0x3B6 JUMP JUMPDEST SWAP2 POP POP SWAP3 POP SWAP3 POP SWAP3 JUMP JUMPDEST PUSH1 0x0 PUSH1 0x20 DUP3 DUP5 SUB SLT ISZERO PUSH2 0x450 JUMPI PUSH2 0x44F PUSH2 0x798 JUMP JUMPDEST JUMPDEST PUSH1 0x0 PUSH2 0x45E DUP5 DUP3 DUP6 ADD PUSH2 0x3B6 JUMP JUMPDEST SWAP2 POP POP SWAP3 SWAP2 POP POP JUMP JUMPDEST PUSH2 0x470 DUP2 PUSH2 0x5D2 JUMP JUMPDEST DUP3 MSTORE POP POP JUMP JUMPDEST PUSH1 0x0 PUSH2 0x481 DUP3 PUSH2 0x560 JUMP JUMPDEST PUSH2 0x48B DUP2 DUP6 PUSH2 0x56B JUMP JUMPDEST SWAP4 POP PUSH2 0x49B DUP2 DUP6 PUSH1 0x20 DUP7 ADD PUSH2 0x61D JUMP JUMPDEST PUSH2 0x4A4 DUP2 PUSH2 0x79D JUMP JUMPDEST DUP5 ADD SWAP2 POP POP SWAP3 SWAP2 POP POP JUMP JUMPDEST PUSH2 0x4B8 DUP2 PUSH2 0x604 JUMP JUMPDEST DUP3 MSTORE POP POP JUMP JUMPDEST PUSH1 0x0 PUSH1 0x80 DUP3 ADD SWAP1 POP PUSH2 0x4D3 PUSH1 0x0 DUP4 ADD DUP8 PUSH2 0x467 JUMP JUMPDEST DUP2 DUP2 SUB PUSH1 0x20 DUP4 ADD MSTORE PUSH2 0x4E5 DUP2 DUP7 PUSH2 0x476 JUMP JUMPDEST SWAP1 POP PUSH2 0x4F4 PUSH1 0x40 DUP4 ADD DUP6 PUSH2 0x4AF JUMP JUMPDEST PUSH2 0x501 PUSH1 0x60 DUP4 ADD DUP5 PUSH2 0x4AF JUMP JUMPDEST SWAP6 SWAP5 POP POP POP POP POP JUMP JUMPDEST PUSH1 0x0 PUSH2 0x514 PUSH2 0x525 JUMP JUMPDEST SWAP1 POP PUSH2 0x520 DUP3 DUP3 PUSH2 0x682 JUMP JUMPDEST SWAP2 SWAP1 POP JUMP JUMPDEST PUSH1 0x0 PUSH1 0x40 MLOAD SWAP1 POP SWAP1 JUMP JUMPDEST PUSH1 0x0 PUSH8 0xFFFFFFFFFFFFFFFF DUP3 GT ISZERO PUSH2 0x54A JUMPI PUSH2 0x549 PUSH2 0x75A JUMP JUMPDEST JUMPDEST PUSH2 0x553 DUP3 PUSH2 0x79D JUMP JUMPDEST SWAP1 POP PUSH1 0x20 DUP2 ADD SWAP1 POP SWAP2 SWAP1 POP JUMP JUMPDEST PUSH1 0x0 DUP2 MLOAD SWAP1 POP SWAP2 SWAP1 POP JUMP JUMPDEST PUSH1 0x0 DUP3 DUP3 MSTORE PUSH1 0x20 DUP3 ADD SWAP1 POP SWAP3 SWAP2 POP POP JUMP JUMPDEST PUSH1 0x0 PUSH2 0x587 DUP3 PUSH2 0x604 JUMP JUMPDEST SWAP2 POP PUSH2 0x592 DUP4 PUSH2 0x604 JUMP JUMPDEST SWAP3 POP DUP3 PUSH32 0xFFFFFFFFFFFFFFFFFFFFFFFFFFFFFFFFFFFFFFFFFFFFFFFFFFFFFFFFFFFFFFFF SUB DUP3 GT ISZERO PUSH2 0x5C7 JUMPI PUSH2 0x5C6 PUSH2 0x6FC JUMP JUMPDEST JUMPDEST DUP3 DUP3 ADD SWAP1 POP SWAP3 SWAP2 POP POP JUMP JUMPDEST PUSH1 0x0 PUSH2 0x5DD DUP3 PUSH2 0x5E4 JUMP JUMPDEST SWAP1 POP SWAP2 SWAP1 POP JUMP JUMPDEST PUSH1 0x0 PUSH20 0xFFFFFFFFFFFFFFFFFFFFFFFFFFFFFFFFFFFFFFFF DUP3 AND SWAP1 POP SWAP2 SWAP1 POP JUMP JUMPDEST PUSH1 0x0 DUP2 SWAP1 POP SWAP2 SWAP1 POP JUMP JUMPDEST DUP3 DUP2 DUP4 CALLDATACOPY PUSH1 0x0 DUP4 DUP4 ADD MSTORE POP POP POP JUMP JUMPDEST PUSH1 0x0 JUMPDEST DUP4 DUP2 LT ISZERO PUSH2 0x63B JUMPI DUP1 DUP3 ADD MLOAD DUP2 DUP5 ADD MSTORE PUSH1 0x20 DUP2 ADD SWAP1 POP PUSH2 0x620 JUMP JUMPDEST DUP4 DUP2 GT ISZERO PUSH2 0x64A JUMPI PUSH1 0x0 DUP5 DUP5 ADD MSTORE JUMPDEST POP POP POP POP JUMP JUMPDEST PUSH1 0x0 PUSH1 0x2 DUP3 DIV SWAP1 POP PUSH1 0x1 DUP3 AND DUP1 PUSH2 0x668 JUMPI PUSH1 0x7F DUP3 AND SWAP2 POP JUMPDEST PUSH1 0x20 DUP3 LT DUP2 EQ ISZERO PUSH2 0x67C JUMPI PUSH2 0x67B PUSH2 0x72B JUMP JUMPDEST JUMPDEST POP SWAP2 SWAP1 POP JUMP JUMPDEST PUSH2 0x68B DUP3 PUSH2 0x79D JUMP JUMPDEST DUP2 ADD DUP2 DUP2 LT PUSH8 0xFFFFFFFFFFFFFFFF DUP3 GT OR ISZERO PUSH2 0x6AA JUMPI PUSH2 0x6A9 PUSH2 0x75A JUMP JUMPDEST JUMPDEST DUP1 PUSH1 0x40 MSTORE POP POP POP JUMP JUMPDEST PUSH1 0x0 PUSH2 0x6BE DUP3 PUSH2 0x604 JUMP JUMPDEST SWAP2 POP PUSH32 0xFFFFFFFFFFFFFFFFFFFFFFFFFFFFFFFFFFFFFFFFFFFFFFFFFFFFFFFFFFFFFFFF DUP3 EQ ISZERO PUSH2 0x6F1 JUMPI PUSH2 0x6F0 PUSH2 0x6FC JUMP JUMPDEST JUMPDEST PUSH1 0x1 DUP3 ADD SWAP1 POP SWAP2 SWAP1 POP JUMP JUMPDEST PUSH32 0x4E487B7100000000000000000000000000000000000000000000000000000000 PUSH1 0x0 MSTORE PUSH1 0x11 PUSH1 0x4 MSTORE PUSH1 0x24 PUSH1 0x0 REVERT JUMPDEST PUSH32 0x4E487B7100000000000000000000000000000000000000000000000000000000 PUSH1 0x0 MSTORE PUSH1 0x22 PUSH1 0x4 MSTORE PUSH1 0x24 PUSH1 0x0 REVERT JUMPDEST PUSH32 0x4E487B7100000000000000000000000000000000000000000000000000000000 PUSH1 0x0 MSTORE PUSH1 0x41 PUSH1 0x4 MSTORE PUSH1 0x24 PUSH1 0x0 REVERT JUMPDEST PUSH1 0x0 DUP1 REVERT JUMPDEST PUSH1 0x0 DUP1 REVERT JUMPDEST PUSH1 0x0 DUP1 REVERT JUMPDEST PUSH1 0x0 DUP1 REVERT JUMPDEST PUSH1 0x0 PUSH1 0x1F NOT PUSH1 0x1F DUP4 ADD AND SWAP1 POP SWAP2 SWAP1 POP JUMP JUMPDEST PUSH2 0x7B7 DUP2 PUSH2 0x604 JUMP JUMPDEST DUP2 EQ PUSH2 0x7C2 JUMPI PUSH1 0x0 DUP1 REVERT JUMPDEST POP JUMP INVALID LOG2 PUSH5 0x6970667358 0x22 SLT KECCAK256 0xB6 0xBD DUP8 0x5E ORIGIN 0x2D 0xC9 0xF8 PUSH21 0x9B6C9E6391B4A42E611CAEB556F50AC8E0C19A7E8 DUP9 0xDB PUSH5 0x736F6C6343 STOP ADDMOD SMOD STOP CALLER "
				},
				"gasEstimates": {
					"creation": {
						"codeDepositCost": "408600",
						"executionCost": "5449",
						"totalCost": "414049"
					},
					"external": {
						"createTontine(string,uint256,uint256)": "infinite",
						"showTontine(uint256)": "infinite"
					}
				},
				"methodIdentifiers": {
					"createTontine(string,uint256,uint256)": "53d21d45",
					"showTontine(uint256)": "c3a70959"
				}
			},
			"storageLayout": {
				"storage": [
					{
						"astId": 17,
						"contract": "contracts/Tontines.sol:Tontines",
						"label": "tontines",
						"offset": 0,
						"slot": "0",
						"type": "t_mapping(t_uint256,t_struct(Tontine)12_storage)"
					},
					{
						"astId": 20,
						"contract": "contracts/Tontines.sol:Tontines",
						"label": "numberOfTontines",
						"offset": 0,
						"slot": "1",
						"type": "t_uint256"
					}
				],
				"types": {
					"t_address_payable": {
						"encoding": "inplace",
						"label": "address payable",
						"numberOfBytes": "20"
					},
					"t_mapping(t_uint256,t_struct(Tontine)12_storage)": {
						"encoding": "mapping",
						"key": "t_uint256",
						"label": "mapping(uint256 => struct Tontines.Tontine)",
						"numberOfBytes": "32",
						"value": "t_struct(Tontine)12_storage"
					},
					"t_string_storage": {
						"encoding": "bytes",
						"label": "string",
						"numberOfBytes": "32"
					},
					"t_struct(Tontine)12_storage": {
						"encoding": "inplace",
						"label": "struct Tontines.Tontine",
						"members": [
							{
								"astId": 3,
								"contract": "contracts/Tontines.sol:Tontines",
								"label": "owner",
								"offset": 0,
								"slot": "0",
								"type": "t_address_payable"
							},
							{
								"astId": 5,
								"contract": "contracts/Tontines.sol:Tontines",
								"label": "tontineId",
								"offset": 0,
								"slot": "1",
								"type": "t_uint256"
							},
							{
								"astId": 7,
								"contract": "contracts/Tontines.sol:Tontines",
								"label": "name",
								"offset": 0,
								"slot": "2",
								"type": "t_string_storage"
							},
							{
								"astId": 9,
								"contract": "contracts/Tontines.sol:Tontines",
								"label": "amount",
								"offset": 0,
								"slot": "3",
								"type": "t_uint256"
							},
							{
								"astId": 11,
								"contract": "contracts/Tontines.sol:Tontines",
								"label": "beneficyingTimeInterval",
								"offset": 0,
								"slot": "4",
								"type": "t_uint256"
							}
						],
						"numberOfBytes": "160"
					},
					"t_uint256": {
						"encoding": "inplace",
						"label": "uint256",
						"numberOfBytes": "32"
					}
				}
			},
			"userdoc": {
				"kind": "user",
				"methods": {},
				"version": 1
			}
		}
	}
}