{
	"contracts/Members.sol": {
		"Members": {
			"abi": [
				{
					"inputs": [
						{
							"internalType": "string",
							"name": "_name",
							"type": "string"
						},
						{
							"internalType": "address",
							"name": "_memberWalletAddress",
							"type": "address"
						}
					],
					"name": "createMember",
					"outputs": [],
					"stateMutability": "nonpayable",
					"type": "function"
				}
			],
			"devdoc": {
				"kind": "dev",
				"methods": {},
				"version": 1
			},
			"evm": {
				"assembly": "    /* \"contracts/Members.sol\":74:535  contract Members {\r... */\n  mstore(0x40, 0x80)\n    /* \"contracts/Members.sol\":287:288  0 */\n  0x00\n    /* \"contracts/Members.sol\":269:288  uint AllMembers = 0 */\n  0x01\n  sstore\n    /* \"contracts/Members.sol\":74:535  contract Members {\r... */\n  callvalue\n  dup1\n  iszero\n  tag_1\n  jumpi\n  0x00\n  dup1\n  revert\ntag_1:\n  pop\n  dataSize(sub_0)\n  dup1\n  dataOffset(sub_0)\n  0x00\n  codecopy\n  0x00\n  return\nstop\n\nsub_0: assembly {\n        /* \"contracts/Members.sol\":74:535  contract Members {\r... */\n      mstore(0x40, 0x80)\n      callvalue\n      dup1\n      iszero\n      tag_1\n      jumpi\n      0x00\n      dup1\n      revert\n    tag_1:\n      pop\n      jumpi(tag_2, lt(calldatasize, 0x04))\n      shr(0xe0, calldataload(0x00))\n      dup1\n      0x6b42cf4d\n      eq\n      tag_3\n      jumpi\n    tag_2:\n      0x00\n      dup1\n      revert\n        /* \"contracts/Members.sol\":297:528  function createMember(string memory _name, address _memberWalletAddress) public {\r... */\n    tag_3:\n      tag_4\n      0x04\n      dup1\n      calldatasize\n      sub\n      dup2\n      add\n      swap1\n      tag_5\n      swap2\n      swap1\n      tag_6\n      jump\t// in\n    tag_5:\n      tag_7\n      jump\t// in\n    tag_4:\n      stop\n    tag_7:\n        /* \"contracts/Members.sol\":410:518  Member(\r... */\n      mload(0x40)\n      dup1\n      0x60\n      add\n      0x40\n      mstore\n      dup1\n        /* \"contracts/Members.sol\":442:443  1 */\n      0x01\n        /* \"contracts/Members.sol\":431:441  AllMembers */\n      dup1\n      sload\n        /* \"contracts/Members.sol\":431:443  AllMembers+1 */\n      tag_9\n      swap2\n      swap1\n      tag_10\n      jump\t// in\n    tag_9:\n        /* \"contracts/Members.sol\":410:518  Member(\r... */\n      dup2\n      mstore\n      0x20\n      add\n        /* \"contracts/Members.sol\":458:463  _name */\n      dup4\n        /* \"contracts/Members.sol\":410:518  Member(\r... */\n      dup2\n      mstore\n      0x20\n      add\n        /* \"contracts/Members.sol\":486:506  _memberWalletAddress */\n      dup3\n        /* \"contracts/Members.sol\":410:518  Member(\r... */\n      0xffffffffffffffffffffffffffffffffffffffff\n      and\n      dup2\n      mstore\n      pop\n        /* \"contracts/Members.sol\":388:395  members */\n      0x00\n        /* \"contracts/Members.sol\":388:407  members[AllMembers] */\n      dup1\n        /* \"contracts/Members.sol\":396:406  AllMembers */\n      sload(0x01)\n        /* \"contracts/Members.sol\":388:407  members[AllMembers] */\n      dup2\n      mstore\n      0x20\n      add\n      swap1\n      dup2\n      mstore\n      0x20\n      add\n      0x00\n      keccak256\n        /* \"contracts/Members.sol\":388:518  members[AllMembers] = Member(\r... */\n      0x00\n      dup3\n      add\n      mload\n      dup2\n      0x00\n      add\n      sstore\n      0x20\n      dup3\n      add\n      mload\n      dup2\n      0x01\n      add\n      swap1\n      dup1\n      mload\n      swap1\n      0x20\n      add\n      swap1\n      tag_11\n      swap3\n      swap2\n      swap1\n      tag_12\n      jump\t// in\n    tag_11:\n      pop\n      0x40\n      dup3\n      add\n      mload\n      dup2\n      0x02\n      add\n      exp(0x0100, 0x00)\n      dup2\n      sload\n      dup2\n      0xffffffffffffffffffffffffffffffffffffffff\n      mul\n      not\n      and\n      swap1\n      dup4\n      0xffffffffffffffffffffffffffffffffffffffff\n      and\n      mul\n      or\n      swap1\n      sstore\n      pop\n      swap1\n      pop\n      pop\n        /* \"contracts/Members.sol\":297:528  function createMember(string memory _name, address _memberWalletAddress) public {\r... */\n      pop\n      pop\n      jump\t// out\n    tag_12:\n      dup3\n      dup1\n      sload\n      tag_13\n      swap1\n      tag_14\n      jump\t// in\n    tag_13:\n      swap1\n      0x00\n      mstore\n      keccak256(0x00, 0x20)\n      swap1\n      0x1f\n      add\n      0x20\n      swap1\n      div\n      dup2\n      add\n      swap3\n      dup3\n      tag_16\n      jumpi\n      0x00\n      dup6\n      sstore\n      jump(tag_15)\n    tag_16:\n      dup3\n      0x1f\n      lt\n      tag_17\n      jumpi\n      dup1\n      mload\n      not(0xff)\n      and\n      dup4\n      dup1\n      add\n      or\n      dup6\n      sstore\n      jump(tag_15)\n    tag_17:\n      dup3\n      dup1\n      add\n      0x01\n      add\n      dup6\n      sstore\n      dup3\n      iszero\n      tag_15\n      jumpi\n      swap2\n      dup3\n      add\n    tag_18:\n      dup3\n      dup2\n      gt\n      iszero\n      tag_19\n      jumpi\n      dup3\n      mload\n      dup3\n      sstore\n      swap2\n      0x20\n      add\n      swap2\n      swap1\n      0x01\n      add\n      swap1\n      jump(tag_18)\n    tag_19:\n    tag_15:\n      pop\n      swap1\n      pop\n      tag_20\n      swap2\n      swap1\n      tag_21\n      jump\t// in\n    tag_20:\n      pop\n      swap1\n      jump\t// out\n    tag_21:\n    tag_22:\n      dup1\n      dup3\n      gt\n      iszero\n      tag_23\n      jumpi\n      0x00\n      dup2\n      0x00\n      swap1\n      sstore\n      pop\n      0x01\n      add\n      jump(tag_22)\n    tag_23:\n      pop\n      swap1\n      jump\t// out\n        /* \"#utility.yul\":7:419   */\n    tag_25:\n        /* \"#utility.yul\":85:90   */\n      0x00\n        /* \"#utility.yul\":110:176   */\n      tag_27\n        /* \"#utility.yul\":126:175   */\n      tag_28\n        /* \"#utility.yul\":168:174   */\n      dup5\n        /* \"#utility.yul\":126:175   */\n      tag_29\n      jump\t// in\n    tag_28:\n        /* \"#utility.yul\":110:176   */\n      tag_30\n      jump\t// in\n    tag_27:\n        /* \"#utility.yul\":101:176   */\n      swap1\n      pop\n        /* \"#utility.yul\":199:205   */\n      dup3\n        /* \"#utility.yul\":192:197   */\n      dup2\n        /* \"#utility.yul\":185:206   */\n      mstore\n        /* \"#utility.yul\":237:241   */\n      0x20\n        /* \"#utility.yul\":230:235   */\n      dup2\n        /* \"#utility.yul\":226:242   */\n      add\n        /* \"#utility.yul\":275:278   */\n      dup5\n        /* \"#utility.yul\":266:272   */\n      dup5\n        /* \"#utility.yul\":261:264   */\n      dup5\n        /* \"#utility.yul\":257:273   */\n      add\n        /* \"#utility.yul\":254:279   */\n      gt\n        /* \"#utility.yul\":251:363   */\n      iszero\n      tag_31\n      jumpi\n        /* \"#utility.yul\":282:361   */\n      tag_32\n      tag_33\n      jump\t// in\n    tag_32:\n        /* \"#utility.yul\":251:363   */\n    tag_31:\n        /* \"#utility.yul\":372:413   */\n      tag_34\n        /* \"#utility.yul\":406:412   */\n      dup5\n        /* \"#utility.yul\":401:404   */\n      dup3\n        /* \"#utility.yul\":396:399   */\n      dup6\n        /* \"#utility.yul\":372:413   */\n      tag_35\n      jump\t// in\n    tag_34:\n        /* \"#utility.yul\":91:419   */\n      pop\n        /* \"#utility.yul\":7:419   */\n      swap4\n      swap3\n      pop\n      pop\n      pop\n      jump\t// out\n        /* \"#utility.yul\":425:564   */\n    tag_36:\n        /* \"#utility.yul\":471:476   */\n      0x00\n        /* \"#utility.yul\":509:515   */\n      dup2\n        /* \"#utility.yul\":496:516   */\n      calldataload\n        /* \"#utility.yul\":487:516   */\n      swap1\n      pop\n        /* \"#utility.yul\":525:558   */\n      tag_38\n        /* \"#utility.yul\":552:557   */\n      dup2\n        /* \"#utility.yul\":525:558   */\n      tag_39\n      jump\t// in\n    tag_38:\n        /* \"#utility.yul\":425:564   */\n      swap3\n      swap2\n      pop\n      pop\n      jump\t// out\n        /* \"#utility.yul\":584:924   */\n    tag_40:\n        /* \"#utility.yul\":640:645   */\n      0x00\n        /* \"#utility.yul\":689:692   */\n      dup3\n        /* \"#utility.yul\":682:686   */\n      0x1f\n        /* \"#utility.yul\":674:680   */\n      dup4\n        /* \"#utility.yul\":670:687   */\n      add\n        /* \"#utility.yul\":666:693   */\n      slt\n        /* \"#utility.yul\":656:778   */\n      tag_42\n      jumpi\n        /* \"#utility.yul\":697:776   */\n      tag_43\n      tag_44\n      jump\t// in\n    tag_43:\n        /* \"#utility.yul\":656:778   */\n    tag_42:\n        /* \"#utility.yul\":814:820   */\n      dup2\n        /* \"#utility.yul\":801:821   */\n      calldataload\n        /* \"#utility.yul\":839:918   */\n      tag_45\n        /* \"#utility.yul\":914:917   */\n      dup5\n        /* \"#utility.yul\":906:912   */\n      dup3\n        /* \"#utility.yul\":899:903   */\n      0x20\n        /* \"#utility.yul\":891:897   */\n      dup7\n        /* \"#utility.yul\":887:904   */\n      add\n        /* \"#utility.yul\":839:918   */\n      tag_25\n      jump\t// in\n    tag_45:\n        /* \"#utility.yul\":830:918   */\n      swap2\n      pop\n        /* \"#utility.yul\":646:924   */\n      pop\n        /* \"#utility.yul\":584:924   */\n      swap3\n      swap2\n      pop\n      pop\n      jump\t// out\n        /* \"#utility.yul\":930:1584   */\n    tag_6:\n        /* \"#utility.yul\":1008:1014   */\n      0x00\n        /* \"#utility.yul\":1016:1022   */\n      dup1\n        /* \"#utility.yul\":1065:1067   */\n      0x40\n        /* \"#utility.yul\":1053:1062   */\n      dup4\n        /* \"#utility.yul\":1044:1051   */\n      dup6\n        /* \"#utility.yul\":1040:1063   */\n      sub\n        /* \"#utility.yul\":1036:1068   */\n      slt\n        /* \"#utility.yul\":1033:1152   */\n      iszero\n      tag_47\n      jumpi\n        /* \"#utility.yul\":1071:1150   */\n      tag_48\n      tag_49\n      jump\t// in\n    tag_48:\n        /* \"#utility.yul\":1033:1152   */\n    tag_47:\n        /* \"#utility.yul\":1219:1220   */\n      0x00\n        /* \"#utility.yul\":1208:1217   */\n      dup4\n        /* \"#utility.yul\":1204:1221   */\n      add\n        /* \"#utility.yul\":1191:1222   */\n      calldataload\n        /* \"#utility.yul\":1249:1267   */\n      0xffffffffffffffff\n        /* \"#utility.yul\":1241:1247   */\n      dup2\n        /* \"#utility.yul\":1238:1268   */\n      gt\n        /* \"#utility.yul\":1235:1352   */\n      iszero\n      tag_50\n      jumpi\n        /* \"#utility.yul\":1271:1350   */\n      tag_51\n      tag_52\n      jump\t// in\n    tag_51:\n        /* \"#utility.yul\":1235:1352   */\n    tag_50:\n        /* \"#utility.yul\":1376:1439   */\n      tag_53\n        /* \"#utility.yul\":1431:1438   */\n      dup6\n        /* \"#utility.yul\":1422:1428   */\n      dup3\n        /* \"#utility.yul\":1411:1420   */\n      dup7\n        /* \"#utility.yul\":1407:1429   */\n      add\n        /* \"#utility.yul\":1376:1439   */\n      tag_40\n      jump\t// in\n    tag_53:\n        /* \"#utility.yul\":1366:1439   */\n      swap3\n      pop\n        /* \"#utility.yul\":1162:1449   */\n      pop\n        /* \"#utility.yul\":1488:1490   */\n      0x20\n        /* \"#utility.yul\":1514:1567   */\n      tag_54\n        /* \"#utility.yul\":1559:1566   */\n      dup6\n        /* \"#utility.yul\":1550:1556   */\n      dup3\n        /* \"#utility.yul\":1539:1548   */\n      dup7\n        /* \"#utility.yul\":1535:1557   */\n      add\n        /* \"#utility.yul\":1514:1567   */\n      tag_36\n      jump\t// in\n    tag_54:\n        /* \"#utility.yul\":1504:1567   */\n      swap2\n      pop\n        /* \"#utility.yul\":1459:1577   */\n      pop\n        /* \"#utility.yul\":930:1584   */\n      swap3\n      pop\n      swap3\n      swap1\n      pop\n      jump\t// out\n        /* \"#utility.yul\":1590:1719   */\n    tag_30:\n        /* \"#utility.yul\":1624:1630   */\n      0x00\n        /* \"#utility.yul\":1651:1671   */\n      tag_56\n      tag_57\n      jump\t// in\n    tag_56:\n        /* \"#utility.yul\":1641:1671   */\n      swap1\n      pop\n        /* \"#utility.yul\":1680:1713   */\n      tag_58\n        /* \"#utility.yul\":1708:1712   */\n      dup3\n        /* \"#utility.yul\":1700:1706   */\n      dup3\n        /* \"#utility.yul\":1680:1713   */\n      tag_59\n      jump\t// in\n    tag_58:\n        /* \"#utility.yul\":1590:1719   */\n      swap2\n      swap1\n      pop\n      jump\t// out\n        /* \"#utility.yul\":1725:1800   */\n    tag_57:\n        /* \"#utility.yul\":1758:1764   */\n      0x00\n        /* \"#utility.yul\":1791:1793   */\n      0x40\n        /* \"#utility.yul\":1785:1794   */\n      mload\n        /* \"#utility.yul\":1775:1794   */\n      swap1\n      pop\n        /* \"#utility.yul\":1725:1800   */\n      swap1\n      jump\t// out\n        /* \"#utility.yul\":1806:2114   */\n    tag_29:\n        /* \"#utility.yul\":1868:1872   */\n      0x00\n        /* \"#utility.yul\":1958:1976   */\n      0xffffffffffffffff\n        /* \"#utility.yul\":1950:1956   */\n      dup3\n        /* \"#utility.yul\":1947:1977   */\n      gt\n        /* \"#utility.yul\":1944:2000   */\n      iszero\n      tag_62\n      jumpi\n        /* \"#utility.yul\":1980:1998   */\n      tag_63\n      tag_64\n      jump\t// in\n    tag_63:\n        /* \"#utility.yul\":1944:2000   */\n    tag_62:\n        /* \"#utility.yul\":2018:2047   */\n      tag_65\n        /* \"#utility.yul\":2040:2046   */\n      dup3\n        /* \"#utility.yul\":2018:2047   */\n      tag_66\n      jump\t// in\n    tag_65:\n        /* \"#utility.yul\":2010:2047   */\n      swap1\n      pop\n        /* \"#utility.yul\":2102:2106   */\n      0x20\n        /* \"#utility.yul\":2096:2100   */\n      dup2\n        /* \"#utility.yul\":2092:2107   */\n      add\n        /* \"#utility.yul\":2084:2107   */\n      swap1\n      pop\n        /* \"#utility.yul\":1806:2114   */\n      swap2\n      swap1\n      pop\n      jump\t// out\n        /* \"#utility.yul\":2120:2425   */\n    tag_10:\n        /* \"#utility.yul\":2160:2163   */\n      0x00\n        /* \"#utility.yul\":2179:2199   */\n      tag_68\n        /* \"#utility.yul\":2197:2198   */\n      dup3\n        /* \"#utility.yul\":2179:2199   */\n      tag_69\n      jump\t// in\n    tag_68:\n        /* \"#utility.yul\":2174:2199   */\n      swap2\n      pop\n        /* \"#utility.yul\":2213:2233   */\n      tag_70\n        /* \"#utility.yul\":2231:2232   */\n      dup4\n        /* \"#utility.yul\":2213:2233   */\n      tag_69\n      jump\t// in\n    tag_70:\n        /* \"#utility.yul\":2208:2233   */\n      swap3\n      pop\n        /* \"#utility.yul\":2367:2368   */\n      dup3\n        /* \"#utility.yul\":2299:2365   */\n      0xffffffffffffffffffffffffffffffffffffffffffffffffffffffffffffffff\n        /* \"#utility.yul\":2295:2369   */\n      sub\n        /* \"#utility.yul\":2292:2293   */\n      dup3\n        /* \"#utility.yul\":2289:2370   */\n      gt\n        /* \"#utility.yul\":2286:2393   */\n      iszero\n      tag_71\n      jumpi\n        /* \"#utility.yul\":2373:2391   */\n      tag_72\n      tag_73\n      jump\t// in\n    tag_72:\n        /* \"#utility.yul\":2286:2393   */\n    tag_71:\n        /* \"#utility.yul\":2417:2418   */\n      dup3\n        /* \"#utility.yul\":2414:2415   */\n      dup3\n        /* \"#utility.yul\":2410:2419   */\n      add\n        /* \"#utility.yul\":2403:2419   */\n      swap1\n      pop\n        /* \"#utility.yul\":2120:2425   */\n      swap3\n      swap2\n      pop\n      pop\n      jump\t// out\n        /* \"#utility.yul\":2431:2527   */\n    tag_74:\n        /* \"#utility.yul\":2468:2475   */\n      0x00\n        /* \"#utility.yul\":2497:2521   */\n      tag_76\n        /* \"#utility.yul\":2515:2520   */\n      dup3\n        /* \"#utility.yul\":2497:2521   */\n      tag_77\n      jump\t// in\n    tag_76:\n        /* \"#utility.yul\":2486:2521   */\n      swap1\n      pop\n        /* \"#utility.yul\":2431:2527   */\n      swap2\n      swap1\n      pop\n      jump\t// out\n        /* \"#utility.yul\":2533:2659   */\n    tag_77:\n        /* \"#utility.yul\":2570:2577   */\n      0x00\n        /* \"#utility.yul\":2610:2652   */\n      0xffffffffffffffffffffffffffffffffffffffff\n        /* \"#utility.yul\":2603:2608   */\n      dup3\n        /* \"#utility.yul\":2599:2653   */\n      and\n        /* \"#utility.yul\":2588:2653   */\n      swap1\n      pop\n        /* \"#utility.yul\":2533:2659   */\n      swap2\n      swap1\n      pop\n      jump\t// out\n        /* \"#utility.yul\":2665:2742   */\n    tag_69:\n        /* \"#utility.yul\":2702:2709   */\n      0x00\n        /* \"#utility.yul\":2731:2736   */\n      dup2\n        /* \"#utility.yul\":2720:2736   */\n      swap1\n      pop\n        /* \"#utility.yul\":2665:2742   */\n      swap2\n      swap1\n      pop\n      jump\t// out\n        /* \"#utility.yul\":2748:2902   */\n    tag_35:\n        /* \"#utility.yul\":2832:2838   */\n      dup3\n        /* \"#utility.yul\":2827:2830   */\n      dup2\n        /* \"#utility.yul\":2822:2825   */\n      dup4\n        /* \"#utility.yul\":2809:2839   */\n      calldatacopy\n        /* \"#utility.yul\":2894:2895   */\n      0x00\n        /* \"#utility.yul\":2885:2891   */\n      dup4\n        /* \"#utility.yul\":2880:2883   */\n      dup4\n        /* \"#utility.yul\":2876:2892   */\n      add\n        /* \"#utility.yul\":2869:2896   */\n      mstore\n        /* \"#utility.yul\":2748:2902   */\n      pop\n      pop\n      pop\n      jump\t// out\n        /* \"#utility.yul\":2908:3228   */\n    tag_14:\n        /* \"#utility.yul\":2952:2958   */\n      0x00\n        /* \"#utility.yul\":2989:2990   */\n      0x02\n        /* \"#utility.yul\":2983:2987   */\n      dup3\n        /* \"#utility.yul\":2979:2991   */\n      div\n        /* \"#utility.yul\":2969:2991   */\n      swap1\n      pop\n        /* \"#utility.yul\":3036:3037   */\n      0x01\n        /* \"#utility.yul\":3030:3034   */\n      dup3\n        /* \"#utility.yul\":3026:3038   */\n      and\n        /* \"#utility.yul\":3057:3075   */\n      dup1\n        /* \"#utility.yul\":3047:3128   */\n      tag_82\n      jumpi\n        /* \"#utility.yul\":3113:3117   */\n      0x7f\n        /* \"#utility.yul\":3105:3111   */\n      dup3\n        /* \"#utility.yul\":3101:3118   */\n      and\n        /* \"#utility.yul\":3091:3118   */\n      swap2\n      pop\n        /* \"#utility.yul\":3047:3128   */\n    tag_82:\n        /* \"#utility.yul\":3175:3177   */\n      0x20\n        /* \"#utility.yul\":3167:3173   */\n      dup3\n        /* \"#utility.yul\":3164:3178   */\n      lt\n        /* \"#utility.yul\":3144:3162   */\n      dup2\n        /* \"#utility.yul\":3141:3179   */\n      eq\n        /* \"#utility.yul\":3138:3222   */\n      iszero\n      tag_83\n      jumpi\n        /* \"#utility.yul\":3194:3212   */\n      tag_84\n      tag_85\n      jump\t// in\n    tag_84:\n        /* \"#utility.yul\":3138:3222   */\n    tag_83:\n        /* \"#utility.yul\":2959:3228   */\n      pop\n        /* \"#utility.yul\":2908:3228   */\n      swap2\n      swap1\n      pop\n      jump\t// out\n        /* \"#utility.yul\":3234:3515   */\n    tag_59:\n        /* \"#utility.yul\":3317:3344   */\n      tag_87\n        /* \"#utility.yul\":3339:3343   */\n      dup3\n        /* \"#utility.yul\":3317:3344   */\n      tag_66\n      jump\t// in\n    tag_87:\n        /* \"#utility.yul\":3309:3315   */\n      dup2\n        /* \"#utility.yul\":3305:3345   */\n      add\n        /* \"#utility.yul\":3447:3453   */\n      dup2\n        /* \"#utility.yul\":3435:3445   */\n      dup2\n        /* \"#utility.yul\":3432:3454   */\n      lt\n        /* \"#utility.yul\":3411:3429   */\n      0xffffffffffffffff\n        /* \"#utility.yul\":3399:3409   */\n      dup3\n        /* \"#utility.yul\":3396:3430   */\n      gt\n        /* \"#utility.yul\":3393:3455   */\n      or\n        /* \"#utility.yul\":3390:3478   */\n      iszero\n      tag_88\n      jumpi\n        /* \"#utility.yul\":3458:3476   */\n      tag_89\n      tag_64\n      jump\t// in\n    tag_89:\n        /* \"#utility.yul\":3390:3478   */\n    tag_88:\n        /* \"#utility.yul\":3498:3508   */\n      dup1\n        /* \"#utility.yul\":3494:3496   */\n      0x40\n        /* \"#utility.yul\":3487:3509   */\n      mstore\n        /* \"#utility.yul\":3277:3515   */\n      pop\n        /* \"#utility.yul\":3234:3515   */\n      pop\n      pop\n      jump\t// out\n        /* \"#utility.yul\":3521:3701   */\n    tag_73:\n        /* \"#utility.yul\":3569:3646   */\n      0x4e487b7100000000000000000000000000000000000000000000000000000000\n        /* \"#utility.yul\":3566:3567   */\n      0x00\n        /* \"#utility.yul\":3559:3647   */\n      mstore\n        /* \"#utility.yul\":3666:3670   */\n      0x11\n        /* \"#utility.yul\":3663:3664   */\n      0x04\n        /* \"#utility.yul\":3656:3671   */\n      mstore\n        /* \"#utility.yul\":3690:3694   */\n      0x24\n        /* \"#utility.yul\":3687:3688   */\n      0x00\n        /* \"#utility.yul\":3680:3695   */\n      revert\n        /* \"#utility.yul\":3707:3887   */\n    tag_85:\n        /* \"#utility.yul\":3755:3832   */\n      0x4e487b7100000000000000000000000000000000000000000000000000000000\n        /* \"#utility.yul\":3752:3753   */\n      0x00\n        /* \"#utility.yul\":3745:3833   */\n      mstore\n        /* \"#utility.yul\":3852:3856   */\n      0x22\n        /* \"#utility.yul\":3849:3850   */\n      0x04\n        /* \"#utility.yul\":3842:3857   */\n      mstore\n        /* \"#utility.yul\":3876:3880   */\n      0x24\n        /* \"#utility.yul\":3873:3874   */\n      0x00\n        /* \"#utility.yul\":3866:3881   */\n      revert\n        /* \"#utility.yul\":3893:4073   */\n    tag_64:\n        /* \"#utility.yul\":3941:4018   */\n      0x4e487b7100000000000000000000000000000000000000000000000000000000\n        /* \"#utility.yul\":3938:3939   */\n      0x00\n        /* \"#utility.yul\":3931:4019   */\n      mstore\n        /* \"#utility.yul\":4038:4042   */\n      0x41\n        /* \"#utility.yul\":4035:4036   */\n      0x04\n        /* \"#utility.yul\":4028:4043   */\n      mstore\n        /* \"#utility.yul\":4062:4066   */\n      0x24\n        /* \"#utility.yul\":4059:4060   */\n      0x00\n        /* \"#utility.yul\":4052:4067   */\n      revert\n        /* \"#utility.yul\":4079:4196   */\n    tag_44:\n        /* \"#utility.yul\":4188:4189   */\n      0x00\n        /* \"#utility.yul\":4185:4186   */\n      dup1\n        /* \"#utility.yul\":4178:4190   */\n      revert\n        /* \"#utility.yul\":4202:4319   */\n    tag_33:\n        /* \"#utility.yul\":4311:4312   */\n      0x00\n        /* \"#utility.yul\":4308:4309   */\n      dup1\n        /* \"#utility.yul\":4301:4313   */\n      revert\n        /* \"#utility.yul\":4325:4442   */\n    tag_52:\n        /* \"#utility.yul\":4434:4435   */\n      0x00\n        /* \"#utility.yul\":4431:4432   */\n      dup1\n        /* \"#utility.yul\":4424:4436   */\n      revert\n        /* \"#utility.yul\":4448:4565   */\n    tag_49:\n        /* \"#utility.yul\":4557:4558   */\n      0x00\n        /* \"#utility.yul\":4554:4555   */\n      dup1\n        /* \"#utility.yul\":4547:4559   */\n      revert\n        /* \"#utility.yul\":4571:4673   */\n    tag_66:\n        /* \"#utility.yul\":4612:4618   */\n      0x00\n        /* \"#utility.yul\":4663:4665   */\n      0x1f\n        /* \"#utility.yul\":4659:4666   */\n      not\n        /* \"#utility.yul\":4654:4656   */\n      0x1f\n        /* \"#utility.yul\":4647:4652   */\n      dup4\n        /* \"#utility.yul\":4643:4657   */\n      add\n        /* \"#utility.yul\":4639:4667   */\n      and\n        /* \"#utility.yul\":4629:4667   */\n      swap1\n      pop\n        /* \"#utility.yul\":4571:4673   */\n      swap2\n      swap1\n      pop\n      jump\t// out\n        /* \"#utility.yul\":4679:4801   */\n    tag_39:\n        /* \"#utility.yul\":4752:4776   */\n      tag_99\n        /* \"#utility.yul\":4770:4775   */\n      dup2\n        /* \"#utility.yul\":4752:4776   */\n      tag_74\n      jump\t// in\n    tag_99:\n        /* \"#utility.yul\":4745:4750   */\n      dup2\n        /* \"#utility.yul\":4742:4777   */\n      eq\n        /* \"#utility.yul\":4732:4795   */\n      tag_100\n      jumpi\n        /* \"#utility.yul\":4791:4792   */\n      0x00\n        /* \"#utility.yul\":4788:4789   */\n      dup1\n        /* \"#utility.yul\":4781:4793   */\n      revert\n        /* \"#utility.yul\":4732:4795   */\n    tag_100:\n        /* \"#utility.yul\":4679:4801   */\n      pop\n      jump\t// out\n\n    auxdata: 0xa2646970667358221220bfa3721c26f8db8825c6980c0a4c4b89ee3debbb1ab76c7d568d4455fdd549c564736f6c63430008070033\n}\n",
				"bytecode": {
					"linkReferences": {},
					"object": "6080604052600060015534801561001557600080fd5b506104f0806100256000396000f3fe608060405234801561001057600080fd5b506004361061002b5760003560e01c80636b42cf4d14610030575b600080fd5b61004a6004803603810190610045919061023b565b61004c565b005b60405180606001604052806001805461006591906102ed565b81526020018381526020018273ffffffffffffffffffffffffffffffffffffffff1681525060008060015481526020019081526020016000206000820151816000015560208201518160010190805190602001906100c4929190610113565b5060408201518160020160006101000a81548173ffffffffffffffffffffffffffffffffffffffff021916908373ffffffffffffffffffffffffffffffffffffffff1602179055509050505050565b82805461011f9061038e565b90600052602060002090601f0160209004810192826101415760008555610188565b82601f1061015a57805160ff1916838001178555610188565b82800160010185558215610188579182015b8281111561018757825182559160200191906001019061016c565b5b5090506101959190610199565b5090565b5b808211156101b257600081600090555060010161019a565b5090565b60006101c96101c4846102bc565b610297565b9050828152602081018484840111156101e5576101e4610483565b5b6101f084828561037f565b509392505050565b600081359050610207816104a3565b92915050565b600082601f8301126102225761022161047e565b5b81356102328482602086016101b6565b91505092915050565b600080604083850312156102525761025161048d565b5b600083013567ffffffffffffffff8111156102705761026f610488565b5b61027c8582860161020d565b925050602061028d858286016101f8565b9150509250929050565b60006102a16102b2565b90506102ad82826103c0565b919050565b6000604051905090565b600067ffffffffffffffff8211156102d7576102d661044f565b5b6102e082610492565b9050602081019050919050565b60006102f882610375565b915061030383610375565b9250827fffffffffffffffffffffffffffffffffffffffffffffffffffffffffffffffff03821115610338576103376103f1565b5b828201905092915050565b600061034e82610355565b9050919050565b600073ffffffffffffffffffffffffffffffffffffffff82169050919050565b6000819050919050565b82818337600083830152505050565b600060028204905060018216806103a657607f821691505b602082108114156103ba576103b9610420565b5b50919050565b6103c982610492565b810181811067ffffffffffffffff821117156103e8576103e761044f565b5b80604052505050565b7f4e487b7100000000000000000000000000000000000000000000000000000000600052601160045260246000fd5b7f4e487b7100000000000000000000000000000000000000000000000000000000600052602260045260246000fd5b7f4e487b7100000000000000000000000000000000000000000000000000000000600052604160045260246000fd5b600080fd5b600080fd5b600080fd5b600080fd5b6000601f19601f8301169050919050565b6104ac81610343565b81146104b757600080fd5b5056fea2646970667358221220bfa3721c26f8db8825c6980c0a4c4b89ee3debbb1ab76c7d568d4455fdd549c564736f6c63430008070033",
					"opcodes": "PUSH1 0x80 PUSH1 0x40 MSTORE PUSH1 0x0 PUSH1 0x1 SSTORE CALLVALUE DUP1 ISZERO PUSH2 0x15 JUMPI PUSH1 0x0 DUP1 REVERT JUMPDEST POP PUSH2 0x4F0 DUP1 PUSH2 0x25 PUSH1 0x0 CODECOPY PUSH1 0x0 RETURN INVALID PUSH1 0x80 PUSH1 0x40 MSTORE CALLVALUE DUP1 ISZERO PUSH2 0x10 JUMPI PUSH1 0x0 DUP1 REVERT JUMPDEST POP PUSH1 0x4 CALLDATASIZE LT PUSH2 0x2B JUMPI PUSH1 0x0 CALLDATALOAD PUSH1 0xE0 SHR DUP1 PUSH4 0x6B42CF4D EQ PUSH2 0x30 JUMPI JUMPDEST PUSH1 0x0 DUP1 REVERT JUMPDEST PUSH2 0x4A PUSH1 0x4 DUP1 CALLDATASIZE SUB DUP2 ADD SWAP1 PUSH2 0x45 SWAP2 SWAP1 PUSH2 0x23B JUMP JUMPDEST PUSH2 0x4C JUMP JUMPDEST STOP JUMPDEST PUSH1 0x40 MLOAD DUP1 PUSH1 0x60 ADD PUSH1 0x40 MSTORE DUP1 PUSH1 0x1 DUP1 SLOAD PUSH2 0x65 SWAP2 SWAP1 PUSH2 0x2ED JUMP JUMPDEST DUP2 MSTORE PUSH1 0x20 ADD DUP4 DUP2 MSTORE PUSH1 0x20 ADD DUP3 PUSH20 0xFFFFFFFFFFFFFFFFFFFFFFFFFFFFFFFFFFFFFFFF AND DUP2 MSTORE POP PUSH1 0x0 DUP1 PUSH1 0x1 SLOAD DUP2 MSTORE PUSH1 0x20 ADD SWAP1 DUP2 MSTORE PUSH1 0x20 ADD PUSH1 0x0 KECCAK256 PUSH1 0x0 DUP3 ADD MLOAD DUP2 PUSH1 0x0 ADD SSTORE PUSH1 0x20 DUP3 ADD MLOAD DUP2 PUSH1 0x1 ADD SWAP1 DUP1 MLOAD SWAP1 PUSH1 0x20 ADD SWAP1 PUSH2 0xC4 SWAP3 SWAP2 SWAP1 PUSH2 0x113 JUMP JUMPDEST POP PUSH1 0x40 DUP3 ADD MLOAD DUP2 PUSH1 0x2 ADD PUSH1 0x0 PUSH2 0x100 EXP DUP2 SLOAD DUP2 PUSH20 0xFFFFFFFFFFFFFFFFFFFFFFFFFFFFFFFFFFFFFFFF MUL NOT AND SWAP1 DUP4 PUSH20 0xFFFFFFFFFFFFFFFFFFFFFFFFFFFFFFFFFFFFFFFF AND MUL OR SWAP1 SSTORE POP SWAP1 POP POP POP POP JUMP JUMPDEST DUP3 DUP1 SLOAD PUSH2 0x11F SWAP1 PUSH2 0x38E JUMP JUMPDEST SWAP1 PUSH1 0x0 MSTORE PUSH1 0x20 PUSH1 0x0 KECCAK256 SWAP1 PUSH1 0x1F ADD PUSH1 0x20 SWAP1 DIV DUP2 ADD SWAP3 DUP3 PUSH2 0x141 JUMPI PUSH1 0x0 DUP6 SSTORE PUSH2 0x188 JUMP JUMPDEST DUP3 PUSH1 0x1F LT PUSH2 0x15A JUMPI DUP1 MLOAD PUSH1 0xFF NOT AND DUP4 DUP1 ADD OR DUP6 SSTORE PUSH2 0x188 JUMP JUMPDEST DUP3 DUP1 ADD PUSH1 0x1 ADD DUP6 SSTORE DUP3 ISZERO PUSH2 0x188 JUMPI SWAP2 DUP3 ADD JUMPDEST DUP3 DUP2 GT ISZERO PUSH2 0x187 JUMPI DUP3 MLOAD DUP3 SSTORE SWAP2 PUSH1 0x20 ADD SWAP2 SWAP1 PUSH1 0x1 ADD SWAP1 PUSH2 0x16C JUMP JUMPDEST JUMPDEST POP SWAP1 POP PUSH2 0x195 SWAP2 SWAP1 PUSH2 0x199 JUMP JUMPDEST POP SWAP1 JUMP JUMPDEST JUMPDEST DUP1 DUP3 GT ISZERO PUSH2 0x1B2 JUMPI PUSH1 0x0 DUP2 PUSH1 0x0 SWAP1 SSTORE POP PUSH1 0x1 ADD PUSH2 0x19A JUMP JUMPDEST POP SWAP1 JUMP JUMPDEST PUSH1 0x0 PUSH2 0x1C9 PUSH2 0x1C4 DUP5 PUSH2 0x2BC JUMP JUMPDEST PUSH2 0x297 JUMP JUMPDEST SWAP1 POP DUP3 DUP2 MSTORE PUSH1 0x20 DUP2 ADD DUP5 DUP5 DUP5 ADD GT ISZERO PUSH2 0x1E5 JUMPI PUSH2 0x1E4 PUSH2 0x483 JUMP JUMPDEST JUMPDEST PUSH2 0x1F0 DUP5 DUP3 DUP6 PUSH2 0x37F JUMP JUMPDEST POP SWAP4 SWAP3 POP POP POP JUMP JUMPDEST PUSH1 0x0 DUP2 CALLDATALOAD SWAP1 POP PUSH2 0x207 DUP2 PUSH2 0x4A3 JUMP JUMPDEST SWAP3 SWAP2 POP POP JUMP JUMPDEST PUSH1 0x0 DUP3 PUSH1 0x1F DUP4 ADD SLT PUSH2 0x222 JUMPI PUSH2 0x221 PUSH2 0x47E JUMP JUMPDEST JUMPDEST DUP2 CALLDATALOAD PUSH2 0x232 DUP5 DUP3 PUSH1 0x20 DUP7 ADD PUSH2 0x1B6 JUMP JUMPDEST SWAP2 POP POP SWAP3 SWAP2 POP POP JUMP JUMPDEST PUSH1 0x0 DUP1 PUSH1 0x40 DUP4 DUP6 SUB SLT ISZERO PUSH2 0x252 JUMPI PUSH2 0x251 PUSH2 0x48D JUMP JUMPDEST JUMPDEST PUSH1 0x0 DUP4 ADD CALLDATALOAD PUSH8 0xFFFFFFFFFFFFFFFF DUP2 GT ISZERO PUSH2 0x270 JUMPI PUSH2 0x26F PUSH2 0x488 JUMP JUMPDEST JUMPDEST PUSH2 0x27C DUP6 DUP3 DUP7 ADD PUSH2 0x20D JUMP JUMPDEST SWAP3 POP POP PUSH1 0x20 PUSH2 0x28D DUP6 DUP3 DUP7 ADD PUSH2 0x1F8 JUMP JUMPDEST SWAP2 POP POP SWAP3 POP SWAP3 SWAP1 POP JUMP JUMPDEST PUSH1 0x0 PUSH2 0x2A1 PUSH2 0x2B2 JUMP JUMPDEST SWAP1 POP PUSH2 0x2AD DUP3 DUP3 PUSH2 0x3C0 JUMP JUMPDEST SWAP2 SWAP1 POP JUMP JUMPDEST PUSH1 0x0 PUSH1 0x40 MLOAD SWAP1 POP SWAP1 JUMP JUMPDEST PUSH1 0x0 PUSH8 0xFFFFFFFFFFFFFFFF DUP3 GT ISZERO PUSH2 0x2D7 JUMPI PUSH2 0x2D6 PUSH2 0x44F JUMP JUMPDEST JUMPDEST PUSH2 0x2E0 DUP3 PUSH2 0x492 JUMP JUMPDEST SWAP1 POP PUSH1 0x20 DUP2 ADD SWAP1 POP SWAP2 SWAP1 POP JUMP JUMPDEST PUSH1 0x0 PUSH2 0x2F8 DUP3 PUSH2 0x375 JUMP JUMPDEST SWAP2 POP PUSH2 0x303 DUP4 PUSH2 0x375 JUMP JUMPDEST SWAP3 POP DUP3 PUSH32 0xFFFFFFFFFFFFFFFFFFFFFFFFFFFFFFFFFFFFFFFFFFFFFFFFFFFFFFFFFFFFFFFF SUB DUP3 GT ISZERO PUSH2 0x338 JUMPI PUSH2 0x337 PUSH2 0x3F1 JUMP JUMPDEST JUMPDEST DUP3 DUP3 ADD SWAP1 POP SWAP3 SWAP2 POP POP JUMP JUMPDEST PUSH1 0x0 PUSH2 0x34E DUP3 PUSH2 0x355 JUMP JUMPDEST SWAP1 POP SWAP2 SWAP1 POP JUMP JUMPDEST PUSH1 0x0 PUSH20 0xFFFFFFFFFFFFFFFFFFFFFFFFFFFFFFFFFFFFFFFF DUP3 AND SWAP1 POP SWAP2 SWAP1 POP JUMP JUMPDEST PUSH1 0x0 DUP2 SWAP1 POP SWAP2 SWAP1 POP JUMP JUMPDEST DUP3 DUP2 DUP4 CALLDATACOPY PUSH1 0x0 DUP4 DUP4 ADD MSTORE POP POP POP JUMP JUMPDEST PUSH1 0x0 PUSH1 0x2 DUP3 DIV SWAP1 POP PUSH1 0x1 DUP3 AND DUP1 PUSH2 0x3A6 JUMPI PUSH1 0x7F DUP3 AND SWAP2 POP JUMPDEST PUSH1 0x20 DUP3 LT DUP2 EQ ISZERO PUSH2 0x3BA JUMPI PUSH2 0x3B9 PUSH2 0x420 JUMP JUMPDEST JUMPDEST POP SWAP2 SWAP1 POP JUMP JUMPDEST PUSH2 0x3C9 DUP3 PUSH2 0x492 JUMP JUMPDEST DUP2 ADD DUP2 DUP2 LT PUSH8 0xFFFFFFFFFFFFFFFF DUP3 GT OR ISZERO PUSH2 0x3E8 JUMPI PUSH2 0x3E7 PUSH2 0x44F JUMP JUMPDEST JUMPDEST DUP1 PUSH1 0x40 MSTORE POP POP POP JUMP JUMPDEST PUSH32 0x4E487B7100000000000000000000000000000000000000000000000000000000 PUSH1 0x0 MSTORE PUSH1 0x11 PUSH1 0x4 MSTORE PUSH1 0x24 PUSH1 0x0 REVERT JUMPDEST PUSH32 0x4E487B7100000000000000000000000000000000000000000000000000000000 PUSH1 0x0 MSTORE PUSH1 0x22 PUSH1 0x4 MSTORE PUSH1 0x24 PUSH1 0x0 REVERT JUMPDEST PUSH32 0x4E487B7100000000000000000000000000000000000000000000000000000000 PUSH1 0x0 MSTORE PUSH1 0x41 PUSH1 0x4 MSTORE PUSH1 0x24 PUSH1 0x0 REVERT JUMPDEST PUSH1 0x0 DUP1 REVERT JUMPDEST PUSH1 0x0 DUP1 REVERT JUMPDEST PUSH1 0x0 DUP1 REVERT JUMPDEST PUSH1 0x0 DUP1 REVERT JUMPDEST PUSH1 0x0 PUSH1 0x1F NOT PUSH1 0x1F DUP4 ADD AND SWAP1 POP SWAP2 SWAP1 POP JUMP JUMPDEST PUSH2 0x4AC DUP2 PUSH2 0x343 JUMP JUMPDEST DUP2 EQ PUSH2 0x4B7 JUMPI PUSH1 0x0 DUP1 REVERT JUMPDEST POP JUMP INVALID LOG2 PUSH5 0x6970667358 0x22 SLT KECCAK256 0xBF LOG3 PUSH19 0x1C26F8DB8825C6980C0A4C4B89EE3DEBBB1AB7 PUSH13 0x7D568D4455FDD549C564736F6C PUSH4 0x43000807 STOP CALLER "
				},
				"gasEstimates": {
					"creation": {
						"codeDepositCost": "252800",
						"executionCost": "5300",
						"totalCost": "258100"
					},
					"external": {
						"createMember(string,address)": "infinite"
					}
				},
				"methodIdentifiers": {
					"createMember(string,address)": "6b42cf4d"
				}
			},
			"storageLayout": {
				"storage": [
					{
						"astId": 13,
						"contract": "contracts/Members.sol:Members",
						"label": "members",
						"offset": 0,
						"slot": "0",
						"type": "t_mapping(t_uint256,t_struct(Member)8_storage)"
					},
					{
						"astId": 16,
						"contract": "contracts/Members.sol:Members",
						"label": "AllMembers",
						"offset": 0,
						"slot": "1",
						"type": "t_uint256"
					}
				],
				"types": {
					"t_address_payable": {
						"encoding": "inplace",
						"label": "address payable",
						"numberOfBytes": "20"
					},
					"t_mapping(t_uint256,t_struct(Member)8_storage)": {
						"encoding": "mapping",
						"key": "t_uint256",
						"label": "mapping(uint256 => struct Members.Member)",
						"numberOfBytes": "32",
						"value": "t_struct(Member)8_storage"
					},
					"t_string_storage": {
						"encoding": "bytes",
						"label": "string",
						"numberOfBytes": "32"
					},
					"t_struct(Member)8_storage": {
						"encoding": "inplace",
						"label": "struct Members.Member",
						"members": [
							{
								"astId": 3,
								"contract": "contracts/Members.sol:Members",
								"label": "memberId",
								"offset": 0,
								"slot": "0",
								"type": "t_uint256"
							},
							{
								"astId": 5,
								"contract": "contracts/Members.sol:Members",
								"label": "name",
								"offset": 0,
								"slot": "1",
								"type": "t_string_storage"
							},
							{
								"astId": 7,
								"contract": "contracts/Members.sol:Members",
								"label": "memberWalletAddress",
								"offset": 0,
								"slot": "2",
								"type": "t_address_payable"
							}
						],
						"numberOfBytes": "96"
					},
					"t_uint256": {
						"encoding": "inplace",
						"label": "uint256",
						"numberOfBytes": "32"
					}
				}
			},
			"userdoc": {
				"kind": "user",
				"methods": {},
				"version": 1
			}
		}
	}
}