{
	"contracts/Tontine.sol": {
		"Tontine": {
			"abi": [
				{
					"inputs": [
						{
							"internalType": "string",
							"name": "name",
							"type": "string"
						},
						{
							"internalType": "uint256",
							"name": "amount",
							"type": "uint256"
						},
						{
							"internalType": "uint256",
							"name": "beneficyingInterval",
							"type": "uint256"
						}
					],
					"name": "createTontine",
					"outputs": [],
					"stateMutability": "nonpayable",
					"type": "function"
				}
			],
			"devdoc": {
				"kind": "dev",
				"methods": {},
				"version": 1
			},
			"evm": {
				"assembly": "    /* \"contracts/Tontine.sol\":74:397  contract Tontine {\r... */\n  mstore(0x40, 0x80)\n  callvalue\n  dup1\n  iszero\n  tag_1\n  jumpi\n  0x00\n  dup1\n  revert\ntag_1:\n  pop\n  dataSize(sub_0)\n  dup1\n  dataOffset(sub_0)\n  0x00\n  codecopy\n  0x00\n  return\nstop\n\nsub_0: assembly {\n        /* \"contracts/Tontine.sol\":74:397  contract Tontine {\r... */\n      mstore(0x40, 0x80)\n      callvalue\n      dup1\n      iszero\n      tag_1\n      jumpi\n      0x00\n      dup1\n      revert\n    tag_1:\n      pop\n      jumpi(tag_2, lt(calldatasize, 0x04))\n      shr(0xe0, calldataload(0x00))\n      dup1\n      0x53d21d45\n      eq\n      tag_3\n      jumpi\n    tag_2:\n      0x00\n      dup1\n      revert\n        /* \"contracts/Tontine.sol\":291:392  function createTontine(string memory name, uint amount, uint beneficyingInterval) public {\r... */\n    tag_3:\n      tag_4\n      0x04\n      dup1\n      calldatasize\n      sub\n      dup2\n      add\n      swap1\n      tag_5\n      swap2\n      swap1\n      tag_6\n      jump\t// in\n    tag_5:\n      tag_7\n      jump\t// in\n    tag_4:\n      stop\n    tag_7:\n      pop\n      pop\n      pop\n      jump\t// out\n        /* \"#utility.yul\":7:419   */\n    tag_10:\n        /* \"#utility.yul\":85:90   */\n      0x00\n        /* \"#utility.yul\":110:176   */\n      tag_12\n        /* \"#utility.yul\":126:175   */\n      tag_13\n        /* \"#utility.yul\":168:174   */\n      dup5\n        /* \"#utility.yul\":126:175   */\n      tag_14\n      jump\t// in\n    tag_13:\n        /* \"#utility.yul\":110:176   */\n      tag_15\n      jump\t// in\n    tag_12:\n        /* \"#utility.yul\":101:176   */\n      swap1\n      pop\n        /* \"#utility.yul\":199:205   */\n      dup3\n        /* \"#utility.yul\":192:197   */\n      dup2\n        /* \"#utility.yul\":185:206   */\n      mstore\n        /* \"#utility.yul\":237:241   */\n      0x20\n        /* \"#utility.yul\":230:235   */\n      dup2\n        /* \"#utility.yul\":226:242   */\n      add\n        /* \"#utility.yul\":275:278   */\n      dup5\n        /* \"#utility.yul\":266:272   */\n      dup5\n        /* \"#utility.yul\":261:264   */\n      dup5\n        /* \"#utility.yul\":257:273   */\n      add\n        /* \"#utility.yul\":254:279   */\n      gt\n        /* \"#utility.yul\":251:363   */\n      iszero\n      tag_16\n      jumpi\n        /* \"#utility.yul\":282:361   */\n      tag_17\n      tag_18\n      jump\t// in\n    tag_17:\n        /* \"#utility.yul\":251:363   */\n    tag_16:\n        /* \"#utility.yul\":372:413   */\n      tag_19\n        /* \"#utility.yul\":406:412   */\n      dup5\n        /* \"#utility.yul\":401:404   */\n      dup3\n        /* \"#utility.yul\":396:399   */\n      dup6\n        /* \"#utility.yul\":372:413   */\n      tag_20\n      jump\t// in\n    tag_19:\n        /* \"#utility.yul\":91:419   */\n      pop\n        /* \"#utility.yul\":7:419   */\n      swap4\n      swap3\n      pop\n      pop\n      pop\n      jump\t// out\n        /* \"#utility.yul\":439:779   */\n    tag_21:\n        /* \"#utility.yul\":495:500   */\n      0x00\n        /* \"#utility.yul\":544:547   */\n      dup3\n        /* \"#utility.yul\":537:541   */\n      0x1f\n        /* \"#utility.yul\":529:535   */\n      dup4\n        /* \"#utility.yul\":525:542   */\n      add\n        /* \"#utility.yul\":521:548   */\n      slt\n        /* \"#utility.yul\":511:633   */\n      tag_23\n      jumpi\n        /* \"#utility.yul\":552:631   */\n      tag_24\n      tag_25\n      jump\t// in\n    tag_24:\n        /* \"#utility.yul\":511:633   */\n    tag_23:\n        /* \"#utility.yul\":669:675   */\n      dup2\n        /* \"#utility.yul\":656:676   */\n      calldataload\n        /* \"#utility.yul\":694:773   */\n      tag_26\n        /* \"#utility.yul\":769:772   */\n      dup5\n        /* \"#utility.yul\":761:767   */\n      dup3\n        /* \"#utility.yul\":754:758   */\n      0x20\n        /* \"#utility.yul\":746:752   */\n      dup7\n        /* \"#utility.yul\":742:759   */\n      add\n        /* \"#utility.yul\":694:773   */\n      tag_10\n      jump\t// in\n    tag_26:\n        /* \"#utility.yul\":685:773   */\n      swap2\n      pop\n        /* \"#utility.yul\":501:779   */\n      pop\n        /* \"#utility.yul\":439:779   */\n      swap3\n      swap2\n      pop\n      pop\n      jump\t// out\n        /* \"#utility.yul\":785:924   */\n    tag_27:\n        /* \"#utility.yul\":831:836   */\n      0x00\n        /* \"#utility.yul\":869:875   */\n      dup2\n        /* \"#utility.yul\":856:876   */\n      calldataload\n        /* \"#utility.yul\":847:876   */\n      swap1\n      pop\n        /* \"#utility.yul\":885:918   */\n      tag_29\n        /* \"#utility.yul\":912:917   */\n      dup2\n        /* \"#utility.yul\":885:918   */\n      tag_30\n      jump\t// in\n    tag_29:\n        /* \"#utility.yul\":785:924   */\n      swap3\n      swap2\n      pop\n      pop\n      jump\t// out\n        /* \"#utility.yul\":930:1729   */\n    tag_6:\n        /* \"#utility.yul\":1017:1023   */\n      0x00\n        /* \"#utility.yul\":1025:1031   */\n      dup1\n        /* \"#utility.yul\":1033:1039   */\n      0x00\n        /* \"#utility.yul\":1082:1084   */\n      0x60\n        /* \"#utility.yul\":1070:1079   */\n      dup5\n        /* \"#utility.yul\":1061:1068   */\n      dup7\n        /* \"#utility.yul\":1057:1080   */\n      sub\n        /* \"#utility.yul\":1053:1085   */\n      slt\n        /* \"#utility.yul\":1050:1169   */\n      iszero\n      tag_32\n      jumpi\n        /* \"#utility.yul\":1088:1167   */\n      tag_33\n      tag_34\n      jump\t// in\n    tag_33:\n        /* \"#utility.yul\":1050:1169   */\n    tag_32:\n        /* \"#utility.yul\":1236:1237   */\n      0x00\n        /* \"#utility.yul\":1225:1234   */\n      dup5\n        /* \"#utility.yul\":1221:1238   */\n      add\n        /* \"#utility.yul\":1208:1239   */\n      calldataload\n        /* \"#utility.yul\":1266:1284   */\n      0xffffffffffffffff\n        /* \"#utility.yul\":1258:1264   */\n      dup2\n        /* \"#utility.yul\":1255:1285   */\n      gt\n        /* \"#utility.yul\":1252:1369   */\n      iszero\n      tag_35\n      jumpi\n        /* \"#utility.yul\":1288:1367   */\n      tag_36\n      tag_37\n      jump\t// in\n    tag_36:\n        /* \"#utility.yul\":1252:1369   */\n    tag_35:\n        /* \"#utility.yul\":1393:1456   */\n      tag_38\n        /* \"#utility.yul\":1448:1455   */\n      dup7\n        /* \"#utility.yul\":1439:1445   */\n      dup3\n        /* \"#utility.yul\":1428:1437   */\n      dup8\n        /* \"#utility.yul\":1424:1446   */\n      add\n        /* \"#utility.yul\":1393:1456   */\n      tag_21\n      jump\t// in\n    tag_38:\n        /* \"#utility.yul\":1383:1456   */\n      swap4\n      pop\n        /* \"#utility.yul\":1179:1466   */\n      pop\n        /* \"#utility.yul\":1505:1507   */\n      0x20\n        /* \"#utility.yul\":1531:1584   */\n      tag_39\n        /* \"#utility.yul\":1576:1583   */\n      dup7\n        /* \"#utility.yul\":1567:1573   */\n      dup3\n        /* \"#utility.yul\":1556:1565   */\n      dup8\n        /* \"#utility.yul\":1552:1574   */\n      add\n        /* \"#utility.yul\":1531:1584   */\n      tag_27\n      jump\t// in\n    tag_39:\n        /* \"#utility.yul\":1521:1584   */\n      swap3\n      pop\n        /* \"#utility.yul\":1476:1594   */\n      pop\n        /* \"#utility.yul\":1633:1635   */\n      0x40\n        /* \"#utility.yul\":1659:1712   */\n      tag_40\n        /* \"#utility.yul\":1704:1711   */\n      dup7\n        /* \"#utility.yul\":1695:1701   */\n      dup3\n        /* \"#utility.yul\":1684:1693   */\n      dup8\n        /* \"#utility.yul\":1680:1702   */\n      add\n        /* \"#utility.yul\":1659:1712   */\n      tag_27\n      jump\t// in\n    tag_40:\n        /* \"#utility.yul\":1649:1712   */\n      swap2\n      pop\n        /* \"#utility.yul\":1604:1722   */\n      pop\n        /* \"#utility.yul\":930:1729   */\n      swap3\n      pop\n      swap3\n      pop\n      swap3\n      jump\t// out\n        /* \"#utility.yul\":1735:1864   */\n    tag_15:\n        /* \"#utility.yul\":1769:1775   */\n      0x00\n        /* \"#utility.yul\":1796:1816   */\n      tag_42\n      tag_43\n      jump\t// in\n    tag_42:\n        /* \"#utility.yul\":1786:1816   */\n      swap1\n      pop\n        /* \"#utility.yul\":1825:1858   */\n      tag_44\n        /* \"#utility.yul\":1853:1857   */\n      dup3\n        /* \"#utility.yul\":1845:1851   */\n      dup3\n        /* \"#utility.yul\":1825:1858   */\n      tag_45\n      jump\t// in\n    tag_44:\n        /* \"#utility.yul\":1735:1864   */\n      swap2\n      swap1\n      pop\n      jump\t// out\n        /* \"#utility.yul\":1870:1945   */\n    tag_43:\n        /* \"#utility.yul\":1903:1909   */\n      0x00\n        /* \"#utility.yul\":1936:1938   */\n      0x40\n        /* \"#utility.yul\":1930:1939   */\n      mload\n        /* \"#utility.yul\":1920:1939   */\n      swap1\n      pop\n        /* \"#utility.yul\":1870:1945   */\n      swap1\n      jump\t// out\n        /* \"#utility.yul\":1951:2259   */\n    tag_14:\n        /* \"#utility.yul\":2013:2017   */\n      0x00\n        /* \"#utility.yul\":2103:2121   */\n      0xffffffffffffffff\n        /* \"#utility.yul\":2095:2101   */\n      dup3\n        /* \"#utility.yul\":2092:2122   */\n      gt\n        /* \"#utility.yul\":2089:2145   */\n      iszero\n      tag_48\n      jumpi\n        /* \"#utility.yul\":2125:2143   */\n      tag_49\n      tag_50\n      jump\t// in\n    tag_49:\n        /* \"#utility.yul\":2089:2145   */\n    tag_48:\n        /* \"#utility.yul\":2163:2192   */\n      tag_51\n        /* \"#utility.yul\":2185:2191   */\n      dup3\n        /* \"#utility.yul\":2163:2192   */\n      tag_52\n      jump\t// in\n    tag_51:\n        /* \"#utility.yul\":2155:2192   */\n      swap1\n      pop\n        /* \"#utility.yul\":2247:2251   */\n      0x20\n        /* \"#utility.yul\":2241:2245   */\n      dup2\n        /* \"#utility.yul\":2237:2252   */\n      add\n        /* \"#utility.yul\":2229:2252   */\n      swap1\n      pop\n        /* \"#utility.yul\":1951:2259   */\n      swap2\n      swap1\n      pop\n      jump\t// out\n        /* \"#utility.yul\":2265:2342   */\n    tag_53:\n        /* \"#utility.yul\":2302:2309   */\n      0x00\n        /* \"#utility.yul\":2331:2336   */\n      dup2\n        /* \"#utility.yul\":2320:2336   */\n      swap1\n      pop\n        /* \"#utility.yul\":2265:2342   */\n      swap2\n      swap1\n      pop\n      jump\t// out\n        /* \"#utility.yul\":2348:2502   */\n    tag_20:\n        /* \"#utility.yul\":2432:2438   */\n      dup3\n        /* \"#utility.yul\":2427:2430   */\n      dup2\n        /* \"#utility.yul\":2422:2425   */\n      dup4\n        /* \"#utility.yul\":2409:2439   */\n      calldatacopy\n        /* \"#utility.yul\":2494:2495   */\n      0x00\n        /* \"#utility.yul\":2485:2491   */\n      dup4\n        /* \"#utility.yul\":2480:2483   */\n      dup4\n        /* \"#utility.yul\":2476:2492   */\n      add\n        /* \"#utility.yul\":2469:2496   */\n      mstore\n        /* \"#utility.yul\":2348:2502   */\n      pop\n      pop\n      pop\n      jump\t// out\n        /* \"#utility.yul\":2508:2789   */\n    tag_45:\n        /* \"#utility.yul\":2591:2618   */\n      tag_57\n        /* \"#utility.yul\":2613:2617   */\n      dup3\n        /* \"#utility.yul\":2591:2618   */\n      tag_52\n      jump\t// in\n    tag_57:\n        /* \"#utility.yul\":2583:2589   */\n      dup2\n        /* \"#utility.yul\":2579:2619   */\n      add\n        /* \"#utility.yul\":2721:2727   */\n      dup2\n        /* \"#utility.yul\":2709:2719   */\n      dup2\n        /* \"#utility.yul\":2706:2728   */\n      lt\n        /* \"#utility.yul\":2685:2703   */\n      0xffffffffffffffff\n        /* \"#utility.yul\":2673:2683   */\n      dup3\n        /* \"#utility.yul\":2670:2704   */\n      gt\n        /* \"#utility.yul\":2667:2729   */\n      or\n        /* \"#utility.yul\":2664:2752   */\n      iszero\n      tag_58\n      jumpi\n        /* \"#utility.yul\":2732:2750   */\n      tag_59\n      tag_50\n      jump\t// in\n    tag_59:\n        /* \"#utility.yul\":2664:2752   */\n    tag_58:\n        /* \"#utility.yul\":2772:2782   */\n      dup1\n        /* \"#utility.yul\":2768:2770   */\n      0x40\n        /* \"#utility.yul\":2761:2783   */\n      mstore\n        /* \"#utility.yul\":2551:2789   */\n      pop\n        /* \"#utility.yul\":2508:2789   */\n      pop\n      pop\n      jump\t// out\n        /* \"#utility.yul\":2795:2975   */\n    tag_50:\n        /* \"#utility.yul\":2843:2920   */\n      0x4e487b7100000000000000000000000000000000000000000000000000000000\n        /* \"#utility.yul\":2840:2841   */\n      0x00\n        /* \"#utility.yul\":2833:2921   */\n      mstore\n        /* \"#utility.yul\":2940:2944   */\n      0x41\n        /* \"#utility.yul\":2937:2938   */\n      0x04\n        /* \"#utility.yul\":2930:2945   */\n      mstore\n        /* \"#utility.yul\":2964:2968   */\n      0x24\n        /* \"#utility.yul\":2961:2962   */\n      0x00\n        /* \"#utility.yul\":2954:2969   */\n      revert\n        /* \"#utility.yul\":2981:3098   */\n    tag_25:\n        /* \"#utility.yul\":3090:3091   */\n      0x00\n        /* \"#utility.yul\":3087:3088   */\n      dup1\n        /* \"#utility.yul\":3080:3092   */\n      revert\n        /* \"#utility.yul\":3104:3221   */\n    tag_18:\n        /* \"#utility.yul\":3213:3214   */\n      0x00\n        /* \"#utility.yul\":3210:3211   */\n      dup1\n        /* \"#utility.yul\":3203:3215   */\n      revert\n        /* \"#utility.yul\":3227:3344   */\n    tag_37:\n        /* \"#utility.yul\":3336:3337   */\n      0x00\n        /* \"#utility.yul\":3333:3334   */\n      dup1\n        /* \"#utility.yul\":3326:3338   */\n      revert\n        /* \"#utility.yul\":3350:3467   */\n    tag_34:\n        /* \"#utility.yul\":3459:3460   */\n      0x00\n        /* \"#utility.yul\":3456:3457   */\n      dup1\n        /* \"#utility.yul\":3449:3461   */\n      revert\n        /* \"#utility.yul\":3473:3575   */\n    tag_52:\n        /* \"#utility.yul\":3514:3520   */\n      0x00\n        /* \"#utility.yul\":3565:3567   */\n      0x1f\n        /* \"#utility.yul\":3561:3568   */\n      not\n        /* \"#utility.yul\":3556:3558   */\n      0x1f\n        /* \"#utility.yul\":3549:3554   */\n      dup4\n        /* \"#utility.yul\":3545:3559   */\n      add\n        /* \"#utility.yul\":3541:3569   */\n      and\n        /* \"#utility.yul\":3531:3569   */\n      swap1\n      pop\n        /* \"#utility.yul\":3473:3575   */\n      swap2\n      swap1\n      pop\n      jump\t// out\n        /* \"#utility.yul\":3581:3703   */\n    tag_30:\n        /* \"#utility.yul\":3654:3678   */\n      tag_67\n        /* \"#utility.yul\":3672:3677   */\n      dup2\n        /* \"#utility.yul\":3654:3678   */\n      tag_53\n      jump\t// in\n    tag_67:\n        /* \"#utility.yul\":3647:3652   */\n      dup2\n        /* \"#utility.yul\":3644:3679   */\n      eq\n        /* \"#utility.yul\":3634:3697   */\n      tag_68\n      jumpi\n        /* \"#utility.yul\":3693:3694   */\n      0x00\n        /* \"#utility.yul\":3690:3691   */\n      dup1\n        /* \"#utility.yul\":3683:3695   */\n      revert\n        /* \"#utility.yul\":3634:3697   */\n    tag_68:\n        /* \"#utility.yul\":3581:3703   */\n      pop\n      jump\t// out\n\n    auxdata: 0xa26469706673582212206ed0b2383dad50f816f1a4fe13980ea7d1d4e81cafb302b86232f4a8c901bf6264736f6c63430008070033\n}\n",
				"bytecode": {
					"linkReferences": {},
					"object": "608060405234801561001057600080fd5b50610286806100206000396000f3fe608060405234801561001057600080fd5b506004361061002b5760003560e01c806353d21d4514610030575b600080fd5b61004a600480360381019061004591906100d6565b61004c565b005b505050565b600061006461005f8461016a565b610145565b9050828152602081018484840111156100805761007f610219565b5b61008b8482856101a5565b509392505050565b600082601f8301126100a8576100a7610214565b5b81356100b8848260208601610051565b91505092915050565b6000813590506100d081610239565b92915050565b6000806000606084860312156100ef576100ee610223565b5b600084013567ffffffffffffffff81111561010d5761010c61021e565b5b61011986828701610093565b935050602061012a868287016100c1565b925050604061013b868287016100c1565b9150509250925092565b600061014f610160565b905061015b82826101b4565b919050565b6000604051905090565b600067ffffffffffffffff821115610185576101846101e5565b5b61018e82610228565b9050602081019050919050565b6000819050919050565b82818337600083830152505050565b6101bd82610228565b810181811067ffffffffffffffff821117156101dc576101db6101e5565b5b80604052505050565b7f4e487b7100000000000000000000000000000000000000000000000000000000600052604160045260246000fd5b600080fd5b600080fd5b600080fd5b600080fd5b6000601f19601f8301169050919050565b6102428161019b565b811461024d57600080fd5b5056fea26469706673582212206ed0b2383dad50f816f1a4fe13980ea7d1d4e81cafb302b86232f4a8c901bf6264736f6c63430008070033",
					"opcodes": "PUSH1 0x80 PUSH1 0x40 MSTORE CALLVALUE DUP1 ISZERO PUSH2 0x10 JUMPI PUSH1 0x0 DUP1 REVERT JUMPDEST POP PUSH2 0x286 DUP1 PUSH2 0x20 PUSH1 0x0 CODECOPY PUSH1 0x0 RETURN INVALID PUSH1 0x80 PUSH1 0x40 MSTORE CALLVALUE DUP1 ISZERO PUSH2 0x10 JUMPI PUSH1 0x0 DUP1 REVERT JUMPDEST POP PUSH1 0x4 CALLDATASIZE LT PUSH2 0x2B JUMPI PUSH1 0x0 CALLDATALOAD PUSH1 0xE0 SHR DUP1 PUSH4 0x53D21D45 EQ PUSH2 0x30 JUMPI JUMPDEST PUSH1 0x0 DUP1 REVERT JUMPDEST PUSH2 0x4A PUSH1 0x4 DUP1 CALLDATASIZE SUB DUP2 ADD SWAP1 PUSH2 0x45 SWAP2 SWAP1 PUSH2 0xD6 JUMP JUMPDEST PUSH2 0x4C JUMP JUMPDEST STOP JUMPDEST POP POP POP JUMP JUMPDEST PUSH1 0x0 PUSH2 0x64 PUSH2 0x5F DUP5 PUSH2 0x16A JUMP JUMPDEST PUSH2 0x145 JUMP JUMPDEST SWAP1 POP DUP3 DUP2 MSTORE PUSH1 0x20 DUP2 ADD DUP5 DUP5 DUP5 ADD GT ISZERO PUSH2 0x80 JUMPI PUSH2 0x7F PUSH2 0x219 JUMP JUMPDEST JUMPDEST PUSH2 0x8B DUP5 DUP3 DUP6 PUSH2 0x1A5 JUMP JUMPDEST POP SWAP4 SWAP3 POP POP POP JUMP JUMPDEST PUSH1 0x0 DUP3 PUSH1 0x1F DUP4 ADD SLT PUSH2 0xA8 JUMPI PUSH2 0xA7 PUSH2 0x214 JUMP JUMPDEST JUMPDEST DUP2 CALLDATALOAD PUSH2 0xB8 DUP5 DUP3 PUSH1 0x20 DUP7 ADD PUSH2 0x51 JUMP JUMPDEST SWAP2 POP POP SWAP3 SWAP2 POP POP JUMP JUMPDEST PUSH1 0x0 DUP2 CALLDATALOAD SWAP1 POP PUSH2 0xD0 DUP2 PUSH2 0x239 JUMP JUMPDEST SWAP3 SWAP2 POP POP JUMP JUMPDEST PUSH1 0x0 DUP1 PUSH1 0x0 PUSH1 0x60 DUP5 DUP7 SUB SLT ISZERO PUSH2 0xEF JUMPI PUSH2 0xEE PUSH2 0x223 JUMP JUMPDEST JUMPDEST PUSH1 0x0 DUP5 ADD CALLDATALOAD PUSH8 0xFFFFFFFFFFFFFFFF DUP2 GT ISZERO PUSH2 0x10D JUMPI PUSH2 0x10C PUSH2 0x21E JUMP JUMPDEST JUMPDEST PUSH2 0x119 DUP7 DUP3 DUP8 ADD PUSH2 0x93 JUMP JUMPDEST SWAP4 POP POP PUSH1 0x20 PUSH2 0x12A DUP7 DUP3 DUP8 ADD PUSH2 0xC1 JUMP JUMPDEST SWAP3 POP POP PUSH1 0x40 PUSH2 0x13B DUP7 DUP3 DUP8 ADD PUSH2 0xC1 JUMP JUMPDEST SWAP2 POP POP SWAP3 POP SWAP3 POP SWAP3 JUMP JUMPDEST PUSH1 0x0 PUSH2 0x14F PUSH2 0x160 JUMP JUMPDEST SWAP1 POP PUSH2 0x15B DUP3 DUP3 PUSH2 0x1B4 JUMP JUMPDEST SWAP2 SWAP1 POP JUMP JUMPDEST PUSH1 0x0 PUSH1 0x40 MLOAD SWAP1 POP SWAP1 JUMP JUMPDEST PUSH1 0x0 PUSH8 0xFFFFFFFFFFFFFFFF DUP3 GT ISZERO PUSH2 0x185 JUMPI PUSH2 0x184 PUSH2 0x1E5 JUMP JUMPDEST JUMPDEST PUSH2 0x18E DUP3 PUSH2 0x228 JUMP JUMPDEST SWAP1 POP PUSH1 0x20 DUP2 ADD SWAP1 POP SWAP2 SWAP1 POP JUMP JUMPDEST PUSH1 0x0 DUP2 SWAP1 POP SWAP2 SWAP1 POP JUMP JUMPDEST DUP3 DUP2 DUP4 CALLDATACOPY PUSH1 0x0 DUP4 DUP4 ADD MSTORE POP POP POP JUMP JUMPDEST PUSH2 0x1BD DUP3 PUSH2 0x228 JUMP JUMPDEST DUP2 ADD DUP2 DUP2 LT PUSH8 0xFFFFFFFFFFFFFFFF DUP3 GT OR ISZERO PUSH2 0x1DC JUMPI PUSH2 0x1DB PUSH2 0x1E5 JUMP JUMPDEST JUMPDEST DUP1 PUSH1 0x40 MSTORE POP POP POP JUMP JUMPDEST PUSH32 0x4E487B7100000000000000000000000000000000000000000000000000000000 PUSH1 0x0 MSTORE PUSH1 0x41 PUSH1 0x4 MSTORE PUSH1 0x24 PUSH1 0x0 REVERT JUMPDEST PUSH1 0x0 DUP1 REVERT JUMPDEST PUSH1 0x0 DUP1 REVERT JUMPDEST PUSH1 0x0 DUP1 REVERT JUMPDEST PUSH1 0x0 DUP1 REVERT JUMPDEST PUSH1 0x0 PUSH1 0x1F NOT PUSH1 0x1F DUP4 ADD AND SWAP1 POP SWAP2 SWAP1 POP JUMP JUMPDEST PUSH2 0x242 DUP2 PUSH2 0x19B JUMP JUMPDEST DUP2 EQ PUSH2 0x24D JUMPI PUSH1 0x0 DUP1 REVERT JUMPDEST POP JUMP INVALID LOG2 PUSH5 0x6970667358 0x22 SLT KECCAK256 PUSH15 0xD0B2383DAD50F816F1A4FE13980EA7 0xD1 0xD4 0xE8 SHR 0xAF 0xB3 MUL 0xB8 PUSH3 0x32F4A8 0xC9 ADD 0xBF PUSH3 0x64736F PUSH13 0x63430008070033000000000000 "
				},
				"gasEstimates": {
					"creation": {
						"codeDepositCost": "129200",
						"executionCost": "177",
						"totalCost": "129377"
					},
					"external": {
						"createTontine(string,uint256,uint256)": "infinite"
					}
				},
				"methodIdentifiers": {
					"createTontine(string,uint256,uint256)": "53d21d45"
				}
			},
			"storageLayout": {
				"storage": [
					{
						"astId": 15,
						"contract": "contracts/Tontine.sol:Tontine",
						"label": "tontines",
						"offset": 0,
						"slot": "0",
						"type": "t_mapping(t_uint256,t_struct(Tontine)10_storage)"
					}
				],
				"types": {
					"t_mapping(t_uint256,t_struct(Tontine)10_storage)": {
						"encoding": "mapping",
						"key": "t_uint256",
						"label": "mapping(uint256 => struct Tontine.Tontine)",
						"numberOfBytes": "32",
						"value": "t_struct(Tontine)10_storage"
					},
					"t_string_storage": {
						"encoding": "bytes",
						"label": "string",
						"numberOfBytes": "32"
					},
					"t_struct(Tontine)10_storage": {
						"encoding": "inplace",
						"label": "struct Tontine.Tontine",
						"members": [
							{
								"astId": 3,
								"contract": "contracts/Tontine.sol:Tontine",
								"label": "tontineId",
								"offset": 0,
								"slot": "0",
								"type": "t_uint256"
							},
							{
								"astId": 5,
								"contract": "contracts/Tontine.sol:Tontine",
								"label": "name",
								"offset": 0,
								"slot": "1",
								"type": "t_string_storage"
							},
							{
								"astId": 7,
								"contract": "contracts/Tontine.sol:Tontine",
								"label": "amount",
								"offset": 0,
								"slot": "2",
								"type": "t_uint256"
							},
							{
								"astId": 9,
								"contract": "contracts/Tontine.sol:Tontine",
								"label": "beneficyingInterval",
								"offset": 0,
								"slot": "3",
								"type": "t_uint256"
							}
						],
						"numberOfBytes": "128"
					},
					"t_uint256": {
						"encoding": "inplace",
						"label": "uint256",
						"numberOfBytes": "32"
					}
				}
			},
			"userdoc": {
				"kind": "user",
				"methods": {},
				"version": 1
			}
		}
	}
}