{
	"contracts/Member_Groups.sol": {
		"Group_Members": {
			"abi": [
				{
					"inputs": [
						{
							"internalType": "uint256",
							"name": "_groupId",
							"type": "uint256"
						},
						{
							"internalType": "uint256",
							"name": "_memberId",
							"type": "uint256"
						},
						{
							"internalType": "bool",
							"name": "_memberIsValidated",
							"type": "bool"
						},
						{
							"internalType": "uint256",
							"name": "_memberFoodOrder",
							"type": "uint256"
						}
					],
					"name": "createMemberGroup",
					"outputs": [],
					"stateMutability": "nonpayable",
					"type": "function"
				},
				{
					"inputs": [],
					"name": "getNumberOfMemberGroups",
					"outputs": [
						{
							"internalType": "uint256",
							"name": "",
							"type": "uint256"
						}
					],
					"stateMutability": "view",
					"type": "function"
				},
				{
					"inputs": [
						{
							"internalType": "uint256",
							"name": "_memberGroupId",
							"type": "uint256"
						}
					],
					"name": "showMemberGroup",
					"outputs": [
						{
							"internalType": "uint256",
							"name": "",
							"type": "uint256"
						},
						{
							"internalType": "uint256",
							"name": "",
							"type": "uint256"
						},
						{
							"internalType": "bool",
							"name": "",
							"type": "bool"
						},
						{
							"internalType": "uint256",
							"name": "",
							"type": "uint256"
						}
					],
					"stateMutability": "view",
					"type": "function"
				}
			],
			"devdoc": {
				"kind": "dev",
				"methods": {},
				"version": 1
			},
			"evm": {
				"assembly": "    /* \"contracts/Member_Groups.sol\":74:1330  contract Group_Members {\r... */\n  mstore(0x40, 0x80)\n    /* \"contracts/Member_Groups.sol\":343:344  0 */\n  0x00\n    /* \"contracts/Member_Groups.sol\":315:344  uint numberOfMemberGroups = 0 */\n  0x01\n  sstore\n    /* \"contracts/Member_Groups.sol\":74:1330  contract Group_Members {\r... */\n  callvalue\n  dup1\n  iszero\n  tag_1\n  jumpi\n  0x00\n  dup1\n  revert\ntag_1:\n  pop\n  dataSize(sub_0)\n  dup1\n  dataOffset(sub_0)\n  0x00\n  codecopy\n  0x00\n  return\nstop\n\nsub_0: assembly {\n        /* \"contracts/Member_Groups.sol\":74:1330  contract Group_Members {\r... */\n      mstore(0x40, 0x80)\n      callvalue\n      dup1\n      iszero\n      tag_1\n      jumpi\n      0x00\n      dup1\n      revert\n    tag_1:\n      pop\n      jumpi(tag_2, lt(calldatasize, 0x04))\n      shr(0xe0, calldataload(0x00))\n      dup1\n      0x1f8a1418\n      eq\n      tag_3\n      jumpi\n      dup1\n      0x90f0a6df\n      eq\n      tag_4\n      jumpi\n      dup1\n      0xff10abd3\n      eq\n      tag_5\n      jumpi\n    tag_2:\n      0x00\n      dup1\n      revert\n        /* \"contracts/Member_Groups.sol\":1215:1323  function getNumberOfMemberGroups() public view returns (uint) {\r... */\n    tag_3:\n      tag_6\n      tag_7\n      jump\t// in\n    tag_6:\n      mload(0x40)\n      tag_8\n      swap2\n      swap1\n      tag_9\n      jump\t// in\n    tag_8:\n      mload(0x40)\n      dup1\n      swap2\n      sub\n      swap1\n      return\n        /* \"contracts/Member_Groups.sol\":799:1207  function showMemberGroup(uint _memberGroupId) public view returns(\r... */\n    tag_4:\n      tag_10\n      0x04\n      dup1\n      calldatasize\n      sub\n      dup2\n      add\n      swap1\n      tag_11\n      swap2\n      swap1\n      tag_12\n      jump\t// in\n    tag_11:\n      tag_13\n      jump\t// in\n    tag_10:\n      mload(0x40)\n      tag_14\n      swap5\n      swap4\n      swap3\n      swap2\n      swap1\n      tag_15\n      jump\t// in\n    tag_14:\n      mload(0x40)\n      dup1\n      swap2\n      sub\n      swap1\n      return\n        /* \"contracts/Member_Groups.sol\":353:791  function createMemberGroup(uint _groupId, uint _memberId, bool _memberIsValidated, uint _memberFoodOrder) public {\r... */\n    tag_5:\n      tag_16\n      0x04\n      dup1\n      calldatasize\n      sub\n      dup2\n      add\n      swap1\n      tag_17\n      swap2\n      swap1\n      tag_18\n      jump\t// in\n    tag_17:\n      tag_19\n      jump\t// in\n    tag_16:\n      stop\n        /* \"contracts/Member_Groups.sol\":1215:1323  function getNumberOfMemberGroups() public view returns (uint) {\r... */\n    tag_7:\n        /* \"contracts/Member_Groups.sol\":1271:1275  uint */\n      0x00\n        /* \"contracts/Member_Groups.sol\":1295:1315  numberOfMemberGroups */\n      sload(0x01)\n        /* \"contracts/Member_Groups.sol\":1288:1315  return numberOfMemberGroups */\n      swap1\n      pop\n        /* \"contracts/Member_Groups.sol\":1215:1323  function getNumberOfMemberGroups() public view returns (uint) {\r... */\n      swap1\n      jump\t// out\n        /* \"contracts/Member_Groups.sol\":799:1207  function showMemberGroup(uint _memberGroupId) public view returns(\r... */\n    tag_13:\n        /* \"contracts/Member_Groups.sol\":875:879  uint */\n      0x00\n        /* \"contracts/Member_Groups.sol\":890:894  uint */\n      dup1\n        /* \"contracts/Member_Groups.sol\":905:909  bool */\n      0x00\n        /* \"contracts/Member_Groups.sol\":920:924  uint */\n      dup1\n        /* \"contracts/Member_Groups.sol\":974:987  member_groups */\n      0x00\n        /* \"contracts/Member_Groups.sol\":974:1003  member_groups[_memberGroupId] */\n      dup1\n        /* \"contracts/Member_Groups.sol\":988:1002  _memberGroupId */\n      dup7\n        /* \"contracts/Member_Groups.sol\":974:1003  member_groups[_memberGroupId] */\n      dup2\n      mstore\n      0x20\n      add\n      swap1\n      dup2\n      mstore\n      0x20\n      add\n      0x00\n      keccak256\n        /* \"contracts/Member_Groups.sol\":974:1011  member_groups[_memberGroupId].groupId */\n      0x00\n      add\n      sload\n        /* \"contracts/Member_Groups.sol\":1026:1039  member_groups */\n      0x00\n        /* \"contracts/Member_Groups.sol\":1026:1055  member_groups[_memberGroupId] */\n      dup1\n        /* \"contracts/Member_Groups.sol\":1040:1054  _memberGroupId */\n      dup8\n        /* \"contracts/Member_Groups.sol\":1026:1055  member_groups[_memberGroupId] */\n      dup2\n      mstore\n      0x20\n      add\n      swap1\n      dup2\n      mstore\n      0x20\n      add\n      0x00\n      keccak256\n        /* \"contracts/Member_Groups.sol\":1026:1064  member_groups[_memberGroupId].memberId */\n      0x01\n      add\n      sload\n        /* \"contracts/Member_Groups.sol\":1079:1092  member_groups */\n      0x00\n        /* \"contracts/Member_Groups.sol\":1079:1108  member_groups[_memberGroupId] */\n      dup1\n        /* \"contracts/Member_Groups.sol\":1093:1107  _memberGroupId */\n      dup9\n        /* \"contracts/Member_Groups.sol\":1079:1108  member_groups[_memberGroupId] */\n      dup2\n      mstore\n      0x20\n      add\n      swap1\n      dup2\n      mstore\n      0x20\n      add\n      0x00\n      keccak256\n        /* \"contracts/Member_Groups.sol\":1079:1126  member_groups[_memberGroupId].memberIsValidated */\n      0x02\n      add\n      0x00\n      swap1\n      sload\n      swap1\n      0x0100\n      exp\n      swap1\n      div\n      0xff\n      and\n        /* \"contracts/Member_Groups.sol\":1141:1154  member_groups */\n      0x00\n        /* \"contracts/Member_Groups.sol\":1141:1170  member_groups[_memberGroupId] */\n      dup1\n        /* \"contracts/Member_Groups.sol\":1155:1169  _memberGroupId */\n      dup10\n        /* \"contracts/Member_Groups.sol\":1141:1170  member_groups[_memberGroupId] */\n      dup2\n      mstore\n      0x20\n      add\n      swap1\n      dup2\n      mstore\n      0x20\n      add\n      0x00\n      keccak256\n        /* \"contracts/Member_Groups.sol\":1141:1186  member_groups[_memberGroupId].memberFoodOrder */\n      0x03\n      add\n      sload\n        /* \"contracts/Member_Groups.sol\":952:1197  return (\r... */\n      swap4\n      pop\n      swap4\n      pop\n      swap4\n      pop\n      swap4\n      pop\n        /* \"contracts/Member_Groups.sol\":799:1207  function showMemberGroup(uint _memberGroupId) public view returns(\r... */\n      swap2\n      swap4\n      pop\n      swap2\n      swap4\n      jump\t// out\n        /* \"contracts/Member_Groups.sol\":353:791  function createMemberGroup(uint _groupId, uint _memberId, bool _memberIsValidated, uint _memberFoodOrder) public {\r... */\n    tag_19:\n        /* \"contracts/Member_Groups.sol\":517:652  Member_Group (\r... */\n      mload(0x40)\n      dup1\n      0x80\n      add\n      0x40\n      mstore\n      dup1\n        /* \"contracts/Member_Groups.sol\":545:553  _groupId */\n      dup6\n        /* \"contracts/Member_Groups.sol\":517:652  Member_Group (\r... */\n      dup2\n      mstore\n      0x20\n      add\n        /* \"contracts/Member_Groups.sol\":568:577  _memberId */\n      dup5\n        /* \"contracts/Member_Groups.sol\":517:652  Member_Group (\r... */\n      dup2\n      mstore\n      0x20\n      add\n        /* \"contracts/Member_Groups.sol\":592:610  _memberIsValidated */\n      dup4\n        /* \"contracts/Member_Groups.sol\":517:652  Member_Group (\r... */\n      iszero\n      iszero\n      dup2\n      mstore\n      0x20\n      add\n        /* \"contracts/Member_Groups.sol\":625:641  _memberFoodOrder */\n      dup3\n        /* \"contracts/Member_Groups.sol\":517:652  Member_Group (\r... */\n      dup2\n      mstore\n      pop\n        /* \"contracts/Member_Groups.sol\":479:492  member_groups */\n      0x00\n        /* \"contracts/Member_Groups.sol\":479:514  member_groups[numberOfMemberGroups] */\n      dup1\n        /* \"contracts/Member_Groups.sol\":493:513  numberOfMemberGroups */\n      sload(0x01)\n        /* \"contracts/Member_Groups.sol\":479:514  member_groups[numberOfMemberGroups] */\n      dup2\n      mstore\n      0x20\n      add\n      swap1\n      dup2\n      mstore\n      0x20\n      add\n      0x00\n      keccak256\n        /* \"contracts/Member_Groups.sol\":479:652  member_groups[numberOfMemberGroups] = Member_Group (\r... */\n      0x00\n      dup3\n      add\n      mload\n      dup2\n      0x00\n      add\n      sstore\n      0x20\n      dup3\n      add\n      mload\n      dup2\n      0x01\n      add\n      sstore\n      0x40\n      dup3\n      add\n      mload\n      dup2\n      0x02\n      add\n      exp(0x0100, 0x00)\n      dup2\n      sload\n      dup2\n      0xff\n      mul\n      not\n      and\n      swap1\n      dup4\n      iszero\n      iszero\n      mul\n      or\n      swap1\n      sstore\n      pop\n      0x60\n      dup3\n      add\n      mload\n      dup2\n      0x03\n      add\n      sstore\n      swap1\n      pop\n      pop\n        /* \"contracts/Member_Groups.sol\":663:683  numberOfMemberGroups */\n      0x01\n      0x00\n        /* \"contracts/Member_Groups.sol\":663:685  numberOfMemberGroups++ */\n      dup2\n      sload\n      dup1\n      swap3\n      swap2\n      swap1\n      tag_23\n      swap1\n      tag_24\n      jump\t// in\n    tag_23:\n      swap2\n      swap1\n      pop\n      sstore\n      pop\n        /* \"contracts/Member_Groups.sol\":353:791  function createMemberGroup(uint _groupId, uint _memberId, bool _memberIsValidated, uint _memberFoodOrder) public {\r... */\n      pop\n      pop\n      pop\n      pop\n      jump\t// out\n        /* \"#utility.yul\":7:140   */\n    tag_26:\n        /* \"#utility.yul\":50:55   */\n      0x00\n        /* \"#utility.yul\":88:94   */\n      dup2\n        /* \"#utility.yul\":75:95   */\n      calldataload\n        /* \"#utility.yul\":66:95   */\n      swap1\n      pop\n        /* \"#utility.yul\":104:134   */\n      tag_28\n        /* \"#utility.yul\":128:133   */\n      dup2\n        /* \"#utility.yul\":104:134   */\n      tag_29\n      jump\t// in\n    tag_28:\n        /* \"#utility.yul\":7:140   */\n      swap3\n      swap2\n      pop\n      pop\n      jump\t// out\n        /* \"#utility.yul\":146:285   */\n    tag_30:\n        /* \"#utility.yul\":192:197   */\n      0x00\n        /* \"#utility.yul\":230:236   */\n      dup2\n        /* \"#utility.yul\":217:237   */\n      calldataload\n        /* \"#utility.yul\":208:237   */\n      swap1\n      pop\n        /* \"#utility.yul\":246:279   */\n      tag_32\n        /* \"#utility.yul\":273:278   */\n      dup2\n        /* \"#utility.yul\":246:279   */\n      tag_33\n      jump\t// in\n    tag_32:\n        /* \"#utility.yul\":146:285   */\n      swap3\n      swap2\n      pop\n      pop\n      jump\t// out\n        /* \"#utility.yul\":291:620   */\n    tag_12:\n        /* \"#utility.yul\":350:356   */\n      0x00\n        /* \"#utility.yul\":399:401   */\n      0x20\n        /* \"#utility.yul\":387:396   */\n      dup3\n        /* \"#utility.yul\":378:385   */\n      dup5\n        /* \"#utility.yul\":374:397   */\n      sub\n        /* \"#utility.yul\":370:402   */\n      slt\n        /* \"#utility.yul\":367:486   */\n      iszero\n      tag_35\n      jumpi\n        /* \"#utility.yul\":405:484   */\n      tag_36\n      tag_37\n      jump\t// in\n    tag_36:\n        /* \"#utility.yul\":367:486   */\n    tag_35:\n        /* \"#utility.yul\":525:526   */\n      0x00\n        /* \"#utility.yul\":550:603   */\n      tag_38\n        /* \"#utility.yul\":595:602   */\n      dup5\n        /* \"#utility.yul\":586:592   */\n      dup3\n        /* \"#utility.yul\":575:584   */\n      dup6\n        /* \"#utility.yul\":571:593   */\n      add\n        /* \"#utility.yul\":550:603   */\n      tag_30\n      jump\t// in\n    tag_38:\n        /* \"#utility.yul\":540:603   */\n      swap2\n      pop\n        /* \"#utility.yul\":496:613   */\n      pop\n        /* \"#utility.yul\":291:620   */\n      swap3\n      swap2\n      pop\n      pop\n      jump\t// out\n        /* \"#utility.yul\":626:1385   */\n    tag_18:\n        /* \"#utility.yul\":709:715   */\n      0x00\n        /* \"#utility.yul\":717:723   */\n      dup1\n        /* \"#utility.yul\":725:731   */\n      0x00\n        /* \"#utility.yul\":733:739   */\n      dup1\n        /* \"#utility.yul\":782:785   */\n      0x80\n        /* \"#utility.yul\":770:779   */\n      dup6\n        /* \"#utility.yul\":761:768   */\n      dup8\n        /* \"#utility.yul\":757:780   */\n      sub\n        /* \"#utility.yul\":753:786   */\n      slt\n        /* \"#utility.yul\":750:870   */\n      iszero\n      tag_40\n      jumpi\n        /* \"#utility.yul\":789:868   */\n      tag_41\n      tag_37\n      jump\t// in\n    tag_41:\n        /* \"#utility.yul\":750:870   */\n    tag_40:\n        /* \"#utility.yul\":909:910   */\n      0x00\n        /* \"#utility.yul\":934:987   */\n      tag_42\n        /* \"#utility.yul\":979:986   */\n      dup8\n        /* \"#utility.yul\":970:976   */\n      dup3\n        /* \"#utility.yul\":959:968   */\n      dup9\n        /* \"#utility.yul\":955:977   */\n      add\n        /* \"#utility.yul\":934:987   */\n      tag_30\n      jump\t// in\n    tag_42:\n        /* \"#utility.yul\":924:987   */\n      swap5\n      pop\n        /* \"#utility.yul\":880:997   */\n      pop\n        /* \"#utility.yul\":1036:1038   */\n      0x20\n        /* \"#utility.yul\":1062:1115   */\n      tag_43\n        /* \"#utility.yul\":1107:1114   */\n      dup8\n        /* \"#utility.yul\":1098:1104   */\n      dup3\n        /* \"#utility.yul\":1087:1096   */\n      dup9\n        /* \"#utility.yul\":1083:1105   */\n      add\n        /* \"#utility.yul\":1062:1115   */\n      tag_30\n      jump\t// in\n    tag_43:\n        /* \"#utility.yul\":1052:1115   */\n      swap4\n      pop\n        /* \"#utility.yul\":1007:1125   */\n      pop\n        /* \"#utility.yul\":1164:1166   */\n      0x40\n        /* \"#utility.yul\":1190:1240   */\n      tag_44\n        /* \"#utility.yul\":1232:1239   */\n      dup8\n        /* \"#utility.yul\":1223:1229   */\n      dup3\n        /* \"#utility.yul\":1212:1221   */\n      dup9\n        /* \"#utility.yul\":1208:1230   */\n      add\n        /* \"#utility.yul\":1190:1240   */\n      tag_26\n      jump\t// in\n    tag_44:\n        /* \"#utility.yul\":1180:1240   */\n      swap3\n      pop\n        /* \"#utility.yul\":1135:1250   */\n      pop\n        /* \"#utility.yul\":1289:1291   */\n      0x60\n        /* \"#utility.yul\":1315:1368   */\n      tag_45\n        /* \"#utility.yul\":1360:1367   */\n      dup8\n        /* \"#utility.yul\":1351:1357   */\n      dup3\n        /* \"#utility.yul\":1340:1349   */\n      dup9\n        /* \"#utility.yul\":1336:1358   */\n      add\n        /* \"#utility.yul\":1315:1368   */\n      tag_30\n      jump\t// in\n    tag_45:\n        /* \"#utility.yul\":1305:1368   */\n      swap2\n      pop\n        /* \"#utility.yul\":1260:1378   */\n      pop\n        /* \"#utility.yul\":626:1385   */\n      swap3\n      swap6\n      swap2\n      swap5\n      pop\n      swap3\n      pop\n      jump\t// out\n        /* \"#utility.yul\":1391:1500   */\n    tag_46:\n        /* \"#utility.yul\":1472:1493   */\n      tag_48\n        /* \"#utility.yul\":1487:1492   */\n      dup2\n        /* \"#utility.yul\":1472:1493   */\n      tag_49\n      jump\t// in\n    tag_48:\n        /* \"#utility.yul\":1467:1470   */\n      dup3\n        /* \"#utility.yul\":1460:1494   */\n      mstore\n        /* \"#utility.yul\":1391:1500   */\n      pop\n      pop\n      jump\t// out\n        /* \"#utility.yul\":1506:1624   */\n    tag_50:\n        /* \"#utility.yul\":1593:1617   */\n      tag_52\n        /* \"#utility.yul\":1611:1616   */\n      dup2\n        /* \"#utility.yul\":1593:1617   */\n      tag_53\n      jump\t// in\n    tag_52:\n        /* \"#utility.yul\":1588:1591   */\n      dup3\n        /* \"#utility.yul\":1581:1618   */\n      mstore\n        /* \"#utility.yul\":1506:1624   */\n      pop\n      pop\n      jump\t// out\n        /* \"#utility.yul\":1630:1852   */\n    tag_9:\n        /* \"#utility.yul\":1723:1727   */\n      0x00\n        /* \"#utility.yul\":1761:1763   */\n      0x20\n        /* \"#utility.yul\":1750:1759   */\n      dup3\n        /* \"#utility.yul\":1746:1764   */\n      add\n        /* \"#utility.yul\":1738:1764   */\n      swap1\n      pop\n        /* \"#utility.yul\":1774:1845   */\n      tag_55\n        /* \"#utility.yul\":1842:1843   */\n      0x00\n        /* \"#utility.yul\":1831:1840   */\n      dup4\n        /* \"#utility.yul\":1827:1844   */\n      add\n        /* \"#utility.yul\":1818:1824   */\n      dup5\n        /* \"#utility.yul\":1774:1845   */\n      tag_50\n      jump\t// in\n    tag_55:\n        /* \"#utility.yul\":1630:1852   */\n      swap3\n      swap2\n      pop\n      pop\n      jump\t// out\n        /* \"#utility.yul\":1858:2399   */\n    tag_15:\n        /* \"#utility.yul\":2029:2033   */\n      0x00\n        /* \"#utility.yul\":2067:2070   */\n      0x80\n        /* \"#utility.yul\":2056:2065   */\n      dup3\n        /* \"#utility.yul\":2052:2071   */\n      add\n        /* \"#utility.yul\":2044:2071   */\n      swap1\n      pop\n        /* \"#utility.yul\":2081:2152   */\n      tag_57\n        /* \"#utility.yul\":2149:2150   */\n      0x00\n        /* \"#utility.yul\":2138:2147   */\n      dup4\n        /* \"#utility.yul\":2134:2151   */\n      add\n        /* \"#utility.yul\":2125:2131   */\n      dup8\n        /* \"#utility.yul\":2081:2152   */\n      tag_50\n      jump\t// in\n    tag_57:\n        /* \"#utility.yul\":2162:2234   */\n      tag_58\n        /* \"#utility.yul\":2230:2232   */\n      0x20\n        /* \"#utility.yul\":2219:2228   */\n      dup4\n        /* \"#utility.yul\":2215:2233   */\n      add\n        /* \"#utility.yul\":2206:2212   */\n      dup7\n        /* \"#utility.yul\":2162:2234   */\n      tag_50\n      jump\t// in\n    tag_58:\n        /* \"#utility.yul\":2244:2310   */\n      tag_59\n        /* \"#utility.yul\":2306:2308   */\n      0x40\n        /* \"#utility.yul\":2295:2304   */\n      dup4\n        /* \"#utility.yul\":2291:2309   */\n      add\n        /* \"#utility.yul\":2282:2288   */\n      dup6\n        /* \"#utility.yul\":2244:2310   */\n      tag_46\n      jump\t// in\n    tag_59:\n        /* \"#utility.yul\":2320:2392   */\n      tag_60\n        /* \"#utility.yul\":2388:2390   */\n      0x60\n        /* \"#utility.yul\":2377:2386   */\n      dup4\n        /* \"#utility.yul\":2373:2391   */\n      add\n        /* \"#utility.yul\":2364:2370   */\n      dup5\n        /* \"#utility.yul\":2320:2392   */\n      tag_50\n      jump\t// in\n    tag_60:\n        /* \"#utility.yul\":1858:2399   */\n      swap6\n      swap5\n      pop\n      pop\n      pop\n      pop\n      pop\n      jump\t// out\n        /* \"#utility.yul\":2486:2576   */\n    tag_49:\n        /* \"#utility.yul\":2520:2527   */\n      0x00\n        /* \"#utility.yul\":2563:2568   */\n      dup2\n        /* \"#utility.yul\":2556:2569   */\n      iszero\n        /* \"#utility.yul\":2549:2570   */\n      iszero\n        /* \"#utility.yul\":2538:2570   */\n      swap1\n      pop\n        /* \"#utility.yul\":2486:2576   */\n      swap2\n      swap1\n      pop\n      jump\t// out\n        /* \"#utility.yul\":2582:2659   */\n    tag_53:\n        /* \"#utility.yul\":2619:2626   */\n      0x00\n        /* \"#utility.yul\":2648:2653   */\n      dup2\n        /* \"#utility.yul\":2637:2653   */\n      swap1\n      pop\n        /* \"#utility.yul\":2582:2659   */\n      swap2\n      swap1\n      pop\n      jump\t// out\n        /* \"#utility.yul\":2665:2898   */\n    tag_24:\n        /* \"#utility.yul\":2704:2707   */\n      0x00\n        /* \"#utility.yul\":2727:2751   */\n      tag_66\n        /* \"#utility.yul\":2745:2750   */\n      dup3\n        /* \"#utility.yul\":2727:2751   */\n      tag_53\n      jump\t// in\n    tag_66:\n        /* \"#utility.yul\":2718:2751   */\n      swap2\n      pop\n        /* \"#utility.yul\":2773:2839   */\n      0xffffffffffffffffffffffffffffffffffffffffffffffffffffffffffffffff\n        /* \"#utility.yul\":2766:2771   */\n      dup3\n        /* \"#utility.yul\":2763:2840   */\n      eq\n        /* \"#utility.yul\":2760:2863   */\n      iszero\n      tag_67\n      jumpi\n        /* \"#utility.yul\":2843:2861   */\n      tag_68\n      tag_69\n      jump\t// in\n    tag_68:\n        /* \"#utility.yul\":2760:2863   */\n    tag_67:\n        /* \"#utility.yul\":2890:2891   */\n      0x01\n        /* \"#utility.yul\":2883:2888   */\n      dup3\n        /* \"#utility.yul\":2879:2892   */\n      add\n        /* \"#utility.yul\":2872:2892   */\n      swap1\n      pop\n        /* \"#utility.yul\":2665:2898   */\n      swap2\n      swap1\n      pop\n      jump\t// out\n        /* \"#utility.yul\":2904:3084   */\n    tag_69:\n        /* \"#utility.yul\":2952:3029   */\n      0x4e487b7100000000000000000000000000000000000000000000000000000000\n        /* \"#utility.yul\":2949:2950   */\n      0x00\n        /* \"#utility.yul\":2942:3030   */\n      mstore\n        /* \"#utility.yul\":3049:3053   */\n      0x11\n        /* \"#utility.yul\":3046:3047   */\n      0x04\n        /* \"#utility.yul\":3039:3054   */\n      mstore\n        /* \"#utility.yul\":3073:3077   */\n      0x24\n        /* \"#utility.yul\":3070:3071   */\n      0x00\n        /* \"#utility.yul\":3063:3078   */\n      revert\n        /* \"#utility.yul\":3213:3330   */\n    tag_37:\n        /* \"#utility.yul\":3322:3323   */\n      0x00\n        /* \"#utility.yul\":3319:3320   */\n      dup1\n        /* \"#utility.yul\":3312:3324   */\n      revert\n        /* \"#utility.yul\":3336:3452   */\n    tag_29:\n        /* \"#utility.yul\":3406:3427   */\n      tag_75\n        /* \"#utility.yul\":3421:3426   */\n      dup2\n        /* \"#utility.yul\":3406:3427   */\n      tag_49\n      jump\t// in\n    tag_75:\n        /* \"#utility.yul\":3399:3404   */\n      dup2\n        /* \"#utility.yul\":3396:3428   */\n      eq\n        /* \"#utility.yul\":3386:3446   */\n      tag_76\n      jumpi\n        /* \"#utility.yul\":3442:3443   */\n      0x00\n        /* \"#utility.yul\":3439:3440   */\n      dup1\n        /* \"#utility.yul\":3432:3444   */\n      revert\n        /* \"#utility.yul\":3386:3446   */\n    tag_76:\n        /* \"#utility.yul\":3336:3452   */\n      pop\n      jump\t// out\n        /* \"#utility.yul\":3458:3580   */\n    tag_33:\n        /* \"#utility.yul\":3531:3555   */\n      tag_78\n        /* \"#utility.yul\":3549:3554   */\n      dup2\n        /* \"#utility.yul\":3531:3555   */\n      tag_53\n      jump\t// in\n    tag_78:\n        /* \"#utility.yul\":3524:3529   */\n      dup2\n        /* \"#utility.yul\":3521:3556   */\n      eq\n        /* \"#utility.yul\":3511:3574   */\n      tag_79\n      jumpi\n        /* \"#utility.yul\":3570:3571   */\n      0x00\n        /* \"#utility.yul\":3567:3568   */\n      dup1\n        /* \"#utility.yul\":3560:3572   */\n      revert\n        /* \"#utility.yul\":3511:3574   */\n    tag_79:\n        /* \"#utility.yul\":3458:3580   */\n      pop\n      jump\t// out\n\n    auxdata: 0xa264697066735822122096304b84b26e4f584e7ba810d0a618ffbaf78b6e46e6fbb00eaed5911f14dad564736f6c63430008070033\n}\n",
				"bytecode": {
					"linkReferences": {},
					"object": "6080604052600060015534801561001557600080fd5b50610400806100256000396000f3fe608060405234801561001057600080fd5b50600436106100415760003560e01c80631f8a14181461004657806390f0a6df14610064578063ff10abd314610097575b600080fd5b61004e6100b3565b60405161005b91906102a9565b60405180910390f35b61007e600480360381019061007991906101f7565b6100bd565b60405161008e94939291906102c4565b60405180910390f35b6100b160048036038101906100ac9190610224565b610137565b005b6000600154905090565b600080600080600080868152602001908152602001600020600001546000808781526020019081526020016000206001015460008088815260200190815260200160002060020160009054906101000a900460ff166000808981526020019081526020016000206003015493509350935093509193509193565b60405180608001604052808581526020018481526020018315158152602001828152506000806001548152602001908152602001600020600082015181600001556020820151816001015560408201518160020160006101000a81548160ff02191690831515021790555060608201518160030155905050600160008154809291906101c29061031f565b919050555050505050565b6000813590506101dc8161039c565b92915050565b6000813590506101f1816103b3565b92915050565b60006020828403121561020d5761020c610397565b5b600061021b848285016101e2565b91505092915050565b6000806000806080858703121561023e5761023d610397565b5b600061024c878288016101e2565b945050602061025d878288016101e2565b935050604061026e878288016101cd565b925050606061027f878288016101e2565b91505092959194509250565b61029481610309565b82525050565b6102a381610315565b82525050565b60006020820190506102be600083018461029a565b92915050565b60006080820190506102d9600083018761029a565b6102e6602083018661029a565b6102f3604083018561028b565b610300606083018461029a565b95945050505050565b60008115159050919050565b6000819050919050565b600061032a82610315565b91507fffffffffffffffffffffffffffffffffffffffffffffffffffffffffffffffff82141561035d5761035c610368565b5b600182019050919050565b7f4e487b7100000000000000000000000000000000000000000000000000000000600052601160045260246000fd5b600080fd5b6103a581610309565b81146103b057600080fd5b50565b6103bc81610315565b81146103c757600080fd5b5056fea264697066735822122096304b84b26e4f584e7ba810d0a618ffbaf78b6e46e6fbb00eaed5911f14dad564736f6c63430008070033",
					"opcodes": "PUSH1 0x80 PUSH1 0x40 MSTORE PUSH1 0x0 PUSH1 0x1 SSTORE CALLVALUE DUP1 ISZERO PUSH2 0x15 JUMPI PUSH1 0x0 DUP1 REVERT JUMPDEST POP PUSH2 0x400 DUP1 PUSH2 0x25 PUSH1 0x0 CODECOPY PUSH1 0x0 RETURN INVALID PUSH1 0x80 PUSH1 0x40 MSTORE CALLVALUE DUP1 ISZERO PUSH2 0x10 JUMPI PUSH1 0x0 DUP1 REVERT JUMPDEST POP PUSH1 0x4 CALLDATASIZE LT PUSH2 0x41 JUMPI PUSH1 0x0 CALLDATALOAD PUSH1 0xE0 SHR DUP1 PUSH4 0x1F8A1418 EQ PUSH2 0x46 JUMPI DUP1 PUSH4 0x90F0A6DF EQ PUSH2 0x64 JUMPI DUP1 PUSH4 0xFF10ABD3 EQ PUSH2 0x97 JUMPI JUMPDEST PUSH1 0x0 DUP1 REVERT JUMPDEST PUSH2 0x4E PUSH2 0xB3 JUMP JUMPDEST PUSH1 0x40 MLOAD PUSH2 0x5B SWAP2 SWAP1 PUSH2 0x2A9 JUMP JUMPDEST PUSH1 0x40 MLOAD DUP1 SWAP2 SUB SWAP1 RETURN JUMPDEST PUSH2 0x7E PUSH1 0x4 DUP1 CALLDATASIZE SUB DUP2 ADD SWAP1 PUSH2 0x79 SWAP2 SWAP1 PUSH2 0x1F7 JUMP JUMPDEST PUSH2 0xBD JUMP JUMPDEST PUSH1 0x40 MLOAD PUSH2 0x8E SWAP5 SWAP4 SWAP3 SWAP2 SWAP1 PUSH2 0x2C4 JUMP JUMPDEST PUSH1 0x40 MLOAD DUP1 SWAP2 SUB SWAP1 RETURN JUMPDEST PUSH2 0xB1 PUSH1 0x4 DUP1 CALLDATASIZE SUB DUP2 ADD SWAP1 PUSH2 0xAC SWAP2 SWAP1 PUSH2 0x224 JUMP JUMPDEST PUSH2 0x137 JUMP JUMPDEST STOP JUMPDEST PUSH1 0x0 PUSH1 0x1 SLOAD SWAP1 POP SWAP1 JUMP JUMPDEST PUSH1 0x0 DUP1 PUSH1 0x0 DUP1 PUSH1 0x0 DUP1 DUP7 DUP2 MSTORE PUSH1 0x20 ADD SWAP1 DUP2 MSTORE PUSH1 0x20 ADD PUSH1 0x0 KECCAK256 PUSH1 0x0 ADD SLOAD PUSH1 0x0 DUP1 DUP8 DUP2 MSTORE PUSH1 0x20 ADD SWAP1 DUP2 MSTORE PUSH1 0x20 ADD PUSH1 0x0 KECCAK256 PUSH1 0x1 ADD SLOAD PUSH1 0x0 DUP1 DUP9 DUP2 MSTORE PUSH1 0x20 ADD SWAP1 DUP2 MSTORE PUSH1 0x20 ADD PUSH1 0x0 KECCAK256 PUSH1 0x2 ADD PUSH1 0x0 SWAP1 SLOAD SWAP1 PUSH2 0x100 EXP SWAP1 DIV PUSH1 0xFF AND PUSH1 0x0 DUP1 DUP10 DUP2 MSTORE PUSH1 0x20 ADD SWAP1 DUP2 MSTORE PUSH1 0x20 ADD PUSH1 0x0 KECCAK256 PUSH1 0x3 ADD SLOAD SWAP4 POP SWAP4 POP SWAP4 POP SWAP4 POP SWAP2 SWAP4 POP SWAP2 SWAP4 JUMP JUMPDEST PUSH1 0x40 MLOAD DUP1 PUSH1 0x80 ADD PUSH1 0x40 MSTORE DUP1 DUP6 DUP2 MSTORE PUSH1 0x20 ADD DUP5 DUP2 MSTORE PUSH1 0x20 ADD DUP4 ISZERO ISZERO DUP2 MSTORE PUSH1 0x20 ADD DUP3 DUP2 MSTORE POP PUSH1 0x0 DUP1 PUSH1 0x1 SLOAD DUP2 MSTORE PUSH1 0x20 ADD SWAP1 DUP2 MSTORE PUSH1 0x20 ADD PUSH1 0x0 KECCAK256 PUSH1 0x0 DUP3 ADD MLOAD DUP2 PUSH1 0x0 ADD SSTORE PUSH1 0x20 DUP3 ADD MLOAD DUP2 PUSH1 0x1 ADD SSTORE PUSH1 0x40 DUP3 ADD MLOAD DUP2 PUSH1 0x2 ADD PUSH1 0x0 PUSH2 0x100 EXP DUP2 SLOAD DUP2 PUSH1 0xFF MUL NOT AND SWAP1 DUP4 ISZERO ISZERO MUL OR SWAP1 SSTORE POP PUSH1 0x60 DUP3 ADD MLOAD DUP2 PUSH1 0x3 ADD SSTORE SWAP1 POP POP PUSH1 0x1 PUSH1 0x0 DUP2 SLOAD DUP1 SWAP3 SWAP2 SWAP1 PUSH2 0x1C2 SWAP1 PUSH2 0x31F JUMP JUMPDEST SWAP2 SWAP1 POP SSTORE POP POP POP POP POP JUMP JUMPDEST PUSH1 0x0 DUP2 CALLDATALOAD SWAP1 POP PUSH2 0x1DC DUP2 PUSH2 0x39C JUMP JUMPDEST SWAP3 SWAP2 POP POP JUMP JUMPDEST PUSH1 0x0 DUP2 CALLDATALOAD SWAP1 POP PUSH2 0x1F1 DUP2 PUSH2 0x3B3 JUMP JUMPDEST SWAP3 SWAP2 POP POP JUMP JUMPDEST PUSH1 0x0 PUSH1 0x20 DUP3 DUP5 SUB SLT ISZERO PUSH2 0x20D JUMPI PUSH2 0x20C PUSH2 0x397 JUMP JUMPDEST JUMPDEST PUSH1 0x0 PUSH2 0x21B DUP5 DUP3 DUP6 ADD PUSH2 0x1E2 JUMP JUMPDEST SWAP2 POP POP SWAP3 SWAP2 POP POP JUMP JUMPDEST PUSH1 0x0 DUP1 PUSH1 0x0 DUP1 PUSH1 0x80 DUP6 DUP8 SUB SLT ISZERO PUSH2 0x23E JUMPI PUSH2 0x23D PUSH2 0x397 JUMP JUMPDEST JUMPDEST PUSH1 0x0 PUSH2 0x24C DUP8 DUP3 DUP9 ADD PUSH2 0x1E2 JUMP JUMPDEST SWAP5 POP POP PUSH1 0x20 PUSH2 0x25D DUP8 DUP3 DUP9 ADD PUSH2 0x1E2 JUMP JUMPDEST SWAP4 POP POP PUSH1 0x40 PUSH2 0x26E DUP8 DUP3 DUP9 ADD PUSH2 0x1CD JUMP JUMPDEST SWAP3 POP POP PUSH1 0x60 PUSH2 0x27F DUP8 DUP3 DUP9 ADD PUSH2 0x1E2 JUMP JUMPDEST SWAP2 POP POP SWAP3 SWAP6 SWAP2 SWAP5 POP SWAP3 POP JUMP JUMPDEST PUSH2 0x294 DUP2 PUSH2 0x309 JUMP JUMPDEST DUP3 MSTORE POP POP JUMP JUMPDEST PUSH2 0x2A3 DUP2 PUSH2 0x315 JUMP JUMPDEST DUP3 MSTORE POP POP JUMP JUMPDEST PUSH1 0x0 PUSH1 0x20 DUP3 ADD SWAP1 POP PUSH2 0x2BE PUSH1 0x0 DUP4 ADD DUP5 PUSH2 0x29A JUMP JUMPDEST SWAP3 SWAP2 POP POP JUMP JUMPDEST PUSH1 0x0 PUSH1 0x80 DUP3 ADD SWAP1 POP PUSH2 0x2D9 PUSH1 0x0 DUP4 ADD DUP8 PUSH2 0x29A JUMP JUMPDEST PUSH2 0x2E6 PUSH1 0x20 DUP4 ADD DUP7 PUSH2 0x29A JUMP JUMPDEST PUSH2 0x2F3 PUSH1 0x40 DUP4 ADD DUP6 PUSH2 0x28B JUMP JUMPDEST PUSH2 0x300 PUSH1 0x60 DUP4 ADD DUP5 PUSH2 0x29A JUMP JUMPDEST SWAP6 SWAP5 POP POP POP POP POP JUMP JUMPDEST PUSH1 0x0 DUP2 ISZERO ISZERO SWAP1 POP SWAP2 SWAP1 POP JUMP JUMPDEST PUSH1 0x0 DUP2 SWAP1 POP SWAP2 SWAP1 POP JUMP JUMPDEST PUSH1 0x0 PUSH2 0x32A DUP3 PUSH2 0x315 JUMP JUMPDEST SWAP2 POP PUSH32 0xFFFFFFFFFFFFFFFFFFFFFFFFFFFFFFFFFFFFFFFFFFFFFFFFFFFFFFFFFFFFFFFF DUP3 EQ ISZERO PUSH2 0x35D JUMPI PUSH2 0x35C PUSH2 0x368 JUMP JUMPDEST JUMPDEST PUSH1 0x1 DUP3 ADD SWAP1 POP SWAP2 SWAP1 POP JUMP JUMPDEST PUSH32 0x4E487B7100000000000000000000000000000000000000000000000000000000 PUSH1 0x0 MSTORE PUSH1 0x11 PUSH1 0x4 MSTORE PUSH1 0x24 PUSH1 0x0 REVERT JUMPDEST PUSH1 0x0 DUP1 REVERT JUMPDEST PUSH2 0x3A5 DUP2 PUSH2 0x309 JUMP JUMPDEST DUP2 EQ PUSH2 0x3B0 JUMPI PUSH1 0x0 DUP1 REVERT JUMPDEST POP JUMP JUMPDEST PUSH2 0x3BC DUP2 PUSH2 0x315 JUMP JUMPDEST DUP2 EQ PUSH2 0x3C7 JUMPI PUSH1 0x0 DUP1 REVERT JUMPDEST POP JUMP INVALID LOG2 PUSH5 0x6970667358 0x22 SLT KECCAK256 SWAP7 ADDRESS 0x4B DUP5 0xB2 PUSH15 0x4F584E7BA810D0A618FFBAF78B6E46 0xE6 0xFB 0xB0 0xE 0xAE 0xD5 SWAP2 0x1F EQ 0xDA 0xD5 PUSH5 0x736F6C6343 STOP ADDMOD SMOD STOP CALLER "
				},
				"gasEstimates": {
					"creation": {
						"codeDepositCost": "204800",
						"executionCost": "5251",
						"totalCost": "210051"
					},
					"external": {
						"createMemberGroup(uint256,uint256,bool,uint256)": "infinite",
						"getNumberOfMemberGroups()": "2415",
						"showMemberGroup(uint256)": "infinite"
					}
				},
				"methodIdentifiers": {
					"createMemberGroup(uint256,uint256,bool,uint256)": "ff10abd3",
					"getNumberOfMemberGroups()": "1f8a1418",
					"showMemberGroup(uint256)": "90f0a6df"
				}
			},
			"storageLayout": {
				"storage": [
					{
						"astId": 15,
						"contract": "contracts/Member_Groups.sol:Group_Members",
						"label": "member_groups",
						"offset": 0,
						"slot": "0",
						"type": "t_mapping(t_uint256,t_struct(Member_Group)10_storage)"
					},
					{
						"astId": 18,
						"contract": "contracts/Member_Groups.sol:Group_Members",
						"label": "numberOfMemberGroups",
						"offset": 0,
						"slot": "1",
						"type": "t_uint256"
					}
				],
				"types": {
					"t_bool": {
						"encoding": "inplace",
						"label": "bool",
						"numberOfBytes": "1"
					},
					"t_mapping(t_uint256,t_struct(Member_Group)10_storage)": {
						"encoding": "mapping",
						"key": "t_uint256",
						"label": "mapping(uint256 => struct Group_Members.Member_Group)",
						"numberOfBytes": "32",
						"value": "t_struct(Member_Group)10_storage"
					},
					"t_struct(Member_Group)10_storage": {
						"encoding": "inplace",
						"label": "struct Group_Members.Member_Group",
						"members": [
							{
								"astId": 3,
								"contract": "contracts/Member_Groups.sol:Group_Members",
								"label": "groupId",
								"offset": 0,
								"slot": "0",
								"type": "t_uint256"
							},
							{
								"astId": 5,
								"contract": "contracts/Member_Groups.sol:Group_Members",
								"label": "memberId",
								"offset": 0,
								"slot": "1",
								"type": "t_uint256"
							},
							{
								"astId": 7,
								"contract": "contracts/Member_Groups.sol:Group_Members",
								"label": "memberIsValidated",
								"offset": 0,
								"slot": "2",
								"type": "t_bool"
							},
							{
								"astId": 9,
								"contract": "contracts/Member_Groups.sol:Group_Members",
								"label": "memberFoodOrder",
								"offset": 0,
								"slot": "3",
								"type": "t_uint256"
							}
						],
						"numberOfBytes": "128"
					},
					"t_uint256": {
						"encoding": "inplace",
						"label": "uint256",
						"numberOfBytes": "32"
					}
				}
			},
			"userdoc": {
				"kind": "user",
				"methods": {},
				"version": 1
			}
		}
	}
}