{
	"contracts/Members.sol": {
		"Members": {
			"abi": [
				{
					"inputs": [
						{
							"internalType": "string",
							"name": "name",
							"type": "string"
						},
						{
							"internalType": "address",
							"name": "memberWalletAddress",
							"type": "address"
						}
					],
					"name": "createMember",
					"outputs": [],
					"stateMutability": "nonpayable",
					"type": "function"
				}
			],
			"devdoc": {
				"kind": "dev",
				"methods": {},
				"version": 1
			},
			"evm": {
				"assembly": "    /* \"contracts/Members.sol\":74:400  contract Members {\r... */\n  mstore(0x40, 0x80)\n    /* \"contracts/Members.sol\":287:288  0 */\n  0x00\n    /* \"contracts/Members.sol\":269:288  uint AllMembers = 0 */\n  0x01\n  sstore\n    /* \"contracts/Members.sol\":74:400  contract Members {\r... */\n  callvalue\n  dup1\n  iszero\n  tag_1\n  jumpi\n  0x00\n  dup1\n  revert\ntag_1:\n  pop\n  dataSize(sub_0)\n  dup1\n  dataOffset(sub_0)\n  0x00\n  codecopy\n  0x00\n  return\nstop\n\nsub_0: assembly {\n        /* \"contracts/Members.sol\":74:400  contract Members {\r... */\n      mstore(0x40, 0x80)\n      callvalue\n      dup1\n      iszero\n      tag_1\n      jumpi\n      0x00\n      dup1\n      revert\n    tag_1:\n      pop\n      jumpi(tag_2, lt(calldatasize, 0x04))\n      shr(0xe0, calldataload(0x00))\n      dup1\n      0x6b42cf4d\n      eq\n      tag_3\n      jumpi\n    tag_2:\n      0x00\n      dup1\n      revert\n        /* \"contracts/Members.sol\":297:393  function createMember(string memory name, address memberWalletAddress) public {\r... */\n    tag_3:\n      tag_4\n      0x04\n      dup1\n      calldatasize\n      sub\n      dup2\n      add\n      swap1\n      tag_5\n      swap2\n      swap1\n      tag_6\n      jump\t// in\n    tag_5:\n      tag_7\n      jump\t// in\n    tag_4:\n      stop\n    tag_7:\n      pop\n      pop\n      jump\t// out\n        /* \"#utility.yul\":7:419   */\n    tag_10:\n        /* \"#utility.yul\":85:90   */\n      0x00\n        /* \"#utility.yul\":110:176   */\n      tag_12\n        /* \"#utility.yul\":126:175   */\n      tag_13\n        /* \"#utility.yul\":168:174   */\n      dup5\n        /* \"#utility.yul\":126:175   */\n      tag_14\n      jump\t// in\n    tag_13:\n        /* \"#utility.yul\":110:176   */\n      tag_15\n      jump\t// in\n    tag_12:\n        /* \"#utility.yul\":101:176   */\n      swap1\n      pop\n        /* \"#utility.yul\":199:205   */\n      dup3\n        /* \"#utility.yul\":192:197   */\n      dup2\n        /* \"#utility.yul\":185:206   */\n      mstore\n        /* \"#utility.yul\":237:241   */\n      0x20\n        /* \"#utility.yul\":230:235   */\n      dup2\n        /* \"#utility.yul\":226:242   */\n      add\n        /* \"#utility.yul\":275:278   */\n      dup5\n        /* \"#utility.yul\":266:272   */\n      dup5\n        /* \"#utility.yul\":261:264   */\n      dup5\n        /* \"#utility.yul\":257:273   */\n      add\n        /* \"#utility.yul\":254:279   */\n      gt\n        /* \"#utility.yul\":251:363   */\n      iszero\n      tag_16\n      jumpi\n        /* \"#utility.yul\":282:361   */\n      tag_17\n      tag_18\n      jump\t// in\n    tag_17:\n        /* \"#utility.yul\":251:363   */\n    tag_16:\n        /* \"#utility.yul\":372:413   */\n      tag_19\n        /* \"#utility.yul\":406:412   */\n      dup5\n        /* \"#utility.yul\":401:404   */\n      dup3\n        /* \"#utility.yul\":396:399   */\n      dup6\n        /* \"#utility.yul\":372:413   */\n      tag_20\n      jump\t// in\n    tag_19:\n        /* \"#utility.yul\":91:419   */\n      pop\n        /* \"#utility.yul\":7:419   */\n      swap4\n      swap3\n      pop\n      pop\n      pop\n      jump\t// out\n        /* \"#utility.yul\":425:564   */\n    tag_21:\n        /* \"#utility.yul\":471:476   */\n      0x00\n        /* \"#utility.yul\":509:515   */\n      dup2\n        /* \"#utility.yul\":496:516   */\n      calldataload\n        /* \"#utility.yul\":487:516   */\n      swap1\n      pop\n        /* \"#utility.yul\":525:558   */\n      tag_23\n        /* \"#utility.yul\":552:557   */\n      dup2\n        /* \"#utility.yul\":525:558   */\n      tag_24\n      jump\t// in\n    tag_23:\n        /* \"#utility.yul\":425:564   */\n      swap3\n      swap2\n      pop\n      pop\n      jump\t// out\n        /* \"#utility.yul\":584:924   */\n    tag_25:\n        /* \"#utility.yul\":640:645   */\n      0x00\n        /* \"#utility.yul\":689:692   */\n      dup3\n        /* \"#utility.yul\":682:686   */\n      0x1f\n        /* \"#utility.yul\":674:680   */\n      dup4\n        /* \"#utility.yul\":670:687   */\n      add\n        /* \"#utility.yul\":666:693   */\n      slt\n        /* \"#utility.yul\":656:778   */\n      tag_27\n      jumpi\n        /* \"#utility.yul\":697:776   */\n      tag_28\n      tag_29\n      jump\t// in\n    tag_28:\n        /* \"#utility.yul\":656:778   */\n    tag_27:\n        /* \"#utility.yul\":814:820   */\n      dup2\n        /* \"#utility.yul\":801:821   */\n      calldataload\n        /* \"#utility.yul\":839:918   */\n      tag_30\n        /* \"#utility.yul\":914:917   */\n      dup5\n        /* \"#utility.yul\":906:912   */\n      dup3\n        /* \"#utility.yul\":899:903   */\n      0x20\n        /* \"#utility.yul\":891:897   */\n      dup7\n        /* \"#utility.yul\":887:904   */\n      add\n        /* \"#utility.yul\":839:918   */\n      tag_10\n      jump\t// in\n    tag_30:\n        /* \"#utility.yul\":830:918   */\n      swap2\n      pop\n        /* \"#utility.yul\":646:924   */\n      pop\n        /* \"#utility.yul\":584:924   */\n      swap3\n      swap2\n      pop\n      pop\n      jump\t// out\n        /* \"#utility.yul\":930:1584   */\n    tag_6:\n        /* \"#utility.yul\":1008:1014   */\n      0x00\n        /* \"#utility.yul\":1016:1022   */\n      dup1\n        /* \"#utility.yul\":1065:1067   */\n      0x40\n        /* \"#utility.yul\":1053:1062   */\n      dup4\n        /* \"#utility.yul\":1044:1051   */\n      dup6\n        /* \"#utility.yul\":1040:1063   */\n      sub\n        /* \"#utility.yul\":1036:1068   */\n      slt\n        /* \"#utility.yul\":1033:1152   */\n      iszero\n      tag_32\n      jumpi\n        /* \"#utility.yul\":1071:1150   */\n      tag_33\n      tag_34\n      jump\t// in\n    tag_33:\n        /* \"#utility.yul\":1033:1152   */\n    tag_32:\n        /* \"#utility.yul\":1219:1220   */\n      0x00\n        /* \"#utility.yul\":1208:1217   */\n      dup4\n        /* \"#utility.yul\":1204:1221   */\n      add\n        /* \"#utility.yul\":1191:1222   */\n      calldataload\n        /* \"#utility.yul\":1249:1267   */\n      0xffffffffffffffff\n        /* \"#utility.yul\":1241:1247   */\n      dup2\n        /* \"#utility.yul\":1238:1268   */\n      gt\n        /* \"#utility.yul\":1235:1352   */\n      iszero\n      tag_35\n      jumpi\n        /* \"#utility.yul\":1271:1350   */\n      tag_36\n      tag_37\n      jump\t// in\n    tag_36:\n        /* \"#utility.yul\":1235:1352   */\n    tag_35:\n        /* \"#utility.yul\":1376:1439   */\n      tag_38\n        /* \"#utility.yul\":1431:1438   */\n      dup6\n        /* \"#utility.yul\":1422:1428   */\n      dup3\n        /* \"#utility.yul\":1411:1420   */\n      dup7\n        /* \"#utility.yul\":1407:1429   */\n      add\n        /* \"#utility.yul\":1376:1439   */\n      tag_25\n      jump\t// in\n    tag_38:\n        /* \"#utility.yul\":1366:1439   */\n      swap3\n      pop\n        /* \"#utility.yul\":1162:1449   */\n      pop\n        /* \"#utility.yul\":1488:1490   */\n      0x20\n        /* \"#utility.yul\":1514:1567   */\n      tag_39\n        /* \"#utility.yul\":1559:1566   */\n      dup6\n        /* \"#utility.yul\":1550:1556   */\n      dup3\n        /* \"#utility.yul\":1539:1548   */\n      dup7\n        /* \"#utility.yul\":1535:1557   */\n      add\n        /* \"#utility.yul\":1514:1567   */\n      tag_21\n      jump\t// in\n    tag_39:\n        /* \"#utility.yul\":1504:1567   */\n      swap2\n      pop\n        /* \"#utility.yul\":1459:1577   */\n      pop\n        /* \"#utility.yul\":930:1584   */\n      swap3\n      pop\n      swap3\n      swap1\n      pop\n      jump\t// out\n        /* \"#utility.yul\":1590:1719   */\n    tag_15:\n        /* \"#utility.yul\":1624:1630   */\n      0x00\n        /* \"#utility.yul\":1651:1671   */\n      tag_41\n      tag_42\n      jump\t// in\n    tag_41:\n        /* \"#utility.yul\":1641:1671   */\n      swap1\n      pop\n        /* \"#utility.yul\":1680:1713   */\n      tag_43\n        /* \"#utility.yul\":1708:1712   */\n      dup3\n        /* \"#utility.yul\":1700:1706   */\n      dup3\n        /* \"#utility.yul\":1680:1713   */\n      tag_44\n      jump\t// in\n    tag_43:\n        /* \"#utility.yul\":1590:1719   */\n      swap2\n      swap1\n      pop\n      jump\t// out\n        /* \"#utility.yul\":1725:1800   */\n    tag_42:\n        /* \"#utility.yul\":1758:1764   */\n      0x00\n        /* \"#utility.yul\":1791:1793   */\n      0x40\n        /* \"#utility.yul\":1785:1794   */\n      mload\n        /* \"#utility.yul\":1775:1794   */\n      swap1\n      pop\n        /* \"#utility.yul\":1725:1800   */\n      swap1\n      jump\t// out\n        /* \"#utility.yul\":1806:2114   */\n    tag_14:\n        /* \"#utility.yul\":1868:1872   */\n      0x00\n        /* \"#utility.yul\":1958:1976   */\n      0xffffffffffffffff\n        /* \"#utility.yul\":1950:1956   */\n      dup3\n        /* \"#utility.yul\":1947:1977   */\n      gt\n        /* \"#utility.yul\":1944:2000   */\n      iszero\n      tag_47\n      jumpi\n        /* \"#utility.yul\":1980:1998   */\n      tag_48\n      tag_49\n      jump\t// in\n    tag_48:\n        /* \"#utility.yul\":1944:2000   */\n    tag_47:\n        /* \"#utility.yul\":2018:2047   */\n      tag_50\n        /* \"#utility.yul\":2040:2046   */\n      dup3\n        /* \"#utility.yul\":2018:2047   */\n      tag_51\n      jump\t// in\n    tag_50:\n        /* \"#utility.yul\":2010:2047   */\n      swap1\n      pop\n        /* \"#utility.yul\":2102:2106   */\n      0x20\n        /* \"#utility.yul\":2096:2100   */\n      dup2\n        /* \"#utility.yul\":2092:2107   */\n      add\n        /* \"#utility.yul\":2084:2107   */\n      swap1\n      pop\n        /* \"#utility.yul\":1806:2114   */\n      swap2\n      swap1\n      pop\n      jump\t// out\n        /* \"#utility.yul\":2120:2216   */\n    tag_52:\n        /* \"#utility.yul\":2157:2164   */\n      0x00\n        /* \"#utility.yul\":2186:2210   */\n      tag_54\n        /* \"#utility.yul\":2204:2209   */\n      dup3\n        /* \"#utility.yul\":2186:2210   */\n      tag_55\n      jump\t// in\n    tag_54:\n        /* \"#utility.yul\":2175:2210   */\n      swap1\n      pop\n        /* \"#utility.yul\":2120:2216   */\n      swap2\n      swap1\n      pop\n      jump\t// out\n        /* \"#utility.yul\":2222:2348   */\n    tag_55:\n        /* \"#utility.yul\":2259:2266   */\n      0x00\n        /* \"#utility.yul\":2299:2341   */\n      0xffffffffffffffffffffffffffffffffffffffff\n        /* \"#utility.yul\":2292:2297   */\n      dup3\n        /* \"#utility.yul\":2288:2342   */\n      and\n        /* \"#utility.yul\":2277:2342   */\n      swap1\n      pop\n        /* \"#utility.yul\":2222:2348   */\n      swap2\n      swap1\n      pop\n      jump\t// out\n        /* \"#utility.yul\":2354:2508   */\n    tag_20:\n        /* \"#utility.yul\":2438:2444   */\n      dup3\n        /* \"#utility.yul\":2433:2436   */\n      dup2\n        /* \"#utility.yul\":2428:2431   */\n      dup4\n        /* \"#utility.yul\":2415:2445   */\n      calldatacopy\n        /* \"#utility.yul\":2500:2501   */\n      0x00\n        /* \"#utility.yul\":2491:2497   */\n      dup4\n        /* \"#utility.yul\":2486:2489   */\n      dup4\n        /* \"#utility.yul\":2482:2498   */\n      add\n        /* \"#utility.yul\":2475:2502   */\n      mstore\n        /* \"#utility.yul\":2354:2508   */\n      pop\n      pop\n      pop\n      jump\t// out\n        /* \"#utility.yul\":2514:2795   */\n    tag_44:\n        /* \"#utility.yul\":2597:2624   */\n      tag_59\n        /* \"#utility.yul\":2619:2623   */\n      dup3\n        /* \"#utility.yul\":2597:2624   */\n      tag_51\n      jump\t// in\n    tag_59:\n        /* \"#utility.yul\":2589:2595   */\n      dup2\n        /* \"#utility.yul\":2585:2625   */\n      add\n        /* \"#utility.yul\":2727:2733   */\n      dup2\n        /* \"#utility.yul\":2715:2725   */\n      dup2\n        /* \"#utility.yul\":2712:2734   */\n      lt\n        /* \"#utility.yul\":2691:2709   */\n      0xffffffffffffffff\n        /* \"#utility.yul\":2679:2689   */\n      dup3\n        /* \"#utility.yul\":2676:2710   */\n      gt\n        /* \"#utility.yul\":2673:2735   */\n      or\n        /* \"#utility.yul\":2670:2758   */\n      iszero\n      tag_60\n      jumpi\n        /* \"#utility.yul\":2738:2756   */\n      tag_61\n      tag_49\n      jump\t// in\n    tag_61:\n        /* \"#utility.yul\":2670:2758   */\n    tag_60:\n        /* \"#utility.yul\":2778:2788   */\n      dup1\n        /* \"#utility.yul\":2774:2776   */\n      0x40\n        /* \"#utility.yul\":2767:2789   */\n      mstore\n        /* \"#utility.yul\":2557:2795   */\n      pop\n        /* \"#utility.yul\":2514:2795   */\n      pop\n      pop\n      jump\t// out\n        /* \"#utility.yul\":2801:2981   */\n    tag_49:\n        /* \"#utility.yul\":2849:2926   */\n      0x4e487b7100000000000000000000000000000000000000000000000000000000\n        /* \"#utility.yul\":2846:2847   */\n      0x00\n        /* \"#utility.yul\":2839:2927   */\n      mstore\n        /* \"#utility.yul\":2946:2950   */\n      0x41\n        /* \"#utility.yul\":2943:2944   */\n      0x04\n        /* \"#utility.yul\":2936:2951   */\n      mstore\n        /* \"#utility.yul\":2970:2974   */\n      0x24\n        /* \"#utility.yul\":2967:2968   */\n      0x00\n        /* \"#utility.yul\":2960:2975   */\n      revert\n        /* \"#utility.yul\":2987:3104   */\n    tag_29:\n        /* \"#utility.yul\":3096:3097   */\n      0x00\n        /* \"#utility.yul\":3093:3094   */\n      dup1\n        /* \"#utility.yul\":3086:3098   */\n      revert\n        /* \"#utility.yul\":3110:3227   */\n    tag_18:\n        /* \"#utility.yul\":3219:3220   */\n      0x00\n        /* \"#utility.yul\":3216:3217   */\n      dup1\n        /* \"#utility.yul\":3209:3221   */\n      revert\n        /* \"#utility.yul\":3233:3350   */\n    tag_37:\n        /* \"#utility.yul\":3342:3343   */\n      0x00\n        /* \"#utility.yul\":3339:3340   */\n      dup1\n        /* \"#utility.yul\":3332:3344   */\n      revert\n        /* \"#utility.yul\":3356:3473   */\n    tag_34:\n        /* \"#utility.yul\":3465:3466   */\n      0x00\n        /* \"#utility.yul\":3462:3463   */\n      dup1\n        /* \"#utility.yul\":3455:3467   */\n      revert\n        /* \"#utility.yul\":3479:3581   */\n    tag_51:\n        /* \"#utility.yul\":3520:3526   */\n      0x00\n        /* \"#utility.yul\":3571:3573   */\n      0x1f\n        /* \"#utility.yul\":3567:3574   */\n      not\n        /* \"#utility.yul\":3562:3564   */\n      0x1f\n        /* \"#utility.yul\":3555:3560   */\n      dup4\n        /* \"#utility.yul\":3551:3565   */\n      add\n        /* \"#utility.yul\":3547:3575   */\n      and\n        /* \"#utility.yul\":3537:3575   */\n      swap1\n      pop\n        /* \"#utility.yul\":3479:3581   */\n      swap2\n      swap1\n      pop\n      jump\t// out\n        /* \"#utility.yul\":3587:3709   */\n    tag_24:\n        /* \"#utility.yul\":3660:3684   */\n      tag_69\n        /* \"#utility.yul\":3678:3683   */\n      dup2\n        /* \"#utility.yul\":3660:3684   */\n      tag_52\n      jump\t// in\n    tag_69:\n        /* \"#utility.yul\":3653:3658   */\n      dup2\n        /* \"#utility.yul\":3650:3685   */\n      eq\n        /* \"#utility.yul\":3640:3703   */\n      tag_70\n      jumpi\n        /* \"#utility.yul\":3699:3700   */\n      0x00\n        /* \"#utility.yul\":3696:3697   */\n      dup1\n        /* \"#utility.yul\":3689:3701   */\n      revert\n        /* \"#utility.yul\":3640:3703   */\n    tag_70:\n        /* \"#utility.yul\":3587:3709   */\n      pop\n      jump\t// out\n\n    auxdata: 0xa264697066735822122046ea64dcce30d4e3423eee7f581343e00ee0852a8445a85d88c301d8a8ab2b1664736f6c63430008070033\n}\n",
				"bytecode": {
					"linkReferences": {},
					"object": "6080604052600060015534801561001557600080fd5b5061029a806100256000396000f3fe608060405234801561001057600080fd5b506004361061002b5760003560e01c80636b42cf4d14610030575b600080fd5b61004a600480360381019061004591906100d5565b61004c565b005b5050565b600061006361005e84610156565b610131565b90508281526020810184848401111561007f5761007e61022d565b5b61008a8482856101b9565b509392505050565b6000813590506100a18161024d565b92915050565b600082601f8301126100bc576100bb610228565b5b81356100cc848260208601610050565b91505092915050565b600080604083850312156100ec576100eb610237565b5b600083013567ffffffffffffffff81111561010a57610109610232565b5b610116858286016100a7565b925050602061012785828601610092565b9150509250929050565b600061013b61014c565b905061014782826101c8565b919050565b6000604051905090565b600067ffffffffffffffff821115610171576101706101f9565b5b61017a8261023c565b9050602081019050919050565b600061019282610199565b9050919050565b600073ffffffffffffffffffffffffffffffffffffffff82169050919050565b82818337600083830152505050565b6101d18261023c565b810181811067ffffffffffffffff821117156101f0576101ef6101f9565b5b80604052505050565b7f4e487b7100000000000000000000000000000000000000000000000000000000600052604160045260246000fd5b600080fd5b600080fd5b600080fd5b600080fd5b6000601f19601f8301169050919050565b61025681610187565b811461026157600080fd5b5056fea264697066735822122046ea64dcce30d4e3423eee7f581343e00ee0852a8445a85d88c301d8a8ab2b1664736f6c63430008070033",
					"opcodes": "PUSH1 0x80 PUSH1 0x40 MSTORE PUSH1 0x0 PUSH1 0x1 SSTORE CALLVALUE DUP1 ISZERO PUSH2 0x15 JUMPI PUSH1 0x0 DUP1 REVERT JUMPDEST POP PUSH2 0x29A DUP1 PUSH2 0x25 PUSH1 0x0 CODECOPY PUSH1 0x0 RETURN INVALID PUSH1 0x80 PUSH1 0x40 MSTORE CALLVALUE DUP1 ISZERO PUSH2 0x10 JUMPI PUSH1 0x0 DUP1 REVERT JUMPDEST POP PUSH1 0x4 CALLDATASIZE LT PUSH2 0x2B JUMPI PUSH1 0x0 CALLDATALOAD PUSH1 0xE0 SHR DUP1 PUSH4 0x6B42CF4D EQ PUSH2 0x30 JUMPI JUMPDEST PUSH1 0x0 DUP1 REVERT JUMPDEST PUSH2 0x4A PUSH1 0x4 DUP1 CALLDATASIZE SUB DUP2 ADD SWAP1 PUSH2 0x45 SWAP2 SWAP1 PUSH2 0xD5 JUMP JUMPDEST PUSH2 0x4C JUMP JUMPDEST STOP JUMPDEST POP POP JUMP JUMPDEST PUSH1 0x0 PUSH2 0x63 PUSH2 0x5E DUP5 PUSH2 0x156 JUMP JUMPDEST PUSH2 0x131 JUMP JUMPDEST SWAP1 POP DUP3 DUP2 MSTORE PUSH1 0x20 DUP2 ADD DUP5 DUP5 DUP5 ADD GT ISZERO PUSH2 0x7F JUMPI PUSH2 0x7E PUSH2 0x22D JUMP JUMPDEST JUMPDEST PUSH2 0x8A DUP5 DUP3 DUP6 PUSH2 0x1B9 JUMP JUMPDEST POP SWAP4 SWAP3 POP POP POP JUMP JUMPDEST PUSH1 0x0 DUP2 CALLDATALOAD SWAP1 POP PUSH2 0xA1 DUP2 PUSH2 0x24D JUMP JUMPDEST SWAP3 SWAP2 POP POP JUMP JUMPDEST PUSH1 0x0 DUP3 PUSH1 0x1F DUP4 ADD SLT PUSH2 0xBC JUMPI PUSH2 0xBB PUSH2 0x228 JUMP JUMPDEST JUMPDEST DUP2 CALLDATALOAD PUSH2 0xCC DUP5 DUP3 PUSH1 0x20 DUP7 ADD PUSH2 0x50 JUMP JUMPDEST SWAP2 POP POP SWAP3 SWAP2 POP POP JUMP JUMPDEST PUSH1 0x0 DUP1 PUSH1 0x40 DUP4 DUP6 SUB SLT ISZERO PUSH2 0xEC JUMPI PUSH2 0xEB PUSH2 0x237 JUMP JUMPDEST JUMPDEST PUSH1 0x0 DUP4 ADD CALLDATALOAD PUSH8 0xFFFFFFFFFFFFFFFF DUP2 GT ISZERO PUSH2 0x10A JUMPI PUSH2 0x109 PUSH2 0x232 JUMP JUMPDEST JUMPDEST PUSH2 0x116 DUP6 DUP3 DUP7 ADD PUSH2 0xA7 JUMP JUMPDEST SWAP3 POP POP PUSH1 0x20 PUSH2 0x127 DUP6 DUP3 DUP7 ADD PUSH2 0x92 JUMP JUMPDEST SWAP2 POP POP SWAP3 POP SWAP3 SWAP1 POP JUMP JUMPDEST PUSH1 0x0 PUSH2 0x13B PUSH2 0x14C JUMP JUMPDEST SWAP1 POP PUSH2 0x147 DUP3 DUP3 PUSH2 0x1C8 JUMP JUMPDEST SWAP2 SWAP1 POP JUMP JUMPDEST PUSH1 0x0 PUSH1 0x40 MLOAD SWAP1 POP SWAP1 JUMP JUMPDEST PUSH1 0x0 PUSH8 0xFFFFFFFFFFFFFFFF DUP3 GT ISZERO PUSH2 0x171 JUMPI PUSH2 0x170 PUSH2 0x1F9 JUMP JUMPDEST JUMPDEST PUSH2 0x17A DUP3 PUSH2 0x23C JUMP JUMPDEST SWAP1 POP PUSH1 0x20 DUP2 ADD SWAP1 POP SWAP2 SWAP1 POP JUMP JUMPDEST PUSH1 0x0 PUSH2 0x192 DUP3 PUSH2 0x199 JUMP JUMPDEST SWAP1 POP SWAP2 SWAP1 POP JUMP JUMPDEST PUSH1 0x0 PUSH20 0xFFFFFFFFFFFFFFFFFFFFFFFFFFFFFFFFFFFFFFFF DUP3 AND SWAP1 POP SWAP2 SWAP1 POP JUMP JUMPDEST DUP3 DUP2 DUP4 CALLDATACOPY PUSH1 0x0 DUP4 DUP4 ADD MSTORE POP POP POP JUMP JUMPDEST PUSH2 0x1D1 DUP3 PUSH2 0x23C JUMP JUMPDEST DUP2 ADD DUP2 DUP2 LT PUSH8 0xFFFFFFFFFFFFFFFF DUP3 GT OR ISZERO PUSH2 0x1F0 JUMPI PUSH2 0x1EF PUSH2 0x1F9 JUMP JUMPDEST JUMPDEST DUP1 PUSH1 0x40 MSTORE POP POP POP JUMP JUMPDEST PUSH32 0x4E487B7100000000000000000000000000000000000000000000000000000000 PUSH1 0x0 MSTORE PUSH1 0x41 PUSH1 0x4 MSTORE PUSH1 0x24 PUSH1 0x0 REVERT JUMPDEST PUSH1 0x0 DUP1 REVERT JUMPDEST PUSH1 0x0 DUP1 REVERT JUMPDEST PUSH1 0x0 DUP1 REVERT JUMPDEST PUSH1 0x0 DUP1 REVERT JUMPDEST PUSH1 0x0 PUSH1 0x1F NOT PUSH1 0x1F DUP4 ADD AND SWAP1 POP SWAP2 SWAP1 POP JUMP JUMPDEST PUSH2 0x256 DUP2 PUSH2 0x187 JUMP JUMPDEST DUP2 EQ PUSH2 0x261 JUMPI PUSH1 0x0 DUP1 REVERT JUMPDEST POP JUMP INVALID LOG2 PUSH5 0x6970667358 0x22 SLT KECCAK256 CHAINID 0xEA PUSH5 0xDCCE30D4E3 TIMESTAMP RETURNDATACOPY 0xEE PUSH32 0x581343E00EE0852A8445A85D88C301D8A8AB2B1664736F6C6343000807003300 "
				},
				"gasEstimates": {
					"creation": {
						"codeDepositCost": "133200",
						"executionCost": "5183",
						"totalCost": "138383"
					},
					"external": {
						"createMember(string,address)": "infinite"
					}
				},
				"methodIdentifiers": {
					"createMember(string,address)": "6b42cf4d"
				}
			},
			"storageLayout": {
				"storage": [
					{
						"astId": 13,
						"contract": "contracts/Members.sol:Members",
						"label": "members",
						"offset": 0,
						"slot": "0",
						"type": "t_mapping(t_uint256,t_struct(Member)8_storage)"
					},
					{
						"astId": 16,
						"contract": "contracts/Members.sol:Members",
						"label": "AllMembers",
						"offset": 0,
						"slot": "1",
						"type": "t_uint256"
					}
				],
				"types": {
					"t_address_payable": {
						"encoding": "inplace",
						"label": "address payable",
						"numberOfBytes": "20"
					},
					"t_mapping(t_uint256,t_struct(Member)8_storage)": {
						"encoding": "mapping",
						"key": "t_uint256",
						"label": "mapping(uint256 => struct Members.Member)",
						"numberOfBytes": "32",
						"value": "t_struct(Member)8_storage"
					},
					"t_string_storage": {
						"encoding": "bytes",
						"label": "string",
						"numberOfBytes": "32"
					},
					"t_struct(Member)8_storage": {
						"encoding": "inplace",
						"label": "struct Members.Member",
						"members": [
							{
								"astId": 3,
								"contract": "contracts/Members.sol:Members",
								"label": "memberId",
								"offset": 0,
								"slot": "0",
								"type": "t_uint256"
							},
							{
								"astId": 5,
								"contract": "contracts/Members.sol:Members",
								"label": "name",
								"offset": 0,
								"slot": "1",
								"type": "t_string_storage"
							},
							{
								"astId": 7,
								"contract": "contracts/Members.sol:Members",
								"label": "memberWalletAddress",
								"offset": 0,
								"slot": "2",
								"type": "t_address_payable"
							}
						],
						"numberOfBytes": "96"
					},
					"t_uint256": {
						"encoding": "inplace",
						"label": "uint256",
						"numberOfBytes": "32"
					}
				}
			},
			"userdoc": {
				"kind": "user",
				"methods": {},
				"version": 1
			}
		}
	}
}