{
  "address": "0x0867370f87aeb256315a50287046E763496A04Ca",
  "abi": [
    {
      "anonymous": false,
      "inputs": [
        {
          "indexed": false,
          "internalType": "bool",
          "name": "status",
          "type": "bool"
        },
        {
          "indexed": false,
          "internalType": "string",
          "name": "statement",
          "type": "string"
        }
      ],
      "name": "ActionDone",
      "type": "event"
    },
    {
      "anonymous": false,
      "inputs": [
        {
          "indexed": false,
          "internalType": "uint8",
          "name": "version",
          "type": "uint8"
        }
      ],
      "name": "Initialized",
      "type": "event"
    },
    {
      "inputs": [
        {
          "internalType": "address",
          "name": "",
          "type": "address"
        },
        {
          "internalType": "uint256",
          "name": "",
          "type": "uint256"
        }
      ],
      "name": "_assigned",
      "outputs": [
        {
          "internalType": "uint256",
          "name": "",
          "type": "uint256"
        }
      ],
      "stateMutability": "view",
      "type": "function"
    },
    {
      "inputs": [
        {
          "internalType": "address",
          "name": "",
          "type": "address"
        },
        {
          "internalType": "uint256",
          "name": "",
          "type": "uint256"
        }
      ],
      "name": "_claimed",
      "outputs": [
        {
          "internalType": "uint256",
          "name": "",
          "type": "uint256"
        }
      ],
      "stateMutability": "view",
      "type": "function"
    },
    {
      "inputs": [
        {
          "internalType": "uint256",
          "name": "",
          "type": "uint256"
        }
      ],
      "name": "_planktons",
      "outputs": [
        {
          "internalType": "address",
          "name": "id",
          "type": "address"
        }
      ],
      "stateMutability": "view",
      "type": "function"
    },
    {
      "inputs": [
        {
          "internalType": "uint256",
          "name": "",
          "type": "uint256"
        }
      ],
      "name": "_rewards",
      "outputs": [
        {
          "internalType": "string",
          "name": "name",
          "type": "string"
        },
        {
          "internalType": "string",
          "name": "location",
          "type": "string"
        }
      ],
      "stateMutability": "view",
      "type": "function"
    },
    {
      "inputs": [
        {
          "internalType": "uint256",
          "name": "",
          "type": "uint256"
        }
      ],
      "name": "_zooxes",
      "outputs": [
        {
          "internalType": "address",
          "name": "id",
          "type": "address"
        }
      ],
      "stateMutability": "view",
      "type": "function"
    },
    {
      "inputs": [
        {
          "internalType": "address",
          "name": "plankton",
          "type": "address"
        }
      ],
      "name": "addPlankton",
      "outputs": [],
      "stateMutability": "nonpayable",
      "type": "function"
    },
    {
      "inputs": [
        {
          "internalType": "string",
          "name": "_name",
          "type": "string"
        },
        {
          "internalType": "string",
          "name": "_location",
          "type": "string"
        }
      ],
      "name": "addReward",
      "outputs": [],
      "stateMutability": "nonpayable",
      "type": "function"
    },
    {
      "inputs": [
        {
          "internalType": "address",
          "name": "zoox",
          "type": "address"
        }
      ],
      "name": "addZoox",
      "outputs": [],
      "stateMutability": "nonpayable",
      "type": "function"
    },
    {
      "inputs": [],
      "name": "assigned",
      "outputs": [
        {
          "internalType": "uint256[]",
          "name": "",
          "type": "uint256[]"
        }
      ],
      "stateMutability": "view",
      "type": "function"
    },
    {
      "inputs": [
        {
          "internalType": "uint256",
          "name": "rewardId",
          "type": "uint256"
        }
      ],
      "name": "claimReward",
      "outputs": [],
      "stateMutability": "nonpayable",
      "type": "function"
    },
    {
      "inputs": [],
      "name": "claimed",
      "outputs": [
        {
          "internalType": "uint256[]",
          "name": "",
          "type": "uint256[]"
        }
      ],
      "stateMutability": "view",
      "type": "function"
    },
    {
      "inputs": [
        {
          "internalType": "address",
          "name": "plankton",
          "type": "address"
        }
      ],
      "name": "deactivatePlankton",
      "outputs": [],
      "stateMutability": "nonpayable",
      "type": "function"
    },
    {
      "inputs": [
        {
          "internalType": "uint256",
          "name": "rewardId",
          "type": "uint256"
        }
      ],
      "name": "deactivateReward",
      "outputs": [],
      "stateMutability": "nonpayable",
      "type": "function"
    },
    {
      "inputs": [
        {
          "internalType": "address",
          "name": "zoox",
          "type": "address"
        }
      ],
      "name": "deactivateZoox",
      "outputs": [],
      "stateMutability": "nonpayable",
      "type": "function"
    },
    {
      "inputs": [
        {
          "internalType": "string",
          "name": "_name",
          "type": "string"
        },
        {
          "internalType": "uint256",
          "name": "_maxPlanktons",
          "type": "uint256"
        },
        {
          "internalType": "uint256",
          "name": "_maxZooxes",
          "type": "uint256"
        }
      ],
      "name": "initialize",
      "outputs": [],
      "stateMutability": "nonpayable",
      "type": "function"
    },
    {
      "inputs": [],
      "name": "launch",
      "outputs": [],
      "stateMutability": "nonpayable",
      "type": "function"
    },
    {
      "inputs": [],
      "name": "maxPlanktons",
      "outputs": [
        {
          "internalType": "uint256",
          "name": "",
          "type": "uint256"
        }
      ],
      "stateMutability": "view",
      "type": "function"
    },
    {
      "inputs": [],
      "name": "maxZooxes",
      "outputs": [
        {
          "internalType": "uint256",
          "name": "",
          "type": "uint256"
        }
      ],
      "stateMutability": "view",
      "type": "function"
    },
    {
      "inputs": [],
      "name": "name",
      "outputs": [
        {
          "internalType": "string",
          "name": "",
          "type": "string"
        }
      ],
      "stateMutability": "view",
      "type": "function"
    },
    {
      "inputs": [],
      "name": "planktons",
      "outputs": [
        {
          "components": [
            {
              "internalType": "address",
              "name": "id",
              "type": "address"
            }
          ],
          "internalType": "struct Koral.Plankton[]",
          "name": "",
          "type": "tuple[]"
        }
      ],
      "stateMutability": "view",
      "type": "function"
    },
    {
      "inputs": [],
      "name": "polyp",
      "outputs": [
        {
          "internalType": "address",
          "name": "",
          "type": "address"
        }
      ],
      "stateMutability": "view",
      "type": "function"
    },
    {
      "inputs": [],
      "name": "resume",
      "outputs": [],
      "stateMutability": "nonpayable",
      "type": "function"
    },
    {
      "inputs": [],
      "name": "rewards",
      "outputs": [
        {
          "components": [
            {
              "internalType": "string",
              "name": "name",
              "type": "string"
            },
            {
              "internalType": "string",
              "name": "location",
              "type": "string"
            }
          ],
          "internalType": "struct Koral.Reward[]",
          "name": "",
          "type": "tuple[]"
        }
      ],
      "stateMutability": "view",
      "type": "function"
    },
    {
      "inputs": [
        {
          "internalType": "uint256",
          "name": "_maxPlanktons",
          "type": "uint256"
        }
      ],
      "name": "setMaxPlanktons",
      "outputs": [],
      "stateMutability": "nonpayable",
      "type": "function"
    },
    {
      "inputs": [
        {
          "internalType": "uint256",
          "name": "_maxZooxes",
          "type": "uint256"
        }
      ],
      "name": "setMaxZooxes",
      "outputs": [],
      "stateMutability": "nonpayable",
      "type": "function"
    },
    {
      "inputs": [
        {
          "internalType": "string",
          "name": "_name",
          "type": "string"
        }
      ],
      "name": "setName",
      "outputs": [],
      "stateMutability": "nonpayable",
      "type": "function"
    },
    {
      "inputs": [
        {
          "internalType": "address",
          "name": "_polyp",
          "type": "address"
        }
      ],
      "name": "setPolyp",
      "outputs": [],
      "stateMutability": "nonpayable",
      "type": "function"
    },
    {
      "inputs": [],
      "name": "stop",
      "outputs": [],
      "stateMutability": "nonpayable",
      "type": "function"
    },
    {
      "inputs": [],
      "name": "stopped",
      "outputs": [
        {
          "internalType": "bool",
          "name": "",
          "type": "bool"
        }
      ],
      "stateMutability": "view",
      "type": "function"
    },
    {
      "inputs": [],
      "name": "totalInactivePlanktons",
      "outputs": [
        {
          "internalType": "uint256",
          "name": "",
          "type": "uint256"
        }
      ],
      "stateMutability": "view",
      "type": "function"
    },
    {
      "inputs": [],
      "name": "totalInactiveRewards",
      "outputs": [
        {
          "internalType": "uint256",
          "name": "",
          "type": "uint256"
        }
      ],
      "stateMutability": "view",
      "type": "function"
    },
    {
      "inputs": [],
      "name": "totalInactiveZooxes",
      "outputs": [
        {
          "internalType": "uint256",
          "name": "",
          "type": "uint256"
        }
      ],
      "stateMutability": "view",
      "type": "function"
    },
    {
      "inputs": [],
      "name": "zooxes",
      "outputs": [
        {
          "components": [
            {
              "internalType": "address",
              "name": "id",
              "type": "address"
            }
          ],
          "internalType": "struct Koral.Zoox[]",
          "name": "",
          "type": "tuple[]"
        }
      ],
      "stateMutability": "view",
      "type": "function"
    }
  ],
  "transactionHash": "0x43bb02111d44bc37b73aba3f1ed89c80bc3949bbdbe5db25d7dfb92f6bc00587",
  "args": [],
  "numDeployments": 1,
  "solcInputHash": "d8605c0bed7007f17d4b10046254e06d",
  "bytecode": "0x60806040526000805461ffff60b01b1916905534801561001e57600080fd5b506123f48061002e6000396000f3fe608060405234801561001057600080fd5b506004361061020b5760003560e01c80638f1e94051161012a578063cf2b7d9b116100bd578063eabdc5b41161008c578063ee8998e411610071578063ee8998e414610467578063f842696c14610470578063fdf5d34d1461048157600080fd5b8063eabdc5b41461044c578063ec2cc0651461045f57600080fd5b8063cf2b7d9b14610415578063d2d890cb1461041e578063d463369814610431578063e834a8341461044457600080fd5b8063adb4d990116100f9578063adb4d990146103c5578063ae169a50146103da578063b4550b00146103ed578063c47f00271461040257600080fd5b80638f1e94051461036957806393b170431461038a578063977d08c01461039d5780639ec5a894146103b057600080fd5b806321bdb393116101a257806375f12b211161017157806375f12b21146102f45780637830120d146103185780637cdd102e1461032b57806384133d4a1461033e57600080fd5b806321bdb393146102b25780632669f213146102c55780632695a9b4146102d85780634bdf2897146102e157600080fd5b806309cb0298116101de57806309cb0298146102625780630c4775321461028357806311b490d61461028c57806311fd19571461029f57600080fd5b806301339c2114610210578063046f7da21461021a57806306fdde031461022c57806307da68f51461024a575b600080fd5b61021861048a565b005b6102186000805460ff60b81b19169055565b610234610562565b6040516102419190611e78565b60405180910390f35b6102186000805460ff60b81b1916600160b81b179055565b610275610270366004611eae565b6105f0565b604051908152602001610241565b61027560025481565b61021861029a366004611ed8565b610621565b6102186102ad366004611ef3565b610705565b6102186102c0366004611ed8565b610863565b6102186102d3366004611ed8565b610a25565b61027560055481565b6102186102ef366004611ef3565b610c02565b60005461030890600160b81b900460ff1681565b6040519015158152602001610241565b610275610326366004611eae565b610d7b565b610218610339366004611ed8565b610d97565b61035161034c366004611ef3565b610f3c565b6040516001600160a01b039091168152602001610241565b61037c610377366004611ef3565b610f66565b604051610241929190611f0c565b610218610398366004611ed8565b6110aa565b6102186103ab366004611fdd565b611289565b6103b8611403565b604051610241919061202b565b6103cd611586565b60405161024191906120b0565b6102186103e8366004611ef3565b61166d565b6103f56117fb565b60405161024191906120f4565b610218610410366004612138565b611859565b61027560015481565b61035161042c366004611ef3565b611928565b61021861043f366004612175565b611938565b6103cd611ae8565b61021861045a366004611ef3565b611bcd565b6103f5611d7b565b61027560045481565b6000546001600160a01b0316610351565b61027560035481565b6000546001600160a01b031633146104ef5760405162461bcd60e51b815260206004820152602f60248201526000805160206123a883398151915260448201526e3936903a3434b99030b1ba34b7b71760891b60648201526084015b60405180910390fd5b610522600080547fffffffffffffffffff00ffffffffffffffffffffffffffffffffffffffffffff16600160b01b179055565b6105606040518060400160405280601d81526020017f436f6c6f6e79206c61756e63686564207375636365737366756c6c792e000000815250611dd8565b565b6006805461056f906121d9565b80601f016020809104026020016040519081016040528092919081815260200182805461059b906121d9565b80156105e85780601f106105bd576101008083540402835291602001916105e8565b820191906000526020600020905b8154815290600101906020018083116105cb57829003601f168201915b505050505081565b600d602052816000526040600020818154811061060c57600080fd5b90600052602060002001600091509150505481565b600054600160b01b900460ff16156106845760405162461bcd60e51b815260206004820152603260248201526000805160206123c883398151915260448201527137b733b2b91031329036b7b234b334b2b21760711b60648201526084016104e6565b6000546001600160a01b031633146106e45760405162461bcd60e51b815260206004820152602f60248201526000805160206123a883398151915260448201526e3936903a3434b99030b1ba34b7b71760891b60648201526084016104e6565b600080546001600160a01b0319166001600160a01b03831617905550565b50565b600054600160b01b900460ff16156107685760405162461bcd60e51b815260206004820152603260248201526000805160206123c883398151915260448201527137b733b2b91031329036b7b234b334b2b21760711b60648201526084016104e6565b6000546001600160a01b031633146107c85760405162461bcd60e51b815260206004820152602f60248201526000805160206123a883398151915260448201526e3936903a3434b99030b1ba34b7b71760891b60648201526084016104e6565b6004546009546000916107da91612229565b82101590508061085d5760405162461bcd60e51b815260206004820152604260248201527f436f6c6f6e793a206d61785a6f6f786573206d757374206e6f74206265206c6560448201527f7373207468616e20746865206578697374696e6720616374697665207a6f6f78606482015261657360f01b608482015260a4016104e6565b50600255565b600054600160b01b900460ff16156108c65760405162461bcd60e51b815260206004820152603260248201526000805160206123c883398151915260448201527137b733b2b91031329036b7b234b334b2b21760711b60648201526084016104e6565b6000546001600160a01b031633146109265760405162461bcd60e51b815260206004820152602f60248201526000805160206123a883398151915260448201526e3936903a3434b99030b1ba34b7b71760891b60648201526084016104e6565b6001600160a01b0381166000908152600b602052604090205460ff166109b45760405162461bcd60e51b815260206004820152603a60248201527f436f6c6f6e793a2072657761726420646561637469766174696f6e206661696c60448201527f65642073696e6365207a6f6f7820697320696e6163746976652e00000000000060648201526084016104e6565b6001600160a01b0381166000908152600b60205260408120805460ff1916905560048054916109e283612242565b91905055506107026040518060400160405280601e81526020017f5a6f6f78206465616374697661746564207375636365737366756c6c792e0000815250611dd8565b600054600160b01b900460ff1615610a885760405162461bcd60e51b815260206004820152603260248201526000805160206123c883398151915260448201527137b733b2b91031329036b7b234b334b2b21760711b60648201526084016104e6565b6000546001600160a01b03163314610ae85760405162461bcd60e51b815260206004820152602f60248201526000805160206123a883398151915260448201526e3936903a3434b99030b1ba34b7b71760891b60648201526084016104e6565b600454600254610afa91600991611e15565b610b505760405162461bcd60e51b815260206004820152602160248201527f436f6c6f6e793a2063616e27742061646420616e79206d6f7265207a6f6f78656044820152607360f81b60648201526084016104e6565b60408051602080820183526001600160a01b038481168084526009805460018082018355600092835295517f6e1540171b6c0c960b71a7020d9f60077f6af931a8bbf590da0223dacf75c7af90910180546001600160a01b03191691909416179092558152600b8252839020805460ff19169092179091558151808301909252601882527f5a6f6f78206164646564207375636365737366756c6c792e00000000000000009082015261070290611dd8565b600054600160b01b900460ff1615610c655760405162461bcd60e51b815260206004820152603260248201526000805160206123c883398151915260448201527137b733b2b91031329036b7b234b334b2b21760711b60648201526084016104e6565b6000546001600160a01b03163314610cc55760405162461bcd60e51b815260206004820152602f60248201526000805160206123a883398151915260448201526e3936903a3434b99030b1ba34b7b71760891b60648201526084016104e6565b600354600754600091610cd791612229565b821015905080610d755760405162461bcd60e51b815260206004820152604860248201527f436f6c6f6e793a206d6178506c616e6b746f6e73206d757374206e6f7420626560448201527f206c657373207468616e20746865206578697374696e6720616374697665207060648201527f6c616e6b746f6e73000000000000000000000000000000000000000000000000608482015260a4016104e6565b50600155565b600e602052816000526040600020818154811061060c57600080fd5b600054600160b01b900460ff1615610dfa5760405162461bcd60e51b815260206004820152603260248201526000805160206123c883398151915260448201527137b733b2b91031329036b7b234b334b2b21760711b60648201526084016104e6565b6000546001600160a01b03163314610e5a5760405162461bcd60e51b815260206004820152602f60248201526000805160206123a883398151915260448201526e3936903a3434b99030b1ba34b7b71760891b60648201526084016104e6565b6001600160a01b0381166000908152600c602052604090205460ff16610ee85760405162461bcd60e51b815260206004820152603e60248201527f436f6c6f6e793a2072657761726420646561637469766174696f6e206661696c60448201527f65642073696e636520706c616e6b746f6e20697320696e6163746976652e000060648201526084016104e6565b6001600160a01b0381166000908152600c60205260408120805460ff191690556003805491610f1683612242565b919050555061070260405180606001604052806022815260200161238660229139611dd8565b60098181548110610f4c57600080fd5b6000918252602090912001546001600160a01b0316905081565b60088181548110610f7657600080fd5b9060005260206000209060020201600091509050806000018054610f99906121d9565b80601f0160208091040260200160405190810160405280929190818152602001828054610fc5906121d9565b80156110125780601f10610fe757610100808354040283529160200191611012565b820191906000526020600020905b815481529060010190602001808311610ff557829003601f168201915b505050505090806001018054611027906121d9565b80601f0160208091040260200160405190810160405280929190818152602001828054611053906121d9565b80156110a05780601f10611075576101008083540402835291602001916110a0565b820191906000526020600020905b81548152906001019060200180831161108357829003601f168201915b5050505050905082565b600054600160b01b900460ff161561110d5760405162461bcd60e51b815260206004820152603260248201526000805160206123c883398151915260448201527137b733b2b91031329036b7b234b334b2b21760711b60648201526084016104e6565b6000546001600160a01b0316331461116d5760405162461bcd60e51b815260206004820152602f60248201526000805160206123a883398151915260448201526e3936903a3434b99030b1ba34b7b71760891b60648201526084016104e6565b60035460015461117f91600791611e15565b6111d75760405162461bcd60e51b8152602060048201526024808201527f436f6c6f6e793a2063616e27742061646420616e79206d6f726520706c616e6b604482015263746f6e7360e01b60648201526084016104e6565b60408051602080820183526001600160a01b038481168084526007805460018082018355600092835295517fa66cc928b5edb82af9bd49922954155ab7b0942694bea4ce44661d9a8736c68890910180546001600160a01b03191691909416179092558152600c8252839020805460ff19169092179091558151808301909252601c82527f506c616e6b746f6e206164646564207375636365737366756c6c792e000000009082015261070290611dd8565b600054600160a81b900460ff16158080156112b157506000546001600160a01b90910460ff16105b806112d25750303b1580156112d25750600054600160a01b900460ff166001145b6113445760405162461bcd60e51b815260206004820152602e60248201527f496e697469616c697a61626c653a20636f6e747261637420697320616c72656160448201527f647920696e697469616c697a656400000000000000000000000000000000000060648201526084016104e6565b600080547fffffffffffffffffffffff00ffffffffffffffffffffffffffffffffffffffff16600160a01b179055801561138c576000805460ff60a81b1916600160a81b1790555b600080546001600160a01b0319163317905560066113aa85826122aa565b506001839055600282905580156113fd576000805460ff60a81b19169055604051600181527f7f26b83ff96e1f2b6a682f133852f6798a09c465da95921460cefb38474024989060200160405180910390a15b50505050565b60606008805480602002602001604051908101604052809291908181526020016000905b8282101561157d578382906000526020600020906002020160405180604001604052908160008201805461145a906121d9565b80601f0160208091040260200160405190810160405280929190818152602001828054611486906121d9565b80156114d35780601f106114a8576101008083540402835291602001916114d3565b820191906000526020600020905b8154815290600101906020018083116114b657829003601f168201915b505050505081526020016001820180546114ec906121d9565b80601f0160208091040260200160405190810160405280929190818152602001828054611518906121d9565b80156115655780601f1061153a57610100808354040283529160200191611565565b820191906000526020600020905b81548152906001019060200180831161154857829003601f168201915b50505050508152505081526020019060010190611427565b50505050905090565b336000908152600c602052604090205460609060ff1661160e5760405162461bcd60e51b815260206004820152603660248201527f436f6c6f6e793a204f6e6c792061637469766520706c616e6b746f6e7320636160448201527f6e20706572666f726d207468697320616374696f6e2e0000000000000000000060648201526084016104e6565b336000908152600e60209081526040918290208054835181840281018401909452808452909183018282801561166357602002820191906000526020600020905b81548152602001906001019080831161164f575b5050505050905090565b336000908152600c602052604090205460ff166116f25760405162461bcd60e51b815260206004820152603660248201527f436f6c6f6e793a204f6e6c792061637469766520706c616e6b746f6e7320636160448201527f6e20706572666f726d207468697320616374696f6e2e0000000000000000000060648201526084016104e6565b6000818152600a6020526040902054819060ff166117785760405162461bcd60e51b815260206004820152603e60248201527f436f6c6f6e793a205468697320616374696f6e2063616e206f6e6c792062652060448201527f706572666f726d6564206f6e20616e20616374697665207265776172642e000060648201526084016104e6565b336000818152600d6020908152604080832080546001818101835591855283852001879055938352600e8252808320805494850181558352918190209092018490558051808201909152601c81527f52657761726420636c61696d6564207375636365737366756c6c792e00000000918101919091526117f790611dd8565b5050565b60606007805480602002602001604051908101604052809291908181526020016000905b8282101561157d57600084815260209081902060408051808401909152908401546001600160a01b0316815282526001909201910161181f565b600054600160b01b900460ff16156118bc5760405162461bcd60e51b815260206004820152603260248201526000805160206123c883398151915260448201527137b733b2b91031329036b7b234b334b2b21760711b60648201526084016104e6565b6000546001600160a01b0316331461191c5760405162461bcd60e51b815260206004820152602f60248201526000805160206123a883398151915260448201526e3936903a3434b99030b1ba34b7b71760891b60648201526084016104e6565b60066117f782826122aa565b60078181548110610f4c57600080fd5b600054600160b01b900460ff161561199b5760405162461bcd60e51b815260206004820152603260248201526000805160206123c883398151915260448201527137b733b2b91031329036b7b234b334b2b21760711b60648201526084016104e6565b6000546001600160a01b031633146119fb5760405162461bcd60e51b815260206004820152602f60248201526000805160206123a883398151915260448201526e3936903a3434b99030b1ba34b7b71760891b60648201526084016104e6565b604080518082019091528281526020810182905260088054600181018255600091909152815160029091027ff3f7a9fe364faab93b216da50a3214154f22a0a2b415b23a84c8169e8b636ee301908190611a5590826122aa565b5060208201516001820190611a6a90826122aa565b5050506001600a60006001600880549050611a859190612229565b815260200190815260200160002060006101000a81548160ff0219169083151502179055506117f76040518060400160405280601a81526020017f526577617264206164646564207375636365737366756c6c792e000000000000815250611dd8565b336000908152600c602052604090205460609060ff16611b705760405162461bcd60e51b815260206004820152603660248201527f436f6c6f6e793a204f6e6c792061637469766520706c616e6b746f6e7320636160448201527f6e20706572666f726d207468697320616374696f6e2e0000000000000000000060648201526084016104e6565b336000908152600d602090815260409182902080548351818402810184019094528084529091830182828015611663576020028201919060005260206000209081548152602001906001019080831161164f575050505050905090565b600054600160b01b900460ff1615611c305760405162461bcd60e51b815260206004820152603260248201526000805160206123c883398151915260448201527137b733b2b91031329036b7b234b334b2b21760711b60648201526084016104e6565b6000546001600160a01b03163314611c905760405162461bcd60e51b815260206004820152602f60248201526000805160206123a883398151915260448201526e3936903a3434b99030b1ba34b7b71760891b60648201526084016104e6565b6000818152600a602052604090205460ff16611d145760405162461bcd60e51b815260206004820152603c60248201527f436f6c6f6e793a2072657761726420646561637469766174696f6e206661696c60448201527f65642073696e63652072657761726420697320696e6163746976652e0000000060648201526084016104e6565b6000818152600a60205260408120805460ff191690556005805491611d3883612242565b91905055506107026040518060400160405280602081526020017f526577617264206465616374697661746564207375636365737366756c6c792e815250611dd8565b60606009805480602002602001604051908101604052809291908181526020016000908282101561157d57600084815260209081902060408051808401909152908401546001600160a01b0316815282526001909201910161181f565b7fd24275ad1510852f638f0106b2ee573e94217b50a4b0c9bd3861278c341cda25600182604051611e0a92919061236a565b60405180910390a150565b82546000908190611e27908590612229565b909211949350505050565b6000815180845260005b81811015611e5857602081850181015186830182015201611e3c565b506000602082860101526020601f19601f83011685010191505092915050565b602081526000611e8b6020830184611e32565b9392505050565b80356001600160a01b0381168114611ea957600080fd5b919050565b60008060408385031215611ec157600080fd5b611eca83611e92565b946020939093013593505050565b600060208284031215611eea57600080fd5b611e8b82611e92565b600060208284031215611f0557600080fd5b5035919050565b604081526000611f1f6040830185611e32565b8281036020840152611f318185611e32565b95945050505050565b634e487b7160e01b600052604160045260246000fd5b600082601f830112611f6157600080fd5b813567ffffffffffffffff80821115611f7c57611f7c611f3a565b604051601f8301601f19908116603f01168101908282118183101715611fa457611fa4611f3a565b81604052838152866020858801011115611fbd57600080fd5b836020870160208301376000602085830101528094505050505092915050565b600080600060608486031215611ff257600080fd5b833567ffffffffffffffff81111561200957600080fd5b61201586828701611f50565b9660208601359650604090950135949350505050565b60006020808301818452808551808352604092508286019150828160051b87010184880160005b838110156120a257888303603f190185528151805187855261207688860182611e32565b91890151858303868b015291905061208e8183611e32565b968901969450505090860190600101612052565b509098975050505050505050565b6020808252825182820181905260009190848201906040850190845b818110156120e8578351835292840192918401916001016120cc565b50909695505050505050565b6020808252825182820181905260009190848201906040850190845b818110156120e8578351516001600160a01b0316835260208301938501939250600101612110565b60006020828403121561214a57600080fd5b813567ffffffffffffffff81111561216157600080fd5b61216d84828501611f50565b949350505050565b6000806040838503121561218857600080fd5b823567ffffffffffffffff808211156121a057600080fd5b6121ac86838701611f50565b935060208501359150808211156121c257600080fd5b506121cf85828601611f50565b9150509250929050565b600181811c908216806121ed57607f821691505b60208210810361220d57634e487b7160e01b600052602260045260246000fd5b50919050565b634e487b7160e01b600052601160045260246000fd5b8181038181111561223c5761223c612213565b92915050565b60006001820161225457612254612213565b5060010190565b601f8211156122a557600081815260208120601f850160051c810160208610156122825750805b601f850160051c820191505b818110156122a15782815560010161228e565b5050505b505050565b815167ffffffffffffffff8111156122c4576122c4611f3a565b6122d8816122d284546121d9565b8461225b565b602080601f83116001811461230d57600084156122f55750858301515b600019600386901b1c1916600185901b1785556122a1565b600085815260208120601f198616915b8281101561233c5788860151825594840194600190910190840161231d565b508582101561235a5787850151600019600388901b60f8161c191681555b5050505050600190811b01905550565b821515815260406020820152600061216d6040830184611e3256fe506c616e6b746f6e206465616374697661746564207375636365737366756c6c792e436f6c6f6e793a204f6e6c792074686520706f6c79702063616e20706572666f4d6f6469666961626c653a20546869732073797374656d2063616e206e6f206ca164736f6c6343000811000a",
  "devdoc": {
    "kind": "dev",
    "methods": {},
    "version": 1
  },
  "userdoc": {
    "kind": "user",
    "methods": {},
    "version": 1
  },
  "storageLayout": {
    "storage": [
      {
        "astId": 1010,
        "contract": "contracts/colony/Colony.sol:Colony",
        "label": "admin",
        "offset": 0,
        "slot": "0",
        "type": "t_address"
      },
      {
        "astId": 6,
        "contract": "contracts/colony/Colony.sol:Colony",
        "label": "_initialized",
        "offset": 20,
        "slot": "0",
        "type": "t_uint8"
      },
      {
        "astId": 9,
        "contract": "contracts/colony/Colony.sol:Colony",
        "label": "_initializing",
        "offset": 21,
        "slot": "0",
        "type": "t_bool"
      },
      {
        "astId": 1038,
        "contract": "contracts/colony/Colony.sol:Colony",
        "label": "isFinal",
        "offset": 22,
        "slot": "0",
        "type": "t_bool"
      },
      {
        "astId": 1063,
        "contract": "contracts/colony/Colony.sol:Colony",
        "label": "stopped",
        "offset": 23,
        "slot": "0",
        "type": "t_bool"
      },
      {
        "astId": 487,
        "contract": "contracts/colony/Colony.sol:Colony",
        "label": "maxPlanktons",
        "offset": 0,
        "slot": "1",
        "type": "t_uint256"
      },
      {
        "astId": 489,
        "contract": "contracts/colony/Colony.sol:Colony",
        "label": "maxZooxes",
        "offset": 0,
        "slot": "2",
        "type": "t_uint256"
      },
      {
        "astId": 491,
        "contract": "contracts/colony/Colony.sol:Colony",
        "label": "totalInactivePlanktons",
        "offset": 0,
        "slot": "3",
        "type": "t_uint256"
      },
      {
        "astId": 493,
        "contract": "contracts/colony/Colony.sol:Colony",
        "label": "totalInactiveZooxes",
        "offset": 0,
        "slot": "4",
        "type": "t_uint256"
      },
      {
        "astId": 495,
        "contract": "contracts/colony/Colony.sol:Colony",
        "label": "totalInactiveRewards",
        "offset": 0,
        "slot": "5",
        "type": "t_uint256"
      },
      {
        "astId": 497,
        "contract": "contracts/colony/Colony.sol:Colony",
        "label": "name",
        "offset": 0,
        "slot": "6",
        "type": "t_string_storage"
      },
      {
        "astId": 501,
        "contract": "contracts/colony/Colony.sol:Colony",
        "label": "_planktons",
        "offset": 0,
        "slot": "7",
        "type": "t_array(t_struct(Plankton)1130_storage)dyn_storage"
      },
      {
        "astId": 505,
        "contract": "contracts/colony/Colony.sol:Colony",
        "label": "_rewards",
        "offset": 0,
        "slot": "8",
        "type": "t_array(t_struct(Reward)1138_storage)dyn_storage"
      },
      {
        "astId": 509,
        "contract": "contracts/colony/Colony.sol:Colony",
        "label": "_zooxes",
        "offset": 0,
        "slot": "9",
        "type": "t_array(t_struct(Zoox)1133_storage)dyn_storage"
      },
      {
        "astId": 513,
        "contract": "contracts/colony/Colony.sol:Colony",
        "label": "rewardIsActive",
        "offset": 0,
        "slot": "10",
        "type": "t_mapping(t_uint256,t_bool)"
      },
      {
        "astId": 517,
        "contract": "contracts/colony/Colony.sol:Colony",
        "label": "zooxIsActive",
        "offset": 0,
        "slot": "11",
        "type": "t_mapping(t_address,t_bool)"
      },
      {
        "astId": 521,
        "contract": "contracts/colony/Colony.sol:Colony",
        "label": "planktonIsActive",
        "offset": 0,
        "slot": "12",
        "type": "t_mapping(t_address,t_bool)"
      },
      {
        "astId": 526,
        "contract": "contracts/colony/Colony.sol:Colony",
        "label": "_claimed",
        "offset": 0,
        "slot": "13",
        "type": "t_mapping(t_address,t_array(t_uint256)dyn_storage)"
      },
      {
        "astId": 531,
        "contract": "contracts/colony/Colony.sol:Colony",
        "label": "_assigned",
        "offset": 0,
        "slot": "14",
        "type": "t_mapping(t_address,t_array(t_uint256)dyn_storage)"
      }
    ],
    "types": {
      "t_address": {
        "encoding": "inplace",
        "label": "address",
        "numberOfBytes": "20"
      },
      "t_array(t_struct(Plankton)1130_storage)dyn_storage": {
        "base": "t_struct(Plankton)1130_storage",
        "encoding": "dynamic_array",
        "label": "struct Koral.Plankton[]",
        "numberOfBytes": "32"
      },
      "t_array(t_struct(Reward)1138_storage)dyn_storage": {
        "base": "t_struct(Reward)1138_storage",
        "encoding": "dynamic_array",
        "label": "struct Koral.Reward[]",
        "numberOfBytes": "32"
      },
      "t_array(t_struct(Zoox)1133_storage)dyn_storage": {
        "base": "t_struct(Zoox)1133_storage",
        "encoding": "dynamic_array",
        "label": "struct Koral.Zoox[]",
        "numberOfBytes": "32"
      },
      "t_array(t_uint256)dyn_storage": {
        "base": "t_uint256",
        "encoding": "dynamic_array",
        "label": "uint256[]",
        "numberOfBytes": "32"
      },
      "t_bool": {
        "encoding": "inplace",
        "label": "bool",
        "numberOfBytes": "1"
      },
      "t_mapping(t_address,t_array(t_uint256)dyn_storage)": {
        "encoding": "mapping",
        "key": "t_address",
        "label": "mapping(address => uint256[])",
        "numberOfBytes": "32",
        "value": "t_array(t_uint256)dyn_storage"
      },
      "t_mapping(t_address,t_bool)": {
        "encoding": "mapping",
        "key": "t_address",
        "label": "mapping(address => bool)",
        "numberOfBytes": "32",
        "value": "t_bool"
      },
      "t_mapping(t_uint256,t_bool)": {
        "encoding": "mapping",
        "key": "t_uint256",
        "label": "mapping(uint256 => bool)",
        "numberOfBytes": "32",
        "value": "t_bool"
      },
      "t_string_storage": {
        "encoding": "bytes",
        "label": "string",
        "numberOfBytes": "32"
      },
      "t_struct(Plankton)1130_storage": {
        "encoding": "inplace",
        "label": "struct Koral.Plankton",
        "members": [
          {
            "astId": 1129,
            "contract": "contracts/colony/Colony.sol:Colony",
            "label": "id",
            "offset": 0,
            "slot": "0",
            "type": "t_address"
          }
        ],
        "numberOfBytes": "32"
      },
      "t_struct(Reward)1138_storage": {
        "encoding": "inplace",
        "label": "struct Koral.Reward",
        "members": [
          {
            "astId": 1135,
            "contract": "contracts/colony/Colony.sol:Colony",
            "label": "name",
            "offset": 0,
            "slot": "0",
            "type": "t_string_storage"
          },
          {
            "astId": 1137,
            "contract": "contracts/colony/Colony.sol:Colony",
            "label": "location",
            "offset": 0,
            "slot": "1",
            "type": "t_string_storage"
          }
        ],
        "numberOfBytes": "64"
      },
      "t_struct(Zoox)1133_storage": {
        "encoding": "inplace",
        "label": "struct Koral.Zoox",
        "members": [
          {
            "astId": 1132,
            "contract": "contracts/colony/Colony.sol:Colony",
            "label": "id",
            "offset": 0,
            "slot": "0",
            "type": "t_address"
          }
        ],
        "numberOfBytes": "32"
      },
      "t_uint256": {
        "encoding": "inplace",
        "label": "uint256",
        "numberOfBytes": "32"
      },
      "t_uint8": {
        "encoding": "inplace",
        "label": "uint8",
        "numberOfBytes": "1"
      }
    }
  }
}