{
  "address": "0x86B37d8F11C146987Afc1cE88cE785a76033b52b",
  "abi": [
    {
      "anonymous": false,
      "inputs": [
        {
          "indexed": false,
          "internalType": "bool",
          "name": "status",
          "type": "bool"
        },
        {
          "indexed": false,
          "internalType": "string",
          "name": "statement",
          "type": "string"
        }
      ],
      "name": "ActionDone",
      "type": "event"
    },
    {
      "anonymous": false,
      "inputs": [
        {
          "indexed": false,
          "internalType": "uint8",
          "name": "version",
          "type": "uint8"
        }
      ],
      "name": "Initialized",
      "type": "event"
    },
    {
      "inputs": [
        {
          "internalType": "uint256",
          "name": "",
          "type": "uint256"
        }
      ],
      "name": "_planktons",
      "outputs": [
        {
          "internalType": "address",
          "name": "id",
          "type": "address"
        }
      ],
      "stateMutability": "view",
      "type": "function"
    },
    {
      "inputs": [
        {
          "internalType": "uint256",
          "name": "",
          "type": "uint256"
        }
      ],
      "name": "_rewards",
      "outputs": [
        {
          "internalType": "string",
          "name": "name",
          "type": "string"
        },
        {
          "internalType": "string",
          "name": "location",
          "type": "string"
        }
      ],
      "stateMutability": "view",
      "type": "function"
    },
    {
      "inputs": [
        {
          "internalType": "uint256",
          "name": "",
          "type": "uint256"
        }
      ],
      "name": "_zooxes",
      "outputs": [
        {
          "internalType": "address",
          "name": "id",
          "type": "address"
        }
      ],
      "stateMutability": "view",
      "type": "function"
    },
    {
      "inputs": [
        {
          "internalType": "address",
          "name": "plankton",
          "type": "address"
        }
      ],
      "name": "addPlankton",
      "outputs": [],
      "stateMutability": "nonpayable",
      "type": "function"
    },
    {
      "inputs": [
        {
          "internalType": "string",
          "name": "_name",
          "type": "string"
        },
        {
          "internalType": "string",
          "name": "_location",
          "type": "string"
        }
      ],
      "name": "addReward",
      "outputs": [],
      "stateMutability": "nonpayable",
      "type": "function"
    },
    {
      "inputs": [
        {
          "internalType": "address",
          "name": "zoox",
          "type": "address"
        }
      ],
      "name": "addZoox",
      "outputs": [],
      "stateMutability": "nonpayable",
      "type": "function"
    },
    {
      "inputs": [
        {
          "internalType": "address",
          "name": "",
          "type": "address"
        }
      ],
      "name": "assigned",
      "outputs": [
        {
          "internalType": "uint256",
          "name": "",
          "type": "uint256"
        }
      ],
      "stateMutability": "view",
      "type": "function"
    },
    {
      "inputs": [
        {
          "internalType": "uint256",
          "name": "rewardId",
          "type": "uint256"
        }
      ],
      "name": "claimReward",
      "outputs": [
        {
          "internalType": "bool",
          "name": "",
          "type": "bool"
        }
      ],
      "stateMutability": "nonpayable",
      "type": "function"
    },
    {
      "inputs": [
        {
          "internalType": "address",
          "name": "",
          "type": "address"
        }
      ],
      "name": "claimed",
      "outputs": [
        {
          "internalType": "uint256",
          "name": "",
          "type": "uint256"
        }
      ],
      "stateMutability": "view",
      "type": "function"
    },
    {
      "inputs": [
        {
          "internalType": "address",
          "name": "plankton",
          "type": "address"
        }
      ],
      "name": "deactivatePlankton",
      "outputs": [],
      "stateMutability": "nonpayable",
      "type": "function"
    },
    {
      "inputs": [
        {
          "internalType": "uint256",
          "name": "rewardId",
          "type": "uint256"
        }
      ],
      "name": "deactivateReward",
      "outputs": [],
      "stateMutability": "nonpayable",
      "type": "function"
    },
    {
      "inputs": [
        {
          "internalType": "address",
          "name": "zoox",
          "type": "address"
        }
      ],
      "name": "deactivateZoox",
      "outputs": [],
      "stateMutability": "nonpayable",
      "type": "function"
    },
    {
      "inputs": [
        {
          "internalType": "string",
          "name": "_name",
          "type": "string"
        },
        {
          "internalType": "uint256",
          "name": "_maxPlanktons",
          "type": "uint256"
        },
        {
          "internalType": "uint256",
          "name": "_maxZooxes",
          "type": "uint256"
        }
      ],
      "name": "initialize",
      "outputs": [],
      "stateMutability": "nonpayable",
      "type": "function"
    },
    {
      "inputs": [],
      "name": "launch",
      "outputs": [],
      "stateMutability": "nonpayable",
      "type": "function"
    },
    {
      "inputs": [],
      "name": "maxPlanktons",
      "outputs": [
        {
          "internalType": "uint256",
          "name": "",
          "type": "uint256"
        }
      ],
      "stateMutability": "view",
      "type": "function"
    },
    {
      "inputs": [],
      "name": "maxZooxes",
      "outputs": [
        {
          "internalType": "uint256",
          "name": "",
          "type": "uint256"
        }
      ],
      "stateMutability": "view",
      "type": "function"
    },
    {
      "inputs": [],
      "name": "name",
      "outputs": [
        {
          "internalType": "string",
          "name": "",
          "type": "string"
        }
      ],
      "stateMutability": "view",
      "type": "function"
    },
    {
      "inputs": [],
      "name": "planktons",
      "outputs": [
        {
          "components": [
            {
              "internalType": "address",
              "name": "id",
              "type": "address"
            }
          ],
          "internalType": "struct Koral.Plankton[]",
          "name": "",
          "type": "tuple[]"
        }
      ],
      "stateMutability": "view",
      "type": "function"
    },
    {
      "inputs": [],
      "name": "polyp",
      "outputs": [
        {
          "internalType": "address",
          "name": "",
          "type": "address"
        }
      ],
      "stateMutability": "view",
      "type": "function"
    },
    {
      "inputs": [],
      "name": "resume",
      "outputs": [],
      "stateMutability": "nonpayable",
      "type": "function"
    },
    {
      "inputs": [],
      "name": "rewards",
      "outputs": [
        {
          "components": [
            {
              "internalType": "string",
              "name": "name",
              "type": "string"
            },
            {
              "internalType": "string",
              "name": "location",
              "type": "string"
            }
          ],
          "internalType": "struct Koral.Reward[]",
          "name": "",
          "type": "tuple[]"
        }
      ],
      "stateMutability": "view",
      "type": "function"
    },
    {
      "inputs": [
        {
          "internalType": "uint256",
          "name": "_maxPlanktons",
          "type": "uint256"
        }
      ],
      "name": "setMaxPlanktons",
      "outputs": [],
      "stateMutability": "nonpayable",
      "type": "function"
    },
    {
      "inputs": [
        {
          "internalType": "uint256",
          "name": "_maxZooxes",
          "type": "uint256"
        }
      ],
      "name": "setMaxZooxes",
      "outputs": [],
      "stateMutability": "nonpayable",
      "type": "function"
    },
    {
      "inputs": [
        {
          "internalType": "string",
          "name": "_name",
          "type": "string"
        }
      ],
      "name": "setName",
      "outputs": [],
      "stateMutability": "nonpayable",
      "type": "function"
    },
    {
      "inputs": [
        {
          "internalType": "address",
          "name": "_polyp",
          "type": "address"
        }
      ],
      "name": "setPolyp",
      "outputs": [],
      "stateMutability": "nonpayable",
      "type": "function"
    },
    {
      "inputs": [],
      "name": "stop",
      "outputs": [],
      "stateMutability": "nonpayable",
      "type": "function"
    },
    {
      "inputs": [],
      "name": "stopped",
      "outputs": [
        {
          "internalType": "bool",
          "name": "",
          "type": "bool"
        }
      ],
      "stateMutability": "view",
      "type": "function"
    },
    {
      "inputs": [],
      "name": "totalInactivePlanktons",
      "outputs": [
        {
          "internalType": "uint256",
          "name": "",
          "type": "uint256"
        }
      ],
      "stateMutability": "view",
      "type": "function"
    },
    {
      "inputs": [],
      "name": "totalInactiveRewards",
      "outputs": [
        {
          "internalType": "uint256",
          "name": "",
          "type": "uint256"
        }
      ],
      "stateMutability": "view",
      "type": "function"
    },
    {
      "inputs": [],
      "name": "totalInactiveZooxes",
      "outputs": [
        {
          "internalType": "uint256",
          "name": "",
          "type": "uint256"
        }
      ],
      "stateMutability": "view",
      "type": "function"
    },
    {
      "inputs": [],
      "name": "zooxes",
      "outputs": [
        {
          "components": [
            {
              "internalType": "address",
              "name": "id",
              "type": "address"
            }
          ],
          "internalType": "struct Koral.Zoox[]",
          "name": "",
          "type": "tuple[]"
        }
      ],
      "stateMutability": "view",
      "type": "function"
    }
  ],
  "transactionHash": "0xa5e16dda3b62d9e4b4a914d36e6a7279dd1b351a1215afa3b4896defca1658d9",
  "args": [],
  "numDeployments": 1,
  "solcInputHash": "74fbf8081ef6b150f3cbc73802448137",
  "bytecode": "0x60806040526000805461ffff60b01b1916905534801561001e57600080fd5b506121228061002e6000396000f3fe608060405234801561001057600080fd5b50600436106101e55760003560e01c80638f1e94051161010f578063cf2b7d9b116100a2578063ec2cc06511610071578063ec2cc06514610436578063ee8998e41461043e578063f842696c14610447578063fdf5d34d1461045857600080fd5b8063cf2b7d9b146103f4578063d2d890cb146103fd578063d463369814610410578063eabdc5b41461042357600080fd5b8063ae169a50116100de578063ae169a5014610399578063b4550b00146103ac578063c47f0027146103c1578063c884ef83146103d457600080fd5b80638f1e94051461033d57806393b170431461035e578063977d08c0146103715780639ec5a8941461038457600080fd5b806321bdb393116101875780636ff6cee5116101565780636ff6cee5146102bb57806375f12b21146102db5780637cdd102e146102ff57806384133d4a1461031257600080fd5b806321bdb393146102795780632669f2131461028c5780632695a9b41461029f5780634bdf2897146102a857600080fd5b806307da68f5116101c357806307da68f5146102245780630c4775321461023c57806311b490d61461025357806311fd19571461026657600080fd5b806301339c21146101ea578063046f7da2146101f457806306fdde0314610206575b600080fd5b6101f2610461565b005b6101f26000805460ff60b81b19169055565b61020e610539565b60405161021b9190611c1c565b60405180910390f35b6101f26000805460ff60b81b1916600160b81b179055565b61024560025481565b60405190815260200161021b565b6101f2610261366004611c36565b6105c7565b6101f2610274366004611c5f565b6106ab565b6101f2610287366004611c36565b610809565b6101f261029a366004611c36565b6109cb565b61024560055481565b6101f26102b6366004611c5f565b610ba8565b6102456102c9366004611c36565b600e6020526000908152604090205481565b6000546102ef90600160b81b900460ff1681565b604051901515815260200161021b565b6101f261030d366004611c36565b610d21565b610325610320366004611c5f565b610ec6565b6040516001600160a01b03909116815260200161021b565b61035061034b366004611c5f565b610ef0565b60405161021b929190611c78565b6101f261036c366004611c36565b611034565b6101f261037f366004611d49565b611213565b61038c61138d565b60405161021b9190611d97565b6102ef6103a7366004611c5f565b611510565b6103b4611680565b60405161021b9190611e1c565b6101f26103cf366004611e6c565b6116de565b6102456103e2366004611c36565b600d6020526000908152604090205481565b61024560015481565b61032561040b366004611c5f565b6117b1565b6101f261041e366004611ea9565b6117c1565b6101f2610431366004611c5f565b611971565b6103b4611b1f565b61024560045481565b6000546001600160a01b0316610325565b61024560035481565b6000546001600160a01b031633146104c65760405162461bcd60e51b815260206004820152602f60248201526000805160206120d683398151915260448201526e3936903a3434b99030b1ba34b7b71760891b60648201526084015b60405180910390fd5b6104f9600080547fffffffffffffffffff00ffffffffffffffffffffffffffffffffffffffffffff16600160b01b179055565b6105376040518060400160405280601d81526020017f436f6c6f6e79206c61756e63686564207375636365737366756c6c792e000000815250611b7c565b565b6006805461054690611f0d565b80601f016020809104026020016040519081016040528092919081815260200182805461057290611f0d565b80156105bf5780601f10610594576101008083540402835291602001916105bf565b820191906000526020600020905b8154815290600101906020018083116105a257829003601f168201915b505050505081565b600054600160b01b900460ff161561062a5760405162461bcd60e51b815260206004820152603260248201526000805160206120f683398151915260448201527137b733b2b91031329036b7b234b334b2b21760711b60648201526084016104bd565b6000546001600160a01b0316331461068a5760405162461bcd60e51b815260206004820152602f60248201526000805160206120d683398151915260448201526e3936903a3434b99030b1ba34b7b71760891b60648201526084016104bd565b600080546001600160a01b0319166001600160a01b03831617905550565b50565b600054600160b01b900460ff161561070e5760405162461bcd60e51b815260206004820152603260248201526000805160206120f683398151915260448201527137b733b2b91031329036b7b234b334b2b21760711b60648201526084016104bd565b6000546001600160a01b0316331461076e5760405162461bcd60e51b815260206004820152602f60248201526000805160206120d683398151915260448201526e3936903a3434b99030b1ba34b7b71760891b60648201526084016104bd565b60045460095460009161078091611f57565b8210159050806108035760405162461bcd60e51b815260206004820152604260248201527f436f6c6f6e793a206d61785a6f6f786573206d757374206e6f74206265206c6560448201527f7373207468616e20746865206578697374696e6720616374697665207a6f6f78606482015261657360f01b608482015260a4016104bd565b50600255565b600054600160b01b900460ff161561086c5760405162461bcd60e51b815260206004820152603260248201526000805160206120f683398151915260448201527137b733b2b91031329036b7b234b334b2b21760711b60648201526084016104bd565b6000546001600160a01b031633146108cc5760405162461bcd60e51b815260206004820152602f60248201526000805160206120d683398151915260448201526e3936903a3434b99030b1ba34b7b71760891b60648201526084016104bd565b6001600160a01b0381166000908152600b602052604090205460ff1661095a5760405162461bcd60e51b815260206004820152603a60248201527f436f6c6f6e793a2072657761726420646561637469766174696f6e206661696c60448201527f65642073696e6365207a6f6f7820697320696e6163746976652e00000000000060648201526084016104bd565b6001600160a01b0381166000908152600b60205260408120805460ff19169055600480549161098883611f70565b91905055506106a86040518060400160405280601e81526020017f5a6f6f78206465616374697661746564207375636365737366756c6c792e0000815250611b7c565b600054600160b01b900460ff1615610a2e5760405162461bcd60e51b815260206004820152603260248201526000805160206120f683398151915260448201527137b733b2b91031329036b7b234b334b2b21760711b60648201526084016104bd565b6000546001600160a01b03163314610a8e5760405162461bcd60e51b815260206004820152602f60248201526000805160206120d683398151915260448201526e3936903a3434b99030b1ba34b7b71760891b60648201526084016104bd565b600454600254610aa091600991611bb9565b610af65760405162461bcd60e51b815260206004820152602160248201527f436f6c6f6e793a2063616e27742061646420616e79206d6f7265207a6f6f78656044820152607360f81b60648201526084016104bd565b60408051602080820183526001600160a01b038481168084526009805460018082018355600092835295517f6e1540171b6c0c960b71a7020d9f60077f6af931a8bbf590da0223dacf75c7af90910180546001600160a01b03191691909416179092558152600b8252839020805460ff19169092179091558151808301909252601882527f5a6f6f78206164646564207375636365737366756c6c792e0000000000000000908201526106a890611b7c565b600054600160b01b900460ff1615610c0b5760405162461bcd60e51b815260206004820152603260248201526000805160206120f683398151915260448201527137b733b2b91031329036b7b234b334b2b21760711b60648201526084016104bd565b6000546001600160a01b03163314610c6b5760405162461bcd60e51b815260206004820152602f60248201526000805160206120d683398151915260448201526e3936903a3434b99030b1ba34b7b71760891b60648201526084016104bd565b600354600754600091610c7d91611f57565b821015905080610d1b5760405162461bcd60e51b815260206004820152604860248201527f436f6c6f6e793a206d6178506c616e6b746f6e73206d757374206e6f7420626560448201527f206c657373207468616e20746865206578697374696e6720616374697665207060648201527f6c616e6b746f6e73000000000000000000000000000000000000000000000000608482015260a4016104bd565b50600155565b600054600160b01b900460ff1615610d845760405162461bcd60e51b815260206004820152603260248201526000805160206120f683398151915260448201527137b733b2b91031329036b7b234b334b2b21760711b60648201526084016104bd565b6000546001600160a01b03163314610de45760405162461bcd60e51b815260206004820152602f60248201526000805160206120d683398151915260448201526e3936903a3434b99030b1ba34b7b71760891b60648201526084016104bd565b6001600160a01b0381166000908152600c602052604090205460ff16610e725760405162461bcd60e51b815260206004820152603e60248201527f436f6c6f6e793a2072657761726420646561637469766174696f6e206661696c60448201527f65642073696e636520706c616e6b746f6e20697320696e6163746976652e000060648201526084016104bd565b6001600160a01b0381166000908152600c60205260408120805460ff191690556003805491610ea083611f70565b91905055506106a86040518060600160405280602281526020016120b460229139611b7c565b60098181548110610ed657600080fd5b6000918252602090912001546001600160a01b0316905081565b60088181548110610f0057600080fd5b9060005260206000209060020201600091509050806000018054610f2390611f0d565b80601f0160208091040260200160405190810160405280929190818152602001828054610f4f90611f0d565b8015610f9c5780601f10610f7157610100808354040283529160200191610f9c565b820191906000526020600020905b815481529060010190602001808311610f7f57829003601f168201915b505050505090806001018054610fb190611f0d565b80601f0160208091040260200160405190810160405280929190818152602001828054610fdd90611f0d565b801561102a5780601f10610fff5761010080835404028352916020019161102a565b820191906000526020600020905b81548152906001019060200180831161100d57829003601f168201915b5050505050905082565b600054600160b01b900460ff16156110975760405162461bcd60e51b815260206004820152603260248201526000805160206120f683398151915260448201527137b733b2b91031329036b7b234b334b2b21760711b60648201526084016104bd565b6000546001600160a01b031633146110f75760405162461bcd60e51b815260206004820152602f60248201526000805160206120d683398151915260448201526e3936903a3434b99030b1ba34b7b71760891b60648201526084016104bd565b60035460015461110991600791611bb9565b6111615760405162461bcd60e51b8152602060048201526024808201527f436f6c6f6e793a2063616e27742061646420616e79206d6f726520706c616e6b604482015263746f6e7360e01b60648201526084016104bd565b60408051602080820183526001600160a01b038481168084526007805460018082018355600092835295517fa66cc928b5edb82af9bd49922954155ab7b0942694bea4ce44661d9a8736c68890910180546001600160a01b03191691909416179092558152600c8252839020805460ff19169092179091558151808301909252601c82527f506c616e6b746f6e206164646564207375636365737366756c6c792e00000000908201526106a890611b7c565b600054600160a81b900460ff161580801561123b57506000546001600160a01b90910460ff16105b8061125c5750303b15801561125c5750600054600160a01b900460ff166001145b6112ce5760405162461bcd60e51b815260206004820152602e60248201527f496e697469616c697a61626c653a20636f6e747261637420697320616c72656160448201527f647920696e697469616c697a656400000000000000000000000000000000000060648201526084016104bd565b600080547fffffffffffffffffffffff00ffffffffffffffffffffffffffffffffffffffff16600160a01b1790558015611316576000805460ff60a81b1916600160a81b1790555b600080546001600160a01b0319163317905560066113348582611fd8565b50600183905560028290558015611387576000805460ff60a81b19169055604051600181527f7f26b83ff96e1f2b6a682f133852f6798a09c465da95921460cefb38474024989060200160405180910390a15b50505050565b60606008805480602002602001604051908101604052809291908181526020016000905b8282101561150757838290600052602060002090600202016040518060400160405290816000820180546113e490611f0d565b80601f016020809104026020016040519081016040528092919081815260200182805461141090611f0d565b801561145d5780601f106114325761010080835404028352916020019161145d565b820191906000526020600020905b81548152906001019060200180831161144057829003601f168201915b5050505050815260200160018201805461147690611f0d565b80601f01602080910402602001604051908101604052809291908181526020018280546114a290611f0d565b80156114ef5780601f106114c4576101008083540402835291602001916114ef565b820191906000526020600020905b8154815290600101906020018083116114d257829003601f168201915b505050505081525050815260200190600101906113b1565b50505050905090565b336000908152600c602052604081205460ff166115955760405162461bcd60e51b815260206004820152603660248201527f436f6c6f6e793a204f6e6c792061637469766520706c616e6b746f6e7320636160448201527f6e20706572666f726d207468697320616374696f6e2e0000000000000000000060648201526084016104bd565b6000828152600a6020526040902054829060ff1661161b5760405162461bcd60e51b815260206004820152603e60248201527f436f6c6f6e793a205468697320616374696f6e2063616e206f6e6c792062652060448201527f706572666f726d6564206f6e20616e20616374697665207265776172642e000060648201526084016104bd565b336000908152600d60209081526040808320869055600e8252918290208590558151808301909252601c82527f52657761726420636c61696d6564207375636365737366756c6c792e000000009082015261167590611b7c565b600191505b50919050565b60606007805480602002602001604051908101604052809291908181526020016000905b8282101561150757600084815260209081902060408051808401909152908401546001600160a01b031681528252600190920191016116a4565b600054600160b01b900460ff16156117415760405162461bcd60e51b815260206004820152603260248201526000805160206120f683398151915260448201527137b733b2b91031329036b7b234b334b2b21760711b60648201526084016104bd565b6000546001600160a01b031633146117a15760405162461bcd60e51b815260206004820152602f60248201526000805160206120d683398151915260448201526e3936903a3434b99030b1ba34b7b71760891b60648201526084016104bd565b60066117ad8282611fd8565b5050565b60078181548110610ed657600080fd5b600054600160b01b900460ff16156118245760405162461bcd60e51b815260206004820152603260248201526000805160206120f683398151915260448201527137b733b2b91031329036b7b234b334b2b21760711b60648201526084016104bd565b6000546001600160a01b031633146118845760405162461bcd60e51b815260206004820152602f60248201526000805160206120d683398151915260448201526e3936903a3434b99030b1ba34b7b71760891b60648201526084016104bd565b604080518082019091528281526020810182905260088054600181018255600091909152815160029091027ff3f7a9fe364faab93b216da50a3214154f22a0a2b415b23a84c8169e8b636ee3019081906118de9082611fd8565b50602082015160018201906118f39082611fd8565b5050506001600a6000600160088054905061190e9190611f57565b815260200190815260200160002060006101000a81548160ff0219169083151502179055506117ad6040518060400160405280601a81526020017f526577617264206164646564207375636365737366756c6c792e000000000000815250611b7c565b600054600160b01b900460ff16156119d45760405162461bcd60e51b815260206004820152603260248201526000805160206120f683398151915260448201527137b733b2b91031329036b7b234b334b2b21760711b60648201526084016104bd565b6000546001600160a01b03163314611a345760405162461bcd60e51b815260206004820152602f60248201526000805160206120d683398151915260448201526e3936903a3434b99030b1ba34b7b71760891b60648201526084016104bd565b6000818152600a602052604090205460ff16611ab85760405162461bcd60e51b815260206004820152603c60248201527f436f6c6f6e793a2072657761726420646561637469766174696f6e206661696c60448201527f65642073696e63652072657761726420697320696e6163746976652e0000000060648201526084016104bd565b6000818152600a60205260408120805460ff191690556005805491611adc83611f70565b91905055506106a86040518060400160405280602081526020017f526577617264206465616374697661746564207375636365737366756c6c792e815250611b7c565b60606009805480602002602001604051908101604052809291908181526020016000908282101561150757600084815260209081902060408051808401909152908401546001600160a01b031681528252600190920191016116a4565b7fd24275ad1510852f638f0106b2ee573e94217b50a4b0c9bd3861278c341cda25600182604051611bae929190612098565b60405180910390a150565b82546000908190611bcb908590611f57565b909211949350505050565b6000815180845260005b81811015611bfc57602081850181015186830182015201611be0565b506000602082860101526020601f19601f83011685010191505092915050565b602081526000611c2f6020830184611bd6565b9392505050565b600060208284031215611c4857600080fd5b81356001600160a01b0381168114611c2f57600080fd5b600060208284031215611c7157600080fd5b5035919050565b604081526000611c8b6040830185611bd6565b8281036020840152611c9d8185611bd6565b95945050505050565b634e487b7160e01b600052604160045260246000fd5b600082601f830112611ccd57600080fd5b813567ffffffffffffffff80821115611ce857611ce8611ca6565b604051601f8301601f19908116603f01168101908282118183101715611d1057611d10611ca6565b81604052838152866020858801011115611d2957600080fd5b836020870160208301376000602085830101528094505050505092915050565b600080600060608486031215611d5e57600080fd5b833567ffffffffffffffff811115611d7557600080fd5b611d8186828701611cbc565b9660208601359650604090950135949350505050565b60006020808301818452808551808352604092508286019150828160051b87010184880160005b83811015611e0e57888303603f1901855281518051878552611de288860182611bd6565b91890151858303868b0152919050611dfa8183611bd6565b968901969450505090860190600101611dbe565b509098975050505050505050565b6020808252825182820181905260009190848201906040850190845b81811015611e60578351516001600160a01b0316835260208301938501939250600101611e38565b50909695505050505050565b600060208284031215611e7e57600080fd5b813567ffffffffffffffff811115611e9557600080fd5b611ea184828501611cbc565b949350505050565b60008060408385031215611ebc57600080fd5b823567ffffffffffffffff80821115611ed457600080fd5b611ee086838701611cbc565b93506020850135915080821115611ef657600080fd5b50611f0385828601611cbc565b9150509250929050565b600181811c90821680611f2157607f821691505b60208210810361167a57634e487b7160e01b600052602260045260246000fd5b634e487b7160e01b600052601160045260246000fd5b81810381811115611f6a57611f6a611f41565b92915050565b600060018201611f8257611f82611f41565b5060010190565b601f821115611fd357600081815260208120601f850160051c81016020861015611fb05750805b601f850160051c820191505b81811015611fcf57828155600101611fbc565b5050505b505050565b815167ffffffffffffffff811115611ff257611ff2611ca6565b612006816120008454611f0d565b84611f89565b602080601f83116001811461203b57600084156120235750858301515b600019600386901b1c1916600185901b178555611fcf565b600085815260208120601f198616915b8281101561206a5788860151825594840194600190910190840161204b565b50858210156120885787850151600019600388901b60f8161c191681555b5050505050600190811b01905550565b8215158152604060208201526000611ea16040830184611bd656fe506c616e6b746f6e206465616374697661746564207375636365737366756c6c792e436f6c6f6e793a204f6e6c792074686520706f6c79702063616e20706572666f4d6f6469666961626c653a20546869732073797374656d2063616e206e6f206ca164736f6c6343000811000a",
  "devdoc": {
    "kind": "dev",
    "methods": {},
    "version": 1
  },
  "userdoc": {
    "kind": "user",
    "methods": {},
    "version": 1
  },
  "storageLayout": {
    "storage": [
      {
        "astId": 982,
        "contract": "contracts/colony/Colony.sol:Colony",
        "label": "admin",
        "offset": 0,
        "slot": "0",
        "type": "t_address"
      },
      {
        "astId": 6,
        "contract": "contracts/colony/Colony.sol:Colony",
        "label": "_initialized",
        "offset": 20,
        "slot": "0",
        "type": "t_uint8"
      },
      {
        "astId": 9,
        "contract": "contracts/colony/Colony.sol:Colony",
        "label": "_initializing",
        "offset": 21,
        "slot": "0",
        "type": "t_bool"
      },
      {
        "astId": 1010,
        "contract": "contracts/colony/Colony.sol:Colony",
        "label": "isFinal",
        "offset": 22,
        "slot": "0",
        "type": "t_bool"
      },
      {
        "astId": 1035,
        "contract": "contracts/colony/Colony.sol:Colony",
        "label": "stopped",
        "offset": 23,
        "slot": "0",
        "type": "t_bool"
      },
      {
        "astId": 487,
        "contract": "contracts/colony/Colony.sol:Colony",
        "label": "maxPlanktons",
        "offset": 0,
        "slot": "1",
        "type": "t_uint256"
      },
      {
        "astId": 489,
        "contract": "contracts/colony/Colony.sol:Colony",
        "label": "maxZooxes",
        "offset": 0,
        "slot": "2",
        "type": "t_uint256"
      },
      {
        "astId": 491,
        "contract": "contracts/colony/Colony.sol:Colony",
        "label": "totalInactivePlanktons",
        "offset": 0,
        "slot": "3",
        "type": "t_uint256"
      },
      {
        "astId": 493,
        "contract": "contracts/colony/Colony.sol:Colony",
        "label": "totalInactiveZooxes",
        "offset": 0,
        "slot": "4",
        "type": "t_uint256"
      },
      {
        "astId": 495,
        "contract": "contracts/colony/Colony.sol:Colony",
        "label": "totalInactiveRewards",
        "offset": 0,
        "slot": "5",
        "type": "t_uint256"
      },
      {
        "astId": 497,
        "contract": "contracts/colony/Colony.sol:Colony",
        "label": "name",
        "offset": 0,
        "slot": "6",
        "type": "t_string_storage"
      },
      {
        "astId": 501,
        "contract": "contracts/colony/Colony.sol:Colony",
        "label": "_planktons",
        "offset": 0,
        "slot": "7",
        "type": "t_array(t_struct(Plankton)1102_storage)dyn_storage"
      },
      {
        "astId": 505,
        "contract": "contracts/colony/Colony.sol:Colony",
        "label": "_rewards",
        "offset": 0,
        "slot": "8",
        "type": "t_array(t_struct(Reward)1110_storage)dyn_storage"
      },
      {
        "astId": 509,
        "contract": "contracts/colony/Colony.sol:Colony",
        "label": "_zooxes",
        "offset": 0,
        "slot": "9",
        "type": "t_array(t_struct(Zoox)1105_storage)dyn_storage"
      },
      {
        "astId": 513,
        "contract": "contracts/colony/Colony.sol:Colony",
        "label": "rewardIsActive",
        "offset": 0,
        "slot": "10",
        "type": "t_mapping(t_uint256,t_bool)"
      },
      {
        "astId": 517,
        "contract": "contracts/colony/Colony.sol:Colony",
        "label": "zooxIsActive",
        "offset": 0,
        "slot": "11",
        "type": "t_mapping(t_address,t_bool)"
      },
      {
        "astId": 521,
        "contract": "contracts/colony/Colony.sol:Colony",
        "label": "planktonIsActive",
        "offset": 0,
        "slot": "12",
        "type": "t_mapping(t_address,t_bool)"
      },
      {
        "astId": 525,
        "contract": "contracts/colony/Colony.sol:Colony",
        "label": "claimed",
        "offset": 0,
        "slot": "13",
        "type": "t_mapping(t_address,t_uint256)"
      },
      {
        "astId": 529,
        "contract": "contracts/colony/Colony.sol:Colony",
        "label": "assigned",
        "offset": 0,
        "slot": "14",
        "type": "t_mapping(t_address,t_uint256)"
      }
    ],
    "types": {
      "t_address": {
        "encoding": "inplace",
        "label": "address",
        "numberOfBytes": "20"
      },
      "t_array(t_struct(Plankton)1102_storage)dyn_storage": {
        "base": "t_struct(Plankton)1102_storage",
        "encoding": "dynamic_array",
        "label": "struct Koral.Plankton[]",
        "numberOfBytes": "32"
      },
      "t_array(t_struct(Reward)1110_storage)dyn_storage": {
        "base": "t_struct(Reward)1110_storage",
        "encoding": "dynamic_array",
        "label": "struct Koral.Reward[]",
        "numberOfBytes": "32"
      },
      "t_array(t_struct(Zoox)1105_storage)dyn_storage": {
        "base": "t_struct(Zoox)1105_storage",
        "encoding": "dynamic_array",
        "label": "struct Koral.Zoox[]",
        "numberOfBytes": "32"
      },
      "t_bool": {
        "encoding": "inplace",
        "label": "bool",
        "numberOfBytes": "1"
      },
      "t_mapping(t_address,t_bool)": {
        "encoding": "mapping",
        "key": "t_address",
        "label": "mapping(address => bool)",
        "numberOfBytes": "32",
        "value": "t_bool"
      },
      "t_mapping(t_address,t_uint256)": {
        "encoding": "mapping",
        "key": "t_address",
        "label": "mapping(address => uint256)",
        "numberOfBytes": "32",
        "value": "t_uint256"
      },
      "t_mapping(t_uint256,t_bool)": {
        "encoding": "mapping",
        "key": "t_uint256",
        "label": "mapping(uint256 => bool)",
        "numberOfBytes": "32",
        "value": "t_bool"
      },
      "t_string_storage": {
        "encoding": "bytes",
        "label": "string",
        "numberOfBytes": "32"
      },
      "t_struct(Plankton)1102_storage": {
        "encoding": "inplace",
        "label": "struct Koral.Plankton",
        "members": [
          {
            "astId": 1101,
            "contract": "contracts/colony/Colony.sol:Colony",
            "label": "id",
            "offset": 0,
            "slot": "0",
            "type": "t_address"
          }
        ],
        "numberOfBytes": "32"
      },
      "t_struct(Reward)1110_storage": {
        "encoding": "inplace",
        "label": "struct Koral.Reward",
        "members": [
          {
            "astId": 1107,
            "contract": "contracts/colony/Colony.sol:Colony",
            "label": "name",
            "offset": 0,
            "slot": "0",
            "type": "t_string_storage"
          },
          {
            "astId": 1109,
            "contract": "contracts/colony/Colony.sol:Colony",
            "label": "location",
            "offset": 0,
            "slot": "1",
            "type": "t_string_storage"
          }
        ],
        "numberOfBytes": "64"
      },
      "t_struct(Zoox)1105_storage": {
        "encoding": "inplace",
        "label": "struct Koral.Zoox",
        "members": [
          {
            "astId": 1104,
            "contract": "contracts/colony/Colony.sol:Colony",
            "label": "id",
            "offset": 0,
            "slot": "0",
            "type": "t_address"
          }
        ],
        "numberOfBytes": "32"
      },
      "t_uint256": {
        "encoding": "inplace",
        "label": "uint256",
        "numberOfBytes": "32"
      },
      "t_uint8": {
        "encoding": "inplace",
        "label": "uint8",
        "numberOfBytes": "1"
      }
    }
  }
}