{
  "_format": "hh-sol-artifact-1",
  "contractName": "AMA_SponsorEscrow",
  "sourceName": "contracts/AMA_SponsorEscrow.sol",
  "abi": [
    {
      "inputs": [],
      "stateMutability": "nonpayable",
      "type": "constructor"
    },
    {
      "inputs": [],
      "name": "ama_addr",
      "outputs": [
        {
          "internalType": "address",
          "name": "",
          "type": "address"
        }
      ],
      "stateMutability": "view",
      "type": "function"
    },
    {
      "inputs": [
        {
          "internalType": "uint256",
          "name": "id",
          "type": "uint256"
        }
      ],
      "name": "approve",
      "outputs": [
        {
          "internalType": "bool",
          "name": "",
          "type": "bool"
        }
      ],
      "stateMutability": "nonpayable",
      "type": "function"
    },
    {
      "inputs": [
        {
          "internalType": "uint256",
          "name": "id",
          "type": "uint256"
        }
      ],
      "name": "cancel",
      "outputs": [],
      "stateMutability": "nonpayable",
      "type": "function"
    },
    {
      "inputs": [
        {
          "internalType": "string",
          "name": "title",
          "type": "string"
        },
        {
          "internalType": "uint256",
          "name": "value",
          "type": "uint256"
        },
        {
          "internalType": "uint256",
          "name": "settlementTime",
          "type": "uint256"
        }
      ],
      "name": "create",
      "outputs": [],
      "stateMutability": "payable",
      "type": "function"
    },
    {
      "inputs": [
        {
          "internalType": "uint256",
          "name": "",
          "type": "uint256"
        }
      ],
      "name": "escrowSponsor",
      "outputs": [
        {
          "internalType": "address",
          "name": "",
          "type": "address"
        }
      ],
      "stateMutability": "view",
      "type": "function"
    },
    {
      "inputs": [
        {
          "internalType": "uint256",
          "name": "",
          "type": "uint256"
        }
      ],
      "name": "escrows",
      "outputs": [
        {
          "internalType": "address payable",
          "name": "sponsor",
          "type": "address"
        },
        {
          "internalType": "address payable",
          "name": "partner",
          "type": "address"
        },
        {
          "internalType": "string",
          "name": "title",
          "type": "string"
        },
        {
          "internalType": "bool",
          "name": "amaApproved",
          "type": "bool"
        },
        {
          "internalType": "enum AMA_SponsorEscrow.Asset",
          "name": "currency",
          "type": "uint8"
        },
        {
          "internalType": "uint256",
          "name": "funds",
          "type": "uint256"
        },
        {
          "internalType": "uint256",
          "name": "fees",
          "type": "uint256"
        },
        {
          "internalType": "enum AMA_SponsorEscrow.State",
          "name": "escrowState",
          "type": "uint8"
        },
        {
          "internalType": "uint256",
          "name": "settlementTime",
          "type": "uint256"
        }
      ],
      "stateMutability": "view",
      "type": "function"
    },
    {
      "inputs": [
        {
          "internalType": "address",
          "name": "",
          "type": "address"
        }
      ],
      "name": "lockTime",
      "outputs": [
        {
          "internalType": "uint256",
          "name": "",
          "type": "uint256"
        }
      ],
      "stateMutability": "view",
      "type": "function"
    },
    {
      "inputs": [],
      "name": "nEscrow",
      "outputs": [
        {
          "internalType": "uint256",
          "name": "",
          "type": "uint256"
        }
      ],
      "stateMutability": "view",
      "type": "function"
    },
    {
      "inputs": [
        {
          "internalType": "uint256",
          "name": "id",
          "type": "uint256"
        }
      ],
      "name": "reject",
      "outputs": [
        {
          "internalType": "bool",
          "name": "",
          "type": "bool"
        }
      ],
      "stateMutability": "nonpayable",
      "type": "function"
    },
    {
      "inputs": [
        {
          "internalType": "uint256",
          "name": "id",
          "type": "uint256"
        }
      ],
      "name": "releaseFunds",
      "outputs": [],
      "stateMutability": "nonpayable",
      "type": "function"
    },
    {
      "inputs": [
        {
          "internalType": "uint256",
          "name": "id",
          "type": "uint256"
        }
      ],
      "name": "setComplete",
      "outputs": [
        {
          "internalType": "bool",
          "name": "",
          "type": "bool"
        }
      ],
      "stateMutability": "nonpayable",
      "type": "function"
    },
    {
      "inputs": [
        {
          "internalType": "uint256",
          "name": "id",
          "type": "uint256"
        },
        {
          "internalType": "string",
          "name": "title",
          "type": "string"
        }
      ],
      "name": "setTitle",
      "outputs": [
        {
          "internalType": "bool",
          "name": "",
          "type": "bool"
        }
      ],
      "stateMutability": "nonpayable",
      "type": "function"
    },
    {
      "inputs": [
        {
          "internalType": "uint256",
          "name": "id",
          "type": "uint256"
        },
        {
          "internalType": "uint256",
          "name": "requestValue",
          "type": "uint256"
        }
      ],
      "name": "userFaucet",
      "outputs": [
        {
          "internalType": "uint256",
          "name": "",
          "type": "uint256"
        }
      ],
      "stateMutability": "nonpayable",
      "type": "function"
    }
  ],
  "bytecode": "0x6080604052600480546001600160a01b03191673e574f636e9dd392987d32c6d249cda305c615b2517905534801561003657600080fd5b50600180546001600160a01b03199081163317909155600060055560028054909116737dbc9c5d22ea26dca7d9f5fa1c321bc6a6ccd2fe1790556116ce8061007f6000396000f3fe6080604052600436106100d25760003560e01c806389e8491f1161007f578063b759f95411610059578063b759f95414610270578063b8adaa1114610290578063ca81af29146102b0578063cda3c499146102c657600080fd5b806389e8491f146101ed578063a4beda631461020d578063a557dd841461023a57600080fd5b80634d68282f116100b05780634d68282f1461016f5780635102bc9d1461018f578063700e27aa146101bf57600080fd5b8063012f52ee146100d75780633e4b5ec31461011557806340e58ee51461014d575b600080fd5b3480156100e357600080fd5b506100f76100f236600461123e565b6102d9565b60405161010c99989796959493929190611291565b60405180910390f35b34801561012157600080fd5b50600154610135906001600160a01b031681565b6040516001600160a01b03909116815260200161010c565b34801561015957600080fd5b5061016d61016836600461123e565b6103c0565b005b34801561017b57600080fd5b5061016d61018a36600461123e565b610699565b34801561019b57600080fd5b506101af6101aa3660046113f0565b61099b565b604051901515815260200161010c565b3480156101cb57600080fd5b506101df6101da366004611437565b610a97565b60405190815260200161010c565b3480156101f957600080fd5b506101af61020836600461123e565b610c5b565b34801561021957600080fd5b506101df610228366004611459565b60076020526000908152604090205481565b34801561024657600080fd5b5061013561025536600461123e565b6008602052600090815260409020546001600160a01b031681565b34801561027c57600080fd5b506101af61028b36600461123e565b610d6d565b34801561029c57600080fd5b506101af6102ab36600461123e565b610ea0565b3480156102bc57600080fd5b506101df60055481565b61016d6102d4366004611489565b610fce565b6006602052600090815260409020805460018201546002830180546001600160a01b0393841694929093169261030e906114d7565b80601f016020809104026020016040519081016040528092919081815260200182805461033a906114d7565b80156103875780601f1061035c57610100808354040283529160200191610387565b820191906000526020600020905b81548152906001019060200180831161036a57829003601f168201915b505050506003830154600484015460058501546006860154600790960154949560ff808516966101009095048116955092939192169089565b60008181526006602052604090205481906001600160a01b031633146104375760405162461bcd60e51b815260206004820152602160248201527f4f6e6c792073706f6e736f722063616e2063616c6c2074686973206d6574686f6044820152601960fa1b60648201526084015b60405180910390fd5b60008083815260066020526040902060030154610100900460ff16801561046057610460611257565b036106715760048054600154604051636eb1769f60e11b815230938101939093526001600160a01b039081166024840152169063dd62ed3e90604401602060405180830381865afa1580156104b9573d6000803e3d6000fd5b505050506040513d601f19601f820116820180604052508101906104dd9190611511565b5060048054600254604051636eb1769f60e11b815230938101939093526001600160a01b039081166024840152169063dd62ed3e90604401602060405180830381865afa158015610532573d6000803e3d6000fd5b505050506040513d601f19601f820116820180604052508101906105569190611511565b506004805460015460008581526006602052604090819020840154905163a9059cbb60e01b81526001600160a01b03928316948101949094526024840152169063a9059cbb906044016020604051808303816000875af11580156105be573d6000803e3d6000fd5b505050506040513d601f19601f820116820180604052508101906105e2919061152a565b50600480546002546000858152600660205260409081902060050154905163a9059cbb60e01b81526001600160a01b03928316948101949094526024840152169063a9059cbb906044016020604051808303816000875af115801561064b573d6000803e3d6000fd5b505050506040513d601f19601f8201168201806040525081019061066f919061152a565b505b506000908152600660208190526040822060048082019390935501805460ff19169091179055565b806001806000838152600660208190526040909120015460ff1660048111156106c4576106c4611257565b146107005760405162461bcd60e51b815260206004820152600c60248201526b2bb937b7339039ba30ba329760a11b604482015260640161042e565b60008381526006602052604090206003015460ff16156109965760008084815260066020526040902060030154610100900460ff16801561074357610743611257565b0361096a576004805460008581526006602052604090819020600101549051636eb1769f60e11b815230938101939093526001600160a01b039081166024840152169063dd62ed3e90604401602060405180830381865afa1580156107ac573d6000803e3d6000fd5b505050506040513d601f19601f820116820180604052508101906107d09190611511565b5060048054600254604051636eb1769f60e11b815230938101939093526001600160a01b039081166024840152169063dd62ed3e90604401602060405180830381865afa158015610825573d6000803e3d6000fd5b505050506040513d601f19601f820116820180604052508101906108499190611511565b506004805460008581526006602052604090819020600181015490840154915163a9059cbb60e01b81526001600160a01b03918216948101949094526024840191909152169063a9059cbb906044016020604051808303816000875af11580156108b7573d6000803e3d6000fd5b505050506040513d601f19601f820116820180604052508101906108db919061152a565b50600480546002546000868152600660205260409081902060050154905163a9059cbb60e01b81526001600160a01b03928316948101949094526024840152169063a9059cbb906044016020604051808303816000875af1158015610944573d6000803e3d6000fd5b505050506040513d601f19601f82011682018060405250810190610968919061152a565b505b6000838152600660208190526040822060048101839055600581019290925501805460ff191660031790555b505050565b60008281526006602052604081205483906001600160a01b03163314610a0d5760405162461bcd60e51b815260206004820152602160248201527f4f6e6c792073706f6e736f722063616e2063616c6c2074686973206d6574686f6044820152601960fa1b606482015260840161042e565b6000848152600660205260409020546001600160a01b0316610a715760405162461bcd60e51b815260206004820152601660248201527f457363726f773a20496e76616c696420457363726f7700000000000000000000604482015260640161042e565b6000848152600660205260409020600201610a8c848261159a565b506001949350505050565b60008281526006602081905260408220015460019060ff166004811115610ac057610ac0611257565b14610b0d5760405162461bcd60e51b815260206004820152601c60248201527f457363726f7720756e617661696c61626c6520746f2066617563657400000000604482015260640161042e565b6008821115610b5e5760405162461bcd60e51b815260206004820152601660248201527f52657175657374206c6576656c20657863656564656400000000000000000000604482015260640161042e565b336000908152600760205260409020544211610be25760405162461bcd60e51b815260206004820152603760248201527f596f752063616e2774207265717565737420616761696e20736f20736f6f6e2e60448201527f20506c656173652074727920616761696e206c61746572000000000000000000606482015260840161042e565b60008381526006602052604090206004015480831115610c0857809250610c0884610699565b600084815260066020526040902060040154610c25908490611670565b600085815260066020526040902060040155610c4342613840611687565b33600090815260076020526040902055509092915050565b60015460009082906001600160a01b03163314610ce05760405162461bcd60e51b815260206004820152602660248201527f4f6e6c7920414d4120706c6174666f726d2063616e2063616c6c20746869732060448201527f6d6574686f640000000000000000000000000000000000000000000000000000606482015260840161042e565b826001806000838152600660208190526040909120015460ff166004811115610d0b57610d0b611257565b14610d475760405162461bcd60e51b815260206004820152600c60248201526b2bb937b7339039ba30ba329760a11b604482015260640161042e565b50505060009182525060066020819052604090912001805460ff19166003179055600190565b60008181526006602052604081205482906001600160a01b0316331480610d9e57506001546001600160a01b031633145b610e005760405162461bcd60e51b815260206004820152602d60248201527f4f6e6c792073706f6e736f72206f7220706c6174666f726d2063616e2063616c60448201526c1b081d1a1a5cc81b595d1a1bd9609a1b606482015260840161042e565b826001806000838152600660208190526040909120015460ff166004811115610e2b57610e2b611257565b14610e675760405162461bcd60e51b815260206004820152600c60248201526b2bb937b7339039ba30ba329760a11b604482015260640161042e565b6001546001600160a01b03163303610a8c576000858152600660205260409020600301805460ff19166001179055506001949350505050565b60008181526006602052604081205482906001600160a01b0316331480610ed157506001546001600160a01b031633145b610f335760405162461bcd60e51b815260206004820152602d60248201527f4f6e6c792073706f6e736f72206f7220706c6174666f726d2063616e2063616c60448201526c1b081d1a1a5cc81b595d1a1bd9609a1b606482015260840161042e565b826001806000838152600660208190526040909120015460ff166004811115610f5e57610f5e611257565b14610f9a5760405162461bcd60e51b815260206004820152600c60248201526b2bb937b7339039ba30ba329760a11b604482015260640161042e565b6001546001600160a01b03163303610a8c57505050600091825250600660205260409020600301805460ff19169055600190565b60015433906001600160a01b031681036110505760405162461bcd60e51b815260206004820152603260248201527f506c6174666f726d2063616e2774206d616b6520616e20657363726f772e204f60448201527f6e6c7920612073706f6e736f722063616e2e0000000000000000000000000000606482015260840161042e565b60055461105e906001611687565b600555604080516101208101825260006080820181905260a0820181905260c0820181905260e0820181905261010082018190526001600160a01b0384811683529054166020820152600160608201529081018590526110c06101908561169f565b60c082018190526110d19085611670565b60a08201526101008101839052600160e0820181905250600554600090815260066020908152604091829020835181547fffffffffffffffffffffffff00000000000000000000000000000000000000009081166001600160a01b039283161783559285015160018301805490941691161790915590820151829190600282019061115c908261159a565b50606082015160038201805491151560ff1983168117825560808501519261ff001990911661ffff199091161761010083801561119b5761119b611257565b021790555060a0820151816004015560c0820151816005015560e08201518160060160006101000a81548160ff021916908360048111156111de576111de611257565b02179055506101008201518160070155905050816008600060016005546112059190611670565b815260200190815260200160002060006101000a8154816001600160a01b0302191690836001600160a01b031602179055505050505050565b60006020828403121561125057600080fd5b5035919050565b634e487b7160e01b600052602160045260246000fd5b6001811061127d5761127d611257565b9052565b6005811061127d5761127d611257565b60006101206001600160a01b03808d1684526020818d16818601528260408601528b5191508183860152600092505b818310156112df578b83018101518584016101400152918201916112c0565b50808211156112f357600061014082860101525b601f01601f191683016101400191506113129050606083018915159052565b61131f608083018861126d565b8560a08301528460c083015261133860e0830185611281565b826101008301529a9950505050505050505050565b634e487b7160e01b600052604160045260246000fd5b600082601f83011261137457600080fd5b813567ffffffffffffffff8082111561138f5761138f61134d565b604051601f8301601f19908116603f011681019082821181831017156113b7576113b761134d565b816040528381528660208588010111156113d057600080fd5b836020870160208301376000602085830101528094505050505092915050565b6000806040838503121561140357600080fd5b82359150602083013567ffffffffffffffff81111561142157600080fd5b61142d85828601611363565b9150509250929050565b6000806040838503121561144a57600080fd5b50508035926020909101359150565b60006020828403121561146b57600080fd5b81356001600160a01b038116811461148257600080fd5b9392505050565b60008060006060848603121561149e57600080fd5b833567ffffffffffffffff8111156114b557600080fd5b6114c186828701611363565b9660208601359650604090950135949350505050565b600181811c908216806114eb57607f821691505b60208210810361150b57634e487b7160e01b600052602260045260246000fd5b50919050565b60006020828403121561152357600080fd5b5051919050565b60006020828403121561153c57600080fd5b8151801515811461148257600080fd5b601f82111561099657600081815260208120601f850160051c810160208610156115735750805b601f850160051c820191505b818110156115925782815560010161157f565b505050505050565b815167ffffffffffffffff8111156115b4576115b461134d565b6115c8816115c284546114d7565b8461154c565b602080601f8311600181146115fd57600084156115e55750858301515b600019600386901b1c1916600185901b178555611592565b600085815260208120601f198616915b8281101561162c5788860151825594840194600190910190840161160d565b508582101561164a5787850151600019600388901b60f8161c191681555b5050505050600190811b01905550565b634e487b7160e01b600052601160045260246000fd5b6000828210156116825761168261165a565b500390565b6000821982111561169a5761169a61165a565b500190565b6000826116bc57634e487b7160e01b600052601260045260246000fd5b50049056fea164736f6c634300080f000a",
  "linkReferences": {},
  "deployedLinkReferences": {}
}